{
	"basic_11_20.sol": {
		"Practice": {
			"abi": [
				{
					"inputs": [
						{
							"internalType": "uint256",
							"name": "_a",
							"type": "uint256"
						},
						{
							"internalType": "uint256",
							"name": "_b",
							"type": "uint256"
						},
						{
							"internalType": "uint256",
							"name": "_c",
							"type": "uint256"
						}
					],
					"name": "addNumbers",
					"outputs": [
						{
							"internalType": "uint256",
							"name": "",
							"type": "uint256"
						}
					],
					"stateMutability": "pure",
					"type": "function"
				},
				{
					"inputs": [
						{
							"internalType": "uint256",
							"name": "_a",
							"type": "uint256"
						},
						{
							"internalType": "uint256",
							"name": "_b",
							"type": "uint256"
						},
						{
							"internalType": "uint256",
							"name": "_c",
							"type": "uint256"
						}
					],
					"name": "calcNumbers",
					"outputs": [
						{
							"internalType": "uint256",
							"name": "",
							"type": "uint256"
						}
					],
					"stateMutability": "pure",
					"type": "function"
				},
				{
					"inputs": [
						{
							"internalType": "uint256",
							"name": "_n",
							"type": "uint256"
						}
					],
					"name": "get2X",
					"outputs": [
						{
							"internalType": "uint256",
							"name": "",
							"type": "uint256"
						}
					],
					"stateMutability": "pure",
					"type": "function"
				},
				{
					"inputs": [
						{
							"internalType": "string",
							"name": "_name",
							"type": "string"
						}
					],
					"name": "getBirthday",
					"outputs": [
						{
							"internalType": "uint256",
							"name": "",
							"type": "uint256"
						}
					],
					"stateMutability": "view",
					"type": "function"
				},
				{
					"inputs": [
						{
							"internalType": "string",
							"name": "_name",
							"type": "string"
						}
					],
					"name": "isBob",
					"outputs": [
						{
							"internalType": "bool",
							"name": "",
							"type": "bool"
						}
					],
					"stateMutability": "pure",
					"type": "function"
				},
				{
					"inputs": [
						{
							"internalType": "uint256",
							"name": "_a",
							"type": "uint256"
						},
						{
							"internalType": "uint256",
							"name": "_b",
							"type": "uint256"
						},
						{
							"internalType": "uint256",
							"name": "_c",
							"type": "uint256"
						}
					],
					"name": "mulNumbers",
					"outputs": [
						{
							"internalType": "uint256",
							"name": "",
							"type": "uint256"
						}
					],
					"stateMutability": "pure",
					"type": "function"
				},
				{
					"inputs": [
						{
							"internalType": "string",
							"name": "_name",
							"type": "string"
						},
						{
							"internalType": "uint256",
							"name": "_birth",
							"type": "uint256"
						}
					],
					"name": "setBirthday",
					"outputs": [],
					"stateMutability": "nonpayable",
					"type": "function"
				},
				{
					"inputs": [
						{
							"internalType": "uint256",
							"name": "_n",
							"type": "uint256"
						}
					],
					"name": "setEvenNumber",
					"outputs": [],
					"stateMutability": "nonpayable",
					"type": "function"
				}
			],
			"devdoc": {
				"kind": "dev",
				"methods": {},
				"version": 1
			},
			"evm": {
				"assembly": "    /* \"basic_11_20.sol\":75:3193  contract Practice {... */\n  mstore(0x40, 0x80)\n  callvalue\n  dup1\n  iszero\n  tag_1\n  jumpi\n  0x00\n  dup1\n  revert\ntag_1:\n  pop\n  dataSize(sub_0)\n  dup1\n  dataOffset(sub_0)\n  0x00\n  codecopy\n  0x00\n  return\nstop\n\nsub_0: assembly {\n        /* \"basic_11_20.sol\":75:3193  contract Practice {... */\n      mstore(0x40, 0x80)\n      callvalue\n      dup1\n      iszero\n      tag_1\n      jumpi\n      0x00\n      dup1\n      revert\n    tag_1:\n      pop\n      jumpi(tag_2, lt(calldatasize, 0x04))\n      shr(0xe0, calldataload(0x00))\n      dup1\n      0xc0481dcb\n      gt\n      tag_11\n      jumpi\n      dup1\n      0xc0481dcb\n      eq\n      tag_7\n      jumpi\n      dup1\n      0xced9390d\n      eq\n      tag_8\n      jumpi\n      dup1\n      0xf1740222\n      eq\n      tag_9\n      jumpi\n      dup1\n      0xf68ad875\n      eq\n      tag_10\n      jumpi\n      jump(tag_2)\n    tag_11:\n      dup1\n      0x1363e7a8\n      eq\n      tag_3\n      jumpi\n      dup1\n      0x210bec54\n      eq\n      tag_4\n      jumpi\n      dup1\n      0x7bf9b9f5\n      eq\n      tag_5\n      jumpi\n      dup1\n      0xaeac33dc\n      eq\n      tag_6\n      jumpi\n    tag_2:\n      0x00\n      dup1\n      revert\n        /* \"basic_11_20.sol\":1961:2101  function isBob(string memory _name) public pure returns(bool) {... */\n    tag_3:\n      tag_12\n      0x04\n      dup1\n      calldatasize\n      sub\n      dup2\n      add\n      swap1\n      tag_13\n      swap2\n      swap1\n      tag_14\n      jump\t// in\n    tag_13:\n      tag_15\n      jump\t// in\n    tag_12:\n      mload(0x40)\n      tag_16\n      swap2\n      swap1\n      tag_17\n      jump\t// in\n    tag_16:\n      mload(0x40)\n      dup1\n      swap2\n      sub\n      swap1\n      return\n        /* \"basic_11_20.sol\":728:842  function mulNumbers( uint _a, uint _b, uint _c ) public pure returns(uint){... */\n    tag_4:\n      tag_18\n      0x04\n      dup1\n      calldatasize\n      sub\n      dup2\n      add\n      swap1\n      tag_19\n      swap2\n      swap1\n      tag_20\n      jump\t// in\n    tag_19:\n      tag_21\n      jump\t// in\n    tag_18:\n      mload(0x40)\n      tag_22\n      swap2\n      swap1\n      tag_23\n      jump\t// in\n    tag_22:\n      mload(0x40)\n      dup1\n      swap2\n      sub\n      swap1\n      return\n        /* \"basic_11_20.sol\":850:965  function calcNumbers( uint _a, uint _b, uint _c ) public pure returns(uint){... */\n    tag_5:\n      tag_24\n      0x04\n      dup1\n      calldatasize\n      sub\n      dup2\n      add\n      swap1\n      tag_25\n      swap2\n      swap1\n      tag_20\n      jump\t// in\n    tag_25:\n      tag_26\n      jump\t// in\n    tag_24:\n      mload(0x40)\n      tag_27\n      swap2\n      swap1\n      tag_23\n      jump\t// in\n    tag_27:\n      mload(0x40)\n      dup1\n      swap2\n      sub\n      swap1\n      return\n        /* \"basic_11_20.sol\":2766:2885  function get2X(uint _n) public pure returns(uint) {... */\n    tag_6:\n      tag_28\n      0x04\n      dup1\n      calldatasize\n      sub\n      dup2\n      add\n      swap1\n      tag_29\n      swap2\n      swap1\n      tag_30\n      jump\t// in\n    tag_29:\n      tag_31\n      jump\t// in\n    tag_28:\n      mload(0x40)\n      tag_32\n      swap2\n      swap1\n      tag_23\n      jump\t// in\n    tag_32:\n      mload(0x40)\n      dup1\n      swap2\n      sub\n      swap1\n      return\n        /* \"basic_11_20.sol\":2461:2570  function getBirthday(string memory _name) public view returns(uint) {... */\n    tag_7:\n      tag_33\n      0x04\n      dup1\n      calldatasize\n      sub\n      dup2\n      add\n      swap1\n      tag_34\n      swap2\n      swap1\n      tag_14\n      jump\t// in\n    tag_34:\n      tag_35\n      jump\t// in\n    tag_33:\n      mload(0x40)\n      tag_36\n      swap2\n      swap1\n      tag_23\n      jump\t// in\n    tag_36:\n      mload(0x40)\n      dup1\n      swap2\n      sub\n      swap1\n      return\n        /* \"basic_11_20.sol\":249:443  function setEvenNumber( uint _n ) public {... */\n    tag_8:\n      tag_37\n      0x04\n      dup1\n      calldatasize\n      sub\n      dup2\n      add\n      swap1\n      tag_38\n      swap2\n      swap1\n      tag_30\n      jump\t// in\n    tag_38:\n      tag_39\n      jump\t// in\n    tag_37:\n      stop\n        /* \"basic_11_20.sol\":606:720  function addNumbers( uint _a, uint _b, uint _c ) public pure returns(uint){... */\n    tag_9:\n      tag_40\n      0x04\n      dup1\n      calldatasize\n      sub\n      dup2\n      add\n      swap1\n      tag_41\n      swap2\n      swap1\n      tag_20\n      jump\t// in\n    tag_41:\n      tag_42\n      jump\t// in\n    tag_40:\n      mload(0x40)\n      tag_43\n      swap2\n      swap1\n      tag_23\n      jump\t// in\n    tag_43:\n      mload(0x40)\n      dup1\n      swap2\n      sub\n      swap1\n      return\n        /* \"basic_11_20.sol\":2350:2455  function setBirthday(string memory _name, uint _birth) public {... */\n    tag_10:\n      tag_44\n      0x04\n      dup1\n      calldatasize\n      sub\n      dup2\n      add\n      swap1\n      tag_45\n      swap2\n      swap1\n      tag_46\n      jump\t// in\n    tag_45:\n      tag_47\n      jump\t// in\n    tag_44:\n      stop\n        /* \"basic_11_20.sol\":1961:2101  function isBob(string memory _name) public pure returns(bool) {... */\n    tag_15:\n        /* \"basic_11_20.sol\":2017:2021  bool */\n      0x00\n        /* \"basic_11_20.sol\":2079:2091  bytes(\"Bob\") */\n      mload(0x40)\n      dup1\n      0x40\n      add\n      0x40\n      mstore\n      dup1\n      0x03\n      dup2\n      mstore\n      0x20\n      add\n      0x426f620000000000000000000000000000000000000000000000000000000000\n      dup2\n      mstore\n      pop\n        /* \"basic_11_20.sol\":2069:2092  keccak256(bytes(\"Bob\")) */\n      dup1\n      mload\n      swap1\n      0x20\n      add\n      keccak256\n        /* \"basic_11_20.sol\":2058:2063  _name */\n      dup3\n        /* \"basic_11_20.sol\":2042:2065  keccak256(bytes(_name)) */\n      dup1\n      mload\n      swap1\n      0x20\n      add\n      keccak256\n        /* \"basic_11_20.sol\":2042:2092  keccak256(bytes(_name)) == keccak256(bytes(\"Bob\")) */\n      eq\n        /* \"basic_11_20.sol\":2034:2093  return (keccak256(bytes(_name)) == keccak256(bytes(\"Bob\"))) */\n      swap1\n      pop\n        /* \"basic_11_20.sol\":1961:2101  function isBob(string memory _name) public pure returns(bool) {... */\n      swap2\n      swap1\n      pop\n      jump\t// out\n        /* \"basic_11_20.sol\":728:842  function mulNumbers( uint _a, uint _b, uint _c ) public pure returns(uint){... */\n    tag_21:\n        /* \"basic_11_20.sol\":797:801  uint */\n      0x00\n        /* \"basic_11_20.sol\":831:833  _c */\n      dup2\n        /* \"basic_11_20.sol\":826:828  _b */\n      dup4\n        /* \"basic_11_20.sol\":821:823  _a */\n      dup6\n        /* \"basic_11_20.sol\":821:828  _a * _b */\n      tag_50\n      swap2\n      swap1\n      tag_51\n      jump\t// in\n    tag_50:\n        /* \"basic_11_20.sol\":821:833  _a * _b * _c */\n      tag_52\n      swap2\n      swap1\n      tag_51\n      jump\t// in\n    tag_52:\n        /* \"basic_11_20.sol\":813:834  return (_a * _b * _c) */\n      swap1\n      pop\n        /* \"basic_11_20.sol\":728:842  function mulNumbers( uint _a, uint _b, uint _c ) public pure returns(uint){... */\n      swap4\n      swap3\n      pop\n      pop\n      pop\n      jump\t// out\n        /* \"basic_11_20.sol\":850:965  function calcNumbers( uint _a, uint _b, uint _c ) public pure returns(uint){... */\n    tag_26:\n        /* \"basic_11_20.sol\":920:924  uint */\n      0x00\n        /* \"basic_11_20.sol\":954:956  _c */\n      dup2\n        /* \"basic_11_20.sol\":949:951  _b */\n      dup4\n        /* \"basic_11_20.sol\":944:946  _a */\n      dup6\n        /* \"basic_11_20.sol\":944:951  _a * _b */\n      tag_54\n      swap2\n      swap1\n      tag_51\n      jump\t// in\n    tag_54:\n        /* \"basic_11_20.sol\":944:956  _a * _b + _c */\n      tag_55\n      swap2\n      swap1\n      tag_56\n      jump\t// in\n    tag_55:\n        /* \"basic_11_20.sol\":936:957  return (_a * _b + _c) */\n      swap1\n      pop\n        /* \"basic_11_20.sol\":850:965  function calcNumbers( uint _a, uint _b, uint _c ) public pure returns(uint){... */\n      swap4\n      swap3\n      pop\n      pop\n      pop\n      jump\t// out\n        /* \"basic_11_20.sol\":2766:2885  function get2X(uint _n) public pure returns(uint) {... */\n    tag_31:\n        /* \"basic_11_20.sol\":2810:2814  uint */\n      0x00\n        /* \"basic_11_20.sol\":2840:2844  1000 */\n      0x03e8\n        /* \"basic_11_20.sol\":2835:2837  _n */\n      dup3\n        /* \"basic_11_20.sol\":2835:2844  _n < 1000 */\n      lt\n        /* \"basic_11_20.sol\":2827:2855  require(_n < 1000, \"revert\") */\n      tag_58\n      jumpi\n      mload(0x40)\n      0x08c379a000000000000000000000000000000000000000000000000000000000\n      dup2\n      mstore\n      0x04\n      add\n      tag_59\n      swap1\n      tag_60\n      jump\t// in\n    tag_59:\n      mload(0x40)\n      dup1\n      swap2\n      sub\n      swap1\n      revert\n    tag_58:\n        /* \"basic_11_20.sol\":2876:2877  2 */\n      0x02\n        /* \"basic_11_20.sol\":2873:2875  _n */\n      dup3\n        /* \"basic_11_20.sol\":2873:2877  _n*2 */\n      tag_61\n      swap2\n      swap1\n      tag_51\n      jump\t// in\n    tag_61:\n        /* \"basic_11_20.sol\":2866:2877  return _n*2 */\n      swap1\n      pop\n        /* \"basic_11_20.sol\":2766:2885  function get2X(uint _n) public pure returns(uint) {... */\n      swap2\n      swap1\n      pop\n      jump\t// out\n        /* \"basic_11_20.sol\":2461:2570  function getBirthday(string memory _name) public view returns(uint) {... */\n    tag_35:\n        /* \"basic_11_20.sol\":2523:2527  uint */\n      0x00\n        /* \"basic_11_20.sol\":2547:2555  birthday */\n      0x01\n        /* \"basic_11_20.sol\":2556:2561  _name */\n      dup3\n        /* \"basic_11_20.sol\":2547:2562  birthday[_name] */\n      mload(0x40)\n      tag_63\n      swap2\n      swap1\n      tag_64\n      jump\t// in\n    tag_63:\n      swap1\n      dup2\n      mstore\n      0x20\n      add\n      mload(0x40)\n      dup1\n      swap2\n      sub\n      swap1\n      keccak256\n      sload\n        /* \"basic_11_20.sol\":2540:2562  return birthday[_name] */\n      swap1\n      pop\n        /* \"basic_11_20.sol\":2461:2570  function getBirthday(string memory _name) public view returns(uint) {... */\n      swap2\n      swap1\n      pop\n      jump\t// out\n        /* \"basic_11_20.sol\":249:443  function setEvenNumber( uint _n ) public {... */\n    tag_39:\n        /* \"basic_11_20.sol\":305:311  uint i */\n      0x00\n        /* \"basic_11_20.sol\":312:313  1 */\n      0x01\n        /* \"basic_11_20.sol\":305:313  uint i=1 */\n      swap1\n      pop\n        /* \"basic_11_20.sol\":301:417  for(uint i=1; i < _n; i++) {... */\n    tag_66:\n        /* \"basic_11_20.sol\":319:321  _n */\n      dup2\n        /* \"basic_11_20.sol\":315:316  i */\n      dup2\n        /* \"basic_11_20.sol\":315:321  i < _n */\n      lt\n        /* \"basic_11_20.sol\":301:417  for(uint i=1; i < _n; i++) {... */\n      iszero\n      tag_67\n      jumpi\n        /* \"basic_11_20.sol\":355:356  0 */\n      0x00\n        /* \"basic_11_20.sol\":350:351  2 */\n      0x02\n        /* \"basic_11_20.sol\":348:349  i */\n      dup3\n        /* \"basic_11_20.sol\":348:351  i%2 */\n      tag_69\n      swap2\n      swap1\n      tag_70\n      jump\t// in\n    tag_69:\n        /* \"basic_11_20.sol\":348:356  i%2 == 0 */\n      sub\n        /* \"basic_11_20.sol\":343:406  if ( i%2 == 0 ){... */\n      tag_71\n      jumpi\n        /* \"basic_11_20.sol\":377:382  array */\n      0x00\n        /* \"basic_11_20.sol\":388:389  i */\n      dup2\n        /* \"basic_11_20.sol\":377:390  array.push(i) */\n      swap1\n      dup1\n      0x01\n      dup2\n      sload\n      add\n      dup1\n      dup3\n      sstore\n      dup1\n      swap2\n      pop\n      pop\n      0x01\n      swap1\n      sub\n      swap1\n      0x00\n      mstore\n      keccak256(0x00, 0x20)\n      add\n      0x00\n      swap1\n      swap2\n      swap1\n      swap2\n      swap1\n      swap2\n      pop\n      sstore\n        /* \"basic_11_20.sol\":343:406  if ( i%2 == 0 ){... */\n    tag_71:\n        /* \"basic_11_20.sol\":323:326  i++ */\n      dup1\n      dup1\n      0x01\n      add\n      swap2\n      pop\n      pop\n        /* \"basic_11_20.sol\":301:417  for(uint i=1; i < _n; i++) {... */\n      jump(tag_66)\n    tag_67:\n      pop\n        /* \"basic_11_20.sol\":249:443  function setEvenNumber( uint _n ) public {... */\n      pop\n      jump\t// out\n        /* \"basic_11_20.sol\":606:720  function addNumbers( uint _a, uint _b, uint _c ) public pure returns(uint){... */\n    tag_42:\n        /* \"basic_11_20.sol\":675:679  uint */\n      0x00\n        /* \"basic_11_20.sol\":709:711  _c */\n      dup2\n        /* \"basic_11_20.sol\":704:706  _b */\n      dup4\n        /* \"basic_11_20.sol\":699:701  _a */\n      dup6\n        /* \"basic_11_20.sol\":699:706  _a + _b */\n      tag_74\n      swap2\n      swap1\n      tag_56\n      jump\t// in\n    tag_74:\n        /* \"basic_11_20.sol\":699:711  _a + _b + _c */\n      tag_75\n      swap2\n      swap1\n      tag_56\n      jump\t// in\n    tag_75:\n        /* \"basic_11_20.sol\":691:712  return (_a + _b + _c) */\n      swap1\n      pop\n        /* \"basic_11_20.sol\":606:720  function addNumbers( uint _a, uint _b, uint _c ) public pure returns(uint){... */\n      swap4\n      swap3\n      pop\n      pop\n      pop\n      jump\t// out\n        /* \"basic_11_20.sol\":2350:2455  function setBirthday(string memory _name, uint _birth) public {... */\n    tag_47:\n        /* \"basic_11_20.sol\":2441:2447  _birth */\n      dup1\n        /* \"basic_11_20.sol\":2423:2431  birthday */\n      0x01\n        /* \"basic_11_20.sol\":2432:2437  _name */\n      dup4\n        /* \"basic_11_20.sol\":2423:2438  birthday[_name] */\n      mload(0x40)\n      tag_77\n      swap2\n      swap1\n      tag_64\n      jump\t// in\n    tag_77:\n      swap1\n      dup2\n      mstore\n      0x20\n      add\n      mload(0x40)\n      dup1\n      swap2\n      sub\n      swap1\n      keccak256\n        /* \"basic_11_20.sol\":2423:2447  birthday[_name] = _birth */\n      dup2\n      swap1\n      sstore\n      pop\n        /* \"basic_11_20.sol\":2350:2455  function setBirthday(string memory _name, uint _birth) public {... */\n      pop\n      pop\n      jump\t// out\n        /* \"#utility.yul\":7:82   */\n    tag_78:\n        /* \"#utility.yul\":40:46   */\n      0x00\n        /* \"#utility.yul\":73:75   */\n      0x40\n        /* \"#utility.yul\":67:76   */\n      mload\n        /* \"#utility.yul\":57:76   */\n      swap1\n      pop\n        /* \"#utility.yul\":7:82   */\n      swap1\n      jump\t// out\n        /* \"#utility.yul\":88:205   */\n    tag_79:\n        /* \"#utility.yul\":197:198   */\n      0x00\n        /* \"#utility.yul\":194:195   */\n      dup1\n        /* \"#utility.yul\":187:199   */\n      revert\n        /* \"#utility.yul\":211:328   */\n    tag_80:\n        /* \"#utility.yul\":320:321   */\n      0x00\n        /* \"#utility.yul\":317:318   */\n      dup1\n        /* \"#utility.yul\":310:322   */\n      revert\n        /* \"#utility.yul\":334:451   */\n    tag_81:\n        /* \"#utility.yul\":443:444   */\n      0x00\n        /* \"#utility.yul\":440:441   */\n      dup1\n        /* \"#utility.yul\":433:445   */\n      revert\n        /* \"#utility.yul\":457:574   */\n    tag_82:\n        /* \"#utility.yul\":566:567   */\n      0x00\n        /* \"#utility.yul\":563:564   */\n      dup1\n        /* \"#utility.yul\":556:568   */\n      revert\n        /* \"#utility.yul\":580:682   */\n    tag_83:\n        /* \"#utility.yul\":621:627   */\n      0x00\n        /* \"#utility.yul\":672:674   */\n      0x1f\n        /* \"#utility.yul\":668:675   */\n      not\n        /* \"#utility.yul\":663:665   */\n      0x1f\n        /* \"#utility.yul\":656:661   */\n      dup4\n        /* \"#utility.yul\":652:666   */\n      add\n        /* \"#utility.yul\":648:676   */\n      and\n        /* \"#utility.yul\":638:676   */\n      swap1\n      pop\n        /* \"#utility.yul\":580:682   */\n      swap2\n      swap1\n      pop\n      jump\t// out\n        /* \"#utility.yul\":688:868   */\n    tag_84:\n        /* \"#utility.yul\":736:813   */\n      0x4e487b7100000000000000000000000000000000000000000000000000000000\n        /* \"#utility.yul\":733:734   */\n      0x00\n        /* \"#utility.yul\":726:814   */\n      mstore\n        /* \"#utility.yul\":833:837   */\n      0x41\n        /* \"#utility.yul\":830:831   */\n      0x04\n        /* \"#utility.yul\":823:838   */\n      mstore\n        /* \"#utility.yul\":857:861   */\n      0x24\n        /* \"#utility.yul\":854:855   */\n      0x00\n        /* \"#utility.yul\":847:862   */\n      revert\n        /* \"#utility.yul\":874:1155   */\n    tag_85:\n        /* \"#utility.yul\":957:984   */\n      tag_115\n        /* \"#utility.yul\":979:983   */\n      dup3\n        /* \"#utility.yul\":957:984   */\n      tag_83\n      jump\t// in\n    tag_115:\n        /* \"#utility.yul\":949:955   */\n      dup2\n        /* \"#utility.yul\":945:985   */\n      add\n        /* \"#utility.yul\":1087:1093   */\n      dup2\n        /* \"#utility.yul\":1075:1085   */\n      dup2\n        /* \"#utility.yul\":1072:1094   */\n      lt\n        /* \"#utility.yul\":1051:1069   */\n      0xffffffffffffffff\n        /* \"#utility.yul\":1039:1049   */\n      dup3\n        /* \"#utility.yul\":1036:1070   */\n      gt\n        /* \"#utility.yul\":1033:1095   */\n      or\n        /* \"#utility.yul\":1030:1118   */\n      iszero\n      tag_116\n      jumpi\n        /* \"#utility.yul\":1098:1116   */\n      tag_117\n      tag_84\n      jump\t// in\n    tag_117:\n        /* \"#utility.yul\":1030:1118   */\n    tag_116:\n        /* \"#utility.yul\":1138:1148   */\n      dup1\n        /* \"#utility.yul\":1134:1136   */\n      0x40\n        /* \"#utility.yul\":1127:1149   */\n      mstore\n        /* \"#utility.yul\":917:1155   */\n      pop\n        /* \"#utility.yul\":874:1155   */\n      pop\n      pop\n      jump\t// out\n        /* \"#utility.yul\":1161:1290   */\n    tag_86:\n        /* \"#utility.yul\":1195:1201   */\n      0x00\n        /* \"#utility.yul\":1222:1242   */\n      tag_119\n      tag_78\n      jump\t// in\n    tag_119:\n        /* \"#utility.yul\":1212:1242   */\n      swap1\n      pop\n        /* \"#utility.yul\":1251:1284   */\n      tag_120\n        /* \"#utility.yul\":1279:1283   */\n      dup3\n        /* \"#utility.yul\":1271:1277   */\n      dup3\n        /* \"#utility.yul\":1251:1284   */\n      tag_85\n      jump\t// in\n    tag_120:\n        /* \"#utility.yul\":1161:1290   */\n      swap2\n      swap1\n      pop\n      jump\t// out\n        /* \"#utility.yul\":1296:1604   */\n    tag_87:\n        /* \"#utility.yul\":1358:1362   */\n      0x00\n        /* \"#utility.yul\":1448:1466   */\n      0xffffffffffffffff\n        /* \"#utility.yul\":1440:1446   */\n      dup3\n        /* \"#utility.yul\":1437:1467   */\n      gt\n        /* \"#utility.yul\":1434:1490   */\n      iszero\n      tag_122\n      jumpi\n        /* \"#utility.yul\":1470:1488   */\n      tag_123\n      tag_84\n      jump\t// in\n    tag_123:\n        /* \"#utility.yul\":1434:1490   */\n    tag_122:\n        /* \"#utility.yul\":1508:1537   */\n      tag_124\n        /* \"#utility.yul\":1530:1536   */\n      dup3\n        /* \"#utility.yul\":1508:1537   */\n      tag_83\n      jump\t// in\n    tag_124:\n        /* \"#utility.yul\":1500:1537   */\n      swap1\n      pop\n        /* \"#utility.yul\":1592:1596   */\n      0x20\n        /* \"#utility.yul\":1586:1590   */\n      dup2\n        /* \"#utility.yul\":1582:1597   */\n      add\n        /* \"#utility.yul\":1574:1597   */\n      swap1\n      pop\n        /* \"#utility.yul\":1296:1604   */\n      swap2\n      swap1\n      pop\n      jump\t// out\n        /* \"#utility.yul\":1610:1756   */\n    tag_88:\n        /* \"#utility.yul\":1707:1713   */\n      dup3\n        /* \"#utility.yul\":1702:1705   */\n      dup2\n        /* \"#utility.yul\":1697:1700   */\n      dup4\n        /* \"#utility.yul\":1684:1714   */\n      calldatacopy\n        /* \"#utility.yul\":1748:1749   */\n      0x00\n        /* \"#utility.yul\":1739:1745   */\n      dup4\n        /* \"#utility.yul\":1734:1737   */\n      dup4\n        /* \"#utility.yul\":1730:1746   */\n      add\n        /* \"#utility.yul\":1723:1750   */\n      mstore\n        /* \"#utility.yul\":1610:1756   */\n      pop\n      pop\n      pop\n      jump\t// out\n        /* \"#utility.yul\":1762:2187   */\n    tag_89:\n        /* \"#utility.yul\":1840:1845   */\n      0x00\n        /* \"#utility.yul\":1865:1931   */\n      tag_127\n        /* \"#utility.yul\":1881:1930   */\n      tag_128\n        /* \"#utility.yul\":1923:1929   */\n      dup5\n        /* \"#utility.yul\":1881:1930   */\n      tag_87\n      jump\t// in\n    tag_128:\n        /* \"#utility.yul\":1865:1931   */\n      tag_86\n      jump\t// in\n    tag_127:\n        /* \"#utility.yul\":1856:1931   */\n      swap1\n      pop\n        /* \"#utility.yul\":1954:1960   */\n      dup3\n        /* \"#utility.yul\":1947:1952   */\n      dup2\n        /* \"#utility.yul\":1940:1961   */\n      mstore\n        /* \"#utility.yul\":1992:1996   */\n      0x20\n        /* \"#utility.yul\":1985:1990   */\n      dup2\n        /* \"#utility.yul\":1981:1997   */\n      add\n        /* \"#utility.yul\":2030:2033   */\n      dup5\n        /* \"#utility.yul\":2021:2027   */\n      dup5\n        /* \"#utility.yul\":2016:2019   */\n      dup5\n        /* \"#utility.yul\":2012:2028   */\n      add\n        /* \"#utility.yul\":2009:2034   */\n      gt\n        /* \"#utility.yul\":2006:2118   */\n      iszero\n      tag_129\n      jumpi\n        /* \"#utility.yul\":2037:2116   */\n      tag_130\n      tag_82\n      jump\t// in\n    tag_130:\n        /* \"#utility.yul\":2006:2118   */\n    tag_129:\n        /* \"#utility.yul\":2127:2181   */\n      tag_131\n        /* \"#utility.yul\":2174:2180   */\n      dup5\n        /* \"#utility.yul\":2169:2172   */\n      dup3\n        /* \"#utility.yul\":2164:2167   */\n      dup6\n        /* \"#utility.yul\":2127:2181   */\n      tag_88\n      jump\t// in\n    tag_131:\n        /* \"#utility.yul\":1846:2187   */\n      pop\n        /* \"#utility.yul\":1762:2187   */\n      swap4\n      swap3\n      pop\n      pop\n      pop\n      jump\t// out\n        /* \"#utility.yul\":2207:2547   */\n    tag_90:\n        /* \"#utility.yul\":2263:2268   */\n      0x00\n        /* \"#utility.yul\":2312:2315   */\n      dup3\n        /* \"#utility.yul\":2305:2309   */\n      0x1f\n        /* \"#utility.yul\":2297:2303   */\n      dup4\n        /* \"#utility.yul\":2293:2310   */\n      add\n        /* \"#utility.yul\":2289:2316   */\n      slt\n        /* \"#utility.yul\":2279:2401   */\n      tag_133\n      jumpi\n        /* \"#utility.yul\":2320:2399   */\n      tag_134\n      tag_81\n      jump\t// in\n    tag_134:\n        /* \"#utility.yul\":2279:2401   */\n    tag_133:\n        /* \"#utility.yul\":2437:2443   */\n      dup2\n        /* \"#utility.yul\":2424:2444   */\n      calldataload\n        /* \"#utility.yul\":2462:2541   */\n      tag_135\n        /* \"#utility.yul\":2537:2540   */\n      dup5\n        /* \"#utility.yul\":2529:2535   */\n      dup3\n        /* \"#utility.yul\":2522:2526   */\n      0x20\n        /* \"#utility.yul\":2514:2520   */\n      dup7\n        /* \"#utility.yul\":2510:2527   */\n      add\n        /* \"#utility.yul\":2462:2541   */\n      tag_89\n      jump\t// in\n    tag_135:\n        /* \"#utility.yul\":2453:2541   */\n      swap2\n      pop\n        /* \"#utility.yul\":2269:2547   */\n      pop\n        /* \"#utility.yul\":2207:2547   */\n      swap3\n      swap2\n      pop\n      pop\n      jump\t// out\n        /* \"#utility.yul\":2553:3062   */\n    tag_14:\n        /* \"#utility.yul\":2622:2628   */\n      0x00\n        /* \"#utility.yul\":2671:2673   */\n      0x20\n        /* \"#utility.yul\":2659:2668   */\n      dup3\n        /* \"#utility.yul\":2650:2657   */\n      dup5\n        /* \"#utility.yul\":2646:2669   */\n      sub\n        /* \"#utility.yul\":2642:2674   */\n      slt\n        /* \"#utility.yul\":2639:2758   */\n      iszero\n      tag_137\n      jumpi\n        /* \"#utility.yul\":2677:2756   */\n      tag_138\n      tag_79\n      jump\t// in\n    tag_138:\n        /* \"#utility.yul\":2639:2758   */\n    tag_137:\n        /* \"#utility.yul\":2825:2826   */\n      0x00\n        /* \"#utility.yul\":2814:2823   */\n      dup3\n        /* \"#utility.yul\":2810:2827   */\n      add\n        /* \"#utility.yul\":2797:2828   */\n      calldataload\n        /* \"#utility.yul\":2855:2873   */\n      0xffffffffffffffff\n        /* \"#utility.yul\":2847:2853   */\n      dup2\n        /* \"#utility.yul\":2844:2874   */\n      gt\n        /* \"#utility.yul\":2841:2958   */\n      iszero\n      tag_139\n      jumpi\n        /* \"#utility.yul\":2877:2956   */\n      tag_140\n      tag_80\n      jump\t// in\n    tag_140:\n        /* \"#utility.yul\":2841:2958   */\n    tag_139:\n        /* \"#utility.yul\":2982:3045   */\n      tag_141\n        /* \"#utility.yul\":3037:3044   */\n      dup5\n        /* \"#utility.yul\":3028:3034   */\n      dup3\n        /* \"#utility.yul\":3017:3026   */\n      dup6\n        /* \"#utility.yul\":3013:3035   */\n      add\n        /* \"#utility.yul\":2982:3045   */\n      tag_90\n      jump\t// in\n    tag_141:\n        /* \"#utility.yul\":2972:3045   */\n      swap2\n      pop\n        /* \"#utility.yul\":2768:3055   */\n      pop\n        /* \"#utility.yul\":2553:3062   */\n      swap3\n      swap2\n      pop\n      pop\n      jump\t// out\n        /* \"#utility.yul\":3068:3158   */\n    tag_91:\n        /* \"#utility.yul\":3102:3109   */\n      0x00\n        /* \"#utility.yul\":3145:3150   */\n      dup2\n        /* \"#utility.yul\":3138:3151   */\n      iszero\n        /* \"#utility.yul\":3131:3152   */\n      iszero\n        /* \"#utility.yul\":3120:3152   */\n      swap1\n      pop\n        /* \"#utility.yul\":3068:3158   */\n      swap2\n      swap1\n      pop\n      jump\t// out\n        /* \"#utility.yul\":3164:3273   */\n    tag_92:\n        /* \"#utility.yul\":3245:3266   */\n      tag_144\n        /* \"#utility.yul\":3260:3265   */\n      dup2\n        /* \"#utility.yul\":3245:3266   */\n      tag_91\n      jump\t// in\n    tag_144:\n        /* \"#utility.yul\":3240:3243   */\n      dup3\n        /* \"#utility.yul\":3233:3267   */\n      mstore\n        /* \"#utility.yul\":3164:3273   */\n      pop\n      pop\n      jump\t// out\n        /* \"#utility.yul\":3279:3489   */\n    tag_17:\n        /* \"#utility.yul\":3366:3370   */\n      0x00\n        /* \"#utility.yul\":3404:3406   */\n      0x20\n        /* \"#utility.yul\":3393:3402   */\n      dup3\n        /* \"#utility.yul\":3389:3407   */\n      add\n        /* \"#utility.yul\":3381:3407   */\n      swap1\n      pop\n        /* \"#utility.yul\":3417:3482   */\n      tag_146\n        /* \"#utility.yul\":3479:3480   */\n      0x00\n        /* \"#utility.yul\":3468:3477   */\n      dup4\n        /* \"#utility.yul\":3464:3481   */\n      add\n        /* \"#utility.yul\":3455:3461   */\n      dup5\n        /* \"#utility.yul\":3417:3482   */\n      tag_92\n      jump\t// in\n    tag_146:\n        /* \"#utility.yul\":3279:3489   */\n      swap3\n      swap2\n      pop\n      pop\n      jump\t// out\n        /* \"#utility.yul\":3495:3572   */\n    tag_93:\n        /* \"#utility.yul\":3532:3539   */\n      0x00\n        /* \"#utility.yul\":3561:3566   */\n      dup2\n        /* \"#utility.yul\":3550:3566   */\n      swap1\n      pop\n        /* \"#utility.yul\":3495:3572   */\n      swap2\n      swap1\n      pop\n      jump\t// out\n        /* \"#utility.yul\":3578:3700   */\n    tag_94:\n        /* \"#utility.yul\":3651:3675   */\n      tag_149\n        /* \"#utility.yul\":3669:3674   */\n      dup2\n        /* \"#utility.yul\":3651:3675   */\n      tag_93\n      jump\t// in\n    tag_149:\n        /* \"#utility.yul\":3644:3649   */\n      dup2\n        /* \"#utility.yul\":3641:3676   */\n      eq\n        /* \"#utility.yul\":3631:3694   */\n      tag_150\n      jumpi\n        /* \"#utility.yul\":3690:3691   */\n      0x00\n        /* \"#utility.yul\":3687:3688   */\n      dup1\n        /* \"#utility.yul\":3680:3692   */\n      revert\n        /* \"#utility.yul\":3631:3694   */\n    tag_150:\n        /* \"#utility.yul\":3578:3700   */\n      pop\n      jump\t// out\n        /* \"#utility.yul\":3706:3845   */\n    tag_95:\n        /* \"#utility.yul\":3752:3757   */\n      0x00\n        /* \"#utility.yul\":3790:3796   */\n      dup2\n        /* \"#utility.yul\":3777:3797   */\n      calldataload\n        /* \"#utility.yul\":3768:3797   */\n      swap1\n      pop\n        /* \"#utility.yul\":3806:3839   */\n      tag_152\n        /* \"#utility.yul\":3833:3838   */\n      dup2\n        /* \"#utility.yul\":3806:3839   */\n      tag_94\n      jump\t// in\n    tag_152:\n        /* \"#utility.yul\":3706:3845   */\n      swap3\n      swap2\n      pop\n      pop\n      jump\t// out\n        /* \"#utility.yul\":3851:4470   */\n    tag_20:\n        /* \"#utility.yul\":3928:3934   */\n      0x00\n        /* \"#utility.yul\":3936:3942   */\n      dup1\n        /* \"#utility.yul\":3944:3950   */\n      0x00\n        /* \"#utility.yul\":3993:3995   */\n      0x60\n        /* \"#utility.yul\":3981:3990   */\n      dup5\n        /* \"#utility.yul\":3972:3979   */\n      dup7\n        /* \"#utility.yul\":3968:3991   */\n      sub\n        /* \"#utility.yul\":3964:3996   */\n      slt\n        /* \"#utility.yul\":3961:4080   */\n      iszero\n      tag_154\n      jumpi\n        /* \"#utility.yul\":3999:4078   */\n      tag_155\n      tag_79\n      jump\t// in\n    tag_155:\n        /* \"#utility.yul\":3961:4080   */\n    tag_154:\n        /* \"#utility.yul\":4119:4120   */\n      0x00\n        /* \"#utility.yul\":4144:4197   */\n      tag_156\n        /* \"#utility.yul\":4189:4196   */\n      dup7\n        /* \"#utility.yul\":4180:4186   */\n      dup3\n        /* \"#utility.yul\":4169:4178   */\n      dup8\n        /* \"#utility.yul\":4165:4187   */\n      add\n        /* \"#utility.yul\":4144:4197   */\n      tag_95\n      jump\t// in\n    tag_156:\n        /* \"#utility.yul\":4134:4197   */\n      swap4\n      pop\n        /* \"#utility.yul\":4090:4207   */\n      pop\n        /* \"#utility.yul\":4246:4248   */\n      0x20\n        /* \"#utility.yul\":4272:4325   */\n      tag_157\n        /* \"#utility.yul\":4317:4324   */\n      dup7\n        /* \"#utility.yul\":4308:4314   */\n      dup3\n        /* \"#utility.yul\":4297:4306   */\n      dup8\n        /* \"#utility.yul\":4293:4315   */\n      add\n        /* \"#utility.yul\":4272:4325   */\n      tag_95\n      jump\t// in\n    tag_157:\n        /* \"#utility.yul\":4262:4325   */\n      swap3\n      pop\n        /* \"#utility.yul\":4217:4335   */\n      pop\n        /* \"#utility.yul\":4374:4376   */\n      0x40\n        /* \"#utility.yul\":4400:4453   */\n      tag_158\n        /* \"#utility.yul\":4445:4452   */\n      dup7\n        /* \"#utility.yul\":4436:4442   */\n      dup3\n        /* \"#utility.yul\":4425:4434   */\n      dup8\n        /* \"#utility.yul\":4421:4443   */\n      add\n        /* \"#utility.yul\":4400:4453   */\n      tag_95\n      jump\t// in\n    tag_158:\n        /* \"#utility.yul\":4390:4453   */\n      swap2\n      pop\n        /* \"#utility.yul\":4345:4463   */\n      pop\n        /* \"#utility.yul\":3851:4470   */\n      swap3\n      pop\n      swap3\n      pop\n      swap3\n      jump\t// out\n        /* \"#utility.yul\":4476:4594   */\n    tag_96:\n        /* \"#utility.yul\":4563:4587   */\n      tag_160\n        /* \"#utility.yul\":4581:4586   */\n      dup2\n        /* \"#utility.yul\":4563:4587   */\n      tag_93\n      jump\t// in\n    tag_160:\n        /* \"#utility.yul\":4558:4561   */\n      dup3\n        /* \"#utility.yul\":4551:4588   */\n      mstore\n        /* \"#utility.yul\":4476:4594   */\n      pop\n      pop\n      jump\t// out\n        /* \"#utility.yul\":4600:4822   */\n    tag_23:\n        /* \"#utility.yul\":4693:4697   */\n      0x00\n        /* \"#utility.yul\":4731:4733   */\n      0x20\n        /* \"#utility.yul\":4720:4729   */\n      dup3\n        /* \"#utility.yul\":4716:4734   */\n      add\n        /* \"#utility.yul\":4708:4734   */\n      swap1\n      pop\n        /* \"#utility.yul\":4744:4815   */\n      tag_162\n        /* \"#utility.yul\":4812:4813   */\n      0x00\n        /* \"#utility.yul\":4801:4810   */\n      dup4\n        /* \"#utility.yul\":4797:4814   */\n      add\n        /* \"#utility.yul\":4788:4794   */\n      dup5\n        /* \"#utility.yul\":4744:4815   */\n      tag_96\n      jump\t// in\n    tag_162:\n        /* \"#utility.yul\":4600:4822   */\n      swap3\n      swap2\n      pop\n      pop\n      jump\t// out\n        /* \"#utility.yul\":4828:5157   */\n    tag_30:\n        /* \"#utility.yul\":4887:4893   */\n      0x00\n        /* \"#utility.yul\":4936:4938   */\n      0x20\n        /* \"#utility.yul\":4924:4933   */\n      dup3\n        /* \"#utility.yul\":4915:4922   */\n      dup5\n        /* \"#utility.yul\":4911:4934   */\n      sub\n        /* \"#utility.yul\":4907:4939   */\n      slt\n        /* \"#utility.yul\":4904:5023   */\n      iszero\n      tag_164\n      jumpi\n        /* \"#utility.yul\":4942:5021   */\n      tag_165\n      tag_79\n      jump\t// in\n    tag_165:\n        /* \"#utility.yul\":4904:5023   */\n    tag_164:\n        /* \"#utility.yul\":5062:5063   */\n      0x00\n        /* \"#utility.yul\":5087:5140   */\n      tag_166\n        /* \"#utility.yul\":5132:5139   */\n      dup5\n        /* \"#utility.yul\":5123:5129   */\n      dup3\n        /* \"#utility.yul\":5112:5121   */\n      dup6\n        /* \"#utility.yul\":5108:5130   */\n      add\n        /* \"#utility.yul\":5087:5140   */\n      tag_95\n      jump\t// in\n    tag_166:\n        /* \"#utility.yul\":5077:5140   */\n      swap2\n      pop\n        /* \"#utility.yul\":5033:5150   */\n      pop\n        /* \"#utility.yul\":4828:5157   */\n      swap3\n      swap2\n      pop\n      pop\n      jump\t// out\n        /* \"#utility.yul\":5163:5817   */\n    tag_46:\n        /* \"#utility.yul\":5241:5247   */\n      0x00\n        /* \"#utility.yul\":5249:5255   */\n      dup1\n        /* \"#utility.yul\":5298:5300   */\n      0x40\n        /* \"#utility.yul\":5286:5295   */\n      dup4\n        /* \"#utility.yul\":5277:5284   */\n      dup6\n        /* \"#utility.yul\":5273:5296   */\n      sub\n        /* \"#utility.yul\":5269:5301   */\n      slt\n        /* \"#utility.yul\":5266:5385   */\n      iszero\n      tag_168\n      jumpi\n        /* \"#utility.yul\":5304:5383   */\n      tag_169\n      tag_79\n      jump\t// in\n    tag_169:\n        /* \"#utility.yul\":5266:5385   */\n    tag_168:\n        /* \"#utility.yul\":5452:5453   */\n      0x00\n        /* \"#utility.yul\":5441:5450   */\n      dup4\n        /* \"#utility.yul\":5437:5454   */\n      add\n        /* \"#utility.yul\":5424:5455   */\n      calldataload\n        /* \"#utility.yul\":5482:5500   */\n      0xffffffffffffffff\n        /* \"#utility.yul\":5474:5480   */\n      dup2\n        /* \"#utility.yul\":5471:5501   */\n      gt\n        /* \"#utility.yul\":5468:5585   */\n      iszero\n      tag_170\n      jumpi\n        /* \"#utility.yul\":5504:5583   */\n      tag_171\n      tag_80\n      jump\t// in\n    tag_171:\n        /* \"#utility.yul\":5468:5585   */\n    tag_170:\n        /* \"#utility.yul\":5609:5672   */\n      tag_172\n        /* \"#utility.yul\":5664:5671   */\n      dup6\n        /* \"#utility.yul\":5655:5661   */\n      dup3\n        /* \"#utility.yul\":5644:5653   */\n      dup7\n        /* \"#utility.yul\":5640:5662   */\n      add\n        /* \"#utility.yul\":5609:5672   */\n      tag_90\n      jump\t// in\n    tag_172:\n        /* \"#utility.yul\":5599:5672   */\n      swap3\n      pop\n        /* \"#utility.yul\":5395:5682   */\n      pop\n        /* \"#utility.yul\":5721:5723   */\n      0x20\n        /* \"#utility.yul\":5747:5800   */\n      tag_173\n        /* \"#utility.yul\":5792:5799   */\n      dup6\n        /* \"#utility.yul\":5783:5789   */\n      dup3\n        /* \"#utility.yul\":5772:5781   */\n      dup7\n        /* \"#utility.yul\":5768:5790   */\n      add\n        /* \"#utility.yul\":5747:5800   */\n      tag_95\n      jump\t// in\n    tag_173:\n        /* \"#utility.yul\":5737:5800   */\n      swap2\n      pop\n        /* \"#utility.yul\":5692:5810   */\n      pop\n        /* \"#utility.yul\":5163:5817   */\n      swap3\n      pop\n      swap3\n      swap1\n      pop\n      jump\t// out\n        /* \"#utility.yul\":5823:6003   */\n    tag_97:\n        /* \"#utility.yul\":5871:5948   */\n      0x4e487b7100000000000000000000000000000000000000000000000000000000\n        /* \"#utility.yul\":5868:5869   */\n      0x00\n        /* \"#utility.yul\":5861:5949   */\n      mstore\n        /* \"#utility.yul\":5968:5972   */\n      0x11\n        /* \"#utility.yul\":5965:5966   */\n      0x04\n        /* \"#utility.yul\":5958:5973   */\n      mstore\n        /* \"#utility.yul\":5992:5996   */\n      0x24\n        /* \"#utility.yul\":5989:5990   */\n      0x00\n        /* \"#utility.yul\":5982:5997   */\n      revert\n        /* \"#utility.yul\":6009:6419   */\n    tag_51:\n        /* \"#utility.yul\":6049:6056   */\n      0x00\n        /* \"#utility.yul\":6072:6092   */\n      tag_176\n        /* \"#utility.yul\":6090:6091   */\n      dup3\n        /* \"#utility.yul\":6072:6092   */\n      tag_93\n      jump\t// in\n    tag_176:\n        /* \"#utility.yul\":6067:6092   */\n      swap2\n      pop\n        /* \"#utility.yul\":6106:6126   */\n      tag_177\n        /* \"#utility.yul\":6124:6125   */\n      dup4\n        /* \"#utility.yul\":6106:6126   */\n      tag_93\n      jump\t// in\n    tag_177:\n        /* \"#utility.yul\":6101:6126   */\n      swap3\n      pop\n        /* \"#utility.yul\":6161:6162   */\n      dup3\n        /* \"#utility.yul\":6158:6159   */\n      dup3\n        /* \"#utility.yul\":6154:6163   */\n      mul\n        /* \"#utility.yul\":6183:6213   */\n      tag_178\n        /* \"#utility.yul\":6201:6212   */\n      dup2\n        /* \"#utility.yul\":6183:6213   */\n      tag_93\n      jump\t// in\n    tag_178:\n        /* \"#utility.yul\":6172:6213   */\n      swap2\n      pop\n        /* \"#utility.yul\":6362:6363   */\n      dup3\n        /* \"#utility.yul\":6353:6360   */\n      dup3\n        /* \"#utility.yul\":6349:6364   */\n      div\n        /* \"#utility.yul\":6346:6347   */\n      dup5\n        /* \"#utility.yul\":6343:6365   */\n      eq\n        /* \"#utility.yul\":6323:6324   */\n      dup4\n        /* \"#utility.yul\":6316:6325   */\n      iszero\n        /* \"#utility.yul\":6296:6379   */\n      or\n        /* \"#utility.yul\":6273:6412   */\n      tag_179\n      jumpi\n        /* \"#utility.yul\":6392:6410   */\n      tag_180\n      tag_97\n      jump\t// in\n    tag_180:\n        /* \"#utility.yul\":6273:6412   */\n    tag_179:\n        /* \"#utility.yul\":6057:6419   */\n      pop\n        /* \"#utility.yul\":6009:6419   */\n      swap3\n      swap2\n      pop\n      pop\n      jump\t// out\n        /* \"#utility.yul\":6425:6616   */\n    tag_56:\n        /* \"#utility.yul\":6465:6468   */\n      0x00\n        /* \"#utility.yul\":6484:6504   */\n      tag_182\n        /* \"#utility.yul\":6502:6503   */\n      dup3\n        /* \"#utility.yul\":6484:6504   */\n      tag_93\n      jump\t// in\n    tag_182:\n        /* \"#utility.yul\":6479:6504   */\n      swap2\n      pop\n        /* \"#utility.yul\":6518:6538   */\n      tag_183\n        /* \"#utility.yul\":6536:6537   */\n      dup4\n        /* \"#utility.yul\":6518:6538   */\n      tag_93\n      jump\t// in\n    tag_183:\n        /* \"#utility.yul\":6513:6538   */\n      swap3\n      pop\n        /* \"#utility.yul\":6561:6562   */\n      dup3\n        /* \"#utility.yul\":6558:6559   */\n      dup3\n        /* \"#utility.yul\":6554:6563   */\n      add\n        /* \"#utility.yul\":6547:6563   */\n      swap1\n      pop\n        /* \"#utility.yul\":6582:6585   */\n      dup1\n        /* \"#utility.yul\":6579:6580   */\n      dup3\n        /* \"#utility.yul\":6576:6586   */\n      gt\n        /* \"#utility.yul\":6573:6609   */\n      iszero\n      tag_184\n      jumpi\n        /* \"#utility.yul\":6589:6607   */\n      tag_185\n      tag_97\n      jump\t// in\n    tag_185:\n        /* \"#utility.yul\":6573:6609   */\n    tag_184:\n        /* \"#utility.yul\":6425:6616   */\n      swap3\n      swap2\n      pop\n      pop\n      jump\t// out\n        /* \"#utility.yul\":6622:6791   */\n    tag_98:\n        /* \"#utility.yul\":6706:6717   */\n      0x00\n        /* \"#utility.yul\":6740:6746   */\n      dup3\n        /* \"#utility.yul\":6735:6738   */\n      dup3\n        /* \"#utility.yul\":6728:6747   */\n      mstore\n        /* \"#utility.yul\":6780:6784   */\n      0x20\n        /* \"#utility.yul\":6775:6778   */\n      dup3\n        /* \"#utility.yul\":6771:6785   */\n      add\n        /* \"#utility.yul\":6756:6785   */\n      swap1\n      pop\n        /* \"#utility.yul\":6622:6791   */\n      swap3\n      swap2\n      pop\n      pop\n      jump\t// out\n        /* \"#utility.yul\":6797:6953   */\n    tag_99:\n        /* \"#utility.yul\":6937:6945   */\n      0x7265766572740000000000000000000000000000000000000000000000000000\n        /* \"#utility.yul\":6933:6934   */\n      0x00\n        /* \"#utility.yul\":6925:6931   */\n      dup3\n        /* \"#utility.yul\":6921:6935   */\n      add\n        /* \"#utility.yul\":6914:6946   */\n      mstore\n        /* \"#utility.yul\":6797:6953   */\n      pop\n      jump\t// out\n        /* \"#utility.yul\":6959:7324   */\n    tag_100:\n        /* \"#utility.yul\":7101:7104   */\n      0x00\n        /* \"#utility.yul\":7122:7188   */\n      tag_189\n        /* \"#utility.yul\":7186:7187   */\n      0x06\n        /* \"#utility.yul\":7181:7184   */\n      dup4\n        /* \"#utility.yul\":7122:7188   */\n      tag_98\n      jump\t// in\n    tag_189:\n        /* \"#utility.yul\":7115:7188   */\n      swap2\n      pop\n        /* \"#utility.yul\":7197:7290   */\n      tag_190\n        /* \"#utility.yul\":7286:7289   */\n      dup3\n        /* \"#utility.yul\":7197:7290   */\n      tag_99\n      jump\t// in\n    tag_190:\n        /* \"#utility.yul\":7315:7317   */\n      0x20\n        /* \"#utility.yul\":7310:7313   */\n      dup3\n        /* \"#utility.yul\":7306:7318   */\n      add\n        /* \"#utility.yul\":7299:7318   */\n      swap1\n      pop\n        /* \"#utility.yul\":6959:7324   */\n      swap2\n      swap1\n      pop\n      jump\t// out\n        /* \"#utility.yul\":7330:7749   */\n    tag_60:\n        /* \"#utility.yul\":7496:7500   */\n      0x00\n        /* \"#utility.yul\":7534:7536   */\n      0x20\n        /* \"#utility.yul\":7523:7532   */\n      dup3\n        /* \"#utility.yul\":7519:7537   */\n      add\n        /* \"#utility.yul\":7511:7537   */\n      swap1\n      pop\n        /* \"#utility.yul\":7583:7592   */\n      dup2\n        /* \"#utility.yul\":7577:7581   */\n      dup2\n        /* \"#utility.yul\":7573:7593   */\n      sub\n        /* \"#utility.yul\":7569:7570   */\n      0x00\n        /* \"#utility.yul\":7558:7567   */\n      dup4\n        /* \"#utility.yul\":7554:7571   */\n      add\n        /* \"#utility.yul\":7547:7594   */\n      mstore\n        /* \"#utility.yul\":7611:7742   */\n      tag_192\n        /* \"#utility.yul\":7737:7741   */\n      dup2\n        /* \"#utility.yul\":7611:7742   */\n      tag_100\n      jump\t// in\n    tag_192:\n        /* \"#utility.yul\":7603:7742   */\n      swap1\n      pop\n        /* \"#utility.yul\":7330:7749   */\n      swap2\n      swap1\n      pop\n      jump\t// out\n        /* \"#utility.yul\":7755:7854   */\n    tag_101:\n        /* \"#utility.yul\":7807:7813   */\n      0x00\n        /* \"#utility.yul\":7841:7846   */\n      dup2\n        /* \"#utility.yul\":7835:7847   */\n      mload\n        /* \"#utility.yul\":7825:7847   */\n      swap1\n      pop\n        /* \"#utility.yul\":7755:7854   */\n      swap2\n      swap1\n      pop\n      jump\t// out\n        /* \"#utility.yul\":7860:8008   */\n    tag_102:\n        /* \"#utility.yul\":7962:7973   */\n      0x00\n        /* \"#utility.yul\":7999:8002   */\n      dup2\n        /* \"#utility.yul\":7984:8002   */\n      swap1\n      pop\n        /* \"#utility.yul\":7860:8008   */\n      swap3\n      swap2\n      pop\n      pop\n      jump\t// out\n        /* \"#utility.yul\":8014:8260   */\n    tag_103:\n        /* \"#utility.yul\":8095:8096   */\n      0x00\n        /* \"#utility.yul\":8105:8218   */\n    tag_196:\n        /* \"#utility.yul\":8119:8125   */\n      dup4\n        /* \"#utility.yul\":8116:8117   */\n      dup2\n        /* \"#utility.yul\":8113:8126   */\n      lt\n        /* \"#utility.yul\":8105:8218   */\n      iszero\n      tag_198\n      jumpi\n        /* \"#utility.yul\":8204:8205   */\n      dup1\n        /* \"#utility.yul\":8199:8202   */\n      dup3\n        /* \"#utility.yul\":8195:8206   */\n      add\n        /* \"#utility.yul\":8189:8207   */\n      mload\n        /* \"#utility.yul\":8185:8186   */\n      dup2\n        /* \"#utility.yul\":8180:8183   */\n      dup5\n        /* \"#utility.yul\":8176:8187   */\n      add\n        /* \"#utility.yul\":8169:8208   */\n      mstore\n        /* \"#utility.yul\":8141:8143   */\n      0x20\n        /* \"#utility.yul\":8138:8139   */\n      dup2\n        /* \"#utility.yul\":8134:8144   */\n      add\n        /* \"#utility.yul\":8129:8144   */\n      swap1\n      pop\n        /* \"#utility.yul\":8105:8218   */\n      jump(tag_196)\n    tag_198:\n        /* \"#utility.yul\":8252:8253   */\n      0x00\n        /* \"#utility.yul\":8243:8249   */\n      dup5\n        /* \"#utility.yul\":8238:8241   */\n      dup5\n        /* \"#utility.yul\":8234:8250   */\n      add\n        /* \"#utility.yul\":8227:8254   */\n      mstore\n        /* \"#utility.yul\":8076:8260   */\n      pop\n        /* \"#utility.yul\":8014:8260   */\n      pop\n      pop\n      pop\n      jump\t// out\n        /* \"#utility.yul\":8266:8656   */\n    tag_104:\n        /* \"#utility.yul\":8372:8375   */\n      0x00\n        /* \"#utility.yul\":8400:8439   */\n      tag_200\n        /* \"#utility.yul\":8433:8438   */\n      dup3\n        /* \"#utility.yul\":8400:8439   */\n      tag_101\n      jump\t// in\n    tag_200:\n        /* \"#utility.yul\":8455:8544   */\n      tag_201\n        /* \"#utility.yul\":8537:8543   */\n      dup2\n        /* \"#utility.yul\":8532:8535   */\n      dup6\n        /* \"#utility.yul\":8455:8544   */\n      tag_102\n      jump\t// in\n    tag_201:\n        /* \"#utility.yul\":8448:8544   */\n      swap4\n      pop\n        /* \"#utility.yul\":8553:8618   */\n      tag_202\n        /* \"#utility.yul\":8611:8617   */\n      dup2\n        /* \"#utility.yul\":8606:8609   */\n      dup6\n        /* \"#utility.yul\":8599:8603   */\n      0x20\n        /* \"#utility.yul\":8592:8597   */\n      dup7\n        /* \"#utility.yul\":8588:8604   */\n      add\n        /* \"#utility.yul\":8553:8618   */\n      tag_103\n      jump\t// in\n    tag_202:\n        /* \"#utility.yul\":8643:8649   */\n      dup1\n        /* \"#utility.yul\":8638:8641   */\n      dup5\n        /* \"#utility.yul\":8634:8650   */\n      add\n        /* \"#utility.yul\":8627:8650   */\n      swap2\n      pop\n        /* \"#utility.yul\":8376:8656   */\n      pop\n        /* \"#utility.yul\":8266:8656   */\n      swap3\n      swap2\n      pop\n      pop\n      jump\t// out\n        /* \"#utility.yul\":8662:8937   */\n    tag_64:\n        /* \"#utility.yul\":8794:8797   */\n      0x00\n        /* \"#utility.yul\":8816:8911   */\n      tag_204\n        /* \"#utility.yul\":8907:8910   */\n      dup3\n        /* \"#utility.yul\":8898:8904   */\n      dup5\n        /* \"#utility.yul\":8816:8911   */\n      tag_104\n      jump\t// in\n    tag_204:\n        /* \"#utility.yul\":8809:8911   */\n      swap2\n      pop\n        /* \"#utility.yul\":8928:8931   */\n      dup2\n        /* \"#utility.yul\":8921:8931   */\n      swap1\n      pop\n        /* \"#utility.yul\":8662:8937   */\n      swap3\n      swap2\n      pop\n      pop\n      jump\t// out\n        /* \"#utility.yul\":8943:9123   */\n    tag_105:\n        /* \"#utility.yul\":8991:9068   */\n      0x4e487b7100000000000000000000000000000000000000000000000000000000\n        /* \"#utility.yul\":8988:8989   */\n      0x00\n        /* \"#utility.yul\":8981:9069   */\n      mstore\n        /* \"#utility.yul\":9088:9092   */\n      0x12\n        /* \"#utility.yul\":9085:9086   */\n      0x04\n        /* \"#utility.yul\":9078:9093   */\n      mstore\n        /* \"#utility.yul\":9112:9116   */\n      0x24\n        /* \"#utility.yul\":9109:9110   */\n      0x00\n        /* \"#utility.yul\":9102:9117   */\n      revert\n        /* \"#utility.yul\":9129:9305   */\n    tag_70:\n        /* \"#utility.yul\":9161:9162   */\n      0x00\n        /* \"#utility.yul\":9178:9198   */\n      tag_207\n        /* \"#utility.yul\":9196:9197   */\n      dup3\n        /* \"#utility.yul\":9178:9198   */\n      tag_93\n      jump\t// in\n    tag_207:\n        /* \"#utility.yul\":9173:9198   */\n      swap2\n      pop\n        /* \"#utility.yul\":9212:9232   */\n      tag_208\n        /* \"#utility.yul\":9230:9231   */\n      dup4\n        /* \"#utility.yul\":9212:9232   */\n      tag_93\n      jump\t// in\n    tag_208:\n        /* \"#utility.yul\":9207:9232   */\n      swap3\n      pop\n        /* \"#utility.yul\":9251:9252   */\n      dup3\n        /* \"#utility.yul\":9241:9276   */\n      tag_209\n      jumpi\n        /* \"#utility.yul\":9256:9274   */\n      tag_210\n      tag_105\n      jump\t// in\n    tag_210:\n        /* \"#utility.yul\":9241:9276   */\n    tag_209:\n        /* \"#utility.yul\":9297:9298   */\n      dup3\n        /* \"#utility.yul\":9294:9295   */\n      dup3\n        /* \"#utility.yul\":9290:9299   */\n      mod\n        /* \"#utility.yul\":9285:9299   */\n      swap1\n      pop\n        /* \"#utility.yul\":9129:9305   */\n      swap3\n      swap2\n      pop\n      pop\n      jump\t// out\n\n    auxdata: 0xa26469706673582212204e6e1a9c95160847108858340d2abd164349d6e20578952d756aa957f804b5c164736f6c63430008160033\n}\n",
				"bytecode": {
					"linkReferences": {},
					"object": "608060405234801561000f575f80fd5b506108b78061001d5f395ff3fe608060405234801561000f575f80fd5b5060043610610086575f3560e01c8063c0481dcb11610059578063c0481dcb1461014a578063ced9390d1461017a578063f174022214610196578063f68ad875146101c657610086565b80631363e7a81461008a578063210bec54146100ba5780637bf9b9f5146100ea578063aeac33dc1461011a575b5f80fd5b6100a4600480360381019061009f91906104df565b6101e2565b6040516100b19190610540565b60405180910390f35b6100d460048036038101906100cf919061058c565b610230565b6040516100e191906105eb565b60405180910390f35b61010460048036038101906100ff919061058c565b610251565b60405161011191906105eb565b60405180910390f35b610134600480360381019061012f9190610604565b610272565b60405161014191906105eb565b60405180910390f35b610164600480360381019061015f91906104df565b6102cb565b60405161017191906105eb565b60405180910390f35b610194600480360381019061018f9190610604565b6102f2565b005b6101b060048036038101906101ab919061058c565b61034a565b6040516101bd91906105eb565b60405180910390f35b6101e060048036038101906101db919061062f565b61036b565b005b5f6040518060400160405280600381526020017f426f620000000000000000000000000000000000000000000000000000000000815250805190602001208280519060200120149050919050565b5f81838561023e91906106b6565b61024891906106b6565b90509392505050565b5f81838561025f91906106b6565b61026991906106f7565b90509392505050565b5f6103e882106102b7576040517f08c379a00000000000000000000000000000000000000000000000000000000081526004016102ae90610784565b60405180910390fd5b6002826102c491906106b6565b9050919050565b5f6001826040516102dc919061080e565b9081526020016040518091039020549050919050565b5f600190505b81811015610346575f60028261030e9190610851565b03610339575f81908060018154018082558091505060019003905f5260205f20015f90919091909150555b80806001019150506102f8565b5050565b5f81838561035891906106f7565b61036291906106f7565b90509392505050565b8060018360405161037c919061080e565b9081526020016040518091039020819055505050565b5f604051905090565b5f80fd5b5f80fd5b5f80fd5b5f80fd5b5f601f19601f8301169050919050565b7f4e487b71000000000000000000000000000000000000000000000000000000005f52604160045260245ffd5b6103f1826103ab565b810181811067ffffffffffffffff821117156104105761040f6103bb565b5b80604052505050565b5f610422610392565b905061042e82826103e8565b919050565b5f67ffffffffffffffff82111561044d5761044c6103bb565b5b610456826103ab565b9050602081019050919050565b828183375f83830152505050565b5f61048361047e84610433565b610419565b90508281526020810184848401111561049f5761049e6103a7565b5b6104aa848285610463565b509392505050565b5f82601f8301126104c6576104c56103a3565b5b81356104d6848260208601610471565b91505092915050565b5f602082840312156104f4576104f361039b565b5b5f82013567ffffffffffffffff8111156105115761051061039f565b5b61051d848285016104b2565b91505092915050565b5f8115159050919050565b61053a81610526565b82525050565b5f6020820190506105535f830184610531565b92915050565b5f819050919050565b61056b81610559565b8114610575575f80fd5b50565b5f8135905061058681610562565b92915050565b5f805f606084860312156105a3576105a261039b565b5b5f6105b086828701610578565b93505060206105c186828701610578565b92505060406105d286828701610578565b9150509250925092565b6105e581610559565b82525050565b5f6020820190506105fe5f8301846105dc565b92915050565b5f602082840312156106195761061861039b565b5b5f61062684828501610578565b91505092915050565b5f80604083850312156106455761064461039b565b5b5f83013567ffffffffffffffff8111156106625761066161039f565b5b61066e858286016104b2565b925050602061067f85828601610578565b9150509250929050565b7f4e487b71000000000000000000000000000000000000000000000000000000005f52601160045260245ffd5b5f6106c082610559565b91506106cb83610559565b92508282026106d981610559565b915082820484148315176106f0576106ef610689565b5b5092915050565b5f61070182610559565b915061070c83610559565b925082820190508082111561072457610723610689565b5b92915050565b5f82825260208201905092915050565b7f72657665727400000000000000000000000000000000000000000000000000005f82015250565b5f61076e60068361072a565b91506107798261073a565b602082019050919050565b5f6020820190508181035f83015261079b81610762565b9050919050565b5f81519050919050565b5f81905092915050565b5f5b838110156107d35780820151818401526020810190506107b8565b5f8484015250505050565b5f6107e8826107a2565b6107f281856107ac565b93506108028185602086016107b6565b80840191505092915050565b5f61081982846107de565b915081905092915050565b7f4e487b71000000000000000000000000000000000000000000000000000000005f52601260045260245ffd5b5f61085b82610559565b915061086683610559565b92508261087657610875610824565b5b82820690509291505056fea26469706673582212204e6e1a9c95160847108858340d2abd164349d6e20578952d756aa957f804b5c164736f6c63430008160033",
					"opcodes": "PUSH1 0x80 PUSH1 0x40 MSTORE CALLVALUE DUP1 ISZERO PUSH2 0xF JUMPI PUSH0 DUP1 REVERT JUMPDEST POP PUSH2 0x8B7 DUP1 PUSH2 0x1D PUSH0 CODECOPY PUSH0 RETURN INVALID PUSH1 0x80 PUSH1 0x40 MSTORE CALLVALUE DUP1 ISZERO PUSH2 0xF JUMPI PUSH0 DUP1 REVERT JUMPDEST POP PUSH1 0x4 CALLDATASIZE LT PUSH2 0x86 JUMPI PUSH0 CALLDATALOAD PUSH1 0xE0 SHR DUP1 PUSH4 0xC0481DCB GT PUSH2 0x59 JUMPI DUP1 PUSH4 0xC0481DCB EQ PUSH2 0x14A JUMPI DUP1 PUSH4 0xCED9390D EQ PUSH2 0x17A JUMPI DUP1 PUSH4 0xF1740222 EQ PUSH2 0x196 JUMPI DUP1 PUSH4 0xF68AD875 EQ PUSH2 0x1C6 JUMPI PUSH2 0x86 JUMP JUMPDEST DUP1 PUSH4 0x1363E7A8 EQ PUSH2 0x8A JUMPI DUP1 PUSH4 0x210BEC54 EQ PUSH2 0xBA JUMPI DUP1 PUSH4 0x7BF9B9F5 EQ PUSH2 0xEA JUMPI DUP1 PUSH4 0xAEAC33DC EQ PUSH2 0x11A JUMPI JUMPDEST PUSH0 DUP1 REVERT JUMPDEST PUSH2 0xA4 PUSH1 0x4 DUP1 CALLDATASIZE SUB DUP2 ADD SWAP1 PUSH2 0x9F SWAP2 SWAP1 PUSH2 0x4DF JUMP JUMPDEST PUSH2 0x1E2 JUMP JUMPDEST PUSH1 0x40 MLOAD PUSH2 0xB1 SWAP2 SWAP1 PUSH2 0x540 JUMP JUMPDEST PUSH1 0x40 MLOAD DUP1 SWAP2 SUB SWAP1 RETURN JUMPDEST PUSH2 0xD4 PUSH1 0x4 DUP1 CALLDATASIZE SUB DUP2 ADD SWAP1 PUSH2 0xCF SWAP2 SWAP1 PUSH2 0x58C JUMP JUMPDEST PUSH2 0x230 JUMP JUMPDEST PUSH1 0x40 MLOAD PUSH2 0xE1 SWAP2 SWAP1 PUSH2 0x5EB JUMP JUMPDEST PUSH1 0x40 MLOAD DUP1 SWAP2 SUB SWAP1 RETURN JUMPDEST PUSH2 0x104 PUSH1 0x4 DUP1 CALLDATASIZE SUB DUP2 ADD SWAP1 PUSH2 0xFF SWAP2 SWAP1 PUSH2 0x58C JUMP JUMPDEST PUSH2 0x251 JUMP JUMPDEST PUSH1 0x40 MLOAD PUSH2 0x111 SWAP2 SWAP1 PUSH2 0x5EB JUMP JUMPDEST PUSH1 0x40 MLOAD DUP1 SWAP2 SUB SWAP1 RETURN JUMPDEST PUSH2 0x134 PUSH1 0x4 DUP1 CALLDATASIZE SUB DUP2 ADD SWAP1 PUSH2 0x12F SWAP2 SWAP1 PUSH2 0x604 JUMP JUMPDEST PUSH2 0x272 JUMP JUMPDEST PUSH1 0x40 MLOAD PUSH2 0x141 SWAP2 SWAP1 PUSH2 0x5EB JUMP JUMPDEST PUSH1 0x40 MLOAD DUP1 SWAP2 SUB SWAP1 RETURN JUMPDEST PUSH2 0x164 PUSH1 0x4 DUP1 CALLDATASIZE SUB DUP2 ADD SWAP1 PUSH2 0x15F SWAP2 SWAP1 PUSH2 0x4DF JUMP JUMPDEST PUSH2 0x2CB JUMP JUMPDEST PUSH1 0x40 MLOAD PUSH2 0x171 SWAP2 SWAP1 PUSH2 0x5EB JUMP JUMPDEST PUSH1 0x40 MLOAD DUP1 SWAP2 SUB SWAP1 RETURN JUMPDEST PUSH2 0x194 PUSH1 0x4 DUP1 CALLDATASIZE SUB DUP2 ADD SWAP1 PUSH2 0x18F SWAP2 SWAP1 PUSH2 0x604 JUMP JUMPDEST PUSH2 0x2F2 JUMP JUMPDEST STOP JUMPDEST PUSH2 0x1B0 PUSH1 0x4 DUP1 CALLDATASIZE SUB DUP2 ADD SWAP1 PUSH2 0x1AB SWAP2 SWAP1 PUSH2 0x58C JUMP JUMPDEST PUSH2 0x34A JUMP JUMPDEST PUSH1 0x40 MLOAD PUSH2 0x1BD SWAP2 SWAP1 PUSH2 0x5EB JUMP JUMPDEST PUSH1 0x40 MLOAD DUP1 SWAP2 SUB SWAP1 RETURN JUMPDEST PUSH2 0x1E0 PUSH1 0x4 DUP1 CALLDATASIZE SUB DUP2 ADD SWAP1 PUSH2 0x1DB SWAP2 SWAP1 PUSH2 0x62F JUMP JUMPDEST PUSH2 0x36B JUMP JUMPDEST STOP JUMPDEST PUSH0 PUSH1 0x40 MLOAD DUP1 PUSH1 0x40 ADD PUSH1 0x40 MSTORE DUP1 PUSH1 0x3 DUP2 MSTORE PUSH1 0x20 ADD PUSH32 0x426F620000000000000000000000000000000000000000000000000000000000 DUP2 MSTORE POP DUP1 MLOAD SWAP1 PUSH1 0x20 ADD KECCAK256 DUP3 DUP1 MLOAD SWAP1 PUSH1 0x20 ADD KECCAK256 EQ SWAP1 POP SWAP2 SWAP1 POP JUMP JUMPDEST PUSH0 DUP2 DUP4 DUP6 PUSH2 0x23E SWAP2 SWAP1 PUSH2 0x6B6 JUMP JUMPDEST PUSH2 0x248 SWAP2 SWAP1 PUSH2 0x6B6 JUMP JUMPDEST SWAP1 POP SWAP4 SWAP3 POP POP POP JUMP JUMPDEST PUSH0 DUP2 DUP4 DUP6 PUSH2 0x25F SWAP2 SWAP1 PUSH2 0x6B6 JUMP JUMPDEST PUSH2 0x269 SWAP2 SWAP1 PUSH2 0x6F7 JUMP JUMPDEST SWAP1 POP SWAP4 SWAP3 POP POP POP JUMP JUMPDEST PUSH0 PUSH2 0x3E8 DUP3 LT PUSH2 0x2B7 JUMPI PUSH1 0x40 MLOAD PUSH32 0x8C379A000000000000000000000000000000000000000000000000000000000 DUP2 MSTORE PUSH1 0x4 ADD PUSH2 0x2AE SWAP1 PUSH2 0x784 JUMP JUMPDEST PUSH1 0x40 MLOAD DUP1 SWAP2 SUB SWAP1 REVERT JUMPDEST PUSH1 0x2 DUP3 PUSH2 0x2C4 SWAP2 SWAP1 PUSH2 0x6B6 JUMP JUMPDEST SWAP1 POP SWAP2 SWAP1 POP JUMP JUMPDEST PUSH0 PUSH1 0x1 DUP3 PUSH1 0x40 MLOAD PUSH2 0x2DC SWAP2 SWAP1 PUSH2 0x80E JUMP JUMPDEST SWAP1 DUP2 MSTORE PUSH1 0x20 ADD PUSH1 0x40 MLOAD DUP1 SWAP2 SUB SWAP1 KECCAK256 SLOAD SWAP1 POP SWAP2 SWAP1 POP JUMP JUMPDEST PUSH0 PUSH1 0x1 SWAP1 POP JUMPDEST DUP2 DUP2 LT ISZERO PUSH2 0x346 JUMPI PUSH0 PUSH1 0x2 DUP3 PUSH2 0x30E SWAP2 SWAP1 PUSH2 0x851 JUMP JUMPDEST SUB PUSH2 0x339 JUMPI PUSH0 DUP2 SWAP1 DUP1 PUSH1 0x1 DUP2 SLOAD ADD DUP1 DUP3 SSTORE DUP1 SWAP2 POP POP PUSH1 0x1 SWAP1 SUB SWAP1 PUSH0 MSTORE PUSH1 0x20 PUSH0 KECCAK256 ADD PUSH0 SWAP1 SWAP2 SWAP1 SWAP2 SWAP1 SWAP2 POP SSTORE JUMPDEST DUP1 DUP1 PUSH1 0x1 ADD SWAP2 POP POP PUSH2 0x2F8 JUMP JUMPDEST POP POP JUMP JUMPDEST PUSH0 DUP2 DUP4 DUP6 PUSH2 0x358 SWAP2 SWAP1 PUSH2 0x6F7 JUMP JUMPDEST PUSH2 0x362 SWAP2 SWAP1 PUSH2 0x6F7 JUMP JUMPDEST SWAP1 POP SWAP4 SWAP3 POP POP POP JUMP JUMPDEST DUP1 PUSH1 0x1 DUP4 PUSH1 0x40 MLOAD PUSH2 0x37C SWAP2 SWAP1 PUSH2 0x80E JUMP JUMPDEST SWAP1 DUP2 MSTORE PUSH1 0x20 ADD PUSH1 0x40 MLOAD DUP1 SWAP2 SUB SWAP1 KECCAK256 DUP2 SWAP1 SSTORE POP POP POP JUMP JUMPDEST PUSH0 PUSH1 0x40 MLOAD SWAP1 POP SWAP1 JUMP JUMPDEST PUSH0 DUP1 REVERT JUMPDEST PUSH0 DUP1 REVERT JUMPDEST PUSH0 DUP1 REVERT JUMPDEST PUSH0 DUP1 REVERT JUMPDEST PUSH0 PUSH1 0x1F NOT PUSH1 0x1F DUP4 ADD AND SWAP1 POP SWAP2 SWAP1 POP JUMP JUMPDEST PUSH32 0x4E487B7100000000000000000000000000000000000000000000000000000000 PUSH0 MSTORE PUSH1 0x41 PUSH1 0x4 MSTORE PUSH1 0x24 PUSH0 REVERT JUMPDEST PUSH2 0x3F1 DUP3 PUSH2 0x3AB JUMP JUMPDEST DUP2 ADD DUP2 DUP2 LT PUSH8 0xFFFFFFFFFFFFFFFF DUP3 GT OR ISZERO PUSH2 0x410 JUMPI PUSH2 0x40F PUSH2 0x3BB JUMP JUMPDEST JUMPDEST DUP1 PUSH1 0x40 MSTORE POP POP POP JUMP JUMPDEST PUSH0 PUSH2 0x422 PUSH2 0x392 JUMP JUMPDEST SWAP1 POP PUSH2 0x42E DUP3 DUP3 PUSH2 0x3E8 JUMP JUMPDEST SWAP2 SWAP1 POP JUMP JUMPDEST PUSH0 PUSH8 0xFFFFFFFFFFFFFFFF DUP3 GT ISZERO PUSH2 0x44D JUMPI PUSH2 0x44C PUSH2 0x3BB JUMP JUMPDEST JUMPDEST PUSH2 0x456 DUP3 PUSH2 0x3AB JUMP JUMPDEST SWAP1 POP PUSH1 0x20 DUP2 ADD SWAP1 POP SWAP2 SWAP1 POP JUMP JUMPDEST DUP3 DUP2 DUP4 CALLDATACOPY PUSH0 DUP4 DUP4 ADD MSTORE POP POP POP JUMP JUMPDEST PUSH0 PUSH2 0x483 PUSH2 0x47E DUP5 PUSH2 0x433 JUMP JUMPDEST PUSH2 0x419 JUMP JUMPDEST SWAP1 POP DUP3 DUP2 MSTORE PUSH1 0x20 DUP2 ADD DUP5 DUP5 DUP5 ADD GT ISZERO PUSH2 0x49F JUMPI PUSH2 0x49E PUSH2 0x3A7 JUMP JUMPDEST JUMPDEST PUSH2 0x4AA DUP5 DUP3 DUP6 PUSH2 0x463 JUMP JUMPDEST POP SWAP4 SWAP3 POP POP POP JUMP JUMPDEST PUSH0 DUP3 PUSH1 0x1F DUP4 ADD SLT PUSH2 0x4C6 JUMPI PUSH2 0x4C5 PUSH2 0x3A3 JUMP JUMPDEST JUMPDEST DUP2 CALLDATALOAD PUSH2 0x4D6 DUP5 DUP3 PUSH1 0x20 DUP7 ADD PUSH2 0x471 JUMP JUMPDEST SWAP2 POP POP SWAP3 SWAP2 POP POP JUMP JUMPDEST PUSH0 PUSH1 0x20 DUP3 DUP5 SUB SLT ISZERO PUSH2 0x4F4 JUMPI PUSH2 0x4F3 PUSH2 0x39B JUMP JUMPDEST JUMPDEST PUSH0 DUP3 ADD CALLDATALOAD PUSH8 0xFFFFFFFFFFFFFFFF DUP2 GT ISZERO PUSH2 0x511 JUMPI PUSH2 0x510 PUSH2 0x39F JUMP JUMPDEST JUMPDEST PUSH2 0x51D DUP5 DUP3 DUP6 ADD PUSH2 0x4B2 JUMP JUMPDEST SWAP2 POP POP SWAP3 SWAP2 POP POP JUMP JUMPDEST PUSH0 DUP2 ISZERO ISZERO SWAP1 POP SWAP2 SWAP1 POP JUMP JUMPDEST PUSH2 0x53A DUP2 PUSH2 0x526 JUMP JUMPDEST DUP3 MSTORE POP POP JUMP JUMPDEST PUSH0 PUSH1 0x20 DUP3 ADD SWAP1 POP PUSH2 0x553 PUSH0 DUP4 ADD DUP5 PUSH2 0x531 JUMP JUMPDEST SWAP3 SWAP2 POP POP JUMP JUMPDEST PUSH0 DUP2 SWAP1 POP SWAP2 SWAP1 POP JUMP JUMPDEST PUSH2 0x56B DUP2 PUSH2 0x559 JUMP JUMPDEST DUP2 EQ PUSH2 0x575 JUMPI PUSH0 DUP1 REVERT JUMPDEST POP JUMP JUMPDEST PUSH0 DUP2 CALLDATALOAD SWAP1 POP PUSH2 0x586 DUP2 PUSH2 0x562 JUMP JUMPDEST SWAP3 SWAP2 POP POP JUMP JUMPDEST PUSH0 DUP1 PUSH0 PUSH1 0x60 DUP5 DUP7 SUB SLT ISZERO PUSH2 0x5A3 JUMPI PUSH2 0x5A2 PUSH2 0x39B JUMP JUMPDEST JUMPDEST PUSH0 PUSH2 0x5B0 DUP7 DUP3 DUP8 ADD PUSH2 0x578 JUMP JUMPDEST SWAP4 POP POP PUSH1 0x20 PUSH2 0x5C1 DUP7 DUP3 DUP8 ADD PUSH2 0x578 JUMP JUMPDEST SWAP3 POP POP PUSH1 0x40 PUSH2 0x5D2 DUP7 DUP3 DUP8 ADD PUSH2 0x578 JUMP JUMPDEST SWAP2 POP POP SWAP3 POP SWAP3 POP SWAP3 JUMP JUMPDEST PUSH2 0x5E5 DUP2 PUSH2 0x559 JUMP JUMPDEST DUP3 MSTORE POP POP JUMP JUMPDEST PUSH0 PUSH1 0x20 DUP3 ADD SWAP1 POP PUSH2 0x5FE PUSH0 DUP4 ADD DUP5 PUSH2 0x5DC JUMP JUMPDEST SWAP3 SWAP2 POP POP JUMP JUMPDEST PUSH0 PUSH1 0x20 DUP3 DUP5 SUB SLT ISZERO PUSH2 0x619 JUMPI PUSH2 0x618 PUSH2 0x39B JUMP JUMPDEST JUMPDEST PUSH0 PUSH2 0x626 DUP5 DUP3 DUP6 ADD PUSH2 0x578 JUMP JUMPDEST SWAP2 POP POP SWAP3 SWAP2 POP POP JUMP JUMPDEST PUSH0 DUP1 PUSH1 0x40 DUP4 DUP6 SUB SLT ISZERO PUSH2 0x645 JUMPI PUSH2 0x644 PUSH2 0x39B JUMP JUMPDEST JUMPDEST PUSH0 DUP4 ADD CALLDATALOAD PUSH8 0xFFFFFFFFFFFFFFFF DUP2 GT ISZERO PUSH2 0x662 JUMPI PUSH2 0x661 PUSH2 0x39F JUMP JUMPDEST JUMPDEST PUSH2 0x66E DUP6 DUP3 DUP7 ADD PUSH2 0x4B2 JUMP JUMPDEST SWAP3 POP POP PUSH1 0x20 PUSH2 0x67F DUP6 DUP3 DUP7 ADD PUSH2 0x578 JUMP JUMPDEST SWAP2 POP POP SWAP3 POP SWAP3 SWAP1 POP JUMP JUMPDEST PUSH32 0x4E487B7100000000000000000000000000000000000000000000000000000000 PUSH0 MSTORE PUSH1 0x11 PUSH1 0x4 MSTORE PUSH1 0x24 PUSH0 REVERT JUMPDEST PUSH0 PUSH2 0x6C0 DUP3 PUSH2 0x559 JUMP JUMPDEST SWAP2 POP PUSH2 0x6CB DUP4 PUSH2 0x559 JUMP JUMPDEST SWAP3 POP DUP3 DUP3 MUL PUSH2 0x6D9 DUP2 PUSH2 0x559 JUMP JUMPDEST SWAP2 POP DUP3 DUP3 DIV DUP5 EQ DUP4 ISZERO OR PUSH2 0x6F0 JUMPI PUSH2 0x6EF PUSH2 0x689 JUMP JUMPDEST JUMPDEST POP SWAP3 SWAP2 POP POP JUMP JUMPDEST PUSH0 PUSH2 0x701 DUP3 PUSH2 0x559 JUMP JUMPDEST SWAP2 POP PUSH2 0x70C DUP4 PUSH2 0x559 JUMP JUMPDEST SWAP3 POP DUP3 DUP3 ADD SWAP1 POP DUP1 DUP3 GT ISZERO PUSH2 0x724 JUMPI PUSH2 0x723 PUSH2 0x689 JUMP JUMPDEST JUMPDEST SWAP3 SWAP2 POP POP JUMP JUMPDEST PUSH0 DUP3 DUP3 MSTORE PUSH1 0x20 DUP3 ADD SWAP1 POP SWAP3 SWAP2 POP POP JUMP JUMPDEST PUSH32 0x7265766572740000000000000000000000000000000000000000000000000000 PUSH0 DUP3 ADD MSTORE POP JUMP JUMPDEST PUSH0 PUSH2 0x76E PUSH1 0x6 DUP4 PUSH2 0x72A JUMP JUMPDEST SWAP2 POP PUSH2 0x779 DUP3 PUSH2 0x73A JUMP JUMPDEST PUSH1 0x20 DUP3 ADD SWAP1 POP SWAP2 SWAP1 POP JUMP JUMPDEST PUSH0 PUSH1 0x20 DUP3 ADD SWAP1 POP DUP2 DUP2 SUB PUSH0 DUP4 ADD MSTORE PUSH2 0x79B DUP2 PUSH2 0x762 JUMP JUMPDEST SWAP1 POP SWAP2 SWAP1 POP JUMP JUMPDEST PUSH0 DUP2 MLOAD SWAP1 POP SWAP2 SWAP1 POP JUMP JUMPDEST PUSH0 DUP2 SWAP1 POP SWAP3 SWAP2 POP POP JUMP JUMPDEST PUSH0 JUMPDEST DUP4 DUP2 LT ISZERO PUSH2 0x7D3 JUMPI DUP1 DUP3 ADD MLOAD DUP2 DUP5 ADD MSTORE PUSH1 0x20 DUP2 ADD SWAP1 POP PUSH2 0x7B8 JUMP JUMPDEST PUSH0 DUP5 DUP5 ADD MSTORE POP POP POP POP JUMP JUMPDEST PUSH0 PUSH2 0x7E8 DUP3 PUSH2 0x7A2 JUMP JUMPDEST PUSH2 0x7F2 DUP2 DUP6 PUSH2 0x7AC JUMP JUMPDEST SWAP4 POP PUSH2 0x802 DUP2 DUP6 PUSH1 0x20 DUP7 ADD PUSH2 0x7B6 JUMP JUMPDEST DUP1 DUP5 ADD SWAP2 POP POP SWAP3 SWAP2 POP POP JUMP JUMPDEST PUSH0 PUSH2 0x819 DUP3 DUP5 PUSH2 0x7DE JUMP JUMPDEST SWAP2 POP DUP2 SWAP1 POP SWAP3 SWAP2 POP POP JUMP JUMPDEST PUSH32 0x4E487B7100000000000000000000000000000000000000000000000000000000 PUSH0 MSTORE PUSH1 0x12 PUSH1 0x4 MSTORE PUSH1 0x24 PUSH0 REVERT JUMPDEST PUSH0 PUSH2 0x85B DUP3 PUSH2 0x559 JUMP JUMPDEST SWAP2 POP PUSH2 0x866 DUP4 PUSH2 0x559 JUMP JUMPDEST SWAP3 POP DUP3 PUSH2 0x876 JUMPI PUSH2 0x875 PUSH2 0x824 JUMP JUMPDEST JUMPDEST DUP3 DUP3 MOD SWAP1 POP SWAP3 SWAP2 POP POP JUMP INVALID LOG2 PUSH5 0x6970667358 0x22 SLT KECCAK256 0x4E PUSH15 0x1A9C95160847108858340D2ABD1643 0x49 0xD6 0xE2 SDIV PUSH25 0x952D756AA957F804B5C164736F6C6343000816003300000000 "
				},
				"gasEstimates": {
					"creation": {
						"codeDepositCost": "446200",
						"executionCost": "478",
						"totalCost": "446678"
					},
					"external": {
						"addNumbers(uint256,uint256,uint256)": "infinite",
						"calcNumbers(uint256,uint256,uint256)": "infinite",
						"get2X(uint256)": "infinite",
						"getBirthday(string)": "infinite",
						"isBob(string)": "infinite",
						"mulNumbers(uint256,uint256,uint256)": "infinite",
						"setBirthday(string,uint256)": "infinite",
						"setEvenNumber(uint256)": "infinite"
					}
				},
				"methodIdentifiers": {
					"addNumbers(uint256,uint256,uint256)": "f1740222",
					"calcNumbers(uint256,uint256,uint256)": "7bf9b9f5",
					"get2X(uint256)": "aeac33dc",
					"getBirthday(string)": "c0481dcb",
					"isBob(string)": "1363e7a8",
					"mulNumbers(uint256,uint256,uint256)": "210bec54",
					"setBirthday(string,uint256)": "f68ad875",
					"setEvenNumber(uint256)": "ced9390d"
				}
			},
			"storageLayout": {
				"storage": [
					{
						"astId": 4,
						"contract": "basic_11_20.sol:Practice",
						"label": "array",
						"offset": 0,
						"slot": "0",
						"type": "t_array(t_uint256)dyn_storage"
					},
					{
						"astId": 120,
						"contract": "basic_11_20.sol:Practice",
						"label": "birthday",
						"offset": 0,
						"slot": "1",
						"type": "t_mapping(t_string_memory_ptr,t_uint256)"
					}
				],
				"types": {
					"t_array(t_uint256)dyn_storage": {
						"base": "t_uint256",
						"encoding": "dynamic_array",
						"label": "uint256[]",
						"numberOfBytes": "32"
					},
					"t_mapping(t_string_memory_ptr,t_uint256)": {
						"encoding": "mapping",
						"key": "t_string_memory_ptr",
						"label": "mapping(string => uint256)",
						"numberOfBytes": "32",
						"value": "t_uint256"
					},
					"t_string_memory_ptr": {
						"encoding": "bytes",
						"label": "string",
						"numberOfBytes": "32"
					},
					"t_uint256": {
						"encoding": "inplace",
						"label": "uint256",
						"numberOfBytes": "32"
					}
				}
			},
			"userdoc": {
				"kind": "user",
				"methods": {},
				"version": 1
			}
		}
	}
}