{
	"Struct2.sol": {
		"Mapping": {
			"abi": [
				{
					"inputs": [
						{
							"internalType": "string",
							"name": "_name",
							"type": "string"
						}
					],
					"name": "getAge",
					"outputs": [
						{
							"internalType": "uint256",
							"name": "",
							"type": "uint256"
						}
					],
					"stateMutability": "view",
					"type": "function"
				},
				{
					"inputs": [
						{
							"internalType": "string",
							"name": "_name",
							"type": "string"
						}
					],
					"name": "getGender",
					"outputs": [
						{
							"internalType": "bool",
							"name": "",
							"type": "bool"
						}
					],
					"stateMutability": "view",
					"type": "function"
				},
				{
					"inputs": [
						{
							"internalType": "string",
							"name": "_name",
							"type": "string"
						},
						{
							"internalType": "uint256",
							"name": "_age",
							"type": "uint256"
						}
					],
					"name": "setAge",
					"outputs": [],
					"stateMutability": "nonpayable",
					"type": "function"
				},
				{
					"inputs": [
						{
							"internalType": "string",
							"name": "_name",
							"type": "string"
						},
						{
							"internalType": "bool",
							"name": "_gender",
							"type": "bool"
						}
					],
					"name": "setGender",
					"outputs": [],
					"stateMutability": "nonpayable",
					"type": "function"
				},
				{
					"inputs": [
						{
							"internalType": "string",
							"name": "_name",
							"type": "string"
						},
						{
							"internalType": "uint256",
							"name": "_number",
							"type": "uint256"
						},
						{
							"internalType": "uint256",
							"name": "_score",
							"type": "uint256"
						},
						{
							"internalType": "string",
							"name": "_address",
							"type": "string"
						}
					],
					"name": "setStudent",
					"outputs": [],
					"stateMutability": "nonpayable",
					"type": "function"
				}
			],
			"devdoc": {
				"kind": "dev",
				"methods": {},
				"version": 1
			},
			"evm": {
				"assembly": "    /* \"Struct2.sol\":75:932  contract Mapping {... */\n  mstore(0x40, 0x80)\n  callvalue\n  dup1\n  iszero\n  tag_1\n  jumpi\n  0x00\n  dup1\n  revert\ntag_1:\n  pop\n  dataSize(sub_0)\n  dup1\n  dataOffset(sub_0)\n  0x00\n  codecopy\n  0x00\n  return\nstop\n\nsub_0: assembly {\n        /* \"Struct2.sol\":75:932  contract Mapping {... */\n      mstore(0x40, 0x80)\n      callvalue\n      dup1\n      iszero\n      tag_1\n      jumpi\n      0x00\n      dup1\n      revert\n    tag_1:\n      pop\n      jumpi(tag_2, lt(calldatasize, 0x04))\n      shr(0xe0, calldataload(0x00))\n      dup1\n      0x107af71c\n      eq\n      tag_3\n      jumpi\n      dup1\n      0x25b574aa\n      eq\n      tag_4\n      jumpi\n      dup1\n      0xd83880f0\n      eq\n      tag_5\n      jumpi\n      dup1\n      0xdfeb76f6\n      eq\n      tag_6\n      jumpi\n      dup1\n      0xe8d6221f\n      eq\n      tag_7\n      jumpi\n    tag_2:\n      0x00\n      dup1\n      revert\n        /* \"Struct2.sol\":323:494  function setStudent(string memory _name, uint _number, uint _score, string memory _address ) public {... */\n    tag_3:\n      tag_8\n      0x04\n      dup1\n      calldatasize\n      sub\n      dup2\n      add\n      swap1\n      tag_9\n      swap2\n      swap1\n      tag_10\n      jump\t// in\n    tag_9:\n      tag_11\n      jump\t// in\n    tag_8:\n      stop\n        /* \"Struct2.sol\":502:593  function setAge(string memory _name, uint _age) public {... */\n    tag_4:\n      tag_12\n      0x04\n      dup1\n      calldatasize\n      sub\n      dup2\n      add\n      swap1\n      tag_13\n      swap2\n      swap1\n      tag_14\n      jump\t// in\n    tag_13:\n      tag_15\n      jump\t// in\n    tag_12:\n      stop\n        /* \"Struct2.sol\":601:700  function getAge(string memory _name) public view returns(uint) {... */\n    tag_5:\n      tag_16\n      0x04\n      dup1\n      calldatasize\n      sub\n      dup2\n      add\n      swap1\n      tag_17\n      swap2\n      swap1\n      tag_18\n      jump\t// in\n    tag_17:\n      tag_19\n      jump\t// in\n    tag_16:\n      mload(0x40)\n      tag_20\n      swap2\n      swap1\n      tag_21\n      jump\t// in\n    tag_20:\n      mload(0x40)\n      dup1\n      swap2\n      sub\n      swap1\n      return\n        /* \"Struct2.sol\":708:811  function setGender(string memory _name, bool _gender) public {... */\n    tag_6:\n      tag_22\n      0x04\n      dup1\n      calldatasize\n      sub\n      dup2\n      add\n      swap1\n      tag_23\n      swap2\n      swap1\n      tag_24\n      jump\t// in\n    tag_23:\n      tag_25\n      jump\t// in\n    tag_22:\n      stop\n        /* \"Struct2.sol\":819:924  function getGender(string memory _name) public view returns(bool) {... */\n    tag_7:\n      tag_26\n      0x04\n      dup1\n      calldatasize\n      sub\n      dup2\n      add\n      swap1\n      tag_27\n      swap2\n      swap1\n      tag_18\n      jump\t// in\n    tag_27:\n      tag_28\n      jump\t// in\n    tag_26:\n      mload(0x40)\n      tag_29\n      swap2\n      swap1\n      tag_30\n      jump\t// in\n    tag_29:\n      mload(0x40)\n      dup1\n      swap2\n      sub\n      swap1\n      return\n        /* \"Struct2.sol\":323:494  function setStudent(string memory _name, uint _number, uint _score, string memory _address ) public {... */\n    tag_11:\n        /* \"Struct2.sol\":452:486  Student(_number, _score, _address) */\n      mload(0x40)\n      dup1\n      0x60\n      add\n      0x40\n      mstore\n      dup1\n        /* \"Struct2.sol\":460:467  _number */\n      dup5\n        /* \"Struct2.sol\":452:486  Student(_number, _score, _address) */\n      dup2\n      mstore\n      0x20\n      add\n        /* \"Struct2.sol\":469:475  _score */\n      dup4\n        /* \"Struct2.sol\":452:486  Student(_number, _score, _address) */\n      dup2\n      mstore\n      0x20\n      add\n        /* \"Struct2.sol\":477:485  _address */\n      dup3\n        /* \"Struct2.sol\":452:486  Student(_number, _score, _address) */\n      dup2\n      mstore\n      pop\n        /* \"Struct2.sol\":434:442  students */\n      0x02\n        /* \"Struct2.sol\":443:448  _name */\n      dup6\n        /* \"Struct2.sol\":434:449  students[_name] */\n      mload(0x40)\n      tag_32\n      swap2\n      swap1\n      tag_33\n      jump\t// in\n    tag_32:\n      swap1\n      dup2\n      mstore\n      0x20\n      add\n      mload(0x40)\n      dup1\n      swap2\n      sub\n      swap1\n      keccak256\n        /* \"Struct2.sol\":434:486  students[_name] = Student(_number, _score, _address) */\n      0x00\n      dup3\n      add\n      mload\n      dup2\n      0x00\n      add\n      sstore\n      0x20\n      dup3\n      add\n      mload\n      dup2\n      0x01\n      add\n      sstore\n      0x40\n      dup3\n      add\n      mload\n      dup2\n      0x02\n      add\n      swap1\n      dup2\n      tag_34\n      swap2\n      swap1\n      tag_35\n      jump\t// in\n    tag_34:\n      pop\n      swap1\n      pop\n      pop\n        /* \"Struct2.sol\":323:494  function setStudent(string memory _name, uint _number, uint _score, string memory _address ) public {... */\n      pop\n      pop\n      pop\n      pop\n      jump\t// out\n        /* \"Struct2.sol\":502:593  function setAge(string memory _name, uint _age) public {... */\n    tag_15:\n        /* \"Struct2.sol\":581:585  _age */\n      dup1\n        /* \"Struct2.sol\":568:571  age */\n      0x00\n        /* \"Struct2.sol\":572:577  _name */\n      dup4\n        /* \"Struct2.sol\":568:578  age[_name] */\n      mload(0x40)\n      tag_37\n      swap2\n      swap1\n      tag_33\n      jump\t// in\n    tag_37:\n      swap1\n      dup2\n      mstore\n      0x20\n      add\n      mload(0x40)\n      dup1\n      swap2\n      sub\n      swap1\n      keccak256\n        /* \"Struct2.sol\":568:585  age[_name] = _age */\n      dup2\n      swap1\n      sstore\n      pop\n        /* \"Struct2.sol\":502:593  function setAge(string memory _name, uint _age) public {... */\n      pop\n      pop\n      jump\t// out\n        /* \"Struct2.sol\":601:700  function getAge(string memory _name) public view returns(uint) {... */\n    tag_19:\n        /* \"Struct2.sol\":658:662  uint */\n      0x00\n        /* \"Struct2.sol\":682:685  age */\n      dup1\n        /* \"Struct2.sol\":686:691  _name */\n      dup3\n        /* \"Struct2.sol\":682:692  age[_name] */\n      mload(0x40)\n      tag_39\n      swap2\n      swap1\n      tag_33\n      jump\t// in\n    tag_39:\n      swap1\n      dup2\n      mstore\n      0x20\n      add\n      mload(0x40)\n      dup1\n      swap2\n      sub\n      swap1\n      keccak256\n      sload\n        /* \"Struct2.sol\":675:692  return age[_name] */\n      swap1\n      pop\n        /* \"Struct2.sol\":601:700  function getAge(string memory _name) public view returns(uint) {... */\n      swap2\n      swap1\n      pop\n      jump\t// out\n        /* \"Struct2.sol\":708:811  function setGender(string memory _name, bool _gender) public {... */\n    tag_25:\n        /* \"Struct2.sol\":796:803  _gender */\n      dup1\n        /* \"Struct2.sol\":780:786  gender */\n      0x01\n        /* \"Struct2.sol\":787:792  _name */\n      dup4\n        /* \"Struct2.sol\":780:793  gender[_name] */\n      mload(0x40)\n      tag_41\n      swap2\n      swap1\n      tag_33\n      jump\t// in\n    tag_41:\n      swap1\n      dup2\n      mstore\n      0x20\n      add\n      mload(0x40)\n      dup1\n      swap2\n      sub\n      swap1\n      keccak256\n      0x00\n        /* \"Struct2.sol\":780:803  gender[_name] = _gender */\n      0x0100\n      exp\n      dup2\n      sload\n      dup2\n      0xff\n      mul\n      not\n      and\n      swap1\n      dup4\n      iszero\n      iszero\n      mul\n      or\n      swap1\n      sstore\n      pop\n        /* \"Struct2.sol\":708:811  function setGender(string memory _name, bool _gender) public {... */\n      pop\n      pop\n      jump\t// out\n        /* \"Struct2.sol\":819:924  function getGender(string memory _name) public view returns(bool) {... */\n    tag_28:\n        /* \"Struct2.sol\":879:883  bool */\n      0x00\n        /* \"Struct2.sol\":903:909  gender */\n      0x01\n        /* \"Struct2.sol\":910:915  _name */\n      dup3\n        /* \"Struct2.sol\":903:916  gender[_name] */\n      mload(0x40)\n      tag_43\n      swap2\n      swap1\n      tag_33\n      jump\t// in\n    tag_43:\n      swap1\n      dup2\n      mstore\n      0x20\n      add\n      mload(0x40)\n      dup1\n      swap2\n      sub\n      swap1\n      keccak256\n      0x00\n      swap1\n      sload\n      swap1\n      0x0100\n      exp\n      swap1\n      div\n      0xff\n      and\n        /* \"Struct2.sol\":896:916  return gender[_name] */\n      swap1\n      pop\n        /* \"Struct2.sol\":819:924  function getGender(string memory _name) public view returns(bool) {... */\n      swap2\n      swap1\n      pop\n      jump\t// out\n        /* \"#utility.yul\":7:82   */\n    tag_44:\n        /* \"#utility.yul\":40:46   */\n      0x00\n        /* \"#utility.yul\":73:75   */\n      0x40\n        /* \"#utility.yul\":67:76   */\n      mload\n        /* \"#utility.yul\":57:76   */\n      swap1\n      pop\n        /* \"#utility.yul\":7:82   */\n      swap1\n      jump\t// out\n        /* \"#utility.yul\":88:205   */\n    tag_45:\n        /* \"#utility.yul\":197:198   */\n      0x00\n        /* \"#utility.yul\":194:195   */\n      dup1\n        /* \"#utility.yul\":187:199   */\n      revert\n        /* \"#utility.yul\":211:328   */\n    tag_46:\n        /* \"#utility.yul\":320:321   */\n      0x00\n        /* \"#utility.yul\":317:318   */\n      dup1\n        /* \"#utility.yul\":310:322   */\n      revert\n        /* \"#utility.yul\":334:451   */\n    tag_47:\n        /* \"#utility.yul\":443:444   */\n      0x00\n        /* \"#utility.yul\":440:441   */\n      dup1\n        /* \"#utility.yul\":433:445   */\n      revert\n        /* \"#utility.yul\":457:574   */\n    tag_48:\n        /* \"#utility.yul\":566:567   */\n      0x00\n        /* \"#utility.yul\":563:564   */\n      dup1\n        /* \"#utility.yul\":556:568   */\n      revert\n        /* \"#utility.yul\":580:682   */\n    tag_49:\n        /* \"#utility.yul\":621:627   */\n      0x00\n        /* \"#utility.yul\":672:674   */\n      0x1f\n        /* \"#utility.yul\":668:675   */\n      not\n        /* \"#utility.yul\":663:665   */\n      0x1f\n        /* \"#utility.yul\":656:661   */\n      dup4\n        /* \"#utility.yul\":652:666   */\n      add\n        /* \"#utility.yul\":648:676   */\n      and\n        /* \"#utility.yul\":638:676   */\n      swap1\n      pop\n        /* \"#utility.yul\":580:682   */\n      swap2\n      swap1\n      pop\n      jump\t// out\n        /* \"#utility.yul\":688:868   */\n    tag_50:\n        /* \"#utility.yul\":736:813   */\n      0x4e487b7100000000000000000000000000000000000000000000000000000000\n        /* \"#utility.yul\":733:734   */\n      0x00\n        /* \"#utility.yul\":726:814   */\n      mstore\n        /* \"#utility.yul\":833:837   */\n      0x41\n        /* \"#utility.yul\":830:831   */\n      0x04\n        /* \"#utility.yul\":823:838   */\n      mstore\n        /* \"#utility.yul\":857:861   */\n      0x24\n        /* \"#utility.yul\":854:855   */\n      0x00\n        /* \"#utility.yul\":847:862   */\n      revert\n        /* \"#utility.yul\":874:1155   */\n    tag_51:\n        /* \"#utility.yul\":957:984   */\n      tag_95\n        /* \"#utility.yul\":979:983   */\n      dup3\n        /* \"#utility.yul\":957:984   */\n      tag_49\n      jump\t// in\n    tag_95:\n        /* \"#utility.yul\":949:955   */\n      dup2\n        /* \"#utility.yul\":945:985   */\n      add\n        /* \"#utility.yul\":1087:1093   */\n      dup2\n        /* \"#utility.yul\":1075:1085   */\n      dup2\n        /* \"#utility.yul\":1072:1094   */\n      lt\n        /* \"#utility.yul\":1051:1069   */\n      0xffffffffffffffff\n        /* \"#utility.yul\":1039:1049   */\n      dup3\n        /* \"#utility.yul\":1036:1070   */\n      gt\n        /* \"#utility.yul\":1033:1095   */\n      or\n        /* \"#utility.yul\":1030:1118   */\n      iszero\n      tag_96\n      jumpi\n        /* \"#utility.yul\":1098:1116   */\n      tag_97\n      tag_50\n      jump\t// in\n    tag_97:\n        /* \"#utility.yul\":1030:1118   */\n    tag_96:\n        /* \"#utility.yul\":1138:1148   */\n      dup1\n        /* \"#utility.yul\":1134:1136   */\n      0x40\n        /* \"#utility.yul\":1127:1149   */\n      mstore\n        /* \"#utility.yul\":917:1155   */\n      pop\n        /* \"#utility.yul\":874:1155   */\n      pop\n      pop\n      jump\t// out\n        /* \"#utility.yul\":1161:1290   */\n    tag_52:\n        /* \"#utility.yul\":1195:1201   */\n      0x00\n        /* \"#utility.yul\":1222:1242   */\n      tag_99\n      tag_44\n      jump\t// in\n    tag_99:\n        /* \"#utility.yul\":1212:1242   */\n      swap1\n      pop\n        /* \"#utility.yul\":1251:1284   */\n      tag_100\n        /* \"#utility.yul\":1279:1283   */\n      dup3\n        /* \"#utility.yul\":1271:1277   */\n      dup3\n        /* \"#utility.yul\":1251:1284   */\n      tag_51\n      jump\t// in\n    tag_100:\n        /* \"#utility.yul\":1161:1290   */\n      swap2\n      swap1\n      pop\n      jump\t// out\n        /* \"#utility.yul\":1296:1604   */\n    tag_53:\n        /* \"#utility.yul\":1358:1362   */\n      0x00\n        /* \"#utility.yul\":1448:1466   */\n      0xffffffffffffffff\n        /* \"#utility.yul\":1440:1446   */\n      dup3\n        /* \"#utility.yul\":1437:1467   */\n      gt\n        /* \"#utility.yul\":1434:1490   */\n      iszero\n      tag_102\n      jumpi\n        /* \"#utility.yul\":1470:1488   */\n      tag_103\n      tag_50\n      jump\t// in\n    tag_103:\n        /* \"#utility.yul\":1434:1490   */\n    tag_102:\n        /* \"#utility.yul\":1508:1537   */\n      tag_104\n        /* \"#utility.yul\":1530:1536   */\n      dup3\n        /* \"#utility.yul\":1508:1537   */\n      tag_49\n      jump\t// in\n    tag_104:\n        /* \"#utility.yul\":1500:1537   */\n      swap1\n      pop\n        /* \"#utility.yul\":1592:1596   */\n      0x20\n        /* \"#utility.yul\":1586:1590   */\n      dup2\n        /* \"#utility.yul\":1582:1597   */\n      add\n        /* \"#utility.yul\":1574:1597   */\n      swap1\n      pop\n        /* \"#utility.yul\":1296:1604   */\n      swap2\n      swap1\n      pop\n      jump\t// out\n        /* \"#utility.yul\":1610:1756   */\n    tag_54:\n        /* \"#utility.yul\":1707:1713   */\n      dup3\n        /* \"#utility.yul\":1702:1705   */\n      dup2\n        /* \"#utility.yul\":1697:1700   */\n      dup4\n        /* \"#utility.yul\":1684:1714   */\n      calldatacopy\n        /* \"#utility.yul\":1748:1749   */\n      0x00\n        /* \"#utility.yul\":1739:1745   */\n      dup4\n        /* \"#utility.yul\":1734:1737   */\n      dup4\n        /* \"#utility.yul\":1730:1746   */\n      add\n        /* \"#utility.yul\":1723:1750   */\n      mstore\n        /* \"#utility.yul\":1610:1756   */\n      pop\n      pop\n      pop\n      jump\t// out\n        /* \"#utility.yul\":1762:2187   */\n    tag_55:\n        /* \"#utility.yul\":1840:1845   */\n      0x00\n        /* \"#utility.yul\":1865:1931   */\n      tag_107\n        /* \"#utility.yul\":1881:1930   */\n      tag_108\n        /* \"#utility.yul\":1923:1929   */\n      dup5\n        /* \"#utility.yul\":1881:1930   */\n      tag_53\n      jump\t// in\n    tag_108:\n        /* \"#utility.yul\":1865:1931   */\n      tag_52\n      jump\t// in\n    tag_107:\n        /* \"#utility.yul\":1856:1931   */\n      swap1\n      pop\n        /* \"#utility.yul\":1954:1960   */\n      dup3\n        /* \"#utility.yul\":1947:1952   */\n      dup2\n        /* \"#utility.yul\":1940:1961   */\n      mstore\n        /* \"#utility.yul\":1992:1996   */\n      0x20\n        /* \"#utility.yul\":1985:1990   */\n      dup2\n        /* \"#utility.yul\":1981:1997   */\n      add\n        /* \"#utility.yul\":2030:2033   */\n      dup5\n        /* \"#utility.yul\":2021:2027   */\n      dup5\n        /* \"#utility.yul\":2016:2019   */\n      dup5\n        /* \"#utility.yul\":2012:2028   */\n      add\n        /* \"#utility.yul\":2009:2034   */\n      gt\n        /* \"#utility.yul\":2006:2118   */\n      iszero\n      tag_109\n      jumpi\n        /* \"#utility.yul\":2037:2116   */\n      tag_110\n      tag_48\n      jump\t// in\n    tag_110:\n        /* \"#utility.yul\":2006:2118   */\n    tag_109:\n        /* \"#utility.yul\":2127:2181   */\n      tag_111\n        /* \"#utility.yul\":2174:2180   */\n      dup5\n        /* \"#utility.yul\":2169:2172   */\n      dup3\n        /* \"#utility.yul\":2164:2167   */\n      dup6\n        /* \"#utility.yul\":2127:2181   */\n      tag_54\n      jump\t// in\n    tag_111:\n        /* \"#utility.yul\":1846:2187   */\n      pop\n        /* \"#utility.yul\":1762:2187   */\n      swap4\n      swap3\n      pop\n      pop\n      pop\n      jump\t// out\n        /* \"#utility.yul\":2207:2547   */\n    tag_56:\n        /* \"#utility.yul\":2263:2268   */\n      0x00\n        /* \"#utility.yul\":2312:2315   */\n      dup3\n        /* \"#utility.yul\":2305:2309   */\n      0x1f\n        /* \"#utility.yul\":2297:2303   */\n      dup4\n        /* \"#utility.yul\":2293:2310   */\n      add\n        /* \"#utility.yul\":2289:2316   */\n      slt\n        /* \"#utility.yul\":2279:2401   */\n      tag_113\n      jumpi\n        /* \"#utility.yul\":2320:2399   */\n      tag_114\n      tag_47\n      jump\t// in\n    tag_114:\n        /* \"#utility.yul\":2279:2401   */\n    tag_113:\n        /* \"#utility.yul\":2437:2443   */\n      dup2\n        /* \"#utility.yul\":2424:2444   */\n      calldataload\n        /* \"#utility.yul\":2462:2541   */\n      tag_115\n        /* \"#utility.yul\":2537:2540   */\n      dup5\n        /* \"#utility.yul\":2529:2535   */\n      dup3\n        /* \"#utility.yul\":2522:2526   */\n      0x20\n        /* \"#utility.yul\":2514:2520   */\n      dup7\n        /* \"#utility.yul\":2510:2527   */\n      add\n        /* \"#utility.yul\":2462:2541   */\n      tag_55\n      jump\t// in\n    tag_115:\n        /* \"#utility.yul\":2453:2541   */\n      swap2\n      pop\n        /* \"#utility.yul\":2269:2547   */\n      pop\n        /* \"#utility.yul\":2207:2547   */\n      swap3\n      swap2\n      pop\n      pop\n      jump\t// out\n        /* \"#utility.yul\":2553:2630   */\n    tag_57:\n        /* \"#utility.yul\":2590:2597   */\n      0x00\n        /* \"#utility.yul\":2619:2624   */\n      dup2\n        /* \"#utility.yul\":2608:2624   */\n      swap1\n      pop\n        /* \"#utility.yul\":2553:2630   */\n      swap2\n      swap1\n      pop\n      jump\t// out\n        /* \"#utility.yul\":2636:2758   */\n    tag_58:\n        /* \"#utility.yul\":2709:2733   */\n      tag_118\n        /* \"#utility.yul\":2727:2732   */\n      dup2\n        /* \"#utility.yul\":2709:2733   */\n      tag_57\n      jump\t// in\n    tag_118:\n        /* \"#utility.yul\":2702:2707   */\n      dup2\n        /* \"#utility.yul\":2699:2734   */\n      eq\n        /* \"#utility.yul\":2689:2752   */\n      tag_119\n      jumpi\n        /* \"#utility.yul\":2748:2749   */\n      0x00\n        /* \"#utility.yul\":2745:2746   */\n      dup1\n        /* \"#utility.yul\":2738:2750   */\n      revert\n        /* \"#utility.yul\":2689:2752   */\n    tag_119:\n        /* \"#utility.yul\":2636:2758   */\n      pop\n      jump\t// out\n        /* \"#utility.yul\":2764:2903   */\n    tag_59:\n        /* \"#utility.yul\":2810:2815   */\n      0x00\n        /* \"#utility.yul\":2848:2854   */\n      dup2\n        /* \"#utility.yul\":2835:2855   */\n      calldataload\n        /* \"#utility.yul\":2826:2855   */\n      swap1\n      pop\n        /* \"#utility.yul\":2864:2897   */\n      tag_121\n        /* \"#utility.yul\":2891:2896   */\n      dup2\n        /* \"#utility.yul\":2864:2897   */\n      tag_58\n      jump\t// in\n    tag_121:\n        /* \"#utility.yul\":2764:2903   */\n      swap3\n      swap2\n      pop\n      pop\n      jump\t// out\n        /* \"#utility.yul\":2909:4034   */\n    tag_10:\n        /* \"#utility.yul\":3015:3021   */\n      0x00\n        /* \"#utility.yul\":3023:3029   */\n      dup1\n        /* \"#utility.yul\":3031:3037   */\n      0x00\n        /* \"#utility.yul\":3039:3045   */\n      dup1\n        /* \"#utility.yul\":3088:3091   */\n      0x80\n        /* \"#utility.yul\":3076:3085   */\n      dup6\n        /* \"#utility.yul\":3067:3074   */\n      dup8\n        /* \"#utility.yul\":3063:3086   */\n      sub\n        /* \"#utility.yul\":3059:3092   */\n      slt\n        /* \"#utility.yul\":3056:3176   */\n      iszero\n      tag_123\n      jumpi\n        /* \"#utility.yul\":3095:3174   */\n      tag_124\n      tag_45\n      jump\t// in\n    tag_124:\n        /* \"#utility.yul\":3056:3176   */\n    tag_123:\n        /* \"#utility.yul\":3243:3244   */\n      0x00\n        /* \"#utility.yul\":3232:3241   */\n      dup6\n        /* \"#utility.yul\":3228:3245   */\n      add\n        /* \"#utility.yul\":3215:3246   */\n      calldataload\n        /* \"#utility.yul\":3273:3291   */\n      0xffffffffffffffff\n        /* \"#utility.yul\":3265:3271   */\n      dup2\n        /* \"#utility.yul\":3262:3292   */\n      gt\n        /* \"#utility.yul\":3259:3376   */\n      iszero\n      tag_125\n      jumpi\n        /* \"#utility.yul\":3295:3374   */\n      tag_126\n      tag_46\n      jump\t// in\n    tag_126:\n        /* \"#utility.yul\":3259:3376   */\n    tag_125:\n        /* \"#utility.yul\":3400:3463   */\n      tag_127\n        /* \"#utility.yul\":3455:3462   */\n      dup8\n        /* \"#utility.yul\":3446:3452   */\n      dup3\n        /* \"#utility.yul\":3435:3444   */\n      dup9\n        /* \"#utility.yul\":3431:3453   */\n      add\n        /* \"#utility.yul\":3400:3463   */\n      tag_56\n      jump\t// in\n    tag_127:\n        /* \"#utility.yul\":3390:3463   */\n      swap5\n      pop\n        /* \"#utility.yul\":3186:3473   */\n      pop\n        /* \"#utility.yul\":3512:3514   */\n      0x20\n        /* \"#utility.yul\":3538:3591   */\n      tag_128\n        /* \"#utility.yul\":3583:3590   */\n      dup8\n        /* \"#utility.yul\":3574:3580   */\n      dup3\n        /* \"#utility.yul\":3563:3572   */\n      dup9\n        /* \"#utility.yul\":3559:3581   */\n      add\n        /* \"#utility.yul\":3538:3591   */\n      tag_59\n      jump\t// in\n    tag_128:\n        /* \"#utility.yul\":3528:3591   */\n      swap4\n      pop\n        /* \"#utility.yul\":3483:3601   */\n      pop\n        /* \"#utility.yul\":3640:3642   */\n      0x40\n        /* \"#utility.yul\":3666:3719   */\n      tag_129\n        /* \"#utility.yul\":3711:3718   */\n      dup8\n        /* \"#utility.yul\":3702:3708   */\n      dup3\n        /* \"#utility.yul\":3691:3700   */\n      dup9\n        /* \"#utility.yul\":3687:3709   */\n      add\n        /* \"#utility.yul\":3666:3719   */\n      tag_59\n      jump\t// in\n    tag_129:\n        /* \"#utility.yul\":3656:3719   */\n      swap3\n      pop\n        /* \"#utility.yul\":3611:3729   */\n      pop\n        /* \"#utility.yul\":3796:3798   */\n      0x60\n        /* \"#utility.yul\":3785:3794   */\n      dup6\n        /* \"#utility.yul\":3781:3799   */\n      add\n        /* \"#utility.yul\":3768:3800   */\n      calldataload\n        /* \"#utility.yul\":3827:3845   */\n      0xffffffffffffffff\n        /* \"#utility.yul\":3819:3825   */\n      dup2\n        /* \"#utility.yul\":3816:3846   */\n      gt\n        /* \"#utility.yul\":3813:3930   */\n      iszero\n      tag_130\n      jumpi\n        /* \"#utility.yul\":3849:3928   */\n      tag_131\n      tag_46\n      jump\t// in\n    tag_131:\n        /* \"#utility.yul\":3813:3930   */\n    tag_130:\n        /* \"#utility.yul\":3954:4017   */\n      tag_132\n        /* \"#utility.yul\":4009:4016   */\n      dup8\n        /* \"#utility.yul\":4000:4006   */\n      dup3\n        /* \"#utility.yul\":3989:3998   */\n      dup9\n        /* \"#utility.yul\":3985:4007   */\n      add\n        /* \"#utility.yul\":3954:4017   */\n      tag_56\n      jump\t// in\n    tag_132:\n        /* \"#utility.yul\":3944:4017   */\n      swap2\n      pop\n        /* \"#utility.yul\":3739:4027   */\n      pop\n        /* \"#utility.yul\":2909:4034   */\n      swap3\n      swap6\n      swap2\n      swap5\n      pop\n      swap3\n      pop\n      jump\t// out\n        /* \"#utility.yul\":4040:4694   */\n    tag_14:\n        /* \"#utility.yul\":4118:4124   */\n      0x00\n        /* \"#utility.yul\":4126:4132   */\n      dup1\n        /* \"#utility.yul\":4175:4177   */\n      0x40\n        /* \"#utility.yul\":4163:4172   */\n      dup4\n        /* \"#utility.yul\":4154:4161   */\n      dup6\n        /* \"#utility.yul\":4150:4173   */\n      sub\n        /* \"#utility.yul\":4146:4178   */\n      slt\n        /* \"#utility.yul\":4143:4262   */\n      iszero\n      tag_134\n      jumpi\n        /* \"#utility.yul\":4181:4260   */\n      tag_135\n      tag_45\n      jump\t// in\n    tag_135:\n        /* \"#utility.yul\":4143:4262   */\n    tag_134:\n        /* \"#utility.yul\":4329:4330   */\n      0x00\n        /* \"#utility.yul\":4318:4327   */\n      dup4\n        /* \"#utility.yul\":4314:4331   */\n      add\n        /* \"#utility.yul\":4301:4332   */\n      calldataload\n        /* \"#utility.yul\":4359:4377   */\n      0xffffffffffffffff\n        /* \"#utility.yul\":4351:4357   */\n      dup2\n        /* \"#utility.yul\":4348:4378   */\n      gt\n        /* \"#utility.yul\":4345:4462   */\n      iszero\n      tag_136\n      jumpi\n        /* \"#utility.yul\":4381:4460   */\n      tag_137\n      tag_46\n      jump\t// in\n    tag_137:\n        /* \"#utility.yul\":4345:4462   */\n    tag_136:\n        /* \"#utility.yul\":4486:4549   */\n      tag_138\n        /* \"#utility.yul\":4541:4548   */\n      dup6\n        /* \"#utility.yul\":4532:4538   */\n      dup3\n        /* \"#utility.yul\":4521:4530   */\n      dup7\n        /* \"#utility.yul\":4517:4539   */\n      add\n        /* \"#utility.yul\":4486:4549   */\n      tag_56\n      jump\t// in\n    tag_138:\n        /* \"#utility.yul\":4476:4549   */\n      swap3\n      pop\n        /* \"#utility.yul\":4272:4559   */\n      pop\n        /* \"#utility.yul\":4598:4600   */\n      0x20\n        /* \"#utility.yul\":4624:4677   */\n      tag_139\n        /* \"#utility.yul\":4669:4676   */\n      dup6\n        /* \"#utility.yul\":4660:4666   */\n      dup3\n        /* \"#utility.yul\":4649:4658   */\n      dup7\n        /* \"#utility.yul\":4645:4667   */\n      add\n        /* \"#utility.yul\":4624:4677   */\n      tag_59\n      jump\t// in\n    tag_139:\n        /* \"#utility.yul\":4614:4677   */\n      swap2\n      pop\n        /* \"#utility.yul\":4569:4687   */\n      pop\n        /* \"#utility.yul\":4040:4694   */\n      swap3\n      pop\n      swap3\n      swap1\n      pop\n      jump\t// out\n        /* \"#utility.yul\":4700:5209   */\n    tag_18:\n        /* \"#utility.yul\":4769:4775   */\n      0x00\n        /* \"#utility.yul\":4818:4820   */\n      0x20\n        /* \"#utility.yul\":4806:4815   */\n      dup3\n        /* \"#utility.yul\":4797:4804   */\n      dup5\n        /* \"#utility.yul\":4793:4816   */\n      sub\n        /* \"#utility.yul\":4789:4821   */\n      slt\n        /* \"#utility.yul\":4786:4905   */\n      iszero\n      tag_141\n      jumpi\n        /* \"#utility.yul\":4824:4903   */\n      tag_142\n      tag_45\n      jump\t// in\n    tag_142:\n        /* \"#utility.yul\":4786:4905   */\n    tag_141:\n        /* \"#utility.yul\":4972:4973   */\n      0x00\n        /* \"#utility.yul\":4961:4970   */\n      dup3\n        /* \"#utility.yul\":4957:4974   */\n      add\n        /* \"#utility.yul\":4944:4975   */\n      calldataload\n        /* \"#utility.yul\":5002:5020   */\n      0xffffffffffffffff\n        /* \"#utility.yul\":4994:5000   */\n      dup2\n        /* \"#utility.yul\":4991:5021   */\n      gt\n        /* \"#utility.yul\":4988:5105   */\n      iszero\n      tag_143\n      jumpi\n        /* \"#utility.yul\":5024:5103   */\n      tag_144\n      tag_46\n      jump\t// in\n    tag_144:\n        /* \"#utility.yul\":4988:5105   */\n    tag_143:\n        /* \"#utility.yul\":5129:5192   */\n      tag_145\n        /* \"#utility.yul\":5184:5191   */\n      dup5\n        /* \"#utility.yul\":5175:5181   */\n      dup3\n        /* \"#utility.yul\":5164:5173   */\n      dup6\n        /* \"#utility.yul\":5160:5182   */\n      add\n        /* \"#utility.yul\":5129:5192   */\n      tag_56\n      jump\t// in\n    tag_145:\n        /* \"#utility.yul\":5119:5192   */\n      swap2\n      pop\n        /* \"#utility.yul\":4915:5202   */\n      pop\n        /* \"#utility.yul\":4700:5209   */\n      swap3\n      swap2\n      pop\n      pop\n      jump\t// out\n        /* \"#utility.yul\":5215:5333   */\n    tag_60:\n        /* \"#utility.yul\":5302:5326   */\n      tag_147\n        /* \"#utility.yul\":5320:5325   */\n      dup2\n        /* \"#utility.yul\":5302:5326   */\n      tag_57\n      jump\t// in\n    tag_147:\n        /* \"#utility.yul\":5297:5300   */\n      dup3\n        /* \"#utility.yul\":5290:5327   */\n      mstore\n        /* \"#utility.yul\":5215:5333   */\n      pop\n      pop\n      jump\t// out\n        /* \"#utility.yul\":5339:5561   */\n    tag_21:\n        /* \"#utility.yul\":5432:5436   */\n      0x00\n        /* \"#utility.yul\":5470:5472   */\n      0x20\n        /* \"#utility.yul\":5459:5468   */\n      dup3\n        /* \"#utility.yul\":5455:5473   */\n      add\n        /* \"#utility.yul\":5447:5473   */\n      swap1\n      pop\n        /* \"#utility.yul\":5483:5554   */\n      tag_149\n        /* \"#utility.yul\":5551:5552   */\n      0x00\n        /* \"#utility.yul\":5540:5549   */\n      dup4\n        /* \"#utility.yul\":5536:5553   */\n      add\n        /* \"#utility.yul\":5527:5533   */\n      dup5\n        /* \"#utility.yul\":5483:5554   */\n      tag_60\n      jump\t// in\n    tag_149:\n        /* \"#utility.yul\":5339:5561   */\n      swap3\n      swap2\n      pop\n      pop\n      jump\t// out\n        /* \"#utility.yul\":5567:5657   */\n    tag_61:\n        /* \"#utility.yul\":5601:5608   */\n      0x00\n        /* \"#utility.yul\":5644:5649   */\n      dup2\n        /* \"#utility.yul\":5637:5650   */\n      iszero\n        /* \"#utility.yul\":5630:5651   */\n      iszero\n        /* \"#utility.yul\":5619:5651   */\n      swap1\n      pop\n        /* \"#utility.yul\":5567:5657   */\n      swap2\n      swap1\n      pop\n      jump\t// out\n        /* \"#utility.yul\":5663:5779   */\n    tag_62:\n        /* \"#utility.yul\":5733:5754   */\n      tag_152\n        /* \"#utility.yul\":5748:5753   */\n      dup2\n        /* \"#utility.yul\":5733:5754   */\n      tag_61\n      jump\t// in\n    tag_152:\n        /* \"#utility.yul\":5726:5731   */\n      dup2\n        /* \"#utility.yul\":5723:5755   */\n      eq\n        /* \"#utility.yul\":5713:5773   */\n      tag_153\n      jumpi\n        /* \"#utility.yul\":5769:5770   */\n      0x00\n        /* \"#utility.yul\":5766:5767   */\n      dup1\n        /* \"#utility.yul\":5759:5771   */\n      revert\n        /* \"#utility.yul\":5713:5773   */\n    tag_153:\n        /* \"#utility.yul\":5663:5779   */\n      pop\n      jump\t// out\n        /* \"#utility.yul\":5785:5918   */\n    tag_63:\n        /* \"#utility.yul\":5828:5833   */\n      0x00\n        /* \"#utility.yul\":5866:5872   */\n      dup2\n        /* \"#utility.yul\":5853:5873   */\n      calldataload\n        /* \"#utility.yul\":5844:5873   */\n      swap1\n      pop\n        /* \"#utility.yul\":5882:5912   */\n      tag_155\n        /* \"#utility.yul\":5906:5911   */\n      dup2\n        /* \"#utility.yul\":5882:5912   */\n      tag_62\n      jump\t// in\n    tag_155:\n        /* \"#utility.yul\":5785:5918   */\n      swap3\n      swap2\n      pop\n      pop\n      jump\t// out\n        /* \"#utility.yul\":5924:6572   */\n    tag_24:\n        /* \"#utility.yul\":5999:6005   */\n      0x00\n        /* \"#utility.yul\":6007:6013   */\n      dup1\n        /* \"#utility.yul\":6056:6058   */\n      0x40\n        /* \"#utility.yul\":6044:6053   */\n      dup4\n        /* \"#utility.yul\":6035:6042   */\n      dup6\n        /* \"#utility.yul\":6031:6054   */\n      sub\n        /* \"#utility.yul\":6027:6059   */\n      slt\n        /* \"#utility.yul\":6024:6143   */\n      iszero\n      tag_157\n      jumpi\n        /* \"#utility.yul\":6062:6141   */\n      tag_158\n      tag_45\n      jump\t// in\n    tag_158:\n        /* \"#utility.yul\":6024:6143   */\n    tag_157:\n        /* \"#utility.yul\":6210:6211   */\n      0x00\n        /* \"#utility.yul\":6199:6208   */\n      dup4\n        /* \"#utility.yul\":6195:6212   */\n      add\n        /* \"#utility.yul\":6182:6213   */\n      calldataload\n        /* \"#utility.yul\":6240:6258   */\n      0xffffffffffffffff\n        /* \"#utility.yul\":6232:6238   */\n      dup2\n        /* \"#utility.yul\":6229:6259   */\n      gt\n        /* \"#utility.yul\":6226:6343   */\n      iszero\n      tag_159\n      jumpi\n        /* \"#utility.yul\":6262:6341   */\n      tag_160\n      tag_46\n      jump\t// in\n    tag_160:\n        /* \"#utility.yul\":6226:6343   */\n    tag_159:\n        /* \"#utility.yul\":6367:6430   */\n      tag_161\n        /* \"#utility.yul\":6422:6429   */\n      dup6\n        /* \"#utility.yul\":6413:6419   */\n      dup3\n        /* \"#utility.yul\":6402:6411   */\n      dup7\n        /* \"#utility.yul\":6398:6420   */\n      add\n        /* \"#utility.yul\":6367:6430   */\n      tag_56\n      jump\t// in\n    tag_161:\n        /* \"#utility.yul\":6357:6430   */\n      swap3\n      pop\n        /* \"#utility.yul\":6153:6440   */\n      pop\n        /* \"#utility.yul\":6479:6481   */\n      0x20\n        /* \"#utility.yul\":6505:6555   */\n      tag_162\n        /* \"#utility.yul\":6547:6554   */\n      dup6\n        /* \"#utility.yul\":6538:6544   */\n      dup3\n        /* \"#utility.yul\":6527:6536   */\n      dup7\n        /* \"#utility.yul\":6523:6545   */\n      add\n        /* \"#utility.yul\":6505:6555   */\n      tag_63\n      jump\t// in\n    tag_162:\n        /* \"#utility.yul\":6495:6555   */\n      swap2\n      pop\n        /* \"#utility.yul\":6450:6565   */\n      pop\n        /* \"#utility.yul\":5924:6572   */\n      swap3\n      pop\n      swap3\n      swap1\n      pop\n      jump\t// out\n        /* \"#utility.yul\":6578:6687   */\n    tag_64:\n        /* \"#utility.yul\":6659:6680   */\n      tag_164\n        /* \"#utility.yul\":6674:6679   */\n      dup2\n        /* \"#utility.yul\":6659:6680   */\n      tag_61\n      jump\t// in\n    tag_164:\n        /* \"#utility.yul\":6654:6657   */\n      dup3\n        /* \"#utility.yul\":6647:6681   */\n      mstore\n        /* \"#utility.yul\":6578:6687   */\n      pop\n      pop\n      jump\t// out\n        /* \"#utility.yul\":6693:6903   */\n    tag_30:\n        /* \"#utility.yul\":6780:6784   */\n      0x00\n        /* \"#utility.yul\":6818:6820   */\n      0x20\n        /* \"#utility.yul\":6807:6816   */\n      dup3\n        /* \"#utility.yul\":6803:6821   */\n      add\n        /* \"#utility.yul\":6795:6821   */\n      swap1\n      pop\n        /* \"#utility.yul\":6831:6896   */\n      tag_166\n        /* \"#utility.yul\":6893:6894   */\n      0x00\n        /* \"#utility.yul\":6882:6891   */\n      dup4\n        /* \"#utility.yul\":6878:6895   */\n      add\n        /* \"#utility.yul\":6869:6875   */\n      dup5\n        /* \"#utility.yul\":6831:6896   */\n      tag_64\n      jump\t// in\n    tag_166:\n        /* \"#utility.yul\":6693:6903   */\n      swap3\n      swap2\n      pop\n      pop\n      jump\t// out\n        /* \"#utility.yul\":6909:7008   */\n    tag_65:\n        /* \"#utility.yul\":6961:6967   */\n      0x00\n        /* \"#utility.yul\":6995:7000   */\n      dup2\n        /* \"#utility.yul\":6989:7001   */\n      mload\n        /* \"#utility.yul\":6979:7001   */\n      swap1\n      pop\n        /* \"#utility.yul\":6909:7008   */\n      swap2\n      swap1\n      pop\n      jump\t// out\n        /* \"#utility.yul\":7014:7162   */\n    tag_66:\n        /* \"#utility.yul\":7116:7127   */\n      0x00\n        /* \"#utility.yul\":7153:7156   */\n      dup2\n        /* \"#utility.yul\":7138:7156   */\n      swap1\n      pop\n        /* \"#utility.yul\":7014:7162   */\n      swap3\n      swap2\n      pop\n      pop\n      jump\t// out\n        /* \"#utility.yul\":7168:7414   */\n    tag_67:\n        /* \"#utility.yul\":7249:7250   */\n      0x00\n        /* \"#utility.yul\":7259:7372   */\n    tag_170:\n        /* \"#utility.yul\":7273:7279   */\n      dup4\n        /* \"#utility.yul\":7270:7271   */\n      dup2\n        /* \"#utility.yul\":7267:7280   */\n      lt\n        /* \"#utility.yul\":7259:7372   */\n      iszero\n      tag_172\n      jumpi\n        /* \"#utility.yul\":7358:7359   */\n      dup1\n        /* \"#utility.yul\":7353:7356   */\n      dup3\n        /* \"#utility.yul\":7349:7360   */\n      add\n        /* \"#utility.yul\":7343:7361   */\n      mload\n        /* \"#utility.yul\":7339:7340   */\n      dup2\n        /* \"#utility.yul\":7334:7337   */\n      dup5\n        /* \"#utility.yul\":7330:7341   */\n      add\n        /* \"#utility.yul\":7323:7362   */\n      mstore\n        /* \"#utility.yul\":7295:7297   */\n      0x20\n        /* \"#utility.yul\":7292:7293   */\n      dup2\n        /* \"#utility.yul\":7288:7298   */\n      add\n        /* \"#utility.yul\":7283:7298   */\n      swap1\n      pop\n        /* \"#utility.yul\":7259:7372   */\n      jump(tag_170)\n    tag_172:\n        /* \"#utility.yul\":7406:7407   */\n      0x00\n        /* \"#utility.yul\":7397:7403   */\n      dup5\n        /* \"#utility.yul\":7392:7395   */\n      dup5\n        /* \"#utility.yul\":7388:7404   */\n      add\n        /* \"#utility.yul\":7381:7408   */\n      mstore\n        /* \"#utility.yul\":7230:7414   */\n      pop\n        /* \"#utility.yul\":7168:7414   */\n      pop\n      pop\n      pop\n      jump\t// out\n        /* \"#utility.yul\":7420:7810   */\n    tag_68:\n        /* \"#utility.yul\":7526:7529   */\n      0x00\n        /* \"#utility.yul\":7554:7593   */\n      tag_174\n        /* \"#utility.yul\":7587:7592   */\n      dup3\n        /* \"#utility.yul\":7554:7593   */\n      tag_65\n      jump\t// in\n    tag_174:\n        /* \"#utility.yul\":7609:7698   */\n      tag_175\n        /* \"#utility.yul\":7691:7697   */\n      dup2\n        /* \"#utility.yul\":7686:7689   */\n      dup6\n        /* \"#utility.yul\":7609:7698   */\n      tag_66\n      jump\t// in\n    tag_175:\n        /* \"#utility.yul\":7602:7698   */\n      swap4\n      pop\n        /* \"#utility.yul\":7707:7772   */\n      tag_176\n        /* \"#utility.yul\":7765:7771   */\n      dup2\n        /* \"#utility.yul\":7760:7763   */\n      dup6\n        /* \"#utility.yul\":7753:7757   */\n      0x20\n        /* \"#utility.yul\":7746:7751   */\n      dup7\n        /* \"#utility.yul\":7742:7758   */\n      add\n        /* \"#utility.yul\":7707:7772   */\n      tag_67\n      jump\t// in\n    tag_176:\n        /* \"#utility.yul\":7797:7803   */\n      dup1\n        /* \"#utility.yul\":7792:7795   */\n      dup5\n        /* \"#utility.yul\":7788:7804   */\n      add\n        /* \"#utility.yul\":7781:7804   */\n      swap2\n      pop\n        /* \"#utility.yul\":7530:7810   */\n      pop\n        /* \"#utility.yul\":7420:7810   */\n      swap3\n      swap2\n      pop\n      pop\n      jump\t// out\n        /* \"#utility.yul\":7816:8091   */\n    tag_33:\n        /* \"#utility.yul\":7948:7951   */\n      0x00\n        /* \"#utility.yul\":7970:8065   */\n      tag_178\n        /* \"#utility.yul\":8061:8064   */\n      dup3\n        /* \"#utility.yul\":8052:8058   */\n      dup5\n        /* \"#utility.yul\":7970:8065   */\n      tag_68\n      jump\t// in\n    tag_178:\n        /* \"#utility.yul\":7963:8065   */\n      swap2\n      pop\n        /* \"#utility.yul\":8082:8085   */\n      dup2\n        /* \"#utility.yul\":8075:8085   */\n      swap1\n      pop\n        /* \"#utility.yul\":7816:8091   */\n      swap3\n      swap2\n      pop\n      pop\n      jump\t// out\n        /* \"#utility.yul\":8097:8277   */\n    tag_69:\n        /* \"#utility.yul\":8145:8222   */\n      0x4e487b7100000000000000000000000000000000000000000000000000000000\n        /* \"#utility.yul\":8142:8143   */\n      0x00\n        /* \"#utility.yul\":8135:8223   */\n      mstore\n        /* \"#utility.yul\":8242:8246   */\n      0x22\n        /* \"#utility.yul\":8239:8240   */\n      0x04\n        /* \"#utility.yul\":8232:8247   */\n      mstore\n        /* \"#utility.yul\":8266:8270   */\n      0x24\n        /* \"#utility.yul\":8263:8264   */\n      0x00\n        /* \"#utility.yul\":8256:8271   */\n      revert\n        /* \"#utility.yul\":8283:8603   */\n    tag_70:\n        /* \"#utility.yul\":8327:8333   */\n      0x00\n        /* \"#utility.yul\":8364:8365   */\n      0x02\n        /* \"#utility.yul\":8358:8362   */\n      dup3\n        /* \"#utility.yul\":8354:8366   */\n      div\n        /* \"#utility.yul\":8344:8366   */\n      swap1\n      pop\n        /* \"#utility.yul\":8411:8412   */\n      0x01\n        /* \"#utility.yul\":8405:8409   */\n      dup3\n        /* \"#utility.yul\":8401:8413   */\n      and\n        /* \"#utility.yul\":8432:8450   */\n      dup1\n        /* \"#utility.yul\":8422:8503   */\n      tag_181\n      jumpi\n        /* \"#utility.yul\":8488:8492   */\n      0x7f\n        /* \"#utility.yul\":8480:8486   */\n      dup3\n        /* \"#utility.yul\":8476:8493   */\n      and\n        /* \"#utility.yul\":8466:8493   */\n      swap2\n      pop\n        /* \"#utility.yul\":8422:8503   */\n    tag_181:\n        /* \"#utility.yul\":8550:8552   */\n      0x20\n        /* \"#utility.yul\":8542:8548   */\n      dup3\n        /* \"#utility.yul\":8539:8553   */\n      lt\n        /* \"#utility.yul\":8519:8537   */\n      dup2\n        /* \"#utility.yul\":8516:8554   */\n      sub\n        /* \"#utility.yul\":8513:8597   */\n      tag_182\n      jumpi\n        /* \"#utility.yul\":8569:8587   */\n      tag_183\n      tag_69\n      jump\t// in\n    tag_183:\n        /* \"#utility.yul\":8513:8597   */\n    tag_182:\n        /* \"#utility.yul\":8334:8603   */\n      pop\n        /* \"#utility.yul\":8283:8603   */\n      swap2\n      swap1\n      pop\n      jump\t// out\n        /* \"#utility.yul\":8609:8750   */\n    tag_71:\n        /* \"#utility.yul\":8658:8662   */\n      0x00\n        /* \"#utility.yul\":8681:8684   */\n      dup2\n        /* \"#utility.yul\":8673:8684   */\n      swap1\n      pop\n        /* \"#utility.yul\":8704:8707   */\n      dup2\n        /* \"#utility.yul\":8701:8702   */\n      0x00\n        /* \"#utility.yul\":8694:8708   */\n      mstore\n        /* \"#utility.yul\":8738:8742   */\n      0x20\n        /* \"#utility.yul\":8735:8736   */\n      0x00\n        /* \"#utility.yul\":8725:8743   */\n      keccak256\n        /* \"#utility.yul\":8717:8743   */\n      swap1\n      pop\n        /* \"#utility.yul\":8609:8750   */\n      swap2\n      swap1\n      pop\n      jump\t// out\n        /* \"#utility.yul\":8756:8849   */\n    tag_72:\n        /* \"#utility.yul\":8793:8799   */\n      0x00\n        /* \"#utility.yul\":8840:8842   */\n      0x20\n        /* \"#utility.yul\":8835:8837   */\n      0x1f\n        /* \"#utility.yul\":8828:8833   */\n      dup4\n        /* \"#utility.yul\":8824:8838   */\n      add\n        /* \"#utility.yul\":8820:8843   */\n      div\n        /* \"#utility.yul\":8810:8843   */\n      swap1\n      pop\n        /* \"#utility.yul\":8756:8849   */\n      swap2\n      swap1\n      pop\n      jump\t// out\n        /* \"#utility.yul\":8855:8962   */\n    tag_73:\n        /* \"#utility.yul\":8899:8907   */\n      0x00\n        /* \"#utility.yul\":8949:8954   */\n      dup3\n        /* \"#utility.yul\":8943:8947   */\n      dup3\n        /* \"#utility.yul\":8939:8955   */\n      shl\n        /* \"#utility.yul\":8918:8955   */\n      swap1\n      pop\n        /* \"#utility.yul\":8855:8962   */\n      swap3\n      swap2\n      pop\n      pop\n      jump\t// out\n        /* \"#utility.yul\":8968:9361   */\n    tag_74:\n        /* \"#utility.yul\":9037:9043   */\n      0x00\n        /* \"#utility.yul\":9087:9088   */\n      0x08\n        /* \"#utility.yul\":9075:9085   */\n      dup4\n        /* \"#utility.yul\":9071:9089   */\n      mul\n        /* \"#utility.yul\":9110:9207   */\n      tag_188\n        /* \"#utility.yul\":9140:9206   */\n      0xffffffffffffffffffffffffffffffffffffffffffffffffffffffffffffffff\n        /* \"#utility.yul\":9129:9138   */\n      dup3\n        /* \"#utility.yul\":9110:9207   */\n      tag_73\n      jump\t// in\n    tag_188:\n        /* \"#utility.yul\":9228:9267   */\n      tag_189\n        /* \"#utility.yul\":9258:9266   */\n      dup7\n        /* \"#utility.yul\":9247:9256   */\n      dup4\n        /* \"#utility.yul\":9228:9267   */\n      tag_73\n      jump\t// in\n    tag_189:\n        /* \"#utility.yul\":9216:9267   */\n      swap6\n      pop\n        /* \"#utility.yul\":9300:9304   */\n      dup1\n        /* \"#utility.yul\":9296:9305   */\n      not\n        /* \"#utility.yul\":9289:9294   */\n      dup5\n        /* \"#utility.yul\":9285:9306   */\n      and\n        /* \"#utility.yul\":9276:9306   */\n      swap4\n      pop\n        /* \"#utility.yul\":9349:9353   */\n      dup1\n        /* \"#utility.yul\":9339:9347   */\n      dup7\n        /* \"#utility.yul\":9335:9354   */\n      and\n        /* \"#utility.yul\":9328:9333   */\n      dup5\n        /* \"#utility.yul\":9325:9355   */\n      or\n        /* \"#utility.yul\":9315:9355   */\n      swap3\n      pop\n        /* \"#utility.yul\":9044:9361   */\n      pop\n      pop\n        /* \"#utility.yul\":8968:9361   */\n      swap4\n      swap3\n      pop\n      pop\n      pop\n      jump\t// out\n        /* \"#utility.yul\":9367:9427   */\n    tag_75:\n        /* \"#utility.yul\":9395:9398   */\n      0x00\n        /* \"#utility.yul\":9416:9421   */\n      dup2\n        /* \"#utility.yul\":9409:9421   */\n      swap1\n      pop\n        /* \"#utility.yul\":9367:9427   */\n      swap2\n      swap1\n      pop\n      jump\t// out\n        /* \"#utility.yul\":9433:9575   */\n    tag_76:\n        /* \"#utility.yul\":9483:9492   */\n      0x00\n        /* \"#utility.yul\":9516:9569   */\n      tag_192\n        /* \"#utility.yul\":9534:9568   */\n      tag_193\n        /* \"#utility.yul\":9543:9567   */\n      tag_194\n        /* \"#utility.yul\":9561:9566   */\n      dup5\n        /* \"#utility.yul\":9543:9567   */\n      tag_57\n      jump\t// in\n    tag_194:\n        /* \"#utility.yul\":9534:9568   */\n      tag_75\n      jump\t// in\n    tag_193:\n        /* \"#utility.yul\":9516:9569   */\n      tag_57\n      jump\t// in\n    tag_192:\n        /* \"#utility.yul\":9503:9569   */\n      swap1\n      pop\n        /* \"#utility.yul\":9433:9575   */\n      swap2\n      swap1\n      pop\n      jump\t// out\n        /* \"#utility.yul\":9581:9656   */\n    tag_77:\n        /* \"#utility.yul\":9624:9627   */\n      0x00\n        /* \"#utility.yul\":9645:9650   */\n      dup2\n        /* \"#utility.yul\":9638:9650   */\n      swap1\n      pop\n        /* \"#utility.yul\":9581:9656   */\n      swap2\n      swap1\n      pop\n      jump\t// out\n        /* \"#utility.yul\":9662:9931   */\n    tag_78:\n        /* \"#utility.yul\":9772:9811   */\n      tag_197\n        /* \"#utility.yul\":9803:9810   */\n      dup4\n        /* \"#utility.yul\":9772:9811   */\n      tag_76\n      jump\t// in\n    tag_197:\n        /* \"#utility.yul\":9833:9924   */\n      tag_198\n        /* \"#utility.yul\":9882:9923   */\n      tag_199\n        /* \"#utility.yul\":9906:9922   */\n      dup3\n        /* \"#utility.yul\":9882:9923   */\n      tag_77\n      jump\t// in\n    tag_199:\n        /* \"#utility.yul\":9874:9880   */\n      dup5\n        /* \"#utility.yul\":9867:9871   */\n      dup5\n        /* \"#utility.yul\":9861:9872   */\n      sload\n        /* \"#utility.yul\":9833:9924   */\n      tag_74\n      jump\t// in\n    tag_198:\n        /* \"#utility.yul\":9827:9831   */\n      dup3\n        /* \"#utility.yul\":9820:9925   */\n      sstore\n        /* \"#utility.yul\":9738:9931   */\n      pop\n        /* \"#utility.yul\":9662:9931   */\n      pop\n      pop\n      pop\n      jump\t// out\n        /* \"#utility.yul\":9937:10010   */\n    tag_79:\n        /* \"#utility.yul\":9982:9985   */\n      0x00\n        /* \"#utility.yul\":9937:10010   */\n      swap1\n      jump\t// out\n        /* \"#utility.yul\":10016:10205   */\n    tag_80:\n        /* \"#utility.yul\":10093:10125   */\n      tag_202\n      tag_79\n      jump\t// in\n    tag_202:\n        /* \"#utility.yul\":10134:10199   */\n      tag_203\n        /* \"#utility.yul\":10192:10198   */\n      dup2\n        /* \"#utility.yul\":10184:10190   */\n      dup5\n        /* \"#utility.yul\":10178:10182   */\n      dup5\n        /* \"#utility.yul\":10134:10199   */\n      tag_78\n      jump\t// in\n    tag_203:\n        /* \"#utility.yul\":10069:10205   */\n      pop\n        /* \"#utility.yul\":10016:10205   */\n      pop\n      pop\n      jump\t// out\n        /* \"#utility.yul\":10211:10397   */\n    tag_81:\n        /* \"#utility.yul\":10271:10391   */\n    tag_205:\n        /* \"#utility.yul\":10288:10291   */\n      dup2\n        /* \"#utility.yul\":10281:10286   */\n      dup2\n        /* \"#utility.yul\":10278:10292   */\n      lt\n        /* \"#utility.yul\":10271:10391   */\n      iszero\n      tag_207\n      jumpi\n        /* \"#utility.yul\":10342:10381   */\n      tag_208\n        /* \"#utility.yul\":10379:10380   */\n      0x00\n        /* \"#utility.yul\":10372:10377   */\n      dup3\n        /* \"#utility.yul\":10342:10381   */\n      tag_80\n      jump\t// in\n    tag_208:\n        /* \"#utility.yul\":10315:10316   */\n      0x01\n        /* \"#utility.yul\":10308:10313   */\n      dup2\n        /* \"#utility.yul\":10304:10317   */\n      add\n        /* \"#utility.yul\":10295:10317   */\n      swap1\n      pop\n        /* \"#utility.yul\":10271:10391   */\n      jump(tag_205)\n    tag_207:\n        /* \"#utility.yul\":10211:10397   */\n      pop\n      pop\n      jump\t// out\n        /* \"#utility.yul\":10403:10946   */\n    tag_82:\n        /* \"#utility.yul\":10504:10506   */\n      0x1f\n        /* \"#utility.yul\":10499:10502   */\n      dup3\n        /* \"#utility.yul\":10496:10507   */\n      gt\n        /* \"#utility.yul\":10493:10939   */\n      iszero\n      tag_210\n      jumpi\n        /* \"#utility.yul\":10538:10576   */\n      tag_211\n        /* \"#utility.yul\":10570:10575   */\n      dup2\n        /* \"#utility.yul\":10538:10576   */\n      tag_71\n      jump\t// in\n    tag_211:\n        /* \"#utility.yul\":10622:10651   */\n      tag_212\n        /* \"#utility.yul\":10640:10650   */\n      dup5\n        /* \"#utility.yul\":10622:10651   */\n      tag_72\n      jump\t// in\n    tag_212:\n        /* \"#utility.yul\":10612:10620   */\n      dup2\n        /* \"#utility.yul\":10608:10652   */\n      add\n        /* \"#utility.yul\":10805:10807   */\n      0x20\n        /* \"#utility.yul\":10793:10803   */\n      dup6\n        /* \"#utility.yul\":10790:10808   */\n      lt\n        /* \"#utility.yul\":10787:10836   */\n      iszero\n      tag_213\n      jumpi\n        /* \"#utility.yul\":10826:10834   */\n      dup2\n        /* \"#utility.yul\":10811:10834   */\n      swap1\n      pop\n        /* \"#utility.yul\":10787:10836   */\n    tag_213:\n        /* \"#utility.yul\":10849:10929   */\n      tag_214\n        /* \"#utility.yul\":10905:10927   */\n      tag_215\n        /* \"#utility.yul\":10923:10926   */\n      dup6\n        /* \"#utility.yul\":10905:10927   */\n      tag_72\n      jump\t// in\n    tag_215:\n        /* \"#utility.yul\":10895:10903   */\n      dup4\n        /* \"#utility.yul\":10891:10928   */\n      add\n        /* \"#utility.yul\":10878:10889   */\n      dup3\n        /* \"#utility.yul\":10849:10929   */\n      tag_81\n      jump\t// in\n    tag_214:\n        /* \"#utility.yul\":10508:10939   */\n      pop\n      pop\n        /* \"#utility.yul\":10493:10939   */\n    tag_210:\n        /* \"#utility.yul\":10403:10946   */\n      pop\n      pop\n      pop\n      jump\t// out\n        /* \"#utility.yul\":10952:11069   */\n    tag_83:\n        /* \"#utility.yul\":11006:11014   */\n      0x00\n        /* \"#utility.yul\":11056:11061   */\n      dup3\n        /* \"#utility.yul\":11050:11054   */\n      dup3\n        /* \"#utility.yul\":11046:11062   */\n      shr\n        /* \"#utility.yul\":11025:11062   */\n      swap1\n      pop\n        /* \"#utility.yul\":10952:11069   */\n      swap3\n      swap2\n      pop\n      pop\n      jump\t// out\n        /* \"#utility.yul\":11075:11244   */\n    tag_84:\n        /* \"#utility.yul\":11119:11125   */\n      0x00\n        /* \"#utility.yul\":11152:11203   */\n      tag_218\n        /* \"#utility.yul\":11200:11201   */\n      0x00\n        /* \"#utility.yul\":11196:11202   */\n      not\n        /* \"#utility.yul\":11188:11193   */\n      dup5\n        /* \"#utility.yul\":11185:11186   */\n      0x08\n        /* \"#utility.yul\":11181:11194   */\n      mul\n        /* \"#utility.yul\":11152:11203   */\n      tag_83\n      jump\t// in\n    tag_218:\n        /* \"#utility.yul\":11148:11204   */\n      not\n        /* \"#utility.yul\":11233:11237   */\n      dup1\n        /* \"#utility.yul\":11227:11231   */\n      dup4\n        /* \"#utility.yul\":11223:11238   */\n      and\n        /* \"#utility.yul\":11213:11238   */\n      swap2\n      pop\n        /* \"#utility.yul\":11126:11244   */\n      pop\n        /* \"#utility.yul\":11075:11244   */\n      swap3\n      swap2\n      pop\n      pop\n      jump\t// out\n        /* \"#utility.yul\":11249:11544   */\n    tag_85:\n        /* \"#utility.yul\":11325:11329   */\n      0x00\n        /* \"#utility.yul\":11471:11500   */\n      tag_220\n        /* \"#utility.yul\":11496:11499   */\n      dup4\n        /* \"#utility.yul\":11490:11494   */\n      dup4\n        /* \"#utility.yul\":11471:11500   */\n      tag_84\n      jump\t// in\n    tag_220:\n        /* \"#utility.yul\":11463:11500   */\n      swap2\n      pop\n        /* \"#utility.yul\":11533:11536   */\n      dup3\n        /* \"#utility.yul\":11530:11531   */\n      0x02\n        /* \"#utility.yul\":11526:11537   */\n      mul\n        /* \"#utility.yul\":11520:11524   */\n      dup3\n        /* \"#utility.yul\":11517:11538   */\n      or\n        /* \"#utility.yul\":11509:11538   */\n      swap1\n      pop\n        /* \"#utility.yul\":11249:11544   */\n      swap3\n      swap2\n      pop\n      pop\n      jump\t// out\n        /* \"#utility.yul\":11549:12944   */\n    tag_35:\n        /* \"#utility.yul\":11666:11703   */\n      tag_222\n        /* \"#utility.yul\":11699:11702   */\n      dup3\n        /* \"#utility.yul\":11666:11703   */\n      tag_65\n      jump\t// in\n    tag_222:\n        /* \"#utility.yul\":11768:11786   */\n      0xffffffffffffffff\n        /* \"#utility.yul\":11760:11766   */\n      dup2\n        /* \"#utility.yul\":11757:11787   */\n      gt\n        /* \"#utility.yul\":11754:11810   */\n      iszero\n      tag_223\n      jumpi\n        /* \"#utility.yul\":11790:11808   */\n      tag_224\n      tag_50\n      jump\t// in\n    tag_224:\n        /* \"#utility.yul\":11754:11810   */\n    tag_223:\n        /* \"#utility.yul\":11834:11872   */\n      tag_225\n        /* \"#utility.yul\":11866:11870   */\n      dup3\n        /* \"#utility.yul\":11860:11871   */\n      sload\n        /* \"#utility.yul\":11834:11872   */\n      tag_70\n      jump\t// in\n    tag_225:\n        /* \"#utility.yul\":11919:11986   */\n      tag_226\n        /* \"#utility.yul\":11979:11985   */\n      dup3\n        /* \"#utility.yul\":11971:11977   */\n      dup3\n        /* \"#utility.yul\":11965:11969   */\n      dup6\n        /* \"#utility.yul\":11919:11986   */\n      tag_82\n      jump\t// in\n    tag_226:\n        /* \"#utility.yul\":12013:12014   */\n      0x00\n        /* \"#utility.yul\":12037:12041   */\n      0x20\n        /* \"#utility.yul\":12024:12041   */\n      swap1\n      pop\n        /* \"#utility.yul\":12069:12071   */\n      0x1f\n        /* \"#utility.yul\":12061:12067   */\n      dup4\n        /* \"#utility.yul\":12058:12072   */\n      gt\n        /* \"#utility.yul\":12086:12087   */\n      0x01\n        /* \"#utility.yul\":12081:12699   */\n      dup2\n      eq\n      tag_228\n      jumpi\n        /* \"#utility.yul\":12743:12744   */\n      0x00\n        /* \"#utility.yul\":12760:12766   */\n      dup5\n        /* \"#utility.yul\":12757:12834   */\n      iszero\n      tag_229\n      jumpi\n        /* \"#utility.yul\":12809:12818   */\n      dup3\n        /* \"#utility.yul\":12804:12807   */\n      dup8\n        /* \"#utility.yul\":12800:12819   */\n      add\n        /* \"#utility.yul\":12794:12820   */\n      mload\n        /* \"#utility.yul\":12785:12820   */\n      swap1\n      pop\n        /* \"#utility.yul\":12757:12834   */\n    tag_229:\n        /* \"#utility.yul\":12860:12927   */\n      tag_230\n        /* \"#utility.yul\":12920:12926   */\n      dup6\n        /* \"#utility.yul\":12913:12918   */\n      dup3\n        /* \"#utility.yul\":12860:12927   */\n      tag_85\n      jump\t// in\n    tag_230:\n        /* \"#utility.yul\":12854:12858   */\n      dup7\n        /* \"#utility.yul\":12847:12928   */\n      sstore\n        /* \"#utility.yul\":12716:12938   */\n      pop\n        /* \"#utility.yul\":12051:12938   */\n      jump(tag_227)\n        /* \"#utility.yul\":12081:12699   */\n    tag_228:\n        /* \"#utility.yul\":12133:12137   */\n      0x1f\n        /* \"#utility.yul\":12129:12138   */\n      not\n        /* \"#utility.yul\":12121:12127   */\n      dup5\n        /* \"#utility.yul\":12117:12139   */\n      and\n        /* \"#utility.yul\":12167:12204   */\n      tag_231\n        /* \"#utility.yul\":12199:12203   */\n      dup7\n        /* \"#utility.yul\":12167:12204   */\n      tag_71\n      jump\t// in\n    tag_231:\n        /* \"#utility.yul\":12226:12227   */\n      0x00\n        /* \"#utility.yul\":12240:12448   */\n    tag_232:\n        /* \"#utility.yul\":12254:12261   */\n      dup3\n        /* \"#utility.yul\":12251:12252   */\n      dup2\n        /* \"#utility.yul\":12248:12262   */\n      lt\n        /* \"#utility.yul\":12240:12448   */\n      iszero\n      tag_234\n      jumpi\n        /* \"#utility.yul\":12333:12342   */\n      dup5\n        /* \"#utility.yul\":12328:12331   */\n      dup10\n        /* \"#utility.yul\":12324:12343   */\n      add\n        /* \"#utility.yul\":12318:12344   */\n      mload\n        /* \"#utility.yul\":12310:12316   */\n      dup3\n        /* \"#utility.yul\":12303:12345   */\n      sstore\n        /* \"#utility.yul\":12384:12385   */\n      0x01\n        /* \"#utility.yul\":12376:12382   */\n      dup3\n        /* \"#utility.yul\":12372:12386   */\n      add\n        /* \"#utility.yul\":12362:12386   */\n      swap2\n      pop\n        /* \"#utility.yul\":12431:12433   */\n      0x20\n        /* \"#utility.yul\":12420:12429   */\n      dup6\n        /* \"#utility.yul\":12416:12434   */\n      add\n        /* \"#utility.yul\":12403:12434   */\n      swap5\n      pop\n        /* \"#utility.yul\":12277:12281   */\n      0x20\n        /* \"#utility.yul\":12274:12275   */\n      dup2\n        /* \"#utility.yul\":12270:12282   */\n      add\n        /* \"#utility.yul\":12265:12282   */\n      swap1\n      pop\n        /* \"#utility.yul\":12240:12448   */\n      jump(tag_232)\n    tag_234:\n        /* \"#utility.yul\":12476:12482   */\n      dup7\n        /* \"#utility.yul\":12467:12474   */\n      dup4\n        /* \"#utility.yul\":12464:12483   */\n      lt\n        /* \"#utility.yul\":12461:12640   */\n      iszero\n      tag_235\n      jumpi\n        /* \"#utility.yul\":12534:12543   */\n      dup5\n        /* \"#utility.yul\":12529:12532   */\n      dup10\n        /* \"#utility.yul\":12525:12544   */\n      add\n        /* \"#utility.yul\":12519:12545   */\n      mload\n        /* \"#utility.yul\":12577:12625   */\n      tag_236\n        /* \"#utility.yul\":12619:12623   */\n      0x1f\n        /* \"#utility.yul\":12611:12617   */\n      dup10\n        /* \"#utility.yul\":12607:12624   */\n      and\n        /* \"#utility.yul\":12596:12605   */\n      dup3\n        /* \"#utility.yul\":12577:12625   */\n      tag_84\n      jump\t// in\n    tag_236:\n        /* \"#utility.yul\":12569:12575   */\n      dup4\n        /* \"#utility.yul\":12562:12626   */\n      sstore\n        /* \"#utility.yul\":12484:12640   */\n      pop\n        /* \"#utility.yul\":12461:12640   */\n    tag_235:\n        /* \"#utility.yul\":12686:12687   */\n      0x01\n        /* \"#utility.yul\":12682:12683   */\n      0x02\n        /* \"#utility.yul\":12674:12680   */\n      dup9\n        /* \"#utility.yul\":12670:12684   */\n      mul\n        /* \"#utility.yul\":12666:12688   */\n      add\n        /* \"#utility.yul\":12660:12664   */\n      dup9\n        /* \"#utility.yul\":12653:12689   */\n      sstore\n        /* \"#utility.yul\":12088:12699   */\n      pop\n      pop\n      pop\n        /* \"#utility.yul\":12051:12938   */\n    tag_227:\n      pop\n        /* \"#utility.yul\":11641:12944   */\n      pop\n      pop\n      pop\n        /* \"#utility.yul\":11549:12944   */\n      pop\n      pop\n      jump\t// out\n\n    auxdata: 0xa264697066735822122022eaf31b88e65f99d44921561d903661e1f809de11a492a37ece0a8924fb463b64736f6c63430008160033\n}\n",
				"bytecode": {
					"linkReferences": {},
					"object": "608060405234801561000f575f80fd5b5061094c8061001d5f395ff3fe608060405234801561000f575f80fd5b5060043610610055575f3560e01c8063107af71c1461005957806325b574aa14610075578063d83880f014610091578063dfeb76f6146100c1578063e8d6221f146100dd575b5f80fd5b610073600480360381019061006e91906103af565b61010d565b005b61008f600480360381019061008a919061044b565b610177565b005b6100ab60048036038101906100a691906104a5565b61019d565b6040516100b891906104fb565b60405180910390f35b6100db60048036038101906100d69190610549565b6101c3565b005b6100f760048036038101906100f291906104a5565b6101fc565b60405161010491906105b2565b60405180910390f35b6040518060600160405280848152602001838152602001828152506002856040516101389190610637565b90815260200160405180910390205f820151815f015560208201518160010155604082015181600201908161016d9190610847565b5090505050505050565b805f836040516101879190610637565b9081526020016040518091039020819055505050565b5f80826040516101ad9190610637565b9081526020016040518091039020549050919050565b806001836040516101d49190610637565b90815260200160405180910390205f6101000a81548160ff0219169083151502179055505050565b5f60018260405161020d9190610637565b90815260200160405180910390205f9054906101000a900460ff169050919050565b5f604051905090565b5f80fd5b5f80fd5b5f80fd5b5f80fd5b5f601f19601f8301169050919050565b7f4e487b71000000000000000000000000000000000000000000000000000000005f52604160045260245ffd5b61028e82610248565b810181811067ffffffffffffffff821117156102ad576102ac610258565b5b80604052505050565b5f6102bf61022f565b90506102cb8282610285565b919050565b5f67ffffffffffffffff8211156102ea576102e9610258565b5b6102f382610248565b9050602081019050919050565b828183375f83830152505050565b5f61032061031b846102d0565b6102b6565b90508281526020810184848401111561033c5761033b610244565b5b610347848285610300565b509392505050565b5f82601f83011261036357610362610240565b5b813561037384826020860161030e565b91505092915050565b5f819050919050565b61038e8161037c565b8114610398575f80fd5b50565b5f813590506103a981610385565b92915050565b5f805f80608085870312156103c7576103c6610238565b5b5f85013567ffffffffffffffff8111156103e4576103e361023c565b5b6103f08782880161034f565b94505060206104018782880161039b565b93505060406104128782880161039b565b925050606085013567ffffffffffffffff8111156104335761043261023c565b5b61043f8782880161034f565b91505092959194509250565b5f806040838503121561046157610460610238565b5b5f83013567ffffffffffffffff81111561047e5761047d61023c565b5b61048a8582860161034f565b925050602061049b8582860161039b565b9150509250929050565b5f602082840312156104ba576104b9610238565b5b5f82013567ffffffffffffffff8111156104d7576104d661023c565b5b6104e38482850161034f565b91505092915050565b6104f58161037c565b82525050565b5f60208201905061050e5f8301846104ec565b92915050565b5f8115159050919050565b61052881610514565b8114610532575f80fd5b50565b5f813590506105438161051f565b92915050565b5f806040838503121561055f5761055e610238565b5b5f83013567ffffffffffffffff81111561057c5761057b61023c565b5b6105888582860161034f565b925050602061059985828601610535565b9150509250929050565b6105ac81610514565b82525050565b5f6020820190506105c55f8301846105a3565b92915050565b5f81519050919050565b5f81905092915050565b5f5b838110156105fc5780820151818401526020810190506105e1565b5f8484015250505050565b5f610611826105cb565b61061b81856105d5565b935061062b8185602086016105df565b80840191505092915050565b5f6106428284610607565b915081905092915050565b7f4e487b71000000000000000000000000000000000000000000000000000000005f52602260045260245ffd5b5f600282049050600182168061069157607f821691505b6020821081036106a4576106a361064d565b5b50919050565b5f819050815f5260205f209050919050565b5f6020601f8301049050919050565b5f82821b905092915050565b5f600883026107067fffffffffffffffffffffffffffffffffffffffffffffffffffffffffffffffff826106cb565b61071086836106cb565b95508019841693508086168417925050509392505050565b5f819050919050565b5f61074b6107466107418461037c565b610728565b61037c565b9050919050565b5f819050919050565b61076483610731565b61077861077082610752565b8484546106d7565b825550505050565b5f90565b61078c610780565b61079781848461075b565b505050565b5b818110156107ba576107af5f82610784565b60018101905061079d565b5050565b601f8211156107ff576107d0816106aa565b6107d9846106bc565b810160208510156107e8578190505b6107fc6107f4856106bc565b83018261079c565b50505b505050565b5f82821c905092915050565b5f61081f5f1984600802610804565b1980831691505092915050565b5f6108378383610810565b9150826002028217905092915050565b610850826105cb565b67ffffffffffffffff81111561086957610868610258565b5b610873825461067a565b61087e8282856107be565b5f60209050601f8311600181146108af575f841561089d578287015190505b6108a7858261082c565b86555061090e565b601f1984166108bd866106aa565b5f5b828110156108e4578489015182556001820191506020850194506020810190506108bf565b8683101561090157848901516108fd601f891682610810565b8355505b6001600288020188555050505b50505050505056fea264697066735822122022eaf31b88e65f99d44921561d903661e1f809de11a492a37ece0a8924fb463b64736f6c63430008160033",
					"opcodes": "PUSH1 0x80 PUSH1 0x40 MSTORE CALLVALUE DUP1 ISZERO PUSH2 0xF JUMPI PUSH0 DUP1 REVERT JUMPDEST POP PUSH2 0x94C DUP1 PUSH2 0x1D PUSH0 CODECOPY PUSH0 RETURN INVALID PUSH1 0x80 PUSH1 0x40 MSTORE CALLVALUE DUP1 ISZERO PUSH2 0xF JUMPI PUSH0 DUP1 REVERT JUMPDEST POP PUSH1 0x4 CALLDATASIZE LT PUSH2 0x55 JUMPI PUSH0 CALLDATALOAD PUSH1 0xE0 SHR DUP1 PUSH4 0x107AF71C EQ PUSH2 0x59 JUMPI DUP1 PUSH4 0x25B574AA EQ PUSH2 0x75 JUMPI DUP1 PUSH4 0xD83880F0 EQ PUSH2 0x91 JUMPI DUP1 PUSH4 0xDFEB76F6 EQ PUSH2 0xC1 JUMPI DUP1 PUSH4 0xE8D6221F EQ PUSH2 0xDD JUMPI JUMPDEST PUSH0 DUP1 REVERT JUMPDEST PUSH2 0x73 PUSH1 0x4 DUP1 CALLDATASIZE SUB DUP2 ADD SWAP1 PUSH2 0x6E SWAP2 SWAP1 PUSH2 0x3AF JUMP JUMPDEST PUSH2 0x10D JUMP JUMPDEST STOP JUMPDEST PUSH2 0x8F PUSH1 0x4 DUP1 CALLDATASIZE SUB DUP2 ADD SWAP1 PUSH2 0x8A SWAP2 SWAP1 PUSH2 0x44B JUMP JUMPDEST PUSH2 0x177 JUMP JUMPDEST STOP JUMPDEST PUSH2 0xAB PUSH1 0x4 DUP1 CALLDATASIZE SUB DUP2 ADD SWAP1 PUSH2 0xA6 SWAP2 SWAP1 PUSH2 0x4A5 JUMP JUMPDEST PUSH2 0x19D JUMP JUMPDEST PUSH1 0x40 MLOAD PUSH2 0xB8 SWAP2 SWAP1 PUSH2 0x4FB JUMP JUMPDEST PUSH1 0x40 MLOAD DUP1 SWAP2 SUB SWAP1 RETURN JUMPDEST PUSH2 0xDB PUSH1 0x4 DUP1 CALLDATASIZE SUB DUP2 ADD SWAP1 PUSH2 0xD6 SWAP2 SWAP1 PUSH2 0x549 JUMP JUMPDEST PUSH2 0x1C3 JUMP JUMPDEST STOP JUMPDEST PUSH2 0xF7 PUSH1 0x4 DUP1 CALLDATASIZE SUB DUP2 ADD SWAP1 PUSH2 0xF2 SWAP2 SWAP1 PUSH2 0x4A5 JUMP JUMPDEST PUSH2 0x1FC JUMP JUMPDEST PUSH1 0x40 MLOAD PUSH2 0x104 SWAP2 SWAP1 PUSH2 0x5B2 JUMP JUMPDEST PUSH1 0x40 MLOAD DUP1 SWAP2 SUB SWAP1 RETURN JUMPDEST PUSH1 0x40 MLOAD DUP1 PUSH1 0x60 ADD PUSH1 0x40 MSTORE DUP1 DUP5 DUP2 MSTORE PUSH1 0x20 ADD DUP4 DUP2 MSTORE PUSH1 0x20 ADD DUP3 DUP2 MSTORE POP PUSH1 0x2 DUP6 PUSH1 0x40 MLOAD PUSH2 0x138 SWAP2 SWAP1 PUSH2 0x637 JUMP JUMPDEST SWAP1 DUP2 MSTORE PUSH1 0x20 ADD PUSH1 0x40 MLOAD DUP1 SWAP2 SUB SWAP1 KECCAK256 PUSH0 DUP3 ADD MLOAD DUP2 PUSH0 ADD SSTORE PUSH1 0x20 DUP3 ADD MLOAD DUP2 PUSH1 0x1 ADD SSTORE PUSH1 0x40 DUP3 ADD MLOAD DUP2 PUSH1 0x2 ADD SWAP1 DUP2 PUSH2 0x16D SWAP2 SWAP1 PUSH2 0x847 JUMP JUMPDEST POP SWAP1 POP POP POP POP POP POP JUMP JUMPDEST DUP1 PUSH0 DUP4 PUSH1 0x40 MLOAD PUSH2 0x187 SWAP2 SWAP1 PUSH2 0x637 JUMP JUMPDEST SWAP1 DUP2 MSTORE PUSH1 0x20 ADD PUSH1 0x40 MLOAD DUP1 SWAP2 SUB SWAP1 KECCAK256 DUP2 SWAP1 SSTORE POP POP POP JUMP JUMPDEST PUSH0 DUP1 DUP3 PUSH1 0x40 MLOAD PUSH2 0x1AD SWAP2 SWAP1 PUSH2 0x637 JUMP JUMPDEST SWAP1 DUP2 MSTORE PUSH1 0x20 ADD PUSH1 0x40 MLOAD DUP1 SWAP2 SUB SWAP1 KECCAK256 SLOAD SWAP1 POP SWAP2 SWAP1 POP JUMP JUMPDEST DUP1 PUSH1 0x1 DUP4 PUSH1 0x40 MLOAD PUSH2 0x1D4 SWAP2 SWAP1 PUSH2 0x637 JUMP JUMPDEST SWAP1 DUP2 MSTORE PUSH1 0x20 ADD PUSH1 0x40 MLOAD DUP1 SWAP2 SUB SWAP1 KECCAK256 PUSH0 PUSH2 0x100 EXP DUP2 SLOAD DUP2 PUSH1 0xFF MUL NOT AND SWAP1 DUP4 ISZERO ISZERO MUL OR SWAP1 SSTORE POP POP POP JUMP JUMPDEST PUSH0 PUSH1 0x1 DUP3 PUSH1 0x40 MLOAD PUSH2 0x20D SWAP2 SWAP1 PUSH2 0x637 JUMP JUMPDEST SWAP1 DUP2 MSTORE PUSH1 0x20 ADD PUSH1 0x40 MLOAD DUP1 SWAP2 SUB SWAP1 KECCAK256 PUSH0 SWAP1 SLOAD SWAP1 PUSH2 0x100 EXP SWAP1 DIV PUSH1 0xFF AND SWAP1 POP SWAP2 SWAP1 POP JUMP JUMPDEST PUSH0 PUSH1 0x40 MLOAD SWAP1 POP SWAP1 JUMP JUMPDEST PUSH0 DUP1 REVERT JUMPDEST PUSH0 DUP1 REVERT JUMPDEST PUSH0 DUP1 REVERT JUMPDEST PUSH0 DUP1 REVERT JUMPDEST PUSH0 PUSH1 0x1F NOT PUSH1 0x1F DUP4 ADD AND SWAP1 POP SWAP2 SWAP1 POP JUMP JUMPDEST PUSH32 0x4E487B7100000000000000000000000000000000000000000000000000000000 PUSH0 MSTORE PUSH1 0x41 PUSH1 0x4 MSTORE PUSH1 0x24 PUSH0 REVERT JUMPDEST PUSH2 0x28E DUP3 PUSH2 0x248 JUMP JUMPDEST DUP2 ADD DUP2 DUP2 LT PUSH8 0xFFFFFFFFFFFFFFFF DUP3 GT OR ISZERO PUSH2 0x2AD JUMPI PUSH2 0x2AC PUSH2 0x258 JUMP JUMPDEST JUMPDEST DUP1 PUSH1 0x40 MSTORE POP POP POP JUMP JUMPDEST PUSH0 PUSH2 0x2BF PUSH2 0x22F JUMP JUMPDEST SWAP1 POP PUSH2 0x2CB DUP3 DUP3 PUSH2 0x285 JUMP JUMPDEST SWAP2 SWAP1 POP JUMP JUMPDEST PUSH0 PUSH8 0xFFFFFFFFFFFFFFFF DUP3 GT ISZERO PUSH2 0x2EA JUMPI PUSH2 0x2E9 PUSH2 0x258 JUMP JUMPDEST JUMPDEST PUSH2 0x2F3 DUP3 PUSH2 0x248 JUMP JUMPDEST SWAP1 POP PUSH1 0x20 DUP2 ADD SWAP1 POP SWAP2 SWAP1 POP JUMP JUMPDEST DUP3 DUP2 DUP4 CALLDATACOPY PUSH0 DUP4 DUP4 ADD MSTORE POP POP POP JUMP JUMPDEST PUSH0 PUSH2 0x320 PUSH2 0x31B DUP5 PUSH2 0x2D0 JUMP JUMPDEST PUSH2 0x2B6 JUMP JUMPDEST SWAP1 POP DUP3 DUP2 MSTORE PUSH1 0x20 DUP2 ADD DUP5 DUP5 DUP5 ADD GT ISZERO PUSH2 0x33C JUMPI PUSH2 0x33B PUSH2 0x244 JUMP JUMPDEST JUMPDEST PUSH2 0x347 DUP5 DUP3 DUP6 PUSH2 0x300 JUMP JUMPDEST POP SWAP4 SWAP3 POP POP POP JUMP JUMPDEST PUSH0 DUP3 PUSH1 0x1F DUP4 ADD SLT PUSH2 0x363 JUMPI PUSH2 0x362 PUSH2 0x240 JUMP JUMPDEST JUMPDEST DUP2 CALLDATALOAD PUSH2 0x373 DUP5 DUP3 PUSH1 0x20 DUP7 ADD PUSH2 0x30E JUMP JUMPDEST SWAP2 POP POP SWAP3 SWAP2 POP POP JUMP JUMPDEST PUSH0 DUP2 SWAP1 POP SWAP2 SWAP1 POP JUMP JUMPDEST PUSH2 0x38E DUP2 PUSH2 0x37C JUMP JUMPDEST DUP2 EQ PUSH2 0x398 JUMPI PUSH0 DUP1 REVERT JUMPDEST POP JUMP JUMPDEST PUSH0 DUP2 CALLDATALOAD SWAP1 POP PUSH2 0x3A9 DUP2 PUSH2 0x385 JUMP JUMPDEST SWAP3 SWAP2 POP POP JUMP JUMPDEST PUSH0 DUP1 PUSH0 DUP1 PUSH1 0x80 DUP6 DUP8 SUB SLT ISZERO PUSH2 0x3C7 JUMPI PUSH2 0x3C6 PUSH2 0x238 JUMP JUMPDEST JUMPDEST PUSH0 DUP6 ADD CALLDATALOAD PUSH8 0xFFFFFFFFFFFFFFFF DUP2 GT ISZERO PUSH2 0x3E4 JUMPI PUSH2 0x3E3 PUSH2 0x23C JUMP JUMPDEST JUMPDEST PUSH2 0x3F0 DUP8 DUP3 DUP9 ADD PUSH2 0x34F JUMP JUMPDEST SWAP5 POP POP PUSH1 0x20 PUSH2 0x401 DUP8 DUP3 DUP9 ADD PUSH2 0x39B JUMP JUMPDEST SWAP4 POP POP PUSH1 0x40 PUSH2 0x412 DUP8 DUP3 DUP9 ADD PUSH2 0x39B JUMP JUMPDEST SWAP3 POP POP PUSH1 0x60 DUP6 ADD CALLDATALOAD PUSH8 0xFFFFFFFFFFFFFFFF DUP2 GT ISZERO PUSH2 0x433 JUMPI PUSH2 0x432 PUSH2 0x23C JUMP JUMPDEST JUMPDEST PUSH2 0x43F DUP8 DUP3 DUP9 ADD PUSH2 0x34F JUMP JUMPDEST SWAP2 POP POP SWAP3 SWAP6 SWAP2 SWAP5 POP SWAP3 POP JUMP JUMPDEST PUSH0 DUP1 PUSH1 0x40 DUP4 DUP6 SUB SLT ISZERO PUSH2 0x461 JUMPI PUSH2 0x460 PUSH2 0x238 JUMP JUMPDEST JUMPDEST PUSH0 DUP4 ADD CALLDATALOAD PUSH8 0xFFFFFFFFFFFFFFFF DUP2 GT ISZERO PUSH2 0x47E JUMPI PUSH2 0x47D PUSH2 0x23C JUMP JUMPDEST JUMPDEST PUSH2 0x48A DUP6 DUP3 DUP7 ADD PUSH2 0x34F JUMP JUMPDEST SWAP3 POP POP PUSH1 0x20 PUSH2 0x49B DUP6 DUP3 DUP7 ADD PUSH2 0x39B JUMP JUMPDEST SWAP2 POP POP SWAP3 POP SWAP3 SWAP1 POP JUMP JUMPDEST PUSH0 PUSH1 0x20 DUP3 DUP5 SUB SLT ISZERO PUSH2 0x4BA JUMPI PUSH2 0x4B9 PUSH2 0x238 JUMP JUMPDEST JUMPDEST PUSH0 DUP3 ADD CALLDATALOAD PUSH8 0xFFFFFFFFFFFFFFFF DUP2 GT ISZERO PUSH2 0x4D7 JUMPI PUSH2 0x4D6 PUSH2 0x23C JUMP JUMPDEST JUMPDEST PUSH2 0x4E3 DUP5 DUP3 DUP6 ADD PUSH2 0x34F JUMP JUMPDEST SWAP2 POP POP SWAP3 SWAP2 POP POP JUMP JUMPDEST PUSH2 0x4F5 DUP2 PUSH2 0x37C JUMP JUMPDEST DUP3 MSTORE POP POP JUMP JUMPDEST PUSH0 PUSH1 0x20 DUP3 ADD SWAP1 POP PUSH2 0x50E PUSH0 DUP4 ADD DUP5 PUSH2 0x4EC JUMP JUMPDEST SWAP3 SWAP2 POP POP JUMP JUMPDEST PUSH0 DUP2 ISZERO ISZERO SWAP1 POP SWAP2 SWAP1 POP JUMP JUMPDEST PUSH2 0x528 DUP2 PUSH2 0x514 JUMP JUMPDEST DUP2 EQ PUSH2 0x532 JUMPI PUSH0 DUP1 REVERT JUMPDEST POP JUMP JUMPDEST PUSH0 DUP2 CALLDATALOAD SWAP1 POP PUSH2 0x543 DUP2 PUSH2 0x51F JUMP JUMPDEST SWAP3 SWAP2 POP POP JUMP JUMPDEST PUSH0 DUP1 PUSH1 0x40 DUP4 DUP6 SUB SLT ISZERO PUSH2 0x55F JUMPI PUSH2 0x55E PUSH2 0x238 JUMP JUMPDEST JUMPDEST PUSH0 DUP4 ADD CALLDATALOAD PUSH8 0xFFFFFFFFFFFFFFFF DUP2 GT ISZERO PUSH2 0x57C JUMPI PUSH2 0x57B PUSH2 0x23C JUMP JUMPDEST JUMPDEST PUSH2 0x588 DUP6 DUP3 DUP7 ADD PUSH2 0x34F JUMP JUMPDEST SWAP3 POP POP PUSH1 0x20 PUSH2 0x599 DUP6 DUP3 DUP7 ADD PUSH2 0x535 JUMP JUMPDEST SWAP2 POP POP SWAP3 POP SWAP3 SWAP1 POP JUMP JUMPDEST PUSH2 0x5AC DUP2 PUSH2 0x514 JUMP JUMPDEST DUP3 MSTORE POP POP JUMP JUMPDEST PUSH0 PUSH1 0x20 DUP3 ADD SWAP1 POP PUSH2 0x5C5 PUSH0 DUP4 ADD DUP5 PUSH2 0x5A3 JUMP JUMPDEST SWAP3 SWAP2 POP POP JUMP JUMPDEST PUSH0 DUP2 MLOAD SWAP1 POP SWAP2 SWAP1 POP JUMP JUMPDEST PUSH0 DUP2 SWAP1 POP SWAP3 SWAP2 POP POP JUMP JUMPDEST PUSH0 JUMPDEST DUP4 DUP2 LT ISZERO PUSH2 0x5FC JUMPI DUP1 DUP3 ADD MLOAD DUP2 DUP5 ADD MSTORE PUSH1 0x20 DUP2 ADD SWAP1 POP PUSH2 0x5E1 JUMP JUMPDEST PUSH0 DUP5 DUP5 ADD MSTORE POP POP POP POP JUMP JUMPDEST PUSH0 PUSH2 0x611 DUP3 PUSH2 0x5CB JUMP JUMPDEST PUSH2 0x61B DUP2 DUP6 PUSH2 0x5D5 JUMP JUMPDEST SWAP4 POP PUSH2 0x62B DUP2 DUP6 PUSH1 0x20 DUP7 ADD PUSH2 0x5DF JUMP JUMPDEST DUP1 DUP5 ADD SWAP2 POP POP SWAP3 SWAP2 POP POP JUMP JUMPDEST PUSH0 PUSH2 0x642 DUP3 DUP5 PUSH2 0x607 JUMP JUMPDEST SWAP2 POP DUP2 SWAP1 POP SWAP3 SWAP2 POP POP JUMP JUMPDEST PUSH32 0x4E487B7100000000000000000000000000000000000000000000000000000000 PUSH0 MSTORE PUSH1 0x22 PUSH1 0x4 MSTORE PUSH1 0x24 PUSH0 REVERT JUMPDEST PUSH0 PUSH1 0x2 DUP3 DIV SWAP1 POP PUSH1 0x1 DUP3 AND DUP1 PUSH2 0x691 JUMPI PUSH1 0x7F DUP3 AND SWAP2 POP JUMPDEST PUSH1 0x20 DUP3 LT DUP2 SUB PUSH2 0x6A4 JUMPI PUSH2 0x6A3 PUSH2 0x64D JUMP JUMPDEST JUMPDEST POP SWAP2 SWAP1 POP JUMP JUMPDEST PUSH0 DUP2 SWAP1 POP DUP2 PUSH0 MSTORE PUSH1 0x20 PUSH0 KECCAK256 SWAP1 POP SWAP2 SWAP1 POP JUMP JUMPDEST PUSH0 PUSH1 0x20 PUSH1 0x1F DUP4 ADD DIV SWAP1 POP SWAP2 SWAP1 POP JUMP JUMPDEST PUSH0 DUP3 DUP3 SHL SWAP1 POP SWAP3 SWAP2 POP POP JUMP JUMPDEST PUSH0 PUSH1 0x8 DUP4 MUL PUSH2 0x706 PUSH32 0xFFFFFFFFFFFFFFFFFFFFFFFFFFFFFFFFFFFFFFFFFFFFFFFFFFFFFFFFFFFFFFFF DUP3 PUSH2 0x6CB JUMP JUMPDEST PUSH2 0x710 DUP7 DUP4 PUSH2 0x6CB JUMP JUMPDEST SWAP6 POP DUP1 NOT DUP5 AND SWAP4 POP DUP1 DUP7 AND DUP5 OR SWAP3 POP POP POP SWAP4 SWAP3 POP POP POP JUMP JUMPDEST PUSH0 DUP2 SWAP1 POP SWAP2 SWAP1 POP JUMP JUMPDEST PUSH0 PUSH2 0x74B PUSH2 0x746 PUSH2 0x741 DUP5 PUSH2 0x37C JUMP JUMPDEST PUSH2 0x728 JUMP JUMPDEST PUSH2 0x37C JUMP JUMPDEST SWAP1 POP SWAP2 SWAP1 POP JUMP JUMPDEST PUSH0 DUP2 SWAP1 POP SWAP2 SWAP1 POP JUMP JUMPDEST PUSH2 0x764 DUP4 PUSH2 0x731 JUMP JUMPDEST PUSH2 0x778 PUSH2 0x770 DUP3 PUSH2 0x752 JUMP JUMPDEST DUP5 DUP5 SLOAD PUSH2 0x6D7 JUMP JUMPDEST DUP3 SSTORE POP POP POP POP JUMP JUMPDEST PUSH0 SWAP1 JUMP JUMPDEST PUSH2 0x78C PUSH2 0x780 JUMP JUMPDEST PUSH2 0x797 DUP2 DUP5 DUP5 PUSH2 0x75B JUMP JUMPDEST POP POP POP JUMP JUMPDEST JUMPDEST DUP2 DUP2 LT ISZERO PUSH2 0x7BA JUMPI PUSH2 0x7AF PUSH0 DUP3 PUSH2 0x784 JUMP JUMPDEST PUSH1 0x1 DUP2 ADD SWAP1 POP PUSH2 0x79D JUMP JUMPDEST POP POP JUMP JUMPDEST PUSH1 0x1F DUP3 GT ISZERO PUSH2 0x7FF JUMPI PUSH2 0x7D0 DUP2 PUSH2 0x6AA JUMP JUMPDEST PUSH2 0x7D9 DUP5 PUSH2 0x6BC JUMP JUMPDEST DUP2 ADD PUSH1 0x20 DUP6 LT ISZERO PUSH2 0x7E8 JUMPI DUP2 SWAP1 POP JUMPDEST PUSH2 0x7FC PUSH2 0x7F4 DUP6 PUSH2 0x6BC JUMP JUMPDEST DUP4 ADD DUP3 PUSH2 0x79C JUMP JUMPDEST POP POP JUMPDEST POP POP POP JUMP JUMPDEST PUSH0 DUP3 DUP3 SHR SWAP1 POP SWAP3 SWAP2 POP POP JUMP JUMPDEST PUSH0 PUSH2 0x81F PUSH0 NOT DUP5 PUSH1 0x8 MUL PUSH2 0x804 JUMP JUMPDEST NOT DUP1 DUP4 AND SWAP2 POP POP SWAP3 SWAP2 POP POP JUMP JUMPDEST PUSH0 PUSH2 0x837 DUP4 DUP4 PUSH2 0x810 JUMP JUMPDEST SWAP2 POP DUP3 PUSH1 0x2 MUL DUP3 OR SWAP1 POP SWAP3 SWAP2 POP POP JUMP JUMPDEST PUSH2 0x850 DUP3 PUSH2 0x5CB JUMP JUMPDEST PUSH8 0xFFFFFFFFFFFFFFFF DUP2 GT ISZERO PUSH2 0x869 JUMPI PUSH2 0x868 PUSH2 0x258 JUMP JUMPDEST JUMPDEST PUSH2 0x873 DUP3 SLOAD PUSH2 0x67A JUMP JUMPDEST PUSH2 0x87E DUP3 DUP3 DUP6 PUSH2 0x7BE JUMP JUMPDEST PUSH0 PUSH1 0x20 SWAP1 POP PUSH1 0x1F DUP4 GT PUSH1 0x1 DUP2 EQ PUSH2 0x8AF JUMPI PUSH0 DUP5 ISZERO PUSH2 0x89D JUMPI DUP3 DUP8 ADD MLOAD SWAP1 POP JUMPDEST PUSH2 0x8A7 DUP6 DUP3 PUSH2 0x82C JUMP JUMPDEST DUP7 SSTORE POP PUSH2 0x90E JUMP JUMPDEST PUSH1 0x1F NOT DUP5 AND PUSH2 0x8BD DUP7 PUSH2 0x6AA JUMP JUMPDEST PUSH0 JUMPDEST DUP3 DUP2 LT ISZERO PUSH2 0x8E4 JUMPI DUP5 DUP10 ADD MLOAD DUP3 SSTORE PUSH1 0x1 DUP3 ADD SWAP2 POP PUSH1 0x20 DUP6 ADD SWAP5 POP PUSH1 0x20 DUP2 ADD SWAP1 POP PUSH2 0x8BF JUMP JUMPDEST DUP7 DUP4 LT ISZERO PUSH2 0x901 JUMPI DUP5 DUP10 ADD MLOAD PUSH2 0x8FD PUSH1 0x1F DUP10 AND DUP3 PUSH2 0x810 JUMP JUMPDEST DUP4 SSTORE POP JUMPDEST PUSH1 0x1 PUSH1 0x2 DUP9 MUL ADD DUP9 SSTORE POP POP POP JUMPDEST POP POP POP POP POP POP JUMP INVALID LOG2 PUSH5 0x6970667358 0x22 SLT KECCAK256 0x22 0xEA RETURN SHL DUP9 0xE6 PUSH0 SWAP10 0xD4 0x49 0x21 JUMP SAR SWAP1 CALLDATASIZE PUSH2 0xE1F8 MULMOD 0xDE GT LOG4 SWAP3 LOG3 PUSH31 0xCE0A8924FB463B64736F6C6343000816003300000000000000000000000000 "
				},
				"gasEstimates": {
					"creation": {
						"codeDepositCost": "476000",
						"executionCost": "509",
						"totalCost": "476509"
					},
					"external": {
						"getAge(string)": "infinite",
						"getGender(string)": "infinite",
						"setAge(string,uint256)": "infinite",
						"setGender(string,bool)": "infinite",
						"setStudent(string,uint256,uint256,string)": "infinite"
					}
				},
				"methodIdentifiers": {
					"getAge(string)": "d83880f0",
					"getGender(string)": "e8d6221f",
					"setAge(string,uint256)": "25b574aa",
					"setGender(string,bool)": "dfeb76f6",
					"setStudent(string,uint256,uint256,string)": "107af71c"
				}
			},
			"storageLayout": {
				"storage": [
					{
						"astId": 12,
						"contract": "Struct2.sol:Mapping",
						"label": "age",
						"offset": 0,
						"slot": "0",
						"type": "t_mapping(t_string_memory_ptr,t_uint256)"
					},
					{
						"astId": 16,
						"contract": "Struct2.sol:Mapping",
						"label": "gender",
						"offset": 0,
						"slot": "1",
						"type": "t_mapping(t_string_memory_ptr,t_bool)"
					},
					{
						"astId": 21,
						"contract": "Struct2.sol:Mapping",
						"label": "students",
						"offset": 0,
						"slot": "2",
						"type": "t_mapping(t_string_memory_ptr,t_struct(Student)8_storage)"
					}
				],
				"types": {
					"t_bool": {
						"encoding": "inplace",
						"label": "bool",
						"numberOfBytes": "1"
					},
					"t_mapping(t_string_memory_ptr,t_bool)": {
						"encoding": "mapping",
						"key": "t_string_memory_ptr",
						"label": "mapping(string => bool)",
						"numberOfBytes": "32",
						"value": "t_bool"
					},
					"t_mapping(t_string_memory_ptr,t_struct(Student)8_storage)": {
						"encoding": "mapping",
						"key": "t_string_memory_ptr",
						"label": "mapping(string => struct Mapping.Student)",
						"numberOfBytes": "32",
						"value": "t_struct(Student)8_storage"
					},
					"t_mapping(t_string_memory_ptr,t_uint256)": {
						"encoding": "mapping",
						"key": "t_string_memory_ptr",
						"label": "mapping(string => uint256)",
						"numberOfBytes": "32",
						"value": "t_uint256"
					},
					"t_string_memory_ptr": {
						"encoding": "bytes",
						"label": "string",
						"numberOfBytes": "32"
					},
					"t_string_storage": {
						"encoding": "bytes",
						"label": "string",
						"numberOfBytes": "32"
					},
					"t_struct(Student)8_storage": {
						"encoding": "inplace",
						"label": "struct Mapping.Student",
						"members": [
							{
								"astId": 3,
								"contract": "Struct2.sol:Mapping",
								"label": "number",
								"offset": 0,
								"slot": "0",
								"type": "t_uint256"
							},
							{
								"astId": 5,
								"contract": "Struct2.sol:Mapping",
								"label": "score",
								"offset": 0,
								"slot": "1",
								"type": "t_uint256"
							},
							{
								"astId": 7,
								"contract": "Struct2.sol:Mapping",
								"label": "home_address",
								"offset": 0,
								"slot": "2",
								"type": "t_string_storage"
							}
						],
						"numberOfBytes": "96"
					},
					"t_uint256": {
						"encoding": "inplace",
						"label": "uint256",
						"numberOfBytes": "32"
					}
				}
			},
			"userdoc": {
				"kind": "user",
				"methods": {},
				"version": 1
			}
		}
	}
}