{
	"is_virtual.sol": {
		"Child": {
			"abi": [
				{
					"inputs": [],
					"name": "who",
					"outputs": [
						{
							"internalType": "string",
							"name": "",
							"type": "string"
						}
					],
					"stateMutability": "pure",
					"type": "function"
				}
			],
			"devdoc": {
				"kind": "dev",
				"methods": {},
				"version": 1
			},
			"evm": {
				"assembly": "    /* \"is_virtual.sol\":328:517  contract Child is DAD, MOM {... */\n  mstore(0x40, 0x80)\n  callvalue\n  dup1\n  iszero\n  tag_1\n  jumpi\n  0x00\n  dup1\n  revert\ntag_1:\n  pop\n  dataSize(sub_0)\n  dup1\n  dataOffset(sub_0)\n  0x00\n  codecopy\n  0x00\n  return\nstop\n\nsub_0: assembly {\n        /* \"is_virtual.sol\":328:517  contract Child is DAD, MOM {... */\n      mstore(0x40, 0x80)\n      callvalue\n      dup1\n      iszero\n      tag_1\n      jumpi\n      0x00\n      dup1\n      revert\n    tag_1:\n      pop\n      jumpi(tag_2, lt(calldatasize, 0x04))\n      shr(0xe0, calldataload(0x00))\n      dup1\n      0xd6d21dfd\n      eq\n      tag_3\n      jumpi\n    tag_2:\n      0x00\n      dup1\n      revert\n        /* \"is_virtual.sol\":362:514  function who() virtual override(DAD, MOM) public pure returns(string memory) {... */\n    tag_3:\n      tag_4\n      tag_5\n      jump\t// in\n    tag_4:\n      mload(0x40)\n      tag_6\n      swap2\n      swap1\n      tag_7\n      jump\t// in\n    tag_6:\n      mload(0x40)\n      dup1\n      swap2\n      sub\n      swap1\n      return\n    tag_5:\n        /* \"is_virtual.sol\":424:437  string memory */\n      0x60\n        /* \"is_virtual.sol\":495:504  DAD.who() */\n      tag_9\n        /* \"is_virtual.sol\":495:502  DAD.who */\n      tag_10\n        /* \"is_virtual.sol\":495:504  DAD.who() */\n      jump\t// in\n    tag_9:\n        /* \"is_virtual.sol\":464:505  abi.encodePacked(\"Child and \", DAD.who()) */\n      add(0x20, mload(0x40))\n      tag_11\n      swap2\n      swap1\n      tag_12\n      jump\t// in\n    tag_11:\n      mload(0x40)\n      0x20\n      dup2\n      dup4\n      sub\n      sub\n      dup2\n      mstore\n      swap1\n      0x40\n      mstore\n        /* \"is_virtual.sol\":450:506  return string(abi.encodePacked(\"Child and \", DAD.who())) */\n      swap1\n      pop\n        /* \"is_virtual.sol\":362:514  function who() virtual override(DAD, MOM) public pure returns(string memory) {... */\n      swap1\n      jump\t// out\n        /* \"is_virtual.sol\":94:193  function who() virtual public pure returns(string memory) {... */\n    tag_10:\n        /* \"is_virtual.sol\":137:150  string memory */\n      0x60\n        /* \"is_virtual.sol\":163:185  return \"data from DAD\" */\n      mload(0x40)\n      dup1\n      0x40\n      add\n      0x40\n      mstore\n      dup1\n      0x0d\n      dup2\n      mstore\n      0x20\n      add\n      0x646174612066726f6d2044414400000000000000000000000000000000000000\n      dup2\n      mstore\n      pop\n      swap1\n      pop\n        /* \"is_virtual.sol\":94:193  function who() virtual public pure returns(string memory) {... */\n      swap1\n      jump\t// out\n        /* \"#utility.yul\":7:106   */\n    tag_14:\n        /* \"#utility.yul\":59:65   */\n      0x00\n        /* \"#utility.yul\":93:98   */\n      dup2\n        /* \"#utility.yul\":87:99   */\n      mload\n        /* \"#utility.yul\":77:99   */\n      swap1\n      pop\n        /* \"#utility.yul\":7:106   */\n      swap2\n      swap1\n      pop\n      jump\t// out\n        /* \"#utility.yul\":112:281   */\n    tag_15:\n        /* \"#utility.yul\":196:207   */\n      0x00\n        /* \"#utility.yul\":230:236   */\n      dup3\n        /* \"#utility.yul\":225:228   */\n      dup3\n        /* \"#utility.yul\":218:237   */\n      mstore\n        /* \"#utility.yul\":270:274   */\n      0x20\n        /* \"#utility.yul\":265:268   */\n      dup3\n        /* \"#utility.yul\":261:275   */\n      add\n        /* \"#utility.yul\":246:275   */\n      swap1\n      pop\n        /* \"#utility.yul\":112:281   */\n      swap3\n      swap2\n      pop\n      pop\n      jump\t// out\n        /* \"#utility.yul\":287:533   */\n    tag_16:\n        /* \"#utility.yul\":368:369   */\n      0x00\n        /* \"#utility.yul\":378:491   */\n    tag_27:\n        /* \"#utility.yul\":392:398   */\n      dup4\n        /* \"#utility.yul\":389:390   */\n      dup2\n        /* \"#utility.yul\":386:399   */\n      lt\n        /* \"#utility.yul\":378:491   */\n      iszero\n      tag_29\n      jumpi\n        /* \"#utility.yul\":477:478   */\n      dup1\n        /* \"#utility.yul\":472:475   */\n      dup3\n        /* \"#utility.yul\":468:479   */\n      add\n        /* \"#utility.yul\":462:480   */\n      mload\n        /* \"#utility.yul\":458:459   */\n      dup2\n        /* \"#utility.yul\":453:456   */\n      dup5\n        /* \"#utility.yul\":449:460   */\n      add\n        /* \"#utility.yul\":442:481   */\n      mstore\n        /* \"#utility.yul\":414:416   */\n      0x20\n        /* \"#utility.yul\":411:412   */\n      dup2\n        /* \"#utility.yul\":407:417   */\n      add\n        /* \"#utility.yul\":402:417   */\n      swap1\n      pop\n        /* \"#utility.yul\":378:491   */\n      jump(tag_27)\n    tag_29:\n        /* \"#utility.yul\":525:526   */\n      0x00\n        /* \"#utility.yul\":516:522   */\n      dup5\n        /* \"#utility.yul\":511:514   */\n      dup5\n        /* \"#utility.yul\":507:523   */\n      add\n        /* \"#utility.yul\":500:527   */\n      mstore\n        /* \"#utility.yul\":349:533   */\n      pop\n        /* \"#utility.yul\":287:533   */\n      pop\n      pop\n      pop\n      jump\t// out\n        /* \"#utility.yul\":539:641   */\n    tag_17:\n        /* \"#utility.yul\":580:586   */\n      0x00\n        /* \"#utility.yul\":631:633   */\n      0x1f\n        /* \"#utility.yul\":627:634   */\n      not\n        /* \"#utility.yul\":622:624   */\n      0x1f\n        /* \"#utility.yul\":615:620   */\n      dup4\n        /* \"#utility.yul\":611:625   */\n      add\n        /* \"#utility.yul\":607:635   */\n      and\n        /* \"#utility.yul\":597:635   */\n      swap1\n      pop\n        /* \"#utility.yul\":539:641   */\n      swap2\n      swap1\n      pop\n      jump\t// out\n        /* \"#utility.yul\":647:1024   */\n    tag_18:\n        /* \"#utility.yul\":735:738   */\n      0x00\n        /* \"#utility.yul\":763:802   */\n      tag_32\n        /* \"#utility.yul\":796:801   */\n      dup3\n        /* \"#utility.yul\":763:802   */\n      tag_14\n      jump\t// in\n    tag_32:\n        /* \"#utility.yul\":818:889   */\n      tag_33\n        /* \"#utility.yul\":882:888   */\n      dup2\n        /* \"#utility.yul\":877:880   */\n      dup6\n        /* \"#utility.yul\":818:889   */\n      tag_15\n      jump\t// in\n    tag_33:\n        /* \"#utility.yul\":811:889   */\n      swap4\n      pop\n        /* \"#utility.yul\":898:963   */\n      tag_34\n        /* \"#utility.yul\":956:962   */\n      dup2\n        /* \"#utility.yul\":951:954   */\n      dup6\n        /* \"#utility.yul\":944:948   */\n      0x20\n        /* \"#utility.yul\":937:942   */\n      dup7\n        /* \"#utility.yul\":933:949   */\n      add\n        /* \"#utility.yul\":898:963   */\n      tag_16\n      jump\t// in\n    tag_34:\n        /* \"#utility.yul\":988:1017   */\n      tag_35\n        /* \"#utility.yul\":1010:1016   */\n      dup2\n        /* \"#utility.yul\":988:1017   */\n      tag_17\n      jump\t// in\n    tag_35:\n        /* \"#utility.yul\":983:986   */\n      dup5\n        /* \"#utility.yul\":979:1018   */\n      add\n        /* \"#utility.yul\":972:1018   */\n      swap2\n      pop\n        /* \"#utility.yul\":739:1024   */\n      pop\n        /* \"#utility.yul\":647:1024   */\n      swap3\n      swap2\n      pop\n      pop\n      jump\t// out\n        /* \"#utility.yul\":1030:1343   */\n    tag_7:\n        /* \"#utility.yul\":1143:1147   */\n      0x00\n        /* \"#utility.yul\":1181:1183   */\n      0x20\n        /* \"#utility.yul\":1170:1179   */\n      dup3\n        /* \"#utility.yul\":1166:1184   */\n      add\n        /* \"#utility.yul\":1158:1184   */\n      swap1\n      pop\n        /* \"#utility.yul\":1230:1239   */\n      dup2\n        /* \"#utility.yul\":1224:1228   */\n      dup2\n        /* \"#utility.yul\":1220:1240   */\n      sub\n        /* \"#utility.yul\":1216:1217   */\n      0x00\n        /* \"#utility.yul\":1205:1214   */\n      dup4\n        /* \"#utility.yul\":1201:1218   */\n      add\n        /* \"#utility.yul\":1194:1241   */\n      mstore\n        /* \"#utility.yul\":1258:1336   */\n      tag_37\n        /* \"#utility.yul\":1331:1335   */\n      dup2\n        /* \"#utility.yul\":1322:1328   */\n      dup5\n        /* \"#utility.yul\":1258:1336   */\n      tag_18\n      jump\t// in\n    tag_37:\n        /* \"#utility.yul\":1250:1336   */\n      swap1\n      pop\n        /* \"#utility.yul\":1030:1343   */\n      swap3\n      swap2\n      pop\n      pop\n      jump\t// out\n        /* \"#utility.yul\":1349:1497   */\n    tag_19:\n        /* \"#utility.yul\":1451:1462   */\n      0x00\n        /* \"#utility.yul\":1488:1491   */\n      dup2\n        /* \"#utility.yul\":1473:1491   */\n      swap1\n      pop\n        /* \"#utility.yul\":1349:1497   */\n      swap3\n      swap2\n      pop\n      pop\n      jump\t// out\n        /* \"#utility.yul\":1503:1663   */\n    tag_20:\n        /* \"#utility.yul\":1643:1655   */\n      0x4368696c6420616e642000000000000000000000000000000000000000000000\n        /* \"#utility.yul\":1639:1640   */\n      0x00\n        /* \"#utility.yul\":1631:1637   */\n      dup3\n        /* \"#utility.yul\":1627:1641   */\n      add\n        /* \"#utility.yul\":1620:1656   */\n      mstore\n        /* \"#utility.yul\":1503:1663   */\n      pop\n      jump\t// out\n        /* \"#utility.yul\":1669:2071   */\n    tag_21:\n        /* \"#utility.yul\":1829:1832   */\n      0x00\n        /* \"#utility.yul\":1850:1935   */\n      tag_41\n        /* \"#utility.yul\":1932:1934   */\n      0x0a\n        /* \"#utility.yul\":1927:1930   */\n      dup4\n        /* \"#utility.yul\":1850:1935   */\n      tag_19\n      jump\t// in\n    tag_41:\n        /* \"#utility.yul\":1843:1935   */\n      swap2\n      pop\n        /* \"#utility.yul\":1944:2037   */\n      tag_42\n        /* \"#utility.yul\":2033:2036   */\n      dup3\n        /* \"#utility.yul\":1944:2037   */\n      tag_20\n      jump\t// in\n    tag_42:\n        /* \"#utility.yul\":2062:2064   */\n      0x0a\n        /* \"#utility.yul\":2057:2060   */\n      dup3\n        /* \"#utility.yul\":2053:2065   */\n      add\n        /* \"#utility.yul\":2046:2065   */\n      swap1\n      pop\n        /* \"#utility.yul\":1669:2071   */\n      swap2\n      swap1\n      pop\n      jump\t// out\n        /* \"#utility.yul\":2077:2467   */\n    tag_22:\n        /* \"#utility.yul\":2183:2186   */\n      0x00\n        /* \"#utility.yul\":2211:2250   */\n      tag_44\n        /* \"#utility.yul\":2244:2249   */\n      dup3\n        /* \"#utility.yul\":2211:2250   */\n      tag_14\n      jump\t// in\n    tag_44:\n        /* \"#utility.yul\":2266:2355   */\n      tag_45\n        /* \"#utility.yul\":2348:2354   */\n      dup2\n        /* \"#utility.yul\":2343:2346   */\n      dup6\n        /* \"#utility.yul\":2266:2355   */\n      tag_19\n      jump\t// in\n    tag_45:\n        /* \"#utility.yul\":2259:2355   */\n      swap4\n      pop\n        /* \"#utility.yul\":2364:2429   */\n      tag_46\n        /* \"#utility.yul\":2422:2428   */\n      dup2\n        /* \"#utility.yul\":2417:2420   */\n      dup6\n        /* \"#utility.yul\":2410:2414   */\n      0x20\n        /* \"#utility.yul\":2403:2408   */\n      dup7\n        /* \"#utility.yul\":2399:2415   */\n      add\n        /* \"#utility.yul\":2364:2429   */\n      tag_16\n      jump\t// in\n    tag_46:\n        /* \"#utility.yul\":2454:2460   */\n      dup1\n        /* \"#utility.yul\":2449:2452   */\n      dup5\n        /* \"#utility.yul\":2445:2461   */\n      add\n        /* \"#utility.yul\":2438:2461   */\n      swap2\n      pop\n        /* \"#utility.yul\":2187:2467   */\n      pop\n        /* \"#utility.yul\":2077:2467   */\n      swap3\n      swap2\n      pop\n      pop\n      jump\t// out\n        /* \"#utility.yul\":2473:3014   */\n    tag_12:\n        /* \"#utility.yul\":2706:2709   */\n      0x00\n        /* \"#utility.yul\":2728:2876   */\n      tag_48\n        /* \"#utility.yul\":2872:2875   */\n      dup3\n        /* \"#utility.yul\":2728:2876   */\n      tag_21\n      jump\t// in\n    tag_48:\n        /* \"#utility.yul\":2721:2876   */\n      swap2\n      pop\n        /* \"#utility.yul\":2893:2988   */\n      tag_49\n        /* \"#utility.yul\":2984:2987   */\n      dup3\n        /* \"#utility.yul\":2975:2981   */\n      dup5\n        /* \"#utility.yul\":2893:2988   */\n      tag_22\n      jump\t// in\n    tag_49:\n        /* \"#utility.yul\":2886:2988   */\n      swap2\n      pop\n        /* \"#utility.yul\":3005:3008   */\n      dup2\n        /* \"#utility.yul\":2998:3008   */\n      swap1\n      pop\n        /* \"#utility.yul\":2473:3014   */\n      swap3\n      swap2\n      pop\n      pop\n      jump\t// out\n\n    auxdata: 0xa2646970667358221220584e3a2a82887040be9a259465bd64395334cae9c769c5c80897f3dcb4517c0164736f6c63430008160033\n}\n",
				"bytecode": {
					"linkReferences": {},
					"object": "608060405234801561000f575f80fd5b5061023b8061001d5f395ff3fe608060405234801561000f575f80fd5b5060043610610029575f3560e01c8063d6d21dfd1461002d575b5f80fd5b61003561004b565b6040516100429190610140565b60405180910390f35b6060610055610079565b60405160200161006591906101e4565b604051602081830303815290604052905090565b60606040518060400160405280600d81526020017f646174612066726f6d2044414400000000000000000000000000000000000000815250905090565b5f81519050919050565b5f82825260208201905092915050565b5f5b838110156100ed5780820151818401526020810190506100d2565b5f8484015250505050565b5f601f19601f8301169050919050565b5f610112826100b6565b61011c81856100c0565b935061012c8185602086016100d0565b610135816100f8565b840191505092915050565b5f6020820190508181035f8301526101588184610108565b905092915050565b5f81905092915050565b7f4368696c6420616e6420000000000000000000000000000000000000000000005f82015250565b5f61019e600a83610160565b91506101a98261016a565b600a82019050919050565b5f6101be826100b6565b6101c88185610160565b93506101d88185602086016100d0565b80840191505092915050565b5f6101ee82610192565b91506101fa82846101b4565b91508190509291505056fea2646970667358221220584e3a2a82887040be9a259465bd64395334cae9c769c5c80897f3dcb4517c0164736f6c63430008160033",
					"opcodes": "PUSH1 0x80 PUSH1 0x40 MSTORE CALLVALUE DUP1 ISZERO PUSH2 0xF JUMPI PUSH0 DUP1 REVERT JUMPDEST POP PUSH2 0x23B DUP1 PUSH2 0x1D PUSH0 CODECOPY PUSH0 RETURN INVALID PUSH1 0x80 PUSH1 0x40 MSTORE CALLVALUE DUP1 ISZERO PUSH2 0xF JUMPI PUSH0 DUP1 REVERT JUMPDEST POP PUSH1 0x4 CALLDATASIZE LT PUSH2 0x29 JUMPI PUSH0 CALLDATALOAD PUSH1 0xE0 SHR DUP1 PUSH4 0xD6D21DFD EQ PUSH2 0x2D JUMPI JUMPDEST PUSH0 DUP1 REVERT JUMPDEST PUSH2 0x35 PUSH2 0x4B JUMP JUMPDEST PUSH1 0x40 MLOAD PUSH2 0x42 SWAP2 SWAP1 PUSH2 0x140 JUMP JUMPDEST PUSH1 0x40 MLOAD DUP1 SWAP2 SUB SWAP1 RETURN JUMPDEST PUSH1 0x60 PUSH2 0x55 PUSH2 0x79 JUMP JUMPDEST PUSH1 0x40 MLOAD PUSH1 0x20 ADD PUSH2 0x65 SWAP2 SWAP1 PUSH2 0x1E4 JUMP JUMPDEST PUSH1 0x40 MLOAD PUSH1 0x20 DUP2 DUP4 SUB SUB DUP2 MSTORE SWAP1 PUSH1 0x40 MSTORE SWAP1 POP SWAP1 JUMP JUMPDEST PUSH1 0x60 PUSH1 0x40 MLOAD DUP1 PUSH1 0x40 ADD PUSH1 0x40 MSTORE DUP1 PUSH1 0xD DUP2 MSTORE PUSH1 0x20 ADD PUSH32 0x646174612066726F6D2044414400000000000000000000000000000000000000 DUP2 MSTORE POP SWAP1 POP SWAP1 JUMP JUMPDEST PUSH0 DUP2 MLOAD SWAP1 POP SWAP2 SWAP1 POP JUMP JUMPDEST PUSH0 DUP3 DUP3 MSTORE PUSH1 0x20 DUP3 ADD SWAP1 POP SWAP3 SWAP2 POP POP JUMP JUMPDEST PUSH0 JUMPDEST DUP4 DUP2 LT ISZERO PUSH2 0xED JUMPI DUP1 DUP3 ADD MLOAD DUP2 DUP5 ADD MSTORE PUSH1 0x20 DUP2 ADD SWAP1 POP PUSH2 0xD2 JUMP JUMPDEST PUSH0 DUP5 DUP5 ADD MSTORE POP POP POP POP JUMP JUMPDEST PUSH0 PUSH1 0x1F NOT PUSH1 0x1F DUP4 ADD AND SWAP1 POP SWAP2 SWAP1 POP JUMP JUMPDEST PUSH0 PUSH2 0x112 DUP3 PUSH2 0xB6 JUMP JUMPDEST PUSH2 0x11C DUP2 DUP6 PUSH2 0xC0 JUMP JUMPDEST SWAP4 POP PUSH2 0x12C DUP2 DUP6 PUSH1 0x20 DUP7 ADD PUSH2 0xD0 JUMP JUMPDEST PUSH2 0x135 DUP2 PUSH2 0xF8 JUMP JUMPDEST DUP5 ADD SWAP2 POP POP SWAP3 SWAP2 POP POP JUMP JUMPDEST PUSH0 PUSH1 0x20 DUP3 ADD SWAP1 POP DUP2 DUP2 SUB PUSH0 DUP4 ADD MSTORE PUSH2 0x158 DUP2 DUP5 PUSH2 0x108 JUMP JUMPDEST SWAP1 POP SWAP3 SWAP2 POP POP JUMP JUMPDEST PUSH0 DUP2 SWAP1 POP SWAP3 SWAP2 POP POP JUMP JUMPDEST PUSH32 0x4368696C6420616E642000000000000000000000000000000000000000000000 PUSH0 DUP3 ADD MSTORE POP JUMP JUMPDEST PUSH0 PUSH2 0x19E PUSH1 0xA DUP4 PUSH2 0x160 JUMP JUMPDEST SWAP2 POP PUSH2 0x1A9 DUP3 PUSH2 0x16A JUMP JUMPDEST PUSH1 0xA DUP3 ADD SWAP1 POP SWAP2 SWAP1 POP JUMP JUMPDEST PUSH0 PUSH2 0x1BE DUP3 PUSH2 0xB6 JUMP JUMPDEST PUSH2 0x1C8 DUP2 DUP6 PUSH2 0x160 JUMP JUMPDEST SWAP4 POP PUSH2 0x1D8 DUP2 DUP6 PUSH1 0x20 DUP7 ADD PUSH2 0xD0 JUMP JUMPDEST DUP1 DUP5 ADD SWAP2 POP POP SWAP3 SWAP2 POP POP JUMP JUMPDEST PUSH0 PUSH2 0x1EE DUP3 PUSH2 0x192 JUMP JUMPDEST SWAP2 POP PUSH2 0x1FA DUP3 DUP5 PUSH2 0x1B4 JUMP JUMPDEST SWAP2 POP DUP2 SWAP1 POP SWAP3 SWAP2 POP POP JUMP INVALID LOG2 PUSH5 0x6970667358 0x22 SLT KECCAK256 PC 0x4E GASPRICE 0x2A DUP3 DUP9 PUSH17 0x40BE9A259465BD64395334CAE9C769C5C8 ADDMOD SWAP8 RETURN 0xDC 0xB4 MLOAD PUSH29 0x164736F6C634300081600330000000000000000000000000000000000 "
				},
				"gasEstimates": {
					"creation": {
						"codeDepositCost": "114200",
						"executionCost": "157",
						"totalCost": "114357"
					},
					"external": {
						"who()": "infinite"
					}
				},
				"methodIdentifiers": {
					"who()": "d6d21dfd"
				}
			},
			"storageLayout": {
				"storage": [],
				"types": null
			},
			"userdoc": {
				"kind": "user",
				"methods": {},
				"version": 1
			}
		}
	}
}