{
	"Modifier.sol": {
		"MODIFIER2": {
			"abi": [
				{
					"inputs": [],
					"name": "A",
					"outputs": [],
					"stateMutability": "nonpayable",
					"type": "function"
				},
				{
					"inputs": [],
					"name": "B",
					"outputs": [],
					"stateMutability": "nonpayable",
					"type": "function"
				},
				{
					"inputs": [],
					"name": "getAB",
					"outputs": [
						{
							"internalType": "uint256",
							"name": "",
							"type": "uint256"
						},
						{
							"internalType": "uint256",
							"name": "",
							"type": "uint256"
						}
					],
					"stateMutability": "view",
					"type": "function"
				}
			],
			"devdoc": {
				"kind": "dev",
				"methods": {},
				"version": 1
			},
			"evm": {
				"assembly": "    /* \"Modifier.sol\":505:915  contract MODIFIER2 {... */\n  mstore(0x40, 0x80)\n    /* \"Modifier.sol\":540:541  1 */\n  0x01\n    /* \"Modifier.sol\":531:541  uint a = 1 */\n  0x00\n  sstore\n    /* \"Modifier.sol\":557:558  1 */\n  0x01\n    /* \"Modifier.sol\":548:558  uint b = 1 */\n  dup1\n  sstore\n    /* \"Modifier.sol\":505:915  contract MODIFIER2 {... */\n  callvalue\n  dup1\n  iszero\n  tag_1\n  jumpi\n  0x00\n  dup1\n  revert\ntag_1:\n  pop\n  dataSize(sub_0)\n  dup1\n  dataOffset(sub_0)\n  0x00\n  codecopy\n  0x00\n  return\nstop\n\nsub_0: assembly {\n        /* \"Modifier.sol\":505:915  contract MODIFIER2 {... */\n      mstore(0x40, 0x80)\n      callvalue\n      dup1\n      iszero\n      tag_1\n      jumpi\n      0x00\n      dup1\n      revert\n    tag_1:\n      pop\n      jumpi(tag_2, lt(calldatasize, 0x04))\n      shr(0xe0, calldataload(0x00))\n      dup1\n      0x2b06cb2d\n      eq\n      tag_3\n      jumpi\n      dup1\n      0x32e7c5bf\n      eq\n      tag_4\n      jumpi\n      dup1\n      0xf446c1d0\n      eq\n      tag_5\n      jumpi\n    tag_2:\n      0x00\n      dup1\n      revert\n        /* \"Modifier.sol\":715:796  function getAB() public view returns(uint, uint) {... */\n    tag_3:\n      tag_6\n      tag_7\n      jump\t// in\n    tag_6:\n      mload(0x40)\n      tag_8\n      swap3\n      swap2\n      swap1\n      tag_9\n      jump\t// in\n    tag_8:\n      mload(0x40)\n      dup1\n      swap2\n      sub\n      swap1\n      return\n        /* \"Modifier.sol\":862:912  function B() public mul2 {... */\n    tag_4:\n      tag_10\n      tag_11\n      jump\t// in\n    tag_10:\n      stop\n        /* \"Modifier.sol\":804:854  function A() public mul1 {... */\n    tag_5:\n      tag_12\n      tag_13\n      jump\t// in\n    tag_12:\n      stop\n        /* \"Modifier.sol\":715:796  function getAB() public view returns(uint, uint) {... */\n    tag_7:\n        /* \"Modifier.sol\":752:756  uint */\n      0x00\n        /* \"Modifier.sol\":758:762  uint */\n      dup1\n        /* \"Modifier.sol\":783:784  a */\n      sload(0x00)\n        /* \"Modifier.sol\":786:787  b */\n      sload(0x01)\n        /* \"Modifier.sol\":775:788  return (a, b) */\n      swap2\n      pop\n      swap2\n      pop\n        /* \"Modifier.sol\":715:796  function getAB() public view returns(uint, uint) {... */\n      swap1\n      swap2\n      jump\t// out\n        /* \"Modifier.sol\":862:912  function B() public mul2 {... */\n    tag_11:\n        /* \"Modifier.sol\":903:904  7 */\n      0x07\n        /* \"Modifier.sol\":898:899  b */\n      0x01\n      0x00\n        /* \"Modifier.sol\":898:904  b += 7 */\n      dup3\n      dup3\n      sload\n      tag_17\n      swap2\n      swap1\n      tag_18\n      jump\t// in\n    tag_17:\n      swap3\n      pop\n      pop\n      dup2\n      swap1\n      sstore\n      pop\n        /* \"Modifier.sol\":686:687  2 */\n      0x02\n        /* \"Modifier.sol\":682:683  b */\n      0x01\n      0x00\n        /* \"Modifier.sol\":682:687  b *=2 */\n      dup3\n      dup3\n      sload\n      tag_19\n      swap2\n      swap1\n      tag_20\n      jump\t// in\n    tag_19:\n      swap3\n      pop\n      pop\n      dup2\n      swap1\n      sstore\n      pop\n        /* \"Modifier.sol\":903:904  7 */\n      0x07\n        /* \"Modifier.sol\":898:899  b */\n      0x01\n      0x00\n        /* \"Modifier.sol\":898:904  b += 7 */\n      dup3\n      dup3\n      sload\n      tag_22\n      swap2\n      swap1\n      tag_18\n      jump\t// in\n    tag_22:\n      swap3\n      pop\n      pop\n      dup2\n      swap1\n      sstore\n      pop\n        /* \"Modifier.sol\":862:912  function B() public mul2 {... */\n      jump\t// out\n        /* \"Modifier.sol\":804:854  function A() public mul1 {... */\n    tag_13:\n        /* \"Modifier.sol\":598:599  2 */\n      0x02\n        /* \"Modifier.sol\":594:595  a */\n      0x00\n      dup1\n        /* \"Modifier.sol\":594:599  a *=2 */\n      dup3\n      dup3\n      sload\n      tag_24\n      swap2\n      swap1\n      tag_20\n      jump\t// in\n    tag_24:\n      swap3\n      pop\n      pop\n      dup2\n      swap1\n      sstore\n      pop\n        /* \"Modifier.sol\":845:846  7 */\n      0x07\n        /* \"Modifier.sol\":840:841  a */\n      0x00\n      dup1\n        /* \"Modifier.sol\":840:846  a += 7 */\n      dup3\n      dup3\n      sload\n      tag_26\n      swap2\n      swap1\n      tag_18\n      jump\t// in\n    tag_26:\n      swap3\n      pop\n      pop\n      dup2\n      swap1\n      sstore\n      pop\n        /* \"Modifier.sol\":626:627  2 */\n      0x02\n        /* \"Modifier.sol\":622:623  a */\n      0x00\n      dup1\n        /* \"Modifier.sol\":622:627  a *=2 */\n      dup3\n      dup3\n      sload\n      tag_27\n      swap2\n      swap1\n      tag_20\n      jump\t// in\n    tag_27:\n      swap3\n      pop\n      pop\n      dup2\n      swap1\n      sstore\n      pop\n        /* \"Modifier.sol\":804:854  function A() public mul1 {... */\n      jump\t// out\n        /* \"#utility.yul\":7:84   */\n    tag_28:\n        /* \"#utility.yul\":44:51   */\n      0x00\n        /* \"#utility.yul\":73:78   */\n      dup2\n        /* \"#utility.yul\":62:78   */\n      swap1\n      pop\n        /* \"#utility.yul\":7:84   */\n      swap2\n      swap1\n      pop\n      jump\t// out\n        /* \"#utility.yul\":90:208   */\n    tag_29:\n        /* \"#utility.yul\":177:201   */\n      tag_34\n        /* \"#utility.yul\":195:200   */\n      dup2\n        /* \"#utility.yul\":177:201   */\n      tag_28\n      jump\t// in\n    tag_34:\n        /* \"#utility.yul\":172:175   */\n      dup3\n        /* \"#utility.yul\":165:202   */\n      mstore\n        /* \"#utility.yul\":90:208   */\n      pop\n      pop\n      jump\t// out\n        /* \"#utility.yul\":214:546   */\n    tag_9:\n        /* \"#utility.yul\":335:339   */\n      0x00\n        /* \"#utility.yul\":373:375   */\n      0x40\n        /* \"#utility.yul\":362:371   */\n      dup3\n        /* \"#utility.yul\":358:376   */\n      add\n        /* \"#utility.yul\":350:376   */\n      swap1\n      pop\n        /* \"#utility.yul\":386:457   */\n      tag_36\n        /* \"#utility.yul\":454:455   */\n      0x00\n        /* \"#utility.yul\":443:452   */\n      dup4\n        /* \"#utility.yul\":439:456   */\n      add\n        /* \"#utility.yul\":430:436   */\n      dup6\n        /* \"#utility.yul\":386:457   */\n      tag_29\n      jump\t// in\n    tag_36:\n        /* \"#utility.yul\":467:539   */\n      tag_37\n        /* \"#utility.yul\":535:537   */\n      0x20\n        /* \"#utility.yul\":524:533   */\n      dup4\n        /* \"#utility.yul\":520:538   */\n      add\n        /* \"#utility.yul\":511:517   */\n      dup5\n        /* \"#utility.yul\":467:539   */\n      tag_29\n      jump\t// in\n    tag_37:\n        /* \"#utility.yul\":214:546   */\n      swap4\n      swap3\n      pop\n      pop\n      pop\n      jump\t// out\n        /* \"#utility.yul\":552:732   */\n    tag_30:\n        /* \"#utility.yul\":600:677   */\n      0x4e487b7100000000000000000000000000000000000000000000000000000000\n        /* \"#utility.yul\":597:598   */\n      0x00\n        /* \"#utility.yul\":590:678   */\n      mstore\n        /* \"#utility.yul\":697:701   */\n      0x11\n        /* \"#utility.yul\":694:695   */\n      0x04\n        /* \"#utility.yul\":687:702   */\n      mstore\n        /* \"#utility.yul\":721:725   */\n      0x24\n        /* \"#utility.yul\":718:719   */\n      0x00\n        /* \"#utility.yul\":711:726   */\n      revert\n        /* \"#utility.yul\":738:929   */\n    tag_18:\n        /* \"#utility.yul\":778:781   */\n      0x00\n        /* \"#utility.yul\":797:817   */\n      tag_40\n        /* \"#utility.yul\":815:816   */\n      dup3\n        /* \"#utility.yul\":797:817   */\n      tag_28\n      jump\t// in\n    tag_40:\n        /* \"#utility.yul\":792:817   */\n      swap2\n      pop\n        /* \"#utility.yul\":831:851   */\n      tag_41\n        /* \"#utility.yul\":849:850   */\n      dup4\n        /* \"#utility.yul\":831:851   */\n      tag_28\n      jump\t// in\n    tag_41:\n        /* \"#utility.yul\":826:851   */\n      swap3\n      pop\n        /* \"#utility.yul\":874:875   */\n      dup3\n        /* \"#utility.yul\":871:872   */\n      dup3\n        /* \"#utility.yul\":867:876   */\n      add\n        /* \"#utility.yul\":860:876   */\n      swap1\n      pop\n        /* \"#utility.yul\":895:898   */\n      dup1\n        /* \"#utility.yul\":892:893   */\n      dup3\n        /* \"#utility.yul\":889:899   */\n      gt\n        /* \"#utility.yul\":886:922   */\n      iszero\n      tag_42\n      jumpi\n        /* \"#utility.yul\":902:920   */\n      tag_43\n      tag_30\n      jump\t// in\n    tag_43:\n        /* \"#utility.yul\":886:922   */\n    tag_42:\n        /* \"#utility.yul\":738:929   */\n      swap3\n      swap2\n      pop\n      pop\n      jump\t// out\n        /* \"#utility.yul\":935:1345   */\n    tag_20:\n        /* \"#utility.yul\":975:982   */\n      0x00\n        /* \"#utility.yul\":998:1018   */\n      tag_45\n        /* \"#utility.yul\":1016:1017   */\n      dup3\n        /* \"#utility.yul\":998:1018   */\n      tag_28\n      jump\t// in\n    tag_45:\n        /* \"#utility.yul\":993:1018   */\n      swap2\n      pop\n        /* \"#utility.yul\":1032:1052   */\n      tag_46\n        /* \"#utility.yul\":1050:1051   */\n      dup4\n        /* \"#utility.yul\":1032:1052   */\n      tag_28\n      jump\t// in\n    tag_46:\n        /* \"#utility.yul\":1027:1052   */\n      swap3\n      pop\n        /* \"#utility.yul\":1087:1088   */\n      dup3\n        /* \"#utility.yul\":1084:1085   */\n      dup3\n        /* \"#utility.yul\":1080:1089   */\n      mul\n        /* \"#utility.yul\":1109:1139   */\n      tag_47\n        /* \"#utility.yul\":1127:1138   */\n      dup2\n        /* \"#utility.yul\":1109:1139   */\n      tag_28\n      jump\t// in\n    tag_47:\n        /* \"#utility.yul\":1098:1139   */\n      swap2\n      pop\n        /* \"#utility.yul\":1288:1289   */\n      dup3\n        /* \"#utility.yul\":1279:1286   */\n      dup3\n        /* \"#utility.yul\":1275:1290   */\n      div\n        /* \"#utility.yul\":1272:1273   */\n      dup5\n        /* \"#utility.yul\":1269:1291   */\n      eq\n        /* \"#utility.yul\":1249:1250   */\n      dup4\n        /* \"#utility.yul\":1242:1251   */\n      iszero\n        /* \"#utility.yul\":1222:1305   */\n      or\n        /* \"#utility.yul\":1199:1338   */\n      tag_48\n      jumpi\n        /* \"#utility.yul\":1318:1336   */\n      tag_49\n      tag_30\n      jump\t// in\n    tag_49:\n        /* \"#utility.yul\":1199:1338   */\n    tag_48:\n        /* \"#utility.yul\":983:1345   */\n      pop\n        /* \"#utility.yul\":935:1345   */\n      swap3\n      swap2\n      pop\n      pop\n      jump\t// out\n\n    auxdata: 0xa26469706673582212200f898a614d13f3e23699d92bc3c4685634f6892c5933743f83d7cd325292ad8264736f6c63430008160033\n}\n",
				"bytecode": {
					"linkReferences": {},
					"object": "608060405260015f5560018055348015610017575f80fd5b50610232806100255f395ff3fe608060405234801561000f575f80fd5b506004361061003f575f3560e01c80632b06cb2d1461004357806332e7c5bf14610062578063f446c1d01461006c575b5f80fd5b61004b610076565b604051610059929190610134565b60405180910390f35b61006a610085565b005b6100746100d2565b005b5f805f54600154915091509091565b600760015f8282546100979190610188565b92505081905550600260015f8282546100b091906101bb565b92505081905550600760015f8282546100c99190610188565b92505081905550565b60025f808282546100e391906101bb565b9250508190555060075f808282546100fb9190610188565b9250508190555060025f8082825461011391906101bb565b92505081905550565b5f819050919050565b61012e8161011c565b82525050565b5f6040820190506101475f830185610125565b6101546020830184610125565b9392505050565b7f4e487b71000000000000000000000000000000000000000000000000000000005f52601160045260245ffd5b5f6101928261011c565b915061019d8361011c565b92508282019050808211156101b5576101b461015b565b5b92915050565b5f6101c58261011c565b91506101d08361011c565b92508282026101de8161011c565b915082820484148315176101f5576101f461015b565b5b509291505056fea26469706673582212200f898a614d13f3e23699d92bc3c4685634f6892c5933743f83d7cd325292ad8264736f6c63430008160033",
					"opcodes": "PUSH1 0x80 PUSH1 0x40 MSTORE PUSH1 0x1 PUSH0 SSTORE PUSH1 0x1 DUP1 SSTORE CALLVALUE DUP1 ISZERO PUSH2 0x17 JUMPI PUSH0 DUP1 REVERT JUMPDEST POP PUSH2 0x232 DUP1 PUSH2 0x25 PUSH0 CODECOPY PUSH0 RETURN INVALID PUSH1 0x80 PUSH1 0x40 MSTORE CALLVALUE DUP1 ISZERO PUSH2 0xF JUMPI PUSH0 DUP1 REVERT JUMPDEST POP PUSH1 0x4 CALLDATASIZE LT PUSH2 0x3F JUMPI PUSH0 CALLDATALOAD PUSH1 0xE0 SHR DUP1 PUSH4 0x2B06CB2D EQ PUSH2 0x43 JUMPI DUP1 PUSH4 0x32E7C5BF EQ PUSH2 0x62 JUMPI DUP1 PUSH4 0xF446C1D0 EQ PUSH2 0x6C JUMPI JUMPDEST PUSH0 DUP1 REVERT JUMPDEST PUSH2 0x4B PUSH2 0x76 JUMP JUMPDEST PUSH1 0x40 MLOAD PUSH2 0x59 SWAP3 SWAP2 SWAP1 PUSH2 0x134 JUMP JUMPDEST PUSH1 0x40 MLOAD DUP1 SWAP2 SUB SWAP1 RETURN JUMPDEST PUSH2 0x6A PUSH2 0x85 JUMP JUMPDEST STOP JUMPDEST PUSH2 0x74 PUSH2 0xD2 JUMP JUMPDEST STOP JUMPDEST PUSH0 DUP1 PUSH0 SLOAD PUSH1 0x1 SLOAD SWAP2 POP SWAP2 POP SWAP1 SWAP2 JUMP JUMPDEST PUSH1 0x7 PUSH1 0x1 PUSH0 DUP3 DUP3 SLOAD PUSH2 0x97 SWAP2 SWAP1 PUSH2 0x188 JUMP JUMPDEST SWAP3 POP POP DUP2 SWAP1 SSTORE POP PUSH1 0x2 PUSH1 0x1 PUSH0 DUP3 DUP3 SLOAD PUSH2 0xB0 SWAP2 SWAP1 PUSH2 0x1BB JUMP JUMPDEST SWAP3 POP POP DUP2 SWAP1 SSTORE POP PUSH1 0x7 PUSH1 0x1 PUSH0 DUP3 DUP3 SLOAD PUSH2 0xC9 SWAP2 SWAP1 PUSH2 0x188 JUMP JUMPDEST SWAP3 POP POP DUP2 SWAP1 SSTORE POP JUMP JUMPDEST PUSH1 0x2 PUSH0 DUP1 DUP3 DUP3 SLOAD PUSH2 0xE3 SWAP2 SWAP1 PUSH2 0x1BB JUMP JUMPDEST SWAP3 POP POP DUP2 SWAP1 SSTORE POP PUSH1 0x7 PUSH0 DUP1 DUP3 DUP3 SLOAD PUSH2 0xFB SWAP2 SWAP1 PUSH2 0x188 JUMP JUMPDEST SWAP3 POP POP DUP2 SWAP1 SSTORE POP PUSH1 0x2 PUSH0 DUP1 DUP3 DUP3 SLOAD PUSH2 0x113 SWAP2 SWAP1 PUSH2 0x1BB JUMP JUMPDEST SWAP3 POP POP DUP2 SWAP1 SSTORE POP JUMP JUMPDEST PUSH0 DUP2 SWAP1 POP SWAP2 SWAP1 POP JUMP JUMPDEST PUSH2 0x12E DUP2 PUSH2 0x11C JUMP JUMPDEST DUP3 MSTORE POP POP JUMP JUMPDEST PUSH0 PUSH1 0x40 DUP3 ADD SWAP1 POP PUSH2 0x147 PUSH0 DUP4 ADD DUP6 PUSH2 0x125 JUMP JUMPDEST PUSH2 0x154 PUSH1 0x20 DUP4 ADD DUP5 PUSH2 0x125 JUMP JUMPDEST SWAP4 SWAP3 POP POP POP JUMP JUMPDEST PUSH32 0x4E487B7100000000000000000000000000000000000000000000000000000000 PUSH0 MSTORE PUSH1 0x11 PUSH1 0x4 MSTORE PUSH1 0x24 PUSH0 REVERT JUMPDEST PUSH0 PUSH2 0x192 DUP3 PUSH2 0x11C JUMP JUMPDEST SWAP2 POP PUSH2 0x19D DUP4 PUSH2 0x11C JUMP JUMPDEST SWAP3 POP DUP3 DUP3 ADD SWAP1 POP DUP1 DUP3 GT ISZERO PUSH2 0x1B5 JUMPI PUSH2 0x1B4 PUSH2 0x15B JUMP JUMPDEST JUMPDEST SWAP3 SWAP2 POP POP JUMP JUMPDEST PUSH0 PUSH2 0x1C5 DUP3 PUSH2 0x11C JUMP JUMPDEST SWAP2 POP PUSH2 0x1D0 DUP4 PUSH2 0x11C JUMP JUMPDEST SWAP3 POP DUP3 DUP3 MUL PUSH2 0x1DE DUP2 PUSH2 0x11C JUMP JUMPDEST SWAP2 POP DUP3 DUP3 DIV DUP5 EQ DUP4 ISZERO OR PUSH2 0x1F5 JUMPI PUSH2 0x1F4 PUSH2 0x15B JUMP JUMPDEST JUMPDEST POP SWAP3 SWAP2 POP POP JUMP INVALID LOG2 PUSH5 0x6970667358 0x22 SLT KECCAK256 0xF DUP10 DUP11 PUSH2 0x4D13 RETURN 0xE2 CALLDATASIZE SWAP10 0xD9 0x2B 0xC3 0xC4 PUSH9 0x5634F6892C5933743F DUP4 0xD7 0xCD ORIGIN MSTORE SWAP3 0xAD DUP3 PUSH5 0x736F6C6343 STOP ADDMOD AND STOP CALLER "
				},
				"gasEstimates": {
					"creation": {
						"codeDepositCost": "112400",
						"executionCost": "44368",
						"totalCost": "156768"
					},
					"external": {
						"A()": "infinite",
						"B()": "infinite",
						"getAB()": "infinite"
					}
				},
				"methodIdentifiers": {
					"A()": "f446c1d0",
					"B()": "32e7c5bf",
					"getAB()": "2b06cb2d"
				}
			},
			"storageLayout": {
				"storage": [
					{
						"astId": 57,
						"contract": "Modifier.sol:MODIFIER2",
						"label": "a",
						"offset": 0,
						"slot": "0",
						"type": "t_uint256"
					},
					{
						"astId": 60,
						"contract": "Modifier.sol:MODIFIER2",
						"label": "b",
						"offset": 0,
						"slot": "1",
						"type": "t_uint256"
					}
				],
				"types": {
					"t_uint256": {
						"encoding": "inplace",
						"label": "uint256",
						"numberOfBytes": "32"
					}
				}
			},
			"userdoc": {
				"kind": "user",
				"methods": {},
				"version": 1
			}
		}
	}
}