{
	"address_pointer.sol": {
		"DAD": {
			"abi": [
				{
					"inputs": [],
					"name": "a",
					"outputs": [
						{
							"internalType": "uint256",
							"name": "",
							"type": "uint256"
						}
					],
					"stateMutability": "view",
					"type": "function"
				},
				{
					"inputs": [
						{
							"internalType": "uint256",
							"name": "",
							"type": "uint256"
						}
					],
					"name": "b",
					"outputs": [
						{
							"internalType": "uint256",
							"name": "",
							"type": "uint256"
						}
					],
					"stateMutability": "view",
					"type": "function"
				},
				{
					"inputs": [],
					"name": "getAddress",
					"outputs": [
						{
							"internalType": "address",
							"name": "",
							"type": "address"
						}
					],
					"stateMutability": "view",
					"type": "function"
				},
				{
					"inputs": [
						{
							"internalType": "uint256",
							"name": "_n",
							"type": "uint256"
						}
					],
					"name": "setA",
					"outputs": [],
					"stateMutability": "nonpayable",
					"type": "function"
				},
				{
					"inputs": [
						{
							"internalType": "uint256[]",
							"name": "_b",
							"type": "uint256[]"
						}
					],
					"name": "setB",
					"outputs": [],
					"stateMutability": "nonpayable",
					"type": "function"
				}
			],
			"devdoc": {
				"kind": "dev",
				"methods": {},
				"version": 1
			},
			"evm": {
				"assembly": "    /* \"address_pointer.sol\":74:366  contract DAD {... */\n  mstore(0x40, 0x80)\n  callvalue\n  dup1\n  iszero\n  tag_1\n  jumpi\n  0x00\n  dup1\n  revert\ntag_1:\n  pop\n  dataSize(sub_0)\n  dup1\n  dataOffset(sub_0)\n  0x00\n  codecopy\n  0x00\n  return\nstop\n\nsub_0: assembly {\n        /* \"address_pointer.sol\":74:366  contract DAD {... */\n      mstore(0x40, 0x80)\n      callvalue\n      dup1\n      iszero\n      tag_1\n      jumpi\n      0x00\n      dup1\n      revert\n    tag_1:\n      pop\n      jumpi(tag_2, lt(calldatasize, 0x04))\n      shr(0xe0, calldataload(0x00))\n      dup1\n      0x0dbe671f\n      eq\n      tag_3\n      jumpi\n      dup1\n      0x38cc4831\n      eq\n      tag_4\n      jumpi\n      dup1\n      0x49282c4a\n      eq\n      tag_5\n      jumpi\n      dup1\n      0xcd580ff3\n      eq\n      tag_6\n      jumpi\n      dup1\n      0xee919d50\n      eq\n      tag_7\n      jumpi\n    tag_2:\n      0x00\n      dup1\n      revert\n        /* \"address_pointer.sol\":94:107  uint public a */\n    tag_3:\n      tag_8\n      tag_9\n      jump\t// in\n    tag_8:\n      mload(0x40)\n      tag_10\n      swap2\n      swap1\n      tag_11\n      jump\t// in\n    tag_10:\n      mload(0x40)\n      dup1\n      swap2\n      sub\n      swap1\n      return\n        /* \"address_pointer.sol\":138:228  function getAddress() public view returns(address) {... */\n    tag_4:\n      tag_12\n      tag_13\n      jump\t// in\n    tag_12:\n      mload(0x40)\n      tag_14\n      swap2\n      swap1\n      tag_15\n      jump\t// in\n    tag_14:\n      mload(0x40)\n      dup1\n      swap2\n      sub\n      swap1\n      return\n        /* \"address_pointer.sol\":299:363  function setB(uint[] memory _b) public {... */\n    tag_5:\n      tag_16\n      0x04\n      dup1\n      calldatasize\n      sub\n      dup2\n      add\n      swap1\n      tag_17\n      swap2\n      swap1\n      tag_18\n      jump\t// in\n    tag_17:\n      tag_19\n      jump\t// in\n    tag_16:\n      stop\n        /* \"address_pointer.sol\":114:129  uint[] public b */\n    tag_6:\n      tag_20\n      0x04\n      dup1\n      calldatasize\n      sub\n      dup2\n      add\n      swap1\n      tag_21\n      swap2\n      swap1\n      tag_22\n      jump\t// in\n    tag_21:\n      tag_23\n      jump\t// in\n    tag_20:\n      mload(0x40)\n      tag_24\n      swap2\n      swap1\n      tag_11\n      jump\t// in\n    tag_24:\n      mload(0x40)\n      dup1\n      swap2\n      sub\n      swap1\n      return\n        /* \"address_pointer.sol\":236:291  function setA(uint _n) public {... */\n    tag_7:\n      tag_25\n      0x04\n      dup1\n      calldatasize\n      sub\n      dup2\n      add\n      swap1\n      tag_26\n      swap2\n      swap1\n      tag_22\n      jump\t// in\n    tag_26:\n      tag_27\n      jump\t// in\n    tag_25:\n      stop\n        /* \"address_pointer.sol\":94:107  uint public a */\n    tag_9:\n      sload(0x00)\n      dup2\n      jump\t// out\n        /* \"address_pointer.sol\":138:228  function getAddress() public view returns(address) {... */\n    tag_13:\n        /* \"address_pointer.sol\":180:187  address */\n      0x00\n        /* \"address_pointer.sol\":215:219  this */\n      address\n        /* \"address_pointer.sol\":200:220  return address(this) */\n      swap1\n      pop\n        /* \"address_pointer.sol\":138:228  function getAddress() public view returns(address) {... */\n      swap1\n      jump\t// out\n        /* \"address_pointer.sol\":299:363  function setB(uint[] memory _b) public {... */\n    tag_19:\n        /* \"address_pointer.sol\":353:355  _b */\n      dup1\n        /* \"address_pointer.sol\":349:350  b */\n      0x01\n        /* \"address_pointer.sol\":349:355  b = _b */\n      swap1\n      dup1\n      mload\n      swap1\n      0x20\n      add\n      swap1\n      tag_30\n      swap3\n      swap2\n      swap1\n      tag_31\n      jump\t// in\n    tag_30:\n      pop\n        /* \"address_pointer.sol\":299:363  function setB(uint[] memory _b) public {... */\n      pop\n      jump\t// out\n        /* \"address_pointer.sol\":114:129  uint[] public b */\n    tag_23:\n      0x01\n      dup2\n      dup2\n      sload\n      dup2\n      lt\n      tag_32\n      jumpi\n      0x00\n      dup1\n      revert\n    tag_32:\n      swap1\n      0x00\n      mstore\n      keccak256(0x00, 0x20)\n      add\n      0x00\n      swap2\n      pop\n      swap1\n      pop\n      sload\n      dup2\n      jump\t// out\n        /* \"address_pointer.sol\":236:291  function setA(uint _n) public {... */\n    tag_27:\n        /* \"address_pointer.sol\":281:283  _n */\n      dup1\n        /* \"address_pointer.sol\":277:278  a */\n      0x00\n        /* \"address_pointer.sol\":277:283  a = _n */\n      dup2\n      swap1\n      sstore\n      pop\n        /* \"address_pointer.sol\":236:291  function setA(uint _n) public {... */\n      pop\n      jump\t// out\n    tag_31:\n      dup3\n      dup1\n      sload\n      dup3\n      dup3\n      sstore\n      swap1\n      0x00\n      mstore\n      keccak256(0x00, 0x20)\n      swap1\n      dup2\n      add\n      swap3\n      dup3\n      iszero\n      tag_35\n      jumpi\n      swap2\n      0x20\n      mul\n      dup3\n      add\n    tag_36:\n      dup3\n      dup2\n      gt\n      iszero\n      tag_37\n      jumpi\n      dup3\n      mload\n      dup3\n      sstore\n      swap2\n      0x20\n      add\n      swap2\n      swap1\n      0x01\n      add\n      swap1\n      jump(tag_36)\n    tag_37:\n    tag_35:\n      pop\n      swap1\n      pop\n      tag_38\n      swap2\n      swap1\n      tag_39\n      jump\t// in\n    tag_38:\n      pop\n      swap1\n      jump\t// out\n    tag_39:\n    tag_40:\n      dup1\n      dup3\n      gt\n      iszero\n      tag_41\n      jumpi\n      0x00\n      dup2\n      0x00\n      swap1\n      sstore\n      pop\n      0x01\n      add\n      jump(tag_40)\n    tag_41:\n      pop\n      swap1\n      jump\t// out\n        /* \"#utility.yul\":7:84   */\n    tag_42:\n        /* \"#utility.yul\":44:51   */\n      0x00\n        /* \"#utility.yul\":73:78   */\n      dup2\n        /* \"#utility.yul\":62:78   */\n      swap1\n      pop\n        /* \"#utility.yul\":7:84   */\n      swap2\n      swap1\n      pop\n      jump\t// out\n        /* \"#utility.yul\":90:208   */\n    tag_43:\n        /* \"#utility.yul\":177:201   */\n      tag_64\n        /* \"#utility.yul\":195:200   */\n      dup2\n        /* \"#utility.yul\":177:201   */\n      tag_42\n      jump\t// in\n    tag_64:\n        /* \"#utility.yul\":172:175   */\n      dup3\n        /* \"#utility.yul\":165:202   */\n      mstore\n        /* \"#utility.yul\":90:208   */\n      pop\n      pop\n      jump\t// out\n        /* \"#utility.yul\":214:436   */\n    tag_11:\n        /* \"#utility.yul\":307:311   */\n      0x00\n        /* \"#utility.yul\":345:347   */\n      0x20\n        /* \"#utility.yul\":334:343   */\n      dup3\n        /* \"#utility.yul\":330:348   */\n      add\n        /* \"#utility.yul\":322:348   */\n      swap1\n      pop\n        /* \"#utility.yul\":358:429   */\n      tag_66\n        /* \"#utility.yul\":426:427   */\n      0x00\n        /* \"#utility.yul\":415:424   */\n      dup4\n        /* \"#utility.yul\":411:428   */\n      add\n        /* \"#utility.yul\":402:408   */\n      dup5\n        /* \"#utility.yul\":358:429   */\n      tag_43\n      jump\t// in\n    tag_66:\n        /* \"#utility.yul\":214:436   */\n      swap3\n      swap2\n      pop\n      pop\n      jump\t// out\n        /* \"#utility.yul\":442:568   */\n    tag_44:\n        /* \"#utility.yul\":479:486   */\n      0x00\n        /* \"#utility.yul\":519:561   */\n      0xffffffffffffffffffffffffffffffffffffffff\n        /* \"#utility.yul\":512:517   */\n      dup3\n        /* \"#utility.yul\":508:562   */\n      and\n        /* \"#utility.yul\":497:562   */\n      swap1\n      pop\n        /* \"#utility.yul\":442:568   */\n      swap2\n      swap1\n      pop\n      jump\t// out\n        /* \"#utility.yul\":574:670   */\n    tag_45:\n        /* \"#utility.yul\":611:618   */\n      0x00\n        /* \"#utility.yul\":640:664   */\n      tag_69\n        /* \"#utility.yul\":658:663   */\n      dup3\n        /* \"#utility.yul\":640:664   */\n      tag_44\n      jump\t// in\n    tag_69:\n        /* \"#utility.yul\":629:664   */\n      swap1\n      pop\n        /* \"#utility.yul\":574:670   */\n      swap2\n      swap1\n      pop\n      jump\t// out\n        /* \"#utility.yul\":676:794   */\n    tag_46:\n        /* \"#utility.yul\":763:787   */\n      tag_71\n        /* \"#utility.yul\":781:786   */\n      dup2\n        /* \"#utility.yul\":763:787   */\n      tag_45\n      jump\t// in\n    tag_71:\n        /* \"#utility.yul\":758:761   */\n      dup3\n        /* \"#utility.yul\":751:788   */\n      mstore\n        /* \"#utility.yul\":676:794   */\n      pop\n      pop\n      jump\t// out\n        /* \"#utility.yul\":800:1022   */\n    tag_15:\n        /* \"#utility.yul\":893:897   */\n      0x00\n        /* \"#utility.yul\":931:933   */\n      0x20\n        /* \"#utility.yul\":920:929   */\n      dup3\n        /* \"#utility.yul\":916:934   */\n      add\n        /* \"#utility.yul\":908:934   */\n      swap1\n      pop\n        /* \"#utility.yul\":944:1015   */\n      tag_73\n        /* \"#utility.yul\":1012:1013   */\n      0x00\n        /* \"#utility.yul\":1001:1010   */\n      dup4\n        /* \"#utility.yul\":997:1014   */\n      add\n        /* \"#utility.yul\":988:994   */\n      dup5\n        /* \"#utility.yul\":944:1015   */\n      tag_46\n      jump\t// in\n    tag_73:\n        /* \"#utility.yul\":800:1022   */\n      swap3\n      swap2\n      pop\n      pop\n      jump\t// out\n        /* \"#utility.yul\":1028:1103   */\n    tag_47:\n        /* \"#utility.yul\":1061:1067   */\n      0x00\n        /* \"#utility.yul\":1094:1096   */\n      0x40\n        /* \"#utility.yul\":1088:1097   */\n      mload\n        /* \"#utility.yul\":1078:1097   */\n      swap1\n      pop\n        /* \"#utility.yul\":1028:1103   */\n      swap1\n      jump\t// out\n        /* \"#utility.yul\":1109:1226   */\n    tag_48:\n        /* \"#utility.yul\":1218:1219   */\n      0x00\n        /* \"#utility.yul\":1215:1216   */\n      dup1\n        /* \"#utility.yul\":1208:1220   */\n      revert\n        /* \"#utility.yul\":1232:1349   */\n    tag_49:\n        /* \"#utility.yul\":1341:1342   */\n      0x00\n        /* \"#utility.yul\":1338:1339   */\n      dup1\n        /* \"#utility.yul\":1331:1343   */\n      revert\n        /* \"#utility.yul\":1355:1472   */\n    tag_50:\n        /* \"#utility.yul\":1464:1465   */\n      0x00\n        /* \"#utility.yul\":1461:1462   */\n      dup1\n        /* \"#utility.yul\":1454:1466   */\n      revert\n        /* \"#utility.yul\":1478:1580   */\n    tag_51:\n        /* \"#utility.yul\":1519:1525   */\n      0x00\n        /* \"#utility.yul\":1570:1572   */\n      0x1f\n        /* \"#utility.yul\":1566:1573   */\n      not\n        /* \"#utility.yul\":1561:1563   */\n      0x1f\n        /* \"#utility.yul\":1554:1559   */\n      dup4\n        /* \"#utility.yul\":1550:1564   */\n      add\n        /* \"#utility.yul\":1546:1574   */\n      and\n        /* \"#utility.yul\":1536:1574   */\n      swap1\n      pop\n        /* \"#utility.yul\":1478:1580   */\n      swap2\n      swap1\n      pop\n      jump\t// out\n        /* \"#utility.yul\":1586:1766   */\n    tag_52:\n        /* \"#utility.yul\":1634:1711   */\n      0x4e487b7100000000000000000000000000000000000000000000000000000000\n        /* \"#utility.yul\":1631:1632   */\n      0x00\n        /* \"#utility.yul\":1624:1712   */\n      mstore\n        /* \"#utility.yul\":1731:1735   */\n      0x41\n        /* \"#utility.yul\":1728:1729   */\n      0x04\n        /* \"#utility.yul\":1721:1736   */\n      mstore\n        /* \"#utility.yul\":1755:1759   */\n      0x24\n        /* \"#utility.yul\":1752:1753   */\n      0x00\n        /* \"#utility.yul\":1745:1760   */\n      revert\n        /* \"#utility.yul\":1772:2053   */\n    tag_53:\n        /* \"#utility.yul\":1855:1882   */\n      tag_81\n        /* \"#utility.yul\":1877:1881   */\n      dup3\n        /* \"#utility.yul\":1855:1882   */\n      tag_51\n      jump\t// in\n    tag_81:\n        /* \"#utility.yul\":1847:1853   */\n      dup2\n        /* \"#utility.yul\":1843:1883   */\n      add\n        /* \"#utility.yul\":1985:1991   */\n      dup2\n        /* \"#utility.yul\":1973:1983   */\n      dup2\n        /* \"#utility.yul\":1970:1992   */\n      lt\n        /* \"#utility.yul\":1949:1967   */\n      0xffffffffffffffff\n        /* \"#utility.yul\":1937:1947   */\n      dup3\n        /* \"#utility.yul\":1934:1968   */\n      gt\n        /* \"#utility.yul\":1931:1993   */\n      or\n        /* \"#utility.yul\":1928:2016   */\n      iszero\n      tag_82\n      jumpi\n        /* \"#utility.yul\":1996:2014   */\n      tag_83\n      tag_52\n      jump\t// in\n    tag_83:\n        /* \"#utility.yul\":1928:2016   */\n    tag_82:\n        /* \"#utility.yul\":2036:2046   */\n      dup1\n        /* \"#utility.yul\":2032:2034   */\n      0x40\n        /* \"#utility.yul\":2025:2047   */\n      mstore\n        /* \"#utility.yul\":1815:2053   */\n      pop\n        /* \"#utility.yul\":1772:2053   */\n      pop\n      pop\n      jump\t// out\n        /* \"#utility.yul\":2059:2188   */\n    tag_54:\n        /* \"#utility.yul\":2093:2099   */\n      0x00\n        /* \"#utility.yul\":2120:2140   */\n      tag_85\n      tag_47\n      jump\t// in\n    tag_85:\n        /* \"#utility.yul\":2110:2140   */\n      swap1\n      pop\n        /* \"#utility.yul\":2149:2182   */\n      tag_86\n        /* \"#utility.yul\":2177:2181   */\n      dup3\n        /* \"#utility.yul\":2169:2175   */\n      dup3\n        /* \"#utility.yul\":2149:2182   */\n      tag_53\n      jump\t// in\n    tag_86:\n        /* \"#utility.yul\":2059:2188   */\n      swap2\n      swap1\n      pop\n      jump\t// out\n        /* \"#utility.yul\":2194:2505   */\n    tag_55:\n        /* \"#utility.yul\":2271:2275   */\n      0x00\n        /* \"#utility.yul\":2361:2379   */\n      0xffffffffffffffff\n        /* \"#utility.yul\":2353:2359   */\n      dup3\n        /* \"#utility.yul\":2350:2380   */\n      gt\n        /* \"#utility.yul\":2347:2403   */\n      iszero\n      tag_88\n      jumpi\n        /* \"#utility.yul\":2383:2401   */\n      tag_89\n      tag_52\n      jump\t// in\n    tag_89:\n        /* \"#utility.yul\":2347:2403   */\n    tag_88:\n        /* \"#utility.yul\":2433:2437   */\n      0x20\n        /* \"#utility.yul\":2425:2431   */\n      dup3\n        /* \"#utility.yul\":2421:2438   */\n      mul\n        /* \"#utility.yul\":2413:2438   */\n      swap1\n      pop\n        /* \"#utility.yul\":2493:2497   */\n      0x20\n        /* \"#utility.yul\":2487:2491   */\n      dup2\n        /* \"#utility.yul\":2483:2498   */\n      add\n        /* \"#utility.yul\":2475:2498   */\n      swap1\n      pop\n        /* \"#utility.yul\":2194:2505   */\n      swap2\n      swap1\n      pop\n      jump\t// out\n        /* \"#utility.yul\":2511:2628   */\n    tag_56:\n        /* \"#utility.yul\":2620:2621   */\n      0x00\n        /* \"#utility.yul\":2617:2618   */\n      dup1\n        /* \"#utility.yul\":2610:2622   */\n      revert\n        /* \"#utility.yul\":2634:2756   */\n    tag_57:\n        /* \"#utility.yul\":2707:2731   */\n      tag_92\n        /* \"#utility.yul\":2725:2730   */\n      dup2\n        /* \"#utility.yul\":2707:2731   */\n      tag_42\n      jump\t// in\n    tag_92:\n        /* \"#utility.yul\":2700:2705   */\n      dup2\n        /* \"#utility.yul\":2697:2732   */\n      eq\n        /* \"#utility.yul\":2687:2750   */\n      tag_93\n      jumpi\n        /* \"#utility.yul\":2746:2747   */\n      0x00\n        /* \"#utility.yul\":2743:2744   */\n      dup1\n        /* \"#utility.yul\":2736:2748   */\n      revert\n        /* \"#utility.yul\":2687:2750   */\n    tag_93:\n        /* \"#utility.yul\":2634:2756   */\n      pop\n      jump\t// out\n        /* \"#utility.yul\":2762:2901   */\n    tag_58:\n        /* \"#utility.yul\":2808:2813   */\n      0x00\n        /* \"#utility.yul\":2846:2852   */\n      dup2\n        /* \"#utility.yul\":2833:2853   */\n      calldataload\n        /* \"#utility.yul\":2824:2853   */\n      swap1\n      pop\n        /* \"#utility.yul\":2862:2895   */\n      tag_95\n        /* \"#utility.yul\":2889:2894   */\n      dup2\n        /* \"#utility.yul\":2862:2895   */\n      tag_57\n      jump\t// in\n    tag_95:\n        /* \"#utility.yul\":2762:2901   */\n      swap3\n      swap2\n      pop\n      pop\n      jump\t// out\n        /* \"#utility.yul\":2924:3634   */\n    tag_59:\n        /* \"#utility.yul\":3020:3025   */\n      0x00\n        /* \"#utility.yul\":3045:3126   */\n      tag_97\n        /* \"#utility.yul\":3061:3125   */\n      tag_98\n        /* \"#utility.yul\":3118:3124   */\n      dup5\n        /* \"#utility.yul\":3061:3125   */\n      tag_55\n      jump\t// in\n    tag_98:\n        /* \"#utility.yul\":3045:3126   */\n      tag_54\n      jump\t// in\n    tag_97:\n        /* \"#utility.yul\":3036:3126   */\n      swap1\n      pop\n        /* \"#utility.yul\":3146:3151   */\n      dup1\n        /* \"#utility.yul\":3175:3181   */\n      dup4\n        /* \"#utility.yul\":3168:3173   */\n      dup3\n        /* \"#utility.yul\":3161:3182   */\n      mstore\n        /* \"#utility.yul\":3209:3213   */\n      0x20\n        /* \"#utility.yul\":3202:3207   */\n      dup3\n        /* \"#utility.yul\":3198:3214   */\n      add\n        /* \"#utility.yul\":3191:3214   */\n      swap1\n      pop\n        /* \"#utility.yul\":3262:3266   */\n      0x20\n        /* \"#utility.yul\":3254:3260   */\n      dup5\n        /* \"#utility.yul\":3250:3267   */\n      mul\n        /* \"#utility.yul\":3242:3248   */\n      dup4\n        /* \"#utility.yul\":3238:3268   */\n      add\n        /* \"#utility.yul\":3291:3294   */\n      dup6\n        /* \"#utility.yul\":3283:3289   */\n      dup2\n        /* \"#utility.yul\":3280:3295   */\n      gt\n        /* \"#utility.yul\":3277:3399   */\n      iszero\n      tag_99\n      jumpi\n        /* \"#utility.yul\":3310:3389   */\n      tag_100\n      tag_56\n      jump\t// in\n    tag_100:\n        /* \"#utility.yul\":3277:3399   */\n    tag_99:\n        /* \"#utility.yul\":3425:3431   */\n      dup4\n        /* \"#utility.yul\":3408:3628   */\n    tag_101:\n        /* \"#utility.yul\":3442:3448   */\n      dup2\n        /* \"#utility.yul\":3437:3440   */\n      dup2\n        /* \"#utility.yul\":3434:3449   */\n      lt\n        /* \"#utility.yul\":3408:3628   */\n      iszero\n      tag_103\n      jumpi\n        /* \"#utility.yul\":3517:3520   */\n      dup1\n        /* \"#utility.yul\":3546:3583   */\n      tag_104\n        /* \"#utility.yul\":3579:3582   */\n      dup9\n        /* \"#utility.yul\":3567:3577   */\n      dup3\n        /* \"#utility.yul\":3546:3583   */\n      tag_58\n      jump\t// in\n    tag_104:\n        /* \"#utility.yul\":3541:3544   */\n      dup5\n        /* \"#utility.yul\":3534:3584   */\n      mstore\n        /* \"#utility.yul\":3613:3617   */\n      0x20\n        /* \"#utility.yul\":3608:3611   */\n      dup5\n        /* \"#utility.yul\":3604:3618   */\n      add\n        /* \"#utility.yul\":3597:3618   */\n      swap4\n      pop\n        /* \"#utility.yul\":3484:3628   */\n      pop\n        /* \"#utility.yul\":3468:3472   */\n      0x20\n        /* \"#utility.yul\":3463:3466   */\n      dup2\n        /* \"#utility.yul\":3459:3473   */\n      add\n        /* \"#utility.yul\":3452:3473   */\n      swap1\n      pop\n        /* \"#utility.yul\":3408:3628   */\n      jump(tag_101)\n    tag_103:\n        /* \"#utility.yul\":3412:3433   */\n      pop\n        /* \"#utility.yul\":3026:3634   */\n      pop\n      pop\n        /* \"#utility.yul\":2924:3634   */\n      swap4\n      swap3\n      pop\n      pop\n      pop\n      jump\t// out\n        /* \"#utility.yul\":3657:4027   */\n    tag_60:\n        /* \"#utility.yul\":3728:3733   */\n      0x00\n        /* \"#utility.yul\":3777:3780   */\n      dup3\n        /* \"#utility.yul\":3770:3774   */\n      0x1f\n        /* \"#utility.yul\":3762:3768   */\n      dup4\n        /* \"#utility.yul\":3758:3775   */\n      add\n        /* \"#utility.yul\":3754:3781   */\n      slt\n        /* \"#utility.yul\":3744:3866   */\n      tag_106\n      jumpi\n        /* \"#utility.yul\":3785:3864   */\n      tag_107\n      tag_50\n      jump\t// in\n    tag_107:\n        /* \"#utility.yul\":3744:3866   */\n    tag_106:\n        /* \"#utility.yul\":3902:3908   */\n      dup2\n        /* \"#utility.yul\":3889:3909   */\n      calldataload\n        /* \"#utility.yul\":3927:4021   */\n      tag_108\n        /* \"#utility.yul\":4017:4020   */\n      dup5\n        /* \"#utility.yul\":4009:4015   */\n      dup3\n        /* \"#utility.yul\":4002:4006   */\n      0x20\n        /* \"#utility.yul\":3994:4000   */\n      dup7\n        /* \"#utility.yul\":3990:4007   */\n      add\n        /* \"#utility.yul\":3927:4021   */\n      tag_59\n      jump\t// in\n    tag_108:\n        /* \"#utility.yul\":3918:4021   */\n      swap2\n      pop\n        /* \"#utility.yul\":3734:4027   */\n      pop\n        /* \"#utility.yul\":3657:4027   */\n      swap3\n      swap2\n      pop\n      pop\n      jump\t// out\n        /* \"#utility.yul\":4033:4572   */\n    tag_18:\n        /* \"#utility.yul\":4117:4123   */\n      0x00\n        /* \"#utility.yul\":4166:4168   */\n      0x20\n        /* \"#utility.yul\":4154:4163   */\n      dup3\n        /* \"#utility.yul\":4145:4152   */\n      dup5\n        /* \"#utility.yul\":4141:4164   */\n      sub\n        /* \"#utility.yul\":4137:4169   */\n      slt\n        /* \"#utility.yul\":4134:4253   */\n      iszero\n      tag_110\n      jumpi\n        /* \"#utility.yul\":4172:4251   */\n      tag_111\n      tag_48\n      jump\t// in\n    tag_111:\n        /* \"#utility.yul\":4134:4253   */\n    tag_110:\n        /* \"#utility.yul\":4320:4321   */\n      0x00\n        /* \"#utility.yul\":4309:4318   */\n      dup3\n        /* \"#utility.yul\":4305:4322   */\n      add\n        /* \"#utility.yul\":4292:4323   */\n      calldataload\n        /* \"#utility.yul\":4350:4368   */\n      0xffffffffffffffff\n        /* \"#utility.yul\":4342:4348   */\n      dup2\n        /* \"#utility.yul\":4339:4369   */\n      gt\n        /* \"#utility.yul\":4336:4453   */\n      iszero\n      tag_112\n      jumpi\n        /* \"#utility.yul\":4372:4451   */\n      tag_113\n      tag_49\n      jump\t// in\n    tag_113:\n        /* \"#utility.yul\":4336:4453   */\n    tag_112:\n        /* \"#utility.yul\":4477:4555   */\n      tag_114\n        /* \"#utility.yul\":4547:4554   */\n      dup5\n        /* \"#utility.yul\":4538:4544   */\n      dup3\n        /* \"#utility.yul\":4527:4536   */\n      dup6\n        /* \"#utility.yul\":4523:4545   */\n      add\n        /* \"#utility.yul\":4477:4555   */\n      tag_60\n      jump\t// in\n    tag_114:\n        /* \"#utility.yul\":4467:4555   */\n      swap2\n      pop\n        /* \"#utility.yul\":4263:4565   */\n      pop\n        /* \"#utility.yul\":4033:4572   */\n      swap3\n      swap2\n      pop\n      pop\n      jump\t// out\n        /* \"#utility.yul\":4578:4907   */\n    tag_22:\n        /* \"#utility.yul\":4637:4643   */\n      0x00\n        /* \"#utility.yul\":4686:4688   */\n      0x20\n        /* \"#utility.yul\":4674:4683   */\n      dup3\n        /* \"#utility.yul\":4665:4672   */\n      dup5\n        /* \"#utility.yul\":4661:4684   */\n      sub\n        /* \"#utility.yul\":4657:4689   */\n      slt\n        /* \"#utility.yul\":4654:4773   */\n      iszero\n      tag_116\n      jumpi\n        /* \"#utility.yul\":4692:4771   */\n      tag_117\n      tag_48\n      jump\t// in\n    tag_117:\n        /* \"#utility.yul\":4654:4773   */\n    tag_116:\n        /* \"#utility.yul\":4812:4813   */\n      0x00\n        /* \"#utility.yul\":4837:4890   */\n      tag_118\n        /* \"#utility.yul\":4882:4889   */\n      dup5\n        /* \"#utility.yul\":4873:4879   */\n      dup3\n        /* \"#utility.yul\":4862:4871   */\n      dup6\n        /* \"#utility.yul\":4858:4880   */\n      add\n        /* \"#utility.yul\":4837:4890   */\n      tag_58\n      jump\t// in\n    tag_118:\n        /* \"#utility.yul\":4827:4890   */\n      swap2\n      pop\n        /* \"#utility.yul\":4783:4900   */\n      pop\n        /* \"#utility.yul\":4578:4907   */\n      swap3\n      swap2\n      pop\n      pop\n      jump\t// out\n\n    auxdata: 0xa2646970667358221220885aa71fa0a9f969146ea6449ac701666711155005eba63413aa0640ac961e2c64736f6c63430008160033\n}\n",
				"bytecode": {
					"linkReferences": {},
					"object": "608060405234801561000f575f80fd5b5061046e8061001d5f395ff3fe608060405234801561000f575f80fd5b5060043610610055575f3560e01c80630dbe671f1461005957806338cc48311461007757806349282c4a14610095578063cd580ff3146100b1578063ee919d50146100e1575b5f80fd5b6100616100fd565b60405161006e91906101ca565b60405180910390f35b61007f610102565b60405161008c9190610222565b60405180910390f35b6100af60048036038101906100aa91906103c6565b610109565b005b6100cb60048036038101906100c6919061040d565b610123565b6040516100d891906101ca565b60405180910390f35b6100fb60048036038101906100f6919061040d565b610143565b005b5f5481565b5f30905090565b806001908051906020019061011f92919061014c565b5050565b60018181548110610132575f80fd5b905f5260205f20015f915090505481565b805f8190555050565b828054828255905f5260205f20908101928215610186579160200282015b8281111561018557825182559160200191906001019061016a565b5b5090506101939190610197565b5090565b5b808211156101ae575f815f905550600101610198565b5090565b5f819050919050565b6101c4816101b2565b82525050565b5f6020820190506101dd5f8301846101bb565b92915050565b5f73ffffffffffffffffffffffffffffffffffffffff82169050919050565b5f61020c826101e3565b9050919050565b61021c81610202565b82525050565b5f6020820190506102355f830184610213565b92915050565b5f604051905090565b5f80fd5b5f80fd5b5f80fd5b5f601f19601f8301169050919050565b7f4e487b71000000000000000000000000000000000000000000000000000000005f52604160045260245ffd5b61029682610250565b810181811067ffffffffffffffff821117156102b5576102b4610260565b5b80604052505050565b5f6102c761023b565b90506102d3828261028d565b919050565b5f67ffffffffffffffff8211156102f2576102f1610260565b5b602082029050602081019050919050565b5f80fd5b610310816101b2565b811461031a575f80fd5b50565b5f8135905061032b81610307565b92915050565b5f61034361033e846102d8565b6102be565b9050808382526020820190506020840283018581111561036657610365610303565b5b835b8181101561038f578061037b888261031d565b845260208401935050602081019050610368565b5050509392505050565b5f82601f8301126103ad576103ac61024c565b5b81356103bd848260208601610331565b91505092915050565b5f602082840312156103db576103da610244565b5b5f82013567ffffffffffffffff8111156103f8576103f7610248565b5b61040484828501610399565b91505092915050565b5f6020828403121561042257610421610244565b5b5f61042f8482850161031d565b9150509291505056fea2646970667358221220885aa71fa0a9f969146ea6449ac701666711155005eba63413aa0640ac961e2c64736f6c63430008160033",
					"opcodes": "PUSH1 0x80 PUSH1 0x40 MSTORE CALLVALUE DUP1 ISZERO PUSH2 0xF JUMPI PUSH0 DUP1 REVERT JUMPDEST POP PUSH2 0x46E DUP1 PUSH2 0x1D PUSH0 CODECOPY PUSH0 RETURN INVALID PUSH1 0x80 PUSH1 0x40 MSTORE CALLVALUE DUP1 ISZERO PUSH2 0xF JUMPI PUSH0 DUP1 REVERT JUMPDEST POP PUSH1 0x4 CALLDATASIZE LT PUSH2 0x55 JUMPI PUSH0 CALLDATALOAD PUSH1 0xE0 SHR DUP1 PUSH4 0xDBE671F EQ PUSH2 0x59 JUMPI DUP1 PUSH4 0x38CC4831 EQ PUSH2 0x77 JUMPI DUP1 PUSH4 0x49282C4A EQ PUSH2 0x95 JUMPI DUP1 PUSH4 0xCD580FF3 EQ PUSH2 0xB1 JUMPI DUP1 PUSH4 0xEE919D50 EQ PUSH2 0xE1 JUMPI JUMPDEST PUSH0 DUP1 REVERT JUMPDEST PUSH2 0x61 PUSH2 0xFD JUMP JUMPDEST PUSH1 0x40 MLOAD PUSH2 0x6E SWAP2 SWAP1 PUSH2 0x1CA JUMP JUMPDEST PUSH1 0x40 MLOAD DUP1 SWAP2 SUB SWAP1 RETURN JUMPDEST PUSH2 0x7F PUSH2 0x102 JUMP JUMPDEST PUSH1 0x40 MLOAD PUSH2 0x8C SWAP2 SWAP1 PUSH2 0x222 JUMP JUMPDEST PUSH1 0x40 MLOAD DUP1 SWAP2 SUB SWAP1 RETURN JUMPDEST PUSH2 0xAF PUSH1 0x4 DUP1 CALLDATASIZE SUB DUP2 ADD SWAP1 PUSH2 0xAA SWAP2 SWAP1 PUSH2 0x3C6 JUMP JUMPDEST PUSH2 0x109 JUMP JUMPDEST STOP JUMPDEST PUSH2 0xCB PUSH1 0x4 DUP1 CALLDATASIZE SUB DUP2 ADD SWAP1 PUSH2 0xC6 SWAP2 SWAP1 PUSH2 0x40D JUMP JUMPDEST PUSH2 0x123 JUMP JUMPDEST PUSH1 0x40 MLOAD PUSH2 0xD8 SWAP2 SWAP1 PUSH2 0x1CA JUMP JUMPDEST PUSH1 0x40 MLOAD DUP1 SWAP2 SUB SWAP1 RETURN JUMPDEST PUSH2 0xFB PUSH1 0x4 DUP1 CALLDATASIZE SUB DUP2 ADD SWAP1 PUSH2 0xF6 SWAP2 SWAP1 PUSH2 0x40D JUMP JUMPDEST PUSH2 0x143 JUMP JUMPDEST STOP JUMPDEST PUSH0 SLOAD DUP2 JUMP JUMPDEST PUSH0 ADDRESS SWAP1 POP SWAP1 JUMP JUMPDEST DUP1 PUSH1 0x1 SWAP1 DUP1 MLOAD SWAP1 PUSH1 0x20 ADD SWAP1 PUSH2 0x11F SWAP3 SWAP2 SWAP1 PUSH2 0x14C JUMP JUMPDEST POP POP JUMP JUMPDEST PUSH1 0x1 DUP2 DUP2 SLOAD DUP2 LT PUSH2 0x132 JUMPI PUSH0 DUP1 REVERT JUMPDEST SWAP1 PUSH0 MSTORE PUSH1 0x20 PUSH0 KECCAK256 ADD PUSH0 SWAP2 POP SWAP1 POP SLOAD DUP2 JUMP JUMPDEST DUP1 PUSH0 DUP2 SWAP1 SSTORE POP POP JUMP JUMPDEST DUP3 DUP1 SLOAD DUP3 DUP3 SSTORE SWAP1 PUSH0 MSTORE PUSH1 0x20 PUSH0 KECCAK256 SWAP1 DUP2 ADD SWAP3 DUP3 ISZERO PUSH2 0x186 JUMPI SWAP2 PUSH1 0x20 MUL DUP3 ADD JUMPDEST DUP3 DUP2 GT ISZERO PUSH2 0x185 JUMPI DUP3 MLOAD DUP3 SSTORE SWAP2 PUSH1 0x20 ADD SWAP2 SWAP1 PUSH1 0x1 ADD SWAP1 PUSH2 0x16A JUMP JUMPDEST JUMPDEST POP SWAP1 POP PUSH2 0x193 SWAP2 SWAP1 PUSH2 0x197 JUMP JUMPDEST POP SWAP1 JUMP JUMPDEST JUMPDEST DUP1 DUP3 GT ISZERO PUSH2 0x1AE JUMPI PUSH0 DUP2 PUSH0 SWAP1 SSTORE POP PUSH1 0x1 ADD PUSH2 0x198 JUMP JUMPDEST POP SWAP1 JUMP JUMPDEST PUSH0 DUP2 SWAP1 POP SWAP2 SWAP1 POP JUMP JUMPDEST PUSH2 0x1C4 DUP2 PUSH2 0x1B2 JUMP JUMPDEST DUP3 MSTORE POP POP JUMP JUMPDEST PUSH0 PUSH1 0x20 DUP3 ADD SWAP1 POP PUSH2 0x1DD PUSH0 DUP4 ADD DUP5 PUSH2 0x1BB JUMP JUMPDEST SWAP3 SWAP2 POP POP JUMP JUMPDEST PUSH0 PUSH20 0xFFFFFFFFFFFFFFFFFFFFFFFFFFFFFFFFFFFFFFFF DUP3 AND SWAP1 POP SWAP2 SWAP1 POP JUMP JUMPDEST PUSH0 PUSH2 0x20C DUP3 PUSH2 0x1E3 JUMP JUMPDEST SWAP1 POP SWAP2 SWAP1 POP JUMP JUMPDEST PUSH2 0x21C DUP2 PUSH2 0x202 JUMP JUMPDEST DUP3 MSTORE POP POP JUMP JUMPDEST PUSH0 PUSH1 0x20 DUP3 ADD SWAP1 POP PUSH2 0x235 PUSH0 DUP4 ADD DUP5 PUSH2 0x213 JUMP JUMPDEST SWAP3 SWAP2 POP POP JUMP JUMPDEST PUSH0 PUSH1 0x40 MLOAD SWAP1 POP SWAP1 JUMP JUMPDEST PUSH0 DUP1 REVERT JUMPDEST PUSH0 DUP1 REVERT JUMPDEST PUSH0 DUP1 REVERT JUMPDEST PUSH0 PUSH1 0x1F NOT PUSH1 0x1F DUP4 ADD AND SWAP1 POP SWAP2 SWAP1 POP JUMP JUMPDEST PUSH32 0x4E487B7100000000000000000000000000000000000000000000000000000000 PUSH0 MSTORE PUSH1 0x41 PUSH1 0x4 MSTORE PUSH1 0x24 PUSH0 REVERT JUMPDEST PUSH2 0x296 DUP3 PUSH2 0x250 JUMP JUMPDEST DUP2 ADD DUP2 DUP2 LT PUSH8 0xFFFFFFFFFFFFFFFF DUP3 GT OR ISZERO PUSH2 0x2B5 JUMPI PUSH2 0x2B4 PUSH2 0x260 JUMP JUMPDEST JUMPDEST DUP1 PUSH1 0x40 MSTORE POP POP POP JUMP JUMPDEST PUSH0 PUSH2 0x2C7 PUSH2 0x23B JUMP JUMPDEST SWAP1 POP PUSH2 0x2D3 DUP3 DUP3 PUSH2 0x28D JUMP JUMPDEST SWAP2 SWAP1 POP JUMP JUMPDEST PUSH0 PUSH8 0xFFFFFFFFFFFFFFFF DUP3 GT ISZERO PUSH2 0x2F2 JUMPI PUSH2 0x2F1 PUSH2 0x260 JUMP JUMPDEST JUMPDEST PUSH1 0x20 DUP3 MUL SWAP1 POP PUSH1 0x20 DUP2 ADD SWAP1 POP SWAP2 SWAP1 POP JUMP JUMPDEST PUSH0 DUP1 REVERT JUMPDEST PUSH2 0x310 DUP2 PUSH2 0x1B2 JUMP JUMPDEST DUP2 EQ PUSH2 0x31A JUMPI PUSH0 DUP1 REVERT JUMPDEST POP JUMP JUMPDEST PUSH0 DUP2 CALLDATALOAD SWAP1 POP PUSH2 0x32B DUP2 PUSH2 0x307 JUMP JUMPDEST SWAP3 SWAP2 POP POP JUMP JUMPDEST PUSH0 PUSH2 0x343 PUSH2 0x33E DUP5 PUSH2 0x2D8 JUMP JUMPDEST PUSH2 0x2BE JUMP JUMPDEST SWAP1 POP DUP1 DUP4 DUP3 MSTORE PUSH1 0x20 DUP3 ADD SWAP1 POP PUSH1 0x20 DUP5 MUL DUP4 ADD DUP6 DUP2 GT ISZERO PUSH2 0x366 JUMPI PUSH2 0x365 PUSH2 0x303 JUMP JUMPDEST JUMPDEST DUP4 JUMPDEST DUP2 DUP2 LT ISZERO PUSH2 0x38F JUMPI DUP1 PUSH2 0x37B DUP9 DUP3 PUSH2 0x31D JUMP JUMPDEST DUP5 MSTORE PUSH1 0x20 DUP5 ADD SWAP4 POP POP PUSH1 0x20 DUP2 ADD SWAP1 POP PUSH2 0x368 JUMP JUMPDEST POP POP POP SWAP4 SWAP3 POP POP POP JUMP JUMPDEST PUSH0 DUP3 PUSH1 0x1F DUP4 ADD SLT PUSH2 0x3AD JUMPI PUSH2 0x3AC PUSH2 0x24C JUMP JUMPDEST JUMPDEST DUP2 CALLDATALOAD PUSH2 0x3BD DUP5 DUP3 PUSH1 0x20 DUP7 ADD PUSH2 0x331 JUMP JUMPDEST SWAP2 POP POP SWAP3 SWAP2 POP POP JUMP JUMPDEST PUSH0 PUSH1 0x20 DUP3 DUP5 SUB SLT ISZERO PUSH2 0x3DB JUMPI PUSH2 0x3DA PUSH2 0x244 JUMP JUMPDEST JUMPDEST PUSH0 DUP3 ADD CALLDATALOAD PUSH8 0xFFFFFFFFFFFFFFFF DUP2 GT ISZERO PUSH2 0x3F8 JUMPI PUSH2 0x3F7 PUSH2 0x248 JUMP JUMPDEST JUMPDEST PUSH2 0x404 DUP5 DUP3 DUP6 ADD PUSH2 0x399 JUMP JUMPDEST SWAP2 POP POP SWAP3 SWAP2 POP POP JUMP JUMPDEST PUSH0 PUSH1 0x20 DUP3 DUP5 SUB SLT ISZERO PUSH2 0x422 JUMPI PUSH2 0x421 PUSH2 0x244 JUMP JUMPDEST JUMPDEST PUSH0 PUSH2 0x42F DUP5 DUP3 DUP6 ADD PUSH2 0x31D JUMP JUMPDEST SWAP2 POP POP SWAP3 SWAP2 POP POP JUMP INVALID LOG2 PUSH5 0x6970667358 0x22 SLT KECCAK256 DUP9 GAS 0xA7 0x1F LOG0 0xA9 0xF9 PUSH10 0x146EA6449AC701666711 ISZERO POP SDIV 0xEB 0xA6 CALLVALUE SGT 0xAA MOD BLOCKHASH 0xAC SWAP7 0x1E 0x2C PUSH5 0x736F6C6343 STOP ADDMOD AND STOP CALLER "
				},
				"gasEstimates": {
					"creation": {
						"codeDepositCost": "226800",
						"executionCost": "267",
						"totalCost": "227067"
					},
					"external": {
						"a()": "2402",
						"b(uint256)": "infinite",
						"getAddress()": "379",
						"setA(uint256)": "22580",
						"setB(uint256[])": "infinite"
					}
				},
				"methodIdentifiers": {
					"a()": "0dbe671f",
					"b(uint256)": "cd580ff3",
					"getAddress()": "38cc4831",
					"setA(uint256)": "ee919d50",
					"setB(uint256[])": "49282c4a"
				}
			},
			"storageLayout": {
				"storage": [
					{
						"astId": 3,
						"contract": "address_pointer.sol:DAD",
						"label": "a",
						"offset": 0,
						"slot": "0",
						"type": "t_uint256"
					},
					{
						"astId": 6,
						"contract": "address_pointer.sol:DAD",
						"label": "b",
						"offset": 0,
						"slot": "1",
						"type": "t_array(t_uint256)dyn_storage"
					}
				],
				"types": {
					"t_array(t_uint256)dyn_storage": {
						"base": "t_uint256",
						"encoding": "dynamic_array",
						"label": "uint256[]",
						"numberOfBytes": "32"
					},
					"t_uint256": {
						"encoding": "inplace",
						"label": "uint256",
						"numberOfBytes": "32"
					}
				}
			},
			"userdoc": {
				"kind": "user",
				"methods": {},
				"version": 1
			}
		}
	}
}