{
	"Practice_20231222_2.sol": {
		"Practice": {
			"abi": [
				{
					"inputs": [
						{
							"internalType": "uint256",
							"name": "_n",
							"type": "uint256"
						}
					],
					"name": "gerNumber",
					"outputs": [
						{
							"internalType": "uint256",
							"name": "",
							"type": "uint256"
						}
					],
					"stateMutability": "view",
					"type": "function"
				},
				{
					"inputs": [],
					"name": "getAverage",
					"outputs": [
						{
							"internalType": "uint256",
							"name": "",
							"type": "uint256"
						}
					],
					"stateMutability": "view",
					"type": "function"
				},
				{
					"inputs": [],
					"name": "getMultipleOf2",
					"outputs": [
						{
							"internalType": "uint256[5]",
							"name": "",
							"type": "uint256[5]"
						}
					],
					"stateMutability": "view",
					"type": "function"
				},
				{
					"inputs": [],
					"name": "getMultipleOf2_new",
					"outputs": [
						{
							"internalType": "uint256[]",
							"name": "",
							"type": "uint256[]"
						}
					],
					"stateMutability": "view",
					"type": "function"
				},
				{
					"inputs": [],
					"name": "getOddsCount",
					"outputs": [
						{
							"internalType": "uint256",
							"name": "",
							"type": "uint256"
						}
					],
					"stateMutability": "view",
					"type": "function"
				},
				{
					"inputs": [
						{
							"internalType": "uint256",
							"name": "_n",
							"type": "uint256"
						}
					],
					"name": "setNumber",
					"outputs": [],
					"stateMutability": "nonpayable",
					"type": "function"
				}
			],
			"devdoc": {
				"kind": "dev",
				"methods": {},
				"version": 1
			},
			"evm": {
				"assembly": "    /* \"Practice_20231222_2.sol\":74:1784  contract Practice {... */\n  mstore(0x40, 0x80)\n  callvalue\n  dup1\n  iszero\n  tag_1\n  jumpi\n  0x00\n  dup1\n  revert\ntag_1:\n  pop\n  dataSize(sub_0)\n  dup1\n  dataOffset(sub_0)\n  0x00\n  codecopy\n  0x00\n  return\nstop\n\nsub_0: assembly {\n        /* \"Practice_20231222_2.sol\":74:1784  contract Practice {... */\n      mstore(0x40, 0x80)\n      callvalue\n      dup1\n      iszero\n      tag_1\n      jumpi\n      0x00\n      dup1\n      revert\n    tag_1:\n      pop\n      jumpi(tag_2, lt(calldatasize, 0x04))\n      shr(0xe0, calldataload(0x00))\n      dup1\n      0x1834ae67\n      eq\n      tag_3\n      jumpi\n      dup1\n      0x21055acb\n      eq\n      tag_4\n      jumpi\n      dup1\n      0x3fb5c1cb\n      eq\n      tag_5\n      jumpi\n      dup1\n      0x7d3e4d9c\n      eq\n      tag_6\n      jumpi\n      dup1\n      0x7da07bc5\n      eq\n      tag_7\n      jumpi\n      dup1\n      0xfd3901fd\n      eq\n      tag_8\n      jumpi\n    tag_2:\n      0x00\n      dup1\n      revert\n        /* \"Practice_20231222_2.sol\":1421:1779  function getMultipleOf2_new() public view returns (uint[] memory) {... */\n    tag_3:\n      tag_9\n      tag_10\n      jump\t// in\n    tag_9:\n      mload(0x40)\n      tag_11\n      swap2\n      swap1\n      tag_12\n      jump\t// in\n    tag_11:\n      mload(0x40)\n      dup1\n      swap2\n      sub\n      swap1\n      return\n        /* \"Practice_20231222_2.sol\":430:645  function getAverage() public view returns (uint){... */\n    tag_4:\n      tag_13\n      tag_14\n      jump\t// in\n    tag_13:\n      mload(0x40)\n      tag_15\n      swap2\n      swap1\n      tag_16\n      jump\t// in\n    tag_15:\n      mload(0x40)\n      dup1\n      swap2\n      sub\n      swap1\n      return\n        /* \"Practice_20231222_2.sol\":122:323  function setNumber(uint _n) public  {... */\n    tag_5:\n      tag_17\n      0x04\n      dup1\n      calldatasize\n      sub\n      dup2\n      add\n      swap1\n      tag_18\n      swap2\n      swap1\n      tag_19\n      jump\t// in\n    tag_18:\n      tag_20\n      jump\t// in\n    tag_17:\n      stop\n        /* \"Practice_20231222_2.sol\":1172:1413  function getOddsCount() public view returns (uint) {... */\n    tag_6:\n      tag_21\n      tag_22\n      jump\t// in\n    tag_21:\n      mload(0x40)\n      tag_23\n      swap2\n      swap1\n      tag_16\n      jump\t// in\n    tag_23:\n      mload(0x40)\n      dup1\n      swap2\n      sub\n      swap1\n      return\n        /* \"Practice_20231222_2.sol\":331:422  function gerNumber(uint _n) public view returns(uint) {... */\n    tag_7:\n      tag_24\n      0x04\n      dup1\n      calldatasize\n      sub\n      dup2\n      add\n      swap1\n      tag_25\n      swap2\n      swap1\n      tag_19\n      jump\t// in\n    tag_25:\n      tag_26\n      jump\t// in\n    tag_24:\n      mload(0x40)\n      tag_27\n      swap2\n      swap1\n      tag_16\n      jump\t// in\n    tag_27:\n      mload(0x40)\n      dup1\n      swap2\n      sub\n      swap1\n      return\n        /* \"Practice_20231222_2.sol\":753:1164  function getMultipleOf2() public view returns (uint[5] memory) {... */\n    tag_8:\n      tag_28\n      tag_29\n      jump\t// in\n    tag_28:\n      mload(0x40)\n      tag_30\n      swap2\n      swap1\n      tag_31\n      jump\t// in\n    tag_30:\n      mload(0x40)\n      dup1\n      swap2\n      sub\n      swap1\n      return\n        /* \"Practice_20231222_2.sol\":1421:1779  function getMultipleOf2_new() public view returns (uint[] memory) {... */\n    tag_10:\n        /* \"Practice_20231222_2.sol\":1472:1485  uint[] memory */\n      0x60\n        /* \"Practice_20231222_2.sol\":1498:1516  uint[] memory odds */\n      0x00\n        /* \"Practice_20231222_2.sol\":1530:1544  getOddsCount() */\n      tag_33\n        /* \"Practice_20231222_2.sol\":1530:1542  getOddsCount */\n      tag_22\n        /* \"Practice_20231222_2.sol\":1530:1544  getOddsCount() */\n      jump\t// in\n    tag_33:\n        /* \"Practice_20231222_2.sol\":1519:1545  new uint[](getOddsCount()) */\n      0xffffffffffffffff\n      dup2\n      gt\n      iszero\n      tag_34\n      jumpi\n      tag_35\n      tag_36\n      jump\t// in\n    tag_35:\n    tag_34:\n      mload(0x40)\n      swap1\n      dup1\n      dup3\n      mstore\n      dup1\n      0x20\n      mul\n      0x20\n      add\n      dup3\n      add\n      0x40\n      mstore\n      dup1\n      iszero\n      tag_37\n      jumpi\n      dup2\n      0x20\n      add\n      0x20\n      dup3\n      mul\n      dup1\n      calldatasize\n      dup4\n      calldatacopy\n      dup1\n      dup3\n      add\n      swap2\n      pop\n      pop\n      swap1\n      pop\n    tag_37:\n      pop\n        /* \"Practice_20231222_2.sol\":1498:1545  uint[] memory odds = new uint[](getOddsCount()) */\n      swap1\n      pop\n        /* \"Practice_20231222_2.sol\":1556:1566  uint index */\n      0x00\n        /* \"Practice_20231222_2.sol\":1583:1589  uint i */\n      dup1\n        /* \"Practice_20231222_2.sol\":1590:1591  0 */\n      0x00\n        /* \"Practice_20231222_2.sol\":1583:1591  uint i=0 */\n      swap1\n      pop\n        /* \"Practice_20231222_2.sol\":1579:1750  for(uint i=0; i < numbers.length; i++){... */\n    tag_38:\n        /* \"Practice_20231222_2.sol\":1597:1604  numbers */\n      0x00\n        /* \"Practice_20231222_2.sol\":1597:1611  numbers.length */\n      dup1\n      sload\n      swap1\n      pop\n        /* \"Practice_20231222_2.sol\":1593:1594  i */\n      dup2\n        /* \"Practice_20231222_2.sol\":1593:1611  i < numbers.length */\n      lt\n        /* \"Practice_20231222_2.sol\":1579:1750  for(uint i=0; i < numbers.length; i++){... */\n      iszero\n      tag_39\n      jumpi\n        /* \"Practice_20231222_2.sol\":1652:1653  0 */\n      0x00\n        /* \"Practice_20231222_2.sol\":1647:1648  2 */\n      0x02\n        /* \"Practice_20231222_2.sol\":1636:1643  numbers */\n      0x00\n        /* \"Practice_20231222_2.sol\":1644:1645  i */\n      dup4\n        /* \"Practice_20231222_2.sol\":1636:1646  numbers[i] */\n      dup2\n      sload\n      dup2\n      lt\n      tag_41\n      jumpi\n      tag_42\n      tag_43\n      jump\t// in\n    tag_42:\n    tag_41:\n      swap1\n      0x00\n      mstore\n      keccak256(0x00, 0x20)\n      add\n      sload\n        /* \"Practice_20231222_2.sol\":1636:1648  numbers[i]%2 */\n      tag_45\n      swap2\n      swap1\n      tag_46\n      jump\t// in\n    tag_45:\n        /* \"Practice_20231222_2.sol\":1636:1653  numbers[i]%2 == 0 */\n      sub\n        /* \"Practice_20231222_2.sol\":1632:1739  if( numbers[i]%2 == 0){... */\n      tag_47\n      jumpi\n        /* \"Practice_20231222_2.sol\":1687:1694  numbers */\n      0x00\n        /* \"Practice_20231222_2.sol\":1695:1696  i */\n      dup2\n        /* \"Practice_20231222_2.sol\":1687:1697  numbers[i] */\n      dup2\n      sload\n      dup2\n      lt\n      tag_48\n      jumpi\n      tag_49\n      tag_43\n      jump\t// in\n    tag_49:\n    tag_48:\n      swap1\n      0x00\n      mstore\n      keccak256(0x00, 0x20)\n      add\n      sload\n        /* \"Practice_20231222_2.sol\":1673:1677  odds */\n      dup4\n        /* \"Practice_20231222_2.sol\":1678:1683  index */\n      dup4\n        /* \"Practice_20231222_2.sol\":1673:1684  odds[index] */\n      dup2\n      mload\n      dup2\n      lt\n      tag_51\n      jumpi\n      tag_52\n      tag_43\n      jump\t// in\n    tag_52:\n    tag_51:\n      0x20\n      mul\n      0x20\n      add\n      add\n        /* \"Practice_20231222_2.sol\":1673:1697  odds[index] = numbers[i] */\n      dup2\n      dup2\n      mstore\n      pop\n      pop\n        /* \"Practice_20231222_2.sol\":1716:1723  index++ */\n      dup2\n      dup1\n      tag_53\n      swap1\n      tag_54\n      jump\t// in\n    tag_53:\n      swap3\n      pop\n      pop\n        /* \"Practice_20231222_2.sol\":1632:1739  if( numbers[i]%2 == 0){... */\n    tag_47:\n        /* \"Practice_20231222_2.sol\":1613:1616  i++ */\n      dup1\n      dup1\n      0x01\n      add\n      swap2\n      pop\n      pop\n        /* \"Practice_20231222_2.sol\":1579:1750  for(uint i=0; i < numbers.length; i++){... */\n      jump(tag_38)\n    tag_39:\n      pop\n        /* \"Practice_20231222_2.sol\":1767:1771  odds */\n      dup2\n        /* \"Practice_20231222_2.sol\":1760:1771  return odds */\n      swap3\n      pop\n      pop\n      pop\n        /* \"Practice_20231222_2.sol\":1421:1779  function getMultipleOf2_new() public view returns (uint[] memory) {... */\n      swap1\n      jump\t// out\n        /* \"Practice_20231222_2.sol\":430:645  function getAverage() public view returns (uint){... */\n    tag_14:\n        /* \"Practice_20231222_2.sol\":473:477  uint */\n      0x00\n        /* \"Practice_20231222_2.sol\":489:499  uint total */\n      dup1\n        /* \"Practice_20231222_2.sol\":502:503  0 */\n      0x00\n        /* \"Practice_20231222_2.sol\":489:503  uint total = 0 */\n      swap1\n      pop\n        /* \"Practice_20231222_2.sol\":518:524  uint i */\n      0x00\n        /* \"Practice_20231222_2.sol\":514:598  for(uint i = 0; i < numbers.length; i++){... */\n    tag_56:\n        /* \"Practice_20231222_2.sol\":534:541  numbers */\n      0x00\n        /* \"Practice_20231222_2.sol\":534:548  numbers.length */\n      dup1\n      sload\n      swap1\n      pop\n        /* \"Practice_20231222_2.sol\":530:531  i */\n      dup2\n        /* \"Practice_20231222_2.sol\":530:548  i < numbers.length */\n      lt\n        /* \"Practice_20231222_2.sol\":514:598  for(uint i = 0; i < numbers.length; i++){... */\n      iszero\n      tag_57\n      jumpi\n        /* \"Practice_20231222_2.sol\":578:585  numbers */\n      0x00\n        /* \"Practice_20231222_2.sol\":586:587  i */\n      dup2\n        /* \"Practice_20231222_2.sol\":578:588  numbers[i] */\n      dup2\n      sload\n      dup2\n      lt\n      tag_59\n      jumpi\n      tag_60\n      tag_43\n      jump\t// in\n    tag_60:\n    tag_59:\n      swap1\n      0x00\n      mstore\n      keccak256(0x00, 0x20)\n      add\n      sload\n        /* \"Practice_20231222_2.sol\":569:588  total += numbers[i] */\n      dup3\n      tag_62\n      swap2\n      swap1\n      tag_63\n      jump\t// in\n    tag_62:\n      swap2\n      pop\n        /* \"Practice_20231222_2.sol\":550:553  i++ */\n      dup1\n      dup1\n      0x01\n      add\n      swap2\n      pop\n      pop\n        /* \"Practice_20231222_2.sol\":514:598  for(uint i = 0; i < numbers.length; i++){... */\n      jump(tag_56)\n    tag_57:\n      pop\n        /* \"Practice_20231222_2.sol\":623:630  numbers */\n      0x00\n        /* \"Practice_20231222_2.sol\":623:637  numbers.length */\n      dup1\n      sload\n      swap1\n      pop\n        /* \"Practice_20231222_2.sol\":615:620  total */\n      dup2\n        /* \"Practice_20231222_2.sol\":615:637  total / numbers.length */\n      tag_64\n      swap2\n      swap1\n      tag_65\n      jump\t// in\n    tag_64:\n        /* \"Practice_20231222_2.sol\":608:637  return total / numbers.length */\n      swap2\n      pop\n      pop\n        /* \"Practice_20231222_2.sol\":430:645  function getAverage() public view returns (uint){... */\n      swap1\n      jump\t// out\n        /* \"Practice_20231222_2.sol\":122:323  function setNumber(uint _n) public  {... */\n    tag_20:\n        /* \"Practice_20231222_2.sol\":169:235  while(numbers.length != 0){... */\n    tag_67:\n        /* \"Practice_20231222_2.sol\":193:194  0 */\n      0x00\n        /* \"Practice_20231222_2.sol\":175:182  numbers */\n      dup1\n        /* \"Practice_20231222_2.sol\":175:189  numbers.length */\n      dup1\n      sload\n      swap1\n      pop\n        /* \"Practice_20231222_2.sol\":175:194  numbers.length != 0 */\n      eq\n        /* \"Practice_20231222_2.sol\":169:235  while(numbers.length != 0){... */\n      tag_68\n      jumpi\n        /* \"Practice_20231222_2.sol\":210:217  numbers */\n      0x00\n        /* \"Practice_20231222_2.sol\":210:223  numbers.pop() */\n      dup1\n      sload\n      dup1\n      tag_69\n      jumpi\n      tag_70\n      tag_71\n      jump\t// in\n    tag_70:\n    tag_69:\n      0x01\n      swap1\n      sub\n      dup2\n      dup2\n      swap1\n      0x00\n      mstore\n      keccak256(0x00, 0x20)\n      add\n      0x00\n      swap1\n      sstore\n      swap1\n      sstore\n        /* \"Practice_20231222_2.sol\":169:235  while(numbers.length != 0){... */\n      jump(tag_67)\n    tag_68:\n        /* \"Practice_20231222_2.sol\":251:257  uint i */\n      0x00\n        /* \"Practice_20231222_2.sol\":258:259  1 */\n      0x01\n        /* \"Practice_20231222_2.sol\":251:259  uint i=1 */\n      swap1\n      pop\n        /* \"Practice_20231222_2.sol\":247:316  for(uint i=1; i <= _n; i++){... */\n    tag_73:\n        /* \"Practice_20231222_2.sol\":266:268  _n */\n      dup2\n        /* \"Practice_20231222_2.sol\":261:262  i */\n      dup2\n        /* \"Practice_20231222_2.sol\":261:268  i <= _n */\n      gt\n        /* \"Practice_20231222_2.sol\":247:316  for(uint i=1; i <= _n; i++){... */\n      tag_74\n      jumpi\n        /* \"Practice_20231222_2.sol\":289:296  numbers */\n      0x00\n        /* \"Practice_20231222_2.sol\":302:303  i */\n      dup2\n        /* \"Practice_20231222_2.sol\":289:304  numbers.push(i) */\n      swap1\n      dup1\n      0x01\n      dup2\n      sload\n      add\n      dup1\n      dup3\n      sstore\n      dup1\n      swap2\n      pop\n      pop\n      0x01\n      swap1\n      sub\n      swap1\n      0x00\n      mstore\n      keccak256(0x00, 0x20)\n      add\n      0x00\n      swap1\n      swap2\n      swap1\n      swap2\n      swap1\n      swap2\n      pop\n      sstore\n        /* \"Practice_20231222_2.sol\":270:273  i++ */\n      dup1\n      dup1\n      tag_77\n      swap1\n      tag_54\n      jump\t// in\n    tag_77:\n      swap2\n      pop\n      pop\n        /* \"Practice_20231222_2.sol\":247:316  for(uint i=1; i <= _n; i++){... */\n      jump(tag_73)\n    tag_74:\n      pop\n        /* \"Practice_20231222_2.sol\":122:323  function setNumber(uint _n) public  {... */\n      pop\n      jump\t// out\n        /* \"Practice_20231222_2.sol\":1172:1413  function getOddsCount() public view returns (uint) {... */\n    tag_22:\n        /* \"Practice_20231222_2.sol\":1217:1221  uint */\n      0x00\n        /* \"Practice_20231222_2.sol\":1234:1244  uint index */\n      dup1\n        /* \"Practice_20231222_2.sol\":1259:1265  uint i */\n      0x00\n        /* \"Practice_20231222_2.sol\":1255:1383  for(uint i=0; i < numbers.length; i++){... */\n    tag_79:\n        /* \"Practice_20231222_2.sol\":1273:1280  numbers */\n      0x00\n        /* \"Practice_20231222_2.sol\":1273:1287  numbers.length */\n      dup1\n      sload\n      swap1\n      pop\n        /* \"Practice_20231222_2.sol\":1269:1270  i */\n      dup2\n        /* \"Practice_20231222_2.sol\":1269:1287  i < numbers.length */\n      lt\n        /* \"Practice_20231222_2.sol\":1255:1383  for(uint i=0; i < numbers.length; i++){... */\n      iszero\n      tag_80\n      jumpi\n        /* \"Practice_20231222_2.sol\":1328:1329  0 */\n      0x00\n        /* \"Practice_20231222_2.sol\":1323:1324  2 */\n      0x02\n        /* \"Practice_20231222_2.sol\":1312:1319  numbers */\n      0x00\n        /* \"Practice_20231222_2.sol\":1320:1321  i */\n      dup4\n        /* \"Practice_20231222_2.sol\":1312:1322  numbers[i] */\n      dup2\n      sload\n      dup2\n      lt\n      tag_82\n      jumpi\n      tag_83\n      tag_43\n      jump\t// in\n    tag_83:\n    tag_82:\n      swap1\n      0x00\n      mstore\n      keccak256(0x00, 0x20)\n      add\n      sload\n        /* \"Practice_20231222_2.sol\":1312:1324  numbers[i]%2 */\n      tag_85\n      swap2\n      swap1\n      tag_46\n      jump\t// in\n    tag_85:\n        /* \"Practice_20231222_2.sol\":1312:1329  numbers[i]%2 == 0 */\n      sub\n        /* \"Practice_20231222_2.sol\":1308:1372  if( numbers[i]%2 == 0){... */\n      tag_86\n      jumpi\n        /* \"Practice_20231222_2.sol\":1349:1356  index++ */\n      dup2\n      dup1\n      tag_87\n      swap1\n      tag_54\n      jump\t// in\n    tag_87:\n      swap3\n      pop\n      pop\n        /* \"Practice_20231222_2.sol\":1308:1372  if( numbers[i]%2 == 0){... */\n    tag_86:\n        /* \"Practice_20231222_2.sol\":1289:1292  i++ */\n      dup1\n      dup1\n      0x01\n      add\n      swap2\n      pop\n      pop\n        /* \"Practice_20231222_2.sol\":1255:1383  for(uint i=0; i < numbers.length; i++){... */\n      jump(tag_79)\n    tag_80:\n      pop\n        /* \"Practice_20231222_2.sol\":1400:1405  index */\n      dup1\n        /* \"Practice_20231222_2.sol\":1393:1405  return index */\n      swap2\n      pop\n      pop\n        /* \"Practice_20231222_2.sol\":1172:1413  function getOddsCount() public view returns (uint) {... */\n      swap1\n      jump\t// out\n        /* \"Practice_20231222_2.sol\":331:422  function gerNumber(uint _n) public view returns(uint) {... */\n    tag_26:\n        /* \"Practice_20231222_2.sol\":379:383  uint */\n      0x00\n        /* \"Practice_20231222_2.sol\":403:410  numbers */\n      dup1\n        /* \"Practice_20231222_2.sol\":411:413  _n */\n      dup3\n        /* \"Practice_20231222_2.sol\":403:414  numbers[_n] */\n      dup2\n      sload\n      dup2\n      lt\n      tag_89\n      jumpi\n      tag_90\n      tag_43\n      jump\t// in\n    tag_90:\n    tag_89:\n      swap1\n      0x00\n      mstore\n      keccak256(0x00, 0x20)\n      add\n      sload\n        /* \"Practice_20231222_2.sol\":396:414  return numbers[_n] */\n      swap1\n      pop\n        /* \"Practice_20231222_2.sol\":331:422  function gerNumber(uint _n) public view returns(uint) {... */\n      swap2\n      swap1\n      pop\n      jump\t// out\n        /* \"Practice_20231222_2.sol\":753:1164  function getMultipleOf2() public view returns (uint[5] memory) {... */\n    tag_29:\n        /* \"Practice_20231222_2.sol\":800:814  uint[5] memory */\n      tag_92\n      tag_93\n      jump\t// in\n    tag_92:\n        /* \"Practice_20231222_2.sol\":827:849  uint[5] memory results */\n      tag_95\n      tag_93\n      jump\t// in\n    tag_95:\n        /* \"Practice_20231222_2.sol\":860:868  uint seq */\n      0x00\n        /* \"Practice_20231222_2.sol\":885:891  uint i */\n      dup1\n        /* \"Practice_20231222_2.sol\":892:893  0 */\n      0x00\n        /* \"Practice_20231222_2.sol\":885:893  uint i=0 */\n      swap1\n      pop\n        /* \"Practice_20231222_2.sol\":881:1130  for(uint i=0; i < numbers.length; i++){... */\n    tag_96:\n        /* \"Practice_20231222_2.sol\":899:906  numbers */\n      0x00\n        /* \"Practice_20231222_2.sol\":899:913  numbers.length */\n      dup1\n      sload\n      swap1\n      pop\n        /* \"Practice_20231222_2.sol\":895:896  i */\n      dup2\n        /* \"Practice_20231222_2.sol\":895:913  i < numbers.length */\n      lt\n        /* \"Practice_20231222_2.sol\":881:1130  for(uint i=0; i < numbers.length; i++){... */\n      iszero\n      tag_97\n      jumpi\n        /* \"Practice_20231222_2.sol\":954:955  0 */\n      0x00\n        /* \"Practice_20231222_2.sol\":949:950  2 */\n      0x02\n        /* \"Practice_20231222_2.sol\":938:945  numbers */\n      0x00\n        /* \"Practice_20231222_2.sol\":946:947  i */\n      dup4\n        /* \"Practice_20231222_2.sol\":938:948  numbers[i] */\n      dup2\n      sload\n      dup2\n      lt\n      tag_99\n      jumpi\n      tag_100\n      tag_43\n      jump\t// in\n    tag_100:\n    tag_99:\n      swap1\n      0x00\n      mstore\n      keccak256(0x00, 0x20)\n      add\n      sload\n        /* \"Practice_20231222_2.sol\":938:950  numbers[i]%2 */\n      tag_102\n      swap2\n      swap1\n      tag_46\n      jump\t// in\n    tag_102:\n        /* \"Practice_20231222_2.sol\":938:955  numbers[i]%2 == 0 */\n      sub\n        /* \"Practice_20231222_2.sol\":934:1040  if( numbers[i]%2 == 0){... */\n      tag_103\n      jumpi\n        /* \"Practice_20231222_2.sol\":990:997  numbers */\n      0x00\n        /* \"Practice_20231222_2.sol\":998:999  i */\n      dup2\n        /* \"Practice_20231222_2.sol\":990:1000  numbers[i] */\n      dup2\n      sload\n      dup2\n      lt\n      tag_104\n      jumpi\n      tag_105\n      tag_43\n      jump\t// in\n    tag_105:\n    tag_104:\n      swap1\n      0x00\n      mstore\n      keccak256(0x00, 0x20)\n      add\n      sload\n        /* \"Practice_20231222_2.sol\":975:982  results */\n      dup4\n        /* \"Practice_20231222_2.sol\":983:986  seq */\n      dup4\n        /* \"Practice_20231222_2.sol\":975:987  results[seq] */\n      0x05\n      dup2\n      lt\n      tag_107\n      jumpi\n      tag_108\n      tag_43\n      jump\t// in\n    tag_108:\n    tag_107:\n      0x20\n      mul\n      add\n        /* \"Practice_20231222_2.sol\":975:1000  results[seq] = numbers[i] */\n      dup2\n      dup2\n      mstore\n      pop\n      pop\n        /* \"Practice_20231222_2.sol\":1019:1024  seq++ */\n      dup2\n      dup1\n      tag_109\n      swap1\n      tag_54\n      jump\t// in\n    tag_109:\n      swap3\n      pop\n      pop\n        /* \"Practice_20231222_2.sol\":934:1040  if( numbers[i]%2 == 0){... */\n    tag_103:\n        /* \"Practice_20231222_2.sol\":1064:1078  results.length */\n      0x05\n        /* \"Practice_20231222_2.sol\":1057:1060  seq */\n      dup3\n        /* \"Practice_20231222_2.sol\":1057:1078  seq >= results.length */\n      lt\n        /* \"Practice_20231222_2.sol\":1054:1119  if(seq >= results.length){... */\n      iszero\n        /* \"Practice_20231222_2.sol\":1098:1103  break */\n      tag_97\n        /* \"Practice_20231222_2.sol\":1054:1119  if(seq >= results.length){... */\n      jumpi\n        /* \"Practice_20231222_2.sol\":915:918  i++ */\n      dup1\n      dup1\n      0x01\n      add\n      swap2\n      pop\n      pop\n        /* \"Practice_20231222_2.sol\":881:1130  for(uint i=0; i < numbers.length; i++){... */\n      jump(tag_96)\n    tag_97:\n      pop\n        /* \"Practice_20231222_2.sol\":1149:1156  results */\n      dup2\n        /* \"Practice_20231222_2.sol\":1142:1156  return results */\n      swap3\n      pop\n      pop\n      pop\n        /* \"Practice_20231222_2.sol\":753:1164  function getMultipleOf2() public view returns (uint[5] memory) {... */\n      swap1\n      jump\t// out\n    tag_93:\n      mload(0x40)\n      dup1\n      0xa0\n      add\n      0x40\n      mstore\n      dup1\n      0x05\n      swap1\n      0x20\n      dup3\n      mul\n      dup1\n      calldatasize\n      dup4\n      calldatacopy\n      dup1\n      dup3\n      add\n      swap2\n      pop\n      pop\n      swap1\n      pop\n      pop\n      swap1\n      jump\t// out\n        /* \"#utility.yul\":7:121   */\n    tag_111:\n        /* \"#utility.yul\":74:80   */\n      0x00\n        /* \"#utility.yul\":108:113   */\n      dup2\n        /* \"#utility.yul\":102:114   */\n      mload\n        /* \"#utility.yul\":92:114   */\n      swap1\n      pop\n        /* \"#utility.yul\":7:121   */\n      swap2\n      swap1\n      pop\n      jump\t// out\n        /* \"#utility.yul\":127:311   */\n    tag_112:\n        /* \"#utility.yul\":226:237   */\n      0x00\n        /* \"#utility.yul\":260:266   */\n      dup3\n        /* \"#utility.yul\":255:258   */\n      dup3\n        /* \"#utility.yul\":248:267   */\n      mstore\n        /* \"#utility.yul\":300:304   */\n      0x20\n        /* \"#utility.yul\":295:298   */\n      dup3\n        /* \"#utility.yul\":291:305   */\n      add\n        /* \"#utility.yul\":276:305   */\n      swap1\n      pop\n        /* \"#utility.yul\":127:311   */\n      swap3\n      swap2\n      pop\n      pop\n      jump\t// out\n        /* \"#utility.yul\":317:449   */\n    tag_113:\n        /* \"#utility.yul\":384:388   */\n      0x00\n        /* \"#utility.yul\":407:410   */\n      dup2\n        /* \"#utility.yul\":399:410   */\n      swap1\n      pop\n        /* \"#utility.yul\":437:441   */\n      0x20\n        /* \"#utility.yul\":432:435   */\n      dup3\n        /* \"#utility.yul\":428:442   */\n      add\n        /* \"#utility.yul\":420:442   */\n      swap1\n      pop\n        /* \"#utility.yul\":317:449   */\n      swap2\n      swap1\n      pop\n      jump\t// out\n        /* \"#utility.yul\":455:532   */\n    tag_114:\n        /* \"#utility.yul\":492:499   */\n      0x00\n        /* \"#utility.yul\":521:526   */\n      dup2\n        /* \"#utility.yul\":510:526   */\n      swap1\n      pop\n        /* \"#utility.yul\":455:532   */\n      swap2\n      swap1\n      pop\n      jump\t// out\n        /* \"#utility.yul\":538:646   */\n    tag_115:\n        /* \"#utility.yul\":615:639   */\n      tag_138\n        /* \"#utility.yul\":633:638   */\n      dup2\n        /* \"#utility.yul\":615:639   */\n      tag_114\n      jump\t// in\n    tag_138:\n        /* \"#utility.yul\":610:613   */\n      dup3\n        /* \"#utility.yul\":603:640   */\n      mstore\n        /* \"#utility.yul\":538:646   */\n      pop\n      pop\n      jump\t// out\n        /* \"#utility.yul\":652:831   */\n    tag_116:\n        /* \"#utility.yul\":721:731   */\n      0x00\n        /* \"#utility.yul\":742:788   */\n      tag_140\n        /* \"#utility.yul\":784:787   */\n      dup4\n        /* \"#utility.yul\":776:782   */\n      dup4\n        /* \"#utility.yul\":742:788   */\n      tag_115\n      jump\t// in\n    tag_140:\n        /* \"#utility.yul\":820:824   */\n      0x20\n        /* \"#utility.yul\":815:818   */\n      dup4\n        /* \"#utility.yul\":811:825   */\n      add\n        /* \"#utility.yul\":797:825   */\n      swap1\n      pop\n        /* \"#utility.yul\":652:831   */\n      swap3\n      swap2\n      pop\n      pop\n      jump\t// out\n        /* \"#utility.yul\":837:950   */\n    tag_117:\n        /* \"#utility.yul\":907:911   */\n      0x00\n        /* \"#utility.yul\":939:943   */\n      0x20\n        /* \"#utility.yul\":934:937   */\n      dup3\n        /* \"#utility.yul\":930:944   */\n      add\n        /* \"#utility.yul\":922:944   */\n      swap1\n      pop\n        /* \"#utility.yul\":837:950   */\n      swap2\n      swap1\n      pop\n      jump\t// out\n        /* \"#utility.yul\":986:1718   */\n    tag_118:\n        /* \"#utility.yul\":1105:1108   */\n      0x00\n        /* \"#utility.yul\":1134:1188   */\n      tag_143\n        /* \"#utility.yul\":1182:1187   */\n      dup3\n        /* \"#utility.yul\":1134:1188   */\n      tag_111\n      jump\t// in\n    tag_143:\n        /* \"#utility.yul\":1204:1290   */\n      tag_144\n        /* \"#utility.yul\":1283:1289   */\n      dup2\n        /* \"#utility.yul\":1278:1281   */\n      dup6\n        /* \"#utility.yul\":1204:1290   */\n      tag_112\n      jump\t// in\n    tag_144:\n        /* \"#utility.yul\":1197:1290   */\n      swap4\n      pop\n        /* \"#utility.yul\":1314:1370   */\n      tag_145\n        /* \"#utility.yul\":1364:1369   */\n      dup4\n        /* \"#utility.yul\":1314:1370   */\n      tag_113\n      jump\t// in\n    tag_145:\n        /* \"#utility.yul\":1393:1400   */\n      dup1\n        /* \"#utility.yul\":1424:1425   */\n      0x00\n        /* \"#utility.yul\":1409:1693   */\n    tag_146:\n        /* \"#utility.yul\":1434:1440   */\n      dup4\n        /* \"#utility.yul\":1431:1432   */\n      dup2\n        /* \"#utility.yul\":1428:1441   */\n      lt\n        /* \"#utility.yul\":1409:1693   */\n      iszero\n      tag_148\n      jumpi\n        /* \"#utility.yul\":1510:1516   */\n      dup2\n        /* \"#utility.yul\":1504:1517   */\n      mload\n        /* \"#utility.yul\":1537:1600   */\n      tag_149\n        /* \"#utility.yul\":1596:1599   */\n      dup9\n        /* \"#utility.yul\":1581:1594   */\n      dup3\n        /* \"#utility.yul\":1537:1600   */\n      tag_116\n      jump\t// in\n    tag_149:\n        /* \"#utility.yul\":1530:1600   */\n      swap8\n      pop\n        /* \"#utility.yul\":1623:1683   */\n      tag_150\n        /* \"#utility.yul\":1676:1682   */\n      dup4\n        /* \"#utility.yul\":1623:1683   */\n      tag_117\n      jump\t// in\n    tag_150:\n        /* \"#utility.yul\":1613:1683   */\n      swap3\n      pop\n        /* \"#utility.yul\":1469:1693   */\n      pop\n        /* \"#utility.yul\":1456:1457   */\n      0x01\n        /* \"#utility.yul\":1453:1454   */\n      dup2\n        /* \"#utility.yul\":1449:1458   */\n      add\n        /* \"#utility.yul\":1444:1458   */\n      swap1\n      pop\n        /* \"#utility.yul\":1409:1693   */\n      jump(tag_146)\n    tag_148:\n        /* \"#utility.yul\":1413:1427   */\n      pop\n        /* \"#utility.yul\":1709:1712   */\n      dup6\n        /* \"#utility.yul\":1702:1712   */\n      swap4\n      pop\n        /* \"#utility.yul\":1110:1718   */\n      pop\n      pop\n      pop\n        /* \"#utility.yul\":986:1718   */\n      swap3\n      swap2\n      pop\n      pop\n      jump\t// out\n        /* \"#utility.yul\":1724:2097   */\n    tag_12:\n        /* \"#utility.yul\":1867:1871   */\n      0x00\n        /* \"#utility.yul\":1905:1907   */\n      0x20\n        /* \"#utility.yul\":1894:1903   */\n      dup3\n        /* \"#utility.yul\":1890:1908   */\n      add\n        /* \"#utility.yul\":1882:1908   */\n      swap1\n      pop\n        /* \"#utility.yul\":1954:1963   */\n      dup2\n        /* \"#utility.yul\":1948:1952   */\n      dup2\n        /* \"#utility.yul\":1944:1964   */\n      sub\n        /* \"#utility.yul\":1940:1941   */\n      0x00\n        /* \"#utility.yul\":1929:1938   */\n      dup4\n        /* \"#utility.yul\":1925:1942   */\n      add\n        /* \"#utility.yul\":1918:1965   */\n      mstore\n        /* \"#utility.yul\":1982:2090   */\n      tag_152\n        /* \"#utility.yul\":2085:2089   */\n      dup2\n        /* \"#utility.yul\":2076:2082   */\n      dup5\n        /* \"#utility.yul\":1982:2090   */\n      tag_118\n      jump\t// in\n    tag_152:\n        /* \"#utility.yul\":1974:2090   */\n      swap1\n      pop\n        /* \"#utility.yul\":1724:2097   */\n      swap3\n      swap2\n      pop\n      pop\n      jump\t// out\n        /* \"#utility.yul\":2103:2221   */\n    tag_119:\n        /* \"#utility.yul\":2190:2214   */\n      tag_154\n        /* \"#utility.yul\":2208:2213   */\n      dup2\n        /* \"#utility.yul\":2190:2214   */\n      tag_114\n      jump\t// in\n    tag_154:\n        /* \"#utility.yul\":2185:2188   */\n      dup3\n        /* \"#utility.yul\":2178:2215   */\n      mstore\n        /* \"#utility.yul\":2103:2221   */\n      pop\n      pop\n      jump\t// out\n        /* \"#utility.yul\":2227:2449   */\n    tag_16:\n        /* \"#utility.yul\":2320:2324   */\n      0x00\n        /* \"#utility.yul\":2358:2360   */\n      0x20\n        /* \"#utility.yul\":2347:2356   */\n      dup3\n        /* \"#utility.yul\":2343:2361   */\n      add\n        /* \"#utility.yul\":2335:2361   */\n      swap1\n      pop\n        /* \"#utility.yul\":2371:2442   */\n      tag_156\n        /* \"#utility.yul\":2439:2440   */\n      0x00\n        /* \"#utility.yul\":2428:2437   */\n      dup4\n        /* \"#utility.yul\":2424:2441   */\n      add\n        /* \"#utility.yul\":2415:2421   */\n      dup5\n        /* \"#utility.yul\":2371:2442   */\n      tag_119\n      jump\t// in\n    tag_156:\n        /* \"#utility.yul\":2227:2449   */\n      swap3\n      swap2\n      pop\n      pop\n      jump\t// out\n        /* \"#utility.yul\":2536:2653   */\n    tag_121:\n        /* \"#utility.yul\":2645:2646   */\n      0x00\n        /* \"#utility.yul\":2642:2643   */\n      dup1\n        /* \"#utility.yul\":2635:2647   */\n      revert\n        /* \"#utility.yul\":2782:2904   */\n    tag_123:\n        /* \"#utility.yul\":2855:2879   */\n      tag_161\n        /* \"#utility.yul\":2873:2878   */\n      dup2\n        /* \"#utility.yul\":2855:2879   */\n      tag_114\n      jump\t// in\n    tag_161:\n        /* \"#utility.yul\":2848:2853   */\n      dup2\n        /* \"#utility.yul\":2845:2880   */\n      eq\n        /* \"#utility.yul\":2835:2898   */\n      tag_162\n      jumpi\n        /* \"#utility.yul\":2894:2895   */\n      0x00\n        /* \"#utility.yul\":2891:2892   */\n      dup1\n        /* \"#utility.yul\":2884:2896   */\n      revert\n        /* \"#utility.yul\":2835:2898   */\n    tag_162:\n        /* \"#utility.yul\":2782:2904   */\n      pop\n      jump\t// out\n        /* \"#utility.yul\":2910:3049   */\n    tag_124:\n        /* \"#utility.yul\":2956:2961   */\n      0x00\n        /* \"#utility.yul\":2994:3000   */\n      dup2\n        /* \"#utility.yul\":2981:3001   */\n      calldataload\n        /* \"#utility.yul\":2972:3001   */\n      swap1\n      pop\n        /* \"#utility.yul\":3010:3043   */\n      tag_164\n        /* \"#utility.yul\":3037:3042   */\n      dup2\n        /* \"#utility.yul\":3010:3043   */\n      tag_123\n      jump\t// in\n    tag_164:\n        /* \"#utility.yul\":2910:3049   */\n      swap3\n      swap2\n      pop\n      pop\n      jump\t// out\n        /* \"#utility.yul\":3055:3384   */\n    tag_19:\n        /* \"#utility.yul\":3114:3120   */\n      0x00\n        /* \"#utility.yul\":3163:3165   */\n      0x20\n        /* \"#utility.yul\":3151:3160   */\n      dup3\n        /* \"#utility.yul\":3142:3149   */\n      dup5\n        /* \"#utility.yul\":3138:3161   */\n      sub\n        /* \"#utility.yul\":3134:3166   */\n      slt\n        /* \"#utility.yul\":3131:3250   */\n      iszero\n      tag_166\n      jumpi\n        /* \"#utility.yul\":3169:3248   */\n      tag_167\n      tag_121\n      jump\t// in\n    tag_167:\n        /* \"#utility.yul\":3131:3250   */\n    tag_166:\n        /* \"#utility.yul\":3289:3290   */\n      0x00\n        /* \"#utility.yul\":3314:3367   */\n      tag_168\n        /* \"#utility.yul\":3359:3366   */\n      dup5\n        /* \"#utility.yul\":3350:3356   */\n      dup3\n        /* \"#utility.yul\":3339:3348   */\n      dup6\n        /* \"#utility.yul\":3335:3357   */\n      add\n        /* \"#utility.yul\":3314:3367   */\n      tag_124\n      jump\t// in\n    tag_168:\n        /* \"#utility.yul\":3304:3367   */\n      swap2\n      pop\n        /* \"#utility.yul\":3260:3377   */\n      pop\n        /* \"#utility.yul\":3055:3384   */\n      swap3\n      swap2\n      pop\n      pop\n      jump\t// out\n        /* \"#utility.yul\":3390:3494   */\n    tag_125:\n        /* \"#utility.yul\":3455:3461   */\n      0x00\n        /* \"#utility.yul\":3483:3487   */\n      0x05\n        /* \"#utility.yul\":3473:3487   */\n      swap1\n      pop\n        /* \"#utility.yul\":3390:3494   */\n      swap2\n      swap1\n      pop\n      jump\t// out\n        /* \"#utility.yul\":3500:3643   */\n    tag_126:\n        /* \"#utility.yul\":3597:3608   */\n      0x00\n        /* \"#utility.yul\":3634:3637   */\n      dup2\n        /* \"#utility.yul\":3619:3637   */\n      swap1\n      pop\n        /* \"#utility.yul\":3500:3643   */\n      swap3\n      swap2\n      pop\n      pop\n      jump\t// out\n        /* \"#utility.yul\":3649:3747   */\n    tag_127:\n        /* \"#utility.yul\":3714:3718   */\n      0x00\n        /* \"#utility.yul\":3737:3740   */\n      dup2\n        /* \"#utility.yul\":3729:3740   */\n      swap1\n      pop\n        /* \"#utility.yul\":3649:3747   */\n      swap2\n      swap1\n      pop\n      jump\t// out\n        /* \"#utility.yul\":3753:3864   */\n    tag_128:\n        /* \"#utility.yul\":3821:3825   */\n      0x00\n        /* \"#utility.yul\":3853:3857   */\n      0x20\n        /* \"#utility.yul\":3848:3851   */\n      dup3\n        /* \"#utility.yul\":3844:3858   */\n      add\n        /* \"#utility.yul\":3836:3858   */\n      swap1\n      pop\n        /* \"#utility.yul\":3753:3864   */\n      swap2\n      swap1\n      pop\n      jump\t// out\n        /* \"#utility.yul\":3902:4596   */\n    tag_129:\n        /* \"#utility.yul\":4038:4090   */\n      tag_174\n        /* \"#utility.yul\":4084:4089   */\n      dup2\n        /* \"#utility.yul\":4038:4090   */\n      tag_125\n      jump\t// in\n    tag_174:\n        /* \"#utility.yul\":4106:4190   */\n      tag_175\n        /* \"#utility.yul\":4183:4189   */\n      dup2\n        /* \"#utility.yul\":4178:4181   */\n      dup5\n        /* \"#utility.yul\":4106:4190   */\n      tag_126\n      jump\t// in\n    tag_175:\n        /* \"#utility.yul\":4099:4190   */\n      swap3\n      pop\n        /* \"#utility.yul\":4214:4268   */\n      tag_176\n        /* \"#utility.yul\":4262:4267   */\n      dup3\n        /* \"#utility.yul\":4214:4268   */\n      tag_127\n      jump\t// in\n    tag_176:\n        /* \"#utility.yul\":4291:4298   */\n      dup1\n        /* \"#utility.yul\":4322:4323   */\n      0x00\n        /* \"#utility.yul\":4307:4589   */\n    tag_177:\n        /* \"#utility.yul\":4332:4338   */\n      dup4\n        /* \"#utility.yul\":4329:4330   */\n      dup2\n        /* \"#utility.yul\":4326:4339   */\n      lt\n        /* \"#utility.yul\":4307:4589   */\n      iszero\n      tag_179\n      jumpi\n        /* \"#utility.yul\":4408:4414   */\n      dup2\n        /* \"#utility.yul\":4402:4415   */\n      mload\n        /* \"#utility.yul\":4435:4498   */\n      tag_180\n        /* \"#utility.yul\":4494:4497   */\n      dup8\n        /* \"#utility.yul\":4479:4492   */\n      dup3\n        /* \"#utility.yul\":4435:4498   */\n      tag_116\n      jump\t// in\n    tag_180:\n        /* \"#utility.yul\":4428:4498   */\n      swap7\n      pop\n        /* \"#utility.yul\":4521:4579   */\n      tag_181\n        /* \"#utility.yul\":4572:4578   */\n      dup4\n        /* \"#utility.yul\":4521:4579   */\n      tag_128\n      jump\t// in\n    tag_181:\n        /* \"#utility.yul\":4511:4579   */\n      swap3\n      pop\n        /* \"#utility.yul\":4367:4589   */\n      pop\n        /* \"#utility.yul\":4354:4355   */\n      0x01\n        /* \"#utility.yul\":4351:4352   */\n      dup2\n        /* \"#utility.yul\":4347:4356   */\n      add\n        /* \"#utility.yul\":4342:4356   */\n      swap1\n      pop\n        /* \"#utility.yul\":4307:4589   */\n      jump(tag_177)\n    tag_179:\n        /* \"#utility.yul\":4311:4325   */\n      pop\n        /* \"#utility.yul\":4014:4596   */\n      pop\n      pop\n      pop\n        /* \"#utility.yul\":3902:4596   */\n      pop\n      pop\n      jump\t// out\n        /* \"#utility.yul\":4602:4917   */\n    tag_31:\n        /* \"#utility.yul\":4741:4745   */\n      0x00\n        /* \"#utility.yul\":4779:4782   */\n      0xa0\n        /* \"#utility.yul\":4768:4777   */\n      dup3\n        /* \"#utility.yul\":4764:4783   */\n      add\n        /* \"#utility.yul\":4756:4783   */\n      swap1\n      pop\n        /* \"#utility.yul\":4793:4910   */\n      tag_183\n        /* \"#utility.yul\":4907:4908   */\n      0x00\n        /* \"#utility.yul\":4896:4905   */\n      dup4\n        /* \"#utility.yul\":4892:4909   */\n      add\n        /* \"#utility.yul\":4883:4889   */\n      dup5\n        /* \"#utility.yul\":4793:4910   */\n      tag_129\n      jump\t// in\n    tag_183:\n        /* \"#utility.yul\":4602:4917   */\n      swap3\n      swap2\n      pop\n      pop\n      jump\t// out\n        /* \"#utility.yul\":4923:5103   */\n    tag_36:\n        /* \"#utility.yul\":4971:5048   */\n      0x4e487b7100000000000000000000000000000000000000000000000000000000\n        /* \"#utility.yul\":4968:4969   */\n      0x00\n        /* \"#utility.yul\":4961:5049   */\n      mstore\n        /* \"#utility.yul\":5068:5072   */\n      0x41\n        /* \"#utility.yul\":5065:5066   */\n      0x04\n        /* \"#utility.yul\":5058:5073   */\n      mstore\n        /* \"#utility.yul\":5092:5096   */\n      0x24\n        /* \"#utility.yul\":5089:5090   */\n      0x00\n        /* \"#utility.yul\":5082:5097   */\n      revert\n        /* \"#utility.yul\":5109:5289   */\n    tag_43:\n        /* \"#utility.yul\":5157:5234   */\n      0x4e487b7100000000000000000000000000000000000000000000000000000000\n        /* \"#utility.yul\":5154:5155   */\n      0x00\n        /* \"#utility.yul\":5147:5235   */\n      mstore\n        /* \"#utility.yul\":5254:5258   */\n      0x32\n        /* \"#utility.yul\":5251:5252   */\n      0x04\n        /* \"#utility.yul\":5244:5259   */\n      mstore\n        /* \"#utility.yul\":5278:5282   */\n      0x24\n        /* \"#utility.yul\":5275:5276   */\n      0x00\n        /* \"#utility.yul\":5268:5283   */\n      revert\n        /* \"#utility.yul\":5295:5475   */\n    tag_130:\n        /* \"#utility.yul\":5343:5420   */\n      0x4e487b7100000000000000000000000000000000000000000000000000000000\n        /* \"#utility.yul\":5340:5341   */\n      0x00\n        /* \"#utility.yul\":5333:5421   */\n      mstore\n        /* \"#utility.yul\":5440:5444   */\n      0x12\n        /* \"#utility.yul\":5437:5438   */\n      0x04\n        /* \"#utility.yul\":5430:5445   */\n      mstore\n        /* \"#utility.yul\":5464:5468   */\n      0x24\n        /* \"#utility.yul\":5461:5462   */\n      0x00\n        /* \"#utility.yul\":5454:5469   */\n      revert\n        /* \"#utility.yul\":5481:5657   */\n    tag_46:\n        /* \"#utility.yul\":5513:5514   */\n      0x00\n        /* \"#utility.yul\":5530:5550   */\n      tag_188\n        /* \"#utility.yul\":5548:5549   */\n      dup3\n        /* \"#utility.yul\":5530:5550   */\n      tag_114\n      jump\t// in\n    tag_188:\n        /* \"#utility.yul\":5525:5550   */\n      swap2\n      pop\n        /* \"#utility.yul\":5564:5584   */\n      tag_189\n        /* \"#utility.yul\":5582:5583   */\n      dup4\n        /* \"#utility.yul\":5564:5584   */\n      tag_114\n      jump\t// in\n    tag_189:\n        /* \"#utility.yul\":5559:5584   */\n      swap3\n      pop\n        /* \"#utility.yul\":5603:5604   */\n      dup3\n        /* \"#utility.yul\":5593:5628   */\n      tag_190\n      jumpi\n        /* \"#utility.yul\":5608:5626   */\n      tag_191\n      tag_130\n      jump\t// in\n    tag_191:\n        /* \"#utility.yul\":5593:5628   */\n    tag_190:\n        /* \"#utility.yul\":5649:5650   */\n      dup3\n        /* \"#utility.yul\":5646:5647   */\n      dup3\n        /* \"#utility.yul\":5642:5651   */\n      mod\n        /* \"#utility.yul\":5637:5651   */\n      swap1\n      pop\n        /* \"#utility.yul\":5481:5657   */\n      swap3\n      swap2\n      pop\n      pop\n      jump\t// out\n        /* \"#utility.yul\":5663:5843   */\n    tag_131:\n        /* \"#utility.yul\":5711:5788   */\n      0x4e487b7100000000000000000000000000000000000000000000000000000000\n        /* \"#utility.yul\":5708:5709   */\n      0x00\n        /* \"#utility.yul\":5701:5789   */\n      mstore\n        /* \"#utility.yul\":5808:5812   */\n      0x11\n        /* \"#utility.yul\":5805:5806   */\n      0x04\n        /* \"#utility.yul\":5798:5813   */\n      mstore\n        /* \"#utility.yul\":5832:5836   */\n      0x24\n        /* \"#utility.yul\":5829:5830   */\n      0x00\n        /* \"#utility.yul\":5822:5837   */\n      revert\n        /* \"#utility.yul\":5849:6082   */\n    tag_54:\n        /* \"#utility.yul\":5888:5891   */\n      0x00\n        /* \"#utility.yul\":5911:5935   */\n      tag_194\n        /* \"#utility.yul\":5929:5934   */\n      dup3\n        /* \"#utility.yul\":5911:5935   */\n      tag_114\n      jump\t// in\n    tag_194:\n        /* \"#utility.yul\":5902:5935   */\n      swap2\n      pop\n        /* \"#utility.yul\":5957:6023   */\n      0xffffffffffffffffffffffffffffffffffffffffffffffffffffffffffffffff\n        /* \"#utility.yul\":5950:5955   */\n      dup3\n        /* \"#utility.yul\":5947:6024   */\n      sub\n        /* \"#utility.yul\":5944:6047   */\n      tag_195\n      jumpi\n        /* \"#utility.yul\":6027:6045   */\n      tag_196\n      tag_131\n      jump\t// in\n    tag_196:\n        /* \"#utility.yul\":5944:6047   */\n    tag_195:\n        /* \"#utility.yul\":6074:6075   */\n      0x01\n        /* \"#utility.yul\":6067:6072   */\n      dup3\n        /* \"#utility.yul\":6063:6076   */\n      add\n        /* \"#utility.yul\":6056:6076   */\n      swap1\n      pop\n        /* \"#utility.yul\":5849:6082   */\n      swap2\n      swap1\n      pop\n      jump\t// out\n        /* \"#utility.yul\":6088:6279   */\n    tag_63:\n        /* \"#utility.yul\":6128:6131   */\n      0x00\n        /* \"#utility.yul\":6147:6167   */\n      tag_198\n        /* \"#utility.yul\":6165:6166   */\n      dup3\n        /* \"#utility.yul\":6147:6167   */\n      tag_114\n      jump\t// in\n    tag_198:\n        /* \"#utility.yul\":6142:6167   */\n      swap2\n      pop\n        /* \"#utility.yul\":6181:6201   */\n      tag_199\n        /* \"#utility.yul\":6199:6200   */\n      dup4\n        /* \"#utility.yul\":6181:6201   */\n      tag_114\n      jump\t// in\n    tag_199:\n        /* \"#utility.yul\":6176:6201   */\n      swap3\n      pop\n        /* \"#utility.yul\":6224:6225   */\n      dup3\n        /* \"#utility.yul\":6221:6222   */\n      dup3\n        /* \"#utility.yul\":6217:6226   */\n      add\n        /* \"#utility.yul\":6210:6226   */\n      swap1\n      pop\n        /* \"#utility.yul\":6245:6248   */\n      dup1\n        /* \"#utility.yul\":6242:6243   */\n      dup3\n        /* \"#utility.yul\":6239:6249   */\n      gt\n        /* \"#utility.yul\":6236:6272   */\n      iszero\n      tag_200\n      jumpi\n        /* \"#utility.yul\":6252:6270   */\n      tag_201\n      tag_131\n      jump\t// in\n    tag_201:\n        /* \"#utility.yul\":6236:6272   */\n    tag_200:\n        /* \"#utility.yul\":6088:6279   */\n      swap3\n      swap2\n      pop\n      pop\n      jump\t// out\n        /* \"#utility.yul\":6285:6470   */\n    tag_65:\n        /* \"#utility.yul\":6325:6326   */\n      0x00\n        /* \"#utility.yul\":6342:6362   */\n      tag_203\n        /* \"#utility.yul\":6360:6361   */\n      dup3\n        /* \"#utility.yul\":6342:6362   */\n      tag_114\n      jump\t// in\n    tag_203:\n        /* \"#utility.yul\":6337:6362   */\n      swap2\n      pop\n        /* \"#utility.yul\":6376:6396   */\n      tag_204\n        /* \"#utility.yul\":6394:6395   */\n      dup4\n        /* \"#utility.yul\":6376:6396   */\n      tag_114\n      jump\t// in\n    tag_204:\n        /* \"#utility.yul\":6371:6396   */\n      swap3\n      pop\n        /* \"#utility.yul\":6415:6416   */\n      dup3\n        /* \"#utility.yul\":6405:6440   */\n      tag_205\n      jumpi\n        /* \"#utility.yul\":6420:6438   */\n      tag_206\n      tag_130\n      jump\t// in\n    tag_206:\n        /* \"#utility.yul\":6405:6440   */\n    tag_205:\n        /* \"#utility.yul\":6462:6463   */\n      dup3\n        /* \"#utility.yul\":6459:6460   */\n      dup3\n        /* \"#utility.yul\":6455:6464   */\n      div\n        /* \"#utility.yul\":6450:6464   */\n      swap1\n      pop\n        /* \"#utility.yul\":6285:6470   */\n      swap3\n      swap2\n      pop\n      pop\n      jump\t// out\n        /* \"#utility.yul\":6476:6656   */\n    tag_71:\n        /* \"#utility.yul\":6524:6601   */\n      0x4e487b7100000000000000000000000000000000000000000000000000000000\n        /* \"#utility.yul\":6521:6522   */\n      0x00\n        /* \"#utility.yul\":6514:6602   */\n      mstore\n        /* \"#utility.yul\":6621:6625   */\n      0x31\n        /* \"#utility.yul\":6618:6619   */\n      0x04\n        /* \"#utility.yul\":6611:6626   */\n      mstore\n        /* \"#utility.yul\":6645:6649   */\n      0x24\n        /* \"#utility.yul\":6642:6643   */\n      0x00\n        /* \"#utility.yul\":6635:6650   */\n      revert\n\n    auxdata: 0xa2646970667358221220c7d5bae48c6365b4cc042b835c1a5cde6bf11374d2cff28c4bbc106b81afb32264736f6c63430008160033\n}\n",
				"bytecode": {
					"linkReferences": {},
					"object": "608060405234801561000f575f80fd5b506108438061001d5f395ff3fe608060405234801561000f575f80fd5b5060043610610060575f3560e01c80631834ae671461006457806321055acb146100825780633fb5c1cb146100a05780637d3e4d9c146100bc5780637da07bc5146100da578063fd3901fd1461010a575b5f80fd5b61006c610128565b6040516100799190610519565b60405180910390f35b61008a61021d565b6040516100979190610548565b60405180910390f35b6100ba60048036038101906100b5919061058f565b61027d565b005b6100c46102fb565b6040516100d19190610548565b60405180910390f35b6100f460048036038101906100ef919061058f565b61035d565b6040516101019190610548565b60405180910390f35b610112610381565b60405161011f9190610639565b60405180910390f35b60605f6101336102fb565b67ffffffffffffffff81111561014c5761014b610652565b5b60405190808252806020026020018201604052801561017a5781602001602082028036833780820191505090505b5090505f805f90505b5f80549050811015610214575f60025f83815481106101a5576101a461067f565b5b905f5260205f2001546101b891906106d9565b03610207575f81815481106101d0576101cf61067f565b5b905f5260205f2001548383815181106101ec576101eb61067f565b5b602002602001018181525050818061020390610736565b9250505b8080600101915050610183565b50819250505090565b5f805f90505f5b5f80549050811015610266575f81815481106102435761024261067f565b5b905f5260205f20015482610257919061077d565b91508080600101915050610224565b505f805490508161027791906107b0565b91505090565b5b5f8080549050146102b2575f80548061029a576102996107e0565b5b600190038181905f5260205f20015f9055905561027e565b5f600190505b8181116102f7575f81908060018154018082558091505060019003905f5260205f20015f909190919091505580806102ef90610736565b9150506102b8565b5050565b5f805f5b5f80549050811015610355575f60025f83815481106103215761032061067f565b5b905f5260205f20015461033491906106d9565b0361034857818061034490610736565b9250505b80806001019150506102ff565b508091505090565b5f8082815481106103715761037061067f565b5b905f5260205f2001549050919050565b610389610437565b610391610437565b5f805f90505b5f8054905081101561042e575f60025f83815481106103b9576103b861067f565b5b905f5260205f2001546103cc91906106d9565b03610418575f81815481106103e4576103e361067f565b5b905f5260205f200154838360058110610400576103ff61067f565b5b602002018181525050818061041490610736565b9250505b600582101561042e578080600101915050610397565b50819250505090565b6040518060a00160405280600590602082028036833780820191505090505090565b5f81519050919050565b5f82825260208201905092915050565b5f819050602082019050919050565b5f819050919050565b61049481610482565b82525050565b5f6104a5838361048b565b60208301905092915050565b5f602082019050919050565b5f6104c782610459565b6104d18185610463565b93506104dc83610473565b805f5b8381101561050c5781516104f3888261049a565b97506104fe836104b1565b9250506001810190506104df565b5085935050505092915050565b5f6020820190508181035f83015261053181846104bd565b905092915050565b61054281610482565b82525050565b5f60208201905061055b5f830184610539565b92915050565b5f80fd5b61056e81610482565b8114610578575f80fd5b50565b5f8135905061058981610565565b92915050565b5f602082840312156105a4576105a3610561565b5b5f6105b18482850161057b565b91505092915050565b5f60059050919050565b5f81905092915050565b5f819050919050565b5f602082019050919050565b6105ec816105ba565b6105f681846105c4565b9250610601826105ce565b805f5b83811015610631578151610618878261049a565b9650610623836105d7565b925050600181019050610604565b505050505050565b5f60a08201905061064c5f8301846105e3565b92915050565b7f4e487b71000000000000000000000000000000000000000000000000000000005f52604160045260245ffd5b7f4e487b71000000000000000000000000000000000000000000000000000000005f52603260045260245ffd5b7f4e487b71000000000000000000000000000000000000000000000000000000005f52601260045260245ffd5b5f6106e382610482565b91506106ee83610482565b9250826106fe576106fd6106ac565b5b828206905092915050565b7f4e487b71000000000000000000000000000000000000000000000000000000005f52601160045260245ffd5b5f61074082610482565b91507fffffffffffffffffffffffffffffffffffffffffffffffffffffffffffffffff820361077257610771610709565b5b600182019050919050565b5f61078782610482565b915061079283610482565b92508282019050808211156107aa576107a9610709565b5b92915050565b5f6107ba82610482565b91506107c583610482565b9250826107d5576107d46106ac565b5b828204905092915050565b7f4e487b71000000000000000000000000000000000000000000000000000000005f52603160045260245ffdfea2646970667358221220c7d5bae48c6365b4cc042b835c1a5cde6bf11374d2cff28c4bbc106b81afb32264736f6c63430008160033",
					"opcodes": "PUSH1 0x80 PUSH1 0x40 MSTORE CALLVALUE DUP1 ISZERO PUSH2 0xF JUMPI PUSH0 DUP1 REVERT JUMPDEST POP PUSH2 0x843 DUP1 PUSH2 0x1D PUSH0 CODECOPY PUSH0 RETURN INVALID PUSH1 0x80 PUSH1 0x40 MSTORE CALLVALUE DUP1 ISZERO PUSH2 0xF JUMPI PUSH0 DUP1 REVERT JUMPDEST POP PUSH1 0x4 CALLDATASIZE LT PUSH2 0x60 JUMPI PUSH0 CALLDATALOAD PUSH1 0xE0 SHR DUP1 PUSH4 0x1834AE67 EQ PUSH2 0x64 JUMPI DUP1 PUSH4 0x21055ACB EQ PUSH2 0x82 JUMPI DUP1 PUSH4 0x3FB5C1CB EQ PUSH2 0xA0 JUMPI DUP1 PUSH4 0x7D3E4D9C EQ PUSH2 0xBC JUMPI DUP1 PUSH4 0x7DA07BC5 EQ PUSH2 0xDA JUMPI DUP1 PUSH4 0xFD3901FD EQ PUSH2 0x10A JUMPI JUMPDEST PUSH0 DUP1 REVERT JUMPDEST PUSH2 0x6C PUSH2 0x128 JUMP JUMPDEST PUSH1 0x40 MLOAD PUSH2 0x79 SWAP2 SWAP1 PUSH2 0x519 JUMP JUMPDEST PUSH1 0x40 MLOAD DUP1 SWAP2 SUB SWAP1 RETURN JUMPDEST PUSH2 0x8A PUSH2 0x21D JUMP JUMPDEST PUSH1 0x40 MLOAD PUSH2 0x97 SWAP2 SWAP1 PUSH2 0x548 JUMP JUMPDEST PUSH1 0x40 MLOAD DUP1 SWAP2 SUB SWAP1 RETURN JUMPDEST PUSH2 0xBA PUSH1 0x4 DUP1 CALLDATASIZE SUB DUP2 ADD SWAP1 PUSH2 0xB5 SWAP2 SWAP1 PUSH2 0x58F JUMP JUMPDEST PUSH2 0x27D JUMP JUMPDEST STOP JUMPDEST PUSH2 0xC4 PUSH2 0x2FB JUMP JUMPDEST PUSH1 0x40 MLOAD PUSH2 0xD1 SWAP2 SWAP1 PUSH2 0x548 JUMP JUMPDEST PUSH1 0x40 MLOAD DUP1 SWAP2 SUB SWAP1 RETURN JUMPDEST PUSH2 0xF4 PUSH1 0x4 DUP1 CALLDATASIZE SUB DUP2 ADD SWAP1 PUSH2 0xEF SWAP2 SWAP1 PUSH2 0x58F JUMP JUMPDEST PUSH2 0x35D JUMP JUMPDEST PUSH1 0x40 MLOAD PUSH2 0x101 SWAP2 SWAP1 PUSH2 0x548 JUMP JUMPDEST PUSH1 0x40 MLOAD DUP1 SWAP2 SUB SWAP1 RETURN JUMPDEST PUSH2 0x112 PUSH2 0x381 JUMP JUMPDEST PUSH1 0x40 MLOAD PUSH2 0x11F SWAP2 SWAP1 PUSH2 0x639 JUMP JUMPDEST PUSH1 0x40 MLOAD DUP1 SWAP2 SUB SWAP1 RETURN JUMPDEST PUSH1 0x60 PUSH0 PUSH2 0x133 PUSH2 0x2FB JUMP JUMPDEST PUSH8 0xFFFFFFFFFFFFFFFF DUP2 GT ISZERO PUSH2 0x14C JUMPI PUSH2 0x14B PUSH2 0x652 JUMP JUMPDEST JUMPDEST PUSH1 0x40 MLOAD SWAP1 DUP1 DUP3 MSTORE DUP1 PUSH1 0x20 MUL PUSH1 0x20 ADD DUP3 ADD PUSH1 0x40 MSTORE DUP1 ISZERO PUSH2 0x17A JUMPI DUP2 PUSH1 0x20 ADD PUSH1 0x20 DUP3 MUL DUP1 CALLDATASIZE DUP4 CALLDATACOPY DUP1 DUP3 ADD SWAP2 POP POP SWAP1 POP JUMPDEST POP SWAP1 POP PUSH0 DUP1 PUSH0 SWAP1 POP JUMPDEST PUSH0 DUP1 SLOAD SWAP1 POP DUP2 LT ISZERO PUSH2 0x214 JUMPI PUSH0 PUSH1 0x2 PUSH0 DUP4 DUP2 SLOAD DUP2 LT PUSH2 0x1A5 JUMPI PUSH2 0x1A4 PUSH2 0x67F JUMP JUMPDEST JUMPDEST SWAP1 PUSH0 MSTORE PUSH1 0x20 PUSH0 KECCAK256 ADD SLOAD PUSH2 0x1B8 SWAP2 SWAP1 PUSH2 0x6D9 JUMP JUMPDEST SUB PUSH2 0x207 JUMPI PUSH0 DUP2 DUP2 SLOAD DUP2 LT PUSH2 0x1D0 JUMPI PUSH2 0x1CF PUSH2 0x67F JUMP JUMPDEST JUMPDEST SWAP1 PUSH0 MSTORE PUSH1 0x20 PUSH0 KECCAK256 ADD SLOAD DUP4 DUP4 DUP2 MLOAD DUP2 LT PUSH2 0x1EC JUMPI PUSH2 0x1EB PUSH2 0x67F JUMP JUMPDEST JUMPDEST PUSH1 0x20 MUL PUSH1 0x20 ADD ADD DUP2 DUP2 MSTORE POP POP DUP2 DUP1 PUSH2 0x203 SWAP1 PUSH2 0x736 JUMP JUMPDEST SWAP3 POP POP JUMPDEST DUP1 DUP1 PUSH1 0x1 ADD SWAP2 POP POP PUSH2 0x183 JUMP JUMPDEST POP DUP2 SWAP3 POP POP POP SWAP1 JUMP JUMPDEST PUSH0 DUP1 PUSH0 SWAP1 POP PUSH0 JUMPDEST PUSH0 DUP1 SLOAD SWAP1 POP DUP2 LT ISZERO PUSH2 0x266 JUMPI PUSH0 DUP2 DUP2 SLOAD DUP2 LT PUSH2 0x243 JUMPI PUSH2 0x242 PUSH2 0x67F JUMP JUMPDEST JUMPDEST SWAP1 PUSH0 MSTORE PUSH1 0x20 PUSH0 KECCAK256 ADD SLOAD DUP3 PUSH2 0x257 SWAP2 SWAP1 PUSH2 0x77D JUMP JUMPDEST SWAP2 POP DUP1 DUP1 PUSH1 0x1 ADD SWAP2 POP POP PUSH2 0x224 JUMP JUMPDEST POP PUSH0 DUP1 SLOAD SWAP1 POP DUP2 PUSH2 0x277 SWAP2 SWAP1 PUSH2 0x7B0 JUMP JUMPDEST SWAP2 POP POP SWAP1 JUMP JUMPDEST JUMPDEST PUSH0 DUP1 DUP1 SLOAD SWAP1 POP EQ PUSH2 0x2B2 JUMPI PUSH0 DUP1 SLOAD DUP1 PUSH2 0x29A JUMPI PUSH2 0x299 PUSH2 0x7E0 JUMP JUMPDEST JUMPDEST PUSH1 0x1 SWAP1 SUB DUP2 DUP2 SWAP1 PUSH0 MSTORE PUSH1 0x20 PUSH0 KECCAK256 ADD PUSH0 SWAP1 SSTORE SWAP1 SSTORE PUSH2 0x27E JUMP JUMPDEST PUSH0 PUSH1 0x1 SWAP1 POP JUMPDEST DUP2 DUP2 GT PUSH2 0x2F7 JUMPI PUSH0 DUP2 SWAP1 DUP1 PUSH1 0x1 DUP2 SLOAD ADD DUP1 DUP3 SSTORE DUP1 SWAP2 POP POP PUSH1 0x1 SWAP1 SUB SWAP1 PUSH0 MSTORE PUSH1 0x20 PUSH0 KECCAK256 ADD PUSH0 SWAP1 SWAP2 SWAP1 SWAP2 SWAP1 SWAP2 POP SSTORE DUP1 DUP1 PUSH2 0x2EF SWAP1 PUSH2 0x736 JUMP JUMPDEST SWAP2 POP POP PUSH2 0x2B8 JUMP JUMPDEST POP POP JUMP JUMPDEST PUSH0 DUP1 PUSH0 JUMPDEST PUSH0 DUP1 SLOAD SWAP1 POP DUP2 LT ISZERO PUSH2 0x355 JUMPI PUSH0 PUSH1 0x2 PUSH0 DUP4 DUP2 SLOAD DUP2 LT PUSH2 0x321 JUMPI PUSH2 0x320 PUSH2 0x67F JUMP JUMPDEST JUMPDEST SWAP1 PUSH0 MSTORE PUSH1 0x20 PUSH0 KECCAK256 ADD SLOAD PUSH2 0x334 SWAP2 SWAP1 PUSH2 0x6D9 JUMP JUMPDEST SUB PUSH2 0x348 JUMPI DUP2 DUP1 PUSH2 0x344 SWAP1 PUSH2 0x736 JUMP JUMPDEST SWAP3 POP POP JUMPDEST DUP1 DUP1 PUSH1 0x1 ADD SWAP2 POP POP PUSH2 0x2FF JUMP JUMPDEST POP DUP1 SWAP2 POP POP SWAP1 JUMP JUMPDEST PUSH0 DUP1 DUP3 DUP2 SLOAD DUP2 LT PUSH2 0x371 JUMPI PUSH2 0x370 PUSH2 0x67F JUMP JUMPDEST JUMPDEST SWAP1 PUSH0 MSTORE PUSH1 0x20 PUSH0 KECCAK256 ADD SLOAD SWAP1 POP SWAP2 SWAP1 POP JUMP JUMPDEST PUSH2 0x389 PUSH2 0x437 JUMP JUMPDEST PUSH2 0x391 PUSH2 0x437 JUMP JUMPDEST PUSH0 DUP1 PUSH0 SWAP1 POP JUMPDEST PUSH0 DUP1 SLOAD SWAP1 POP DUP2 LT ISZERO PUSH2 0x42E JUMPI PUSH0 PUSH1 0x2 PUSH0 DUP4 DUP2 SLOAD DUP2 LT PUSH2 0x3B9 JUMPI PUSH2 0x3B8 PUSH2 0x67F JUMP JUMPDEST JUMPDEST SWAP1 PUSH0 MSTORE PUSH1 0x20 PUSH0 KECCAK256 ADD SLOAD PUSH2 0x3CC SWAP2 SWAP1 PUSH2 0x6D9 JUMP JUMPDEST SUB PUSH2 0x418 JUMPI PUSH0 DUP2 DUP2 SLOAD DUP2 LT PUSH2 0x3E4 JUMPI PUSH2 0x3E3 PUSH2 0x67F JUMP JUMPDEST JUMPDEST SWAP1 PUSH0 MSTORE PUSH1 0x20 PUSH0 KECCAK256 ADD SLOAD DUP4 DUP4 PUSH1 0x5 DUP2 LT PUSH2 0x400 JUMPI PUSH2 0x3FF PUSH2 0x67F JUMP JUMPDEST JUMPDEST PUSH1 0x20 MUL ADD DUP2 DUP2 MSTORE POP POP DUP2 DUP1 PUSH2 0x414 SWAP1 PUSH2 0x736 JUMP JUMPDEST SWAP3 POP POP JUMPDEST PUSH1 0x5 DUP3 LT ISZERO PUSH2 0x42E JUMPI DUP1 DUP1 PUSH1 0x1 ADD SWAP2 POP POP PUSH2 0x397 JUMP JUMPDEST POP DUP2 SWAP3 POP POP POP SWAP1 JUMP JUMPDEST PUSH1 0x40 MLOAD DUP1 PUSH1 0xA0 ADD PUSH1 0x40 MSTORE DUP1 PUSH1 0x5 SWAP1 PUSH1 0x20 DUP3 MUL DUP1 CALLDATASIZE DUP4 CALLDATACOPY DUP1 DUP3 ADD SWAP2 POP POP SWAP1 POP POP SWAP1 JUMP JUMPDEST PUSH0 DUP2 MLOAD SWAP1 POP SWAP2 SWAP1 POP JUMP JUMPDEST PUSH0 DUP3 DUP3 MSTORE PUSH1 0x20 DUP3 ADD SWAP1 POP SWAP3 SWAP2 POP POP JUMP JUMPDEST PUSH0 DUP2 SWAP1 POP PUSH1 0x20 DUP3 ADD SWAP1 POP SWAP2 SWAP1 POP JUMP JUMPDEST PUSH0 DUP2 SWAP1 POP SWAP2 SWAP1 POP JUMP JUMPDEST PUSH2 0x494 DUP2 PUSH2 0x482 JUMP JUMPDEST DUP3 MSTORE POP POP JUMP JUMPDEST PUSH0 PUSH2 0x4A5 DUP4 DUP4 PUSH2 0x48B JUMP JUMPDEST PUSH1 0x20 DUP4 ADD SWAP1 POP SWAP3 SWAP2 POP POP JUMP JUMPDEST PUSH0 PUSH1 0x20 DUP3 ADD SWAP1 POP SWAP2 SWAP1 POP JUMP JUMPDEST PUSH0 PUSH2 0x4C7 DUP3 PUSH2 0x459 JUMP JUMPDEST PUSH2 0x4D1 DUP2 DUP6 PUSH2 0x463 JUMP JUMPDEST SWAP4 POP PUSH2 0x4DC DUP4 PUSH2 0x473 JUMP JUMPDEST DUP1 PUSH0 JUMPDEST DUP4 DUP2 LT ISZERO PUSH2 0x50C JUMPI DUP2 MLOAD PUSH2 0x4F3 DUP9 DUP3 PUSH2 0x49A JUMP JUMPDEST SWAP8 POP PUSH2 0x4FE DUP4 PUSH2 0x4B1 JUMP JUMPDEST SWAP3 POP POP PUSH1 0x1 DUP2 ADD SWAP1 POP PUSH2 0x4DF JUMP JUMPDEST POP DUP6 SWAP4 POP POP POP POP SWAP3 SWAP2 POP POP JUMP JUMPDEST PUSH0 PUSH1 0x20 DUP3 ADD SWAP1 POP DUP2 DUP2 SUB PUSH0 DUP4 ADD MSTORE PUSH2 0x531 DUP2 DUP5 PUSH2 0x4BD JUMP JUMPDEST SWAP1 POP SWAP3 SWAP2 POP POP JUMP JUMPDEST PUSH2 0x542 DUP2 PUSH2 0x482 JUMP JUMPDEST DUP3 MSTORE POP POP JUMP JUMPDEST PUSH0 PUSH1 0x20 DUP3 ADD SWAP1 POP PUSH2 0x55B PUSH0 DUP4 ADD DUP5 PUSH2 0x539 JUMP JUMPDEST SWAP3 SWAP2 POP POP JUMP JUMPDEST PUSH0 DUP1 REVERT JUMPDEST PUSH2 0x56E DUP2 PUSH2 0x482 JUMP JUMPDEST DUP2 EQ PUSH2 0x578 JUMPI PUSH0 DUP1 REVERT JUMPDEST POP JUMP JUMPDEST PUSH0 DUP2 CALLDATALOAD SWAP1 POP PUSH2 0x589 DUP2 PUSH2 0x565 JUMP JUMPDEST SWAP3 SWAP2 POP POP JUMP JUMPDEST PUSH0 PUSH1 0x20 DUP3 DUP5 SUB SLT ISZERO PUSH2 0x5A4 JUMPI PUSH2 0x5A3 PUSH2 0x561 JUMP JUMPDEST JUMPDEST PUSH0 PUSH2 0x5B1 DUP5 DUP3 DUP6 ADD PUSH2 0x57B JUMP JUMPDEST SWAP2 POP POP SWAP3 SWAP2 POP POP JUMP JUMPDEST PUSH0 PUSH1 0x5 SWAP1 POP SWAP2 SWAP1 POP JUMP JUMPDEST PUSH0 DUP2 SWAP1 POP SWAP3 SWAP2 POP POP JUMP JUMPDEST PUSH0 DUP2 SWAP1 POP SWAP2 SWAP1 POP JUMP JUMPDEST PUSH0 PUSH1 0x20 DUP3 ADD SWAP1 POP SWAP2 SWAP1 POP JUMP JUMPDEST PUSH2 0x5EC DUP2 PUSH2 0x5BA JUMP JUMPDEST PUSH2 0x5F6 DUP2 DUP5 PUSH2 0x5C4 JUMP JUMPDEST SWAP3 POP PUSH2 0x601 DUP3 PUSH2 0x5CE JUMP JUMPDEST DUP1 PUSH0 JUMPDEST DUP4 DUP2 LT ISZERO PUSH2 0x631 JUMPI DUP2 MLOAD PUSH2 0x618 DUP8 DUP3 PUSH2 0x49A JUMP JUMPDEST SWAP7 POP PUSH2 0x623 DUP4 PUSH2 0x5D7 JUMP JUMPDEST SWAP3 POP POP PUSH1 0x1 DUP2 ADD SWAP1 POP PUSH2 0x604 JUMP JUMPDEST POP POP POP POP POP POP JUMP JUMPDEST PUSH0 PUSH1 0xA0 DUP3 ADD SWAP1 POP PUSH2 0x64C PUSH0 DUP4 ADD DUP5 PUSH2 0x5E3 JUMP JUMPDEST SWAP3 SWAP2 POP POP JUMP JUMPDEST PUSH32 0x4E487B7100000000000000000000000000000000000000000000000000000000 PUSH0 MSTORE PUSH1 0x41 PUSH1 0x4 MSTORE PUSH1 0x24 PUSH0 REVERT JUMPDEST PUSH32 0x4E487B7100000000000000000000000000000000000000000000000000000000 PUSH0 MSTORE PUSH1 0x32 PUSH1 0x4 MSTORE PUSH1 0x24 PUSH0 REVERT JUMPDEST PUSH32 0x4E487B7100000000000000000000000000000000000000000000000000000000 PUSH0 MSTORE PUSH1 0x12 PUSH1 0x4 MSTORE PUSH1 0x24 PUSH0 REVERT JUMPDEST PUSH0 PUSH2 0x6E3 DUP3 PUSH2 0x482 JUMP JUMPDEST SWAP2 POP PUSH2 0x6EE DUP4 PUSH2 0x482 JUMP JUMPDEST SWAP3 POP DUP3 PUSH2 0x6FE JUMPI PUSH2 0x6FD PUSH2 0x6AC JUMP JUMPDEST JUMPDEST DUP3 DUP3 MOD SWAP1 POP SWAP3 SWAP2 POP POP JUMP JUMPDEST PUSH32 0x4E487B7100000000000000000000000000000000000000000000000000000000 PUSH0 MSTORE PUSH1 0x11 PUSH1 0x4 MSTORE PUSH1 0x24 PUSH0 REVERT JUMPDEST PUSH0 PUSH2 0x740 DUP3 PUSH2 0x482 JUMP JUMPDEST SWAP2 POP PUSH32 0xFFFFFFFFFFFFFFFFFFFFFFFFFFFFFFFFFFFFFFFFFFFFFFFFFFFFFFFFFFFFFFFF DUP3 SUB PUSH2 0x772 JUMPI PUSH2 0x771 PUSH2 0x709 JUMP JUMPDEST JUMPDEST PUSH1 0x1 DUP3 ADD SWAP1 POP SWAP2 SWAP1 POP JUMP JUMPDEST PUSH0 PUSH2 0x787 DUP3 PUSH2 0x482 JUMP JUMPDEST SWAP2 POP PUSH2 0x792 DUP4 PUSH2 0x482 JUMP JUMPDEST SWAP3 POP DUP3 DUP3 ADD SWAP1 POP DUP1 DUP3 GT ISZERO PUSH2 0x7AA JUMPI PUSH2 0x7A9 PUSH2 0x709 JUMP JUMPDEST JUMPDEST SWAP3 SWAP2 POP POP JUMP JUMPDEST PUSH0 PUSH2 0x7BA DUP3 PUSH2 0x482 JUMP JUMPDEST SWAP2 POP PUSH2 0x7C5 DUP4 PUSH2 0x482 JUMP JUMPDEST SWAP3 POP DUP3 PUSH2 0x7D5 JUMPI PUSH2 0x7D4 PUSH2 0x6AC JUMP JUMPDEST JUMPDEST DUP3 DUP3 DIV SWAP1 POP SWAP3 SWAP2 POP POP JUMP JUMPDEST PUSH32 0x4E487B7100000000000000000000000000000000000000000000000000000000 PUSH0 MSTORE PUSH1 0x31 PUSH1 0x4 MSTORE PUSH1 0x24 PUSH0 REVERT INVALID LOG2 PUSH5 0x6970667358 0x22 SLT KECCAK256 0xC7 0xD5 0xBA 0xE4 DUP13 PUSH4 0x65B4CC04 0x2B DUP4 0x5C BYTE 0x5C 0xDE PUSH12 0xF11374D2CFF28C4BBC106B81 0xAF 0xB3 0x22 PUSH5 0x736F6C6343 STOP ADDMOD AND STOP CALLER "
				},
				"gasEstimates": {
					"creation": {
						"codeDepositCost": "423000",
						"executionCost": "459",
						"totalCost": "423459"
					},
					"external": {
						"gerNumber(uint256)": "infinite",
						"getAverage()": "infinite",
						"getMultipleOf2()": "infinite",
						"getMultipleOf2_new()": "infinite",
						"getOddsCount()": "infinite",
						"setNumber(uint256)": "infinite"
					}
				},
				"methodIdentifiers": {
					"gerNumber(uint256)": "7da07bc5",
					"getAverage()": "21055acb",
					"getMultipleOf2()": "fd3901fd",
					"getMultipleOf2_new()": "1834ae67",
					"getOddsCount()": "7d3e4d9c",
					"setNumber(uint256)": "3fb5c1cb"
				}
			},
			"storageLayout": {
				"storage": [
					{
						"astId": 4,
						"contract": "Practice_20231222_2.sol:Practice",
						"label": "numbers",
						"offset": 0,
						"slot": "0",
						"type": "t_array(t_uint256)dyn_storage"
					}
				],
				"types": {
					"t_array(t_uint256)dyn_storage": {
						"base": "t_uint256",
						"encoding": "dynamic_array",
						"label": "uint256[]",
						"numberOfBytes": "32"
					},
					"t_uint256": {
						"encoding": "inplace",
						"label": "uint256",
						"numberOfBytes": "32"
					}
				}
			},
			"userdoc": {
				"kind": "user",
				"methods": {},
				"version": 1
			}
		}
	}
}