{
	"Exam_20240102.sol": {
		"SimpleGame": {
			"abi": [
				{
					"inputs": [],
					"stateMutability": "nonpayable",
					"type": "constructor"
				},
				{
					"inputs": [],
					"name": "deposit",
					"outputs": [],
					"stateMutability": "payable",
					"type": "function"
				},
				{
					"inputs": [
						{
							"internalType": "address",
							"name": "_addr",
							"type": "address"
						}
					],
					"name": "findUserbyAddress",
					"outputs": [
						{
							"internalType": "uint256",
							"name": "",
							"type": "uint256"
						}
					],
					"stateMutability": "view",
					"type": "function"
				},
				{
					"inputs": [],
					"name": "findUserbyAddress",
					"outputs": [
						{
							"internalType": "uint256",
							"name": "",
							"type": "uint256"
						}
					],
					"stateMutability": "view",
					"type": "function"
				},
				{
					"inputs": [],
					"name": "getReward",
					"outputs": [],
					"stateMutability": "nonpayable",
					"type": "function"
				},
				{
					"inputs": [
						{
							"internalType": "uint256",
							"name": "_n",
							"type": "uint256"
						}
					],
					"name": "getSeat",
					"outputs": [],
					"stateMutability": "nonpayable",
					"type": "function"
				},
				{
					"inputs": [],
					"name": "getSeats",
					"outputs": [],
					"stateMutability": "payable",
					"type": "function"
				},
				{
					"inputs": [
						{
							"internalType": "uint256",
							"name": "_n",
							"type": "uint256"
						}
					],
					"name": "getUserInfo",
					"outputs": [
						{
							"components": [
								{
									"internalType": "uint256",
									"name": "index",
									"type": "uint256"
								},
								{
									"internalType": "string",
									"name": "name",
									"type": "string"
								},
								{
									"internalType": "address",
									"name": "account",
									"type": "address"
								},
								{
									"internalType": "uint256",
									"name": "deposit",
									"type": "uint256"
								},
								{
									"internalType": "uint256",
									"name": "score",
									"type": "uint256"
								}
							],
							"internalType": "struct SimpleGame.User",
							"name": "",
							"type": "tuple"
						}
					],
					"stateMutability": "view",
					"type": "function"
				},
				{
					"inputs": [
						{
							"internalType": "string",
							"name": "_name",
							"type": "string"
						}
					],
					"name": "join",
					"outputs": [],
					"stateMutability": "nonpayable",
					"type": "function"
				},
				{
					"inputs": [],
					"name": "showSeats",
					"outputs": [
						{
							"internalType": "uint256[4]",
							"name": "",
							"type": "uint256[4]"
						}
					],
					"stateMutability": "view",
					"type": "function"
				},
				{
					"inputs": [],
					"name": "userSample",
					"outputs": [],
					"stateMutability": "nonpayable",
					"type": "function"
				},
				{
					"inputs": [
						{
							"internalType": "uint256",
							"name": "_amount",
							"type": "uint256"
						}
					],
					"name": "withdrawOwner",
					"outputs": [],
					"stateMutability": "nonpayable",
					"type": "function"
				}
			],
			"devdoc": {
				"kind": "dev",
				"methods": {},
				"version": 1
			},
			"evm": {
				"assembly": "    /* \"Exam_20240102.sol\":952:5722  contract SimpleGame {... */\n  mstore(0x40, 0x80)\n    /* \"Exam_20240102.sol\":1281:1522  constructor() {... */\n  callvalue\n  dup1\n  iszero\n  tag_1\n  jumpi\n  0x00\n  dup1\n  revert\ntag_1:\n  pop\n    /* \"Exam_20240102.sol\":1318:1319  0 */\n  0x00\n    /* \"Exam_20240102.sol\":1306:1315  userIndex */\n  0x02\n    /* \"Exam_20240102.sol\":1306:1319  userIndex = 0 */\n  dup2\n  swap1\n  sstore\n  pop\n    /* \"Exam_20240102.sol\":1342:1343  0 */\n  0x00\n    /* \"Exam_20240102.sol\":1330:1339  seatIndex */\n  0x07\n    /* \"Exam_20240102.sol\":1330:1343  seatIndex = 0 */\n  dup2\n  swap1\n  sstore\n  pop\n    /* \"Exam_20240102.sol\":1481:1491  msg.sender */\n  caller\n    /* \"Exam_20240102.sol\":1465:1470  owner */\n  0x00\n  dup1\n    /* \"Exam_20240102.sol\":1465:1492  owner = payable(msg.sender) */\n  0x0100\n  exp\n  dup2\n  sload\n  dup2\n  0xffffffffffffffffffffffffffffffffffffffff\n  mul\n  not\n  and\n  swap1\n  dup4\n  0xffffffffffffffffffffffffffffffffffffffff\n  and\n  mul\n  or\n  swap1\n  sstore\n  pop\n    /* \"Exam_20240102.sol\":1513:1514  0 */\n  0x00\n    /* \"Exam_20240102.sol\":1503:1510  balance */\n  0x01\n    /* \"Exam_20240102.sol\":1503:1514  balance = 0 */\n  dup2\n  swap1\n  sstore\n  pop\n    /* \"Exam_20240102.sol\":952:5722  contract SimpleGame {... */\n  dataSize(sub_0)\n  dup1\n  dataOffset(sub_0)\n  0x00\n  codecopy\n  0x00\n  return\nstop\n\nsub_0: assembly {\n        /* \"Exam_20240102.sol\":952:5722  contract SimpleGame {... */\n      mstore(0x40, 0x80)\n      jumpi(tag_1, lt(calldatasize, 0x04))\n      shr(0xe0, calldataload(0x00))\n      dup1\n      0x6ef98b21\n      gt\n      tag_13\n      jumpi\n      dup1\n      0x6ef98b21\n      eq\n      tag_7\n      jumpi\n      dup1\n      0xa6c6fe28\n      eq\n      tag_8\n      jumpi\n      dup1\n      0xa997c66a\n      eq\n      tag_9\n      jumpi\n      dup1\n      0xd0e30db0\n      eq\n      tag_10\n      jumpi\n      dup1\n      0xd379dadf\n      eq\n      tag_11\n      jumpi\n      dup1\n      0xe3ecbd50\n      eq\n      tag_12\n      jumpi\n      jump(tag_1)\n    tag_13:\n      dup1\n      0x17b58e8c\n      eq\n      tag_2\n      jumpi\n      dup1\n      0x3d18b912\n      eq\n      tag_3\n      jumpi\n      dup1\n      0x6a786b07\n      eq\n      tag_4\n      jumpi\n      dup1\n      0x6a9e7c6c\n      eq\n      tag_5\n      jumpi\n      dup1\n      0x6e27f896\n      eq\n      tag_6\n      jumpi\n    tag_1:\n      0x00\n      dup1\n      revert\n        /* \"Exam_20240102.sol\":3976:4475  function getSeat(uint _n) public {... */\n    tag_2:\n      callvalue\n      dup1\n      iszero\n      tag_14\n      jumpi\n      0x00\n      dup1\n      revert\n    tag_14:\n      pop\n      tag_15\n      0x04\n      dup1\n      calldatasize\n      sub\n      dup2\n      add\n      swap1\n      tag_16\n      swap2\n      swap1\n      tag_17\n      jump\t// in\n    tag_16:\n      tag_18\n      jump\t// in\n    tag_15:\n      stop\n        /* \"Exam_20240102.sol\":4561:5040  function getReward() public {... */\n    tag_3:\n      callvalue\n      dup1\n      iszero\n      tag_19\n      jumpi\n      0x00\n      dup1\n      revert\n    tag_19:\n      pop\n      tag_20\n      tag_21\n      jump\t// in\n    tag_20:\n      stop\n        /* \"Exam_20240102.sol\":2141:2261  function join(string memory _name) public {... */\n    tag_4:\n      callvalue\n      dup1\n      iszero\n      tag_22\n      jumpi\n      0x00\n      dup1\n      revert\n    tag_22:\n      pop\n      tag_23\n      0x04\n      dup1\n      calldatasize\n      sub\n      dup2\n      add\n      swap1\n      tag_24\n      swap2\n      swap1\n      tag_25\n      jump\t// in\n    tag_24:\n      tag_26\n      jump\t// in\n    tag_23:\n      stop\n        /* \"Exam_20240102.sol\":3880:3968  function showSeats() public view returns(uint[4] memory) {... */\n    tag_5:\n      callvalue\n      dup1\n      iszero\n      tag_27\n      jumpi\n      0x00\n      dup1\n      revert\n    tag_27:\n      pop\n      tag_28\n      tag_29\n      jump\t// in\n    tag_28:\n      mload(0x40)\n      tag_30\n      swap2\n      swap1\n      tag_31\n      jump\t// in\n    tag_30:\n      mload(0x40)\n      dup1\n      swap2\n      sub\n      swap1\n      return\n        /* \"Exam_20240102.sol\":1530:1971  function userSample() public {... */\n    tag_6:\n      callvalue\n      dup1\n      iszero\n      tag_32\n      jumpi\n      0x00\n      dup1\n      revert\n    tag_32:\n      pop\n      tag_33\n      tag_34\n      jump\t// in\n    tag_33:\n      stop\n        /* \"Exam_20240102.sol\":5487:5713  function withdrawOwner(uint _amount) public {... */\n    tag_7:\n      callvalue\n      dup1\n      iszero\n      tag_35\n      jumpi\n      0x00\n      dup1\n      revert\n    tag_35:\n      pop\n      tag_36\n      0x04\n      dup1\n      calldatasize\n      sub\n      dup2\n      add\n      swap1\n      tag_37\n      swap2\n      swap1\n      tag_17\n      jump\t// in\n    tag_37:\n      tag_38\n      jump\t// in\n    tag_36:\n      stop\n        /* \"Exam_20240102.sol\":2727:2977  function findUserbyAddress(address _addr) public view returns(uint) {... */\n    tag_8:\n      callvalue\n      dup1\n      iszero\n      tag_39\n      jumpi\n      0x00\n      dup1\n      revert\n    tag_39:\n      pop\n      tag_40\n      0x04\n      dup1\n      calldatasize\n      sub\n      dup2\n      add\n      swap1\n      tag_41\n      swap2\n      swap1\n      tag_42\n      jump\t// in\n    tag_41:\n      tag_43\n      jump\t// in\n    tag_40:\n      mload(0x40)\n      tag_44\n      swap2\n      swap1\n      tag_45\n      jump\t// in\n    tag_44:\n      mload(0x40)\n      dup1\n      swap2\n      sub\n      swap1\n      return\n        /* \"Exam_20240102.sol\":3393:3872  function getSeats() public payable{... */\n    tag_9:\n      tag_46\n      tag_47\n      jump\t// in\n    tag_46:\n      stop\n        /* \"Exam_20240102.sol\":3161:3273  function deposit() public payable{... */\n    tag_10:\n      tag_48\n      tag_49\n      jump\t// in\n    tag_48:\n      stop\n        /* \"Exam_20240102.sol\":2368:2469  function getUserInfo(uint _n) public view returns(User memory) {... */\n    tag_11:\n      callvalue\n      dup1\n      iszero\n      tag_50\n      jumpi\n      0x00\n      dup1\n      revert\n    tag_50:\n      pop\n      tag_51\n      0x04\n      dup1\n      calldatasize\n      sub\n      dup2\n      add\n      swap1\n      tag_52\n      swap2\n      swap1\n      tag_17\n      jump\t// in\n    tag_52:\n      tag_53\n      jump\t// in\n    tag_51:\n      mload(0x40)\n      tag_54\n      swap2\n      swap1\n      tag_55\n      jump\t// in\n    tag_54:\n      mload(0x40)\n      dup1\n      swap2\n      sub\n      swap1\n      return\n        /* \"Exam_20240102.sol\":2477:2719  function findUserbyAddress() public view returns(uint) {... */\n    tag_12:\n      callvalue\n      dup1\n      iszero\n      tag_56\n      jumpi\n      0x00\n      dup1\n      revert\n    tag_56:\n      pop\n      tag_57\n      tag_58\n      jump\t// in\n    tag_57:\n      mload(0x40)\n      tag_59\n      swap2\n      swap1\n      tag_45\n      jump\t// in\n    tag_59:\n      mload(0x40)\n      dup1\n      swap2\n      sub\n      swap1\n      return\n        /* \"Exam_20240102.sol\":3976:4475  function getSeat(uint _n) public {... */\n    tag_18:\n        /* \"Exam_20240102.sol\":4073:4075  _n */\n      dup1\n        /* \"Exam_20240102.sol\":4052:4057  seats */\n      0x03\n        /* \"Exam_20240102.sol\":4068:4069  4 */\n      0x04\n        /* \"Exam_20240102.sol\":4058:4067  seatIndex */\n      sload(0x07)\n        /* \"Exam_20240102.sol\":4058:4069  seatIndex%4 */\n      tag_61\n      swap2\n      swap1\n      tag_62\n      jump\t// in\n    tag_61:\n        /* \"Exam_20240102.sol\":4052:4070  seats[seatIndex%4] */\n      0x04\n      dup2\n      lt\n      tag_63\n      jumpi\n      tag_64\n      tag_65\n      jump\t// in\n    tag_64:\n    tag_63:\n      add\n        /* \"Exam_20240102.sol\":4052:4075  seats[seatIndex%4] = _n */\n      dup2\n      swap1\n      sstore\n      pop\n        /* \"Exam_20240102.sol\":4090:4099  seatIndex */\n      0x07\n      0x00\n        /* \"Exam_20240102.sol\":4090:4101  seatIndex++ */\n      dup2\n      sload\n      dup1\n      swap3\n      swap2\n      swap1\n      tag_67\n      swap1\n      tag_68\n      jump\t// in\n    tag_67:\n      swap2\n      swap1\n      pop\n      sstore\n      pop\n        /* \"Exam_20240102.sol\":4133:4134  0 */\n      0x00\n        /* \"Exam_20240102.sol\":4128:4129  4 */\n      0x04\n        /* \"Exam_20240102.sol\":4118:4127  seatIndex */\n      sload(0x07)\n        /* \"Exam_20240102.sol\":4118:4129  seatIndex%4 */\n      tag_69\n      swap2\n      swap1\n      tag_62\n      jump\t// in\n    tag_69:\n        /* \"Exam_20240102.sol\":4118:4134  seatIndex%4 == 0 */\n      sub\n        /* \"Exam_20240102.sol\":4114:4468  if (seatIndex%4 == 0) {... */\n      tag_70\n      jumpi\n        /* \"Exam_20240102.sol\":4261:4262  4 */\n      0x04\n        /* \"Exam_20240102.sol\":4233:4241  userList */\n      0x08\n        /* \"Exam_20240102.sol\":4242:4247  seats */\n      0x03\n        /* \"Exam_20240102.sol\":4248:4249  0 */\n      0x00\n        /* \"Exam_20240102.sol\":4242:4250  seats[0] */\n      0x04\n      dup2\n      lt\n      tag_71\n      jumpi\n      tag_72\n      tag_65\n      jump\t// in\n    tag_72:\n    tag_71:\n      add\n      sload\n        /* \"Exam_20240102.sol\":4233:4251  userList[seats[0]] */\n      dup2\n      sload\n      dup2\n      lt\n      tag_74\n      jumpi\n      tag_75\n      tag_65\n      jump\t// in\n    tag_75:\n    tag_74:\n      swap1\n      0x00\n      mstore\n      keccak256(0x00, 0x20)\n      swap1\n      0x05\n      mul\n      add\n        /* \"Exam_20240102.sol\":4233:4257  userList[seats[0]].score */\n      0x04\n      add\n      0x00\n        /* \"Exam_20240102.sol\":4233:4262  userList[seats[0]].score += 4 */\n      dup3\n      dup3\n      sload\n      tag_77\n      swap2\n      swap1\n      tag_78\n      jump\t// in\n    tag_77:\n      swap3\n      pop\n      pop\n      dup2\n      swap1\n      sstore\n      pop\n        /* \"Exam_20240102.sol\":4305:4306  3 */\n      0x03\n        /* \"Exam_20240102.sol\":4277:4285  userList */\n      0x08\n        /* \"Exam_20240102.sol\":4286:4291  seats */\n      0x03\n        /* \"Exam_20240102.sol\":4292:4293  1 */\n      0x01\n        /* \"Exam_20240102.sol\":4286:4294  seats[1] */\n      0x04\n      dup2\n      lt\n      tag_79\n      jumpi\n      tag_80\n      tag_65\n      jump\t// in\n    tag_80:\n    tag_79:\n      add\n      sload\n        /* \"Exam_20240102.sol\":4277:4295  userList[seats[1]] */\n      dup2\n      sload\n      dup2\n      lt\n      tag_82\n      jumpi\n      tag_83\n      tag_65\n      jump\t// in\n    tag_83:\n    tag_82:\n      swap1\n      0x00\n      mstore\n      keccak256(0x00, 0x20)\n      swap1\n      0x05\n      mul\n      add\n        /* \"Exam_20240102.sol\":4277:4301  userList[seats[1]].score */\n      0x04\n      add\n      0x00\n        /* \"Exam_20240102.sol\":4277:4306  userList[seats[1]].score += 3 */\n      dup3\n      dup3\n      sload\n      tag_85\n      swap2\n      swap1\n      tag_78\n      jump\t// in\n    tag_85:\n      swap3\n      pop\n      pop\n      dup2\n      swap1\n      sstore\n      pop\n        /* \"Exam_20240102.sol\":4349:4350  2 */\n      0x02\n        /* \"Exam_20240102.sol\":4321:4329  userList */\n      0x08\n        /* \"Exam_20240102.sol\":4330:4335  seats */\n      0x03\n        /* \"Exam_20240102.sol\":4336:4337  2 */\n      0x02\n        /* \"Exam_20240102.sol\":4330:4338  seats[2] */\n      0x04\n      dup2\n      lt\n      tag_86\n      jumpi\n      tag_87\n      tag_65\n      jump\t// in\n    tag_87:\n    tag_86:\n      add\n      sload\n        /* \"Exam_20240102.sol\":4321:4339  userList[seats[2]] */\n      dup2\n      sload\n      dup2\n      lt\n      tag_89\n      jumpi\n      tag_90\n      tag_65\n      jump\t// in\n    tag_90:\n    tag_89:\n      swap1\n      0x00\n      mstore\n      keccak256(0x00, 0x20)\n      swap1\n      0x05\n      mul\n      add\n        /* \"Exam_20240102.sol\":4321:4345  userList[seats[2]].score */\n      0x04\n      add\n      0x00\n        /* \"Exam_20240102.sol\":4321:4350  userList[seats[2]].score += 2 */\n      dup3\n      dup3\n      sload\n      tag_92\n      swap2\n      swap1\n      tag_78\n      jump\t// in\n    tag_92:\n      swap3\n      pop\n      pop\n      dup2\n      swap1\n      sstore\n      pop\n        /* \"Exam_20240102.sol\":4393:4394  1 */\n      0x01\n        /* \"Exam_20240102.sol\":4365:4373  userList */\n      0x08\n        /* \"Exam_20240102.sol\":4374:4379  seats */\n      0x03\n        /* \"Exam_20240102.sol\":4380:4381  3 */\n      dup1\n        /* \"Exam_20240102.sol\":4374:4382  seats[3] */\n      0x04\n      dup2\n      lt\n      tag_93\n      jumpi\n      tag_94\n      tag_65\n      jump\t// in\n    tag_94:\n    tag_93:\n      add\n      sload\n        /* \"Exam_20240102.sol\":4365:4383  userList[seats[3]] */\n      dup2\n      sload\n      dup2\n      lt\n      tag_96\n      jumpi\n      tag_97\n      tag_65\n      jump\t// in\n    tag_97:\n    tag_96:\n      swap1\n      0x00\n      mstore\n      keccak256(0x00, 0x20)\n      swap1\n      0x05\n      mul\n      add\n        /* \"Exam_20240102.sol\":4365:4389  userList[seats[3]].score */\n      0x04\n      add\n      0x00\n        /* \"Exam_20240102.sol\":4365:4394  userList[seats[3]].score += 1 */\n      dup3\n      dup3\n      sload\n      tag_99\n      swap2\n      swap1\n      tag_78\n      jump\t// in\n    tag_99:\n      swap3\n      pop\n      pop\n      dup2\n      swap1\n      sstore\n      pop\n        /* \"Exam_20240102.sol\":4451:4456  seats */\n      0x03\n      0x00\n        /* \"Exam_20240102.sol\":4444:4456  delete seats */\n      tag_100\n      swap2\n      swap1\n      tag_101\n      jump\t// in\n    tag_100:\n        /* \"Exam_20240102.sol\":4114:4468  if (seatIndex%4 == 0) {... */\n    tag_70:\n        /* \"Exam_20240102.sol\":3976:4475  function getSeat(uint _n) public {... */\n      pop\n      jump\t// out\n        /* \"Exam_20240102.sol\":4561:5040  function getReward() public {... */\n    tag_21:\n        /* \"Exam_20240102.sol\":4733:4735  10 */\n      0x0a\n        /* \"Exam_20240102.sol\":4684:4692  userList */\n      0x08\n        /* \"Exam_20240102.sol\":4693:4722  findUserbyAddress(msg.sender) */\n      tag_103\n        /* \"Exam_20240102.sol\":4711:4721  msg.sender */\n      caller\n        /* \"Exam_20240102.sol\":4693:4710  findUserbyAddress */\n      tag_43\n        /* \"Exam_20240102.sol\":4693:4722  findUserbyAddress(msg.sender) */\n      jump\t// in\n    tag_103:\n        /* \"Exam_20240102.sol\":4684:4723  userList[findUserbyAddress(msg.sender)] */\n      dup2\n      sload\n      dup2\n      lt\n      tag_104\n      jumpi\n      tag_105\n      tag_65\n      jump\t// in\n    tag_105:\n    tag_104:\n      swap1\n      0x00\n      mstore\n      keccak256(0x00, 0x20)\n      swap1\n      0x05\n      mul\n      add\n        /* \"Exam_20240102.sol\":4684:4729  userList[findUserbyAddress(msg.sender)].score */\n      0x04\n      add\n      sload\n        /* \"Exam_20240102.sol\":4684:4735  userList[findUserbyAddress(msg.sender)].score >= 10 */\n      lt\n      iszero\n        /* \"Exam_20240102.sol\":4676:4757  require(userList[findUserbyAddress(msg.sender)].score >= 10, \"inefficient Score\") */\n      tag_107\n      jumpi\n      mload(0x40)\n      0x08c379a000000000000000000000000000000000000000000000000000000000\n      dup2\n      mstore\n      0x04\n      add\n      tag_108\n      swap1\n      tag_109\n      jump\t// in\n    tag_108:\n      mload(0x40)\n      dup1\n      swap2\n      sub\n      swap1\n      revert\n    tag_107:\n        /* \"Exam_20240102.sol\":4845:4847  10 */\n      0x0a\n        /* \"Exam_20240102.sol\":4796:4804  userList */\n      0x08\n        /* \"Exam_20240102.sol\":4805:4834  findUserbyAddress(msg.sender) */\n      tag_110\n        /* \"Exam_20240102.sol\":4823:4833  msg.sender */\n      caller\n        /* \"Exam_20240102.sol\":4805:4822  findUserbyAddress */\n      tag_43\n        /* \"Exam_20240102.sol\":4805:4834  findUserbyAddress(msg.sender) */\n      jump\t// in\n    tag_110:\n        /* \"Exam_20240102.sol\":4796:4835  userList[findUserbyAddress(msg.sender)] */\n      dup2\n      sload\n      dup2\n      lt\n      tag_111\n      jumpi\n      tag_112\n      tag_65\n      jump\t// in\n    tag_112:\n    tag_111:\n      swap1\n      0x00\n      mstore\n      keccak256(0x00, 0x20)\n      swap1\n      0x05\n      mul\n      add\n        /* \"Exam_20240102.sol\":4796:4841  userList[findUserbyAddress(msg.sender)].score */\n      0x04\n      add\n      0x00\n        /* \"Exam_20240102.sol\":4796:4847  userList[findUserbyAddress(msg.sender)].score -= 10 */\n      dup3\n      dup3\n      sload\n      tag_114\n      swap2\n      swap1\n      tag_115\n      jump\t// in\n    tag_114:\n      swap3\n      pop\n      pop\n      dup2\n      swap1\n      sstore\n      pop\n        /* \"Exam_20240102.sol\":4952:4961  0.1 ether */\n      0x016345785d8a0000\n        /* \"Exam_20240102.sol\":4941:4948  balance */\n      0x01\n      0x00\n        /* \"Exam_20240102.sol\":4941:4961  balance -= 0.1 ether */\n      dup3\n      dup3\n      sload\n      tag_116\n      swap2\n      swap1\n      tag_115\n      jump\t// in\n    tag_116:\n      swap3\n      pop\n      pop\n      dup2\n      swap1\n      sstore\n      pop\n        /* \"Exam_20240102.sol\":5023:5032  0.1 ether */\n      0x016345785d8a0000\n        /* \"Exam_20240102.sol\":4972:4980  userList */\n      0x08\n        /* \"Exam_20240102.sol\":4981:5010  findUserbyAddress(msg.sender) */\n      tag_117\n        /* \"Exam_20240102.sol\":4999:5009  msg.sender */\n      caller\n        /* \"Exam_20240102.sol\":4981:4998  findUserbyAddress */\n      tag_43\n        /* \"Exam_20240102.sol\":4981:5010  findUserbyAddress(msg.sender) */\n      jump\t// in\n    tag_117:\n        /* \"Exam_20240102.sol\":4972:5011  userList[findUserbyAddress(msg.sender)] */\n      dup2\n      sload\n      dup2\n      lt\n      tag_118\n      jumpi\n      tag_119\n      tag_65\n      jump\t// in\n    tag_119:\n    tag_118:\n      swap1\n      0x00\n      mstore\n      keccak256(0x00, 0x20)\n      swap1\n      0x05\n      mul\n      add\n        /* \"Exam_20240102.sol\":4972:5019  userList[findUserbyAddress(msg.sender)].deposit */\n      0x03\n      add\n      0x00\n        /* \"Exam_20240102.sol\":4972:5032  userList[findUserbyAddress(msg.sender)].deposit += 0.1 ether */\n      dup3\n      dup3\n      sload\n      tag_121\n      swap2\n      swap1\n      tag_78\n      jump\t// in\n    tag_121:\n      swap3\n      pop\n      pop\n      dup2\n      swap1\n      sstore\n      pop\n        /* \"Exam_20240102.sol\":4561:5040  function getReward() public {... */\n      jump\t// out\n        /* \"Exam_20240102.sol\":2141:2261  function join(string memory _name) public {... */\n    tag_26:\n        /* \"Exam_20240102.sol\":2194:2202  userList */\n      0x08\n        /* \"Exam_20240102.sol\":2208:2250  User(userIndex++, _name, msg.sender, 0, 0) */\n      mload(0x40)\n      dup1\n      0xa0\n      add\n      0x40\n      mstore\n      dup1\n        /* \"Exam_20240102.sol\":2213:2222  userIndex */\n      0x02\n      0x00\n        /* \"Exam_20240102.sol\":2213:2224  userIndex++ */\n      dup2\n      sload\n      dup1\n      swap3\n      swap2\n      swap1\n      tag_123\n      swap1\n      tag_68\n      jump\t// in\n    tag_123:\n      swap2\n      swap1\n      pop\n      sstore\n        /* \"Exam_20240102.sol\":2208:2250  User(userIndex++, _name, msg.sender, 0, 0) */\n      dup2\n      mstore\n      0x20\n      add\n        /* \"Exam_20240102.sol\":2226:2231  _name */\n      dup4\n        /* \"Exam_20240102.sol\":2208:2250  User(userIndex++, _name, msg.sender, 0, 0) */\n      dup2\n      mstore\n      0x20\n      add\n        /* \"Exam_20240102.sol\":2233:2243  msg.sender */\n      caller\n        /* \"Exam_20240102.sol\":2208:2250  User(userIndex++, _name, msg.sender, 0, 0) */\n      0xffffffffffffffffffffffffffffffffffffffff\n      and\n      dup2\n      mstore\n      0x20\n      add\n        /* \"Exam_20240102.sol\":2245:2246  0 */\n      0x00\n        /* \"Exam_20240102.sol\":2208:2250  User(userIndex++, _name, msg.sender, 0, 0) */\n      dup2\n      mstore\n      0x20\n      add\n        /* \"Exam_20240102.sol\":2248:2249  0 */\n      0x00\n        /* \"Exam_20240102.sol\":2208:2250  User(userIndex++, _name, msg.sender, 0, 0) */\n      dup2\n      mstore\n      pop\n        /* \"Exam_20240102.sol\":2194:2251  userList.push(User(userIndex++, _name, msg.sender, 0, 0)) */\n      swap1\n      dup1\n      0x01\n      dup2\n      sload\n      add\n      dup1\n      dup3\n      sstore\n      dup1\n      swap2\n      pop\n      pop\n      0x01\n      swap1\n      sub\n      swap1\n      0x00\n      mstore\n      keccak256(0x00, 0x20)\n      swap1\n      0x05\n      mul\n      add\n      0x00\n      swap1\n      swap2\n      swap1\n      swap2\n      swap1\n      swap2\n      pop\n      0x00\n      dup3\n      add\n      mload\n      dup2\n      0x00\n      add\n      sstore\n      0x20\n      dup3\n      add\n      mload\n      dup2\n      0x01\n      add\n      swap1\n      dup2\n      tag_125\n      swap2\n      swap1\n      tag_126\n      jump\t// in\n    tag_125:\n      pop\n      0x40\n      dup3\n      add\n      mload\n      dup2\n      0x02\n      add\n      exp(0x0100, 0x00)\n      dup2\n      sload\n      dup2\n      0xffffffffffffffffffffffffffffffffffffffff\n      mul\n      not\n      and\n      swap1\n      dup4\n      0xffffffffffffffffffffffffffffffffffffffff\n      and\n      mul\n      or\n      swap1\n      sstore\n      pop\n      0x60\n      dup3\n      add\n      mload\n      dup2\n      0x03\n      add\n      sstore\n      0x80\n      dup3\n      add\n      mload\n      dup2\n      0x04\n      add\n      sstore\n      pop\n      pop\n        /* \"Exam_20240102.sol\":2141:2261  function join(string memory _name) public {... */\n      pop\n      jump\t// out\n        /* \"Exam_20240102.sol\":3880:3968  function showSeats() public view returns(uint[4] memory) {... */\n    tag_29:\n        /* \"Exam_20240102.sol\":3921:3935  uint[4] memory */\n      tag_127\n      tag_128\n      jump\t// in\n    tag_127:\n        /* \"Exam_20240102.sol\":3955:3960  seats */\n      0x03\n        /* \"Exam_20240102.sol\":3948:3960  return seats */\n      0x04\n      dup1\n      0x20\n      mul\n      mload(0x40)\n      swap1\n      dup2\n      add\n      0x40\n      mstore\n      dup1\n      swap3\n      swap2\n      swap1\n      dup3\n      0x04\n      dup1\n      iszero\n      tag_130\n      jumpi\n      0x20\n      mul\n      dup3\n      add\n      swap2\n    tag_131:\n      dup2\n      sload\n      dup2\n      mstore\n      0x20\n      add\n      swap1\n      0x01\n      add\n      swap1\n      dup1\n      dup4\n      gt\n      tag_131\n      jumpi\n    tag_130:\n      pop\n      pop\n      pop\n      pop\n      pop\n      swap1\n      pop\n        /* \"Exam_20240102.sol\":3880:3968  function showSeats() public view returns(uint[4] memory) {... */\n      swap1\n      jump\t// out\n        /* \"Exam_20240102.sol\":1530:1971  function userSample() public {... */\n    tag_34:\n        /* \"Exam_20240102.sol\":1570:1578  userList */\n      0x08\n        /* \"Exam_20240102.sol\":1584:1660  User(userIndex++, \"Jimmy\", 0x14723A09ACff6D2A60DcdF7aA4AFf308FDDC160C, 0, 0) */\n      mload(0x40)\n      dup1\n      0xa0\n      add\n      0x40\n      mstore\n      dup1\n        /* \"Exam_20240102.sol\":1589:1598  userIndex */\n      0x02\n      0x00\n        /* \"Exam_20240102.sol\":1589:1600  userIndex++ */\n      dup2\n      sload\n      dup1\n      swap3\n      swap2\n      swap1\n      tag_133\n      swap1\n      tag_68\n      jump\t// in\n    tag_133:\n      swap2\n      swap1\n      pop\n      sstore\n        /* \"Exam_20240102.sol\":1584:1660  User(userIndex++, \"Jimmy\", 0x14723A09ACff6D2A60DcdF7aA4AFf308FDDC160C, 0, 0) */\n      dup2\n      mstore\n      0x20\n      add\n      mload(0x40)\n      dup1\n      0x40\n      add\n      0x40\n      mstore\n      dup1\n      0x05\n      dup2\n      mstore\n      0x20\n      add\n      0x4a696d6d79000000000000000000000000000000000000000000000000000000\n      dup2\n      mstore\n      pop\n      dup2\n      mstore\n      0x20\n      add\n        /* \"Exam_20240102.sol\":1611:1653  0x14723A09ACff6D2A60DcdF7aA4AFf308FDDC160C */\n      0x14723a09acff6d2a60dcdf7aa4aff308fddc160c\n        /* \"Exam_20240102.sol\":1584:1660  User(userIndex++, \"Jimmy\", 0x14723A09ACff6D2A60DcdF7aA4AFf308FDDC160C, 0, 0) */\n      0xffffffffffffffffffffffffffffffffffffffff\n      and\n      dup2\n      mstore\n      0x20\n      add\n        /* \"Exam_20240102.sol\":1655:1656  0 */\n      0x00\n        /* \"Exam_20240102.sol\":1584:1660  User(userIndex++, \"Jimmy\", 0x14723A09ACff6D2A60DcdF7aA4AFf308FDDC160C, 0, 0) */\n      dup2\n      mstore\n      0x20\n      add\n        /* \"Exam_20240102.sol\":1658:1659  0 */\n      0x00\n        /* \"Exam_20240102.sol\":1584:1660  User(userIndex++, \"Jimmy\", 0x14723A09ACff6D2A60DcdF7aA4AFf308FDDC160C, 0, 0) */\n      dup2\n      mstore\n      pop\n        /* \"Exam_20240102.sol\":1570:1661  userList.push(User(userIndex++, \"Jimmy\", 0x14723A09ACff6D2A60DcdF7aA4AFf308FDDC160C, 0, 0)) */\n      swap1\n      dup1\n      0x01\n      dup2\n      sload\n      add\n      dup1\n      dup3\n      sstore\n      dup1\n      swap2\n      pop\n      pop\n      0x01\n      swap1\n      sub\n      swap1\n      0x00\n      mstore\n      keccak256(0x00, 0x20)\n      swap1\n      0x05\n      mul\n      add\n      0x00\n      swap1\n      swap2\n      swap1\n      swap2\n      swap1\n      swap2\n      pop\n      0x00\n      dup3\n      add\n      mload\n      dup2\n      0x00\n      add\n      sstore\n      0x20\n      dup3\n      add\n      mload\n      dup2\n      0x01\n      add\n      swap1\n      dup2\n      tag_135\n      swap2\n      swap1\n      tag_126\n      jump\t// in\n    tag_135:\n      pop\n      0x40\n      dup3\n      add\n      mload\n      dup2\n      0x02\n      add\n      exp(0x0100, 0x00)\n      dup2\n      sload\n      dup2\n      0xffffffffffffffffffffffffffffffffffffffff\n      mul\n      not\n      and\n      swap1\n      dup4\n      0xffffffffffffffffffffffffffffffffffffffff\n      and\n      mul\n      or\n      swap1\n      sstore\n      pop\n      0x60\n      dup3\n      add\n      mload\n      dup2\n      0x03\n      add\n      sstore\n      0x80\n      dup3\n      add\n      mload\n      dup2\n      0x04\n      add\n      sstore\n      pop\n      pop\n        /* \"Exam_20240102.sol\":1672:1680  userList */\n      0x08\n        /* \"Exam_20240102.sol\":1686:1760  User(userIndex++, \"Amy\", 0x4B0897b0513fdC7C541B6d9D7E929C4e5364D2dB, 0, 0) */\n      mload(0x40)\n      dup1\n      0xa0\n      add\n      0x40\n      mstore\n      dup1\n        /* \"Exam_20240102.sol\":1691:1700  userIndex */\n      0x02\n      0x00\n        /* \"Exam_20240102.sol\":1691:1702  userIndex++ */\n      dup2\n      sload\n      dup1\n      swap3\n      swap2\n      swap1\n      tag_136\n      swap1\n      tag_68\n      jump\t// in\n    tag_136:\n      swap2\n      swap1\n      pop\n      sstore\n        /* \"Exam_20240102.sol\":1686:1760  User(userIndex++, \"Amy\", 0x4B0897b0513fdC7C541B6d9D7E929C4e5364D2dB, 0, 0) */\n      dup2\n      mstore\n      0x20\n      add\n      mload(0x40)\n      dup1\n      0x40\n      add\n      0x40\n      mstore\n      dup1\n      0x03\n      dup2\n      mstore\n      0x20\n      add\n      0x416d790000000000000000000000000000000000000000000000000000000000\n      dup2\n      mstore\n      pop\n      dup2\n      mstore\n      0x20\n      add\n        /* \"Exam_20240102.sol\":1711:1753  0x4B0897b0513fdC7C541B6d9D7E929C4e5364D2dB */\n      0x4b0897b0513fdc7c541b6d9d7e929c4e5364d2db\n        /* \"Exam_20240102.sol\":1686:1760  User(userIndex++, \"Amy\", 0x4B0897b0513fdC7C541B6d9D7E929C4e5364D2dB, 0, 0) */\n      0xffffffffffffffffffffffffffffffffffffffff\n      and\n      dup2\n      mstore\n      0x20\n      add\n        /* \"Exam_20240102.sol\":1755:1756  0 */\n      0x00\n        /* \"Exam_20240102.sol\":1686:1760  User(userIndex++, \"Amy\", 0x4B0897b0513fdC7C541B6d9D7E929C4e5364D2dB, 0, 0) */\n      dup2\n      mstore\n      0x20\n      add\n        /* \"Exam_20240102.sol\":1758:1759  0 */\n      0x00\n        /* \"Exam_20240102.sol\":1686:1760  User(userIndex++, \"Amy\", 0x4B0897b0513fdC7C541B6d9D7E929C4e5364D2dB, 0, 0) */\n      dup2\n      mstore\n      pop\n        /* \"Exam_20240102.sol\":1672:1761  userList.push(User(userIndex++, \"Amy\", 0x4B0897b0513fdC7C541B6d9D7E929C4e5364D2dB, 0, 0)) */\n      swap1\n      dup1\n      0x01\n      dup2\n      sload\n      add\n      dup1\n      dup3\n      sstore\n      dup1\n      swap2\n      pop\n      pop\n      0x01\n      swap1\n      sub\n      swap1\n      0x00\n      mstore\n      keccak256(0x00, 0x20)\n      swap1\n      0x05\n      mul\n      add\n      0x00\n      swap1\n      swap2\n      swap1\n      swap2\n      swap1\n      swap2\n      pop\n      0x00\n      dup3\n      add\n      mload\n      dup2\n      0x00\n      add\n      sstore\n      0x20\n      dup3\n      add\n      mload\n      dup2\n      0x01\n      add\n      swap1\n      dup2\n      tag_138\n      swap2\n      swap1\n      tag_126\n      jump\t// in\n    tag_138:\n      pop\n      0x40\n      dup3\n      add\n      mload\n      dup2\n      0x02\n      add\n      exp(0x0100, 0x00)\n      dup2\n      sload\n      dup2\n      0xffffffffffffffffffffffffffffffffffffffff\n      mul\n      not\n      and\n      swap1\n      dup4\n      0xffffffffffffffffffffffffffffffffffffffff\n      and\n      mul\n      or\n      swap1\n      sstore\n      pop\n      0x60\n      dup3\n      add\n      mload\n      dup2\n      0x03\n      add\n      sstore\n      0x80\n      dup3\n      add\n      mload\n      dup2\n      0x04\n      add\n      sstore\n      pop\n      pop\n        /* \"Exam_20240102.sol\":1772:1780  userList */\n      0x08\n        /* \"Exam_20240102.sol\":1786:1860  User(userIndex++, \"Max\", 0x583031D1113aD414F02576BD6afaBfb302140225, 0, 0) */\n      mload(0x40)\n      dup1\n      0xa0\n      add\n      0x40\n      mstore\n      dup1\n        /* \"Exam_20240102.sol\":1791:1800  userIndex */\n      0x02\n      0x00\n        /* \"Exam_20240102.sol\":1791:1802  userIndex++ */\n      dup2\n      sload\n      dup1\n      swap3\n      swap2\n      swap1\n      tag_139\n      swap1\n      tag_68\n      jump\t// in\n    tag_139:\n      swap2\n      swap1\n      pop\n      sstore\n        /* \"Exam_20240102.sol\":1786:1860  User(userIndex++, \"Max\", 0x583031D1113aD414F02576BD6afaBfb302140225, 0, 0) */\n      dup2\n      mstore\n      0x20\n      add\n      mload(0x40)\n      dup1\n      0x40\n      add\n      0x40\n      mstore\n      dup1\n      0x03\n      dup2\n      mstore\n      0x20\n      add\n      0x4d61780000000000000000000000000000000000000000000000000000000000\n      dup2\n      mstore\n      pop\n      dup2\n      mstore\n      0x20\n      add\n        /* \"Exam_20240102.sol\":1811:1853  0x583031D1113aD414F02576BD6afaBfb302140225 */\n      0x583031d1113ad414f02576bd6afabfb302140225\n        /* \"Exam_20240102.sol\":1786:1860  User(userIndex++, \"Max\", 0x583031D1113aD414F02576BD6afaBfb302140225, 0, 0) */\n      0xffffffffffffffffffffffffffffffffffffffff\n      and\n      dup2\n      mstore\n      0x20\n      add\n        /* \"Exam_20240102.sol\":1855:1856  0 */\n      0x00\n        /* \"Exam_20240102.sol\":1786:1860  User(userIndex++, \"Max\", 0x583031D1113aD414F02576BD6afaBfb302140225, 0, 0) */\n      dup2\n      mstore\n      0x20\n      add\n        /* \"Exam_20240102.sol\":1858:1859  0 */\n      0x00\n        /* \"Exam_20240102.sol\":1786:1860  User(userIndex++, \"Max\", 0x583031D1113aD414F02576BD6afaBfb302140225, 0, 0) */\n      dup2\n      mstore\n      pop\n        /* \"Exam_20240102.sol\":1772:1861  userList.push(User(userIndex++, \"Max\", 0x583031D1113aD414F02576BD6afaBfb302140225, 0, 0)) */\n      swap1\n      dup1\n      0x01\n      dup2\n      sload\n      add\n      dup1\n      dup3\n      sstore\n      dup1\n      swap2\n      pop\n      pop\n      0x01\n      swap1\n      sub\n      swap1\n      0x00\n      mstore\n      keccak256(0x00, 0x20)\n      swap1\n      0x05\n      mul\n      add\n      0x00\n      swap1\n      swap2\n      swap1\n      swap2\n      swap1\n      swap2\n      pop\n      0x00\n      dup3\n      add\n      mload\n      dup2\n      0x00\n      add\n      sstore\n      0x20\n      dup3\n      add\n      mload\n      dup2\n      0x01\n      add\n      swap1\n      dup2\n      tag_141\n      swap2\n      swap1\n      tag_126\n      jump\t// in\n    tag_141:\n      pop\n      0x40\n      dup3\n      add\n      mload\n      dup2\n      0x02\n      add\n      exp(0x0100, 0x00)\n      dup2\n      sload\n      dup2\n      0xffffffffffffffffffffffffffffffffffffffff\n      mul\n      not\n      and\n      swap1\n      dup4\n      0xffffffffffffffffffffffffffffffffffffffff\n      and\n      mul\n      or\n      swap1\n      sstore\n      pop\n      0x60\n      dup3\n      add\n      mload\n      dup2\n      0x03\n      add\n      sstore\n      0x80\n      dup3\n      add\n      mload\n      dup2\n      0x04\n      add\n      sstore\n      pop\n      pop\n        /* \"Exam_20240102.sol\":1872:1880  userList */\n      0x08\n        /* \"Exam_20240102.sol\":1886:1962  User(userIndex++, \"Hainz\", 0xdD870fA1b7C4700F2BD7f44238821C26f7392148, 0, 0) */\n      mload(0x40)\n      dup1\n      0xa0\n      add\n      0x40\n      mstore\n      dup1\n        /* \"Exam_20240102.sol\":1891:1900  userIndex */\n      0x02\n      0x00\n        /* \"Exam_20240102.sol\":1891:1902  userIndex++ */\n      dup2\n      sload\n      dup1\n      swap3\n      swap2\n      swap1\n      tag_142\n      swap1\n      tag_68\n      jump\t// in\n    tag_142:\n      swap2\n      swap1\n      pop\n      sstore\n        /* \"Exam_20240102.sol\":1886:1962  User(userIndex++, \"Hainz\", 0xdD870fA1b7C4700F2BD7f44238821C26f7392148, 0, 0) */\n      dup2\n      mstore\n      0x20\n      add\n      mload(0x40)\n      dup1\n      0x40\n      add\n      0x40\n      mstore\n      dup1\n      0x05\n      dup2\n      mstore\n      0x20\n      add\n      0x4861696e7a000000000000000000000000000000000000000000000000000000\n      dup2\n      mstore\n      pop\n      dup2\n      mstore\n      0x20\n      add\n        /* \"Exam_20240102.sol\":1913:1955  0xdD870fA1b7C4700F2BD7f44238821C26f7392148 */\n      0xdd870fa1b7c4700f2bd7f44238821c26f7392148\n        /* \"Exam_20240102.sol\":1886:1962  User(userIndex++, \"Hainz\", 0xdD870fA1b7C4700F2BD7f44238821C26f7392148, 0, 0) */\n      0xffffffffffffffffffffffffffffffffffffffff\n      and\n      dup2\n      mstore\n      0x20\n      add\n        /* \"Exam_20240102.sol\":1957:1958  0 */\n      0x00\n        /* \"Exam_20240102.sol\":1886:1962  User(userIndex++, \"Hainz\", 0xdD870fA1b7C4700F2BD7f44238821C26f7392148, 0, 0) */\n      dup2\n      mstore\n      0x20\n      add\n        /* \"Exam_20240102.sol\":1960:1961  0 */\n      0x00\n        /* \"Exam_20240102.sol\":1886:1962  User(userIndex++, \"Hainz\", 0xdD870fA1b7C4700F2BD7f44238821C26f7392148, 0, 0) */\n      dup2\n      mstore\n      pop\n        /* \"Exam_20240102.sol\":1872:1963  userList.push(User(userIndex++, \"Hainz\", 0xdD870fA1b7C4700F2BD7f44238821C26f7392148, 0, 0)) */\n      swap1\n      dup1\n      0x01\n      dup2\n      sload\n      add\n      dup1\n      dup3\n      sstore\n      dup1\n      swap2\n      pop\n      pop\n      0x01\n      swap1\n      sub\n      swap1\n      0x00\n      mstore\n      keccak256(0x00, 0x20)\n      swap1\n      0x05\n      mul\n      add\n      0x00\n      swap1\n      swap2\n      swap1\n      swap2\n      swap1\n      swap2\n      pop\n      0x00\n      dup3\n      add\n      mload\n      dup2\n      0x00\n      add\n      sstore\n      0x20\n      dup3\n      add\n      mload\n      dup2\n      0x01\n      add\n      swap1\n      dup2\n      tag_144\n      swap2\n      swap1\n      tag_126\n      jump\t// in\n    tag_144:\n      pop\n      0x40\n      dup3\n      add\n      mload\n      dup2\n      0x02\n      add\n      exp(0x0100, 0x00)\n      dup2\n      sload\n      dup2\n      0xffffffffffffffffffffffffffffffffffffffff\n      mul\n      not\n      and\n      swap1\n      dup4\n      0xffffffffffffffffffffffffffffffffffffffff\n      and\n      mul\n      or\n      swap1\n      sstore\n      pop\n      0x60\n      dup3\n      add\n      mload\n      dup2\n      0x03\n      add\n      sstore\n      0x80\n      dup3\n      add\n      mload\n      dup2\n      0x04\n      add\n      sstore\n      pop\n      pop\n        /* \"Exam_20240102.sol\":1530:1971  function userSample() public {... */\n      jump\t// out\n        /* \"Exam_20240102.sol\":5487:5713  function withdrawOwner(uint _amount) public {... */\n    tag_38:\n        /* \"Exam_20240102.sol\":5561:5568  _amount */\n      dup1\n        /* \"Exam_20240102.sol\":5550:5557  balance */\n      sload(0x01)\n        /* \"Exam_20240102.sol\":5550:5568  balance >= _amount */\n      lt\n      iszero\n        /* \"Exam_20240102.sol\":5542:5579  require(balance >= _amount, \"revert\") */\n      tag_146\n      jumpi\n      mload(0x40)\n      0x08c379a000000000000000000000000000000000000000000000000000000000\n      dup2\n      mstore\n      0x04\n      add\n      tag_147\n      swap1\n      tag_148\n      jump\t// in\n    tag_147:\n      mload(0x40)\n      dup1\n      swap2\n      sub\n      swap1\n      revert\n    tag_146:\n        /* \"Exam_20240102.sol\":5607:5617  msg.sender */\n      caller\n        /* \"Exam_20240102.sol\":5598:5617  owner == msg.sender */\n      0xffffffffffffffffffffffffffffffffffffffff\n      and\n        /* \"Exam_20240102.sol\":5598:5603  owner */\n      0x00\n      dup1\n      sload\n      swap1\n      0x0100\n      exp\n      swap1\n      div\n      0xffffffffffffffffffffffffffffffffffffffff\n      and\n        /* \"Exam_20240102.sol\":5598:5617  owner == msg.sender */\n      0xffffffffffffffffffffffffffffffffffffffff\n      and\n      eq\n        /* \"Exam_20240102.sol\":5590:5628  require(owner == msg.sender, \"revert\") */\n      tag_149\n      jumpi\n      mload(0x40)\n      0x08c379a000000000000000000000000000000000000000000000000000000000\n      dup2\n      mstore\n      0x04\n      add\n      tag_150\n      swap1\n      tag_148\n      jump\t// in\n    tag_150:\n      mload(0x40)\n      dup1\n      swap2\n      sub\n      swap1\n      revert\n    tag_149:\n        /* \"Exam_20240102.sol\":5650:5657  _amount */\n      dup1\n        /* \"Exam_20240102.sol\":5639:5646  balance */\n      0x01\n      0x00\n        /* \"Exam_20240102.sol\":5639:5657  balance -= _amount */\n      dup3\n      dup3\n      sload\n      tag_151\n      swap2\n      swap1\n      tag_115\n      jump\t// in\n    tag_151:\n      swap3\n      pop\n      pop\n      dup2\n      swap1\n      sstore\n      pop\n        /* \"Exam_20240102.sol\":5668:5673  owner */\n      0x00\n      dup1\n      sload\n      swap1\n      0x0100\n      exp\n      swap1\n      div\n      0xffffffffffffffffffffffffffffffffffffffff\n      and\n        /* \"Exam_20240102.sol\":5668:5682  owner.transfer */\n      0xffffffffffffffffffffffffffffffffffffffff\n      and\n        /* \"Exam_20240102.sol\":5668:5705  owner.transfer(address(this).balance) */\n      0x08fc\n        /* \"Exam_20240102.sol\":5683:5704  address(this).balance */\n      selfbalance\n        /* \"Exam_20240102.sol\":5668:5705  owner.transfer(address(this).balance) */\n      swap1\n      dup2\n      iszero\n      mul\n      swap1\n      mload(0x40)\n      0x00\n      mload(0x40)\n      dup1\n      dup4\n      sub\n      dup2\n      dup6\n      dup9\n      dup9\n      call\n      swap4\n      pop\n      pop\n      pop\n      pop\n      iszero\n      dup1\n      iszero\n      tag_153\n      jumpi\n      returndatasize\n      0x00\n      dup1\n      returndatacopy\n      revert(0x00, returndatasize)\n    tag_153:\n      pop\n        /* \"Exam_20240102.sol\":5487:5713  function withdrawOwner(uint _amount) public {... */\n      pop\n      jump\t// out\n        /* \"Exam_20240102.sol\":2727:2977  function findUserbyAddress(address _addr) public view returns(uint) {... */\n    tag_43:\n        /* \"Exam_20240102.sol\":2789:2793  uint */\n      0x00\n        /* \"Exam_20240102.sol\":2806:2812  uint i */\n      dup1\n        /* \"Exam_20240102.sol\":2829:2830  0 */\n      0x00\n        /* \"Exam_20240102.sol\":2827:2830  i=0 */\n      swap1\n      pop\n        /* \"Exam_20240102.sol\":2823:2951  for(i=0; i < userIndex; i++) {... */\n    tag_155:\n        /* \"Exam_20240102.sol\":2836:2845  userIndex */\n      sload(0x02)\n        /* \"Exam_20240102.sol\":2832:2833  i */\n      dup2\n        /* \"Exam_20240102.sol\":2832:2845  i < userIndex */\n      lt\n        /* \"Exam_20240102.sol\":2823:2951  for(i=0; i < userIndex; i++) {... */\n      iszero\n      tag_156\n      jumpi\n        /* \"Exam_20240102.sol\":2893:2898  _addr */\n      dup3\n        /* \"Exam_20240102.sol\":2870:2898  userList[i].account == _addr */\n      0xffffffffffffffffffffffffffffffffffffffff\n      and\n        /* \"Exam_20240102.sol\":2870:2878  userList */\n      0x08\n        /* \"Exam_20240102.sol\":2879:2880  i */\n      dup3\n        /* \"Exam_20240102.sol\":2870:2881  userList[i] */\n      dup2\n      sload\n      dup2\n      lt\n      tag_158\n      jumpi\n      tag_159\n      tag_65\n      jump\t// in\n    tag_159:\n    tag_158:\n      swap1\n      0x00\n      mstore\n      keccak256(0x00, 0x20)\n      swap1\n      0x05\n      mul\n      add\n        /* \"Exam_20240102.sol\":2870:2889  userList[i].account */\n      0x02\n      add\n      0x00\n      swap1\n      sload\n      swap1\n      0x0100\n      exp\n      swap1\n      div\n      0xffffffffffffffffffffffffffffffffffffffff\n      and\n        /* \"Exam_20240102.sol\":2870:2898  userList[i].account == _addr */\n      0xffffffffffffffffffffffffffffffffffffffff\n      and\n      sub\n        /* \"Exam_20240102.sol\":2867:2940  if(userList[i].account == _addr) {... */\n      iszero\n        /* \"Exam_20240102.sol\":2919:2924  break */\n      tag_156\n        /* \"Exam_20240102.sol\":2867:2940  if(userList[i].account == _addr) {... */\n      jumpi\n        /* \"Exam_20240102.sol\":2847:2850  i++ */\n      dup1\n      dup1\n      0x01\n      add\n      swap2\n      pop\n      pop\n        /* \"Exam_20240102.sol\":2823:2951  for(i=0; i < userIndex; i++) {... */\n      jump(tag_155)\n    tag_156:\n        /* \"Exam_20240102.sol\":2968:2969  i */\n      dup1\n        /* \"Exam_20240102.sol\":2961:2969  return i */\n      swap2\n      pop\n      pop\n        /* \"Exam_20240102.sol\":2727:2977  function findUserbyAddress(address _addr) public view returns(uint) {... */\n      swap2\n      swap1\n      pop\n      jump\t// out\n        /* \"Exam_20240102.sol\":3393:3872  function getSeats() public payable{... */\n    tag_47:\n        /* \"Exam_20240102.sol\":3497:3507  0.01 ether */\n      0x2386f26fc10000\n        /* \"Exam_20240102.sol\":3446:3454  userList */\n      0x08\n        /* \"Exam_20240102.sol\":3455:3484  findUserbyAddress(msg.sender) */\n      tag_163\n        /* \"Exam_20240102.sol\":3473:3483  msg.sender */\n      caller\n        /* \"Exam_20240102.sol\":3455:3472  findUserbyAddress */\n      tag_43\n        /* \"Exam_20240102.sol\":3455:3484  findUserbyAddress(msg.sender) */\n      jump\t// in\n    tag_163:\n        /* \"Exam_20240102.sol\":3446:3485  userList[findUserbyAddress(msg.sender)] */\n      dup2\n      sload\n      dup2\n      lt\n      tag_164\n      jumpi\n      tag_165\n      tag_65\n      jump\t// in\n    tag_165:\n    tag_164:\n      swap1\n      0x00\n      mstore\n      keccak256(0x00, 0x20)\n      swap1\n      0x05\n      mul\n      add\n        /* \"Exam_20240102.sol\":3446:3493  userList[findUserbyAddress(msg.sender)].deposit */\n      0x03\n      add\n      sload\n        /* \"Exam_20240102.sol\":3446:3507  userList[findUserbyAddress(msg.sender)].deposit >= 0.01 ether */\n      lt\n      iszero\n        /* \"Exam_20240102.sol\":3446:3534  userList[findUserbyAddress(msg.sender)].deposit >= 0.01 ether || msg.value == 0.01 ether */\n      dup1\n      tag_167\n      jumpi\n      pop\n        /* \"Exam_20240102.sol\":3524:3534  0.01 ether */\n      0x2386f26fc10000\n        /* \"Exam_20240102.sol\":3511:3520  msg.value */\n      callvalue\n        /* \"Exam_20240102.sol\":3511:3534  msg.value == 0.01 ether */\n      eq\n        /* \"Exam_20240102.sol\":3446:3534  userList[findUserbyAddress(msg.sender)].deposit >= 0.01 ether || msg.value == 0.01 ether */\n    tag_167:\n        /* \"Exam_20240102.sol\":3438:3554  require(userList[findUserbyAddress(msg.sender)].deposit >= 0.01 ether || msg.value == 0.01 ether, \"inefficient ETH\") */\n      tag_168\n      jumpi\n      mload(0x40)\n      0x08c379a000000000000000000000000000000000000000000000000000000000\n      dup2\n      mstore\n      0x04\n      add\n      tag_169\n      swap1\n      tag_170\n      jump\t// in\n    tag_169:\n      mload(0x40)\n      dup1\n      swap2\n      sub\n      swap1\n      revert\n    tag_168:\n        /* \"Exam_20240102.sol\":3608:3618  0.01 ether */\n      0x2386f26fc10000\n        /* \"Exam_20240102.sol\":3595:3604  msg.value */\n      callvalue\n        /* \"Exam_20240102.sol\":3595:3618  msg.value == 0.01 ether */\n      sub\n        /* \"Exam_20240102.sol\":3591:3798  if( msg.value == 0.01 ether ) {... */\n      tag_171\n      jumpi\n        /* \"Exam_20240102.sol\":3647:3656  msg.value */\n      callvalue\n        /* \"Exam_20240102.sol\":3636:3643  balance */\n      0x01\n      0x00\n        /* \"Exam_20240102.sol\":3636:3656  balance += msg.value */\n      dup3\n      dup3\n      sload\n      tag_172\n      swap2\n      swap1\n      tag_78\n      jump\t// in\n    tag_172:\n      swap3\n      pop\n      pop\n      dup2\n      swap1\n      sstore\n      pop\n        /* \"Exam_20240102.sol\":3591:3798  if( msg.value == 0.01 ether ) {... */\n      jump(tag_173)\n    tag_171:\n        /* \"Exam_20240102.sol\":3740:3750  0.01 ether */\n      0x2386f26fc10000\n        /* \"Exam_20240102.sol\":3689:3697  userList */\n      0x08\n        /* \"Exam_20240102.sol\":3698:3727  findUserbyAddress(msg.sender) */\n      tag_174\n        /* \"Exam_20240102.sol\":3716:3726  msg.sender */\n      caller\n        /* \"Exam_20240102.sol\":3698:3715  findUserbyAddress */\n      tag_43\n        /* \"Exam_20240102.sol\":3698:3727  findUserbyAddress(msg.sender) */\n      jump\t// in\n    tag_174:\n        /* \"Exam_20240102.sol\":3689:3728  userList[findUserbyAddress(msg.sender)] */\n      dup2\n      sload\n      dup2\n      lt\n      tag_175\n      jumpi\n      tag_176\n      tag_65\n      jump\t// in\n    tag_176:\n    tag_175:\n      swap1\n      0x00\n      mstore\n      keccak256(0x00, 0x20)\n      swap1\n      0x05\n      mul\n      add\n        /* \"Exam_20240102.sol\":3689:3736  userList[findUserbyAddress(msg.sender)].deposit */\n      0x03\n      add\n      0x00\n        /* \"Exam_20240102.sol\":3689:3750  userList[findUserbyAddress(msg.sender)].deposit -= 0.01 ether */\n      dup3\n      dup3\n      sload\n      tag_178\n      swap2\n      swap1\n      tag_115\n      jump\t// in\n    tag_178:\n      swap3\n      pop\n      pop\n      dup2\n      swap1\n      sstore\n      pop\n        /* \"Exam_20240102.sol\":3776:3786  0.01 ether */\n      0x2386f26fc10000\n        /* \"Exam_20240102.sol\":3765:3772  balance */\n      0x01\n      0x00\n        /* \"Exam_20240102.sol\":3765:3786  balance += 0.01 ether */\n      dup3\n      dup3\n      sload\n      tag_179\n      swap2\n      swap1\n      tag_78\n      jump\t// in\n    tag_179:\n      swap3\n      pop\n      pop\n      dup2\n      swap1\n      sstore\n      pop\n        /* \"Exam_20240102.sol\":3591:3798  if( msg.value == 0.01 ether ) {... */\n    tag_173:\n        /* \"Exam_20240102.sol\":3810:3864  getSeat(userList[findUserbyAddress(msg.sender)].index) */\n      tag_180\n        /* \"Exam_20240102.sol\":3818:3826  userList */\n      0x08\n        /* \"Exam_20240102.sol\":3827:3856  findUserbyAddress(msg.sender) */\n      tag_181\n        /* \"Exam_20240102.sol\":3845:3855  msg.sender */\n      caller\n        /* \"Exam_20240102.sol\":3827:3844  findUserbyAddress */\n      tag_43\n        /* \"Exam_20240102.sol\":3827:3856  findUserbyAddress(msg.sender) */\n      jump\t// in\n    tag_181:\n        /* \"Exam_20240102.sol\":3818:3857  userList[findUserbyAddress(msg.sender)] */\n      dup2\n      sload\n      dup2\n      lt\n      tag_182\n      jumpi\n      tag_183\n      tag_65\n      jump\t// in\n    tag_183:\n    tag_182:\n      swap1\n      0x00\n      mstore\n      keccak256(0x00, 0x20)\n      swap1\n      0x05\n      mul\n      add\n        /* \"Exam_20240102.sol\":3818:3863  userList[findUserbyAddress(msg.sender)].index */\n      0x00\n      add\n      sload\n        /* \"Exam_20240102.sol\":3810:3817  getSeat */\n      tag_18\n        /* \"Exam_20240102.sol\":3810:3864  getSeat(userList[findUserbyAddress(msg.sender)].index) */\n      jump\t// in\n    tag_180:\n        /* \"Exam_20240102.sol\":3393:3872  function getSeats() public payable{... */\n      jump\t// out\n        /* \"Exam_20240102.sol\":3161:3273  function deposit() public payable{... */\n    tag_49:\n        /* \"Exam_20240102.sol\":3256:3265  msg.value */\n      callvalue\n        /* \"Exam_20240102.sol\":3205:3213  userList */\n      0x08\n        /* \"Exam_20240102.sol\":3214:3243  findUserbyAddress(msg.sender) */\n      tag_186\n        /* \"Exam_20240102.sol\":3232:3242  msg.sender */\n      caller\n        /* \"Exam_20240102.sol\":3214:3231  findUserbyAddress */\n      tag_43\n        /* \"Exam_20240102.sol\":3214:3243  findUserbyAddress(msg.sender) */\n      jump\t// in\n    tag_186:\n        /* \"Exam_20240102.sol\":3205:3244  userList[findUserbyAddress(msg.sender)] */\n      dup2\n      sload\n      dup2\n      lt\n      tag_187\n      jumpi\n      tag_188\n      tag_65\n      jump\t// in\n    tag_188:\n    tag_187:\n      swap1\n      0x00\n      mstore\n      keccak256(0x00, 0x20)\n      swap1\n      0x05\n      mul\n      add\n        /* \"Exam_20240102.sol\":3205:3252  userList[findUserbyAddress(msg.sender)].deposit */\n      0x03\n      add\n      0x00\n        /* \"Exam_20240102.sol\":3205:3265  userList[findUserbyAddress(msg.sender)].deposit += msg.value */\n      dup3\n      dup3\n      sload\n      tag_190\n      swap2\n      swap1\n      tag_78\n      jump\t// in\n    tag_190:\n      swap3\n      pop\n      pop\n      dup2\n      swap1\n      sstore\n      pop\n        /* \"Exam_20240102.sol\":3161:3273  function deposit() public payable{... */\n      jump\t// out\n        /* \"Exam_20240102.sol\":2368:2469  function getUserInfo(uint _n) public view returns(User memory) {... */\n    tag_53:\n        /* \"Exam_20240102.sol\":2418:2429  User memory */\n      tag_191\n      tag_192\n      jump\t// in\n    tag_191:\n        /* \"Exam_20240102.sol\":2449:2457  userList */\n      0x08\n        /* \"Exam_20240102.sol\":2458:2460  _n */\n      dup3\n        /* \"Exam_20240102.sol\":2449:2461  userList[_n] */\n      dup2\n      sload\n      dup2\n      lt\n      tag_194\n      jumpi\n      tag_195\n      tag_65\n      jump\t// in\n    tag_195:\n    tag_194:\n      swap1\n      0x00\n      mstore\n      keccak256(0x00, 0x20)\n      swap1\n      0x05\n      mul\n      add\n        /* \"Exam_20240102.sol\":2442:2461  return userList[_n] */\n      mload(0x40)\n      dup1\n      0xa0\n      add\n      0x40\n      mstore\n      swap1\n      dup2\n      0x00\n      dup3\n      add\n      sload\n      dup2\n      mstore\n      0x20\n      add\n      0x01\n      dup3\n      add\n      dup1\n      sload\n      tag_197\n      swap1\n      tag_198\n      jump\t// in\n    tag_197:\n      dup1\n      0x1f\n      add\n      0x20\n      dup1\n      swap2\n      div\n      mul\n      0x20\n      add\n      mload(0x40)\n      swap1\n      dup2\n      add\n      0x40\n      mstore\n      dup1\n      swap3\n      swap2\n      swap1\n      dup2\n      dup2\n      mstore\n      0x20\n      add\n      dup3\n      dup1\n      sload\n      tag_199\n      swap1\n      tag_198\n      jump\t// in\n    tag_199:\n      dup1\n      iszero\n      tag_200\n      jumpi\n      dup1\n      0x1f\n      lt\n      tag_201\n      jumpi\n      0x0100\n      dup1\n      dup4\n      sload\n      div\n      mul\n      dup4\n      mstore\n      swap2\n      0x20\n      add\n      swap2\n      jump(tag_200)\n    tag_201:\n      dup3\n      add\n      swap2\n      swap1\n      0x00\n      mstore\n      keccak256(0x00, 0x20)\n      swap1\n    tag_202:\n      dup2\n      sload\n      dup2\n      mstore\n      swap1\n      0x01\n      add\n      swap1\n      0x20\n      add\n      dup1\n      dup4\n      gt\n      tag_202\n      jumpi\n      dup3\n      swap1\n      sub\n      0x1f\n      and\n      dup3\n      add\n      swap2\n    tag_200:\n      pop\n      pop\n      pop\n      pop\n      pop\n      dup2\n      mstore\n      0x20\n      add\n      0x02\n      dup3\n      add\n      0x00\n      swap1\n      sload\n      swap1\n      0x0100\n      exp\n      swap1\n      div\n      0xffffffffffffffffffffffffffffffffffffffff\n      and\n      0xffffffffffffffffffffffffffffffffffffffff\n      and\n      0xffffffffffffffffffffffffffffffffffffffff\n      and\n      dup2\n      mstore\n      0x20\n      add\n      0x03\n      dup3\n      add\n      sload\n      dup2\n      mstore\n      0x20\n      add\n      0x04\n      dup3\n      add\n      sload\n      dup2\n      mstore\n      pop\n      pop\n      swap1\n      pop\n        /* \"Exam_20240102.sol\":2368:2469  function getUserInfo(uint _n) public view returns(User memory) {... */\n      swap2\n      swap1\n      pop\n      jump\t// out\n        /* \"Exam_20240102.sol\":2477:2719  function findUserbyAddress() public view returns(uint) {... */\n    tag_58:\n        /* \"Exam_20240102.sol\":2526:2530  uint */\n      0x00\n        /* \"Exam_20240102.sol\":2543:2549  uint i */\n      dup1\n        /* \"Exam_20240102.sol\":2566:2567  0 */\n      0x00\n        /* \"Exam_20240102.sol\":2564:2567  i=0 */\n      swap1\n      pop\n        /* \"Exam_20240102.sol\":2560:2693  for(i=0; i < userIndex; i++) {... */\n    tag_204:\n        /* \"Exam_20240102.sol\":2573:2582  userIndex */\n      sload(0x02)\n        /* \"Exam_20240102.sol\":2569:2570  i */\n      dup2\n        /* \"Exam_20240102.sol\":2569:2582  i < userIndex */\n      lt\n        /* \"Exam_20240102.sol\":2560:2693  for(i=0; i < userIndex; i++) {... */\n      iszero\n      tag_205\n      jumpi\n        /* \"Exam_20240102.sol\":2630:2640  msg.sender */\n      caller\n        /* \"Exam_20240102.sol\":2607:2640  userList[i].account == msg.sender */\n      0xffffffffffffffffffffffffffffffffffffffff\n      and\n        /* \"Exam_20240102.sol\":2607:2615  userList */\n      0x08\n        /* \"Exam_20240102.sol\":2616:2617  i */\n      dup3\n        /* \"Exam_20240102.sol\":2607:2618  userList[i] */\n      dup2\n      sload\n      dup2\n      lt\n      tag_207\n      jumpi\n      tag_208\n      tag_65\n      jump\t// in\n    tag_208:\n    tag_207:\n      swap1\n      0x00\n      mstore\n      keccak256(0x00, 0x20)\n      swap1\n      0x05\n      mul\n      add\n        /* \"Exam_20240102.sol\":2607:2626  userList[i].account */\n      0x02\n      add\n      0x00\n      swap1\n      sload\n      swap1\n      0x0100\n      exp\n      swap1\n      div\n      0xffffffffffffffffffffffffffffffffffffffff\n      and\n        /* \"Exam_20240102.sol\":2607:2640  userList[i].account == msg.sender */\n      0xffffffffffffffffffffffffffffffffffffffff\n      and\n      sub\n        /* \"Exam_20240102.sol\":2604:2682  if(userList[i].account == msg.sender) {... */\n      iszero\n        /* \"Exam_20240102.sol\":2661:2666  break */\n      tag_205\n        /* \"Exam_20240102.sol\":2604:2682  if(userList[i].account == msg.sender) {... */\n      jumpi\n        /* \"Exam_20240102.sol\":2584:2587  i++ */\n      dup1\n      dup1\n      0x01\n      add\n      swap2\n      pop\n      pop\n        /* \"Exam_20240102.sol\":2560:2693  for(i=0; i < userIndex; i++) {... */\n      jump(tag_204)\n    tag_205:\n        /* \"Exam_20240102.sol\":2710:2711  i */\n      dup1\n        /* \"Exam_20240102.sol\":2703:2711  return i */\n      swap2\n      pop\n      pop\n        /* \"Exam_20240102.sol\":2477:2719  function findUserbyAddress() public view returns(uint) {... */\n      swap1\n      jump\t// out\n    tag_101:\n      pop\n      0x00\n      dup2\n      sstore\n      0x01\n      add\n      0x00\n      dup2\n      sstore\n      0x01\n      add\n      0x00\n      dup2\n      sstore\n      0x01\n      add\n      0x00\n      swap1\n      sstore\n      jump\t// out\n    tag_128:\n      mload(0x40)\n      dup1\n      0x80\n      add\n      0x40\n      mstore\n      dup1\n      0x04\n      swap1\n      0x20\n      dup3\n      mul\n      dup1\n      calldatasize\n      dup4\n      calldatacopy\n      dup1\n      dup3\n      add\n      swap2\n      pop\n      pop\n      swap1\n      pop\n      pop\n      swap1\n      jump\t// out\n    tag_192:\n      mload(0x40)\n      dup1\n      0xa0\n      add\n      0x40\n      mstore\n      dup1\n      0x00\n      dup2\n      mstore\n      0x20\n      add\n      0x60\n      dup2\n      mstore\n      0x20\n      add\n      and(0xffffffffffffffffffffffffffffffffffffffff, 0x00)\n      dup2\n      mstore\n      0x20\n      add\n      0x00\n      dup2\n      mstore\n      0x20\n      add\n      0x00\n      dup2\n      mstore\n      pop\n      swap1\n      jump\t// out\n        /* \"#utility.yul\":7:82   */\n    tag_211:\n        /* \"#utility.yul\":40:46   */\n      0x00\n        /* \"#utility.yul\":73:75   */\n      0x40\n        /* \"#utility.yul\":67:76   */\n      mload\n        /* \"#utility.yul\":57:76   */\n      swap1\n      pop\n        /* \"#utility.yul\":7:82   */\n      swap1\n      jump\t// out\n        /* \"#utility.yul\":88:205   */\n    tag_212:\n        /* \"#utility.yul\":197:198   */\n      0x00\n        /* \"#utility.yul\":194:195   */\n      dup1\n        /* \"#utility.yul\":187:199   */\n      revert\n        /* \"#utility.yul\":211:328   */\n    tag_213:\n        /* \"#utility.yul\":320:321   */\n      0x00\n        /* \"#utility.yul\":317:318   */\n      dup1\n        /* \"#utility.yul\":310:322   */\n      revert\n        /* \"#utility.yul\":334:411   */\n    tag_214:\n        /* \"#utility.yul\":371:378   */\n      0x00\n        /* \"#utility.yul\":400:405   */\n      dup2\n        /* \"#utility.yul\":389:405   */\n      swap1\n      pop\n        /* \"#utility.yul\":334:411   */\n      swap2\n      swap1\n      pop\n      jump\t// out\n        /* \"#utility.yul\":417:539   */\n    tag_215:\n        /* \"#utility.yul\":490:514   */\n      tag_276\n        /* \"#utility.yul\":508:513   */\n      dup2\n        /* \"#utility.yul\":490:514   */\n      tag_214\n      jump\t// in\n    tag_276:\n        /* \"#utility.yul\":483:488   */\n      dup2\n        /* \"#utility.yul\":480:515   */\n      eq\n        /* \"#utility.yul\":470:533   */\n      tag_277\n      jumpi\n        /* \"#utility.yul\":529:530   */\n      0x00\n        /* \"#utility.yul\":526:527   */\n      dup1\n        /* \"#utility.yul\":519:531   */\n      revert\n        /* \"#utility.yul\":470:533   */\n    tag_277:\n        /* \"#utility.yul\":417:539   */\n      pop\n      jump\t// out\n        /* \"#utility.yul\":545:684   */\n    tag_216:\n        /* \"#utility.yul\":591:596   */\n      0x00\n        /* \"#utility.yul\":629:635   */\n      dup2\n        /* \"#utility.yul\":616:636   */\n      calldataload\n        /* \"#utility.yul\":607:636   */\n      swap1\n      pop\n        /* \"#utility.yul\":645:678   */\n      tag_279\n        /* \"#utility.yul\":672:677   */\n      dup2\n        /* \"#utility.yul\":645:678   */\n      tag_215\n      jump\t// in\n    tag_279:\n        /* \"#utility.yul\":545:684   */\n      swap3\n      swap2\n      pop\n      pop\n      jump\t// out\n        /* \"#utility.yul\":690:1019   */\n    tag_17:\n        /* \"#utility.yul\":749:755   */\n      0x00\n        /* \"#utility.yul\":798:800   */\n      0x20\n        /* \"#utility.yul\":786:795   */\n      dup3\n        /* \"#utility.yul\":777:784   */\n      dup5\n        /* \"#utility.yul\":773:796   */\n      sub\n        /* \"#utility.yul\":769:801   */\n      slt\n        /* \"#utility.yul\":766:885   */\n      iszero\n      tag_281\n      jumpi\n        /* \"#utility.yul\":804:883   */\n      tag_282\n      tag_212\n      jump\t// in\n    tag_282:\n        /* \"#utility.yul\":766:885   */\n    tag_281:\n        /* \"#utility.yul\":924:925   */\n      0x00\n        /* \"#utility.yul\":949:1002   */\n      tag_283\n        /* \"#utility.yul\":994:1001   */\n      dup5\n        /* \"#utility.yul\":985:991   */\n      dup3\n        /* \"#utility.yul\":974:983   */\n      dup6\n        /* \"#utility.yul\":970:992   */\n      add\n        /* \"#utility.yul\":949:1002   */\n      tag_216\n      jump\t// in\n    tag_283:\n        /* \"#utility.yul\":939:1002   */\n      swap2\n      pop\n        /* \"#utility.yul\":895:1012   */\n      pop\n        /* \"#utility.yul\":690:1019   */\n      swap3\n      swap2\n      pop\n      pop\n      jump\t// out\n        /* \"#utility.yul\":1025:1142   */\n    tag_217:\n        /* \"#utility.yul\":1134:1135   */\n      0x00\n        /* \"#utility.yul\":1131:1132   */\n      dup1\n        /* \"#utility.yul\":1124:1136   */\n      revert\n        /* \"#utility.yul\":1148:1265   */\n    tag_218:\n        /* \"#utility.yul\":1257:1258   */\n      0x00\n        /* \"#utility.yul\":1254:1255   */\n      dup1\n        /* \"#utility.yul\":1247:1259   */\n      revert\n        /* \"#utility.yul\":1271:1373   */\n    tag_219:\n        /* \"#utility.yul\":1312:1318   */\n      0x00\n        /* \"#utility.yul\":1363:1365   */\n      0x1f\n        /* \"#utility.yul\":1359:1366   */\n      not\n        /* \"#utility.yul\":1354:1356   */\n      0x1f\n        /* \"#utility.yul\":1347:1352   */\n      dup4\n        /* \"#utility.yul\":1343:1357   */\n      add\n        /* \"#utility.yul\":1339:1367   */\n      and\n        /* \"#utility.yul\":1329:1367   */\n      swap1\n      pop\n        /* \"#utility.yul\":1271:1373   */\n      swap2\n      swap1\n      pop\n      jump\t// out\n        /* \"#utility.yul\":1379:1559   */\n    tag_220:\n        /* \"#utility.yul\":1427:1504   */\n      0x4e487b7100000000000000000000000000000000000000000000000000000000\n        /* \"#utility.yul\":1424:1425   */\n      0x00\n        /* \"#utility.yul\":1417:1505   */\n      mstore\n        /* \"#utility.yul\":1524:1528   */\n      0x41\n        /* \"#utility.yul\":1521:1522   */\n      0x04\n        /* \"#utility.yul\":1514:1529   */\n      mstore\n        /* \"#utility.yul\":1548:1552   */\n      0x24\n        /* \"#utility.yul\":1545:1546   */\n      0x00\n        /* \"#utility.yul\":1538:1553   */\n      revert\n        /* \"#utility.yul\":1565:1846   */\n    tag_221:\n        /* \"#utility.yul\":1648:1675   */\n      tag_289\n        /* \"#utility.yul\":1670:1674   */\n      dup3\n        /* \"#utility.yul\":1648:1675   */\n      tag_219\n      jump\t// in\n    tag_289:\n        /* \"#utility.yul\":1640:1646   */\n      dup2\n        /* \"#utility.yul\":1636:1676   */\n      add\n        /* \"#utility.yul\":1778:1784   */\n      dup2\n        /* \"#utility.yul\":1766:1776   */\n      dup2\n        /* \"#utility.yul\":1763:1785   */\n      lt\n        /* \"#utility.yul\":1742:1760   */\n      0xffffffffffffffff\n        /* \"#utility.yul\":1730:1740   */\n      dup3\n        /* \"#utility.yul\":1727:1761   */\n      gt\n        /* \"#utility.yul\":1724:1786   */\n      or\n        /* \"#utility.yul\":1721:1809   */\n      iszero\n      tag_290\n      jumpi\n        /* \"#utility.yul\":1789:1807   */\n      tag_291\n      tag_220\n      jump\t// in\n    tag_291:\n        /* \"#utility.yul\":1721:1809   */\n    tag_290:\n        /* \"#utility.yul\":1829:1839   */\n      dup1\n        /* \"#utility.yul\":1825:1827   */\n      0x40\n        /* \"#utility.yul\":1818:1840   */\n      mstore\n        /* \"#utility.yul\":1608:1846   */\n      pop\n        /* \"#utility.yul\":1565:1846   */\n      pop\n      pop\n      jump\t// out\n        /* \"#utility.yul\":1852:1981   */\n    tag_222:\n        /* \"#utility.yul\":1886:1892   */\n      0x00\n        /* \"#utility.yul\":1913:1933   */\n      tag_293\n      tag_211\n      jump\t// in\n    tag_293:\n        /* \"#utility.yul\":1903:1933   */\n      swap1\n      pop\n        /* \"#utility.yul\":1942:1975   */\n      tag_294\n        /* \"#utility.yul\":1970:1974   */\n      dup3\n        /* \"#utility.yul\":1962:1968   */\n      dup3\n        /* \"#utility.yul\":1942:1975   */\n      tag_221\n      jump\t// in\n    tag_294:\n        /* \"#utility.yul\":1852:1981   */\n      swap2\n      swap1\n      pop\n      jump\t// out\n        /* \"#utility.yul\":1987:2295   */\n    tag_223:\n        /* \"#utility.yul\":2049:2053   */\n      0x00\n        /* \"#utility.yul\":2139:2157   */\n      0xffffffffffffffff\n        /* \"#utility.yul\":2131:2137   */\n      dup3\n        /* \"#utility.yul\":2128:2158   */\n      gt\n        /* \"#utility.yul\":2125:2181   */\n      iszero\n      tag_296\n      jumpi\n        /* \"#utility.yul\":2161:2179   */\n      tag_297\n      tag_220\n      jump\t// in\n    tag_297:\n        /* \"#utility.yul\":2125:2181   */\n    tag_296:\n        /* \"#utility.yul\":2199:2228   */\n      tag_298\n        /* \"#utility.yul\":2221:2227   */\n      dup3\n        /* \"#utility.yul\":2199:2228   */\n      tag_219\n      jump\t// in\n    tag_298:\n        /* \"#utility.yul\":2191:2228   */\n      swap1\n      pop\n        /* \"#utility.yul\":2283:2287   */\n      0x20\n        /* \"#utility.yul\":2277:2281   */\n      dup2\n        /* \"#utility.yul\":2273:2288   */\n      add\n        /* \"#utility.yul\":2265:2288   */\n      swap1\n      pop\n        /* \"#utility.yul\":1987:2295   */\n      swap2\n      swap1\n      pop\n      jump\t// out\n        /* \"#utility.yul\":2301:2447   */\n    tag_224:\n        /* \"#utility.yul\":2398:2404   */\n      dup3\n        /* \"#utility.yul\":2393:2396   */\n      dup2\n        /* \"#utility.yul\":2388:2391   */\n      dup4\n        /* \"#utility.yul\":2375:2405   */\n      calldatacopy\n        /* \"#utility.yul\":2439:2440   */\n      0x00\n        /* \"#utility.yul\":2430:2436   */\n      dup4\n        /* \"#utility.yul\":2425:2428   */\n      dup4\n        /* \"#utility.yul\":2421:2437   */\n      add\n        /* \"#utility.yul\":2414:2441   */\n      mstore\n        /* \"#utility.yul\":2301:2447   */\n      pop\n      pop\n      pop\n      jump\t// out\n        /* \"#utility.yul\":2453:2878   */\n    tag_225:\n        /* \"#utility.yul\":2531:2536   */\n      0x00\n        /* \"#utility.yul\":2556:2622   */\n      tag_301\n        /* \"#utility.yul\":2572:2621   */\n      tag_302\n        /* \"#utility.yul\":2614:2620   */\n      dup5\n        /* \"#utility.yul\":2572:2621   */\n      tag_223\n      jump\t// in\n    tag_302:\n        /* \"#utility.yul\":2556:2622   */\n      tag_222\n      jump\t// in\n    tag_301:\n        /* \"#utility.yul\":2547:2622   */\n      swap1\n      pop\n        /* \"#utility.yul\":2645:2651   */\n      dup3\n        /* \"#utility.yul\":2638:2643   */\n      dup2\n        /* \"#utility.yul\":2631:2652   */\n      mstore\n        /* \"#utility.yul\":2683:2687   */\n      0x20\n        /* \"#utility.yul\":2676:2681   */\n      dup2\n        /* \"#utility.yul\":2672:2688   */\n      add\n        /* \"#utility.yul\":2721:2724   */\n      dup5\n        /* \"#utility.yul\":2712:2718   */\n      dup5\n        /* \"#utility.yul\":2707:2710   */\n      dup5\n        /* \"#utility.yul\":2703:2719   */\n      add\n        /* \"#utility.yul\":2700:2725   */\n      gt\n        /* \"#utility.yul\":2697:2809   */\n      iszero\n      tag_303\n      jumpi\n        /* \"#utility.yul\":2728:2807   */\n      tag_304\n      tag_218\n      jump\t// in\n    tag_304:\n        /* \"#utility.yul\":2697:2809   */\n    tag_303:\n        /* \"#utility.yul\":2818:2872   */\n      tag_305\n        /* \"#utility.yul\":2865:2871   */\n      dup5\n        /* \"#utility.yul\":2860:2863   */\n      dup3\n        /* \"#utility.yul\":2855:2858   */\n      dup6\n        /* \"#utility.yul\":2818:2872   */\n      tag_224\n      jump\t// in\n    tag_305:\n        /* \"#utility.yul\":2537:2878   */\n      pop\n        /* \"#utility.yul\":2453:2878   */\n      swap4\n      swap3\n      pop\n      pop\n      pop\n      jump\t// out\n        /* \"#utility.yul\":2898:3238   */\n    tag_226:\n        /* \"#utility.yul\":2954:2959   */\n      0x00\n        /* \"#utility.yul\":3003:3006   */\n      dup3\n        /* \"#utility.yul\":2996:3000   */\n      0x1f\n        /* \"#utility.yul\":2988:2994   */\n      dup4\n        /* \"#utility.yul\":2984:3001   */\n      add\n        /* \"#utility.yul\":2980:3007   */\n      slt\n        /* \"#utility.yul\":2970:3092   */\n      tag_307\n      jumpi\n        /* \"#utility.yul\":3011:3090   */\n      tag_308\n      tag_217\n      jump\t// in\n    tag_308:\n        /* \"#utility.yul\":2970:3092   */\n    tag_307:\n        /* \"#utility.yul\":3128:3134   */\n      dup2\n        /* \"#utility.yul\":3115:3135   */\n      calldataload\n        /* \"#utility.yul\":3153:3232   */\n      tag_309\n        /* \"#utility.yul\":3228:3231   */\n      dup5\n        /* \"#utility.yul\":3220:3226   */\n      dup3\n        /* \"#utility.yul\":3213:3217   */\n      0x20\n        /* \"#utility.yul\":3205:3211   */\n      dup7\n        /* \"#utility.yul\":3201:3218   */\n      add\n        /* \"#utility.yul\":3153:3232   */\n      tag_225\n      jump\t// in\n    tag_309:\n        /* \"#utility.yul\":3144:3232   */\n      swap2\n      pop\n        /* \"#utility.yul\":2960:3238   */\n      pop\n        /* \"#utility.yul\":2898:3238   */\n      swap3\n      swap2\n      pop\n      pop\n      jump\t// out\n        /* \"#utility.yul\":3244:3753   */\n    tag_25:\n        /* \"#utility.yul\":3313:3319   */\n      0x00\n        /* \"#utility.yul\":3362:3364   */\n      0x20\n        /* \"#utility.yul\":3350:3359   */\n      dup3\n        /* \"#utility.yul\":3341:3348   */\n      dup5\n        /* \"#utility.yul\":3337:3360   */\n      sub\n        /* \"#utility.yul\":3333:3365   */\n      slt\n        /* \"#utility.yul\":3330:3449   */\n      iszero\n      tag_311\n      jumpi\n        /* \"#utility.yul\":3368:3447   */\n      tag_312\n      tag_212\n      jump\t// in\n    tag_312:\n        /* \"#utility.yul\":3330:3449   */\n    tag_311:\n        /* \"#utility.yul\":3516:3517   */\n      0x00\n        /* \"#utility.yul\":3505:3514   */\n      dup3\n        /* \"#utility.yul\":3501:3518   */\n      add\n        /* \"#utility.yul\":3488:3519   */\n      calldataload\n        /* \"#utility.yul\":3546:3564   */\n      0xffffffffffffffff\n        /* \"#utility.yul\":3538:3544   */\n      dup2\n        /* \"#utility.yul\":3535:3565   */\n      gt\n        /* \"#utility.yul\":3532:3649   */\n      iszero\n      tag_313\n      jumpi\n        /* \"#utility.yul\":3568:3647   */\n      tag_314\n      tag_213\n      jump\t// in\n    tag_314:\n        /* \"#utility.yul\":3532:3649   */\n    tag_313:\n        /* \"#utility.yul\":3673:3736   */\n      tag_315\n        /* \"#utility.yul\":3728:3735   */\n      dup5\n        /* \"#utility.yul\":3719:3725   */\n      dup3\n        /* \"#utility.yul\":3708:3717   */\n      dup6\n        /* \"#utility.yul\":3704:3726   */\n      add\n        /* \"#utility.yul\":3673:3736   */\n      tag_226\n      jump\t// in\n    tag_315:\n        /* \"#utility.yul\":3663:3736   */\n      swap2\n      pop\n        /* \"#utility.yul\":3459:3746   */\n      pop\n        /* \"#utility.yul\":3244:3753   */\n      swap3\n      swap2\n      pop\n      pop\n      jump\t// out\n        /* \"#utility.yul\":3759:3863   */\n    tag_227:\n        /* \"#utility.yul\":3824:3830   */\n      0x00\n        /* \"#utility.yul\":3852:3856   */\n      0x04\n        /* \"#utility.yul\":3842:3856   */\n      swap1\n      pop\n        /* \"#utility.yul\":3759:3863   */\n      swap2\n      swap1\n      pop\n      jump\t// out\n        /* \"#utility.yul\":3869:4012   */\n    tag_228:\n        /* \"#utility.yul\":3966:3977   */\n      0x00\n        /* \"#utility.yul\":4003:4006   */\n      dup2\n        /* \"#utility.yul\":3988:4006   */\n      swap1\n      pop\n        /* \"#utility.yul\":3869:4012   */\n      swap3\n      swap2\n      pop\n      pop\n      jump\t// out\n        /* \"#utility.yul\":4018:4116   */\n    tag_229:\n        /* \"#utility.yul\":4083:4087   */\n      0x00\n        /* \"#utility.yul\":4106:4109   */\n      dup2\n        /* \"#utility.yul\":4098:4109   */\n      swap1\n      pop\n        /* \"#utility.yul\":4018:4116   */\n      swap2\n      swap1\n      pop\n      jump\t// out\n        /* \"#utility.yul\":4122:4230   */\n    tag_230:\n        /* \"#utility.yul\":4199:4223   */\n      tag_320\n        /* \"#utility.yul\":4217:4222   */\n      dup2\n        /* \"#utility.yul\":4199:4223   */\n      tag_214\n      jump\t// in\n    tag_320:\n        /* \"#utility.yul\":4194:4197   */\n      dup3\n        /* \"#utility.yul\":4187:4224   */\n      mstore\n        /* \"#utility.yul\":4122:4230   */\n      pop\n      pop\n      jump\t// out\n        /* \"#utility.yul\":4236:4415   */\n    tag_231:\n        /* \"#utility.yul\":4305:4315   */\n      0x00\n        /* \"#utility.yul\":4326:4372   */\n      tag_322\n        /* \"#utility.yul\":4368:4371   */\n      dup4\n        /* \"#utility.yul\":4360:4366   */\n      dup4\n        /* \"#utility.yul\":4326:4372   */\n      tag_230\n      jump\t// in\n    tag_322:\n        /* \"#utility.yul\":4404:4408   */\n      0x20\n        /* \"#utility.yul\":4399:4402   */\n      dup4\n        /* \"#utility.yul\":4395:4409   */\n      add\n        /* \"#utility.yul\":4381:4409   */\n      swap1\n      pop\n        /* \"#utility.yul\":4236:4415   */\n      swap3\n      swap2\n      pop\n      pop\n      jump\t// out\n        /* \"#utility.yul\":4421:4532   */\n    tag_232:\n        /* \"#utility.yul\":4489:4493   */\n      0x00\n        /* \"#utility.yul\":4521:4525   */\n      0x20\n        /* \"#utility.yul\":4516:4519   */\n      dup3\n        /* \"#utility.yul\":4512:4526   */\n      add\n        /* \"#utility.yul\":4504:4526   */\n      swap1\n      pop\n        /* \"#utility.yul\":4421:4532   */\n      swap2\n      swap1\n      pop\n      jump\t// out\n        /* \"#utility.yul\":4570:5264   */\n    tag_233:\n        /* \"#utility.yul\":4706:4758   */\n      tag_325\n        /* \"#utility.yul\":4752:4757   */\n      dup2\n        /* \"#utility.yul\":4706:4758   */\n      tag_227\n      jump\t// in\n    tag_325:\n        /* \"#utility.yul\":4774:4858   */\n      tag_326\n        /* \"#utility.yul\":4851:4857   */\n      dup2\n        /* \"#utility.yul\":4846:4849   */\n      dup5\n        /* \"#utility.yul\":4774:4858   */\n      tag_228\n      jump\t// in\n    tag_326:\n        /* \"#utility.yul\":4767:4858   */\n      swap3\n      pop\n        /* \"#utility.yul\":4882:4936   */\n      tag_327\n        /* \"#utility.yul\":4930:4935   */\n      dup3\n        /* \"#utility.yul\":4882:4936   */\n      tag_229\n      jump\t// in\n    tag_327:\n        /* \"#utility.yul\":4959:4966   */\n      dup1\n        /* \"#utility.yul\":4990:4991   */\n      0x00\n        /* \"#utility.yul\":4975:5257   */\n    tag_328:\n        /* \"#utility.yul\":5000:5006   */\n      dup4\n        /* \"#utility.yul\":4997:4998   */\n      dup2\n        /* \"#utility.yul\":4994:5007   */\n      lt\n        /* \"#utility.yul\":4975:5257   */\n      iszero\n      tag_330\n      jumpi\n        /* \"#utility.yul\":5076:5082   */\n      dup2\n        /* \"#utility.yul\":5070:5083   */\n      mload\n        /* \"#utility.yul\":5103:5166   */\n      tag_331\n        /* \"#utility.yul\":5162:5165   */\n      dup8\n        /* \"#utility.yul\":5147:5160   */\n      dup3\n        /* \"#utility.yul\":5103:5166   */\n      tag_231\n      jump\t// in\n    tag_331:\n        /* \"#utility.yul\":5096:5166   */\n      swap7\n      pop\n        /* \"#utility.yul\":5189:5247   */\n      tag_332\n        /* \"#utility.yul\":5240:5246   */\n      dup4\n        /* \"#utility.yul\":5189:5247   */\n      tag_232\n      jump\t// in\n    tag_332:\n        /* \"#utility.yul\":5179:5247   */\n      swap3\n      pop\n        /* \"#utility.yul\":5035:5257   */\n      pop\n        /* \"#utility.yul\":5022:5023   */\n      0x01\n        /* \"#utility.yul\":5019:5020   */\n      dup2\n        /* \"#utility.yul\":5015:5024   */\n      add\n        /* \"#utility.yul\":5010:5024   */\n      swap1\n      pop\n        /* \"#utility.yul\":4975:5257   */\n      jump(tag_328)\n    tag_330:\n        /* \"#utility.yul\":4979:4993   */\n      pop\n        /* \"#utility.yul\":4682:5264   */\n      pop\n      pop\n      pop\n        /* \"#utility.yul\":4570:5264   */\n      pop\n      pop\n      jump\t// out\n        /* \"#utility.yul\":5270:5585   */\n    tag_31:\n        /* \"#utility.yul\":5409:5413   */\n      0x00\n        /* \"#utility.yul\":5447:5450   */\n      0x80\n        /* \"#utility.yul\":5436:5445   */\n      dup3\n        /* \"#utility.yul\":5432:5451   */\n      add\n        /* \"#utility.yul\":5424:5451   */\n      swap1\n      pop\n        /* \"#utility.yul\":5461:5578   */\n      tag_334\n        /* \"#utility.yul\":5575:5576   */\n      0x00\n        /* \"#utility.yul\":5564:5573   */\n      dup4\n        /* \"#utility.yul\":5560:5577   */\n      add\n        /* \"#utility.yul\":5551:5557   */\n      dup5\n        /* \"#utility.yul\":5461:5578   */\n      tag_233\n      jump\t// in\n    tag_334:\n        /* \"#utility.yul\":5270:5585   */\n      swap3\n      swap2\n      pop\n      pop\n      jump\t// out\n        /* \"#utility.yul\":5591:5717   */\n    tag_234:\n        /* \"#utility.yul\":5628:5635   */\n      0x00\n        /* \"#utility.yul\":5668:5710   */\n      0xffffffffffffffffffffffffffffffffffffffff\n        /* \"#utility.yul\":5661:5666   */\n      dup3\n        /* \"#utility.yul\":5657:5711   */\n      and\n        /* \"#utility.yul\":5646:5711   */\n      swap1\n      pop\n        /* \"#utility.yul\":5591:5717   */\n      swap2\n      swap1\n      pop\n      jump\t// out\n        /* \"#utility.yul\":5723:5819   */\n    tag_235:\n        /* \"#utility.yul\":5760:5767   */\n      0x00\n        /* \"#utility.yul\":5789:5813   */\n      tag_337\n        /* \"#utility.yul\":5807:5812   */\n      dup3\n        /* \"#utility.yul\":5789:5813   */\n      tag_234\n      jump\t// in\n    tag_337:\n        /* \"#utility.yul\":5778:5813   */\n      swap1\n      pop\n        /* \"#utility.yul\":5723:5819   */\n      swap2\n      swap1\n      pop\n      jump\t// out\n        /* \"#utility.yul\":5825:5947   */\n    tag_236:\n        /* \"#utility.yul\":5898:5922   */\n      tag_339\n        /* \"#utility.yul\":5916:5921   */\n      dup2\n        /* \"#utility.yul\":5898:5922   */\n      tag_235\n      jump\t// in\n    tag_339:\n        /* \"#utility.yul\":5891:5896   */\n      dup2\n        /* \"#utility.yul\":5888:5923   */\n      eq\n        /* \"#utility.yul\":5878:5941   */\n      tag_340\n      jumpi\n        /* \"#utility.yul\":5937:5938   */\n      0x00\n        /* \"#utility.yul\":5934:5935   */\n      dup1\n        /* \"#utility.yul\":5927:5939   */\n      revert\n        /* \"#utility.yul\":5878:5941   */\n    tag_340:\n        /* \"#utility.yul\":5825:5947   */\n      pop\n      jump\t// out\n        /* \"#utility.yul\":5953:6092   */\n    tag_237:\n        /* \"#utility.yul\":5999:6004   */\n      0x00\n        /* \"#utility.yul\":6037:6043   */\n      dup2\n        /* \"#utility.yul\":6024:6044   */\n      calldataload\n        /* \"#utility.yul\":6015:6044   */\n      swap1\n      pop\n        /* \"#utility.yul\":6053:6086   */\n      tag_342\n        /* \"#utility.yul\":6080:6085   */\n      dup2\n        /* \"#utility.yul\":6053:6086   */\n      tag_236\n      jump\t// in\n    tag_342:\n        /* \"#utility.yul\":5953:6092   */\n      swap3\n      swap2\n      pop\n      pop\n      jump\t// out\n        /* \"#utility.yul\":6098:6427   */\n    tag_42:\n        /* \"#utility.yul\":6157:6163   */\n      0x00\n        /* \"#utility.yul\":6206:6208   */\n      0x20\n        /* \"#utility.yul\":6194:6203   */\n      dup3\n        /* \"#utility.yul\":6185:6192   */\n      dup5\n        /* \"#utility.yul\":6181:6204   */\n      sub\n        /* \"#utility.yul\":6177:6209   */\n      slt\n        /* \"#utility.yul\":6174:6293   */\n      iszero\n      tag_344\n      jumpi\n        /* \"#utility.yul\":6212:6291   */\n      tag_345\n      tag_212\n      jump\t// in\n    tag_345:\n        /* \"#utility.yul\":6174:6293   */\n    tag_344:\n        /* \"#utility.yul\":6332:6333   */\n      0x00\n        /* \"#utility.yul\":6357:6410   */\n      tag_346\n        /* \"#utility.yul\":6402:6409   */\n      dup5\n        /* \"#utility.yul\":6393:6399   */\n      dup3\n        /* \"#utility.yul\":6382:6391   */\n      dup6\n        /* \"#utility.yul\":6378:6400   */\n      add\n        /* \"#utility.yul\":6357:6410   */\n      tag_237\n      jump\t// in\n    tag_346:\n        /* \"#utility.yul\":6347:6410   */\n      swap2\n      pop\n        /* \"#utility.yul\":6303:6420   */\n      pop\n        /* \"#utility.yul\":6098:6427   */\n      swap3\n      swap2\n      pop\n      pop\n      jump\t// out\n        /* \"#utility.yul\":6433:6551   */\n    tag_238:\n        /* \"#utility.yul\":6520:6544   */\n      tag_348\n        /* \"#utility.yul\":6538:6543   */\n      dup2\n        /* \"#utility.yul\":6520:6544   */\n      tag_214\n      jump\t// in\n    tag_348:\n        /* \"#utility.yul\":6515:6518   */\n      dup3\n        /* \"#utility.yul\":6508:6545   */\n      mstore\n        /* \"#utility.yul\":6433:6551   */\n      pop\n      pop\n      jump\t// out\n        /* \"#utility.yul\":6557:6779   */\n    tag_45:\n        /* \"#utility.yul\":6650:6654   */\n      0x00\n        /* \"#utility.yul\":6688:6690   */\n      0x20\n        /* \"#utility.yul\":6677:6686   */\n      dup3\n        /* \"#utility.yul\":6673:6691   */\n      add\n        /* \"#utility.yul\":6665:6691   */\n      swap1\n      pop\n        /* \"#utility.yul\":6701:6772   */\n      tag_350\n        /* \"#utility.yul\":6769:6770   */\n      0x00\n        /* \"#utility.yul\":6758:6767   */\n      dup4\n        /* \"#utility.yul\":6754:6771   */\n      add\n        /* \"#utility.yul\":6745:6751   */\n      dup5\n        /* \"#utility.yul\":6701:6772   */\n      tag_238\n      jump\t// in\n    tag_350:\n        /* \"#utility.yul\":6557:6779   */\n      swap3\n      swap2\n      pop\n      pop\n      jump\t// out\n        /* \"#utility.yul\":6785:6884   */\n    tag_239:\n        /* \"#utility.yul\":6837:6843   */\n      0x00\n        /* \"#utility.yul\":6871:6876   */\n      dup2\n        /* \"#utility.yul\":6865:6877   */\n      mload\n        /* \"#utility.yul\":6855:6877   */\n      swap1\n      pop\n        /* \"#utility.yul\":6785:6884   */\n      swap2\n      swap1\n      pop\n      jump\t// out\n        /* \"#utility.yul\":6890:7049   */\n    tag_240:\n        /* \"#utility.yul\":6964:6975   */\n      0x00\n        /* \"#utility.yul\":6998:7004   */\n      dup3\n        /* \"#utility.yul\":6993:6996   */\n      dup3\n        /* \"#utility.yul\":6986:7005   */\n      mstore\n        /* \"#utility.yul\":7038:7042   */\n      0x20\n        /* \"#utility.yul\":7033:7036   */\n      dup3\n        /* \"#utility.yul\":7029:7043   */\n      add\n        /* \"#utility.yul\":7014:7043   */\n      swap1\n      pop\n        /* \"#utility.yul\":6890:7049   */\n      swap3\n      swap2\n      pop\n      pop\n      jump\t// out\n        /* \"#utility.yul\":7055:7301   */\n    tag_241:\n        /* \"#utility.yul\":7136:7137   */\n      0x00\n        /* \"#utility.yul\":7146:7259   */\n    tag_354:\n        /* \"#utility.yul\":7160:7166   */\n      dup4\n        /* \"#utility.yul\":7157:7158   */\n      dup2\n        /* \"#utility.yul\":7154:7167   */\n      lt\n        /* \"#utility.yul\":7146:7259   */\n      iszero\n      tag_356\n      jumpi\n        /* \"#utility.yul\":7245:7246   */\n      dup1\n        /* \"#utility.yul\":7240:7243   */\n      dup3\n        /* \"#utility.yul\":7236:7247   */\n      add\n        /* \"#utility.yul\":7230:7248   */\n      mload\n        /* \"#utility.yul\":7226:7227   */\n      dup2\n        /* \"#utility.yul\":7221:7224   */\n      dup5\n        /* \"#utility.yul\":7217:7228   */\n      add\n        /* \"#utility.yul\":7210:7249   */\n      mstore\n        /* \"#utility.yul\":7182:7184   */\n      0x20\n        /* \"#utility.yul\":7179:7180   */\n      dup2\n        /* \"#utility.yul\":7175:7185   */\n      add\n        /* \"#utility.yul\":7170:7185   */\n      swap1\n      pop\n        /* \"#utility.yul\":7146:7259   */\n      jump(tag_354)\n    tag_356:\n        /* \"#utility.yul\":7293:7294   */\n      0x00\n        /* \"#utility.yul\":7284:7290   */\n      dup5\n        /* \"#utility.yul\":7279:7282   */\n      dup5\n        /* \"#utility.yul\":7275:7291   */\n      add\n        /* \"#utility.yul\":7268:7295   */\n      mstore\n        /* \"#utility.yul\":7117:7301   */\n      pop\n        /* \"#utility.yul\":7055:7301   */\n      pop\n      pop\n      pop\n      jump\t// out\n        /* \"#utility.yul\":7307:7664   */\n    tag_242:\n        /* \"#utility.yul\":7385:7388   */\n      0x00\n        /* \"#utility.yul\":7413:7452   */\n      tag_358\n        /* \"#utility.yul\":7446:7451   */\n      dup3\n        /* \"#utility.yul\":7413:7452   */\n      tag_239\n      jump\t// in\n    tag_358:\n        /* \"#utility.yul\":7468:7529   */\n      tag_359\n        /* \"#utility.yul\":7522:7528   */\n      dup2\n        /* \"#utility.yul\":7517:7520   */\n      dup6\n        /* \"#utility.yul\":7468:7529   */\n      tag_240\n      jump\t// in\n    tag_359:\n        /* \"#utility.yul\":7461:7529   */\n      swap4\n      pop\n        /* \"#utility.yul\":7538:7603   */\n      tag_360\n        /* \"#utility.yul\":7596:7602   */\n      dup2\n        /* \"#utility.yul\":7591:7594   */\n      dup6\n        /* \"#utility.yul\":7584:7588   */\n      0x20\n        /* \"#utility.yul\":7577:7582   */\n      dup7\n        /* \"#utility.yul\":7573:7589   */\n      add\n        /* \"#utility.yul\":7538:7603   */\n      tag_241\n      jump\t// in\n    tag_360:\n        /* \"#utility.yul\":7628:7657   */\n      tag_361\n        /* \"#utility.yul\":7650:7656   */\n      dup2\n        /* \"#utility.yul\":7628:7657   */\n      tag_219\n      jump\t// in\n    tag_361:\n        /* \"#utility.yul\":7623:7626   */\n      dup5\n        /* \"#utility.yul\":7619:7658   */\n      add\n        /* \"#utility.yul\":7612:7658   */\n      swap2\n      pop\n        /* \"#utility.yul\":7389:7664   */\n      pop\n        /* \"#utility.yul\":7307:7664   */\n      swap3\n      swap2\n      pop\n      pop\n      jump\t// out\n        /* \"#utility.yul\":7670:7778   */\n    tag_243:\n        /* \"#utility.yul\":7747:7771   */\n      tag_363\n        /* \"#utility.yul\":7765:7770   */\n      dup2\n        /* \"#utility.yul\":7747:7771   */\n      tag_235\n      jump\t// in\n    tag_363:\n        /* \"#utility.yul\":7742:7745   */\n      dup3\n        /* \"#utility.yul\":7735:7772   */\n      mstore\n        /* \"#utility.yul\":7670:7778   */\n      pop\n      pop\n      jump\t// out\n        /* \"#utility.yul\":7840:8966   */\n    tag_244:\n        /* \"#utility.yul\":7949:7952   */\n      0x00\n        /* \"#utility.yul\":7985:7989   */\n      0xa0\n        /* \"#utility.yul\":7980:7983   */\n      dup4\n        /* \"#utility.yul\":7976:7990   */\n      add\n        /* \"#utility.yul\":8073:8077   */\n      0x00\n        /* \"#utility.yul\":8066:8071   */\n      dup4\n        /* \"#utility.yul\":8062:8078   */\n      add\n        /* \"#utility.yul\":8056:8079   */\n      mload\n        /* \"#utility.yul\":8092:8155   */\n      tag_365\n        /* \"#utility.yul\":8149:8153   */\n      0x00\n        /* \"#utility.yul\":8144:8147   */\n      dup7\n        /* \"#utility.yul\":8140:8154   */\n      add\n        /* \"#utility.yul\":8126:8138   */\n      dup3\n        /* \"#utility.yul\":8092:8155   */\n      tag_230\n      jump\t// in\n    tag_365:\n        /* \"#utility.yul\":8000:8165   */\n      pop\n        /* \"#utility.yul\":8247:8251   */\n      0x20\n        /* \"#utility.yul\":8240:8245   */\n      dup4\n        /* \"#utility.yul\":8236:8252   */\n      add\n        /* \"#utility.yul\":8230:8253   */\n      mload\n        /* \"#utility.yul\":8300:8303   */\n      dup5\n        /* \"#utility.yul\":8294:8298   */\n      dup3\n        /* \"#utility.yul\":8290:8304   */\n      sub\n        /* \"#utility.yul\":8283:8287   */\n      0x20\n        /* \"#utility.yul\":8278:8281   */\n      dup7\n        /* \"#utility.yul\":8274:8288   */\n      add\n        /* \"#utility.yul\":8267:8305   */\n      mstore\n        /* \"#utility.yul\":8326:8399   */\n      tag_366\n        /* \"#utility.yul\":8394:8398   */\n      dup3\n        /* \"#utility.yul\":8380:8392   */\n      dup3\n        /* \"#utility.yul\":8326:8399   */\n      tag_242\n      jump\t// in\n    tag_366:\n        /* \"#utility.yul\":8318:8399   */\n      swap2\n      pop\n        /* \"#utility.yul\":8175:8410   */\n      pop\n        /* \"#utility.yul\":8495:8499   */\n      0x40\n        /* \"#utility.yul\":8488:8493   */\n      dup4\n        /* \"#utility.yul\":8484:8500   */\n      add\n        /* \"#utility.yul\":8478:8501   */\n      mload\n        /* \"#utility.yul\":8514:8577   */\n      tag_367\n        /* \"#utility.yul\":8571:8575   */\n      0x40\n        /* \"#utility.yul\":8566:8569   */\n      dup7\n        /* \"#utility.yul\":8562:8576   */\n      add\n        /* \"#utility.yul\":8548:8560   */\n      dup3\n        /* \"#utility.yul\":8514:8577   */\n      tag_243\n      jump\t// in\n    tag_367:\n        /* \"#utility.yul\":8420:8587   */\n      pop\n        /* \"#utility.yul\":8672:8676   */\n      0x60\n        /* \"#utility.yul\":8665:8670   */\n      dup4\n        /* \"#utility.yul\":8661:8677   */\n      add\n        /* \"#utility.yul\":8655:8678   */\n      mload\n        /* \"#utility.yul\":8691:8754   */\n      tag_368\n        /* \"#utility.yul\":8748:8752   */\n      0x60\n        /* \"#utility.yul\":8743:8746   */\n      dup7\n        /* \"#utility.yul\":8739:8753   */\n      add\n        /* \"#utility.yul\":8725:8737   */\n      dup3\n        /* \"#utility.yul\":8691:8754   */\n      tag_230\n      jump\t// in\n    tag_368:\n        /* \"#utility.yul\":8597:8764   */\n      pop\n        /* \"#utility.yul\":8847:8851   */\n      0x80\n        /* \"#utility.yul\":8840:8845   */\n      dup4\n        /* \"#utility.yul\":8836:8852   */\n      add\n        /* \"#utility.yul\":8830:8853   */\n      mload\n        /* \"#utility.yul\":8866:8929   */\n      tag_369\n        /* \"#utility.yul\":8923:8927   */\n      0x80\n        /* \"#utility.yul\":8918:8921   */\n      dup7\n        /* \"#utility.yul\":8914:8928   */\n      add\n        /* \"#utility.yul\":8900:8912   */\n      dup3\n        /* \"#utility.yul\":8866:8929   */\n      tag_230\n      jump\t// in\n    tag_369:\n        /* \"#utility.yul\":8774:8939   */\n      pop\n        /* \"#utility.yul\":8956:8960   */\n      dup1\n        /* \"#utility.yul\":8949:8960   */\n      swap2\n      pop\n        /* \"#utility.yul\":7954:8966   */\n      pop\n        /* \"#utility.yul\":7840:8966   */\n      swap3\n      swap2\n      pop\n      pop\n      jump\t// out\n        /* \"#utility.yul\":8972:9325   */\n    tag_55:\n        /* \"#utility.yul\":9105:9109   */\n      0x00\n        /* \"#utility.yul\":9143:9145   */\n      0x20\n        /* \"#utility.yul\":9132:9141   */\n      dup3\n        /* \"#utility.yul\":9128:9146   */\n      add\n        /* \"#utility.yul\":9120:9146   */\n      swap1\n      pop\n        /* \"#utility.yul\":9192:9201   */\n      dup2\n        /* \"#utility.yul\":9186:9190   */\n      dup2\n        /* \"#utility.yul\":9182:9202   */\n      sub\n        /* \"#utility.yul\":9178:9179   */\n      0x00\n        /* \"#utility.yul\":9167:9176   */\n      dup4\n        /* \"#utility.yul\":9163:9180   */\n      add\n        /* \"#utility.yul\":9156:9203   */\n      mstore\n        /* \"#utility.yul\":9220:9318   */\n      tag_371\n        /* \"#utility.yul\":9313:9317   */\n      dup2\n        /* \"#utility.yul\":9304:9310   */\n      dup5\n        /* \"#utility.yul\":9220:9318   */\n      tag_244\n      jump\t// in\n    tag_371:\n        /* \"#utility.yul\":9212:9318   */\n      swap1\n      pop\n        /* \"#utility.yul\":8972:9325   */\n      swap3\n      swap2\n      pop\n      pop\n      jump\t// out\n        /* \"#utility.yul\":9331:9511   */\n    tag_245:\n        /* \"#utility.yul\":9379:9456   */\n      0x4e487b7100000000000000000000000000000000000000000000000000000000\n        /* \"#utility.yul\":9376:9377   */\n      0x00\n        /* \"#utility.yul\":9369:9457   */\n      mstore\n        /* \"#utility.yul\":9476:9480   */\n      0x12\n        /* \"#utility.yul\":9473:9474   */\n      0x04\n        /* \"#utility.yul\":9466:9481   */\n      mstore\n        /* \"#utility.yul\":9500:9504   */\n      0x24\n        /* \"#utility.yul\":9497:9498   */\n      0x00\n        /* \"#utility.yul\":9490:9505   */\n      revert\n        /* \"#utility.yul\":9517:9693   */\n    tag_62:\n        /* \"#utility.yul\":9549:9550   */\n      0x00\n        /* \"#utility.yul\":9566:9586   */\n      tag_374\n        /* \"#utility.yul\":9584:9585   */\n      dup3\n        /* \"#utility.yul\":9566:9586   */\n      tag_214\n      jump\t// in\n    tag_374:\n        /* \"#utility.yul\":9561:9586   */\n      swap2\n      pop\n        /* \"#utility.yul\":9600:9620   */\n      tag_375\n        /* \"#utility.yul\":9618:9619   */\n      dup4\n        /* \"#utility.yul\":9600:9620   */\n      tag_214\n      jump\t// in\n    tag_375:\n        /* \"#utility.yul\":9595:9620   */\n      swap3\n      pop\n        /* \"#utility.yul\":9639:9640   */\n      dup3\n        /* \"#utility.yul\":9629:9664   */\n      tag_376\n      jumpi\n        /* \"#utility.yul\":9644:9662   */\n      tag_377\n      tag_245\n      jump\t// in\n    tag_377:\n        /* \"#utility.yul\":9629:9664   */\n    tag_376:\n        /* \"#utility.yul\":9685:9686   */\n      dup3\n        /* \"#utility.yul\":9682:9683   */\n      dup3\n        /* \"#utility.yul\":9678:9687   */\n      mod\n        /* \"#utility.yul\":9673:9687   */\n      swap1\n      pop\n        /* \"#utility.yul\":9517:9693   */\n      swap3\n      swap2\n      pop\n      pop\n      jump\t// out\n        /* \"#utility.yul\":9699:9879   */\n    tag_65:\n        /* \"#utility.yul\":9747:9824   */\n      0x4e487b7100000000000000000000000000000000000000000000000000000000\n        /* \"#utility.yul\":9744:9745   */\n      0x00\n        /* \"#utility.yul\":9737:9825   */\n      mstore\n        /* \"#utility.yul\":9844:9848   */\n      0x32\n        /* \"#utility.yul\":9841:9842   */\n      0x04\n        /* \"#utility.yul\":9834:9849   */\n      mstore\n        /* \"#utility.yul\":9868:9872   */\n      0x24\n        /* \"#utility.yul\":9865:9866   */\n      0x00\n        /* \"#utility.yul\":9858:9873   */\n      revert\n        /* \"#utility.yul\":9885:10065   */\n    tag_246:\n        /* \"#utility.yul\":9933:10010   */\n      0x4e487b7100000000000000000000000000000000000000000000000000000000\n        /* \"#utility.yul\":9930:9931   */\n      0x00\n        /* \"#utility.yul\":9923:10011   */\n      mstore\n        /* \"#utility.yul\":10030:10034   */\n      0x11\n        /* \"#utility.yul\":10027:10028   */\n      0x04\n        /* \"#utility.yul\":10020:10035   */\n      mstore\n        /* \"#utility.yul\":10054:10058   */\n      0x24\n        /* \"#utility.yul\":10051:10052   */\n      0x00\n        /* \"#utility.yul\":10044:10059   */\n      revert\n        /* \"#utility.yul\":10071:10304   */\n    tag_68:\n        /* \"#utility.yul\":10110:10113   */\n      0x00\n        /* \"#utility.yul\":10133:10157   */\n      tag_381\n        /* \"#utility.yul\":10151:10156   */\n      dup3\n        /* \"#utility.yul\":10133:10157   */\n      tag_214\n      jump\t// in\n    tag_381:\n        /* \"#utility.yul\":10124:10157   */\n      swap2\n      pop\n        /* \"#utility.yul\":10179:10245   */\n      0xffffffffffffffffffffffffffffffffffffffffffffffffffffffffffffffff\n        /* \"#utility.yul\":10172:10177   */\n      dup3\n        /* \"#utility.yul\":10169:10246   */\n      sub\n        /* \"#utility.yul\":10166:10269   */\n      tag_382\n      jumpi\n        /* \"#utility.yul\":10249:10267   */\n      tag_383\n      tag_246\n      jump\t// in\n    tag_383:\n        /* \"#utility.yul\":10166:10269   */\n    tag_382:\n        /* \"#utility.yul\":10296:10297   */\n      0x01\n        /* \"#utility.yul\":10289:10294   */\n      dup3\n        /* \"#utility.yul\":10285:10298   */\n      add\n        /* \"#utility.yul\":10278:10298   */\n      swap1\n      pop\n        /* \"#utility.yul\":10071:10304   */\n      swap2\n      swap1\n      pop\n      jump\t// out\n        /* \"#utility.yul\":10310:10501   */\n    tag_78:\n        /* \"#utility.yul\":10350:10353   */\n      0x00\n        /* \"#utility.yul\":10369:10389   */\n      tag_385\n        /* \"#utility.yul\":10387:10388   */\n      dup3\n        /* \"#utility.yul\":10369:10389   */\n      tag_214\n      jump\t// in\n    tag_385:\n        /* \"#utility.yul\":10364:10389   */\n      swap2\n      pop\n        /* \"#utility.yul\":10403:10423   */\n      tag_386\n        /* \"#utility.yul\":10421:10422   */\n      dup4\n        /* \"#utility.yul\":10403:10423   */\n      tag_214\n      jump\t// in\n    tag_386:\n        /* \"#utility.yul\":10398:10423   */\n      swap3\n      pop\n        /* \"#utility.yul\":10446:10447   */\n      dup3\n        /* \"#utility.yul\":10443:10444   */\n      dup3\n        /* \"#utility.yul\":10439:10448   */\n      add\n        /* \"#utility.yul\":10432:10448   */\n      swap1\n      pop\n        /* \"#utility.yul\":10467:10470   */\n      dup1\n        /* \"#utility.yul\":10464:10465   */\n      dup3\n        /* \"#utility.yul\":10461:10471   */\n      gt\n        /* \"#utility.yul\":10458:10494   */\n      iszero\n      tag_387\n      jumpi\n        /* \"#utility.yul\":10474:10492   */\n      tag_388\n      tag_246\n      jump\t// in\n    tag_388:\n        /* \"#utility.yul\":10458:10494   */\n    tag_387:\n        /* \"#utility.yul\":10310:10501   */\n      swap3\n      swap2\n      pop\n      pop\n      jump\t// out\n        /* \"#utility.yul\":10507:10676   */\n    tag_247:\n        /* \"#utility.yul\":10591:10602   */\n      0x00\n        /* \"#utility.yul\":10625:10631   */\n      dup3\n        /* \"#utility.yul\":10620:10623   */\n      dup3\n        /* \"#utility.yul\":10613:10632   */\n      mstore\n        /* \"#utility.yul\":10665:10669   */\n      0x20\n        /* \"#utility.yul\":10660:10663   */\n      dup3\n        /* \"#utility.yul\":10656:10670   */\n      add\n        /* \"#utility.yul\":10641:10670   */\n      swap1\n      pop\n        /* \"#utility.yul\":10507:10676   */\n      swap3\n      swap2\n      pop\n      pop\n      jump\t// out\n        /* \"#utility.yul\":10682:10849   */\n    tag_248:\n        /* \"#utility.yul\":10822:10841   */\n      0x696e656666696369656e742053636f7265000000000000000000000000000000\n        /* \"#utility.yul\":10818:10819   */\n      0x00\n        /* \"#utility.yul\":10810:10816   */\n      dup3\n        /* \"#utility.yul\":10806:10820   */\n      add\n        /* \"#utility.yul\":10799:10842   */\n      mstore\n        /* \"#utility.yul\":10682:10849   */\n      pop\n      jump\t// out\n        /* \"#utility.yul\":10855:11221   */\n    tag_249:\n        /* \"#utility.yul\":10997:11000   */\n      0x00\n        /* \"#utility.yul\":11018:11085   */\n      tag_392\n        /* \"#utility.yul\":11082:11084   */\n      0x11\n        /* \"#utility.yul\":11077:11080   */\n      dup4\n        /* \"#utility.yul\":11018:11085   */\n      tag_247\n      jump\t// in\n    tag_392:\n        /* \"#utility.yul\":11011:11085   */\n      swap2\n      pop\n        /* \"#utility.yul\":11094:11187   */\n      tag_393\n        /* \"#utility.yul\":11183:11186   */\n      dup3\n        /* \"#utility.yul\":11094:11187   */\n      tag_248\n      jump\t// in\n    tag_393:\n        /* \"#utility.yul\":11212:11214   */\n      0x20\n        /* \"#utility.yul\":11207:11210   */\n      dup3\n        /* \"#utility.yul\":11203:11215   */\n      add\n        /* \"#utility.yul\":11196:11215   */\n      swap1\n      pop\n        /* \"#utility.yul\":10855:11221   */\n      swap2\n      swap1\n      pop\n      jump\t// out\n        /* \"#utility.yul\":11227:11646   */\n    tag_109:\n        /* \"#utility.yul\":11393:11397   */\n      0x00\n        /* \"#utility.yul\":11431:11433   */\n      0x20\n        /* \"#utility.yul\":11420:11429   */\n      dup3\n        /* \"#utility.yul\":11416:11434   */\n      add\n        /* \"#utility.yul\":11408:11434   */\n      swap1\n      pop\n        /* \"#utility.yul\":11480:11489   */\n      dup2\n        /* \"#utility.yul\":11474:11478   */\n      dup2\n        /* \"#utility.yul\":11470:11490   */\n      sub\n        /* \"#utility.yul\":11466:11467   */\n      0x00\n        /* \"#utility.yul\":11455:11464   */\n      dup4\n        /* \"#utility.yul\":11451:11468   */\n      add\n        /* \"#utility.yul\":11444:11491   */\n      mstore\n        /* \"#utility.yul\":11508:11639   */\n      tag_395\n        /* \"#utility.yul\":11634:11638   */\n      dup2\n        /* \"#utility.yul\":11508:11639   */\n      tag_249\n      jump\t// in\n    tag_395:\n        /* \"#utility.yul\":11500:11639   */\n      swap1\n      pop\n        /* \"#utility.yul\":11227:11646   */\n      swap2\n      swap1\n      pop\n      jump\t// out\n        /* \"#utility.yul\":11652:11846   */\n    tag_115:\n        /* \"#utility.yul\":11692:11696   */\n      0x00\n        /* \"#utility.yul\":11712:11732   */\n      tag_397\n        /* \"#utility.yul\":11730:11731   */\n      dup3\n        /* \"#utility.yul\":11712:11732   */\n      tag_214\n      jump\t// in\n    tag_397:\n        /* \"#utility.yul\":11707:11732   */\n      swap2\n      pop\n        /* \"#utility.yul\":11746:11766   */\n      tag_398\n        /* \"#utility.yul\":11764:11765   */\n      dup4\n        /* \"#utility.yul\":11746:11766   */\n      tag_214\n      jump\t// in\n    tag_398:\n        /* \"#utility.yul\":11741:11766   */\n      swap3\n      pop\n        /* \"#utility.yul\":11790:11791   */\n      dup3\n        /* \"#utility.yul\":11787:11788   */\n      dup3\n        /* \"#utility.yul\":11783:11792   */\n      sub\n        /* \"#utility.yul\":11775:11792   */\n      swap1\n      pop\n        /* \"#utility.yul\":11814:11815   */\n      dup2\n        /* \"#utility.yul\":11808:11812   */\n      dup2\n        /* \"#utility.yul\":11805:11816   */\n      gt\n        /* \"#utility.yul\":11802:11839   */\n      iszero\n      tag_399\n      jumpi\n        /* \"#utility.yul\":11819:11837   */\n      tag_400\n      tag_246\n      jump\t// in\n    tag_400:\n        /* \"#utility.yul\":11802:11839   */\n    tag_399:\n        /* \"#utility.yul\":11652:11846   */\n      swap3\n      swap2\n      pop\n      pop\n      jump\t// out\n        /* \"#utility.yul\":11852:12032   */\n    tag_250:\n        /* \"#utility.yul\":11900:11977   */\n      0x4e487b7100000000000000000000000000000000000000000000000000000000\n        /* \"#utility.yul\":11897:11898   */\n      0x00\n        /* \"#utility.yul\":11890:11978   */\n      mstore\n        /* \"#utility.yul\":11997:12001   */\n      0x22\n        /* \"#utility.yul\":11994:11995   */\n      0x04\n        /* \"#utility.yul\":11987:12002   */\n      mstore\n        /* \"#utility.yul\":12021:12025   */\n      0x24\n        /* \"#utility.yul\":12018:12019   */\n      0x00\n        /* \"#utility.yul\":12011:12026   */\n      revert\n        /* \"#utility.yul\":12038:12358   */\n    tag_198:\n        /* \"#utility.yul\":12082:12088   */\n      0x00\n        /* \"#utility.yul\":12119:12120   */\n      0x02\n        /* \"#utility.yul\":12113:12117   */\n      dup3\n        /* \"#utility.yul\":12109:12121   */\n      div\n        /* \"#utility.yul\":12099:12121   */\n      swap1\n      pop\n        /* \"#utility.yul\":12166:12167   */\n      0x01\n        /* \"#utility.yul\":12160:12164   */\n      dup3\n        /* \"#utility.yul\":12156:12168   */\n      and\n        /* \"#utility.yul\":12187:12205   */\n      dup1\n        /* \"#utility.yul\":12177:12258   */\n      tag_403\n      jumpi\n        /* \"#utility.yul\":12243:12247   */\n      0x7f\n        /* \"#utility.yul\":12235:12241   */\n      dup3\n        /* \"#utility.yul\":12231:12248   */\n      and\n        /* \"#utility.yul\":12221:12248   */\n      swap2\n      pop\n        /* \"#utility.yul\":12177:12258   */\n    tag_403:\n        /* \"#utility.yul\":12305:12307   */\n      0x20\n        /* \"#utility.yul\":12297:12303   */\n      dup3\n        /* \"#utility.yul\":12294:12308   */\n      lt\n        /* \"#utility.yul\":12274:12292   */\n      dup2\n        /* \"#utility.yul\":12271:12309   */\n      sub\n        /* \"#utility.yul\":12268:12352   */\n      tag_404\n      jumpi\n        /* \"#utility.yul\":12324:12342   */\n      tag_405\n      tag_250\n      jump\t// in\n    tag_405:\n        /* \"#utility.yul\":12268:12352   */\n    tag_404:\n        /* \"#utility.yul\":12089:12358   */\n      pop\n        /* \"#utility.yul\":12038:12358   */\n      swap2\n      swap1\n      pop\n      jump\t// out\n        /* \"#utility.yul\":12364:12505   */\n    tag_251:\n        /* \"#utility.yul\":12413:12417   */\n      0x00\n        /* \"#utility.yul\":12436:12439   */\n      dup2\n        /* \"#utility.yul\":12428:12439   */\n      swap1\n      pop\n        /* \"#utility.yul\":12459:12462   */\n      dup2\n        /* \"#utility.yul\":12456:12457   */\n      0x00\n        /* \"#utility.yul\":12449:12463   */\n      mstore\n        /* \"#utility.yul\":12493:12497   */\n      0x20\n        /* \"#utility.yul\":12490:12491   */\n      0x00\n        /* \"#utility.yul\":12480:12498   */\n      keccak256\n        /* \"#utility.yul\":12472:12498   */\n      swap1\n      pop\n        /* \"#utility.yul\":12364:12505   */\n      swap2\n      swap1\n      pop\n      jump\t// out\n        /* \"#utility.yul\":12511:12604   */\n    tag_252:\n        /* \"#utility.yul\":12548:12554   */\n      0x00\n        /* \"#utility.yul\":12595:12597   */\n      0x20\n        /* \"#utility.yul\":12590:12592   */\n      0x1f\n        /* \"#utility.yul\":12583:12588   */\n      dup4\n        /* \"#utility.yul\":12579:12593   */\n      add\n        /* \"#utility.yul\":12575:12598   */\n      div\n        /* \"#utility.yul\":12565:12598   */\n      swap1\n      pop\n        /* \"#utility.yul\":12511:12604   */\n      swap2\n      swap1\n      pop\n      jump\t// out\n        /* \"#utility.yul\":12610:12717   */\n    tag_253:\n        /* \"#utility.yul\":12654:12662   */\n      0x00\n        /* \"#utility.yul\":12704:12709   */\n      dup3\n        /* \"#utility.yul\":12698:12702   */\n      dup3\n        /* \"#utility.yul\":12694:12710   */\n      shl\n        /* \"#utility.yul\":12673:12710   */\n      swap1\n      pop\n        /* \"#utility.yul\":12610:12717   */\n      swap3\n      swap2\n      pop\n      pop\n      jump\t// out\n        /* \"#utility.yul\":12723:13116   */\n    tag_254:\n        /* \"#utility.yul\":12792:12798   */\n      0x00\n        /* \"#utility.yul\":12842:12843   */\n      0x08\n        /* \"#utility.yul\":12830:12840   */\n      dup4\n        /* \"#utility.yul\":12826:12844   */\n      mul\n        /* \"#utility.yul\":12865:12962   */\n      tag_410\n        /* \"#utility.yul\":12895:12961   */\n      0xffffffffffffffffffffffffffffffffffffffffffffffffffffffffffffffff\n        /* \"#utility.yul\":12884:12893   */\n      dup3\n        /* \"#utility.yul\":12865:12962   */\n      tag_253\n      jump\t// in\n    tag_410:\n        /* \"#utility.yul\":12983:13022   */\n      tag_411\n        /* \"#utility.yul\":13013:13021   */\n      dup7\n        /* \"#utility.yul\":13002:13011   */\n      dup4\n        /* \"#utility.yul\":12983:13022   */\n      tag_253\n      jump\t// in\n    tag_411:\n        /* \"#utility.yul\":12971:13022   */\n      swap6\n      pop\n        /* \"#utility.yul\":13055:13059   */\n      dup1\n        /* \"#utility.yul\":13051:13060   */\n      not\n        /* \"#utility.yul\":13044:13049   */\n      dup5\n        /* \"#utility.yul\":13040:13061   */\n      and\n        /* \"#utility.yul\":13031:13061   */\n      swap4\n      pop\n        /* \"#utility.yul\":13104:13108   */\n      dup1\n        /* \"#utility.yul\":13094:13102   */\n      dup7\n        /* \"#utility.yul\":13090:13109   */\n      and\n        /* \"#utility.yul\":13083:13088   */\n      dup5\n        /* \"#utility.yul\":13080:13110   */\n      or\n        /* \"#utility.yul\":13070:13110   */\n      swap3\n      pop\n        /* \"#utility.yul\":12799:13116   */\n      pop\n      pop\n        /* \"#utility.yul\":12723:13116   */\n      swap4\n      swap3\n      pop\n      pop\n      pop\n      jump\t// out\n        /* \"#utility.yul\":13122:13182   */\n    tag_255:\n        /* \"#utility.yul\":13150:13153   */\n      0x00\n        /* \"#utility.yul\":13171:13176   */\n      dup2\n        /* \"#utility.yul\":13164:13176   */\n      swap1\n      pop\n        /* \"#utility.yul\":13122:13182   */\n      swap2\n      swap1\n      pop\n      jump\t// out\n        /* \"#utility.yul\":13188:13330   */\n    tag_256:\n        /* \"#utility.yul\":13238:13247   */\n      0x00\n        /* \"#utility.yul\":13271:13324   */\n      tag_414\n        /* \"#utility.yul\":13289:13323   */\n      tag_415\n        /* \"#utility.yul\":13298:13322   */\n      tag_416\n        /* \"#utility.yul\":13316:13321   */\n      dup5\n        /* \"#utility.yul\":13298:13322   */\n      tag_214\n      jump\t// in\n    tag_416:\n        /* \"#utility.yul\":13289:13323   */\n      tag_255\n      jump\t// in\n    tag_415:\n        /* \"#utility.yul\":13271:13324   */\n      tag_214\n      jump\t// in\n    tag_414:\n        /* \"#utility.yul\":13258:13324   */\n      swap1\n      pop\n        /* \"#utility.yul\":13188:13330   */\n      swap2\n      swap1\n      pop\n      jump\t// out\n        /* \"#utility.yul\":13336:13411   */\n    tag_257:\n        /* \"#utility.yul\":13379:13382   */\n      0x00\n        /* \"#utility.yul\":13400:13405   */\n      dup2\n        /* \"#utility.yul\":13393:13405   */\n      swap1\n      pop\n        /* \"#utility.yul\":13336:13411   */\n      swap2\n      swap1\n      pop\n      jump\t// out\n        /* \"#utility.yul\":13417:13686   */\n    tag_258:\n        /* \"#utility.yul\":13527:13566   */\n      tag_419\n        /* \"#utility.yul\":13558:13565   */\n      dup4\n        /* \"#utility.yul\":13527:13566   */\n      tag_256\n      jump\t// in\n    tag_419:\n        /* \"#utility.yul\":13588:13679   */\n      tag_420\n        /* \"#utility.yul\":13637:13678   */\n      tag_421\n        /* \"#utility.yul\":13661:13677   */\n      dup3\n        /* \"#utility.yul\":13637:13678   */\n      tag_257\n      jump\t// in\n    tag_421:\n        /* \"#utility.yul\":13629:13635   */\n      dup5\n        /* \"#utility.yul\":13622:13626   */\n      dup5\n        /* \"#utility.yul\":13616:13627   */\n      sload\n        /* \"#utility.yul\":13588:13679   */\n      tag_254\n      jump\t// in\n    tag_420:\n        /* \"#utility.yul\":13582:13586   */\n      dup3\n        /* \"#utility.yul\":13575:13680   */\n      sstore\n        /* \"#utility.yul\":13493:13686   */\n      pop\n        /* \"#utility.yul\":13417:13686   */\n      pop\n      pop\n      pop\n      jump\t// out\n        /* \"#utility.yul\":13692:13765   */\n    tag_259:\n        /* \"#utility.yul\":13737:13740   */\n      0x00\n        /* \"#utility.yul\":13692:13765   */\n      swap1\n      jump\t// out\n        /* \"#utility.yul\":13771:13960   */\n    tag_260:\n        /* \"#utility.yul\":13848:13880   */\n      tag_424\n      tag_259\n      jump\t// in\n    tag_424:\n        /* \"#utility.yul\":13889:13954   */\n      tag_425\n        /* \"#utility.yul\":13947:13953   */\n      dup2\n        /* \"#utility.yul\":13939:13945   */\n      dup5\n        /* \"#utility.yul\":13933:13937   */\n      dup5\n        /* \"#utility.yul\":13889:13954   */\n      tag_258\n      jump\t// in\n    tag_425:\n        /* \"#utility.yul\":13824:13960   */\n      pop\n        /* \"#utility.yul\":13771:13960   */\n      pop\n      pop\n      jump\t// out\n        /* \"#utility.yul\":13966:14152   */\n    tag_261:\n        /* \"#utility.yul\":14026:14146   */\n    tag_427:\n        /* \"#utility.yul\":14043:14046   */\n      dup2\n        /* \"#utility.yul\":14036:14041   */\n      dup2\n        /* \"#utility.yul\":14033:14047   */\n      lt\n        /* \"#utility.yul\":14026:14146   */\n      iszero\n      tag_429\n      jumpi\n        /* \"#utility.yul\":14097:14136   */\n      tag_430\n        /* \"#utility.yul\":14134:14135   */\n      0x00\n        /* \"#utility.yul\":14127:14132   */\n      dup3\n        /* \"#utility.yul\":14097:14136   */\n      tag_260\n      jump\t// in\n    tag_430:\n        /* \"#utility.yul\":14070:14071   */\n      0x01\n        /* \"#utility.yul\":14063:14068   */\n      dup2\n        /* \"#utility.yul\":14059:14072   */\n      add\n        /* \"#utility.yul\":14050:14072   */\n      swap1\n      pop\n        /* \"#utility.yul\":14026:14146   */\n      jump(tag_427)\n    tag_429:\n        /* \"#utility.yul\":13966:14152   */\n      pop\n      pop\n      jump\t// out\n        /* \"#utility.yul\":14158:14701   */\n    tag_262:\n        /* \"#utility.yul\":14259:14261   */\n      0x1f\n        /* \"#utility.yul\":14254:14257   */\n      dup3\n        /* \"#utility.yul\":14251:14262   */\n      gt\n        /* \"#utility.yul\":14248:14694   */\n      iszero\n      tag_432\n      jumpi\n        /* \"#utility.yul\":14293:14331   */\n      tag_433\n        /* \"#utility.yul\":14325:14330   */\n      dup2\n        /* \"#utility.yul\":14293:14331   */\n      tag_251\n      jump\t// in\n    tag_433:\n        /* \"#utility.yul\":14377:14406   */\n      tag_434\n        /* \"#utility.yul\":14395:14405   */\n      dup5\n        /* \"#utility.yul\":14377:14406   */\n      tag_252\n      jump\t// in\n    tag_434:\n        /* \"#utility.yul\":14367:14375   */\n      dup2\n        /* \"#utility.yul\":14363:14407   */\n      add\n        /* \"#utility.yul\":14560:14562   */\n      0x20\n        /* \"#utility.yul\":14548:14558   */\n      dup6\n        /* \"#utility.yul\":14545:14563   */\n      lt\n        /* \"#utility.yul\":14542:14591   */\n      iszero\n      tag_435\n      jumpi\n        /* \"#utility.yul\":14581:14589   */\n      dup2\n        /* \"#utility.yul\":14566:14589   */\n      swap1\n      pop\n        /* \"#utility.yul\":14542:14591   */\n    tag_435:\n        /* \"#utility.yul\":14604:14684   */\n      tag_436\n        /* \"#utility.yul\":14660:14682   */\n      tag_437\n        /* \"#utility.yul\":14678:14681   */\n      dup6\n        /* \"#utility.yul\":14660:14682   */\n      tag_252\n      jump\t// in\n    tag_437:\n        /* \"#utility.yul\":14650:14658   */\n      dup4\n        /* \"#utility.yul\":14646:14683   */\n      add\n        /* \"#utility.yul\":14633:14644   */\n      dup3\n        /* \"#utility.yul\":14604:14684   */\n      tag_261\n      jump\t// in\n    tag_436:\n        /* \"#utility.yul\":14263:14694   */\n      pop\n      pop\n        /* \"#utility.yul\":14248:14694   */\n    tag_432:\n        /* \"#utility.yul\":14158:14701   */\n      pop\n      pop\n      pop\n      jump\t// out\n        /* \"#utility.yul\":14707:14824   */\n    tag_263:\n        /* \"#utility.yul\":14761:14769   */\n      0x00\n        /* \"#utility.yul\":14811:14816   */\n      dup3\n        /* \"#utility.yul\":14805:14809   */\n      dup3\n        /* \"#utility.yul\":14801:14817   */\n      shr\n        /* \"#utility.yul\":14780:14817   */\n      swap1\n      pop\n        /* \"#utility.yul\":14707:14824   */\n      swap3\n      swap2\n      pop\n      pop\n      jump\t// out\n        /* \"#utility.yul\":14830:14999   */\n    tag_264:\n        /* \"#utility.yul\":14874:14880   */\n      0x00\n        /* \"#utility.yul\":14907:14958   */\n      tag_440\n        /* \"#utility.yul\":14955:14956   */\n      0x00\n        /* \"#utility.yul\":14951:14957   */\n      not\n        /* \"#utility.yul\":14943:14948   */\n      dup5\n        /* \"#utility.yul\":14940:14941   */\n      0x08\n        /* \"#utility.yul\":14936:14949   */\n      mul\n        /* \"#utility.yul\":14907:14958   */\n      tag_263\n      jump\t// in\n    tag_440:\n        /* \"#utility.yul\":14903:14959   */\n      not\n        /* \"#utility.yul\":14988:14992   */\n      dup1\n        /* \"#utility.yul\":14982:14986   */\n      dup4\n        /* \"#utility.yul\":14978:14993   */\n      and\n        /* \"#utility.yul\":14968:14993   */\n      swap2\n      pop\n        /* \"#utility.yul\":14881:14999   */\n      pop\n        /* \"#utility.yul\":14830:14999   */\n      swap3\n      swap2\n      pop\n      pop\n      jump\t// out\n        /* \"#utility.yul\":15004:15299   */\n    tag_265:\n        /* \"#utility.yul\":15080:15084   */\n      0x00\n        /* \"#utility.yul\":15226:15255   */\n      tag_442\n        /* \"#utility.yul\":15251:15254   */\n      dup4\n        /* \"#utility.yul\":15245:15249   */\n      dup4\n        /* \"#utility.yul\":15226:15255   */\n      tag_264\n      jump\t// in\n    tag_442:\n        /* \"#utility.yul\":15218:15255   */\n      swap2\n      pop\n        /* \"#utility.yul\":15288:15291   */\n      dup3\n        /* \"#utility.yul\":15285:15286   */\n      0x02\n        /* \"#utility.yul\":15281:15292   */\n      mul\n        /* \"#utility.yul\":15275:15279   */\n      dup3\n        /* \"#utility.yul\":15272:15293   */\n      or\n        /* \"#utility.yul\":15264:15293   */\n      swap1\n      pop\n        /* \"#utility.yul\":15004:15299   */\n      swap3\n      swap2\n      pop\n      pop\n      jump\t// out\n        /* \"#utility.yul\":15304:16699   */\n    tag_126:\n        /* \"#utility.yul\":15421:15458   */\n      tag_444\n        /* \"#utility.yul\":15454:15457   */\n      dup3\n        /* \"#utility.yul\":15421:15458   */\n      tag_239\n      jump\t// in\n    tag_444:\n        /* \"#utility.yul\":15523:15541   */\n      0xffffffffffffffff\n        /* \"#utility.yul\":15515:15521   */\n      dup2\n        /* \"#utility.yul\":15512:15542   */\n      gt\n        /* \"#utility.yul\":15509:15565   */\n      iszero\n      tag_445\n      jumpi\n        /* \"#utility.yul\":15545:15563   */\n      tag_446\n      tag_220\n      jump\t// in\n    tag_446:\n        /* \"#utility.yul\":15509:15565   */\n    tag_445:\n        /* \"#utility.yul\":15589:15627   */\n      tag_447\n        /* \"#utility.yul\":15621:15625   */\n      dup3\n        /* \"#utility.yul\":15615:15626   */\n      sload\n        /* \"#utility.yul\":15589:15627   */\n      tag_198\n      jump\t// in\n    tag_447:\n        /* \"#utility.yul\":15674:15741   */\n      tag_448\n        /* \"#utility.yul\":15734:15740   */\n      dup3\n        /* \"#utility.yul\":15726:15732   */\n      dup3\n        /* \"#utility.yul\":15720:15724   */\n      dup6\n        /* \"#utility.yul\":15674:15741   */\n      tag_262\n      jump\t// in\n    tag_448:\n        /* \"#utility.yul\":15768:15769   */\n      0x00\n        /* \"#utility.yul\":15792:15796   */\n      0x20\n        /* \"#utility.yul\":15779:15796   */\n      swap1\n      pop\n        /* \"#utility.yul\":15824:15826   */\n      0x1f\n        /* \"#utility.yul\":15816:15822   */\n      dup4\n        /* \"#utility.yul\":15813:15827   */\n      gt\n        /* \"#utility.yul\":15841:15842   */\n      0x01\n        /* \"#utility.yul\":15836:16454   */\n      dup2\n      eq\n      tag_450\n      jumpi\n        /* \"#utility.yul\":16498:16499   */\n      0x00\n        /* \"#utility.yul\":16515:16521   */\n      dup5\n        /* \"#utility.yul\":16512:16589   */\n      iszero\n      tag_451\n      jumpi\n        /* \"#utility.yul\":16564:16573   */\n      dup3\n        /* \"#utility.yul\":16559:16562   */\n      dup8\n        /* \"#utility.yul\":16555:16574   */\n      add\n        /* \"#utility.yul\":16549:16575   */\n      mload\n        /* \"#utility.yul\":16540:16575   */\n      swap1\n      pop\n        /* \"#utility.yul\":16512:16589   */\n    tag_451:\n        /* \"#utility.yul\":16615:16682   */\n      tag_452\n        /* \"#utility.yul\":16675:16681   */\n      dup6\n        /* \"#utility.yul\":16668:16673   */\n      dup3\n        /* \"#utility.yul\":16615:16682   */\n      tag_265\n      jump\t// in\n    tag_452:\n        /* \"#utility.yul\":16609:16613   */\n      dup7\n        /* \"#utility.yul\":16602:16683   */\n      sstore\n        /* \"#utility.yul\":16471:16693   */\n      pop\n        /* \"#utility.yul\":15806:16693   */\n      jump(tag_449)\n        /* \"#utility.yul\":15836:16454   */\n    tag_450:\n        /* \"#utility.yul\":15888:15892   */\n      0x1f\n        /* \"#utility.yul\":15884:15893   */\n      not\n        /* \"#utility.yul\":15876:15882   */\n      dup5\n        /* \"#utility.yul\":15872:15894   */\n      and\n        /* \"#utility.yul\":15922:15959   */\n      tag_453\n        /* \"#utility.yul\":15954:15958   */\n      dup7\n        /* \"#utility.yul\":15922:15959   */\n      tag_251\n      jump\t// in\n    tag_453:\n        /* \"#utility.yul\":15981:15982   */\n      0x00\n        /* \"#utility.yul\":15995:16203   */\n    tag_454:\n        /* \"#utility.yul\":16009:16016   */\n      dup3\n        /* \"#utility.yul\":16006:16007   */\n      dup2\n        /* \"#utility.yul\":16003:16017   */\n      lt\n        /* \"#utility.yul\":15995:16203   */\n      iszero\n      tag_456\n      jumpi\n        /* \"#utility.yul\":16088:16097   */\n      dup5\n        /* \"#utility.yul\":16083:16086   */\n      dup10\n        /* \"#utility.yul\":16079:16098   */\n      add\n        /* \"#utility.yul\":16073:16099   */\n      mload\n        /* \"#utility.yul\":16065:16071   */\n      dup3\n        /* \"#utility.yul\":16058:16100   */\n      sstore\n        /* \"#utility.yul\":16139:16140   */\n      0x01\n        /* \"#utility.yul\":16131:16137   */\n      dup3\n        /* \"#utility.yul\":16127:16141   */\n      add\n        /* \"#utility.yul\":16117:16141   */\n      swap2\n      pop\n        /* \"#utility.yul\":16186:16188   */\n      0x20\n        /* \"#utility.yul\":16175:16184   */\n      dup6\n        /* \"#utility.yul\":16171:16189   */\n      add\n        /* \"#utility.yul\":16158:16189   */\n      swap5\n      pop\n        /* \"#utility.yul\":16032:16036   */\n      0x20\n        /* \"#utility.yul\":16029:16030   */\n      dup2\n        /* \"#utility.yul\":16025:16037   */\n      add\n        /* \"#utility.yul\":16020:16037   */\n      swap1\n      pop\n        /* \"#utility.yul\":15995:16203   */\n      jump(tag_454)\n    tag_456:\n        /* \"#utility.yul\":16231:16237   */\n      dup7\n        /* \"#utility.yul\":16222:16229   */\n      dup4\n        /* \"#utility.yul\":16219:16238   */\n      lt\n        /* \"#utility.yul\":16216:16395   */\n      iszero\n      tag_457\n      jumpi\n        /* \"#utility.yul\":16289:16298   */\n      dup5\n        /* \"#utility.yul\":16284:16287   */\n      dup10\n        /* \"#utility.yul\":16280:16299   */\n      add\n        /* \"#utility.yul\":16274:16300   */\n      mload\n        /* \"#utility.yul\":16332:16380   */\n      tag_458\n        /* \"#utility.yul\":16374:16378   */\n      0x1f\n        /* \"#utility.yul\":16366:16372   */\n      dup10\n        /* \"#utility.yul\":16362:16379   */\n      and\n        /* \"#utility.yul\":16351:16360   */\n      dup3\n        /* \"#utility.yul\":16332:16380   */\n      tag_264\n      jump\t// in\n    tag_458:\n        /* \"#utility.yul\":16324:16330   */\n      dup4\n        /* \"#utility.yul\":16317:16381   */\n      sstore\n        /* \"#utility.yul\":16239:16395   */\n      pop\n        /* \"#utility.yul\":16216:16395   */\n    tag_457:\n        /* \"#utility.yul\":16441:16442   */\n      0x01\n        /* \"#utility.yul\":16437:16438   */\n      0x02\n        /* \"#utility.yul\":16429:16435   */\n      dup9\n        /* \"#utility.yul\":16425:16439   */\n      mul\n        /* \"#utility.yul\":16421:16443   */\n      add\n        /* \"#utility.yul\":16415:16419   */\n      dup9\n        /* \"#utility.yul\":16408:16444   */\n      sstore\n        /* \"#utility.yul\":15843:16454   */\n      pop\n      pop\n      pop\n        /* \"#utility.yul\":15806:16693   */\n    tag_449:\n      pop\n        /* \"#utility.yul\":15396:16699   */\n      pop\n      pop\n      pop\n        /* \"#utility.yul\":15304:16699   */\n      pop\n      pop\n      jump\t// out\n        /* \"#utility.yul\":16705:16861   */\n    tag_266:\n        /* \"#utility.yul\":16845:16853   */\n      0x7265766572740000000000000000000000000000000000000000000000000000\n        /* \"#utility.yul\":16841:16842   */\n      0x00\n        /* \"#utility.yul\":16833:16839   */\n      dup3\n        /* \"#utility.yul\":16829:16843   */\n      add\n        /* \"#utility.yul\":16822:16854   */\n      mstore\n        /* \"#utility.yul\":16705:16861   */\n      pop\n      jump\t// out\n        /* \"#utility.yul\":16867:17232   */\n    tag_267:\n        /* \"#utility.yul\":17009:17012   */\n      0x00\n        /* \"#utility.yul\":17030:17096   */\n      tag_461\n        /* \"#utility.yul\":17094:17095   */\n      0x06\n        /* \"#utility.yul\":17089:17092   */\n      dup4\n        /* \"#utility.yul\":17030:17096   */\n      tag_247\n      jump\t// in\n    tag_461:\n        /* \"#utility.yul\":17023:17096   */\n      swap2\n      pop\n        /* \"#utility.yul\":17105:17198   */\n      tag_462\n        /* \"#utility.yul\":17194:17197   */\n      dup3\n        /* \"#utility.yul\":17105:17198   */\n      tag_266\n      jump\t// in\n    tag_462:\n        /* \"#utility.yul\":17223:17225   */\n      0x20\n        /* \"#utility.yul\":17218:17221   */\n      dup3\n        /* \"#utility.yul\":17214:17226   */\n      add\n        /* \"#utility.yul\":17207:17226   */\n      swap1\n      pop\n        /* \"#utility.yul\":16867:17232   */\n      swap2\n      swap1\n      pop\n      jump\t// out\n        /* \"#utility.yul\":17238:17657   */\n    tag_148:\n        /* \"#utility.yul\":17404:17408   */\n      0x00\n        /* \"#utility.yul\":17442:17444   */\n      0x20\n        /* \"#utility.yul\":17431:17440   */\n      dup3\n        /* \"#utility.yul\":17427:17445   */\n      add\n        /* \"#utility.yul\":17419:17445   */\n      swap1\n      pop\n        /* \"#utility.yul\":17491:17500   */\n      dup2\n        /* \"#utility.yul\":17485:17489   */\n      dup2\n        /* \"#utility.yul\":17481:17501   */\n      sub\n        /* \"#utility.yul\":17477:17478   */\n      0x00\n        /* \"#utility.yul\":17466:17475   */\n      dup4\n        /* \"#utility.yul\":17462:17479   */\n      add\n        /* \"#utility.yul\":17455:17502   */\n      mstore\n        /* \"#utility.yul\":17519:17650   */\n      tag_464\n        /* \"#utility.yul\":17645:17649   */\n      dup2\n        /* \"#utility.yul\":17519:17650   */\n      tag_267\n      jump\t// in\n    tag_464:\n        /* \"#utility.yul\":17511:17650   */\n      swap1\n      pop\n        /* \"#utility.yul\":17238:17657   */\n      swap2\n      swap1\n      pop\n      jump\t// out\n        /* \"#utility.yul\":17663:17828   */\n    tag_268:\n        /* \"#utility.yul\":17803:17820   */\n      0x696e656666696369656e74204554480000000000000000000000000000000000\n        /* \"#utility.yul\":17799:17800   */\n      0x00\n        /* \"#utility.yul\":17791:17797   */\n      dup3\n        /* \"#utility.yul\":17787:17801   */\n      add\n        /* \"#utility.yul\":17780:17821   */\n      mstore\n        /* \"#utility.yul\":17663:17828   */\n      pop\n      jump\t// out\n        /* \"#utility.yul\":17834:18200   */\n    tag_269:\n        /* \"#utility.yul\":17976:17979   */\n      0x00\n        /* \"#utility.yul\":17997:18064   */\n      tag_467\n        /* \"#utility.yul\":18061:18063   */\n      0x0f\n        /* \"#utility.yul\":18056:18059   */\n      dup4\n        /* \"#utility.yul\":17997:18064   */\n      tag_247\n      jump\t// in\n    tag_467:\n        /* \"#utility.yul\":17990:18064   */\n      swap2\n      pop\n        /* \"#utility.yul\":18073:18166   */\n      tag_468\n        /* \"#utility.yul\":18162:18165   */\n      dup3\n        /* \"#utility.yul\":18073:18166   */\n      tag_268\n      jump\t// in\n    tag_468:\n        /* \"#utility.yul\":18191:18193   */\n      0x20\n        /* \"#utility.yul\":18186:18189   */\n      dup3\n        /* \"#utility.yul\":18182:18194   */\n      add\n        /* \"#utility.yul\":18175:18194   */\n      swap1\n      pop\n        /* \"#utility.yul\":17834:18200   */\n      swap2\n      swap1\n      pop\n      jump\t// out\n        /* \"#utility.yul\":18206:18625   */\n    tag_170:\n        /* \"#utility.yul\":18372:18376   */\n      0x00\n        /* \"#utility.yul\":18410:18412   */\n      0x20\n        /* \"#utility.yul\":18399:18408   */\n      dup3\n        /* \"#utility.yul\":18395:18413   */\n      add\n        /* \"#utility.yul\":18387:18413   */\n      swap1\n      pop\n        /* \"#utility.yul\":18459:18468   */\n      dup2\n        /* \"#utility.yul\":18453:18457   */\n      dup2\n        /* \"#utility.yul\":18449:18469   */\n      sub\n        /* \"#utility.yul\":18445:18446   */\n      0x00\n        /* \"#utility.yul\":18434:18443   */\n      dup4\n        /* \"#utility.yul\":18430:18447   */\n      add\n        /* \"#utility.yul\":18423:18470   */\n      mstore\n        /* \"#utility.yul\":18487:18618   */\n      tag_470\n        /* \"#utility.yul\":18613:18617   */\n      dup2\n        /* \"#utility.yul\":18487:18618   */\n      tag_269\n      jump\t// in\n    tag_470:\n        /* \"#utility.yul\":18479:18618   */\n      swap1\n      pop\n        /* \"#utility.yul\":18206:18625   */\n      swap2\n      swap1\n      pop\n      jump\t// out\n\n    auxdata: 0xa2646970667358221220667426a0eb7c8e27da7f14d8143112ba65f919b294a8fd5cb21be389d85326d864736f6c63430008160033\n}\n",
				"bytecode": {
					"linkReferences": {},
					"object": "608060405234801561000f575f80fd5b505f6002819055505f600781905550335f806101000a81548173ffffffffffffffffffffffffffffffffffffffff021916908373ffffffffffffffffffffffffffffffffffffffff1602179055505f600181905550611b0c806100715f395ff3fe60806040526004361061009b575f3560e01c80636ef98b21116100635780636ef98b2114610145578063a6c6fe281461016d578063a997c66a146101a9578063d0e30db0146101b3578063d379dadf146101bd578063e3ecbd50146101f95761009b565b806317b58e8c1461009f5780633d18b912146100c75780636a786b07146100dd5780636a9e7c6c146101055780636e27f8961461012f575b5f80fd5b3480156100aa575f80fd5b506100c560048036038101906100c0919061112c565b610223565b005b3480156100d2575f80fd5b506100db6103c6565b005b3480156100e8575f80fd5b5061010360048036038101906100fe9190611293565b6104e2565b005b348015610110575f80fd5b506101196105d9565b604051610126919061137f565b60405180910390f35b34801561013a575f80fd5b50610143610624565b005b348015610150575f80fd5b5061016b6004803603810190610166919061112c565b610b1a565b005b348015610178575f80fd5b50610193600480360381019061018e91906113f2565b610c6a565b6040516101a0919061142c565b60405180910390f35b6101b1610d06565b005b6101bb610e54565b005b3480156101c8575f80fd5b506101e360048036038101906101de919061112c565b610e97565b6040516101f09190611541565b60405180910390f35b348015610204575f80fd5b5061020d610fd3565b60405161021a919061142c565b60405180910390f35b8060036004600754610235919061158e565b60048110610246576102456115be565b5b018190555060075f81548092919061025d90611618565b91905055505f6004600754610272919061158e565b036103c3576004600860035f6004811061028f5761028e6115be565b5b0154815481106102a2576102a16115be565b5b905f5260205f2090600502016004015f8282546102bf919061165f565b925050819055506003600860036001600481106102df576102de6115be565b5b0154815481106102f2576102f16115be565b5b905f5260205f2090600502016004015f82825461030f919061165f565b9250508190555060026008600360026004811061032f5761032e6115be565b5b015481548110610342576103416115be565b5b905f5260205f2090600502016004015f82825461035f919061165f565b92505081905550600160086003806004811061037e5761037d6115be565b5b015481548110610391576103906115be565b5b905f5260205f2090600502016004015f8282546103ae919061165f565b9250508190555060035f6103c2919061106d565b5b50565b600a60086103d333610c6a565b815481106103e4576103e36115be565b5b905f5260205f209060050201600401541015610435576040517f08c379a000000000000000000000000000000000000000000000000000000000815260040161042c906116ec565b60405180910390fd5b600a600861044233610c6a565b81548110610453576104526115be565b5b905f5260205f2090600502016004015f828254610470919061170a565b9250508190555067016345785d8a000060015f828254610490919061170a565b9250508190555067016345785d8a000060086104ab33610c6a565b815481106104bc576104bb6115be565b5b905f5260205f2090600502016003015f8282546104d9919061165f565b92505081905550565b60086040518060a0016040528060025f81548092919061050190611618565b9190505581526020018381526020013373ffffffffffffffffffffffffffffffffffffffff1681526020015f81526020015f815250908060018154018082558091505060019003905f5260205f2090600502015f909190919091505f820151815f015560208201518160010190816105799190611937565b506040820151816002015f6101000a81548173ffffffffffffffffffffffffffffffffffffffff021916908373ffffffffffffffffffffffffffffffffffffffff1602179055506060820151816003015560808201518160040155505050565b6105e1611085565b600360048060200260405190810160405280929190826004801561061a576020028201915b815481526020019060010190808311610606575b5050505050905090565b60086040518060a0016040528060025f81548092919061064390611618565b9190505581526020016040518060400160405280600581526020017f4a696d6d7900000000000000000000000000000000000000000000000000000081525081526020017314723a09acff6d2a60dcdf7aa4aff308fddc160c73ffffffffffffffffffffffffffffffffffffffff1681526020015f81526020015f815250908060018154018082558091505060019003905f5260205f2090600502015f909190919091505f820151815f015560208201518160010190816107049190611937565b506040820151816002015f6101000a81548173ffffffffffffffffffffffffffffffffffffffff021916908373ffffffffffffffffffffffffffffffffffffffff1602179055506060820151816003015560808201518160040155505060086040518060a0016040528060025f81548092919061078090611618565b9190505581526020016040518060400160405280600381526020017f416d7900000000000000000000000000000000000000000000000000000000008152508152602001734b0897b0513fdc7c541b6d9d7e929c4e5364d2db73ffffffffffffffffffffffffffffffffffffffff1681526020015f81526020015f815250908060018154018082558091505060019003905f5260205f2090600502015f909190919091505f820151815f015560208201518160010190816108419190611937565b506040820151816002015f6101000a81548173ffffffffffffffffffffffffffffffffffffffff021916908373ffffffffffffffffffffffffffffffffffffffff1602179055506060820151816003015560808201518160040155505060086040518060a0016040528060025f8154809291906108bd90611618565b9190505581526020016040518060400160405280600381526020017f4d61780000000000000000000000000000000000000000000000000000000000815250815260200173583031d1113ad414f02576bd6afabfb30214022573ffffffffffffffffffffffffffffffffffffffff1681526020015f81526020015f815250908060018154018082558091505060019003905f5260205f2090600502015f909190919091505f820151815f0155602082015181600101908161097e9190611937565b506040820151816002015f6101000a81548173ffffffffffffffffffffffffffffffffffffffff021916908373ffffffffffffffffffffffffffffffffffffffff1602179055506060820151816003015560808201518160040155505060086040518060a0016040528060025f8154809291906109fa90611618565b9190505581526020016040518060400160405280600581526020017f4861696e7a000000000000000000000000000000000000000000000000000000815250815260200173dd870fa1b7c4700f2bd7f44238821c26f739214873ffffffffffffffffffffffffffffffffffffffff1681526020015f81526020015f815250908060018154018082558091505060019003905f5260205f2090600502015f909190919091505f820151815f01556020820151816001019081610abb9190611937565b506040820151816002015f6101000a81548173ffffffffffffffffffffffffffffffffffffffff021916908373ffffffffffffffffffffffffffffffffffffffff16021790555060608201518160030155608082015181600401555050565b806001541015610b5f576040517f08c379a0000000000000000000000000000000000000000000000000000000008152600401610b5690611a50565b60405180910390fd5b3373ffffffffffffffffffffffffffffffffffffffff165f8054906101000a900473ffffffffffffffffffffffffffffffffffffffff1673ffffffffffffffffffffffffffffffffffffffff1614610bec576040517f08c379a0000000000000000000000000000000000000000000000000000000008152600401610be390611a50565b60405180910390fd5b8060015f828254610bfd919061170a565b925050819055505f8054906101000a900473ffffffffffffffffffffffffffffffffffffffff1673ffffffffffffffffffffffffffffffffffffffff166108fc4790811502906040515f60405180830381858888f19350505050158015610c66573d5f803e3d5ffd5b5050565b5f805f90505b600254811015610cfd578273ffffffffffffffffffffffffffffffffffffffff1660088281548110610ca557610ca46115be565b5b905f5260205f2090600502016002015f9054906101000a900473ffffffffffffffffffffffffffffffffffffffff1673ffffffffffffffffffffffffffffffffffffffff160315610cfd578080600101915050610c70565b80915050919050565b662386f26fc100006008610d1933610c6a565b81548110610d2a57610d296115be565b5b905f5260205f20906005020160030154101580610d4d5750662386f26fc1000034145b610d8c576040517f08c379a0000000000000000000000000000000000000000000000000000000008152600401610d8390611ab8565b60405180910390fd5b662386f26fc100003403610db7573460015f828254610dab919061165f565b92505081905550610e1f565b662386f26fc100006008610dca33610c6a565b81548110610ddb57610dda6115be565b5b905f5260205f2090600502016003015f828254610df8919061170a565b92505081905550662386f26fc1000060015f828254610e17919061165f565b925050819055505b610e526008610e2d33610c6a565b81548110610e3e57610e3d6115be565b5b905f5260205f2090600502015f0154610223565b565b346008610e6033610c6a565b81548110610e7157610e706115be565b5b905f5260205f2090600502016003015f828254610e8e919061165f565b92505081905550565b610e9f6110a7565b60088281548110610eb357610eb26115be565b5b905f5260205f2090600502016040518060a00160405290815f8201548152602001600182018054610ee39061176a565b80601f0160208091040260200160405190810160405280929190818152602001828054610f0f9061176a565b8015610f5a5780601f10610f3157610100808354040283529160200191610f5a565b820191905f5260205f20905b815481529060010190602001808311610f3d57829003601f168201915b50505050508152602001600282015f9054906101000a900473ffffffffffffffffffffffffffffffffffffffff1673ffffffffffffffffffffffffffffffffffffffff1673ffffffffffffffffffffffffffffffffffffffff168152602001600382015481526020016004820154815250509050919050565b5f805f90505b600254811015611066573373ffffffffffffffffffffffffffffffffffffffff166008828154811061100e5761100d6115be565b5b905f5260205f2090600502016002015f9054906101000a900473ffffffffffffffffffffffffffffffffffffffff1673ffffffffffffffffffffffffffffffffffffffff160315611066578080600101915050610fd9565b8091505090565b505f81556001015f81556001015f81556001015f9055565b6040518060800160405280600490602082028036833780820191505090505090565b6040518060a001604052805f8152602001606081526020015f73ffffffffffffffffffffffffffffffffffffffff1681526020015f81526020015f81525090565b5f604051905090565b5f80fd5b5f80fd5b5f819050919050565b61110b816110f9565b8114611115575f80fd5b50565b5f8135905061112681611102565b92915050565b5f60208284031215611141576111406110f1565b5b5f61114e84828501611118565b91505092915050565b5f80fd5b5f80fd5b5f601f19601f8301169050919050565b7f4e487b71000000000000000000000000000000000000000000000000000000005f52604160045260245ffd5b6111a58261115f565b810181811067ffffffffffffffff821117156111c4576111c361116f565b5b80604052505050565b5f6111d66110e8565b90506111e2828261119c565b919050565b5f67ffffffffffffffff8211156112015761120061116f565b5b61120a8261115f565b9050602081019050919050565b828183375f83830152505050565b5f611237611232846111e7565b6111cd565b9050828152602081018484840111156112535761125261115b565b5b61125e848285611217565b509392505050565b5f82601f83011261127a57611279611157565b5b813561128a848260208601611225565b91505092915050565b5f602082840312156112a8576112a76110f1565b5b5f82013567ffffffffffffffff8111156112c5576112c46110f5565b5b6112d184828501611266565b91505092915050565b5f60049050919050565b5f81905092915050565b5f819050919050565b611300816110f9565b82525050565b5f61131183836112f7565b60208301905092915050565b5f602082019050919050565b611332816112da565b61133c81846112e4565b9250611347826112ee565b805f5b8381101561137757815161135e8782611306565b96506113698361131d565b92505060018101905061134a565b505050505050565b5f6080820190506113925f830184611329565b92915050565b5f73ffffffffffffffffffffffffffffffffffffffff82169050919050565b5f6113c182611398565b9050919050565b6113d1816113b7565b81146113db575f80fd5b50565b5f813590506113ec816113c8565b92915050565b5f60208284031215611407576114066110f1565b5b5f611414848285016113de565b91505092915050565b611426816110f9565b82525050565b5f60208201905061143f5f83018461141d565b92915050565b5f81519050919050565b5f82825260208201905092915050565b5f5b8381101561147c578082015181840152602081019050611461565b5f8484015250505050565b5f61149182611445565b61149b818561144f565b93506114ab81856020860161145f565b6114b48161115f565b840191505092915050565b6114c8816113b7565b82525050565b5f60a083015f8301516114e35f8601826112f7565b50602083015184820360208601526114fb8282611487565b915050604083015161151060408601826114bf565b50606083015161152360608601826112f7565b50608083015161153660808601826112f7565b508091505092915050565b5f6020820190508181035f83015261155981846114ce565b905092915050565b7f4e487b71000000000000000000000000000000000000000000000000000000005f52601260045260245ffd5b5f611598826110f9565b91506115a3836110f9565b9250826115b3576115b2611561565b5b828206905092915050565b7f4e487b71000000000000000000000000000000000000000000000000000000005f52603260045260245ffd5b7f4e487b71000000000000000000000000000000000000000000000000000000005f52601160045260245ffd5b5f611622826110f9565b91507fffffffffffffffffffffffffffffffffffffffffffffffffffffffffffffffff8203611654576116536115eb565b5b600182019050919050565b5f611669826110f9565b9150611674836110f9565b925082820190508082111561168c5761168b6115eb565b5b92915050565b5f82825260208201905092915050565b7f696e656666696369656e742053636f72650000000000000000000000000000005f82015250565b5f6116d6601183611692565b91506116e1826116a2565b602082019050919050565b5f6020820190508181035f830152611703816116ca565b9050919050565b5f611714826110f9565b915061171f836110f9565b9250828203905081811115611737576117366115eb565b5b92915050565b7f4e487b71000000000000000000000000000000000000000000000000000000005f52602260045260245ffd5b5f600282049050600182168061178157607f821691505b6020821081036117945761179361173d565b5b50919050565b5f819050815f5260205f209050919050565b5f6020601f8301049050919050565b5f82821b905092915050565b5f600883026117f67fffffffffffffffffffffffffffffffffffffffffffffffffffffffffffffffff826117bb565b61180086836117bb565b95508019841693508086168417925050509392505050565b5f819050919050565b5f61183b611836611831846110f9565b611818565b6110f9565b9050919050565b5f819050919050565b61185483611821565b61186861186082611842565b8484546117c7565b825550505050565b5f90565b61187c611870565b61188781848461184b565b505050565b5b818110156118aa5761189f5f82611874565b60018101905061188d565b5050565b601f8211156118ef576118c08161179a565b6118c9846117ac565b810160208510156118d8578190505b6118ec6118e4856117ac565b83018261188c565b50505b505050565b5f82821c905092915050565b5f61190f5f19846008026118f4565b1980831691505092915050565b5f6119278383611900565b9150826002028217905092915050565b61194082611445565b67ffffffffffffffff8111156119595761195861116f565b5b611963825461176a565b61196e8282856118ae565b5f60209050601f83116001811461199f575f841561198d578287015190505b611997858261191c565b8655506119fe565b601f1984166119ad8661179a565b5f5b828110156119d4578489015182556001820191506020850194506020810190506119af565b868310156119f157848901516119ed601f891682611900565b8355505b6001600288020188555050505b505050505050565b7f72657665727400000000000000000000000000000000000000000000000000005f82015250565b5f611a3a600683611692565b9150611a4582611a06565b602082019050919050565b5f6020820190508181035f830152611a6781611a2e565b9050919050565b7f696e656666696369656e742045544800000000000000000000000000000000005f82015250565b5f611aa2600f83611692565b9150611aad82611a6e565b602082019050919050565b5f6020820190508181035f830152611acf81611a96565b905091905056fea2646970667358221220667426a0eb7c8e27da7f14d8143112ba65f919b294a8fd5cb21be389d85326d864736f6c63430008160033",
					"opcodes": "PUSH1 0x80 PUSH1 0x40 MSTORE CALLVALUE DUP1 ISZERO PUSH2 0xF JUMPI PUSH0 DUP1 REVERT JUMPDEST POP PUSH0 PUSH1 0x2 DUP2 SWAP1 SSTORE POP PUSH0 PUSH1 0x7 DUP2 SWAP1 SSTORE POP CALLER PUSH0 DUP1 PUSH2 0x100 EXP DUP2 SLOAD DUP2 PUSH20 0xFFFFFFFFFFFFFFFFFFFFFFFFFFFFFFFFFFFFFFFF MUL NOT AND SWAP1 DUP4 PUSH20 0xFFFFFFFFFFFFFFFFFFFFFFFFFFFFFFFFFFFFFFFF AND MUL OR SWAP1 SSTORE POP PUSH0 PUSH1 0x1 DUP2 SWAP1 SSTORE POP PUSH2 0x1B0C DUP1 PUSH2 0x71 PUSH0 CODECOPY PUSH0 RETURN INVALID PUSH1 0x80 PUSH1 0x40 MSTORE PUSH1 0x4 CALLDATASIZE LT PUSH2 0x9B JUMPI PUSH0 CALLDATALOAD PUSH1 0xE0 SHR DUP1 PUSH4 0x6EF98B21 GT PUSH2 0x63 JUMPI DUP1 PUSH4 0x6EF98B21 EQ PUSH2 0x145 JUMPI DUP1 PUSH4 0xA6C6FE28 EQ PUSH2 0x16D JUMPI DUP1 PUSH4 0xA997C66A EQ PUSH2 0x1A9 JUMPI DUP1 PUSH4 0xD0E30DB0 EQ PUSH2 0x1B3 JUMPI DUP1 PUSH4 0xD379DADF EQ PUSH2 0x1BD JUMPI DUP1 PUSH4 0xE3ECBD50 EQ PUSH2 0x1F9 JUMPI PUSH2 0x9B JUMP JUMPDEST DUP1 PUSH4 0x17B58E8C EQ PUSH2 0x9F JUMPI DUP1 PUSH4 0x3D18B912 EQ PUSH2 0xC7 JUMPI DUP1 PUSH4 0x6A786B07 EQ PUSH2 0xDD JUMPI DUP1 PUSH4 0x6A9E7C6C EQ PUSH2 0x105 JUMPI DUP1 PUSH4 0x6E27F896 EQ PUSH2 0x12F JUMPI JUMPDEST PUSH0 DUP1 REVERT JUMPDEST CALLVALUE DUP1 ISZERO PUSH2 0xAA JUMPI PUSH0 DUP1 REVERT JUMPDEST POP PUSH2 0xC5 PUSH1 0x4 DUP1 CALLDATASIZE SUB DUP2 ADD SWAP1 PUSH2 0xC0 SWAP2 SWAP1 PUSH2 0x112C JUMP JUMPDEST PUSH2 0x223 JUMP JUMPDEST STOP JUMPDEST CALLVALUE DUP1 ISZERO PUSH2 0xD2 JUMPI PUSH0 DUP1 REVERT JUMPDEST POP PUSH2 0xDB PUSH2 0x3C6 JUMP JUMPDEST STOP JUMPDEST CALLVALUE DUP1 ISZERO PUSH2 0xE8 JUMPI PUSH0 DUP1 REVERT JUMPDEST POP PUSH2 0x103 PUSH1 0x4 DUP1 CALLDATASIZE SUB DUP2 ADD SWAP1 PUSH2 0xFE SWAP2 SWAP1 PUSH2 0x1293 JUMP JUMPDEST PUSH2 0x4E2 JUMP JUMPDEST STOP JUMPDEST CALLVALUE DUP1 ISZERO PUSH2 0x110 JUMPI PUSH0 DUP1 REVERT JUMPDEST POP PUSH2 0x119 PUSH2 0x5D9 JUMP JUMPDEST PUSH1 0x40 MLOAD PUSH2 0x126 SWAP2 SWAP1 PUSH2 0x137F JUMP JUMPDEST PUSH1 0x40 MLOAD DUP1 SWAP2 SUB SWAP1 RETURN JUMPDEST CALLVALUE DUP1 ISZERO PUSH2 0x13A JUMPI PUSH0 DUP1 REVERT JUMPDEST POP PUSH2 0x143 PUSH2 0x624 JUMP JUMPDEST STOP JUMPDEST CALLVALUE DUP1 ISZERO PUSH2 0x150 JUMPI PUSH0 DUP1 REVERT JUMPDEST POP PUSH2 0x16B PUSH1 0x4 DUP1 CALLDATASIZE SUB DUP2 ADD SWAP1 PUSH2 0x166 SWAP2 SWAP1 PUSH2 0x112C JUMP JUMPDEST PUSH2 0xB1A JUMP JUMPDEST STOP JUMPDEST CALLVALUE DUP1 ISZERO PUSH2 0x178 JUMPI PUSH0 DUP1 REVERT JUMPDEST POP PUSH2 0x193 PUSH1 0x4 DUP1 CALLDATASIZE SUB DUP2 ADD SWAP1 PUSH2 0x18E SWAP2 SWAP1 PUSH2 0x13F2 JUMP JUMPDEST PUSH2 0xC6A JUMP JUMPDEST PUSH1 0x40 MLOAD PUSH2 0x1A0 SWAP2 SWAP1 PUSH2 0x142C JUMP JUMPDEST PUSH1 0x40 MLOAD DUP1 SWAP2 SUB SWAP1 RETURN JUMPDEST PUSH2 0x1B1 PUSH2 0xD06 JUMP JUMPDEST STOP JUMPDEST PUSH2 0x1BB PUSH2 0xE54 JUMP JUMPDEST STOP JUMPDEST CALLVALUE DUP1 ISZERO PUSH2 0x1C8 JUMPI PUSH0 DUP1 REVERT JUMPDEST POP PUSH2 0x1E3 PUSH1 0x4 DUP1 CALLDATASIZE SUB DUP2 ADD SWAP1 PUSH2 0x1DE SWAP2 SWAP1 PUSH2 0x112C JUMP JUMPDEST PUSH2 0xE97 JUMP JUMPDEST PUSH1 0x40 MLOAD PUSH2 0x1F0 SWAP2 SWAP1 PUSH2 0x1541 JUMP JUMPDEST PUSH1 0x40 MLOAD DUP1 SWAP2 SUB SWAP1 RETURN JUMPDEST CALLVALUE DUP1 ISZERO PUSH2 0x204 JUMPI PUSH0 DUP1 REVERT JUMPDEST POP PUSH2 0x20D PUSH2 0xFD3 JUMP JUMPDEST PUSH1 0x40 MLOAD PUSH2 0x21A SWAP2 SWAP1 PUSH2 0x142C JUMP JUMPDEST PUSH1 0x40 MLOAD DUP1 SWAP2 SUB SWAP1 RETURN JUMPDEST DUP1 PUSH1 0x3 PUSH1 0x4 PUSH1 0x7 SLOAD PUSH2 0x235 SWAP2 SWAP1 PUSH2 0x158E JUMP JUMPDEST PUSH1 0x4 DUP2 LT PUSH2 0x246 JUMPI PUSH2 0x245 PUSH2 0x15BE JUMP JUMPDEST JUMPDEST ADD DUP2 SWAP1 SSTORE POP PUSH1 0x7 PUSH0 DUP2 SLOAD DUP1 SWAP3 SWAP2 SWAP1 PUSH2 0x25D SWAP1 PUSH2 0x1618 JUMP JUMPDEST SWAP2 SWAP1 POP SSTORE POP PUSH0 PUSH1 0x4 PUSH1 0x7 SLOAD PUSH2 0x272 SWAP2 SWAP1 PUSH2 0x158E JUMP JUMPDEST SUB PUSH2 0x3C3 JUMPI PUSH1 0x4 PUSH1 0x8 PUSH1 0x3 PUSH0 PUSH1 0x4 DUP2 LT PUSH2 0x28F JUMPI PUSH2 0x28E PUSH2 0x15BE JUMP JUMPDEST JUMPDEST ADD SLOAD DUP2 SLOAD DUP2 LT PUSH2 0x2A2 JUMPI PUSH2 0x2A1 PUSH2 0x15BE JUMP JUMPDEST JUMPDEST SWAP1 PUSH0 MSTORE PUSH1 0x20 PUSH0 KECCAK256 SWAP1 PUSH1 0x5 MUL ADD PUSH1 0x4 ADD PUSH0 DUP3 DUP3 SLOAD PUSH2 0x2BF SWAP2 SWAP1 PUSH2 0x165F JUMP JUMPDEST SWAP3 POP POP DUP2 SWAP1 SSTORE POP PUSH1 0x3 PUSH1 0x8 PUSH1 0x3 PUSH1 0x1 PUSH1 0x4 DUP2 LT PUSH2 0x2DF JUMPI PUSH2 0x2DE PUSH2 0x15BE JUMP JUMPDEST JUMPDEST ADD SLOAD DUP2 SLOAD DUP2 LT PUSH2 0x2F2 JUMPI PUSH2 0x2F1 PUSH2 0x15BE JUMP JUMPDEST JUMPDEST SWAP1 PUSH0 MSTORE PUSH1 0x20 PUSH0 KECCAK256 SWAP1 PUSH1 0x5 MUL ADD PUSH1 0x4 ADD PUSH0 DUP3 DUP3 SLOAD PUSH2 0x30F SWAP2 SWAP1 PUSH2 0x165F JUMP JUMPDEST SWAP3 POP POP DUP2 SWAP1 SSTORE POP PUSH1 0x2 PUSH1 0x8 PUSH1 0x3 PUSH1 0x2 PUSH1 0x4 DUP2 LT PUSH2 0x32F JUMPI PUSH2 0x32E PUSH2 0x15BE JUMP JUMPDEST JUMPDEST ADD SLOAD DUP2 SLOAD DUP2 LT PUSH2 0x342 JUMPI PUSH2 0x341 PUSH2 0x15BE JUMP JUMPDEST JUMPDEST SWAP1 PUSH0 MSTORE PUSH1 0x20 PUSH0 KECCAK256 SWAP1 PUSH1 0x5 MUL ADD PUSH1 0x4 ADD PUSH0 DUP3 DUP3 SLOAD PUSH2 0x35F SWAP2 SWAP1 PUSH2 0x165F JUMP JUMPDEST SWAP3 POP POP DUP2 SWAP1 SSTORE POP PUSH1 0x1 PUSH1 0x8 PUSH1 0x3 DUP1 PUSH1 0x4 DUP2 LT PUSH2 0x37E JUMPI PUSH2 0x37D PUSH2 0x15BE JUMP JUMPDEST JUMPDEST ADD SLOAD DUP2 SLOAD DUP2 LT PUSH2 0x391 JUMPI PUSH2 0x390 PUSH2 0x15BE JUMP JUMPDEST JUMPDEST SWAP1 PUSH0 MSTORE PUSH1 0x20 PUSH0 KECCAK256 SWAP1 PUSH1 0x5 MUL ADD PUSH1 0x4 ADD PUSH0 DUP3 DUP3 SLOAD PUSH2 0x3AE SWAP2 SWAP1 PUSH2 0x165F JUMP JUMPDEST SWAP3 POP POP DUP2 SWAP1 SSTORE POP PUSH1 0x3 PUSH0 PUSH2 0x3C2 SWAP2 SWAP1 PUSH2 0x106D JUMP JUMPDEST JUMPDEST POP JUMP JUMPDEST PUSH1 0xA PUSH1 0x8 PUSH2 0x3D3 CALLER PUSH2 0xC6A JUMP JUMPDEST DUP2 SLOAD DUP2 LT PUSH2 0x3E4 JUMPI PUSH2 0x3E3 PUSH2 0x15BE JUMP JUMPDEST JUMPDEST SWAP1 PUSH0 MSTORE PUSH1 0x20 PUSH0 KECCAK256 SWAP1 PUSH1 0x5 MUL ADD PUSH1 0x4 ADD SLOAD LT ISZERO PUSH2 0x435 JUMPI PUSH1 0x40 MLOAD PUSH32 0x8C379A000000000000000000000000000000000000000000000000000000000 DUP2 MSTORE PUSH1 0x4 ADD PUSH2 0x42C SWAP1 PUSH2 0x16EC JUMP JUMPDEST PUSH1 0x40 MLOAD DUP1 SWAP2 SUB SWAP1 REVERT JUMPDEST PUSH1 0xA PUSH1 0x8 PUSH2 0x442 CALLER PUSH2 0xC6A JUMP JUMPDEST DUP2 SLOAD DUP2 LT PUSH2 0x453 JUMPI PUSH2 0x452 PUSH2 0x15BE JUMP JUMPDEST JUMPDEST SWAP1 PUSH0 MSTORE PUSH1 0x20 PUSH0 KECCAK256 SWAP1 PUSH1 0x5 MUL ADD PUSH1 0x4 ADD PUSH0 DUP3 DUP3 SLOAD PUSH2 0x470 SWAP2 SWAP1 PUSH2 0x170A JUMP JUMPDEST SWAP3 POP POP DUP2 SWAP1 SSTORE POP PUSH8 0x16345785D8A0000 PUSH1 0x1 PUSH0 DUP3 DUP3 SLOAD PUSH2 0x490 SWAP2 SWAP1 PUSH2 0x170A JUMP JUMPDEST SWAP3 POP POP DUP2 SWAP1 SSTORE POP PUSH8 0x16345785D8A0000 PUSH1 0x8 PUSH2 0x4AB CALLER PUSH2 0xC6A JUMP JUMPDEST DUP2 SLOAD DUP2 LT PUSH2 0x4BC JUMPI PUSH2 0x4BB PUSH2 0x15BE JUMP JUMPDEST JUMPDEST SWAP1 PUSH0 MSTORE PUSH1 0x20 PUSH0 KECCAK256 SWAP1 PUSH1 0x5 MUL ADD PUSH1 0x3 ADD PUSH0 DUP3 DUP3 SLOAD PUSH2 0x4D9 SWAP2 SWAP1 PUSH2 0x165F JUMP JUMPDEST SWAP3 POP POP DUP2 SWAP1 SSTORE POP JUMP JUMPDEST PUSH1 0x8 PUSH1 0x40 MLOAD DUP1 PUSH1 0xA0 ADD PUSH1 0x40 MSTORE DUP1 PUSH1 0x2 PUSH0 DUP2 SLOAD DUP1 SWAP3 SWAP2 SWAP1 PUSH2 0x501 SWAP1 PUSH2 0x1618 JUMP JUMPDEST SWAP2 SWAP1 POP SSTORE DUP2 MSTORE PUSH1 0x20 ADD DUP4 DUP2 MSTORE PUSH1 0x20 ADD CALLER PUSH20 0xFFFFFFFFFFFFFFFFFFFFFFFFFFFFFFFFFFFFFFFF AND DUP2 MSTORE PUSH1 0x20 ADD PUSH0 DUP2 MSTORE PUSH1 0x20 ADD PUSH0 DUP2 MSTORE POP SWAP1 DUP1 PUSH1 0x1 DUP2 SLOAD ADD DUP1 DUP3 SSTORE DUP1 SWAP2 POP POP PUSH1 0x1 SWAP1 SUB SWAP1 PUSH0 MSTORE PUSH1 0x20 PUSH0 KECCAK256 SWAP1 PUSH1 0x5 MUL ADD PUSH0 SWAP1 SWAP2 SWAP1 SWAP2 SWAP1 SWAP2 POP PUSH0 DUP3 ADD MLOAD DUP2 PUSH0 ADD SSTORE PUSH1 0x20 DUP3 ADD MLOAD DUP2 PUSH1 0x1 ADD SWAP1 DUP2 PUSH2 0x579 SWAP2 SWAP1 PUSH2 0x1937 JUMP JUMPDEST POP PUSH1 0x40 DUP3 ADD MLOAD DUP2 PUSH1 0x2 ADD PUSH0 PUSH2 0x100 EXP DUP2 SLOAD DUP2 PUSH20 0xFFFFFFFFFFFFFFFFFFFFFFFFFFFFFFFFFFFFFFFF MUL NOT AND SWAP1 DUP4 PUSH20 0xFFFFFFFFFFFFFFFFFFFFFFFFFFFFFFFFFFFFFFFF AND MUL OR SWAP1 SSTORE POP PUSH1 0x60 DUP3 ADD MLOAD DUP2 PUSH1 0x3 ADD SSTORE PUSH1 0x80 DUP3 ADD MLOAD DUP2 PUSH1 0x4 ADD SSTORE POP POP POP JUMP JUMPDEST PUSH2 0x5E1 PUSH2 0x1085 JUMP JUMPDEST PUSH1 0x3 PUSH1 0x4 DUP1 PUSH1 0x20 MUL PUSH1 0x40 MLOAD SWAP1 DUP2 ADD PUSH1 0x40 MSTORE DUP1 SWAP3 SWAP2 SWAP1 DUP3 PUSH1 0x4 DUP1 ISZERO PUSH2 0x61A JUMPI PUSH1 0x20 MUL DUP3 ADD SWAP2 JUMPDEST DUP2 SLOAD DUP2 MSTORE PUSH1 0x20 ADD SWAP1 PUSH1 0x1 ADD SWAP1 DUP1 DUP4 GT PUSH2 0x606 JUMPI JUMPDEST POP POP POP POP POP SWAP1 POP SWAP1 JUMP JUMPDEST PUSH1 0x8 PUSH1 0x40 MLOAD DUP1 PUSH1 0xA0 ADD PUSH1 0x40 MSTORE DUP1 PUSH1 0x2 PUSH0 DUP2 SLOAD DUP1 SWAP3 SWAP2 SWAP1 PUSH2 0x643 SWAP1 PUSH2 0x1618 JUMP JUMPDEST SWAP2 SWAP1 POP SSTORE DUP2 MSTORE PUSH1 0x20 ADD PUSH1 0x40 MLOAD DUP1 PUSH1 0x40 ADD PUSH1 0x40 MSTORE DUP1 PUSH1 0x5 DUP2 MSTORE PUSH1 0x20 ADD PUSH32 0x4A696D6D79000000000000000000000000000000000000000000000000000000 DUP2 MSTORE POP DUP2 MSTORE PUSH1 0x20 ADD PUSH20 0x14723A09ACFF6D2A60DCDF7AA4AFF308FDDC160C PUSH20 0xFFFFFFFFFFFFFFFFFFFFFFFFFFFFFFFFFFFFFFFF AND DUP2 MSTORE PUSH1 0x20 ADD PUSH0 DUP2 MSTORE PUSH1 0x20 ADD PUSH0 DUP2 MSTORE POP SWAP1 DUP1 PUSH1 0x1 DUP2 SLOAD ADD DUP1 DUP3 SSTORE DUP1 SWAP2 POP POP PUSH1 0x1 SWAP1 SUB SWAP1 PUSH0 MSTORE PUSH1 0x20 PUSH0 KECCAK256 SWAP1 PUSH1 0x5 MUL ADD PUSH0 SWAP1 SWAP2 SWAP1 SWAP2 SWAP1 SWAP2 POP PUSH0 DUP3 ADD MLOAD DUP2 PUSH0 ADD SSTORE PUSH1 0x20 DUP3 ADD MLOAD DUP2 PUSH1 0x1 ADD SWAP1 DUP2 PUSH2 0x704 SWAP2 SWAP1 PUSH2 0x1937 JUMP JUMPDEST POP PUSH1 0x40 DUP3 ADD MLOAD DUP2 PUSH1 0x2 ADD PUSH0 PUSH2 0x100 EXP DUP2 SLOAD DUP2 PUSH20 0xFFFFFFFFFFFFFFFFFFFFFFFFFFFFFFFFFFFFFFFF MUL NOT AND SWAP1 DUP4 PUSH20 0xFFFFFFFFFFFFFFFFFFFFFFFFFFFFFFFFFFFFFFFF AND MUL OR SWAP1 SSTORE POP PUSH1 0x60 DUP3 ADD MLOAD DUP2 PUSH1 0x3 ADD SSTORE PUSH1 0x80 DUP3 ADD MLOAD DUP2 PUSH1 0x4 ADD SSTORE POP POP PUSH1 0x8 PUSH1 0x40 MLOAD DUP1 PUSH1 0xA0 ADD PUSH1 0x40 MSTORE DUP1 PUSH1 0x2 PUSH0 DUP2 SLOAD DUP1 SWAP3 SWAP2 SWAP1 PUSH2 0x780 SWAP1 PUSH2 0x1618 JUMP JUMPDEST SWAP2 SWAP1 POP SSTORE DUP2 MSTORE PUSH1 0x20 ADD PUSH1 0x40 MLOAD DUP1 PUSH1 0x40 ADD PUSH1 0x40 MSTORE DUP1 PUSH1 0x3 DUP2 MSTORE PUSH1 0x20 ADD PUSH32 0x416D790000000000000000000000000000000000000000000000000000000000 DUP2 MSTORE POP DUP2 MSTORE PUSH1 0x20 ADD PUSH20 0x4B0897B0513FDC7C541B6D9D7E929C4E5364D2DB PUSH20 0xFFFFFFFFFFFFFFFFFFFFFFFFFFFFFFFFFFFFFFFF AND DUP2 MSTORE PUSH1 0x20 ADD PUSH0 DUP2 MSTORE PUSH1 0x20 ADD PUSH0 DUP2 MSTORE POP SWAP1 DUP1 PUSH1 0x1 DUP2 SLOAD ADD DUP1 DUP3 SSTORE DUP1 SWAP2 POP POP PUSH1 0x1 SWAP1 SUB SWAP1 PUSH0 MSTORE PUSH1 0x20 PUSH0 KECCAK256 SWAP1 PUSH1 0x5 MUL ADD PUSH0 SWAP1 SWAP2 SWAP1 SWAP2 SWAP1 SWAP2 POP PUSH0 DUP3 ADD MLOAD DUP2 PUSH0 ADD SSTORE PUSH1 0x20 DUP3 ADD MLOAD DUP2 PUSH1 0x1 ADD SWAP1 DUP2 PUSH2 0x841 SWAP2 SWAP1 PUSH2 0x1937 JUMP JUMPDEST POP PUSH1 0x40 DUP3 ADD MLOAD DUP2 PUSH1 0x2 ADD PUSH0 PUSH2 0x100 EXP DUP2 SLOAD DUP2 PUSH20 0xFFFFFFFFFFFFFFFFFFFFFFFFFFFFFFFFFFFFFFFF MUL NOT AND SWAP1 DUP4 PUSH20 0xFFFFFFFFFFFFFFFFFFFFFFFFFFFFFFFFFFFFFFFF AND MUL OR SWAP1 SSTORE POP PUSH1 0x60 DUP3 ADD MLOAD DUP2 PUSH1 0x3 ADD SSTORE PUSH1 0x80 DUP3 ADD MLOAD DUP2 PUSH1 0x4 ADD SSTORE POP POP PUSH1 0x8 PUSH1 0x40 MLOAD DUP1 PUSH1 0xA0 ADD PUSH1 0x40 MSTORE DUP1 PUSH1 0x2 PUSH0 DUP2 SLOAD DUP1 SWAP3 SWAP2 SWAP1 PUSH2 0x8BD SWAP1 PUSH2 0x1618 JUMP JUMPDEST SWAP2 SWAP1 POP SSTORE DUP2 MSTORE PUSH1 0x20 ADD PUSH1 0x40 MLOAD DUP1 PUSH1 0x40 ADD PUSH1 0x40 MSTORE DUP1 PUSH1 0x3 DUP2 MSTORE PUSH1 0x20 ADD PUSH32 0x4D61780000000000000000000000000000000000000000000000000000000000 DUP2 MSTORE POP DUP2 MSTORE PUSH1 0x20 ADD PUSH20 0x583031D1113AD414F02576BD6AFABFB302140225 PUSH20 0xFFFFFFFFFFFFFFFFFFFFFFFFFFFFFFFFFFFFFFFF AND DUP2 MSTORE PUSH1 0x20 ADD PUSH0 DUP2 MSTORE PUSH1 0x20 ADD PUSH0 DUP2 MSTORE POP SWAP1 DUP1 PUSH1 0x1 DUP2 SLOAD ADD DUP1 DUP3 SSTORE DUP1 SWAP2 POP POP PUSH1 0x1 SWAP1 SUB SWAP1 PUSH0 MSTORE PUSH1 0x20 PUSH0 KECCAK256 SWAP1 PUSH1 0x5 MUL ADD PUSH0 SWAP1 SWAP2 SWAP1 SWAP2 SWAP1 SWAP2 POP PUSH0 DUP3 ADD MLOAD DUP2 PUSH0 ADD SSTORE PUSH1 0x20 DUP3 ADD MLOAD DUP2 PUSH1 0x1 ADD SWAP1 DUP2 PUSH2 0x97E SWAP2 SWAP1 PUSH2 0x1937 JUMP JUMPDEST POP PUSH1 0x40 DUP3 ADD MLOAD DUP2 PUSH1 0x2 ADD PUSH0 PUSH2 0x100 EXP DUP2 SLOAD DUP2 PUSH20 0xFFFFFFFFFFFFFFFFFFFFFFFFFFFFFFFFFFFFFFFF MUL NOT AND SWAP1 DUP4 PUSH20 0xFFFFFFFFFFFFFFFFFFFFFFFFFFFFFFFFFFFFFFFF AND MUL OR SWAP1 SSTORE POP PUSH1 0x60 DUP3 ADD MLOAD DUP2 PUSH1 0x3 ADD SSTORE PUSH1 0x80 DUP3 ADD MLOAD DUP2 PUSH1 0x4 ADD SSTORE POP POP PUSH1 0x8 PUSH1 0x40 MLOAD DUP1 PUSH1 0xA0 ADD PUSH1 0x40 MSTORE DUP1 PUSH1 0x2 PUSH0 DUP2 SLOAD DUP1 SWAP3 SWAP2 SWAP1 PUSH2 0x9FA SWAP1 PUSH2 0x1618 JUMP JUMPDEST SWAP2 SWAP1 POP SSTORE DUP2 MSTORE PUSH1 0x20 ADD PUSH1 0x40 MLOAD DUP1 PUSH1 0x40 ADD PUSH1 0x40 MSTORE DUP1 PUSH1 0x5 DUP2 MSTORE PUSH1 0x20 ADD PUSH32 0x4861696E7A000000000000000000000000000000000000000000000000000000 DUP2 MSTORE POP DUP2 MSTORE PUSH1 0x20 ADD PUSH20 0xDD870FA1B7C4700F2BD7F44238821C26F7392148 PUSH20 0xFFFFFFFFFFFFFFFFFFFFFFFFFFFFFFFFFFFFFFFF AND DUP2 MSTORE PUSH1 0x20 ADD PUSH0 DUP2 MSTORE PUSH1 0x20 ADD PUSH0 DUP2 MSTORE POP SWAP1 DUP1 PUSH1 0x1 DUP2 SLOAD ADD DUP1 DUP3 SSTORE DUP1 SWAP2 POP POP PUSH1 0x1 SWAP1 SUB SWAP1 PUSH0 MSTORE PUSH1 0x20 PUSH0 KECCAK256 SWAP1 PUSH1 0x5 MUL ADD PUSH0 SWAP1 SWAP2 SWAP1 SWAP2 SWAP1 SWAP2 POP PUSH0 DUP3 ADD MLOAD DUP2 PUSH0 ADD SSTORE PUSH1 0x20 DUP3 ADD MLOAD DUP2 PUSH1 0x1 ADD SWAP1 DUP2 PUSH2 0xABB SWAP2 SWAP1 PUSH2 0x1937 JUMP JUMPDEST POP PUSH1 0x40 DUP3 ADD MLOAD DUP2 PUSH1 0x2 ADD PUSH0 PUSH2 0x100 EXP DUP2 SLOAD DUP2 PUSH20 0xFFFFFFFFFFFFFFFFFFFFFFFFFFFFFFFFFFFFFFFF MUL NOT AND SWAP1 DUP4 PUSH20 0xFFFFFFFFFFFFFFFFFFFFFFFFFFFFFFFFFFFFFFFF AND MUL OR SWAP1 SSTORE POP PUSH1 0x60 DUP3 ADD MLOAD DUP2 PUSH1 0x3 ADD SSTORE PUSH1 0x80 DUP3 ADD MLOAD DUP2 PUSH1 0x4 ADD SSTORE POP POP JUMP JUMPDEST DUP1 PUSH1 0x1 SLOAD LT ISZERO PUSH2 0xB5F JUMPI PUSH1 0x40 MLOAD PUSH32 0x8C379A000000000000000000000000000000000000000000000000000000000 DUP2 MSTORE PUSH1 0x4 ADD PUSH2 0xB56 SWAP1 PUSH2 0x1A50 JUMP JUMPDEST PUSH1 0x40 MLOAD DUP1 SWAP2 SUB SWAP1 REVERT JUMPDEST CALLER PUSH20 0xFFFFFFFFFFFFFFFFFFFFFFFFFFFFFFFFFFFFFFFF AND PUSH0 DUP1 SLOAD SWAP1 PUSH2 0x100 EXP SWAP1 DIV PUSH20 0xFFFFFFFFFFFFFFFFFFFFFFFFFFFFFFFFFFFFFFFF AND PUSH20 0xFFFFFFFFFFFFFFFFFFFFFFFFFFFFFFFFFFFFFFFF AND EQ PUSH2 0xBEC JUMPI PUSH1 0x40 MLOAD PUSH32 0x8C379A000000000000000000000000000000000000000000000000000000000 DUP2 MSTORE PUSH1 0x4 ADD PUSH2 0xBE3 SWAP1 PUSH2 0x1A50 JUMP JUMPDEST PUSH1 0x40 MLOAD DUP1 SWAP2 SUB SWAP1 REVERT JUMPDEST DUP1 PUSH1 0x1 PUSH0 DUP3 DUP3 SLOAD PUSH2 0xBFD SWAP2 SWAP1 PUSH2 0x170A JUMP JUMPDEST SWAP3 POP POP DUP2 SWAP1 SSTORE POP PUSH0 DUP1 SLOAD SWAP1 PUSH2 0x100 EXP SWAP1 DIV PUSH20 0xFFFFFFFFFFFFFFFFFFFFFFFFFFFFFFFFFFFFFFFF AND PUSH20 0xFFFFFFFFFFFFFFFFFFFFFFFFFFFFFFFFFFFFFFFF AND PUSH2 0x8FC SELFBALANCE SWAP1 DUP2 ISZERO MUL SWAP1 PUSH1 0x40 MLOAD PUSH0 PUSH1 0x40 MLOAD DUP1 DUP4 SUB DUP2 DUP6 DUP9 DUP9 CALL SWAP4 POP POP POP POP ISZERO DUP1 ISZERO PUSH2 0xC66 JUMPI RETURNDATASIZE PUSH0 DUP1 RETURNDATACOPY RETURNDATASIZE PUSH0 REVERT JUMPDEST POP POP JUMP JUMPDEST PUSH0 DUP1 PUSH0 SWAP1 POP JUMPDEST PUSH1 0x2 SLOAD DUP2 LT ISZERO PUSH2 0xCFD JUMPI DUP3 PUSH20 0xFFFFFFFFFFFFFFFFFFFFFFFFFFFFFFFFFFFFFFFF AND PUSH1 0x8 DUP3 DUP2 SLOAD DUP2 LT PUSH2 0xCA5 JUMPI PUSH2 0xCA4 PUSH2 0x15BE JUMP JUMPDEST JUMPDEST SWAP1 PUSH0 MSTORE PUSH1 0x20 PUSH0 KECCAK256 SWAP1 PUSH1 0x5 MUL ADD PUSH1 0x2 ADD PUSH0 SWAP1 SLOAD SWAP1 PUSH2 0x100 EXP SWAP1 DIV PUSH20 0xFFFFFFFFFFFFFFFFFFFFFFFFFFFFFFFFFFFFFFFF AND PUSH20 0xFFFFFFFFFFFFFFFFFFFFFFFFFFFFFFFFFFFFFFFF AND SUB ISZERO PUSH2 0xCFD JUMPI DUP1 DUP1 PUSH1 0x1 ADD SWAP2 POP POP PUSH2 0xC70 JUMP JUMPDEST DUP1 SWAP2 POP POP SWAP2 SWAP1 POP JUMP JUMPDEST PUSH7 0x2386F26FC10000 PUSH1 0x8 PUSH2 0xD19 CALLER PUSH2 0xC6A JUMP JUMPDEST DUP2 SLOAD DUP2 LT PUSH2 0xD2A JUMPI PUSH2 0xD29 PUSH2 0x15BE JUMP JUMPDEST JUMPDEST SWAP1 PUSH0 MSTORE PUSH1 0x20 PUSH0 KECCAK256 SWAP1 PUSH1 0x5 MUL ADD PUSH1 0x3 ADD SLOAD LT ISZERO DUP1 PUSH2 0xD4D JUMPI POP PUSH7 0x2386F26FC10000 CALLVALUE EQ JUMPDEST PUSH2 0xD8C JUMPI PUSH1 0x40 MLOAD PUSH32 0x8C379A000000000000000000000000000000000000000000000000000000000 DUP2 MSTORE PUSH1 0x4 ADD PUSH2 0xD83 SWAP1 PUSH2 0x1AB8 JUMP JUMPDEST PUSH1 0x40 MLOAD DUP1 SWAP2 SUB SWAP1 REVERT JUMPDEST PUSH7 0x2386F26FC10000 CALLVALUE SUB PUSH2 0xDB7 JUMPI CALLVALUE PUSH1 0x1 PUSH0 DUP3 DUP3 SLOAD PUSH2 0xDAB SWAP2 SWAP1 PUSH2 0x165F JUMP JUMPDEST SWAP3 POP POP DUP2 SWAP1 SSTORE POP PUSH2 0xE1F JUMP JUMPDEST PUSH7 0x2386F26FC10000 PUSH1 0x8 PUSH2 0xDCA CALLER PUSH2 0xC6A JUMP JUMPDEST DUP2 SLOAD DUP2 LT PUSH2 0xDDB JUMPI PUSH2 0xDDA PUSH2 0x15BE JUMP JUMPDEST JUMPDEST SWAP1 PUSH0 MSTORE PUSH1 0x20 PUSH0 KECCAK256 SWAP1 PUSH1 0x5 MUL ADD PUSH1 0x3 ADD PUSH0 DUP3 DUP3 SLOAD PUSH2 0xDF8 SWAP2 SWAP1 PUSH2 0x170A JUMP JUMPDEST SWAP3 POP POP DUP2 SWAP1 SSTORE POP PUSH7 0x2386F26FC10000 PUSH1 0x1 PUSH0 DUP3 DUP3 SLOAD PUSH2 0xE17 SWAP2 SWAP1 PUSH2 0x165F JUMP JUMPDEST SWAP3 POP POP DUP2 SWAP1 SSTORE POP JUMPDEST PUSH2 0xE52 PUSH1 0x8 PUSH2 0xE2D CALLER PUSH2 0xC6A JUMP JUMPDEST DUP2 SLOAD DUP2 LT PUSH2 0xE3E JUMPI PUSH2 0xE3D PUSH2 0x15BE JUMP JUMPDEST JUMPDEST SWAP1 PUSH0 MSTORE PUSH1 0x20 PUSH0 KECCAK256 SWAP1 PUSH1 0x5 MUL ADD PUSH0 ADD SLOAD PUSH2 0x223 JUMP JUMPDEST JUMP JUMPDEST CALLVALUE PUSH1 0x8 PUSH2 0xE60 CALLER PUSH2 0xC6A JUMP JUMPDEST DUP2 SLOAD DUP2 LT PUSH2 0xE71 JUMPI PUSH2 0xE70 PUSH2 0x15BE JUMP JUMPDEST JUMPDEST SWAP1 PUSH0 MSTORE PUSH1 0x20 PUSH0 KECCAK256 SWAP1 PUSH1 0x5 MUL ADD PUSH1 0x3 ADD PUSH0 DUP3 DUP3 SLOAD PUSH2 0xE8E SWAP2 SWAP1 PUSH2 0x165F JUMP JUMPDEST SWAP3 POP POP DUP2 SWAP1 SSTORE POP JUMP JUMPDEST PUSH2 0xE9F PUSH2 0x10A7 JUMP JUMPDEST PUSH1 0x8 DUP3 DUP2 SLOAD DUP2 LT PUSH2 0xEB3 JUMPI PUSH2 0xEB2 PUSH2 0x15BE JUMP JUMPDEST JUMPDEST SWAP1 PUSH0 MSTORE PUSH1 0x20 PUSH0 KECCAK256 SWAP1 PUSH1 0x5 MUL ADD PUSH1 0x40 MLOAD DUP1 PUSH1 0xA0 ADD PUSH1 0x40 MSTORE SWAP1 DUP2 PUSH0 DUP3 ADD SLOAD DUP2 MSTORE PUSH1 0x20 ADD PUSH1 0x1 DUP3 ADD DUP1 SLOAD PUSH2 0xEE3 SWAP1 PUSH2 0x176A JUMP JUMPDEST DUP1 PUSH1 0x1F ADD PUSH1 0x20 DUP1 SWAP2 DIV MUL PUSH1 0x20 ADD PUSH1 0x40 MLOAD SWAP1 DUP2 ADD PUSH1 0x40 MSTORE DUP1 SWAP3 SWAP2 SWAP1 DUP2 DUP2 MSTORE PUSH1 0x20 ADD DUP3 DUP1 SLOAD PUSH2 0xF0F SWAP1 PUSH2 0x176A JUMP JUMPDEST DUP1 ISZERO PUSH2 0xF5A JUMPI DUP1 PUSH1 0x1F LT PUSH2 0xF31 JUMPI PUSH2 0x100 DUP1 DUP4 SLOAD DIV MUL DUP4 MSTORE SWAP2 PUSH1 0x20 ADD SWAP2 PUSH2 0xF5A JUMP JUMPDEST DUP3 ADD SWAP2 SWAP1 PUSH0 MSTORE PUSH1 0x20 PUSH0 KECCAK256 SWAP1 JUMPDEST DUP2 SLOAD DUP2 MSTORE SWAP1 PUSH1 0x1 ADD SWAP1 PUSH1 0x20 ADD DUP1 DUP4 GT PUSH2 0xF3D JUMPI DUP3 SWAP1 SUB PUSH1 0x1F AND DUP3 ADD SWAP2 JUMPDEST POP POP POP POP POP DUP2 MSTORE PUSH1 0x20 ADD PUSH1 0x2 DUP3 ADD PUSH0 SWAP1 SLOAD SWAP1 PUSH2 0x100 EXP SWAP1 DIV PUSH20 0xFFFFFFFFFFFFFFFFFFFFFFFFFFFFFFFFFFFFFFFF AND PUSH20 0xFFFFFFFFFFFFFFFFFFFFFFFFFFFFFFFFFFFFFFFF AND PUSH20 0xFFFFFFFFFFFFFFFFFFFFFFFFFFFFFFFFFFFFFFFF AND DUP2 MSTORE PUSH1 0x20 ADD PUSH1 0x3 DUP3 ADD SLOAD DUP2 MSTORE PUSH1 0x20 ADD PUSH1 0x4 DUP3 ADD SLOAD DUP2 MSTORE POP POP SWAP1 POP SWAP2 SWAP1 POP JUMP JUMPDEST PUSH0 DUP1 PUSH0 SWAP1 POP JUMPDEST PUSH1 0x2 SLOAD DUP2 LT ISZERO PUSH2 0x1066 JUMPI CALLER PUSH20 0xFFFFFFFFFFFFFFFFFFFFFFFFFFFFFFFFFFFFFFFF AND PUSH1 0x8 DUP3 DUP2 SLOAD DUP2 LT PUSH2 0x100E JUMPI PUSH2 0x100D PUSH2 0x15BE JUMP JUMPDEST JUMPDEST SWAP1 PUSH0 MSTORE PUSH1 0x20 PUSH0 KECCAK256 SWAP1 PUSH1 0x5 MUL ADD PUSH1 0x2 ADD PUSH0 SWAP1 SLOAD SWAP1 PUSH2 0x100 EXP SWAP1 DIV PUSH20 0xFFFFFFFFFFFFFFFFFFFFFFFFFFFFFFFFFFFFFFFF AND PUSH20 0xFFFFFFFFFFFFFFFFFFFFFFFFFFFFFFFFFFFFFFFF AND SUB ISZERO PUSH2 0x1066 JUMPI DUP1 DUP1 PUSH1 0x1 ADD SWAP2 POP POP PUSH2 0xFD9 JUMP JUMPDEST DUP1 SWAP2 POP POP SWAP1 JUMP JUMPDEST POP PUSH0 DUP2 SSTORE PUSH1 0x1 ADD PUSH0 DUP2 SSTORE PUSH1 0x1 ADD PUSH0 DUP2 SSTORE PUSH1 0x1 ADD PUSH0 SWAP1 SSTORE JUMP JUMPDEST PUSH1 0x40 MLOAD DUP1 PUSH1 0x80 ADD PUSH1 0x40 MSTORE DUP1 PUSH1 0x4 SWAP1 PUSH1 0x20 DUP3 MUL DUP1 CALLDATASIZE DUP4 CALLDATACOPY DUP1 DUP3 ADD SWAP2 POP POP SWAP1 POP POP SWAP1 JUMP JUMPDEST PUSH1 0x40 MLOAD DUP1 PUSH1 0xA0 ADD PUSH1 0x40 MSTORE DUP1 PUSH0 DUP2 MSTORE PUSH1 0x20 ADD PUSH1 0x60 DUP2 MSTORE PUSH1 0x20 ADD PUSH0 PUSH20 0xFFFFFFFFFFFFFFFFFFFFFFFFFFFFFFFFFFFFFFFF AND DUP2 MSTORE PUSH1 0x20 ADD PUSH0 DUP2 MSTORE PUSH1 0x20 ADD PUSH0 DUP2 MSTORE POP SWAP1 JUMP JUMPDEST PUSH0 PUSH1 0x40 MLOAD SWAP1 POP SWAP1 JUMP JUMPDEST PUSH0 DUP1 REVERT JUMPDEST PUSH0 DUP1 REVERT JUMPDEST PUSH0 DUP2 SWAP1 POP SWAP2 SWAP1 POP JUMP JUMPDEST PUSH2 0x110B DUP2 PUSH2 0x10F9 JUMP JUMPDEST DUP2 EQ PUSH2 0x1115 JUMPI PUSH0 DUP1 REVERT JUMPDEST POP JUMP JUMPDEST PUSH0 DUP2 CALLDATALOAD SWAP1 POP PUSH2 0x1126 DUP2 PUSH2 0x1102 JUMP JUMPDEST SWAP3 SWAP2 POP POP JUMP JUMPDEST PUSH0 PUSH1 0x20 DUP3 DUP5 SUB SLT ISZERO PUSH2 0x1141 JUMPI PUSH2 0x1140 PUSH2 0x10F1 JUMP JUMPDEST JUMPDEST PUSH0 PUSH2 0x114E DUP5 DUP3 DUP6 ADD PUSH2 0x1118 JUMP JUMPDEST SWAP2 POP POP SWAP3 SWAP2 POP POP JUMP JUMPDEST PUSH0 DUP1 REVERT JUMPDEST PUSH0 DUP1 REVERT JUMPDEST PUSH0 PUSH1 0x1F NOT PUSH1 0x1F DUP4 ADD AND SWAP1 POP SWAP2 SWAP1 POP JUMP JUMPDEST PUSH32 0x4E487B7100000000000000000000000000000000000000000000000000000000 PUSH0 MSTORE PUSH1 0x41 PUSH1 0x4 MSTORE PUSH1 0x24 PUSH0 REVERT JUMPDEST PUSH2 0x11A5 DUP3 PUSH2 0x115F JUMP JUMPDEST DUP2 ADD DUP2 DUP2 LT PUSH8 0xFFFFFFFFFFFFFFFF DUP3 GT OR ISZERO PUSH2 0x11C4 JUMPI PUSH2 0x11C3 PUSH2 0x116F JUMP JUMPDEST JUMPDEST DUP1 PUSH1 0x40 MSTORE POP POP POP JUMP JUMPDEST PUSH0 PUSH2 0x11D6 PUSH2 0x10E8 JUMP JUMPDEST SWAP1 POP PUSH2 0x11E2 DUP3 DUP3 PUSH2 0x119C JUMP JUMPDEST SWAP2 SWAP1 POP JUMP JUMPDEST PUSH0 PUSH8 0xFFFFFFFFFFFFFFFF DUP3 GT ISZERO PUSH2 0x1201 JUMPI PUSH2 0x1200 PUSH2 0x116F JUMP JUMPDEST JUMPDEST PUSH2 0x120A DUP3 PUSH2 0x115F JUMP JUMPDEST SWAP1 POP PUSH1 0x20 DUP2 ADD SWAP1 POP SWAP2 SWAP1 POP JUMP JUMPDEST DUP3 DUP2 DUP4 CALLDATACOPY PUSH0 DUP4 DUP4 ADD MSTORE POP POP POP JUMP JUMPDEST PUSH0 PUSH2 0x1237 PUSH2 0x1232 DUP5 PUSH2 0x11E7 JUMP JUMPDEST PUSH2 0x11CD JUMP JUMPDEST SWAP1 POP DUP3 DUP2 MSTORE PUSH1 0x20 DUP2 ADD DUP5 DUP5 DUP5 ADD GT ISZERO PUSH2 0x1253 JUMPI PUSH2 0x1252 PUSH2 0x115B JUMP JUMPDEST JUMPDEST PUSH2 0x125E DUP5 DUP3 DUP6 PUSH2 0x1217 JUMP JUMPDEST POP SWAP4 SWAP3 POP POP POP JUMP JUMPDEST PUSH0 DUP3 PUSH1 0x1F DUP4 ADD SLT PUSH2 0x127A JUMPI PUSH2 0x1279 PUSH2 0x1157 JUMP JUMPDEST JUMPDEST DUP2 CALLDATALOAD PUSH2 0x128A DUP5 DUP3 PUSH1 0x20 DUP7 ADD PUSH2 0x1225 JUMP JUMPDEST SWAP2 POP POP SWAP3 SWAP2 POP POP JUMP JUMPDEST PUSH0 PUSH1 0x20 DUP3 DUP5 SUB SLT ISZERO PUSH2 0x12A8 JUMPI PUSH2 0x12A7 PUSH2 0x10F1 JUMP JUMPDEST JUMPDEST PUSH0 DUP3 ADD CALLDATALOAD PUSH8 0xFFFFFFFFFFFFFFFF DUP2 GT ISZERO PUSH2 0x12C5 JUMPI PUSH2 0x12C4 PUSH2 0x10F5 JUMP JUMPDEST JUMPDEST PUSH2 0x12D1 DUP5 DUP3 DUP6 ADD PUSH2 0x1266 JUMP JUMPDEST SWAP2 POP POP SWAP3 SWAP2 POP POP JUMP JUMPDEST PUSH0 PUSH1 0x4 SWAP1 POP SWAP2 SWAP1 POP JUMP JUMPDEST PUSH0 DUP2 SWAP1 POP SWAP3 SWAP2 POP POP JUMP JUMPDEST PUSH0 DUP2 SWAP1 POP SWAP2 SWAP1 POP JUMP JUMPDEST PUSH2 0x1300 DUP2 PUSH2 0x10F9 JUMP JUMPDEST DUP3 MSTORE POP POP JUMP JUMPDEST PUSH0 PUSH2 0x1311 DUP4 DUP4 PUSH2 0x12F7 JUMP JUMPDEST PUSH1 0x20 DUP4 ADD SWAP1 POP SWAP3 SWAP2 POP POP JUMP JUMPDEST PUSH0 PUSH1 0x20 DUP3 ADD SWAP1 POP SWAP2 SWAP1 POP JUMP JUMPDEST PUSH2 0x1332 DUP2 PUSH2 0x12DA JUMP JUMPDEST PUSH2 0x133C DUP2 DUP5 PUSH2 0x12E4 JUMP JUMPDEST SWAP3 POP PUSH2 0x1347 DUP3 PUSH2 0x12EE JUMP JUMPDEST DUP1 PUSH0 JUMPDEST DUP4 DUP2 LT ISZERO PUSH2 0x1377 JUMPI DUP2 MLOAD PUSH2 0x135E DUP8 DUP3 PUSH2 0x1306 JUMP JUMPDEST SWAP7 POP PUSH2 0x1369 DUP4 PUSH2 0x131D JUMP JUMPDEST SWAP3 POP POP PUSH1 0x1 DUP2 ADD SWAP1 POP PUSH2 0x134A JUMP JUMPDEST POP POP POP POP POP POP JUMP JUMPDEST PUSH0 PUSH1 0x80 DUP3 ADD SWAP1 POP PUSH2 0x1392 PUSH0 DUP4 ADD DUP5 PUSH2 0x1329 JUMP JUMPDEST SWAP3 SWAP2 POP POP JUMP JUMPDEST PUSH0 PUSH20 0xFFFFFFFFFFFFFFFFFFFFFFFFFFFFFFFFFFFFFFFF DUP3 AND SWAP1 POP SWAP2 SWAP1 POP JUMP JUMPDEST PUSH0 PUSH2 0x13C1 DUP3 PUSH2 0x1398 JUMP JUMPDEST SWAP1 POP SWAP2 SWAP1 POP JUMP JUMPDEST PUSH2 0x13D1 DUP2 PUSH2 0x13B7 JUMP JUMPDEST DUP2 EQ PUSH2 0x13DB JUMPI PUSH0 DUP1 REVERT JUMPDEST POP JUMP JUMPDEST PUSH0 DUP2 CALLDATALOAD SWAP1 POP PUSH2 0x13EC DUP2 PUSH2 0x13C8 JUMP JUMPDEST SWAP3 SWAP2 POP POP JUMP JUMPDEST PUSH0 PUSH1 0x20 DUP3 DUP5 SUB SLT ISZERO PUSH2 0x1407 JUMPI PUSH2 0x1406 PUSH2 0x10F1 JUMP JUMPDEST JUMPDEST PUSH0 PUSH2 0x1414 DUP5 DUP3 DUP6 ADD PUSH2 0x13DE JUMP JUMPDEST SWAP2 POP POP SWAP3 SWAP2 POP POP JUMP JUMPDEST PUSH2 0x1426 DUP2 PUSH2 0x10F9 JUMP JUMPDEST DUP3 MSTORE POP POP JUMP JUMPDEST PUSH0 PUSH1 0x20 DUP3 ADD SWAP1 POP PUSH2 0x143F PUSH0 DUP4 ADD DUP5 PUSH2 0x141D JUMP JUMPDEST SWAP3 SWAP2 POP POP JUMP JUMPDEST PUSH0 DUP2 MLOAD SWAP1 POP SWAP2 SWAP1 POP JUMP JUMPDEST PUSH0 DUP3 DUP3 MSTORE PUSH1 0x20 DUP3 ADD SWAP1 POP SWAP3 SWAP2 POP POP JUMP JUMPDEST PUSH0 JUMPDEST DUP4 DUP2 LT ISZERO PUSH2 0x147C JUMPI DUP1 DUP3 ADD MLOAD DUP2 DUP5 ADD MSTORE PUSH1 0x20 DUP2 ADD SWAP1 POP PUSH2 0x1461 JUMP JUMPDEST PUSH0 DUP5 DUP5 ADD MSTORE POP POP POP POP JUMP JUMPDEST PUSH0 PUSH2 0x1491 DUP3 PUSH2 0x1445 JUMP JUMPDEST PUSH2 0x149B DUP2 DUP6 PUSH2 0x144F JUMP JUMPDEST SWAP4 POP PUSH2 0x14AB DUP2 DUP6 PUSH1 0x20 DUP7 ADD PUSH2 0x145F JUMP JUMPDEST PUSH2 0x14B4 DUP2 PUSH2 0x115F JUMP JUMPDEST DUP5 ADD SWAP2 POP POP SWAP3 SWAP2 POP POP JUMP JUMPDEST PUSH2 0x14C8 DUP2 PUSH2 0x13B7 JUMP JUMPDEST DUP3 MSTORE POP POP JUMP JUMPDEST PUSH0 PUSH1 0xA0 DUP4 ADD PUSH0 DUP4 ADD MLOAD PUSH2 0x14E3 PUSH0 DUP7 ADD DUP3 PUSH2 0x12F7 JUMP JUMPDEST POP PUSH1 0x20 DUP4 ADD MLOAD DUP5 DUP3 SUB PUSH1 0x20 DUP7 ADD MSTORE PUSH2 0x14FB DUP3 DUP3 PUSH2 0x1487 JUMP JUMPDEST SWAP2 POP POP PUSH1 0x40 DUP4 ADD MLOAD PUSH2 0x1510 PUSH1 0x40 DUP7 ADD DUP3 PUSH2 0x14BF JUMP JUMPDEST POP PUSH1 0x60 DUP4 ADD MLOAD PUSH2 0x1523 PUSH1 0x60 DUP7 ADD DUP3 PUSH2 0x12F7 JUMP JUMPDEST POP PUSH1 0x80 DUP4 ADD MLOAD PUSH2 0x1536 PUSH1 0x80 DUP7 ADD DUP3 PUSH2 0x12F7 JUMP JUMPDEST POP DUP1 SWAP2 POP POP SWAP3 SWAP2 POP POP JUMP JUMPDEST PUSH0 PUSH1 0x20 DUP3 ADD SWAP1 POP DUP2 DUP2 SUB PUSH0 DUP4 ADD MSTORE PUSH2 0x1559 DUP2 DUP5 PUSH2 0x14CE JUMP JUMPDEST SWAP1 POP SWAP3 SWAP2 POP POP JUMP JUMPDEST PUSH32 0x4E487B7100000000000000000000000000000000000000000000000000000000 PUSH0 MSTORE PUSH1 0x12 PUSH1 0x4 MSTORE PUSH1 0x24 PUSH0 REVERT JUMPDEST PUSH0 PUSH2 0x1598 DUP3 PUSH2 0x10F9 JUMP JUMPDEST SWAP2 POP PUSH2 0x15A3 DUP4 PUSH2 0x10F9 JUMP JUMPDEST SWAP3 POP DUP3 PUSH2 0x15B3 JUMPI PUSH2 0x15B2 PUSH2 0x1561 JUMP JUMPDEST JUMPDEST DUP3 DUP3 MOD SWAP1 POP SWAP3 SWAP2 POP POP JUMP JUMPDEST PUSH32 0x4E487B7100000000000000000000000000000000000000000000000000000000 PUSH0 MSTORE PUSH1 0x32 PUSH1 0x4 MSTORE PUSH1 0x24 PUSH0 REVERT JUMPDEST PUSH32 0x4E487B7100000000000000000000000000000000000000000000000000000000 PUSH0 MSTORE PUSH1 0x11 PUSH1 0x4 MSTORE PUSH1 0x24 PUSH0 REVERT JUMPDEST PUSH0 PUSH2 0x1622 DUP3 PUSH2 0x10F9 JUMP JUMPDEST SWAP2 POP PUSH32 0xFFFFFFFFFFFFFFFFFFFFFFFFFFFFFFFFFFFFFFFFFFFFFFFFFFFFFFFFFFFFFFFF DUP3 SUB PUSH2 0x1654 JUMPI PUSH2 0x1653 PUSH2 0x15EB JUMP JUMPDEST JUMPDEST PUSH1 0x1 DUP3 ADD SWAP1 POP SWAP2 SWAP1 POP JUMP JUMPDEST PUSH0 PUSH2 0x1669 DUP3 PUSH2 0x10F9 JUMP JUMPDEST SWAP2 POP PUSH2 0x1674 DUP4 PUSH2 0x10F9 JUMP JUMPDEST SWAP3 POP DUP3 DUP3 ADD SWAP1 POP DUP1 DUP3 GT ISZERO PUSH2 0x168C JUMPI PUSH2 0x168B PUSH2 0x15EB JUMP JUMPDEST JUMPDEST SWAP3 SWAP2 POP POP JUMP JUMPDEST PUSH0 DUP3 DUP3 MSTORE PUSH1 0x20 DUP3 ADD SWAP1 POP SWAP3 SWAP2 POP POP JUMP JUMPDEST PUSH32 0x696E656666696369656E742053636F7265000000000000000000000000000000 PUSH0 DUP3 ADD MSTORE POP JUMP JUMPDEST PUSH0 PUSH2 0x16D6 PUSH1 0x11 DUP4 PUSH2 0x1692 JUMP JUMPDEST SWAP2 POP PUSH2 0x16E1 DUP3 PUSH2 0x16A2 JUMP JUMPDEST PUSH1 0x20 DUP3 ADD SWAP1 POP SWAP2 SWAP1 POP JUMP JUMPDEST PUSH0 PUSH1 0x20 DUP3 ADD SWAP1 POP DUP2 DUP2 SUB PUSH0 DUP4 ADD MSTORE PUSH2 0x1703 DUP2 PUSH2 0x16CA JUMP JUMPDEST SWAP1 POP SWAP2 SWAP1 POP JUMP JUMPDEST PUSH0 PUSH2 0x1714 DUP3 PUSH2 0x10F9 JUMP JUMPDEST SWAP2 POP PUSH2 0x171F DUP4 PUSH2 0x10F9 JUMP JUMPDEST SWAP3 POP DUP3 DUP3 SUB SWAP1 POP DUP2 DUP2 GT ISZERO PUSH2 0x1737 JUMPI PUSH2 0x1736 PUSH2 0x15EB JUMP JUMPDEST JUMPDEST SWAP3 SWAP2 POP POP JUMP JUMPDEST PUSH32 0x4E487B7100000000000000000000000000000000000000000000000000000000 PUSH0 MSTORE PUSH1 0x22 PUSH1 0x4 MSTORE PUSH1 0x24 PUSH0 REVERT JUMPDEST PUSH0 PUSH1 0x2 DUP3 DIV SWAP1 POP PUSH1 0x1 DUP3 AND DUP1 PUSH2 0x1781 JUMPI PUSH1 0x7F DUP3 AND SWAP2 POP JUMPDEST PUSH1 0x20 DUP3 LT DUP2 SUB PUSH2 0x1794 JUMPI PUSH2 0x1793 PUSH2 0x173D JUMP JUMPDEST JUMPDEST POP SWAP2 SWAP1 POP JUMP JUMPDEST PUSH0 DUP2 SWAP1 POP DUP2 PUSH0 MSTORE PUSH1 0x20 PUSH0 KECCAK256 SWAP1 POP SWAP2 SWAP1 POP JUMP JUMPDEST PUSH0 PUSH1 0x20 PUSH1 0x1F DUP4 ADD DIV SWAP1 POP SWAP2 SWAP1 POP JUMP JUMPDEST PUSH0 DUP3 DUP3 SHL SWAP1 POP SWAP3 SWAP2 POP POP JUMP JUMPDEST PUSH0 PUSH1 0x8 DUP4 MUL PUSH2 0x17F6 PUSH32 0xFFFFFFFFFFFFFFFFFFFFFFFFFFFFFFFFFFFFFFFFFFFFFFFFFFFFFFFFFFFFFFFF DUP3 PUSH2 0x17BB JUMP JUMPDEST PUSH2 0x1800 DUP7 DUP4 PUSH2 0x17BB JUMP JUMPDEST SWAP6 POP DUP1 NOT DUP5 AND SWAP4 POP DUP1 DUP7 AND DUP5 OR SWAP3 POP POP POP SWAP4 SWAP3 POP POP POP JUMP JUMPDEST PUSH0 DUP2 SWAP1 POP SWAP2 SWAP1 POP JUMP JUMPDEST PUSH0 PUSH2 0x183B PUSH2 0x1836 PUSH2 0x1831 DUP5 PUSH2 0x10F9 JUMP JUMPDEST PUSH2 0x1818 JUMP JUMPDEST PUSH2 0x10F9 JUMP JUMPDEST SWAP1 POP SWAP2 SWAP1 POP JUMP JUMPDEST PUSH0 DUP2 SWAP1 POP SWAP2 SWAP1 POP JUMP JUMPDEST PUSH2 0x1854 DUP4 PUSH2 0x1821 JUMP JUMPDEST PUSH2 0x1868 PUSH2 0x1860 DUP3 PUSH2 0x1842 JUMP JUMPDEST DUP5 DUP5 SLOAD PUSH2 0x17C7 JUMP JUMPDEST DUP3 SSTORE POP POP POP POP JUMP JUMPDEST PUSH0 SWAP1 JUMP JUMPDEST PUSH2 0x187C PUSH2 0x1870 JUMP JUMPDEST PUSH2 0x1887 DUP2 DUP5 DUP5 PUSH2 0x184B JUMP JUMPDEST POP POP POP JUMP JUMPDEST JUMPDEST DUP2 DUP2 LT ISZERO PUSH2 0x18AA JUMPI PUSH2 0x189F PUSH0 DUP3 PUSH2 0x1874 JUMP JUMPDEST PUSH1 0x1 DUP2 ADD SWAP1 POP PUSH2 0x188D JUMP JUMPDEST POP POP JUMP JUMPDEST PUSH1 0x1F DUP3 GT ISZERO PUSH2 0x18EF JUMPI PUSH2 0x18C0 DUP2 PUSH2 0x179A JUMP JUMPDEST PUSH2 0x18C9 DUP5 PUSH2 0x17AC JUMP JUMPDEST DUP2 ADD PUSH1 0x20 DUP6 LT ISZERO PUSH2 0x18D8 JUMPI DUP2 SWAP1 POP JUMPDEST PUSH2 0x18EC PUSH2 0x18E4 DUP6 PUSH2 0x17AC JUMP JUMPDEST DUP4 ADD DUP3 PUSH2 0x188C JUMP JUMPDEST POP POP JUMPDEST POP POP POP JUMP JUMPDEST PUSH0 DUP3 DUP3 SHR SWAP1 POP SWAP3 SWAP2 POP POP JUMP JUMPDEST PUSH0 PUSH2 0x190F PUSH0 NOT DUP5 PUSH1 0x8 MUL PUSH2 0x18F4 JUMP JUMPDEST NOT DUP1 DUP4 AND SWAP2 POP POP SWAP3 SWAP2 POP POP JUMP JUMPDEST PUSH0 PUSH2 0x1927 DUP4 DUP4 PUSH2 0x1900 JUMP JUMPDEST SWAP2 POP DUP3 PUSH1 0x2 MUL DUP3 OR SWAP1 POP SWAP3 SWAP2 POP POP JUMP JUMPDEST PUSH2 0x1940 DUP3 PUSH2 0x1445 JUMP JUMPDEST PUSH8 0xFFFFFFFFFFFFFFFF DUP2 GT ISZERO PUSH2 0x1959 JUMPI PUSH2 0x1958 PUSH2 0x116F JUMP JUMPDEST JUMPDEST PUSH2 0x1963 DUP3 SLOAD PUSH2 0x176A JUMP JUMPDEST PUSH2 0x196E DUP3 DUP3 DUP6 PUSH2 0x18AE JUMP JUMPDEST PUSH0 PUSH1 0x20 SWAP1 POP PUSH1 0x1F DUP4 GT PUSH1 0x1 DUP2 EQ PUSH2 0x199F JUMPI PUSH0 DUP5 ISZERO PUSH2 0x198D JUMPI DUP3 DUP8 ADD MLOAD SWAP1 POP JUMPDEST PUSH2 0x1997 DUP6 DUP3 PUSH2 0x191C JUMP JUMPDEST DUP7 SSTORE POP PUSH2 0x19FE JUMP JUMPDEST PUSH1 0x1F NOT DUP5 AND PUSH2 0x19AD DUP7 PUSH2 0x179A JUMP JUMPDEST PUSH0 JUMPDEST DUP3 DUP2 LT ISZERO PUSH2 0x19D4 JUMPI DUP5 DUP10 ADD MLOAD DUP3 SSTORE PUSH1 0x1 DUP3 ADD SWAP2 POP PUSH1 0x20 DUP6 ADD SWAP5 POP PUSH1 0x20 DUP2 ADD SWAP1 POP PUSH2 0x19AF JUMP JUMPDEST DUP7 DUP4 LT ISZERO PUSH2 0x19F1 JUMPI DUP5 DUP10 ADD MLOAD PUSH2 0x19ED PUSH1 0x1F DUP10 AND DUP3 PUSH2 0x1900 JUMP JUMPDEST DUP4 SSTORE POP JUMPDEST PUSH1 0x1 PUSH1 0x2 DUP9 MUL ADD DUP9 SSTORE POP POP POP JUMPDEST POP POP POP POP POP POP JUMP JUMPDEST PUSH32 0x7265766572740000000000000000000000000000000000000000000000000000 PUSH0 DUP3 ADD MSTORE POP JUMP JUMPDEST PUSH0 PUSH2 0x1A3A PUSH1 0x6 DUP4 PUSH2 0x1692 JUMP JUMPDEST SWAP2 POP PUSH2 0x1A45 DUP3 PUSH2 0x1A06 JUMP JUMPDEST PUSH1 0x20 DUP3 ADD SWAP1 POP SWAP2 SWAP1 POP JUMP JUMPDEST PUSH0 PUSH1 0x20 DUP3 ADD SWAP1 POP DUP2 DUP2 SUB PUSH0 DUP4 ADD MSTORE PUSH2 0x1A67 DUP2 PUSH2 0x1A2E JUMP JUMPDEST SWAP1 POP SWAP2 SWAP1 POP JUMP JUMPDEST PUSH32 0x696E656666696369656E74204554480000000000000000000000000000000000 PUSH0 DUP3 ADD MSTORE POP JUMP JUMPDEST PUSH0 PUSH2 0x1AA2 PUSH1 0xF DUP4 PUSH2 0x1692 JUMP JUMPDEST SWAP2 POP PUSH2 0x1AAD DUP3 PUSH2 0x1A6E JUMP JUMPDEST PUSH1 0x20 DUP3 ADD SWAP1 POP SWAP2 SWAP1 POP JUMP JUMPDEST PUSH0 PUSH1 0x20 DUP3 ADD SWAP1 POP DUP2 DUP2 SUB PUSH0 DUP4 ADD MSTORE PUSH2 0x1ACF DUP2 PUSH2 0x1A96 JUMP JUMPDEST SWAP1 POP SWAP2 SWAP1 POP JUMP INVALID LOG2 PUSH5 0x6970667358 0x22 SLT KECCAK256 PUSH7 0x7426A0EB7C8E27 0xDA PUSH32 0x14D8143112BA65F919B294A8FD5CB21BE389D85326D864736F6C634300081600 CALLER "
				},
				"gasEstimates": {
					"creation": {
						"codeDepositCost": "1384800",
						"executionCost": "40746",
						"totalCost": "1425546"
					},
					"external": {
						"deposit()": "infinite",
						"findUserbyAddress()": "infinite",
						"findUserbyAddress(address)": "infinite",
						"getReward()": "infinite",
						"getSeat(uint256)": "infinite",
						"getSeats()": "infinite",
						"getUserInfo(uint256)": "infinite",
						"join(string)": "infinite",
						"showSeats()": "infinite",
						"userSample()": "infinite",
						"withdrawOwner(uint256)": "infinite"
					}
				},
				"methodIdentifiers": {
					"deposit()": "d0e30db0",
					"findUserbyAddress()": "e3ecbd50",
					"findUserbyAddress(address)": "a6c6fe28",
					"getReward()": "3d18b912",
					"getSeat(uint256)": "17b58e8c",
					"getSeats()": "a997c66a",
					"getUserInfo(uint256)": "d379dadf",
					"join(string)": "6a786b07",
					"showSeats()": "6a9e7c6c",
					"userSample()": "6e27f896",
					"withdrawOwner(uint256)": "6ef98b21"
				}
			},
			"storageLayout": {
				"storage": [
					{
						"astId": 3,
						"contract": "Exam_20240102.sol:SimpleGame",
						"label": "owner",
						"offset": 0,
						"slot": "0",
						"type": "t_address_payable"
					},
					{
						"astId": 5,
						"contract": "Exam_20240102.sol:SimpleGame",
						"label": "balance",
						"offset": 0,
						"slot": "1",
						"type": "t_uint256"
					},
					{
						"astId": 7,
						"contract": "Exam_20240102.sol:SimpleGame",
						"label": "userIndex",
						"offset": 0,
						"slot": "2",
						"type": "t_uint256"
					},
					{
						"astId": 11,
						"contract": "Exam_20240102.sol:SimpleGame",
						"label": "seats",
						"offset": 0,
						"slot": "3",
						"type": "t_array(t_uint256)4_storage"
					},
					{
						"astId": 13,
						"contract": "Exam_20240102.sol:SimpleGame",
						"label": "seatIndex",
						"offset": 0,
						"slot": "7",
						"type": "t_uint256"
					},
					{
						"astId": 28,
						"contract": "Exam_20240102.sol:SimpleGame",
						"label": "userList",
						"offset": 0,
						"slot": "8",
						"type": "t_array(t_struct(User)24_storage)dyn_storage"
					}
				],
				"types": {
					"t_address": {
						"encoding": "inplace",
						"label": "address",
						"numberOfBytes": "20"
					},
					"t_address_payable": {
						"encoding": "inplace",
						"label": "address payable",
						"numberOfBytes": "20"
					},
					"t_array(t_struct(User)24_storage)dyn_storage": {
						"base": "t_struct(User)24_storage",
						"encoding": "dynamic_array",
						"label": "struct SimpleGame.User[]",
						"numberOfBytes": "32"
					},
					"t_array(t_uint256)4_storage": {
						"base": "t_uint256",
						"encoding": "inplace",
						"label": "uint256[4]",
						"numberOfBytes": "128"
					},
					"t_string_storage": {
						"encoding": "bytes",
						"label": "string",
						"numberOfBytes": "32"
					},
					"t_struct(User)24_storage": {
						"encoding": "inplace",
						"label": "struct SimpleGame.User",
						"members": [
							{
								"astId": 15,
								"contract": "Exam_20240102.sol:SimpleGame",
								"label": "index",
								"offset": 0,
								"slot": "0",
								"type": "t_uint256"
							},
							{
								"astId": 17,
								"contract": "Exam_20240102.sol:SimpleGame",
								"label": "name",
								"offset": 0,
								"slot": "1",
								"type": "t_string_storage"
							},
							{
								"astId": 19,
								"contract": "Exam_20240102.sol:SimpleGame",
								"label": "account",
								"offset": 0,
								"slot": "2",
								"type": "t_address"
							},
							{
								"astId": 21,
								"contract": "Exam_20240102.sol:SimpleGame",
								"label": "deposit",
								"offset": 0,
								"slot": "3",
								"type": "t_uint256"
							},
							{
								"astId": 23,
								"contract": "Exam_20240102.sol:SimpleGame",
								"label": "score",
								"offset": 0,
								"slot": "4",
								"type": "t_uint256"
							}
						],
						"numberOfBytes": "160"
					},
					"t_uint256": {
						"encoding": "inplace",
						"label": "uint256",
						"numberOfBytes": "32"
					}
				}
			},
			"userdoc": {
				"kind": "user",
				"methods": {},
				"version": 1
			}
		}
	}
}