{
	"Exam_20231228.sol": {
		"Humby": {
			"abi": [
				{
					"inputs": [],
					"stateMutability": "nonpayable",
					"type": "constructor"
				},
				{
					"inputs": [],
					"name": "Accelerator",
					"outputs": [],
					"stateMutability": "nonpayable",
					"type": "function"
				},
				{
					"inputs": [],
					"name": "Break",
					"outputs": [],
					"stateMutability": "nonpayable",
					"type": "function"
				},
				{
					"inputs": [],
					"name": "RechargeGasCard",
					"outputs": [],
					"stateMutability": "nonpayable",
					"type": "function"
				},
				{
					"inputs": [],
					"name": "Refuel",
					"outputs": [
						{
							"internalType": "uint256",
							"name": "",
							"type": "uint256"
						}
					],
					"stateMutability": "payable",
					"type": "function"
				},
				{
					"inputs": [],
					"name": "TurnOff",
					"outputs": [],
					"stateMutability": "nonpayable",
					"type": "function"
				},
				{
					"inputs": [],
					"name": "TurnOn",
					"outputs": [],
					"stateMutability": "nonpayable",
					"type": "function"
				},
				{
					"inputs": [],
					"name": "getCarState",
					"outputs": [
						{
							"internalType": "enum Humby.Status",
							"name": "",
							"type": "uint8"
						},
						{
							"internalType": "uint256",
							"name": "",
							"type": "uint256"
						},
						{
							"internalType": "uint256",
							"name": "",
							"type": "uint256"
						}
					],
					"stateMutability": "view",
					"type": "function"
				},
				{
					"inputs": [
						{
							"internalType": "uint256",
							"name": "_f",
							"type": "uint256"
						}
					],
					"name": "setFuelforTest",
					"outputs": [],
					"stateMutability": "nonpayable",
					"type": "function"
				},
				{
					"inputs": [
						{
							"internalType": "uint256",
							"name": "_v",
							"type": "uint256"
						}
					],
					"name": "setVelocityforTest",
					"outputs": [],
					"stateMutability": "nonpayable",
					"type": "function"
				}
			],
			"devdoc": {
				"kind": "dev",
				"methods": {},
				"version": 1
			},
			"evm": {
				"assembly": "    /* \"Exam_20231228.sol\":460:3721  contract Humby {... */\n  mstore(0x40, 0x80)\n    /* \"Exam_20231228.sol\":930:1150  constructor() {... */\n  callvalue\n  dup1\n  iszero\n  tag_1\n  jumpi\n  0x00\n  dup1\n  revert\ntag_1:\n  pop\n    /* \"Exam_20231228.sol\":967:981  Status.TurnOff */\n  0x02\n    /* \"Exam_20231228.sol\":955:964  carStatus */\n  0x00\n  dup1\n    /* \"Exam_20231228.sol\":955:981  carStatus = Status.TurnOff */\n  0x0100\n  exp\n  dup2\n  sload\n  dup2\n  0xff\n  mul\n  not\n  and\n  swap1\n  dup4\n  0x03\n  dup2\n  gt\n  iszero\n  tag_4\n  jumpi\n  tag_5\n  tag_6\n  jump\t// in\ntag_5:\ntag_4:\n  mul\n  or\n  swap1\n  sstore\n  pop\n    /* \"Exam_20231228.sol\":1006:1007  0 */\n  0x00\n    /* \"Exam_20231228.sol\":992:1003  carVelocity */\n  0x01\n    /* \"Exam_20231228.sol\":992:1007  carVelocity = 0 */\n  dup2\n  swap1\n  sstore\n  pop\n    /* \"Exam_20231228.sol\":1028:1029  0 */\n  0x00\n    /* \"Exam_20231228.sol\":1018:1025  carFuel */\n  0x02\n    /* \"Exam_20231228.sol\":1018:1029  carFuel = 0 */\n  dup2\n  swap1\n  sstore\n  pop\n    /* \"Exam_20231228.sol\":1056:1066  msg.sender */\n  caller\n    /* \"Exam_20231228.sol\":1040:1045  owner */\n  0x03\n  0x00\n    /* \"Exam_20231228.sol\":1040:1067  owner = payable(msg.sender) */\n  0x0100\n  exp\n  dup2\n  sload\n  dup2\n  0xffffffffffffffffffffffffffffffffffffffff\n  mul\n  not\n  and\n  swap1\n  dup4\n  0xffffffffffffffffffffffffffffffffffffffff\n  and\n  mul\n  or\n  swap1\n  sstore\n  pop\n    /* \"Exam_20231228.sol\":1099:1141  0xA5c398700a522D5e41EEDd924dc1CB489EfC096E */\n  0xa5c398700a522d5e41eedd924dc1cb489efc096e\n    /* \"Exam_20231228.sol\":1078:1088  gasStation */\n  0x04\n  0x00\n    /* \"Exam_20231228.sol\":1078:1142  gasStation = address(0xA5c398700a522D5e41EEDd924dc1CB489EfC096E) */\n  0x0100\n  exp\n  dup2\n  sload\n  dup2\n  0xffffffffffffffffffffffffffffffffffffffff\n  mul\n  not\n  and\n  swap1\n  dup4\n  0xffffffffffffffffffffffffffffffffffffffff\n  and\n  mul\n  or\n  swap1\n  sstore\n  pop\n    /* \"Exam_20231228.sol\":460:3721  contract Humby {... */\n  jump(tag_7)\n    /* \"#utility.yul\":7:187   */\ntag_6:\n    /* \"#utility.yul\":55:132   */\n  0x4e487b7100000000000000000000000000000000000000000000000000000000\n    /* \"#utility.yul\":52:53   */\n  0x00\n    /* \"#utility.yul\":45:133   */\n  mstore\n    /* \"#utility.yul\":152:156   */\n  0x21\n    /* \"#utility.yul\":149:150   */\n  0x04\n    /* \"#utility.yul\":142:157   */\n  mstore\n    /* \"#utility.yul\":176:180   */\n  0x24\n    /* \"#utility.yul\":173:174   */\n  0x00\n    /* \"#utility.yul\":166:181   */\n  revert\n    /* \"Exam_20231228.sol\":460:3721  contract Humby {... */\ntag_7:\n  dataSize(sub_0)\n  dup1\n  dataOffset(sub_0)\n  0x00\n  codecopy\n  0x00\n  return\nstop\n\nsub_0: assembly {\n        /* \"Exam_20231228.sol\":460:3721  contract Humby {... */\n      mstore(0x40, 0x80)\n      jumpi(tag_1, lt(calldatasize, 0x04))\n      shr(0xe0, calldataload(0x00))\n      dup1\n      0x92005603\n      gt\n      tag_11\n      jumpi\n      dup1\n      0x92005603\n      eq\n      tag_6\n      jumpi\n      dup1\n      0xbbf75556\n      eq\n      tag_7\n      jumpi\n      dup1\n      0xd93737ca\n      eq\n      tag_8\n      jumpi\n      dup1\n      0xf56df7c6\n      eq\n      tag_9\n      jumpi\n      dup1\n      0xf9ef71b9\n      eq\n      tag_10\n      jumpi\n      jump(tag_1)\n    tag_11:\n      dup1\n      0x2c07549f\n      eq\n      tag_2\n      jumpi\n      dup1\n      0x34435025\n      eq\n      tag_3\n      jumpi\n      dup1\n      0x50e72f61\n      eq\n      tag_4\n      jumpi\n      dup1\n      0x78dda193\n      eq\n      tag_5\n      jumpi\n    tag_1:\n      0x00\n      dup1\n      revert\n        /* \"Exam_20231228.sol\":3674:3718  function RechargeGasCard() public {... */\n    tag_2:\n      callvalue\n      dup1\n      iszero\n      tag_12\n      jumpi\n      0x00\n      dup1\n      revert\n    tag_12:\n      pop\n      tag_13\n      tag_14\n      jump\t// in\n    tag_13:\n      stop\n        /* \"Exam_20231228.sol\":2770:3004  function TurnOn() public {... */\n    tag_3:\n      callvalue\n      dup1\n      iszero\n      tag_15\n      jumpi\n      0x00\n      dup1\n      revert\n    tag_15:\n      pop\n      tag_16\n      tag_17\n      jump\t// in\n    tag_16:\n      stop\n        /* \"Exam_20231228.sol\":2198:2762  function Break() public {... */\n    tag_4:\n      callvalue\n      dup1\n      iszero\n      tag_18\n      jumpi\n      0x00\n      dup1\n      revert\n    tag_18:\n      pop\n      tag_19\n      tag_20\n      jump\t// in\n    tag_19:\n      stop\n        /* \"Exam_20231228.sol\":1324:1447  function getCarState() public view returns (Status, uint, uint) {... */\n    tag_5:\n      callvalue\n      dup1\n      iszero\n      tag_21\n      jumpi\n      0x00\n      dup1\n      revert\n    tag_21:\n      pop\n      tag_22\n      tag_23\n      jump\t// in\n    tag_22:\n      mload(0x40)\n      tag_24\n      swap4\n      swap3\n      swap2\n      swap1\n      tag_25\n      jump\t// in\n    tag_24:\n      mload(0x40)\n      dup1\n      swap2\n      sub\n      swap1\n      return\n        /* \"Exam_20231228.sol\":3012:3351  function TurnOff() public {... */\n    tag_6:\n      callvalue\n      dup1\n      iszero\n      tag_26\n      jumpi\n      0x00\n      dup1\n      revert\n    tag_26:\n      pop\n      tag_27\n      tag_28\n      jump\t// in\n    tag_27:\n      stop\n        /* \"Exam_20231228.sol\":1158:1237  function setVelocityforTest(uint _v) public {... */\n    tag_7:\n      callvalue\n      dup1\n      iszero\n      tag_29\n      jumpi\n      0x00\n      dup1\n      revert\n    tag_29:\n      pop\n      tag_30\n      0x04\n      dup1\n      calldatasize\n      sub\n      dup2\n      add\n      swap1\n      tag_31\n      swap2\n      swap1\n      tag_32\n      jump\t// in\n    tag_31:\n      tag_33\n      jump\t// in\n    tag_30:\n      stop\n        /* \"Exam_20231228.sol\":1245:1316  function setFuelforTest(uint _f) public {... */\n    tag_8:\n      callvalue\n      dup1\n      iszero\n      tag_34\n      jumpi\n      0x00\n      dup1\n      revert\n    tag_34:\n      pop\n      tag_35\n      0x04\n      dup1\n      calldatasize\n      sub\n      dup2\n      add\n      swap1\n      tag_36\n      swap2\n      swap1\n      tag_32\n      jump\t// in\n    tag_36:\n      tag_37\n      jump\t// in\n    tag_35:\n      stop\n        /* \"Exam_20231228.sol\":3359:3666  function Refuel() public payable returns(uint){... */\n    tag_9:\n      tag_38\n      tag_39\n      jump\t// in\n    tag_38:\n      mload(0x40)\n      tag_40\n      swap2\n      swap1\n      tag_41\n      jump\t// in\n    tag_40:\n      mload(0x40)\n      dup1\n      swap2\n      sub\n      swap1\n      return\n        /* \"Exam_20231228.sol\":1455:2190  function Accelerator() public {... */\n    tag_10:\n      callvalue\n      dup1\n      iszero\n      tag_42\n      jumpi\n      0x00\n      dup1\n      revert\n    tag_42:\n      pop\n      tag_43\n      tag_44\n      jump\t// in\n    tag_43:\n      stop\n        /* \"Exam_20231228.sol\":3674:3718  function RechargeGasCard() public {... */\n    tag_14:\n      jump\t// out\n        /* \"Exam_20231228.sol\":2770:3004  function TurnOn() public {... */\n    tag_17:\n        /* \"Exam_20231228.sol\":2930:2944  Status.TurnOff */\n      0x02\n        /* \"Exam_20231228.sol\":2917:2944  carStatus == Status.TurnOff */\n      0x03\n      dup2\n      gt\n      iszero\n      tag_47\n      jumpi\n      tag_48\n      tag_49\n      jump\t// in\n    tag_48:\n    tag_47:\n        /* \"Exam_20231228.sol\":2917:2926  carStatus */\n      0x00\n      dup1\n      sload\n      swap1\n      0x0100\n      exp\n      swap1\n      div\n      0xff\n      and\n        /* \"Exam_20231228.sol\":2917:2944  carStatus == Status.TurnOff */\n      0x03\n      dup2\n      gt\n      iszero\n      tag_50\n      jumpi\n      tag_51\n      tag_49\n      jump\t// in\n    tag_51:\n    tag_50:\n      sub\n        /* \"Exam_20231228.sol\":2912:2997  if ( carStatus == Status.TurnOff ) {... */\n      tag_52\n      jumpi\n        /* \"Exam_20231228.sol\":2974:2985  Status.Stop */\n      0x00\n        /* \"Exam_20231228.sol\":2962:2971  carStatus */\n      dup1\n      0x00\n        /* \"Exam_20231228.sol\":2962:2985  carStatus = Status.Stop */\n      0x0100\n      exp\n      dup2\n      sload\n      dup2\n      0xff\n      mul\n      not\n      and\n      swap1\n      dup4\n      0x03\n      dup2\n      gt\n      iszero\n      tag_53\n      jumpi\n      tag_54\n      tag_49\n      jump\t// in\n    tag_54:\n    tag_53:\n      mul\n      or\n      swap1\n      sstore\n      pop\n        /* \"Exam_20231228.sol\":2912:2997  if ( carStatus == Status.TurnOff ) {... */\n    tag_52:\n        /* \"Exam_20231228.sol\":2770:3004  function TurnOn() public {... */\n      jump\t// out\n        /* \"Exam_20231228.sol\":2198:2762  function Break() public {... */\n    tag_20:\n        /* \"Exam_20231228.sol\":2439:2440  0 */\n      0x00\n        /* \"Exam_20231228.sol\":2427:2438  carVelocity */\n      sload(0x01)\n        /* \"Exam_20231228.sol\":2427:2440  carVelocity>0 */\n      gt\n        /* \"Exam_20231228.sol\":2419:2471  require(carVelocity>0, \"The velocity is already 0.\") */\n      tag_56\n      jumpi\n      mload(0x40)\n      0x08c379a000000000000000000000000000000000000000000000000000000000\n      dup2\n      mstore\n      0x04\n      add\n      tag_57\n      swap1\n      tag_58\n      jump\t// in\n    tag_57:\n      mload(0x40)\n      dup1\n      swap2\n      sub\n      swap1\n      revert\n    tag_56:\n        /* \"Exam_20231228.sol\":2503:2517  Status.Driving */\n      0x01\n        /* \"Exam_20231228.sol\":2490:2517  carStatus == Status.Driving */\n      0x03\n      dup2\n      gt\n      iszero\n      tag_59\n      jumpi\n      tag_60\n      tag_49\n      jump\t// in\n    tag_60:\n    tag_59:\n        /* \"Exam_20231228.sol\":2490:2499  carStatus */\n      0x00\n      dup1\n      sload\n      swap1\n      0x0100\n      exp\n      swap1\n      div\n      0xff\n      and\n        /* \"Exam_20231228.sol\":2490:2517  carStatus == Status.Driving */\n      0x03\n      dup2\n      gt\n      iszero\n      tag_61\n      jumpi\n      tag_62\n      tag_49\n      jump\t// in\n    tag_62:\n    tag_61:\n      eq\n        /* \"Exam_20231228.sol\":2482:2545  require(carStatus == Status.Driving, \"The car is not moving.\" ) */\n      tag_63\n      jumpi\n      mload(0x40)\n      0x08c379a000000000000000000000000000000000000000000000000000000000\n      dup2\n      mstore\n      0x04\n      add\n      tag_64\n      swap1\n      tag_65\n      jump\t// in\n    tag_64:\n      mload(0x40)\n      dup1\n      swap2\n      sub\n      swap1\n      revert\n    tag_63:\n        /* \"Exam_20231228.sol\":2556:2567  carVelocity */\n      0x01\n      0x00\n        /* \"Exam_20231228.sol\":2556:2569  carVelocity-- */\n      dup2\n      sload\n      dup1\n      swap3\n      swap2\n      swap1\n      tag_66\n      swap1\n      tag_67\n      jump\t// in\n    tag_66:\n      swap2\n      swap1\n      pop\n      sstore\n      pop\n        /* \"Exam_20231228.sol\":2591:2592  2 */\n      0x02\n        /* \"Exam_20231228.sol\":2580:2587  carFuel */\n      dup1\n      0x00\n        /* \"Exam_20231228.sol\":2580:2592  carFuel -= 2 */\n      dup3\n      dup3\n      sload\n      tag_68\n      swap2\n      swap1\n      tag_69\n      jump\t// in\n    tag_68:\n      swap3\n      pop\n      pop\n      dup2\n      swap1\n      sstore\n      pop\n        /* \"Exam_20231228.sol\":2623:2624  0 */\n      0x00\n        /* \"Exam_20231228.sol\":2608:2619  carVelocity */\n      sload(0x01)\n        /* \"Exam_20231228.sol\":2608:2624  carVelocity == 0 */\n      sub\n        /* \"Exam_20231228.sol\":2605:2753  if(carVelocity == 0) {... */\n      tag_70\n      jumpi\n        /* \"Exam_20231228.sol\":2730:2741  Status.Stop */\n      0x00\n        /* \"Exam_20231228.sol\":2718:2727  carStatus */\n      dup1\n      0x00\n        /* \"Exam_20231228.sol\":2718:2741  carStatus = Status.Stop */\n      0x0100\n      exp\n      dup2\n      sload\n      dup2\n      0xff\n      mul\n      not\n      and\n      swap1\n      dup4\n      0x03\n      dup2\n      gt\n      iszero\n      tag_71\n      jumpi\n      tag_72\n      tag_49\n      jump\t// in\n    tag_72:\n    tag_71:\n      mul\n      or\n      swap1\n      sstore\n      pop\n        /* \"Exam_20231228.sol\":2605:2753  if(carVelocity == 0) {... */\n    tag_70:\n        /* \"Exam_20231228.sol\":2198:2762  function Break() public {... */\n      jump\t// out\n        /* \"Exam_20231228.sol\":1324:1447  function getCarState() public view returns (Status, uint, uint) {... */\n    tag_23:\n        /* \"Exam_20231228.sol\":1368:1374  Status */\n      0x00\n        /* \"Exam_20231228.sol\":1376:1380  uint */\n      dup1\n        /* \"Exam_20231228.sol\":1382:1386  uint */\n      0x00\n        /* \"Exam_20231228.sol\":1407:1416  carStatus */\n      dup1\n      0x00\n      swap1\n      sload\n      swap1\n      0x0100\n      exp\n      swap1\n      div\n      0xff\n      and\n        /* \"Exam_20231228.sol\":1418:1429  carVelocity */\n      sload(0x01)\n        /* \"Exam_20231228.sol\":1431:1438  carFuel */\n      sload(0x02)\n        /* \"Exam_20231228.sol\":1399:1439  return (carStatus, carVelocity, carFuel) */\n      swap3\n      pop\n      swap3\n      pop\n      swap3\n      pop\n        /* \"Exam_20231228.sol\":1324:1447  function getCarState() public view returns (Status, uint, uint) {... */\n      swap1\n      swap2\n      swap3\n      jump\t// out\n        /* \"Exam_20231228.sol\":3012:3351  function TurnOff() public {... */\n    tag_28:\n        /* \"Exam_20231228.sol\":3185:3186  0 */\n      0x00\n        /* \"Exam_20231228.sol\":3172:3183  carVelocity */\n      sload(0x01)\n        /* \"Exam_20231228.sol\":3172:3186  carVelocity==0 */\n      eq\n        /* \"Exam_20231228.sol\":3164:3248  require(carVelocity==0, \"You can't turn off the engine while the car is in motion.\") */\n      tag_75\n      jumpi\n      mload(0x40)\n      0x08c379a000000000000000000000000000000000000000000000000000000000\n      dup2\n      mstore\n      0x04\n      add\n      tag_76\n      swap1\n      tag_77\n      jump\t// in\n    tag_76:\n      mload(0x40)\n      dup1\n      swap2\n      sub\n      swap1\n      revert\n    tag_75:\n        /* \"Exam_20231228.sol\":3277:3288  Status.Stop */\n      0x00\n        /* \"Exam_20231228.sol\":3264:3288  carStatus == Status.Stop */\n      0x03\n      dup2\n      gt\n      iszero\n      tag_78\n      jumpi\n      tag_79\n      tag_49\n      jump\t// in\n    tag_79:\n    tag_78:\n        /* \"Exam_20231228.sol\":3264:3273  carStatus */\n      0x00\n      dup1\n      sload\n      swap1\n      0x0100\n      exp\n      swap1\n      div\n      0xff\n      and\n        /* \"Exam_20231228.sol\":3264:3288  carStatus == Status.Stop */\n      0x03\n      dup2\n      gt\n      iszero\n      tag_80\n      jumpi\n      tag_81\n      tag_49\n      jump\t// in\n    tag_81:\n    tag_80:\n      sub\n        /* \"Exam_20231228.sol\":3259:3344  if ( carStatus == Status.Stop ) {... */\n      tag_82\n      jumpi\n        /* \"Exam_20231228.sol\":3318:3332  Status.TurnOff */\n      0x02\n        /* \"Exam_20231228.sol\":3306:3315  carStatus */\n      0x00\n      dup1\n        /* \"Exam_20231228.sol\":3306:3332  carStatus = Status.TurnOff */\n      0x0100\n      exp\n      dup2\n      sload\n      dup2\n      0xff\n      mul\n      not\n      and\n      swap1\n      dup4\n      0x03\n      dup2\n      gt\n      iszero\n      tag_83\n      jumpi\n      tag_84\n      tag_49\n      jump\t// in\n    tag_84:\n    tag_83:\n      mul\n      or\n      swap1\n      sstore\n      pop\n        /* \"Exam_20231228.sol\":3259:3344  if ( carStatus == Status.Stop ) {... */\n    tag_82:\n        /* \"Exam_20231228.sol\":3012:3351  function TurnOff() public {... */\n      jump\t// out\n        /* \"Exam_20231228.sol\":1158:1237  function setVelocityforTest(uint _v) public {... */\n    tag_33:\n        /* \"Exam_20231228.sol\":1227:1229  _v */\n      dup1\n        /* \"Exam_20231228.sol\":1213:1224  carVelocity */\n      0x01\n        /* \"Exam_20231228.sol\":1213:1229  carVelocity = _v */\n      dup2\n      swap1\n      sstore\n      pop\n        /* \"Exam_20231228.sol\":1158:1237  function setVelocityforTest(uint _v) public {... */\n      pop\n      jump\t// out\n        /* \"Exam_20231228.sol\":1245:1316  function setFuelforTest(uint _f) public {... */\n    tag_37:\n        /* \"Exam_20231228.sol\":1306:1308  _f */\n      dup1\n        /* \"Exam_20231228.sol\":1296:1303  carFuel */\n      0x02\n        /* \"Exam_20231228.sol\":1296:1308  carFuel = _f */\n      dup2\n      swap1\n      sstore\n      pop\n        /* \"Exam_20231228.sol\":1245:1316  function setFuelforTest(uint _f) public {... */\n      pop\n      jump\t// out\n        /* \"Exam_20231228.sol\":3359:3666  function Refuel() public payable returns(uint){... */\n    tag_39:\n        /* \"Exam_20231228.sol\":3400:3404  uint */\n      0x00\n        /* \"Exam_20231228.sol\":3553:3567  Status.TurnOff */\n      0x02\n        /* \"Exam_20231228.sol\":3540:3567  carStatus == Status.TurnOff */\n      0x03\n      dup2\n      gt\n      iszero\n      tag_88\n      jumpi\n      tag_89\n      tag_49\n      jump\t// in\n    tag_89:\n    tag_88:\n        /* \"Exam_20231228.sol\":3540:3549  carStatus */\n      0x00\n      dup1\n      sload\n      swap1\n      0x0100\n      exp\n      swap1\n      div\n      0xff\n      and\n        /* \"Exam_20231228.sol\":3540:3567  carStatus == Status.TurnOff */\n      0x03\n      dup2\n      gt\n      iszero\n      tag_90\n      jumpi\n      tag_91\n      tag_49\n      jump\t// in\n    tag_91:\n    tag_90:\n      eq\n        /* \"Exam_20231228.sol\":3540:3597  carStatus == Status.TurnOff || carStatus == Status.NoFuel */\n      dup1\n      tag_92\n      jumpi\n      pop\n        /* \"Exam_20231228.sol\":3584:3597  Status.NoFuel */\n      0x03\n        /* \"Exam_20231228.sol\":3571:3597  carStatus == Status.NoFuel */\n      dup1\n      dup2\n      gt\n      iszero\n      tag_93\n      jumpi\n      tag_94\n      tag_49\n      jump\t// in\n    tag_94:\n    tag_93:\n        /* \"Exam_20231228.sol\":3571:3580  carStatus */\n      0x00\n      dup1\n      sload\n      swap1\n      0x0100\n      exp\n      swap1\n      div\n      0xff\n      and\n        /* \"Exam_20231228.sol\":3571:3597  carStatus == Status.NoFuel */\n      0x03\n      dup2\n      gt\n      iszero\n      tag_95\n      jumpi\n      tag_96\n      tag_49\n      jump\t// in\n    tag_96:\n    tag_95:\n      eq\n        /* \"Exam_20231228.sol\":3540:3597  carStatus == Status.TurnOff || carStatus == Status.NoFuel */\n    tag_92:\n        /* \"Exam_20231228.sol\":3532:3631  require(carStatus == Status.TurnOff || carStatus == Status.NoFuel, \"Cannot refuel while driving.\" ) */\n      tag_97\n      jumpi\n      mload(0x40)\n      0x08c379a000000000000000000000000000000000000000000000000000000000\n      dup2\n      mstore\n      0x04\n      add\n      tag_98\n      swap1\n      tag_99\n      jump\t// in\n    tag_98:\n      mload(0x40)\n      dup1\n      swap2\n      sub\n      swap1\n      revert\n    tag_97:\n        /* \"Exam_20231228.sol\":3649:3658  msg.value */\n      callvalue\n        /* \"Exam_20231228.sol\":3642:3658  return msg.value */\n      swap1\n      pop\n        /* \"Exam_20231228.sol\":3359:3666  function Refuel() public payable returns(uint){... */\n      swap1\n      jump\t// out\n        /* \"Exam_20231228.sol\":1455:2190  function Accelerator() public {... */\n    tag_44:\n        /* \"Exam_20231228.sol\":1755:1757  70 */\n      0x46\n        /* \"Exam_20231228.sol\":1741:1752  carVelocity */\n      sload(0x01)\n        /* \"Exam_20231228.sol\":1741:1757  carVelocity < 70 */\n      lt\n        /* \"Exam_20231228.sol\":1733:1791  require(carVelocity < 70, \"It's already too fast enough.\") */\n      tag_101\n      jumpi\n      mload(0x40)\n      0x08c379a000000000000000000000000000000000000000000000000000000000\n      dup2\n      mstore\n      0x04\n      add\n      tag_102\n      swap1\n      tag_103\n      jump\t// in\n    tag_102:\n      mload(0x40)\n      dup1\n      swap2\n      sub\n      swap1\n      revert\n    tag_101:\n        /* \"Exam_20231228.sol\":1819:1821  30 */\n      0x1e\n        /* \"Exam_20231228.sol\":1810:1817  carFuel */\n      sload(0x02)\n        /* \"Exam_20231228.sol\":1810:1821  carFuel >30 */\n      gt\n        /* \"Exam_20231228.sol\":1802:1845  require(carFuel >30, \"More fuel is needed\") */\n      tag_104\n      jumpi\n      mload(0x40)\n      0x08c379a000000000000000000000000000000000000000000000000000000000\n      dup2\n      mstore\n      0x04\n      add\n      tag_105\n      swap1\n      tag_106\n      jump\t// in\n    tag_105:\n      mload(0x40)\n      dup1\n      swap2\n      sub\n      swap1\n      revert\n    tag_104:\n        /* \"Exam_20231228.sol\":1877:1888  Status.Stop */\n      0x00\n        /* \"Exam_20231228.sol\":1864:1888  carStatus == Status.Stop */\n      0x03\n      dup2\n      gt\n      iszero\n      tag_107\n      jumpi\n      tag_108\n      tag_49\n      jump\t// in\n    tag_108:\n    tag_107:\n        /* \"Exam_20231228.sol\":1864:1873  carStatus */\n      0x00\n      dup1\n      sload\n      swap1\n      0x0100\n      exp\n      swap1\n      div\n      0xff\n      and\n        /* \"Exam_20231228.sol\":1864:1888  carStatus == Status.Stop */\n      0x03\n      dup2\n      gt\n      iszero\n      tag_109\n      jumpi\n      tag_110\n      tag_49\n      jump\t// in\n    tag_110:\n    tag_109:\n      eq\n        /* \"Exam_20231228.sol\":1864:1919  carStatus == Status.Stop || carStatus == Status.Driving */\n      dup1\n      tag_111\n      jumpi\n      pop\n        /* \"Exam_20231228.sol\":1905:1919  Status.Driving */\n      0x01\n        /* \"Exam_20231228.sol\":1892:1919  carStatus == Status.Driving */\n      0x03\n      dup2\n      gt\n      iszero\n      tag_112\n      jumpi\n      tag_113\n      tag_49\n      jump\t// in\n    tag_113:\n    tag_112:\n        /* \"Exam_20231228.sol\":1892:1901  carStatus */\n      0x00\n      dup1\n      sload\n      swap1\n      0x0100\n      exp\n      swap1\n      div\n      0xff\n      and\n        /* \"Exam_20231228.sol\":1892:1919  carStatus == Status.Driving */\n      0x03\n      dup2\n      gt\n      iszero\n      tag_114\n      jumpi\n      tag_115\n      tag_49\n      jump\t// in\n    tag_115:\n    tag_114:\n      eq\n        /* \"Exam_20231228.sol\":1864:1919  carStatus == Status.Stop || carStatus == Status.Driving */\n    tag_111:\n        /* \"Exam_20231228.sol\":1856:1947  require(carStatus == Status.Stop || carStatus == Status.Driving, \"The car is not moving.\" ) */\n      tag_116\n      jumpi\n      mload(0x40)\n      0x08c379a000000000000000000000000000000000000000000000000000000000\n      dup2\n      mstore\n      0x04\n      add\n      tag_117\n      swap1\n      tag_65\n      jump\t// in\n    tag_117:\n      mload(0x40)\n      dup1\n      swap2\n      sub\n      swap1\n      revert\n    tag_116:\n        /* \"Exam_20231228.sol\":1979:1980  0 */\n      0x00\n        /* \"Exam_20231228.sol\":1964:1975  carVelocity */\n      sload(0x01)\n        /* \"Exam_20231228.sol\":1964:1980  carVelocity == 0 */\n      eq\n        /* \"Exam_20231228.sol\":1964:2008  carVelocity == 0 && carStatus == Status.Stop */\n      dup1\n      iszero\n      tag_118\n      jumpi\n      pop\n        /* \"Exam_20231228.sol\":1997:2008  Status.Stop */\n      0x00\n        /* \"Exam_20231228.sol\":1984:2008  carStatus == Status.Stop */\n      0x03\n      dup2\n      gt\n      iszero\n      tag_119\n      jumpi\n      tag_120\n      tag_49\n      jump\t// in\n    tag_120:\n    tag_119:\n        /* \"Exam_20231228.sol\":1984:1993  carStatus */\n      0x00\n      dup1\n      sload\n      swap1\n      0x0100\n      exp\n      swap1\n      div\n      0xff\n      and\n        /* \"Exam_20231228.sol\":1984:2008  carStatus == Status.Stop */\n      0x03\n      dup2\n      gt\n      iszero\n      tag_121\n      jumpi\n      tag_122\n      tag_49\n      jump\t// in\n    tag_122:\n    tag_121:\n      eq\n        /* \"Exam_20231228.sol\":1964:2008  carVelocity == 0 && carStatus == Status.Stop */\n    tag_118:\n        /* \"Exam_20231228.sol\":1960:2136  if( carVelocity == 0 && carStatus == Status.Stop){... */\n      iszero\n      tag_123\n      jumpi\n        /* \"Exam_20231228.sol\":2110:2124  Status.Driving */\n      0x01\n        /* \"Exam_20231228.sol\":2098:2107  carStatus */\n      0x00\n      dup1\n        /* \"Exam_20231228.sol\":2098:2124  carStatus = Status.Driving */\n      0x0100\n      exp\n      dup2\n      sload\n      dup2\n      0xff\n      mul\n      not\n      and\n      swap1\n      dup4\n      0x03\n      dup2\n      gt\n      iszero\n      tag_124\n      jumpi\n      tag_125\n      tag_49\n      jump\t// in\n    tag_125:\n    tag_124:\n      mul\n      or\n      swap1\n      sstore\n      pop\n        /* \"Exam_20231228.sol\":1960:2136  if( carVelocity == 0 && carStatus == Status.Stop){... */\n    tag_123:\n        /* \"Exam_20231228.sol\":2146:2157  carVelocity */\n      0x01\n      0x00\n        /* \"Exam_20231228.sol\":2146:2159  carVelocity++ */\n      dup2\n      sload\n      dup1\n      swap3\n      swap2\n      swap1\n      tag_126\n      swap1\n      tag_127\n      jump\t// in\n    tag_126:\n      swap2\n      swap1\n      pop\n      sstore\n      pop\n        /* \"Exam_20231228.sol\":2181:2182  2 */\n      0x02\n        /* \"Exam_20231228.sol\":2170:2177  carFuel */\n      dup1\n      0x00\n        /* \"Exam_20231228.sol\":2170:2182  carFuel -= 2 */\n      dup3\n      dup3\n      sload\n      tag_128\n      swap2\n      swap1\n      tag_69\n      jump\t// in\n    tag_128:\n      swap3\n      pop\n      pop\n      dup2\n      swap1\n      sstore\n      pop\n        /* \"Exam_20231228.sol\":1455:2190  function Accelerator() public {... */\n      jump\t// out\n        /* \"#utility.yul\":7:187   */\n    tag_49:\n        /* \"#utility.yul\":55:132   */\n      0x4e487b7100000000000000000000000000000000000000000000000000000000\n        /* \"#utility.yul\":52:53   */\n      0x00\n        /* \"#utility.yul\":45:133   */\n      mstore\n        /* \"#utility.yul\":152:156   */\n      0x21\n        /* \"#utility.yul\":149:150   */\n      0x04\n        /* \"#utility.yul\":142:157   */\n      mstore\n        /* \"#utility.yul\":176:180   */\n      0x24\n        /* \"#utility.yul\":173:174   */\n      0x00\n        /* \"#utility.yul\":166:181   */\n      revert\n        /* \"#utility.yul\":193:306   */\n    tag_129:\n        /* \"#utility.yul\":274:275   */\n      0x04\n        /* \"#utility.yul\":267:272   */\n      dup2\n        /* \"#utility.yul\":264:276   */\n      lt\n        /* \"#utility.yul\":254:300   */\n      tag_157\n      jumpi\n        /* \"#utility.yul\":280:298   */\n      tag_158\n      tag_49\n      jump\t// in\n    tag_158:\n        /* \"#utility.yul\":254:300   */\n    tag_157:\n        /* \"#utility.yul\":193:306   */\n      pop\n      jump\t// out\n        /* \"#utility.yul\":312:439   */\n    tag_130:\n        /* \"#utility.yul\":357:364   */\n      0x00\n        /* \"#utility.yul\":386:391   */\n      dup2\n        /* \"#utility.yul\":375:391   */\n      swap1\n      pop\n        /* \"#utility.yul\":392:433   */\n      tag_160\n        /* \"#utility.yul\":427:432   */\n      dup3\n        /* \"#utility.yul\":392:433   */\n      tag_129\n      jump\t// in\n    tag_160:\n        /* \"#utility.yul\":312:439   */\n      swap2\n      swap1\n      pop\n      jump\t// out\n        /* \"#utility.yul\":445:572   */\n    tag_131:\n        /* \"#utility.yul\":501:510   */\n      0x00\n        /* \"#utility.yul\":534:566   */\n      tag_162\n        /* \"#utility.yul\":560:565   */\n      dup3\n        /* \"#utility.yul\":534:566   */\n      tag_130\n      jump\t// in\n    tag_162:\n        /* \"#utility.yul\":521:566   */\n      swap1\n      pop\n        /* \"#utility.yul\":445:572   */\n      swap2\n      swap1\n      pop\n      jump\t// out\n        /* \"#utility.yul\":578:721   */\n    tag_132:\n        /* \"#utility.yul\":671:714   */\n      tag_164\n        /* \"#utility.yul\":708:713   */\n      dup2\n        /* \"#utility.yul\":671:714   */\n      tag_131\n      jump\t// in\n    tag_164:\n        /* \"#utility.yul\":666:669   */\n      dup3\n        /* \"#utility.yul\":659:715   */\n      mstore\n        /* \"#utility.yul\":578:721   */\n      pop\n      pop\n      jump\t// out\n        /* \"#utility.yul\":727:804   */\n    tag_133:\n        /* \"#utility.yul\":764:771   */\n      0x00\n        /* \"#utility.yul\":793:798   */\n      dup2\n        /* \"#utility.yul\":782:798   */\n      swap1\n      pop\n        /* \"#utility.yul\":727:804   */\n      swap2\n      swap1\n      pop\n      jump\t// out\n        /* \"#utility.yul\":810:928   */\n    tag_134:\n        /* \"#utility.yul\":897:921   */\n      tag_167\n        /* \"#utility.yul\":915:920   */\n      dup2\n        /* \"#utility.yul\":897:921   */\n      tag_133\n      jump\t// in\n    tag_167:\n        /* \"#utility.yul\":892:895   */\n      dup3\n        /* \"#utility.yul\":885:922   */\n      mstore\n        /* \"#utility.yul\":810:928   */\n      pop\n      pop\n      jump\t// out\n        /* \"#utility.yul\":934:1388   */\n    tag_25:\n        /* \"#utility.yul\":1089:1093   */\n      0x00\n        /* \"#utility.yul\":1127:1129   */\n      0x60\n        /* \"#utility.yul\":1116:1125   */\n      dup3\n        /* \"#utility.yul\":1112:1130   */\n      add\n        /* \"#utility.yul\":1104:1130   */\n      swap1\n      pop\n        /* \"#utility.yul\":1140:1217   */\n      tag_169\n        /* \"#utility.yul\":1214:1215   */\n      0x00\n        /* \"#utility.yul\":1203:1212   */\n      dup4\n        /* \"#utility.yul\":1199:1216   */\n      add\n        /* \"#utility.yul\":1190:1196   */\n      dup7\n        /* \"#utility.yul\":1140:1217   */\n      tag_132\n      jump\t// in\n    tag_169:\n        /* \"#utility.yul\":1227:1299   */\n      tag_170\n        /* \"#utility.yul\":1295:1297   */\n      0x20\n        /* \"#utility.yul\":1284:1293   */\n      dup4\n        /* \"#utility.yul\":1280:1298   */\n      add\n        /* \"#utility.yul\":1271:1277   */\n      dup6\n        /* \"#utility.yul\":1227:1299   */\n      tag_134\n      jump\t// in\n    tag_170:\n        /* \"#utility.yul\":1309:1381   */\n      tag_171\n        /* \"#utility.yul\":1377:1379   */\n      0x40\n        /* \"#utility.yul\":1366:1375   */\n      dup4\n        /* \"#utility.yul\":1362:1380   */\n      add\n        /* \"#utility.yul\":1353:1359   */\n      dup5\n        /* \"#utility.yul\":1309:1381   */\n      tag_134\n      jump\t// in\n    tag_171:\n        /* \"#utility.yul\":934:1388   */\n      swap5\n      swap4\n      pop\n      pop\n      pop\n      pop\n      jump\t// out\n        /* \"#utility.yul\":1475:1592   */\n    tag_136:\n        /* \"#utility.yul\":1584:1585   */\n      0x00\n        /* \"#utility.yul\":1581:1582   */\n      dup1\n        /* \"#utility.yul\":1574:1586   */\n      revert\n        /* \"#utility.yul\":1721:1843   */\n    tag_138:\n        /* \"#utility.yul\":1794:1818   */\n      tag_176\n        /* \"#utility.yul\":1812:1817   */\n      dup2\n        /* \"#utility.yul\":1794:1818   */\n      tag_133\n      jump\t// in\n    tag_176:\n        /* \"#utility.yul\":1787:1792   */\n      dup2\n        /* \"#utility.yul\":1784:1819   */\n      eq\n        /* \"#utility.yul\":1774:1837   */\n      tag_177\n      jumpi\n        /* \"#utility.yul\":1833:1834   */\n      0x00\n        /* \"#utility.yul\":1830:1831   */\n      dup1\n        /* \"#utility.yul\":1823:1835   */\n      revert\n        /* \"#utility.yul\":1774:1837   */\n    tag_177:\n        /* \"#utility.yul\":1721:1843   */\n      pop\n      jump\t// out\n        /* \"#utility.yul\":1849:1988   */\n    tag_139:\n        /* \"#utility.yul\":1895:1900   */\n      0x00\n        /* \"#utility.yul\":1933:1939   */\n      dup2\n        /* \"#utility.yul\":1920:1940   */\n      calldataload\n        /* \"#utility.yul\":1911:1940   */\n      swap1\n      pop\n        /* \"#utility.yul\":1949:1982   */\n      tag_179\n        /* \"#utility.yul\":1976:1981   */\n      dup2\n        /* \"#utility.yul\":1949:1982   */\n      tag_138\n      jump\t// in\n    tag_179:\n        /* \"#utility.yul\":1849:1988   */\n      swap3\n      swap2\n      pop\n      pop\n      jump\t// out\n        /* \"#utility.yul\":1994:2323   */\n    tag_32:\n        /* \"#utility.yul\":2053:2059   */\n      0x00\n        /* \"#utility.yul\":2102:2104   */\n      0x20\n        /* \"#utility.yul\":2090:2099   */\n      dup3\n        /* \"#utility.yul\":2081:2088   */\n      dup5\n        /* \"#utility.yul\":2077:2100   */\n      sub\n        /* \"#utility.yul\":2073:2105   */\n      slt\n        /* \"#utility.yul\":2070:2189   */\n      iszero\n      tag_181\n      jumpi\n        /* \"#utility.yul\":2108:2187   */\n      tag_182\n      tag_136\n      jump\t// in\n    tag_182:\n        /* \"#utility.yul\":2070:2189   */\n    tag_181:\n        /* \"#utility.yul\":2228:2229   */\n      0x00\n        /* \"#utility.yul\":2253:2306   */\n      tag_183\n        /* \"#utility.yul\":2298:2305   */\n      dup5\n        /* \"#utility.yul\":2289:2295   */\n      dup3\n        /* \"#utility.yul\":2278:2287   */\n      dup6\n        /* \"#utility.yul\":2274:2296   */\n      add\n        /* \"#utility.yul\":2253:2306   */\n      tag_139\n      jump\t// in\n    tag_183:\n        /* \"#utility.yul\":2243:2306   */\n      swap2\n      pop\n        /* \"#utility.yul\":2199:2316   */\n      pop\n        /* \"#utility.yul\":1994:2323   */\n      swap3\n      swap2\n      pop\n      pop\n      jump\t// out\n        /* \"#utility.yul\":2329:2551   */\n    tag_41:\n        /* \"#utility.yul\":2422:2426   */\n      0x00\n        /* \"#utility.yul\":2460:2462   */\n      0x20\n        /* \"#utility.yul\":2449:2458   */\n      dup3\n        /* \"#utility.yul\":2445:2463   */\n      add\n        /* \"#utility.yul\":2437:2463   */\n      swap1\n      pop\n        /* \"#utility.yul\":2473:2544   */\n      tag_185\n        /* \"#utility.yul\":2541:2542   */\n      0x00\n        /* \"#utility.yul\":2530:2539   */\n      dup4\n        /* \"#utility.yul\":2526:2543   */\n      add\n        /* \"#utility.yul\":2517:2523   */\n      dup5\n        /* \"#utility.yul\":2473:2544   */\n      tag_134\n      jump\t// in\n    tag_185:\n        /* \"#utility.yul\":2329:2551   */\n      swap3\n      swap2\n      pop\n      pop\n      jump\t// out\n        /* \"#utility.yul\":2557:2726   */\n    tag_140:\n        /* \"#utility.yul\":2641:2652   */\n      0x00\n        /* \"#utility.yul\":2675:2681   */\n      dup3\n        /* \"#utility.yul\":2670:2673   */\n      dup3\n        /* \"#utility.yul\":2663:2682   */\n      mstore\n        /* \"#utility.yul\":2715:2719   */\n      0x20\n        /* \"#utility.yul\":2710:2713   */\n      dup3\n        /* \"#utility.yul\":2706:2720   */\n      add\n        /* \"#utility.yul\":2691:2720   */\n      swap1\n      pop\n        /* \"#utility.yul\":2557:2726   */\n      swap3\n      swap2\n      pop\n      pop\n      jump\t// out\n        /* \"#utility.yul\":2732:2908   */\n    tag_141:\n        /* \"#utility.yul\":2872:2900   */\n      0x5468652076656c6f6369747920697320616c726561647920302e000000000000\n        /* \"#utility.yul\":2868:2869   */\n      0x00\n        /* \"#utility.yul\":2860:2866   */\n      dup3\n        /* \"#utility.yul\":2856:2870   */\n      add\n        /* \"#utility.yul\":2849:2901   */\n      mstore\n        /* \"#utility.yul\":2732:2908   */\n      pop\n      jump\t// out\n        /* \"#utility.yul\":2914:3280   */\n    tag_142:\n        /* \"#utility.yul\":3056:3059   */\n      0x00\n        /* \"#utility.yul\":3077:3144   */\n      tag_189\n        /* \"#utility.yul\":3141:3143   */\n      0x1a\n        /* \"#utility.yul\":3136:3139   */\n      dup4\n        /* \"#utility.yul\":3077:3144   */\n      tag_140\n      jump\t// in\n    tag_189:\n        /* \"#utility.yul\":3070:3144   */\n      swap2\n      pop\n        /* \"#utility.yul\":3153:3246   */\n      tag_190\n        /* \"#utility.yul\":3242:3245   */\n      dup3\n        /* \"#utility.yul\":3153:3246   */\n      tag_141\n      jump\t// in\n    tag_190:\n        /* \"#utility.yul\":3271:3273   */\n      0x20\n        /* \"#utility.yul\":3266:3269   */\n      dup3\n        /* \"#utility.yul\":3262:3274   */\n      add\n        /* \"#utility.yul\":3255:3274   */\n      swap1\n      pop\n        /* \"#utility.yul\":2914:3280   */\n      swap2\n      swap1\n      pop\n      jump\t// out\n        /* \"#utility.yul\":3286:3705   */\n    tag_58:\n        /* \"#utility.yul\":3452:3456   */\n      0x00\n        /* \"#utility.yul\":3490:3492   */\n      0x20\n        /* \"#utility.yul\":3479:3488   */\n      dup3\n        /* \"#utility.yul\":3475:3493   */\n      add\n        /* \"#utility.yul\":3467:3493   */\n      swap1\n      pop\n        /* \"#utility.yul\":3539:3548   */\n      dup2\n        /* \"#utility.yul\":3533:3537   */\n      dup2\n        /* \"#utility.yul\":3529:3549   */\n      sub\n        /* \"#utility.yul\":3525:3526   */\n      0x00\n        /* \"#utility.yul\":3514:3523   */\n      dup4\n        /* \"#utility.yul\":3510:3527   */\n      add\n        /* \"#utility.yul\":3503:3550   */\n      mstore\n        /* \"#utility.yul\":3567:3698   */\n      tag_192\n        /* \"#utility.yul\":3693:3697   */\n      dup2\n        /* \"#utility.yul\":3567:3698   */\n      tag_142\n      jump\t// in\n    tag_192:\n        /* \"#utility.yul\":3559:3698   */\n      swap1\n      pop\n        /* \"#utility.yul\":3286:3705   */\n      swap2\n      swap1\n      pop\n      jump\t// out\n        /* \"#utility.yul\":3711:3883   */\n    tag_143:\n        /* \"#utility.yul\":3851:3875   */\n      0x54686520636172206973206e6f74206d6f76696e672e00000000000000000000\n        /* \"#utility.yul\":3847:3848   */\n      0x00\n        /* \"#utility.yul\":3839:3845   */\n      dup3\n        /* \"#utility.yul\":3835:3849   */\n      add\n        /* \"#utility.yul\":3828:3876   */\n      mstore\n        /* \"#utility.yul\":3711:3883   */\n      pop\n      jump\t// out\n        /* \"#utility.yul\":3889:4255   */\n    tag_144:\n        /* \"#utility.yul\":4031:4034   */\n      0x00\n        /* \"#utility.yul\":4052:4119   */\n      tag_195\n        /* \"#utility.yul\":4116:4118   */\n      0x16\n        /* \"#utility.yul\":4111:4114   */\n      dup4\n        /* \"#utility.yul\":4052:4119   */\n      tag_140\n      jump\t// in\n    tag_195:\n        /* \"#utility.yul\":4045:4119   */\n      swap2\n      pop\n        /* \"#utility.yul\":4128:4221   */\n      tag_196\n        /* \"#utility.yul\":4217:4220   */\n      dup3\n        /* \"#utility.yul\":4128:4221   */\n      tag_143\n      jump\t// in\n    tag_196:\n        /* \"#utility.yul\":4246:4248   */\n      0x20\n        /* \"#utility.yul\":4241:4244   */\n      dup3\n        /* \"#utility.yul\":4237:4249   */\n      add\n        /* \"#utility.yul\":4230:4249   */\n      swap1\n      pop\n        /* \"#utility.yul\":3889:4255   */\n      swap2\n      swap1\n      pop\n      jump\t// out\n        /* \"#utility.yul\":4261:4680   */\n    tag_65:\n        /* \"#utility.yul\":4427:4431   */\n      0x00\n        /* \"#utility.yul\":4465:4467   */\n      0x20\n        /* \"#utility.yul\":4454:4463   */\n      dup3\n        /* \"#utility.yul\":4450:4468   */\n      add\n        /* \"#utility.yul\":4442:4468   */\n      swap1\n      pop\n        /* \"#utility.yul\":4514:4523   */\n      dup2\n        /* \"#utility.yul\":4508:4512   */\n      dup2\n        /* \"#utility.yul\":4504:4524   */\n      sub\n        /* \"#utility.yul\":4500:4501   */\n      0x00\n        /* \"#utility.yul\":4489:4498   */\n      dup4\n        /* \"#utility.yul\":4485:4502   */\n      add\n        /* \"#utility.yul\":4478:4525   */\n      mstore\n        /* \"#utility.yul\":4542:4673   */\n      tag_198\n        /* \"#utility.yul\":4668:4672   */\n      dup2\n        /* \"#utility.yul\":4542:4673   */\n      tag_144\n      jump\t// in\n    tag_198:\n        /* \"#utility.yul\":4534:4673   */\n      swap1\n      pop\n        /* \"#utility.yul\":4261:4680   */\n      swap2\n      swap1\n      pop\n      jump\t// out\n        /* \"#utility.yul\":4686:4866   */\n    tag_145:\n        /* \"#utility.yul\":4734:4811   */\n      0x4e487b7100000000000000000000000000000000000000000000000000000000\n        /* \"#utility.yul\":4731:4732   */\n      0x00\n        /* \"#utility.yul\":4724:4812   */\n      mstore\n        /* \"#utility.yul\":4831:4835   */\n      0x11\n        /* \"#utility.yul\":4828:4829   */\n      0x04\n        /* \"#utility.yul\":4821:4836   */\n      mstore\n        /* \"#utility.yul\":4855:4859   */\n      0x24\n        /* \"#utility.yul\":4852:4853   */\n      0x00\n        /* \"#utility.yul\":4845:4860   */\n      revert\n        /* \"#utility.yul\":4872:5043   */\n    tag_67:\n        /* \"#utility.yul\":4911:4914   */\n      0x00\n        /* \"#utility.yul\":4934:4958   */\n      tag_201\n        /* \"#utility.yul\":4952:4957   */\n      dup3\n        /* \"#utility.yul\":4934:4958   */\n      tag_133\n      jump\t// in\n    tag_201:\n        /* \"#utility.yul\":4925:4958   */\n      swap2\n      pop\n        /* \"#utility.yul\":4980:4984   */\n      0x00\n        /* \"#utility.yul\":4973:4978   */\n      dup3\n        /* \"#utility.yul\":4970:4985   */\n      sub\n        /* \"#utility.yul\":4967:5008   */\n      tag_202\n      jumpi\n        /* \"#utility.yul\":4988:5006   */\n      tag_203\n      tag_145\n      jump\t// in\n    tag_203:\n        /* \"#utility.yul\":4967:5008   */\n    tag_202:\n        /* \"#utility.yul\":5035:5036   */\n      0x01\n        /* \"#utility.yul\":5028:5033   */\n      dup3\n        /* \"#utility.yul\":5024:5037   */\n      sub\n        /* \"#utility.yul\":5017:5037   */\n      swap1\n      pop\n        /* \"#utility.yul\":4872:5043   */\n      swap2\n      swap1\n      pop\n      jump\t// out\n        /* \"#utility.yul\":5049:5243   */\n    tag_69:\n        /* \"#utility.yul\":5089:5093   */\n      0x00\n        /* \"#utility.yul\":5109:5129   */\n      tag_205\n        /* \"#utility.yul\":5127:5128   */\n      dup3\n        /* \"#utility.yul\":5109:5129   */\n      tag_133\n      jump\t// in\n    tag_205:\n        /* \"#utility.yul\":5104:5129   */\n      swap2\n      pop\n        /* \"#utility.yul\":5143:5163   */\n      tag_206\n        /* \"#utility.yul\":5161:5162   */\n      dup4\n        /* \"#utility.yul\":5143:5163   */\n      tag_133\n      jump\t// in\n    tag_206:\n        /* \"#utility.yul\":5138:5163   */\n      swap3\n      pop\n        /* \"#utility.yul\":5187:5188   */\n      dup3\n        /* \"#utility.yul\":5184:5185   */\n      dup3\n        /* \"#utility.yul\":5180:5189   */\n      sub\n        /* \"#utility.yul\":5172:5189   */\n      swap1\n      pop\n        /* \"#utility.yul\":5211:5212   */\n      dup2\n        /* \"#utility.yul\":5205:5209   */\n      dup2\n        /* \"#utility.yul\":5202:5213   */\n      gt\n        /* \"#utility.yul\":5199:5236   */\n      iszero\n      tag_207\n      jumpi\n        /* \"#utility.yul\":5216:5234   */\n      tag_208\n      tag_145\n      jump\t// in\n    tag_208:\n        /* \"#utility.yul\":5199:5236   */\n    tag_207:\n        /* \"#utility.yul\":5049:5243   */\n      swap3\n      swap2\n      pop\n      pop\n      jump\t// out\n        /* \"#utility.yul\":5249:5493   */\n    tag_146:\n        /* \"#utility.yul\":5389:5423   */\n      0x596f752063616e2774207475726e206f66662074686520656e67696e65207768\n        /* \"#utility.yul\":5385:5386   */\n      0x00\n        /* \"#utility.yul\":5377:5383   */\n      dup3\n        /* \"#utility.yul\":5373:5387   */\n      add\n        /* \"#utility.yul\":5366:5424   */\n      mstore\n        /* \"#utility.yul\":5458:5485   */\n      0x696c65207468652063617220697320696e206d6f74696f6e2e00000000000000\n        /* \"#utility.yul\":5453:5455   */\n      0x20\n        /* \"#utility.yul\":5445:5451   */\n      dup3\n        /* \"#utility.yul\":5441:5456   */\n      add\n        /* \"#utility.yul\":5434:5486   */\n      mstore\n        /* \"#utility.yul\":5249:5493   */\n      pop\n      jump\t// out\n        /* \"#utility.yul\":5499:5865   */\n    tag_147:\n        /* \"#utility.yul\":5641:5644   */\n      0x00\n        /* \"#utility.yul\":5662:5729   */\n      tag_211\n        /* \"#utility.yul\":5726:5728   */\n      0x39\n        /* \"#utility.yul\":5721:5724   */\n      dup4\n        /* \"#utility.yul\":5662:5729   */\n      tag_140\n      jump\t// in\n    tag_211:\n        /* \"#utility.yul\":5655:5729   */\n      swap2\n      pop\n        /* \"#utility.yul\":5738:5831   */\n      tag_212\n        /* \"#utility.yul\":5827:5830   */\n      dup3\n        /* \"#utility.yul\":5738:5831   */\n      tag_146\n      jump\t// in\n    tag_212:\n        /* \"#utility.yul\":5856:5858   */\n      0x40\n        /* \"#utility.yul\":5851:5854   */\n      dup3\n        /* \"#utility.yul\":5847:5859   */\n      add\n        /* \"#utility.yul\":5840:5859   */\n      swap1\n      pop\n        /* \"#utility.yul\":5499:5865   */\n      swap2\n      swap1\n      pop\n      jump\t// out\n        /* \"#utility.yul\":5871:6290   */\n    tag_77:\n        /* \"#utility.yul\":6037:6041   */\n      0x00\n        /* \"#utility.yul\":6075:6077   */\n      0x20\n        /* \"#utility.yul\":6064:6073   */\n      dup3\n        /* \"#utility.yul\":6060:6078   */\n      add\n        /* \"#utility.yul\":6052:6078   */\n      swap1\n      pop\n        /* \"#utility.yul\":6124:6133   */\n      dup2\n        /* \"#utility.yul\":6118:6122   */\n      dup2\n        /* \"#utility.yul\":6114:6134   */\n      sub\n        /* \"#utility.yul\":6110:6111   */\n      0x00\n        /* \"#utility.yul\":6099:6108   */\n      dup4\n        /* \"#utility.yul\":6095:6112   */\n      add\n        /* \"#utility.yul\":6088:6135   */\n      mstore\n        /* \"#utility.yul\":6152:6283   */\n      tag_214\n        /* \"#utility.yul\":6278:6282   */\n      dup2\n        /* \"#utility.yul\":6152:6283   */\n      tag_147\n      jump\t// in\n    tag_214:\n        /* \"#utility.yul\":6144:6283   */\n      swap1\n      pop\n        /* \"#utility.yul\":5871:6290   */\n      swap2\n      swap1\n      pop\n      jump\t// out\n        /* \"#utility.yul\":6296:6474   */\n    tag_148:\n        /* \"#utility.yul\":6436:6466   */\n      0x43616e6e6f742072656675656c207768696c652064726976696e672e00000000\n        /* \"#utility.yul\":6432:6433   */\n      0x00\n        /* \"#utility.yul\":6424:6430   */\n      dup3\n        /* \"#utility.yul\":6420:6434   */\n      add\n        /* \"#utility.yul\":6413:6467   */\n      mstore\n        /* \"#utility.yul\":6296:6474   */\n      pop\n      jump\t// out\n        /* \"#utility.yul\":6480:6846   */\n    tag_149:\n        /* \"#utility.yul\":6622:6625   */\n      0x00\n        /* \"#utility.yul\":6643:6710   */\n      tag_217\n        /* \"#utility.yul\":6707:6709   */\n      0x1c\n        /* \"#utility.yul\":6702:6705   */\n      dup4\n        /* \"#utility.yul\":6643:6710   */\n      tag_140\n      jump\t// in\n    tag_217:\n        /* \"#utility.yul\":6636:6710   */\n      swap2\n      pop\n        /* \"#utility.yul\":6719:6812   */\n      tag_218\n        /* \"#utility.yul\":6808:6811   */\n      dup3\n        /* \"#utility.yul\":6719:6812   */\n      tag_148\n      jump\t// in\n    tag_218:\n        /* \"#utility.yul\":6837:6839   */\n      0x20\n        /* \"#utility.yul\":6832:6835   */\n      dup3\n        /* \"#utility.yul\":6828:6840   */\n      add\n        /* \"#utility.yul\":6821:6840   */\n      swap1\n      pop\n        /* \"#utility.yul\":6480:6846   */\n      swap2\n      swap1\n      pop\n      jump\t// out\n        /* \"#utility.yul\":6852:7271   */\n    tag_99:\n        /* \"#utility.yul\":7018:7022   */\n      0x00\n        /* \"#utility.yul\":7056:7058   */\n      0x20\n        /* \"#utility.yul\":7045:7054   */\n      dup3\n        /* \"#utility.yul\":7041:7059   */\n      add\n        /* \"#utility.yul\":7033:7059   */\n      swap1\n      pop\n        /* \"#utility.yul\":7105:7114   */\n      dup2\n        /* \"#utility.yul\":7099:7103   */\n      dup2\n        /* \"#utility.yul\":7095:7115   */\n      sub\n        /* \"#utility.yul\":7091:7092   */\n      0x00\n        /* \"#utility.yul\":7080:7089   */\n      dup4\n        /* \"#utility.yul\":7076:7093   */\n      add\n        /* \"#utility.yul\":7069:7116   */\n      mstore\n        /* \"#utility.yul\":7133:7264   */\n      tag_220\n        /* \"#utility.yul\":7259:7263   */\n      dup2\n        /* \"#utility.yul\":7133:7264   */\n      tag_149\n      jump\t// in\n    tag_220:\n        /* \"#utility.yul\":7125:7264   */\n      swap1\n      pop\n        /* \"#utility.yul\":6852:7271   */\n      swap2\n      swap1\n      pop\n      jump\t// out\n        /* \"#utility.yul\":7277:7456   */\n    tag_150:\n        /* \"#utility.yul\":7417:7448   */\n      0x4974277320616c726561647920746f6f206661737420656e6f7567682e000000\n        /* \"#utility.yul\":7413:7414   */\n      0x00\n        /* \"#utility.yul\":7405:7411   */\n      dup3\n        /* \"#utility.yul\":7401:7415   */\n      add\n        /* \"#utility.yul\":7394:7449   */\n      mstore\n        /* \"#utility.yul\":7277:7456   */\n      pop\n      jump\t// out\n        /* \"#utility.yul\":7462:7828   */\n    tag_151:\n        /* \"#utility.yul\":7604:7607   */\n      0x00\n        /* \"#utility.yul\":7625:7692   */\n      tag_223\n        /* \"#utility.yul\":7689:7691   */\n      0x1d\n        /* \"#utility.yul\":7684:7687   */\n      dup4\n        /* \"#utility.yul\":7625:7692   */\n      tag_140\n      jump\t// in\n    tag_223:\n        /* \"#utility.yul\":7618:7692   */\n      swap2\n      pop\n        /* \"#utility.yul\":7701:7794   */\n      tag_224\n        /* \"#utility.yul\":7790:7793   */\n      dup3\n        /* \"#utility.yul\":7701:7794   */\n      tag_150\n      jump\t// in\n    tag_224:\n        /* \"#utility.yul\":7819:7821   */\n      0x20\n        /* \"#utility.yul\":7814:7817   */\n      dup3\n        /* \"#utility.yul\":7810:7822   */\n      add\n        /* \"#utility.yul\":7803:7822   */\n      swap1\n      pop\n        /* \"#utility.yul\":7462:7828   */\n      swap2\n      swap1\n      pop\n      jump\t// out\n        /* \"#utility.yul\":7834:8253   */\n    tag_103:\n        /* \"#utility.yul\":8000:8004   */\n      0x00\n        /* \"#utility.yul\":8038:8040   */\n      0x20\n        /* \"#utility.yul\":8027:8036   */\n      dup3\n        /* \"#utility.yul\":8023:8041   */\n      add\n        /* \"#utility.yul\":8015:8041   */\n      swap1\n      pop\n        /* \"#utility.yul\":8087:8096   */\n      dup2\n        /* \"#utility.yul\":8081:8085   */\n      dup2\n        /* \"#utility.yul\":8077:8097   */\n      sub\n        /* \"#utility.yul\":8073:8074   */\n      0x00\n        /* \"#utility.yul\":8062:8071   */\n      dup4\n        /* \"#utility.yul\":8058:8075   */\n      add\n        /* \"#utility.yul\":8051:8098   */\n      mstore\n        /* \"#utility.yul\":8115:8246   */\n      tag_226\n        /* \"#utility.yul\":8241:8245   */\n      dup2\n        /* \"#utility.yul\":8115:8246   */\n      tag_151\n      jump\t// in\n    tag_226:\n        /* \"#utility.yul\":8107:8246   */\n      swap1\n      pop\n        /* \"#utility.yul\":7834:8253   */\n      swap2\n      swap1\n      pop\n      jump\t// out\n        /* \"#utility.yul\":8259:8428   */\n    tag_152:\n        /* \"#utility.yul\":8399:8420   */\n      0x4d6f7265206675656c206973206e656564656400000000000000000000000000\n        /* \"#utility.yul\":8395:8396   */\n      0x00\n        /* \"#utility.yul\":8387:8393   */\n      dup3\n        /* \"#utility.yul\":8383:8397   */\n      add\n        /* \"#utility.yul\":8376:8421   */\n      mstore\n        /* \"#utility.yul\":8259:8428   */\n      pop\n      jump\t// out\n        /* \"#utility.yul\":8434:8800   */\n    tag_153:\n        /* \"#utility.yul\":8576:8579   */\n      0x00\n        /* \"#utility.yul\":8597:8664   */\n      tag_229\n        /* \"#utility.yul\":8661:8663   */\n      0x13\n        /* \"#utility.yul\":8656:8659   */\n      dup4\n        /* \"#utility.yul\":8597:8664   */\n      tag_140\n      jump\t// in\n    tag_229:\n        /* \"#utility.yul\":8590:8664   */\n      swap2\n      pop\n        /* \"#utility.yul\":8673:8766   */\n      tag_230\n        /* \"#utility.yul\":8762:8765   */\n      dup3\n        /* \"#utility.yul\":8673:8766   */\n      tag_152\n      jump\t// in\n    tag_230:\n        /* \"#utility.yul\":8791:8793   */\n      0x20\n        /* \"#utility.yul\":8786:8789   */\n      dup3\n        /* \"#utility.yul\":8782:8794   */\n      add\n        /* \"#utility.yul\":8775:8794   */\n      swap1\n      pop\n        /* \"#utility.yul\":8434:8800   */\n      swap2\n      swap1\n      pop\n      jump\t// out\n        /* \"#utility.yul\":8806:9225   */\n    tag_106:\n        /* \"#utility.yul\":8972:8976   */\n      0x00\n        /* \"#utility.yul\":9010:9012   */\n      0x20\n        /* \"#utility.yul\":8999:9008   */\n      dup3\n        /* \"#utility.yul\":8995:9013   */\n      add\n        /* \"#utility.yul\":8987:9013   */\n      swap1\n      pop\n        /* \"#utility.yul\":9059:9068   */\n      dup2\n        /* \"#utility.yul\":9053:9057   */\n      dup2\n        /* \"#utility.yul\":9049:9069   */\n      sub\n        /* \"#utility.yul\":9045:9046   */\n      0x00\n        /* \"#utility.yul\":9034:9043   */\n      dup4\n        /* \"#utility.yul\":9030:9047   */\n      add\n        /* \"#utility.yul\":9023:9070   */\n      mstore\n        /* \"#utility.yul\":9087:9218   */\n      tag_232\n        /* \"#utility.yul\":9213:9217   */\n      dup2\n        /* \"#utility.yul\":9087:9218   */\n      tag_153\n      jump\t// in\n    tag_232:\n        /* \"#utility.yul\":9079:9218   */\n      swap1\n      pop\n        /* \"#utility.yul\":8806:9225   */\n      swap2\n      swap1\n      pop\n      jump\t// out\n        /* \"#utility.yul\":9231:9464   */\n    tag_127:\n        /* \"#utility.yul\":9270:9273   */\n      0x00\n        /* \"#utility.yul\":9293:9317   */\n      tag_234\n        /* \"#utility.yul\":9311:9316   */\n      dup3\n        /* \"#utility.yul\":9293:9317   */\n      tag_133\n      jump\t// in\n    tag_234:\n        /* \"#utility.yul\":9284:9317   */\n      swap2\n      pop\n        /* \"#utility.yul\":9339:9405   */\n      0xffffffffffffffffffffffffffffffffffffffffffffffffffffffffffffffff\n        /* \"#utility.yul\":9332:9337   */\n      dup3\n        /* \"#utility.yul\":9329:9406   */\n      sub\n        /* \"#utility.yul\":9326:9429   */\n      tag_235\n      jumpi\n        /* \"#utility.yul\":9409:9427   */\n      tag_236\n      tag_145\n      jump\t// in\n    tag_236:\n        /* \"#utility.yul\":9326:9429   */\n    tag_235:\n        /* \"#utility.yul\":9456:9457   */\n      0x01\n        /* \"#utility.yul\":9449:9454   */\n      dup3\n        /* \"#utility.yul\":9445:9458   */\n      add\n        /* \"#utility.yul\":9438:9458   */\n      swap1\n      pop\n        /* \"#utility.yul\":9231:9464   */\n      swap2\n      swap1\n      pop\n      jump\t// out\n\n    auxdata: 0xa2646970667358221220311d5b1912f2da5cdb36cf7f4f9c18a565da0d9251457a0641f213422d08cc9f64736f6c63430008160033\n}\n",
				"bytecode": {
					"linkReferences": {},
					"object": "608060405234801561000f575f80fd5b5060025f806101000a81548160ff02191690836003811115610034576100336100e0565b5b02179055505f6001819055505f6002819055503360035f6101000a81548173ffffffffffffffffffffffffffffffffffffffff021916908373ffffffffffffffffffffffffffffffffffffffff16021790555073a5c398700a522d5e41eedd924dc1cb489efc096e60045f6101000a81548173ffffffffffffffffffffffffffffffffffffffff021916908373ffffffffffffffffffffffffffffffffffffffff16021790555061010d565b7f4e487b71000000000000000000000000000000000000000000000000000000005f52602160045260245ffd5b610b548061011a5f395ff3fe608060405260043610610085575f3560e01c8063920056031161005857806392005603146100f7578063bbf755561461010d578063d93737ca14610135578063f56df7c61461015d578063f9ef71b91461017b57610085565b80632c07549f14610089578063344350251461009f57806350e72f61146100b557806378dda193146100cb575b5f80fd5b348015610094575f80fd5b5061009d610191565b005b3480156100aa575f80fd5b506100b3610193565b005b3480156100c0575f80fd5b506100c96101f6565b005b3480156100d6575f80fd5b506100df610310565b6040516100ee93929190610703565b60405180910390f35b348015610102575f80fd5b5061010b610332565b005b348015610118575f80fd5b50610133600480360381019061012e9190610766565b6103d9565b005b348015610140575f80fd5b5061015b60048036038101906101569190610766565b6103e3565b005b6101656103ed565b6040516101729190610791565b60405180910390f35b348015610186575f80fd5b5061018f6104a1565b005b565b600260038111156101a7576101a6610678565b5b5f8054906101000a900460ff1660038111156101c6576101c5610678565b5b036101f4575f805f6101000a81548160ff021916908360038111156101ee576101ed610678565b5b02179055505b565b5f6001541161023a576040517f08c379a000000000000000000000000000000000000000000000000000000000815260040161023190610804565b60405180910390fd5b6001600381111561024e5761024d610678565b5b5f8054906101000a900460ff16600381111561026d5761026c610678565b5b146102ad576040517f08c379a00000000000000000000000000000000000000000000000000000000081526004016102a49061086c565b60405180910390fd5b60015f8154809291906102bf906108b7565b91905055506002805f8282546102d591906108de565b925050819055505f6001540361030e575f805f6101000a81548160ff0219169083600381111561030857610307610678565b5b02179055505b565b5f805f805f9054906101000a900460ff16600154600254925092509250909192565b5f60015414610376576040517f08c379a000000000000000000000000000000000000000000000000000000000815260040161036d90610981565b60405180910390fd5b5f600381111561038957610388610678565b5b5f8054906101000a900460ff1660038111156103a8576103a7610678565b5b036103d75760025f806101000a81548160ff021916908360038111156103d1576103d0610678565b5b02179055505b565b8060018190555050565b8060028190555050565b5f6002600381111561040257610401610678565b5b5f8054906101000a900460ff16600381111561042157610420610678565b5b148061045c575060038081111561043b5761043a610678565b5b5f8054906101000a900460ff16600381111561045a57610459610678565b5b145b61049b576040517f08c379a0000000000000000000000000000000000000000000000000000000008152600401610492906109e9565b60405180910390fd5b34905090565b6046600154106104e6576040517f08c379a00000000000000000000000000000000000000000000000000000000081526004016104dd90610a51565b60405180910390fd5b601e6002541161052b576040517f08c379a000000000000000000000000000000000000000000000000000000000815260040161052290610ab9565b60405180910390fd5b5f600381111561053e5761053d610678565b5b5f8054906101000a900460ff16600381111561055d5761055c610678565b5b148061059957506001600381111561057857610577610678565b5b5f8054906101000a900460ff16600381111561059757610596610678565b5b145b6105d8576040517f08c379a00000000000000000000000000000000000000000000000000000000081526004016105cf9061086c565b60405180910390fd5b5f60015414801561061857505f60038111156105f7576105f6610678565b5b5f8054906101000a900460ff16600381111561061657610615610678565b5b145b156106475760015f806101000a81548160ff0219169083600381111561064157610640610678565b5b02179055505b60015f81548092919061065990610ad7565b91905055506002805f82825461066f91906108de565b92505081905550565b7f4e487b71000000000000000000000000000000000000000000000000000000005f52602160045260245ffd5b600481106106b6576106b5610678565b5b50565b5f8190506106c6826106a5565b919050565b5f6106d5826106b9565b9050919050565b6106e5816106cb565b82525050565b5f819050919050565b6106fd816106eb565b82525050565b5f6060820190506107165f8301866106dc565b61072360208301856106f4565b61073060408301846106f4565b949350505050565b5f80fd5b610745816106eb565b811461074f575f80fd5b50565b5f813590506107608161073c565b92915050565b5f6020828403121561077b5761077a610738565b5b5f61078884828501610752565b91505092915050565b5f6020820190506107a45f8301846106f4565b92915050565b5f82825260208201905092915050565b7f5468652076656c6f6369747920697320616c726561647920302e0000000000005f82015250565b5f6107ee601a836107aa565b91506107f9826107ba565b602082019050919050565b5f6020820190508181035f83015261081b816107e2565b9050919050565b7f54686520636172206973206e6f74206d6f76696e672e000000000000000000005f82015250565b5f6108566016836107aa565b915061086182610822565b602082019050919050565b5f6020820190508181035f8301526108838161084a565b9050919050565b7f4e487b71000000000000000000000000000000000000000000000000000000005f52601160045260245ffd5b5f6108c1826106eb565b91505f82036108d3576108d261088a565b5b600182039050919050565b5f6108e8826106eb565b91506108f3836106eb565b925082820390508181111561090b5761090a61088a565b5b92915050565b7f596f752063616e2774207475726e206f66662074686520656e67696e652077685f8201527f696c65207468652063617220697320696e206d6f74696f6e2e00000000000000602082015250565b5f61096b6039836107aa565b915061097682610911565b604082019050919050565b5f6020820190508181035f8301526109988161095f565b9050919050565b7f43616e6e6f742072656675656c207768696c652064726976696e672e000000005f82015250565b5f6109d3601c836107aa565b91506109de8261099f565b602082019050919050565b5f6020820190508181035f830152610a00816109c7565b9050919050565b7f4974277320616c726561647920746f6f206661737420656e6f7567682e0000005f82015250565b5f610a3b601d836107aa565b9150610a4682610a07565b602082019050919050565b5f6020820190508181035f830152610a6881610a2f565b9050919050565b7f4d6f7265206675656c206973206e6565646564000000000000000000000000005f82015250565b5f610aa36013836107aa565b9150610aae82610a6f565b602082019050919050565b5f6020820190508181035f830152610ad081610a97565b9050919050565b5f610ae1826106eb565b91507fffffffffffffffffffffffffffffffffffffffffffffffffffffffffffffffff8203610b1357610b1261088a565b5b60018201905091905056fea2646970667358221220311d5b1912f2da5cdb36cf7f4f9c18a565da0d9251457a0641f213422d08cc9f64736f6c63430008160033",
					"opcodes": "PUSH1 0x80 PUSH1 0x40 MSTORE CALLVALUE DUP1 ISZERO PUSH2 0xF JUMPI PUSH0 DUP1 REVERT JUMPDEST POP PUSH1 0x2 PUSH0 DUP1 PUSH2 0x100 EXP DUP2 SLOAD DUP2 PUSH1 0xFF MUL NOT AND SWAP1 DUP4 PUSH1 0x3 DUP2 GT ISZERO PUSH2 0x34 JUMPI PUSH2 0x33 PUSH2 0xE0 JUMP JUMPDEST JUMPDEST MUL OR SWAP1 SSTORE POP PUSH0 PUSH1 0x1 DUP2 SWAP1 SSTORE POP PUSH0 PUSH1 0x2 DUP2 SWAP1 SSTORE POP CALLER PUSH1 0x3 PUSH0 PUSH2 0x100 EXP DUP2 SLOAD DUP2 PUSH20 0xFFFFFFFFFFFFFFFFFFFFFFFFFFFFFFFFFFFFFFFF MUL NOT AND SWAP1 DUP4 PUSH20 0xFFFFFFFFFFFFFFFFFFFFFFFFFFFFFFFFFFFFFFFF AND MUL OR SWAP1 SSTORE POP PUSH20 0xA5C398700A522D5E41EEDD924DC1CB489EFC096E PUSH1 0x4 PUSH0 PUSH2 0x100 EXP DUP2 SLOAD DUP2 PUSH20 0xFFFFFFFFFFFFFFFFFFFFFFFFFFFFFFFFFFFFFFFF MUL NOT AND SWAP1 DUP4 PUSH20 0xFFFFFFFFFFFFFFFFFFFFFFFFFFFFFFFFFFFFFFFF AND MUL OR SWAP1 SSTORE POP PUSH2 0x10D JUMP JUMPDEST PUSH32 0x4E487B7100000000000000000000000000000000000000000000000000000000 PUSH0 MSTORE PUSH1 0x21 PUSH1 0x4 MSTORE PUSH1 0x24 PUSH0 REVERT JUMPDEST PUSH2 0xB54 DUP1 PUSH2 0x11A PUSH0 CODECOPY PUSH0 RETURN INVALID PUSH1 0x80 PUSH1 0x40 MSTORE PUSH1 0x4 CALLDATASIZE LT PUSH2 0x85 JUMPI PUSH0 CALLDATALOAD PUSH1 0xE0 SHR DUP1 PUSH4 0x92005603 GT PUSH2 0x58 JUMPI DUP1 PUSH4 0x92005603 EQ PUSH2 0xF7 JUMPI DUP1 PUSH4 0xBBF75556 EQ PUSH2 0x10D JUMPI DUP1 PUSH4 0xD93737CA EQ PUSH2 0x135 JUMPI DUP1 PUSH4 0xF56DF7C6 EQ PUSH2 0x15D JUMPI DUP1 PUSH4 0xF9EF71B9 EQ PUSH2 0x17B JUMPI PUSH2 0x85 JUMP JUMPDEST DUP1 PUSH4 0x2C07549F EQ PUSH2 0x89 JUMPI DUP1 PUSH4 0x34435025 EQ PUSH2 0x9F JUMPI DUP1 PUSH4 0x50E72F61 EQ PUSH2 0xB5 JUMPI DUP1 PUSH4 0x78DDA193 EQ PUSH2 0xCB JUMPI JUMPDEST PUSH0 DUP1 REVERT JUMPDEST CALLVALUE DUP1 ISZERO PUSH2 0x94 JUMPI PUSH0 DUP1 REVERT JUMPDEST POP PUSH2 0x9D PUSH2 0x191 JUMP JUMPDEST STOP JUMPDEST CALLVALUE DUP1 ISZERO PUSH2 0xAA JUMPI PUSH0 DUP1 REVERT JUMPDEST POP PUSH2 0xB3 PUSH2 0x193 JUMP JUMPDEST STOP JUMPDEST CALLVALUE DUP1 ISZERO PUSH2 0xC0 JUMPI PUSH0 DUP1 REVERT JUMPDEST POP PUSH2 0xC9 PUSH2 0x1F6 JUMP JUMPDEST STOP JUMPDEST CALLVALUE DUP1 ISZERO PUSH2 0xD6 JUMPI PUSH0 DUP1 REVERT JUMPDEST POP PUSH2 0xDF PUSH2 0x310 JUMP JUMPDEST PUSH1 0x40 MLOAD PUSH2 0xEE SWAP4 SWAP3 SWAP2 SWAP1 PUSH2 0x703 JUMP JUMPDEST PUSH1 0x40 MLOAD DUP1 SWAP2 SUB SWAP1 RETURN JUMPDEST CALLVALUE DUP1 ISZERO PUSH2 0x102 JUMPI PUSH0 DUP1 REVERT JUMPDEST POP PUSH2 0x10B PUSH2 0x332 JUMP JUMPDEST STOP JUMPDEST CALLVALUE DUP1 ISZERO PUSH2 0x118 JUMPI PUSH0 DUP1 REVERT JUMPDEST POP PUSH2 0x133 PUSH1 0x4 DUP1 CALLDATASIZE SUB DUP2 ADD SWAP1 PUSH2 0x12E SWAP2 SWAP1 PUSH2 0x766 JUMP JUMPDEST PUSH2 0x3D9 JUMP JUMPDEST STOP JUMPDEST CALLVALUE DUP1 ISZERO PUSH2 0x140 JUMPI PUSH0 DUP1 REVERT JUMPDEST POP PUSH2 0x15B PUSH1 0x4 DUP1 CALLDATASIZE SUB DUP2 ADD SWAP1 PUSH2 0x156 SWAP2 SWAP1 PUSH2 0x766 JUMP JUMPDEST PUSH2 0x3E3 JUMP JUMPDEST STOP JUMPDEST PUSH2 0x165 PUSH2 0x3ED JUMP JUMPDEST PUSH1 0x40 MLOAD PUSH2 0x172 SWAP2 SWAP1 PUSH2 0x791 JUMP JUMPDEST PUSH1 0x40 MLOAD DUP1 SWAP2 SUB SWAP1 RETURN JUMPDEST CALLVALUE DUP1 ISZERO PUSH2 0x186 JUMPI PUSH0 DUP1 REVERT JUMPDEST POP PUSH2 0x18F PUSH2 0x4A1 JUMP JUMPDEST STOP JUMPDEST JUMP JUMPDEST PUSH1 0x2 PUSH1 0x3 DUP2 GT ISZERO PUSH2 0x1A7 JUMPI PUSH2 0x1A6 PUSH2 0x678 JUMP JUMPDEST JUMPDEST PUSH0 DUP1 SLOAD SWAP1 PUSH2 0x100 EXP SWAP1 DIV PUSH1 0xFF AND PUSH1 0x3 DUP2 GT ISZERO PUSH2 0x1C6 JUMPI PUSH2 0x1C5 PUSH2 0x678 JUMP JUMPDEST JUMPDEST SUB PUSH2 0x1F4 JUMPI PUSH0 DUP1 PUSH0 PUSH2 0x100 EXP DUP2 SLOAD DUP2 PUSH1 0xFF MUL NOT AND SWAP1 DUP4 PUSH1 0x3 DUP2 GT ISZERO PUSH2 0x1EE JUMPI PUSH2 0x1ED PUSH2 0x678 JUMP JUMPDEST JUMPDEST MUL OR SWAP1 SSTORE POP JUMPDEST JUMP JUMPDEST PUSH0 PUSH1 0x1 SLOAD GT PUSH2 0x23A JUMPI PUSH1 0x40 MLOAD PUSH32 0x8C379A000000000000000000000000000000000000000000000000000000000 DUP2 MSTORE PUSH1 0x4 ADD PUSH2 0x231 SWAP1 PUSH2 0x804 JUMP JUMPDEST PUSH1 0x40 MLOAD DUP1 SWAP2 SUB SWAP1 REVERT JUMPDEST PUSH1 0x1 PUSH1 0x3 DUP2 GT ISZERO PUSH2 0x24E JUMPI PUSH2 0x24D PUSH2 0x678 JUMP JUMPDEST JUMPDEST PUSH0 DUP1 SLOAD SWAP1 PUSH2 0x100 EXP SWAP1 DIV PUSH1 0xFF AND PUSH1 0x3 DUP2 GT ISZERO PUSH2 0x26D JUMPI PUSH2 0x26C PUSH2 0x678 JUMP JUMPDEST JUMPDEST EQ PUSH2 0x2AD JUMPI PUSH1 0x40 MLOAD PUSH32 0x8C379A000000000000000000000000000000000000000000000000000000000 DUP2 MSTORE PUSH1 0x4 ADD PUSH2 0x2A4 SWAP1 PUSH2 0x86C JUMP JUMPDEST PUSH1 0x40 MLOAD DUP1 SWAP2 SUB SWAP1 REVERT JUMPDEST PUSH1 0x1 PUSH0 DUP2 SLOAD DUP1 SWAP3 SWAP2 SWAP1 PUSH2 0x2BF SWAP1 PUSH2 0x8B7 JUMP JUMPDEST SWAP2 SWAP1 POP SSTORE POP PUSH1 0x2 DUP1 PUSH0 DUP3 DUP3 SLOAD PUSH2 0x2D5 SWAP2 SWAP1 PUSH2 0x8DE JUMP JUMPDEST SWAP3 POP POP DUP2 SWAP1 SSTORE POP PUSH0 PUSH1 0x1 SLOAD SUB PUSH2 0x30E JUMPI PUSH0 DUP1 PUSH0 PUSH2 0x100 EXP DUP2 SLOAD DUP2 PUSH1 0xFF MUL NOT AND SWAP1 DUP4 PUSH1 0x3 DUP2 GT ISZERO PUSH2 0x308 JUMPI PUSH2 0x307 PUSH2 0x678 JUMP JUMPDEST JUMPDEST MUL OR SWAP1 SSTORE POP JUMPDEST JUMP JUMPDEST PUSH0 DUP1 PUSH0 DUP1 PUSH0 SWAP1 SLOAD SWAP1 PUSH2 0x100 EXP SWAP1 DIV PUSH1 0xFF AND PUSH1 0x1 SLOAD PUSH1 0x2 SLOAD SWAP3 POP SWAP3 POP SWAP3 POP SWAP1 SWAP2 SWAP3 JUMP JUMPDEST PUSH0 PUSH1 0x1 SLOAD EQ PUSH2 0x376 JUMPI PUSH1 0x40 MLOAD PUSH32 0x8C379A000000000000000000000000000000000000000000000000000000000 DUP2 MSTORE PUSH1 0x4 ADD PUSH2 0x36D SWAP1 PUSH2 0x981 JUMP JUMPDEST PUSH1 0x40 MLOAD DUP1 SWAP2 SUB SWAP1 REVERT JUMPDEST PUSH0 PUSH1 0x3 DUP2 GT ISZERO PUSH2 0x389 JUMPI PUSH2 0x388 PUSH2 0x678 JUMP JUMPDEST JUMPDEST PUSH0 DUP1 SLOAD SWAP1 PUSH2 0x100 EXP SWAP1 DIV PUSH1 0xFF AND PUSH1 0x3 DUP2 GT ISZERO PUSH2 0x3A8 JUMPI PUSH2 0x3A7 PUSH2 0x678 JUMP JUMPDEST JUMPDEST SUB PUSH2 0x3D7 JUMPI PUSH1 0x2 PUSH0 DUP1 PUSH2 0x100 EXP DUP2 SLOAD DUP2 PUSH1 0xFF MUL NOT AND SWAP1 DUP4 PUSH1 0x3 DUP2 GT ISZERO PUSH2 0x3D1 JUMPI PUSH2 0x3D0 PUSH2 0x678 JUMP JUMPDEST JUMPDEST MUL OR SWAP1 SSTORE POP JUMPDEST JUMP JUMPDEST DUP1 PUSH1 0x1 DUP2 SWAP1 SSTORE POP POP JUMP JUMPDEST DUP1 PUSH1 0x2 DUP2 SWAP1 SSTORE POP POP JUMP JUMPDEST PUSH0 PUSH1 0x2 PUSH1 0x3 DUP2 GT ISZERO PUSH2 0x402 JUMPI PUSH2 0x401 PUSH2 0x678 JUMP JUMPDEST JUMPDEST PUSH0 DUP1 SLOAD SWAP1 PUSH2 0x100 EXP SWAP1 DIV PUSH1 0xFF AND PUSH1 0x3 DUP2 GT ISZERO PUSH2 0x421 JUMPI PUSH2 0x420 PUSH2 0x678 JUMP JUMPDEST JUMPDEST EQ DUP1 PUSH2 0x45C JUMPI POP PUSH1 0x3 DUP1 DUP2 GT ISZERO PUSH2 0x43B JUMPI PUSH2 0x43A PUSH2 0x678 JUMP JUMPDEST JUMPDEST PUSH0 DUP1 SLOAD SWAP1 PUSH2 0x100 EXP SWAP1 DIV PUSH1 0xFF AND PUSH1 0x3 DUP2 GT ISZERO PUSH2 0x45A JUMPI PUSH2 0x459 PUSH2 0x678 JUMP JUMPDEST JUMPDEST EQ JUMPDEST PUSH2 0x49B JUMPI PUSH1 0x40 MLOAD PUSH32 0x8C379A000000000000000000000000000000000000000000000000000000000 DUP2 MSTORE PUSH1 0x4 ADD PUSH2 0x492 SWAP1 PUSH2 0x9E9 JUMP JUMPDEST PUSH1 0x40 MLOAD DUP1 SWAP2 SUB SWAP1 REVERT JUMPDEST CALLVALUE SWAP1 POP SWAP1 JUMP JUMPDEST PUSH1 0x46 PUSH1 0x1 SLOAD LT PUSH2 0x4E6 JUMPI PUSH1 0x40 MLOAD PUSH32 0x8C379A000000000000000000000000000000000000000000000000000000000 DUP2 MSTORE PUSH1 0x4 ADD PUSH2 0x4DD SWAP1 PUSH2 0xA51 JUMP JUMPDEST PUSH1 0x40 MLOAD DUP1 SWAP2 SUB SWAP1 REVERT JUMPDEST PUSH1 0x1E PUSH1 0x2 SLOAD GT PUSH2 0x52B JUMPI PUSH1 0x40 MLOAD PUSH32 0x8C379A000000000000000000000000000000000000000000000000000000000 DUP2 MSTORE PUSH1 0x4 ADD PUSH2 0x522 SWAP1 PUSH2 0xAB9 JUMP JUMPDEST PUSH1 0x40 MLOAD DUP1 SWAP2 SUB SWAP1 REVERT JUMPDEST PUSH0 PUSH1 0x3 DUP2 GT ISZERO PUSH2 0x53E JUMPI PUSH2 0x53D PUSH2 0x678 JUMP JUMPDEST JUMPDEST PUSH0 DUP1 SLOAD SWAP1 PUSH2 0x100 EXP SWAP1 DIV PUSH1 0xFF AND PUSH1 0x3 DUP2 GT ISZERO PUSH2 0x55D JUMPI PUSH2 0x55C PUSH2 0x678 JUMP JUMPDEST JUMPDEST EQ DUP1 PUSH2 0x599 JUMPI POP PUSH1 0x1 PUSH1 0x3 DUP2 GT ISZERO PUSH2 0x578 JUMPI PUSH2 0x577 PUSH2 0x678 JUMP JUMPDEST JUMPDEST PUSH0 DUP1 SLOAD SWAP1 PUSH2 0x100 EXP SWAP1 DIV PUSH1 0xFF AND PUSH1 0x3 DUP2 GT ISZERO PUSH2 0x597 JUMPI PUSH2 0x596 PUSH2 0x678 JUMP JUMPDEST JUMPDEST EQ JUMPDEST PUSH2 0x5D8 JUMPI PUSH1 0x40 MLOAD PUSH32 0x8C379A000000000000000000000000000000000000000000000000000000000 DUP2 MSTORE PUSH1 0x4 ADD PUSH2 0x5CF SWAP1 PUSH2 0x86C JUMP JUMPDEST PUSH1 0x40 MLOAD DUP1 SWAP2 SUB SWAP1 REVERT JUMPDEST PUSH0 PUSH1 0x1 SLOAD EQ DUP1 ISZERO PUSH2 0x618 JUMPI POP PUSH0 PUSH1 0x3 DUP2 GT ISZERO PUSH2 0x5F7 JUMPI PUSH2 0x5F6 PUSH2 0x678 JUMP JUMPDEST JUMPDEST PUSH0 DUP1 SLOAD SWAP1 PUSH2 0x100 EXP SWAP1 DIV PUSH1 0xFF AND PUSH1 0x3 DUP2 GT ISZERO PUSH2 0x616 JUMPI PUSH2 0x615 PUSH2 0x678 JUMP JUMPDEST JUMPDEST EQ JUMPDEST ISZERO PUSH2 0x647 JUMPI PUSH1 0x1 PUSH0 DUP1 PUSH2 0x100 EXP DUP2 SLOAD DUP2 PUSH1 0xFF MUL NOT AND SWAP1 DUP4 PUSH1 0x3 DUP2 GT ISZERO PUSH2 0x641 JUMPI PUSH2 0x640 PUSH2 0x678 JUMP JUMPDEST JUMPDEST MUL OR SWAP1 SSTORE POP JUMPDEST PUSH1 0x1 PUSH0 DUP2 SLOAD DUP1 SWAP3 SWAP2 SWAP1 PUSH2 0x659 SWAP1 PUSH2 0xAD7 JUMP JUMPDEST SWAP2 SWAP1 POP SSTORE POP PUSH1 0x2 DUP1 PUSH0 DUP3 DUP3 SLOAD PUSH2 0x66F SWAP2 SWAP1 PUSH2 0x8DE JUMP JUMPDEST SWAP3 POP POP DUP2 SWAP1 SSTORE POP JUMP JUMPDEST PUSH32 0x4E487B7100000000000000000000000000000000000000000000000000000000 PUSH0 MSTORE PUSH1 0x21 PUSH1 0x4 MSTORE PUSH1 0x24 PUSH0 REVERT JUMPDEST PUSH1 0x4 DUP2 LT PUSH2 0x6B6 JUMPI PUSH2 0x6B5 PUSH2 0x678 JUMP JUMPDEST JUMPDEST POP JUMP JUMPDEST PUSH0 DUP2 SWAP1 POP PUSH2 0x6C6 DUP3 PUSH2 0x6A5 JUMP JUMPDEST SWAP2 SWAP1 POP JUMP JUMPDEST PUSH0 PUSH2 0x6D5 DUP3 PUSH2 0x6B9 JUMP JUMPDEST SWAP1 POP SWAP2 SWAP1 POP JUMP JUMPDEST PUSH2 0x6E5 DUP2 PUSH2 0x6CB JUMP JUMPDEST DUP3 MSTORE POP POP JUMP JUMPDEST PUSH0 DUP2 SWAP1 POP SWAP2 SWAP1 POP JUMP JUMPDEST PUSH2 0x6FD DUP2 PUSH2 0x6EB JUMP JUMPDEST DUP3 MSTORE POP POP JUMP JUMPDEST PUSH0 PUSH1 0x60 DUP3 ADD SWAP1 POP PUSH2 0x716 PUSH0 DUP4 ADD DUP7 PUSH2 0x6DC JUMP JUMPDEST PUSH2 0x723 PUSH1 0x20 DUP4 ADD DUP6 PUSH2 0x6F4 JUMP JUMPDEST PUSH2 0x730 PUSH1 0x40 DUP4 ADD DUP5 PUSH2 0x6F4 JUMP JUMPDEST SWAP5 SWAP4 POP POP POP POP JUMP JUMPDEST PUSH0 DUP1 REVERT JUMPDEST PUSH2 0x745 DUP2 PUSH2 0x6EB JUMP JUMPDEST DUP2 EQ PUSH2 0x74F JUMPI PUSH0 DUP1 REVERT JUMPDEST POP JUMP JUMPDEST PUSH0 DUP2 CALLDATALOAD SWAP1 POP PUSH2 0x760 DUP2 PUSH2 0x73C JUMP JUMPDEST SWAP3 SWAP2 POP POP JUMP JUMPDEST PUSH0 PUSH1 0x20 DUP3 DUP5 SUB SLT ISZERO PUSH2 0x77B JUMPI PUSH2 0x77A PUSH2 0x738 JUMP JUMPDEST JUMPDEST PUSH0 PUSH2 0x788 DUP5 DUP3 DUP6 ADD PUSH2 0x752 JUMP JUMPDEST SWAP2 POP POP SWAP3 SWAP2 POP POP JUMP JUMPDEST PUSH0 PUSH1 0x20 DUP3 ADD SWAP1 POP PUSH2 0x7A4 PUSH0 DUP4 ADD DUP5 PUSH2 0x6F4 JUMP JUMPDEST SWAP3 SWAP2 POP POP JUMP JUMPDEST PUSH0 DUP3 DUP3 MSTORE PUSH1 0x20 DUP3 ADD SWAP1 POP SWAP3 SWAP2 POP POP JUMP JUMPDEST PUSH32 0x5468652076656C6F6369747920697320616C726561647920302E000000000000 PUSH0 DUP3 ADD MSTORE POP JUMP JUMPDEST PUSH0 PUSH2 0x7EE PUSH1 0x1A DUP4 PUSH2 0x7AA JUMP JUMPDEST SWAP2 POP PUSH2 0x7F9 DUP3 PUSH2 0x7BA JUMP JUMPDEST PUSH1 0x20 DUP3 ADD SWAP1 POP SWAP2 SWAP1 POP JUMP JUMPDEST PUSH0 PUSH1 0x20 DUP3 ADD SWAP1 POP DUP2 DUP2 SUB PUSH0 DUP4 ADD MSTORE PUSH2 0x81B DUP2 PUSH2 0x7E2 JUMP JUMPDEST SWAP1 POP SWAP2 SWAP1 POP JUMP JUMPDEST PUSH32 0x54686520636172206973206E6F74206D6F76696E672E00000000000000000000 PUSH0 DUP3 ADD MSTORE POP JUMP JUMPDEST PUSH0 PUSH2 0x856 PUSH1 0x16 DUP4 PUSH2 0x7AA JUMP JUMPDEST SWAP2 POP PUSH2 0x861 DUP3 PUSH2 0x822 JUMP JUMPDEST PUSH1 0x20 DUP3 ADD SWAP1 POP SWAP2 SWAP1 POP JUMP JUMPDEST PUSH0 PUSH1 0x20 DUP3 ADD SWAP1 POP DUP2 DUP2 SUB PUSH0 DUP4 ADD MSTORE PUSH2 0x883 DUP2 PUSH2 0x84A JUMP JUMPDEST SWAP1 POP SWAP2 SWAP1 POP JUMP JUMPDEST PUSH32 0x4E487B7100000000000000000000000000000000000000000000000000000000 PUSH0 MSTORE PUSH1 0x11 PUSH1 0x4 MSTORE PUSH1 0x24 PUSH0 REVERT JUMPDEST PUSH0 PUSH2 0x8C1 DUP3 PUSH2 0x6EB JUMP JUMPDEST SWAP2 POP PUSH0 DUP3 SUB PUSH2 0x8D3 JUMPI PUSH2 0x8D2 PUSH2 0x88A JUMP JUMPDEST JUMPDEST PUSH1 0x1 DUP3 SUB SWAP1 POP SWAP2 SWAP1 POP JUMP JUMPDEST PUSH0 PUSH2 0x8E8 DUP3 PUSH2 0x6EB JUMP JUMPDEST SWAP2 POP PUSH2 0x8F3 DUP4 PUSH2 0x6EB JUMP JUMPDEST SWAP3 POP DUP3 DUP3 SUB SWAP1 POP DUP2 DUP2 GT ISZERO PUSH2 0x90B JUMPI PUSH2 0x90A PUSH2 0x88A JUMP JUMPDEST JUMPDEST SWAP3 SWAP2 POP POP JUMP JUMPDEST PUSH32 0x596F752063616E2774207475726E206F66662074686520656E67696E65207768 PUSH0 DUP3 ADD MSTORE PUSH32 0x696C65207468652063617220697320696E206D6F74696F6E2E00000000000000 PUSH1 0x20 DUP3 ADD MSTORE POP JUMP JUMPDEST PUSH0 PUSH2 0x96B PUSH1 0x39 DUP4 PUSH2 0x7AA JUMP JUMPDEST SWAP2 POP PUSH2 0x976 DUP3 PUSH2 0x911 JUMP JUMPDEST PUSH1 0x40 DUP3 ADD SWAP1 POP SWAP2 SWAP1 POP JUMP JUMPDEST PUSH0 PUSH1 0x20 DUP3 ADD SWAP1 POP DUP2 DUP2 SUB PUSH0 DUP4 ADD MSTORE PUSH2 0x998 DUP2 PUSH2 0x95F JUMP JUMPDEST SWAP1 POP SWAP2 SWAP1 POP JUMP JUMPDEST PUSH32 0x43616E6E6F742072656675656C207768696C652064726976696E672E00000000 PUSH0 DUP3 ADD MSTORE POP JUMP JUMPDEST PUSH0 PUSH2 0x9D3 PUSH1 0x1C DUP4 PUSH2 0x7AA JUMP JUMPDEST SWAP2 POP PUSH2 0x9DE DUP3 PUSH2 0x99F JUMP JUMPDEST PUSH1 0x20 DUP3 ADD SWAP1 POP SWAP2 SWAP1 POP JUMP JUMPDEST PUSH0 PUSH1 0x20 DUP3 ADD SWAP1 POP DUP2 DUP2 SUB PUSH0 DUP4 ADD MSTORE PUSH2 0xA00 DUP2 PUSH2 0x9C7 JUMP JUMPDEST SWAP1 POP SWAP2 SWAP1 POP JUMP JUMPDEST PUSH32 0x4974277320616C726561647920746F6F206661737420656E6F7567682E000000 PUSH0 DUP3 ADD MSTORE POP JUMP JUMPDEST PUSH0 PUSH2 0xA3B PUSH1 0x1D DUP4 PUSH2 0x7AA JUMP JUMPDEST SWAP2 POP PUSH2 0xA46 DUP3 PUSH2 0xA07 JUMP JUMPDEST PUSH1 0x20 DUP3 ADD SWAP1 POP SWAP2 SWAP1 POP JUMP JUMPDEST PUSH0 PUSH1 0x20 DUP3 ADD SWAP1 POP DUP2 DUP2 SUB PUSH0 DUP4 ADD MSTORE PUSH2 0xA68 DUP2 PUSH2 0xA2F JUMP JUMPDEST SWAP1 POP SWAP2 SWAP1 POP JUMP JUMPDEST PUSH32 0x4D6F7265206675656C206973206E656564656400000000000000000000000000 PUSH0 DUP3 ADD MSTORE POP JUMP JUMPDEST PUSH0 PUSH2 0xAA3 PUSH1 0x13 DUP4 PUSH2 0x7AA JUMP JUMPDEST SWAP2 POP PUSH2 0xAAE DUP3 PUSH2 0xA6F JUMP JUMPDEST PUSH1 0x20 DUP3 ADD SWAP1 POP SWAP2 SWAP1 POP JUMP JUMPDEST PUSH0 PUSH1 0x20 DUP3 ADD SWAP1 POP DUP2 DUP2 SUB PUSH0 DUP4 ADD MSTORE PUSH2 0xAD0 DUP2 PUSH2 0xA97 JUMP JUMPDEST SWAP1 POP SWAP2 SWAP1 POP JUMP JUMPDEST PUSH0 PUSH2 0xAE1 DUP3 PUSH2 0x6EB JUMP JUMPDEST SWAP2 POP PUSH32 0xFFFFFFFFFFFFFFFFFFFFFFFFFFFFFFFFFFFFFFFFFFFFFFFFFFFFFFFFFFFFFFFF DUP3 SUB PUSH2 0xB13 JUMPI PUSH2 0xB12 PUSH2 0x88A JUMP JUMPDEST JUMPDEST PUSH1 0x1 DUP3 ADD SWAP1 POP SWAP2 SWAP1 POP JUMP INVALID LOG2 PUSH5 0x6970667358 0x22 SLT KECCAK256 BALANCE SAR JUMPDEST NOT SLT CALLCODE 0xDA 0x5C 0xDB CALLDATASIZE 0xCF PUSH32 0x4F9C18A565DA0D9251457A0641F213422D08CC9F64736F6C6343000816003300 "
				},
				"gasEstimates": {
					"creation": {
						"codeDepositCost": "580000",
						"executionCost": "83466",
						"totalCost": "663466"
					},
					"external": {
						"Accelerator()": "infinite",
						"Break()": "infinite",
						"RechargeGasCard()": "144",
						"Refuel()": "4890",
						"TurnOff()": "28757",
						"TurnOn()": "26658",
						"getCarState()": "infinite",
						"setFuelforTest(uint256)": "22559",
						"setVelocityforTest(uint256)": "22537"
					}
				},
				"methodIdentifiers": {
					"Accelerator()": "f9ef71b9",
					"Break()": "50e72f61",
					"RechargeGasCard()": "2c07549f",
					"Refuel()": "f56df7c6",
					"TurnOff()": "92005603",
					"TurnOn()": "34435025",
					"getCarState()": "78dda193",
					"setFuelforTest(uint256)": "d93737ca",
					"setVelocityforTest(uint256)": "bbf75556"
				}
			},
			"storageLayout": {
				"storage": [
					{
						"astId": 9,
						"contract": "Exam_20231228.sol:Humby",
						"label": "carStatus",
						"offset": 0,
						"slot": "0",
						"type": "t_enum(Status)6"
					},
					{
						"astId": 11,
						"contract": "Exam_20231228.sol:Humby",
						"label": "carVelocity",
						"offset": 0,
						"slot": "1",
						"type": "t_uint256"
					},
					{
						"astId": 13,
						"contract": "Exam_20231228.sol:Humby",
						"label": "carFuel",
						"offset": 0,
						"slot": "2",
						"type": "t_uint256"
					},
					{
						"astId": 15,
						"contract": "Exam_20231228.sol:Humby",
						"label": "owner",
						"offset": 0,
						"slot": "3",
						"type": "t_address_payable"
					},
					{
						"astId": 17,
						"contract": "Exam_20231228.sol:Humby",
						"label": "gasStation",
						"offset": 0,
						"slot": "4",
						"type": "t_address"
					}
				],
				"types": {
					"t_address": {
						"encoding": "inplace",
						"label": "address",
						"numberOfBytes": "20"
					},
					"t_address_payable": {
						"encoding": "inplace",
						"label": "address payable",
						"numberOfBytes": "20"
					},
					"t_enum(Status)6": {
						"encoding": "inplace",
						"label": "enum Humby.Status",
						"numberOfBytes": "1"
					},
					"t_uint256": {
						"encoding": "inplace",
						"label": "uint256",
						"numberOfBytes": "32"
					}
				}
			},
			"userdoc": {
				"kind": "user",
				"methods": {},
				"version": 1
			}
		}
	}
}