{
	"basic_31_36.sol": {
		"Basic_31_36": {
			"abi": [
				{
					"inputs": [
						{
							"internalType": "string",
							"name": "_name",
							"type": "string"
						}
					],
					"name": "checkAliceOrBob",
					"outputs": [
						{
							"internalType": "bool",
							"name": "",
							"type": "bool"
						}
					],
					"stateMutability": "pure",
					"type": "function"
				},
				{
					"inputs": [
						{
							"internalType": "uint256",
							"name": "_n",
							"type": "uint256"
						}
					],
					"name": "checkLevel",
					"outputs": [
						{
							"internalType": "enum Basic_31_36.Level",
							"name": "",
							"type": "uint8"
						}
					],
					"stateMutability": "nonpayable",
					"type": "function"
				},
				{
					"inputs": [],
					"name": "getArrayFor5_EvenElements",
					"outputs": [
						{
							"internalType": "uint256[]",
							"name": "",
							"type": "uint256[]"
						}
					],
					"stateMutability": "view",
					"type": "function"
				},
				{
					"inputs": [],
					"name": "getAvgScore",
					"outputs": [
						{
							"internalType": "uint256",
							"name": "",
							"type": "uint256"
						}
					],
					"stateMutability": "view",
					"type": "function"
				},
				{
					"inputs": [
						{
							"internalType": "string",
							"name": "_name",
							"type": "string"
						}
					],
					"name": "getClient",
					"outputs": [
						{
							"components": [
								{
									"internalType": "uint256",
									"name": "number",
									"type": "uint256"
								},
								{
									"internalType": "address",
									"name": "wallet",
									"type": "address"
								},
								{
									"internalType": "uint256",
									"name": "birthday",
									"type": "uint256"
								}
							],
							"internalType": "struct Basic_31_36.client",
							"name": "",
							"type": "tuple"
						}
					],
					"stateMutability": "view",
					"type": "function"
				},
				{
					"inputs": [
						{
							"internalType": "uint256",
							"name": "_number",
							"type": "uint256"
						}
					],
					"name": "getStudent",
					"outputs": [
						{
							"components": [
								{
									"internalType": "string",
									"name": "name",
									"type": "string"
								},
								{
									"internalType": "uint256",
									"name": "number",
									"type": "uint256"
								},
								{
									"internalType": "uint256",
									"name": "score",
									"type": "uint256"
								}
							],
							"internalType": "struct Basic_31_36.student",
							"name": "",
							"type": "tuple"
						}
					],
					"stateMutability": "view",
					"type": "function"
				},
				{
					"inputs": [],
					"name": "initArrayFor5",
					"outputs": [],
					"stateMutability": "nonpayable",
					"type": "function"
				},
				{
					"inputs": [],
					"name": "initStudent",
					"outputs": [],
					"stateMutability": "nonpayable",
					"type": "function"
				},
				{
					"inputs": [
						{
							"internalType": "uint256",
							"name": "_n",
							"type": "uint256"
						}
					],
					"name": "pushNumbers",
					"outputs": [],
					"stateMutability": "nonpayable",
					"type": "function"
				},
				{
					"inputs": [
						{
							"internalType": "uint256",
							"name": "_n",
							"type": "uint256"
						}
					],
					"name": "putArrayFor2",
					"outputs": [],
					"stateMutability": "nonpayable",
					"type": "function"
				},
				{
					"inputs": [],
					"name": "putEvenElements",
					"outputs": [
						{
							"internalType": "uint256[]",
							"name": "",
							"type": "uint256[]"
						}
					],
					"stateMutability": "view",
					"type": "function"
				},
				{
					"inputs": [
						{
							"internalType": "uint256",
							"name": "_n",
							"type": "uint256"
						}
					],
					"name": "setArrayFor5",
					"outputs": [],
					"stateMutability": "nonpayable",
					"type": "function"
				},
				{
					"inputs": [
						{
							"internalType": "string",
							"name": "_name",
							"type": "string"
						},
						{
							"internalType": "uint256",
							"name": "_number",
							"type": "uint256"
						},
						{
							"internalType": "address",
							"name": "_wallet",
							"type": "address"
						},
						{
							"internalType": "uint256",
							"name": "_birthday",
							"type": "uint256"
						}
					],
					"name": "setClient",
					"outputs": [],
					"stateMutability": "nonpayable",
					"type": "function"
				},
				{
					"inputs": [
						{
							"internalType": "string",
							"name": "_name",
							"type": "string"
						},
						{
							"internalType": "uint256",
							"name": "_number",
							"type": "uint256"
						},
						{
							"internalType": "uint256",
							"name": "_score",
							"type": "uint256"
						}
					],
					"name": "setStudent",
					"outputs": [],
					"stateMutability": "nonpayable",
					"type": "function"
				}
			],
			"devdoc": {
				"kind": "dev",
				"methods": {},
				"version": 1
			},
			"evm": {
				"assembly": "    /* \"basic_31_36.sol\":72:5243  contract Basic_31_36{... */\n  mstore(0x40, 0x80)\n  callvalue\n  dup1\n  iszero\n  tag_1\n  jumpi\n  0x00\n  dup1\n  revert\ntag_1:\n  pop\n  dataSize(sub_0)\n  dup1\n  dataOffset(sub_0)\n  0x00\n  codecopy\n  0x00\n  return\nstop\n\nsub_0: assembly {\n        /* \"basic_31_36.sol\":72:5243  contract Basic_31_36{... */\n      mstore(0x40, 0x80)\n      callvalue\n      dup1\n      iszero\n      tag_1\n      jumpi\n      0x00\n      dup1\n      revert\n    tag_1:\n      pop\n      jumpi(tag_2, lt(calldatasize, 0x04))\n      shr(0xe0, calldataload(0x00))\n      dup1\n      0x82fae9b7\n      gt\n      tag_17\n      jumpi\n      dup1\n      0xb7a2f871\n      gt\n      tag_18\n      jumpi\n      dup1\n      0xb7a2f871\n      eq\n      tag_13\n      jumpi\n      dup1\n      0xdd49702c\n      eq\n      tag_14\n      jumpi\n      dup1\n      0xe8d113c1\n      eq\n      tag_15\n      jumpi\n      dup1\n      0xf524aa92\n      eq\n      tag_16\n      jumpi\n      jump(tag_2)\n    tag_18:\n      dup1\n      0x82fae9b7\n      eq\n      tag_10\n      jumpi\n      dup1\n      0x8385cc16\n      eq\n      tag_11\n      jumpi\n      dup1\n      0x891fd3c2\n      eq\n      tag_12\n      jumpi\n      jump(tag_2)\n    tag_17:\n      dup1\n      0x32842e70\n      gt\n      tag_19\n      jumpi\n      dup1\n      0x32842e70\n      eq\n      tag_6\n      jumpi\n      dup1\n      0x642f9163\n      eq\n      tag_7\n      jumpi\n      dup1\n      0x740d5e10\n      eq\n      tag_8\n      jumpi\n      dup1\n      0x7eb78932\n      eq\n      tag_9\n      jumpi\n      jump(tag_2)\n    tag_19:\n      dup1\n      0x0126931b\n      eq\n      tag_3\n      jumpi\n      dup1\n      0x015752d9\n      eq\n      tag_4\n      jumpi\n      dup1\n      0x11200d70\n      eq\n      tag_5\n      jumpi\n    tag_2:\n      0x00\n      dup1\n      revert\n        /* \"basic_31_36.sol\":3226:3299  function pushNumbers(uint _n) public {... */\n    tag_3:\n      tag_20\n      0x04\n      dup1\n      calldatasize\n      sub\n      dup2\n      add\n      swap1\n      tag_21\n      swap2\n      swap1\n      tag_22\n      jump\t// in\n    tag_21:\n      tag_23\n      jump\t// in\n    tag_20:\n      stop\n        /* \"basic_31_36.sol\":1561:1729  function setClient(string memory _name, uint _number, address _wallet, uint _birthday) public {... */\n    tag_4:\n      tag_24\n      0x04\n      dup1\n      calldatasize\n      sub\n      dup2\n      add\n      swap1\n      tag_25\n      swap2\n      swap1\n      tag_26\n      jump\t// in\n    tag_25:\n      tag_27\n      jump\t// in\n    tag_24:\n      stop\n        /* \"basic_31_36.sol\":4957:5238  function checkLevel(uint _n) public returns(Level){... */\n    tag_5:\n      tag_28\n      0x04\n      dup1\n      calldatasize\n      sub\n      dup2\n      add\n      swap1\n      tag_29\n      swap2\n      swap1\n      tag_22\n      jump\t// in\n    tag_29:\n      tag_30\n      jump\t// in\n    tag_28:\n      mload(0x40)\n      tag_31\n      swap2\n      swap1\n      tag_32\n      jump\t// in\n    tag_31:\n      mload(0x40)\n      dup1\n      swap2\n      sub\n      swap1\n      return\n        /* \"basic_31_36.sol\":4018:4093  function setArrayFor5(uint _n) public {... */\n    tag_6:\n      tag_33\n      0x04\n      dup1\n      calldatasize\n      sub\n      dup2\n      add\n      swap1\n      tag_34\n      swap2\n      swap1\n      tag_22\n      jump\t// in\n    tag_34:\n      tag_35\n      jump\t// in\n    tag_33:\n      stop\n        /* \"basic_31_36.sol\":2567:2683  function getStudent(uint _number) public view returns(student memory) {... */\n    tag_7:\n      tag_36\n      0x04\n      dup1\n      calldatasize\n      sub\n      dup2\n      add\n      swap1\n      tag_37\n      swap2\n      swap1\n      tag_22\n      jump\t// in\n    tag_37:\n      tag_38\n      jump\t// in\n    tag_36:\n      mload(0x40)\n      tag_39\n      swap2\n      swap1\n      tag_40\n      jump\t// in\n    tag_39:\n      mload(0x40)\n      dup1\n      swap2\n      sub\n      swap1\n      return\n        /* \"basic_31_36.sol\":2691:2920  function getAvgScore() public view returns(uint) {... */\n    tag_8:\n      tag_41\n      tag_42\n      jump\t// in\n    tag_41:\n      mload(0x40)\n      tag_43\n      swap2\n      swap1\n      tag_44\n      jump\t// in\n    tag_43:\n      mload(0x40)\n      dup1\n      swap2\n      sub\n      swap1\n      return\n        /* \"basic_31_36.sol\":1737:1855  function getClient(string memory _name) public view returns(client memory) {... */\n    tag_9:\n      tag_45\n      0x04\n      dup1\n      calldatasize\n      sub\n      dup2\n      add\n      swap1\n      tag_46\n      swap2\n      swap1\n      tag_47\n      jump\t// in\n    tag_46:\n      tag_48\n      jump\t// in\n    tag_45:\n      mload(0x40)\n      tag_49\n      swap2\n      swap1\n      tag_50\n      jump\t// in\n    tag_49:\n      mload(0x40)\n      dup1\n      swap2\n      sub\n      swap1\n      return\n        /* \"basic_31_36.sol\":2416:2559  function setStudent(string memory _name, uint _number, uint _score) public {... */\n    tag_10:\n      tag_51\n      0x04\n      dup1\n      calldatasize\n      sub\n      dup2\n      add\n      swap1\n      tag_52\n      swap2\n      swap1\n      tag_53\n      jump\t// in\n    tag_52:\n      tag_54\n      jump\t// in\n    tag_51:\n      stop\n        /* \"basic_31_36.sol\":848:1107  function putArrayFor2(uint _n) public {... */\n    tag_11:\n      tag_55\n      0x04\n      dup1\n      calldatasize\n      sub\n      dup2\n      add\n      swap1\n      tag_56\n      swap2\n      swap1\n      tag_22\n      jump\t// in\n    tag_56:\n      tag_57\n      jump\t// in\n    tag_55:\n      stop\n        /* \"basic_31_36.sol\":3889:4010  function initArrayFor5() public {... */\n    tag_12:\n      tag_58\n      tag_59\n      jump\t// in\n    tag_58:\n      stop\n        /* \"basic_31_36.sol\":221:581  function checkAliceOrBob(string memory _name) public pure returns(bool) {... */\n    tag_13:\n      tag_60\n      0x04\n      dup1\n      calldatasize\n      sub\n      dup2\n      add\n      swap1\n      tag_61\n      swap2\n      swap1\n      tag_47\n      jump\t// in\n    tag_61:\n      tag_62\n      jump\t// in\n    tag_60:\n      mload(0x40)\n      tag_63\n      swap2\n      swap1\n      tag_64\n      jump\t// in\n    tag_63:\n      mload(0x40)\n      dup1\n      swap2\n      sub\n      swap1\n      return\n        /* \"basic_31_36.sol\":2214:2408  function initStudent() public {... */\n    tag_14:\n      tag_65\n      tag_66\n      jump\t// in\n    tag_65:\n      stop\n        /* \"basic_31_36.sol\":4101:4664  function getArrayFor5_EvenElements() public view returns(uint[] memory){... */\n    tag_15:\n      tag_67\n      tag_68\n      jump\t// in\n    tag_67:\n      mload(0x40)\n      tag_69\n      swap2\n      swap1\n      tag_70\n      jump\t// in\n    tag_69:\n      mload(0x40)\n      dup1\n      swap2\n      sub\n      swap1\n      return\n        /* \"basic_31_36.sol\":3307:3625  function putEvenElements() public view returns(uint[] memory){... */\n    tag_16:\n      tag_71\n      tag_72\n      jump\t// in\n    tag_71:\n      mload(0x40)\n      tag_73\n      swap2\n      swap1\n      tag_70\n      jump\t// in\n    tag_73:\n      mload(0x40)\n      dup1\n      swap2\n      sub\n      swap1\n      return\n        /* \"basic_31_36.sol\":3226:3299  function pushNumbers(uint _n) public {... */\n    tag_23:\n        /* \"basic_31_36.sol\":3274:3282  numbers5 */\n      0x03\n        /* \"basic_31_36.sol\":3288:3290  _n */\n      dup2\n        /* \"basic_31_36.sol\":3274:3291  numbers5.push(_n) */\n      swap1\n      dup1\n      0x01\n      dup2\n      sload\n      add\n      dup1\n      dup3\n      sstore\n      dup1\n      swap2\n      pop\n      pop\n      0x01\n      swap1\n      sub\n      swap1\n      0x00\n      mstore\n      keccak256(0x00, 0x20)\n      add\n      0x00\n      swap1\n      swap2\n      swap1\n      swap2\n      swap1\n      swap2\n      pop\n      sstore\n        /* \"basic_31_36.sol\":3226:3299  function pushNumbers(uint _n) public {... */\n      pop\n      jump\t// out\n        /* \"basic_31_36.sol\":1561:1729  function setClient(string memory _name, uint _number, address _wallet, uint _birthday) public {... */\n    tag_27:\n        /* \"basic_31_36.sol\":1686:1721  client(_number, _wallet, _birthday) */\n      mload(0x40)\n      dup1\n      0x60\n      add\n      0x40\n      mstore\n      dup1\n        /* \"basic_31_36.sol\":1693:1700  _number */\n      dup5\n        /* \"basic_31_36.sol\":1686:1721  client(_number, _wallet, _birthday) */\n      dup2\n      mstore\n      0x20\n      add\n        /* \"basic_31_36.sol\":1702:1709  _wallet */\n      dup4\n        /* \"basic_31_36.sol\":1686:1721  client(_number, _wallet, _birthday) */\n      0xffffffffffffffffffffffffffffffffffffffff\n      and\n      dup2\n      mstore\n      0x20\n      add\n        /* \"basic_31_36.sol\":1711:1720  _birthday */\n      dup3\n        /* \"basic_31_36.sol\":1686:1721  client(_number, _wallet, _birthday) */\n      dup2\n      mstore\n      pop\n        /* \"basic_31_36.sol\":1666:1676  clientList */\n      0x01\n        /* \"basic_31_36.sol\":1677:1682  _name */\n      dup6\n        /* \"basic_31_36.sol\":1666:1683  clientList[_name] */\n      mload(0x40)\n      tag_77\n      swap2\n      swap1\n      tag_78\n      jump\t// in\n    tag_77:\n      swap1\n      dup2\n      mstore\n      0x20\n      add\n      mload(0x40)\n      dup1\n      swap2\n      sub\n      swap1\n      keccak256\n        /* \"basic_31_36.sol\":1666:1721  clientList[_name] = client(_number, _wallet, _birthday) */\n      0x00\n      dup3\n      add\n      mload\n      dup2\n      0x00\n      add\n      sstore\n      0x20\n      dup3\n      add\n      mload\n      dup2\n      0x01\n      add\n      exp(0x0100, 0x00)\n      dup2\n      sload\n      dup2\n      0xffffffffffffffffffffffffffffffffffffffff\n      mul\n      not\n      and\n      swap1\n      dup4\n      0xffffffffffffffffffffffffffffffffffffffff\n      and\n      mul\n      or\n      swap1\n      sstore\n      pop\n      0x40\n      dup3\n      add\n      mload\n      dup2\n      0x02\n      add\n      sstore\n      swap1\n      pop\n      pop\n        /* \"basic_31_36.sol\":1561:1729  function setClient(string memory _name, uint _number, address _wallet, uint _birthday) public {... */\n      pop\n      pop\n      pop\n      pop\n      jump\t// out\n        /* \"basic_31_36.sol\":4957:5238  function checkLevel(uint _n) public returns(Level){... */\n    tag_30:\n        /* \"basic_31_36.sol\":5001:5006  Level */\n      0x00\n        /* \"basic_31_36.sol\":5029:5030  7 */\n      0x07\n        /* \"basic_31_36.sol\":5023:5025  _n */\n      dup3\n        /* \"basic_31_36.sol\":5023:5030  _n >= 7 */\n      lt\n        /* \"basic_31_36.sol\":5018:5205  if ( _n >= 7 ) {... */\n      tag_80\n      jumpi\n        /* \"basic_31_36.sol\":5059:5069  Level.high */\n      0x00\n        /* \"basic_31_36.sol\":5048:5056  numLevel */\n      0x05\n      0x00\n        /* \"basic_31_36.sol\":5048:5069  numLevel = Level.high */\n      0x0100\n      exp\n      dup2\n      sload\n      dup2\n      0xff\n      mul\n      not\n      and\n      swap1\n      dup4\n      0x02\n      dup2\n      gt\n      iszero\n      tag_81\n      jumpi\n      tag_82\n      tag_83\n      jump\t// in\n    tag_82:\n    tag_81:\n      mul\n      or\n      swap1\n      sstore\n      pop\n        /* \"basic_31_36.sol\":5018:5205  if ( _n >= 7 ) {... */\n      jump(tag_84)\n    tag_80:\n        /* \"basic_31_36.sol\":5098:5099  4 */\n      0x04\n        /* \"basic_31_36.sol\":5092:5094  _n */\n      dup3\n        /* \"basic_31_36.sol\":5092:5099  _n >= 4 */\n      lt\n        /* \"basic_31_36.sol\":5087:5205  if ( _n >= 4 ){... */\n      tag_85\n      jumpi\n        /* \"basic_31_36.sol\":5127:5140  Level.neutral */\n      0x01\n        /* \"basic_31_36.sol\":5116:5124  numLevel */\n      0x05\n      0x00\n        /* \"basic_31_36.sol\":5116:5140  numLevel = Level.neutral */\n      0x0100\n      exp\n      dup2\n      sload\n      dup2\n      0xff\n      mul\n      not\n      and\n      swap1\n      dup4\n      0x02\n      dup2\n      gt\n      iszero\n      tag_86\n      jumpi\n      tag_87\n      tag_83\n      jump\t// in\n    tag_87:\n    tag_86:\n      mul\n      or\n      swap1\n      sstore\n      pop\n        /* \"basic_31_36.sol\":5087:5205  if ( _n >= 4 ){... */\n      jump(tag_88)\n    tag_85:\n        /* \"basic_31_36.sol\":5184:5193  Level.low */\n      0x02\n        /* \"basic_31_36.sol\":5173:5181  numLevel */\n      0x05\n      0x00\n        /* \"basic_31_36.sol\":5173:5193  numLevel = Level.low */\n      0x0100\n      exp\n      dup2\n      sload\n      dup2\n      0xff\n      mul\n      not\n      and\n      swap1\n      dup4\n      0x02\n      dup2\n      gt\n      iszero\n      tag_89\n      jumpi\n      tag_90\n      tag_83\n      jump\t// in\n    tag_90:\n    tag_89:\n      mul\n      or\n      swap1\n      sstore\n      pop\n        /* \"basic_31_36.sol\":5087:5205  if ( _n >= 4 ){... */\n    tag_88:\n        /* \"basic_31_36.sol\":5018:5205  if ( _n >= 7 ) {... */\n    tag_84:\n        /* \"basic_31_36.sol\":5222:5230  numLevel */\n      0x05\n      0x00\n      swap1\n      sload\n      swap1\n      0x0100\n      exp\n      swap1\n      div\n      0xff\n      and\n        /* \"basic_31_36.sol\":5215:5230  return numLevel */\n      swap1\n      pop\n        /* \"basic_31_36.sol\":4957:5238  function checkLevel(uint _n) public returns(Level){... */\n      swap2\n      swap1\n      pop\n      jump\t// out\n        /* \"basic_31_36.sol\":4018:4093  function setArrayFor5(uint _n) public {... */\n    tag_35:\n        /* \"basic_31_36.sol\":4067:4076  arrayFor5 */\n      0x04\n        /* \"basic_31_36.sol\":4082:4084  _n */\n      dup2\n        /* \"basic_31_36.sol\":4067:4085  arrayFor5.push(_n) */\n      swap1\n      dup1\n      0x01\n      dup2\n      sload\n      add\n      dup1\n      dup3\n      sstore\n      dup1\n      swap2\n      pop\n      pop\n      0x01\n      swap1\n      sub\n      swap1\n      0x00\n      mstore\n      keccak256(0x00, 0x20)\n      add\n      0x00\n      swap1\n      swap2\n      swap1\n      swap2\n      swap1\n      swap2\n      pop\n      sstore\n        /* \"basic_31_36.sol\":4018:4093  function setArrayFor5(uint _n) public {... */\n      pop\n      jump\t// out\n        /* \"basic_31_36.sol\":2567:2683  function getStudent(uint _number) public view returns(student memory) {... */\n    tag_38:\n        /* \"basic_31_36.sol\":2621:2635  student memory */\n      tag_93\n      tag_94\n      jump\t// in\n    tag_93:\n        /* \"basic_31_36.sol\":2655:2666  studentList */\n      0x02\n        /* \"basic_31_36.sol\":2667:2674  _number */\n      dup3\n        /* \"basic_31_36.sol\":2655:2675  studentList[_number] */\n      dup2\n      sload\n      dup2\n      lt\n      tag_96\n      jumpi\n      tag_97\n      tag_98\n      jump\t// in\n    tag_97:\n    tag_96:\n      swap1\n      0x00\n      mstore\n      keccak256(0x00, 0x20)\n      swap1\n      0x03\n      mul\n      add\n        /* \"basic_31_36.sol\":2648:2675  return studentList[_number] */\n      mload(0x40)\n      dup1\n      0x60\n      add\n      0x40\n      mstore\n      swap1\n      dup2\n      0x00\n      dup3\n      add\n      dup1\n      sload\n      tag_100\n      swap1\n      tag_101\n      jump\t// in\n    tag_100:\n      dup1\n      0x1f\n      add\n      0x20\n      dup1\n      swap2\n      div\n      mul\n      0x20\n      add\n      mload(0x40)\n      swap1\n      dup2\n      add\n      0x40\n      mstore\n      dup1\n      swap3\n      swap2\n      swap1\n      dup2\n      dup2\n      mstore\n      0x20\n      add\n      dup3\n      dup1\n      sload\n      tag_102\n      swap1\n      tag_101\n      jump\t// in\n    tag_102:\n      dup1\n      iszero\n      tag_103\n      jumpi\n      dup1\n      0x1f\n      lt\n      tag_104\n      jumpi\n      0x0100\n      dup1\n      dup4\n      sload\n      div\n      mul\n      dup4\n      mstore\n      swap2\n      0x20\n      add\n      swap2\n      jump(tag_103)\n    tag_104:\n      dup3\n      add\n      swap2\n      swap1\n      0x00\n      mstore\n      keccak256(0x00, 0x20)\n      swap1\n    tag_105:\n      dup2\n      sload\n      dup2\n      mstore\n      swap1\n      0x01\n      add\n      swap1\n      0x20\n      add\n      dup1\n      dup4\n      gt\n      tag_105\n      jumpi\n      dup3\n      swap1\n      sub\n      0x1f\n      and\n      dup3\n      add\n      swap2\n    tag_103:\n      pop\n      pop\n      pop\n      pop\n      pop\n      dup2\n      mstore\n      0x20\n      add\n      0x01\n      dup3\n      add\n      sload\n      dup2\n      mstore\n      0x20\n      add\n      0x02\n      dup3\n      add\n      sload\n      dup2\n      mstore\n      pop\n      pop\n      swap1\n      pop\n        /* \"basic_31_36.sol\":2567:2683  function getStudent(uint _number) public view returns(student memory) {... */\n      swap2\n      swap1\n      pop\n      jump\t// out\n        /* \"basic_31_36.sol\":2691:2920  function getAvgScore() public view returns(uint) {... */\n    tag_42:\n        /* \"basic_31_36.sol\":2734:2738  uint */\n      0x00\n        /* \"basic_31_36.sol\":2751:2761  uint total */\n      dup1\n        /* \"basic_31_36.sol\":2776:2782  uint i */\n      0x00\n        /* \"basic_31_36.sol\":2772:2871  for(uint i=0; i < studentList.length; i++) {... */\n    tag_107:\n        /* \"basic_31_36.sol\":2790:2801  studentList */\n      0x02\n        /* \"basic_31_36.sol\":2790:2808  studentList.length */\n      dup1\n      sload\n      swap1\n      pop\n        /* \"basic_31_36.sol\":2786:2787  i */\n      dup2\n        /* \"basic_31_36.sol\":2786:2808  i < studentList.length */\n      lt\n        /* \"basic_31_36.sol\":2772:2871  for(uint i=0; i < studentList.length; i++) {... */\n      iszero\n      tag_108\n      jumpi\n        /* \"basic_31_36.sol\":2839:2850  studentList */\n      0x02\n        /* \"basic_31_36.sol\":2851:2852  i */\n      dup2\n        /* \"basic_31_36.sol\":2839:2853  studentList[i] */\n      dup2\n      sload\n      dup2\n      lt\n      tag_110\n      jumpi\n      tag_111\n      tag_98\n      jump\t// in\n    tag_111:\n    tag_110:\n      swap1\n      0x00\n      mstore\n      keccak256(0x00, 0x20)\n      swap1\n      0x03\n      mul\n      add\n        /* \"basic_31_36.sol\":2839:2859  studentList[i].score */\n      0x02\n      add\n      sload\n        /* \"basic_31_36.sol\":2830:2859  total += studentList[i].score */\n      dup3\n      tag_113\n      swap2\n      swap1\n      tag_114\n      jump\t// in\n    tag_113:\n      swap2\n      pop\n        /* \"basic_31_36.sol\":2810:2813  i++ */\n      dup1\n      dup1\n      0x01\n      add\n      swap2\n      pop\n      pop\n        /* \"basic_31_36.sol\":2772:2871  for(uint i=0; i < studentList.length; i++) {... */\n      jump(tag_107)\n    tag_108:\n      pop\n        /* \"basic_31_36.sol\":2894:2905  studentList */\n      0x02\n        /* \"basic_31_36.sol\":2894:2912  studentList.length */\n      dup1\n      sload\n      swap1\n      pop\n        /* \"basic_31_36.sol\":2888:2893  total */\n      dup2\n        /* \"basic_31_36.sol\":2888:2912  total/studentList.length */\n      tag_115\n      swap2\n      swap1\n      tag_116\n      jump\t// in\n    tag_115:\n        /* \"basic_31_36.sol\":2881:2912  return total/studentList.length */\n      swap2\n      pop\n      pop\n        /* \"basic_31_36.sol\":2691:2920  function getAvgScore() public view returns(uint) {... */\n      swap1\n      jump\t// out\n        /* \"basic_31_36.sol\":1737:1855  function getClient(string memory _name) public view returns(client memory) {... */\n    tag_48:\n        /* \"basic_31_36.sol\":1797:1810  client memory */\n      tag_117\n      tag_118\n      jump\t// in\n    tag_117:\n        /* \"basic_31_36.sol\":1830:1840  clientList */\n      0x01\n        /* \"basic_31_36.sol\":1841:1846  _name */\n      dup3\n        /* \"basic_31_36.sol\":1830:1847  clientList[_name] */\n      mload(0x40)\n      tag_120\n      swap2\n      swap1\n      tag_78\n      jump\t// in\n    tag_120:\n      swap1\n      dup2\n      mstore\n      0x20\n      add\n      mload(0x40)\n      dup1\n      swap2\n      sub\n      swap1\n      keccak256\n        /* \"basic_31_36.sol\":1823:1847  return clientList[_name] */\n      mload(0x40)\n      dup1\n      0x60\n      add\n      0x40\n      mstore\n      swap1\n      dup2\n      0x00\n      dup3\n      add\n      sload\n      dup2\n      mstore\n      0x20\n      add\n      0x01\n      dup3\n      add\n      0x00\n      swap1\n      sload\n      swap1\n      0x0100\n      exp\n      swap1\n      div\n      0xffffffffffffffffffffffffffffffffffffffff\n      and\n      0xffffffffffffffffffffffffffffffffffffffff\n      and\n      0xffffffffffffffffffffffffffffffffffffffff\n      and\n      dup2\n      mstore\n      0x20\n      add\n      0x02\n      dup3\n      add\n      sload\n      dup2\n      mstore\n      pop\n      pop\n      swap1\n      pop\n        /* \"basic_31_36.sol\":1737:1855  function getClient(string memory _name) public view returns(client memory) {... */\n      swap2\n      swap1\n      pop\n      jump\t// out\n        /* \"basic_31_36.sol\":2416:2559  function setStudent(string memory _name, uint _number, uint _score) public {... */\n    tag_54:\n        /* \"basic_31_36.sol\":2502:2513  studentList */\n      0x02\n        /* \"basic_31_36.sol\":2519:2550  student(_name, _number, _score) */\n      mload(0x40)\n      dup1\n      0x60\n      add\n      0x40\n      mstore\n      dup1\n        /* \"basic_31_36.sol\":2527:2532  _name */\n      dup6\n        /* \"basic_31_36.sol\":2519:2550  student(_name, _number, _score) */\n      dup2\n      mstore\n      0x20\n      add\n        /* \"basic_31_36.sol\":2534:2541  _number */\n      dup5\n        /* \"basic_31_36.sol\":2519:2550  student(_name, _number, _score) */\n      dup2\n      mstore\n      0x20\n      add\n        /* \"basic_31_36.sol\":2543:2549  _score */\n      dup4\n        /* \"basic_31_36.sol\":2519:2550  student(_name, _number, _score) */\n      dup2\n      mstore\n      pop\n        /* \"basic_31_36.sol\":2502:2551  studentList.push(student(_name, _number, _score)) */\n      swap1\n      dup1\n      0x01\n      dup2\n      sload\n      add\n      dup1\n      dup3\n      sstore\n      dup1\n      swap2\n      pop\n      pop\n      0x01\n      swap1\n      sub\n      swap1\n      0x00\n      mstore\n      keccak256(0x00, 0x20)\n      swap1\n      0x03\n      mul\n      add\n      0x00\n      swap1\n      swap2\n      swap1\n      swap2\n      swap1\n      swap2\n      pop\n      0x00\n      dup3\n      add\n      mload\n      dup2\n      0x00\n      add\n      swap1\n      dup2\n      tag_123\n      swap2\n      swap1\n      tag_124\n      jump\t// in\n    tag_123:\n      pop\n      0x20\n      dup3\n      add\n      mload\n      dup2\n      0x01\n      add\n      sstore\n      0x40\n      dup3\n      add\n      mload\n      dup2\n      0x02\n      add\n      sstore\n      pop\n      pop\n        /* \"basic_31_36.sol\":2416:2559  function setStudent(string memory _name, uint _number, uint _score) public {... */\n      pop\n      pop\n      pop\n      jump\t// out\n        /* \"basic_31_36.sol\":848:1107  function putArrayFor2(uint _n) public {... */\n    tag_57:\n        /* \"basic_31_36.sol\":911:912  0 */\n      0x00\n        /* \"basic_31_36.sol\":908:909  2 */\n      0x02\n        /* \"basic_31_36.sol\":905:907  _n */\n      dup3\n        /* \"basic_31_36.sol\":905:909  _n%2 */\n      tag_126\n      swap2\n      swap1\n      tag_127\n      jump\t// in\n    tag_126:\n        /* \"basic_31_36.sol\":905:912  _n%2==0 */\n      eq\n        /* \"basic_31_36.sol\":905:923  _n%2==0 || _n%3==0 */\n      dup1\n      tag_128\n      jumpi\n      pop\n        /* \"basic_31_36.sol\":922:923  0 */\n      0x00\n        /* \"basic_31_36.sol\":919:920  3 */\n      0x03\n        /* \"basic_31_36.sol\":916:918  _n */\n      dup3\n        /* \"basic_31_36.sol\":916:920  _n%3 */\n      tag_129\n      swap2\n      swap1\n      tag_127\n      jump\t// in\n    tag_129:\n        /* \"basic_31_36.sol\":916:923  _n%3==0 */\n      eq\n        /* \"basic_31_36.sol\":905:923  _n%2==0 || _n%3==0 */\n    tag_128:\n        /* \"basic_31_36.sol\":897:955  require(_n%2==0 || _n%3==0, \"N is NOT multiple of 2 or 3\") */\n      tag_130\n      jumpi\n      mload(0x40)\n      0x08c379a000000000000000000000000000000000000000000000000000000000\n      dup2\n      mstore\n      0x04\n      add\n      tag_131\n      swap1\n      tag_132\n      jump\t// in\n    tag_131:\n      mload(0x40)\n      dup1\n      swap2\n      sub\n      swap1\n      revert\n    tag_130:\n        /* \"basic_31_36.sol\":1045:1046  0 */\n      0x00\n        /* \"basic_31_36.sol\":1041:1043  30 */\n      0x1e\n        /* \"basic_31_36.sol\":1038:1040  _n */\n      dup3\n        /* \"basic_31_36.sol\":1038:1043  _n%30 */\n      tag_133\n      swap2\n      swap1\n      tag_127\n      jump\t// in\n    tag_133:\n        /* \"basic_31_36.sol\":1038:1046  _n%30!=0 */\n      sub\n        /* \"basic_31_36.sol\":1030:1070  require(_n%30!=0, \"N is multiple of 30\") */\n      tag_134\n      jumpi\n      mload(0x40)\n      0x08c379a000000000000000000000000000000000000000000000000000000000\n      dup2\n      mstore\n      0x04\n      add\n      tag_135\n      swap1\n      tag_136\n      jump\t// in\n    tag_135:\n      mload(0x40)\n      dup1\n      swap2\n      sub\n      swap1\n      revert\n    tag_134:\n        /* \"basic_31_36.sol\":1081:1090  arrayFor2 */\n      0x00\n        /* \"basic_31_36.sol\":1096:1098  _n */\n      dup2\n        /* \"basic_31_36.sol\":1081:1099  arrayFor2.push(_n) */\n      swap1\n      dup1\n      0x01\n      dup2\n      sload\n      add\n      dup1\n      dup3\n      sstore\n      dup1\n      swap2\n      pop\n      pop\n      0x01\n      swap1\n      sub\n      swap1\n      0x00\n      mstore\n      keccak256(0x00, 0x20)\n      add\n      0x00\n      swap1\n      swap2\n      swap1\n      swap2\n      swap1\n      swap2\n      pop\n      sstore\n        /* \"basic_31_36.sol\":848:1107  function putArrayFor2(uint _n) public {... */\n      pop\n      jump\t// out\n        /* \"basic_31_36.sol\":3889:4010  function initArrayFor5() public {... */\n    tag_59:\n        /* \"basic_31_36.sol\":3936:3942  uint i */\n      0x00\n        /* \"basic_31_36.sol\":3943:3944  1 */\n      0x01\n        /* \"basic_31_36.sol\":3936:3944  uint i=1 */\n      swap1\n      pop\n        /* \"basic_31_36.sol\":3932:4003  for(uint i=1; i <= 20; i++){... */\n    tag_139:\n        /* \"basic_31_36.sol\":3951:3953  20 */\n      0x14\n        /* \"basic_31_36.sol\":3946:3947  i */\n      dup2\n        /* \"basic_31_36.sol\":3946:3953  i <= 20 */\n      gt\n        /* \"basic_31_36.sol\":3932:4003  for(uint i=1; i <= 20; i++){... */\n      tag_140\n      jumpi\n        /* \"basic_31_36.sol\":3974:3983  arrayFor5 */\n      0x04\n        /* \"basic_31_36.sol\":3989:3990  i */\n      dup2\n        /* \"basic_31_36.sol\":3974:3991  arrayFor5.push(i) */\n      swap1\n      dup1\n      0x01\n      dup2\n      sload\n      add\n      dup1\n      dup3\n      sstore\n      dup1\n      swap2\n      pop\n      pop\n      0x01\n      swap1\n      sub\n      swap1\n      0x00\n      mstore\n      keccak256(0x00, 0x20)\n      add\n      0x00\n      swap1\n      swap2\n      swap1\n      swap2\n      swap1\n      swap2\n      pop\n      sstore\n        /* \"basic_31_36.sol\":3955:3958  i++ */\n      dup1\n      dup1\n      tag_143\n      swap1\n      tag_144\n      jump\t// in\n    tag_143:\n      swap2\n      pop\n      pop\n        /* \"basic_31_36.sol\":3932:4003  for(uint i=1; i <= 20; i++){... */\n      jump(tag_139)\n    tag_140:\n      pop\n        /* \"basic_31_36.sol\":3889:4010  function initArrayFor5() public {... */\n      jump\t// out\n        /* \"basic_31_36.sol\":221:581  function checkAliceOrBob(string memory _name) public pure returns(bool) {... */\n    tag_62:\n        /* \"basic_31_36.sol\":287:291  bool */\n      0x00\n        /* \"basic_31_36.sol\":356:381  abi.encodePacked(\"Alice\") */\n      add(0x20, mload(0x40))\n      tag_146\n      swap1\n      tag_147\n      jump\t// in\n    tag_146:\n      mload(0x40)\n      0x20\n      dup2\n      dup4\n      sub\n      sub\n      dup2\n      mstore\n      swap1\n      0x40\n      mstore\n        /* \"basic_31_36.sol\":346:382  keccak256(abi.encodePacked(\"Alice\")) */\n      dup1\n      mload\n      swap1\n      0x20\n      add\n      keccak256\n        /* \"basic_31_36.sol\":335:340  _name */\n      dup3\n        /* \"basic_31_36.sol\":318:341  abi.encodePacked(_name) */\n      add(0x20, mload(0x40))\n      tag_148\n      swap2\n      swap1\n      tag_78\n      jump\t// in\n    tag_148:\n      mload(0x40)\n      0x20\n      dup2\n      dup4\n      sub\n      sub\n      dup2\n      mstore\n      swap1\n      0x40\n      mstore\n        /* \"basic_31_36.sol\":308:342  keccak256(abi.encodePacked(_name)) */\n      dup1\n      mload\n      swap1\n      0x20\n      add\n      keccak256\n        /* \"basic_31_36.sol\":308:382  keccak256(abi.encodePacked(_name)) == keccak256(abi.encodePacked(\"Alice\")) */\n      eq\n        /* \"basic_31_36.sol\":308:471  keccak256(abi.encodePacked(_name)) == keccak256(abi.encodePacked(\"Alice\")) ||... */\n      dup1\n      tag_149\n      jumpi\n      pop\n        /* \"basic_31_36.sol\":447:470  abi.encodePacked(\"Bob\") */\n      add(0x20, mload(0x40))\n      tag_150\n      swap1\n      tag_151\n      jump\t// in\n    tag_150:\n      mload(0x40)\n      0x20\n      dup2\n      dup4\n      sub\n      sub\n      dup2\n      mstore\n      swap1\n      0x40\n      mstore\n        /* \"basic_31_36.sol\":437:471  keccak256(abi.encodePacked(\"Bob\")) */\n      dup1\n      mload\n      swap1\n      0x20\n      add\n      keccak256\n        /* \"basic_31_36.sol\":426:431  _name */\n      dup3\n        /* \"basic_31_36.sol\":409:432  abi.encodePacked(_name) */\n      add(0x20, mload(0x40))\n      tag_152\n      swap2\n      swap1\n      tag_78\n      jump\t// in\n    tag_152:\n      mload(0x40)\n      0x20\n      dup2\n      dup4\n      sub\n      sub\n      dup2\n      mstore\n      swap1\n      0x40\n      mstore\n        /* \"basic_31_36.sol\":399:433  keccak256(abi.encodePacked(_name)) */\n      dup1\n      mload\n      swap1\n      0x20\n      add\n      keccak256\n        /* \"basic_31_36.sol\":399:471  keccak256(abi.encodePacked(_name)) == keccak256(abi.encodePacked(\"Bob\")) */\n      eq\n        /* \"basic_31_36.sol\":308:471  keccak256(abi.encodePacked(_name)) == keccak256(abi.encodePacked(\"Alice\")) ||... */\n    tag_149:\n        /* \"basic_31_36.sol\":304:566  if( keccak256(abi.encodePacked(_name)) == keccak256(abi.encodePacked(\"Alice\")) ||... */\n      iszero\n      tag_153\n      jumpi\n        /* \"basic_31_36.sol\":505:509  true */\n      0x01\n        /* \"basic_31_36.sol\":498:509  return true */\n      swap1\n      pop\n      jump(tag_145)\n        /* \"basic_31_36.sol\":304:566  if( keccak256(abi.encodePacked(_name)) == keccak256(abi.encodePacked(\"Alice\")) ||... */\n    tag_153:\n        /* \"basic_31_36.sol\":549:554  false */\n      0x00\n        /* \"basic_31_36.sol\":542:554  return false */\n      swap1\n      pop\n        /* \"basic_31_36.sol\":221:581  function checkAliceOrBob(string memory _name) public pure returns(bool) {... */\n    tag_145:\n      swap2\n      swap1\n      pop\n      jump\t// out\n        /* \"basic_31_36.sol\":2214:2408  function initStudent() public {... */\n    tag_66:\n        /* \"basic_31_36.sol\":2255:2266  studentList */\n      0x02\n        /* \"basic_31_36.sol\":2272:2295  student(\"Alice\", 1, 80) */\n      mload(0x40)\n      dup1\n      0x60\n      add\n      0x40\n      mstore\n      dup1\n      mload(0x40)\n      dup1\n      0x40\n      add\n      0x40\n      mstore\n      dup1\n      0x05\n      dup2\n      mstore\n      0x20\n      add\n      0x416c696365000000000000000000000000000000000000000000000000000000\n      dup2\n      mstore\n      pop\n      dup2\n      mstore\n      0x20\n      add\n        /* \"basic_31_36.sol\":2289:2290  1 */\n      0x01\n        /* \"basic_31_36.sol\":2272:2295  student(\"Alice\", 1, 80) */\n      dup2\n      mstore\n      0x20\n      add\n        /* \"basic_31_36.sol\":2292:2294  80 */\n      0x50\n        /* \"basic_31_36.sol\":2272:2295  student(\"Alice\", 1, 80) */\n      dup2\n      mstore\n      pop\n        /* \"basic_31_36.sol\":2255:2296  studentList.push(student(\"Alice\", 1, 80)) */\n      swap1\n      dup1\n      0x01\n      dup2\n      sload\n      add\n      dup1\n      dup3\n      sstore\n      dup1\n      swap2\n      pop\n      pop\n      0x01\n      swap1\n      sub\n      swap1\n      0x00\n      mstore\n      keccak256(0x00, 0x20)\n      swap1\n      0x03\n      mul\n      add\n      0x00\n      swap1\n      swap2\n      swap1\n      swap2\n      swap1\n      swap2\n      pop\n      0x00\n      dup3\n      add\n      mload\n      dup2\n      0x00\n      add\n      swap1\n      dup2\n      tag_157\n      swap2\n      swap1\n      tag_124\n      jump\t// in\n    tag_157:\n      pop\n      0x20\n      dup3\n      add\n      mload\n      dup2\n      0x01\n      add\n      sstore\n      0x40\n      dup3\n      add\n      mload\n      dup2\n      0x02\n      add\n      sstore\n      pop\n      pop\n        /* \"basic_31_36.sol\":2307:2318  studentList */\n      0x02\n        /* \"basic_31_36.sol\":2324:2345  student(\"Bob\", 2, 70) */\n      mload(0x40)\n      dup1\n      0x60\n      add\n      0x40\n      mstore\n      dup1\n      mload(0x40)\n      dup1\n      0x40\n      add\n      0x40\n      mstore\n      dup1\n      0x03\n      dup2\n      mstore\n      0x20\n      add\n      0x426f620000000000000000000000000000000000000000000000000000000000\n      dup2\n      mstore\n      pop\n      dup2\n      mstore\n      0x20\n      add\n        /* \"basic_31_36.sol\":2339:2340  2 */\n      0x02\n        /* \"basic_31_36.sol\":2324:2345  student(\"Bob\", 2, 70) */\n      dup2\n      mstore\n      0x20\n      add\n        /* \"basic_31_36.sol\":2342:2344  70 */\n      0x46\n        /* \"basic_31_36.sol\":2324:2345  student(\"Bob\", 2, 70) */\n      dup2\n      mstore\n      pop\n        /* \"basic_31_36.sol\":2307:2346  studentList.push(student(\"Bob\", 2, 70)) */\n      swap1\n      dup1\n      0x01\n      dup2\n      sload\n      add\n      dup1\n      dup3\n      sstore\n      dup1\n      swap2\n      pop\n      pop\n      0x01\n      swap1\n      sub\n      swap1\n      0x00\n      mstore\n      keccak256(0x00, 0x20)\n      swap1\n      0x03\n      mul\n      add\n      0x00\n      swap1\n      swap2\n      swap1\n      swap2\n      swap1\n      swap2\n      pop\n      0x00\n      dup3\n      add\n      mload\n      dup2\n      0x00\n      add\n      swap1\n      dup2\n      tag_159\n      swap2\n      swap1\n      tag_124\n      jump\t// in\n    tag_159:\n      pop\n      0x20\n      dup3\n      add\n      mload\n      dup2\n      0x01\n      add\n      sstore\n      0x40\n      dup3\n      add\n      mload\n      dup2\n      0x02\n      add\n      sstore\n      pop\n      pop\n        /* \"basic_31_36.sol\":2357:2368  studentList */\n      0x02\n        /* \"basic_31_36.sol\":2374:2399  student(\"Charlie\", 3, 50) */\n      mload(0x40)\n      dup1\n      0x60\n      add\n      0x40\n      mstore\n      dup1\n      mload(0x40)\n      dup1\n      0x40\n      add\n      0x40\n      mstore\n      dup1\n      0x07\n      dup2\n      mstore\n      0x20\n      add\n      0x436861726c696500000000000000000000000000000000000000000000000000\n      dup2\n      mstore\n      pop\n      dup2\n      mstore\n      0x20\n      add\n        /* \"basic_31_36.sol\":2393:2394  3 */\n      0x03\n        /* \"basic_31_36.sol\":2374:2399  student(\"Charlie\", 3, 50) */\n      dup2\n      mstore\n      0x20\n      add\n        /* \"basic_31_36.sol\":2396:2398  50 */\n      0x32\n        /* \"basic_31_36.sol\":2374:2399  student(\"Charlie\", 3, 50) */\n      dup2\n      mstore\n      pop\n        /* \"basic_31_36.sol\":2357:2400  studentList.push(student(\"Charlie\", 3, 50)) */\n      swap1\n      dup1\n      0x01\n      dup2\n      sload\n      add\n      dup1\n      dup3\n      sstore\n      dup1\n      swap2\n      pop\n      pop\n      0x01\n      swap1\n      sub\n      swap1\n      0x00\n      mstore\n      keccak256(0x00, 0x20)\n      swap1\n      0x03\n      mul\n      add\n      0x00\n      swap1\n      swap2\n      swap1\n      swap2\n      swap1\n      swap2\n      pop\n      0x00\n      dup3\n      add\n      mload\n      dup2\n      0x00\n      add\n      swap1\n      dup2\n      tag_161\n      swap2\n      swap1\n      tag_124\n      jump\t// in\n    tag_161:\n      pop\n      0x20\n      dup3\n      add\n      mload\n      dup2\n      0x01\n      add\n      sstore\n      0x40\n      dup3\n      add\n      mload\n      dup2\n      0x02\n      add\n      sstore\n      pop\n      pop\n        /* \"basic_31_36.sol\":2214:2408  function initStudent() public {... */\n      jump\t// out\n        /* \"basic_31_36.sol\":4101:4664  function getArrayFor5_EvenElements() public view returns(uint[] memory){... */\n    tag_68:\n        /* \"basic_31_36.sol\":4158:4171  uint[] memory */\n      0x60\n        /* \"basic_31_36.sol\":4183:4206  uint[] memory tempArray */\n      dup1\n        /* \"basic_31_36.sol\":4217:4225  uint cnt */\n      0x00\n        /* \"basic_31_36.sol\":4242:4248  uint i */\n      dup1\n        /* \"basic_31_36.sol\":4249:4250  0 */\n      0x00\n        /* \"basic_31_36.sol\":4242:4250  uint i=0 */\n      swap1\n      pop\n        /* \"basic_31_36.sol\":4238:4369  for(uint i=0; i < arrayFor5.length; i++){... */\n    tag_163:\n        /* \"basic_31_36.sol\":4256:4265  arrayFor5 */\n      0x04\n        /* \"basic_31_36.sol\":4256:4272  arrayFor5.length */\n      dup1\n      sload\n      swap1\n      pop\n        /* \"basic_31_36.sol\":4252:4253  i */\n      dup2\n        /* \"basic_31_36.sol\":4252:4272  i < arrayFor5.length */\n      lt\n        /* \"basic_31_36.sol\":4238:4369  for(uint i=0; i < arrayFor5.length; i++){... */\n      iszero\n      tag_164\n      jumpi\n        /* \"basic_31_36.sol\":4315:4316  0 */\n      0x00\n        /* \"basic_31_36.sol\":4310:4311  2 */\n      0x02\n        /* \"basic_31_36.sol\":4297:4306  arrayFor5 */\n      0x04\n        /* \"basic_31_36.sol\":4307:4308  i */\n      dup4\n        /* \"basic_31_36.sol\":4297:4309  arrayFor5[i] */\n      dup2\n      sload\n      dup2\n      lt\n      tag_166\n      jumpi\n      tag_167\n      tag_98\n      jump\t// in\n    tag_167:\n    tag_166:\n      swap1\n      0x00\n      mstore\n      keccak256(0x00, 0x20)\n      add\n      sload\n        /* \"basic_31_36.sol\":4297:4311  arrayFor5[i]%2 */\n      tag_169\n      swap2\n      swap1\n      tag_127\n      jump\t// in\n    tag_169:\n        /* \"basic_31_36.sol\":4297:4316  arrayFor5[i]%2 == 0 */\n      sub\n        /* \"basic_31_36.sol\":4293:4358  if( arrayFor5[i]%2 == 0 ){... */\n      tag_170\n      jumpi\n        /* \"basic_31_36.sol\":4337:4342  cnt++ */\n      dup2\n      dup1\n      tag_171\n      swap1\n      tag_144\n      jump\t// in\n    tag_171:\n      swap3\n      pop\n      pop\n        /* \"basic_31_36.sol\":4293:4358  if( arrayFor5[i]%2 == 0 ){... */\n    tag_170:\n        /* \"basic_31_36.sol\":4274:4277  i++ */\n      dup1\n      dup1\n      0x01\n      add\n      swap2\n      pop\n      pop\n        /* \"basic_31_36.sol\":4238:4369  for(uint i=0; i < arrayFor5.length; i++){... */\n      jump(tag_163)\n    tag_164:\n      pop\n        /* \"basic_31_36.sol\":4404:4407  cnt */\n      dup1\n        /* \"basic_31_36.sol\":4393:4408  new uint[](cnt) */\n      0xffffffffffffffff\n      dup2\n      gt\n      iszero\n      tag_172\n      jumpi\n      tag_173\n      tag_174\n      jump\t// in\n    tag_173:\n    tag_172:\n      mload(0x40)\n      swap1\n      dup1\n      dup3\n      mstore\n      dup1\n      0x20\n      mul\n      0x20\n      add\n      dup3\n      add\n      0x40\n      mstore\n      dup1\n      iszero\n      tag_175\n      jumpi\n      dup2\n      0x20\n      add\n      0x20\n      dup3\n      mul\n      dup1\n      calldatasize\n      dup4\n      calldatacopy\n      dup1\n      dup3\n      add\n      swap2\n      pop\n      pop\n      swap1\n      pop\n    tag_175:\n      pop\n        /* \"basic_31_36.sol\":4381:4408  tempArray = new uint[](cnt) */\n      swap2\n      pop\n        /* \"basic_31_36.sol\":4427:4428  0 */\n      0x00\n        /* \"basic_31_36.sol\":4421:4428  cnt = 0 */\n      swap1\n      pop\n        /* \"basic_31_36.sol\":4443:4449  uint i */\n      0x00\n        /* \"basic_31_36.sol\":4439:4618  for(uint i=0; i < arrayFor5.length; i++){... */\n    tag_176:\n        /* \"basic_31_36.sol\":4457:4466  arrayFor5 */\n      0x04\n        /* \"basic_31_36.sol\":4457:4473  arrayFor5.length */\n      dup1\n      sload\n      swap1\n      pop\n        /* \"basic_31_36.sol\":4453:4454  i */\n      dup2\n        /* \"basic_31_36.sol\":4453:4473  i < arrayFor5.length */\n      lt\n        /* \"basic_31_36.sol\":4439:4618  for(uint i=0; i < arrayFor5.length; i++){... */\n      iszero\n      tag_177\n      jumpi\n        /* \"basic_31_36.sol\":4516:4517  0 */\n      0x00\n        /* \"basic_31_36.sol\":4511:4512  2 */\n      0x02\n        /* \"basic_31_36.sol\":4498:4507  arrayFor5 */\n      0x04\n        /* \"basic_31_36.sol\":4508:4509  i */\n      dup4\n        /* \"basic_31_36.sol\":4498:4510  arrayFor5[i] */\n      dup2\n      sload\n      dup2\n      lt\n      tag_179\n      jumpi\n      tag_180\n      tag_98\n      jump\t// in\n    tag_180:\n    tag_179:\n      swap1\n      0x00\n      mstore\n      keccak256(0x00, 0x20)\n      add\n      sload\n        /* \"basic_31_36.sol\":4498:4512  arrayFor5[i]%2 */\n      tag_182\n      swap2\n      swap1\n      tag_127\n      jump\t// in\n    tag_182:\n        /* \"basic_31_36.sol\":4498:4517  arrayFor5[i]%2 == 0 */\n      sub\n        /* \"basic_31_36.sol\":4494:4607  if( arrayFor5[i]%2 == 0 ){... */\n      tag_183\n      jumpi\n        /* \"basic_31_36.sol\":4555:4564  arrayFor5 */\n      0x04\n        /* \"basic_31_36.sol\":4565:4566  i */\n      dup2\n        /* \"basic_31_36.sol\":4555:4567  arrayFor5[i] */\n      dup2\n      sload\n      dup2\n      lt\n      tag_184\n      jumpi\n      tag_185\n      tag_98\n      jump\t// in\n    tag_185:\n    tag_184:\n      swap1\n      0x00\n      mstore\n      keccak256(0x00, 0x20)\n      add\n      sload\n        /* \"basic_31_36.sol\":4538:4547  tempArray */\n      dup4\n        /* \"basic_31_36.sol\":4548:4551  cnt */\n      dup4\n        /* \"basic_31_36.sol\":4538:4552  tempArray[cnt] */\n      dup2\n      mload\n      dup2\n      lt\n      tag_187\n      jumpi\n      tag_188\n      tag_98\n      jump\t// in\n    tag_188:\n    tag_187:\n      0x20\n      mul\n      0x20\n      add\n      add\n        /* \"basic_31_36.sol\":4538:4567  tempArray[cnt] = arrayFor5[i] */\n      dup2\n      dup2\n      mstore\n      pop\n      pop\n        /* \"basic_31_36.sol\":4586:4591  cnt++ */\n      dup2\n      dup1\n      tag_189\n      swap1\n      tag_144\n      jump\t// in\n    tag_189:\n      swap3\n      pop\n      pop\n        /* \"basic_31_36.sol\":4494:4607  if( arrayFor5[i]%2 == 0 ){... */\n    tag_183:\n        /* \"basic_31_36.sol\":4475:4478  i++ */\n      dup1\n      dup1\n      0x01\n      add\n      swap2\n      pop\n      pop\n        /* \"basic_31_36.sol\":4439:4618  for(uint i=0; i < arrayFor5.length; i++){... */\n      jump(tag_176)\n    tag_177:\n      pop\n        /* \"basic_31_36.sol\":4637:4646  tempArray */\n      dup2\n        /* \"basic_31_36.sol\":4630:4646  return tempArray */\n      swap3\n      pop\n      pop\n      pop\n        /* \"basic_31_36.sol\":4101:4664  function getArrayFor5_EvenElements() public view returns(uint[] memory){... */\n      swap1\n      jump\t// out\n        /* \"basic_31_36.sol\":3307:3625  function putEvenElements() public view returns(uint[] memory){... */\n    tag_72:\n        /* \"basic_31_36.sol\":3354:3367  uint[] memory */\n      0x60\n        /* \"basic_31_36.sol\":3381:3404  uint[] memory _numbers5 */\n      0x00\n        /* \"basic_31_36.sol\":3434:3435  2 */\n      0x02\n        /* \"basic_31_36.sol\":3418:3426  numbers5 */\n      0x03\n        /* \"basic_31_36.sol\":3418:3433  numbers5.length */\n      dup1\n      sload\n      swap1\n      pop\n        /* \"basic_31_36.sol\":3418:3435  numbers5.length/2 */\n      tag_191\n      swap2\n      swap1\n      tag_116\n      jump\t// in\n    tag_191:\n        /* \"basic_31_36.sol\":3407:3436  new uint[](numbers5.length/2) */\n      0xffffffffffffffff\n      dup2\n      gt\n      iszero\n      tag_192\n      jumpi\n      tag_193\n      tag_174\n      jump\t// in\n    tag_193:\n    tag_192:\n      mload(0x40)\n      swap1\n      dup1\n      dup3\n      mstore\n      dup1\n      0x20\n      mul\n      0x20\n      add\n      dup3\n      add\n      0x40\n      mstore\n      dup1\n      iszero\n      tag_194\n      jumpi\n      dup2\n      0x20\n      add\n      0x20\n      dup3\n      mul\n      dup1\n      calldatasize\n      dup4\n      calldatacopy\n      dup1\n      dup3\n      add\n      swap2\n      pop\n      pop\n      swap1\n      pop\n    tag_194:\n      pop\n        /* \"basic_31_36.sol\":3381:3436  uint[] memory _numbers5 = new uint[](numbers5.length/2) */\n      swap1\n      pop\n        /* \"basic_31_36.sol\":3449:3459  uint index */\n      0x00\n        /* \"basic_31_36.sol\":3474:3480  uint i */\n      dup1\n        /* \"basic_31_36.sol\":3481:3482  0 */\n      0x00\n        /* \"basic_31_36.sol\":3474:3482  uint i=0 */\n      swap1\n      pop\n        /* \"basic_31_36.sol\":3470:3589  for(uint i=0; i < numbers5.length; i+=2){... */\n    tag_195:\n        /* \"basic_31_36.sol\":3488:3496  numbers5 */\n      0x03\n        /* \"basic_31_36.sol\":3488:3503  numbers5.length */\n      dup1\n      sload\n      swap1\n      pop\n        /* \"basic_31_36.sol\":3484:3485  i */\n      dup2\n        /* \"basic_31_36.sol\":3484:3503  i < numbers5.length */\n      lt\n        /* \"basic_31_36.sol\":3470:3589  for(uint i=0; i < numbers5.length; i+=2){... */\n      iszero\n      tag_196\n      jumpi\n        /* \"basic_31_36.sol\":3544:3552  numbers5 */\n      0x03\n        /* \"basic_31_36.sol\":3553:3554  i */\n      dup2\n        /* \"basic_31_36.sol\":3544:3555  numbers5[i] */\n      dup2\n      sload\n      dup2\n      lt\n      tag_198\n      jumpi\n      tag_199\n      tag_98\n      jump\t// in\n    tag_199:\n    tag_198:\n      swap1\n      0x00\n      mstore\n      keccak256(0x00, 0x20)\n      add\n      sload\n        /* \"basic_31_36.sol\":3525:3534  _numbers5 */\n      dup4\n        /* \"basic_31_36.sol\":3535:3540  index */\n      dup4\n        /* \"basic_31_36.sol\":3525:3541  _numbers5[index] */\n      dup2\n      mload\n      dup2\n      lt\n      tag_201\n      jumpi\n      tag_202\n      tag_98\n      jump\t// in\n    tag_202:\n    tag_201:\n      0x20\n      mul\n      0x20\n      add\n      add\n        /* \"basic_31_36.sol\":3525:3555  _numbers5[index] = numbers5[i] */\n      dup2\n      dup2\n      mstore\n      pop\n      pop\n        /* \"basic_31_36.sol\":3570:3577  index++ */\n      dup2\n      dup1\n      tag_203\n      swap1\n      tag_144\n      jump\t// in\n    tag_203:\n      swap3\n      pop\n      pop\n        /* \"basic_31_36.sol\":3508:3509  2 */\n      0x02\n        /* \"basic_31_36.sol\":3505:3509  i+=2 */\n      dup2\n      tag_204\n      swap2\n      swap1\n      tag_114\n      jump\t// in\n    tag_204:\n      swap1\n      pop\n        /* \"basic_31_36.sol\":3470:3589  for(uint i=0; i < numbers5.length; i+=2){... */\n      jump(tag_195)\n    tag_196:\n      pop\n        /* \"basic_31_36.sol\":3608:3617  _numbers5 */\n      dup2\n        /* \"basic_31_36.sol\":3601:3617  return _numbers5 */\n      swap3\n      pop\n      pop\n      pop\n        /* \"basic_31_36.sol\":3307:3625  function putEvenElements() public view returns(uint[] memory){... */\n      swap1\n      jump\t// out\n    tag_94:\n      mload(0x40)\n      dup1\n      0x60\n      add\n      0x40\n      mstore\n      dup1\n      0x60\n      dup2\n      mstore\n      0x20\n      add\n      0x00\n      dup2\n      mstore\n      0x20\n      add\n      0x00\n      dup2\n      mstore\n      pop\n      swap1\n      jump\t// out\n    tag_118:\n      mload(0x40)\n      dup1\n      0x60\n      add\n      0x40\n      mstore\n      dup1\n      0x00\n      dup2\n      mstore\n      0x20\n      add\n      and(0xffffffffffffffffffffffffffffffffffffffff, 0x00)\n      dup2\n      mstore\n      0x20\n      add\n      0x00\n      dup2\n      mstore\n      pop\n      swap1\n      jump\t// out\n        /* \"#utility.yul\":7:82   */\n    tag_205:\n        /* \"#utility.yul\":40:46   */\n      0x00\n        /* \"#utility.yul\":73:75   */\n      0x40\n        /* \"#utility.yul\":67:76   */\n      mload\n        /* \"#utility.yul\":57:76   */\n      swap1\n      pop\n        /* \"#utility.yul\":7:82   */\n      swap1\n      jump\t// out\n        /* \"#utility.yul\":88:205   */\n    tag_206:\n        /* \"#utility.yul\":197:198   */\n      0x00\n        /* \"#utility.yul\":194:195   */\n      dup1\n        /* \"#utility.yul\":187:199   */\n      revert\n        /* \"#utility.yul\":211:328   */\n    tag_207:\n        /* \"#utility.yul\":320:321   */\n      0x00\n        /* \"#utility.yul\":317:318   */\n      dup1\n        /* \"#utility.yul\":310:322   */\n      revert\n        /* \"#utility.yul\":334:411   */\n    tag_208:\n        /* \"#utility.yul\":371:378   */\n      0x00\n        /* \"#utility.yul\":400:405   */\n      dup2\n        /* \"#utility.yul\":389:405   */\n      swap1\n      pop\n        /* \"#utility.yul\":334:411   */\n      swap2\n      swap1\n      pop\n      jump\t// out\n        /* \"#utility.yul\":417:539   */\n    tag_209:\n        /* \"#utility.yul\":490:514   */\n      tag_280\n        /* \"#utility.yul\":508:513   */\n      dup2\n        /* \"#utility.yul\":490:514   */\n      tag_208\n      jump\t// in\n    tag_280:\n        /* \"#utility.yul\":483:488   */\n      dup2\n        /* \"#utility.yul\":480:515   */\n      eq\n        /* \"#utility.yul\":470:533   */\n      tag_281\n      jumpi\n        /* \"#utility.yul\":529:530   */\n      0x00\n        /* \"#utility.yul\":526:527   */\n      dup1\n        /* \"#utility.yul\":519:531   */\n      revert\n        /* \"#utility.yul\":470:533   */\n    tag_281:\n        /* \"#utility.yul\":417:539   */\n      pop\n      jump\t// out\n        /* \"#utility.yul\":545:684   */\n    tag_210:\n        /* \"#utility.yul\":591:596   */\n      0x00\n        /* \"#utility.yul\":629:635   */\n      dup2\n        /* \"#utility.yul\":616:636   */\n      calldataload\n        /* \"#utility.yul\":607:636   */\n      swap1\n      pop\n        /* \"#utility.yul\":645:678   */\n      tag_283\n        /* \"#utility.yul\":672:677   */\n      dup2\n        /* \"#utility.yul\":645:678   */\n      tag_209\n      jump\t// in\n    tag_283:\n        /* \"#utility.yul\":545:684   */\n      swap3\n      swap2\n      pop\n      pop\n      jump\t// out\n        /* \"#utility.yul\":690:1019   */\n    tag_22:\n        /* \"#utility.yul\":749:755   */\n      0x00\n        /* \"#utility.yul\":798:800   */\n      0x20\n        /* \"#utility.yul\":786:795   */\n      dup3\n        /* \"#utility.yul\":777:784   */\n      dup5\n        /* \"#utility.yul\":773:796   */\n      sub\n        /* \"#utility.yul\":769:801   */\n      slt\n        /* \"#utility.yul\":766:885   */\n      iszero\n      tag_285\n      jumpi\n        /* \"#utility.yul\":804:883   */\n      tag_286\n      tag_206\n      jump\t// in\n    tag_286:\n        /* \"#utility.yul\":766:885   */\n    tag_285:\n        /* \"#utility.yul\":924:925   */\n      0x00\n        /* \"#utility.yul\":949:1002   */\n      tag_287\n        /* \"#utility.yul\":994:1001   */\n      dup5\n        /* \"#utility.yul\":985:991   */\n      dup3\n        /* \"#utility.yul\":974:983   */\n      dup6\n        /* \"#utility.yul\":970:992   */\n      add\n        /* \"#utility.yul\":949:1002   */\n      tag_210\n      jump\t// in\n    tag_287:\n        /* \"#utility.yul\":939:1002   */\n      swap2\n      pop\n        /* \"#utility.yul\":895:1012   */\n      pop\n        /* \"#utility.yul\":690:1019   */\n      swap3\n      swap2\n      pop\n      pop\n      jump\t// out\n        /* \"#utility.yul\":1025:1142   */\n    tag_211:\n        /* \"#utility.yul\":1134:1135   */\n      0x00\n        /* \"#utility.yul\":1131:1132   */\n      dup1\n        /* \"#utility.yul\":1124:1136   */\n      revert\n        /* \"#utility.yul\":1148:1265   */\n    tag_212:\n        /* \"#utility.yul\":1257:1258   */\n      0x00\n        /* \"#utility.yul\":1254:1255   */\n      dup1\n        /* \"#utility.yul\":1247:1259   */\n      revert\n        /* \"#utility.yul\":1271:1373   */\n    tag_213:\n        /* \"#utility.yul\":1312:1318   */\n      0x00\n        /* \"#utility.yul\":1363:1365   */\n      0x1f\n        /* \"#utility.yul\":1359:1366   */\n      not\n        /* \"#utility.yul\":1354:1356   */\n      0x1f\n        /* \"#utility.yul\":1347:1352   */\n      dup4\n        /* \"#utility.yul\":1343:1357   */\n      add\n        /* \"#utility.yul\":1339:1367   */\n      and\n        /* \"#utility.yul\":1329:1367   */\n      swap1\n      pop\n        /* \"#utility.yul\":1271:1373   */\n      swap2\n      swap1\n      pop\n      jump\t// out\n        /* \"#utility.yul\":1379:1559   */\n    tag_174:\n        /* \"#utility.yul\":1427:1504   */\n      0x4e487b7100000000000000000000000000000000000000000000000000000000\n        /* \"#utility.yul\":1424:1425   */\n      0x00\n        /* \"#utility.yul\":1417:1505   */\n      mstore\n        /* \"#utility.yul\":1524:1528   */\n      0x41\n        /* \"#utility.yul\":1521:1522   */\n      0x04\n        /* \"#utility.yul\":1514:1529   */\n      mstore\n        /* \"#utility.yul\":1548:1552   */\n      0x24\n        /* \"#utility.yul\":1545:1546   */\n      0x00\n        /* \"#utility.yul\":1538:1553   */\n      revert\n        /* \"#utility.yul\":1565:1846   */\n    tag_214:\n        /* \"#utility.yul\":1648:1675   */\n      tag_293\n        /* \"#utility.yul\":1670:1674   */\n      dup3\n        /* \"#utility.yul\":1648:1675   */\n      tag_213\n      jump\t// in\n    tag_293:\n        /* \"#utility.yul\":1640:1646   */\n      dup2\n        /* \"#utility.yul\":1636:1676   */\n      add\n        /* \"#utility.yul\":1778:1784   */\n      dup2\n        /* \"#utility.yul\":1766:1776   */\n      dup2\n        /* \"#utility.yul\":1763:1785   */\n      lt\n        /* \"#utility.yul\":1742:1760   */\n      0xffffffffffffffff\n        /* \"#utility.yul\":1730:1740   */\n      dup3\n        /* \"#utility.yul\":1727:1761   */\n      gt\n        /* \"#utility.yul\":1724:1786   */\n      or\n        /* \"#utility.yul\":1721:1809   */\n      iszero\n      tag_294\n      jumpi\n        /* \"#utility.yul\":1789:1807   */\n      tag_295\n      tag_174\n      jump\t// in\n    tag_295:\n        /* \"#utility.yul\":1721:1809   */\n    tag_294:\n        /* \"#utility.yul\":1829:1839   */\n      dup1\n        /* \"#utility.yul\":1825:1827   */\n      0x40\n        /* \"#utility.yul\":1818:1840   */\n      mstore\n        /* \"#utility.yul\":1608:1846   */\n      pop\n        /* \"#utility.yul\":1565:1846   */\n      pop\n      pop\n      jump\t// out\n        /* \"#utility.yul\":1852:1981   */\n    tag_215:\n        /* \"#utility.yul\":1886:1892   */\n      0x00\n        /* \"#utility.yul\":1913:1933   */\n      tag_297\n      tag_205\n      jump\t// in\n    tag_297:\n        /* \"#utility.yul\":1903:1933   */\n      swap1\n      pop\n        /* \"#utility.yul\":1942:1975   */\n      tag_298\n        /* \"#utility.yul\":1970:1974   */\n      dup3\n        /* \"#utility.yul\":1962:1968   */\n      dup3\n        /* \"#utility.yul\":1942:1975   */\n      tag_214\n      jump\t// in\n    tag_298:\n        /* \"#utility.yul\":1852:1981   */\n      swap2\n      swap1\n      pop\n      jump\t// out\n        /* \"#utility.yul\":1987:2295   */\n    tag_216:\n        /* \"#utility.yul\":2049:2053   */\n      0x00\n        /* \"#utility.yul\":2139:2157   */\n      0xffffffffffffffff\n        /* \"#utility.yul\":2131:2137   */\n      dup3\n        /* \"#utility.yul\":2128:2158   */\n      gt\n        /* \"#utility.yul\":2125:2181   */\n      iszero\n      tag_300\n      jumpi\n        /* \"#utility.yul\":2161:2179   */\n      tag_301\n      tag_174\n      jump\t// in\n    tag_301:\n        /* \"#utility.yul\":2125:2181   */\n    tag_300:\n        /* \"#utility.yul\":2199:2228   */\n      tag_302\n        /* \"#utility.yul\":2221:2227   */\n      dup3\n        /* \"#utility.yul\":2199:2228   */\n      tag_213\n      jump\t// in\n    tag_302:\n        /* \"#utility.yul\":2191:2228   */\n      swap1\n      pop\n        /* \"#utility.yul\":2283:2287   */\n      0x20\n        /* \"#utility.yul\":2277:2281   */\n      dup2\n        /* \"#utility.yul\":2273:2288   */\n      add\n        /* \"#utility.yul\":2265:2288   */\n      swap1\n      pop\n        /* \"#utility.yul\":1987:2295   */\n      swap2\n      swap1\n      pop\n      jump\t// out\n        /* \"#utility.yul\":2301:2447   */\n    tag_217:\n        /* \"#utility.yul\":2398:2404   */\n      dup3\n        /* \"#utility.yul\":2393:2396   */\n      dup2\n        /* \"#utility.yul\":2388:2391   */\n      dup4\n        /* \"#utility.yul\":2375:2405   */\n      calldatacopy\n        /* \"#utility.yul\":2439:2440   */\n      0x00\n        /* \"#utility.yul\":2430:2436   */\n      dup4\n        /* \"#utility.yul\":2425:2428   */\n      dup4\n        /* \"#utility.yul\":2421:2437   */\n      add\n        /* \"#utility.yul\":2414:2441   */\n      mstore\n        /* \"#utility.yul\":2301:2447   */\n      pop\n      pop\n      pop\n      jump\t// out\n        /* \"#utility.yul\":2453:2878   */\n    tag_218:\n        /* \"#utility.yul\":2531:2536   */\n      0x00\n        /* \"#utility.yul\":2556:2622   */\n      tag_305\n        /* \"#utility.yul\":2572:2621   */\n      tag_306\n        /* \"#utility.yul\":2614:2620   */\n      dup5\n        /* \"#utility.yul\":2572:2621   */\n      tag_216\n      jump\t// in\n    tag_306:\n        /* \"#utility.yul\":2556:2622   */\n      tag_215\n      jump\t// in\n    tag_305:\n        /* \"#utility.yul\":2547:2622   */\n      swap1\n      pop\n        /* \"#utility.yul\":2645:2651   */\n      dup3\n        /* \"#utility.yul\":2638:2643   */\n      dup2\n        /* \"#utility.yul\":2631:2652   */\n      mstore\n        /* \"#utility.yul\":2683:2687   */\n      0x20\n        /* \"#utility.yul\":2676:2681   */\n      dup2\n        /* \"#utility.yul\":2672:2688   */\n      add\n        /* \"#utility.yul\":2721:2724   */\n      dup5\n        /* \"#utility.yul\":2712:2718   */\n      dup5\n        /* \"#utility.yul\":2707:2710   */\n      dup5\n        /* \"#utility.yul\":2703:2719   */\n      add\n        /* \"#utility.yul\":2700:2725   */\n      gt\n        /* \"#utility.yul\":2697:2809   */\n      iszero\n      tag_307\n      jumpi\n        /* \"#utility.yul\":2728:2807   */\n      tag_308\n      tag_212\n      jump\t// in\n    tag_308:\n        /* \"#utility.yul\":2697:2809   */\n    tag_307:\n        /* \"#utility.yul\":2818:2872   */\n      tag_309\n        /* \"#utility.yul\":2865:2871   */\n      dup5\n        /* \"#utility.yul\":2860:2863   */\n      dup3\n        /* \"#utility.yul\":2855:2858   */\n      dup6\n        /* \"#utility.yul\":2818:2872   */\n      tag_217\n      jump\t// in\n    tag_309:\n        /* \"#utility.yul\":2537:2878   */\n      pop\n        /* \"#utility.yul\":2453:2878   */\n      swap4\n      swap3\n      pop\n      pop\n      pop\n      jump\t// out\n        /* \"#utility.yul\":2898:3238   */\n    tag_219:\n        /* \"#utility.yul\":2954:2959   */\n      0x00\n        /* \"#utility.yul\":3003:3006   */\n      dup3\n        /* \"#utility.yul\":2996:3000   */\n      0x1f\n        /* \"#utility.yul\":2988:2994   */\n      dup4\n        /* \"#utility.yul\":2984:3001   */\n      add\n        /* \"#utility.yul\":2980:3007   */\n      slt\n        /* \"#utility.yul\":2970:3092   */\n      tag_311\n      jumpi\n        /* \"#utility.yul\":3011:3090   */\n      tag_312\n      tag_211\n      jump\t// in\n    tag_312:\n        /* \"#utility.yul\":2970:3092   */\n    tag_311:\n        /* \"#utility.yul\":3128:3134   */\n      dup2\n        /* \"#utility.yul\":3115:3135   */\n      calldataload\n        /* \"#utility.yul\":3153:3232   */\n      tag_313\n        /* \"#utility.yul\":3228:3231   */\n      dup5\n        /* \"#utility.yul\":3220:3226   */\n      dup3\n        /* \"#utility.yul\":3213:3217   */\n      0x20\n        /* \"#utility.yul\":3205:3211   */\n      dup7\n        /* \"#utility.yul\":3201:3218   */\n      add\n        /* \"#utility.yul\":3153:3232   */\n      tag_218\n      jump\t// in\n    tag_313:\n        /* \"#utility.yul\":3144:3232   */\n      swap2\n      pop\n        /* \"#utility.yul\":2960:3238   */\n      pop\n        /* \"#utility.yul\":2898:3238   */\n      swap3\n      swap2\n      pop\n      pop\n      jump\t// out\n        /* \"#utility.yul\":3244:3370   */\n    tag_220:\n        /* \"#utility.yul\":3281:3288   */\n      0x00\n        /* \"#utility.yul\":3321:3363   */\n      0xffffffffffffffffffffffffffffffffffffffff\n        /* \"#utility.yul\":3314:3319   */\n      dup3\n        /* \"#utility.yul\":3310:3364   */\n      and\n        /* \"#utility.yul\":3299:3364   */\n      swap1\n      pop\n        /* \"#utility.yul\":3244:3370   */\n      swap2\n      swap1\n      pop\n      jump\t// out\n        /* \"#utility.yul\":3376:3472   */\n    tag_221:\n        /* \"#utility.yul\":3413:3420   */\n      0x00\n        /* \"#utility.yul\":3442:3466   */\n      tag_316\n        /* \"#utility.yul\":3460:3465   */\n      dup3\n        /* \"#utility.yul\":3442:3466   */\n      tag_220\n      jump\t// in\n    tag_316:\n        /* \"#utility.yul\":3431:3466   */\n      swap1\n      pop\n        /* \"#utility.yul\":3376:3472   */\n      swap2\n      swap1\n      pop\n      jump\t// out\n        /* \"#utility.yul\":3478:3600   */\n    tag_222:\n        /* \"#utility.yul\":3551:3575   */\n      tag_318\n        /* \"#utility.yul\":3569:3574   */\n      dup2\n        /* \"#utility.yul\":3551:3575   */\n      tag_221\n      jump\t// in\n    tag_318:\n        /* \"#utility.yul\":3544:3549   */\n      dup2\n        /* \"#utility.yul\":3541:3576   */\n      eq\n        /* \"#utility.yul\":3531:3594   */\n      tag_319\n      jumpi\n        /* \"#utility.yul\":3590:3591   */\n      0x00\n        /* \"#utility.yul\":3587:3588   */\n      dup1\n        /* \"#utility.yul\":3580:3592   */\n      revert\n        /* \"#utility.yul\":3531:3594   */\n    tag_319:\n        /* \"#utility.yul\":3478:3600   */\n      pop\n      jump\t// out\n        /* \"#utility.yul\":3606:3745   */\n    tag_223:\n        /* \"#utility.yul\":3652:3657   */\n      0x00\n        /* \"#utility.yul\":3690:3696   */\n      dup2\n        /* \"#utility.yul\":3677:3697   */\n      calldataload\n        /* \"#utility.yul\":3668:3697   */\n      swap1\n      pop\n        /* \"#utility.yul\":3706:3739   */\n      tag_321\n        /* \"#utility.yul\":3733:3738   */\n      dup2\n        /* \"#utility.yul\":3706:3739   */\n      tag_222\n      jump\t// in\n    tag_321:\n        /* \"#utility.yul\":3606:3745   */\n      swap3\n      swap2\n      pop\n      pop\n      jump\t// out\n        /* \"#utility.yul\":3751:4696   */\n    tag_26:\n        /* \"#utility.yul\":3847:3853   */\n      0x00\n        /* \"#utility.yul\":3855:3861   */\n      dup1\n        /* \"#utility.yul\":3863:3869   */\n      0x00\n        /* \"#utility.yul\":3871:3877   */\n      dup1\n        /* \"#utility.yul\":3920:3923   */\n      0x80\n        /* \"#utility.yul\":3908:3917   */\n      dup6\n        /* \"#utility.yul\":3899:3906   */\n      dup8\n        /* \"#utility.yul\":3895:3918   */\n      sub\n        /* \"#utility.yul\":3891:3924   */\n      slt\n        /* \"#utility.yul\":3888:4008   */\n      iszero\n      tag_323\n      jumpi\n        /* \"#utility.yul\":3927:4006   */\n      tag_324\n      tag_206\n      jump\t// in\n    tag_324:\n        /* \"#utility.yul\":3888:4008   */\n    tag_323:\n        /* \"#utility.yul\":4075:4076   */\n      0x00\n        /* \"#utility.yul\":4064:4073   */\n      dup6\n        /* \"#utility.yul\":4060:4077   */\n      add\n        /* \"#utility.yul\":4047:4078   */\n      calldataload\n        /* \"#utility.yul\":4105:4123   */\n      0xffffffffffffffff\n        /* \"#utility.yul\":4097:4103   */\n      dup2\n        /* \"#utility.yul\":4094:4124   */\n      gt\n        /* \"#utility.yul\":4091:4208   */\n      iszero\n      tag_325\n      jumpi\n        /* \"#utility.yul\":4127:4206   */\n      tag_326\n      tag_207\n      jump\t// in\n    tag_326:\n        /* \"#utility.yul\":4091:4208   */\n    tag_325:\n        /* \"#utility.yul\":4232:4295   */\n      tag_327\n        /* \"#utility.yul\":4287:4294   */\n      dup8\n        /* \"#utility.yul\":4278:4284   */\n      dup3\n        /* \"#utility.yul\":4267:4276   */\n      dup9\n        /* \"#utility.yul\":4263:4285   */\n      add\n        /* \"#utility.yul\":4232:4295   */\n      tag_219\n      jump\t// in\n    tag_327:\n        /* \"#utility.yul\":4222:4295   */\n      swap5\n      pop\n        /* \"#utility.yul\":4018:4305   */\n      pop\n        /* \"#utility.yul\":4344:4346   */\n      0x20\n        /* \"#utility.yul\":4370:4423   */\n      tag_328\n        /* \"#utility.yul\":4415:4422   */\n      dup8\n        /* \"#utility.yul\":4406:4412   */\n      dup3\n        /* \"#utility.yul\":4395:4404   */\n      dup9\n        /* \"#utility.yul\":4391:4413   */\n      add\n        /* \"#utility.yul\":4370:4423   */\n      tag_210\n      jump\t// in\n    tag_328:\n        /* \"#utility.yul\":4360:4423   */\n      swap4\n      pop\n        /* \"#utility.yul\":4315:4433   */\n      pop\n        /* \"#utility.yul\":4472:4474   */\n      0x40\n        /* \"#utility.yul\":4498:4551   */\n      tag_329\n        /* \"#utility.yul\":4543:4550   */\n      dup8\n        /* \"#utility.yul\":4534:4540   */\n      dup3\n        /* \"#utility.yul\":4523:4532   */\n      dup9\n        /* \"#utility.yul\":4519:4541   */\n      add\n        /* \"#utility.yul\":4498:4551   */\n      tag_223\n      jump\t// in\n    tag_329:\n        /* \"#utility.yul\":4488:4551   */\n      swap3\n      pop\n        /* \"#utility.yul\":4443:4561   */\n      pop\n        /* \"#utility.yul\":4600:4602   */\n      0x60\n        /* \"#utility.yul\":4626:4679   */\n      tag_330\n        /* \"#utility.yul\":4671:4678   */\n      dup8\n        /* \"#utility.yul\":4662:4668   */\n      dup3\n        /* \"#utility.yul\":4651:4660   */\n      dup9\n        /* \"#utility.yul\":4647:4669   */\n      add\n        /* \"#utility.yul\":4626:4679   */\n      tag_210\n      jump\t// in\n    tag_330:\n        /* \"#utility.yul\":4616:4679   */\n      swap2\n      pop\n        /* \"#utility.yul\":4571:4689   */\n      pop\n        /* \"#utility.yul\":3751:4696   */\n      swap3\n      swap6\n      swap2\n      swap5\n      pop\n      swap3\n      pop\n      jump\t// out\n        /* \"#utility.yul\":4702:4882   */\n    tag_83:\n        /* \"#utility.yul\":4750:4827   */\n      0x4e487b7100000000000000000000000000000000000000000000000000000000\n        /* \"#utility.yul\":4747:4748   */\n      0x00\n        /* \"#utility.yul\":4740:4828   */\n      mstore\n        /* \"#utility.yul\":4847:4851   */\n      0x21\n        /* \"#utility.yul\":4844:4845   */\n      0x04\n        /* \"#utility.yul\":4837:4852   */\n      mstore\n        /* \"#utility.yul\":4871:4875   */\n      0x24\n        /* \"#utility.yul\":4868:4869   */\n      0x00\n        /* \"#utility.yul\":4861:4876   */\n      revert\n        /* \"#utility.yul\":4888:5002   */\n    tag_224:\n        /* \"#utility.yul\":4970:4971   */\n      0x03\n        /* \"#utility.yul\":4963:4968   */\n      dup2\n        /* \"#utility.yul\":4960:4972   */\n      lt\n        /* \"#utility.yul\":4950:4996   */\n      tag_333\n      jumpi\n        /* \"#utility.yul\":4976:4994   */\n      tag_334\n      tag_83\n      jump\t// in\n    tag_334:\n        /* \"#utility.yul\":4950:4996   */\n    tag_333:\n        /* \"#utility.yul\":4888:5002   */\n      pop\n      jump\t// out\n        /* \"#utility.yul\":5008:5137   */\n    tag_225:\n        /* \"#utility.yul\":5054:5061   */\n      0x00\n        /* \"#utility.yul\":5083:5088   */\n      dup2\n        /* \"#utility.yul\":5072:5088   */\n      swap1\n      pop\n        /* \"#utility.yul\":5089:5131   */\n      tag_336\n        /* \"#utility.yul\":5125:5130   */\n      dup3\n        /* \"#utility.yul\":5089:5131   */\n      tag_224\n      jump\t// in\n    tag_336:\n        /* \"#utility.yul\":5008:5137   */\n      swap2\n      swap1\n      pop\n      jump\t// out\n        /* \"#utility.yul\":5143:5272   */\n    tag_226:\n        /* \"#utility.yul\":5200:5209   */\n      0x00\n        /* \"#utility.yul\":5233:5266   */\n      tag_338\n        /* \"#utility.yul\":5260:5265   */\n      dup3\n        /* \"#utility.yul\":5233:5266   */\n      tag_225\n      jump\t// in\n    tag_338:\n        /* \"#utility.yul\":5220:5266   */\n      swap1\n      pop\n        /* \"#utility.yul\":5143:5272   */\n      swap2\n      swap1\n      pop\n      jump\t// out\n        /* \"#utility.yul\":5278:5423   */\n    tag_227:\n        /* \"#utility.yul\":5372:5416   */\n      tag_340\n        /* \"#utility.yul\":5410:5415   */\n      dup2\n        /* \"#utility.yul\":5372:5416   */\n      tag_226\n      jump\t// in\n    tag_340:\n        /* \"#utility.yul\":5367:5370   */\n      dup3\n        /* \"#utility.yul\":5360:5417   */\n      mstore\n        /* \"#utility.yul\":5278:5423   */\n      pop\n      pop\n      jump\t// out\n        /* \"#utility.yul\":5429:5665   */\n    tag_32:\n        /* \"#utility.yul\":5529:5533   */\n      0x00\n        /* \"#utility.yul\":5567:5569   */\n      0x20\n        /* \"#utility.yul\":5556:5565   */\n      dup3\n        /* \"#utility.yul\":5552:5570   */\n      add\n        /* \"#utility.yul\":5544:5570   */\n      swap1\n      pop\n        /* \"#utility.yul\":5580:5658   */\n      tag_342\n        /* \"#utility.yul\":5655:5656   */\n      0x00\n        /* \"#utility.yul\":5644:5653   */\n      dup4\n        /* \"#utility.yul\":5640:5657   */\n      add\n        /* \"#utility.yul\":5631:5637   */\n      dup5\n        /* \"#utility.yul\":5580:5658   */\n      tag_227\n      jump\t// in\n    tag_342:\n        /* \"#utility.yul\":5429:5665   */\n      swap3\n      swap2\n      pop\n      pop\n      jump\t// out\n        /* \"#utility.yul\":5671:5770   */\n    tag_228:\n        /* \"#utility.yul\":5723:5729   */\n      0x00\n        /* \"#utility.yul\":5757:5762   */\n      dup2\n        /* \"#utility.yul\":5751:5763   */\n      mload\n        /* \"#utility.yul\":5741:5763   */\n      swap1\n      pop\n        /* \"#utility.yul\":5671:5770   */\n      swap2\n      swap1\n      pop\n      jump\t// out\n        /* \"#utility.yul\":5776:5935   */\n    tag_229:\n        /* \"#utility.yul\":5850:5861   */\n      0x00\n        /* \"#utility.yul\":5884:5890   */\n      dup3\n        /* \"#utility.yul\":5879:5882   */\n      dup3\n        /* \"#utility.yul\":5872:5891   */\n      mstore\n        /* \"#utility.yul\":5924:5928   */\n      0x20\n        /* \"#utility.yul\":5919:5922   */\n      dup3\n        /* \"#utility.yul\":5915:5929   */\n      add\n        /* \"#utility.yul\":5900:5929   */\n      swap1\n      pop\n        /* \"#utility.yul\":5776:5935   */\n      swap3\n      swap2\n      pop\n      pop\n      jump\t// out\n        /* \"#utility.yul\":5941:6187   */\n    tag_230:\n        /* \"#utility.yul\":6022:6023   */\n      0x00\n        /* \"#utility.yul\":6032:6145   */\n    tag_346:\n        /* \"#utility.yul\":6046:6052   */\n      dup4\n        /* \"#utility.yul\":6043:6044   */\n      dup2\n        /* \"#utility.yul\":6040:6053   */\n      lt\n        /* \"#utility.yul\":6032:6145   */\n      iszero\n      tag_348\n      jumpi\n        /* \"#utility.yul\":6131:6132   */\n      dup1\n        /* \"#utility.yul\":6126:6129   */\n      dup3\n        /* \"#utility.yul\":6122:6133   */\n      add\n        /* \"#utility.yul\":6116:6134   */\n      mload\n        /* \"#utility.yul\":6112:6113   */\n      dup2\n        /* \"#utility.yul\":6107:6110   */\n      dup5\n        /* \"#utility.yul\":6103:6114   */\n      add\n        /* \"#utility.yul\":6096:6135   */\n      mstore\n        /* \"#utility.yul\":6068:6070   */\n      0x20\n        /* \"#utility.yul\":6065:6066   */\n      dup2\n        /* \"#utility.yul\":6061:6071   */\n      add\n        /* \"#utility.yul\":6056:6071   */\n      swap1\n      pop\n        /* \"#utility.yul\":6032:6145   */\n      jump(tag_346)\n    tag_348:\n        /* \"#utility.yul\":6179:6180   */\n      0x00\n        /* \"#utility.yul\":6170:6176   */\n      dup5\n        /* \"#utility.yul\":6165:6168   */\n      dup5\n        /* \"#utility.yul\":6161:6177   */\n      add\n        /* \"#utility.yul\":6154:6181   */\n      mstore\n        /* \"#utility.yul\":6003:6187   */\n      pop\n        /* \"#utility.yul\":5941:6187   */\n      pop\n      pop\n      pop\n      jump\t// out\n        /* \"#utility.yul\":6193:6550   */\n    tag_231:\n        /* \"#utility.yul\":6271:6274   */\n      0x00\n        /* \"#utility.yul\":6299:6338   */\n      tag_350\n        /* \"#utility.yul\":6332:6337   */\n      dup3\n        /* \"#utility.yul\":6299:6338   */\n      tag_228\n      jump\t// in\n    tag_350:\n        /* \"#utility.yul\":6354:6415   */\n      tag_351\n        /* \"#utility.yul\":6408:6414   */\n      dup2\n        /* \"#utility.yul\":6403:6406   */\n      dup6\n        /* \"#utility.yul\":6354:6415   */\n      tag_229\n      jump\t// in\n    tag_351:\n        /* \"#utility.yul\":6347:6415   */\n      swap4\n      pop\n        /* \"#utility.yul\":6424:6489   */\n      tag_352\n        /* \"#utility.yul\":6482:6488   */\n      dup2\n        /* \"#utility.yul\":6477:6480   */\n      dup6\n        /* \"#utility.yul\":6470:6474   */\n      0x20\n        /* \"#utility.yul\":6463:6468   */\n      dup7\n        /* \"#utility.yul\":6459:6475   */\n      add\n        /* \"#utility.yul\":6424:6489   */\n      tag_230\n      jump\t// in\n    tag_352:\n        /* \"#utility.yul\":6514:6543   */\n      tag_353\n        /* \"#utility.yul\":6536:6542   */\n      dup2\n        /* \"#utility.yul\":6514:6543   */\n      tag_213\n      jump\t// in\n    tag_353:\n        /* \"#utility.yul\":6509:6512   */\n      dup5\n        /* \"#utility.yul\":6505:6544   */\n      add\n        /* \"#utility.yul\":6498:6544   */\n      swap2\n      pop\n        /* \"#utility.yul\":6275:6550   */\n      pop\n        /* \"#utility.yul\":6193:6550   */\n      swap3\n      swap2\n      pop\n      pop\n      jump\t// out\n        /* \"#utility.yul\":6556:6664   */\n    tag_232:\n        /* \"#utility.yul\":6633:6657   */\n      tag_355\n        /* \"#utility.yul\":6651:6656   */\n      dup2\n        /* \"#utility.yul\":6633:6657   */\n      tag_208\n      jump\t// in\n    tag_355:\n        /* \"#utility.yul\":6628:6631   */\n      dup3\n        /* \"#utility.yul\":6621:6658   */\n      mstore\n        /* \"#utility.yul\":6556:6664   */\n      pop\n      pop\n      jump\t// out\n        /* \"#utility.yul\":6734:7515   */\n    tag_233:\n        /* \"#utility.yul\":6851:6854   */\n      0x00\n        /* \"#utility.yul\":6887:6891   */\n      0x60\n        /* \"#utility.yul\":6882:6885   */\n      dup4\n        /* \"#utility.yul\":6878:6892   */\n      add\n        /* \"#utility.yul\":6974:6978   */\n      0x00\n        /* \"#utility.yul\":6967:6972   */\n      dup4\n        /* \"#utility.yul\":6963:6979   */\n      add\n        /* \"#utility.yul\":6957:6980   */\n      mload\n        /* \"#utility.yul\":7027:7030   */\n      dup5\n        /* \"#utility.yul\":7021:7025   */\n      dup3\n        /* \"#utility.yul\":7017:7031   */\n      sub\n        /* \"#utility.yul\":7010:7014   */\n      0x00\n        /* \"#utility.yul\":7005:7008   */\n      dup7\n        /* \"#utility.yul\":7001:7015   */\n      add\n        /* \"#utility.yul\":6994:7032   */\n      mstore\n        /* \"#utility.yul\":7053:7126   */\n      tag_357\n        /* \"#utility.yul\":7121:7125   */\n      dup3\n        /* \"#utility.yul\":7107:7119   */\n      dup3\n        /* \"#utility.yul\":7053:7126   */\n      tag_231\n      jump\t// in\n    tag_357:\n        /* \"#utility.yul\":7045:7126   */\n      swap2\n      pop\n        /* \"#utility.yul\":6902:7137   */\n      pop\n        /* \"#utility.yul\":7221:7225   */\n      0x20\n        /* \"#utility.yul\":7214:7219   */\n      dup4\n        /* \"#utility.yul\":7210:7226   */\n      add\n        /* \"#utility.yul\":7204:7227   */\n      mload\n        /* \"#utility.yul\":7240:7303   */\n      tag_358\n        /* \"#utility.yul\":7297:7301   */\n      0x20\n        /* \"#utility.yul\":7292:7295   */\n      dup7\n        /* \"#utility.yul\":7288:7302   */\n      add\n        /* \"#utility.yul\":7274:7286   */\n      dup3\n        /* \"#utility.yul\":7240:7303   */\n      tag_232\n      jump\t// in\n    tag_358:\n        /* \"#utility.yul\":7147:7313   */\n      pop\n        /* \"#utility.yul\":7396:7400   */\n      0x40\n        /* \"#utility.yul\":7389:7394   */\n      dup4\n        /* \"#utility.yul\":7385:7401   */\n      add\n        /* \"#utility.yul\":7379:7402   */\n      mload\n        /* \"#utility.yul\":7415:7478   */\n      tag_359\n        /* \"#utility.yul\":7472:7476   */\n      0x40\n        /* \"#utility.yul\":7467:7470   */\n      dup7\n        /* \"#utility.yul\":7463:7477   */\n      add\n        /* \"#utility.yul\":7449:7461   */\n      dup3\n        /* \"#utility.yul\":7415:7478   */\n      tag_232\n      jump\t// in\n    tag_359:\n        /* \"#utility.yul\":7323:7488   */\n      pop\n        /* \"#utility.yul\":7505:7509   */\n      dup1\n        /* \"#utility.yul\":7498:7509   */\n      swap2\n      pop\n        /* \"#utility.yul\":6856:7515   */\n      pop\n        /* \"#utility.yul\":6734:7515   */\n      swap3\n      swap2\n      pop\n      pop\n      jump\t// out\n        /* \"#utility.yul\":7521:7890   */\n    tag_40:\n        /* \"#utility.yul\":7662:7666   */\n      0x00\n        /* \"#utility.yul\":7700:7702   */\n      0x20\n        /* \"#utility.yul\":7689:7698   */\n      dup3\n        /* \"#utility.yul\":7685:7703   */\n      add\n        /* \"#utility.yul\":7677:7703   */\n      swap1\n      pop\n        /* \"#utility.yul\":7749:7758   */\n      dup2\n        /* \"#utility.yul\":7743:7747   */\n      dup2\n        /* \"#utility.yul\":7739:7759   */\n      sub\n        /* \"#utility.yul\":7735:7736   */\n      0x00\n        /* \"#utility.yul\":7724:7733   */\n      dup4\n        /* \"#utility.yul\":7720:7737   */\n      add\n        /* \"#utility.yul\":7713:7760   */\n      mstore\n        /* \"#utility.yul\":7777:7883   */\n      tag_361\n        /* \"#utility.yul\":7878:7882   */\n      dup2\n        /* \"#utility.yul\":7869:7875   */\n      dup5\n        /* \"#utility.yul\":7777:7883   */\n      tag_233\n      jump\t// in\n    tag_361:\n        /* \"#utility.yul\":7769:7883   */\n      swap1\n      pop\n        /* \"#utility.yul\":7521:7890   */\n      swap3\n      swap2\n      pop\n      pop\n      jump\t// out\n        /* \"#utility.yul\":7896:8014   */\n    tag_234:\n        /* \"#utility.yul\":7983:8007   */\n      tag_363\n        /* \"#utility.yul\":8001:8006   */\n      dup2\n        /* \"#utility.yul\":7983:8007   */\n      tag_208\n      jump\t// in\n    tag_363:\n        /* \"#utility.yul\":7978:7981   */\n      dup3\n        /* \"#utility.yul\":7971:8008   */\n      mstore\n        /* \"#utility.yul\":7896:8014   */\n      pop\n      pop\n      jump\t// out\n        /* \"#utility.yul\":8020:8242   */\n    tag_44:\n        /* \"#utility.yul\":8113:8117   */\n      0x00\n        /* \"#utility.yul\":8151:8153   */\n      0x20\n        /* \"#utility.yul\":8140:8149   */\n      dup3\n        /* \"#utility.yul\":8136:8154   */\n      add\n        /* \"#utility.yul\":8128:8154   */\n      swap1\n      pop\n        /* \"#utility.yul\":8164:8235   */\n      tag_365\n        /* \"#utility.yul\":8232:8233   */\n      0x00\n        /* \"#utility.yul\":8221:8230   */\n      dup4\n        /* \"#utility.yul\":8217:8234   */\n      add\n        /* \"#utility.yul\":8208:8214   */\n      dup5\n        /* \"#utility.yul\":8164:8235   */\n      tag_234\n      jump\t// in\n    tag_365:\n        /* \"#utility.yul\":8020:8242   */\n      swap3\n      swap2\n      pop\n      pop\n      jump\t// out\n        /* \"#utility.yul\":8248:8757   */\n    tag_47:\n        /* \"#utility.yul\":8317:8323   */\n      0x00\n        /* \"#utility.yul\":8366:8368   */\n      0x20\n        /* \"#utility.yul\":8354:8363   */\n      dup3\n        /* \"#utility.yul\":8345:8352   */\n      dup5\n        /* \"#utility.yul\":8341:8364   */\n      sub\n        /* \"#utility.yul\":8337:8369   */\n      slt\n        /* \"#utility.yul\":8334:8453   */\n      iszero\n      tag_367\n      jumpi\n        /* \"#utility.yul\":8372:8451   */\n      tag_368\n      tag_206\n      jump\t// in\n    tag_368:\n        /* \"#utility.yul\":8334:8453   */\n    tag_367:\n        /* \"#utility.yul\":8520:8521   */\n      0x00\n        /* \"#utility.yul\":8509:8518   */\n      dup3\n        /* \"#utility.yul\":8505:8522   */\n      add\n        /* \"#utility.yul\":8492:8523   */\n      calldataload\n        /* \"#utility.yul\":8550:8568   */\n      0xffffffffffffffff\n        /* \"#utility.yul\":8542:8548   */\n      dup2\n        /* \"#utility.yul\":8539:8569   */\n      gt\n        /* \"#utility.yul\":8536:8653   */\n      iszero\n      tag_369\n      jumpi\n        /* \"#utility.yul\":8572:8651   */\n      tag_370\n      tag_207\n      jump\t// in\n    tag_370:\n        /* \"#utility.yul\":8536:8653   */\n    tag_369:\n        /* \"#utility.yul\":8677:8740   */\n      tag_371\n        /* \"#utility.yul\":8732:8739   */\n      dup5\n        /* \"#utility.yul\":8723:8729   */\n      dup3\n        /* \"#utility.yul\":8712:8721   */\n      dup6\n        /* \"#utility.yul\":8708:8730   */\n      add\n        /* \"#utility.yul\":8677:8740   */\n      tag_219\n      jump\t// in\n    tag_371:\n        /* \"#utility.yul\":8667:8740   */\n      swap2\n      pop\n        /* \"#utility.yul\":8463:8750   */\n      pop\n        /* \"#utility.yul\":8248:8757   */\n      swap3\n      swap2\n      pop\n      pop\n      jump\t// out\n        /* \"#utility.yul\":8763:8871   */\n    tag_235:\n        /* \"#utility.yul\":8840:8864   */\n      tag_373\n        /* \"#utility.yul\":8858:8863   */\n      dup2\n        /* \"#utility.yul\":8840:8864   */\n      tag_221\n      jump\t// in\n    tag_373:\n        /* \"#utility.yul\":8835:8838   */\n      dup3\n        /* \"#utility.yul\":8828:8865   */\n      mstore\n        /* \"#utility.yul\":8763:8871   */\n      pop\n      pop\n      jump\t// out\n        /* \"#utility.yul\":8939:9622   */\n    tag_236:\n        /* \"#utility.yul\":9080:9084   */\n      0x60\n        /* \"#utility.yul\":9075:9078   */\n      dup3\n        /* \"#utility.yul\":9071:9085   */\n      add\n        /* \"#utility.yul\":9169:9173   */\n      0x00\n        /* \"#utility.yul\":9162:9167   */\n      dup3\n        /* \"#utility.yul\":9158:9174   */\n      add\n        /* \"#utility.yul\":9152:9175   */\n      mload\n        /* \"#utility.yul\":9188:9251   */\n      tag_375\n        /* \"#utility.yul\":9245:9249   */\n      0x00\n        /* \"#utility.yul\":9240:9243   */\n      dup6\n        /* \"#utility.yul\":9236:9250   */\n      add\n        /* \"#utility.yul\":9222:9234   */\n      dup3\n        /* \"#utility.yul\":9188:9251   */\n      tag_232\n      jump\t// in\n    tag_375:\n        /* \"#utility.yul\":9095:9261   */\n      pop\n        /* \"#utility.yul\":9345:9349   */\n      0x20\n        /* \"#utility.yul\":9338:9343   */\n      dup3\n        /* \"#utility.yul\":9334:9350   */\n      add\n        /* \"#utility.yul\":9328:9351   */\n      mload\n        /* \"#utility.yul\":9364:9427   */\n      tag_376\n        /* \"#utility.yul\":9421:9425   */\n      0x20\n        /* \"#utility.yul\":9416:9419   */\n      dup6\n        /* \"#utility.yul\":9412:9426   */\n      add\n        /* \"#utility.yul\":9398:9410   */\n      dup3\n        /* \"#utility.yul\":9364:9427   */\n      tag_235\n      jump\t// in\n    tag_376:\n        /* \"#utility.yul\":9271:9437   */\n      pop\n        /* \"#utility.yul\":9523:9527   */\n      0x40\n        /* \"#utility.yul\":9516:9521   */\n      dup3\n        /* \"#utility.yul\":9512:9528   */\n      add\n        /* \"#utility.yul\":9506:9529   */\n      mload\n        /* \"#utility.yul\":9542:9605   */\n      tag_377\n        /* \"#utility.yul\":9599:9603   */\n      0x40\n        /* \"#utility.yul\":9594:9597   */\n      dup6\n        /* \"#utility.yul\":9590:9604   */\n      add\n        /* \"#utility.yul\":9576:9588   */\n      dup3\n        /* \"#utility.yul\":9542:9605   */\n      tag_232\n      jump\t// in\n    tag_377:\n        /* \"#utility.yul\":9447:9615   */\n      pop\n        /* \"#utility.yul\":9049:9622   */\n      pop\n        /* \"#utility.yul\":8939:9622   */\n      pop\n      pop\n      jump\t// out\n        /* \"#utility.yul\":9628:9938   */\n    tag_50:\n        /* \"#utility.yul\":9765:9769   */\n      0x00\n        /* \"#utility.yul\":9803:9805   */\n      0x60\n        /* \"#utility.yul\":9792:9801   */\n      dup3\n        /* \"#utility.yul\":9788:9806   */\n      add\n        /* \"#utility.yul\":9780:9806   */\n      swap1\n      pop\n        /* \"#utility.yul\":9816:9931   */\n      tag_379\n        /* \"#utility.yul\":9928:9929   */\n      0x00\n        /* \"#utility.yul\":9917:9926   */\n      dup4\n        /* \"#utility.yul\":9913:9930   */\n      add\n        /* \"#utility.yul\":9904:9910   */\n      dup5\n        /* \"#utility.yul\":9816:9931   */\n      tag_236\n      jump\t// in\n    tag_379:\n        /* \"#utility.yul\":9628:9938   */\n      swap3\n      swap2\n      pop\n      pop\n      jump\t// out\n        /* \"#utility.yul\":9944:10743   */\n    tag_53:\n        /* \"#utility.yul\":10031:10037   */\n      0x00\n        /* \"#utility.yul\":10039:10045   */\n      dup1\n        /* \"#utility.yul\":10047:10053   */\n      0x00\n        /* \"#utility.yul\":10096:10098   */\n      0x60\n        /* \"#utility.yul\":10084:10093   */\n      dup5\n        /* \"#utility.yul\":10075:10082   */\n      dup7\n        /* \"#utility.yul\":10071:10094   */\n      sub\n        /* \"#utility.yul\":10067:10099   */\n      slt\n        /* \"#utility.yul\":10064:10183   */\n      iszero\n      tag_381\n      jumpi\n        /* \"#utility.yul\":10102:10181   */\n      tag_382\n      tag_206\n      jump\t// in\n    tag_382:\n        /* \"#utility.yul\":10064:10183   */\n    tag_381:\n        /* \"#utility.yul\":10250:10251   */\n      0x00\n        /* \"#utility.yul\":10239:10248   */\n      dup5\n        /* \"#utility.yul\":10235:10252   */\n      add\n        /* \"#utility.yul\":10222:10253   */\n      calldataload\n        /* \"#utility.yul\":10280:10298   */\n      0xffffffffffffffff\n        /* \"#utility.yul\":10272:10278   */\n      dup2\n        /* \"#utility.yul\":10269:10299   */\n      gt\n        /* \"#utility.yul\":10266:10383   */\n      iszero\n      tag_383\n      jumpi\n        /* \"#utility.yul\":10302:10381   */\n      tag_384\n      tag_207\n      jump\t// in\n    tag_384:\n        /* \"#utility.yul\":10266:10383   */\n    tag_383:\n        /* \"#utility.yul\":10407:10470   */\n      tag_385\n        /* \"#utility.yul\":10462:10469   */\n      dup7\n        /* \"#utility.yul\":10453:10459   */\n      dup3\n        /* \"#utility.yul\":10442:10451   */\n      dup8\n        /* \"#utility.yul\":10438:10460   */\n      add\n        /* \"#utility.yul\":10407:10470   */\n      tag_219\n      jump\t// in\n    tag_385:\n        /* \"#utility.yul\":10397:10470   */\n      swap4\n      pop\n        /* \"#utility.yul\":10193:10480   */\n      pop\n        /* \"#utility.yul\":10519:10521   */\n      0x20\n        /* \"#utility.yul\":10545:10598   */\n      tag_386\n        /* \"#utility.yul\":10590:10597   */\n      dup7\n        /* \"#utility.yul\":10581:10587   */\n      dup3\n        /* \"#utility.yul\":10570:10579   */\n      dup8\n        /* \"#utility.yul\":10566:10588   */\n      add\n        /* \"#utility.yul\":10545:10598   */\n      tag_210\n      jump\t// in\n    tag_386:\n        /* \"#utility.yul\":10535:10598   */\n      swap3\n      pop\n        /* \"#utility.yul\":10490:10608   */\n      pop\n        /* \"#utility.yul\":10647:10649   */\n      0x40\n        /* \"#utility.yul\":10673:10726   */\n      tag_387\n        /* \"#utility.yul\":10718:10725   */\n      dup7\n        /* \"#utility.yul\":10709:10715   */\n      dup3\n        /* \"#utility.yul\":10698:10707   */\n      dup8\n        /* \"#utility.yul\":10694:10716   */\n      add\n        /* \"#utility.yul\":10673:10726   */\n      tag_210\n      jump\t// in\n    tag_387:\n        /* \"#utility.yul\":10663:10726   */\n      swap2\n      pop\n        /* \"#utility.yul\":10618:10736   */\n      pop\n        /* \"#utility.yul\":9944:10743   */\n      swap3\n      pop\n      swap3\n      pop\n      swap3\n      jump\t// out\n        /* \"#utility.yul\":10749:10839   */\n    tag_237:\n        /* \"#utility.yul\":10783:10790   */\n      0x00\n        /* \"#utility.yul\":10826:10831   */\n      dup2\n        /* \"#utility.yul\":10819:10832   */\n      iszero\n        /* \"#utility.yul\":10812:10833   */\n      iszero\n        /* \"#utility.yul\":10801:10833   */\n      swap1\n      pop\n        /* \"#utility.yul\":10749:10839   */\n      swap2\n      swap1\n      pop\n      jump\t// out\n        /* \"#utility.yul\":10845:10954   */\n    tag_238:\n        /* \"#utility.yul\":10926:10947   */\n      tag_390\n        /* \"#utility.yul\":10941:10946   */\n      dup2\n        /* \"#utility.yul\":10926:10947   */\n      tag_237\n      jump\t// in\n    tag_390:\n        /* \"#utility.yul\":10921:10924   */\n      dup3\n        /* \"#utility.yul\":10914:10948   */\n      mstore\n        /* \"#utility.yul\":10845:10954   */\n      pop\n      pop\n      jump\t// out\n        /* \"#utility.yul\":10960:11170   */\n    tag_64:\n        /* \"#utility.yul\":11047:11051   */\n      0x00\n        /* \"#utility.yul\":11085:11087   */\n      0x20\n        /* \"#utility.yul\":11074:11083   */\n      dup3\n        /* \"#utility.yul\":11070:11088   */\n      add\n        /* \"#utility.yul\":11062:11088   */\n      swap1\n      pop\n        /* \"#utility.yul\":11098:11163   */\n      tag_392\n        /* \"#utility.yul\":11160:11161   */\n      0x00\n        /* \"#utility.yul\":11149:11158   */\n      dup4\n        /* \"#utility.yul\":11145:11162   */\n      add\n        /* \"#utility.yul\":11136:11142   */\n      dup5\n        /* \"#utility.yul\":11098:11163   */\n      tag_238\n      jump\t// in\n    tag_392:\n        /* \"#utility.yul\":10960:11170   */\n      swap3\n      swap2\n      pop\n      pop\n      jump\t// out\n        /* \"#utility.yul\":11176:11290   */\n    tag_239:\n        /* \"#utility.yul\":11243:11249   */\n      0x00\n        /* \"#utility.yul\":11277:11282   */\n      dup2\n        /* \"#utility.yul\":11271:11283   */\n      mload\n        /* \"#utility.yul\":11261:11283   */\n      swap1\n      pop\n        /* \"#utility.yul\":11176:11290   */\n      swap2\n      swap1\n      pop\n      jump\t// out\n        /* \"#utility.yul\":11296:11480   */\n    tag_240:\n        /* \"#utility.yul\":11395:11406   */\n      0x00\n        /* \"#utility.yul\":11429:11435   */\n      dup3\n        /* \"#utility.yul\":11424:11427   */\n      dup3\n        /* \"#utility.yul\":11417:11436   */\n      mstore\n        /* \"#utility.yul\":11469:11473   */\n      0x20\n        /* \"#utility.yul\":11464:11467   */\n      dup3\n        /* \"#utility.yul\":11460:11474   */\n      add\n        /* \"#utility.yul\":11445:11474   */\n      swap1\n      pop\n        /* \"#utility.yul\":11296:11480   */\n      swap3\n      swap2\n      pop\n      pop\n      jump\t// out\n        /* \"#utility.yul\":11486:11618   */\n    tag_241:\n        /* \"#utility.yul\":11553:11557   */\n      0x00\n        /* \"#utility.yul\":11576:11579   */\n      dup2\n        /* \"#utility.yul\":11568:11579   */\n      swap1\n      pop\n        /* \"#utility.yul\":11606:11610   */\n      0x20\n        /* \"#utility.yul\":11601:11604   */\n      dup3\n        /* \"#utility.yul\":11597:11611   */\n      add\n        /* \"#utility.yul\":11589:11611   */\n      swap1\n      pop\n        /* \"#utility.yul\":11486:11618   */\n      swap2\n      swap1\n      pop\n      jump\t// out\n        /* \"#utility.yul\":11624:11803   */\n    tag_242:\n        /* \"#utility.yul\":11693:11703   */\n      0x00\n        /* \"#utility.yul\":11714:11760   */\n      tag_397\n        /* \"#utility.yul\":11756:11759   */\n      dup4\n        /* \"#utility.yul\":11748:11754   */\n      dup4\n        /* \"#utility.yul\":11714:11760   */\n      tag_232\n      jump\t// in\n    tag_397:\n        /* \"#utility.yul\":11792:11796   */\n      0x20\n        /* \"#utility.yul\":11787:11790   */\n      dup4\n        /* \"#utility.yul\":11783:11797   */\n      add\n        /* \"#utility.yul\":11769:11797   */\n      swap1\n      pop\n        /* \"#utility.yul\":11624:11803   */\n      swap3\n      swap2\n      pop\n      pop\n      jump\t// out\n        /* \"#utility.yul\":11809:11922   */\n    tag_243:\n        /* \"#utility.yul\":11879:11883   */\n      0x00\n        /* \"#utility.yul\":11911:11915   */\n      0x20\n        /* \"#utility.yul\":11906:11909   */\n      dup3\n        /* \"#utility.yul\":11902:11916   */\n      add\n        /* \"#utility.yul\":11894:11916   */\n      swap1\n      pop\n        /* \"#utility.yul\":11809:11922   */\n      swap2\n      swap1\n      pop\n      jump\t// out\n        /* \"#utility.yul\":11958:12690   */\n    tag_244:\n        /* \"#utility.yul\":12077:12080   */\n      0x00\n        /* \"#utility.yul\":12106:12160   */\n      tag_400\n        /* \"#utility.yul\":12154:12159   */\n      dup3\n        /* \"#utility.yul\":12106:12160   */\n      tag_239\n      jump\t// in\n    tag_400:\n        /* \"#utility.yul\":12176:12262   */\n      tag_401\n        /* \"#utility.yul\":12255:12261   */\n      dup2\n        /* \"#utility.yul\":12250:12253   */\n      dup6\n        /* \"#utility.yul\":12176:12262   */\n      tag_240\n      jump\t// in\n    tag_401:\n        /* \"#utility.yul\":12169:12262   */\n      swap4\n      pop\n        /* \"#utility.yul\":12286:12342   */\n      tag_402\n        /* \"#utility.yul\":12336:12341   */\n      dup4\n        /* \"#utility.yul\":12286:12342   */\n      tag_241\n      jump\t// in\n    tag_402:\n        /* \"#utility.yul\":12365:12372   */\n      dup1\n        /* \"#utility.yul\":12396:12397   */\n      0x00\n        /* \"#utility.yul\":12381:12665   */\n    tag_403:\n        /* \"#utility.yul\":12406:12412   */\n      dup4\n        /* \"#utility.yul\":12403:12404   */\n      dup2\n        /* \"#utility.yul\":12400:12413   */\n      lt\n        /* \"#utility.yul\":12381:12665   */\n      iszero\n      tag_405\n      jumpi\n        /* \"#utility.yul\":12482:12488   */\n      dup2\n        /* \"#utility.yul\":12476:12489   */\n      mload\n        /* \"#utility.yul\":12509:12572   */\n      tag_406\n        /* \"#utility.yul\":12568:12571   */\n      dup9\n        /* \"#utility.yul\":12553:12566   */\n      dup3\n        /* \"#utility.yul\":12509:12572   */\n      tag_242\n      jump\t// in\n    tag_406:\n        /* \"#utility.yul\":12502:12572   */\n      swap8\n      pop\n        /* \"#utility.yul\":12595:12655   */\n      tag_407\n        /* \"#utility.yul\":12648:12654   */\n      dup4\n        /* \"#utility.yul\":12595:12655   */\n      tag_243\n      jump\t// in\n    tag_407:\n        /* \"#utility.yul\":12585:12655   */\n      swap3\n      pop\n        /* \"#utility.yul\":12441:12665   */\n      pop\n        /* \"#utility.yul\":12428:12429   */\n      0x01\n        /* \"#utility.yul\":12425:12426   */\n      dup2\n        /* \"#utility.yul\":12421:12430   */\n      add\n        /* \"#utility.yul\":12416:12430   */\n      swap1\n      pop\n        /* \"#utility.yul\":12381:12665   */\n      jump(tag_403)\n    tag_405:\n        /* \"#utility.yul\":12385:12399   */\n      pop\n        /* \"#utility.yul\":12681:12684   */\n      dup6\n        /* \"#utility.yul\":12674:12684   */\n      swap4\n      pop\n        /* \"#utility.yul\":12082:12690   */\n      pop\n      pop\n      pop\n        /* \"#utility.yul\":11958:12690   */\n      swap3\n      swap2\n      pop\n      pop\n      jump\t// out\n        /* \"#utility.yul\":12696:13069   */\n    tag_70:\n        /* \"#utility.yul\":12839:12843   */\n      0x00\n        /* \"#utility.yul\":12877:12879   */\n      0x20\n        /* \"#utility.yul\":12866:12875   */\n      dup3\n        /* \"#utility.yul\":12862:12880   */\n      add\n        /* \"#utility.yul\":12854:12880   */\n      swap1\n      pop\n        /* \"#utility.yul\":12926:12935   */\n      dup2\n        /* \"#utility.yul\":12920:12924   */\n      dup2\n        /* \"#utility.yul\":12916:12936   */\n      sub\n        /* \"#utility.yul\":12912:12913   */\n      0x00\n        /* \"#utility.yul\":12901:12910   */\n      dup4\n        /* \"#utility.yul\":12897:12914   */\n      add\n        /* \"#utility.yul\":12890:12937   */\n      mstore\n        /* \"#utility.yul\":12954:13062   */\n      tag_409\n        /* \"#utility.yul\":13057:13061   */\n      dup2\n        /* \"#utility.yul\":13048:13054   */\n      dup5\n        /* \"#utility.yul\":12954:13062   */\n      tag_244\n      jump\t// in\n    tag_409:\n        /* \"#utility.yul\":12946:13062   */\n      swap1\n      pop\n        /* \"#utility.yul\":12696:13069   */\n      swap3\n      swap2\n      pop\n      pop\n      jump\t// out\n        /* \"#utility.yul\":13075:13223   */\n    tag_245:\n        /* \"#utility.yul\":13177:13188   */\n      0x00\n        /* \"#utility.yul\":13214:13217   */\n      dup2\n        /* \"#utility.yul\":13199:13217   */\n      swap1\n      pop\n        /* \"#utility.yul\":13075:13223   */\n      swap3\n      swap2\n      pop\n      pop\n      jump\t// out\n        /* \"#utility.yul\":13229:13619   */\n    tag_246:\n        /* \"#utility.yul\":13335:13338   */\n      0x00\n        /* \"#utility.yul\":13363:13402   */\n      tag_412\n        /* \"#utility.yul\":13396:13401   */\n      dup3\n        /* \"#utility.yul\":13363:13402   */\n      tag_228\n      jump\t// in\n    tag_412:\n        /* \"#utility.yul\":13418:13507   */\n      tag_413\n        /* \"#utility.yul\":13500:13506   */\n      dup2\n        /* \"#utility.yul\":13495:13498   */\n      dup6\n        /* \"#utility.yul\":13418:13507   */\n      tag_245\n      jump\t// in\n    tag_413:\n        /* \"#utility.yul\":13411:13507   */\n      swap4\n      pop\n        /* \"#utility.yul\":13516:13581   */\n      tag_414\n        /* \"#utility.yul\":13574:13580   */\n      dup2\n        /* \"#utility.yul\":13569:13572   */\n      dup6\n        /* \"#utility.yul\":13562:13566   */\n      0x20\n        /* \"#utility.yul\":13555:13560   */\n      dup7\n        /* \"#utility.yul\":13551:13567   */\n      add\n        /* \"#utility.yul\":13516:13581   */\n      tag_230\n      jump\t// in\n    tag_414:\n        /* \"#utility.yul\":13606:13612   */\n      dup1\n        /* \"#utility.yul\":13601:13604   */\n      dup5\n        /* \"#utility.yul\":13597:13613   */\n      add\n        /* \"#utility.yul\":13590:13613   */\n      swap2\n      pop\n        /* \"#utility.yul\":13339:13619   */\n      pop\n        /* \"#utility.yul\":13229:13619   */\n      swap3\n      swap2\n      pop\n      pop\n      jump\t// out\n        /* \"#utility.yul\":13625:13900   */\n    tag_78:\n        /* \"#utility.yul\":13757:13760   */\n      0x00\n        /* \"#utility.yul\":13779:13874   */\n      tag_416\n        /* \"#utility.yul\":13870:13873   */\n      dup3\n        /* \"#utility.yul\":13861:13867   */\n      dup5\n        /* \"#utility.yul\":13779:13874   */\n      tag_246\n      jump\t// in\n    tag_416:\n        /* \"#utility.yul\":13772:13874   */\n      swap2\n      pop\n        /* \"#utility.yul\":13891:13894   */\n      dup2\n        /* \"#utility.yul\":13884:13894   */\n      swap1\n      pop\n        /* \"#utility.yul\":13625:13900   */\n      swap3\n      swap2\n      pop\n      pop\n      jump\t// out\n        /* \"#utility.yul\":13906:14086   */\n    tag_98:\n        /* \"#utility.yul\":13954:14031   */\n      0x4e487b7100000000000000000000000000000000000000000000000000000000\n        /* \"#utility.yul\":13951:13952   */\n      0x00\n        /* \"#utility.yul\":13944:14032   */\n      mstore\n        /* \"#utility.yul\":14051:14055   */\n      0x32\n        /* \"#utility.yul\":14048:14049   */\n      0x04\n        /* \"#utility.yul\":14041:14056   */\n      mstore\n        /* \"#utility.yul\":14075:14079   */\n      0x24\n        /* \"#utility.yul\":14072:14073   */\n      0x00\n        /* \"#utility.yul\":14065:14080   */\n      revert\n        /* \"#utility.yul\":14092:14272   */\n    tag_247:\n        /* \"#utility.yul\":14140:14217   */\n      0x4e487b7100000000000000000000000000000000000000000000000000000000\n        /* \"#utility.yul\":14137:14138   */\n      0x00\n        /* \"#utility.yul\":14130:14218   */\n      mstore\n        /* \"#utility.yul\":14237:14241   */\n      0x22\n        /* \"#utility.yul\":14234:14235   */\n      0x04\n        /* \"#utility.yul\":14227:14242   */\n      mstore\n        /* \"#utility.yul\":14261:14265   */\n      0x24\n        /* \"#utility.yul\":14258:14259   */\n      0x00\n        /* \"#utility.yul\":14251:14266   */\n      revert\n        /* \"#utility.yul\":14278:14598   */\n    tag_101:\n        /* \"#utility.yul\":14322:14328   */\n      0x00\n        /* \"#utility.yul\":14359:14360   */\n      0x02\n        /* \"#utility.yul\":14353:14357   */\n      dup3\n        /* \"#utility.yul\":14349:14361   */\n      div\n        /* \"#utility.yul\":14339:14361   */\n      swap1\n      pop\n        /* \"#utility.yul\":14406:14407   */\n      0x01\n        /* \"#utility.yul\":14400:14404   */\n      dup3\n        /* \"#utility.yul\":14396:14408   */\n      and\n        /* \"#utility.yul\":14427:14445   */\n      dup1\n        /* \"#utility.yul\":14417:14498   */\n      tag_420\n      jumpi\n        /* \"#utility.yul\":14483:14487   */\n      0x7f\n        /* \"#utility.yul\":14475:14481   */\n      dup3\n        /* \"#utility.yul\":14471:14488   */\n      and\n        /* \"#utility.yul\":14461:14488   */\n      swap2\n      pop\n        /* \"#utility.yul\":14417:14498   */\n    tag_420:\n        /* \"#utility.yul\":14545:14547   */\n      0x20\n        /* \"#utility.yul\":14537:14543   */\n      dup3\n        /* \"#utility.yul\":14534:14548   */\n      lt\n        /* \"#utility.yul\":14514:14532   */\n      dup2\n        /* \"#utility.yul\":14511:14549   */\n      sub\n        /* \"#utility.yul\":14508:14592   */\n      tag_421\n      jumpi\n        /* \"#utility.yul\":14564:14582   */\n      tag_422\n      tag_247\n      jump\t// in\n    tag_422:\n        /* \"#utility.yul\":14508:14592   */\n    tag_421:\n        /* \"#utility.yul\":14329:14598   */\n      pop\n        /* \"#utility.yul\":14278:14598   */\n      swap2\n      swap1\n      pop\n      jump\t// out\n        /* \"#utility.yul\":14604:14784   */\n    tag_248:\n        /* \"#utility.yul\":14652:14729   */\n      0x4e487b7100000000000000000000000000000000000000000000000000000000\n        /* \"#utility.yul\":14649:14650   */\n      0x00\n        /* \"#utility.yul\":14642:14730   */\n      mstore\n        /* \"#utility.yul\":14749:14753   */\n      0x11\n        /* \"#utility.yul\":14746:14747   */\n      0x04\n        /* \"#utility.yul\":14739:14754   */\n      mstore\n        /* \"#utility.yul\":14773:14777   */\n      0x24\n        /* \"#utility.yul\":14770:14771   */\n      0x00\n        /* \"#utility.yul\":14763:14778   */\n      revert\n        /* \"#utility.yul\":14790:14981   */\n    tag_114:\n        /* \"#utility.yul\":14830:14833   */\n      0x00\n        /* \"#utility.yul\":14849:14869   */\n      tag_425\n        /* \"#utility.yul\":14867:14868   */\n      dup3\n        /* \"#utility.yul\":14849:14869   */\n      tag_208\n      jump\t// in\n    tag_425:\n        /* \"#utility.yul\":14844:14869   */\n      swap2\n      pop\n        /* \"#utility.yul\":14883:14903   */\n      tag_426\n        /* \"#utility.yul\":14901:14902   */\n      dup4\n        /* \"#utility.yul\":14883:14903   */\n      tag_208\n      jump\t// in\n    tag_426:\n        /* \"#utility.yul\":14878:14903   */\n      swap3\n      pop\n        /* \"#utility.yul\":14926:14927   */\n      dup3\n        /* \"#utility.yul\":14923:14924   */\n      dup3\n        /* \"#utility.yul\":14919:14928   */\n      add\n        /* \"#utility.yul\":14912:14928   */\n      swap1\n      pop\n        /* \"#utility.yul\":14947:14950   */\n      dup1\n        /* \"#utility.yul\":14944:14945   */\n      dup3\n        /* \"#utility.yul\":14941:14951   */\n      gt\n        /* \"#utility.yul\":14938:14974   */\n      iszero\n      tag_427\n      jumpi\n        /* \"#utility.yul\":14954:14972   */\n      tag_428\n      tag_248\n      jump\t// in\n    tag_428:\n        /* \"#utility.yul\":14938:14974   */\n    tag_427:\n        /* \"#utility.yul\":14790:14981   */\n      swap3\n      swap2\n      pop\n      pop\n      jump\t// out\n        /* \"#utility.yul\":14987:15167   */\n    tag_249:\n        /* \"#utility.yul\":15035:15112   */\n      0x4e487b7100000000000000000000000000000000000000000000000000000000\n        /* \"#utility.yul\":15032:15033   */\n      0x00\n        /* \"#utility.yul\":15025:15113   */\n      mstore\n        /* \"#utility.yul\":15132:15136   */\n      0x12\n        /* \"#utility.yul\":15129:15130   */\n      0x04\n        /* \"#utility.yul\":15122:15137   */\n      mstore\n        /* \"#utility.yul\":15156:15160   */\n      0x24\n        /* \"#utility.yul\":15153:15154   */\n      0x00\n        /* \"#utility.yul\":15146:15161   */\n      revert\n        /* \"#utility.yul\":15173:15358   */\n    tag_116:\n        /* \"#utility.yul\":15213:15214   */\n      0x00\n        /* \"#utility.yul\":15230:15250   */\n      tag_431\n        /* \"#utility.yul\":15248:15249   */\n      dup3\n        /* \"#utility.yul\":15230:15250   */\n      tag_208\n      jump\t// in\n    tag_431:\n        /* \"#utility.yul\":15225:15250   */\n      swap2\n      pop\n        /* \"#utility.yul\":15264:15284   */\n      tag_432\n        /* \"#utility.yul\":15282:15283   */\n      dup4\n        /* \"#utility.yul\":15264:15284   */\n      tag_208\n      jump\t// in\n    tag_432:\n        /* \"#utility.yul\":15259:15284   */\n      swap3\n      pop\n        /* \"#utility.yul\":15303:15304   */\n      dup3\n        /* \"#utility.yul\":15293:15328   */\n      tag_433\n      jumpi\n        /* \"#utility.yul\":15308:15326   */\n      tag_434\n      tag_249\n      jump\t// in\n    tag_434:\n        /* \"#utility.yul\":15293:15328   */\n    tag_433:\n        /* \"#utility.yul\":15350:15351   */\n      dup3\n        /* \"#utility.yul\":15347:15348   */\n      dup3\n        /* \"#utility.yul\":15343:15352   */\n      div\n        /* \"#utility.yul\":15338:15352   */\n      swap1\n      pop\n        /* \"#utility.yul\":15173:15358   */\n      swap3\n      swap2\n      pop\n      pop\n      jump\t// out\n        /* \"#utility.yul\":15364:15505   */\n    tag_250:\n        /* \"#utility.yul\":15413:15417   */\n      0x00\n        /* \"#utility.yul\":15436:15439   */\n      dup2\n        /* \"#utility.yul\":15428:15439   */\n      swap1\n      pop\n        /* \"#utility.yul\":15459:15462   */\n      dup2\n        /* \"#utility.yul\":15456:15457   */\n      0x00\n        /* \"#utility.yul\":15449:15463   */\n      mstore\n        /* \"#utility.yul\":15493:15497   */\n      0x20\n        /* \"#utility.yul\":15490:15491   */\n      0x00\n        /* \"#utility.yul\":15480:15498   */\n      keccak256\n        /* \"#utility.yul\":15472:15498   */\n      swap1\n      pop\n        /* \"#utility.yul\":15364:15505   */\n      swap2\n      swap1\n      pop\n      jump\t// out\n        /* \"#utility.yul\":15511:15604   */\n    tag_251:\n        /* \"#utility.yul\":15548:15554   */\n      0x00\n        /* \"#utility.yul\":15595:15597   */\n      0x20\n        /* \"#utility.yul\":15590:15592   */\n      0x1f\n        /* \"#utility.yul\":15583:15588   */\n      dup4\n        /* \"#utility.yul\":15579:15593   */\n      add\n        /* \"#utility.yul\":15575:15598   */\n      div\n        /* \"#utility.yul\":15565:15598   */\n      swap1\n      pop\n        /* \"#utility.yul\":15511:15604   */\n      swap2\n      swap1\n      pop\n      jump\t// out\n        /* \"#utility.yul\":15610:15717   */\n    tag_252:\n        /* \"#utility.yul\":15654:15662   */\n      0x00\n        /* \"#utility.yul\":15704:15709   */\n      dup3\n        /* \"#utility.yul\":15698:15702   */\n      dup3\n        /* \"#utility.yul\":15694:15710   */\n      shl\n        /* \"#utility.yul\":15673:15710   */\n      swap1\n      pop\n        /* \"#utility.yul\":15610:15717   */\n      swap3\n      swap2\n      pop\n      pop\n      jump\t// out\n        /* \"#utility.yul\":15723:16116   */\n    tag_253:\n        /* \"#utility.yul\":15792:15798   */\n      0x00\n        /* \"#utility.yul\":15842:15843   */\n      0x08\n        /* \"#utility.yul\":15830:15840   */\n      dup4\n        /* \"#utility.yul\":15826:15844   */\n      mul\n        /* \"#utility.yul\":15865:15962   */\n      tag_439\n        /* \"#utility.yul\":15895:15961   */\n      0xffffffffffffffffffffffffffffffffffffffffffffffffffffffffffffffff\n        /* \"#utility.yul\":15884:15893   */\n      dup3\n        /* \"#utility.yul\":15865:15962   */\n      tag_252\n      jump\t// in\n    tag_439:\n        /* \"#utility.yul\":15983:16022   */\n      tag_440\n        /* \"#utility.yul\":16013:16021   */\n      dup7\n        /* \"#utility.yul\":16002:16011   */\n      dup4\n        /* \"#utility.yul\":15983:16022   */\n      tag_252\n      jump\t// in\n    tag_440:\n        /* \"#utility.yul\":15971:16022   */\n      swap6\n      pop\n        /* \"#utility.yul\":16055:16059   */\n      dup1\n        /* \"#utility.yul\":16051:16060   */\n      not\n        /* \"#utility.yul\":16044:16049   */\n      dup5\n        /* \"#utility.yul\":16040:16061   */\n      and\n        /* \"#utility.yul\":16031:16061   */\n      swap4\n      pop\n        /* \"#utility.yul\":16104:16108   */\n      dup1\n        /* \"#utility.yul\":16094:16102   */\n      dup7\n        /* \"#utility.yul\":16090:16109   */\n      and\n        /* \"#utility.yul\":16083:16088   */\n      dup5\n        /* \"#utility.yul\":16080:16110   */\n      or\n        /* \"#utility.yul\":16070:16110   */\n      swap3\n      pop\n        /* \"#utility.yul\":15799:16116   */\n      pop\n      pop\n        /* \"#utility.yul\":15723:16116   */\n      swap4\n      swap3\n      pop\n      pop\n      pop\n      jump\t// out\n        /* \"#utility.yul\":16122:16182   */\n    tag_254:\n        /* \"#utility.yul\":16150:16153   */\n      0x00\n        /* \"#utility.yul\":16171:16176   */\n      dup2\n        /* \"#utility.yul\":16164:16176   */\n      swap1\n      pop\n        /* \"#utility.yul\":16122:16182   */\n      swap2\n      swap1\n      pop\n      jump\t// out\n        /* \"#utility.yul\":16188:16330   */\n    tag_255:\n        /* \"#utility.yul\":16238:16247   */\n      0x00\n        /* \"#utility.yul\":16271:16324   */\n      tag_443\n        /* \"#utility.yul\":16289:16323   */\n      tag_444\n        /* \"#utility.yul\":16298:16322   */\n      tag_445\n        /* \"#utility.yul\":16316:16321   */\n      dup5\n        /* \"#utility.yul\":16298:16322   */\n      tag_208\n      jump\t// in\n    tag_445:\n        /* \"#utility.yul\":16289:16323   */\n      tag_254\n      jump\t// in\n    tag_444:\n        /* \"#utility.yul\":16271:16324   */\n      tag_208\n      jump\t// in\n    tag_443:\n        /* \"#utility.yul\":16258:16324   */\n      swap1\n      pop\n        /* \"#utility.yul\":16188:16330   */\n      swap2\n      swap1\n      pop\n      jump\t// out\n        /* \"#utility.yul\":16336:16411   */\n    tag_256:\n        /* \"#utility.yul\":16379:16382   */\n      0x00\n        /* \"#utility.yul\":16400:16405   */\n      dup2\n        /* \"#utility.yul\":16393:16405   */\n      swap1\n      pop\n        /* \"#utility.yul\":16336:16411   */\n      swap2\n      swap1\n      pop\n      jump\t// out\n        /* \"#utility.yul\":16417:16686   */\n    tag_257:\n        /* \"#utility.yul\":16527:16566   */\n      tag_448\n        /* \"#utility.yul\":16558:16565   */\n      dup4\n        /* \"#utility.yul\":16527:16566   */\n      tag_255\n      jump\t// in\n    tag_448:\n        /* \"#utility.yul\":16588:16679   */\n      tag_449\n        /* \"#utility.yul\":16637:16678   */\n      tag_450\n        /* \"#utility.yul\":16661:16677   */\n      dup3\n        /* \"#utility.yul\":16637:16678   */\n      tag_256\n      jump\t// in\n    tag_450:\n        /* \"#utility.yul\":16629:16635   */\n      dup5\n        /* \"#utility.yul\":16622:16626   */\n      dup5\n        /* \"#utility.yul\":16616:16627   */\n      sload\n        /* \"#utility.yul\":16588:16679   */\n      tag_253\n      jump\t// in\n    tag_449:\n        /* \"#utility.yul\":16582:16586   */\n      dup3\n        /* \"#utility.yul\":16575:16680   */\n      sstore\n        /* \"#utility.yul\":16493:16686   */\n      pop\n        /* \"#utility.yul\":16417:16686   */\n      pop\n      pop\n      pop\n      jump\t// out\n        /* \"#utility.yul\":16692:16765   */\n    tag_258:\n        /* \"#utility.yul\":16737:16740   */\n      0x00\n        /* \"#utility.yul\":16692:16765   */\n      swap1\n      jump\t// out\n        /* \"#utility.yul\":16771:16960   */\n    tag_259:\n        /* \"#utility.yul\":16848:16880   */\n      tag_453\n      tag_258\n      jump\t// in\n    tag_453:\n        /* \"#utility.yul\":16889:16954   */\n      tag_454\n        /* \"#utility.yul\":16947:16953   */\n      dup2\n        /* \"#utility.yul\":16939:16945   */\n      dup5\n        /* \"#utility.yul\":16933:16937   */\n      dup5\n        /* \"#utility.yul\":16889:16954   */\n      tag_257\n      jump\t// in\n    tag_454:\n        /* \"#utility.yul\":16824:16960   */\n      pop\n        /* \"#utility.yul\":16771:16960   */\n      pop\n      pop\n      jump\t// out\n        /* \"#utility.yul\":16966:17152   */\n    tag_260:\n        /* \"#utility.yul\":17026:17146   */\n    tag_456:\n        /* \"#utility.yul\":17043:17046   */\n      dup2\n        /* \"#utility.yul\":17036:17041   */\n      dup2\n        /* \"#utility.yul\":17033:17047   */\n      lt\n        /* \"#utility.yul\":17026:17146   */\n      iszero\n      tag_458\n      jumpi\n        /* \"#utility.yul\":17097:17136   */\n      tag_459\n        /* \"#utility.yul\":17134:17135   */\n      0x00\n        /* \"#utility.yul\":17127:17132   */\n      dup3\n        /* \"#utility.yul\":17097:17136   */\n      tag_259\n      jump\t// in\n    tag_459:\n        /* \"#utility.yul\":17070:17071   */\n      0x01\n        /* \"#utility.yul\":17063:17068   */\n      dup2\n        /* \"#utility.yul\":17059:17072   */\n      add\n        /* \"#utility.yul\":17050:17072   */\n      swap1\n      pop\n        /* \"#utility.yul\":17026:17146   */\n      jump(tag_456)\n    tag_458:\n        /* \"#utility.yul\":16966:17152   */\n      pop\n      pop\n      jump\t// out\n        /* \"#utility.yul\":17158:17701   */\n    tag_261:\n        /* \"#utility.yul\":17259:17261   */\n      0x1f\n        /* \"#utility.yul\":17254:17257   */\n      dup3\n        /* \"#utility.yul\":17251:17262   */\n      gt\n        /* \"#utility.yul\":17248:17694   */\n      iszero\n      tag_461\n      jumpi\n        /* \"#utility.yul\":17293:17331   */\n      tag_462\n        /* \"#utility.yul\":17325:17330   */\n      dup2\n        /* \"#utility.yul\":17293:17331   */\n      tag_250\n      jump\t// in\n    tag_462:\n        /* \"#utility.yul\":17377:17406   */\n      tag_463\n        /* \"#utility.yul\":17395:17405   */\n      dup5\n        /* \"#utility.yul\":17377:17406   */\n      tag_251\n      jump\t// in\n    tag_463:\n        /* \"#utility.yul\":17367:17375   */\n      dup2\n        /* \"#utility.yul\":17363:17407   */\n      add\n        /* \"#utility.yul\":17560:17562   */\n      0x20\n        /* \"#utility.yul\":17548:17558   */\n      dup6\n        /* \"#utility.yul\":17545:17563   */\n      lt\n        /* \"#utility.yul\":17542:17591   */\n      iszero\n      tag_464\n      jumpi\n        /* \"#utility.yul\":17581:17589   */\n      dup2\n        /* \"#utility.yul\":17566:17589   */\n      swap1\n      pop\n        /* \"#utility.yul\":17542:17591   */\n    tag_464:\n        /* \"#utility.yul\":17604:17684   */\n      tag_465\n        /* \"#utility.yul\":17660:17682   */\n      tag_466\n        /* \"#utility.yul\":17678:17681   */\n      dup6\n        /* \"#utility.yul\":17660:17682   */\n      tag_251\n      jump\t// in\n    tag_466:\n        /* \"#utility.yul\":17650:17658   */\n      dup4\n        /* \"#utility.yul\":17646:17683   */\n      add\n        /* \"#utility.yul\":17633:17644   */\n      dup3\n        /* \"#utility.yul\":17604:17684   */\n      tag_260\n      jump\t// in\n    tag_465:\n        /* \"#utility.yul\":17263:17694   */\n      pop\n      pop\n        /* \"#utility.yul\":17248:17694   */\n    tag_461:\n        /* \"#utility.yul\":17158:17701   */\n      pop\n      pop\n      pop\n      jump\t// out\n        /* \"#utility.yul\":17707:17824   */\n    tag_262:\n        /* \"#utility.yul\":17761:17769   */\n      0x00\n        /* \"#utility.yul\":17811:17816   */\n      dup3\n        /* \"#utility.yul\":17805:17809   */\n      dup3\n        /* \"#utility.yul\":17801:17817   */\n      shr\n        /* \"#utility.yul\":17780:17817   */\n      swap1\n      pop\n        /* \"#utility.yul\":17707:17824   */\n      swap3\n      swap2\n      pop\n      pop\n      jump\t// out\n        /* \"#utility.yul\":17830:17999   */\n    tag_263:\n        /* \"#utility.yul\":17874:17880   */\n      0x00\n        /* \"#utility.yul\":17907:17958   */\n      tag_469\n        /* \"#utility.yul\":17955:17956   */\n      0x00\n        /* \"#utility.yul\":17951:17957   */\n      not\n        /* \"#utility.yul\":17943:17948   */\n      dup5\n        /* \"#utility.yul\":17940:17941   */\n      0x08\n        /* \"#utility.yul\":17936:17949   */\n      mul\n        /* \"#utility.yul\":17907:17958   */\n      tag_262\n      jump\t// in\n    tag_469:\n        /* \"#utility.yul\":17903:17959   */\n      not\n        /* \"#utility.yul\":17988:17992   */\n      dup1\n        /* \"#utility.yul\":17982:17986   */\n      dup4\n        /* \"#utility.yul\":17978:17993   */\n      and\n        /* \"#utility.yul\":17968:17993   */\n      swap2\n      pop\n        /* \"#utility.yul\":17881:17999   */\n      pop\n        /* \"#utility.yul\":17830:17999   */\n      swap3\n      swap2\n      pop\n      pop\n      jump\t// out\n        /* \"#utility.yul\":18004:18299   */\n    tag_264:\n        /* \"#utility.yul\":18080:18084   */\n      0x00\n        /* \"#utility.yul\":18226:18255   */\n      tag_471\n        /* \"#utility.yul\":18251:18254   */\n      dup4\n        /* \"#utility.yul\":18245:18249   */\n      dup4\n        /* \"#utility.yul\":18226:18255   */\n      tag_263\n      jump\t// in\n    tag_471:\n        /* \"#utility.yul\":18218:18255   */\n      swap2\n      pop\n        /* \"#utility.yul\":18288:18291   */\n      dup3\n        /* \"#utility.yul\":18285:18286   */\n      0x02\n        /* \"#utility.yul\":18281:18292   */\n      mul\n        /* \"#utility.yul\":18275:18279   */\n      dup3\n        /* \"#utility.yul\":18272:18293   */\n      or\n        /* \"#utility.yul\":18264:18293   */\n      swap1\n      pop\n        /* \"#utility.yul\":18004:18299   */\n      swap3\n      swap2\n      pop\n      pop\n      jump\t// out\n        /* \"#utility.yul\":18304:19699   */\n    tag_124:\n        /* \"#utility.yul\":18421:18458   */\n      tag_473\n        /* \"#utility.yul\":18454:18457   */\n      dup3\n        /* \"#utility.yul\":18421:18458   */\n      tag_228\n      jump\t// in\n    tag_473:\n        /* \"#utility.yul\":18523:18541   */\n      0xffffffffffffffff\n        /* \"#utility.yul\":18515:18521   */\n      dup2\n        /* \"#utility.yul\":18512:18542   */\n      gt\n        /* \"#utility.yul\":18509:18565   */\n      iszero\n      tag_474\n      jumpi\n        /* \"#utility.yul\":18545:18563   */\n      tag_475\n      tag_174\n      jump\t// in\n    tag_475:\n        /* \"#utility.yul\":18509:18565   */\n    tag_474:\n        /* \"#utility.yul\":18589:18627   */\n      tag_476\n        /* \"#utility.yul\":18621:18625   */\n      dup3\n        /* \"#utility.yul\":18615:18626   */\n      sload\n        /* \"#utility.yul\":18589:18627   */\n      tag_101\n      jump\t// in\n    tag_476:\n        /* \"#utility.yul\":18674:18741   */\n      tag_477\n        /* \"#utility.yul\":18734:18740   */\n      dup3\n        /* \"#utility.yul\":18726:18732   */\n      dup3\n        /* \"#utility.yul\":18720:18724   */\n      dup6\n        /* \"#utility.yul\":18674:18741   */\n      tag_261\n      jump\t// in\n    tag_477:\n        /* \"#utility.yul\":18768:18769   */\n      0x00\n        /* \"#utility.yul\":18792:18796   */\n      0x20\n        /* \"#utility.yul\":18779:18796   */\n      swap1\n      pop\n        /* \"#utility.yul\":18824:18826   */\n      0x1f\n        /* \"#utility.yul\":18816:18822   */\n      dup4\n        /* \"#utility.yul\":18813:18827   */\n      gt\n        /* \"#utility.yul\":18841:18842   */\n      0x01\n        /* \"#utility.yul\":18836:19454   */\n      dup2\n      eq\n      tag_479\n      jumpi\n        /* \"#utility.yul\":19498:19499   */\n      0x00\n        /* \"#utility.yul\":19515:19521   */\n      dup5\n        /* \"#utility.yul\":19512:19589   */\n      iszero\n      tag_480\n      jumpi\n        /* \"#utility.yul\":19564:19573   */\n      dup3\n        /* \"#utility.yul\":19559:19562   */\n      dup8\n        /* \"#utility.yul\":19555:19574   */\n      add\n        /* \"#utility.yul\":19549:19575   */\n      mload\n        /* \"#utility.yul\":19540:19575   */\n      swap1\n      pop\n        /* \"#utility.yul\":19512:19589   */\n    tag_480:\n        /* \"#utility.yul\":19615:19682   */\n      tag_481\n        /* \"#utility.yul\":19675:19681   */\n      dup6\n        /* \"#utility.yul\":19668:19673   */\n      dup3\n        /* \"#utility.yul\":19615:19682   */\n      tag_264\n      jump\t// in\n    tag_481:\n        /* \"#utility.yul\":19609:19613   */\n      dup7\n        /* \"#utility.yul\":19602:19683   */\n      sstore\n        /* \"#utility.yul\":19471:19693   */\n      pop\n        /* \"#utility.yul\":18806:19693   */\n      jump(tag_478)\n        /* \"#utility.yul\":18836:19454   */\n    tag_479:\n        /* \"#utility.yul\":18888:18892   */\n      0x1f\n        /* \"#utility.yul\":18884:18893   */\n      not\n        /* \"#utility.yul\":18876:18882   */\n      dup5\n        /* \"#utility.yul\":18872:18894   */\n      and\n        /* \"#utility.yul\":18922:18959   */\n      tag_482\n        /* \"#utility.yul\":18954:18958   */\n      dup7\n        /* \"#utility.yul\":18922:18959   */\n      tag_250\n      jump\t// in\n    tag_482:\n        /* \"#utility.yul\":18981:18982   */\n      0x00\n        /* \"#utility.yul\":18995:19203   */\n    tag_483:\n        /* \"#utility.yul\":19009:19016   */\n      dup3\n        /* \"#utility.yul\":19006:19007   */\n      dup2\n        /* \"#utility.yul\":19003:19017   */\n      lt\n        /* \"#utility.yul\":18995:19203   */\n      iszero\n      tag_485\n      jumpi\n        /* \"#utility.yul\":19088:19097   */\n      dup5\n        /* \"#utility.yul\":19083:19086   */\n      dup10\n        /* \"#utility.yul\":19079:19098   */\n      add\n        /* \"#utility.yul\":19073:19099   */\n      mload\n        /* \"#utility.yul\":19065:19071   */\n      dup3\n        /* \"#utility.yul\":19058:19100   */\n      sstore\n        /* \"#utility.yul\":19139:19140   */\n      0x01\n        /* \"#utility.yul\":19131:19137   */\n      dup3\n        /* \"#utility.yul\":19127:19141   */\n      add\n        /* \"#utility.yul\":19117:19141   */\n      swap2\n      pop\n        /* \"#utility.yul\":19186:19188   */\n      0x20\n        /* \"#utility.yul\":19175:19184   */\n      dup6\n        /* \"#utility.yul\":19171:19189   */\n      add\n        /* \"#utility.yul\":19158:19189   */\n      swap5\n      pop\n        /* \"#utility.yul\":19032:19036   */\n      0x20\n        /* \"#utility.yul\":19029:19030   */\n      dup2\n        /* \"#utility.yul\":19025:19037   */\n      add\n        /* \"#utility.yul\":19020:19037   */\n      swap1\n      pop\n        /* \"#utility.yul\":18995:19203   */\n      jump(tag_483)\n    tag_485:\n        /* \"#utility.yul\":19231:19237   */\n      dup7\n        /* \"#utility.yul\":19222:19229   */\n      dup4\n        /* \"#utility.yul\":19219:19238   */\n      lt\n        /* \"#utility.yul\":19216:19395   */\n      iszero\n      tag_486\n      jumpi\n        /* \"#utility.yul\":19289:19298   */\n      dup5\n        /* \"#utility.yul\":19284:19287   */\n      dup10\n        /* \"#utility.yul\":19280:19299   */\n      add\n        /* \"#utility.yul\":19274:19300   */\n      mload\n        /* \"#utility.yul\":19332:19380   */\n      tag_487\n        /* \"#utility.yul\":19374:19378   */\n      0x1f\n        /* \"#utility.yul\":19366:19372   */\n      dup10\n        /* \"#utility.yul\":19362:19379   */\n      and\n        /* \"#utility.yul\":19351:19360   */\n      dup3\n        /* \"#utility.yul\":19332:19380   */\n      tag_263\n      jump\t// in\n    tag_487:\n        /* \"#utility.yul\":19324:19330   */\n      dup4\n        /* \"#utility.yul\":19317:19381   */\n      sstore\n        /* \"#utility.yul\":19239:19395   */\n      pop\n        /* \"#utility.yul\":19216:19395   */\n    tag_486:\n        /* \"#utility.yul\":19441:19442   */\n      0x01\n        /* \"#utility.yul\":19437:19438   */\n      0x02\n        /* \"#utility.yul\":19429:19435   */\n      dup9\n        /* \"#utility.yul\":19425:19439   */\n      mul\n        /* \"#utility.yul\":19421:19443   */\n      add\n        /* \"#utility.yul\":19415:19419   */\n      dup9\n        /* \"#utility.yul\":19408:19444   */\n      sstore\n        /* \"#utility.yul\":18843:19454   */\n      pop\n      pop\n      pop\n        /* \"#utility.yul\":18806:19693   */\n    tag_478:\n      pop\n        /* \"#utility.yul\":18396:19699   */\n      pop\n      pop\n      pop\n        /* \"#utility.yul\":18304:19699   */\n      pop\n      pop\n      jump\t// out\n        /* \"#utility.yul\":19705:19881   */\n    tag_127:\n        /* \"#utility.yul\":19737:19738   */\n      0x00\n        /* \"#utility.yul\":19754:19774   */\n      tag_489\n        /* \"#utility.yul\":19772:19773   */\n      dup3\n        /* \"#utility.yul\":19754:19774   */\n      tag_208\n      jump\t// in\n    tag_489:\n        /* \"#utility.yul\":19749:19774   */\n      swap2\n      pop\n        /* \"#utility.yul\":19788:19808   */\n      tag_490\n        /* \"#utility.yul\":19806:19807   */\n      dup4\n        /* \"#utility.yul\":19788:19808   */\n      tag_208\n      jump\t// in\n    tag_490:\n        /* \"#utility.yul\":19783:19808   */\n      swap3\n      pop\n        /* \"#utility.yul\":19827:19828   */\n      dup3\n        /* \"#utility.yul\":19817:19852   */\n      tag_491\n      jumpi\n        /* \"#utility.yul\":19832:19850   */\n      tag_492\n      tag_249\n      jump\t// in\n    tag_492:\n        /* \"#utility.yul\":19817:19852   */\n    tag_491:\n        /* \"#utility.yul\":19873:19874   */\n      dup3\n        /* \"#utility.yul\":19870:19871   */\n      dup3\n        /* \"#utility.yul\":19866:19875   */\n      mod\n        /* \"#utility.yul\":19861:19875   */\n      swap1\n      pop\n        /* \"#utility.yul\":19705:19881   */\n      swap3\n      swap2\n      pop\n      pop\n      jump\t// out\n        /* \"#utility.yul\":19887:20056   */\n    tag_265:\n        /* \"#utility.yul\":19971:19982   */\n      0x00\n        /* \"#utility.yul\":20005:20011   */\n      dup3\n        /* \"#utility.yul\":20000:20003   */\n      dup3\n        /* \"#utility.yul\":19993:20012   */\n      mstore\n        /* \"#utility.yul\":20045:20049   */\n      0x20\n        /* \"#utility.yul\":20040:20043   */\n      dup3\n        /* \"#utility.yul\":20036:20050   */\n      add\n        /* \"#utility.yul\":20021:20050   */\n      swap1\n      pop\n        /* \"#utility.yul\":19887:20056   */\n      swap3\n      swap2\n      pop\n      pop\n      jump\t// out\n        /* \"#utility.yul\":20062:20239   */\n    tag_266:\n        /* \"#utility.yul\":20202:20231   */\n      0x4e206973204e4f54206d756c7469706c65206f662032206f7220330000000000\n        /* \"#utility.yul\":20198:20199   */\n      0x00\n        /* \"#utility.yul\":20190:20196   */\n      dup3\n        /* \"#utility.yul\":20186:20200   */\n      add\n        /* \"#utility.yul\":20179:20232   */\n      mstore\n        /* \"#utility.yul\":20062:20239   */\n      pop\n      jump\t// out\n        /* \"#utility.yul\":20245:20611   */\n    tag_267:\n        /* \"#utility.yul\":20387:20390   */\n      0x00\n        /* \"#utility.yul\":20408:20475   */\n      tag_496\n        /* \"#utility.yul\":20472:20474   */\n      0x1b\n        /* \"#utility.yul\":20467:20470   */\n      dup4\n        /* \"#utility.yul\":20408:20475   */\n      tag_265\n      jump\t// in\n    tag_496:\n        /* \"#utility.yul\":20401:20475   */\n      swap2\n      pop\n        /* \"#utility.yul\":20484:20577   */\n      tag_497\n        /* \"#utility.yul\":20573:20576   */\n      dup3\n        /* \"#utility.yul\":20484:20577   */\n      tag_266\n      jump\t// in\n    tag_497:\n        /* \"#utility.yul\":20602:20604   */\n      0x20\n        /* \"#utility.yul\":20597:20600   */\n      dup3\n        /* \"#utility.yul\":20593:20605   */\n      add\n        /* \"#utility.yul\":20586:20605   */\n      swap1\n      pop\n        /* \"#utility.yul\":20245:20611   */\n      swap2\n      swap1\n      pop\n      jump\t// out\n        /* \"#utility.yul\":20617:21036   */\n    tag_132:\n        /* \"#utility.yul\":20783:20787   */\n      0x00\n        /* \"#utility.yul\":20821:20823   */\n      0x20\n        /* \"#utility.yul\":20810:20819   */\n      dup3\n        /* \"#utility.yul\":20806:20824   */\n      add\n        /* \"#utility.yul\":20798:20824   */\n      swap1\n      pop\n        /* \"#utility.yul\":20870:20879   */\n      dup2\n        /* \"#utility.yul\":20864:20868   */\n      dup2\n        /* \"#utility.yul\":20860:20880   */\n      sub\n        /* \"#utility.yul\":20856:20857   */\n      0x00\n        /* \"#utility.yul\":20845:20854   */\n      dup4\n        /* \"#utility.yul\":20841:20858   */\n      add\n        /* \"#utility.yul\":20834:20881   */\n      mstore\n        /* \"#utility.yul\":20898:21029   */\n      tag_499\n        /* \"#utility.yul\":21024:21028   */\n      dup2\n        /* \"#utility.yul\":20898:21029   */\n      tag_267\n      jump\t// in\n    tag_499:\n        /* \"#utility.yul\":20890:21029   */\n      swap1\n      pop\n        /* \"#utility.yul\":20617:21036   */\n      swap2\n      swap1\n      pop\n      jump\t// out\n        /* \"#utility.yul\":21042:21211   */\n    tag_268:\n        /* \"#utility.yul\":21182:21203   */\n      0x4e206973206d756c7469706c65206f6620333000000000000000000000000000\n        /* \"#utility.yul\":21178:21179   */\n      0x00\n        /* \"#utility.yul\":21170:21176   */\n      dup3\n        /* \"#utility.yul\":21166:21180   */\n      add\n        /* \"#utility.yul\":21159:21204   */\n      mstore\n        /* \"#utility.yul\":21042:21211   */\n      pop\n      jump\t// out\n        /* \"#utility.yul\":21217:21583   */\n    tag_269:\n        /* \"#utility.yul\":21359:21362   */\n      0x00\n        /* \"#utility.yul\":21380:21447   */\n      tag_502\n        /* \"#utility.yul\":21444:21446   */\n      0x13\n        /* \"#utility.yul\":21439:21442   */\n      dup4\n        /* \"#utility.yul\":21380:21447   */\n      tag_265\n      jump\t// in\n    tag_502:\n        /* \"#utility.yul\":21373:21447   */\n      swap2\n      pop\n        /* \"#utility.yul\":21456:21549   */\n      tag_503\n        /* \"#utility.yul\":21545:21548   */\n      dup3\n        /* \"#utility.yul\":21456:21549   */\n      tag_268\n      jump\t// in\n    tag_503:\n        /* \"#utility.yul\":21574:21576   */\n      0x20\n        /* \"#utility.yul\":21569:21572   */\n      dup3\n        /* \"#utility.yul\":21565:21577   */\n      add\n        /* \"#utility.yul\":21558:21577   */\n      swap1\n      pop\n        /* \"#utility.yul\":21217:21583   */\n      swap2\n      swap1\n      pop\n      jump\t// out\n        /* \"#utility.yul\":21589:22008   */\n    tag_136:\n        /* \"#utility.yul\":21755:21759   */\n      0x00\n        /* \"#utility.yul\":21793:21795   */\n      0x20\n        /* \"#utility.yul\":21782:21791   */\n      dup3\n        /* \"#utility.yul\":21778:21796   */\n      add\n        /* \"#utility.yul\":21770:21796   */\n      swap1\n      pop\n        /* \"#utility.yul\":21842:21851   */\n      dup2\n        /* \"#utility.yul\":21836:21840   */\n      dup2\n        /* \"#utility.yul\":21832:21852   */\n      sub\n        /* \"#utility.yul\":21828:21829   */\n      0x00\n        /* \"#utility.yul\":21817:21826   */\n      dup4\n        /* \"#utility.yul\":21813:21830   */\n      add\n        /* \"#utility.yul\":21806:21853   */\n      mstore\n        /* \"#utility.yul\":21870:22001   */\n      tag_505\n        /* \"#utility.yul\":21996:22000   */\n      dup2\n        /* \"#utility.yul\":21870:22001   */\n      tag_269\n      jump\t// in\n    tag_505:\n        /* \"#utility.yul\":21862:22001   */\n      swap1\n      pop\n        /* \"#utility.yul\":21589:22008   */\n      swap2\n      swap1\n      pop\n      jump\t// out\n        /* \"#utility.yul\":22014:22247   */\n    tag_144:\n        /* \"#utility.yul\":22053:22056   */\n      0x00\n        /* \"#utility.yul\":22076:22100   */\n      tag_507\n        /* \"#utility.yul\":22094:22099   */\n      dup3\n        /* \"#utility.yul\":22076:22100   */\n      tag_208\n      jump\t// in\n    tag_507:\n        /* \"#utility.yul\":22067:22100   */\n      swap2\n      pop\n        /* \"#utility.yul\":22122:22188   */\n      0xffffffffffffffffffffffffffffffffffffffffffffffffffffffffffffffff\n        /* \"#utility.yul\":22115:22120   */\n      dup3\n        /* \"#utility.yul\":22112:22189   */\n      sub\n        /* \"#utility.yul\":22109:22212   */\n      tag_508\n      jumpi\n        /* \"#utility.yul\":22192:22210   */\n      tag_509\n      tag_248\n      jump\t// in\n    tag_509:\n        /* \"#utility.yul\":22109:22212   */\n    tag_508:\n        /* \"#utility.yul\":22239:22240   */\n      0x01\n        /* \"#utility.yul\":22232:22237   */\n      dup3\n        /* \"#utility.yul\":22228:22241   */\n      add\n        /* \"#utility.yul\":22221:22241   */\n      swap1\n      pop\n        /* \"#utility.yul\":22014:22247   */\n      swap2\n      swap1\n      pop\n      jump\t// out\n        /* \"#utility.yul\":22253:22408   */\n    tag_270:\n        /* \"#utility.yul\":22393:22400   */\n      0x416c696365000000000000000000000000000000000000000000000000000000\n        /* \"#utility.yul\":22389:22390   */\n      0x00\n        /* \"#utility.yul\":22381:22387   */\n      dup3\n        /* \"#utility.yul\":22377:22391   */\n      add\n        /* \"#utility.yul\":22370:22401   */\n      mstore\n        /* \"#utility.yul\":22253:22408   */\n      pop\n      jump\t// out\n        /* \"#utility.yul\":22414:22814   */\n    tag_271:\n        /* \"#utility.yul\":22574:22577   */\n      0x00\n        /* \"#utility.yul\":22595:22679   */\n      tag_512\n        /* \"#utility.yul\":22677:22678   */\n      0x05\n        /* \"#utility.yul\":22672:22675   */\n      dup4\n        /* \"#utility.yul\":22595:22679   */\n      tag_245\n      jump\t// in\n    tag_512:\n        /* \"#utility.yul\":22588:22679   */\n      swap2\n      pop\n        /* \"#utility.yul\":22688:22781   */\n      tag_513\n        /* \"#utility.yul\":22777:22780   */\n      dup3\n        /* \"#utility.yul\":22688:22781   */\n      tag_270\n      jump\t// in\n    tag_513:\n        /* \"#utility.yul\":22806:22807   */\n      0x05\n        /* \"#utility.yul\":22801:22804   */\n      dup3\n        /* \"#utility.yul\":22797:22808   */\n      add\n        /* \"#utility.yul\":22790:22808   */\n      swap1\n      pop\n        /* \"#utility.yul\":22414:22814   */\n      swap2\n      swap1\n      pop\n      jump\t// out\n        /* \"#utility.yul\":22820:23201   */\n    tag_147:\n        /* \"#utility.yul\":23005:23008   */\n      0x00\n        /* \"#utility.yul\":23027:23175   */\n      tag_515\n        /* \"#utility.yul\":23171:23174   */\n      dup3\n        /* \"#utility.yul\":23027:23175   */\n      tag_271\n      jump\t// in\n    tag_515:\n        /* \"#utility.yul\":23020:23175   */\n      swap2\n      pop\n        /* \"#utility.yul\":23192:23195   */\n      dup2\n        /* \"#utility.yul\":23185:23195   */\n      swap1\n      pop\n        /* \"#utility.yul\":22820:23201   */\n      swap2\n      swap1\n      pop\n      jump\t// out\n        /* \"#utility.yul\":23207:23360   */\n    tag_272:\n        /* \"#utility.yul\":23347:23352   */\n      0x426f620000000000000000000000000000000000000000000000000000000000\n        /* \"#utility.yul\":23343:23344   */\n      0x00\n        /* \"#utility.yul\":23335:23341   */\n      dup3\n        /* \"#utility.yul\":23331:23345   */\n      add\n        /* \"#utility.yul\":23324:23353   */\n      mstore\n        /* \"#utility.yul\":23207:23360   */\n      pop\n      jump\t// out\n        /* \"#utility.yul\":23366:23766   */\n    tag_273:\n        /* \"#utility.yul\":23526:23529   */\n      0x00\n        /* \"#utility.yul\":23547:23631   */\n      tag_518\n        /* \"#utility.yul\":23629:23630   */\n      0x03\n        /* \"#utility.yul\":23624:23627   */\n      dup4\n        /* \"#utility.yul\":23547:23631   */\n      tag_245\n      jump\t// in\n    tag_518:\n        /* \"#utility.yul\":23540:23631   */\n      swap2\n      pop\n        /* \"#utility.yul\":23640:23733   */\n      tag_519\n        /* \"#utility.yul\":23729:23732   */\n      dup3\n        /* \"#utility.yul\":23640:23733   */\n      tag_272\n      jump\t// in\n    tag_519:\n        /* \"#utility.yul\":23758:23759   */\n      0x03\n        /* \"#utility.yul\":23753:23756   */\n      dup3\n        /* \"#utility.yul\":23749:23760   */\n      add\n        /* \"#utility.yul\":23742:23760   */\n      swap1\n      pop\n        /* \"#utility.yul\":23366:23766   */\n      swap2\n      swap1\n      pop\n      jump\t// out\n        /* \"#utility.yul\":23772:24153   */\n    tag_151:\n        /* \"#utility.yul\":23957:23960   */\n      0x00\n        /* \"#utility.yul\":23979:24127   */\n      tag_521\n        /* \"#utility.yul\":24123:24126   */\n      dup3\n        /* \"#utility.yul\":23979:24127   */\n      tag_273\n      jump\t// in\n    tag_521:\n        /* \"#utility.yul\":23972:24127   */\n      swap2\n      pop\n        /* \"#utility.yul\":24144:24147   */\n      dup2\n        /* \"#utility.yul\":24137:24147   */\n      swap1\n      pop\n        /* \"#utility.yul\":23772:24153   */\n      swap2\n      swap1\n      pop\n      jump\t// out\n\n    auxdata: 0xa2646970667358221220b869031db440431b8a762a4d3b440c9e514d1bcf72de6497053334d888bb73aa64736f6c63430008160033\n}\n",
				"bytecode": {
					"linkReferences": {},
					"object": "608060405234801561000f575f80fd5b506119858061001d5f395ff3fe608060405234801561000f575f80fd5b50600436106100e8575f3560e01c806382fae9b71161008a578063b7a2f87111610064578063b7a2f87114610230578063dd49702c14610260578063e8d113c11461026a578063f524aa9214610288576100e8565b806382fae9b7146101ee5780638385cc161461020a578063891fd3c214610226576100e8565b806332842e70116100c657806332842e7014610154578063642f916314610170578063740d5e10146101a05780637eb78932146101be576100e8565b80630126931b146100ec578063015752d91461010857806311200d7014610124575b5f80fd5b61010660048036038101906101019190610d38565b6102a6565b005b610122600480360381019061011d9190610ef9565b6102cf565b005b61013e60048036038101906101399190610d38565b61037f565b60405161014b9190610fec565b60405180910390f35b61016e60048036038101906101699190610d38565b61042f565b005b61018a60048036038101906101859190610d38565b610458565b60405161019791906110db565b60405180910390f35b6101a8610535565b6040516101b5919061110a565b60405180910390f35b6101d860048036038101906101d39190611123565b61059c565b6040516101e591906111b9565b60405180910390f35b610208600480360381019061020391906111d2565b61063c565b005b610224600480360381019061021f9190610d38565b6106ae565b005b61022e610788565b005b61024a60048036038101906102459190611123565b6107d2565b6040516102579190611258565b60405180910390f35b61026861088b565b005b610272610a79565b60405161027f9190611319565b60405180910390f35b610290610bc8565b60405161029d9190611319565b60405180910390f35b600381908060018154018082558091505060019003905f5260205f20015f909190919091505550565b60405180606001604052808481526020018373ffffffffffffffffffffffffffffffffffffffff168152602001828152506001856040516103109190611373565b90815260200160405180910390205f820151815f01556020820151816001015f6101000a81548173ffffffffffffffffffffffffffffffffffffffff021916908373ffffffffffffffffffffffffffffffffffffffff1602179055506040820151816002015590505050505050565b5f600782106103b6575f60055f6101000a81548160ff021916908360028111156103ac576103ab610f79565b5b0217905550610419565b600482106103ed57600160055f6101000a81548160ff021916908360028111156103e3576103e2610f79565b5b0217905550610418565b600260055f6101000a81548160ff0219169083600281111561041257610411610f79565b5b02179055505b5b60055f9054906101000a900460ff169050919050565b600481908060018154018082558091505060019003905f5260205f20015f909190919091505550565b610460610ca1565b6002828154811061047457610473611389565b5b905f5260205f2090600302016040518060600160405290815f8201805461049a906113e3565b80601f01602080910402602001604051908101604052809291908181526020018280546104c6906113e3565b80156105115780601f106104e857610100808354040283529160200191610511565b820191905f5260205f20905b8154815290600101906020018083116104f457829003601f168201915b50505050508152602001600182015481526020016002820154815250509050919050565b5f805f5b600280549050811015610584576002818154811061055a57610559611389565b5b905f5260205f20906003020160020154826105759190611440565b91508080600101915050610539565b506002805490508161059691906114a0565b91505090565b6105a4610cc0565b6001826040516105b49190611373565b90815260200160405180910390206040518060600160405290815f8201548152602001600182015f9054906101000a900473ffffffffffffffffffffffffffffffffffffffff1673ffffffffffffffffffffffffffffffffffffffff1673ffffffffffffffffffffffffffffffffffffffff1681526020016002820154815250509050919050565b6002604051806060016040528085815260200184815260200183815250908060018154018082558091505060019003905f5260205f2090600302015f909190919091505f820151815f019081610692919061166d565b5060208201518160010155604082015181600201555050505050565b5f6002826106bc919061173c565b14806106d357505f6003826106d1919061173c565b145b610712576040517f08c379a0000000000000000000000000000000000000000000000000000000008152600401610709906117c6565b60405180910390fd5b5f601e82610720919061173c565b03610760576040517f08c379a00000000000000000000000000000000000000000000000000000000081526004016107579061182e565b60405180910390fd5b5f81908060018154018082558091505060019003905f5260205f20015f909190919091505550565b5f600190505b601481116107cf57600481908060018154018082558091505060019003905f5260205f20015f909190919091505580806107c79061184c565b91505061078e565b50565b5f6040516020016107e2906118dd565b60405160208183030381529060405280519060200120826040516020016108099190611373565b60405160208183030381529060405280519060200120148061087457506040516020016108359061193b565b604051602081830303815290604052805190602001208260405160200161085c9190611373565b60405160208183030381529060405280519060200120145b156108825760019050610886565b5f90505b919050565b600260405180606001604052806040518060400160405280600581526020017f416c6963650000000000000000000000000000000000000000000000000000008152508152602001600181526020016050815250908060018154018082558091505060019003905f5260205f2090600302015f909190919091505f820151815f019081610918919061166d565b5060208201518160010155604082015181600201555050600260405180606001604052806040518060400160405280600381526020017f426f6200000000000000000000000000000000000000000000000000000000008152508152602001600281526020016046815250908060018154018082558091505060019003905f5260205f2090600302015f909190919091505f820151815f0190816109bc919061166d565b5060208201518160010155604082015181600201555050600260405180606001604052806040518060400160405280600781526020017f436861726c6965000000000000000000000000000000000000000000000000008152508152602001600381526020016032815250908060018154018082558091505060019003905f5260205f2090600302015f909190919091505f820151815f019081610a60919061166d565b5060208201518160010155604082015181600201555050565b6060805f805f90505b600480549050811015610ada575f600260048381548110610aa657610aa5611389565b5b905f5260205f200154610ab9919061173c565b03610acd578180610ac99061184c565b9250505b8080600101915050610a82565b508067ffffffffffffffff811115610af557610af4610d7b565b5b604051908082528060200260200182016040528015610b235781602001602082028036833780820191505090505b5091505f90505f5b600480549050811015610bbf575f600260048381548110610b4f57610b4e611389565b5b905f5260205f200154610b62919061173c565b03610bb25760048181548110610b7b57610b7a611389565b5b905f5260205f200154838381518110610b9757610b96611389565b5b6020026020010181815250508180610bae9061184c565b9250505b8080600101915050610b2b565b50819250505090565b60605f6002600380549050610bdd91906114a0565b67ffffffffffffffff811115610bf657610bf5610d7b565b5b604051908082528060200260200182016040528015610c245781602001602082028036833780820191505090505b5090505f805f90505b600380549050811015610c985760038181548110610c4e57610c4d611389565b5b905f5260205f200154838381518110610c6a57610c69611389565b5b6020026020010181815250508180610c819061184c565b925050600281610c919190611440565b9050610c2d565b50819250505090565b6040518060600160405280606081526020015f81526020015f81525090565b60405180606001604052805f81526020015f73ffffffffffffffffffffffffffffffffffffffff1681526020015f81525090565b5f604051905090565b5f80fd5b5f80fd5b5f819050919050565b610d1781610d05565b8114610d21575f80fd5b50565b5f81359050610d3281610d0e565b92915050565b5f60208284031215610d4d57610d4c610cfd565b5b5f610d5a84828501610d24565b91505092915050565b5f80fd5b5f80fd5b5f601f19601f8301169050919050565b7f4e487b71000000000000000000000000000000000000000000000000000000005f52604160045260245ffd5b610db182610d6b565b810181811067ffffffffffffffff82111715610dd057610dcf610d7b565b5b80604052505050565b5f610de2610cf4565b9050610dee8282610da8565b919050565b5f67ffffffffffffffff821115610e0d57610e0c610d7b565b5b610e1682610d6b565b9050602081019050919050565b828183375f83830152505050565b5f610e43610e3e84610df3565b610dd9565b905082815260208101848484011115610e5f57610e5e610d67565b5b610e6a848285610e23565b509392505050565b5f82601f830112610e8657610e85610d63565b5b8135610e96848260208601610e31565b91505092915050565b5f73ffffffffffffffffffffffffffffffffffffffff82169050919050565b5f610ec882610e9f565b9050919050565b610ed881610ebe565b8114610ee2575f80fd5b50565b5f81359050610ef381610ecf565b92915050565b5f805f8060808587031215610f1157610f10610cfd565b5b5f85013567ffffffffffffffff811115610f2e57610f2d610d01565b5b610f3a87828801610e72565b9450506020610f4b87828801610d24565b9350506040610f5c87828801610ee5565b9250506060610f6d87828801610d24565b91505092959194509250565b7f4e487b71000000000000000000000000000000000000000000000000000000005f52602160045260245ffd5b60038110610fb757610fb6610f79565b5b50565b5f819050610fc782610fa6565b919050565b5f610fd682610fba565b9050919050565b610fe681610fcc565b82525050565b5f602082019050610fff5f830184610fdd565b92915050565b5f81519050919050565b5f82825260208201905092915050565b5f5b8381101561103c578082015181840152602081019050611021565b5f8484015250505050565b5f61105182611005565b61105b818561100f565b935061106b81856020860161101f565b61107481610d6b565b840191505092915050565b61108881610d05565b82525050565b5f606083015f8301518482035f8601526110a88282611047565b91505060208301516110bd602086018261107f565b5060408301516110d0604086018261107f565b508091505092915050565b5f6020820190508181035f8301526110f3818461108e565b905092915050565b61110481610d05565b82525050565b5f60208201905061111d5f8301846110fb565b92915050565b5f6020828403121561113857611137610cfd565b5b5f82013567ffffffffffffffff81111561115557611154610d01565b5b61116184828501610e72565b91505092915050565b61117381610ebe565b82525050565b606082015f82015161118d5f85018261107f565b5060208201516111a0602085018261116a565b5060408201516111b3604085018261107f565b50505050565b5f6060820190506111cc5f830184611179565b92915050565b5f805f606084860312156111e9576111e8610cfd565b5b5f84013567ffffffffffffffff81111561120657611205610d01565b5b61121286828701610e72565b935050602061122386828701610d24565b925050604061123486828701610d24565b9150509250925092565b5f8115159050919050565b6112528161123e565b82525050565b5f60208201905061126b5f830184611249565b92915050565b5f81519050919050565b5f82825260208201905092915050565b5f819050602082019050919050565b5f6112a5838361107f565b60208301905092915050565b5f602082019050919050565b5f6112c782611271565b6112d1818561127b565b93506112dc8361128b565b805f5b8381101561130c5781516112f3888261129a565b97506112fe836112b1565b9250506001810190506112df565b5085935050505092915050565b5f6020820190508181035f83015261133181846112bd565b905092915050565b5f81905092915050565b5f61134d82611005565b6113578185611339565b935061136781856020860161101f565b80840191505092915050565b5f61137e8284611343565b915081905092915050565b7f4e487b71000000000000000000000000000000000000000000000000000000005f52603260045260245ffd5b7f4e487b71000000000000000000000000000000000000000000000000000000005f52602260045260245ffd5b5f60028204905060018216806113fa57607f821691505b60208210810361140d5761140c6113b6565b5b50919050565b7f4e487b71000000000000000000000000000000000000000000000000000000005f52601160045260245ffd5b5f61144a82610d05565b915061145583610d05565b925082820190508082111561146d5761146c611413565b5b92915050565b7f4e487b71000000000000000000000000000000000000000000000000000000005f52601260045260245ffd5b5f6114aa82610d05565b91506114b583610d05565b9250826114c5576114c4611473565b5b828204905092915050565b5f819050815f5260205f209050919050565b5f6020601f8301049050919050565b5f82821b905092915050565b5f6008830261152c7fffffffffffffffffffffffffffffffffffffffffffffffffffffffffffffffff826114f1565b61153686836114f1565b95508019841693508086168417925050509392505050565b5f819050919050565b5f61157161156c61156784610d05565b61154e565b610d05565b9050919050565b5f819050919050565b61158a83611557565b61159e61159682611578565b8484546114fd565b825550505050565b5f90565b6115b26115a6565b6115bd818484611581565b505050565b5b818110156115e0576115d55f826115aa565b6001810190506115c3565b5050565b601f821115611625576115f6816114d0565b6115ff846114e2565b8101602085101561160e578190505b61162261161a856114e2565b8301826115c2565b50505b505050565b5f82821c905092915050565b5f6116455f198460080261162a565b1980831691505092915050565b5f61165d8383611636565b9150826002028217905092915050565b61167682611005565b67ffffffffffffffff81111561168f5761168e610d7b565b5b61169982546113e3565b6116a48282856115e4565b5f60209050601f8311600181146116d5575f84156116c3578287015190505b6116cd8582611652565b865550611734565b601f1984166116e3866114d0565b5f5b8281101561170a578489015182556001820191506020850194506020810190506116e5565b868310156117275784890151611723601f891682611636565b8355505b6001600288020188555050505b505050505050565b5f61174682610d05565b915061175183610d05565b92508261176157611760611473565b5b828206905092915050565b5f82825260208201905092915050565b7f4e206973204e4f54206d756c7469706c65206f662032206f72203300000000005f82015250565b5f6117b0601b8361176c565b91506117bb8261177c565b602082019050919050565b5f6020820190508181035f8301526117dd816117a4565b9050919050565b7f4e206973206d756c7469706c65206f66203330000000000000000000000000005f82015250565b5f61181860138361176c565b9150611823826117e4565b602082019050919050565b5f6020820190508181035f8301526118458161180c565b9050919050565b5f61185682610d05565b91507fffffffffffffffffffffffffffffffffffffffffffffffffffffffffffffffff820361188857611887611413565b5b600182019050919050565b7f416c6963650000000000000000000000000000000000000000000000000000005f82015250565b5f6118c7600583611339565b91506118d282611893565b600582019050919050565b5f6118e7826118bb565b9150819050919050565b7f426f6200000000000000000000000000000000000000000000000000000000005f82015250565b5f611925600383611339565b9150611930826118f1565b600382019050919050565b5f61194582611919565b915081905091905056fea2646970667358221220b869031db440431b8a762a4d3b440c9e514d1bcf72de6497053334d888bb73aa64736f6c63430008160033",
					"opcodes": "PUSH1 0x80 PUSH1 0x40 MSTORE CALLVALUE DUP1 ISZERO PUSH2 0xF JUMPI PUSH0 DUP1 REVERT JUMPDEST POP PUSH2 0x1985 DUP1 PUSH2 0x1D PUSH0 CODECOPY PUSH0 RETURN INVALID PUSH1 0x80 PUSH1 0x40 MSTORE CALLVALUE DUP1 ISZERO PUSH2 0xF JUMPI PUSH0 DUP1 REVERT JUMPDEST POP PUSH1 0x4 CALLDATASIZE LT PUSH2 0xE8 JUMPI PUSH0 CALLDATALOAD PUSH1 0xE0 SHR DUP1 PUSH4 0x82FAE9B7 GT PUSH2 0x8A JUMPI DUP1 PUSH4 0xB7A2F871 GT PUSH2 0x64 JUMPI DUP1 PUSH4 0xB7A2F871 EQ PUSH2 0x230 JUMPI DUP1 PUSH4 0xDD49702C EQ PUSH2 0x260 JUMPI DUP1 PUSH4 0xE8D113C1 EQ PUSH2 0x26A JUMPI DUP1 PUSH4 0xF524AA92 EQ PUSH2 0x288 JUMPI PUSH2 0xE8 JUMP JUMPDEST DUP1 PUSH4 0x82FAE9B7 EQ PUSH2 0x1EE JUMPI DUP1 PUSH4 0x8385CC16 EQ PUSH2 0x20A JUMPI DUP1 PUSH4 0x891FD3C2 EQ PUSH2 0x226 JUMPI PUSH2 0xE8 JUMP JUMPDEST DUP1 PUSH4 0x32842E70 GT PUSH2 0xC6 JUMPI DUP1 PUSH4 0x32842E70 EQ PUSH2 0x154 JUMPI DUP1 PUSH4 0x642F9163 EQ PUSH2 0x170 JUMPI DUP1 PUSH4 0x740D5E10 EQ PUSH2 0x1A0 JUMPI DUP1 PUSH4 0x7EB78932 EQ PUSH2 0x1BE JUMPI PUSH2 0xE8 JUMP JUMPDEST DUP1 PUSH4 0x126931B EQ PUSH2 0xEC JUMPI DUP1 PUSH4 0x15752D9 EQ PUSH2 0x108 JUMPI DUP1 PUSH4 0x11200D70 EQ PUSH2 0x124 JUMPI JUMPDEST PUSH0 DUP1 REVERT JUMPDEST PUSH2 0x106 PUSH1 0x4 DUP1 CALLDATASIZE SUB DUP2 ADD SWAP1 PUSH2 0x101 SWAP2 SWAP1 PUSH2 0xD38 JUMP JUMPDEST PUSH2 0x2A6 JUMP JUMPDEST STOP JUMPDEST PUSH2 0x122 PUSH1 0x4 DUP1 CALLDATASIZE SUB DUP2 ADD SWAP1 PUSH2 0x11D SWAP2 SWAP1 PUSH2 0xEF9 JUMP JUMPDEST PUSH2 0x2CF JUMP JUMPDEST STOP JUMPDEST PUSH2 0x13E PUSH1 0x4 DUP1 CALLDATASIZE SUB DUP2 ADD SWAP1 PUSH2 0x139 SWAP2 SWAP1 PUSH2 0xD38 JUMP JUMPDEST PUSH2 0x37F JUMP JUMPDEST PUSH1 0x40 MLOAD PUSH2 0x14B SWAP2 SWAP1 PUSH2 0xFEC JUMP JUMPDEST PUSH1 0x40 MLOAD DUP1 SWAP2 SUB SWAP1 RETURN JUMPDEST PUSH2 0x16E PUSH1 0x4 DUP1 CALLDATASIZE SUB DUP2 ADD SWAP1 PUSH2 0x169 SWAP2 SWAP1 PUSH2 0xD38 JUMP JUMPDEST PUSH2 0x42F JUMP JUMPDEST STOP JUMPDEST PUSH2 0x18A PUSH1 0x4 DUP1 CALLDATASIZE SUB DUP2 ADD SWAP1 PUSH2 0x185 SWAP2 SWAP1 PUSH2 0xD38 JUMP JUMPDEST PUSH2 0x458 JUMP JUMPDEST PUSH1 0x40 MLOAD PUSH2 0x197 SWAP2 SWAP1 PUSH2 0x10DB JUMP JUMPDEST PUSH1 0x40 MLOAD DUP1 SWAP2 SUB SWAP1 RETURN JUMPDEST PUSH2 0x1A8 PUSH2 0x535 JUMP JUMPDEST PUSH1 0x40 MLOAD PUSH2 0x1B5 SWAP2 SWAP1 PUSH2 0x110A JUMP JUMPDEST PUSH1 0x40 MLOAD DUP1 SWAP2 SUB SWAP1 RETURN JUMPDEST PUSH2 0x1D8 PUSH1 0x4 DUP1 CALLDATASIZE SUB DUP2 ADD SWAP1 PUSH2 0x1D3 SWAP2 SWAP1 PUSH2 0x1123 JUMP JUMPDEST PUSH2 0x59C JUMP JUMPDEST PUSH1 0x40 MLOAD PUSH2 0x1E5 SWAP2 SWAP1 PUSH2 0x11B9 JUMP JUMPDEST PUSH1 0x40 MLOAD DUP1 SWAP2 SUB SWAP1 RETURN JUMPDEST PUSH2 0x208 PUSH1 0x4 DUP1 CALLDATASIZE SUB DUP2 ADD SWAP1 PUSH2 0x203 SWAP2 SWAP1 PUSH2 0x11D2 JUMP JUMPDEST PUSH2 0x63C JUMP JUMPDEST STOP JUMPDEST PUSH2 0x224 PUSH1 0x4 DUP1 CALLDATASIZE SUB DUP2 ADD SWAP1 PUSH2 0x21F SWAP2 SWAP1 PUSH2 0xD38 JUMP JUMPDEST PUSH2 0x6AE JUMP JUMPDEST STOP JUMPDEST PUSH2 0x22E PUSH2 0x788 JUMP JUMPDEST STOP JUMPDEST PUSH2 0x24A PUSH1 0x4 DUP1 CALLDATASIZE SUB DUP2 ADD SWAP1 PUSH2 0x245 SWAP2 SWAP1 PUSH2 0x1123 JUMP JUMPDEST PUSH2 0x7D2 JUMP JUMPDEST PUSH1 0x40 MLOAD PUSH2 0x257 SWAP2 SWAP1 PUSH2 0x1258 JUMP JUMPDEST PUSH1 0x40 MLOAD DUP1 SWAP2 SUB SWAP1 RETURN JUMPDEST PUSH2 0x268 PUSH2 0x88B JUMP JUMPDEST STOP JUMPDEST PUSH2 0x272 PUSH2 0xA79 JUMP JUMPDEST PUSH1 0x40 MLOAD PUSH2 0x27F SWAP2 SWAP1 PUSH2 0x1319 JUMP JUMPDEST PUSH1 0x40 MLOAD DUP1 SWAP2 SUB SWAP1 RETURN JUMPDEST PUSH2 0x290 PUSH2 0xBC8 JUMP JUMPDEST PUSH1 0x40 MLOAD PUSH2 0x29D SWAP2 SWAP1 PUSH2 0x1319 JUMP JUMPDEST PUSH1 0x40 MLOAD DUP1 SWAP2 SUB SWAP1 RETURN JUMPDEST PUSH1 0x3 DUP2 SWAP1 DUP1 PUSH1 0x1 DUP2 SLOAD ADD DUP1 DUP3 SSTORE DUP1 SWAP2 POP POP PUSH1 0x1 SWAP1 SUB SWAP1 PUSH0 MSTORE PUSH1 0x20 PUSH0 KECCAK256 ADD PUSH0 SWAP1 SWAP2 SWAP1 SWAP2 SWAP1 SWAP2 POP SSTORE POP JUMP JUMPDEST PUSH1 0x40 MLOAD DUP1 PUSH1 0x60 ADD PUSH1 0x40 MSTORE DUP1 DUP5 DUP2 MSTORE PUSH1 0x20 ADD DUP4 PUSH20 0xFFFFFFFFFFFFFFFFFFFFFFFFFFFFFFFFFFFFFFFF AND DUP2 MSTORE PUSH1 0x20 ADD DUP3 DUP2 MSTORE POP PUSH1 0x1 DUP6 PUSH1 0x40 MLOAD PUSH2 0x310 SWAP2 SWAP1 PUSH2 0x1373 JUMP JUMPDEST SWAP1 DUP2 MSTORE PUSH1 0x20 ADD PUSH1 0x40 MLOAD DUP1 SWAP2 SUB SWAP1 KECCAK256 PUSH0 DUP3 ADD MLOAD DUP2 PUSH0 ADD SSTORE PUSH1 0x20 DUP3 ADD MLOAD DUP2 PUSH1 0x1 ADD PUSH0 PUSH2 0x100 EXP DUP2 SLOAD DUP2 PUSH20 0xFFFFFFFFFFFFFFFFFFFFFFFFFFFFFFFFFFFFFFFF MUL NOT AND SWAP1 DUP4 PUSH20 0xFFFFFFFFFFFFFFFFFFFFFFFFFFFFFFFFFFFFFFFF AND MUL OR SWAP1 SSTORE POP PUSH1 0x40 DUP3 ADD MLOAD DUP2 PUSH1 0x2 ADD SSTORE SWAP1 POP POP POP POP POP POP JUMP JUMPDEST PUSH0 PUSH1 0x7 DUP3 LT PUSH2 0x3B6 JUMPI PUSH0 PUSH1 0x5 PUSH0 PUSH2 0x100 EXP DUP2 SLOAD DUP2 PUSH1 0xFF MUL NOT AND SWAP1 DUP4 PUSH1 0x2 DUP2 GT ISZERO PUSH2 0x3AC JUMPI PUSH2 0x3AB PUSH2 0xF79 JUMP JUMPDEST JUMPDEST MUL OR SWAP1 SSTORE POP PUSH2 0x419 JUMP JUMPDEST PUSH1 0x4 DUP3 LT PUSH2 0x3ED JUMPI PUSH1 0x1 PUSH1 0x5 PUSH0 PUSH2 0x100 EXP DUP2 SLOAD DUP2 PUSH1 0xFF MUL NOT AND SWAP1 DUP4 PUSH1 0x2 DUP2 GT ISZERO PUSH2 0x3E3 JUMPI PUSH2 0x3E2 PUSH2 0xF79 JUMP JUMPDEST JUMPDEST MUL OR SWAP1 SSTORE POP PUSH2 0x418 JUMP JUMPDEST PUSH1 0x2 PUSH1 0x5 PUSH0 PUSH2 0x100 EXP DUP2 SLOAD DUP2 PUSH1 0xFF MUL NOT AND SWAP1 DUP4 PUSH1 0x2 DUP2 GT ISZERO PUSH2 0x412 JUMPI PUSH2 0x411 PUSH2 0xF79 JUMP JUMPDEST JUMPDEST MUL OR SWAP1 SSTORE POP JUMPDEST JUMPDEST PUSH1 0x5 PUSH0 SWAP1 SLOAD SWAP1 PUSH2 0x100 EXP SWAP1 DIV PUSH1 0xFF AND SWAP1 POP SWAP2 SWAP1 POP JUMP JUMPDEST PUSH1 0x4 DUP2 SWAP1 DUP1 PUSH1 0x1 DUP2 SLOAD ADD DUP1 DUP3 SSTORE DUP1 SWAP2 POP POP PUSH1 0x1 SWAP1 SUB SWAP1 PUSH0 MSTORE PUSH1 0x20 PUSH0 KECCAK256 ADD PUSH0 SWAP1 SWAP2 SWAP1 SWAP2 SWAP1 SWAP2 POP SSTORE POP JUMP JUMPDEST PUSH2 0x460 PUSH2 0xCA1 JUMP JUMPDEST PUSH1 0x2 DUP3 DUP2 SLOAD DUP2 LT PUSH2 0x474 JUMPI PUSH2 0x473 PUSH2 0x1389 JUMP JUMPDEST JUMPDEST SWAP1 PUSH0 MSTORE PUSH1 0x20 PUSH0 KECCAK256 SWAP1 PUSH1 0x3 MUL ADD PUSH1 0x40 MLOAD DUP1 PUSH1 0x60 ADD PUSH1 0x40 MSTORE SWAP1 DUP2 PUSH0 DUP3 ADD DUP1 SLOAD PUSH2 0x49A SWAP1 PUSH2 0x13E3 JUMP JUMPDEST DUP1 PUSH1 0x1F ADD PUSH1 0x20 DUP1 SWAP2 DIV MUL PUSH1 0x20 ADD PUSH1 0x40 MLOAD SWAP1 DUP2 ADD PUSH1 0x40 MSTORE DUP1 SWAP3 SWAP2 SWAP1 DUP2 DUP2 MSTORE PUSH1 0x20 ADD DUP3 DUP1 SLOAD PUSH2 0x4C6 SWAP1 PUSH2 0x13E3 JUMP JUMPDEST DUP1 ISZERO PUSH2 0x511 JUMPI DUP1 PUSH1 0x1F LT PUSH2 0x4E8 JUMPI PUSH2 0x100 DUP1 DUP4 SLOAD DIV MUL DUP4 MSTORE SWAP2 PUSH1 0x20 ADD SWAP2 PUSH2 0x511 JUMP JUMPDEST DUP3 ADD SWAP2 SWAP1 PUSH0 MSTORE PUSH1 0x20 PUSH0 KECCAK256 SWAP1 JUMPDEST DUP2 SLOAD DUP2 MSTORE SWAP1 PUSH1 0x1 ADD SWAP1 PUSH1 0x20 ADD DUP1 DUP4 GT PUSH2 0x4F4 JUMPI DUP3 SWAP1 SUB PUSH1 0x1F AND DUP3 ADD SWAP2 JUMPDEST POP POP POP POP POP DUP2 MSTORE PUSH1 0x20 ADD PUSH1 0x1 DUP3 ADD SLOAD DUP2 MSTORE PUSH1 0x20 ADD PUSH1 0x2 DUP3 ADD SLOAD DUP2 MSTORE POP POP SWAP1 POP SWAP2 SWAP1 POP JUMP JUMPDEST PUSH0 DUP1 PUSH0 JUMPDEST PUSH1 0x2 DUP1 SLOAD SWAP1 POP DUP2 LT ISZERO PUSH2 0x584 JUMPI PUSH1 0x2 DUP2 DUP2 SLOAD DUP2 LT PUSH2 0x55A JUMPI PUSH2 0x559 PUSH2 0x1389 JUMP JUMPDEST JUMPDEST SWAP1 PUSH0 MSTORE PUSH1 0x20 PUSH0 KECCAK256 SWAP1 PUSH1 0x3 MUL ADD PUSH1 0x2 ADD SLOAD DUP3 PUSH2 0x575 SWAP2 SWAP1 PUSH2 0x1440 JUMP JUMPDEST SWAP2 POP DUP1 DUP1 PUSH1 0x1 ADD SWAP2 POP POP PUSH2 0x539 JUMP JUMPDEST POP PUSH1 0x2 DUP1 SLOAD SWAP1 POP DUP2 PUSH2 0x596 SWAP2 SWAP1 PUSH2 0x14A0 JUMP JUMPDEST SWAP2 POP POP SWAP1 JUMP JUMPDEST PUSH2 0x5A4 PUSH2 0xCC0 JUMP JUMPDEST PUSH1 0x1 DUP3 PUSH1 0x40 MLOAD PUSH2 0x5B4 SWAP2 SWAP1 PUSH2 0x1373 JUMP JUMPDEST SWAP1 DUP2 MSTORE PUSH1 0x20 ADD PUSH1 0x40 MLOAD DUP1 SWAP2 SUB SWAP1 KECCAK256 PUSH1 0x40 MLOAD DUP1 PUSH1 0x60 ADD PUSH1 0x40 MSTORE SWAP1 DUP2 PUSH0 DUP3 ADD SLOAD DUP2 MSTORE PUSH1 0x20 ADD PUSH1 0x1 DUP3 ADD PUSH0 SWAP1 SLOAD SWAP1 PUSH2 0x100 EXP SWAP1 DIV PUSH20 0xFFFFFFFFFFFFFFFFFFFFFFFFFFFFFFFFFFFFFFFF AND PUSH20 0xFFFFFFFFFFFFFFFFFFFFFFFFFFFFFFFFFFFFFFFF AND PUSH20 0xFFFFFFFFFFFFFFFFFFFFFFFFFFFFFFFFFFFFFFFF AND DUP2 MSTORE PUSH1 0x20 ADD PUSH1 0x2 DUP3 ADD SLOAD DUP2 MSTORE POP POP SWAP1 POP SWAP2 SWAP1 POP JUMP JUMPDEST PUSH1 0x2 PUSH1 0x40 MLOAD DUP1 PUSH1 0x60 ADD PUSH1 0x40 MSTORE DUP1 DUP6 DUP2 MSTORE PUSH1 0x20 ADD DUP5 DUP2 MSTORE PUSH1 0x20 ADD DUP4 DUP2 MSTORE POP SWAP1 DUP1 PUSH1 0x1 DUP2 SLOAD ADD DUP1 DUP3 SSTORE DUP1 SWAP2 POP POP PUSH1 0x1 SWAP1 SUB SWAP1 PUSH0 MSTORE PUSH1 0x20 PUSH0 KECCAK256 SWAP1 PUSH1 0x3 MUL ADD PUSH0 SWAP1 SWAP2 SWAP1 SWAP2 SWAP1 SWAP2 POP PUSH0 DUP3 ADD MLOAD DUP2 PUSH0 ADD SWAP1 DUP2 PUSH2 0x692 SWAP2 SWAP1 PUSH2 0x166D JUMP JUMPDEST POP PUSH1 0x20 DUP3 ADD MLOAD DUP2 PUSH1 0x1 ADD SSTORE PUSH1 0x40 DUP3 ADD MLOAD DUP2 PUSH1 0x2 ADD SSTORE POP POP POP POP POP JUMP JUMPDEST PUSH0 PUSH1 0x2 DUP3 PUSH2 0x6BC SWAP2 SWAP1 PUSH2 0x173C JUMP JUMPDEST EQ DUP1 PUSH2 0x6D3 JUMPI POP PUSH0 PUSH1 0x3 DUP3 PUSH2 0x6D1 SWAP2 SWAP1 PUSH2 0x173C JUMP JUMPDEST EQ JUMPDEST PUSH2 0x712 JUMPI PUSH1 0x40 MLOAD PUSH32 0x8C379A000000000000000000000000000000000000000000000000000000000 DUP2 MSTORE PUSH1 0x4 ADD PUSH2 0x709 SWAP1 PUSH2 0x17C6 JUMP JUMPDEST PUSH1 0x40 MLOAD DUP1 SWAP2 SUB SWAP1 REVERT JUMPDEST PUSH0 PUSH1 0x1E DUP3 PUSH2 0x720 SWAP2 SWAP1 PUSH2 0x173C JUMP JUMPDEST SUB PUSH2 0x760 JUMPI PUSH1 0x40 MLOAD PUSH32 0x8C379A000000000000000000000000000000000000000000000000000000000 DUP2 MSTORE PUSH1 0x4 ADD PUSH2 0x757 SWAP1 PUSH2 0x182E JUMP JUMPDEST PUSH1 0x40 MLOAD DUP1 SWAP2 SUB SWAP1 REVERT JUMPDEST PUSH0 DUP2 SWAP1 DUP1 PUSH1 0x1 DUP2 SLOAD ADD DUP1 DUP3 SSTORE DUP1 SWAP2 POP POP PUSH1 0x1 SWAP1 SUB SWAP1 PUSH0 MSTORE PUSH1 0x20 PUSH0 KECCAK256 ADD PUSH0 SWAP1 SWAP2 SWAP1 SWAP2 SWAP1 SWAP2 POP SSTORE POP JUMP JUMPDEST PUSH0 PUSH1 0x1 SWAP1 POP JUMPDEST PUSH1 0x14 DUP2 GT PUSH2 0x7CF JUMPI PUSH1 0x4 DUP2 SWAP1 DUP1 PUSH1 0x1 DUP2 SLOAD ADD DUP1 DUP3 SSTORE DUP1 SWAP2 POP POP PUSH1 0x1 SWAP1 SUB SWAP1 PUSH0 MSTORE PUSH1 0x20 PUSH0 KECCAK256 ADD PUSH0 SWAP1 SWAP2 SWAP1 SWAP2 SWAP1 SWAP2 POP SSTORE DUP1 DUP1 PUSH2 0x7C7 SWAP1 PUSH2 0x184C JUMP JUMPDEST SWAP2 POP POP PUSH2 0x78E JUMP JUMPDEST POP JUMP JUMPDEST PUSH0 PUSH1 0x40 MLOAD PUSH1 0x20 ADD PUSH2 0x7E2 SWAP1 PUSH2 0x18DD JUMP JUMPDEST PUSH1 0x40 MLOAD PUSH1 0x20 DUP2 DUP4 SUB SUB DUP2 MSTORE SWAP1 PUSH1 0x40 MSTORE DUP1 MLOAD SWAP1 PUSH1 0x20 ADD KECCAK256 DUP3 PUSH1 0x40 MLOAD PUSH1 0x20 ADD PUSH2 0x809 SWAP2 SWAP1 PUSH2 0x1373 JUMP JUMPDEST PUSH1 0x40 MLOAD PUSH1 0x20 DUP2 DUP4 SUB SUB DUP2 MSTORE SWAP1 PUSH1 0x40 MSTORE DUP1 MLOAD SWAP1 PUSH1 0x20 ADD KECCAK256 EQ DUP1 PUSH2 0x874 JUMPI POP PUSH1 0x40 MLOAD PUSH1 0x20 ADD PUSH2 0x835 SWAP1 PUSH2 0x193B JUMP JUMPDEST PUSH1 0x40 MLOAD PUSH1 0x20 DUP2 DUP4 SUB SUB DUP2 MSTORE SWAP1 PUSH1 0x40 MSTORE DUP1 MLOAD SWAP1 PUSH1 0x20 ADD KECCAK256 DUP3 PUSH1 0x40 MLOAD PUSH1 0x20 ADD PUSH2 0x85C SWAP2 SWAP1 PUSH2 0x1373 JUMP JUMPDEST PUSH1 0x40 MLOAD PUSH1 0x20 DUP2 DUP4 SUB SUB DUP2 MSTORE SWAP1 PUSH1 0x40 MSTORE DUP1 MLOAD SWAP1 PUSH1 0x20 ADD KECCAK256 EQ JUMPDEST ISZERO PUSH2 0x882 JUMPI PUSH1 0x1 SWAP1 POP PUSH2 0x886 JUMP JUMPDEST PUSH0 SWAP1 POP JUMPDEST SWAP2 SWAP1 POP JUMP JUMPDEST PUSH1 0x2 PUSH1 0x40 MLOAD DUP1 PUSH1 0x60 ADD PUSH1 0x40 MSTORE DUP1 PUSH1 0x40 MLOAD DUP1 PUSH1 0x40 ADD PUSH1 0x40 MSTORE DUP1 PUSH1 0x5 DUP2 MSTORE PUSH1 0x20 ADD PUSH32 0x416C696365000000000000000000000000000000000000000000000000000000 DUP2 MSTORE POP DUP2 MSTORE PUSH1 0x20 ADD PUSH1 0x1 DUP2 MSTORE PUSH1 0x20 ADD PUSH1 0x50 DUP2 MSTORE POP SWAP1 DUP1 PUSH1 0x1 DUP2 SLOAD ADD DUP1 DUP3 SSTORE DUP1 SWAP2 POP POP PUSH1 0x1 SWAP1 SUB SWAP1 PUSH0 MSTORE PUSH1 0x20 PUSH0 KECCAK256 SWAP1 PUSH1 0x3 MUL ADD PUSH0 SWAP1 SWAP2 SWAP1 SWAP2 SWAP1 SWAP2 POP PUSH0 DUP3 ADD MLOAD DUP2 PUSH0 ADD SWAP1 DUP2 PUSH2 0x918 SWAP2 SWAP1 PUSH2 0x166D JUMP JUMPDEST POP PUSH1 0x20 DUP3 ADD MLOAD DUP2 PUSH1 0x1 ADD SSTORE PUSH1 0x40 DUP3 ADD MLOAD DUP2 PUSH1 0x2 ADD SSTORE POP POP PUSH1 0x2 PUSH1 0x40 MLOAD DUP1 PUSH1 0x60 ADD PUSH1 0x40 MSTORE DUP1 PUSH1 0x40 MLOAD DUP1 PUSH1 0x40 ADD PUSH1 0x40 MSTORE DUP1 PUSH1 0x3 DUP2 MSTORE PUSH1 0x20 ADD PUSH32 0x426F620000000000000000000000000000000000000000000000000000000000 DUP2 MSTORE POP DUP2 MSTORE PUSH1 0x20 ADD PUSH1 0x2 DUP2 MSTORE PUSH1 0x20 ADD PUSH1 0x46 DUP2 MSTORE POP SWAP1 DUP1 PUSH1 0x1 DUP2 SLOAD ADD DUP1 DUP3 SSTORE DUP1 SWAP2 POP POP PUSH1 0x1 SWAP1 SUB SWAP1 PUSH0 MSTORE PUSH1 0x20 PUSH0 KECCAK256 SWAP1 PUSH1 0x3 MUL ADD PUSH0 SWAP1 SWAP2 SWAP1 SWAP2 SWAP1 SWAP2 POP PUSH0 DUP3 ADD MLOAD DUP2 PUSH0 ADD SWAP1 DUP2 PUSH2 0x9BC SWAP2 SWAP1 PUSH2 0x166D JUMP JUMPDEST POP PUSH1 0x20 DUP3 ADD MLOAD DUP2 PUSH1 0x1 ADD SSTORE PUSH1 0x40 DUP3 ADD MLOAD DUP2 PUSH1 0x2 ADD SSTORE POP POP PUSH1 0x2 PUSH1 0x40 MLOAD DUP1 PUSH1 0x60 ADD PUSH1 0x40 MSTORE DUP1 PUSH1 0x40 MLOAD DUP1 PUSH1 0x40 ADD PUSH1 0x40 MSTORE DUP1 PUSH1 0x7 DUP2 MSTORE PUSH1 0x20 ADD PUSH32 0x436861726C696500000000000000000000000000000000000000000000000000 DUP2 MSTORE POP DUP2 MSTORE PUSH1 0x20 ADD PUSH1 0x3 DUP2 MSTORE PUSH1 0x20 ADD PUSH1 0x32 DUP2 MSTORE POP SWAP1 DUP1 PUSH1 0x1 DUP2 SLOAD ADD DUP1 DUP3 SSTORE DUP1 SWAP2 POP POP PUSH1 0x1 SWAP1 SUB SWAP1 PUSH0 MSTORE PUSH1 0x20 PUSH0 KECCAK256 SWAP1 PUSH1 0x3 MUL ADD PUSH0 SWAP1 SWAP2 SWAP1 SWAP2 SWAP1 SWAP2 POP PUSH0 DUP3 ADD MLOAD DUP2 PUSH0 ADD SWAP1 DUP2 PUSH2 0xA60 SWAP2 SWAP1 PUSH2 0x166D JUMP JUMPDEST POP PUSH1 0x20 DUP3 ADD MLOAD DUP2 PUSH1 0x1 ADD SSTORE PUSH1 0x40 DUP3 ADD MLOAD DUP2 PUSH1 0x2 ADD SSTORE POP POP JUMP JUMPDEST PUSH1 0x60 DUP1 PUSH0 DUP1 PUSH0 SWAP1 POP JUMPDEST PUSH1 0x4 DUP1 SLOAD SWAP1 POP DUP2 LT ISZERO PUSH2 0xADA JUMPI PUSH0 PUSH1 0x2 PUSH1 0x4 DUP4 DUP2 SLOAD DUP2 LT PUSH2 0xAA6 JUMPI PUSH2 0xAA5 PUSH2 0x1389 JUMP JUMPDEST JUMPDEST SWAP1 PUSH0 MSTORE PUSH1 0x20 PUSH0 KECCAK256 ADD SLOAD PUSH2 0xAB9 SWAP2 SWAP1 PUSH2 0x173C JUMP JUMPDEST SUB PUSH2 0xACD JUMPI DUP2 DUP1 PUSH2 0xAC9 SWAP1 PUSH2 0x184C JUMP JUMPDEST SWAP3 POP POP JUMPDEST DUP1 DUP1 PUSH1 0x1 ADD SWAP2 POP POP PUSH2 0xA82 JUMP JUMPDEST POP DUP1 PUSH8 0xFFFFFFFFFFFFFFFF DUP2 GT ISZERO PUSH2 0xAF5 JUMPI PUSH2 0xAF4 PUSH2 0xD7B JUMP JUMPDEST JUMPDEST PUSH1 0x40 MLOAD SWAP1 DUP1 DUP3 MSTORE DUP1 PUSH1 0x20 MUL PUSH1 0x20 ADD DUP3 ADD PUSH1 0x40 MSTORE DUP1 ISZERO PUSH2 0xB23 JUMPI DUP2 PUSH1 0x20 ADD PUSH1 0x20 DUP3 MUL DUP1 CALLDATASIZE DUP4 CALLDATACOPY DUP1 DUP3 ADD SWAP2 POP POP SWAP1 POP JUMPDEST POP SWAP2 POP PUSH0 SWAP1 POP PUSH0 JUMPDEST PUSH1 0x4 DUP1 SLOAD SWAP1 POP DUP2 LT ISZERO PUSH2 0xBBF JUMPI PUSH0 PUSH1 0x2 PUSH1 0x4 DUP4 DUP2 SLOAD DUP2 LT PUSH2 0xB4F JUMPI PUSH2 0xB4E PUSH2 0x1389 JUMP JUMPDEST JUMPDEST SWAP1 PUSH0 MSTORE PUSH1 0x20 PUSH0 KECCAK256 ADD SLOAD PUSH2 0xB62 SWAP2 SWAP1 PUSH2 0x173C JUMP JUMPDEST SUB PUSH2 0xBB2 JUMPI PUSH1 0x4 DUP2 DUP2 SLOAD DUP2 LT PUSH2 0xB7B JUMPI PUSH2 0xB7A PUSH2 0x1389 JUMP JUMPDEST JUMPDEST SWAP1 PUSH0 MSTORE PUSH1 0x20 PUSH0 KECCAK256 ADD SLOAD DUP4 DUP4 DUP2 MLOAD DUP2 LT PUSH2 0xB97 JUMPI PUSH2 0xB96 PUSH2 0x1389 JUMP JUMPDEST JUMPDEST PUSH1 0x20 MUL PUSH1 0x20 ADD ADD DUP2 DUP2 MSTORE POP POP DUP2 DUP1 PUSH2 0xBAE SWAP1 PUSH2 0x184C JUMP JUMPDEST SWAP3 POP POP JUMPDEST DUP1 DUP1 PUSH1 0x1 ADD SWAP2 POP POP PUSH2 0xB2B JUMP JUMPDEST POP DUP2 SWAP3 POP POP POP SWAP1 JUMP JUMPDEST PUSH1 0x60 PUSH0 PUSH1 0x2 PUSH1 0x3 DUP1 SLOAD SWAP1 POP PUSH2 0xBDD SWAP2 SWAP1 PUSH2 0x14A0 JUMP JUMPDEST PUSH8 0xFFFFFFFFFFFFFFFF DUP2 GT ISZERO PUSH2 0xBF6 JUMPI PUSH2 0xBF5 PUSH2 0xD7B JUMP JUMPDEST JUMPDEST PUSH1 0x40 MLOAD SWAP1 DUP1 DUP3 MSTORE DUP1 PUSH1 0x20 MUL PUSH1 0x20 ADD DUP3 ADD PUSH1 0x40 MSTORE DUP1 ISZERO PUSH2 0xC24 JUMPI DUP2 PUSH1 0x20 ADD PUSH1 0x20 DUP3 MUL DUP1 CALLDATASIZE DUP4 CALLDATACOPY DUP1 DUP3 ADD SWAP2 POP POP SWAP1 POP JUMPDEST POP SWAP1 POP PUSH0 DUP1 PUSH0 SWAP1 POP JUMPDEST PUSH1 0x3 DUP1 SLOAD SWAP1 POP DUP2 LT ISZERO PUSH2 0xC98 JUMPI PUSH1 0x3 DUP2 DUP2 SLOAD DUP2 LT PUSH2 0xC4E JUMPI PUSH2 0xC4D PUSH2 0x1389 JUMP JUMPDEST JUMPDEST SWAP1 PUSH0 MSTORE PUSH1 0x20 PUSH0 KECCAK256 ADD SLOAD DUP4 DUP4 DUP2 MLOAD DUP2 LT PUSH2 0xC6A JUMPI PUSH2 0xC69 PUSH2 0x1389 JUMP JUMPDEST JUMPDEST PUSH1 0x20 MUL PUSH1 0x20 ADD ADD DUP2 DUP2 MSTORE POP POP DUP2 DUP1 PUSH2 0xC81 SWAP1 PUSH2 0x184C JUMP JUMPDEST SWAP3 POP POP PUSH1 0x2 DUP2 PUSH2 0xC91 SWAP2 SWAP1 PUSH2 0x1440 JUMP JUMPDEST SWAP1 POP PUSH2 0xC2D JUMP JUMPDEST POP DUP2 SWAP3 POP POP POP SWAP1 JUMP JUMPDEST PUSH1 0x40 MLOAD DUP1 PUSH1 0x60 ADD PUSH1 0x40 MSTORE DUP1 PUSH1 0x60 DUP2 MSTORE PUSH1 0x20 ADD PUSH0 DUP2 MSTORE PUSH1 0x20 ADD PUSH0 DUP2 MSTORE POP SWAP1 JUMP JUMPDEST PUSH1 0x40 MLOAD DUP1 PUSH1 0x60 ADD PUSH1 0x40 MSTORE DUP1 PUSH0 DUP2 MSTORE PUSH1 0x20 ADD PUSH0 PUSH20 0xFFFFFFFFFFFFFFFFFFFFFFFFFFFFFFFFFFFFFFFF AND DUP2 MSTORE PUSH1 0x20 ADD PUSH0 DUP2 MSTORE POP SWAP1 JUMP JUMPDEST PUSH0 PUSH1 0x40 MLOAD SWAP1 POP SWAP1 JUMP JUMPDEST PUSH0 DUP1 REVERT JUMPDEST PUSH0 DUP1 REVERT JUMPDEST PUSH0 DUP2 SWAP1 POP SWAP2 SWAP1 POP JUMP JUMPDEST PUSH2 0xD17 DUP2 PUSH2 0xD05 JUMP JUMPDEST DUP2 EQ PUSH2 0xD21 JUMPI PUSH0 DUP1 REVERT JUMPDEST POP JUMP JUMPDEST PUSH0 DUP2 CALLDATALOAD SWAP1 POP PUSH2 0xD32 DUP2 PUSH2 0xD0E JUMP JUMPDEST SWAP3 SWAP2 POP POP JUMP JUMPDEST PUSH0 PUSH1 0x20 DUP3 DUP5 SUB SLT ISZERO PUSH2 0xD4D JUMPI PUSH2 0xD4C PUSH2 0xCFD JUMP JUMPDEST JUMPDEST PUSH0 PUSH2 0xD5A DUP5 DUP3 DUP6 ADD PUSH2 0xD24 JUMP JUMPDEST SWAP2 POP POP SWAP3 SWAP2 POP POP JUMP JUMPDEST PUSH0 DUP1 REVERT JUMPDEST PUSH0 DUP1 REVERT JUMPDEST PUSH0 PUSH1 0x1F NOT PUSH1 0x1F DUP4 ADD AND SWAP1 POP SWAP2 SWAP1 POP JUMP JUMPDEST PUSH32 0x4E487B7100000000000000000000000000000000000000000000000000000000 PUSH0 MSTORE PUSH1 0x41 PUSH1 0x4 MSTORE PUSH1 0x24 PUSH0 REVERT JUMPDEST PUSH2 0xDB1 DUP3 PUSH2 0xD6B JUMP JUMPDEST DUP2 ADD DUP2 DUP2 LT PUSH8 0xFFFFFFFFFFFFFFFF DUP3 GT OR ISZERO PUSH2 0xDD0 JUMPI PUSH2 0xDCF PUSH2 0xD7B JUMP JUMPDEST JUMPDEST DUP1 PUSH1 0x40 MSTORE POP POP POP JUMP JUMPDEST PUSH0 PUSH2 0xDE2 PUSH2 0xCF4 JUMP JUMPDEST SWAP1 POP PUSH2 0xDEE DUP3 DUP3 PUSH2 0xDA8 JUMP JUMPDEST SWAP2 SWAP1 POP JUMP JUMPDEST PUSH0 PUSH8 0xFFFFFFFFFFFFFFFF DUP3 GT ISZERO PUSH2 0xE0D JUMPI PUSH2 0xE0C PUSH2 0xD7B JUMP JUMPDEST JUMPDEST PUSH2 0xE16 DUP3 PUSH2 0xD6B JUMP JUMPDEST SWAP1 POP PUSH1 0x20 DUP2 ADD SWAP1 POP SWAP2 SWAP1 POP JUMP JUMPDEST DUP3 DUP2 DUP4 CALLDATACOPY PUSH0 DUP4 DUP4 ADD MSTORE POP POP POP JUMP JUMPDEST PUSH0 PUSH2 0xE43 PUSH2 0xE3E DUP5 PUSH2 0xDF3 JUMP JUMPDEST PUSH2 0xDD9 JUMP JUMPDEST SWAP1 POP DUP3 DUP2 MSTORE PUSH1 0x20 DUP2 ADD DUP5 DUP5 DUP5 ADD GT ISZERO PUSH2 0xE5F JUMPI PUSH2 0xE5E PUSH2 0xD67 JUMP JUMPDEST JUMPDEST PUSH2 0xE6A DUP5 DUP3 DUP6 PUSH2 0xE23 JUMP JUMPDEST POP SWAP4 SWAP3 POP POP POP JUMP JUMPDEST PUSH0 DUP3 PUSH1 0x1F DUP4 ADD SLT PUSH2 0xE86 JUMPI PUSH2 0xE85 PUSH2 0xD63 JUMP JUMPDEST JUMPDEST DUP2 CALLDATALOAD PUSH2 0xE96 DUP5 DUP3 PUSH1 0x20 DUP7 ADD PUSH2 0xE31 JUMP JUMPDEST SWAP2 POP POP SWAP3 SWAP2 POP POP JUMP JUMPDEST PUSH0 PUSH20 0xFFFFFFFFFFFFFFFFFFFFFFFFFFFFFFFFFFFFFFFF DUP3 AND SWAP1 POP SWAP2 SWAP1 POP JUMP JUMPDEST PUSH0 PUSH2 0xEC8 DUP3 PUSH2 0xE9F JUMP JUMPDEST SWAP1 POP SWAP2 SWAP1 POP JUMP JUMPDEST PUSH2 0xED8 DUP2 PUSH2 0xEBE JUMP JUMPDEST DUP2 EQ PUSH2 0xEE2 JUMPI PUSH0 DUP1 REVERT JUMPDEST POP JUMP JUMPDEST PUSH0 DUP2 CALLDATALOAD SWAP1 POP PUSH2 0xEF3 DUP2 PUSH2 0xECF JUMP JUMPDEST SWAP3 SWAP2 POP POP JUMP JUMPDEST PUSH0 DUP1 PUSH0 DUP1 PUSH1 0x80 DUP6 DUP8 SUB SLT ISZERO PUSH2 0xF11 JUMPI PUSH2 0xF10 PUSH2 0xCFD JUMP JUMPDEST JUMPDEST PUSH0 DUP6 ADD CALLDATALOAD PUSH8 0xFFFFFFFFFFFFFFFF DUP2 GT ISZERO PUSH2 0xF2E JUMPI PUSH2 0xF2D PUSH2 0xD01 JUMP JUMPDEST JUMPDEST PUSH2 0xF3A DUP8 DUP3 DUP9 ADD PUSH2 0xE72 JUMP JUMPDEST SWAP5 POP POP PUSH1 0x20 PUSH2 0xF4B DUP8 DUP3 DUP9 ADD PUSH2 0xD24 JUMP JUMPDEST SWAP4 POP POP PUSH1 0x40 PUSH2 0xF5C DUP8 DUP3 DUP9 ADD PUSH2 0xEE5 JUMP JUMPDEST SWAP3 POP POP PUSH1 0x60 PUSH2 0xF6D DUP8 DUP3 DUP9 ADD PUSH2 0xD24 JUMP JUMPDEST SWAP2 POP POP SWAP3 SWAP6 SWAP2 SWAP5 POP SWAP3 POP JUMP JUMPDEST PUSH32 0x4E487B7100000000000000000000000000000000000000000000000000000000 PUSH0 MSTORE PUSH1 0x21 PUSH1 0x4 MSTORE PUSH1 0x24 PUSH0 REVERT JUMPDEST PUSH1 0x3 DUP2 LT PUSH2 0xFB7 JUMPI PUSH2 0xFB6 PUSH2 0xF79 JUMP JUMPDEST JUMPDEST POP JUMP JUMPDEST PUSH0 DUP2 SWAP1 POP PUSH2 0xFC7 DUP3 PUSH2 0xFA6 JUMP JUMPDEST SWAP2 SWAP1 POP JUMP JUMPDEST PUSH0 PUSH2 0xFD6 DUP3 PUSH2 0xFBA JUMP JUMPDEST SWAP1 POP SWAP2 SWAP1 POP JUMP JUMPDEST PUSH2 0xFE6 DUP2 PUSH2 0xFCC JUMP JUMPDEST DUP3 MSTORE POP POP JUMP JUMPDEST PUSH0 PUSH1 0x20 DUP3 ADD SWAP1 POP PUSH2 0xFFF PUSH0 DUP4 ADD DUP5 PUSH2 0xFDD JUMP JUMPDEST SWAP3 SWAP2 POP POP JUMP JUMPDEST PUSH0 DUP2 MLOAD SWAP1 POP SWAP2 SWAP1 POP JUMP JUMPDEST PUSH0 DUP3 DUP3 MSTORE PUSH1 0x20 DUP3 ADD SWAP1 POP SWAP3 SWAP2 POP POP JUMP JUMPDEST PUSH0 JUMPDEST DUP4 DUP2 LT ISZERO PUSH2 0x103C JUMPI DUP1 DUP3 ADD MLOAD DUP2 DUP5 ADD MSTORE PUSH1 0x20 DUP2 ADD SWAP1 POP PUSH2 0x1021 JUMP JUMPDEST PUSH0 DUP5 DUP5 ADD MSTORE POP POP POP POP JUMP JUMPDEST PUSH0 PUSH2 0x1051 DUP3 PUSH2 0x1005 JUMP JUMPDEST PUSH2 0x105B DUP2 DUP6 PUSH2 0x100F JUMP JUMPDEST SWAP4 POP PUSH2 0x106B DUP2 DUP6 PUSH1 0x20 DUP7 ADD PUSH2 0x101F JUMP JUMPDEST PUSH2 0x1074 DUP2 PUSH2 0xD6B JUMP JUMPDEST DUP5 ADD SWAP2 POP POP SWAP3 SWAP2 POP POP JUMP JUMPDEST PUSH2 0x1088 DUP2 PUSH2 0xD05 JUMP JUMPDEST DUP3 MSTORE POP POP JUMP JUMPDEST PUSH0 PUSH1 0x60 DUP4 ADD PUSH0 DUP4 ADD MLOAD DUP5 DUP3 SUB PUSH0 DUP7 ADD MSTORE PUSH2 0x10A8 DUP3 DUP3 PUSH2 0x1047 JUMP JUMPDEST SWAP2 POP POP PUSH1 0x20 DUP4 ADD MLOAD PUSH2 0x10BD PUSH1 0x20 DUP7 ADD DUP3 PUSH2 0x107F JUMP JUMPDEST POP PUSH1 0x40 DUP4 ADD MLOAD PUSH2 0x10D0 PUSH1 0x40 DUP7 ADD DUP3 PUSH2 0x107F JUMP JUMPDEST POP DUP1 SWAP2 POP POP SWAP3 SWAP2 POP POP JUMP JUMPDEST PUSH0 PUSH1 0x20 DUP3 ADD SWAP1 POP DUP2 DUP2 SUB PUSH0 DUP4 ADD MSTORE PUSH2 0x10F3 DUP2 DUP5 PUSH2 0x108E JUMP JUMPDEST SWAP1 POP SWAP3 SWAP2 POP POP JUMP JUMPDEST PUSH2 0x1104 DUP2 PUSH2 0xD05 JUMP JUMPDEST DUP3 MSTORE POP POP JUMP JUMPDEST PUSH0 PUSH1 0x20 DUP3 ADD SWAP1 POP PUSH2 0x111D PUSH0 DUP4 ADD DUP5 PUSH2 0x10FB JUMP JUMPDEST SWAP3 SWAP2 POP POP JUMP JUMPDEST PUSH0 PUSH1 0x20 DUP3 DUP5 SUB SLT ISZERO PUSH2 0x1138 JUMPI PUSH2 0x1137 PUSH2 0xCFD JUMP JUMPDEST JUMPDEST PUSH0 DUP3 ADD CALLDATALOAD PUSH8 0xFFFFFFFFFFFFFFFF DUP2 GT ISZERO PUSH2 0x1155 JUMPI PUSH2 0x1154 PUSH2 0xD01 JUMP JUMPDEST JUMPDEST PUSH2 0x1161 DUP5 DUP3 DUP6 ADD PUSH2 0xE72 JUMP JUMPDEST SWAP2 POP POP SWAP3 SWAP2 POP POP JUMP JUMPDEST PUSH2 0x1173 DUP2 PUSH2 0xEBE JUMP JUMPDEST DUP3 MSTORE POP POP JUMP JUMPDEST PUSH1 0x60 DUP3 ADD PUSH0 DUP3 ADD MLOAD PUSH2 0x118D PUSH0 DUP6 ADD DUP3 PUSH2 0x107F JUMP JUMPDEST POP PUSH1 0x20 DUP3 ADD MLOAD PUSH2 0x11A0 PUSH1 0x20 DUP6 ADD DUP3 PUSH2 0x116A JUMP JUMPDEST POP PUSH1 0x40 DUP3 ADD MLOAD PUSH2 0x11B3 PUSH1 0x40 DUP6 ADD DUP3 PUSH2 0x107F JUMP JUMPDEST POP POP POP POP JUMP JUMPDEST PUSH0 PUSH1 0x60 DUP3 ADD SWAP1 POP PUSH2 0x11CC PUSH0 DUP4 ADD DUP5 PUSH2 0x1179 JUMP JUMPDEST SWAP3 SWAP2 POP POP JUMP JUMPDEST PUSH0 DUP1 PUSH0 PUSH1 0x60 DUP5 DUP7 SUB SLT ISZERO PUSH2 0x11E9 JUMPI PUSH2 0x11E8 PUSH2 0xCFD JUMP JUMPDEST JUMPDEST PUSH0 DUP5 ADD CALLDATALOAD PUSH8 0xFFFFFFFFFFFFFFFF DUP2 GT ISZERO PUSH2 0x1206 JUMPI PUSH2 0x1205 PUSH2 0xD01 JUMP JUMPDEST JUMPDEST PUSH2 0x1212 DUP7 DUP3 DUP8 ADD PUSH2 0xE72 JUMP JUMPDEST SWAP4 POP POP PUSH1 0x20 PUSH2 0x1223 DUP7 DUP3 DUP8 ADD PUSH2 0xD24 JUMP JUMPDEST SWAP3 POP POP PUSH1 0x40 PUSH2 0x1234 DUP7 DUP3 DUP8 ADD PUSH2 0xD24 JUMP JUMPDEST SWAP2 POP POP SWAP3 POP SWAP3 POP SWAP3 JUMP JUMPDEST PUSH0 DUP2 ISZERO ISZERO SWAP1 POP SWAP2 SWAP1 POP JUMP JUMPDEST PUSH2 0x1252 DUP2 PUSH2 0x123E JUMP JUMPDEST DUP3 MSTORE POP POP JUMP JUMPDEST PUSH0 PUSH1 0x20 DUP3 ADD SWAP1 POP PUSH2 0x126B PUSH0 DUP4 ADD DUP5 PUSH2 0x1249 JUMP JUMPDEST SWAP3 SWAP2 POP POP JUMP JUMPDEST PUSH0 DUP2 MLOAD SWAP1 POP SWAP2 SWAP1 POP JUMP JUMPDEST PUSH0 DUP3 DUP3 MSTORE PUSH1 0x20 DUP3 ADD SWAP1 POP SWAP3 SWAP2 POP POP JUMP JUMPDEST PUSH0 DUP2 SWAP1 POP PUSH1 0x20 DUP3 ADD SWAP1 POP SWAP2 SWAP1 POP JUMP JUMPDEST PUSH0 PUSH2 0x12A5 DUP4 DUP4 PUSH2 0x107F JUMP JUMPDEST PUSH1 0x20 DUP4 ADD SWAP1 POP SWAP3 SWAP2 POP POP JUMP JUMPDEST PUSH0 PUSH1 0x20 DUP3 ADD SWAP1 POP SWAP2 SWAP1 POP JUMP JUMPDEST PUSH0 PUSH2 0x12C7 DUP3 PUSH2 0x1271 JUMP JUMPDEST PUSH2 0x12D1 DUP2 DUP6 PUSH2 0x127B JUMP JUMPDEST SWAP4 POP PUSH2 0x12DC DUP4 PUSH2 0x128B JUMP JUMPDEST DUP1 PUSH0 JUMPDEST DUP4 DUP2 LT ISZERO PUSH2 0x130C JUMPI DUP2 MLOAD PUSH2 0x12F3 DUP9 DUP3 PUSH2 0x129A JUMP JUMPDEST SWAP8 POP PUSH2 0x12FE DUP4 PUSH2 0x12B1 JUMP JUMPDEST SWAP3 POP POP PUSH1 0x1 DUP2 ADD SWAP1 POP PUSH2 0x12DF JUMP JUMPDEST POP DUP6 SWAP4 POP POP POP POP SWAP3 SWAP2 POP POP JUMP JUMPDEST PUSH0 PUSH1 0x20 DUP3 ADD SWAP1 POP DUP2 DUP2 SUB PUSH0 DUP4 ADD MSTORE PUSH2 0x1331 DUP2 DUP5 PUSH2 0x12BD JUMP JUMPDEST SWAP1 POP SWAP3 SWAP2 POP POP JUMP JUMPDEST PUSH0 DUP2 SWAP1 POP SWAP3 SWAP2 POP POP JUMP JUMPDEST PUSH0 PUSH2 0x134D DUP3 PUSH2 0x1005 JUMP JUMPDEST PUSH2 0x1357 DUP2 DUP6 PUSH2 0x1339 JUMP JUMPDEST SWAP4 POP PUSH2 0x1367 DUP2 DUP6 PUSH1 0x20 DUP7 ADD PUSH2 0x101F JUMP JUMPDEST DUP1 DUP5 ADD SWAP2 POP POP SWAP3 SWAP2 POP POP JUMP JUMPDEST PUSH0 PUSH2 0x137E DUP3 DUP5 PUSH2 0x1343 JUMP JUMPDEST SWAP2 POP DUP2 SWAP1 POP SWAP3 SWAP2 POP POP JUMP JUMPDEST PUSH32 0x4E487B7100000000000000000000000000000000000000000000000000000000 PUSH0 MSTORE PUSH1 0x32 PUSH1 0x4 MSTORE PUSH1 0x24 PUSH0 REVERT JUMPDEST PUSH32 0x4E487B7100000000000000000000000000000000000000000000000000000000 PUSH0 MSTORE PUSH1 0x22 PUSH1 0x4 MSTORE PUSH1 0x24 PUSH0 REVERT JUMPDEST PUSH0 PUSH1 0x2 DUP3 DIV SWAP1 POP PUSH1 0x1 DUP3 AND DUP1 PUSH2 0x13FA JUMPI PUSH1 0x7F DUP3 AND SWAP2 POP JUMPDEST PUSH1 0x20 DUP3 LT DUP2 SUB PUSH2 0x140D JUMPI PUSH2 0x140C PUSH2 0x13B6 JUMP JUMPDEST JUMPDEST POP SWAP2 SWAP1 POP JUMP JUMPDEST PUSH32 0x4E487B7100000000000000000000000000000000000000000000000000000000 PUSH0 MSTORE PUSH1 0x11 PUSH1 0x4 MSTORE PUSH1 0x24 PUSH0 REVERT JUMPDEST PUSH0 PUSH2 0x144A DUP3 PUSH2 0xD05 JUMP JUMPDEST SWAP2 POP PUSH2 0x1455 DUP4 PUSH2 0xD05 JUMP JUMPDEST SWAP3 POP DUP3 DUP3 ADD SWAP1 POP DUP1 DUP3 GT ISZERO PUSH2 0x146D JUMPI PUSH2 0x146C PUSH2 0x1413 JUMP JUMPDEST JUMPDEST SWAP3 SWAP2 POP POP JUMP JUMPDEST PUSH32 0x4E487B7100000000000000000000000000000000000000000000000000000000 PUSH0 MSTORE PUSH1 0x12 PUSH1 0x4 MSTORE PUSH1 0x24 PUSH0 REVERT JUMPDEST PUSH0 PUSH2 0x14AA DUP3 PUSH2 0xD05 JUMP JUMPDEST SWAP2 POP PUSH2 0x14B5 DUP4 PUSH2 0xD05 JUMP JUMPDEST SWAP3 POP DUP3 PUSH2 0x14C5 JUMPI PUSH2 0x14C4 PUSH2 0x1473 JUMP JUMPDEST JUMPDEST DUP3 DUP3 DIV SWAP1 POP SWAP3 SWAP2 POP POP JUMP JUMPDEST PUSH0 DUP2 SWAP1 POP DUP2 PUSH0 MSTORE PUSH1 0x20 PUSH0 KECCAK256 SWAP1 POP SWAP2 SWAP1 POP JUMP JUMPDEST PUSH0 PUSH1 0x20 PUSH1 0x1F DUP4 ADD DIV SWAP1 POP SWAP2 SWAP1 POP JUMP JUMPDEST PUSH0 DUP3 DUP3 SHL SWAP1 POP SWAP3 SWAP2 POP POP JUMP JUMPDEST PUSH0 PUSH1 0x8 DUP4 MUL PUSH2 0x152C PUSH32 0xFFFFFFFFFFFFFFFFFFFFFFFFFFFFFFFFFFFFFFFFFFFFFFFFFFFFFFFFFFFFFFFF DUP3 PUSH2 0x14F1 JUMP JUMPDEST PUSH2 0x1536 DUP7 DUP4 PUSH2 0x14F1 JUMP JUMPDEST SWAP6 POP DUP1 NOT DUP5 AND SWAP4 POP DUP1 DUP7 AND DUP5 OR SWAP3 POP POP POP SWAP4 SWAP3 POP POP POP JUMP JUMPDEST PUSH0 DUP2 SWAP1 POP SWAP2 SWAP1 POP JUMP JUMPDEST PUSH0 PUSH2 0x1571 PUSH2 0x156C PUSH2 0x1567 DUP5 PUSH2 0xD05 JUMP JUMPDEST PUSH2 0x154E JUMP JUMPDEST PUSH2 0xD05 JUMP JUMPDEST SWAP1 POP SWAP2 SWAP1 POP JUMP JUMPDEST PUSH0 DUP2 SWAP1 POP SWAP2 SWAP1 POP JUMP JUMPDEST PUSH2 0x158A DUP4 PUSH2 0x1557 JUMP JUMPDEST PUSH2 0x159E PUSH2 0x1596 DUP3 PUSH2 0x1578 JUMP JUMPDEST DUP5 DUP5 SLOAD PUSH2 0x14FD JUMP JUMPDEST DUP3 SSTORE POP POP POP POP JUMP JUMPDEST PUSH0 SWAP1 JUMP JUMPDEST PUSH2 0x15B2 PUSH2 0x15A6 JUMP JUMPDEST PUSH2 0x15BD DUP2 DUP5 DUP5 PUSH2 0x1581 JUMP JUMPDEST POP POP POP JUMP JUMPDEST JUMPDEST DUP2 DUP2 LT ISZERO PUSH2 0x15E0 JUMPI PUSH2 0x15D5 PUSH0 DUP3 PUSH2 0x15AA JUMP JUMPDEST PUSH1 0x1 DUP2 ADD SWAP1 POP PUSH2 0x15C3 JUMP JUMPDEST POP POP JUMP JUMPDEST PUSH1 0x1F DUP3 GT ISZERO PUSH2 0x1625 JUMPI PUSH2 0x15F6 DUP2 PUSH2 0x14D0 JUMP JUMPDEST PUSH2 0x15FF DUP5 PUSH2 0x14E2 JUMP JUMPDEST DUP2 ADD PUSH1 0x20 DUP6 LT ISZERO PUSH2 0x160E JUMPI DUP2 SWAP1 POP JUMPDEST PUSH2 0x1622 PUSH2 0x161A DUP6 PUSH2 0x14E2 JUMP JUMPDEST DUP4 ADD DUP3 PUSH2 0x15C2 JUMP JUMPDEST POP POP JUMPDEST POP POP POP JUMP JUMPDEST PUSH0 DUP3 DUP3 SHR SWAP1 POP SWAP3 SWAP2 POP POP JUMP JUMPDEST PUSH0 PUSH2 0x1645 PUSH0 NOT DUP5 PUSH1 0x8 MUL PUSH2 0x162A JUMP JUMPDEST NOT DUP1 DUP4 AND SWAP2 POP POP SWAP3 SWAP2 POP POP JUMP JUMPDEST PUSH0 PUSH2 0x165D DUP4 DUP4 PUSH2 0x1636 JUMP JUMPDEST SWAP2 POP DUP3 PUSH1 0x2 MUL DUP3 OR SWAP1 POP SWAP3 SWAP2 POP POP JUMP JUMPDEST PUSH2 0x1676 DUP3 PUSH2 0x1005 JUMP JUMPDEST PUSH8 0xFFFFFFFFFFFFFFFF DUP2 GT ISZERO PUSH2 0x168F JUMPI PUSH2 0x168E PUSH2 0xD7B JUMP JUMPDEST JUMPDEST PUSH2 0x1699 DUP3 SLOAD PUSH2 0x13E3 JUMP JUMPDEST PUSH2 0x16A4 DUP3 DUP3 DUP6 PUSH2 0x15E4 JUMP JUMPDEST PUSH0 PUSH1 0x20 SWAP1 POP PUSH1 0x1F DUP4 GT PUSH1 0x1 DUP2 EQ PUSH2 0x16D5 JUMPI PUSH0 DUP5 ISZERO PUSH2 0x16C3 JUMPI DUP3 DUP8 ADD MLOAD SWAP1 POP JUMPDEST PUSH2 0x16CD DUP6 DUP3 PUSH2 0x1652 JUMP JUMPDEST DUP7 SSTORE POP PUSH2 0x1734 JUMP JUMPDEST PUSH1 0x1F NOT DUP5 AND PUSH2 0x16E3 DUP7 PUSH2 0x14D0 JUMP JUMPDEST PUSH0 JUMPDEST DUP3 DUP2 LT ISZERO PUSH2 0x170A JUMPI DUP5 DUP10 ADD MLOAD DUP3 SSTORE PUSH1 0x1 DUP3 ADD SWAP2 POP PUSH1 0x20 DUP6 ADD SWAP5 POP PUSH1 0x20 DUP2 ADD SWAP1 POP PUSH2 0x16E5 JUMP JUMPDEST DUP7 DUP4 LT ISZERO PUSH2 0x1727 JUMPI DUP5 DUP10 ADD MLOAD PUSH2 0x1723 PUSH1 0x1F DUP10 AND DUP3 PUSH2 0x1636 JUMP JUMPDEST DUP4 SSTORE POP JUMPDEST PUSH1 0x1 PUSH1 0x2 DUP9 MUL ADD DUP9 SSTORE POP POP POP JUMPDEST POP POP POP POP POP POP JUMP JUMPDEST PUSH0 PUSH2 0x1746 DUP3 PUSH2 0xD05 JUMP JUMPDEST SWAP2 POP PUSH2 0x1751 DUP4 PUSH2 0xD05 JUMP JUMPDEST SWAP3 POP DUP3 PUSH2 0x1761 JUMPI PUSH2 0x1760 PUSH2 0x1473 JUMP JUMPDEST JUMPDEST DUP3 DUP3 MOD SWAP1 POP SWAP3 SWAP2 POP POP JUMP JUMPDEST PUSH0 DUP3 DUP3 MSTORE PUSH1 0x20 DUP3 ADD SWAP1 POP SWAP3 SWAP2 POP POP JUMP JUMPDEST PUSH32 0x4E206973204E4F54206D756C7469706C65206F662032206F7220330000000000 PUSH0 DUP3 ADD MSTORE POP JUMP JUMPDEST PUSH0 PUSH2 0x17B0 PUSH1 0x1B DUP4 PUSH2 0x176C JUMP JUMPDEST SWAP2 POP PUSH2 0x17BB DUP3 PUSH2 0x177C JUMP JUMPDEST PUSH1 0x20 DUP3 ADD SWAP1 POP SWAP2 SWAP1 POP JUMP JUMPDEST PUSH0 PUSH1 0x20 DUP3 ADD SWAP1 POP DUP2 DUP2 SUB PUSH0 DUP4 ADD MSTORE PUSH2 0x17DD DUP2 PUSH2 0x17A4 JUMP JUMPDEST SWAP1 POP SWAP2 SWAP1 POP JUMP JUMPDEST PUSH32 0x4E206973206D756C7469706C65206F6620333000000000000000000000000000 PUSH0 DUP3 ADD MSTORE POP JUMP JUMPDEST PUSH0 PUSH2 0x1818 PUSH1 0x13 DUP4 PUSH2 0x176C JUMP JUMPDEST SWAP2 POP PUSH2 0x1823 DUP3 PUSH2 0x17E4 JUMP JUMPDEST PUSH1 0x20 DUP3 ADD SWAP1 POP SWAP2 SWAP1 POP JUMP JUMPDEST PUSH0 PUSH1 0x20 DUP3 ADD SWAP1 POP DUP2 DUP2 SUB PUSH0 DUP4 ADD MSTORE PUSH2 0x1845 DUP2 PUSH2 0x180C JUMP JUMPDEST SWAP1 POP SWAP2 SWAP1 POP JUMP JUMPDEST PUSH0 PUSH2 0x1856 DUP3 PUSH2 0xD05 JUMP JUMPDEST SWAP2 POP PUSH32 0xFFFFFFFFFFFFFFFFFFFFFFFFFFFFFFFFFFFFFFFFFFFFFFFFFFFFFFFFFFFFFFFF DUP3 SUB PUSH2 0x1888 JUMPI PUSH2 0x1887 PUSH2 0x1413 JUMP JUMPDEST JUMPDEST PUSH1 0x1 DUP3 ADD SWAP1 POP SWAP2 SWAP1 POP JUMP JUMPDEST PUSH32 0x416C696365000000000000000000000000000000000000000000000000000000 PUSH0 DUP3 ADD MSTORE POP JUMP JUMPDEST PUSH0 PUSH2 0x18C7 PUSH1 0x5 DUP4 PUSH2 0x1339 JUMP JUMPDEST SWAP2 POP PUSH2 0x18D2 DUP3 PUSH2 0x1893 JUMP JUMPDEST PUSH1 0x5 DUP3 ADD SWAP1 POP SWAP2 SWAP1 POP JUMP JUMPDEST PUSH0 PUSH2 0x18E7 DUP3 PUSH2 0x18BB JUMP JUMPDEST SWAP2 POP DUP2 SWAP1 POP SWAP2 SWAP1 POP JUMP JUMPDEST PUSH32 0x426F620000000000000000000000000000000000000000000000000000000000 PUSH0 DUP3 ADD MSTORE POP JUMP JUMPDEST PUSH0 PUSH2 0x1925 PUSH1 0x3 DUP4 PUSH2 0x1339 JUMP JUMPDEST SWAP2 POP PUSH2 0x1930 DUP3 PUSH2 0x18F1 JUMP JUMPDEST PUSH1 0x3 DUP3 ADD SWAP1 POP SWAP2 SWAP1 POP JUMP JUMPDEST PUSH0 PUSH2 0x1945 DUP3 PUSH2 0x1919 JUMP JUMPDEST SWAP2 POP DUP2 SWAP1 POP SWAP2 SWAP1 POP JUMP INVALID LOG2 PUSH5 0x6970667358 0x22 SLT KECCAK256 0xB8 PUSH10 0x31DB440431B8A762A4D EXTCODESIZE PREVRANDAO 0xC SWAP15 MLOAD 0x4D SHL 0xCF PUSH19 0xDE6497053334D888BB73AA64736F6C63430008 AND STOP CALLER "
				},
				"gasEstimates": {
					"creation": {
						"codeDepositCost": "1306600",
						"executionCost": "1361",
						"totalCost": "1307961"
					},
					"external": {
						"checkAliceOrBob(string)": "infinite",
						"checkLevel(uint256)": "27234",
						"getArrayFor5_EvenElements()": "infinite",
						"getAvgScore()": "infinite",
						"getClient(string)": "infinite",
						"getStudent(uint256)": "infinite",
						"initArrayFor5()": "infinite",
						"initStudent()": "infinite",
						"pushNumbers(uint256)": "46845",
						"putArrayFor2(uint256)": "infinite",
						"putEvenElements()": "infinite",
						"setArrayFor5(uint256)": "46844",
						"setClient(string,uint256,address,uint256)": "infinite",
						"setStudent(string,uint256,uint256)": "infinite"
					}
				},
				"methodIdentifiers": {
					"checkAliceOrBob(string)": "b7a2f871",
					"checkLevel(uint256)": "11200d70",
					"getArrayFor5_EvenElements()": "e8d113c1",
					"getAvgScore()": "740d5e10",
					"getClient(string)": "7eb78932",
					"getStudent(uint256)": "642f9163",
					"initArrayFor5()": "891fd3c2",
					"initStudent()": "dd49702c",
					"pushNumbers(uint256)": "0126931b",
					"putArrayFor2(uint256)": "8385cc16",
					"putEvenElements()": "f524aa92",
					"setArrayFor5(uint256)": "32842e70",
					"setClient(string,uint256,address,uint256)": "015752d9",
					"setStudent(string,uint256,uint256)": "82fae9b7"
				}
			},
			"storageLayout": {
				"storage": [
					{
						"astId": 46,
						"contract": "basic_31_36.sol:Basic_31_36",
						"label": "arrayFor2",
						"offset": 0,
						"slot": "0",
						"type": "t_array(t_uint256)dyn_storage"
					},
					{
						"astId": 94,
						"contract": "basic_31_36.sol:Basic_31_36",
						"label": "clientList",
						"offset": 0,
						"slot": "1",
						"type": "t_mapping(t_string_memory_ptr,t_struct(client)89_storage)"
					},
					{
						"astId": 140,
						"contract": "basic_31_36.sol:Basic_31_36",
						"label": "studentList",
						"offset": 0,
						"slot": "2",
						"type": "t_array(t_struct(student)136_storage)dyn_storage"
					},
					{
						"astId": 244,
						"contract": "basic_31_36.sol:Basic_31_36",
						"label": "numbers5",
						"offset": 0,
						"slot": "3",
						"type": "t_array(t_uint256)dyn_storage"
					},
					{
						"astId": 310,
						"contract": "basic_31_36.sol:Basic_31_36",
						"label": "arrayFor5",
						"offset": 0,
						"slot": "4",
						"type": "t_array(t_uint256)dyn_storage"
					},
					{
						"astId": 439,
						"contract": "basic_31_36.sol:Basic_31_36",
						"label": "numLevel",
						"offset": 0,
						"slot": "5",
						"type": "t_enum(Level)436"
					}
				],
				"types": {
					"t_address": {
						"encoding": "inplace",
						"label": "address",
						"numberOfBytes": "20"
					},
					"t_array(t_struct(student)136_storage)dyn_storage": {
						"base": "t_struct(student)136_storage",
						"encoding": "dynamic_array",
						"label": "struct Basic_31_36.student[]",
						"numberOfBytes": "32"
					},
					"t_array(t_uint256)dyn_storage": {
						"base": "t_uint256",
						"encoding": "dynamic_array",
						"label": "uint256[]",
						"numberOfBytes": "32"
					},
					"t_enum(Level)436": {
						"encoding": "inplace",
						"label": "enum Basic_31_36.Level",
						"numberOfBytes": "1"
					},
					"t_mapping(t_string_memory_ptr,t_struct(client)89_storage)": {
						"encoding": "mapping",
						"key": "t_string_memory_ptr",
						"label": "mapping(string => struct Basic_31_36.client)",
						"numberOfBytes": "32",
						"value": "t_struct(client)89_storage"
					},
					"t_string_memory_ptr": {
						"encoding": "bytes",
						"label": "string",
						"numberOfBytes": "32"
					},
					"t_string_storage": {
						"encoding": "bytes",
						"label": "string",
						"numberOfBytes": "32"
					},
					"t_struct(client)89_storage": {
						"encoding": "inplace",
						"label": "struct Basic_31_36.client",
						"members": [
							{
								"astId": 84,
								"contract": "basic_31_36.sol:Basic_31_36",
								"label": "number",
								"offset": 0,
								"slot": "0",
								"type": "t_uint256"
							},
							{
								"astId": 86,
								"contract": "basic_31_36.sol:Basic_31_36",
								"label": "wallet",
								"offset": 0,
								"slot": "1",
								"type": "t_address"
							},
							{
								"astId": 88,
								"contract": "basic_31_36.sol:Basic_31_36",
								"label": "birthday",
								"offset": 0,
								"slot": "2",
								"type": "t_uint256"
							}
						],
						"numberOfBytes": "96"
					},
					"t_struct(student)136_storage": {
						"encoding": "inplace",
						"label": "struct Basic_31_36.student",
						"members": [
							{
								"astId": 131,
								"contract": "basic_31_36.sol:Basic_31_36",
								"label": "name",
								"offset": 0,
								"slot": "0",
								"type": "t_string_storage"
							},
							{
								"astId": 133,
								"contract": "basic_31_36.sol:Basic_31_36",
								"label": "number",
								"offset": 0,
								"slot": "1",
								"type": "t_uint256"
							},
							{
								"astId": 135,
								"contract": "basic_31_36.sol:Basic_31_36",
								"label": "score",
								"offset": 0,
								"slot": "2",
								"type": "t_uint256"
							}
						],
						"numberOfBytes": "96"
					},
					"t_uint256": {
						"encoding": "inplace",
						"label": "uint256",
						"numberOfBytes": "32"
					}
				}
			},
			"userdoc": {
				"kind": "user",
				"methods": {},
				"version": 1
			}
		}
	}
}