{
	"Modifier2.sol": {
		"MODIFIER4": {
			"abi": [
				{
					"inputs": [],
					"name": "getA",
					"outputs": [
						{
							"internalType": "uint256",
							"name": "",
							"type": "uint256"
						}
					],
					"stateMutability": "view",
					"type": "function"
				},
				{
					"inputs": [
						{
							"internalType": "uint256",
							"name": "_n",
							"type": "uint256"
						}
					],
					"name": "setA",
					"outputs": [],
					"stateMutability": "nonpayable",
					"type": "function"
				},
				{
					"inputs": [],
					"name": "setA1",
					"outputs": [
						{
							"internalType": "bool",
							"name": "",
							"type": "bool"
						}
					],
					"stateMutability": "nonpayable",
					"type": "function"
				},
				{
					"inputs": [],
					"name": "setA2",
					"outputs": [
						{
							"internalType": "bool",
							"name": "",
							"type": "bool"
						}
					],
					"stateMutability": "nonpayable",
					"type": "function"
				}
			],
			"devdoc": {
				"kind": "dev",
				"methods": {},
				"version": 1
			},
			"evm": {
				"assembly": "    /* \"Modifier2.sol\":653:1301  contract MODIFIER4 {... */\n  mstore(0x40, 0x80)\n  callvalue\n  dup1\n  iszero\n  tag_1\n  jumpi\n  0x00\n  dup1\n  revert\ntag_1:\n  pop\n  dataSize(sub_0)\n  dup1\n  dataOffset(sub_0)\n  0x00\n  codecopy\n  0x00\n  return\nstop\n\nsub_0: assembly {\n        /* \"Modifier2.sol\":653:1301  contract MODIFIER4 {... */\n      mstore(0x40, 0x80)\n      callvalue\n      dup1\n      iszero\n      tag_1\n      jumpi\n      0x00\n      dup1\n      revert\n    tag_1:\n      pop\n      jumpi(tag_2, lt(calldatasize, 0x04))\n      shr(0xe0, calldataload(0x00))\n      dup1\n      0x498e6857\n      eq\n      tag_3\n      jumpi\n      dup1\n      0x6e7e996e\n      eq\n      tag_4\n      jumpi\n      dup1\n      0xd46300fd\n      eq\n      tag_5\n      jumpi\n      dup1\n      0xee919d50\n      eq\n      tag_6\n      jumpi\n    tag_2:\n      0x00\n      dup1\n      revert\n        /* \"Modifier2.sol\":1137:1298  function setA2() public plusoneAfter returns(bool) {... */\n    tag_3:\n      tag_7\n      tag_8\n      jump\t// in\n    tag_7:\n      mload(0x40)\n      tag_9\n      swap2\n      swap1\n      tag_10\n      jump\t// in\n    tag_9:\n      mload(0x40)\n      dup1\n      swap2\n      sub\n      swap1\n      return\n        /* \"Modifier2.sol\":967:1129  function setA1() public plusoneBefore returns(bool) {... */\n    tag_4:\n      tag_11\n      tag_12\n      jump\t// in\n    tag_11:\n      mload(0x40)\n      tag_13\n      swap2\n      swap1\n      tag_10\n      jump\t// in\n    tag_13:\n      mload(0x40)\n      dup1\n      swap2\n      sub\n      swap1\n      return\n        /* \"Modifier2.sol\":890:959  function getA() public view returns(uint) {... */\n    tag_5:\n      tag_14\n      tag_15\n      jump\t// in\n    tag_14:\n      mload(0x40)\n      tag_16\n      swap2\n      swap1\n      tag_17\n      jump\t// in\n    tag_16:\n      mload(0x40)\n      dup1\n      swap2\n      sub\n      swap1\n      return\n        /* \"Modifier2.sol\":827:882  function setA(uint _n) public {... */\n    tag_6:\n      tag_18\n      0x04\n      dup1\n      calldatasize\n      sub\n      dup2\n      add\n      swap1\n      tag_19\n      swap2\n      swap1\n      tag_20\n      jump\t// in\n    tag_19:\n      tag_21\n      jump\t// in\n    tag_18:\n      stop\n        /* \"Modifier2.sol\":1137:1298  function setA2() public plusoneAfter returns(bool) {... */\n    tag_8:\n        /* \"Modifier2.sol\":1182:1186  bool */\n      0x00\n        /* \"Modifier2.sol\":1205:1206  3 */\n      0x03\n        /* \"Modifier2.sol\":1202:1203  a */\n      sload(0x00)\n        /* \"Modifier2.sol\":1202:1206  a>=3 */\n      lt\n        /* \"Modifier2.sol\":1199:1291  if(a>=3) {... */\n      tag_24\n      jumpi\n        /* \"Modifier2.sol\":1230:1234  true */\n      0x01\n        /* \"Modifier2.sol\":1223:1234  return true */\n      swap1\n      pop\n      jump(tag_23)\n        /* \"Modifier2.sol\":1199:1291  if(a>=3) {... */\n    tag_24:\n        /* \"Modifier2.sol\":1274:1279  false */\n      0x00\n        /* \"Modifier2.sol\":1267:1279  return false */\n      swap1\n      pop\n        /* \"Modifier2.sol\":796:797  _ */\n    tag_23:\n        /* \"Modifier2.sol\":808:809  a */\n      0x00\n      dup1\n        /* \"Modifier2.sol\":808:811  a++ */\n      dup2\n      sload\n      dup1\n      swap3\n      swap2\n      swap1\n      tag_26\n      swap1\n      tag_27\n      jump\t// in\n    tag_26:\n      swap2\n      swap1\n      pop\n      sstore\n      pop\n        /* \"Modifier2.sol\":1137:1298  function setA2() public plusoneAfter returns(bool) {... */\n      swap1\n      jump\t// out\n        /* \"Modifier2.sol\":967:1129  function setA1() public plusoneBefore returns(bool) {... */\n    tag_12:\n        /* \"Modifier2.sol\":1013:1017  bool */\n      0x00\n        /* \"Modifier2.sol\":730:731  a */\n      dup1\n      0x00\n        /* \"Modifier2.sol\":730:733  a++ */\n      dup2\n      sload\n      dup1\n      swap3\n      swap2\n      swap1\n      tag_29\n      swap1\n      tag_27\n      jump\t// in\n    tag_29:\n      swap2\n      swap1\n      pop\n      sstore\n      pop\n        /* \"Modifier2.sol\":1036:1037  3 */\n      0x03\n        /* \"Modifier2.sol\":1033:1034  a */\n      sload(0x00)\n        /* \"Modifier2.sol\":1033:1037  a>=3 */\n      lt\n        /* \"Modifier2.sol\":1030:1122  if(a>=3) {... */\n      tag_31\n      jumpi\n        /* \"Modifier2.sol\":1061:1065  true */\n      0x01\n        /* \"Modifier2.sol\":1054:1065  return true */\n      swap1\n      pop\n      jump(tag_30)\n        /* \"Modifier2.sol\":1030:1122  if(a>=3) {... */\n    tag_31:\n        /* \"Modifier2.sol\":1105:1110  false */\n      0x00\n        /* \"Modifier2.sol\":1098:1110  return false */\n      swap1\n      pop\n        /* \"Modifier2.sol\":744:745  _ */\n    tag_30:\n        /* \"Modifier2.sol\":967:1129  function setA1() public plusoneBefore returns(bool) {... */\n      swap1\n      jump\t// out\n        /* \"Modifier2.sol\":890:959  function getA() public view returns(uint) {... */\n    tag_15:\n        /* \"Modifier2.sol\":926:930  uint */\n      0x00\n        /* \"Modifier2.sol\":950:951  a */\n      dup1\n      sload\n        /* \"Modifier2.sol\":943:951  return a */\n      swap1\n      pop\n        /* \"Modifier2.sol\":890:959  function getA() public view returns(uint) {... */\n      swap1\n      jump\t// out\n        /* \"Modifier2.sol\":827:882  function setA(uint _n) public {... */\n    tag_21:\n        /* \"Modifier2.sol\":872:874  _n */\n      dup1\n        /* \"Modifier2.sol\":868:869  a */\n      0x00\n        /* \"Modifier2.sol\":868:874  a = _n */\n      dup2\n      swap1\n      sstore\n      pop\n        /* \"Modifier2.sol\":827:882  function setA(uint _n) public {... */\n      pop\n      jump\t// out\n        /* \"#utility.yul\":7:97   */\n    tag_35:\n        /* \"#utility.yul\":41:48   */\n      0x00\n        /* \"#utility.yul\":84:89   */\n      dup2\n        /* \"#utility.yul\":77:90   */\n      iszero\n        /* \"#utility.yul\":70:91   */\n      iszero\n        /* \"#utility.yul\":59:91   */\n      swap1\n      pop\n        /* \"#utility.yul\":7:97   */\n      swap2\n      swap1\n      pop\n      jump\t// out\n        /* \"#utility.yul\":103:212   */\n    tag_36:\n        /* \"#utility.yul\":184:205   */\n      tag_48\n        /* \"#utility.yul\":199:204   */\n      dup2\n        /* \"#utility.yul\":184:205   */\n      tag_35\n      jump\t// in\n    tag_48:\n        /* \"#utility.yul\":179:182   */\n      dup3\n        /* \"#utility.yul\":172:206   */\n      mstore\n        /* \"#utility.yul\":103:212   */\n      pop\n      pop\n      jump\t// out\n        /* \"#utility.yul\":218:428   */\n    tag_10:\n        /* \"#utility.yul\":305:309   */\n      0x00\n        /* \"#utility.yul\":343:345   */\n      0x20\n        /* \"#utility.yul\":332:341   */\n      dup3\n        /* \"#utility.yul\":328:346   */\n      add\n        /* \"#utility.yul\":320:346   */\n      swap1\n      pop\n        /* \"#utility.yul\":356:421   */\n      tag_50\n        /* \"#utility.yul\":418:419   */\n      0x00\n        /* \"#utility.yul\":407:416   */\n      dup4\n        /* \"#utility.yul\":403:420   */\n      add\n        /* \"#utility.yul\":394:400   */\n      dup5\n        /* \"#utility.yul\":356:421   */\n      tag_36\n      jump\t// in\n    tag_50:\n        /* \"#utility.yul\":218:428   */\n      swap3\n      swap2\n      pop\n      pop\n      jump\t// out\n        /* \"#utility.yul\":434:511   */\n    tag_37:\n        /* \"#utility.yul\":471:478   */\n      0x00\n        /* \"#utility.yul\":500:505   */\n      dup2\n        /* \"#utility.yul\":489:505   */\n      swap1\n      pop\n        /* \"#utility.yul\":434:511   */\n      swap2\n      swap1\n      pop\n      jump\t// out\n        /* \"#utility.yul\":517:635   */\n    tag_38:\n        /* \"#utility.yul\":604:628   */\n      tag_53\n        /* \"#utility.yul\":622:627   */\n      dup2\n        /* \"#utility.yul\":604:628   */\n      tag_37\n      jump\t// in\n    tag_53:\n        /* \"#utility.yul\":599:602   */\n      dup3\n        /* \"#utility.yul\":592:629   */\n      mstore\n        /* \"#utility.yul\":517:635   */\n      pop\n      pop\n      jump\t// out\n        /* \"#utility.yul\":641:863   */\n    tag_17:\n        /* \"#utility.yul\":734:738   */\n      0x00\n        /* \"#utility.yul\":772:774   */\n      0x20\n        /* \"#utility.yul\":761:770   */\n      dup3\n        /* \"#utility.yul\":757:775   */\n      add\n        /* \"#utility.yul\":749:775   */\n      swap1\n      pop\n        /* \"#utility.yul\":785:856   */\n      tag_55\n        /* \"#utility.yul\":853:854   */\n      0x00\n        /* \"#utility.yul\":842:851   */\n      dup4\n        /* \"#utility.yul\":838:855   */\n      add\n        /* \"#utility.yul\":829:835   */\n      dup5\n        /* \"#utility.yul\":785:856   */\n      tag_38\n      jump\t// in\n    tag_55:\n        /* \"#utility.yul\":641:863   */\n      swap3\n      swap2\n      pop\n      pop\n      jump\t// out\n        /* \"#utility.yul\":950:1067   */\n    tag_40:\n        /* \"#utility.yul\":1059:1060   */\n      0x00\n        /* \"#utility.yul\":1056:1057   */\n      dup1\n        /* \"#utility.yul\":1049:1061   */\n      revert\n        /* \"#utility.yul\":1196:1318   */\n    tag_42:\n        /* \"#utility.yul\":1269:1293   */\n      tag_60\n        /* \"#utility.yul\":1287:1292   */\n      dup2\n        /* \"#utility.yul\":1269:1293   */\n      tag_37\n      jump\t// in\n    tag_60:\n        /* \"#utility.yul\":1262:1267   */\n      dup2\n        /* \"#utility.yul\":1259:1294   */\n      eq\n        /* \"#utility.yul\":1249:1312   */\n      tag_61\n      jumpi\n        /* \"#utility.yul\":1308:1309   */\n      0x00\n        /* \"#utility.yul\":1305:1306   */\n      dup1\n        /* \"#utility.yul\":1298:1310   */\n      revert\n        /* \"#utility.yul\":1249:1312   */\n    tag_61:\n        /* \"#utility.yul\":1196:1318   */\n      pop\n      jump\t// out\n        /* \"#utility.yul\":1324:1463   */\n    tag_43:\n        /* \"#utility.yul\":1370:1375   */\n      0x00\n        /* \"#utility.yul\":1408:1414   */\n      dup2\n        /* \"#utility.yul\":1395:1415   */\n      calldataload\n        /* \"#utility.yul\":1386:1415   */\n      swap1\n      pop\n        /* \"#utility.yul\":1424:1457   */\n      tag_63\n        /* \"#utility.yul\":1451:1456   */\n      dup2\n        /* \"#utility.yul\":1424:1457   */\n      tag_42\n      jump\t// in\n    tag_63:\n        /* \"#utility.yul\":1324:1463   */\n      swap3\n      swap2\n      pop\n      pop\n      jump\t// out\n        /* \"#utility.yul\":1469:1798   */\n    tag_20:\n        /* \"#utility.yul\":1528:1534   */\n      0x00\n        /* \"#utility.yul\":1577:1579   */\n      0x20\n        /* \"#utility.yul\":1565:1574   */\n      dup3\n        /* \"#utility.yul\":1556:1563   */\n      dup5\n        /* \"#utility.yul\":1552:1575   */\n      sub\n        /* \"#utility.yul\":1548:1580   */\n      slt\n        /* \"#utility.yul\":1545:1664   */\n      iszero\n      tag_65\n      jumpi\n        /* \"#utility.yul\":1583:1662   */\n      tag_66\n      tag_40\n      jump\t// in\n    tag_66:\n        /* \"#utility.yul\":1545:1664   */\n    tag_65:\n        /* \"#utility.yul\":1703:1704   */\n      0x00\n        /* \"#utility.yul\":1728:1781   */\n      tag_67\n        /* \"#utility.yul\":1773:1780   */\n      dup5\n        /* \"#utility.yul\":1764:1770   */\n      dup3\n        /* \"#utility.yul\":1753:1762   */\n      dup6\n        /* \"#utility.yul\":1749:1771   */\n      add\n        /* \"#utility.yul\":1728:1781   */\n      tag_43\n      jump\t// in\n    tag_67:\n        /* \"#utility.yul\":1718:1781   */\n      swap2\n      pop\n        /* \"#utility.yul\":1674:1791   */\n      pop\n        /* \"#utility.yul\":1469:1798   */\n      swap3\n      swap2\n      pop\n      pop\n      jump\t// out\n        /* \"#utility.yul\":1804:1984   */\n    tag_44:\n        /* \"#utility.yul\":1852:1929   */\n      0x4e487b7100000000000000000000000000000000000000000000000000000000\n        /* \"#utility.yul\":1849:1850   */\n      0x00\n        /* \"#utility.yul\":1842:1930   */\n      mstore\n        /* \"#utility.yul\":1949:1953   */\n      0x11\n        /* \"#utility.yul\":1946:1947   */\n      0x04\n        /* \"#utility.yul\":1939:1954   */\n      mstore\n        /* \"#utility.yul\":1973:1977   */\n      0x24\n        /* \"#utility.yul\":1970:1971   */\n      0x00\n        /* \"#utility.yul\":1963:1978   */\n      revert\n        /* \"#utility.yul\":1990:2223   */\n    tag_27:\n        /* \"#utility.yul\":2029:2032   */\n      0x00\n        /* \"#utility.yul\":2052:2076   */\n      tag_70\n        /* \"#utility.yul\":2070:2075   */\n      dup3\n        /* \"#utility.yul\":2052:2076   */\n      tag_37\n      jump\t// in\n    tag_70:\n        /* \"#utility.yul\":2043:2076   */\n      swap2\n      pop\n        /* \"#utility.yul\":2098:2164   */\n      0xffffffffffffffffffffffffffffffffffffffffffffffffffffffffffffffff\n        /* \"#utility.yul\":2091:2096   */\n      dup3\n        /* \"#utility.yul\":2088:2165   */\n      sub\n        /* \"#utility.yul\":2085:2188   */\n      tag_71\n      jumpi\n        /* \"#utility.yul\":2168:2186   */\n      tag_72\n      tag_44\n      jump\t// in\n    tag_72:\n        /* \"#utility.yul\":2085:2188   */\n    tag_71:\n        /* \"#utility.yul\":2215:2216   */\n      0x01\n        /* \"#utility.yul\":2208:2213   */\n      dup3\n        /* \"#utility.yul\":2204:2217   */\n      add\n        /* \"#utility.yul\":2197:2217   */\n      swap1\n      pop\n        /* \"#utility.yul\":1990:2223   */\n      swap2\n      swap1\n      pop\n      jump\t// out\n\n    auxdata: 0xa264697066735822122091bb28b3bc99b298faf0a347b90f5481d699da24573d12761968abb1bb94152264736f6c63430008160033\n}\n",
				"bytecode": {
					"linkReferences": {},
					"object": "608060405234801561000f575f80fd5b5061029c8061001d5f395ff3fe608060405234801561000f575f80fd5b506004361061004a575f3560e01c8063498e68571461004e5780636e7e996e1461006c578063d46300fd1461008a578063ee919d50146100a8575b5f80fd5b6100566100c4565b604051610063919061014f565b60405180910390f35b6100746100f4565b604051610081919061014f565b60405180910390f35b610092610124565b60405161009f9190610180565b60405180910390f35b6100c260048036038101906100bd91906101c7565b61012c565b005b5f60035f54106100d757600190506100db565b5f90505b5f808154809291906100ec9061021f565b919050555090565b5f805f8154809291906101069061021f565b919050555060035f541061011d5760019050610121565b5f90505b90565b5f8054905090565b805f8190555050565b5f8115159050919050565b61014981610135565b82525050565b5f6020820190506101625f830184610140565b92915050565b5f819050919050565b61017a81610168565b82525050565b5f6020820190506101935f830184610171565b92915050565b5f80fd5b6101a681610168565b81146101b0575f80fd5b50565b5f813590506101c18161019d565b92915050565b5f602082840312156101dc576101db610199565b5b5f6101e9848285016101b3565b91505092915050565b7f4e487b71000000000000000000000000000000000000000000000000000000005f52601160045260245ffd5b5f61022982610168565b91507fffffffffffffffffffffffffffffffffffffffffffffffffffffffffffffffff820361025b5761025a6101f2565b5b60018201905091905056fea264697066735822122091bb28b3bc99b298faf0a347b90f5481d699da24573d12761968abb1bb94152264736f6c63430008160033",
					"opcodes": "PUSH1 0x80 PUSH1 0x40 MSTORE CALLVALUE DUP1 ISZERO PUSH2 0xF JUMPI PUSH0 DUP1 REVERT JUMPDEST POP PUSH2 0x29C DUP1 PUSH2 0x1D PUSH0 CODECOPY PUSH0 RETURN INVALID PUSH1 0x80 PUSH1 0x40 MSTORE CALLVALUE DUP1 ISZERO PUSH2 0xF JUMPI PUSH0 DUP1 REVERT JUMPDEST POP PUSH1 0x4 CALLDATASIZE LT PUSH2 0x4A JUMPI PUSH0 CALLDATALOAD PUSH1 0xE0 SHR DUP1 PUSH4 0x498E6857 EQ PUSH2 0x4E JUMPI DUP1 PUSH4 0x6E7E996E EQ PUSH2 0x6C JUMPI DUP1 PUSH4 0xD46300FD EQ PUSH2 0x8A JUMPI DUP1 PUSH4 0xEE919D50 EQ PUSH2 0xA8 JUMPI JUMPDEST PUSH0 DUP1 REVERT JUMPDEST PUSH2 0x56 PUSH2 0xC4 JUMP JUMPDEST PUSH1 0x40 MLOAD PUSH2 0x63 SWAP2 SWAP1 PUSH2 0x14F JUMP JUMPDEST PUSH1 0x40 MLOAD DUP1 SWAP2 SUB SWAP1 RETURN JUMPDEST PUSH2 0x74 PUSH2 0xF4 JUMP JUMPDEST PUSH1 0x40 MLOAD PUSH2 0x81 SWAP2 SWAP1 PUSH2 0x14F JUMP JUMPDEST PUSH1 0x40 MLOAD DUP1 SWAP2 SUB SWAP1 RETURN JUMPDEST PUSH2 0x92 PUSH2 0x124 JUMP JUMPDEST PUSH1 0x40 MLOAD PUSH2 0x9F SWAP2 SWAP1 PUSH2 0x180 JUMP JUMPDEST PUSH1 0x40 MLOAD DUP1 SWAP2 SUB SWAP1 RETURN JUMPDEST PUSH2 0xC2 PUSH1 0x4 DUP1 CALLDATASIZE SUB DUP2 ADD SWAP1 PUSH2 0xBD SWAP2 SWAP1 PUSH2 0x1C7 JUMP JUMPDEST PUSH2 0x12C JUMP JUMPDEST STOP JUMPDEST PUSH0 PUSH1 0x3 PUSH0 SLOAD LT PUSH2 0xD7 JUMPI PUSH1 0x1 SWAP1 POP PUSH2 0xDB JUMP JUMPDEST PUSH0 SWAP1 POP JUMPDEST PUSH0 DUP1 DUP2 SLOAD DUP1 SWAP3 SWAP2 SWAP1 PUSH2 0xEC SWAP1 PUSH2 0x21F JUMP JUMPDEST SWAP2 SWAP1 POP SSTORE POP SWAP1 JUMP JUMPDEST PUSH0 DUP1 PUSH0 DUP2 SLOAD DUP1 SWAP3 SWAP2 SWAP1 PUSH2 0x106 SWAP1 PUSH2 0x21F JUMP JUMPDEST SWAP2 SWAP1 POP SSTORE POP PUSH1 0x3 PUSH0 SLOAD LT PUSH2 0x11D JUMPI PUSH1 0x1 SWAP1 POP PUSH2 0x121 JUMP JUMPDEST PUSH0 SWAP1 POP JUMPDEST SWAP1 JUMP JUMPDEST PUSH0 DUP1 SLOAD SWAP1 POP SWAP1 JUMP JUMPDEST DUP1 PUSH0 DUP2 SWAP1 SSTORE POP POP JUMP JUMPDEST PUSH0 DUP2 ISZERO ISZERO SWAP1 POP SWAP2 SWAP1 POP JUMP JUMPDEST PUSH2 0x149 DUP2 PUSH2 0x135 JUMP JUMPDEST DUP3 MSTORE POP POP JUMP JUMPDEST PUSH0 PUSH1 0x20 DUP3 ADD SWAP1 POP PUSH2 0x162 PUSH0 DUP4 ADD DUP5 PUSH2 0x140 JUMP JUMPDEST SWAP3 SWAP2 POP POP JUMP JUMPDEST PUSH0 DUP2 SWAP1 POP SWAP2 SWAP1 POP JUMP JUMPDEST PUSH2 0x17A DUP2 PUSH2 0x168 JUMP JUMPDEST DUP3 MSTORE POP POP JUMP JUMPDEST PUSH0 PUSH1 0x20 DUP3 ADD SWAP1 POP PUSH2 0x193 PUSH0 DUP4 ADD DUP5 PUSH2 0x171 JUMP JUMPDEST SWAP3 SWAP2 POP POP JUMP JUMPDEST PUSH0 DUP1 REVERT JUMPDEST PUSH2 0x1A6 DUP2 PUSH2 0x168 JUMP JUMPDEST DUP2 EQ PUSH2 0x1B0 JUMPI PUSH0 DUP1 REVERT JUMPDEST POP JUMP JUMPDEST PUSH0 DUP2 CALLDATALOAD SWAP1 POP PUSH2 0x1C1 DUP2 PUSH2 0x19D JUMP JUMPDEST SWAP3 SWAP2 POP POP JUMP JUMPDEST PUSH0 PUSH1 0x20 DUP3 DUP5 SUB SLT ISZERO PUSH2 0x1DC JUMPI PUSH2 0x1DB PUSH2 0x199 JUMP JUMPDEST JUMPDEST PUSH0 PUSH2 0x1E9 DUP5 DUP3 DUP6 ADD PUSH2 0x1B3 JUMP JUMPDEST SWAP2 POP POP SWAP3 SWAP2 POP POP JUMP JUMPDEST PUSH32 0x4E487B7100000000000000000000000000000000000000000000000000000000 PUSH0 MSTORE PUSH1 0x11 PUSH1 0x4 MSTORE PUSH1 0x24 PUSH0 REVERT JUMPDEST PUSH0 PUSH2 0x229 DUP3 PUSH2 0x168 JUMP JUMPDEST SWAP2 POP PUSH32 0xFFFFFFFFFFFFFFFFFFFFFFFFFFFFFFFFFFFFFFFFFFFFFFFFFFFFFFFFFFFFFFFF DUP3 SUB PUSH2 0x25B JUMPI PUSH2 0x25A PUSH2 0x1F2 JUMP JUMPDEST JUMPDEST PUSH1 0x1 DUP3 ADD SWAP1 POP SWAP2 SWAP1 POP JUMP INVALID LOG2 PUSH5 0x6970667358 0x22 SLT KECCAK256 SWAP2 0xBB 0x28 0xB3 0xBC SWAP10 0xB2 SWAP9 STATICCALL CREATE LOG3 SELFBALANCE 0xB9 0xF SLOAD DUP2 0xD6 SWAP10 0xDA 0x24 JUMPI RETURNDATASIZE SLT PUSH23 0x1968ABB1BB94152264736F6C6343000816003300000000 "
				},
				"gasEstimates": {
					"creation": {
						"codeDepositCost": "133600",
						"executionCost": "175",
						"totalCost": "133775"
					},
					"external": {
						"getA()": "2454",
						"setA(uint256)": "22558",
						"setA1()": "26825",
						"setA2()": "26803"
					}
				},
				"methodIdentifiers": {
					"getA()": "d46300fd",
					"setA(uint256)": "ee919d50",
					"setA1()": "6e7e996e",
					"setA2()": "498e6857"
				}
			},
			"storageLayout": {
				"storage": [
					{
						"astId": 87,
						"contract": "Modifier2.sol:MODIFIER4",
						"label": "a",
						"offset": 0,
						"slot": "0",
						"type": "t_uint256"
					}
				],
				"types": {
					"t_uint256": {
						"encoding": "inplace",
						"label": "uint256",
						"numberOfBytes": "32"
					}
				}
			},
			"userdoc": {
				"kind": "user",
				"methods": {},
				"version": 1
			}
		}
	}
}