{
	"Visibility.sol": {
		"VISIBILITY": {
			"abi": [
				{
					"inputs": [],
					"name": "externalF",
					"outputs": [
						{
							"internalType": "uint256",
							"name": "",
							"type": "uint256"
						}
					],
					"stateMutability": "view",
					"type": "function"
				},
				{
					"inputs": [],
					"name": "publicF",
					"outputs": [
						{
							"internalType": "uint256",
							"name": "",
							"type": "uint256"
						}
					],
					"stateMutability": "view",
					"type": "function"
				},
				{
					"inputs": [
						{
							"internalType": "uint256",
							"name": "_a",
							"type": "uint256"
						}
					],
					"name": "setA",
					"outputs": [],
					"stateMutability": "nonpayable",
					"type": "function"
				},
				{
					"inputs": [
						{
							"internalType": "uint256",
							"name": "_b",
							"type": "uint256"
						}
					],
					"name": "setB",
					"outputs": [],
					"stateMutability": "nonpayable",
					"type": "function"
				},
				{
					"inputs": [
						{
							"internalType": "uint256",
							"name": "_c",
							"type": "uint256"
						}
					],
					"name": "setC",
					"outputs": [],
					"stateMutability": "nonpayable",
					"type": "function"
				},
				{
					"inputs": [
						{
							"internalType": "uint256",
							"name": "_d",
							"type": "uint256"
						}
					],
					"name": "setD",
					"outputs": [],
					"stateMutability": "nonpayable",
					"type": "function"
				},
				{
					"inputs": [],
					"name": "testInternalF",
					"outputs": [
						{
							"internalType": "uint256",
							"name": "",
							"type": "uint256"
						}
					],
					"stateMutability": "view",
					"type": "function"
				},
				{
					"inputs": [],
					"name": "testPrivateF",
					"outputs": [
						{
							"internalType": "uint256",
							"name": "",
							"type": "uint256"
						}
					],
					"stateMutability": "view",
					"type": "function"
				}
			],
			"devdoc": {
				"kind": "dev",
				"methods": {},
				"version": 1
			},
			"evm": {
				"assembly": "    /* \"Visibility.sol\":72:933  contract VISIBILITY {... */\n  mstore(0x40, 0x80)\n    /* \"Visibility.sol\":107:108  5 */\n  0x05\n    /* \"Visibility.sol\":99:108  uint a =5 */\n  0x00\n  sstore\n    /* \"Visibility.sol\":123:124  7 */\n  0x07\n    /* \"Visibility.sol\":115:124  uint b =7 */\n  0x01\n  sstore\n    /* \"Visibility.sol\":139:140  9 */\n  0x09\n    /* \"Visibility.sol\":131:140  uint c =9 */\n  0x02\n  sstore\n    /* \"Visibility.sol\":155:157  11 */\n  0x0b\n    /* \"Visibility.sol\":147:157  uint d =11 */\n  0x03\n  sstore\n    /* \"Visibility.sol\":72:933  contract VISIBILITY {... */\n  callvalue\n  dup1\n  iszero\n  tag_1\n  jumpi\n  0x00\n  dup1\n  revert\ntag_1:\n  pop\n  dataSize(sub_0)\n  dup1\n  dataOffset(sub_0)\n  0x00\n  codecopy\n  0x00\n  return\nstop\n\nsub_0: assembly {\n        /* \"Visibility.sol\":72:933  contract VISIBILITY {... */\n      mstore(0x40, 0x80)\n      callvalue\n      dup1\n      iszero\n      tag_1\n      jumpi\n      0x00\n      dup1\n      revert\n    tag_1:\n      pop\n      jumpi(tag_2, lt(calldatasize, 0x04))\n      shr(0xe0, calldataload(0x00))\n      dup1\n      0xd6f1ea3c\n      gt\n      tag_11\n      jumpi\n      dup1\n      0xd6f1ea3c\n      eq\n      tag_7\n      jumpi\n      dup1\n      0xee919d50\n      eq\n      tag_8\n      jumpi\n      dup1\n      0xeeb4914e\n      eq\n      tag_9\n      jumpi\n      dup1\n      0xf5045550\n      eq\n      tag_10\n      jumpi\n      jump(tag_2)\n    tag_11:\n      dup1\n      0x09cdcf9b\n      eq\n      tag_3\n      jumpi\n      dup1\n      0x0b2eeb49\n      eq\n      tag_4\n      jumpi\n      dup1\n      0x1798aaad\n      eq\n      tag_5\n      jumpi\n      dup1\n      0x6b4ffb58\n      eq\n      tag_6\n      jumpi\n    tag_2:\n      0x00\n      dup1\n      revert\n        /* \"Visibility.sol\":749:804  function setB(uint _b) public {... */\n    tag_3:\n      tag_12\n      0x04\n      dup1\n      calldatasize\n      sub\n      dup2\n      add\n      swap1\n      tag_13\n      swap2\n      swap1\n      tag_14\n      jump\t// in\n    tag_13:\n      tag_15\n      jump\t// in\n    tag_12:\n      stop\n        /* \"Visibility.sol\":875:930  function setD(uint _d) public {... */\n    tag_4:\n      tag_16\n      0x04\n      dup1\n      calldatasize\n      sub\n      dup2\n      add\n      swap1\n      tag_17\n      swap2\n      swap1\n      tag_14\n      jump\t// in\n    tag_17:\n      tag_18\n      jump\t// in\n    tag_16:\n      stop\n        /* \"Visibility.sol\":426:514  function testInternalF() public view returns(uint) {... */\n    tag_5:\n      tag_19\n      tag_20\n      jump\t// in\n    tag_19:\n      mload(0x40)\n      tag_21\n      swap2\n      swap1\n      tag_22\n      jump\t// in\n    tag_21:\n      mload(0x40)\n      dup1\n      swap2\n      sub\n      swap1\n      return\n        /* \"Visibility.sol\":602:678  function externalF() external view returns(uint) {... */\n    tag_6:\n      tag_23\n      tag_24\n      jump\t// in\n    tag_23:\n      mload(0x40)\n      tag_25\n      swap2\n      swap1\n      tag_22\n      jump\t// in\n    tag_25:\n      mload(0x40)\n      dup1\n      swap2\n      sub\n      swap1\n      return\n        /* \"Visibility.sol\":248:334  function testPrivateF() public view returns(uint) {... */\n    tag_7:\n      tag_26\n      tag_27\n      jump\t// in\n    tag_26:\n      mload(0x40)\n      tag_28\n      swap2\n      swap1\n      tag_22\n      jump\t// in\n    tag_28:\n      mload(0x40)\n      dup1\n      swap2\n      sub\n      swap1\n      return\n        /* \"Visibility.sol\":686:741  function setA(uint _a) public {... */\n    tag_8:\n      tag_29\n      0x04\n      dup1\n      calldatasize\n      sub\n      dup2\n      add\n      swap1\n      tag_30\n      swap2\n      swap1\n      tag_14\n      jump\t// in\n    tag_30:\n      tag_31\n      jump\t// in\n    tag_29:\n      stop\n        /* \"Visibility.sol\":812:867  function setC(uint _c) public {... */\n    tag_9:\n      tag_32\n      0x04\n      dup1\n      calldatasize\n      sub\n      dup2\n      add\n      swap1\n      tag_33\n      swap2\n      swap1\n      tag_14\n      jump\t// in\n    tag_33:\n      tag_34\n      jump\t// in\n    tag_32:\n      stop\n        /* \"Visibility.sol\":522:594  function publicF() public view returns(uint) {... */\n    tag_10:\n      tag_35\n      tag_36\n      jump\t// in\n    tag_35:\n      mload(0x40)\n      tag_37\n      swap2\n      swap1\n      tag_22\n      jump\t// in\n    tag_37:\n      mload(0x40)\n      dup1\n      swap2\n      sub\n      swap1\n      return\n        /* \"Visibility.sol\":749:804  function setB(uint _b) public {... */\n    tag_15:\n        /* \"Visibility.sol\":794:796  _b */\n      dup1\n        /* \"Visibility.sol\":790:791  b */\n      0x01\n        /* \"Visibility.sol\":790:796  b = _b */\n      dup2\n      swap1\n      sstore\n      pop\n        /* \"Visibility.sol\":749:804  function setB(uint _b) public {... */\n      pop\n      jump\t// out\n        /* \"Visibility.sol\":875:930  function setD(uint _d) public {... */\n    tag_18:\n        /* \"Visibility.sol\":920:922  _d */\n      dup1\n        /* \"Visibility.sol\":916:917  d */\n      0x03\n        /* \"Visibility.sol\":916:922  d = _d */\n      dup2\n      swap1\n      sstore\n      pop\n        /* \"Visibility.sol\":875:930  function setD(uint _d) public {... */\n      pop\n      jump\t// out\n        /* \"Visibility.sol\":426:514  function testInternalF() public view returns(uint) {... */\n    tag_20:\n        /* \"Visibility.sol\":471:475  uint */\n      0x00\n        /* \"Visibility.sol\":495:506  internalF() */\n      tag_41\n        /* \"Visibility.sol\":495:504  internalF */\n      tag_42\n        /* \"Visibility.sol\":495:506  internalF() */\n      jump\t// in\n    tag_41:\n        /* \"Visibility.sol\":488:506  return internalF() */\n      swap1\n      pop\n        /* \"Visibility.sol\":426:514  function testInternalF() public view returns(uint) {... */\n      swap1\n      jump\t// out\n        /* \"Visibility.sol\":602:678  function externalF() external view returns(uint) {... */\n    tag_24:\n        /* \"Visibility.sol\":645:649  uint */\n      0x00\n        /* \"Visibility.sol\":669:670  d */\n      sload(0x03)\n        /* \"Visibility.sol\":662:670  return d */\n      swap1\n      pop\n        /* \"Visibility.sol\":602:678  function externalF() external view returns(uint) {... */\n      swap1\n      jump\t// out\n        /* \"Visibility.sol\":248:334  function testPrivateF() public view returns(uint) {... */\n    tag_27:\n        /* \"Visibility.sol\":292:296  uint */\n      0x00\n        /* \"Visibility.sol\":316:326  privateF() */\n      tag_45\n        /* \"Visibility.sol\":316:324  privateF */\n      tag_46\n        /* \"Visibility.sol\":316:326  privateF() */\n      jump\t// in\n    tag_45:\n        /* \"Visibility.sol\":309:326  return privateF() */\n      swap1\n      pop\n        /* \"Visibility.sol\":248:334  function testPrivateF() public view returns(uint) {... */\n      swap1\n      jump\t// out\n        /* \"Visibility.sol\":686:741  function setA(uint _a) public {... */\n    tag_31:\n        /* \"Visibility.sol\":731:733  _a */\n      dup1\n        /* \"Visibility.sol\":727:728  a */\n      0x00\n        /* \"Visibility.sol\":727:733  a = _a */\n      dup2\n      swap1\n      sstore\n      pop\n        /* \"Visibility.sol\":686:741  function setA(uint _a) public {... */\n      pop\n      jump\t// out\n        /* \"Visibility.sol\":812:867  function setC(uint _c) public {... */\n    tag_34:\n        /* \"Visibility.sol\":857:859  _c */\n      dup1\n        /* \"Visibility.sol\":853:854  c */\n      0x02\n        /* \"Visibility.sol\":853:859  c = _c */\n      dup2\n      swap1\n      sstore\n      pop\n        /* \"Visibility.sol\":812:867  function setC(uint _c) public {... */\n      pop\n      jump\t// out\n        /* \"Visibility.sol\":522:594  function publicF() public view returns(uint) {... */\n    tag_36:\n        /* \"Visibility.sol\":561:565  uint */\n      0x00\n        /* \"Visibility.sol\":585:586  c */\n      sload(0x02)\n        /* \"Visibility.sol\":578:586  return c */\n      swap1\n      pop\n        /* \"Visibility.sol\":522:594  function publicF() public view returns(uint) {... */\n      swap1\n      jump\t// out\n        /* \"Visibility.sol\":342:418  function internalF() internal view returns(uint) {... */\n    tag_42:\n        /* \"Visibility.sol\":385:389  uint */\n      0x00\n        /* \"Visibility.sol\":409:410  b */\n      sload(0x01)\n        /* \"Visibility.sol\":402:410  return b */\n      swap1\n      pop\n        /* \"Visibility.sol\":342:418  function internalF() internal view returns(uint) {... */\n      swap1\n      jump\t// out\n        /* \"Visibility.sol\":166:240  function privateF() private view returns(uint) {... */\n    tag_46:\n        /* \"Visibility.sol\":207:211  uint */\n      0x00\n        /* \"Visibility.sol\":231:232  a */\n      dup1\n      sload\n        /* \"Visibility.sol\":224:232  return a */\n      swap1\n      pop\n        /* \"Visibility.sol\":166:240  function privateF() private view returns(uint) {... */\n      swap1\n      jump\t// out\n        /* \"#utility.yul\":88:205   */\n    tag_53:\n        /* \"#utility.yul\":197:198   */\n      0x00\n        /* \"#utility.yul\":194:195   */\n      dup1\n        /* \"#utility.yul\":187:199   */\n      revert\n        /* \"#utility.yul\":334:411   */\n    tag_55:\n        /* \"#utility.yul\":371:378   */\n      0x00\n        /* \"#utility.yul\":400:405   */\n      dup2\n        /* \"#utility.yul\":389:405   */\n      swap1\n      pop\n        /* \"#utility.yul\":334:411   */\n      swap2\n      swap1\n      pop\n      jump\t// out\n        /* \"#utility.yul\":417:539   */\n    tag_56:\n        /* \"#utility.yul\":490:514   */\n      tag_65\n        /* \"#utility.yul\":508:513   */\n      dup2\n        /* \"#utility.yul\":490:514   */\n      tag_55\n      jump\t// in\n    tag_65:\n        /* \"#utility.yul\":483:488   */\n      dup2\n        /* \"#utility.yul\":480:515   */\n      eq\n        /* \"#utility.yul\":470:533   */\n      tag_66\n      jumpi\n        /* \"#utility.yul\":529:530   */\n      0x00\n        /* \"#utility.yul\":526:527   */\n      dup1\n        /* \"#utility.yul\":519:531   */\n      revert\n        /* \"#utility.yul\":470:533   */\n    tag_66:\n        /* \"#utility.yul\":417:539   */\n      pop\n      jump\t// out\n        /* \"#utility.yul\":545:684   */\n    tag_57:\n        /* \"#utility.yul\":591:596   */\n      0x00\n        /* \"#utility.yul\":629:635   */\n      dup2\n        /* \"#utility.yul\":616:636   */\n      calldataload\n        /* \"#utility.yul\":607:636   */\n      swap1\n      pop\n        /* \"#utility.yul\":645:678   */\n      tag_68\n        /* \"#utility.yul\":672:677   */\n      dup2\n        /* \"#utility.yul\":645:678   */\n      tag_56\n      jump\t// in\n    tag_68:\n        /* \"#utility.yul\":545:684   */\n      swap3\n      swap2\n      pop\n      pop\n      jump\t// out\n        /* \"#utility.yul\":690:1019   */\n    tag_14:\n        /* \"#utility.yul\":749:755   */\n      0x00\n        /* \"#utility.yul\":798:800   */\n      0x20\n        /* \"#utility.yul\":786:795   */\n      dup3\n        /* \"#utility.yul\":777:784   */\n      dup5\n        /* \"#utility.yul\":773:796   */\n      sub\n        /* \"#utility.yul\":769:801   */\n      slt\n        /* \"#utility.yul\":766:885   */\n      iszero\n      tag_70\n      jumpi\n        /* \"#utility.yul\":804:883   */\n      tag_71\n      tag_53\n      jump\t// in\n    tag_71:\n        /* \"#utility.yul\":766:885   */\n    tag_70:\n        /* \"#utility.yul\":924:925   */\n      0x00\n        /* \"#utility.yul\":949:1002   */\n      tag_72\n        /* \"#utility.yul\":994:1001   */\n      dup5\n        /* \"#utility.yul\":985:991   */\n      dup3\n        /* \"#utility.yul\":974:983   */\n      dup6\n        /* \"#utility.yul\":970:992   */\n      add\n        /* \"#utility.yul\":949:1002   */\n      tag_57\n      jump\t// in\n    tag_72:\n        /* \"#utility.yul\":939:1002   */\n      swap2\n      pop\n        /* \"#utility.yul\":895:1012   */\n      pop\n        /* \"#utility.yul\":690:1019   */\n      swap3\n      swap2\n      pop\n      pop\n      jump\t// out\n        /* \"#utility.yul\":1025:1143   */\n    tag_58:\n        /* \"#utility.yul\":1112:1136   */\n      tag_74\n        /* \"#utility.yul\":1130:1135   */\n      dup2\n        /* \"#utility.yul\":1112:1136   */\n      tag_55\n      jump\t// in\n    tag_74:\n        /* \"#utility.yul\":1107:1110   */\n      dup3\n        /* \"#utility.yul\":1100:1137   */\n      mstore\n        /* \"#utility.yul\":1025:1143   */\n      pop\n      pop\n      jump\t// out\n        /* \"#utility.yul\":1149:1371   */\n    tag_22:\n        /* \"#utility.yul\":1242:1246   */\n      0x00\n        /* \"#utility.yul\":1280:1282   */\n      0x20\n        /* \"#utility.yul\":1269:1278   */\n      dup3\n        /* \"#utility.yul\":1265:1283   */\n      add\n        /* \"#utility.yul\":1257:1283   */\n      swap1\n      pop\n        /* \"#utility.yul\":1293:1364   */\n      tag_76\n        /* \"#utility.yul\":1361:1362   */\n      0x00\n        /* \"#utility.yul\":1350:1359   */\n      dup4\n        /* \"#utility.yul\":1346:1363   */\n      add\n        /* \"#utility.yul\":1337:1343   */\n      dup5\n        /* \"#utility.yul\":1293:1364   */\n      tag_58\n      jump\t// in\n    tag_76:\n        /* \"#utility.yul\":1149:1371   */\n      swap3\n      swap2\n      pop\n      pop\n      jump\t// out\n\n    auxdata: 0xa2646970667358221220db6783a5945da0fbec3cda9b152564ed2c0645dfe7101310d22c534f244ad85764736f6c63430008160033\n}\n",
				"bytecode": {
					"linkReferences": {},
					"object": "608060405260055f5560076001556009600255600b600355348015610022575f80fd5b50610298806100305f395ff3fe608060405234801561000f575f80fd5b5060043610610086575f3560e01c8063d6f1ea3c11610059578063d6f1ea3c146100fe578063ee919d501461011c578063eeb4914e14610138578063f50455501461015457610086565b806309cdcf9b1461008a5780630b2eeb49146100a65780631798aaad146100c25780636b4ffb58146100e0575b5f80fd5b6100a4600480360381019061009f919061020f565b610172565b005b6100c060048036038101906100bb919061020f565b61017c565b005b6100ca610186565b6040516100d79190610249565b60405180910390f35b6100e8610194565b6040516100f59190610249565b60405180910390f35b61010661019d565b6040516101139190610249565b60405180910390f35b6101366004803603810190610131919061020f565b6101ab565b005b610152600480360381019061014d919061020f565b6101b4565b005b61015c6101be565b6040516101699190610249565b60405180910390f35b8060018190555050565b8060038190555050565b5f61018f6101c7565b905090565b5f600354905090565b5f6101a66101d0565b905090565b805f8190555050565b8060028190555050565b5f600254905090565b5f600154905090565b5f8054905090565b5f80fd5b5f819050919050565b6101ee816101dc565b81146101f8575f80fd5b50565b5f81359050610209816101e5565b92915050565b5f60208284031215610224576102236101d8565b5b5f610231848285016101fb565b91505092915050565b610243816101dc565b82525050565b5f60208201905061025c5f83018461023a565b9291505056fea2646970667358221220db6783a5945da0fbec3cda9b152564ed2c0645dfe7101310d22c534f244ad85764736f6c63430008160033",
					"opcodes": "PUSH1 0x80 PUSH1 0x40 MSTORE PUSH1 0x5 PUSH0 SSTORE PUSH1 0x7 PUSH1 0x1 SSTORE PUSH1 0x9 PUSH1 0x2 SSTORE PUSH1 0xB PUSH1 0x3 SSTORE CALLVALUE DUP1 ISZERO PUSH2 0x22 JUMPI PUSH0 DUP1 REVERT JUMPDEST POP PUSH2 0x298 DUP1 PUSH2 0x30 PUSH0 CODECOPY PUSH0 RETURN INVALID PUSH1 0x80 PUSH1 0x40 MSTORE CALLVALUE DUP1 ISZERO PUSH2 0xF JUMPI PUSH0 DUP1 REVERT JUMPDEST POP PUSH1 0x4 CALLDATASIZE LT PUSH2 0x86 JUMPI PUSH0 CALLDATALOAD PUSH1 0xE0 SHR DUP1 PUSH4 0xD6F1EA3C GT PUSH2 0x59 JUMPI DUP1 PUSH4 0xD6F1EA3C EQ PUSH2 0xFE JUMPI DUP1 PUSH4 0xEE919D50 EQ PUSH2 0x11C JUMPI DUP1 PUSH4 0xEEB4914E EQ PUSH2 0x138 JUMPI DUP1 PUSH4 0xF5045550 EQ PUSH2 0x154 JUMPI PUSH2 0x86 JUMP JUMPDEST DUP1 PUSH4 0x9CDCF9B EQ PUSH2 0x8A JUMPI DUP1 PUSH4 0xB2EEB49 EQ PUSH2 0xA6 JUMPI DUP1 PUSH4 0x1798AAAD EQ PUSH2 0xC2 JUMPI DUP1 PUSH4 0x6B4FFB58 EQ PUSH2 0xE0 JUMPI JUMPDEST PUSH0 DUP1 REVERT JUMPDEST PUSH2 0xA4 PUSH1 0x4 DUP1 CALLDATASIZE SUB DUP2 ADD SWAP1 PUSH2 0x9F SWAP2 SWAP1 PUSH2 0x20F JUMP JUMPDEST PUSH2 0x172 JUMP JUMPDEST STOP JUMPDEST PUSH2 0xC0 PUSH1 0x4 DUP1 CALLDATASIZE SUB DUP2 ADD SWAP1 PUSH2 0xBB SWAP2 SWAP1 PUSH2 0x20F JUMP JUMPDEST PUSH2 0x17C JUMP JUMPDEST STOP JUMPDEST PUSH2 0xCA PUSH2 0x186 JUMP JUMPDEST PUSH1 0x40 MLOAD PUSH2 0xD7 SWAP2 SWAP1 PUSH2 0x249 JUMP JUMPDEST PUSH1 0x40 MLOAD DUP1 SWAP2 SUB SWAP1 RETURN JUMPDEST PUSH2 0xE8 PUSH2 0x194 JUMP JUMPDEST PUSH1 0x40 MLOAD PUSH2 0xF5 SWAP2 SWAP1 PUSH2 0x249 JUMP JUMPDEST PUSH1 0x40 MLOAD DUP1 SWAP2 SUB SWAP1 RETURN JUMPDEST PUSH2 0x106 PUSH2 0x19D JUMP JUMPDEST PUSH1 0x40 MLOAD PUSH2 0x113 SWAP2 SWAP1 PUSH2 0x249 JUMP JUMPDEST PUSH1 0x40 MLOAD DUP1 SWAP2 SUB SWAP1 RETURN JUMPDEST PUSH2 0x136 PUSH1 0x4 DUP1 CALLDATASIZE SUB DUP2 ADD SWAP1 PUSH2 0x131 SWAP2 SWAP1 PUSH2 0x20F JUMP JUMPDEST PUSH2 0x1AB JUMP JUMPDEST STOP JUMPDEST PUSH2 0x152 PUSH1 0x4 DUP1 CALLDATASIZE SUB DUP2 ADD SWAP1 PUSH2 0x14D SWAP2 SWAP1 PUSH2 0x20F JUMP JUMPDEST PUSH2 0x1B4 JUMP JUMPDEST STOP JUMPDEST PUSH2 0x15C PUSH2 0x1BE JUMP JUMPDEST PUSH1 0x40 MLOAD PUSH2 0x169 SWAP2 SWAP1 PUSH2 0x249 JUMP JUMPDEST PUSH1 0x40 MLOAD DUP1 SWAP2 SUB SWAP1 RETURN JUMPDEST DUP1 PUSH1 0x1 DUP2 SWAP1 SSTORE POP POP JUMP JUMPDEST DUP1 PUSH1 0x3 DUP2 SWAP1 SSTORE POP POP JUMP JUMPDEST PUSH0 PUSH2 0x18F PUSH2 0x1C7 JUMP JUMPDEST SWAP1 POP SWAP1 JUMP JUMPDEST PUSH0 PUSH1 0x3 SLOAD SWAP1 POP SWAP1 JUMP JUMPDEST PUSH0 PUSH2 0x1A6 PUSH2 0x1D0 JUMP JUMPDEST SWAP1 POP SWAP1 JUMP JUMPDEST DUP1 PUSH0 DUP2 SWAP1 SSTORE POP POP JUMP JUMPDEST DUP1 PUSH1 0x2 DUP2 SWAP1 SSTORE POP POP JUMP JUMPDEST PUSH0 PUSH1 0x2 SLOAD SWAP1 POP SWAP1 JUMP JUMPDEST PUSH0 PUSH1 0x1 SLOAD SWAP1 POP SWAP1 JUMP JUMPDEST PUSH0 DUP1 SLOAD SWAP1 POP SWAP1 JUMP JUMPDEST PUSH0 DUP1 REVERT JUMPDEST PUSH0 DUP2 SWAP1 POP SWAP2 SWAP1 POP JUMP JUMPDEST PUSH2 0x1EE DUP2 PUSH2 0x1DC JUMP JUMPDEST DUP2 EQ PUSH2 0x1F8 JUMPI PUSH0 DUP1 REVERT JUMPDEST POP JUMP JUMPDEST PUSH0 DUP2 CALLDATALOAD SWAP1 POP PUSH2 0x209 DUP2 PUSH2 0x1E5 JUMP JUMPDEST SWAP3 SWAP2 POP POP JUMP JUMPDEST PUSH0 PUSH1 0x20 DUP3 DUP5 SUB SLT ISZERO PUSH2 0x224 JUMPI PUSH2 0x223 PUSH2 0x1D8 JUMP JUMPDEST JUMPDEST PUSH0 PUSH2 0x231 DUP5 DUP3 DUP6 ADD PUSH2 0x1FB JUMP JUMPDEST SWAP2 POP POP SWAP3 SWAP2 POP POP JUMP JUMPDEST PUSH2 0x243 DUP2 PUSH2 0x1DC JUMP JUMPDEST DUP3 MSTORE POP POP JUMP JUMPDEST PUSH0 PUSH1 0x20 DUP3 ADD SWAP1 POP PUSH2 0x25C PUSH0 DUP4 ADD DUP5 PUSH2 0x23A JUMP JUMPDEST SWAP3 SWAP2 POP POP JUMP INVALID LOG2 PUSH5 0x6970667358 0x22 SLT KECCAK256 0xDB PUSH8 0x83A5945DA0FBEC3C 0xDA SWAP12 ISZERO 0x25 PUSH5 0xED2C0645DF 0xE7 LT SGT LT 0xD2 0x2C MSTORE8 0x4F 0x24 0x4A 0xD8 JUMPI PUSH5 0x736F6C6343 STOP ADDMOD AND STOP CALLER "
				},
				"gasEstimates": {
					"creation": {
						"codeDepositCost": "132800",
						"executionCost": "88598",
						"totalCost": "221398"
					},
					"external": {
						"externalF()": "2499",
						"publicF()": "2498",
						"setA(uint256)": "22536",
						"setB(uint256)": "22516",
						"setC(uint256)": "22559",
						"setD(uint256)": "22538",
						"testInternalF()": "2511",
						"testPrivateF()": "2466"
					},
					"internal": {
						"internalF()": "2122",
						"privateF()": "2122"
					}
				},
				"methodIdentifiers": {
					"externalF()": "6b4ffb58",
					"publicF()": "f5045550",
					"setA(uint256)": "ee919d50",
					"setB(uint256)": "09cdcf9b",
					"setC(uint256)": "eeb4914e",
					"setD(uint256)": "0b2eeb49",
					"testInternalF()": "1798aaad",
					"testPrivateF()": "d6f1ea3c"
				}
			},
			"storageLayout": {
				"storage": [
					{
						"astId": 4,
						"contract": "Visibility.sol:VISIBILITY",
						"label": "a",
						"offset": 0,
						"slot": "0",
						"type": "t_uint256"
					},
					{
						"astId": 7,
						"contract": "Visibility.sol:VISIBILITY",
						"label": "b",
						"offset": 0,
						"slot": "1",
						"type": "t_uint256"
					},
					{
						"astId": 10,
						"contract": "Visibility.sol:VISIBILITY",
						"label": "c",
						"offset": 0,
						"slot": "2",
						"type": "t_uint256"
					},
					{
						"astId": 13,
						"contract": "Visibility.sol:VISIBILITY",
						"label": "d",
						"offset": 0,
						"slot": "3",
						"type": "t_uint256"
					}
				],
				"types": {
					"t_uint256": {
						"encoding": "inplace",
						"label": "uint256",
						"numberOfBytes": "32"
					}
				}
			},
			"userdoc": {
				"kind": "user",
				"methods": {},
				"version": 1
			}
		}
	}
}