{
	"Visibility.sol": {
		"Child": {
			"abi": [
				{
					"inputs": [],
					"name": "externalF",
					"outputs": [
						{
							"internalType": "uint256",
							"name": "",
							"type": "uint256"
						}
					],
					"stateMutability": "view",
					"type": "function"
				},
				{
					"inputs": [],
					"name": "internal_C",
					"outputs": [
						{
							"internalType": "uint256",
							"name": "",
							"type": "uint256"
						}
					],
					"stateMutability": "view",
					"type": "function"
				},
				{
					"inputs": [],
					"name": "private_C",
					"outputs": [
						{
							"internalType": "uint256",
							"name": "",
							"type": "uint256"
						}
					],
					"stateMutability": "view",
					"type": "function"
				},
				{
					"inputs": [],
					"name": "publicF",
					"outputs": [
						{
							"internalType": "uint256",
							"name": "",
							"type": "uint256"
						}
					],
					"stateMutability": "view",
					"type": "function"
				},
				{
					"inputs": [],
					"name": "public_C",
					"outputs": [
						{
							"internalType": "uint256",
							"name": "",
							"type": "uint256"
						}
					],
					"stateMutability": "view",
					"type": "function"
				},
				{
					"inputs": [
						{
							"internalType": "uint256",
							"name": "_a",
							"type": "uint256"
						}
					],
					"name": "setA",
					"outputs": [],
					"stateMutability": "nonpayable",
					"type": "function"
				},
				{
					"inputs": [
						{
							"internalType": "uint256",
							"name": "_b",
							"type": "uint256"
						}
					],
					"name": "setB",
					"outputs": [],
					"stateMutability": "nonpayable",
					"type": "function"
				},
				{
					"inputs": [
						{
							"internalType": "uint256",
							"name": "_c",
							"type": "uint256"
						}
					],
					"name": "setC",
					"outputs": [],
					"stateMutability": "nonpayable",
					"type": "function"
				},
				{
					"inputs": [
						{
							"internalType": "uint256",
							"name": "_d",
							"type": "uint256"
						}
					],
					"name": "setD",
					"outputs": [],
					"stateMutability": "nonpayable",
					"type": "function"
				},
				{
					"inputs": [],
					"name": "testInternalF",
					"outputs": [
						{
							"internalType": "uint256",
							"name": "",
							"type": "uint256"
						}
					],
					"stateMutability": "view",
					"type": "function"
				},
				{
					"inputs": [],
					"name": "testPrivateF",
					"outputs": [
						{
							"internalType": "uint256",
							"name": "",
							"type": "uint256"
						}
					],
					"stateMutability": "view",
					"type": "function"
				}
			],
			"devdoc": {
				"kind": "dev",
				"methods": {},
				"version": 1
			},
			"evm": {
				"assembly": "    /* \"Visibility.sol\":937:1247  contract Child is VISIBILITY {... */\n  mstore(0x40, 0x80)\n    /* \"Visibility.sol\":107:108  5 */\n  0x05\n    /* \"Visibility.sol\":99:108  uint a =5 */\n  0x00\n  sstore\n    /* \"Visibility.sol\":123:124  7 */\n  0x07\n    /* \"Visibility.sol\":115:124  uint b =7 */\n  0x01\n  sstore\n    /* \"Visibility.sol\":139:140  9 */\n  0x09\n    /* \"Visibility.sol\":131:140  uint c =9 */\n  0x02\n  sstore\n    /* \"Visibility.sol\":155:157  11 */\n  0x0b\n    /* \"Visibility.sol\":147:157  uint d =11 */\n  0x03\n  sstore\n    /* \"Visibility.sol\":937:1247  contract Child is VISIBILITY {... */\n  callvalue\n  dup1\n  iszero\n  tag_1\n  jumpi\n  0x00\n  dup1\n  revert\ntag_1:\n  pop\n  dataSize(sub_0)\n  dup1\n  dataOffset(sub_0)\n  0x00\n  codecopy\n  0x00\n  return\nstop\n\nsub_0: assembly {\n        /* \"Visibility.sol\":937:1247  contract Child is VISIBILITY {... */\n      mstore(0x40, 0x80)\n      callvalue\n      dup1\n      iszero\n      tag_1\n      jumpi\n      0x00\n      dup1\n      revert\n    tag_1:\n      pop\n      jumpi(tag_2, lt(calldatasize, 0x04))\n      shr(0xe0, calldataload(0x00))\n      dup1\n      0x6b4ffb58\n      gt\n      tag_14\n      jumpi\n      dup1\n      0x6b4ffb58\n      eq\n      tag_8\n      jumpi\n      dup1\n      0xd6f1ea3c\n      eq\n      tag_9\n      jumpi\n      dup1\n      0xec39e2b4\n      eq\n      tag_10\n      jumpi\n      dup1\n      0xee919d50\n      eq\n      tag_11\n      jumpi\n      dup1\n      0xeeb4914e\n      eq\n      tag_12\n      jumpi\n      dup1\n      0xf5045550\n      eq\n      tag_13\n      jumpi\n      jump(tag_2)\n    tag_14:\n      dup1\n      0x09cdcf9b\n      eq\n      tag_3\n      jumpi\n      dup1\n      0x0b2eeb49\n      eq\n      tag_4\n      jumpi\n      dup1\n      0x1798aaad\n      eq\n      tag_5\n      jumpi\n      dup1\n      0x5a9ea63b\n      eq\n      tag_6\n      jumpi\n      dup1\n      0x67e5acc5\n      eq\n      tag_7\n      jumpi\n    tag_2:\n      0x00\n      dup1\n      revert\n        /* \"Visibility.sol\":749:804  function setB(uint _b) public {... */\n    tag_3:\n      tag_15\n      0x04\n      dup1\n      calldatasize\n      sub\n      dup2\n      add\n      swap1\n      tag_16\n      swap2\n      swap1\n      tag_17\n      jump\t// in\n    tag_16:\n      tag_18\n      jump\t// in\n    tag_15:\n      stop\n        /* \"Visibility.sol\":875:930  function setD(uint _d) public {... */\n    tag_4:\n      tag_19\n      0x04\n      dup1\n      calldatasize\n      sub\n      dup2\n      add\n      swap1\n      tag_20\n      swap2\n      swap1\n      tag_17\n      jump\t// in\n    tag_20:\n      tag_21\n      jump\t// in\n    tag_19:\n      stop\n        /* \"Visibility.sol\":426:514  function testInternalF() public view returns(uint) {... */\n    tag_5:\n      tag_22\n      tag_23\n      jump\t// in\n    tag_22:\n      mload(0x40)\n      tag_24\n      swap2\n      swap1\n      tag_25\n      jump\t// in\n    tag_24:\n      mload(0x40)\n      dup1\n      swap2\n      sub\n      swap1\n      return\n        /* \"Visibility.sol\":973:1058  function internal_C() public view returns(uint) {... */\n    tag_6:\n      tag_26\n      tag_27\n      jump\t// in\n    tag_26:\n      mload(0x40)\n      tag_28\n      swap2\n      swap1\n      tag_25\n      jump\t// in\n    tag_28:\n      mload(0x40)\n      dup1\n      swap2\n      sub\n      swap1\n      return\n        /* \"Visibility.sol\":1155:1242  function private_C() public view returns(uint) {... */\n    tag_7:\n      tag_29\n      tag_30\n      jump\t// in\n    tag_29:\n      mload(0x40)\n      tag_31\n      swap2\n      swap1\n      tag_25\n      jump\t// in\n    tag_31:\n      mload(0x40)\n      dup1\n      swap2\n      sub\n      swap1\n      return\n        /* \"Visibility.sol\":602:678  function externalF() external view returns(uint) {... */\n    tag_8:\n      tag_32\n      tag_33\n      jump\t// in\n    tag_32:\n      mload(0x40)\n      tag_34\n      swap2\n      swap1\n      tag_25\n      jump\t// in\n    tag_34:\n      mload(0x40)\n      dup1\n      swap2\n      sub\n      swap1\n      return\n        /* \"Visibility.sol\":248:334  function testPrivateF() public view returns(uint) {... */\n    tag_9:\n      tag_35\n      tag_36\n      jump\t// in\n    tag_35:\n      mload(0x40)\n      tag_37\n      swap2\n      swap1\n      tag_25\n      jump\t// in\n    tag_37:\n      mload(0x40)\n      dup1\n      swap2\n      sub\n      swap1\n      return\n        /* \"Visibility.sol\":1066:1147  function public_C() public view returns(uint) {... */\n    tag_10:\n      tag_38\n      tag_39\n      jump\t// in\n    tag_38:\n      mload(0x40)\n      tag_40\n      swap2\n      swap1\n      tag_25\n      jump\t// in\n    tag_40:\n      mload(0x40)\n      dup1\n      swap2\n      sub\n      swap1\n      return\n        /* \"Visibility.sol\":686:741  function setA(uint _a) public {... */\n    tag_11:\n      tag_41\n      0x04\n      dup1\n      calldatasize\n      sub\n      dup2\n      add\n      swap1\n      tag_42\n      swap2\n      swap1\n      tag_17\n      jump\t// in\n    tag_42:\n      tag_43\n      jump\t// in\n    tag_41:\n      stop\n        /* \"Visibility.sol\":812:867  function setC(uint _c) public {... */\n    tag_12:\n      tag_44\n      0x04\n      dup1\n      calldatasize\n      sub\n      dup2\n      add\n      swap1\n      tag_45\n      swap2\n      swap1\n      tag_17\n      jump\t// in\n    tag_45:\n      tag_46\n      jump\t// in\n    tag_44:\n      stop\n        /* \"Visibility.sol\":522:594  function publicF() public view returns(uint) {... */\n    tag_13:\n      tag_47\n      tag_48\n      jump\t// in\n    tag_47:\n      mload(0x40)\n      tag_49\n      swap2\n      swap1\n      tag_25\n      jump\t// in\n    tag_49:\n      mload(0x40)\n      dup1\n      swap2\n      sub\n      swap1\n      return\n        /* \"Visibility.sol\":749:804  function setB(uint _b) public {... */\n    tag_18:\n        /* \"Visibility.sol\":794:796  _b */\n      dup1\n        /* \"Visibility.sol\":790:791  b */\n      0x01\n        /* \"Visibility.sol\":790:796  b = _b */\n      dup2\n      swap1\n      sstore\n      pop\n        /* \"Visibility.sol\":749:804  function setB(uint _b) public {... */\n      pop\n      jump\t// out\n        /* \"Visibility.sol\":875:930  function setD(uint _d) public {... */\n    tag_21:\n        /* \"Visibility.sol\":920:922  _d */\n      dup1\n        /* \"Visibility.sol\":916:917  d */\n      0x03\n        /* \"Visibility.sol\":916:922  d = _d */\n      dup2\n      swap1\n      sstore\n      pop\n        /* \"Visibility.sol\":875:930  function setD(uint _d) public {... */\n      pop\n      jump\t// out\n        /* \"Visibility.sol\":426:514  function testInternalF() public view returns(uint) {... */\n    tag_23:\n        /* \"Visibility.sol\":471:475  uint */\n      0x00\n        /* \"Visibility.sol\":495:506  internalF() */\n      tag_53\n        /* \"Visibility.sol\":495:504  internalF */\n      tag_54\n        /* \"Visibility.sol\":495:506  internalF() */\n      jump\t// in\n    tag_53:\n        /* \"Visibility.sol\":488:506  return internalF() */\n      swap1\n      pop\n        /* \"Visibility.sol\":426:514  function testInternalF() public view returns(uint) {... */\n      swap1\n      jump\t// out\n        /* \"Visibility.sol\":973:1058  function internal_C() public view returns(uint) {... */\n    tag_27:\n        /* \"Visibility.sol\":1015:1019  uint */\n      0x00\n        /* \"Visibility.sol\":1039:1050  internalF() */\n      tag_56\n        /* \"Visibility.sol\":1039:1048  internalF */\n      tag_54\n        /* \"Visibility.sol\":1039:1050  internalF() */\n      jump\t// in\n    tag_56:\n        /* \"Visibility.sol\":1032:1050  return internalF() */\n      swap1\n      pop\n        /* \"Visibility.sol\":973:1058  function internal_C() public view returns(uint) {... */\n      swap1\n      jump\t// out\n        /* \"Visibility.sol\":1155:1242  function private_C() public view returns(uint) {... */\n    tag_30:\n        /* \"Visibility.sol\":1196:1200  uint */\n      0x00\n        /* \"Visibility.sol\":1220:1234  testPrivateF() */\n      tag_58\n        /* \"Visibility.sol\":1220:1232  testPrivateF */\n      tag_36\n        /* \"Visibility.sol\":1220:1234  testPrivateF() */\n      jump\t// in\n    tag_58:\n        /* \"Visibility.sol\":1213:1234  return testPrivateF() */\n      swap1\n      pop\n        /* \"Visibility.sol\":1155:1242  function private_C() public view returns(uint) {... */\n      swap1\n      jump\t// out\n        /* \"Visibility.sol\":602:678  function externalF() external view returns(uint) {... */\n    tag_33:\n        /* \"Visibility.sol\":645:649  uint */\n      0x00\n        /* \"Visibility.sol\":669:670  d */\n      sload(0x03)\n        /* \"Visibility.sol\":662:670  return d */\n      swap1\n      pop\n        /* \"Visibility.sol\":602:678  function externalF() external view returns(uint) {... */\n      swap1\n      jump\t// out\n        /* \"Visibility.sol\":248:334  function testPrivateF() public view returns(uint) {... */\n    tag_36:\n        /* \"Visibility.sol\":292:296  uint */\n      0x00\n        /* \"Visibility.sol\":316:326  privateF() */\n      tag_61\n        /* \"Visibility.sol\":316:324  privateF */\n      tag_62\n        /* \"Visibility.sol\":316:326  privateF() */\n      jump\t// in\n    tag_61:\n        /* \"Visibility.sol\":309:326  return privateF() */\n      swap1\n      pop\n        /* \"Visibility.sol\":248:334  function testPrivateF() public view returns(uint) {... */\n      swap1\n      jump\t// out\n        /* \"Visibility.sol\":1066:1147  function public_C() public view returns(uint) {... */\n    tag_39:\n        /* \"Visibility.sol\":1106:1110  uint */\n      0x00\n        /* \"Visibility.sol\":1130:1139  publicF() */\n      tag_64\n        /* \"Visibility.sol\":1130:1137  publicF */\n      tag_48\n        /* \"Visibility.sol\":1130:1139  publicF() */\n      jump\t// in\n    tag_64:\n        /* \"Visibility.sol\":1123:1139  return publicF() */\n      swap1\n      pop\n        /* \"Visibility.sol\":1066:1147  function public_C() public view returns(uint) {... */\n      swap1\n      jump\t// out\n        /* \"Visibility.sol\":686:741  function setA(uint _a) public {... */\n    tag_43:\n        /* \"Visibility.sol\":731:733  _a */\n      dup1\n        /* \"Visibility.sol\":727:728  a */\n      0x00\n        /* \"Visibility.sol\":727:733  a = _a */\n      dup2\n      swap1\n      sstore\n      pop\n        /* \"Visibility.sol\":686:741  function setA(uint _a) public {... */\n      pop\n      jump\t// out\n        /* \"Visibility.sol\":812:867  function setC(uint _c) public {... */\n    tag_46:\n        /* \"Visibility.sol\":857:859  _c */\n      dup1\n        /* \"Visibility.sol\":853:854  c */\n      0x02\n        /* \"Visibility.sol\":853:859  c = _c */\n      dup2\n      swap1\n      sstore\n      pop\n        /* \"Visibility.sol\":812:867  function setC(uint _c) public {... */\n      pop\n      jump\t// out\n        /* \"Visibility.sol\":522:594  function publicF() public view returns(uint) {... */\n    tag_48:\n        /* \"Visibility.sol\":561:565  uint */\n      0x00\n        /* \"Visibility.sol\":585:586  c */\n      sload(0x02)\n        /* \"Visibility.sol\":578:586  return c */\n      swap1\n      pop\n        /* \"Visibility.sol\":522:594  function publicF() public view returns(uint) {... */\n      swap1\n      jump\t// out\n        /* \"Visibility.sol\":342:418  function internalF() internal view returns(uint) {... */\n    tag_54:\n        /* \"Visibility.sol\":385:389  uint */\n      0x00\n        /* \"Visibility.sol\":409:410  b */\n      sload(0x01)\n        /* \"Visibility.sol\":402:410  return b */\n      swap1\n      pop\n        /* \"Visibility.sol\":342:418  function internalF() internal view returns(uint) {... */\n      swap1\n      jump\t// out\n        /* \"Visibility.sol\":166:240  function privateF() private view returns(uint) {... */\n    tag_62:\n        /* \"Visibility.sol\":207:211  uint */\n      0x00\n        /* \"Visibility.sol\":231:232  a */\n      dup1\n      sload\n        /* \"Visibility.sol\":224:232  return a */\n      swap1\n      pop\n        /* \"Visibility.sol\":166:240  function privateF() private view returns(uint) {... */\n      swap1\n      jump\t// out\n        /* \"#utility.yul\":88:205   */\n    tag_71:\n        /* \"#utility.yul\":197:198   */\n      0x00\n        /* \"#utility.yul\":194:195   */\n      dup1\n        /* \"#utility.yul\":187:199   */\n      revert\n        /* \"#utility.yul\":334:411   */\n    tag_73:\n        /* \"#utility.yul\":371:378   */\n      0x00\n        /* \"#utility.yul\":400:405   */\n      dup2\n        /* \"#utility.yul\":389:405   */\n      swap1\n      pop\n        /* \"#utility.yul\":334:411   */\n      swap2\n      swap1\n      pop\n      jump\t// out\n        /* \"#utility.yul\":417:539   */\n    tag_74:\n        /* \"#utility.yul\":490:514   */\n      tag_83\n        /* \"#utility.yul\":508:513   */\n      dup2\n        /* \"#utility.yul\":490:514   */\n      tag_73\n      jump\t// in\n    tag_83:\n        /* \"#utility.yul\":483:488   */\n      dup2\n        /* \"#utility.yul\":480:515   */\n      eq\n        /* \"#utility.yul\":470:533   */\n      tag_84\n      jumpi\n        /* \"#utility.yul\":529:530   */\n      0x00\n        /* \"#utility.yul\":526:527   */\n      dup1\n        /* \"#utility.yul\":519:531   */\n      revert\n        /* \"#utility.yul\":470:533   */\n    tag_84:\n        /* \"#utility.yul\":417:539   */\n      pop\n      jump\t// out\n        /* \"#utility.yul\":545:684   */\n    tag_75:\n        /* \"#utility.yul\":591:596   */\n      0x00\n        /* \"#utility.yul\":629:635   */\n      dup2\n        /* \"#utility.yul\":616:636   */\n      calldataload\n        /* \"#utility.yul\":607:636   */\n      swap1\n      pop\n        /* \"#utility.yul\":645:678   */\n      tag_86\n        /* \"#utility.yul\":672:677   */\n      dup2\n        /* \"#utility.yul\":645:678   */\n      tag_74\n      jump\t// in\n    tag_86:\n        /* \"#utility.yul\":545:684   */\n      swap3\n      swap2\n      pop\n      pop\n      jump\t// out\n        /* \"#utility.yul\":690:1019   */\n    tag_17:\n        /* \"#utility.yul\":749:755   */\n      0x00\n        /* \"#utility.yul\":798:800   */\n      0x20\n        /* \"#utility.yul\":786:795   */\n      dup3\n        /* \"#utility.yul\":777:784   */\n      dup5\n        /* \"#utility.yul\":773:796   */\n      sub\n        /* \"#utility.yul\":769:801   */\n      slt\n        /* \"#utility.yul\":766:885   */\n      iszero\n      tag_88\n      jumpi\n        /* \"#utility.yul\":804:883   */\n      tag_89\n      tag_71\n      jump\t// in\n    tag_89:\n        /* \"#utility.yul\":766:885   */\n    tag_88:\n        /* \"#utility.yul\":924:925   */\n      0x00\n        /* \"#utility.yul\":949:1002   */\n      tag_90\n        /* \"#utility.yul\":994:1001   */\n      dup5\n        /* \"#utility.yul\":985:991   */\n      dup3\n        /* \"#utility.yul\":974:983   */\n      dup6\n        /* \"#utility.yul\":970:992   */\n      add\n        /* \"#utility.yul\":949:1002   */\n      tag_75\n      jump\t// in\n    tag_90:\n        /* \"#utility.yul\":939:1002   */\n      swap2\n      pop\n        /* \"#utility.yul\":895:1012   */\n      pop\n        /* \"#utility.yul\":690:1019   */\n      swap3\n      swap2\n      pop\n      pop\n      jump\t// out\n        /* \"#utility.yul\":1025:1143   */\n    tag_76:\n        /* \"#utility.yul\":1112:1136   */\n      tag_92\n        /* \"#utility.yul\":1130:1135   */\n      dup2\n        /* \"#utility.yul\":1112:1136   */\n      tag_73\n      jump\t// in\n    tag_92:\n        /* \"#utility.yul\":1107:1110   */\n      dup3\n        /* \"#utility.yul\":1100:1137   */\n      mstore\n        /* \"#utility.yul\":1025:1143   */\n      pop\n      pop\n      jump\t// out\n        /* \"#utility.yul\":1149:1371   */\n    tag_25:\n        /* \"#utility.yul\":1242:1246   */\n      0x00\n        /* \"#utility.yul\":1280:1282   */\n      0x20\n        /* \"#utility.yul\":1269:1278   */\n      dup3\n        /* \"#utility.yul\":1265:1283   */\n      add\n        /* \"#utility.yul\":1257:1283   */\n      swap1\n      pop\n        /* \"#utility.yul\":1293:1364   */\n      tag_94\n        /* \"#utility.yul\":1361:1362   */\n      0x00\n        /* \"#utility.yul\":1350:1359   */\n      dup4\n        /* \"#utility.yul\":1346:1363   */\n      add\n        /* \"#utility.yul\":1337:1343   */\n      dup5\n        /* \"#utility.yul\":1293:1364   */\n      tag_76\n      jump\t// in\n    tag_94:\n        /* \"#utility.yul\":1149:1371   */\n      swap3\n      swap2\n      pop\n      pop\n      jump\t// out\n\n    auxdata: 0xa2646970667358221220a380a95d9954f60818997c20bb9fc625781a75f20eb2b73c1a74eb0913ae388064736f6c63430008160033\n}\n",
				"bytecode": {
					"linkReferences": {},
					"object": "608060405260055f5560076001556009600255600b600355348015610022575f80fd5b5061033d806100305f395ff3fe608060405234801561000f575f80fd5b50600436106100a7575f3560e01c80636b4ffb581161006f5780636b4ffb581461013d578063d6f1ea3c1461015b578063ec39e2b414610179578063ee919d5014610197578063eeb4914e146101b3578063f5045550146101cf576100a7565b806309cdcf9b146100ab5780630b2eeb49146100c75780631798aaad146100e35780635a9ea63b1461010157806367e5acc51461011f575b5f80fd5b6100c560048036038101906100c091906102b4565b6101ed565b005b6100e160048036038101906100dc91906102b4565b6101f7565b005b6100eb610201565b6040516100f891906102ee565b60405180910390f35b61010961020f565b60405161011691906102ee565b60405180910390f35b61012761021d565b60405161013491906102ee565b60405180910390f35b61014561022b565b60405161015291906102ee565b60405180910390f35b610163610234565b60405161017091906102ee565b60405180910390f35b610181610242565b60405161018e91906102ee565b60405180910390f35b6101b160048036038101906101ac91906102b4565b610250565b005b6101cd60048036038101906101c891906102b4565b610259565b005b6101d7610263565b6040516101e491906102ee565b60405180910390f35b8060018190555050565b8060038190555050565b5f61020a61026c565b905090565b5f61021861026c565b905090565b5f610226610234565b905090565b5f600354905090565b5f61023d610275565b905090565b5f61024b610263565b905090565b805f8190555050565b8060028190555050565b5f600254905090565b5f600154905090565b5f8054905090565b5f80fd5b5f819050919050565b61029381610281565b811461029d575f80fd5b50565b5f813590506102ae8161028a565b92915050565b5f602082840312156102c9576102c861027d565b5b5f6102d6848285016102a0565b91505092915050565b6102e881610281565b82525050565b5f6020820190506103015f8301846102df565b9291505056fea2646970667358221220a380a95d9954f60818997c20bb9fc625781a75f20eb2b73c1a74eb0913ae388064736f6c63430008160033",
					"opcodes": "PUSH1 0x80 PUSH1 0x40 MSTORE PUSH1 0x5 PUSH0 SSTORE PUSH1 0x7 PUSH1 0x1 SSTORE PUSH1 0x9 PUSH1 0x2 SSTORE PUSH1 0xB PUSH1 0x3 SSTORE CALLVALUE DUP1 ISZERO PUSH2 0x22 JUMPI PUSH0 DUP1 REVERT JUMPDEST POP PUSH2 0x33D DUP1 PUSH2 0x30 PUSH0 CODECOPY PUSH0 RETURN INVALID PUSH1 0x80 PUSH1 0x40 MSTORE CALLVALUE DUP1 ISZERO PUSH2 0xF JUMPI PUSH0 DUP1 REVERT JUMPDEST POP PUSH1 0x4 CALLDATASIZE LT PUSH2 0xA7 JUMPI PUSH0 CALLDATALOAD PUSH1 0xE0 SHR DUP1 PUSH4 0x6B4FFB58 GT PUSH2 0x6F JUMPI DUP1 PUSH4 0x6B4FFB58 EQ PUSH2 0x13D JUMPI DUP1 PUSH4 0xD6F1EA3C EQ PUSH2 0x15B JUMPI DUP1 PUSH4 0xEC39E2B4 EQ PUSH2 0x179 JUMPI DUP1 PUSH4 0xEE919D50 EQ PUSH2 0x197 JUMPI DUP1 PUSH4 0xEEB4914E EQ PUSH2 0x1B3 JUMPI DUP1 PUSH4 0xF5045550 EQ PUSH2 0x1CF JUMPI PUSH2 0xA7 JUMP JUMPDEST DUP1 PUSH4 0x9CDCF9B EQ PUSH2 0xAB JUMPI DUP1 PUSH4 0xB2EEB49 EQ PUSH2 0xC7 JUMPI DUP1 PUSH4 0x1798AAAD EQ PUSH2 0xE3 JUMPI DUP1 PUSH4 0x5A9EA63B EQ PUSH2 0x101 JUMPI DUP1 PUSH4 0x67E5ACC5 EQ PUSH2 0x11F JUMPI JUMPDEST PUSH0 DUP1 REVERT JUMPDEST PUSH2 0xC5 PUSH1 0x4 DUP1 CALLDATASIZE SUB DUP2 ADD SWAP1 PUSH2 0xC0 SWAP2 SWAP1 PUSH2 0x2B4 JUMP JUMPDEST PUSH2 0x1ED JUMP JUMPDEST STOP JUMPDEST PUSH2 0xE1 PUSH1 0x4 DUP1 CALLDATASIZE SUB DUP2 ADD SWAP1 PUSH2 0xDC SWAP2 SWAP1 PUSH2 0x2B4 JUMP JUMPDEST PUSH2 0x1F7 JUMP JUMPDEST STOP JUMPDEST PUSH2 0xEB PUSH2 0x201 JUMP JUMPDEST PUSH1 0x40 MLOAD PUSH2 0xF8 SWAP2 SWAP1 PUSH2 0x2EE JUMP JUMPDEST PUSH1 0x40 MLOAD DUP1 SWAP2 SUB SWAP1 RETURN JUMPDEST PUSH2 0x109 PUSH2 0x20F JUMP JUMPDEST PUSH1 0x40 MLOAD PUSH2 0x116 SWAP2 SWAP1 PUSH2 0x2EE JUMP JUMPDEST PUSH1 0x40 MLOAD DUP1 SWAP2 SUB SWAP1 RETURN JUMPDEST PUSH2 0x127 PUSH2 0x21D JUMP JUMPDEST PUSH1 0x40 MLOAD PUSH2 0x134 SWAP2 SWAP1 PUSH2 0x2EE JUMP JUMPDEST PUSH1 0x40 MLOAD DUP1 SWAP2 SUB SWAP1 RETURN JUMPDEST PUSH2 0x145 PUSH2 0x22B JUMP JUMPDEST PUSH1 0x40 MLOAD PUSH2 0x152 SWAP2 SWAP1 PUSH2 0x2EE JUMP JUMPDEST PUSH1 0x40 MLOAD DUP1 SWAP2 SUB SWAP1 RETURN JUMPDEST PUSH2 0x163 PUSH2 0x234 JUMP JUMPDEST PUSH1 0x40 MLOAD PUSH2 0x170 SWAP2 SWAP1 PUSH2 0x2EE JUMP JUMPDEST PUSH1 0x40 MLOAD DUP1 SWAP2 SUB SWAP1 RETURN JUMPDEST PUSH2 0x181 PUSH2 0x242 JUMP JUMPDEST PUSH1 0x40 MLOAD PUSH2 0x18E SWAP2 SWAP1 PUSH2 0x2EE JUMP JUMPDEST PUSH1 0x40 MLOAD DUP1 SWAP2 SUB SWAP1 RETURN JUMPDEST PUSH2 0x1B1 PUSH1 0x4 DUP1 CALLDATASIZE SUB DUP2 ADD SWAP1 PUSH2 0x1AC SWAP2 SWAP1 PUSH2 0x2B4 JUMP JUMPDEST PUSH2 0x250 JUMP JUMPDEST STOP JUMPDEST PUSH2 0x1CD PUSH1 0x4 DUP1 CALLDATASIZE SUB DUP2 ADD SWAP1 PUSH2 0x1C8 SWAP2 SWAP1 PUSH2 0x2B4 JUMP JUMPDEST PUSH2 0x259 JUMP JUMPDEST STOP JUMPDEST PUSH2 0x1D7 PUSH2 0x263 JUMP JUMPDEST PUSH1 0x40 MLOAD PUSH2 0x1E4 SWAP2 SWAP1 PUSH2 0x2EE JUMP JUMPDEST PUSH1 0x40 MLOAD DUP1 SWAP2 SUB SWAP1 RETURN JUMPDEST DUP1 PUSH1 0x1 DUP2 SWAP1 SSTORE POP POP JUMP JUMPDEST DUP1 PUSH1 0x3 DUP2 SWAP1 SSTORE POP POP JUMP JUMPDEST PUSH0 PUSH2 0x20A PUSH2 0x26C JUMP JUMPDEST SWAP1 POP SWAP1 JUMP JUMPDEST PUSH0 PUSH2 0x218 PUSH2 0x26C JUMP JUMPDEST SWAP1 POP SWAP1 JUMP JUMPDEST PUSH0 PUSH2 0x226 PUSH2 0x234 JUMP JUMPDEST SWAP1 POP SWAP1 JUMP JUMPDEST PUSH0 PUSH1 0x3 SLOAD SWAP1 POP SWAP1 JUMP JUMPDEST PUSH0 PUSH2 0x23D PUSH2 0x275 JUMP JUMPDEST SWAP1 POP SWAP1 JUMP JUMPDEST PUSH0 PUSH2 0x24B PUSH2 0x263 JUMP JUMPDEST SWAP1 POP SWAP1 JUMP JUMPDEST DUP1 PUSH0 DUP2 SWAP1 SSTORE POP POP JUMP JUMPDEST DUP1 PUSH1 0x2 DUP2 SWAP1 SSTORE POP POP JUMP JUMPDEST PUSH0 PUSH1 0x2 SLOAD SWAP1 POP SWAP1 JUMP JUMPDEST PUSH0 PUSH1 0x1 SLOAD SWAP1 POP SWAP1 JUMP JUMPDEST PUSH0 DUP1 SLOAD SWAP1 POP SWAP1 JUMP JUMPDEST PUSH0 DUP1 REVERT JUMPDEST PUSH0 DUP2 SWAP1 POP SWAP2 SWAP1 POP JUMP JUMPDEST PUSH2 0x293 DUP2 PUSH2 0x281 JUMP JUMPDEST DUP2 EQ PUSH2 0x29D JUMPI PUSH0 DUP1 REVERT JUMPDEST POP JUMP JUMPDEST PUSH0 DUP2 CALLDATALOAD SWAP1 POP PUSH2 0x2AE DUP2 PUSH2 0x28A JUMP JUMPDEST SWAP3 SWAP2 POP POP JUMP JUMPDEST PUSH0 PUSH1 0x20 DUP3 DUP5 SUB SLT ISZERO PUSH2 0x2C9 JUMPI PUSH2 0x2C8 PUSH2 0x27D JUMP JUMPDEST JUMPDEST PUSH0 PUSH2 0x2D6 DUP5 DUP3 DUP6 ADD PUSH2 0x2A0 JUMP JUMPDEST SWAP2 POP POP SWAP3 SWAP2 POP POP JUMP JUMPDEST PUSH2 0x2E8 DUP2 PUSH2 0x281 JUMP JUMPDEST DUP3 MSTORE POP POP JUMP JUMPDEST PUSH0 PUSH1 0x20 DUP3 ADD SWAP1 POP PUSH2 0x301 PUSH0 DUP4 ADD DUP5 PUSH2 0x2DF JUMP JUMPDEST SWAP3 SWAP2 POP POP JUMP INVALID LOG2 PUSH5 0x6970667358 0x22 SLT KECCAK256 LOG3 DUP1 0xA9 0x5D SWAP10 SLOAD 0xF6 ADDMOD XOR SWAP10 PUSH29 0x20BB9FC625781A75F20EB2B73C1A74EB0913AE388064736F6C63430008 AND STOP CALLER "
				},
				"gasEstimates": {
					"creation": {
						"codeDepositCost": "165800",
						"executionCost": "88629",
						"totalCost": "254429"
					},
					"external": {
						"externalF()": "2432",
						"internal_C()": "2533",
						"private_C()": "2589",
						"publicF()": "2542",
						"public_C()": "2510",
						"setA(uint256)": "22580",
						"setB(uint256)": "22516",
						"setC(uint256)": "22603",
						"setD(uint256)": "22538",
						"testInternalF()": "2511",
						"testPrivateF()": "2488"
					}
				},
				"methodIdentifiers": {
					"externalF()": "6b4ffb58",
					"internal_C()": "5a9ea63b",
					"private_C()": "67e5acc5",
					"publicF()": "f5045550",
					"public_C()": "ec39e2b4",
					"setA(uint256)": "ee919d50",
					"setB(uint256)": "09cdcf9b",
					"setC(uint256)": "eeb4914e",
					"setD(uint256)": "0b2eeb49",
					"testInternalF()": "1798aaad",
					"testPrivateF()": "d6f1ea3c"
				}
			},
			"storageLayout": {
				"storage": [
					{
						"astId": 4,
						"contract": "Visibility.sol:Child",
						"label": "a",
						"offset": 0,
						"slot": "0",
						"type": "t_uint256"
					},
					{
						"astId": 7,
						"contract": "Visibility.sol:Child",
						"label": "b",
						"offset": 0,
						"slot": "1",
						"type": "t_uint256"
					},
					{
						"astId": 10,
						"contract": "Visibility.sol:Child",
						"label": "c",
						"offset": 0,
						"slot": "2",
						"type": "t_uint256"
					},
					{
						"astId": 13,
						"contract": "Visibility.sol:Child",
						"label": "d",
						"offset": 0,
						"slot": "3",
						"type": "t_uint256"
					}
				],
				"types": {
					"t_uint256": {
						"encoding": "inplace",
						"label": "uint256",
						"numberOfBytes": "32"
					}
				}
			},
			"userdoc": {
				"kind": "user",
				"methods": {},
				"version": 1
			}
		}
	}
}