{
	"Test_20231122.sol": {
		"MyClass": {
			"abi": [
				{
					"inputs": [],
					"name": "evaluateTeacher",
					"outputs": [
						{
							"internalType": "bool",
							"name": "",
							"type": "bool"
						}
					],
					"stateMutability": "view",
					"type": "function"
				},
				{
					"inputs": [],
					"name": "getAllStudentInfos",
					"outputs": [
						{
							"components": [
								{
									"internalType": "uint256",
									"name": "number",
									"type": "uint256"
								},
								{
									"internalType": "uint256",
									"name": "score",
									"type": "uint256"
								},
								{
									"internalType": "string",
									"name": "grade",
									"type": "string"
								}
							],
							"internalType": "struct MyClass.StudentInfo[]",
							"name": "",
							"type": "tuple[]"
						}
					],
					"stateMutability": "view",
					"type": "function"
				},
				{
					"inputs": [],
					"name": "getAvgOfScore",
					"outputs": [
						{
							"internalType": "uint256",
							"name": "",
							"type": "uint256"
						}
					],
					"stateMutability": "view",
					"type": "function"
				},
				{
					"inputs": [],
					"name": "getFClassInfo",
					"outputs": [
						{
							"components": [
								{
									"internalType": "uint256",
									"name": "number",
									"type": "uint256"
								},
								{
									"internalType": "uint256",
									"name": "score",
									"type": "uint256"
								},
								{
									"internalType": "string",
									"name": "grade",
									"type": "string"
								}
							],
							"internalType": "struct MyClass.StudentInfo[]",
							"name": "",
							"type": "tuple[]"
						}
					],
					"stateMutability": "view",
					"type": "function"
				},
				{
					"inputs": [
						{
							"internalType": "uint256",
							"name": "_score",
							"type": "uint256"
						}
					],
					"name": "getGrade",
					"outputs": [
						{
							"internalType": "string",
							"name": "",
							"type": "string"
						}
					],
					"stateMutability": "pure",
					"type": "function"
				},
				{
					"inputs": [],
					"name": "getNumFClass",
					"outputs": [
						{
							"internalType": "uint256",
							"name": "",
							"type": "uint256"
						}
					],
					"stateMutability": "view",
					"type": "function"
				},
				{
					"inputs": [],
					"name": "getNumOfStudents",
					"outputs": [
						{
							"internalType": "uint256",
							"name": "",
							"type": "uint256"
						}
					],
					"stateMutability": "view",
					"type": "function"
				},
				{
					"inputs": [
						{
							"internalType": "string",
							"name": "_name",
							"type": "string"
						}
					],
					"name": "getStudentByName",
					"outputs": [
						{
							"components": [
								{
									"internalType": "uint256",
									"name": "number",
									"type": "uint256"
								},
								{
									"internalType": "uint256",
									"name": "score",
									"type": "uint256"
								},
								{
									"internalType": "string",
									"name": "grade",
									"type": "string"
								}
							],
							"internalType": "struct MyClass.StudentInfo",
							"name": "",
							"type": "tuple"
						}
					],
					"stateMutability": "view",
					"type": "function"
				},
				{
					"inputs": [
						{
							"internalType": "uint256",
							"name": "_number",
							"type": "uint256"
						}
					],
					"name": "getStudentByNumber",
					"outputs": [
						{
							"components": [
								{
									"internalType": "uint256",
									"name": "number",
									"type": "uint256"
								},
								{
									"internalType": "uint256",
									"name": "score",
									"type": "uint256"
								},
								{
									"internalType": "string",
									"name": "grade",
									"type": "string"
								}
							],
							"internalType": "struct MyClass.StudentInfo",
							"name": "",
							"type": "tuple"
						}
					],
					"stateMutability": "view",
					"type": "function"
				},
				{
					"inputs": [
						{
							"internalType": "string",
							"name": "_name",
							"type": "string"
						}
					],
					"name": "getStudentScoreByName",
					"outputs": [
						{
							"internalType": "uint256",
							"name": "",
							"type": "uint256"
						}
					],
					"stateMutability": "view",
					"type": "function"
				},
				{
					"inputs": [],
					"name": "getTop4Info",
					"outputs": [
						{
							"components": [
								{
									"internalType": "uint256",
									"name": "number",
									"type": "uint256"
								},
								{
									"internalType": "uint256",
									"name": "score",
									"type": "uint256"
								},
								{
									"internalType": "string",
									"name": "grade",
									"type": "string"
								}
							],
							"internalType": "struct MyClass.StudentInfo[4]",
							"name": "",
							"type": "tuple[4]"
						}
					],
					"stateMutability": "view",
					"type": "function"
				},
				{
					"inputs": [],
					"name": "initStudentsList",
					"outputs": [],
					"stateMutability": "nonpayable",
					"type": "function"
				},
				{
					"inputs": [
						{
							"internalType": "string",
							"name": "_name",
							"type": "string"
						},
						{
							"internalType": "uint256",
							"name": "_number",
							"type": "uint256"
						},
						{
							"internalType": "uint256",
							"name": "_score",
							"type": "uint256"
						}
					],
					"name": "setStudent",
					"outputs": [],
					"stateMutability": "nonpayable",
					"type": "function"
				}
			],
			"devdoc": {
				"kind": "dev",
				"methods": {},
				"version": 1
			},
			"evm": {
				"assembly": "    /* \"Test_20231122.sol\":72:6730  contract MyClass {... */\n  mstore(0x40, 0x80)\n  callvalue\n  dup1\n  iszero\n  tag_1\n  jumpi\n  0x00\n  dup1\n  revert\ntag_1:\n  pop\n  dataSize(sub_0)\n  dup1\n  dataOffset(sub_0)\n  0x00\n  codecopy\n  0x00\n  return\nstop\n\nsub_0: assembly {\n        /* \"Test_20231122.sol\":72:6730  contract MyClass {... */\n      mstore(0x40, 0x80)\n      callvalue\n      dup1\n      iszero\n      tag_1\n      jumpi\n      0x00\n      dup1\n      revert\n    tag_1:\n      pop\n      jumpi(tag_2, lt(calldatasize, 0x04))\n      shr(0xe0, calldataload(0x00))\n      dup1\n      0x83b41ad8\n      gt\n      tag_16\n      jumpi\n      dup1\n      0xb5b71ac9\n      gt\n      tag_17\n      jumpi\n      dup1\n      0xb5b71ac9\n      eq\n      tag_12\n      jumpi\n      dup1\n      0xd7bc51a7\n      eq\n      tag_13\n      jumpi\n      dup1\n      0xe1e0485e\n      eq\n      tag_14\n      jumpi\n      dup1\n      0xf6b0797c\n      eq\n      tag_15\n      jumpi\n      jump(tag_2)\n    tag_17:\n      dup1\n      0x83b41ad8\n      eq\n      tag_9\n      jumpi\n      dup1\n      0x8f5801ed\n      eq\n      tag_10\n      jumpi\n      dup1\n      0xa41f985e\n      eq\n      tag_11\n      jumpi\n      jump(tag_2)\n    tag_16:\n      dup1\n      0x077ff0c0\n      eq\n      tag_3\n      jumpi\n      dup1\n      0x0e44180b\n      eq\n      tag_4\n      jumpi\n      dup1\n      0x27f7c259\n      eq\n      tag_5\n      jumpi\n      dup1\n      0x2cd07b5a\n      eq\n      tag_6\n      jumpi\n      dup1\n      0x3e618841\n      eq\n      tag_7\n      jumpi\n      dup1\n      0x82fae9b7\n      eq\n      tag_8\n      jumpi\n    tag_2:\n      0x00\n      dup1\n      revert\n        /* \"Test_20231122.sol\":3421:3545  function getStudentScoreByName(string memory _name) public view returns(uint){... */\n    tag_3:\n      tag_18\n      0x04\n      dup1\n      calldatasize\n      sub\n      dup2\n      add\n      swap1\n      tag_19\n      swap2\n      swap1\n      tag_20\n      jump\t// in\n    tag_19:\n      tag_21\n      jump\t// in\n    tag_18:\n      mload(0x40)\n      tag_22\n      swap2\n      swap1\n      tag_23\n      jump\t// in\n    tag_22:\n      mload(0x40)\n      dup1\n      swap2\n      sub\n      swap1\n      return\n        /* \"Test_20231122.sol\":3855:3964  function getAllStudentInfos() public view returns(StudentInfo[] memory){... */\n    tag_4:\n      tag_24\n      tag_25\n      jump\t// in\n    tag_24:\n      mload(0x40)\n      tag_26\n      swap2\n      swap1\n      tag_27\n      jump\t// in\n    tag_26:\n      mload(0x40)\n      dup1\n      swap2\n      sub\n      swap1\n      return\n        /* \"Test_20231122.sol\":4479:4660  function evaluateTeacher() public view returns(bool) {... */\n    tag_5:\n      tag_28\n      tag_29\n      jump\t// in\n    tag_28:\n      mload(0x40)\n      tag_30\n      swap2\n      swap1\n      tag_31\n      jump\t// in\n    tag_30:\n      mload(0x40)\n      dup1\n      swap2\n      sub\n      swap1\n      return\n        /* \"Test_20231122.sol\":5716:6725  function getTop4Info() public view returns(StudentInfo[4] memory) {... */\n    tag_6:\n      tag_32\n      tag_33\n      jump\t// in\n    tag_32:\n      mload(0x40)\n      tag_34\n      swap2\n      swap1\n      tag_35\n      jump\t// in\n    tag_34:\n      mload(0x40)\n      dup1\n      swap2\n      sub\n      swap1\n      return\n        /* \"Test_20231122.sol\":5080:5504  function getFClassInfo() public view returns(StudentInfo[] memory) {... */\n    tag_7:\n      tag_36\n      tag_37\n      jump\t// in\n    tag_36:\n      mload(0x40)\n      tag_38\n      swap2\n      swap1\n      tag_27\n      jump\t// in\n    tag_38:\n      mload(0x40)\n      dup1\n      swap2\n      sub\n      swap1\n      return\n        /* \"Test_20231122.sol\":2329:2571  function setStudent(string memory _name, uint _number, uint _score) public {        ... */\n    tag_8:\n      tag_39\n      0x04\n      dup1\n      calldatasize\n      sub\n      dup2\n      add\n      swap1\n      tag_40\n      swap2\n      swap1\n      tag_41\n      jump\t// in\n    tag_40:\n      tag_42\n      jump\t// in\n    tag_39:\n      stop\n        /* \"Test_20231122.sol\":3175:3302  function getStudentByName(string memory _name) public view returns(StudentInfo memory){... */\n    tag_9:\n      tag_43\n      0x04\n      dup1\n      calldatasize\n      sub\n      dup2\n      add\n      swap1\n      tag_44\n      swap2\n      swap1\n      tag_20\n      jump\t// in\n    tag_44:\n      tag_45\n      jump\t// in\n    tag_43:\n      mload(0x40)\n      tag_46\n      swap2\n      swap1\n      tag_47\n      jump\t// in\n    tag_46:\n      mload(0x40)\n      dup1\n      swap2\n      sub\n      swap1\n      return\n        /* \"Test_20231122.sol\":3647:3746  function getNumOfStudents() public view returns(uint) {... */\n    tag_10:\n      tag_48\n      tag_49\n      jump\t// in\n    tag_48:\n      mload(0x40)\n      tag_50\n      swap2\n      swap1\n      tag_23\n      jump\t// in\n    tag_50:\n      mload(0x40)\n      dup1\n      swap2\n      sub\n      swap1\n      return\n        /* \"Test_20231122.sol\":2690:3056  function getStudentByNumber(uint _number) public view returns(StudentInfo memory){... */\n    tag_11:\n      tag_51\n      0x04\n      dup1\n      calldatasize\n      sub\n      dup2\n      add\n      swap1\n      tag_52\n      swap2\n      swap1\n      tag_53\n      jump\t// in\n    tag_52:\n      tag_54\n      jump\t// in\n    tag_51:\n      mload(0x40)\n      tag_55\n      swap2\n      swap1\n      tag_47\n      jump\t// in\n    tag_55:\n      mload(0x40)\n      dup1\n      swap2\n      sub\n      swap1\n      return\n        /* \"Test_20231122.sol\":4076:4325  function getAvgOfScore() public view returns(uint) {... */\n    tag_12:\n      tag_56\n      tag_57\n      jump\t// in\n    tag_56:\n      mload(0x40)\n      tag_58\n      swap2\n      swap1\n      tag_23\n      jump\t// in\n    tag_58:\n      mload(0x40)\n      dup1\n      swap2\n      sub\n      swap1\n      return\n        /* \"Test_20231122.sol\":910:2255  function initStudentsList() public {... */\n    tag_13:\n      tag_59\n      tag_60\n      jump\t// in\n    tag_59:\n      stop\n        /* \"Test_20231122.sol\":401:829  function getGrade(uint _score) public pure returns(string memory) {... */\n    tag_14:\n      tag_61\n      0x04\n      dup1\n      calldatasize\n      sub\n      dup2\n      add\n      swap1\n      tag_62\n      swap2\n      swap1\n      tag_53\n      jump\t// in\n    tag_62:\n      tag_63\n      jump\t// in\n    tag_61:\n      mload(0x40)\n      tag_64\n      swap2\n      swap1\n      tag_65\n      jump\t// in\n    tag_64:\n      mload(0x40)\n      dup1\n      swap2\n      sub\n      swap1\n      return\n        /* \"Test_20231122.sol\":4774:5072  function getNumFClass() public view returns(uint) {... */\n    tag_15:\n      tag_66\n      tag_67\n      jump\t// in\n    tag_66:\n      mload(0x40)\n      tag_68\n      swap2\n      swap1\n      tag_23\n      jump\t// in\n    tag_68:\n      mload(0x40)\n      dup1\n      swap2\n      sub\n      swap1\n      return\n        /* \"Test_20231122.sol\":3421:3545  function getStudentScoreByName(string memory _name) public view returns(uint){... */\n    tag_21:\n        /* \"Test_20231122.sol\":3493:3497  uint */\n      0x00\n        /* \"Test_20231122.sol\":3516:3524  students */\n      dup1\n        /* \"Test_20231122.sol\":3525:3530  _name */\n      dup3\n        /* \"Test_20231122.sol\":3516:3531  students[_name] */\n      mload(0x40)\n      tag_70\n      swap2\n      swap1\n      tag_71\n      jump\t// in\n    tag_70:\n      swap1\n      dup2\n      mstore\n      0x20\n      add\n      mload(0x40)\n      dup1\n      swap2\n      sub\n      swap1\n      keccak256\n        /* \"Test_20231122.sol\":3516:3537  students[_name].score */\n      0x01\n      add\n      sload\n        /* \"Test_20231122.sol\":3509:3537  return students[_name].score */\n      swap1\n      pop\n        /* \"Test_20231122.sol\":3421:3545  function getStudentScoreByName(string memory _name) public view returns(uint){... */\n      swap2\n      swap1\n      pop\n      jump\t// out\n        /* \"Test_20231122.sol\":3855:3964  function getAllStudentInfos() public view returns(StudentInfo[] memory){... */\n    tag_25:\n        /* \"Test_20231122.sol\":3905:3925  StudentInfo[] memory */\n      0x60\n        /* \"Test_20231122.sol\":3944:3956  studentArray */\n      0x01\n        /* \"Test_20231122.sol\":3937:3956  return studentArray */\n      dup1\n      sload\n      dup1\n      0x20\n      mul\n      0x20\n      add\n      mload(0x40)\n      swap1\n      dup2\n      add\n      0x40\n      mstore\n      dup1\n      swap3\n      swap2\n      swap1\n      dup2\n      dup2\n      mstore\n      0x20\n      add\n      0x00\n      swap1\n    tag_73:\n      dup3\n      dup3\n      lt\n      iszero\n      tag_74\n      jumpi\n      dup4\n      dup3\n      swap1\n      0x00\n      mstore\n      keccak256(0x00, 0x20)\n      swap1\n      0x03\n      mul\n      add\n      mload(0x40)\n      dup1\n      0x60\n      add\n      0x40\n      mstore\n      swap1\n      dup2\n      0x00\n      dup3\n      add\n      sload\n      dup2\n      mstore\n      0x20\n      add\n      0x01\n      dup3\n      add\n      sload\n      dup2\n      mstore\n      0x20\n      add\n      0x02\n      dup3\n      add\n      dup1\n      sload\n      tag_76\n      swap1\n      tag_77\n      jump\t// in\n    tag_76:\n      dup1\n      0x1f\n      add\n      0x20\n      dup1\n      swap2\n      div\n      mul\n      0x20\n      add\n      mload(0x40)\n      swap1\n      dup2\n      add\n      0x40\n      mstore\n      dup1\n      swap3\n      swap2\n      swap1\n      dup2\n      dup2\n      mstore\n      0x20\n      add\n      dup3\n      dup1\n      sload\n      tag_78\n      swap1\n      tag_77\n      jump\t// in\n    tag_78:\n      dup1\n      iszero\n      tag_79\n      jumpi\n      dup1\n      0x1f\n      lt\n      tag_80\n      jumpi\n      0x0100\n      dup1\n      dup4\n      sload\n      div\n      mul\n      dup4\n      mstore\n      swap2\n      0x20\n      add\n      swap2\n      jump(tag_79)\n    tag_80:\n      dup3\n      add\n      swap2\n      swap1\n      0x00\n      mstore\n      keccak256(0x00, 0x20)\n      swap1\n    tag_81:\n      dup2\n      sload\n      dup2\n      mstore\n      swap1\n      0x01\n      add\n      swap1\n      0x20\n      add\n      dup1\n      dup4\n      gt\n      tag_81\n      jumpi\n      dup3\n      swap1\n      sub\n      0x1f\n      and\n      dup3\n      add\n      swap2\n    tag_79:\n      pop\n      pop\n      pop\n      pop\n      pop\n      dup2\n      mstore\n      pop\n      pop\n      dup2\n      mstore\n      0x20\n      add\n      swap1\n      0x01\n      add\n      swap1\n      jump(tag_73)\n    tag_74:\n      pop\n      pop\n      pop\n      pop\n      swap1\n      pop\n        /* \"Test_20231122.sol\":3855:3964  function getAllStudentInfos() public view returns(StudentInfo[] memory){... */\n      swap1\n      jump\t// out\n        /* \"Test_20231122.sol\":4479:4660  function evaluateTeacher() public view returns(bool) {... */\n    tag_29:\n        /* \"Test_20231122.sol\":4526:4530  bool */\n      0x00\n        /* \"Test_20231122.sol\":4566:4568  70 */\n      0x46\n        /* \"Test_20231122.sol\":4547:4562  getAvgOfScore() */\n      tag_83\n        /* \"Test_20231122.sol\":4547:4560  getAvgOfScore */\n      tag_57\n        /* \"Test_20231122.sol\":4547:4562  getAvgOfScore() */\n      jump\t// in\n    tag_83:\n        /* \"Test_20231122.sol\":4547:4568  getAvgOfScore() >= 70 */\n      lt\n        /* \"Test_20231122.sol\":4543:4653  if( getAvgOfScore() >= 70 ){... */\n      tag_84\n      jumpi\n        /* \"Test_20231122.sol\":4592:4596  true */\n      0x01\n        /* \"Test_20231122.sol\":4585:4596  return true */\n      swap1\n      pop\n      jump(tag_82)\n        /* \"Test_20231122.sol\":4543:4653  if( getAvgOfScore() >= 70 ){... */\n    tag_84:\n        /* \"Test_20231122.sol\":4636:4641  false */\n      0x00\n        /* \"Test_20231122.sol\":4629:4641  return false */\n      swap1\n      pop\n        /* \"Test_20231122.sol\":4479:4660  function evaluateTeacher() public view returns(bool) {... */\n    tag_82:\n      swap1\n      jump\t// out\n        /* \"Test_20231122.sol\":5716:6725  function getTop4Info() public view returns(StudentInfo[4] memory) {... */\n    tag_33:\n        /* \"Test_20231122.sol\":5759:5780  StudentInfo[4] memory */\n      tag_86\n      tag_87\n      jump\t// in\n    tag_86:\n        /* \"Test_20231122.sol\":5857:5887  StudentInfo[4] memory Top4Info */\n      tag_89\n      tag_87\n      jump\t// in\n    tag_89:\n        /* \"Test_20231122.sol\":5939:5954  uint tmp_length */\n      0x00\n        /* \"Test_20231122.sol\":5957:5975  getNumOfStudents() */\n      tag_90\n        /* \"Test_20231122.sol\":5957:5973  getNumOfStudents */\n      tag_49\n        /* \"Test_20231122.sol\":5957:5975  getNumOfStudents() */\n      jump\t// in\n    tag_90:\n        /* \"Test_20231122.sol\":5939:5975  uint tmp_length = getNumOfStudents() */\n      swap1\n      pop\n        /* \"Test_20231122.sol\":5986:6015  StudentInfo[] memory tempInfo */\n      0x00\n        /* \"Test_20231122.sol\":6036:6046  tmp_length */\n      dup2\n        /* \"Test_20231122.sol\":6018:6047  new StudentInfo[](tmp_length) */\n      0xffffffffffffffff\n      dup2\n      gt\n      iszero\n      tag_91\n      jumpi\n      tag_92\n      tag_93\n      jump\t// in\n    tag_92:\n    tag_91:\n      mload(0x40)\n      swap1\n      dup1\n      dup3\n      mstore\n      dup1\n      0x20\n      mul\n      0x20\n      add\n      dup3\n      add\n      0x40\n      mstore\n      dup1\n      iszero\n      tag_94\n      jumpi\n      dup2\n      0x20\n      add\n    tag_95:\n      tag_96\n      tag_97\n      jump\t// in\n    tag_96:\n      dup2\n      mstore\n      0x20\n      add\n      swap1\n      0x01\n      swap1\n      sub\n      swap1\n      dup2\n      tag_95\n      jumpi\n      swap1\n      pop\n    tag_94:\n      pop\n        /* \"Test_20231122.sol\":5986:6047  StudentInfo[] memory tempInfo = new StudentInfo[](tmp_length) */\n      swap1\n      pop\n        /* \"Test_20231122.sol\":6077:6089  studentArray */\n      0x01\n        /* \"Test_20231122.sol\":6066:6089  tempInfo = studentArray */\n      dup1\n      sload\n      dup1\n      0x20\n      mul\n      0x20\n      add\n      mload(0x40)\n      swap1\n      dup2\n      add\n      0x40\n      mstore\n      dup1\n      swap3\n      swap2\n      swap1\n      dup2\n      dup2\n      mstore\n      0x20\n      add\n      0x00\n      swap1\n    tag_98:\n      dup3\n      dup3\n      lt\n      iszero\n      tag_99\n      jumpi\n      dup4\n      dup3\n      swap1\n      0x00\n      mstore\n      keccak256(0x00, 0x20)\n      swap1\n      0x03\n      mul\n      add\n      mload(0x40)\n      dup1\n      0x60\n      add\n      0x40\n      mstore\n      swap1\n      dup2\n      0x00\n      dup3\n      add\n      sload\n      dup2\n      mstore\n      0x20\n      add\n      0x01\n      dup3\n      add\n      sload\n      dup2\n      mstore\n      0x20\n      add\n      0x02\n      dup3\n      add\n      dup1\n      sload\n      tag_101\n      swap1\n      tag_77\n      jump\t// in\n    tag_101:\n      dup1\n      0x1f\n      add\n      0x20\n      dup1\n      swap2\n      div\n      mul\n      0x20\n      add\n      mload(0x40)\n      swap1\n      dup2\n      add\n      0x40\n      mstore\n      dup1\n      swap3\n      swap2\n      swap1\n      dup2\n      dup2\n      mstore\n      0x20\n      add\n      dup3\n      dup1\n      sload\n      tag_102\n      swap1\n      tag_77\n      jump\t// in\n    tag_102:\n      dup1\n      iszero\n      tag_103\n      jumpi\n      dup1\n      0x1f\n      lt\n      tag_104\n      jumpi\n      0x0100\n      dup1\n      dup4\n      sload\n      div\n      mul\n      dup4\n      mstore\n      swap2\n      0x20\n      add\n      swap2\n      jump(tag_103)\n    tag_104:\n      dup3\n      add\n      swap2\n      swap1\n      0x00\n      mstore\n      keccak256(0x00, 0x20)\n      swap1\n    tag_105:\n      dup2\n      sload\n      dup2\n      mstore\n      swap1\n      0x01\n      add\n      swap1\n      0x20\n      add\n      dup1\n      dup4\n      gt\n      tag_105\n      jumpi\n      dup3\n      swap1\n      sub\n      0x1f\n      and\n      dup3\n      add\n      swap2\n    tag_103:\n      pop\n      pop\n      pop\n      pop\n      pop\n      dup2\n      mstore\n      pop\n      pop\n      dup2\n      mstore\n      0x20\n      add\n      swap1\n      0x01\n      add\n      swap1\n      jump(tag_98)\n    tag_99:\n      pop\n      pop\n      pop\n      pop\n      swap1\n      pop\n        /* \"Test_20231122.sol\":6102:6137  StudentInfo memory temp_studentinfo */\n      tag_106\n      tag_97\n      jump\t// in\n    tag_106:\n        /* \"Test_20231122.sol\":6207:6213  uint i */\n      0x00\n        /* \"Test_20231122.sol\":6203:6570  for(uint i=0; i < tmp_length-1; i++){... */\n    tag_107:\n        /* \"Test_20231122.sol\":6232:6233  1 */\n      0x01\n        /* \"Test_20231122.sol\":6221:6231  tmp_length */\n      dup5\n        /* \"Test_20231122.sol\":6221:6233  tmp_length-1 */\n      tag_110\n      swap2\n      swap1\n      tag_111\n      jump\t// in\n    tag_110:\n        /* \"Test_20231122.sol\":6217:6218  i */\n      dup2\n        /* \"Test_20231122.sol\":6217:6233  i < tmp_length-1 */\n      lt\n        /* \"Test_20231122.sol\":6203:6570  for(uint i=0; i < tmp_length-1; i++){... */\n      iszero\n      tag_108\n      jumpi\n        /* \"Test_20231122.sol\":6258:6264  uint j */\n      0x00\n        /* \"Test_20231122.sol\":6254:6547  for(uint j=0; j < tmp_length-1; j++){... */\n    tag_112:\n        /* \"Test_20231122.sol\":6283:6284  1 */\n      0x01\n        /* \"Test_20231122.sol\":6272:6282  tmp_length */\n      dup6\n        /* \"Test_20231122.sol\":6272:6284  tmp_length-1 */\n      tag_115\n      swap2\n      swap1\n      tag_111\n      jump\t// in\n    tag_115:\n        /* \"Test_20231122.sol\":6268:6269  j */\n      dup2\n        /* \"Test_20231122.sol\":6268:6284  j < tmp_length-1 */\n      lt\n        /* \"Test_20231122.sol\":6254:6547  for(uint j=0; j < tmp_length-1; j++){... */\n      iszero\n      tag_113\n      jumpi\n        /* \"Test_20231122.sol\":6333:6341  tempInfo */\n      dup4\n        /* \"Test_20231122.sol\":6344:6345  1 */\n      0x01\n        /* \"Test_20231122.sol\":6342:6343  j */\n      dup3\n        /* \"Test_20231122.sol\":6342:6345  j+1 */\n      tag_116\n      swap2\n      swap1\n      tag_117\n      jump\t// in\n    tag_116:\n        /* \"Test_20231122.sol\":6333:6346  tempInfo[j+1] */\n      dup2\n      mload\n      dup2\n      lt\n      tag_118\n      jumpi\n      tag_119\n      tag_120\n      jump\t// in\n    tag_119:\n    tag_118:\n      0x20\n      mul\n      0x20\n      add\n      add\n      mload\n        /* \"Test_20231122.sol\":6333:6352  tempInfo[j+1].score */\n      0x20\n      add\n      mload\n        /* \"Test_20231122.sol\":6313:6321  tempInfo */\n      dup5\n        /* \"Test_20231122.sol\":6322:6323  j */\n      dup3\n        /* \"Test_20231122.sol\":6313:6324  tempInfo[j] */\n      dup2\n      mload\n      dup2\n      lt\n      tag_121\n      jumpi\n      tag_122\n      tag_120\n      jump\t// in\n    tag_122:\n    tag_121:\n      0x20\n      mul\n      0x20\n      add\n      add\n      mload\n        /* \"Test_20231122.sol\":6313:6330  tempInfo[j].score */\n      0x20\n      add\n      mload\n        /* \"Test_20231122.sol\":6313:6352  tempInfo[j].score < tempInfo[j+1].score */\n      lt\n        /* \"Test_20231122.sol\":6309:6532  if( tempInfo[j].score < tempInfo[j+1].score ){... */\n      iszero\n      tag_123\n      jumpi\n        /* \"Test_20231122.sol\":6396:6404  tempInfo */\n      dup4\n        /* \"Test_20231122.sol\":6405:6406  j */\n      dup2\n        /* \"Test_20231122.sol\":6396:6407  tempInfo[j] */\n      dup2\n      mload\n      dup2\n      lt\n      tag_124\n      jumpi\n      tag_125\n      tag_120\n      jump\t// in\n    tag_125:\n    tag_124:\n      0x20\n      mul\n      0x20\n      add\n      add\n      mload\n        /* \"Test_20231122.sol\":6377:6407  temp_studentinfo = tempInfo[j] */\n      swap3\n      pop\n        /* \"Test_20231122.sol\":6444:6452  tempInfo */\n      dup4\n        /* \"Test_20231122.sol\":6455:6456  1 */\n      0x01\n        /* \"Test_20231122.sol\":6453:6454  j */\n      dup3\n        /* \"Test_20231122.sol\":6453:6456  j+1 */\n      tag_126\n      swap2\n      swap1\n      tag_117\n      jump\t// in\n    tag_126:\n        /* \"Test_20231122.sol\":6444:6457  tempInfo[j+1] */\n      dup2\n      mload\n      dup2\n      lt\n      tag_127\n      jumpi\n      tag_128\n      tag_120\n      jump\t// in\n    tag_128:\n    tag_127:\n      0x20\n      mul\n      0x20\n      add\n      add\n      mload\n        /* \"Test_20231122.sol\":6430:6438  tempInfo */\n      dup5\n        /* \"Test_20231122.sol\":6439:6440  j */\n      dup3\n        /* \"Test_20231122.sol\":6430:6441  tempInfo[j] */\n      dup2\n      mload\n      dup2\n      lt\n      tag_129\n      jumpi\n      tag_130\n      tag_120\n      jump\t// in\n    tag_130:\n    tag_129:\n      0x20\n      mul\n      0x20\n      add\n      add\n        /* \"Test_20231122.sol\":6430:6457  tempInfo[j] = tempInfo[j+1] */\n      dup2\n      swap1\n      mstore\n      pop\n        /* \"Test_20231122.sol\":6496:6512  temp_studentinfo */\n      dup3\n        /* \"Test_20231122.sol\":6480:6488  tempInfo */\n      dup5\n        /* \"Test_20231122.sol\":6491:6492  1 */\n      0x01\n        /* \"Test_20231122.sol\":6489:6490  j */\n      dup4\n        /* \"Test_20231122.sol\":6489:6492  j+1 */\n      tag_131\n      swap2\n      swap1\n      tag_117\n      jump\t// in\n    tag_131:\n        /* \"Test_20231122.sol\":6480:6493  tempInfo[j+1] */\n      dup2\n      mload\n      dup2\n      lt\n      tag_132\n      jumpi\n      tag_133\n      tag_120\n      jump\t// in\n    tag_133:\n    tag_132:\n      0x20\n      mul\n      0x20\n      add\n      add\n        /* \"Test_20231122.sol\":6480:6512  tempInfo[j+1] = temp_studentinfo */\n      dup2\n      swap1\n      mstore\n      pop\n        /* \"Test_20231122.sol\":6309:6532  if( tempInfo[j].score < tempInfo[j+1].score ){... */\n    tag_123:\n        /* \"Test_20231122.sol\":6286:6289  j++ */\n      dup1\n      dup1\n      0x01\n      add\n      swap2\n      pop\n      pop\n        /* \"Test_20231122.sol\":6254:6547  for(uint j=0; j < tmp_length-1; j++){... */\n      jump(tag_112)\n    tag_113:\n      pop\n        /* \"Test_20231122.sol\":6235:6238  i++ */\n      dup1\n      dup1\n      0x01\n      add\n      swap2\n      pop\n      pop\n        /* \"Test_20231122.sol\":6203:6570  for(uint i=0; i < tmp_length-1; i++){... */\n      jump(tag_107)\n    tag_108:\n      pop\n        /* \"Test_20231122.sol\":6617:6623  uint i */\n      0x00\n        /* \"Test_20231122.sol\":6613:6690  for(uint i=0; i < 4; i++){... */\n    tag_134:\n        /* \"Test_20231122.sol\":6631:6632  4 */\n      0x04\n        /* \"Test_20231122.sol\":6627:6628  i */\n      dup2\n        /* \"Test_20231122.sol\":6627:6632  i < 4 */\n      lt\n        /* \"Test_20231122.sol\":6613:6690  for(uint i=0; i < 4; i++){... */\n      iszero\n      tag_135\n      jumpi\n        /* \"Test_20231122.sol\":6667:6675  tempInfo */\n      dup3\n        /* \"Test_20231122.sol\":6676:6677  i */\n      dup2\n        /* \"Test_20231122.sol\":6667:6678  tempInfo[i] */\n      dup2\n      mload\n      dup2\n      lt\n      tag_137\n      jumpi\n      tag_138\n      tag_120\n      jump\t// in\n    tag_138:\n    tag_137:\n      0x20\n      mul\n      0x20\n      add\n      add\n      mload\n        /* \"Test_20231122.sol\":6653:6661  Top4Info */\n      dup6\n        /* \"Test_20231122.sol\":6662:6663  i */\n      dup3\n        /* \"Test_20231122.sol\":6653:6664  Top4Info[i] */\n      0x04\n      dup2\n      lt\n      tag_139\n      jumpi\n      tag_140\n      tag_120\n      jump\t// in\n    tag_140:\n    tag_139:\n      0x20\n      mul\n      add\n        /* \"Test_20231122.sol\":6653:6678  Top4Info[i] = tempInfo[i] */\n      dup2\n      swap1\n      mstore\n      pop\n        /* \"Test_20231122.sol\":6634:6637  i++ */\n      dup1\n      dup1\n      0x01\n      add\n      swap2\n      pop\n      pop\n        /* \"Test_20231122.sol\":6613:6690  for(uint i=0; i < 4; i++){... */\n      jump(tag_134)\n    tag_135:\n      pop\n        /* \"Test_20231122.sol\":6709:6717  Top4Info */\n      dup4\n        /* \"Test_20231122.sol\":6702:6717  return Top4Info */\n      swap5\n      pop\n      pop\n      pop\n      pop\n      pop\n        /* \"Test_20231122.sol\":5716:6725  function getTop4Info() public view returns(StudentInfo[4] memory) {... */\n      swap1\n      jump\t// out\n        /* \"Test_20231122.sol\":5080:5504  function getFClassInfo() public view returns(StudentInfo[] memory) {... */\n    tag_37:\n        /* \"Test_20231122.sol\":5125:5145  StudentInfo[] memory */\n      0x60\n        /* \"Test_20231122.sol\":5158:5168  uint index */\n      0x00\n        /* \"Test_20231122.sol\":5179:5209  StudentInfo[] memory FStudents */\n      dup1\n        /* \"Test_20231122.sol\":5230:5244  getNumFClass() */\n      tag_142\n        /* \"Test_20231122.sol\":5230:5242  getNumFClass */\n      tag_67\n        /* \"Test_20231122.sol\":5230:5244  getNumFClass() */\n      jump\t// in\n    tag_142:\n        /* \"Test_20231122.sol\":5212:5245  new StudentInfo[](getNumFClass()) */\n      0xffffffffffffffff\n      dup2\n      gt\n      iszero\n      tag_143\n      jumpi\n      tag_144\n      tag_93\n      jump\t// in\n    tag_144:\n    tag_143:\n      mload(0x40)\n      swap1\n      dup1\n      dup3\n      mstore\n      dup1\n      0x20\n      mul\n      0x20\n      add\n      dup3\n      add\n      0x40\n      mstore\n      dup1\n      iszero\n      tag_145\n      jumpi\n      dup2\n      0x20\n      add\n    tag_146:\n      tag_147\n      tag_97\n      jump\t// in\n    tag_147:\n      dup2\n      mstore\n      0x20\n      add\n      swap1\n      0x01\n      swap1\n      sub\n      swap1\n      dup2\n      tag_146\n      jumpi\n      swap1\n      pop\n    tag_145:\n      pop\n        /* \"Test_20231122.sol\":5179:5245  StudentInfo[] memory FStudents = new StudentInfo[](getNumFClass()) */\n      swap1\n      pop\n        /* \"Test_20231122.sol\":5262:5268  uint i */\n      0x00\n        /* \"Test_20231122.sol\":5258:5468  for(uint i; i < studentArray.length; i++){... */\n    tag_148:\n        /* \"Test_20231122.sol\":5274:5286  studentArray */\n      0x01\n        /* \"Test_20231122.sol\":5274:5293  studentArray.length */\n      dup1\n      sload\n      swap1\n      pop\n        /* \"Test_20231122.sol\":5270:5271  i */\n      dup2\n        /* \"Test_20231122.sol\":5270:5293  i < studentArray.length */\n      lt\n        /* \"Test_20231122.sol\":5258:5468  for(uint i; i < studentArray.length; i++){... */\n      iszero\n      tag_149\n      jumpi\n        /* \"Test_20231122.sol\":5342:5344  60 */\n      0x3c\n        /* \"Test_20231122.sol\":5318:5330  studentArray */\n      0x01\n        /* \"Test_20231122.sol\":5331:5332  i */\n      dup3\n        /* \"Test_20231122.sol\":5318:5333  studentArray[i] */\n      dup2\n      sload\n      dup2\n      lt\n      tag_151\n      jumpi\n      tag_152\n      tag_120\n      jump\t// in\n    tag_152:\n    tag_151:\n      swap1\n      0x00\n      mstore\n      keccak256(0x00, 0x20)\n      swap1\n      0x03\n      mul\n      add\n        /* \"Test_20231122.sol\":5318:5339  studentArray[i].score */\n      0x01\n      add\n      sload\n        /* \"Test_20231122.sol\":5318:5344  studentArray[i].score < 60 */\n      lt\n        /* \"Test_20231122.sol\":5314:5457  if( studentArray[i].score < 60 ){... */\n      iszero\n      tag_154\n      jumpi\n        /* \"Test_20231122.sol\":5384:5396  studentArray */\n      0x01\n        /* \"Test_20231122.sol\":5397:5398  i */\n      dup2\n        /* \"Test_20231122.sol\":5384:5399  studentArray[i] */\n      dup2\n      sload\n      dup2\n      lt\n      tag_155\n      jumpi\n      tag_156\n      tag_120\n      jump\t// in\n    tag_156:\n    tag_155:\n      swap1\n      0x00\n      mstore\n      keccak256(0x00, 0x20)\n      swap1\n      0x03\n      mul\n      add\n        /* \"Test_20231122.sol\":5365:5399  FStudents[index] = studentArray[i] */\n      mload(0x40)\n      dup1\n      0x60\n      add\n      0x40\n      mstore\n      swap1\n      dup2\n      0x00\n      dup3\n      add\n      sload\n      dup2\n      mstore\n      0x20\n      add\n      0x01\n      dup3\n      add\n      sload\n      dup2\n      mstore\n      0x20\n      add\n      0x02\n      dup3\n      add\n      dup1\n      sload\n      tag_158\n      swap1\n      tag_77\n      jump\t// in\n    tag_158:\n      dup1\n      0x1f\n      add\n      0x20\n      dup1\n      swap2\n      div\n      mul\n      0x20\n      add\n      mload(0x40)\n      swap1\n      dup2\n      add\n      0x40\n      mstore\n      dup1\n      swap3\n      swap2\n      swap1\n      dup2\n      dup2\n      mstore\n      0x20\n      add\n      dup3\n      dup1\n      sload\n      tag_159\n      swap1\n      tag_77\n      jump\t// in\n    tag_159:\n      dup1\n      iszero\n      tag_160\n      jumpi\n      dup1\n      0x1f\n      lt\n      tag_161\n      jumpi\n      0x0100\n      dup1\n      dup4\n      sload\n      div\n      mul\n      dup4\n      mstore\n      swap2\n      0x20\n      add\n      swap2\n      jump(tag_160)\n    tag_161:\n      dup3\n      add\n      swap2\n      swap1\n      0x00\n      mstore\n      keccak256(0x00, 0x20)\n      swap1\n    tag_162:\n      dup2\n      sload\n      dup2\n      mstore\n      swap1\n      0x01\n      add\n      swap1\n      0x20\n      add\n      dup1\n      dup4\n      gt\n      tag_162\n      jumpi\n      dup3\n      swap1\n      sub\n      0x1f\n      and\n      dup3\n      add\n      swap2\n    tag_160:\n      pop\n      pop\n      pop\n      pop\n      pop\n      dup2\n      mstore\n      pop\n      pop\n        /* \"Test_20231122.sol\":5365:5374  FStudents */\n      dup3\n        /* \"Test_20231122.sol\":5375:5380  index */\n      dup5\n        /* \"Test_20231122.sol\":5365:5381  FStudents[index] */\n      dup2\n      mload\n      dup2\n      lt\n      tag_163\n      jumpi\n      tag_164\n      tag_120\n      jump\t// in\n    tag_164:\n    tag_163:\n      0x20\n      mul\n      0x20\n      add\n      add\n        /* \"Test_20231122.sol\":5365:5399  FStudents[index] = studentArray[i] */\n      dup2\n      swap1\n      mstore\n      pop\n        /* \"Test_20231122.sol\":5418:5425  index++ */\n      dup3\n      dup1\n      tag_165\n      swap1\n      tag_166\n      jump\t// in\n    tag_165:\n      swap4\n      pop\n      pop\n        /* \"Test_20231122.sol\":5314:5457  if( studentArray[i].score < 60 ){... */\n    tag_154:\n        /* \"Test_20231122.sol\":5295:5298  i++ */\n      dup1\n      dup1\n      0x01\n      add\n      swap2\n      pop\n      pop\n        /* \"Test_20231122.sol\":5258:5468  for(uint i; i < studentArray.length; i++){... */\n      jump(tag_148)\n    tag_149:\n      pop\n        /* \"Test_20231122.sol\":5487:5496  FStudents */\n      dup1\n        /* \"Test_20231122.sol\":5480:5496  return FStudents */\n      swap3\n      pop\n      pop\n      pop\n        /* \"Test_20231122.sol\":5080:5504  function getFClassInfo() public view returns(StudentInfo[] memory) {... */\n      swap1\n      jump\t// out\n        /* \"Test_20231122.sol\":2329:2571  function setStudent(string memory _name, uint _number, uint _score) public {        ... */\n    tag_42:\n        /* \"Test_20231122.sol\":2441:2487  StudentInfo(_number, _score, getGrade(_score)) */\n      mload(0x40)\n      dup1\n      0x60\n      add\n      0x40\n      mstore\n      dup1\n        /* \"Test_20231122.sol\":2453:2460  _number */\n      dup4\n        /* \"Test_20231122.sol\":2441:2487  StudentInfo(_number, _score, getGrade(_score)) */\n      dup2\n      mstore\n      0x20\n      add\n        /* \"Test_20231122.sol\":2462:2468  _score */\n      dup3\n        /* \"Test_20231122.sol\":2441:2487  StudentInfo(_number, _score, getGrade(_score)) */\n      dup2\n      mstore\n      0x20\n      add\n        /* \"Test_20231122.sol\":2470:2486  getGrade(_score) */\n      tag_168\n        /* \"Test_20231122.sol\":2479:2485  _score */\n      dup4\n        /* \"Test_20231122.sol\":2470:2478  getGrade */\n      tag_63\n        /* \"Test_20231122.sol\":2470:2486  getGrade(_score) */\n      jump\t// in\n    tag_168:\n        /* \"Test_20231122.sol\":2441:2487  StudentInfo(_number, _score, getGrade(_score)) */\n      dup2\n      mstore\n      pop\n        /* \"Test_20231122.sol\":2423:2431  students */\n      0x00\n        /* \"Test_20231122.sol\":2432:2437  _name */\n      dup5\n        /* \"Test_20231122.sol\":2423:2438  students[_name] */\n      mload(0x40)\n      tag_169\n      swap2\n      swap1\n      tag_71\n      jump\t// in\n    tag_169:\n      swap1\n      dup2\n      mstore\n      0x20\n      add\n      mload(0x40)\n      dup1\n      swap2\n      sub\n      swap1\n      keccak256\n        /* \"Test_20231122.sol\":2423:2487  students[_name] = StudentInfo(_number, _score, getGrade(_score)) */\n      0x00\n      dup3\n      add\n      mload\n      dup2\n      0x00\n      add\n      sstore\n      0x20\n      dup3\n      add\n      mload\n      dup2\n      0x01\n      add\n      sstore\n      0x40\n      dup3\n      add\n      mload\n      dup2\n      0x02\n      add\n      swap1\n      dup2\n      tag_170\n      swap2\n      swap1\n      tag_171\n      jump\t// in\n    tag_170:\n      pop\n      swap1\n      pop\n      pop\n        /* \"Test_20231122.sol\":2498:2510  studentArray */\n      0x01\n        /* \"Test_20231122.sol\":2516:2562  StudentInfo(_number, _score, getGrade(_score)) */\n      mload(0x40)\n      dup1\n      0x60\n      add\n      0x40\n      mstore\n      dup1\n        /* \"Test_20231122.sol\":2528:2535  _number */\n      dup5\n        /* \"Test_20231122.sol\":2516:2562  StudentInfo(_number, _score, getGrade(_score)) */\n      dup2\n      mstore\n      0x20\n      add\n        /* \"Test_20231122.sol\":2537:2543  _score */\n      dup4\n        /* \"Test_20231122.sol\":2516:2562  StudentInfo(_number, _score, getGrade(_score)) */\n      dup2\n      mstore\n      0x20\n      add\n        /* \"Test_20231122.sol\":2545:2561  getGrade(_score) */\n      tag_172\n        /* \"Test_20231122.sol\":2554:2560  _score */\n      dup5\n        /* \"Test_20231122.sol\":2545:2553  getGrade */\n      tag_63\n        /* \"Test_20231122.sol\":2545:2561  getGrade(_score) */\n      jump\t// in\n    tag_172:\n        /* \"Test_20231122.sol\":2516:2562  StudentInfo(_number, _score, getGrade(_score)) */\n      dup2\n      mstore\n      pop\n        /* \"Test_20231122.sol\":2498:2563  studentArray.push(StudentInfo(_number, _score, getGrade(_score))) */\n      swap1\n      dup1\n      0x01\n      dup2\n      sload\n      add\n      dup1\n      dup3\n      sstore\n      dup1\n      swap2\n      pop\n      pop\n      0x01\n      swap1\n      sub\n      swap1\n      0x00\n      mstore\n      keccak256(0x00, 0x20)\n      swap1\n      0x03\n      mul\n      add\n      0x00\n      swap1\n      swap2\n      swap1\n      swap2\n      swap1\n      swap2\n      pop\n      0x00\n      dup3\n      add\n      mload\n      dup2\n      0x00\n      add\n      sstore\n      0x20\n      dup3\n      add\n      mload\n      dup2\n      0x01\n      add\n      sstore\n      0x40\n      dup3\n      add\n      mload\n      dup2\n      0x02\n      add\n      swap1\n      dup2\n      tag_174\n      swap2\n      swap1\n      tag_171\n      jump\t// in\n    tag_174:\n      pop\n      pop\n      pop\n        /* \"Test_20231122.sol\":2329:2571  function setStudent(string memory _name, uint _number, uint _score) public {        ... */\n      pop\n      pop\n      pop\n      jump\t// out\n        /* \"Test_20231122.sol\":3175:3302  function getStudentByName(string memory _name) public view returns(StudentInfo memory){... */\n    tag_45:\n        /* \"Test_20231122.sol\":3242:3260  StudentInfo memory */\n      tag_175\n      tag_97\n      jump\t// in\n    tag_175:\n        /* \"Test_20231122.sol\":3279:3287  students */\n      0x00\n        /* \"Test_20231122.sol\":3288:3293  _name */\n      dup3\n        /* \"Test_20231122.sol\":3279:3294  students[_name] */\n      mload(0x40)\n      tag_177\n      swap2\n      swap1\n      tag_71\n      jump\t// in\n    tag_177:\n      swap1\n      dup2\n      mstore\n      0x20\n      add\n      mload(0x40)\n      dup1\n      swap2\n      sub\n      swap1\n      keccak256\n        /* \"Test_20231122.sol\":3272:3294  return students[_name] */\n      mload(0x40)\n      dup1\n      0x60\n      add\n      0x40\n      mstore\n      swap1\n      dup2\n      0x00\n      dup3\n      add\n      sload\n      dup2\n      mstore\n      0x20\n      add\n      0x01\n      dup3\n      add\n      sload\n      dup2\n      mstore\n      0x20\n      add\n      0x02\n      dup3\n      add\n      dup1\n      sload\n      tag_178\n      swap1\n      tag_77\n      jump\t// in\n    tag_178:\n      dup1\n      0x1f\n      add\n      0x20\n      dup1\n      swap2\n      div\n      mul\n      0x20\n      add\n      mload(0x40)\n      swap1\n      dup2\n      add\n      0x40\n      mstore\n      dup1\n      swap3\n      swap2\n      swap1\n      dup2\n      dup2\n      mstore\n      0x20\n      add\n      dup3\n      dup1\n      sload\n      tag_179\n      swap1\n      tag_77\n      jump\t// in\n    tag_179:\n      dup1\n      iszero\n      tag_180\n      jumpi\n      dup1\n      0x1f\n      lt\n      tag_181\n      jumpi\n      0x0100\n      dup1\n      dup4\n      sload\n      div\n      mul\n      dup4\n      mstore\n      swap2\n      0x20\n      add\n      swap2\n      jump(tag_180)\n    tag_181:\n      dup3\n      add\n      swap2\n      swap1\n      0x00\n      mstore\n      keccak256(0x00, 0x20)\n      swap1\n    tag_182:\n      dup2\n      sload\n      dup2\n      mstore\n      swap1\n      0x01\n      add\n      swap1\n      0x20\n      add\n      dup1\n      dup4\n      gt\n      tag_182\n      jumpi\n      dup3\n      swap1\n      sub\n      0x1f\n      and\n      dup3\n      add\n      swap2\n    tag_180:\n      pop\n      pop\n      pop\n      pop\n      pop\n      dup2\n      mstore\n      pop\n      pop\n      swap1\n      pop\n        /* \"Test_20231122.sol\":3175:3302  function getStudentByName(string memory _name) public view returns(StudentInfo memory){... */\n      swap2\n      swap1\n      pop\n      jump\t// out\n        /* \"Test_20231122.sol\":3647:3746  function getNumOfStudents() public view returns(uint) {... */\n    tag_49:\n        /* \"Test_20231122.sol\":3695:3699  uint */\n      0x00\n        /* \"Test_20231122.sol\":3719:3731  studentArray */\n      0x01\n        /* \"Test_20231122.sol\":3719:3738  studentArray.length */\n      dup1\n      sload\n      swap1\n      pop\n        /* \"Test_20231122.sol\":3712:3738  return studentArray.length */\n      swap1\n      pop\n        /* \"Test_20231122.sol\":3647:3746  function getNumOfStudents() public view returns(uint) {... */\n      swap1\n      jump\t// out\n        /* \"Test_20231122.sol\":2690:3056  function getStudentByNumber(uint _number) public view returns(StudentInfo memory){... */\n    tag_54:\n        /* \"Test_20231122.sol\":2752:2770  StudentInfo memory */\n      tag_184\n      tag_97\n      jump\t// in\n    tag_184:\n        /* \"Test_20231122.sol\":2782:2813  StudentInfo memory student_info */\n      tag_186\n      tag_97\n      jump\t// in\n    tag_186:\n        /* \"Test_20231122.sol\":2828:2834  uint i */\n      0x00\n        /* \"Test_20231122.sol\":2824:3019  for(uint i; i < studentArray.length; i++){... */\n    tag_187:\n        /* \"Test_20231122.sol\":2840:2852  studentArray */\n      0x01\n        /* \"Test_20231122.sol\":2840:2859  studentArray.length */\n      dup1\n      sload\n      swap1\n      pop\n        /* \"Test_20231122.sol\":2836:2837  i */\n      dup2\n        /* \"Test_20231122.sol\":2836:2859  i < studentArray.length */\n      lt\n        /* \"Test_20231122.sol\":2824:3019  for(uint i; i < studentArray.length; i++){... */\n      iszero\n      tag_188\n      jumpi\n        /* \"Test_20231122.sol\":2910:2917  _number */\n      dup4\n        /* \"Test_20231122.sol\":2884:2896  studentArray */\n      0x01\n        /* \"Test_20231122.sol\":2897:2898  i */\n      dup3\n        /* \"Test_20231122.sol\":2884:2899  studentArray[i] */\n      dup2\n      sload\n      dup2\n      lt\n      tag_190\n      jumpi\n      tag_191\n      tag_120\n      jump\t// in\n    tag_191:\n    tag_190:\n      swap1\n      0x00\n      mstore\n      keccak256(0x00, 0x20)\n      swap1\n      0x03\n      mul\n      add\n        /* \"Test_20231122.sol\":2884:2906  studentArray[i].number */\n      0x00\n      add\n      sload\n        /* \"Test_20231122.sol\":2884:2917  studentArray[i].number == _number */\n      sub\n        /* \"Test_20231122.sol\":2880:3008  if( studentArray[i].number == _number ){... */\n      tag_193\n      jumpi\n        /* \"Test_20231122.sol\":2953:2965  studentArray */\n      0x01\n        /* \"Test_20231122.sol\":2966:2967  i */\n      dup2\n        /* \"Test_20231122.sol\":2953:2968  studentArray[i] */\n      dup2\n      sload\n      dup2\n      lt\n      tag_194\n      jumpi\n      tag_195\n      tag_120\n      jump\t// in\n    tag_195:\n    tag_194:\n      swap1\n      0x00\n      mstore\n      keccak256(0x00, 0x20)\n      swap1\n      0x03\n      mul\n      add\n        /* \"Test_20231122.sol\":2938:2968  student_info = studentArray[i] */\n      mload(0x40)\n      dup1\n      0x60\n      add\n      0x40\n      mstore\n      swap1\n      dup2\n      0x00\n      dup3\n      add\n      sload\n      dup2\n      mstore\n      0x20\n      add\n      0x01\n      dup3\n      add\n      sload\n      dup2\n      mstore\n      0x20\n      add\n      0x02\n      dup3\n      add\n      dup1\n      sload\n      tag_197\n      swap1\n      tag_77\n      jump\t// in\n    tag_197:\n      dup1\n      0x1f\n      add\n      0x20\n      dup1\n      swap2\n      div\n      mul\n      0x20\n      add\n      mload(0x40)\n      swap1\n      dup2\n      add\n      0x40\n      mstore\n      dup1\n      swap3\n      swap2\n      swap1\n      dup2\n      dup2\n      mstore\n      0x20\n      add\n      dup3\n      dup1\n      sload\n      tag_198\n      swap1\n      tag_77\n      jump\t// in\n    tag_198:\n      dup1\n      iszero\n      tag_199\n      jumpi\n      dup1\n      0x1f\n      lt\n      tag_200\n      jumpi\n      0x0100\n      dup1\n      dup4\n      sload\n      div\n      mul\n      dup4\n      mstore\n      swap2\n      0x20\n      add\n      swap2\n      jump(tag_199)\n    tag_200:\n      dup3\n      add\n      swap2\n      swap1\n      0x00\n      mstore\n      keccak256(0x00, 0x20)\n      swap1\n    tag_201:\n      dup2\n      sload\n      dup2\n      mstore\n      swap1\n      0x01\n      add\n      swap1\n      0x20\n      add\n      dup1\n      dup4\n      gt\n      tag_201\n      jumpi\n      dup3\n      swap1\n      sub\n      0x1f\n      and\n      dup3\n      add\n      swap2\n    tag_199:\n      pop\n      pop\n      pop\n      pop\n      pop\n      dup2\n      mstore\n      pop\n      pop\n      swap2\n      pop\n        /* \"Test_20231122.sol\":2987:2992  break */\n      jump(tag_188)\n        /* \"Test_20231122.sol\":2880:3008  if( studentArray[i].number == _number ){... */\n    tag_193:\n        /* \"Test_20231122.sol\":2861:2864  i++ */\n      dup1\n      dup1\n      0x01\n      add\n      swap2\n      pop\n      pop\n        /* \"Test_20231122.sol\":2824:3019  for(uint i; i < studentArray.length; i++){... */\n      jump(tag_187)\n    tag_188:\n      pop\n        /* \"Test_20231122.sol\":3036:3048  student_info */\n      dup1\n        /* \"Test_20231122.sol\":3029:3048  return student_info */\n      swap2\n      pop\n      pop\n        /* \"Test_20231122.sol\":2690:3056  function getStudentByNumber(uint _number) public view returns(StudentInfo memory){... */\n      swap2\n      swap1\n      pop\n      jump\t// out\n        /* \"Test_20231122.sol\":4076:4325  function getAvgOfScore() public view returns(uint) {... */\n    tag_57:\n        /* \"Test_20231122.sol\":4121:4125  uint */\n      0x00\n        /* \"Test_20231122.sol\":4138:4154  uint total_score */\n      dup1\n        /* \"Test_20231122.sol\":4169:4175  uint i */\n      0x00\n        /* \"Test_20231122.sol\":4165:4269  for(uint i; i < studentArray.length; i++){... */\n    tag_203:\n        /* \"Test_20231122.sol\":4181:4193  studentArray */\n      0x01\n        /* \"Test_20231122.sol\":4181:4200  studentArray.length */\n      dup1\n      sload\n      swap1\n      pop\n        /* \"Test_20231122.sol\":4177:4178  i */\n      dup2\n        /* \"Test_20231122.sol\":4177:4200  i < studentArray.length */\n      lt\n        /* \"Test_20231122.sol\":4165:4269  for(uint i; i < studentArray.length; i++){... */\n      iszero\n      tag_204\n      jumpi\n        /* \"Test_20231122.sol\":4236:4248  studentArray */\n      0x01\n        /* \"Test_20231122.sol\":4249:4250  i */\n      dup2\n        /* \"Test_20231122.sol\":4236:4251  studentArray[i] */\n      dup2\n      sload\n      dup2\n      lt\n      tag_206\n      jumpi\n      tag_207\n      tag_120\n      jump\t// in\n    tag_207:\n    tag_206:\n      swap1\n      0x00\n      mstore\n      keccak256(0x00, 0x20)\n      swap1\n      0x03\n      mul\n      add\n        /* \"Test_20231122.sol\":4236:4257  studentArray[i].score */\n      0x01\n      add\n      sload\n        /* \"Test_20231122.sol\":4221:4257  total_score += studentArray[i].score */\n      dup3\n      tag_209\n      swap2\n      swap1\n      tag_117\n      jump\t// in\n    tag_209:\n      swap2\n      pop\n        /* \"Test_20231122.sol\":4202:4205  i++ */\n      dup1\n      dup1\n      0x01\n      add\n      swap2\n      pop\n      pop\n        /* \"Test_20231122.sol\":4165:4269  for(uint i; i < studentArray.length; i++){... */\n      jump(tag_203)\n    tag_204:\n      pop\n        /* \"Test_20231122.sol\":4298:4310  studentArray */\n      0x01\n        /* \"Test_20231122.sol\":4298:4317  studentArray.length */\n      dup1\n      sload\n      swap1\n      pop\n        /* \"Test_20231122.sol\":4286:4297  total_score */\n      dup2\n        /* \"Test_20231122.sol\":4286:4317  total_score/studentArray.length */\n      tag_210\n      swap2\n      swap1\n      tag_211\n      jump\t// in\n    tag_210:\n        /* \"Test_20231122.sol\":4279:4317  return total_score/studentArray.length */\n      swap2\n      pop\n      pop\n        /* \"Test_20231122.sol\":4076:4325  function getAvgOfScore() public view returns(uint) {... */\n      swap1\n      jump\t// out\n        /* \"Test_20231122.sol\":910:2255  function initStudentsList() public {... */\n    tag_60:\n        /* \"Test_20231122.sol\":1002:1034  StudentInfo(1, 85, getGrade(85)) */\n      mload(0x40)\n      dup1\n      0x60\n      add\n      0x40\n      mstore\n      dup1\n        /* \"Test_20231122.sol\":1014:1015  1 */\n      0x01\n        /* \"Test_20231122.sol\":1002:1034  StudentInfo(1, 85, getGrade(85)) */\n      dup2\n      mstore\n      0x20\n      add\n        /* \"Test_20231122.sol\":1017:1019  85 */\n      0x55\n        /* \"Test_20231122.sol\":1002:1034  StudentInfo(1, 85, getGrade(85)) */\n      dup2\n      mstore\n      0x20\n      add\n        /* \"Test_20231122.sol\":1021:1033  getGrade(85) */\n      tag_213\n        /* \"Test_20231122.sol\":1030:1032  85 */\n      0x55\n        /* \"Test_20231122.sol\":1021:1029  getGrade */\n      tag_63\n        /* \"Test_20231122.sol\":1021:1033  getGrade(85) */\n      jump\t// in\n    tag_213:\n        /* \"Test_20231122.sol\":1002:1034  StudentInfo(1, 85, getGrade(85)) */\n      dup2\n      mstore\n      pop\n        /* \"Test_20231122.sol\":982:990  students */\n      0x00\n        /* \"Test_20231122.sol\":982:999  students[\"Alice\"] */\n      mload(0x40)\n      tag_214\n      swap1\n      tag_215\n      jump\t// in\n    tag_214:\n      swap1\n      dup2\n      mstore\n      0x20\n      add\n      mload(0x40)\n      dup1\n      swap2\n      sub\n      swap1\n      keccak256\n        /* \"Test_20231122.sol\":982:1034  students[\"Alice\"] = StudentInfo(1, 85, getGrade(85)) */\n      0x00\n      dup3\n      add\n      mload\n      dup2\n      0x00\n      add\n      sstore\n      0x20\n      dup3\n      add\n      mload\n      dup2\n      0x01\n      add\n      sstore\n      0x40\n      dup3\n      add\n      mload\n      dup2\n      0x02\n      add\n      swap1\n      dup2\n      tag_216\n      swap2\n      swap1\n      tag_171\n      jump\t// in\n    tag_216:\n      pop\n      swap1\n      pop\n      pop\n        /* \"Test_20231122.sol\":1063:1095  StudentInfo(2, 75, getGrade(75)) */\n      mload(0x40)\n      dup1\n      0x60\n      add\n      0x40\n      mstore\n      dup1\n        /* \"Test_20231122.sol\":1075:1076  2 */\n      0x02\n        /* \"Test_20231122.sol\":1063:1095  StudentInfo(2, 75, getGrade(75)) */\n      dup2\n      mstore\n      0x20\n      add\n        /* \"Test_20231122.sol\":1078:1080  75 */\n      0x4b\n        /* \"Test_20231122.sol\":1063:1095  StudentInfo(2, 75, getGrade(75)) */\n      dup2\n      mstore\n      0x20\n      add\n        /* \"Test_20231122.sol\":1082:1094  getGrade(75) */\n      tag_217\n        /* \"Test_20231122.sol\":1091:1093  75 */\n      0x4b\n        /* \"Test_20231122.sol\":1082:1090  getGrade */\n      tag_63\n        /* \"Test_20231122.sol\":1082:1094  getGrade(75) */\n      jump\t// in\n    tag_217:\n        /* \"Test_20231122.sol\":1063:1095  StudentInfo(2, 75, getGrade(75)) */\n      dup2\n      mstore\n      pop\n        /* \"Test_20231122.sol\":1045:1053  students */\n      0x00\n        /* \"Test_20231122.sol\":1045:1060  students[\"Bob\"] */\n      mload(0x40)\n      tag_218\n      swap1\n      tag_219\n      jump\t// in\n    tag_218:\n      swap1\n      dup2\n      mstore\n      0x20\n      add\n      mload(0x40)\n      dup1\n      swap2\n      sub\n      swap1\n      keccak256\n        /* \"Test_20231122.sol\":1045:1095  students[\"Bob\"] = StudentInfo(2, 75, getGrade(75)) */\n      0x00\n      dup3\n      add\n      mload\n      dup2\n      0x00\n      add\n      sstore\n      0x20\n      dup3\n      add\n      mload\n      dup2\n      0x01\n      add\n      sstore\n      0x40\n      dup3\n      add\n      mload\n      dup2\n      0x02\n      add\n      swap1\n      dup2\n      tag_220\n      swap2\n      swap1\n      tag_171\n      jump\t// in\n    tag_220:\n      pop\n      swap1\n      pop\n      pop\n        /* \"Test_20231122.sol\":1128:1159  StudentInfo(3,60, getGrade(60)) */\n      mload(0x40)\n      dup1\n      0x60\n      add\n      0x40\n      mstore\n      dup1\n        /* \"Test_20231122.sol\":1140:1141  3 */\n      0x03\n        /* \"Test_20231122.sol\":1128:1159  StudentInfo(3,60, getGrade(60)) */\n      dup2\n      mstore\n      0x20\n      add\n        /* \"Test_20231122.sol\":1142:1144  60 */\n      0x3c\n        /* \"Test_20231122.sol\":1128:1159  StudentInfo(3,60, getGrade(60)) */\n      dup2\n      mstore\n      0x20\n      add\n        /* \"Test_20231122.sol\":1146:1158  getGrade(60) */\n      tag_221\n        /* \"Test_20231122.sol\":1155:1157  60 */\n      0x3c\n        /* \"Test_20231122.sol\":1146:1154  getGrade */\n      tag_63\n        /* \"Test_20231122.sol\":1146:1158  getGrade(60) */\n      jump\t// in\n    tag_221:\n        /* \"Test_20231122.sol\":1128:1159  StudentInfo(3,60, getGrade(60)) */\n      dup2\n      mstore\n      pop\n        /* \"Test_20231122.sol\":1106:1114  students */\n      0x00\n        /* \"Test_20231122.sol\":1106:1125  students[\"Charlie\"] */\n      mload(0x40)\n      tag_222\n      swap1\n      tag_223\n      jump\t// in\n    tag_222:\n      swap1\n      dup2\n      mstore\n      0x20\n      add\n      mload(0x40)\n      dup1\n      swap2\n      sub\n      swap1\n      keccak256\n        /* \"Test_20231122.sol\":1106:1159  students[\"Charlie\"] = StudentInfo(3,60, getGrade(60)) */\n      0x00\n      dup3\n      add\n      mload\n      dup2\n      0x00\n      add\n      sstore\n      0x20\n      dup3\n      add\n      mload\n      dup2\n      0x01\n      add\n      sstore\n      0x40\n      dup3\n      add\n      mload\n      dup2\n      0x02\n      add\n      swap1\n      dup2\n      tag_224\n      swap2\n      swap1\n      tag_171\n      jump\t// in\n    tag_224:\n      pop\n      swap1\n      pop\n      pop\n        /* \"Test_20231122.sol\":1191:1223  StudentInfo(4, 90, getGrade(90)) */\n      mload(0x40)\n      dup1\n      0x60\n      add\n      0x40\n      mstore\n      dup1\n        /* \"Test_20231122.sol\":1203:1204  4 */\n      0x04\n        /* \"Test_20231122.sol\":1191:1223  StudentInfo(4, 90, getGrade(90)) */\n      dup2\n      mstore\n      0x20\n      add\n        /* \"Test_20231122.sol\":1206:1208  90 */\n      0x5a\n        /* \"Test_20231122.sol\":1191:1223  StudentInfo(4, 90, getGrade(90)) */\n      dup2\n      mstore\n      0x20\n      add\n        /* \"Test_20231122.sol\":1210:1222  getGrade(90) */\n      tag_225\n        /* \"Test_20231122.sol\":1219:1221  90 */\n      0x5a\n        /* \"Test_20231122.sol\":1210:1218  getGrade */\n      tag_63\n        /* \"Test_20231122.sol\":1210:1222  getGrade(90) */\n      jump\t// in\n    tag_225:\n        /* \"Test_20231122.sol\":1191:1223  StudentInfo(4, 90, getGrade(90)) */\n      dup2\n      mstore\n      pop\n        /* \"Test_20231122.sol\":1170:1178  students */\n      0x00\n        /* \"Test_20231122.sol\":1170:1188  students[\"Dwayne\"] */\n      mload(0x40)\n      tag_226\n      swap1\n      tag_227\n      jump\t// in\n    tag_226:\n      swap1\n      dup2\n      mstore\n      0x20\n      add\n      mload(0x40)\n      dup1\n      swap2\n      sub\n      swap1\n      keccak256\n        /* \"Test_20231122.sol\":1170:1223  students[\"Dwayne\"] = StudentInfo(4, 90, getGrade(90)) */\n      0x00\n      dup3\n      add\n      mload\n      dup2\n      0x00\n      add\n      sstore\n      0x20\n      dup3\n      add\n      mload\n      dup2\n      0x01\n      add\n      sstore\n      0x40\n      dup3\n      add\n      mload\n      dup2\n      0x02\n      add\n      swap1\n      dup2\n      tag_228\n      swap2\n      swap1\n      tag_171\n      jump\t// in\n    tag_228:\n      pop\n      swap1\n      pop\n      pop\n        /* \"Test_20231122.sol\":1254:1285  StudentInfo(5,65, getGrade(65)) */\n      mload(0x40)\n      dup1\n      0x60\n      add\n      0x40\n      mstore\n      dup1\n        /* \"Test_20231122.sol\":1266:1267  5 */\n      0x05\n        /* \"Test_20231122.sol\":1254:1285  StudentInfo(5,65, getGrade(65)) */\n      dup2\n      mstore\n      0x20\n      add\n        /* \"Test_20231122.sol\":1268:1270  65 */\n      0x41\n        /* \"Test_20231122.sol\":1254:1285  StudentInfo(5,65, getGrade(65)) */\n      dup2\n      mstore\n      0x20\n      add\n        /* \"Test_20231122.sol\":1272:1284  getGrade(65) */\n      tag_229\n        /* \"Test_20231122.sol\":1281:1283  65 */\n      0x41\n        /* \"Test_20231122.sol\":1272:1280  getGrade */\n      tag_63\n        /* \"Test_20231122.sol\":1272:1284  getGrade(65) */\n      jump\t// in\n    tag_229:\n        /* \"Test_20231122.sol\":1254:1285  StudentInfo(5,65, getGrade(65)) */\n      dup2\n      mstore\n      pop\n        /* \"Test_20231122.sol\":1234:1242  students */\n      0x00\n        /* \"Test_20231122.sol\":1234:1251  students[\"Ellen\"] */\n      mload(0x40)\n      tag_230\n      swap1\n      tag_231\n      jump\t// in\n    tag_230:\n      swap1\n      dup2\n      mstore\n      0x20\n      add\n      mload(0x40)\n      dup1\n      swap2\n      sub\n      swap1\n      keccak256\n        /* \"Test_20231122.sol\":1234:1285  students[\"Ellen\"] = StudentInfo(5,65, getGrade(65)) */\n      0x00\n      dup3\n      add\n      mload\n      dup2\n      0x00\n      add\n      sstore\n      0x20\n      dup3\n      add\n      mload\n      dup2\n      0x01\n      add\n      sstore\n      0x40\n      dup3\n      add\n      mload\n      dup2\n      0x02\n      add\n      swap1\n      dup2\n      tag_232\n      swap2\n      swap1\n      tag_171\n      jump\t// in\n    tag_232:\n      pop\n      swap1\n      pop\n      pop\n        /* \"Test_20231122.sol\":1315:1346  StudentInfo(6,50, getGrade(50)) */\n      mload(0x40)\n      dup1\n      0x60\n      add\n      0x40\n      mstore\n      dup1\n        /* \"Test_20231122.sol\":1327:1328  6 */\n      0x06\n        /* \"Test_20231122.sol\":1315:1346  StudentInfo(6,50, getGrade(50)) */\n      dup2\n      mstore\n      0x20\n      add\n        /* \"Test_20231122.sol\":1329:1331  50 */\n      0x32\n        /* \"Test_20231122.sol\":1315:1346  StudentInfo(6,50, getGrade(50)) */\n      dup2\n      mstore\n      0x20\n      add\n        /* \"Test_20231122.sol\":1333:1345  getGrade(50) */\n      tag_233\n        /* \"Test_20231122.sol\":1342:1344  50 */\n      0x32\n        /* \"Test_20231122.sol\":1333:1341  getGrade */\n      tag_63\n        /* \"Test_20231122.sol\":1333:1345  getGrade(50) */\n      jump\t// in\n    tag_233:\n        /* \"Test_20231122.sol\":1315:1346  StudentInfo(6,50, getGrade(50)) */\n      dup2\n      mstore\n      pop\n        /* \"Test_20231122.sol\":1296:1304  students */\n      0x00\n        /* \"Test_20231122.sol\":1296:1312  students[\"Fitz\"] */\n      mload(0x40)\n      tag_234\n      swap1\n      tag_235\n      jump\t// in\n    tag_234:\n      swap1\n      dup2\n      mstore\n      0x20\n      add\n      mload(0x40)\n      dup1\n      swap2\n      sub\n      swap1\n      keccak256\n        /* \"Test_20231122.sol\":1296:1346  students[\"Fitz\"] = StudentInfo(6,50, getGrade(50)) */\n      0x00\n      dup3\n      add\n      mload\n      dup2\n      0x00\n      add\n      sstore\n      0x20\n      dup3\n      add\n      mload\n      dup2\n      0x01\n      add\n      sstore\n      0x40\n      dup3\n      add\n      mload\n      dup2\n      0x02\n      add\n      swap1\n      dup2\n      tag_236\n      swap2\n      swap1\n      tag_171\n      jump\t// in\n    tag_236:\n      pop\n      swap1\n      pop\n      pop\n        /* \"Test_20231122.sol\":1378:1409  StudentInfo(7,80, getGrade(80)) */\n      mload(0x40)\n      dup1\n      0x60\n      add\n      0x40\n      mstore\n      dup1\n        /* \"Test_20231122.sol\":1390:1391  7 */\n      0x07\n        /* \"Test_20231122.sol\":1378:1409  StudentInfo(7,80, getGrade(80)) */\n      dup2\n      mstore\n      0x20\n      add\n        /* \"Test_20231122.sol\":1392:1394  80 */\n      0x50\n        /* \"Test_20231122.sol\":1378:1409  StudentInfo(7,80, getGrade(80)) */\n      dup2\n      mstore\n      0x20\n      add\n        /* \"Test_20231122.sol\":1396:1408  getGrade(80) */\n      tag_237\n        /* \"Test_20231122.sol\":1405:1407  80 */\n      0x50\n        /* \"Test_20231122.sol\":1396:1404  getGrade */\n      tag_63\n        /* \"Test_20231122.sol\":1396:1408  getGrade(80) */\n      jump\t// in\n    tag_237:\n        /* \"Test_20231122.sol\":1378:1409  StudentInfo(7,80, getGrade(80)) */\n      dup2\n      mstore\n      pop\n        /* \"Test_20231122.sol\":1357:1365  students */\n      0x00\n        /* \"Test_20231122.sol\":1357:1375  students[\"Garret\"] */\n      mload(0x40)\n      tag_238\n      swap1\n      tag_239\n      jump\t// in\n    tag_238:\n      swap1\n      dup2\n      mstore\n      0x20\n      add\n      mload(0x40)\n      dup1\n      swap2\n      sub\n      swap1\n      keccak256\n        /* \"Test_20231122.sol\":1357:1409  students[\"Garret\"] = StudentInfo(7,80, getGrade(80)) */\n      0x00\n      dup3\n      add\n      mload\n      dup2\n      0x00\n      add\n      sstore\n      0x20\n      dup3\n      add\n      mload\n      dup2\n      0x01\n      add\n      sstore\n      0x40\n      dup3\n      add\n      mload\n      dup2\n      0x02\n      add\n      swap1\n      dup2\n      tag_240\n      swap2\n      swap1\n      tag_171\n      jump\t// in\n    tag_240:\n      pop\n      swap1\n      pop\n      pop\n        /* \"Test_20231122.sol\":1441:1472  StudentInfo(8,90, getGrade(90)) */\n      mload(0x40)\n      dup1\n      0x60\n      add\n      0x40\n      mstore\n      dup1\n        /* \"Test_20231122.sol\":1453:1454  8 */\n      0x08\n        /* \"Test_20231122.sol\":1441:1472  StudentInfo(8,90, getGrade(90)) */\n      dup2\n      mstore\n      0x20\n      add\n        /* \"Test_20231122.sol\":1455:1457  90 */\n      0x5a\n        /* \"Test_20231122.sol\":1441:1472  StudentInfo(8,90, getGrade(90)) */\n      dup2\n      mstore\n      0x20\n      add\n        /* \"Test_20231122.sol\":1459:1471  getGrade(90) */\n      tag_241\n        /* \"Test_20231122.sol\":1468:1470  90 */\n      0x5a\n        /* \"Test_20231122.sol\":1459:1467  getGrade */\n      tag_63\n        /* \"Test_20231122.sol\":1459:1471  getGrade(90) */\n      jump\t// in\n    tag_241:\n        /* \"Test_20231122.sol\":1441:1472  StudentInfo(8,90, getGrade(90)) */\n      dup2\n      mstore\n      pop\n        /* \"Test_20231122.sol\":1420:1428  students */\n      0x00\n        /* \"Test_20231122.sol\":1420:1438  students[\"Hubert\"] */\n      mload(0x40)\n      tag_242\n      swap1\n      tag_243\n      jump\t// in\n    tag_242:\n      swap1\n      dup2\n      mstore\n      0x20\n      add\n      mload(0x40)\n      dup1\n      swap2\n      sub\n      swap1\n      keccak256\n        /* \"Test_20231122.sol\":1420:1472  students[\"Hubert\"] = StudentInfo(8,90, getGrade(90)) */\n      0x00\n      dup3\n      add\n      mload\n      dup2\n      0x00\n      add\n      sstore\n      0x20\n      dup3\n      add\n      mload\n      dup2\n      0x01\n      add\n      sstore\n      0x40\n      dup3\n      add\n      mload\n      dup2\n      0x02\n      add\n      swap1\n      dup2\n      tag_244\n      swap2\n      swap1\n      tag_171\n      jump\t// in\n    tag_244:\n      pop\n      swap1\n      pop\n      pop\n        /* \"Test_20231122.sol\":1504:1537  StudentInfo(9,100, getGrade(100)) */\n      mload(0x40)\n      dup1\n      0x60\n      add\n      0x40\n      mstore\n      dup1\n        /* \"Test_20231122.sol\":1516:1517  9 */\n      0x09\n        /* \"Test_20231122.sol\":1504:1537  StudentInfo(9,100, getGrade(100)) */\n      dup2\n      mstore\n      0x20\n      add\n        /* \"Test_20231122.sol\":1518:1521  100 */\n      0x64\n        /* \"Test_20231122.sol\":1504:1537  StudentInfo(9,100, getGrade(100)) */\n      dup2\n      mstore\n      0x20\n      add\n        /* \"Test_20231122.sol\":1523:1536  getGrade(100) */\n      tag_245\n        /* \"Test_20231122.sol\":1532:1535  100 */\n      0x64\n        /* \"Test_20231122.sol\":1523:1531  getGrade */\n      tag_63\n        /* \"Test_20231122.sol\":1523:1536  getGrade(100) */\n      jump\t// in\n    tag_245:\n        /* \"Test_20231122.sol\":1504:1537  StudentInfo(9,100, getGrade(100)) */\n      dup2\n      mstore\n      pop\n        /* \"Test_20231122.sol\":1483:1491  students */\n      0x00\n        /* \"Test_20231122.sol\":1483:1501  students[\"Isabel\"] */\n      mload(0x40)\n      tag_246\n      swap1\n      tag_247\n      jump\t// in\n    tag_246:\n      swap1\n      dup2\n      mstore\n      0x20\n      add\n      mload(0x40)\n      dup1\n      swap2\n      sub\n      swap1\n      keccak256\n        /* \"Test_20231122.sol\":1483:1537  students[\"Isabel\"] = StudentInfo(9,100, getGrade(100)) */\n      0x00\n      dup3\n      add\n      mload\n      dup2\n      0x00\n      add\n      sstore\n      0x20\n      dup3\n      add\n      mload\n      dup2\n      0x01\n      add\n      sstore\n      0x40\n      dup3\n      add\n      mload\n      dup2\n      0x02\n      add\n      swap1\n      dup2\n      tag_248\n      swap2\n      swap1\n      tag_171\n      jump\t// in\n    tag_248:\n      pop\n      swap1\n      pop\n      pop\n        /* \"Test_20231122.sol\":1567:1599  StudentInfo(10,70, getGrade(70)) */\n      mload(0x40)\n      dup1\n      0x60\n      add\n      0x40\n      mstore\n      dup1\n        /* \"Test_20231122.sol\":1579:1581  10 */\n      0x0a\n        /* \"Test_20231122.sol\":1567:1599  StudentInfo(10,70, getGrade(70)) */\n      dup2\n      mstore\n      0x20\n      add\n        /* \"Test_20231122.sol\":1582:1584  70 */\n      0x46\n        /* \"Test_20231122.sol\":1567:1599  StudentInfo(10,70, getGrade(70)) */\n      dup2\n      mstore\n      0x20\n      add\n        /* \"Test_20231122.sol\":1586:1598  getGrade(70) */\n      tag_249\n        /* \"Test_20231122.sol\":1595:1597  70 */\n      0x46\n        /* \"Test_20231122.sol\":1586:1594  getGrade */\n      tag_63\n        /* \"Test_20231122.sol\":1586:1598  getGrade(70) */\n      jump\t// in\n    tag_249:\n        /* \"Test_20231122.sol\":1567:1599  StudentInfo(10,70, getGrade(70)) */\n      dup2\n      mstore\n      pop\n        /* \"Test_20231122.sol\":1548:1556  students */\n      0x00\n        /* \"Test_20231122.sol\":1548:1564  students[\"Jane\"] */\n      mload(0x40)\n      tag_250\n      swap1\n      tag_251\n      jump\t// in\n    tag_250:\n      swap1\n      dup2\n      mstore\n      0x20\n      add\n      mload(0x40)\n      dup1\n      swap2\n      sub\n      swap1\n      keccak256\n        /* \"Test_20231122.sol\":1548:1599  students[\"Jane\"] = StudentInfo(10,70, getGrade(70)) */\n      0x00\n      dup3\n      add\n      mload\n      dup2\n      0x00\n      add\n      sstore\n      0x20\n      dup3\n      add\n      mload\n      dup2\n      0x01\n      add\n      sstore\n      0x40\n      dup3\n      add\n      mload\n      dup2\n      0x02\n      add\n      swap1\n      dup2\n      tag_252\n      swap2\n      swap1\n      tag_171\n      jump\t// in\n    tag_252:\n      pop\n      swap1\n      pop\n      pop\n        /* \"Test_20231122.sol\":1640:1652  studentArray */\n      0x01\n        /* \"Test_20231122.sol\":1658:1690  StudentInfo(1, 85, getGrade(85)) */\n      mload(0x40)\n      dup1\n      0x60\n      add\n      0x40\n      mstore\n      dup1\n        /* \"Test_20231122.sol\":1670:1671  1 */\n      0x01\n        /* \"Test_20231122.sol\":1658:1690  StudentInfo(1, 85, getGrade(85)) */\n      dup2\n      mstore\n      0x20\n      add\n        /* \"Test_20231122.sol\":1673:1675  85 */\n      0x55\n        /* \"Test_20231122.sol\":1658:1690  StudentInfo(1, 85, getGrade(85)) */\n      dup2\n      mstore\n      0x20\n      add\n        /* \"Test_20231122.sol\":1677:1689  getGrade(85) */\n      tag_253\n        /* \"Test_20231122.sol\":1686:1688  85 */\n      0x55\n        /* \"Test_20231122.sol\":1677:1685  getGrade */\n      tag_63\n        /* \"Test_20231122.sol\":1677:1689  getGrade(85) */\n      jump\t// in\n    tag_253:\n        /* \"Test_20231122.sol\":1658:1690  StudentInfo(1, 85, getGrade(85)) */\n      dup2\n      mstore\n      pop\n        /* \"Test_20231122.sol\":1640:1691  studentArray.push(StudentInfo(1, 85, getGrade(85))) */\n      swap1\n      dup1\n      0x01\n      dup2\n      sload\n      add\n      dup1\n      dup3\n      sstore\n      dup1\n      swap2\n      pop\n      pop\n      0x01\n      swap1\n      sub\n      swap1\n      0x00\n      mstore\n      keccak256(0x00, 0x20)\n      swap1\n      0x03\n      mul\n      add\n      0x00\n      swap1\n      swap2\n      swap1\n      swap2\n      swap1\n      swap2\n      pop\n      0x00\n      dup3\n      add\n      mload\n      dup2\n      0x00\n      add\n      sstore\n      0x20\n      dup3\n      add\n      mload\n      dup2\n      0x01\n      add\n      sstore\n      0x40\n      dup3\n      add\n      mload\n      dup2\n      0x02\n      add\n      swap1\n      dup2\n      tag_255\n      swap2\n      swap1\n      tag_171\n      jump\t// in\n    tag_255:\n      pop\n      pop\n      pop\n        /* \"Test_20231122.sol\":1702:1714  studentArray */\n      0x01\n        /* \"Test_20231122.sol\":1720:1752  StudentInfo(2, 75, getGrade(75)) */\n      mload(0x40)\n      dup1\n      0x60\n      add\n      0x40\n      mstore\n      dup1\n        /* \"Test_20231122.sol\":1732:1733  2 */\n      0x02\n        /* \"Test_20231122.sol\":1720:1752  StudentInfo(2, 75, getGrade(75)) */\n      dup2\n      mstore\n      0x20\n      add\n        /* \"Test_20231122.sol\":1735:1737  75 */\n      0x4b\n        /* \"Test_20231122.sol\":1720:1752  StudentInfo(2, 75, getGrade(75)) */\n      dup2\n      mstore\n      0x20\n      add\n        /* \"Test_20231122.sol\":1739:1751  getGrade(75) */\n      tag_256\n        /* \"Test_20231122.sol\":1748:1750  75 */\n      0x4b\n        /* \"Test_20231122.sol\":1739:1747  getGrade */\n      tag_63\n        /* \"Test_20231122.sol\":1739:1751  getGrade(75) */\n      jump\t// in\n    tag_256:\n        /* \"Test_20231122.sol\":1720:1752  StudentInfo(2, 75, getGrade(75)) */\n      dup2\n      mstore\n      pop\n        /* \"Test_20231122.sol\":1702:1753  studentArray.push(StudentInfo(2, 75, getGrade(75))) */\n      swap1\n      dup1\n      0x01\n      dup2\n      sload\n      add\n      dup1\n      dup3\n      sstore\n      dup1\n      swap2\n      pop\n      pop\n      0x01\n      swap1\n      sub\n      swap1\n      0x00\n      mstore\n      keccak256(0x00, 0x20)\n      swap1\n      0x03\n      mul\n      add\n      0x00\n      swap1\n      swap2\n      swap1\n      swap2\n      swap1\n      swap2\n      pop\n      0x00\n      dup3\n      add\n      mload\n      dup2\n      0x00\n      add\n      sstore\n      0x20\n      dup3\n      add\n      mload\n      dup2\n      0x01\n      add\n      sstore\n      0x40\n      dup3\n      add\n      mload\n      dup2\n      0x02\n      add\n      swap1\n      dup2\n      tag_258\n      swap2\n      swap1\n      tag_171\n      jump\t// in\n    tag_258:\n      pop\n      pop\n      pop\n        /* \"Test_20231122.sol\":1764:1776  studentArray */\n      0x01\n        /* \"Test_20231122.sol\":1782:1813  StudentInfo(3,60, getGrade(60)) */\n      mload(0x40)\n      dup1\n      0x60\n      add\n      0x40\n      mstore\n      dup1\n        /* \"Test_20231122.sol\":1794:1795  3 */\n      0x03\n        /* \"Test_20231122.sol\":1782:1813  StudentInfo(3,60, getGrade(60)) */\n      dup2\n      mstore\n      0x20\n      add\n        /* \"Test_20231122.sol\":1796:1798  60 */\n      0x3c\n        /* \"Test_20231122.sol\":1782:1813  StudentInfo(3,60, getGrade(60)) */\n      dup2\n      mstore\n      0x20\n      add\n        /* \"Test_20231122.sol\":1800:1812  getGrade(60) */\n      tag_259\n        /* \"Test_20231122.sol\":1809:1811  60 */\n      0x3c\n        /* \"Test_20231122.sol\":1800:1808  getGrade */\n      tag_63\n        /* \"Test_20231122.sol\":1800:1812  getGrade(60) */\n      jump\t// in\n    tag_259:\n        /* \"Test_20231122.sol\":1782:1813  StudentInfo(3,60, getGrade(60)) */\n      dup2\n      mstore\n      pop\n        /* \"Test_20231122.sol\":1764:1814  studentArray.push(StudentInfo(3,60, getGrade(60))) */\n      swap1\n      dup1\n      0x01\n      dup2\n      sload\n      add\n      dup1\n      dup3\n      sstore\n      dup1\n      swap2\n      pop\n      pop\n      0x01\n      swap1\n      sub\n      swap1\n      0x00\n      mstore\n      keccak256(0x00, 0x20)\n      swap1\n      0x03\n      mul\n      add\n      0x00\n      swap1\n      swap2\n      swap1\n      swap2\n      swap1\n      swap2\n      pop\n      0x00\n      dup3\n      add\n      mload\n      dup2\n      0x00\n      add\n      sstore\n      0x20\n      dup3\n      add\n      mload\n      dup2\n      0x01\n      add\n      sstore\n      0x40\n      dup3\n      add\n      mload\n      dup2\n      0x02\n      add\n      swap1\n      dup2\n      tag_261\n      swap2\n      swap1\n      tag_171\n      jump\t// in\n    tag_261:\n      pop\n      pop\n      pop\n        /* \"Test_20231122.sol\":1825:1837  studentArray */\n      0x01\n        /* \"Test_20231122.sol\":1843:1875  StudentInfo(4, 90, getGrade(90)) */\n      mload(0x40)\n      dup1\n      0x60\n      add\n      0x40\n      mstore\n      dup1\n        /* \"Test_20231122.sol\":1855:1856  4 */\n      0x04\n        /* \"Test_20231122.sol\":1843:1875  StudentInfo(4, 90, getGrade(90)) */\n      dup2\n      mstore\n      0x20\n      add\n        /* \"Test_20231122.sol\":1858:1860  90 */\n      0x5a\n        /* \"Test_20231122.sol\":1843:1875  StudentInfo(4, 90, getGrade(90)) */\n      dup2\n      mstore\n      0x20\n      add\n        /* \"Test_20231122.sol\":1862:1874  getGrade(90) */\n      tag_262\n        /* \"Test_20231122.sol\":1871:1873  90 */\n      0x5a\n        /* \"Test_20231122.sol\":1862:1870  getGrade */\n      tag_63\n        /* \"Test_20231122.sol\":1862:1874  getGrade(90) */\n      jump\t// in\n    tag_262:\n        /* \"Test_20231122.sol\":1843:1875  StudentInfo(4, 90, getGrade(90)) */\n      dup2\n      mstore\n      pop\n        /* \"Test_20231122.sol\":1825:1876  studentArray.push(StudentInfo(4, 90, getGrade(90))) */\n      swap1\n      dup1\n      0x01\n      dup2\n      sload\n      add\n      dup1\n      dup3\n      sstore\n      dup1\n      swap2\n      pop\n      pop\n      0x01\n      swap1\n      sub\n      swap1\n      0x00\n      mstore\n      keccak256(0x00, 0x20)\n      swap1\n      0x03\n      mul\n      add\n      0x00\n      swap1\n      swap2\n      swap1\n      swap2\n      swap1\n      swap2\n      pop\n      0x00\n      dup3\n      add\n      mload\n      dup2\n      0x00\n      add\n      sstore\n      0x20\n      dup3\n      add\n      mload\n      dup2\n      0x01\n      add\n      sstore\n      0x40\n      dup3\n      add\n      mload\n      dup2\n      0x02\n      add\n      swap1\n      dup2\n      tag_264\n      swap2\n      swap1\n      tag_171\n      jump\t// in\n    tag_264:\n      pop\n      pop\n      pop\n        /* \"Test_20231122.sol\":1887:1899  studentArray */\n      0x01\n        /* \"Test_20231122.sol\":1905:1936  StudentInfo(5,65, getGrade(65)) */\n      mload(0x40)\n      dup1\n      0x60\n      add\n      0x40\n      mstore\n      dup1\n        /* \"Test_20231122.sol\":1917:1918  5 */\n      0x05\n        /* \"Test_20231122.sol\":1905:1936  StudentInfo(5,65, getGrade(65)) */\n      dup2\n      mstore\n      0x20\n      add\n        /* \"Test_20231122.sol\":1919:1921  65 */\n      0x41\n        /* \"Test_20231122.sol\":1905:1936  StudentInfo(5,65, getGrade(65)) */\n      dup2\n      mstore\n      0x20\n      add\n        /* \"Test_20231122.sol\":1923:1935  getGrade(65) */\n      tag_265\n        /* \"Test_20231122.sol\":1932:1934  65 */\n      0x41\n        /* \"Test_20231122.sol\":1923:1931  getGrade */\n      tag_63\n        /* \"Test_20231122.sol\":1923:1935  getGrade(65) */\n      jump\t// in\n    tag_265:\n        /* \"Test_20231122.sol\":1905:1936  StudentInfo(5,65, getGrade(65)) */\n      dup2\n      mstore\n      pop\n        /* \"Test_20231122.sol\":1887:1937  studentArray.push(StudentInfo(5,65, getGrade(65))) */\n      swap1\n      dup1\n      0x01\n      dup2\n      sload\n      add\n      dup1\n      dup3\n      sstore\n      dup1\n      swap2\n      pop\n      pop\n      0x01\n      swap1\n      sub\n      swap1\n      0x00\n      mstore\n      keccak256(0x00, 0x20)\n      swap1\n      0x03\n      mul\n      add\n      0x00\n      swap1\n      swap2\n      swap1\n      swap2\n      swap1\n      swap2\n      pop\n      0x00\n      dup3\n      add\n      mload\n      dup2\n      0x00\n      add\n      sstore\n      0x20\n      dup3\n      add\n      mload\n      dup2\n      0x01\n      add\n      sstore\n      0x40\n      dup3\n      add\n      mload\n      dup2\n      0x02\n      add\n      swap1\n      dup2\n      tag_267\n      swap2\n      swap1\n      tag_171\n      jump\t// in\n    tag_267:\n      pop\n      pop\n      pop\n        /* \"Test_20231122.sol\":1948:1960  studentArray */\n      0x01\n        /* \"Test_20231122.sol\":1966:1997  StudentInfo(6,50, getGrade(50)) */\n      mload(0x40)\n      dup1\n      0x60\n      add\n      0x40\n      mstore\n      dup1\n        /* \"Test_20231122.sol\":1978:1979  6 */\n      0x06\n        /* \"Test_20231122.sol\":1966:1997  StudentInfo(6,50, getGrade(50)) */\n      dup2\n      mstore\n      0x20\n      add\n        /* \"Test_20231122.sol\":1980:1982  50 */\n      0x32\n        /* \"Test_20231122.sol\":1966:1997  StudentInfo(6,50, getGrade(50)) */\n      dup2\n      mstore\n      0x20\n      add\n        /* \"Test_20231122.sol\":1984:1996  getGrade(50) */\n      tag_268\n        /* \"Test_20231122.sol\":1993:1995  50 */\n      0x32\n        /* \"Test_20231122.sol\":1984:1992  getGrade */\n      tag_63\n        /* \"Test_20231122.sol\":1984:1996  getGrade(50) */\n      jump\t// in\n    tag_268:\n        /* \"Test_20231122.sol\":1966:1997  StudentInfo(6,50, getGrade(50)) */\n      dup2\n      mstore\n      pop\n        /* \"Test_20231122.sol\":1948:1998  studentArray.push(StudentInfo(6,50, getGrade(50))) */\n      swap1\n      dup1\n      0x01\n      dup2\n      sload\n      add\n      dup1\n      dup3\n      sstore\n      dup1\n      swap2\n      pop\n      pop\n      0x01\n      swap1\n      sub\n      swap1\n      0x00\n      mstore\n      keccak256(0x00, 0x20)\n      swap1\n      0x03\n      mul\n      add\n      0x00\n      swap1\n      swap2\n      swap1\n      swap2\n      swap1\n      swap2\n      pop\n      0x00\n      dup3\n      add\n      mload\n      dup2\n      0x00\n      add\n      sstore\n      0x20\n      dup3\n      add\n      mload\n      dup2\n      0x01\n      add\n      sstore\n      0x40\n      dup3\n      add\n      mload\n      dup2\n      0x02\n      add\n      swap1\n      dup2\n      tag_270\n      swap2\n      swap1\n      tag_171\n      jump\t// in\n    tag_270:\n      pop\n      pop\n      pop\n        /* \"Test_20231122.sol\":2009:2021  studentArray */\n      0x01\n        /* \"Test_20231122.sol\":2027:2058  StudentInfo(7,80, getGrade(80)) */\n      mload(0x40)\n      dup1\n      0x60\n      add\n      0x40\n      mstore\n      dup1\n        /* \"Test_20231122.sol\":2039:2040  7 */\n      0x07\n        /* \"Test_20231122.sol\":2027:2058  StudentInfo(7,80, getGrade(80)) */\n      dup2\n      mstore\n      0x20\n      add\n        /* \"Test_20231122.sol\":2041:2043  80 */\n      0x50\n        /* \"Test_20231122.sol\":2027:2058  StudentInfo(7,80, getGrade(80)) */\n      dup2\n      mstore\n      0x20\n      add\n        /* \"Test_20231122.sol\":2045:2057  getGrade(80) */\n      tag_271\n        /* \"Test_20231122.sol\":2054:2056  80 */\n      0x50\n        /* \"Test_20231122.sol\":2045:2053  getGrade */\n      tag_63\n        /* \"Test_20231122.sol\":2045:2057  getGrade(80) */\n      jump\t// in\n    tag_271:\n        /* \"Test_20231122.sol\":2027:2058  StudentInfo(7,80, getGrade(80)) */\n      dup2\n      mstore\n      pop\n        /* \"Test_20231122.sol\":2009:2059  studentArray.push(StudentInfo(7,80, getGrade(80))) */\n      swap1\n      dup1\n      0x01\n      dup2\n      sload\n      add\n      dup1\n      dup3\n      sstore\n      dup1\n      swap2\n      pop\n      pop\n      0x01\n      swap1\n      sub\n      swap1\n      0x00\n      mstore\n      keccak256(0x00, 0x20)\n      swap1\n      0x03\n      mul\n      add\n      0x00\n      swap1\n      swap2\n      swap1\n      swap2\n      swap1\n      swap2\n      pop\n      0x00\n      dup3\n      add\n      mload\n      dup2\n      0x00\n      add\n      sstore\n      0x20\n      dup3\n      add\n      mload\n      dup2\n      0x01\n      add\n      sstore\n      0x40\n      dup3\n      add\n      mload\n      dup2\n      0x02\n      add\n      swap1\n      dup2\n      tag_273\n      swap2\n      swap1\n      tag_171\n      jump\t// in\n    tag_273:\n      pop\n      pop\n      pop\n        /* \"Test_20231122.sol\":2070:2082  studentArray */\n      0x01\n        /* \"Test_20231122.sol\":2088:2119  StudentInfo(8,90, getGrade(90)) */\n      mload(0x40)\n      dup1\n      0x60\n      add\n      0x40\n      mstore\n      dup1\n        /* \"Test_20231122.sol\":2100:2101  8 */\n      0x08\n        /* \"Test_20231122.sol\":2088:2119  StudentInfo(8,90, getGrade(90)) */\n      dup2\n      mstore\n      0x20\n      add\n        /* \"Test_20231122.sol\":2102:2104  90 */\n      0x5a\n        /* \"Test_20231122.sol\":2088:2119  StudentInfo(8,90, getGrade(90)) */\n      dup2\n      mstore\n      0x20\n      add\n        /* \"Test_20231122.sol\":2106:2118  getGrade(90) */\n      tag_274\n        /* \"Test_20231122.sol\":2115:2117  90 */\n      0x5a\n        /* \"Test_20231122.sol\":2106:2114  getGrade */\n      tag_63\n        /* \"Test_20231122.sol\":2106:2118  getGrade(90) */\n      jump\t// in\n    tag_274:\n        /* \"Test_20231122.sol\":2088:2119  StudentInfo(8,90, getGrade(90)) */\n      dup2\n      mstore\n      pop\n        /* \"Test_20231122.sol\":2070:2120  studentArray.push(StudentInfo(8,90, getGrade(90))) */\n      swap1\n      dup1\n      0x01\n      dup2\n      sload\n      add\n      dup1\n      dup3\n      sstore\n      dup1\n      swap2\n      pop\n      pop\n      0x01\n      swap1\n      sub\n      swap1\n      0x00\n      mstore\n      keccak256(0x00, 0x20)\n      swap1\n      0x03\n      mul\n      add\n      0x00\n      swap1\n      swap2\n      swap1\n      swap2\n      swap1\n      swap2\n      pop\n      0x00\n      dup3\n      add\n      mload\n      dup2\n      0x00\n      add\n      sstore\n      0x20\n      dup3\n      add\n      mload\n      dup2\n      0x01\n      add\n      sstore\n      0x40\n      dup3\n      add\n      mload\n      dup2\n      0x02\n      add\n      swap1\n      dup2\n      tag_276\n      swap2\n      swap1\n      tag_171\n      jump\t// in\n    tag_276:\n      pop\n      pop\n      pop\n        /* \"Test_20231122.sol\":2131:2143  studentArray */\n      0x01\n        /* \"Test_20231122.sol\":2149:2182  StudentInfo(9,100, getGrade(100)) */\n      mload(0x40)\n      dup1\n      0x60\n      add\n      0x40\n      mstore\n      dup1\n        /* \"Test_20231122.sol\":2161:2162  9 */\n      0x09\n        /* \"Test_20231122.sol\":2149:2182  StudentInfo(9,100, getGrade(100)) */\n      dup2\n      mstore\n      0x20\n      add\n        /* \"Test_20231122.sol\":2163:2166  100 */\n      0x64\n        /* \"Test_20231122.sol\":2149:2182  StudentInfo(9,100, getGrade(100)) */\n      dup2\n      mstore\n      0x20\n      add\n        /* \"Test_20231122.sol\":2168:2181  getGrade(100) */\n      tag_277\n        /* \"Test_20231122.sol\":2177:2180  100 */\n      0x64\n        /* \"Test_20231122.sol\":2168:2176  getGrade */\n      tag_63\n        /* \"Test_20231122.sol\":2168:2181  getGrade(100) */\n      jump\t// in\n    tag_277:\n        /* \"Test_20231122.sol\":2149:2182  StudentInfo(9,100, getGrade(100)) */\n      dup2\n      mstore\n      pop\n        /* \"Test_20231122.sol\":2131:2183  studentArray.push(StudentInfo(9,100, getGrade(100))) */\n      swap1\n      dup1\n      0x01\n      dup2\n      sload\n      add\n      dup1\n      dup3\n      sstore\n      dup1\n      swap2\n      pop\n      pop\n      0x01\n      swap1\n      sub\n      swap1\n      0x00\n      mstore\n      keccak256(0x00, 0x20)\n      swap1\n      0x03\n      mul\n      add\n      0x00\n      swap1\n      swap2\n      swap1\n      swap2\n      swap1\n      swap2\n      pop\n      0x00\n      dup3\n      add\n      mload\n      dup2\n      0x00\n      add\n      sstore\n      0x20\n      dup3\n      add\n      mload\n      dup2\n      0x01\n      add\n      sstore\n      0x40\n      dup3\n      add\n      mload\n      dup2\n      0x02\n      add\n      swap1\n      dup2\n      tag_279\n      swap2\n      swap1\n      tag_171\n      jump\t// in\n    tag_279:\n      pop\n      pop\n      pop\n        /* \"Test_20231122.sol\":2194:2206  studentArray */\n      0x01\n        /* \"Test_20231122.sol\":2212:2244  StudentInfo(10,70, getGrade(70)) */\n      mload(0x40)\n      dup1\n      0x60\n      add\n      0x40\n      mstore\n      dup1\n        /* \"Test_20231122.sol\":2224:2226  10 */\n      0x0a\n        /* \"Test_20231122.sol\":2212:2244  StudentInfo(10,70, getGrade(70)) */\n      dup2\n      mstore\n      0x20\n      add\n        /* \"Test_20231122.sol\":2227:2229  70 */\n      0x46\n        /* \"Test_20231122.sol\":2212:2244  StudentInfo(10,70, getGrade(70)) */\n      dup2\n      mstore\n      0x20\n      add\n        /* \"Test_20231122.sol\":2231:2243  getGrade(70) */\n      tag_280\n        /* \"Test_20231122.sol\":2240:2242  70 */\n      0x46\n        /* \"Test_20231122.sol\":2231:2239  getGrade */\n      tag_63\n        /* \"Test_20231122.sol\":2231:2243  getGrade(70) */\n      jump\t// in\n    tag_280:\n        /* \"Test_20231122.sol\":2212:2244  StudentInfo(10,70, getGrade(70)) */\n      dup2\n      mstore\n      pop\n        /* \"Test_20231122.sol\":2194:2245  studentArray.push(StudentInfo(10,70, getGrade(70))) */\n      swap1\n      dup1\n      0x01\n      dup2\n      sload\n      add\n      dup1\n      dup3\n      sstore\n      dup1\n      swap2\n      pop\n      pop\n      0x01\n      swap1\n      sub\n      swap1\n      0x00\n      mstore\n      keccak256(0x00, 0x20)\n      swap1\n      0x03\n      mul\n      add\n      0x00\n      swap1\n      swap2\n      swap1\n      swap2\n      swap1\n      swap2\n      pop\n      0x00\n      dup3\n      add\n      mload\n      dup2\n      0x00\n      add\n      sstore\n      0x20\n      dup3\n      add\n      mload\n      dup2\n      0x01\n      add\n      sstore\n      0x40\n      dup3\n      add\n      mload\n      dup2\n      0x02\n      add\n      swap1\n      dup2\n      tag_282\n      swap2\n      swap1\n      tag_171\n      jump\t// in\n    tag_282:\n      pop\n      pop\n      pop\n        /* \"Test_20231122.sol\":910:2255  function initStudentsList() public {... */\n      jump\t// out\n        /* \"Test_20231122.sol\":401:829  function getGrade(uint _score) public pure returns(string memory) {... */\n    tag_63:\n        /* \"Test_20231122.sol\":452:465  string memory */\n      0x60\n        /* \"Test_20231122.sol\":478:497  string memory grade */\n      dup1\n        /* \"Test_20231122.sol\":522:524  90 */\n      0x5a\n        /* \"Test_20231122.sol\":512:518  _score */\n      dup4\n        /* \"Test_20231122.sol\":512:524  _score >= 90 */\n      lt\n        /* \"Test_20231122.sol\":508:799  if( _score >= 90 ){... */\n      tag_284\n      jumpi\n        /* \"Test_20231122.sol\":541:552  grade = \"A\" */\n      mload(0x40)\n      dup1\n      0x40\n      add\n      0x40\n      mstore\n      dup1\n      0x01\n      dup2\n      mstore\n      0x20\n      add\n      0x4100000000000000000000000000000000000000000000000000000000000000\n      dup2\n      mstore\n      pop\n      swap1\n      pop\n        /* \"Test_20231122.sol\":508:799  if( _score >= 90 ){... */\n      jump(tag_285)\n    tag_284:\n        /* \"Test_20231122.sol\":583:585  80 */\n      0x50\n        /* \"Test_20231122.sol\":573:579  _score */\n      dup4\n        /* \"Test_20231122.sol\":573:585  _score >= 80 */\n      lt\n        /* \"Test_20231122.sol\":569:799  if( _score >= 80 ){... */\n      tag_286\n      jumpi\n        /* \"Test_20231122.sol\":602:613  grade = \"B\" */\n      mload(0x40)\n      dup1\n      0x40\n      add\n      0x40\n      mstore\n      dup1\n      0x01\n      dup2\n      mstore\n      0x20\n      add\n      0x4200000000000000000000000000000000000000000000000000000000000000\n      dup2\n      mstore\n      pop\n      swap1\n      pop\n        /* \"Test_20231122.sol\":569:799  if( _score >= 80 ){... */\n      jump(tag_287)\n    tag_286:\n        /* \"Test_20231122.sol\":644:646  70 */\n      0x46\n        /* \"Test_20231122.sol\":634:640  _score */\n      dup4\n        /* \"Test_20231122.sol\":634:646  _score >= 70 */\n      lt\n        /* \"Test_20231122.sol\":630:799  if( _score >= 70){... */\n      tag_288\n      jumpi\n        /* \"Test_20231122.sol\":662:673  grade = \"C\" */\n      mload(0x40)\n      dup1\n      0x40\n      add\n      0x40\n      mstore\n      dup1\n      0x01\n      dup2\n      mstore\n      0x20\n      add\n      0x4300000000000000000000000000000000000000000000000000000000000000\n      dup2\n      mstore\n      pop\n      swap1\n      pop\n        /* \"Test_20231122.sol\":630:799  if( _score >= 70){... */\n      jump(tag_289)\n    tag_288:\n        /* \"Test_20231122.sol\":704:706  60 */\n      0x3c\n        /* \"Test_20231122.sol\":694:700  _score */\n      dup4\n        /* \"Test_20231122.sol\":694:706  _score >= 60 */\n      lt\n        /* \"Test_20231122.sol\":690:799  if( _score >= 60){... */\n      tag_290\n      jumpi\n        /* \"Test_20231122.sol\":722:733  grade = \"D\" */\n      mload(0x40)\n      dup1\n      0x40\n      add\n      0x40\n      mstore\n      dup1\n      0x01\n      dup2\n      mstore\n      0x20\n      add\n      0x4400000000000000000000000000000000000000000000000000000000000000\n      dup2\n      mstore\n      pop\n      swap1\n      pop\n        /* \"Test_20231122.sol\":690:799  if( _score >= 60){... */\n      jump(tag_291)\n    tag_290:\n        /* \"Test_20231122.sol\":776:787  grade = \"F\" */\n      mload(0x40)\n      dup1\n      0x40\n      add\n      0x40\n      mstore\n      dup1\n      0x01\n      dup2\n      mstore\n      0x20\n      add\n      0x4600000000000000000000000000000000000000000000000000000000000000\n      dup2\n      mstore\n      pop\n      swap1\n      pop\n        /* \"Test_20231122.sol\":690:799  if( _score >= 60){... */\n    tag_291:\n        /* \"Test_20231122.sol\":630:799  if( _score >= 70){... */\n    tag_289:\n        /* \"Test_20231122.sol\":569:799  if( _score >= 80 ){... */\n    tag_287:\n        /* \"Test_20231122.sol\":508:799  if( _score >= 90 ){... */\n    tag_285:\n        /* \"Test_20231122.sol\":816:821  grade */\n      dup1\n        /* \"Test_20231122.sol\":809:821  return grade */\n      swap2\n      pop\n      pop\n        /* \"Test_20231122.sol\":401:829  function getGrade(uint _score) public pure returns(string memory) {... */\n      swap2\n      swap1\n      pop\n      jump\t// out\n        /* \"Test_20231122.sol\":4774:5072  function getNumFClass() public view returns(uint) {... */\n    tag_67:\n        /* \"Test_20231122.sol\":4818:4822  uint */\n      0x00\n        /* \"Test_20231122.sol\":4835:4844  uint numF */\n      dup1\n        /* \"Test_20231122.sol\":4859:4865  uint i */\n      0x00\n        /* \"Test_20231122.sol\":4855:5043  for(uint i; i < studentArray.length; i++){... */\n    tag_293:\n        /* \"Test_20231122.sol\":4871:4883  studentArray */\n      0x01\n        /* \"Test_20231122.sol\":4871:4890  studentArray.length */\n      dup1\n      sload\n      swap1\n      pop\n        /* \"Test_20231122.sol\":4867:4868  i */\n      dup2\n        /* \"Test_20231122.sol\":4867:4890  i < studentArray.length */\n      lt\n        /* \"Test_20231122.sol\":4855:5043  for(uint i; i < studentArray.length; i++){... */\n      iszero\n      tag_294\n      jumpi\n        /* \"Test_20231122.sol\":4987:4989  60 */\n      0x3c\n        /* \"Test_20231122.sol\":4963:4975  studentArray */\n      0x01\n        /* \"Test_20231122.sol\":4976:4977  i */\n      dup3\n        /* \"Test_20231122.sol\":4963:4978  studentArray[i] */\n      dup2\n      sload\n      dup2\n      lt\n      tag_296\n      jumpi\n      tag_297\n      tag_120\n      jump\t// in\n    tag_297:\n    tag_296:\n      swap1\n      0x00\n      mstore\n      keccak256(0x00, 0x20)\n      swap1\n      0x03\n      mul\n      add\n        /* \"Test_20231122.sol\":4963:4984  studentArray[i].score */\n      0x01\n      add\n      sload\n        /* \"Test_20231122.sol\":4963:4989  studentArray[i].score < 60 */\n      lt\n        /* \"Test_20231122.sol\":4959:5032  if( studentArray[i].score < 60 ){... */\n      iszero\n      tag_299\n      jumpi\n        /* \"Test_20231122.sol\":5010:5016  numF++ */\n      dup2\n      dup1\n      tag_300\n      swap1\n      tag_166\n      jump\t// in\n    tag_300:\n      swap3\n      pop\n      pop\n        /* \"Test_20231122.sol\":4959:5032  if( studentArray[i].score < 60 ){... */\n    tag_299:\n        /* \"Test_20231122.sol\":4892:4895  i++ */\n      dup1\n      dup1\n      0x01\n      add\n      swap2\n      pop\n      pop\n        /* \"Test_20231122.sol\":4855:5043  for(uint i; i < studentArray.length; i++){... */\n      jump(tag_293)\n    tag_294:\n      pop\n        /* \"Test_20231122.sol\":5060:5064  numF */\n      dup1\n        /* \"Test_20231122.sol\":5053:5064  return numF */\n      swap2\n      pop\n      pop\n        /* \"Test_20231122.sol\":4774:5072  function getNumFClass() public view returns(uint) {... */\n      swap1\n      jump\t// out\n    tag_87:\n      mload(0x40)\n      dup1\n      0x80\n      add\n      0x40\n      mstore\n      dup1\n      0x04\n      swap1\n    tag_301:\n      tag_302\n      tag_97\n      jump\t// in\n    tag_302:\n      dup2\n      mstore\n      0x20\n      add\n      swap1\n      0x01\n      swap1\n      sub\n      swap1\n      dup2\n      tag_301\n      jumpi\n      swap1\n      pop\n      pop\n      swap1\n      jump\t// out\n    tag_97:\n      mload(0x40)\n      dup1\n      0x60\n      add\n      0x40\n      mstore\n      dup1\n      0x00\n      dup2\n      mstore\n      0x20\n      add\n      0x00\n      dup2\n      mstore\n      0x20\n      add\n      0x60\n      dup2\n      mstore\n      pop\n      swap1\n      jump\t// out\n        /* \"#utility.yul\":7:82   */\n    tag_303:\n        /* \"#utility.yul\":40:46   */\n      0x00\n        /* \"#utility.yul\":73:75   */\n      0x40\n        /* \"#utility.yul\":67:76   */\n      mload\n        /* \"#utility.yul\":57:76   */\n      swap1\n      pop\n        /* \"#utility.yul\":7:82   */\n      swap1\n      jump\t// out\n        /* \"#utility.yul\":88:205   */\n    tag_304:\n        /* \"#utility.yul\":197:198   */\n      0x00\n        /* \"#utility.yul\":194:195   */\n      dup1\n        /* \"#utility.yul\":187:199   */\n      revert\n        /* \"#utility.yul\":211:328   */\n    tag_305:\n        /* \"#utility.yul\":320:321   */\n      0x00\n        /* \"#utility.yul\":317:318   */\n      dup1\n        /* \"#utility.yul\":310:322   */\n      revert\n        /* \"#utility.yul\":334:451   */\n    tag_306:\n        /* \"#utility.yul\":443:444   */\n      0x00\n        /* \"#utility.yul\":440:441   */\n      dup1\n        /* \"#utility.yul\":433:445   */\n      revert\n        /* \"#utility.yul\":457:574   */\n    tag_307:\n        /* \"#utility.yul\":566:567   */\n      0x00\n        /* \"#utility.yul\":563:564   */\n      dup1\n        /* \"#utility.yul\":556:568   */\n      revert\n        /* \"#utility.yul\":580:682   */\n    tag_308:\n        /* \"#utility.yul\":621:627   */\n      0x00\n        /* \"#utility.yul\":672:674   */\n      0x1f\n        /* \"#utility.yul\":668:675   */\n      not\n        /* \"#utility.yul\":663:665   */\n      0x1f\n        /* \"#utility.yul\":656:661   */\n      dup4\n        /* \"#utility.yul\":652:666   */\n      add\n        /* \"#utility.yul\":648:676   */\n      and\n        /* \"#utility.yul\":638:676   */\n      swap1\n      pop\n        /* \"#utility.yul\":580:682   */\n      swap2\n      swap1\n      pop\n      jump\t// out\n        /* \"#utility.yul\":688:868   */\n    tag_93:\n        /* \"#utility.yul\":736:813   */\n      0x4e487b7100000000000000000000000000000000000000000000000000000000\n        /* \"#utility.yul\":733:734   */\n      0x00\n        /* \"#utility.yul\":726:814   */\n      mstore\n        /* \"#utility.yul\":833:837   */\n      0x41\n        /* \"#utility.yul\":830:831   */\n      0x04\n        /* \"#utility.yul\":823:838   */\n      mstore\n        /* \"#utility.yul\":857:861   */\n      0x24\n        /* \"#utility.yul\":854:855   */\n      0x00\n        /* \"#utility.yul\":847:862   */\n      revert\n        /* \"#utility.yul\":874:1155   */\n    tag_309:\n        /* \"#utility.yul\":957:984   */\n      tag_390\n        /* \"#utility.yul\":979:983   */\n      dup3\n        /* \"#utility.yul\":957:984   */\n      tag_308\n      jump\t// in\n    tag_390:\n        /* \"#utility.yul\":949:955   */\n      dup2\n        /* \"#utility.yul\":945:985   */\n      add\n        /* \"#utility.yul\":1087:1093   */\n      dup2\n        /* \"#utility.yul\":1075:1085   */\n      dup2\n        /* \"#utility.yul\":1072:1094   */\n      lt\n        /* \"#utility.yul\":1051:1069   */\n      0xffffffffffffffff\n        /* \"#utility.yul\":1039:1049   */\n      dup3\n        /* \"#utility.yul\":1036:1070   */\n      gt\n        /* \"#utility.yul\":1033:1095   */\n      or\n        /* \"#utility.yul\":1030:1118   */\n      iszero\n      tag_391\n      jumpi\n        /* \"#utility.yul\":1098:1116   */\n      tag_392\n      tag_93\n      jump\t// in\n    tag_392:\n        /* \"#utility.yul\":1030:1118   */\n    tag_391:\n        /* \"#utility.yul\":1138:1148   */\n      dup1\n        /* \"#utility.yul\":1134:1136   */\n      0x40\n        /* \"#utility.yul\":1127:1149   */\n      mstore\n        /* \"#utility.yul\":917:1155   */\n      pop\n        /* \"#utility.yul\":874:1155   */\n      pop\n      pop\n      jump\t// out\n        /* \"#utility.yul\":1161:1290   */\n    tag_310:\n        /* \"#utility.yul\":1195:1201   */\n      0x00\n        /* \"#utility.yul\":1222:1242   */\n      tag_394\n      tag_303\n      jump\t// in\n    tag_394:\n        /* \"#utility.yul\":1212:1242   */\n      swap1\n      pop\n        /* \"#utility.yul\":1251:1284   */\n      tag_395\n        /* \"#utility.yul\":1279:1283   */\n      dup3\n        /* \"#utility.yul\":1271:1277   */\n      dup3\n        /* \"#utility.yul\":1251:1284   */\n      tag_309\n      jump\t// in\n    tag_395:\n        /* \"#utility.yul\":1161:1290   */\n      swap2\n      swap1\n      pop\n      jump\t// out\n        /* \"#utility.yul\":1296:1604   */\n    tag_311:\n        /* \"#utility.yul\":1358:1362   */\n      0x00\n        /* \"#utility.yul\":1448:1466   */\n      0xffffffffffffffff\n        /* \"#utility.yul\":1440:1446   */\n      dup3\n        /* \"#utility.yul\":1437:1467   */\n      gt\n        /* \"#utility.yul\":1434:1490   */\n      iszero\n      tag_397\n      jumpi\n        /* \"#utility.yul\":1470:1488   */\n      tag_398\n      tag_93\n      jump\t// in\n    tag_398:\n        /* \"#utility.yul\":1434:1490   */\n    tag_397:\n        /* \"#utility.yul\":1508:1537   */\n      tag_399\n        /* \"#utility.yul\":1530:1536   */\n      dup3\n        /* \"#utility.yul\":1508:1537   */\n      tag_308\n      jump\t// in\n    tag_399:\n        /* \"#utility.yul\":1500:1537   */\n      swap1\n      pop\n        /* \"#utility.yul\":1592:1596   */\n      0x20\n        /* \"#utility.yul\":1586:1590   */\n      dup2\n        /* \"#utility.yul\":1582:1597   */\n      add\n        /* \"#utility.yul\":1574:1597   */\n      swap1\n      pop\n        /* \"#utility.yul\":1296:1604   */\n      swap2\n      swap1\n      pop\n      jump\t// out\n        /* \"#utility.yul\":1610:1756   */\n    tag_312:\n        /* \"#utility.yul\":1707:1713   */\n      dup3\n        /* \"#utility.yul\":1702:1705   */\n      dup2\n        /* \"#utility.yul\":1697:1700   */\n      dup4\n        /* \"#utility.yul\":1684:1714   */\n      calldatacopy\n        /* \"#utility.yul\":1748:1749   */\n      0x00\n        /* \"#utility.yul\":1739:1745   */\n      dup4\n        /* \"#utility.yul\":1734:1737   */\n      dup4\n        /* \"#utility.yul\":1730:1746   */\n      add\n        /* \"#utility.yul\":1723:1750   */\n      mstore\n        /* \"#utility.yul\":1610:1756   */\n      pop\n      pop\n      pop\n      jump\t// out\n        /* \"#utility.yul\":1762:2187   */\n    tag_313:\n        /* \"#utility.yul\":1840:1845   */\n      0x00\n        /* \"#utility.yul\":1865:1931   */\n      tag_402\n        /* \"#utility.yul\":1881:1930   */\n      tag_403\n        /* \"#utility.yul\":1923:1929   */\n      dup5\n        /* \"#utility.yul\":1881:1930   */\n      tag_311\n      jump\t// in\n    tag_403:\n        /* \"#utility.yul\":1865:1931   */\n      tag_310\n      jump\t// in\n    tag_402:\n        /* \"#utility.yul\":1856:1931   */\n      swap1\n      pop\n        /* \"#utility.yul\":1954:1960   */\n      dup3\n        /* \"#utility.yul\":1947:1952   */\n      dup2\n        /* \"#utility.yul\":1940:1961   */\n      mstore\n        /* \"#utility.yul\":1992:1996   */\n      0x20\n        /* \"#utility.yul\":1985:1990   */\n      dup2\n        /* \"#utility.yul\":1981:1997   */\n      add\n        /* \"#utility.yul\":2030:2033   */\n      dup5\n        /* \"#utility.yul\":2021:2027   */\n      dup5\n        /* \"#utility.yul\":2016:2019   */\n      dup5\n        /* \"#utility.yul\":2012:2028   */\n      add\n        /* \"#utility.yul\":2009:2034   */\n      gt\n        /* \"#utility.yul\":2006:2118   */\n      iszero\n      tag_404\n      jumpi\n        /* \"#utility.yul\":2037:2116   */\n      tag_405\n      tag_307\n      jump\t// in\n    tag_405:\n        /* \"#utility.yul\":2006:2118   */\n    tag_404:\n        /* \"#utility.yul\":2127:2181   */\n      tag_406\n        /* \"#utility.yul\":2174:2180   */\n      dup5\n        /* \"#utility.yul\":2169:2172   */\n      dup3\n        /* \"#utility.yul\":2164:2167   */\n      dup6\n        /* \"#utility.yul\":2127:2181   */\n      tag_312\n      jump\t// in\n    tag_406:\n        /* \"#utility.yul\":1846:2187   */\n      pop\n        /* \"#utility.yul\":1762:2187   */\n      swap4\n      swap3\n      pop\n      pop\n      pop\n      jump\t// out\n        /* \"#utility.yul\":2207:2547   */\n    tag_314:\n        /* \"#utility.yul\":2263:2268   */\n      0x00\n        /* \"#utility.yul\":2312:2315   */\n      dup3\n        /* \"#utility.yul\":2305:2309   */\n      0x1f\n        /* \"#utility.yul\":2297:2303   */\n      dup4\n        /* \"#utility.yul\":2293:2310   */\n      add\n        /* \"#utility.yul\":2289:2316   */\n      slt\n        /* \"#utility.yul\":2279:2401   */\n      tag_408\n      jumpi\n        /* \"#utility.yul\":2320:2399   */\n      tag_409\n      tag_306\n      jump\t// in\n    tag_409:\n        /* \"#utility.yul\":2279:2401   */\n    tag_408:\n        /* \"#utility.yul\":2437:2443   */\n      dup2\n        /* \"#utility.yul\":2424:2444   */\n      calldataload\n        /* \"#utility.yul\":2462:2541   */\n      tag_410\n        /* \"#utility.yul\":2537:2540   */\n      dup5\n        /* \"#utility.yul\":2529:2535   */\n      dup3\n        /* \"#utility.yul\":2522:2526   */\n      0x20\n        /* \"#utility.yul\":2514:2520   */\n      dup7\n        /* \"#utility.yul\":2510:2527   */\n      add\n        /* \"#utility.yul\":2462:2541   */\n      tag_313\n      jump\t// in\n    tag_410:\n        /* \"#utility.yul\":2453:2541   */\n      swap2\n      pop\n        /* \"#utility.yul\":2269:2547   */\n      pop\n        /* \"#utility.yul\":2207:2547   */\n      swap3\n      swap2\n      pop\n      pop\n      jump\t// out\n        /* \"#utility.yul\":2553:3062   */\n    tag_20:\n        /* \"#utility.yul\":2622:2628   */\n      0x00\n        /* \"#utility.yul\":2671:2673   */\n      0x20\n        /* \"#utility.yul\":2659:2668   */\n      dup3\n        /* \"#utility.yul\":2650:2657   */\n      dup5\n        /* \"#utility.yul\":2646:2669   */\n      sub\n        /* \"#utility.yul\":2642:2674   */\n      slt\n        /* \"#utility.yul\":2639:2758   */\n      iszero\n      tag_412\n      jumpi\n        /* \"#utility.yul\":2677:2756   */\n      tag_413\n      tag_304\n      jump\t// in\n    tag_413:\n        /* \"#utility.yul\":2639:2758   */\n    tag_412:\n        /* \"#utility.yul\":2825:2826   */\n      0x00\n        /* \"#utility.yul\":2814:2823   */\n      dup3\n        /* \"#utility.yul\":2810:2827   */\n      add\n        /* \"#utility.yul\":2797:2828   */\n      calldataload\n        /* \"#utility.yul\":2855:2873   */\n      0xffffffffffffffff\n        /* \"#utility.yul\":2847:2853   */\n      dup2\n        /* \"#utility.yul\":2844:2874   */\n      gt\n        /* \"#utility.yul\":2841:2958   */\n      iszero\n      tag_414\n      jumpi\n        /* \"#utility.yul\":2877:2956   */\n      tag_415\n      tag_305\n      jump\t// in\n    tag_415:\n        /* \"#utility.yul\":2841:2958   */\n    tag_414:\n        /* \"#utility.yul\":2982:3045   */\n      tag_416\n        /* \"#utility.yul\":3037:3044   */\n      dup5\n        /* \"#utility.yul\":3028:3034   */\n      dup3\n        /* \"#utility.yul\":3017:3026   */\n      dup6\n        /* \"#utility.yul\":3013:3035   */\n      add\n        /* \"#utility.yul\":2982:3045   */\n      tag_314\n      jump\t// in\n    tag_416:\n        /* \"#utility.yul\":2972:3045   */\n      swap2\n      pop\n        /* \"#utility.yul\":2768:3055   */\n      pop\n        /* \"#utility.yul\":2553:3062   */\n      swap3\n      swap2\n      pop\n      pop\n      jump\t// out\n        /* \"#utility.yul\":3068:3145   */\n    tag_315:\n        /* \"#utility.yul\":3105:3112   */\n      0x00\n        /* \"#utility.yul\":3134:3139   */\n      dup2\n        /* \"#utility.yul\":3123:3139   */\n      swap1\n      pop\n        /* \"#utility.yul\":3068:3145   */\n      swap2\n      swap1\n      pop\n      jump\t// out\n        /* \"#utility.yul\":3151:3269   */\n    tag_316:\n        /* \"#utility.yul\":3238:3262   */\n      tag_419\n        /* \"#utility.yul\":3256:3261   */\n      dup2\n        /* \"#utility.yul\":3238:3262   */\n      tag_315\n      jump\t// in\n    tag_419:\n        /* \"#utility.yul\":3233:3236   */\n      dup3\n        /* \"#utility.yul\":3226:3263   */\n      mstore\n        /* \"#utility.yul\":3151:3269   */\n      pop\n      pop\n      jump\t// out\n        /* \"#utility.yul\":3275:3497   */\n    tag_23:\n        /* \"#utility.yul\":3368:3372   */\n      0x00\n        /* \"#utility.yul\":3406:3408   */\n      0x20\n        /* \"#utility.yul\":3395:3404   */\n      dup3\n        /* \"#utility.yul\":3391:3409   */\n      add\n        /* \"#utility.yul\":3383:3409   */\n      swap1\n      pop\n        /* \"#utility.yul\":3419:3490   */\n      tag_421\n        /* \"#utility.yul\":3487:3488   */\n      0x00\n        /* \"#utility.yul\":3476:3485   */\n      dup4\n        /* \"#utility.yul\":3472:3489   */\n      add\n        /* \"#utility.yul\":3463:3469   */\n      dup5\n        /* \"#utility.yul\":3419:3490   */\n      tag_316\n      jump\t// in\n    tag_421:\n        /* \"#utility.yul\":3275:3497   */\n      swap3\n      swap2\n      pop\n      pop\n      jump\t// out\n        /* \"#utility.yul\":3503:3643   */\n    tag_317:\n        /* \"#utility.yul\":3596:3602   */\n      0x00\n        /* \"#utility.yul\":3630:3635   */\n      dup2\n        /* \"#utility.yul\":3624:3636   */\n      mload\n        /* \"#utility.yul\":3614:3636   */\n      swap1\n      pop\n        /* \"#utility.yul\":3503:3643   */\n      swap2\n      swap1\n      pop\n      jump\t// out\n        /* \"#utility.yul\":3649:3859   */\n    tag_318:\n        /* \"#utility.yul\":3774:3785   */\n      0x00\n        /* \"#utility.yul\":3808:3814   */\n      dup3\n        /* \"#utility.yul\":3803:3806   */\n      dup3\n        /* \"#utility.yul\":3796:3815   */\n      mstore\n        /* \"#utility.yul\":3848:3852   */\n      0x20\n        /* \"#utility.yul\":3843:3846   */\n      dup3\n        /* \"#utility.yul\":3839:3853   */\n      add\n        /* \"#utility.yul\":3824:3853   */\n      swap1\n      pop\n        /* \"#utility.yul\":3649:3859   */\n      swap3\n      swap2\n      pop\n      pop\n      jump\t// out\n        /* \"#utility.yul\":3865:4023   */\n    tag_319:\n        /* \"#utility.yul\":3958:3962   */\n      0x00\n        /* \"#utility.yul\":3981:3984   */\n      dup2\n        /* \"#utility.yul\":3973:3984   */\n      swap1\n      pop\n        /* \"#utility.yul\":4011:4015   */\n      0x20\n        /* \"#utility.yul\":4006:4009   */\n      dup3\n        /* \"#utility.yul\":4002:4016   */\n      add\n        /* \"#utility.yul\":3994:4016   */\n      swap1\n      pop\n        /* \"#utility.yul\":3865:4023   */\n      swap2\n      swap1\n      pop\n      jump\t// out\n        /* \"#utility.yul\":4029:4137   */\n    tag_320:\n        /* \"#utility.yul\":4106:4130   */\n      tag_426\n        /* \"#utility.yul\":4124:4129   */\n      dup2\n        /* \"#utility.yul\":4106:4130   */\n      tag_315\n      jump\t// in\n    tag_426:\n        /* \"#utility.yul\":4101:4104   */\n      dup3\n        /* \"#utility.yul\":4094:4131   */\n      mstore\n        /* \"#utility.yul\":4029:4137   */\n      pop\n      pop\n      jump\t// out\n        /* \"#utility.yul\":4143:4242   */\n    tag_321:\n        /* \"#utility.yul\":4195:4201   */\n      0x00\n        /* \"#utility.yul\":4229:4234   */\n      dup2\n        /* \"#utility.yul\":4223:4235   */\n      mload\n        /* \"#utility.yul\":4213:4235   */\n      swap1\n      pop\n        /* \"#utility.yul\":4143:4242   */\n      swap2\n      swap1\n      pop\n      jump\t// out\n        /* \"#utility.yul\":4248:4407   */\n    tag_322:\n        /* \"#utility.yul\":4322:4333   */\n      0x00\n        /* \"#utility.yul\":4356:4362   */\n      dup3\n        /* \"#utility.yul\":4351:4354   */\n      dup3\n        /* \"#utility.yul\":4344:4363   */\n      mstore\n        /* \"#utility.yul\":4396:4400   */\n      0x20\n        /* \"#utility.yul\":4391:4394   */\n      dup3\n        /* \"#utility.yul\":4387:4401   */\n      add\n        /* \"#utility.yul\":4372:4401   */\n      swap1\n      pop\n        /* \"#utility.yul\":4248:4407   */\n      swap3\n      swap2\n      pop\n      pop\n      jump\t// out\n        /* \"#utility.yul\":4413:4659   */\n    tag_323:\n        /* \"#utility.yul\":4494:4495   */\n      0x00\n        /* \"#utility.yul\":4504:4617   */\n    tag_430:\n        /* \"#utility.yul\":4518:4524   */\n      dup4\n        /* \"#utility.yul\":4515:4516   */\n      dup2\n        /* \"#utility.yul\":4512:4525   */\n      lt\n        /* \"#utility.yul\":4504:4617   */\n      iszero\n      tag_432\n      jumpi\n        /* \"#utility.yul\":4603:4604   */\n      dup1\n        /* \"#utility.yul\":4598:4601   */\n      dup3\n        /* \"#utility.yul\":4594:4605   */\n      add\n        /* \"#utility.yul\":4588:4606   */\n      mload\n        /* \"#utility.yul\":4584:4585   */\n      dup2\n        /* \"#utility.yul\":4579:4582   */\n      dup5\n        /* \"#utility.yul\":4575:4586   */\n      add\n        /* \"#utility.yul\":4568:4607   */\n      mstore\n        /* \"#utility.yul\":4540:4542   */\n      0x20\n        /* \"#utility.yul\":4537:4538   */\n      dup2\n        /* \"#utility.yul\":4533:4543   */\n      add\n        /* \"#utility.yul\":4528:4543   */\n      swap1\n      pop\n        /* \"#utility.yul\":4504:4617   */\n      jump(tag_430)\n    tag_432:\n        /* \"#utility.yul\":4651:4652   */\n      0x00\n        /* \"#utility.yul\":4642:4648   */\n      dup5\n        /* \"#utility.yul\":4637:4640   */\n      dup5\n        /* \"#utility.yul\":4633:4649   */\n      add\n        /* \"#utility.yul\":4626:4653   */\n      mstore\n        /* \"#utility.yul\":4475:4659   */\n      pop\n        /* \"#utility.yul\":4413:4659   */\n      pop\n      pop\n      pop\n      jump\t// out\n        /* \"#utility.yul\":4665:5022   */\n    tag_324:\n        /* \"#utility.yul\":4743:4746   */\n      0x00\n        /* \"#utility.yul\":4771:4810   */\n      tag_434\n        /* \"#utility.yul\":4804:4809   */\n      dup3\n        /* \"#utility.yul\":4771:4810   */\n      tag_321\n      jump\t// in\n    tag_434:\n        /* \"#utility.yul\":4826:4887   */\n      tag_435\n        /* \"#utility.yul\":4880:4886   */\n      dup2\n        /* \"#utility.yul\":4875:4878   */\n      dup6\n        /* \"#utility.yul\":4826:4887   */\n      tag_322\n      jump\t// in\n    tag_435:\n        /* \"#utility.yul\":4819:4887   */\n      swap4\n      pop\n        /* \"#utility.yul\":4896:4961   */\n      tag_436\n        /* \"#utility.yul\":4954:4960   */\n      dup2\n        /* \"#utility.yul\":4949:4952   */\n      dup6\n        /* \"#utility.yul\":4942:4946   */\n      0x20\n        /* \"#utility.yul\":4935:4940   */\n      dup7\n        /* \"#utility.yul\":4931:4947   */\n      add\n        /* \"#utility.yul\":4896:4961   */\n      tag_323\n      jump\t// in\n    tag_436:\n        /* \"#utility.yul\":4986:5015   */\n      tag_437\n        /* \"#utility.yul\":5008:5014   */\n      dup2\n        /* \"#utility.yul\":4986:5015   */\n      tag_308\n      jump\t// in\n    tag_437:\n        /* \"#utility.yul\":4981:4984   */\n      dup5\n        /* \"#utility.yul\":4977:5016   */\n      add\n        /* \"#utility.yul\":4970:5016   */\n      swap2\n      pop\n        /* \"#utility.yul\":4747:5022   */\n      pop\n        /* \"#utility.yul\":4665:5022   */\n      swap3\n      swap2\n      pop\n      pop\n      jump\t// out\n        /* \"#utility.yul\":5092:5868   */\n    tag_325:\n        /* \"#utility.yul\":5203:5206   */\n      0x00\n        /* \"#utility.yul\":5239:5243   */\n      0x60\n        /* \"#utility.yul\":5234:5237   */\n      dup4\n        /* \"#utility.yul\":5230:5244   */\n      add\n        /* \"#utility.yul\":5328:5332   */\n      0x00\n        /* \"#utility.yul\":5321:5326   */\n      dup4\n        /* \"#utility.yul\":5317:5333   */\n      add\n        /* \"#utility.yul\":5311:5334   */\n      mload\n        /* \"#utility.yul\":5347:5410   */\n      tag_439\n        /* \"#utility.yul\":5404:5408   */\n      0x00\n        /* \"#utility.yul\":5399:5402   */\n      dup7\n        /* \"#utility.yul\":5395:5409   */\n      add\n        /* \"#utility.yul\":5381:5393   */\n      dup3\n        /* \"#utility.yul\":5347:5410   */\n      tag_320\n      jump\t// in\n    tag_439:\n        /* \"#utility.yul\":5254:5420   */\n      pop\n        /* \"#utility.yul\":5503:5507   */\n      0x20\n        /* \"#utility.yul\":5496:5501   */\n      dup4\n        /* \"#utility.yul\":5492:5508   */\n      add\n        /* \"#utility.yul\":5486:5509   */\n      mload\n        /* \"#utility.yul\":5522:5585   */\n      tag_440\n        /* \"#utility.yul\":5579:5583   */\n      0x20\n        /* \"#utility.yul\":5574:5577   */\n      dup7\n        /* \"#utility.yul\":5570:5584   */\n      add\n        /* \"#utility.yul\":5556:5568   */\n      dup3\n        /* \"#utility.yul\":5522:5585   */\n      tag_320\n      jump\t// in\n    tag_440:\n        /* \"#utility.yul\":5430:5595   */\n      pop\n        /* \"#utility.yul\":5678:5682   */\n      0x40\n        /* \"#utility.yul\":5671:5676   */\n      dup4\n        /* \"#utility.yul\":5667:5683   */\n      add\n        /* \"#utility.yul\":5661:5684   */\n      mload\n        /* \"#utility.yul\":5731:5734   */\n      dup5\n        /* \"#utility.yul\":5725:5729   */\n      dup3\n        /* \"#utility.yul\":5721:5735   */\n      sub\n        /* \"#utility.yul\":5714:5718   */\n      0x40\n        /* \"#utility.yul\":5709:5712   */\n      dup7\n        /* \"#utility.yul\":5705:5719   */\n      add\n        /* \"#utility.yul\":5698:5736   */\n      mstore\n        /* \"#utility.yul\":5757:5830   */\n      tag_441\n        /* \"#utility.yul\":5825:5829   */\n      dup3\n        /* \"#utility.yul\":5811:5823   */\n      dup3\n        /* \"#utility.yul\":5757:5830   */\n      tag_324\n      jump\t// in\n    tag_441:\n        /* \"#utility.yul\":5749:5830   */\n      swap2\n      pop\n        /* \"#utility.yul\":5605:5841   */\n      pop\n        /* \"#utility.yul\":5858:5862   */\n      dup1\n        /* \"#utility.yul\":5851:5862   */\n      swap2\n      pop\n        /* \"#utility.yul\":5208:5868   */\n      pop\n        /* \"#utility.yul\":5092:5868   */\n      swap3\n      swap2\n      pop\n      pop\n      jump\t// out\n        /* \"#utility.yul\":5874:6134   */\n    tag_326:\n        /* \"#utility.yul\":5995:6005   */\n      0x00\n        /* \"#utility.yul\":6030:6128   */\n      tag_443\n        /* \"#utility.yul\":6124:6127   */\n      dup4\n        /* \"#utility.yul\":6116:6122   */\n      dup4\n        /* \"#utility.yul\":6030:6128   */\n      tag_325\n      jump\t// in\n    tag_443:\n        /* \"#utility.yul\":6016:6128   */\n      swap1\n      pop\n        /* \"#utility.yul\":5874:6134   */\n      swap3\n      swap2\n      pop\n      pop\n      jump\t// out\n        /* \"#utility.yul\":6140:6279   */\n    tag_327:\n        /* \"#utility.yul\":6236:6240   */\n      0x00\n        /* \"#utility.yul\":6268:6272   */\n      0x20\n        /* \"#utility.yul\":6263:6266   */\n      dup3\n        /* \"#utility.yul\":6259:6273   */\n      add\n        /* \"#utility.yul\":6251:6273   */\n      swap1\n      pop\n        /* \"#utility.yul\":6140:6279   */\n      swap2\n      swap1\n      pop\n      jump\t// out\n        /* \"#utility.yul\":6353:7472   */\n    tag_328:\n        /* \"#utility.yul\":6524:6527   */\n      0x00\n        /* \"#utility.yul\":6553:6633   */\n      tag_446\n        /* \"#utility.yul\":6627:6632   */\n      dup3\n        /* \"#utility.yul\":6553:6633   */\n      tag_317\n      jump\t// in\n    tag_446:\n        /* \"#utility.yul\":6649:6761   */\n      tag_447\n        /* \"#utility.yul\":6754:6760   */\n      dup2\n        /* \"#utility.yul\":6749:6752   */\n      dup6\n        /* \"#utility.yul\":6649:6761   */\n      tag_318\n      jump\t// in\n    tag_447:\n        /* \"#utility.yul\":6642:6761   */\n      swap4\n      pop\n        /* \"#utility.yul\":6787:6790   */\n      dup4\n        /* \"#utility.yul\":6832:6836   */\n      0x20\n        /* \"#utility.yul\":6824:6830   */\n      dup3\n        /* \"#utility.yul\":6820:6837   */\n      mul\n        /* \"#utility.yul\":6815:6818   */\n      dup6\n        /* \"#utility.yul\":6811:6838   */\n      add\n        /* \"#utility.yul\":6862:6944   */\n      tag_448\n        /* \"#utility.yul\":6938:6943   */\n      dup6\n        /* \"#utility.yul\":6862:6944   */\n      tag_319\n      jump\t// in\n    tag_448:\n        /* \"#utility.yul\":6967:6974   */\n      dup1\n        /* \"#utility.yul\":6998:6999   */\n      0x00\n        /* \"#utility.yul\":6983:7427   */\n    tag_449:\n        /* \"#utility.yul\":7008:7014   */\n      dup6\n        /* \"#utility.yul\":7005:7006   */\n      dup2\n        /* \"#utility.yul\":7002:7015   */\n      lt\n        /* \"#utility.yul\":6983:7427   */\n      iszero\n      tag_451\n      jumpi\n        /* \"#utility.yul\":7079:7088   */\n      dup5\n        /* \"#utility.yul\":7073:7077   */\n      dup5\n        /* \"#utility.yul\":7069:7089   */\n      sub\n        /* \"#utility.yul\":7064:7067   */\n      dup10\n        /* \"#utility.yul\":7057:7090   */\n      mstore\n        /* \"#utility.yul\":7130:7136   */\n      dup2\n        /* \"#utility.yul\":7124:7137   */\n      mload\n        /* \"#utility.yul\":7158:7274   */\n      tag_452\n        /* \"#utility.yul\":7269:7273   */\n      dup6\n        /* \"#utility.yul\":7254:7267   */\n      dup3\n        /* \"#utility.yul\":7158:7274   */\n      tag_326\n      jump\t// in\n    tag_452:\n        /* \"#utility.yul\":7150:7274   */\n      swap5\n      pop\n        /* \"#utility.yul\":7297:7383   */\n      tag_453\n        /* \"#utility.yul\":7376:7382   */\n      dup4\n        /* \"#utility.yul\":7297:7383   */\n      tag_327\n      jump\t// in\n    tag_453:\n        /* \"#utility.yul\":7287:7383   */\n      swap3\n      pop\n        /* \"#utility.yul\":7412:7416   */\n      0x20\n        /* \"#utility.yul\":7407:7410   */\n      dup11\n        /* \"#utility.yul\":7403:7417   */\n      add\n        /* \"#utility.yul\":7396:7417   */\n      swap10\n      pop\n        /* \"#utility.yul\":7043:7427   */\n      pop\n        /* \"#utility.yul\":7030:7031   */\n      0x01\n        /* \"#utility.yul\":7027:7028   */\n      dup2\n        /* \"#utility.yul\":7023:7032   */\n      add\n        /* \"#utility.yul\":7018:7032   */\n      swap1\n      pop\n        /* \"#utility.yul\":6983:7427   */\n      jump(tag_449)\n    tag_451:\n        /* \"#utility.yul\":6987:7001   */\n      pop\n        /* \"#utility.yul\":7443:7447   */\n      dup3\n        /* \"#utility.yul\":7436:7447   */\n      swap8\n      pop\n        /* \"#utility.yul\":7463:7466   */\n      dup8\n        /* \"#utility.yul\":7456:7466   */\n      swap6\n      pop\n        /* \"#utility.yul\":6529:7472   */\n      pop\n      pop\n      pop\n      pop\n      pop\n        /* \"#utility.yul\":6353:7472   */\n      swap3\n      swap2\n      pop\n      pop\n      jump\t// out\n        /* \"#utility.yul\":7478:7955   */\n    tag_27:\n        /* \"#utility.yul\":7673:7677   */\n      0x00\n        /* \"#utility.yul\":7711:7713   */\n      0x20\n        /* \"#utility.yul\":7700:7709   */\n      dup3\n        /* \"#utility.yul\":7696:7714   */\n      add\n        /* \"#utility.yul\":7688:7714   */\n      swap1\n      pop\n        /* \"#utility.yul\":7760:7769   */\n      dup2\n        /* \"#utility.yul\":7754:7758   */\n      dup2\n        /* \"#utility.yul\":7750:7770   */\n      sub\n        /* \"#utility.yul\":7746:7747   */\n      0x00\n        /* \"#utility.yul\":7735:7744   */\n      dup4\n        /* \"#utility.yul\":7731:7748   */\n      add\n        /* \"#utility.yul\":7724:7771   */\n      mstore\n        /* \"#utility.yul\":7788:7948   */\n      tag_455\n        /* \"#utility.yul\":7943:7947   */\n      dup2\n        /* \"#utility.yul\":7934:7940   */\n      dup5\n        /* \"#utility.yul\":7788:7948   */\n      tag_328\n      jump\t// in\n    tag_455:\n        /* \"#utility.yul\":7780:7948   */\n      swap1\n      pop\n        /* \"#utility.yul\":7478:7955   */\n      swap3\n      swap2\n      pop\n      pop\n      jump\t// out\n        /* \"#utility.yul\":7961:8051   */\n    tag_329:\n        /* \"#utility.yul\":7995:8002   */\n      0x00\n        /* \"#utility.yul\":8038:8043   */\n      dup2\n        /* \"#utility.yul\":8031:8044   */\n      iszero\n        /* \"#utility.yul\":8024:8045   */\n      iszero\n        /* \"#utility.yul\":8013:8045   */\n      swap1\n      pop\n        /* \"#utility.yul\":7961:8051   */\n      swap2\n      swap1\n      pop\n      jump\t// out\n        /* \"#utility.yul\":8057:8166   */\n    tag_330:\n        /* \"#utility.yul\":8138:8159   */\n      tag_458\n        /* \"#utility.yul\":8153:8158   */\n      dup2\n        /* \"#utility.yul\":8138:8159   */\n      tag_329\n      jump\t// in\n    tag_458:\n        /* \"#utility.yul\":8133:8136   */\n      dup3\n        /* \"#utility.yul\":8126:8160   */\n      mstore\n        /* \"#utility.yul\":8057:8166   */\n      pop\n      pop\n      jump\t// out\n        /* \"#utility.yul\":8172:8382   */\n    tag_31:\n        /* \"#utility.yul\":8259:8263   */\n      0x00\n        /* \"#utility.yul\":8297:8299   */\n      0x20\n        /* \"#utility.yul\":8286:8295   */\n      dup3\n        /* \"#utility.yul\":8282:8300   */\n      add\n        /* \"#utility.yul\":8274:8300   */\n      swap1\n      pop\n        /* \"#utility.yul\":8310:8375   */\n      tag_460\n        /* \"#utility.yul\":8372:8373   */\n      0x00\n        /* \"#utility.yul\":8361:8370   */\n      dup4\n        /* \"#utility.yul\":8357:8374   */\n      add\n        /* \"#utility.yul\":8348:8354   */\n      dup5\n        /* \"#utility.yul\":8310:8375   */\n      tag_330\n      jump\t// in\n    tag_460:\n        /* \"#utility.yul\":8172:8382   */\n      swap3\n      swap2\n      pop\n      pop\n      jump\t// out\n        /* \"#utility.yul\":8388:8518   */\n    tag_331:\n        /* \"#utility.yul\":8479:8485   */\n      0x00\n        /* \"#utility.yul\":8507:8511   */\n      0x04\n        /* \"#utility.yul\":8497:8511   */\n      swap1\n      pop\n        /* \"#utility.yul\":8388:8518   */\n      swap2\n      swap1\n      pop\n      jump\t// out\n        /* \"#utility.yul\":8524:8693   */\n    tag_332:\n        /* \"#utility.yul\":8647:8658   */\n      0x00\n        /* \"#utility.yul\":8684:8687   */\n      dup2\n        /* \"#utility.yul\":8669:8687   */\n      swap1\n      pop\n        /* \"#utility.yul\":8524:8693   */\n      swap3\n      swap2\n      pop\n      pop\n      jump\t// out\n        /* \"#utility.yul\":8699:8823   */\n    tag_333:\n        /* \"#utility.yul\":8790:8794   */\n      0x00\n        /* \"#utility.yul\":8813:8816   */\n      dup2\n        /* \"#utility.yul\":8805:8816   */\n      swap1\n      pop\n        /* \"#utility.yul\":8699:8823   */\n      swap2\n      swap1\n      pop\n      jump\t// out\n        /* \"#utility.yul\":8829:8966   */\n    tag_334:\n        /* \"#utility.yul\":8923:8927   */\n      0x00\n        /* \"#utility.yul\":8955:8959   */\n      0x20\n        /* \"#utility.yul\":8950:8953   */\n      dup3\n        /* \"#utility.yul\":8946:8960   */\n      add\n        /* \"#utility.yul\":8938:8960   */\n      swap1\n      pop\n        /* \"#utility.yul\":8829:8966   */\n      swap2\n      swap1\n      pop\n      jump\t// out\n        /* \"#utility.yul\":9042:10149   */\n    tag_335:\n        /* \"#utility.yul\":9209:9212   */\n      0x00\n        /* \"#utility.yul\":9238:9316   */\n      tag_466\n        /* \"#utility.yul\":9310:9315   */\n      dup3\n        /* \"#utility.yul\":9238:9316   */\n      tag_331\n      jump\t// in\n    tag_466:\n        /* \"#utility.yul\":9332:9442   */\n      tag_467\n        /* \"#utility.yul\":9435:9441   */\n      dup2\n        /* \"#utility.yul\":9430:9433   */\n      dup6\n        /* \"#utility.yul\":9332:9442   */\n      tag_332\n      jump\t// in\n    tag_467:\n        /* \"#utility.yul\":9325:9442   */\n      swap4\n      pop\n        /* \"#utility.yul\":9468:9471   */\n      dup4\n        /* \"#utility.yul\":9513:9517   */\n      0x20\n        /* \"#utility.yul\":9505:9511   */\n      dup3\n        /* \"#utility.yul\":9501:9518   */\n      mul\n        /* \"#utility.yul\":9496:9499   */\n      dup6\n        /* \"#utility.yul\":9492:9519   */\n      add\n        /* \"#utility.yul\":9543:9623   */\n      tag_468\n        /* \"#utility.yul\":9617:9622   */\n      dup6\n        /* \"#utility.yul\":9543:9623   */\n      tag_333\n      jump\t// in\n    tag_468:\n        /* \"#utility.yul\":9646:9653   */\n      dup1\n        /* \"#utility.yul\":9677:9678   */\n      0x00\n        /* \"#utility.yul\":9662:10104   */\n    tag_469:\n        /* \"#utility.yul\":9687:9693   */\n      dup6\n        /* \"#utility.yul\":9684:9685   */\n      dup2\n        /* \"#utility.yul\":9681:9694   */\n      lt\n        /* \"#utility.yul\":9662:10104   */\n      iszero\n      tag_471\n      jumpi\n        /* \"#utility.yul\":9758:9767   */\n      dup5\n        /* \"#utility.yul\":9752:9756   */\n      dup5\n        /* \"#utility.yul\":9748:9768   */\n      sub\n        /* \"#utility.yul\":9743:9746   */\n      dup10\n        /* \"#utility.yul\":9736:9769   */\n      mstore\n        /* \"#utility.yul\":9809:9815   */\n      dup2\n        /* \"#utility.yul\":9803:9816   */\n      mload\n        /* \"#utility.yul\":9837:9953   */\n      tag_472\n        /* \"#utility.yul\":9948:9952   */\n      dup6\n        /* \"#utility.yul\":9933:9946   */\n      dup3\n        /* \"#utility.yul\":9837:9953   */\n      tag_326\n      jump\t// in\n    tag_472:\n        /* \"#utility.yul\":9829:9953   */\n      swap5\n      pop\n        /* \"#utility.yul\":9976:10060   */\n      tag_473\n        /* \"#utility.yul\":10053:10059   */\n      dup4\n        /* \"#utility.yul\":9976:10060   */\n      tag_334\n      jump\t// in\n    tag_473:\n        /* \"#utility.yul\":9966:10060   */\n      swap3\n      pop\n        /* \"#utility.yul\":10089:10093   */\n      0x20\n        /* \"#utility.yul\":10084:10087   */\n      dup11\n        /* \"#utility.yul\":10080:10094   */\n      add\n        /* \"#utility.yul\":10073:10094   */\n      swap10\n      pop\n        /* \"#utility.yul\":9722:10104   */\n      pop\n        /* \"#utility.yul\":9709:9710   */\n      0x01\n        /* \"#utility.yul\":9706:9707   */\n      dup2\n        /* \"#utility.yul\":9702:9711   */\n      add\n        /* \"#utility.yul\":9697:9711   */\n      swap1\n      pop\n        /* \"#utility.yul\":9662:10104   */\n      jump(tag_469)\n    tag_471:\n        /* \"#utility.yul\":9666:9680   */\n      pop\n        /* \"#utility.yul\":10120:10124   */\n      dup3\n        /* \"#utility.yul\":10113:10124   */\n      swap8\n      pop\n        /* \"#utility.yul\":10140:10143   */\n      dup8\n        /* \"#utility.yul\":10133:10143   */\n      swap6\n      pop\n        /* \"#utility.yul\":9214:10149   */\n      pop\n      pop\n      pop\n      pop\n      pop\n        /* \"#utility.yul\":9042:10149   */\n      swap3\n      swap2\n      pop\n      pop\n      jump\t// out\n        /* \"#utility.yul\":10155:10624   */\n    tag_35:\n        /* \"#utility.yul\":10346:10350   */\n      0x00\n        /* \"#utility.yul\":10384:10386   */\n      0x20\n        /* \"#utility.yul\":10373:10382   */\n      dup3\n        /* \"#utility.yul\":10369:10387   */\n      add\n        /* \"#utility.yul\":10361:10387   */\n      swap1\n      pop\n        /* \"#utility.yul\":10433:10442   */\n      dup2\n        /* \"#utility.yul\":10427:10431   */\n      dup2\n        /* \"#utility.yul\":10423:10443   */\n      sub\n        /* \"#utility.yul\":10419:10420   */\n      0x00\n        /* \"#utility.yul\":10408:10417   */\n      dup4\n        /* \"#utility.yul\":10404:10421   */\n      add\n        /* \"#utility.yul\":10397:10444   */\n      mstore\n        /* \"#utility.yul\":10461:10617   */\n      tag_475\n        /* \"#utility.yul\":10612:10616   */\n      dup2\n        /* \"#utility.yul\":10603:10609   */\n      dup5\n        /* \"#utility.yul\":10461:10617   */\n      tag_335\n      jump\t// in\n    tag_475:\n        /* \"#utility.yul\":10453:10617   */\n      swap1\n      pop\n        /* \"#utility.yul\":10155:10624   */\n      swap3\n      swap2\n      pop\n      pop\n      jump\t// out\n        /* \"#utility.yul\":10630:10752   */\n    tag_336:\n        /* \"#utility.yul\":10703:10727   */\n      tag_477\n        /* \"#utility.yul\":10721:10726   */\n      dup2\n        /* \"#utility.yul\":10703:10727   */\n      tag_315\n      jump\t// in\n    tag_477:\n        /* \"#utility.yul\":10696:10701   */\n      dup2\n        /* \"#utility.yul\":10693:10728   */\n      eq\n        /* \"#utility.yul\":10683:10746   */\n      tag_478\n      jumpi\n        /* \"#utility.yul\":10742:10743   */\n      0x00\n        /* \"#utility.yul\":10739:10740   */\n      dup1\n        /* \"#utility.yul\":10732:10744   */\n      revert\n        /* \"#utility.yul\":10683:10746   */\n    tag_478:\n        /* \"#utility.yul\":10630:10752   */\n      pop\n      jump\t// out\n        /* \"#utility.yul\":10758:10897   */\n    tag_337:\n        /* \"#utility.yul\":10804:10809   */\n      0x00\n        /* \"#utility.yul\":10842:10848   */\n      dup2\n        /* \"#utility.yul\":10829:10849   */\n      calldataload\n        /* \"#utility.yul\":10820:10849   */\n      swap1\n      pop\n        /* \"#utility.yul\":10858:10891   */\n      tag_480\n        /* \"#utility.yul\":10885:10890   */\n      dup2\n        /* \"#utility.yul\":10858:10891   */\n      tag_336\n      jump\t// in\n    tag_480:\n        /* \"#utility.yul\":10758:10897   */\n      swap3\n      swap2\n      pop\n      pop\n      jump\t// out\n        /* \"#utility.yul\":10903:11702   */\n    tag_41:\n        /* \"#utility.yul\":10990:10996   */\n      0x00\n        /* \"#utility.yul\":10998:11004   */\n      dup1\n        /* \"#utility.yul\":11006:11012   */\n      0x00\n        /* \"#utility.yul\":11055:11057   */\n      0x60\n        /* \"#utility.yul\":11043:11052   */\n      dup5\n        /* \"#utility.yul\":11034:11041   */\n      dup7\n        /* \"#utility.yul\":11030:11053   */\n      sub\n        /* \"#utility.yul\":11026:11058   */\n      slt\n        /* \"#utility.yul\":11023:11142   */\n      iszero\n      tag_482\n      jumpi\n        /* \"#utility.yul\":11061:11140   */\n      tag_483\n      tag_304\n      jump\t// in\n    tag_483:\n        /* \"#utility.yul\":11023:11142   */\n    tag_482:\n        /* \"#utility.yul\":11209:11210   */\n      0x00\n        /* \"#utility.yul\":11198:11207   */\n      dup5\n        /* \"#utility.yul\":11194:11211   */\n      add\n        /* \"#utility.yul\":11181:11212   */\n      calldataload\n        /* \"#utility.yul\":11239:11257   */\n      0xffffffffffffffff\n        /* \"#utility.yul\":11231:11237   */\n      dup2\n        /* \"#utility.yul\":11228:11258   */\n      gt\n        /* \"#utility.yul\":11225:11342   */\n      iszero\n      tag_484\n      jumpi\n        /* \"#utility.yul\":11261:11340   */\n      tag_485\n      tag_305\n      jump\t// in\n    tag_485:\n        /* \"#utility.yul\":11225:11342   */\n    tag_484:\n        /* \"#utility.yul\":11366:11429   */\n      tag_486\n        /* \"#utility.yul\":11421:11428   */\n      dup7\n        /* \"#utility.yul\":11412:11418   */\n      dup3\n        /* \"#utility.yul\":11401:11410   */\n      dup8\n        /* \"#utility.yul\":11397:11419   */\n      add\n        /* \"#utility.yul\":11366:11429   */\n      tag_314\n      jump\t// in\n    tag_486:\n        /* \"#utility.yul\":11356:11429   */\n      swap4\n      pop\n        /* \"#utility.yul\":11152:11439   */\n      pop\n        /* \"#utility.yul\":11478:11480   */\n      0x20\n        /* \"#utility.yul\":11504:11557   */\n      tag_487\n        /* \"#utility.yul\":11549:11556   */\n      dup7\n        /* \"#utility.yul\":11540:11546   */\n      dup3\n        /* \"#utility.yul\":11529:11538   */\n      dup8\n        /* \"#utility.yul\":11525:11547   */\n      add\n        /* \"#utility.yul\":11504:11557   */\n      tag_337\n      jump\t// in\n    tag_487:\n        /* \"#utility.yul\":11494:11557   */\n      swap3\n      pop\n        /* \"#utility.yul\":11449:11567   */\n      pop\n        /* \"#utility.yul\":11606:11608   */\n      0x40\n        /* \"#utility.yul\":11632:11685   */\n      tag_488\n        /* \"#utility.yul\":11677:11684   */\n      dup7\n        /* \"#utility.yul\":11668:11674   */\n      dup3\n        /* \"#utility.yul\":11657:11666   */\n      dup8\n        /* \"#utility.yul\":11653:11675   */\n      add\n        /* \"#utility.yul\":11632:11685   */\n      tag_337\n      jump\t// in\n    tag_488:\n        /* \"#utility.yul\":11622:11685   */\n      swap2\n      pop\n        /* \"#utility.yul\":11577:11695   */\n      pop\n        /* \"#utility.yul\":10903:11702   */\n      swap3\n      pop\n      swap3\n      pop\n      swap3\n      jump\t// out\n        /* \"#utility.yul\":11772:12558   */\n    tag_338:\n        /* \"#utility.yul\":11893:11896   */\n      0x00\n        /* \"#utility.yul\":11929:11933   */\n      0x60\n        /* \"#utility.yul\":11924:11927   */\n      dup4\n        /* \"#utility.yul\":11920:11934   */\n      add\n        /* \"#utility.yul\":12018:12022   */\n      0x00\n        /* \"#utility.yul\":12011:12016   */\n      dup4\n        /* \"#utility.yul\":12007:12023   */\n      add\n        /* \"#utility.yul\":12001:12024   */\n      mload\n        /* \"#utility.yul\":12037:12100   */\n      tag_490\n        /* \"#utility.yul\":12094:12098   */\n      0x00\n        /* \"#utility.yul\":12089:12092   */\n      dup7\n        /* \"#utility.yul\":12085:12099   */\n      add\n        /* \"#utility.yul\":12071:12083   */\n      dup3\n        /* \"#utility.yul\":12037:12100   */\n      tag_320\n      jump\t// in\n    tag_490:\n        /* \"#utility.yul\":11944:12110   */\n      pop\n        /* \"#utility.yul\":12193:12197   */\n      0x20\n        /* \"#utility.yul\":12186:12191   */\n      dup4\n        /* \"#utility.yul\":12182:12198   */\n      add\n        /* \"#utility.yul\":12176:12199   */\n      mload\n        /* \"#utility.yul\":12212:12275   */\n      tag_491\n        /* \"#utility.yul\":12269:12273   */\n      0x20\n        /* \"#utility.yul\":12264:12267   */\n      dup7\n        /* \"#utility.yul\":12260:12274   */\n      add\n        /* \"#utility.yul\":12246:12258   */\n      dup3\n        /* \"#utility.yul\":12212:12275   */\n      tag_320\n      jump\t// in\n    tag_491:\n        /* \"#utility.yul\":12120:12285   */\n      pop\n        /* \"#utility.yul\":12368:12372   */\n      0x40\n        /* \"#utility.yul\":12361:12366   */\n      dup4\n        /* \"#utility.yul\":12357:12373   */\n      add\n        /* \"#utility.yul\":12351:12374   */\n      mload\n        /* \"#utility.yul\":12421:12424   */\n      dup5\n        /* \"#utility.yul\":12415:12419   */\n      dup3\n        /* \"#utility.yul\":12411:12425   */\n      sub\n        /* \"#utility.yul\":12404:12408   */\n      0x40\n        /* \"#utility.yul\":12399:12402   */\n      dup7\n        /* \"#utility.yul\":12395:12409   */\n      add\n        /* \"#utility.yul\":12388:12426   */\n      mstore\n        /* \"#utility.yul\":12447:12520   */\n      tag_492\n        /* \"#utility.yul\":12515:12519   */\n      dup3\n        /* \"#utility.yul\":12501:12513   */\n      dup3\n        /* \"#utility.yul\":12447:12520   */\n      tag_324\n      jump\t// in\n    tag_492:\n        /* \"#utility.yul\":12439:12520   */\n      swap2\n      pop\n        /* \"#utility.yul\":12295:12531   */\n      pop\n        /* \"#utility.yul\":12548:12552   */\n      dup1\n        /* \"#utility.yul\":12541:12552   */\n      swap2\n      pop\n        /* \"#utility.yul\":11898:12558   */\n      pop\n        /* \"#utility.yul\":11772:12558   */\n      swap3\n      swap2\n      pop\n      pop\n      jump\t// out\n        /* \"#utility.yul\":12564:12941   */\n    tag_47:\n        /* \"#utility.yul\":12709:12713   */\n      0x00\n        /* \"#utility.yul\":12747:12749   */\n      0x20\n        /* \"#utility.yul\":12736:12745   */\n      dup3\n        /* \"#utility.yul\":12732:12750   */\n      add\n        /* \"#utility.yul\":12724:12750   */\n      swap1\n      pop\n        /* \"#utility.yul\":12796:12805   */\n      dup2\n        /* \"#utility.yul\":12790:12794   */\n      dup2\n        /* \"#utility.yul\":12786:12806   */\n      sub\n        /* \"#utility.yul\":12782:12783   */\n      0x00\n        /* \"#utility.yul\":12771:12780   */\n      dup4\n        /* \"#utility.yul\":12767:12784   */\n      add\n        /* \"#utility.yul\":12760:12807   */\n      mstore\n        /* \"#utility.yul\":12824:12934   */\n      tag_494\n        /* \"#utility.yul\":12929:12933   */\n      dup2\n        /* \"#utility.yul\":12920:12926   */\n      dup5\n        /* \"#utility.yul\":12824:12934   */\n      tag_338\n      jump\t// in\n    tag_494:\n        /* \"#utility.yul\":12816:12934   */\n      swap1\n      pop\n        /* \"#utility.yul\":12564:12941   */\n      swap3\n      swap2\n      pop\n      pop\n      jump\t// out\n        /* \"#utility.yul\":12947:13276   */\n    tag_53:\n        /* \"#utility.yul\":13006:13012   */\n      0x00\n        /* \"#utility.yul\":13055:13057   */\n      0x20\n        /* \"#utility.yul\":13043:13052   */\n      dup3\n        /* \"#utility.yul\":13034:13041   */\n      dup5\n        /* \"#utility.yul\":13030:13053   */\n      sub\n        /* \"#utility.yul\":13026:13058   */\n      slt\n        /* \"#utility.yul\":13023:13142   */\n      iszero\n      tag_496\n      jumpi\n        /* \"#utility.yul\":13061:13140   */\n      tag_497\n      tag_304\n      jump\t// in\n    tag_497:\n        /* \"#utility.yul\":13023:13142   */\n    tag_496:\n        /* \"#utility.yul\":13181:13182   */\n      0x00\n        /* \"#utility.yul\":13206:13259   */\n      tag_498\n        /* \"#utility.yul\":13251:13258   */\n      dup5\n        /* \"#utility.yul\":13242:13248   */\n      dup3\n        /* \"#utility.yul\":13231:13240   */\n      dup6\n        /* \"#utility.yul\":13227:13249   */\n      add\n        /* \"#utility.yul\":13206:13259   */\n      tag_337\n      jump\t// in\n    tag_498:\n        /* \"#utility.yul\":13196:13259   */\n      swap2\n      pop\n        /* \"#utility.yul\":13152:13269   */\n      pop\n        /* \"#utility.yul\":12947:13276   */\n      swap3\n      swap2\n      pop\n      pop\n      jump\t// out\n        /* \"#utility.yul\":13282:13451   */\n    tag_339:\n        /* \"#utility.yul\":13366:13377   */\n      0x00\n        /* \"#utility.yul\":13400:13406   */\n      dup3\n        /* \"#utility.yul\":13395:13398   */\n      dup3\n        /* \"#utility.yul\":13388:13407   */\n      mstore\n        /* \"#utility.yul\":13440:13444   */\n      0x20\n        /* \"#utility.yul\":13435:13438   */\n      dup3\n        /* \"#utility.yul\":13431:13445   */\n      add\n        /* \"#utility.yul\":13416:13445   */\n      swap1\n      pop\n        /* \"#utility.yul\":13282:13451   */\n      swap3\n      swap2\n      pop\n      pop\n      jump\t// out\n        /* \"#utility.yul\":13457:13834   */\n    tag_340:\n        /* \"#utility.yul\":13545:13548   */\n      0x00\n        /* \"#utility.yul\":13573:13612   */\n      tag_501\n        /* \"#utility.yul\":13606:13611   */\n      dup3\n        /* \"#utility.yul\":13573:13612   */\n      tag_321\n      jump\t// in\n    tag_501:\n        /* \"#utility.yul\":13628:13699   */\n      tag_502\n        /* \"#utility.yul\":13692:13698   */\n      dup2\n        /* \"#utility.yul\":13687:13690   */\n      dup6\n        /* \"#utility.yul\":13628:13699   */\n      tag_339\n      jump\t// in\n    tag_502:\n        /* \"#utility.yul\":13621:13699   */\n      swap4\n      pop\n        /* \"#utility.yul\":13708:13773   */\n      tag_503\n        /* \"#utility.yul\":13766:13772   */\n      dup2\n        /* \"#utility.yul\":13761:13764   */\n      dup6\n        /* \"#utility.yul\":13754:13758   */\n      0x20\n        /* \"#utility.yul\":13747:13752   */\n      dup7\n        /* \"#utility.yul\":13743:13759   */\n      add\n        /* \"#utility.yul\":13708:13773   */\n      tag_323\n      jump\t// in\n    tag_503:\n        /* \"#utility.yul\":13798:13827   */\n      tag_504\n        /* \"#utility.yul\":13820:13826   */\n      dup2\n        /* \"#utility.yul\":13798:13827   */\n      tag_308\n      jump\t// in\n    tag_504:\n        /* \"#utility.yul\":13793:13796   */\n      dup5\n        /* \"#utility.yul\":13789:13828   */\n      add\n        /* \"#utility.yul\":13782:13828   */\n      swap2\n      pop\n        /* \"#utility.yul\":13549:13834   */\n      pop\n        /* \"#utility.yul\":13457:13834   */\n      swap3\n      swap2\n      pop\n      pop\n      jump\t// out\n        /* \"#utility.yul\":13840:14153   */\n    tag_65:\n        /* \"#utility.yul\":13953:13957   */\n      0x00\n        /* \"#utility.yul\":13991:13993   */\n      0x20\n        /* \"#utility.yul\":13980:13989   */\n      dup3\n        /* \"#utility.yul\":13976:13994   */\n      add\n        /* \"#utility.yul\":13968:13994   */\n      swap1\n      pop\n        /* \"#utility.yul\":14040:14049   */\n      dup2\n        /* \"#utility.yul\":14034:14038   */\n      dup2\n        /* \"#utility.yul\":14030:14050   */\n      sub\n        /* \"#utility.yul\":14026:14027   */\n      0x00\n        /* \"#utility.yul\":14015:14024   */\n      dup4\n        /* \"#utility.yul\":14011:14028   */\n      add\n        /* \"#utility.yul\":14004:14051   */\n      mstore\n        /* \"#utility.yul\":14068:14146   */\n      tag_506\n        /* \"#utility.yul\":14141:14145   */\n      dup2\n        /* \"#utility.yul\":14132:14138   */\n      dup5\n        /* \"#utility.yul\":14068:14146   */\n      tag_340\n      jump\t// in\n    tag_506:\n        /* \"#utility.yul\":14060:14146   */\n      swap1\n      pop\n        /* \"#utility.yul\":13840:14153   */\n      swap3\n      swap2\n      pop\n      pop\n      jump\t// out\n        /* \"#utility.yul\":14159:14307   */\n    tag_341:\n        /* \"#utility.yul\":14261:14272   */\n      0x00\n        /* \"#utility.yul\":14298:14301   */\n      dup2\n        /* \"#utility.yul\":14283:14301   */\n      swap1\n      pop\n        /* \"#utility.yul\":14159:14307   */\n      swap3\n      swap2\n      pop\n      pop\n      jump\t// out\n        /* \"#utility.yul\":14313:14703   */\n    tag_342:\n        /* \"#utility.yul\":14419:14422   */\n      0x00\n        /* \"#utility.yul\":14447:14486   */\n      tag_509\n        /* \"#utility.yul\":14480:14485   */\n      dup3\n        /* \"#utility.yul\":14447:14486   */\n      tag_321\n      jump\t// in\n    tag_509:\n        /* \"#utility.yul\":14502:14591   */\n      tag_510\n        /* \"#utility.yul\":14584:14590   */\n      dup2\n        /* \"#utility.yul\":14579:14582   */\n      dup6\n        /* \"#utility.yul\":14502:14591   */\n      tag_341\n      jump\t// in\n    tag_510:\n        /* \"#utility.yul\":14495:14591   */\n      swap4\n      pop\n        /* \"#utility.yul\":14600:14665   */\n      tag_511\n        /* \"#utility.yul\":14658:14664   */\n      dup2\n        /* \"#utility.yul\":14653:14656   */\n      dup6\n        /* \"#utility.yul\":14646:14650   */\n      0x20\n        /* \"#utility.yul\":14639:14644   */\n      dup7\n        /* \"#utility.yul\":14635:14651   */\n      add\n        /* \"#utility.yul\":14600:14665   */\n      tag_323\n      jump\t// in\n    tag_511:\n        /* \"#utility.yul\":14690:14696   */\n      dup1\n        /* \"#utility.yul\":14685:14688   */\n      dup5\n        /* \"#utility.yul\":14681:14697   */\n      add\n        /* \"#utility.yul\":14674:14697   */\n      swap2\n      pop\n        /* \"#utility.yul\":14423:14703   */\n      pop\n        /* \"#utility.yul\":14313:14703   */\n      swap3\n      swap2\n      pop\n      pop\n      jump\t// out\n        /* \"#utility.yul\":14709:14984   */\n    tag_71:\n        /* \"#utility.yul\":14841:14844   */\n      0x00\n        /* \"#utility.yul\":14863:14958   */\n      tag_513\n        /* \"#utility.yul\":14954:14957   */\n      dup3\n        /* \"#utility.yul\":14945:14951   */\n      dup5\n        /* \"#utility.yul\":14863:14958   */\n      tag_342\n      jump\t// in\n    tag_513:\n        /* \"#utility.yul\":14856:14958   */\n      swap2\n      pop\n        /* \"#utility.yul\":14975:14978   */\n      dup2\n        /* \"#utility.yul\":14968:14978   */\n      swap1\n      pop\n        /* \"#utility.yul\":14709:14984   */\n      swap3\n      swap2\n      pop\n      pop\n      jump\t// out\n        /* \"#utility.yul\":14990:15170   */\n    tag_343:\n        /* \"#utility.yul\":15038:15115   */\n      0x4e487b7100000000000000000000000000000000000000000000000000000000\n        /* \"#utility.yul\":15035:15036   */\n      0x00\n        /* \"#utility.yul\":15028:15116   */\n      mstore\n        /* \"#utility.yul\":15135:15139   */\n      0x22\n        /* \"#utility.yul\":15132:15133   */\n      0x04\n        /* \"#utility.yul\":15125:15140   */\n      mstore\n        /* \"#utility.yul\":15159:15163   */\n      0x24\n        /* \"#utility.yul\":15156:15157   */\n      0x00\n        /* \"#utility.yul\":15149:15164   */\n      revert\n        /* \"#utility.yul\":15176:15496   */\n    tag_77:\n        /* \"#utility.yul\":15220:15226   */\n      0x00\n        /* \"#utility.yul\":15257:15258   */\n      0x02\n        /* \"#utility.yul\":15251:15255   */\n      dup3\n        /* \"#utility.yul\":15247:15259   */\n      div\n        /* \"#utility.yul\":15237:15259   */\n      swap1\n      pop\n        /* \"#utility.yul\":15304:15305   */\n      0x01\n        /* \"#utility.yul\":15298:15302   */\n      dup3\n        /* \"#utility.yul\":15294:15306   */\n      and\n        /* \"#utility.yul\":15325:15343   */\n      dup1\n        /* \"#utility.yul\":15315:15396   */\n      tag_516\n      jumpi\n        /* \"#utility.yul\":15381:15385   */\n      0x7f\n        /* \"#utility.yul\":15373:15379   */\n      dup3\n        /* \"#utility.yul\":15369:15386   */\n      and\n        /* \"#utility.yul\":15359:15386   */\n      swap2\n      pop\n        /* \"#utility.yul\":15315:15396   */\n    tag_516:\n        /* \"#utility.yul\":15443:15445   */\n      0x20\n        /* \"#utility.yul\":15435:15441   */\n      dup3\n        /* \"#utility.yul\":15432:15446   */\n      lt\n        /* \"#utility.yul\":15412:15430   */\n      dup2\n        /* \"#utility.yul\":15409:15447   */\n      sub\n        /* \"#utility.yul\":15406:15490   */\n      tag_517\n      jumpi\n        /* \"#utility.yul\":15462:15480   */\n      tag_518\n      tag_343\n      jump\t// in\n    tag_518:\n        /* \"#utility.yul\":15406:15490   */\n    tag_517:\n        /* \"#utility.yul\":15227:15496   */\n      pop\n        /* \"#utility.yul\":15176:15496   */\n      swap2\n      swap1\n      pop\n      jump\t// out\n        /* \"#utility.yul\":15502:15682   */\n    tag_344:\n        /* \"#utility.yul\":15550:15627   */\n      0x4e487b7100000000000000000000000000000000000000000000000000000000\n        /* \"#utility.yul\":15547:15548   */\n      0x00\n        /* \"#utility.yul\":15540:15628   */\n      mstore\n        /* \"#utility.yul\":15647:15651   */\n      0x11\n        /* \"#utility.yul\":15644:15645   */\n      0x04\n        /* \"#utility.yul\":15637:15652   */\n      mstore\n        /* \"#utility.yul\":15671:15675   */\n      0x24\n        /* \"#utility.yul\":15668:15669   */\n      0x00\n        /* \"#utility.yul\":15661:15676   */\n      revert\n        /* \"#utility.yul\":15688:15882   */\n    tag_111:\n        /* \"#utility.yul\":15728:15732   */\n      0x00\n        /* \"#utility.yul\":15748:15768   */\n      tag_521\n        /* \"#utility.yul\":15766:15767   */\n      dup3\n        /* \"#utility.yul\":15748:15768   */\n      tag_315\n      jump\t// in\n    tag_521:\n        /* \"#utility.yul\":15743:15768   */\n      swap2\n      pop\n        /* \"#utility.yul\":15782:15802   */\n      tag_522\n        /* \"#utility.yul\":15800:15801   */\n      dup4\n        /* \"#utility.yul\":15782:15802   */\n      tag_315\n      jump\t// in\n    tag_522:\n        /* \"#utility.yul\":15777:15802   */\n      swap3\n      pop\n        /* \"#utility.yul\":15826:15827   */\n      dup3\n        /* \"#utility.yul\":15823:15824   */\n      dup3\n        /* \"#utility.yul\":15819:15828   */\n      sub\n        /* \"#utility.yul\":15811:15828   */\n      swap1\n      pop\n        /* \"#utility.yul\":15850:15851   */\n      dup2\n        /* \"#utility.yul\":15844:15848   */\n      dup2\n        /* \"#utility.yul\":15841:15852   */\n      gt\n        /* \"#utility.yul\":15838:15875   */\n      iszero\n      tag_523\n      jumpi\n        /* \"#utility.yul\":15855:15873   */\n      tag_524\n      tag_344\n      jump\t// in\n    tag_524:\n        /* \"#utility.yul\":15838:15875   */\n    tag_523:\n        /* \"#utility.yul\":15688:15882   */\n      swap3\n      swap2\n      pop\n      pop\n      jump\t// out\n        /* \"#utility.yul\":15888:16079   */\n    tag_117:\n        /* \"#utility.yul\":15928:15931   */\n      0x00\n        /* \"#utility.yul\":15947:15967   */\n      tag_526\n        /* \"#utility.yul\":15965:15966   */\n      dup3\n        /* \"#utility.yul\":15947:15967   */\n      tag_315\n      jump\t// in\n    tag_526:\n        /* \"#utility.yul\":15942:15967   */\n      swap2\n      pop\n        /* \"#utility.yul\":15981:16001   */\n      tag_527\n        /* \"#utility.yul\":15999:16000   */\n      dup4\n        /* \"#utility.yul\":15981:16001   */\n      tag_315\n      jump\t// in\n    tag_527:\n        /* \"#utility.yul\":15976:16001   */\n      swap3\n      pop\n        /* \"#utility.yul\":16024:16025   */\n      dup3\n        /* \"#utility.yul\":16021:16022   */\n      dup3\n        /* \"#utility.yul\":16017:16026   */\n      add\n        /* \"#utility.yul\":16010:16026   */\n      swap1\n      pop\n        /* \"#utility.yul\":16045:16048   */\n      dup1\n        /* \"#utility.yul\":16042:16043   */\n      dup3\n        /* \"#utility.yul\":16039:16049   */\n      gt\n        /* \"#utility.yul\":16036:16072   */\n      iszero\n      tag_528\n      jumpi\n        /* \"#utility.yul\":16052:16070   */\n      tag_529\n      tag_344\n      jump\t// in\n    tag_529:\n        /* \"#utility.yul\":16036:16072   */\n    tag_528:\n        /* \"#utility.yul\":15888:16079   */\n      swap3\n      swap2\n      pop\n      pop\n      jump\t// out\n        /* \"#utility.yul\":16085:16265   */\n    tag_120:\n        /* \"#utility.yul\":16133:16210   */\n      0x4e487b7100000000000000000000000000000000000000000000000000000000\n        /* \"#utility.yul\":16130:16131   */\n      0x00\n        /* \"#utility.yul\":16123:16211   */\n      mstore\n        /* \"#utility.yul\":16230:16234   */\n      0x32\n        /* \"#utility.yul\":16227:16228   */\n      0x04\n        /* \"#utility.yul\":16220:16235   */\n      mstore\n        /* \"#utility.yul\":16254:16258   */\n      0x24\n        /* \"#utility.yul\":16251:16252   */\n      0x00\n        /* \"#utility.yul\":16244:16259   */\n      revert\n        /* \"#utility.yul\":16271:16504   */\n    tag_166:\n        /* \"#utility.yul\":16310:16313   */\n      0x00\n        /* \"#utility.yul\":16333:16357   */\n      tag_532\n        /* \"#utility.yul\":16351:16356   */\n      dup3\n        /* \"#utility.yul\":16333:16357   */\n      tag_315\n      jump\t// in\n    tag_532:\n        /* \"#utility.yul\":16324:16357   */\n      swap2\n      pop\n        /* \"#utility.yul\":16379:16445   */\n      0xffffffffffffffffffffffffffffffffffffffffffffffffffffffffffffffff\n        /* \"#utility.yul\":16372:16377   */\n      dup3\n        /* \"#utility.yul\":16369:16446   */\n      sub\n        /* \"#utility.yul\":16366:16469   */\n      tag_533\n      jumpi\n        /* \"#utility.yul\":16449:16467   */\n      tag_534\n      tag_344\n      jump\t// in\n    tag_534:\n        /* \"#utility.yul\":16366:16469   */\n    tag_533:\n        /* \"#utility.yul\":16496:16497   */\n      0x01\n        /* \"#utility.yul\":16489:16494   */\n      dup3\n        /* \"#utility.yul\":16485:16498   */\n      add\n        /* \"#utility.yul\":16478:16498   */\n      swap1\n      pop\n        /* \"#utility.yul\":16271:16504   */\n      swap2\n      swap1\n      pop\n      jump\t// out\n        /* \"#utility.yul\":16510:16651   */\n    tag_345:\n        /* \"#utility.yul\":16559:16563   */\n      0x00\n        /* \"#utility.yul\":16582:16585   */\n      dup2\n        /* \"#utility.yul\":16574:16585   */\n      swap1\n      pop\n        /* \"#utility.yul\":16605:16608   */\n      dup2\n        /* \"#utility.yul\":16602:16603   */\n      0x00\n        /* \"#utility.yul\":16595:16609   */\n      mstore\n        /* \"#utility.yul\":16639:16643   */\n      0x20\n        /* \"#utility.yul\":16636:16637   */\n      0x00\n        /* \"#utility.yul\":16626:16644   */\n      keccak256\n        /* \"#utility.yul\":16618:16644   */\n      swap1\n      pop\n        /* \"#utility.yul\":16510:16651   */\n      swap2\n      swap1\n      pop\n      jump\t// out\n        /* \"#utility.yul\":16657:16750   */\n    tag_346:\n        /* \"#utility.yul\":16694:16700   */\n      0x00\n        /* \"#utility.yul\":16741:16743   */\n      0x20\n        /* \"#utility.yul\":16736:16738   */\n      0x1f\n        /* \"#utility.yul\":16729:16734   */\n      dup4\n        /* \"#utility.yul\":16725:16739   */\n      add\n        /* \"#utility.yul\":16721:16744   */\n      div\n        /* \"#utility.yul\":16711:16744   */\n      swap1\n      pop\n        /* \"#utility.yul\":16657:16750   */\n      swap2\n      swap1\n      pop\n      jump\t// out\n        /* \"#utility.yul\":16756:16863   */\n    tag_347:\n        /* \"#utility.yul\":16800:16808   */\n      0x00\n        /* \"#utility.yul\":16850:16855   */\n      dup3\n        /* \"#utility.yul\":16844:16848   */\n      dup3\n        /* \"#utility.yul\":16840:16856   */\n      shl\n        /* \"#utility.yul\":16819:16856   */\n      swap1\n      pop\n        /* \"#utility.yul\":16756:16863   */\n      swap3\n      swap2\n      pop\n      pop\n      jump\t// out\n        /* \"#utility.yul\":16869:17262   */\n    tag_348:\n        /* \"#utility.yul\":16938:16944   */\n      0x00\n        /* \"#utility.yul\":16988:16989   */\n      0x08\n        /* \"#utility.yul\":16976:16986   */\n      dup4\n        /* \"#utility.yul\":16972:16990   */\n      mul\n        /* \"#utility.yul\":17011:17108   */\n      tag_539\n        /* \"#utility.yul\":17041:17107   */\n      0xffffffffffffffffffffffffffffffffffffffffffffffffffffffffffffffff\n        /* \"#utility.yul\":17030:17039   */\n      dup3\n        /* \"#utility.yul\":17011:17108   */\n      tag_347\n      jump\t// in\n    tag_539:\n        /* \"#utility.yul\":17129:17168   */\n      tag_540\n        /* \"#utility.yul\":17159:17167   */\n      dup7\n        /* \"#utility.yul\":17148:17157   */\n      dup4\n        /* \"#utility.yul\":17129:17168   */\n      tag_347\n      jump\t// in\n    tag_540:\n        /* \"#utility.yul\":17117:17168   */\n      swap6\n      pop\n        /* \"#utility.yul\":17201:17205   */\n      dup1\n        /* \"#utility.yul\":17197:17206   */\n      not\n        /* \"#utility.yul\":17190:17195   */\n      dup5\n        /* \"#utility.yul\":17186:17207   */\n      and\n        /* \"#utility.yul\":17177:17207   */\n      swap4\n      pop\n        /* \"#utility.yul\":17250:17254   */\n      dup1\n        /* \"#utility.yul\":17240:17248   */\n      dup7\n        /* \"#utility.yul\":17236:17255   */\n      and\n        /* \"#utility.yul\":17229:17234   */\n      dup5\n        /* \"#utility.yul\":17226:17256   */\n      or\n        /* \"#utility.yul\":17216:17256   */\n      swap3\n      pop\n        /* \"#utility.yul\":16945:17262   */\n      pop\n      pop\n        /* \"#utility.yul\":16869:17262   */\n      swap4\n      swap3\n      pop\n      pop\n      pop\n      jump\t// out\n        /* \"#utility.yul\":17268:17328   */\n    tag_349:\n        /* \"#utility.yul\":17296:17299   */\n      0x00\n        /* \"#utility.yul\":17317:17322   */\n      dup2\n        /* \"#utility.yul\":17310:17322   */\n      swap1\n      pop\n        /* \"#utility.yul\":17268:17328   */\n      swap2\n      swap1\n      pop\n      jump\t// out\n        /* \"#utility.yul\":17334:17476   */\n    tag_350:\n        /* \"#utility.yul\":17384:17393   */\n      0x00\n        /* \"#utility.yul\":17417:17470   */\n      tag_543\n        /* \"#utility.yul\":17435:17469   */\n      tag_544\n        /* \"#utility.yul\":17444:17468   */\n      tag_545\n        /* \"#utility.yul\":17462:17467   */\n      dup5\n        /* \"#utility.yul\":17444:17468   */\n      tag_315\n      jump\t// in\n    tag_545:\n        /* \"#utility.yul\":17435:17469   */\n      tag_349\n      jump\t// in\n    tag_544:\n        /* \"#utility.yul\":17417:17470   */\n      tag_315\n      jump\t// in\n    tag_543:\n        /* \"#utility.yul\":17404:17470   */\n      swap1\n      pop\n        /* \"#utility.yul\":17334:17476   */\n      swap2\n      swap1\n      pop\n      jump\t// out\n        /* \"#utility.yul\":17482:17557   */\n    tag_351:\n        /* \"#utility.yul\":17525:17528   */\n      0x00\n        /* \"#utility.yul\":17546:17551   */\n      dup2\n        /* \"#utility.yul\":17539:17551   */\n      swap1\n      pop\n        /* \"#utility.yul\":17482:17557   */\n      swap2\n      swap1\n      pop\n      jump\t// out\n        /* \"#utility.yul\":17563:17832   */\n    tag_352:\n        /* \"#utility.yul\":17673:17712   */\n      tag_548\n        /* \"#utility.yul\":17704:17711   */\n      dup4\n        /* \"#utility.yul\":17673:17712   */\n      tag_350\n      jump\t// in\n    tag_548:\n        /* \"#utility.yul\":17734:17825   */\n      tag_549\n        /* \"#utility.yul\":17783:17824   */\n      tag_550\n        /* \"#utility.yul\":17807:17823   */\n      dup3\n        /* \"#utility.yul\":17783:17824   */\n      tag_351\n      jump\t// in\n    tag_550:\n        /* \"#utility.yul\":17775:17781   */\n      dup5\n        /* \"#utility.yul\":17768:17772   */\n      dup5\n        /* \"#utility.yul\":17762:17773   */\n      sload\n        /* \"#utility.yul\":17734:17825   */\n      tag_348\n      jump\t// in\n    tag_549:\n        /* \"#utility.yul\":17728:17732   */\n      dup3\n        /* \"#utility.yul\":17721:17826   */\n      sstore\n        /* \"#utility.yul\":17639:17832   */\n      pop\n        /* \"#utility.yul\":17563:17832   */\n      pop\n      pop\n      pop\n      jump\t// out\n        /* \"#utility.yul\":17838:17911   */\n    tag_353:\n        /* \"#utility.yul\":17883:17886   */\n      0x00\n        /* \"#utility.yul\":17838:17911   */\n      swap1\n      jump\t// out\n        /* \"#utility.yul\":17917:18106   */\n    tag_354:\n        /* \"#utility.yul\":17994:18026   */\n      tag_553\n      tag_353\n      jump\t// in\n    tag_553:\n        /* \"#utility.yul\":18035:18100   */\n      tag_554\n        /* \"#utility.yul\":18093:18099   */\n      dup2\n        /* \"#utility.yul\":18085:18091   */\n      dup5\n        /* \"#utility.yul\":18079:18083   */\n      dup5\n        /* \"#utility.yul\":18035:18100   */\n      tag_352\n      jump\t// in\n    tag_554:\n        /* \"#utility.yul\":17970:18106   */\n      pop\n        /* \"#utility.yul\":17917:18106   */\n      pop\n      pop\n      jump\t// out\n        /* \"#utility.yul\":18112:18298   */\n    tag_355:\n        /* \"#utility.yul\":18172:18292   */\n    tag_556:\n        /* \"#utility.yul\":18189:18192   */\n      dup2\n        /* \"#utility.yul\":18182:18187   */\n      dup2\n        /* \"#utility.yul\":18179:18193   */\n      lt\n        /* \"#utility.yul\":18172:18292   */\n      iszero\n      tag_558\n      jumpi\n        /* \"#utility.yul\":18243:18282   */\n      tag_559\n        /* \"#utility.yul\":18280:18281   */\n      0x00\n        /* \"#utility.yul\":18273:18278   */\n      dup3\n        /* \"#utility.yul\":18243:18282   */\n      tag_354\n      jump\t// in\n    tag_559:\n        /* \"#utility.yul\":18216:18217   */\n      0x01\n        /* \"#utility.yul\":18209:18214   */\n      dup2\n        /* \"#utility.yul\":18205:18218   */\n      add\n        /* \"#utility.yul\":18196:18218   */\n      swap1\n      pop\n        /* \"#utility.yul\":18172:18292   */\n      jump(tag_556)\n    tag_558:\n        /* \"#utility.yul\":18112:18298   */\n      pop\n      pop\n      jump\t// out\n        /* \"#utility.yul\":18304:18847   */\n    tag_356:\n        /* \"#utility.yul\":18405:18407   */\n      0x1f\n        /* \"#utility.yul\":18400:18403   */\n      dup3\n        /* \"#utility.yul\":18397:18408   */\n      gt\n        /* \"#utility.yul\":18394:18840   */\n      iszero\n      tag_561\n      jumpi\n        /* \"#utility.yul\":18439:18477   */\n      tag_562\n        /* \"#utility.yul\":18471:18476   */\n      dup2\n        /* \"#utility.yul\":18439:18477   */\n      tag_345\n      jump\t// in\n    tag_562:\n        /* \"#utility.yul\":18523:18552   */\n      tag_563\n        /* \"#utility.yul\":18541:18551   */\n      dup5\n        /* \"#utility.yul\":18523:18552   */\n      tag_346\n      jump\t// in\n    tag_563:\n        /* \"#utility.yul\":18513:18521   */\n      dup2\n        /* \"#utility.yul\":18509:18553   */\n      add\n        /* \"#utility.yul\":18706:18708   */\n      0x20\n        /* \"#utility.yul\":18694:18704   */\n      dup6\n        /* \"#utility.yul\":18691:18709   */\n      lt\n        /* \"#utility.yul\":18688:18737   */\n      iszero\n      tag_564\n      jumpi\n        /* \"#utility.yul\":18727:18735   */\n      dup2\n        /* \"#utility.yul\":18712:18735   */\n      swap1\n      pop\n        /* \"#utility.yul\":18688:18737   */\n    tag_564:\n        /* \"#utility.yul\":18750:18830   */\n      tag_565\n        /* \"#utility.yul\":18806:18828   */\n      tag_566\n        /* \"#utility.yul\":18824:18827   */\n      dup6\n        /* \"#utility.yul\":18806:18828   */\n      tag_346\n      jump\t// in\n    tag_566:\n        /* \"#utility.yul\":18796:18804   */\n      dup4\n        /* \"#utility.yul\":18792:18829   */\n      add\n        /* \"#utility.yul\":18779:18790   */\n      dup3\n        /* \"#utility.yul\":18750:18830   */\n      tag_355\n      jump\t// in\n    tag_565:\n        /* \"#utility.yul\":18409:18840   */\n      pop\n      pop\n        /* \"#utility.yul\":18394:18840   */\n    tag_561:\n        /* \"#utility.yul\":18304:18847   */\n      pop\n      pop\n      pop\n      jump\t// out\n        /* \"#utility.yul\":18853:18970   */\n    tag_357:\n        /* \"#utility.yul\":18907:18915   */\n      0x00\n        /* \"#utility.yul\":18957:18962   */\n      dup3\n        /* \"#utility.yul\":18951:18955   */\n      dup3\n        /* \"#utility.yul\":18947:18963   */\n      shr\n        /* \"#utility.yul\":18926:18963   */\n      swap1\n      pop\n        /* \"#utility.yul\":18853:18970   */\n      swap3\n      swap2\n      pop\n      pop\n      jump\t// out\n        /* \"#utility.yul\":18976:19145   */\n    tag_358:\n        /* \"#utility.yul\":19020:19026   */\n      0x00\n        /* \"#utility.yul\":19053:19104   */\n      tag_569\n        /* \"#utility.yul\":19101:19102   */\n      0x00\n        /* \"#utility.yul\":19097:19103   */\n      not\n        /* \"#utility.yul\":19089:19094   */\n      dup5\n        /* \"#utility.yul\":19086:19087   */\n      0x08\n        /* \"#utility.yul\":19082:19095   */\n      mul\n        /* \"#utility.yul\":19053:19104   */\n      tag_357\n      jump\t// in\n    tag_569:\n        /* \"#utility.yul\":19049:19105   */\n      not\n        /* \"#utility.yul\":19134:19138   */\n      dup1\n        /* \"#utility.yul\":19128:19132   */\n      dup4\n        /* \"#utility.yul\":19124:19139   */\n      and\n        /* \"#utility.yul\":19114:19139   */\n      swap2\n      pop\n        /* \"#utility.yul\":19027:19145   */\n      pop\n        /* \"#utility.yul\":18976:19145   */\n      swap3\n      swap2\n      pop\n      pop\n      jump\t// out\n        /* \"#utility.yul\":19150:19445   */\n    tag_359:\n        /* \"#utility.yul\":19226:19230   */\n      0x00\n        /* \"#utility.yul\":19372:19401   */\n      tag_571\n        /* \"#utility.yul\":19397:19400   */\n      dup4\n        /* \"#utility.yul\":19391:19395   */\n      dup4\n        /* \"#utility.yul\":19372:19401   */\n      tag_358\n      jump\t// in\n    tag_571:\n        /* \"#utility.yul\":19364:19401   */\n      swap2\n      pop\n        /* \"#utility.yul\":19434:19437   */\n      dup3\n        /* \"#utility.yul\":19431:19432   */\n      0x02\n        /* \"#utility.yul\":19427:19438   */\n      mul\n        /* \"#utility.yul\":19421:19425   */\n      dup3\n        /* \"#utility.yul\":19418:19439   */\n      or\n        /* \"#utility.yul\":19410:19439   */\n      swap1\n      pop\n        /* \"#utility.yul\":19150:19445   */\n      swap3\n      swap2\n      pop\n      pop\n      jump\t// out\n        /* \"#utility.yul\":19450:20845   */\n    tag_171:\n        /* \"#utility.yul\":19567:19604   */\n      tag_573\n        /* \"#utility.yul\":19600:19603   */\n      dup3\n        /* \"#utility.yul\":19567:19604   */\n      tag_321\n      jump\t// in\n    tag_573:\n        /* \"#utility.yul\":19669:19687   */\n      0xffffffffffffffff\n        /* \"#utility.yul\":19661:19667   */\n      dup2\n        /* \"#utility.yul\":19658:19688   */\n      gt\n        /* \"#utility.yul\":19655:19711   */\n      iszero\n      tag_574\n      jumpi\n        /* \"#utility.yul\":19691:19709   */\n      tag_575\n      tag_93\n      jump\t// in\n    tag_575:\n        /* \"#utility.yul\":19655:19711   */\n    tag_574:\n        /* \"#utility.yul\":19735:19773   */\n      tag_576\n        /* \"#utility.yul\":19767:19771   */\n      dup3\n        /* \"#utility.yul\":19761:19772   */\n      sload\n        /* \"#utility.yul\":19735:19773   */\n      tag_77\n      jump\t// in\n    tag_576:\n        /* \"#utility.yul\":19820:19887   */\n      tag_577\n        /* \"#utility.yul\":19880:19886   */\n      dup3\n        /* \"#utility.yul\":19872:19878   */\n      dup3\n        /* \"#utility.yul\":19866:19870   */\n      dup6\n        /* \"#utility.yul\":19820:19887   */\n      tag_356\n      jump\t// in\n    tag_577:\n        /* \"#utility.yul\":19914:19915   */\n      0x00\n        /* \"#utility.yul\":19938:19942   */\n      0x20\n        /* \"#utility.yul\":19925:19942   */\n      swap1\n      pop\n        /* \"#utility.yul\":19970:19972   */\n      0x1f\n        /* \"#utility.yul\":19962:19968   */\n      dup4\n        /* \"#utility.yul\":19959:19973   */\n      gt\n        /* \"#utility.yul\":19987:19988   */\n      0x01\n        /* \"#utility.yul\":19982:20600   */\n      dup2\n      eq\n      tag_579\n      jumpi\n        /* \"#utility.yul\":20644:20645   */\n      0x00\n        /* \"#utility.yul\":20661:20667   */\n      dup5\n        /* \"#utility.yul\":20658:20735   */\n      iszero\n      tag_580\n      jumpi\n        /* \"#utility.yul\":20710:20719   */\n      dup3\n        /* \"#utility.yul\":20705:20708   */\n      dup8\n        /* \"#utility.yul\":20701:20720   */\n      add\n        /* \"#utility.yul\":20695:20721   */\n      mload\n        /* \"#utility.yul\":20686:20721   */\n      swap1\n      pop\n        /* \"#utility.yul\":20658:20735   */\n    tag_580:\n        /* \"#utility.yul\":20761:20828   */\n      tag_581\n        /* \"#utility.yul\":20821:20827   */\n      dup6\n        /* \"#utility.yul\":20814:20819   */\n      dup3\n        /* \"#utility.yul\":20761:20828   */\n      tag_359\n      jump\t// in\n    tag_581:\n        /* \"#utility.yul\":20755:20759   */\n      dup7\n        /* \"#utility.yul\":20748:20829   */\n      sstore\n        /* \"#utility.yul\":20617:20839   */\n      pop\n        /* \"#utility.yul\":19952:20839   */\n      jump(tag_578)\n        /* \"#utility.yul\":19982:20600   */\n    tag_579:\n        /* \"#utility.yul\":20034:20038   */\n      0x1f\n        /* \"#utility.yul\":20030:20039   */\n      not\n        /* \"#utility.yul\":20022:20028   */\n      dup5\n        /* \"#utility.yul\":20018:20040   */\n      and\n        /* \"#utility.yul\":20068:20105   */\n      tag_582\n        /* \"#utility.yul\":20100:20104   */\n      dup7\n        /* \"#utility.yul\":20068:20105   */\n      tag_345\n      jump\t// in\n    tag_582:\n        /* \"#utility.yul\":20127:20128   */\n      0x00\n        /* \"#utility.yul\":20141:20349   */\n    tag_583:\n        /* \"#utility.yul\":20155:20162   */\n      dup3\n        /* \"#utility.yul\":20152:20153   */\n      dup2\n        /* \"#utility.yul\":20149:20163   */\n      lt\n        /* \"#utility.yul\":20141:20349   */\n      iszero\n      tag_585\n      jumpi\n        /* \"#utility.yul\":20234:20243   */\n      dup5\n        /* \"#utility.yul\":20229:20232   */\n      dup10\n        /* \"#utility.yul\":20225:20244   */\n      add\n        /* \"#utility.yul\":20219:20245   */\n      mload\n        /* \"#utility.yul\":20211:20217   */\n      dup3\n        /* \"#utility.yul\":20204:20246   */\n      sstore\n        /* \"#utility.yul\":20285:20286   */\n      0x01\n        /* \"#utility.yul\":20277:20283   */\n      dup3\n        /* \"#utility.yul\":20273:20287   */\n      add\n        /* \"#utility.yul\":20263:20287   */\n      swap2\n      pop\n        /* \"#utility.yul\":20332:20334   */\n      0x20\n        /* \"#utility.yul\":20321:20330   */\n      dup6\n        /* \"#utility.yul\":20317:20335   */\n      add\n        /* \"#utility.yul\":20304:20335   */\n      swap5\n      pop\n        /* \"#utility.yul\":20178:20182   */\n      0x20\n        /* \"#utility.yul\":20175:20176   */\n      dup2\n        /* \"#utility.yul\":20171:20183   */\n      add\n        /* \"#utility.yul\":20166:20183   */\n      swap1\n      pop\n        /* \"#utility.yul\":20141:20349   */\n      jump(tag_583)\n    tag_585:\n        /* \"#utility.yul\":20377:20383   */\n      dup7\n        /* \"#utility.yul\":20368:20375   */\n      dup4\n        /* \"#utility.yul\":20365:20384   */\n      lt\n        /* \"#utility.yul\":20362:20541   */\n      iszero\n      tag_586\n      jumpi\n        /* \"#utility.yul\":20435:20444   */\n      dup5\n        /* \"#utility.yul\":20430:20433   */\n      dup10\n        /* \"#utility.yul\":20426:20445   */\n      add\n        /* \"#utility.yul\":20420:20446   */\n      mload\n        /* \"#utility.yul\":20478:20526   */\n      tag_587\n        /* \"#utility.yul\":20520:20524   */\n      0x1f\n        /* \"#utility.yul\":20512:20518   */\n      dup10\n        /* \"#utility.yul\":20508:20525   */\n      and\n        /* \"#utility.yul\":20497:20506   */\n      dup3\n        /* \"#utility.yul\":20478:20526   */\n      tag_358\n      jump\t// in\n    tag_587:\n        /* \"#utility.yul\":20470:20476   */\n      dup4\n        /* \"#utility.yul\":20463:20527   */\n      sstore\n        /* \"#utility.yul\":20385:20541   */\n      pop\n        /* \"#utility.yul\":20362:20541   */\n    tag_586:\n        /* \"#utility.yul\":20587:20588   */\n      0x01\n        /* \"#utility.yul\":20583:20584   */\n      0x02\n        /* \"#utility.yul\":20575:20581   */\n      dup9\n        /* \"#utility.yul\":20571:20585   */\n      mul\n        /* \"#utility.yul\":20567:20589   */\n      add\n        /* \"#utility.yul\":20561:20565   */\n      dup9\n        /* \"#utility.yul\":20554:20590   */\n      sstore\n        /* \"#utility.yul\":19989:20600   */\n      pop\n      pop\n      pop\n        /* \"#utility.yul\":19952:20839   */\n    tag_578:\n      pop\n        /* \"#utility.yul\":19542:20845   */\n      pop\n      pop\n      pop\n        /* \"#utility.yul\":19450:20845   */\n      pop\n      pop\n      jump\t// out\n        /* \"#utility.yul\":20851:21031   */\n    tag_360:\n        /* \"#utility.yul\":20899:20976   */\n      0x4e487b7100000000000000000000000000000000000000000000000000000000\n        /* \"#utility.yul\":20896:20897   */\n      0x00\n        /* \"#utility.yul\":20889:20977   */\n      mstore\n        /* \"#utility.yul\":20996:21000   */\n      0x12\n        /* \"#utility.yul\":20993:20994   */\n      0x04\n        /* \"#utility.yul\":20986:21001   */\n      mstore\n        /* \"#utility.yul\":21020:21024   */\n      0x24\n        /* \"#utility.yul\":21017:21018   */\n      0x00\n        /* \"#utility.yul\":21010:21025   */\n      revert\n        /* \"#utility.yul\":21037:21222   */\n    tag_211:\n        /* \"#utility.yul\":21077:21078   */\n      0x00\n        /* \"#utility.yul\":21094:21114   */\n      tag_590\n        /* \"#utility.yul\":21112:21113   */\n      dup3\n        /* \"#utility.yul\":21094:21114   */\n      tag_315\n      jump\t// in\n    tag_590:\n        /* \"#utility.yul\":21089:21114   */\n      swap2\n      pop\n        /* \"#utility.yul\":21128:21148   */\n      tag_591\n        /* \"#utility.yul\":21146:21147   */\n      dup4\n        /* \"#utility.yul\":21128:21148   */\n      tag_315\n      jump\t// in\n    tag_591:\n        /* \"#utility.yul\":21123:21148   */\n      swap3\n      pop\n        /* \"#utility.yul\":21167:21168   */\n      dup3\n        /* \"#utility.yul\":21157:21192   */\n      tag_592\n      jumpi\n        /* \"#utility.yul\":21172:21190   */\n      tag_593\n      tag_360\n      jump\t// in\n    tag_593:\n        /* \"#utility.yul\":21157:21192   */\n    tag_592:\n        /* \"#utility.yul\":21214:21215   */\n      dup3\n        /* \"#utility.yul\":21211:21212   */\n      dup3\n        /* \"#utility.yul\":21207:21216   */\n      div\n        /* \"#utility.yul\":21202:21216   */\n      swap1\n      pop\n        /* \"#utility.yul\":21037:21222   */\n      swap3\n      swap2\n      pop\n      pop\n      jump\t// out\n        /* \"#utility.yul\":21228:21383   */\n    tag_361:\n        /* \"#utility.yul\":21368:21375   */\n      0x416c696365000000000000000000000000000000000000000000000000000000\n        /* \"#utility.yul\":21364:21365   */\n      0x00\n        /* \"#utility.yul\":21356:21362   */\n      dup3\n        /* \"#utility.yul\":21352:21366   */\n      add\n        /* \"#utility.yul\":21345:21376   */\n      mstore\n        /* \"#utility.yul\":21228:21383   */\n      pop\n      jump\t// out\n        /* \"#utility.yul\":21389:21789   */\n    tag_362:\n        /* \"#utility.yul\":21549:21552   */\n      0x00\n        /* \"#utility.yul\":21570:21654   */\n      tag_596\n        /* \"#utility.yul\":21652:21653   */\n      0x05\n        /* \"#utility.yul\":21647:21650   */\n      dup4\n        /* \"#utility.yul\":21570:21654   */\n      tag_341\n      jump\t// in\n    tag_596:\n        /* \"#utility.yul\":21563:21654   */\n      swap2\n      pop\n        /* \"#utility.yul\":21663:21756   */\n      tag_597\n        /* \"#utility.yul\":21752:21755   */\n      dup3\n        /* \"#utility.yul\":21663:21756   */\n      tag_361\n      jump\t// in\n    tag_597:\n        /* \"#utility.yul\":21781:21782   */\n      0x05\n        /* \"#utility.yul\":21776:21779   */\n      dup3\n        /* \"#utility.yul\":21772:21783   */\n      add\n        /* \"#utility.yul\":21765:21783   */\n      swap1\n      pop\n        /* \"#utility.yul\":21389:21789   */\n      swap2\n      swap1\n      pop\n      jump\t// out\n        /* \"#utility.yul\":21795:22176   */\n    tag_215:\n        /* \"#utility.yul\":21980:21983   */\n      0x00\n        /* \"#utility.yul\":22002:22150   */\n      tag_599\n        /* \"#utility.yul\":22146:22149   */\n      dup3\n        /* \"#utility.yul\":22002:22150   */\n      tag_362\n      jump\t// in\n    tag_599:\n        /* \"#utility.yul\":21995:22150   */\n      swap2\n      pop\n        /* \"#utility.yul\":22167:22170   */\n      dup2\n        /* \"#utility.yul\":22160:22170   */\n      swap1\n      pop\n        /* \"#utility.yul\":21795:22176   */\n      swap2\n      swap1\n      pop\n      jump\t// out\n        /* \"#utility.yul\":22182:22335   */\n    tag_363:\n        /* \"#utility.yul\":22322:22327   */\n      0x426f620000000000000000000000000000000000000000000000000000000000\n        /* \"#utility.yul\":22318:22319   */\n      0x00\n        /* \"#utility.yul\":22310:22316   */\n      dup3\n        /* \"#utility.yul\":22306:22320   */\n      add\n        /* \"#utility.yul\":22299:22328   */\n      mstore\n        /* \"#utility.yul\":22182:22335   */\n      pop\n      jump\t// out\n        /* \"#utility.yul\":22341:22741   */\n    tag_364:\n        /* \"#utility.yul\":22501:22504   */\n      0x00\n        /* \"#utility.yul\":22522:22606   */\n      tag_602\n        /* \"#utility.yul\":22604:22605   */\n      0x03\n        /* \"#utility.yul\":22599:22602   */\n      dup4\n        /* \"#utility.yul\":22522:22606   */\n      tag_341\n      jump\t// in\n    tag_602:\n        /* \"#utility.yul\":22515:22606   */\n      swap2\n      pop\n        /* \"#utility.yul\":22615:22708   */\n      tag_603\n        /* \"#utility.yul\":22704:22707   */\n      dup3\n        /* \"#utility.yul\":22615:22708   */\n      tag_363\n      jump\t// in\n    tag_603:\n        /* \"#utility.yul\":22733:22734   */\n      0x03\n        /* \"#utility.yul\":22728:22731   */\n      dup3\n        /* \"#utility.yul\":22724:22735   */\n      add\n        /* \"#utility.yul\":22717:22735   */\n      swap1\n      pop\n        /* \"#utility.yul\":22341:22741   */\n      swap2\n      swap1\n      pop\n      jump\t// out\n        /* \"#utility.yul\":22747:23128   */\n    tag_219:\n        /* \"#utility.yul\":22932:22935   */\n      0x00\n        /* \"#utility.yul\":22954:23102   */\n      tag_605\n        /* \"#utility.yul\":23098:23101   */\n      dup3\n        /* \"#utility.yul\":22954:23102   */\n      tag_364\n      jump\t// in\n    tag_605:\n        /* \"#utility.yul\":22947:23102   */\n      swap2\n      pop\n        /* \"#utility.yul\":23119:23122   */\n      dup2\n        /* \"#utility.yul\":23112:23122   */\n      swap1\n      pop\n        /* \"#utility.yul\":22747:23128   */\n      swap2\n      swap1\n      pop\n      jump\t// out\n        /* \"#utility.yul\":23134:23291   */\n    tag_365:\n        /* \"#utility.yul\":23274:23283   */\n      0x436861726c696500000000000000000000000000000000000000000000000000\n        /* \"#utility.yul\":23270:23271   */\n      0x00\n        /* \"#utility.yul\":23262:23268   */\n      dup3\n        /* \"#utility.yul\":23258:23272   */\n      add\n        /* \"#utility.yul\":23251:23284   */\n      mstore\n        /* \"#utility.yul\":23134:23291   */\n      pop\n      jump\t// out\n        /* \"#utility.yul\":23297:23697   */\n    tag_366:\n        /* \"#utility.yul\":23457:23460   */\n      0x00\n        /* \"#utility.yul\":23478:23562   */\n      tag_608\n        /* \"#utility.yul\":23560:23561   */\n      0x07\n        /* \"#utility.yul\":23555:23558   */\n      dup4\n        /* \"#utility.yul\":23478:23562   */\n      tag_341\n      jump\t// in\n    tag_608:\n        /* \"#utility.yul\":23471:23562   */\n      swap2\n      pop\n        /* \"#utility.yul\":23571:23664   */\n      tag_609\n        /* \"#utility.yul\":23660:23663   */\n      dup3\n        /* \"#utility.yul\":23571:23664   */\n      tag_365\n      jump\t// in\n    tag_609:\n        /* \"#utility.yul\":23689:23690   */\n      0x07\n        /* \"#utility.yul\":23684:23687   */\n      dup3\n        /* \"#utility.yul\":23680:23691   */\n      add\n        /* \"#utility.yul\":23673:23691   */\n      swap1\n      pop\n        /* \"#utility.yul\":23297:23697   */\n      swap2\n      swap1\n      pop\n      jump\t// out\n        /* \"#utility.yul\":23703:24084   */\n    tag_223:\n        /* \"#utility.yul\":23888:23891   */\n      0x00\n        /* \"#utility.yul\":23910:24058   */\n      tag_611\n        /* \"#utility.yul\":24054:24057   */\n      dup3\n        /* \"#utility.yul\":23910:24058   */\n      tag_366\n      jump\t// in\n    tag_611:\n        /* \"#utility.yul\":23903:24058   */\n      swap2\n      pop\n        /* \"#utility.yul\":24075:24078   */\n      dup2\n        /* \"#utility.yul\":24068:24078   */\n      swap1\n      pop\n        /* \"#utility.yul\":23703:24084   */\n      swap2\n      swap1\n      pop\n      jump\t// out\n        /* \"#utility.yul\":24090:24246   */\n    tag_367:\n        /* \"#utility.yul\":24230:24238   */\n      0x447761796e650000000000000000000000000000000000000000000000000000\n        /* \"#utility.yul\":24226:24227   */\n      0x00\n        /* \"#utility.yul\":24218:24224   */\n      dup3\n        /* \"#utility.yul\":24214:24228   */\n      add\n        /* \"#utility.yul\":24207:24239   */\n      mstore\n        /* \"#utility.yul\":24090:24246   */\n      pop\n      jump\t// out\n        /* \"#utility.yul\":24252:24652   */\n    tag_368:\n        /* \"#utility.yul\":24412:24415   */\n      0x00\n        /* \"#utility.yul\":24433:24517   */\n      tag_614\n        /* \"#utility.yul\":24515:24516   */\n      0x06\n        /* \"#utility.yul\":24510:24513   */\n      dup4\n        /* \"#utility.yul\":24433:24517   */\n      tag_341\n      jump\t// in\n    tag_614:\n        /* \"#utility.yul\":24426:24517   */\n      swap2\n      pop\n        /* \"#utility.yul\":24526:24619   */\n      tag_615\n        /* \"#utility.yul\":24615:24618   */\n      dup3\n        /* \"#utility.yul\":24526:24619   */\n      tag_367\n      jump\t// in\n    tag_615:\n        /* \"#utility.yul\":24644:24645   */\n      0x06\n        /* \"#utility.yul\":24639:24642   */\n      dup3\n        /* \"#utility.yul\":24635:24646   */\n      add\n        /* \"#utility.yul\":24628:24646   */\n      swap1\n      pop\n        /* \"#utility.yul\":24252:24652   */\n      swap2\n      swap1\n      pop\n      jump\t// out\n        /* \"#utility.yul\":24658:25039   */\n    tag_227:\n        /* \"#utility.yul\":24843:24846   */\n      0x00\n        /* \"#utility.yul\":24865:25013   */\n      tag_617\n        /* \"#utility.yul\":25009:25012   */\n      dup3\n        /* \"#utility.yul\":24865:25013   */\n      tag_368\n      jump\t// in\n    tag_617:\n        /* \"#utility.yul\":24858:25013   */\n      swap2\n      pop\n        /* \"#utility.yul\":25030:25033   */\n      dup2\n        /* \"#utility.yul\":25023:25033   */\n      swap1\n      pop\n        /* \"#utility.yul\":24658:25039   */\n      swap2\n      swap1\n      pop\n      jump\t// out\n        /* \"#utility.yul\":25045:25200   */\n    tag_369:\n        /* \"#utility.yul\":25185:25192   */\n      0x456c6c656e000000000000000000000000000000000000000000000000000000\n        /* \"#utility.yul\":25181:25182   */\n      0x00\n        /* \"#utility.yul\":25173:25179   */\n      dup3\n        /* \"#utility.yul\":25169:25183   */\n      add\n        /* \"#utility.yul\":25162:25193   */\n      mstore\n        /* \"#utility.yul\":25045:25200   */\n      pop\n      jump\t// out\n        /* \"#utility.yul\":25206:25606   */\n    tag_370:\n        /* \"#utility.yul\":25366:25369   */\n      0x00\n        /* \"#utility.yul\":25387:25471   */\n      tag_620\n        /* \"#utility.yul\":25469:25470   */\n      0x05\n        /* \"#utility.yul\":25464:25467   */\n      dup4\n        /* \"#utility.yul\":25387:25471   */\n      tag_341\n      jump\t// in\n    tag_620:\n        /* \"#utility.yul\":25380:25471   */\n      swap2\n      pop\n        /* \"#utility.yul\":25480:25573   */\n      tag_621\n        /* \"#utility.yul\":25569:25572   */\n      dup3\n        /* \"#utility.yul\":25480:25573   */\n      tag_369\n      jump\t// in\n    tag_621:\n        /* \"#utility.yul\":25598:25599   */\n      0x05\n        /* \"#utility.yul\":25593:25596   */\n      dup3\n        /* \"#utility.yul\":25589:25600   */\n      add\n        /* \"#utility.yul\":25582:25600   */\n      swap1\n      pop\n        /* \"#utility.yul\":25206:25606   */\n      swap2\n      swap1\n      pop\n      jump\t// out\n        /* \"#utility.yul\":25612:25993   */\n    tag_231:\n        /* \"#utility.yul\":25797:25800   */\n      0x00\n        /* \"#utility.yul\":25819:25967   */\n      tag_623\n        /* \"#utility.yul\":25963:25966   */\n      dup3\n        /* \"#utility.yul\":25819:25967   */\n      tag_370\n      jump\t// in\n    tag_623:\n        /* \"#utility.yul\":25812:25967   */\n      swap2\n      pop\n        /* \"#utility.yul\":25984:25987   */\n      dup2\n        /* \"#utility.yul\":25977:25987   */\n      swap1\n      pop\n        /* \"#utility.yul\":25612:25993   */\n      swap2\n      swap1\n      pop\n      jump\t// out\n        /* \"#utility.yul\":25999:26153   */\n    tag_371:\n        /* \"#utility.yul\":26139:26145   */\n      0x4669747a00000000000000000000000000000000000000000000000000000000\n        /* \"#utility.yul\":26135:26136   */\n      0x00\n        /* \"#utility.yul\":26127:26133   */\n      dup3\n        /* \"#utility.yul\":26123:26137   */\n      add\n        /* \"#utility.yul\":26116:26146   */\n      mstore\n        /* \"#utility.yul\":25999:26153   */\n      pop\n      jump\t// out\n        /* \"#utility.yul\":26159:26559   */\n    tag_372:\n        /* \"#utility.yul\":26319:26322   */\n      0x00\n        /* \"#utility.yul\":26340:26424   */\n      tag_626\n        /* \"#utility.yul\":26422:26423   */\n      0x04\n        /* \"#utility.yul\":26417:26420   */\n      dup4\n        /* \"#utility.yul\":26340:26424   */\n      tag_341\n      jump\t// in\n    tag_626:\n        /* \"#utility.yul\":26333:26424   */\n      swap2\n      pop\n        /* \"#utility.yul\":26433:26526   */\n      tag_627\n        /* \"#utility.yul\":26522:26525   */\n      dup3\n        /* \"#utility.yul\":26433:26526   */\n      tag_371\n      jump\t// in\n    tag_627:\n        /* \"#utility.yul\":26551:26552   */\n      0x04\n        /* \"#utility.yul\":26546:26549   */\n      dup3\n        /* \"#utility.yul\":26542:26553   */\n      add\n        /* \"#utility.yul\":26535:26553   */\n      swap1\n      pop\n        /* \"#utility.yul\":26159:26559   */\n      swap2\n      swap1\n      pop\n      jump\t// out\n        /* \"#utility.yul\":26565:26946   */\n    tag_235:\n        /* \"#utility.yul\":26750:26753   */\n      0x00\n        /* \"#utility.yul\":26772:26920   */\n      tag_629\n        /* \"#utility.yul\":26916:26919   */\n      dup3\n        /* \"#utility.yul\":26772:26920   */\n      tag_372\n      jump\t// in\n    tag_629:\n        /* \"#utility.yul\":26765:26920   */\n      swap2\n      pop\n        /* \"#utility.yul\":26937:26940   */\n      dup2\n        /* \"#utility.yul\":26930:26940   */\n      swap1\n      pop\n        /* \"#utility.yul\":26565:26946   */\n      swap2\n      swap1\n      pop\n      jump\t// out\n        /* \"#utility.yul\":26952:27108   */\n    tag_373:\n        /* \"#utility.yul\":27092:27100   */\n      0x4761727265740000000000000000000000000000000000000000000000000000\n        /* \"#utility.yul\":27088:27089   */\n      0x00\n        /* \"#utility.yul\":27080:27086   */\n      dup3\n        /* \"#utility.yul\":27076:27090   */\n      add\n        /* \"#utility.yul\":27069:27101   */\n      mstore\n        /* \"#utility.yul\":26952:27108   */\n      pop\n      jump\t// out\n        /* \"#utility.yul\":27114:27514   */\n    tag_374:\n        /* \"#utility.yul\":27274:27277   */\n      0x00\n        /* \"#utility.yul\":27295:27379   */\n      tag_632\n        /* \"#utility.yul\":27377:27378   */\n      0x06\n        /* \"#utility.yul\":27372:27375   */\n      dup4\n        /* \"#utility.yul\":27295:27379   */\n      tag_341\n      jump\t// in\n    tag_632:\n        /* \"#utility.yul\":27288:27379   */\n      swap2\n      pop\n        /* \"#utility.yul\":27388:27481   */\n      tag_633\n        /* \"#utility.yul\":27477:27480   */\n      dup3\n        /* \"#utility.yul\":27388:27481   */\n      tag_373\n      jump\t// in\n    tag_633:\n        /* \"#utility.yul\":27506:27507   */\n      0x06\n        /* \"#utility.yul\":27501:27504   */\n      dup3\n        /* \"#utility.yul\":27497:27508   */\n      add\n        /* \"#utility.yul\":27490:27508   */\n      swap1\n      pop\n        /* \"#utility.yul\":27114:27514   */\n      swap2\n      swap1\n      pop\n      jump\t// out\n        /* \"#utility.yul\":27520:27901   */\n    tag_239:\n        /* \"#utility.yul\":27705:27708   */\n      0x00\n        /* \"#utility.yul\":27727:27875   */\n      tag_635\n        /* \"#utility.yul\":27871:27874   */\n      dup3\n        /* \"#utility.yul\":27727:27875   */\n      tag_374\n      jump\t// in\n    tag_635:\n        /* \"#utility.yul\":27720:27875   */\n      swap2\n      pop\n        /* \"#utility.yul\":27892:27895   */\n      dup2\n        /* \"#utility.yul\":27885:27895   */\n      swap1\n      pop\n        /* \"#utility.yul\":27520:27901   */\n      swap2\n      swap1\n      pop\n      jump\t// out\n        /* \"#utility.yul\":27907:28063   */\n    tag_375:\n        /* \"#utility.yul\":28047:28055   */\n      0x4875626572740000000000000000000000000000000000000000000000000000\n        /* \"#utility.yul\":28043:28044   */\n      0x00\n        /* \"#utility.yul\":28035:28041   */\n      dup3\n        /* \"#utility.yul\":28031:28045   */\n      add\n        /* \"#utility.yul\":28024:28056   */\n      mstore\n        /* \"#utility.yul\":27907:28063   */\n      pop\n      jump\t// out\n        /* \"#utility.yul\":28069:28469   */\n    tag_376:\n        /* \"#utility.yul\":28229:28232   */\n      0x00\n        /* \"#utility.yul\":28250:28334   */\n      tag_638\n        /* \"#utility.yul\":28332:28333   */\n      0x06\n        /* \"#utility.yul\":28327:28330   */\n      dup4\n        /* \"#utility.yul\":28250:28334   */\n      tag_341\n      jump\t// in\n    tag_638:\n        /* \"#utility.yul\":28243:28334   */\n      swap2\n      pop\n        /* \"#utility.yul\":28343:28436   */\n      tag_639\n        /* \"#utility.yul\":28432:28435   */\n      dup3\n        /* \"#utility.yul\":28343:28436   */\n      tag_375\n      jump\t// in\n    tag_639:\n        /* \"#utility.yul\":28461:28462   */\n      0x06\n        /* \"#utility.yul\":28456:28459   */\n      dup3\n        /* \"#utility.yul\":28452:28463   */\n      add\n        /* \"#utility.yul\":28445:28463   */\n      swap1\n      pop\n        /* \"#utility.yul\":28069:28469   */\n      swap2\n      swap1\n      pop\n      jump\t// out\n        /* \"#utility.yul\":28475:28856   */\n    tag_243:\n        /* \"#utility.yul\":28660:28663   */\n      0x00\n        /* \"#utility.yul\":28682:28830   */\n      tag_641\n        /* \"#utility.yul\":28826:28829   */\n      dup3\n        /* \"#utility.yul\":28682:28830   */\n      tag_376\n      jump\t// in\n    tag_641:\n        /* \"#utility.yul\":28675:28830   */\n      swap2\n      pop\n        /* \"#utility.yul\":28847:28850   */\n      dup2\n        /* \"#utility.yul\":28840:28850   */\n      swap1\n      pop\n        /* \"#utility.yul\":28475:28856   */\n      swap2\n      swap1\n      pop\n      jump\t// out\n        /* \"#utility.yul\":28862:29018   */\n    tag_377:\n        /* \"#utility.yul\":29002:29010   */\n      0x49736162656c0000000000000000000000000000000000000000000000000000\n        /* \"#utility.yul\":28998:28999   */\n      0x00\n        /* \"#utility.yul\":28990:28996   */\n      dup3\n        /* \"#utility.yul\":28986:29000   */\n      add\n        /* \"#utility.yul\":28979:29011   */\n      mstore\n        /* \"#utility.yul\":28862:29018   */\n      pop\n      jump\t// out\n        /* \"#utility.yul\":29024:29424   */\n    tag_378:\n        /* \"#utility.yul\":29184:29187   */\n      0x00\n        /* \"#utility.yul\":29205:29289   */\n      tag_644\n        /* \"#utility.yul\":29287:29288   */\n      0x06\n        /* \"#utility.yul\":29282:29285   */\n      dup4\n        /* \"#utility.yul\":29205:29289   */\n      tag_341\n      jump\t// in\n    tag_644:\n        /* \"#utility.yul\":29198:29289   */\n      swap2\n      pop\n        /* \"#utility.yul\":29298:29391   */\n      tag_645\n        /* \"#utility.yul\":29387:29390   */\n      dup3\n        /* \"#utility.yul\":29298:29391   */\n      tag_377\n      jump\t// in\n    tag_645:\n        /* \"#utility.yul\":29416:29417   */\n      0x06\n        /* \"#utility.yul\":29411:29414   */\n      dup3\n        /* \"#utility.yul\":29407:29418   */\n      add\n        /* \"#utility.yul\":29400:29418   */\n      swap1\n      pop\n        /* \"#utility.yul\":29024:29424   */\n      swap2\n      swap1\n      pop\n      jump\t// out\n        /* \"#utility.yul\":29430:29811   */\n    tag_247:\n        /* \"#utility.yul\":29615:29618   */\n      0x00\n        /* \"#utility.yul\":29637:29785   */\n      tag_647\n        /* \"#utility.yul\":29781:29784   */\n      dup3\n        /* \"#utility.yul\":29637:29785   */\n      tag_378\n      jump\t// in\n    tag_647:\n        /* \"#utility.yul\":29630:29785   */\n      swap2\n      pop\n        /* \"#utility.yul\":29802:29805   */\n      dup2\n        /* \"#utility.yul\":29795:29805   */\n      swap1\n      pop\n        /* \"#utility.yul\":29430:29811   */\n      swap2\n      swap1\n      pop\n      jump\t// out\n        /* \"#utility.yul\":29817:29971   */\n    tag_379:\n        /* \"#utility.yul\":29957:29963   */\n      0x4a616e6500000000000000000000000000000000000000000000000000000000\n        /* \"#utility.yul\":29953:29954   */\n      0x00\n        /* \"#utility.yul\":29945:29951   */\n      dup3\n        /* \"#utility.yul\":29941:29955   */\n      add\n        /* \"#utility.yul\":29934:29964   */\n      mstore\n        /* \"#utility.yul\":29817:29971   */\n      pop\n      jump\t// out\n        /* \"#utility.yul\":29977:30377   */\n    tag_380:\n        /* \"#utility.yul\":30137:30140   */\n      0x00\n        /* \"#utility.yul\":30158:30242   */\n      tag_650\n        /* \"#utility.yul\":30240:30241   */\n      0x04\n        /* \"#utility.yul\":30235:30238   */\n      dup4\n        /* \"#utility.yul\":30158:30242   */\n      tag_341\n      jump\t// in\n    tag_650:\n        /* \"#utility.yul\":30151:30242   */\n      swap2\n      pop\n        /* \"#utility.yul\":30251:30344   */\n      tag_651\n        /* \"#utility.yul\":30340:30343   */\n      dup3\n        /* \"#utility.yul\":30251:30344   */\n      tag_379\n      jump\t// in\n    tag_651:\n        /* \"#utility.yul\":30369:30370   */\n      0x04\n        /* \"#utility.yul\":30364:30367   */\n      dup3\n        /* \"#utility.yul\":30360:30371   */\n      add\n        /* \"#utility.yul\":30353:30371   */\n      swap1\n      pop\n        /* \"#utility.yul\":29977:30377   */\n      swap2\n      swap1\n      pop\n      jump\t// out\n        /* \"#utility.yul\":30383:30764   */\n    tag_251:\n        /* \"#utility.yul\":30568:30571   */\n      0x00\n        /* \"#utility.yul\":30590:30738   */\n      tag_653\n        /* \"#utility.yul\":30734:30737   */\n      dup3\n        /* \"#utility.yul\":30590:30738   */\n      tag_380\n      jump\t// in\n    tag_653:\n        /* \"#utility.yul\":30583:30738   */\n      swap2\n      pop\n        /* \"#utility.yul\":30755:30758   */\n      dup2\n        /* \"#utility.yul\":30748:30758   */\n      swap1\n      pop\n        /* \"#utility.yul\":30383:30764   */\n      swap2\n      swap1\n      pop\n      jump\t// out\n\n    auxdata: 0xa2646970667358221220ac51000edea65f86ee25a0b81914e66c2ebf84c484f86192e566279bf631053264736f6c63430008160033\n}\n",
				"bytecode": {
					"linkReferences": {},
					"object": "608060405234801561000f575f80fd5b506125248061001d5f395ff3fe608060405234801561000f575f80fd5b50600436106100cd575f3560e01c806383b41ad81161008a578063b5b71ac911610064578063b5b71ac914610213578063d7bc51a714610231578063e1e0485e1461023b578063f6b0797c1461026b576100cd565b806383b41ad8146101955780638f5801ed146101c5578063a41f985e146101e3576100cd565b8063077ff0c0146100d15780630e44180b1461010157806327f7c2591461011f5780632cd07b5a1461013d5780633e6188411461015b57806382fae9b714610179575b5f80fd5b6100eb60048036038101906100e69190611817565b610289565b6040516100f89190611876565b60405180910390f35b6101096102b2565b6040516101169190611a20565b60405180910390f35b6101276103b1565b6040516101349190611a5a565b60405180910390f35b6101456103d1565b6040516101529190611b0f565b60405180910390f35b6101636106c4565b6040516101709190611a20565b60405180910390f35b610193600480360381019061018e9190611b59565b610871565b005b6101af60048036038101906101aa9190611817565b610956565b6040516101bc9190611c12565b60405180910390f35b6101cd610a30565b6040516101da9190611876565b60405180910390f35b6101fd60048036038101906101f89190611c32565b610a3c565b60405161020a9190611c12565b60405180910390f35b61021b610b70565b6040516102289190611876565b60405180910390f35b610239610bd7565b005b61025560048036038101906102509190611c32565b6114c1565b6040516102629190611ca5565b60405180910390f35b61027361161d565b6040516102809190611876565b60405180910390f35b5f80826040516102999190611cff565b9081526020016040518091039020600101549050919050565b60606001805480602002602001604051908101604052809291908181526020015f905b828210156103a8578382905f5260205f2090600302016040518060600160405290815f82015481526020016001820154815260200160028201805461031990611d42565b80601f016020809104026020016040519081016040528092919081815260200182805461034590611d42565b80156103905780601f1061036757610100808354040283529160200191610390565b820191905f5260205f20905b81548152906001019060200180831161037357829003601f168201915b505050505081525050815260200190600101906102d5565b50505050905090565b5f60466103bc610b70565b106103ca57600190506103ce565b5f90505b90565b6103d961167e565b6103e161167e565b5f6103ea610a30565b90505f8167ffffffffffffffff811115610407576104066116f3565b5b60405190808252806020026020018201604052801561044057816020015b61042d6116ab565b8152602001906001900390816104255790505b5090506001805480602002602001604051908101604052809291908181526020015f905b82821015610537578382905f5260205f2090600302016040518060600160405290815f8201548152602001600182015481526020016002820180546104a890611d42565b80601f01602080910402602001604051908101604052809291908181526020018280546104d490611d42565b801561051f5780601f106104f65761010080835404028352916020019161051f565b820191905f5260205f20905b81548152906001019060200180831161050257829003601f168201915b50505050508152505081526020019060010190610464565b5050505090506105456116ab565b5f5b6001846105549190611d9f565b81101561066a575f5b60018561056a9190611d9f565b81101561065c578360018261057f9190611dd2565b815181106105905761058f611e05565b5b6020026020010151602001518482815181106105af576105ae611e05565b5b602002602001015160200151101561064f578381815181106105d4576105d3611e05565b5b60200260200101519250836001826105ec9190611dd2565b815181106105fd576105fc611e05565b5b602002602001015184828151811061061857610617611e05565b5b602002602001018190525082846001836106329190611dd2565b8151811061064357610642611e05565b5b60200260200101819052505b808060010191505061055d565b508080600101915050610547565b505f5b60048110156106b95782818151811061068957610688611e05565b5b60200260200101518582600481106106a4576106a3611e05565b5b6020020181905250808060010191505061066d565b508394505050505090565b60605f806106d061161d565b67ffffffffffffffff8111156106e9576106e86116f3565b5b60405190808252806020026020018201604052801561072257816020015b61070f6116ab565b8152602001906001900390816107075790505b5090505f5b60018054905081101561086857603c6001828154811061074a57610749611e05565b5b905f5260205f20906003020160010154101561085b576001818154811061077457610773611e05565b5b905f5260205f2090600302016040518060600160405290815f8201548152602001600182015481526020016002820180546107ae90611d42565b80601f01602080910402602001604051908101604052809291908181526020018280546107da90611d42565b80156108255780601f106107fc57610100808354040283529160200191610825565b820191905f5260205f20905b81548152906001019060200180831161080857829003601f168201915b50505050508152505082848151811061084157610840611e05565b5b6020026020010181905250828061085790611e32565b9350505b8080600101915050610727565b50809250505090565b6040518060600160405280838152602001828152602001610891836114c1565b8152505f846040516108a39190611cff565b90815260200160405180910390205f820151815f01556020820151816001015560408201518160020190816108d89190612016565b50905050600160405180606001604052808481526020018381526020016108fe846114c1565b815250908060018154018082558091505060019003905f5260205f2090600302015f909190919091505f820151815f015560208201518160010155604082015181600201908161094e9190612016565b505050505050565b61095e6116ab565b5f8260405161096d9190611cff565b90815260200160405180910390206040518060600160405290815f8201548152602001600182015481526020016002820180546109a990611d42565b80601f01602080910402602001604051908101604052809291908181526020018280546109d590611d42565b8015610a205780601f106109f757610100808354040283529160200191610a20565b820191905f5260205f20905b815481529060010190602001808311610a0357829003601f168201915b5050505050815250509050919050565b5f600180549050905090565b610a446116ab565b610a4c6116ab565b5f5b600180549050811015610b66578360018281548110610a7057610a6f611e05565b5b905f5260205f2090600302015f015403610b595760018181548110610a9857610a97611e05565b5b905f5260205f2090600302016040518060600160405290815f820154815260200160018201548152602001600282018054610ad290611d42565b80601f0160208091040260200160405190810160405280929190818152602001828054610afe90611d42565b8015610b495780601f10610b2057610100808354040283529160200191610b49565b820191905f5260205f20905b815481529060010190602001808311610b2c57829003601f168201915b5050505050815250509150610b66565b8080600101915050610a4e565b5080915050919050565b5f805f5b600180549050811015610bbf5760018181548110610b9557610b94611e05565b5b905f5260205f2090600302016001015482610bb09190611dd2565b91508080600101915050610b74565b5060018054905081610bd19190612112565b91505090565b60405180606001604052806001815260200160558152602001610bfa60556114c1565b8152505f604051610c0a9061218c565b90815260200160405180910390205f820151815f0155602082015181600101556040820151816002019081610c3f9190612016565b50905050604051806060016040528060028152602001604b8152602001610c66604b6114c1565b8152505f604051610c76906121ea565b90815260200160405180910390205f820151815f0155602082015181600101556040820151816002019081610cab9190612016565b50905050604051806060016040528060038152602001603c8152602001610cd2603c6114c1565b8152505f604051610ce290612248565b90815260200160405180910390205f820151815f0155602082015181600101556040820151816002019081610d179190612016565b50905050604051806060016040528060048152602001605a8152602001610d3e605a6114c1565b8152505f604051610d4e906122a6565b90815260200160405180910390205f820151815f0155602082015181600101556040820151816002019081610d839190612016565b5090505060405180606001604052806005815260200160418152602001610daa60416114c1565b8152505f604051610dba90612304565b90815260200160405180910390205f820151815f0155602082015181600101556040820151816002019081610def9190612016565b5090505060405180606001604052806006815260200160328152602001610e1660326114c1565b8152505f604051610e2690612362565b90815260200160405180910390205f820151815f0155602082015181600101556040820151816002019081610e5b9190612016565b5090505060405180606001604052806007815260200160508152602001610e8260506114c1565b8152505f604051610e92906123c0565b90815260200160405180910390205f820151815f0155602082015181600101556040820151816002019081610ec79190612016565b50905050604051806060016040528060088152602001605a8152602001610eee605a6114c1565b8152505f604051610efe9061241e565b90815260200160405180910390205f820151815f0155602082015181600101556040820151816002019081610f339190612016565b5090505060405180606001604052806009815260200160648152602001610f5a60646114c1565b8152505f604051610f6a9061247c565b90815260200160405180910390205f820151815f0155602082015181600101556040820151816002019081610f9f9190612016565b509050506040518060600160405280600a815260200160468152602001610fc660466114c1565b8152505f604051610fd6906124da565b90815260200160405180910390205f820151815f015560208201518160010155604082015181600201908161100b9190612016565b5090505060016040518060600160405280600181526020016055815260200161103460556114c1565b815250908060018154018082558091505060019003905f5260205f2090600302015f909190919091505f820151815f01556020820151816001015560408201518160020190816110849190612016565b5050506001604051806060016040528060028152602001604b81526020016110ac604b6114c1565b815250908060018154018082558091505060019003905f5260205f2090600302015f909190919091505f820151815f01556020820151816001015560408201518160020190816110fc9190612016565b5050506001604051806060016040528060038152602001603c8152602001611124603c6114c1565b815250908060018154018082558091505060019003905f5260205f2090600302015f909190919091505f820151815f01556020820151816001015560408201518160020190816111749190612016565b5050506001604051806060016040528060048152602001605a815260200161119c605a6114c1565b815250908060018154018082558091505060019003905f5260205f2090600302015f909190919091505f820151815f01556020820151816001015560408201518160020190816111ec9190612016565b50505060016040518060600160405280600581526020016041815260200161121460416114c1565b815250908060018154018082558091505060019003905f5260205f2090600302015f909190919091505f820151815f01556020820151816001015560408201518160020190816112649190612016565b50505060016040518060600160405280600681526020016032815260200161128c60326114c1565b815250908060018154018082558091505060019003905f5260205f2090600302015f909190919091505f820151815f01556020820151816001015560408201518160020190816112dc9190612016565b50505060016040518060600160405280600781526020016050815260200161130460506114c1565b815250908060018154018082558091505060019003905f5260205f2090600302015f909190919091505f820151815f01556020820151816001015560408201518160020190816113549190612016565b5050506001604051806060016040528060088152602001605a815260200161137c605a6114c1565b815250908060018154018082558091505060019003905f5260205f2090600302015f909190919091505f820151815f01556020820151816001015560408201518160020190816113cc9190612016565b5050506001604051806060016040528060098152602001606481526020016113f460646114c1565b815250908060018154018082558091505060019003905f5260205f2090600302015f909190919091505f820151815f01556020820151816001015560408201518160020190816114449190612016565b50505060016040518060600160405280600a81526020016046815260200161146c60466114c1565b815250908060018154018082558091505060019003905f5260205f2090600302015f909190919091505f820151815f01556020820151816001015560408201518160020190816114bc9190612016565b505050565b606080605a8310611509576040518060400160405280600181526020017f41000000000000000000000000000000000000000000000000000000000000008152509050611614565b6050831061154e576040518060400160405280600181526020017f42000000000000000000000000000000000000000000000000000000000000008152509050611613565b60468310611593576040518060400160405280600181526020017f43000000000000000000000000000000000000000000000000000000000000008152509050611612565b603c83106115d8576040518060400160405280600181526020017f44000000000000000000000000000000000000000000000000000000000000008152509050611611565b6040518060400160405280600181526020017f460000000000000000000000000000000000000000000000000000000000000081525090505b5b5b5b80915050919050565b5f805f5b60018054905081101561167657603c6001828154811061164457611643611e05565b5b905f5260205f20906003020160010154101561166957818061166590611e32565b9250505b8080600101915050611621565b508091505090565b60405180608001604052806004905b6116956116ab565b81526020019060019003908161168d5790505090565b60405180606001604052805f81526020015f8152602001606081525090565b5f604051905090565b5f80fd5b5f80fd5b5f80fd5b5f80fd5b5f601f19601f8301169050919050565b7f4e487b71000000000000000000000000000000000000000000000000000000005f52604160045260245ffd5b611729826116e3565b810181811067ffffffffffffffff82111715611748576117476116f3565b5b80604052505050565b5f61175a6116ca565b90506117668282611720565b919050565b5f67ffffffffffffffff821115611785576117846116f3565b5b61178e826116e3565b9050602081019050919050565b828183375f83830152505050565b5f6117bb6117b68461176b565b611751565b9050828152602081018484840111156117d7576117d66116df565b5b6117e284828561179b565b509392505050565b5f82601f8301126117fe576117fd6116db565b5b813561180e8482602086016117a9565b91505092915050565b5f6020828403121561182c5761182b6116d3565b5b5f82013567ffffffffffffffff811115611849576118486116d7565b5b611855848285016117ea565b91505092915050565b5f819050919050565b6118708161185e565b82525050565b5f6020820190506118895f830184611867565b92915050565b5f81519050919050565b5f82825260208201905092915050565b5f819050602082019050919050565b6118c18161185e565b82525050565b5f81519050919050565b5f82825260208201905092915050565b5f5b838110156118fe5780820151818401526020810190506118e3565b5f8484015250505050565b5f611913826118c7565b61191d81856118d1565b935061192d8185602086016118e1565b611936816116e3565b840191505092915050565b5f606083015f8301516119565f8601826118b8565b50602083015161196960208601826118b8565b50604083015184820360408601526119818282611909565b9150508091505092915050565b5f6119998383611941565b905092915050565b5f602082019050919050565b5f6119b78261188f565b6119c18185611899565b9350836020820285016119d3856118a9565b805f5b85811015611a0e57848403895281516119ef858261198e565b94506119fa836119a1565b925060208a019950506001810190506119d6565b50829750879550505050505092915050565b5f6020820190508181035f830152611a3881846119ad565b905092915050565b5f8115159050919050565b611a5481611a40565b82525050565b5f602082019050611a6d5f830184611a4b565b92915050565b5f60049050919050565b5f81905092915050565b5f819050919050565b5f602082019050919050565b5f611aa682611a73565b611ab08185611a7d565b935083602082028501611ac285611a87565b805f5b85811015611afd5784840389528151611ade858261198e565b9450611ae983611a90565b925060208a01995050600181019050611ac5565b50829750879550505050505092915050565b5f6020820190508181035f830152611b278184611a9c565b905092915050565b611b388161185e565b8114611b42575f80fd5b50565b5f81359050611b5381611b2f565b92915050565b5f805f60608486031215611b7057611b6f6116d3565b5b5f84013567ffffffffffffffff811115611b8d57611b8c6116d7565b5b611b99868287016117ea565b9350506020611baa86828701611b45565b9250506040611bbb86828701611b45565b9150509250925092565b5f606083015f830151611bda5f8601826118b8565b506020830151611bed60208601826118b8565b5060408301518482036040860152611c058282611909565b9150508091505092915050565b5f6020820190508181035f830152611c2a8184611bc5565b905092915050565b5f60208284031215611c4757611c466116d3565b5b5f611c5484828501611b45565b91505092915050565b5f82825260208201905092915050565b5f611c77826118c7565b611c818185611c5d565b9350611c918185602086016118e1565b611c9a816116e3565b840191505092915050565b5f6020820190508181035f830152611cbd8184611c6d565b905092915050565b5f81905092915050565b5f611cd9826118c7565b611ce38185611cc5565b9350611cf38185602086016118e1565b80840191505092915050565b5f611d0a8284611ccf565b915081905092915050565b7f4e487b71000000000000000000000000000000000000000000000000000000005f52602260045260245ffd5b5f6002820490506001821680611d5957607f821691505b602082108103611d6c57611d6b611d15565b5b50919050565b7f4e487b71000000000000000000000000000000000000000000000000000000005f52601160045260245ffd5b5f611da98261185e565b9150611db48361185e565b9250828203905081811115611dcc57611dcb611d72565b5b92915050565b5f611ddc8261185e565b9150611de78361185e565b9250828201905080821115611dff57611dfe611d72565b5b92915050565b7f4e487b71000000000000000000000000000000000000000000000000000000005f52603260045260245ffd5b5f611e3c8261185e565b91507fffffffffffffffffffffffffffffffffffffffffffffffffffffffffffffffff8203611e6e57611e6d611d72565b5b600182019050919050565b5f819050815f5260205f209050919050565b5f6020601f8301049050919050565b5f82821b905092915050565b5f60088302611ed57fffffffffffffffffffffffffffffffffffffffffffffffffffffffffffffffff82611e9a565b611edf8683611e9a565b95508019841693508086168417925050509392505050565b5f819050919050565b5f611f1a611f15611f108461185e565b611ef7565b61185e565b9050919050565b5f819050919050565b611f3383611f00565b611f47611f3f82611f21565b848454611ea6565b825550505050565b5f90565b611f5b611f4f565b611f66818484611f2a565b505050565b5b81811015611f8957611f7e5f82611f53565b600181019050611f6c565b5050565b601f821115611fce57611f9f81611e79565b611fa884611e8b565b81016020851015611fb7578190505b611fcb611fc385611e8b565b830182611f6b565b50505b505050565b5f82821c905092915050565b5f611fee5f1984600802611fd3565b1980831691505092915050565b5f6120068383611fdf565b9150826002028217905092915050565b61201f826118c7565b67ffffffffffffffff811115612038576120376116f3565b5b6120428254611d42565b61204d828285611f8d565b5f60209050601f83116001811461207e575f841561206c578287015190505b6120768582611ffb565b8655506120dd565b601f19841661208c86611e79565b5f5b828110156120b35784890151825560018201915060208501945060208101905061208e565b868310156120d057848901516120cc601f891682611fdf565b8355505b6001600288020188555050505b505050505050565b7f4e487b71000000000000000000000000000000000000000000000000000000005f52601260045260245ffd5b5f61211c8261185e565b91506121278361185e565b925082612137576121366120e5565b5b828204905092915050565b7f416c6963650000000000000000000000000000000000000000000000000000005f82015250565b5f612176600583611cc5565b915061218182612142565b600582019050919050565b5f6121968261216a565b9150819050919050565b7f426f6200000000000000000000000000000000000000000000000000000000005f82015250565b5f6121d4600383611cc5565b91506121df826121a0565b600382019050919050565b5f6121f4826121c8565b9150819050919050565b7f436861726c6965000000000000000000000000000000000000000000000000005f82015250565b5f612232600783611cc5565b915061223d826121fe565b600782019050919050565b5f61225282612226565b9150819050919050565b7f447761796e6500000000000000000000000000000000000000000000000000005f82015250565b5f612290600683611cc5565b915061229b8261225c565b600682019050919050565b5f6122b082612284565b9150819050919050565b7f456c6c656e0000000000000000000000000000000000000000000000000000005f82015250565b5f6122ee600583611cc5565b91506122f9826122ba565b600582019050919050565b5f61230e826122e2565b9150819050919050565b7f4669747a000000000000000000000000000000000000000000000000000000005f82015250565b5f61234c600483611cc5565b915061235782612318565b600482019050919050565b5f61236c82612340565b9150819050919050565b7f47617272657400000000000000000000000000000000000000000000000000005f82015250565b5f6123aa600683611cc5565b91506123b582612376565b600682019050919050565b5f6123ca8261239e565b9150819050919050565b7f48756265727400000000000000000000000000000000000000000000000000005f82015250565b5f612408600683611cc5565b9150612413826123d4565b600682019050919050565b5f612428826123fc565b9150819050919050565b7f49736162656c00000000000000000000000000000000000000000000000000005f82015250565b5f612466600683611cc5565b915061247182612432565b600682019050919050565b5f6124868261245a565b9150819050919050565b7f4a616e65000000000000000000000000000000000000000000000000000000005f82015250565b5f6124c4600483611cc5565b91506124cf82612490565b600482019050919050565b5f6124e4826124b8565b915081905091905056fea2646970667358221220ac51000edea65f86ee25a0b81914e66c2ebf84c484f86192e566279bf631053264736f6c63430008160033",
					"opcodes": "PUSH1 0x80 PUSH1 0x40 MSTORE CALLVALUE DUP1 ISZERO PUSH2 0xF JUMPI PUSH0 DUP1 REVERT JUMPDEST POP PUSH2 0x2524 DUP1 PUSH2 0x1D PUSH0 CODECOPY PUSH0 RETURN INVALID PUSH1 0x80 PUSH1 0x40 MSTORE CALLVALUE DUP1 ISZERO PUSH2 0xF JUMPI PUSH0 DUP1 REVERT JUMPDEST POP PUSH1 0x4 CALLDATASIZE LT PUSH2 0xCD JUMPI PUSH0 CALLDATALOAD PUSH1 0xE0 SHR DUP1 PUSH4 0x83B41AD8 GT PUSH2 0x8A JUMPI DUP1 PUSH4 0xB5B71AC9 GT PUSH2 0x64 JUMPI DUP1 PUSH4 0xB5B71AC9 EQ PUSH2 0x213 JUMPI DUP1 PUSH4 0xD7BC51A7 EQ PUSH2 0x231 JUMPI DUP1 PUSH4 0xE1E0485E EQ PUSH2 0x23B JUMPI DUP1 PUSH4 0xF6B0797C EQ PUSH2 0x26B JUMPI PUSH2 0xCD JUMP JUMPDEST DUP1 PUSH4 0x83B41AD8 EQ PUSH2 0x195 JUMPI DUP1 PUSH4 0x8F5801ED EQ PUSH2 0x1C5 JUMPI DUP1 PUSH4 0xA41F985E EQ PUSH2 0x1E3 JUMPI PUSH2 0xCD JUMP JUMPDEST DUP1 PUSH4 0x77FF0C0 EQ PUSH2 0xD1 JUMPI DUP1 PUSH4 0xE44180B EQ PUSH2 0x101 JUMPI DUP1 PUSH4 0x27F7C259 EQ PUSH2 0x11F JUMPI DUP1 PUSH4 0x2CD07B5A EQ PUSH2 0x13D JUMPI DUP1 PUSH4 0x3E618841 EQ PUSH2 0x15B JUMPI DUP1 PUSH4 0x82FAE9B7 EQ PUSH2 0x179 JUMPI JUMPDEST PUSH0 DUP1 REVERT JUMPDEST PUSH2 0xEB PUSH1 0x4 DUP1 CALLDATASIZE SUB DUP2 ADD SWAP1 PUSH2 0xE6 SWAP2 SWAP1 PUSH2 0x1817 JUMP JUMPDEST PUSH2 0x289 JUMP JUMPDEST PUSH1 0x40 MLOAD PUSH2 0xF8 SWAP2 SWAP1 PUSH2 0x1876 JUMP JUMPDEST PUSH1 0x40 MLOAD DUP1 SWAP2 SUB SWAP1 RETURN JUMPDEST PUSH2 0x109 PUSH2 0x2B2 JUMP JUMPDEST PUSH1 0x40 MLOAD PUSH2 0x116 SWAP2 SWAP1 PUSH2 0x1A20 JUMP JUMPDEST PUSH1 0x40 MLOAD DUP1 SWAP2 SUB SWAP1 RETURN JUMPDEST PUSH2 0x127 PUSH2 0x3B1 JUMP JUMPDEST PUSH1 0x40 MLOAD PUSH2 0x134 SWAP2 SWAP1 PUSH2 0x1A5A JUMP JUMPDEST PUSH1 0x40 MLOAD DUP1 SWAP2 SUB SWAP1 RETURN JUMPDEST PUSH2 0x145 PUSH2 0x3D1 JUMP JUMPDEST PUSH1 0x40 MLOAD PUSH2 0x152 SWAP2 SWAP1 PUSH2 0x1B0F JUMP JUMPDEST PUSH1 0x40 MLOAD DUP1 SWAP2 SUB SWAP1 RETURN JUMPDEST PUSH2 0x163 PUSH2 0x6C4 JUMP JUMPDEST PUSH1 0x40 MLOAD PUSH2 0x170 SWAP2 SWAP1 PUSH2 0x1A20 JUMP JUMPDEST PUSH1 0x40 MLOAD DUP1 SWAP2 SUB SWAP1 RETURN JUMPDEST PUSH2 0x193 PUSH1 0x4 DUP1 CALLDATASIZE SUB DUP2 ADD SWAP1 PUSH2 0x18E SWAP2 SWAP1 PUSH2 0x1B59 JUMP JUMPDEST PUSH2 0x871 JUMP JUMPDEST STOP JUMPDEST PUSH2 0x1AF PUSH1 0x4 DUP1 CALLDATASIZE SUB DUP2 ADD SWAP1 PUSH2 0x1AA SWAP2 SWAP1 PUSH2 0x1817 JUMP JUMPDEST PUSH2 0x956 JUMP JUMPDEST PUSH1 0x40 MLOAD PUSH2 0x1BC SWAP2 SWAP1 PUSH2 0x1C12 JUMP JUMPDEST PUSH1 0x40 MLOAD DUP1 SWAP2 SUB SWAP1 RETURN JUMPDEST PUSH2 0x1CD PUSH2 0xA30 JUMP JUMPDEST PUSH1 0x40 MLOAD PUSH2 0x1DA SWAP2 SWAP1 PUSH2 0x1876 JUMP JUMPDEST PUSH1 0x40 MLOAD DUP1 SWAP2 SUB SWAP1 RETURN JUMPDEST PUSH2 0x1FD PUSH1 0x4 DUP1 CALLDATASIZE SUB DUP2 ADD SWAP1 PUSH2 0x1F8 SWAP2 SWAP1 PUSH2 0x1C32 JUMP JUMPDEST PUSH2 0xA3C JUMP JUMPDEST PUSH1 0x40 MLOAD PUSH2 0x20A SWAP2 SWAP1 PUSH2 0x1C12 JUMP JUMPDEST PUSH1 0x40 MLOAD DUP1 SWAP2 SUB SWAP1 RETURN JUMPDEST PUSH2 0x21B PUSH2 0xB70 JUMP JUMPDEST PUSH1 0x40 MLOAD PUSH2 0x228 SWAP2 SWAP1 PUSH2 0x1876 JUMP JUMPDEST PUSH1 0x40 MLOAD DUP1 SWAP2 SUB SWAP1 RETURN JUMPDEST PUSH2 0x239 PUSH2 0xBD7 JUMP JUMPDEST STOP JUMPDEST PUSH2 0x255 PUSH1 0x4 DUP1 CALLDATASIZE SUB DUP2 ADD SWAP1 PUSH2 0x250 SWAP2 SWAP1 PUSH2 0x1C32 JUMP JUMPDEST PUSH2 0x14C1 JUMP JUMPDEST PUSH1 0x40 MLOAD PUSH2 0x262 SWAP2 SWAP1 PUSH2 0x1CA5 JUMP JUMPDEST PUSH1 0x40 MLOAD DUP1 SWAP2 SUB SWAP1 RETURN JUMPDEST PUSH2 0x273 PUSH2 0x161D JUMP JUMPDEST PUSH1 0x40 MLOAD PUSH2 0x280 SWAP2 SWAP1 PUSH2 0x1876 JUMP JUMPDEST PUSH1 0x40 MLOAD DUP1 SWAP2 SUB SWAP1 RETURN JUMPDEST PUSH0 DUP1 DUP3 PUSH1 0x40 MLOAD PUSH2 0x299 SWAP2 SWAP1 PUSH2 0x1CFF JUMP JUMPDEST SWAP1 DUP2 MSTORE PUSH1 0x20 ADD PUSH1 0x40 MLOAD DUP1 SWAP2 SUB SWAP1 KECCAK256 PUSH1 0x1 ADD SLOAD SWAP1 POP SWAP2 SWAP1 POP JUMP JUMPDEST PUSH1 0x60 PUSH1 0x1 DUP1 SLOAD DUP1 PUSH1 0x20 MUL PUSH1 0x20 ADD PUSH1 0x40 MLOAD SWAP1 DUP2 ADD PUSH1 0x40 MSTORE DUP1 SWAP3 SWAP2 SWAP1 DUP2 DUP2 MSTORE PUSH1 0x20 ADD PUSH0 SWAP1 JUMPDEST DUP3 DUP3 LT ISZERO PUSH2 0x3A8 JUMPI DUP4 DUP3 SWAP1 PUSH0 MSTORE PUSH1 0x20 PUSH0 KECCAK256 SWAP1 PUSH1 0x3 MUL ADD PUSH1 0x40 MLOAD DUP1 PUSH1 0x60 ADD PUSH1 0x40 MSTORE SWAP1 DUP2 PUSH0 DUP3 ADD SLOAD DUP2 MSTORE PUSH1 0x20 ADD PUSH1 0x1 DUP3 ADD SLOAD DUP2 MSTORE PUSH1 0x20 ADD PUSH1 0x2 DUP3 ADD DUP1 SLOAD PUSH2 0x319 SWAP1 PUSH2 0x1D42 JUMP JUMPDEST DUP1 PUSH1 0x1F ADD PUSH1 0x20 DUP1 SWAP2 DIV MUL PUSH1 0x20 ADD PUSH1 0x40 MLOAD SWAP1 DUP2 ADD PUSH1 0x40 MSTORE DUP1 SWAP3 SWAP2 SWAP1 DUP2 DUP2 MSTORE PUSH1 0x20 ADD DUP3 DUP1 SLOAD PUSH2 0x345 SWAP1 PUSH2 0x1D42 JUMP JUMPDEST DUP1 ISZERO PUSH2 0x390 JUMPI DUP1 PUSH1 0x1F LT PUSH2 0x367 JUMPI PUSH2 0x100 DUP1 DUP4 SLOAD DIV MUL DUP4 MSTORE SWAP2 PUSH1 0x20 ADD SWAP2 PUSH2 0x390 JUMP JUMPDEST DUP3 ADD SWAP2 SWAP1 PUSH0 MSTORE PUSH1 0x20 PUSH0 KECCAK256 SWAP1 JUMPDEST DUP2 SLOAD DUP2 MSTORE SWAP1 PUSH1 0x1 ADD SWAP1 PUSH1 0x20 ADD DUP1 DUP4 GT PUSH2 0x373 JUMPI DUP3 SWAP1 SUB PUSH1 0x1F AND DUP3 ADD SWAP2 JUMPDEST POP POP POP POP POP DUP2 MSTORE POP POP DUP2 MSTORE PUSH1 0x20 ADD SWAP1 PUSH1 0x1 ADD SWAP1 PUSH2 0x2D5 JUMP JUMPDEST POP POP POP POP SWAP1 POP SWAP1 JUMP JUMPDEST PUSH0 PUSH1 0x46 PUSH2 0x3BC PUSH2 0xB70 JUMP JUMPDEST LT PUSH2 0x3CA JUMPI PUSH1 0x1 SWAP1 POP PUSH2 0x3CE JUMP JUMPDEST PUSH0 SWAP1 POP JUMPDEST SWAP1 JUMP JUMPDEST PUSH2 0x3D9 PUSH2 0x167E JUMP JUMPDEST PUSH2 0x3E1 PUSH2 0x167E JUMP JUMPDEST PUSH0 PUSH2 0x3EA PUSH2 0xA30 JUMP JUMPDEST SWAP1 POP PUSH0 DUP2 PUSH8 0xFFFFFFFFFFFFFFFF DUP2 GT ISZERO PUSH2 0x407 JUMPI PUSH2 0x406 PUSH2 0x16F3 JUMP JUMPDEST JUMPDEST PUSH1 0x40 MLOAD SWAP1 DUP1 DUP3 MSTORE DUP1 PUSH1 0x20 MUL PUSH1 0x20 ADD DUP3 ADD PUSH1 0x40 MSTORE DUP1 ISZERO PUSH2 0x440 JUMPI DUP2 PUSH1 0x20 ADD JUMPDEST PUSH2 0x42D PUSH2 0x16AB JUMP JUMPDEST DUP2 MSTORE PUSH1 0x20 ADD SWAP1 PUSH1 0x1 SWAP1 SUB SWAP1 DUP2 PUSH2 0x425 JUMPI SWAP1 POP JUMPDEST POP SWAP1 POP PUSH1 0x1 DUP1 SLOAD DUP1 PUSH1 0x20 MUL PUSH1 0x20 ADD PUSH1 0x40 MLOAD SWAP1 DUP2 ADD PUSH1 0x40 MSTORE DUP1 SWAP3 SWAP2 SWAP1 DUP2 DUP2 MSTORE PUSH1 0x20 ADD PUSH0 SWAP1 JUMPDEST DUP3 DUP3 LT ISZERO PUSH2 0x537 JUMPI DUP4 DUP3 SWAP1 PUSH0 MSTORE PUSH1 0x20 PUSH0 KECCAK256 SWAP1 PUSH1 0x3 MUL ADD PUSH1 0x40 MLOAD DUP1 PUSH1 0x60 ADD PUSH1 0x40 MSTORE SWAP1 DUP2 PUSH0 DUP3 ADD SLOAD DUP2 MSTORE PUSH1 0x20 ADD PUSH1 0x1 DUP3 ADD SLOAD DUP2 MSTORE PUSH1 0x20 ADD PUSH1 0x2 DUP3 ADD DUP1 SLOAD PUSH2 0x4A8 SWAP1 PUSH2 0x1D42 JUMP JUMPDEST DUP1 PUSH1 0x1F ADD PUSH1 0x20 DUP1 SWAP2 DIV MUL PUSH1 0x20 ADD PUSH1 0x40 MLOAD SWAP1 DUP2 ADD PUSH1 0x40 MSTORE DUP1 SWAP3 SWAP2 SWAP1 DUP2 DUP2 MSTORE PUSH1 0x20 ADD DUP3 DUP1 SLOAD PUSH2 0x4D4 SWAP1 PUSH2 0x1D42 JUMP JUMPDEST DUP1 ISZERO PUSH2 0x51F JUMPI DUP1 PUSH1 0x1F LT PUSH2 0x4F6 JUMPI PUSH2 0x100 DUP1 DUP4 SLOAD DIV MUL DUP4 MSTORE SWAP2 PUSH1 0x20 ADD SWAP2 PUSH2 0x51F JUMP JUMPDEST DUP3 ADD SWAP2 SWAP1 PUSH0 MSTORE PUSH1 0x20 PUSH0 KECCAK256 SWAP1 JUMPDEST DUP2 SLOAD DUP2 MSTORE SWAP1 PUSH1 0x1 ADD SWAP1 PUSH1 0x20 ADD DUP1 DUP4 GT PUSH2 0x502 JUMPI DUP3 SWAP1 SUB PUSH1 0x1F AND DUP3 ADD SWAP2 JUMPDEST POP POP POP POP POP DUP2 MSTORE POP POP DUP2 MSTORE PUSH1 0x20 ADD SWAP1 PUSH1 0x1 ADD SWAP1 PUSH2 0x464 JUMP JUMPDEST POP POP POP POP SWAP1 POP PUSH2 0x545 PUSH2 0x16AB JUMP JUMPDEST PUSH0 JUMPDEST PUSH1 0x1 DUP5 PUSH2 0x554 SWAP2 SWAP1 PUSH2 0x1D9F JUMP JUMPDEST DUP2 LT ISZERO PUSH2 0x66A JUMPI PUSH0 JUMPDEST PUSH1 0x1 DUP6 PUSH2 0x56A SWAP2 SWAP1 PUSH2 0x1D9F JUMP JUMPDEST DUP2 LT ISZERO PUSH2 0x65C JUMPI DUP4 PUSH1 0x1 DUP3 PUSH2 0x57F SWAP2 SWAP1 PUSH2 0x1DD2 JUMP JUMPDEST DUP2 MLOAD DUP2 LT PUSH2 0x590 JUMPI PUSH2 0x58F PUSH2 0x1E05 JUMP JUMPDEST JUMPDEST PUSH1 0x20 MUL PUSH1 0x20 ADD ADD MLOAD PUSH1 0x20 ADD MLOAD DUP5 DUP3 DUP2 MLOAD DUP2 LT PUSH2 0x5AF JUMPI PUSH2 0x5AE PUSH2 0x1E05 JUMP JUMPDEST JUMPDEST PUSH1 0x20 MUL PUSH1 0x20 ADD ADD MLOAD PUSH1 0x20 ADD MLOAD LT ISZERO PUSH2 0x64F JUMPI DUP4 DUP2 DUP2 MLOAD DUP2 LT PUSH2 0x5D4 JUMPI PUSH2 0x5D3 PUSH2 0x1E05 JUMP JUMPDEST JUMPDEST PUSH1 0x20 MUL PUSH1 0x20 ADD ADD MLOAD SWAP3 POP DUP4 PUSH1 0x1 DUP3 PUSH2 0x5EC SWAP2 SWAP1 PUSH2 0x1DD2 JUMP JUMPDEST DUP2 MLOAD DUP2 LT PUSH2 0x5FD JUMPI PUSH2 0x5FC PUSH2 0x1E05 JUMP JUMPDEST JUMPDEST PUSH1 0x20 MUL PUSH1 0x20 ADD ADD MLOAD DUP5 DUP3 DUP2 MLOAD DUP2 LT PUSH2 0x618 JUMPI PUSH2 0x617 PUSH2 0x1E05 JUMP JUMPDEST JUMPDEST PUSH1 0x20 MUL PUSH1 0x20 ADD ADD DUP2 SWAP1 MSTORE POP DUP3 DUP5 PUSH1 0x1 DUP4 PUSH2 0x632 SWAP2 SWAP1 PUSH2 0x1DD2 JUMP JUMPDEST DUP2 MLOAD DUP2 LT PUSH2 0x643 JUMPI PUSH2 0x642 PUSH2 0x1E05 JUMP JUMPDEST JUMPDEST PUSH1 0x20 MUL PUSH1 0x20 ADD ADD DUP2 SWAP1 MSTORE POP JUMPDEST DUP1 DUP1 PUSH1 0x1 ADD SWAP2 POP POP PUSH2 0x55D JUMP JUMPDEST POP DUP1 DUP1 PUSH1 0x1 ADD SWAP2 POP POP PUSH2 0x547 JUMP JUMPDEST POP PUSH0 JUMPDEST PUSH1 0x4 DUP2 LT ISZERO PUSH2 0x6B9 JUMPI DUP3 DUP2 DUP2 MLOAD DUP2 LT PUSH2 0x689 JUMPI PUSH2 0x688 PUSH2 0x1E05 JUMP JUMPDEST JUMPDEST PUSH1 0x20 MUL PUSH1 0x20 ADD ADD MLOAD DUP6 DUP3 PUSH1 0x4 DUP2 LT PUSH2 0x6A4 JUMPI PUSH2 0x6A3 PUSH2 0x1E05 JUMP JUMPDEST JUMPDEST PUSH1 0x20 MUL ADD DUP2 SWAP1 MSTORE POP DUP1 DUP1 PUSH1 0x1 ADD SWAP2 POP POP PUSH2 0x66D JUMP JUMPDEST POP DUP4 SWAP5 POP POP POP POP POP SWAP1 JUMP JUMPDEST PUSH1 0x60 PUSH0 DUP1 PUSH2 0x6D0 PUSH2 0x161D JUMP JUMPDEST PUSH8 0xFFFFFFFFFFFFFFFF DUP2 GT ISZERO PUSH2 0x6E9 JUMPI PUSH2 0x6E8 PUSH2 0x16F3 JUMP JUMPDEST JUMPDEST PUSH1 0x40 MLOAD SWAP1 DUP1 DUP3 MSTORE DUP1 PUSH1 0x20 MUL PUSH1 0x20 ADD DUP3 ADD PUSH1 0x40 MSTORE DUP1 ISZERO PUSH2 0x722 JUMPI DUP2 PUSH1 0x20 ADD JUMPDEST PUSH2 0x70F PUSH2 0x16AB JUMP JUMPDEST DUP2 MSTORE PUSH1 0x20 ADD SWAP1 PUSH1 0x1 SWAP1 SUB SWAP1 DUP2 PUSH2 0x707 JUMPI SWAP1 POP JUMPDEST POP SWAP1 POP PUSH0 JUMPDEST PUSH1 0x1 DUP1 SLOAD SWAP1 POP DUP2 LT ISZERO PUSH2 0x868 JUMPI PUSH1 0x3C PUSH1 0x1 DUP3 DUP2 SLOAD DUP2 LT PUSH2 0x74A JUMPI PUSH2 0x749 PUSH2 0x1E05 JUMP JUMPDEST JUMPDEST SWAP1 PUSH0 MSTORE PUSH1 0x20 PUSH0 KECCAK256 SWAP1 PUSH1 0x3 MUL ADD PUSH1 0x1 ADD SLOAD LT ISZERO PUSH2 0x85B JUMPI PUSH1 0x1 DUP2 DUP2 SLOAD DUP2 LT PUSH2 0x774 JUMPI PUSH2 0x773 PUSH2 0x1E05 JUMP JUMPDEST JUMPDEST SWAP1 PUSH0 MSTORE PUSH1 0x20 PUSH0 KECCAK256 SWAP1 PUSH1 0x3 MUL ADD PUSH1 0x40 MLOAD DUP1 PUSH1 0x60 ADD PUSH1 0x40 MSTORE SWAP1 DUP2 PUSH0 DUP3 ADD SLOAD DUP2 MSTORE PUSH1 0x20 ADD PUSH1 0x1 DUP3 ADD SLOAD DUP2 MSTORE PUSH1 0x20 ADD PUSH1 0x2 DUP3 ADD DUP1 SLOAD PUSH2 0x7AE SWAP1 PUSH2 0x1D42 JUMP JUMPDEST DUP1 PUSH1 0x1F ADD PUSH1 0x20 DUP1 SWAP2 DIV MUL PUSH1 0x20 ADD PUSH1 0x40 MLOAD SWAP1 DUP2 ADD PUSH1 0x40 MSTORE DUP1 SWAP3 SWAP2 SWAP1 DUP2 DUP2 MSTORE PUSH1 0x20 ADD DUP3 DUP1 SLOAD PUSH2 0x7DA SWAP1 PUSH2 0x1D42 JUMP JUMPDEST DUP1 ISZERO PUSH2 0x825 JUMPI DUP1 PUSH1 0x1F LT PUSH2 0x7FC JUMPI PUSH2 0x100 DUP1 DUP4 SLOAD DIV MUL DUP4 MSTORE SWAP2 PUSH1 0x20 ADD SWAP2 PUSH2 0x825 JUMP JUMPDEST DUP3 ADD SWAP2 SWAP1 PUSH0 MSTORE PUSH1 0x20 PUSH0 KECCAK256 SWAP1 JUMPDEST DUP2 SLOAD DUP2 MSTORE SWAP1 PUSH1 0x1 ADD SWAP1 PUSH1 0x20 ADD DUP1 DUP4 GT PUSH2 0x808 JUMPI DUP3 SWAP1 SUB PUSH1 0x1F AND DUP3 ADD SWAP2 JUMPDEST POP POP POP POP POP DUP2 MSTORE POP POP DUP3 DUP5 DUP2 MLOAD DUP2 LT PUSH2 0x841 JUMPI PUSH2 0x840 PUSH2 0x1E05 JUMP JUMPDEST JUMPDEST PUSH1 0x20 MUL PUSH1 0x20 ADD ADD DUP2 SWAP1 MSTORE POP DUP3 DUP1 PUSH2 0x857 SWAP1 PUSH2 0x1E32 JUMP JUMPDEST SWAP4 POP POP JUMPDEST DUP1 DUP1 PUSH1 0x1 ADD SWAP2 POP POP PUSH2 0x727 JUMP JUMPDEST POP DUP1 SWAP3 POP POP POP SWAP1 JUMP JUMPDEST PUSH1 0x40 MLOAD DUP1 PUSH1 0x60 ADD PUSH1 0x40 MSTORE DUP1 DUP4 DUP2 MSTORE PUSH1 0x20 ADD DUP3 DUP2 MSTORE PUSH1 0x20 ADD PUSH2 0x891 DUP4 PUSH2 0x14C1 JUMP JUMPDEST DUP2 MSTORE POP PUSH0 DUP5 PUSH1 0x40 MLOAD PUSH2 0x8A3 SWAP2 SWAP1 PUSH2 0x1CFF JUMP JUMPDEST SWAP1 DUP2 MSTORE PUSH1 0x20 ADD PUSH1 0x40 MLOAD DUP1 SWAP2 SUB SWAP1 KECCAK256 PUSH0 DUP3 ADD MLOAD DUP2 PUSH0 ADD SSTORE PUSH1 0x20 DUP3 ADD MLOAD DUP2 PUSH1 0x1 ADD SSTORE PUSH1 0x40 DUP3 ADD MLOAD DUP2 PUSH1 0x2 ADD SWAP1 DUP2 PUSH2 0x8D8 SWAP2 SWAP1 PUSH2 0x2016 JUMP JUMPDEST POP SWAP1 POP POP PUSH1 0x1 PUSH1 0x40 MLOAD DUP1 PUSH1 0x60 ADD PUSH1 0x40 MSTORE DUP1 DUP5 DUP2 MSTORE PUSH1 0x20 ADD DUP4 DUP2 MSTORE PUSH1 0x20 ADD PUSH2 0x8FE DUP5 PUSH2 0x14C1 JUMP JUMPDEST DUP2 MSTORE POP SWAP1 DUP1 PUSH1 0x1 DUP2 SLOAD ADD DUP1 DUP3 SSTORE DUP1 SWAP2 POP POP PUSH1 0x1 SWAP1 SUB SWAP1 PUSH0 MSTORE PUSH1 0x20 PUSH0 KECCAK256 SWAP1 PUSH1 0x3 MUL ADD PUSH0 SWAP1 SWAP2 SWAP1 SWAP2 SWAP1 SWAP2 POP PUSH0 DUP3 ADD MLOAD DUP2 PUSH0 ADD SSTORE PUSH1 0x20 DUP3 ADD MLOAD DUP2 PUSH1 0x1 ADD SSTORE PUSH1 0x40 DUP3 ADD MLOAD DUP2 PUSH1 0x2 ADD SWAP1 DUP2 PUSH2 0x94E SWAP2 SWAP1 PUSH2 0x2016 JUMP JUMPDEST POP POP POP POP POP POP JUMP JUMPDEST PUSH2 0x95E PUSH2 0x16AB JUMP JUMPDEST PUSH0 DUP3 PUSH1 0x40 MLOAD PUSH2 0x96D SWAP2 SWAP1 PUSH2 0x1CFF JUMP JUMPDEST SWAP1 DUP2 MSTORE PUSH1 0x20 ADD PUSH1 0x40 MLOAD DUP1 SWAP2 SUB SWAP1 KECCAK256 PUSH1 0x40 MLOAD DUP1 PUSH1 0x60 ADD PUSH1 0x40 MSTORE SWAP1 DUP2 PUSH0 DUP3 ADD SLOAD DUP2 MSTORE PUSH1 0x20 ADD PUSH1 0x1 DUP3 ADD SLOAD DUP2 MSTORE PUSH1 0x20 ADD PUSH1 0x2 DUP3 ADD DUP1 SLOAD PUSH2 0x9A9 SWAP1 PUSH2 0x1D42 JUMP JUMPDEST DUP1 PUSH1 0x1F ADD PUSH1 0x20 DUP1 SWAP2 DIV MUL PUSH1 0x20 ADD PUSH1 0x40 MLOAD SWAP1 DUP2 ADD PUSH1 0x40 MSTORE DUP1 SWAP3 SWAP2 SWAP1 DUP2 DUP2 MSTORE PUSH1 0x20 ADD DUP3 DUP1 SLOAD PUSH2 0x9D5 SWAP1 PUSH2 0x1D42 JUMP JUMPDEST DUP1 ISZERO PUSH2 0xA20 JUMPI DUP1 PUSH1 0x1F LT PUSH2 0x9F7 JUMPI PUSH2 0x100 DUP1 DUP4 SLOAD DIV MUL DUP4 MSTORE SWAP2 PUSH1 0x20 ADD SWAP2 PUSH2 0xA20 JUMP JUMPDEST DUP3 ADD SWAP2 SWAP1 PUSH0 MSTORE PUSH1 0x20 PUSH0 KECCAK256 SWAP1 JUMPDEST DUP2 SLOAD DUP2 MSTORE SWAP1 PUSH1 0x1 ADD SWAP1 PUSH1 0x20 ADD DUP1 DUP4 GT PUSH2 0xA03 JUMPI DUP3 SWAP1 SUB PUSH1 0x1F AND DUP3 ADD SWAP2 JUMPDEST POP POP POP POP POP DUP2 MSTORE POP POP SWAP1 POP SWAP2 SWAP1 POP JUMP JUMPDEST PUSH0 PUSH1 0x1 DUP1 SLOAD SWAP1 POP SWAP1 POP SWAP1 JUMP JUMPDEST PUSH2 0xA44 PUSH2 0x16AB JUMP JUMPDEST PUSH2 0xA4C PUSH2 0x16AB JUMP JUMPDEST PUSH0 JUMPDEST PUSH1 0x1 DUP1 SLOAD SWAP1 POP DUP2 LT ISZERO PUSH2 0xB66 JUMPI DUP4 PUSH1 0x1 DUP3 DUP2 SLOAD DUP2 LT PUSH2 0xA70 JUMPI PUSH2 0xA6F PUSH2 0x1E05 JUMP JUMPDEST JUMPDEST SWAP1 PUSH0 MSTORE PUSH1 0x20 PUSH0 KECCAK256 SWAP1 PUSH1 0x3 MUL ADD PUSH0 ADD SLOAD SUB PUSH2 0xB59 JUMPI PUSH1 0x1 DUP2 DUP2 SLOAD DUP2 LT PUSH2 0xA98 JUMPI PUSH2 0xA97 PUSH2 0x1E05 JUMP JUMPDEST JUMPDEST SWAP1 PUSH0 MSTORE PUSH1 0x20 PUSH0 KECCAK256 SWAP1 PUSH1 0x3 MUL ADD PUSH1 0x40 MLOAD DUP1 PUSH1 0x60 ADD PUSH1 0x40 MSTORE SWAP1 DUP2 PUSH0 DUP3 ADD SLOAD DUP2 MSTORE PUSH1 0x20 ADD PUSH1 0x1 DUP3 ADD SLOAD DUP2 MSTORE PUSH1 0x20 ADD PUSH1 0x2 DUP3 ADD DUP1 SLOAD PUSH2 0xAD2 SWAP1 PUSH2 0x1D42 JUMP JUMPDEST DUP1 PUSH1 0x1F ADD PUSH1 0x20 DUP1 SWAP2 DIV MUL PUSH1 0x20 ADD PUSH1 0x40 MLOAD SWAP1 DUP2 ADD PUSH1 0x40 MSTORE DUP1 SWAP3 SWAP2 SWAP1 DUP2 DUP2 MSTORE PUSH1 0x20 ADD DUP3 DUP1 SLOAD PUSH2 0xAFE SWAP1 PUSH2 0x1D42 JUMP JUMPDEST DUP1 ISZERO PUSH2 0xB49 JUMPI DUP1 PUSH1 0x1F LT PUSH2 0xB20 JUMPI PUSH2 0x100 DUP1 DUP4 SLOAD DIV MUL DUP4 MSTORE SWAP2 PUSH1 0x20 ADD SWAP2 PUSH2 0xB49 JUMP JUMPDEST DUP3 ADD SWAP2 SWAP1 PUSH0 MSTORE PUSH1 0x20 PUSH0 KECCAK256 SWAP1 JUMPDEST DUP2 SLOAD DUP2 MSTORE SWAP1 PUSH1 0x1 ADD SWAP1 PUSH1 0x20 ADD DUP1 DUP4 GT PUSH2 0xB2C JUMPI DUP3 SWAP1 SUB PUSH1 0x1F AND DUP3 ADD SWAP2 JUMPDEST POP POP POP POP POP DUP2 MSTORE POP POP SWAP2 POP PUSH2 0xB66 JUMP JUMPDEST DUP1 DUP1 PUSH1 0x1 ADD SWAP2 POP POP PUSH2 0xA4E JUMP JUMPDEST POP DUP1 SWAP2 POP POP SWAP2 SWAP1 POP JUMP JUMPDEST PUSH0 DUP1 PUSH0 JUMPDEST PUSH1 0x1 DUP1 SLOAD SWAP1 POP DUP2 LT ISZERO PUSH2 0xBBF JUMPI PUSH1 0x1 DUP2 DUP2 SLOAD DUP2 LT PUSH2 0xB95 JUMPI PUSH2 0xB94 PUSH2 0x1E05 JUMP JUMPDEST JUMPDEST SWAP1 PUSH0 MSTORE PUSH1 0x20 PUSH0 KECCAK256 SWAP1 PUSH1 0x3 MUL ADD PUSH1 0x1 ADD SLOAD DUP3 PUSH2 0xBB0 SWAP2 SWAP1 PUSH2 0x1DD2 JUMP JUMPDEST SWAP2 POP DUP1 DUP1 PUSH1 0x1 ADD SWAP2 POP POP PUSH2 0xB74 JUMP JUMPDEST POP PUSH1 0x1 DUP1 SLOAD SWAP1 POP DUP2 PUSH2 0xBD1 SWAP2 SWAP1 PUSH2 0x2112 JUMP JUMPDEST SWAP2 POP POP SWAP1 JUMP JUMPDEST PUSH1 0x40 MLOAD DUP1 PUSH1 0x60 ADD PUSH1 0x40 MSTORE DUP1 PUSH1 0x1 DUP2 MSTORE PUSH1 0x20 ADD PUSH1 0x55 DUP2 MSTORE PUSH1 0x20 ADD PUSH2 0xBFA PUSH1 0x55 PUSH2 0x14C1 JUMP JUMPDEST DUP2 MSTORE POP PUSH0 PUSH1 0x40 MLOAD PUSH2 0xC0A SWAP1 PUSH2 0x218C JUMP JUMPDEST SWAP1 DUP2 MSTORE PUSH1 0x20 ADD PUSH1 0x40 MLOAD DUP1 SWAP2 SUB SWAP1 KECCAK256 PUSH0 DUP3 ADD MLOAD DUP2 PUSH0 ADD SSTORE PUSH1 0x20 DUP3 ADD MLOAD DUP2 PUSH1 0x1 ADD SSTORE PUSH1 0x40 DUP3 ADD MLOAD DUP2 PUSH1 0x2 ADD SWAP1 DUP2 PUSH2 0xC3F SWAP2 SWAP1 PUSH2 0x2016 JUMP JUMPDEST POP SWAP1 POP POP PUSH1 0x40 MLOAD DUP1 PUSH1 0x60 ADD PUSH1 0x40 MSTORE DUP1 PUSH1 0x2 DUP2 MSTORE PUSH1 0x20 ADD PUSH1 0x4B DUP2 MSTORE PUSH1 0x20 ADD PUSH2 0xC66 PUSH1 0x4B PUSH2 0x14C1 JUMP JUMPDEST DUP2 MSTORE POP PUSH0 PUSH1 0x40 MLOAD PUSH2 0xC76 SWAP1 PUSH2 0x21EA JUMP JUMPDEST SWAP1 DUP2 MSTORE PUSH1 0x20 ADD PUSH1 0x40 MLOAD DUP1 SWAP2 SUB SWAP1 KECCAK256 PUSH0 DUP3 ADD MLOAD DUP2 PUSH0 ADD SSTORE PUSH1 0x20 DUP3 ADD MLOAD DUP2 PUSH1 0x1 ADD SSTORE PUSH1 0x40 DUP3 ADD MLOAD DUP2 PUSH1 0x2 ADD SWAP1 DUP2 PUSH2 0xCAB SWAP2 SWAP1 PUSH2 0x2016 JUMP JUMPDEST POP SWAP1 POP POP PUSH1 0x40 MLOAD DUP1 PUSH1 0x60 ADD PUSH1 0x40 MSTORE DUP1 PUSH1 0x3 DUP2 MSTORE PUSH1 0x20 ADD PUSH1 0x3C DUP2 MSTORE PUSH1 0x20 ADD PUSH2 0xCD2 PUSH1 0x3C PUSH2 0x14C1 JUMP JUMPDEST DUP2 MSTORE POP PUSH0 PUSH1 0x40 MLOAD PUSH2 0xCE2 SWAP1 PUSH2 0x2248 JUMP JUMPDEST SWAP1 DUP2 MSTORE PUSH1 0x20 ADD PUSH1 0x40 MLOAD DUP1 SWAP2 SUB SWAP1 KECCAK256 PUSH0 DUP3 ADD MLOAD DUP2 PUSH0 ADD SSTORE PUSH1 0x20 DUP3 ADD MLOAD DUP2 PUSH1 0x1 ADD SSTORE PUSH1 0x40 DUP3 ADD MLOAD DUP2 PUSH1 0x2 ADD SWAP1 DUP2 PUSH2 0xD17 SWAP2 SWAP1 PUSH2 0x2016 JUMP JUMPDEST POP SWAP1 POP POP PUSH1 0x40 MLOAD DUP1 PUSH1 0x60 ADD PUSH1 0x40 MSTORE DUP1 PUSH1 0x4 DUP2 MSTORE PUSH1 0x20 ADD PUSH1 0x5A DUP2 MSTORE PUSH1 0x20 ADD PUSH2 0xD3E PUSH1 0x5A PUSH2 0x14C1 JUMP JUMPDEST DUP2 MSTORE POP PUSH0 PUSH1 0x40 MLOAD PUSH2 0xD4E SWAP1 PUSH2 0x22A6 JUMP JUMPDEST SWAP1 DUP2 MSTORE PUSH1 0x20 ADD PUSH1 0x40 MLOAD DUP1 SWAP2 SUB SWAP1 KECCAK256 PUSH0 DUP3 ADD MLOAD DUP2 PUSH0 ADD SSTORE PUSH1 0x20 DUP3 ADD MLOAD DUP2 PUSH1 0x1 ADD SSTORE PUSH1 0x40 DUP3 ADD MLOAD DUP2 PUSH1 0x2 ADD SWAP1 DUP2 PUSH2 0xD83 SWAP2 SWAP1 PUSH2 0x2016 JUMP JUMPDEST POP SWAP1 POP POP PUSH1 0x40 MLOAD DUP1 PUSH1 0x60 ADD PUSH1 0x40 MSTORE DUP1 PUSH1 0x5 DUP2 MSTORE PUSH1 0x20 ADD PUSH1 0x41 DUP2 MSTORE PUSH1 0x20 ADD PUSH2 0xDAA PUSH1 0x41 PUSH2 0x14C1 JUMP JUMPDEST DUP2 MSTORE POP PUSH0 PUSH1 0x40 MLOAD PUSH2 0xDBA SWAP1 PUSH2 0x2304 JUMP JUMPDEST SWAP1 DUP2 MSTORE PUSH1 0x20 ADD PUSH1 0x40 MLOAD DUP1 SWAP2 SUB SWAP1 KECCAK256 PUSH0 DUP3 ADD MLOAD DUP2 PUSH0 ADD SSTORE PUSH1 0x20 DUP3 ADD MLOAD DUP2 PUSH1 0x1 ADD SSTORE PUSH1 0x40 DUP3 ADD MLOAD DUP2 PUSH1 0x2 ADD SWAP1 DUP2 PUSH2 0xDEF SWAP2 SWAP1 PUSH2 0x2016 JUMP JUMPDEST POP SWAP1 POP POP PUSH1 0x40 MLOAD DUP1 PUSH1 0x60 ADD PUSH1 0x40 MSTORE DUP1 PUSH1 0x6 DUP2 MSTORE PUSH1 0x20 ADD PUSH1 0x32 DUP2 MSTORE PUSH1 0x20 ADD PUSH2 0xE16 PUSH1 0x32 PUSH2 0x14C1 JUMP JUMPDEST DUP2 MSTORE POP PUSH0 PUSH1 0x40 MLOAD PUSH2 0xE26 SWAP1 PUSH2 0x2362 JUMP JUMPDEST SWAP1 DUP2 MSTORE PUSH1 0x20 ADD PUSH1 0x40 MLOAD DUP1 SWAP2 SUB SWAP1 KECCAK256 PUSH0 DUP3 ADD MLOAD DUP2 PUSH0 ADD SSTORE PUSH1 0x20 DUP3 ADD MLOAD DUP2 PUSH1 0x1 ADD SSTORE PUSH1 0x40 DUP3 ADD MLOAD DUP2 PUSH1 0x2 ADD SWAP1 DUP2 PUSH2 0xE5B SWAP2 SWAP1 PUSH2 0x2016 JUMP JUMPDEST POP SWAP1 POP POP PUSH1 0x40 MLOAD DUP1 PUSH1 0x60 ADD PUSH1 0x40 MSTORE DUP1 PUSH1 0x7 DUP2 MSTORE PUSH1 0x20 ADD PUSH1 0x50 DUP2 MSTORE PUSH1 0x20 ADD PUSH2 0xE82 PUSH1 0x50 PUSH2 0x14C1 JUMP JUMPDEST DUP2 MSTORE POP PUSH0 PUSH1 0x40 MLOAD PUSH2 0xE92 SWAP1 PUSH2 0x23C0 JUMP JUMPDEST SWAP1 DUP2 MSTORE PUSH1 0x20 ADD PUSH1 0x40 MLOAD DUP1 SWAP2 SUB SWAP1 KECCAK256 PUSH0 DUP3 ADD MLOAD DUP2 PUSH0 ADD SSTORE PUSH1 0x20 DUP3 ADD MLOAD DUP2 PUSH1 0x1 ADD SSTORE PUSH1 0x40 DUP3 ADD MLOAD DUP2 PUSH1 0x2 ADD SWAP1 DUP2 PUSH2 0xEC7 SWAP2 SWAP1 PUSH2 0x2016 JUMP JUMPDEST POP SWAP1 POP POP PUSH1 0x40 MLOAD DUP1 PUSH1 0x60 ADD PUSH1 0x40 MSTORE DUP1 PUSH1 0x8 DUP2 MSTORE PUSH1 0x20 ADD PUSH1 0x5A DUP2 MSTORE PUSH1 0x20 ADD PUSH2 0xEEE PUSH1 0x5A PUSH2 0x14C1 JUMP JUMPDEST DUP2 MSTORE POP PUSH0 PUSH1 0x40 MLOAD PUSH2 0xEFE SWAP1 PUSH2 0x241E JUMP JUMPDEST SWAP1 DUP2 MSTORE PUSH1 0x20 ADD PUSH1 0x40 MLOAD DUP1 SWAP2 SUB SWAP1 KECCAK256 PUSH0 DUP3 ADD MLOAD DUP2 PUSH0 ADD SSTORE PUSH1 0x20 DUP3 ADD MLOAD DUP2 PUSH1 0x1 ADD SSTORE PUSH1 0x40 DUP3 ADD MLOAD DUP2 PUSH1 0x2 ADD SWAP1 DUP2 PUSH2 0xF33 SWAP2 SWAP1 PUSH2 0x2016 JUMP JUMPDEST POP SWAP1 POP POP PUSH1 0x40 MLOAD DUP1 PUSH1 0x60 ADD PUSH1 0x40 MSTORE DUP1 PUSH1 0x9 DUP2 MSTORE PUSH1 0x20 ADD PUSH1 0x64 DUP2 MSTORE PUSH1 0x20 ADD PUSH2 0xF5A PUSH1 0x64 PUSH2 0x14C1 JUMP JUMPDEST DUP2 MSTORE POP PUSH0 PUSH1 0x40 MLOAD PUSH2 0xF6A SWAP1 PUSH2 0x247C JUMP JUMPDEST SWAP1 DUP2 MSTORE PUSH1 0x20 ADD PUSH1 0x40 MLOAD DUP1 SWAP2 SUB SWAP1 KECCAK256 PUSH0 DUP3 ADD MLOAD DUP2 PUSH0 ADD SSTORE PUSH1 0x20 DUP3 ADD MLOAD DUP2 PUSH1 0x1 ADD SSTORE PUSH1 0x40 DUP3 ADD MLOAD DUP2 PUSH1 0x2 ADD SWAP1 DUP2 PUSH2 0xF9F SWAP2 SWAP1 PUSH2 0x2016 JUMP JUMPDEST POP SWAP1 POP POP PUSH1 0x40 MLOAD DUP1 PUSH1 0x60 ADD PUSH1 0x40 MSTORE DUP1 PUSH1 0xA DUP2 MSTORE PUSH1 0x20 ADD PUSH1 0x46 DUP2 MSTORE PUSH1 0x20 ADD PUSH2 0xFC6 PUSH1 0x46 PUSH2 0x14C1 JUMP JUMPDEST DUP2 MSTORE POP PUSH0 PUSH1 0x40 MLOAD PUSH2 0xFD6 SWAP1 PUSH2 0x24DA JUMP JUMPDEST SWAP1 DUP2 MSTORE PUSH1 0x20 ADD PUSH1 0x40 MLOAD DUP1 SWAP2 SUB SWAP1 KECCAK256 PUSH0 DUP3 ADD MLOAD DUP2 PUSH0 ADD SSTORE PUSH1 0x20 DUP3 ADD MLOAD DUP2 PUSH1 0x1 ADD SSTORE PUSH1 0x40 DUP3 ADD MLOAD DUP2 PUSH1 0x2 ADD SWAP1 DUP2 PUSH2 0x100B SWAP2 SWAP1 PUSH2 0x2016 JUMP JUMPDEST POP SWAP1 POP POP PUSH1 0x1 PUSH1 0x40 MLOAD DUP1 PUSH1 0x60 ADD PUSH1 0x40 MSTORE DUP1 PUSH1 0x1 DUP2 MSTORE PUSH1 0x20 ADD PUSH1 0x55 DUP2 MSTORE PUSH1 0x20 ADD PUSH2 0x1034 PUSH1 0x55 PUSH2 0x14C1 JUMP JUMPDEST DUP2 MSTORE POP SWAP1 DUP1 PUSH1 0x1 DUP2 SLOAD ADD DUP1 DUP3 SSTORE DUP1 SWAP2 POP POP PUSH1 0x1 SWAP1 SUB SWAP1 PUSH0 MSTORE PUSH1 0x20 PUSH0 KECCAK256 SWAP1 PUSH1 0x3 MUL ADD PUSH0 SWAP1 SWAP2 SWAP1 SWAP2 SWAP1 SWAP2 POP PUSH0 DUP3 ADD MLOAD DUP2 PUSH0 ADD SSTORE PUSH1 0x20 DUP3 ADD MLOAD DUP2 PUSH1 0x1 ADD SSTORE PUSH1 0x40 DUP3 ADD MLOAD DUP2 PUSH1 0x2 ADD SWAP1 DUP2 PUSH2 0x1084 SWAP2 SWAP1 PUSH2 0x2016 JUMP JUMPDEST POP POP POP PUSH1 0x1 PUSH1 0x40 MLOAD DUP1 PUSH1 0x60 ADD PUSH1 0x40 MSTORE DUP1 PUSH1 0x2 DUP2 MSTORE PUSH1 0x20 ADD PUSH1 0x4B DUP2 MSTORE PUSH1 0x20 ADD PUSH2 0x10AC PUSH1 0x4B PUSH2 0x14C1 JUMP JUMPDEST DUP2 MSTORE POP SWAP1 DUP1 PUSH1 0x1 DUP2 SLOAD ADD DUP1 DUP3 SSTORE DUP1 SWAP2 POP POP PUSH1 0x1 SWAP1 SUB SWAP1 PUSH0 MSTORE PUSH1 0x20 PUSH0 KECCAK256 SWAP1 PUSH1 0x3 MUL ADD PUSH0 SWAP1 SWAP2 SWAP1 SWAP2 SWAP1 SWAP2 POP PUSH0 DUP3 ADD MLOAD DUP2 PUSH0 ADD SSTORE PUSH1 0x20 DUP3 ADD MLOAD DUP2 PUSH1 0x1 ADD SSTORE PUSH1 0x40 DUP3 ADD MLOAD DUP2 PUSH1 0x2 ADD SWAP1 DUP2 PUSH2 0x10FC SWAP2 SWAP1 PUSH2 0x2016 JUMP JUMPDEST POP POP POP PUSH1 0x1 PUSH1 0x40 MLOAD DUP1 PUSH1 0x60 ADD PUSH1 0x40 MSTORE DUP1 PUSH1 0x3 DUP2 MSTORE PUSH1 0x20 ADD PUSH1 0x3C DUP2 MSTORE PUSH1 0x20 ADD PUSH2 0x1124 PUSH1 0x3C PUSH2 0x14C1 JUMP JUMPDEST DUP2 MSTORE POP SWAP1 DUP1 PUSH1 0x1 DUP2 SLOAD ADD DUP1 DUP3 SSTORE DUP1 SWAP2 POP POP PUSH1 0x1 SWAP1 SUB SWAP1 PUSH0 MSTORE PUSH1 0x20 PUSH0 KECCAK256 SWAP1 PUSH1 0x3 MUL ADD PUSH0 SWAP1 SWAP2 SWAP1 SWAP2 SWAP1 SWAP2 POP PUSH0 DUP3 ADD MLOAD DUP2 PUSH0 ADD SSTORE PUSH1 0x20 DUP3 ADD MLOAD DUP2 PUSH1 0x1 ADD SSTORE PUSH1 0x40 DUP3 ADD MLOAD DUP2 PUSH1 0x2 ADD SWAP1 DUP2 PUSH2 0x1174 SWAP2 SWAP1 PUSH2 0x2016 JUMP JUMPDEST POP POP POP PUSH1 0x1 PUSH1 0x40 MLOAD DUP1 PUSH1 0x60 ADD PUSH1 0x40 MSTORE DUP1 PUSH1 0x4 DUP2 MSTORE PUSH1 0x20 ADD PUSH1 0x5A DUP2 MSTORE PUSH1 0x20 ADD PUSH2 0x119C PUSH1 0x5A PUSH2 0x14C1 JUMP JUMPDEST DUP2 MSTORE POP SWAP1 DUP1 PUSH1 0x1 DUP2 SLOAD ADD DUP1 DUP3 SSTORE DUP1 SWAP2 POP POP PUSH1 0x1 SWAP1 SUB SWAP1 PUSH0 MSTORE PUSH1 0x20 PUSH0 KECCAK256 SWAP1 PUSH1 0x3 MUL ADD PUSH0 SWAP1 SWAP2 SWAP1 SWAP2 SWAP1 SWAP2 POP PUSH0 DUP3 ADD MLOAD DUP2 PUSH0 ADD SSTORE PUSH1 0x20 DUP3 ADD MLOAD DUP2 PUSH1 0x1 ADD SSTORE PUSH1 0x40 DUP3 ADD MLOAD DUP2 PUSH1 0x2 ADD SWAP1 DUP2 PUSH2 0x11EC SWAP2 SWAP1 PUSH2 0x2016 JUMP JUMPDEST POP POP POP PUSH1 0x1 PUSH1 0x40 MLOAD DUP1 PUSH1 0x60 ADD PUSH1 0x40 MSTORE DUP1 PUSH1 0x5 DUP2 MSTORE PUSH1 0x20 ADD PUSH1 0x41 DUP2 MSTORE PUSH1 0x20 ADD PUSH2 0x1214 PUSH1 0x41 PUSH2 0x14C1 JUMP JUMPDEST DUP2 MSTORE POP SWAP1 DUP1 PUSH1 0x1 DUP2 SLOAD ADD DUP1 DUP3 SSTORE DUP1 SWAP2 POP POP PUSH1 0x1 SWAP1 SUB SWAP1 PUSH0 MSTORE PUSH1 0x20 PUSH0 KECCAK256 SWAP1 PUSH1 0x3 MUL ADD PUSH0 SWAP1 SWAP2 SWAP1 SWAP2 SWAP1 SWAP2 POP PUSH0 DUP3 ADD MLOAD DUP2 PUSH0 ADD SSTORE PUSH1 0x20 DUP3 ADD MLOAD DUP2 PUSH1 0x1 ADD SSTORE PUSH1 0x40 DUP3 ADD MLOAD DUP2 PUSH1 0x2 ADD SWAP1 DUP2 PUSH2 0x1264 SWAP2 SWAP1 PUSH2 0x2016 JUMP JUMPDEST POP POP POP PUSH1 0x1 PUSH1 0x40 MLOAD DUP1 PUSH1 0x60 ADD PUSH1 0x40 MSTORE DUP1 PUSH1 0x6 DUP2 MSTORE PUSH1 0x20 ADD PUSH1 0x32 DUP2 MSTORE PUSH1 0x20 ADD PUSH2 0x128C PUSH1 0x32 PUSH2 0x14C1 JUMP JUMPDEST DUP2 MSTORE POP SWAP1 DUP1 PUSH1 0x1 DUP2 SLOAD ADD DUP1 DUP3 SSTORE DUP1 SWAP2 POP POP PUSH1 0x1 SWAP1 SUB SWAP1 PUSH0 MSTORE PUSH1 0x20 PUSH0 KECCAK256 SWAP1 PUSH1 0x3 MUL ADD PUSH0 SWAP1 SWAP2 SWAP1 SWAP2 SWAP1 SWAP2 POP PUSH0 DUP3 ADD MLOAD DUP2 PUSH0 ADD SSTORE PUSH1 0x20 DUP3 ADD MLOAD DUP2 PUSH1 0x1 ADD SSTORE PUSH1 0x40 DUP3 ADD MLOAD DUP2 PUSH1 0x2 ADD SWAP1 DUP2 PUSH2 0x12DC SWAP2 SWAP1 PUSH2 0x2016 JUMP JUMPDEST POP POP POP PUSH1 0x1 PUSH1 0x40 MLOAD DUP1 PUSH1 0x60 ADD PUSH1 0x40 MSTORE DUP1 PUSH1 0x7 DUP2 MSTORE PUSH1 0x20 ADD PUSH1 0x50 DUP2 MSTORE PUSH1 0x20 ADD PUSH2 0x1304 PUSH1 0x50 PUSH2 0x14C1 JUMP JUMPDEST DUP2 MSTORE POP SWAP1 DUP1 PUSH1 0x1 DUP2 SLOAD ADD DUP1 DUP3 SSTORE DUP1 SWAP2 POP POP PUSH1 0x1 SWAP1 SUB SWAP1 PUSH0 MSTORE PUSH1 0x20 PUSH0 KECCAK256 SWAP1 PUSH1 0x3 MUL ADD PUSH0 SWAP1 SWAP2 SWAP1 SWAP2 SWAP1 SWAP2 POP PUSH0 DUP3 ADD MLOAD DUP2 PUSH0 ADD SSTORE PUSH1 0x20 DUP3 ADD MLOAD DUP2 PUSH1 0x1 ADD SSTORE PUSH1 0x40 DUP3 ADD MLOAD DUP2 PUSH1 0x2 ADD SWAP1 DUP2 PUSH2 0x1354 SWAP2 SWAP1 PUSH2 0x2016 JUMP JUMPDEST POP POP POP PUSH1 0x1 PUSH1 0x40 MLOAD DUP1 PUSH1 0x60 ADD PUSH1 0x40 MSTORE DUP1 PUSH1 0x8 DUP2 MSTORE PUSH1 0x20 ADD PUSH1 0x5A DUP2 MSTORE PUSH1 0x20 ADD PUSH2 0x137C PUSH1 0x5A PUSH2 0x14C1 JUMP JUMPDEST DUP2 MSTORE POP SWAP1 DUP1 PUSH1 0x1 DUP2 SLOAD ADD DUP1 DUP3 SSTORE DUP1 SWAP2 POP POP PUSH1 0x1 SWAP1 SUB SWAP1 PUSH0 MSTORE PUSH1 0x20 PUSH0 KECCAK256 SWAP1 PUSH1 0x3 MUL ADD PUSH0 SWAP1 SWAP2 SWAP1 SWAP2 SWAP1 SWAP2 POP PUSH0 DUP3 ADD MLOAD DUP2 PUSH0 ADD SSTORE PUSH1 0x20 DUP3 ADD MLOAD DUP2 PUSH1 0x1 ADD SSTORE PUSH1 0x40 DUP3 ADD MLOAD DUP2 PUSH1 0x2 ADD SWAP1 DUP2 PUSH2 0x13CC SWAP2 SWAP1 PUSH2 0x2016 JUMP JUMPDEST POP POP POP PUSH1 0x1 PUSH1 0x40 MLOAD DUP1 PUSH1 0x60 ADD PUSH1 0x40 MSTORE DUP1 PUSH1 0x9 DUP2 MSTORE PUSH1 0x20 ADD PUSH1 0x64 DUP2 MSTORE PUSH1 0x20 ADD PUSH2 0x13F4 PUSH1 0x64 PUSH2 0x14C1 JUMP JUMPDEST DUP2 MSTORE POP SWAP1 DUP1 PUSH1 0x1 DUP2 SLOAD ADD DUP1 DUP3 SSTORE DUP1 SWAP2 POP POP PUSH1 0x1 SWAP1 SUB SWAP1 PUSH0 MSTORE PUSH1 0x20 PUSH0 KECCAK256 SWAP1 PUSH1 0x3 MUL ADD PUSH0 SWAP1 SWAP2 SWAP1 SWAP2 SWAP1 SWAP2 POP PUSH0 DUP3 ADD MLOAD DUP2 PUSH0 ADD SSTORE PUSH1 0x20 DUP3 ADD MLOAD DUP2 PUSH1 0x1 ADD SSTORE PUSH1 0x40 DUP3 ADD MLOAD DUP2 PUSH1 0x2 ADD SWAP1 DUP2 PUSH2 0x1444 SWAP2 SWAP1 PUSH2 0x2016 JUMP JUMPDEST POP POP POP PUSH1 0x1 PUSH1 0x40 MLOAD DUP1 PUSH1 0x60 ADD PUSH1 0x40 MSTORE DUP1 PUSH1 0xA DUP2 MSTORE PUSH1 0x20 ADD PUSH1 0x46 DUP2 MSTORE PUSH1 0x20 ADD PUSH2 0x146C PUSH1 0x46 PUSH2 0x14C1 JUMP JUMPDEST DUP2 MSTORE POP SWAP1 DUP1 PUSH1 0x1 DUP2 SLOAD ADD DUP1 DUP3 SSTORE DUP1 SWAP2 POP POP PUSH1 0x1 SWAP1 SUB SWAP1 PUSH0 MSTORE PUSH1 0x20 PUSH0 KECCAK256 SWAP1 PUSH1 0x3 MUL ADD PUSH0 SWAP1 SWAP2 SWAP1 SWAP2 SWAP1 SWAP2 POP PUSH0 DUP3 ADD MLOAD DUP2 PUSH0 ADD SSTORE PUSH1 0x20 DUP3 ADD MLOAD DUP2 PUSH1 0x1 ADD SSTORE PUSH1 0x40 DUP3 ADD MLOAD DUP2 PUSH1 0x2 ADD SWAP1 DUP2 PUSH2 0x14BC SWAP2 SWAP1 PUSH2 0x2016 JUMP JUMPDEST POP POP POP JUMP JUMPDEST PUSH1 0x60 DUP1 PUSH1 0x5A DUP4 LT PUSH2 0x1509 JUMPI PUSH1 0x40 MLOAD DUP1 PUSH1 0x40 ADD PUSH1 0x40 MSTORE DUP1 PUSH1 0x1 DUP2 MSTORE PUSH1 0x20 ADD PUSH32 0x4100000000000000000000000000000000000000000000000000000000000000 DUP2 MSTORE POP SWAP1 POP PUSH2 0x1614 JUMP JUMPDEST PUSH1 0x50 DUP4 LT PUSH2 0x154E JUMPI PUSH1 0x40 MLOAD DUP1 PUSH1 0x40 ADD PUSH1 0x40 MSTORE DUP1 PUSH1 0x1 DUP2 MSTORE PUSH1 0x20 ADD PUSH32 0x4200000000000000000000000000000000000000000000000000000000000000 DUP2 MSTORE POP SWAP1 POP PUSH2 0x1613 JUMP JUMPDEST PUSH1 0x46 DUP4 LT PUSH2 0x1593 JUMPI PUSH1 0x40 MLOAD DUP1 PUSH1 0x40 ADD PUSH1 0x40 MSTORE DUP1 PUSH1 0x1 DUP2 MSTORE PUSH1 0x20 ADD PUSH32 0x4300000000000000000000000000000000000000000000000000000000000000 DUP2 MSTORE POP SWAP1 POP PUSH2 0x1612 JUMP JUMPDEST PUSH1 0x3C DUP4 LT PUSH2 0x15D8 JUMPI PUSH1 0x40 MLOAD DUP1 PUSH1 0x40 ADD PUSH1 0x40 MSTORE DUP1 PUSH1 0x1 DUP2 MSTORE PUSH1 0x20 ADD PUSH32 0x4400000000000000000000000000000000000000000000000000000000000000 DUP2 MSTORE POP SWAP1 POP PUSH2 0x1611 JUMP JUMPDEST PUSH1 0x40 MLOAD DUP1 PUSH1 0x40 ADD PUSH1 0x40 MSTORE DUP1 PUSH1 0x1 DUP2 MSTORE PUSH1 0x20 ADD PUSH32 0x4600000000000000000000000000000000000000000000000000000000000000 DUP2 MSTORE POP SWAP1 POP JUMPDEST JUMPDEST JUMPDEST JUMPDEST DUP1 SWAP2 POP POP SWAP2 SWAP1 POP JUMP JUMPDEST PUSH0 DUP1 PUSH0 JUMPDEST PUSH1 0x1 DUP1 SLOAD SWAP1 POP DUP2 LT ISZERO PUSH2 0x1676 JUMPI PUSH1 0x3C PUSH1 0x1 DUP3 DUP2 SLOAD DUP2 LT PUSH2 0x1644 JUMPI PUSH2 0x1643 PUSH2 0x1E05 JUMP JUMPDEST JUMPDEST SWAP1 PUSH0 MSTORE PUSH1 0x20 PUSH0 KECCAK256 SWAP1 PUSH1 0x3 MUL ADD PUSH1 0x1 ADD SLOAD LT ISZERO PUSH2 0x1669 JUMPI DUP2 DUP1 PUSH2 0x1665 SWAP1 PUSH2 0x1E32 JUMP JUMPDEST SWAP3 POP POP JUMPDEST DUP1 DUP1 PUSH1 0x1 ADD SWAP2 POP POP PUSH2 0x1621 JUMP JUMPDEST POP DUP1 SWAP2 POP POP SWAP1 JUMP JUMPDEST PUSH1 0x40 MLOAD DUP1 PUSH1 0x80 ADD PUSH1 0x40 MSTORE DUP1 PUSH1 0x4 SWAP1 JUMPDEST PUSH2 0x1695 PUSH2 0x16AB JUMP JUMPDEST DUP2 MSTORE PUSH1 0x20 ADD SWAP1 PUSH1 0x1 SWAP1 SUB SWAP1 DUP2 PUSH2 0x168D JUMPI SWAP1 POP POP SWAP1 JUMP JUMPDEST PUSH1 0x40 MLOAD DUP1 PUSH1 0x60 ADD PUSH1 0x40 MSTORE DUP1 PUSH0 DUP2 MSTORE PUSH1 0x20 ADD PUSH0 DUP2 MSTORE PUSH1 0x20 ADD PUSH1 0x60 DUP2 MSTORE POP SWAP1 JUMP JUMPDEST PUSH0 PUSH1 0x40 MLOAD SWAP1 POP SWAP1 JUMP JUMPDEST PUSH0 DUP1 REVERT JUMPDEST PUSH0 DUP1 REVERT JUMPDEST PUSH0 DUP1 REVERT JUMPDEST PUSH0 DUP1 REVERT JUMPDEST PUSH0 PUSH1 0x1F NOT PUSH1 0x1F DUP4 ADD AND SWAP1 POP SWAP2 SWAP1 POP JUMP JUMPDEST PUSH32 0x4E487B7100000000000000000000000000000000000000000000000000000000 PUSH0 MSTORE PUSH1 0x41 PUSH1 0x4 MSTORE PUSH1 0x24 PUSH0 REVERT JUMPDEST PUSH2 0x1729 DUP3 PUSH2 0x16E3 JUMP JUMPDEST DUP2 ADD DUP2 DUP2 LT PUSH8 0xFFFFFFFFFFFFFFFF DUP3 GT OR ISZERO PUSH2 0x1748 JUMPI PUSH2 0x1747 PUSH2 0x16F3 JUMP JUMPDEST JUMPDEST DUP1 PUSH1 0x40 MSTORE POP POP POP JUMP JUMPDEST PUSH0 PUSH2 0x175A PUSH2 0x16CA JUMP JUMPDEST SWAP1 POP PUSH2 0x1766 DUP3 DUP3 PUSH2 0x1720 JUMP JUMPDEST SWAP2 SWAP1 POP JUMP JUMPDEST PUSH0 PUSH8 0xFFFFFFFFFFFFFFFF DUP3 GT ISZERO PUSH2 0x1785 JUMPI PUSH2 0x1784 PUSH2 0x16F3 JUMP JUMPDEST JUMPDEST PUSH2 0x178E DUP3 PUSH2 0x16E3 JUMP JUMPDEST SWAP1 POP PUSH1 0x20 DUP2 ADD SWAP1 POP SWAP2 SWAP1 POP JUMP JUMPDEST DUP3 DUP2 DUP4 CALLDATACOPY PUSH0 DUP4 DUP4 ADD MSTORE POP POP POP JUMP JUMPDEST PUSH0 PUSH2 0x17BB PUSH2 0x17B6 DUP5 PUSH2 0x176B JUMP JUMPDEST PUSH2 0x1751 JUMP JUMPDEST SWAP1 POP DUP3 DUP2 MSTORE PUSH1 0x20 DUP2 ADD DUP5 DUP5 DUP5 ADD GT ISZERO PUSH2 0x17D7 JUMPI PUSH2 0x17D6 PUSH2 0x16DF JUMP JUMPDEST JUMPDEST PUSH2 0x17E2 DUP5 DUP3 DUP6 PUSH2 0x179B JUMP JUMPDEST POP SWAP4 SWAP3 POP POP POP JUMP JUMPDEST PUSH0 DUP3 PUSH1 0x1F DUP4 ADD SLT PUSH2 0x17FE JUMPI PUSH2 0x17FD PUSH2 0x16DB JUMP JUMPDEST JUMPDEST DUP2 CALLDATALOAD PUSH2 0x180E DUP5 DUP3 PUSH1 0x20 DUP7 ADD PUSH2 0x17A9 JUMP JUMPDEST SWAP2 POP POP SWAP3 SWAP2 POP POP JUMP JUMPDEST PUSH0 PUSH1 0x20 DUP3 DUP5 SUB SLT ISZERO PUSH2 0x182C JUMPI PUSH2 0x182B PUSH2 0x16D3 JUMP JUMPDEST JUMPDEST PUSH0 DUP3 ADD CALLDATALOAD PUSH8 0xFFFFFFFFFFFFFFFF DUP2 GT ISZERO PUSH2 0x1849 JUMPI PUSH2 0x1848 PUSH2 0x16D7 JUMP JUMPDEST JUMPDEST PUSH2 0x1855 DUP5 DUP3 DUP6 ADD PUSH2 0x17EA JUMP JUMPDEST SWAP2 POP POP SWAP3 SWAP2 POP POP JUMP JUMPDEST PUSH0 DUP2 SWAP1 POP SWAP2 SWAP1 POP JUMP JUMPDEST PUSH2 0x1870 DUP2 PUSH2 0x185E JUMP JUMPDEST DUP3 MSTORE POP POP JUMP JUMPDEST PUSH0 PUSH1 0x20 DUP3 ADD SWAP1 POP PUSH2 0x1889 PUSH0 DUP4 ADD DUP5 PUSH2 0x1867 JUMP JUMPDEST SWAP3 SWAP2 POP POP JUMP JUMPDEST PUSH0 DUP2 MLOAD SWAP1 POP SWAP2 SWAP1 POP JUMP JUMPDEST PUSH0 DUP3 DUP3 MSTORE PUSH1 0x20 DUP3 ADD SWAP1 POP SWAP3 SWAP2 POP POP JUMP JUMPDEST PUSH0 DUP2 SWAP1 POP PUSH1 0x20 DUP3 ADD SWAP1 POP SWAP2 SWAP1 POP JUMP JUMPDEST PUSH2 0x18C1 DUP2 PUSH2 0x185E JUMP JUMPDEST DUP3 MSTORE POP POP JUMP JUMPDEST PUSH0 DUP2 MLOAD SWAP1 POP SWAP2 SWAP1 POP JUMP JUMPDEST PUSH0 DUP3 DUP3 MSTORE PUSH1 0x20 DUP3 ADD SWAP1 POP SWAP3 SWAP2 POP POP JUMP JUMPDEST PUSH0 JUMPDEST DUP4 DUP2 LT ISZERO PUSH2 0x18FE JUMPI DUP1 DUP3 ADD MLOAD DUP2 DUP5 ADD MSTORE PUSH1 0x20 DUP2 ADD SWAP1 POP PUSH2 0x18E3 JUMP JUMPDEST PUSH0 DUP5 DUP5 ADD MSTORE POP POP POP POP JUMP JUMPDEST PUSH0 PUSH2 0x1913 DUP3 PUSH2 0x18C7 JUMP JUMPDEST PUSH2 0x191D DUP2 DUP6 PUSH2 0x18D1 JUMP JUMPDEST SWAP4 POP PUSH2 0x192D DUP2 DUP6 PUSH1 0x20 DUP7 ADD PUSH2 0x18E1 JUMP JUMPDEST PUSH2 0x1936 DUP2 PUSH2 0x16E3 JUMP JUMPDEST DUP5 ADD SWAP2 POP POP SWAP3 SWAP2 POP POP JUMP JUMPDEST PUSH0 PUSH1 0x60 DUP4 ADD PUSH0 DUP4 ADD MLOAD PUSH2 0x1956 PUSH0 DUP7 ADD DUP3 PUSH2 0x18B8 JUMP JUMPDEST POP PUSH1 0x20 DUP4 ADD MLOAD PUSH2 0x1969 PUSH1 0x20 DUP7 ADD DUP3 PUSH2 0x18B8 JUMP JUMPDEST POP PUSH1 0x40 DUP4 ADD MLOAD DUP5 DUP3 SUB PUSH1 0x40 DUP7 ADD MSTORE PUSH2 0x1981 DUP3 DUP3 PUSH2 0x1909 JUMP JUMPDEST SWAP2 POP POP DUP1 SWAP2 POP POP SWAP3 SWAP2 POP POP JUMP JUMPDEST PUSH0 PUSH2 0x1999 DUP4 DUP4 PUSH2 0x1941 JUMP JUMPDEST SWAP1 POP SWAP3 SWAP2 POP POP JUMP JUMPDEST PUSH0 PUSH1 0x20 DUP3 ADD SWAP1 POP SWAP2 SWAP1 POP JUMP JUMPDEST PUSH0 PUSH2 0x19B7 DUP3 PUSH2 0x188F JUMP JUMPDEST PUSH2 0x19C1 DUP2 DUP6 PUSH2 0x1899 JUMP JUMPDEST SWAP4 POP DUP4 PUSH1 0x20 DUP3 MUL DUP6 ADD PUSH2 0x19D3 DUP6 PUSH2 0x18A9 JUMP JUMPDEST DUP1 PUSH0 JUMPDEST DUP6 DUP2 LT ISZERO PUSH2 0x1A0E JUMPI DUP5 DUP5 SUB DUP10 MSTORE DUP2 MLOAD PUSH2 0x19EF DUP6 DUP3 PUSH2 0x198E JUMP JUMPDEST SWAP5 POP PUSH2 0x19FA DUP4 PUSH2 0x19A1 JUMP JUMPDEST SWAP3 POP PUSH1 0x20 DUP11 ADD SWAP10 POP POP PUSH1 0x1 DUP2 ADD SWAP1 POP PUSH2 0x19D6 JUMP JUMPDEST POP DUP3 SWAP8 POP DUP8 SWAP6 POP POP POP POP POP POP SWAP3 SWAP2 POP POP JUMP JUMPDEST PUSH0 PUSH1 0x20 DUP3 ADD SWAP1 POP DUP2 DUP2 SUB PUSH0 DUP4 ADD MSTORE PUSH2 0x1A38 DUP2 DUP5 PUSH2 0x19AD JUMP JUMPDEST SWAP1 POP SWAP3 SWAP2 POP POP JUMP JUMPDEST PUSH0 DUP2 ISZERO ISZERO SWAP1 POP SWAP2 SWAP1 POP JUMP JUMPDEST PUSH2 0x1A54 DUP2 PUSH2 0x1A40 JUMP JUMPDEST DUP3 MSTORE POP POP JUMP JUMPDEST PUSH0 PUSH1 0x20 DUP3 ADD SWAP1 POP PUSH2 0x1A6D PUSH0 DUP4 ADD DUP5 PUSH2 0x1A4B JUMP JUMPDEST SWAP3 SWAP2 POP POP JUMP JUMPDEST PUSH0 PUSH1 0x4 SWAP1 POP SWAP2 SWAP1 POP JUMP JUMPDEST PUSH0 DUP2 SWAP1 POP SWAP3 SWAP2 POP POP JUMP JUMPDEST PUSH0 DUP2 SWAP1 POP SWAP2 SWAP1 POP JUMP JUMPDEST PUSH0 PUSH1 0x20 DUP3 ADD SWAP1 POP SWAP2 SWAP1 POP JUMP JUMPDEST PUSH0 PUSH2 0x1AA6 DUP3 PUSH2 0x1A73 JUMP JUMPDEST PUSH2 0x1AB0 DUP2 DUP6 PUSH2 0x1A7D JUMP JUMPDEST SWAP4 POP DUP4 PUSH1 0x20 DUP3 MUL DUP6 ADD PUSH2 0x1AC2 DUP6 PUSH2 0x1A87 JUMP JUMPDEST DUP1 PUSH0 JUMPDEST DUP6 DUP2 LT ISZERO PUSH2 0x1AFD JUMPI DUP5 DUP5 SUB DUP10 MSTORE DUP2 MLOAD PUSH2 0x1ADE DUP6 DUP3 PUSH2 0x198E JUMP JUMPDEST SWAP5 POP PUSH2 0x1AE9 DUP4 PUSH2 0x1A90 JUMP JUMPDEST SWAP3 POP PUSH1 0x20 DUP11 ADD SWAP10 POP POP PUSH1 0x1 DUP2 ADD SWAP1 POP PUSH2 0x1AC5 JUMP JUMPDEST POP DUP3 SWAP8 POP DUP8 SWAP6 POP POP POP POP POP POP SWAP3 SWAP2 POP POP JUMP JUMPDEST PUSH0 PUSH1 0x20 DUP3 ADD SWAP1 POP DUP2 DUP2 SUB PUSH0 DUP4 ADD MSTORE PUSH2 0x1B27 DUP2 DUP5 PUSH2 0x1A9C JUMP JUMPDEST SWAP1 POP SWAP3 SWAP2 POP POP JUMP JUMPDEST PUSH2 0x1B38 DUP2 PUSH2 0x185E JUMP JUMPDEST DUP2 EQ PUSH2 0x1B42 JUMPI PUSH0 DUP1 REVERT JUMPDEST POP JUMP JUMPDEST PUSH0 DUP2 CALLDATALOAD SWAP1 POP PUSH2 0x1B53 DUP2 PUSH2 0x1B2F JUMP JUMPDEST SWAP3 SWAP2 POP POP JUMP JUMPDEST PUSH0 DUP1 PUSH0 PUSH1 0x60 DUP5 DUP7 SUB SLT ISZERO PUSH2 0x1B70 JUMPI PUSH2 0x1B6F PUSH2 0x16D3 JUMP JUMPDEST JUMPDEST PUSH0 DUP5 ADD CALLDATALOAD PUSH8 0xFFFFFFFFFFFFFFFF DUP2 GT ISZERO PUSH2 0x1B8D JUMPI PUSH2 0x1B8C PUSH2 0x16D7 JUMP JUMPDEST JUMPDEST PUSH2 0x1B99 DUP7 DUP3 DUP8 ADD PUSH2 0x17EA JUMP JUMPDEST SWAP4 POP POP PUSH1 0x20 PUSH2 0x1BAA DUP7 DUP3 DUP8 ADD PUSH2 0x1B45 JUMP JUMPDEST SWAP3 POP POP PUSH1 0x40 PUSH2 0x1BBB DUP7 DUP3 DUP8 ADD PUSH2 0x1B45 JUMP JUMPDEST SWAP2 POP POP SWAP3 POP SWAP3 POP SWAP3 JUMP JUMPDEST PUSH0 PUSH1 0x60 DUP4 ADD PUSH0 DUP4 ADD MLOAD PUSH2 0x1BDA PUSH0 DUP7 ADD DUP3 PUSH2 0x18B8 JUMP JUMPDEST POP PUSH1 0x20 DUP4 ADD MLOAD PUSH2 0x1BED PUSH1 0x20 DUP7 ADD DUP3 PUSH2 0x18B8 JUMP JUMPDEST POP PUSH1 0x40 DUP4 ADD MLOAD DUP5 DUP3 SUB PUSH1 0x40 DUP7 ADD MSTORE PUSH2 0x1C05 DUP3 DUP3 PUSH2 0x1909 JUMP JUMPDEST SWAP2 POP POP DUP1 SWAP2 POP POP SWAP3 SWAP2 POP POP JUMP JUMPDEST PUSH0 PUSH1 0x20 DUP3 ADD SWAP1 POP DUP2 DUP2 SUB PUSH0 DUP4 ADD MSTORE PUSH2 0x1C2A DUP2 DUP5 PUSH2 0x1BC5 JUMP JUMPDEST SWAP1 POP SWAP3 SWAP2 POP POP JUMP JUMPDEST PUSH0 PUSH1 0x20 DUP3 DUP5 SUB SLT ISZERO PUSH2 0x1C47 JUMPI PUSH2 0x1C46 PUSH2 0x16D3 JUMP JUMPDEST JUMPDEST PUSH0 PUSH2 0x1C54 DUP5 DUP3 DUP6 ADD PUSH2 0x1B45 JUMP JUMPDEST SWAP2 POP POP SWAP3 SWAP2 POP POP JUMP JUMPDEST PUSH0 DUP3 DUP3 MSTORE PUSH1 0x20 DUP3 ADD SWAP1 POP SWAP3 SWAP2 POP POP JUMP JUMPDEST PUSH0 PUSH2 0x1C77 DUP3 PUSH2 0x18C7 JUMP JUMPDEST PUSH2 0x1C81 DUP2 DUP6 PUSH2 0x1C5D JUMP JUMPDEST SWAP4 POP PUSH2 0x1C91 DUP2 DUP6 PUSH1 0x20 DUP7 ADD PUSH2 0x18E1 JUMP JUMPDEST PUSH2 0x1C9A DUP2 PUSH2 0x16E3 JUMP JUMPDEST DUP5 ADD SWAP2 POP POP SWAP3 SWAP2 POP POP JUMP JUMPDEST PUSH0 PUSH1 0x20 DUP3 ADD SWAP1 POP DUP2 DUP2 SUB PUSH0 DUP4 ADD MSTORE PUSH2 0x1CBD DUP2 DUP5 PUSH2 0x1C6D JUMP JUMPDEST SWAP1 POP SWAP3 SWAP2 POP POP JUMP JUMPDEST PUSH0 DUP2 SWAP1 POP SWAP3 SWAP2 POP POP JUMP JUMPDEST PUSH0 PUSH2 0x1CD9 DUP3 PUSH2 0x18C7 JUMP JUMPDEST PUSH2 0x1CE3 DUP2 DUP6 PUSH2 0x1CC5 JUMP JUMPDEST SWAP4 POP PUSH2 0x1CF3 DUP2 DUP6 PUSH1 0x20 DUP7 ADD PUSH2 0x18E1 JUMP JUMPDEST DUP1 DUP5 ADD SWAP2 POP POP SWAP3 SWAP2 POP POP JUMP JUMPDEST PUSH0 PUSH2 0x1D0A DUP3 DUP5 PUSH2 0x1CCF JUMP JUMPDEST SWAP2 POP DUP2 SWAP1 POP SWAP3 SWAP2 POP POP JUMP JUMPDEST PUSH32 0x4E487B7100000000000000000000000000000000000000000000000000000000 PUSH0 MSTORE PUSH1 0x22 PUSH1 0x4 MSTORE PUSH1 0x24 PUSH0 REVERT JUMPDEST PUSH0 PUSH1 0x2 DUP3 DIV SWAP1 POP PUSH1 0x1 DUP3 AND DUP1 PUSH2 0x1D59 JUMPI PUSH1 0x7F DUP3 AND SWAP2 POP JUMPDEST PUSH1 0x20 DUP3 LT DUP2 SUB PUSH2 0x1D6C JUMPI PUSH2 0x1D6B PUSH2 0x1D15 JUMP JUMPDEST JUMPDEST POP SWAP2 SWAP1 POP JUMP JUMPDEST PUSH32 0x4E487B7100000000000000000000000000000000000000000000000000000000 PUSH0 MSTORE PUSH1 0x11 PUSH1 0x4 MSTORE PUSH1 0x24 PUSH0 REVERT JUMPDEST PUSH0 PUSH2 0x1DA9 DUP3 PUSH2 0x185E JUMP JUMPDEST SWAP2 POP PUSH2 0x1DB4 DUP4 PUSH2 0x185E JUMP JUMPDEST SWAP3 POP DUP3 DUP3 SUB SWAP1 POP DUP2 DUP2 GT ISZERO PUSH2 0x1DCC JUMPI PUSH2 0x1DCB PUSH2 0x1D72 JUMP JUMPDEST JUMPDEST SWAP3 SWAP2 POP POP JUMP JUMPDEST PUSH0 PUSH2 0x1DDC DUP3 PUSH2 0x185E JUMP JUMPDEST SWAP2 POP PUSH2 0x1DE7 DUP4 PUSH2 0x185E JUMP JUMPDEST SWAP3 POP DUP3 DUP3 ADD SWAP1 POP DUP1 DUP3 GT ISZERO PUSH2 0x1DFF JUMPI PUSH2 0x1DFE PUSH2 0x1D72 JUMP JUMPDEST JUMPDEST SWAP3 SWAP2 POP POP JUMP JUMPDEST PUSH32 0x4E487B7100000000000000000000000000000000000000000000000000000000 PUSH0 MSTORE PUSH1 0x32 PUSH1 0x4 MSTORE PUSH1 0x24 PUSH0 REVERT JUMPDEST PUSH0 PUSH2 0x1E3C DUP3 PUSH2 0x185E JUMP JUMPDEST SWAP2 POP PUSH32 0xFFFFFFFFFFFFFFFFFFFFFFFFFFFFFFFFFFFFFFFFFFFFFFFFFFFFFFFFFFFFFFFF DUP3 SUB PUSH2 0x1E6E JUMPI PUSH2 0x1E6D PUSH2 0x1D72 JUMP JUMPDEST JUMPDEST PUSH1 0x1 DUP3 ADD SWAP1 POP SWAP2 SWAP1 POP JUMP JUMPDEST PUSH0 DUP2 SWAP1 POP DUP2 PUSH0 MSTORE PUSH1 0x20 PUSH0 KECCAK256 SWAP1 POP SWAP2 SWAP1 POP JUMP JUMPDEST PUSH0 PUSH1 0x20 PUSH1 0x1F DUP4 ADD DIV SWAP1 POP SWAP2 SWAP1 POP JUMP JUMPDEST PUSH0 DUP3 DUP3 SHL SWAP1 POP SWAP3 SWAP2 POP POP JUMP JUMPDEST PUSH0 PUSH1 0x8 DUP4 MUL PUSH2 0x1ED5 PUSH32 0xFFFFFFFFFFFFFFFFFFFFFFFFFFFFFFFFFFFFFFFFFFFFFFFFFFFFFFFFFFFFFFFF DUP3 PUSH2 0x1E9A JUMP JUMPDEST PUSH2 0x1EDF DUP7 DUP4 PUSH2 0x1E9A JUMP JUMPDEST SWAP6 POP DUP1 NOT DUP5 AND SWAP4 POP DUP1 DUP7 AND DUP5 OR SWAP3 POP POP POP SWAP4 SWAP3 POP POP POP JUMP JUMPDEST PUSH0 DUP2 SWAP1 POP SWAP2 SWAP1 POP JUMP JUMPDEST PUSH0 PUSH2 0x1F1A PUSH2 0x1F15 PUSH2 0x1F10 DUP5 PUSH2 0x185E JUMP JUMPDEST PUSH2 0x1EF7 JUMP JUMPDEST PUSH2 0x185E JUMP JUMPDEST SWAP1 POP SWAP2 SWAP1 POP JUMP JUMPDEST PUSH0 DUP2 SWAP1 POP SWAP2 SWAP1 POP JUMP JUMPDEST PUSH2 0x1F33 DUP4 PUSH2 0x1F00 JUMP JUMPDEST PUSH2 0x1F47 PUSH2 0x1F3F DUP3 PUSH2 0x1F21 JUMP JUMPDEST DUP5 DUP5 SLOAD PUSH2 0x1EA6 JUMP JUMPDEST DUP3 SSTORE POP POP POP POP JUMP JUMPDEST PUSH0 SWAP1 JUMP JUMPDEST PUSH2 0x1F5B PUSH2 0x1F4F JUMP JUMPDEST PUSH2 0x1F66 DUP2 DUP5 DUP5 PUSH2 0x1F2A JUMP JUMPDEST POP POP POP JUMP JUMPDEST JUMPDEST DUP2 DUP2 LT ISZERO PUSH2 0x1F89 JUMPI PUSH2 0x1F7E PUSH0 DUP3 PUSH2 0x1F53 JUMP JUMPDEST PUSH1 0x1 DUP2 ADD SWAP1 POP PUSH2 0x1F6C JUMP JUMPDEST POP POP JUMP JUMPDEST PUSH1 0x1F DUP3 GT ISZERO PUSH2 0x1FCE JUMPI PUSH2 0x1F9F DUP2 PUSH2 0x1E79 JUMP JUMPDEST PUSH2 0x1FA8 DUP5 PUSH2 0x1E8B JUMP JUMPDEST DUP2 ADD PUSH1 0x20 DUP6 LT ISZERO PUSH2 0x1FB7 JUMPI DUP2 SWAP1 POP JUMPDEST PUSH2 0x1FCB PUSH2 0x1FC3 DUP6 PUSH2 0x1E8B JUMP JUMPDEST DUP4 ADD DUP3 PUSH2 0x1F6B JUMP JUMPDEST POP POP JUMPDEST POP POP POP JUMP JUMPDEST PUSH0 DUP3 DUP3 SHR SWAP1 POP SWAP3 SWAP2 POP POP JUMP JUMPDEST PUSH0 PUSH2 0x1FEE PUSH0 NOT DUP5 PUSH1 0x8 MUL PUSH2 0x1FD3 JUMP JUMPDEST NOT DUP1 DUP4 AND SWAP2 POP POP SWAP3 SWAP2 POP POP JUMP JUMPDEST PUSH0 PUSH2 0x2006 DUP4 DUP4 PUSH2 0x1FDF JUMP JUMPDEST SWAP2 POP DUP3 PUSH1 0x2 MUL DUP3 OR SWAP1 POP SWAP3 SWAP2 POP POP JUMP JUMPDEST PUSH2 0x201F DUP3 PUSH2 0x18C7 JUMP JUMPDEST PUSH8 0xFFFFFFFFFFFFFFFF DUP2 GT ISZERO PUSH2 0x2038 JUMPI PUSH2 0x2037 PUSH2 0x16F3 JUMP JUMPDEST JUMPDEST PUSH2 0x2042 DUP3 SLOAD PUSH2 0x1D42 JUMP JUMPDEST PUSH2 0x204D DUP3 DUP3 DUP6 PUSH2 0x1F8D JUMP JUMPDEST PUSH0 PUSH1 0x20 SWAP1 POP PUSH1 0x1F DUP4 GT PUSH1 0x1 DUP2 EQ PUSH2 0x207E JUMPI PUSH0 DUP5 ISZERO PUSH2 0x206C JUMPI DUP3 DUP8 ADD MLOAD SWAP1 POP JUMPDEST PUSH2 0x2076 DUP6 DUP3 PUSH2 0x1FFB JUMP JUMPDEST DUP7 SSTORE POP PUSH2 0x20DD JUMP JUMPDEST PUSH1 0x1F NOT DUP5 AND PUSH2 0x208C DUP7 PUSH2 0x1E79 JUMP JUMPDEST PUSH0 JUMPDEST DUP3 DUP2 LT ISZERO PUSH2 0x20B3 JUMPI DUP5 DUP10 ADD MLOAD DUP3 SSTORE PUSH1 0x1 DUP3 ADD SWAP2 POP PUSH1 0x20 DUP6 ADD SWAP5 POP PUSH1 0x20 DUP2 ADD SWAP1 POP PUSH2 0x208E JUMP JUMPDEST DUP7 DUP4 LT ISZERO PUSH2 0x20D0 JUMPI DUP5 DUP10 ADD MLOAD PUSH2 0x20CC PUSH1 0x1F DUP10 AND DUP3 PUSH2 0x1FDF JUMP JUMPDEST DUP4 SSTORE POP JUMPDEST PUSH1 0x1 PUSH1 0x2 DUP9 MUL ADD DUP9 SSTORE POP POP POP JUMPDEST POP POP POP POP POP POP JUMP JUMPDEST PUSH32 0x4E487B7100000000000000000000000000000000000000000000000000000000 PUSH0 MSTORE PUSH1 0x12 PUSH1 0x4 MSTORE PUSH1 0x24 PUSH0 REVERT JUMPDEST PUSH0 PUSH2 0x211C DUP3 PUSH2 0x185E JUMP JUMPDEST SWAP2 POP PUSH2 0x2127 DUP4 PUSH2 0x185E JUMP JUMPDEST SWAP3 POP DUP3 PUSH2 0x2137 JUMPI PUSH2 0x2136 PUSH2 0x20E5 JUMP JUMPDEST JUMPDEST DUP3 DUP3 DIV SWAP1 POP SWAP3 SWAP2 POP POP JUMP JUMPDEST PUSH32 0x416C696365000000000000000000000000000000000000000000000000000000 PUSH0 DUP3 ADD MSTORE POP JUMP JUMPDEST PUSH0 PUSH2 0x2176 PUSH1 0x5 DUP4 PUSH2 0x1CC5 JUMP JUMPDEST SWAP2 POP PUSH2 0x2181 DUP3 PUSH2 0x2142 JUMP JUMPDEST PUSH1 0x5 DUP3 ADD SWAP1 POP SWAP2 SWAP1 POP JUMP JUMPDEST PUSH0 PUSH2 0x2196 DUP3 PUSH2 0x216A JUMP JUMPDEST SWAP2 POP DUP2 SWAP1 POP SWAP2 SWAP1 POP JUMP JUMPDEST PUSH32 0x426F620000000000000000000000000000000000000000000000000000000000 PUSH0 DUP3 ADD MSTORE POP JUMP JUMPDEST PUSH0 PUSH2 0x21D4 PUSH1 0x3 DUP4 PUSH2 0x1CC5 JUMP JUMPDEST SWAP2 POP PUSH2 0x21DF DUP3 PUSH2 0x21A0 JUMP JUMPDEST PUSH1 0x3 DUP3 ADD SWAP1 POP SWAP2 SWAP1 POP JUMP JUMPDEST PUSH0 PUSH2 0x21F4 DUP3 PUSH2 0x21C8 JUMP JUMPDEST SWAP2 POP DUP2 SWAP1 POP SWAP2 SWAP1 POP JUMP JUMPDEST PUSH32 0x436861726C696500000000000000000000000000000000000000000000000000 PUSH0 DUP3 ADD MSTORE POP JUMP JUMPDEST PUSH0 PUSH2 0x2232 PUSH1 0x7 DUP4 PUSH2 0x1CC5 JUMP JUMPDEST SWAP2 POP PUSH2 0x223D DUP3 PUSH2 0x21FE JUMP JUMPDEST PUSH1 0x7 DUP3 ADD SWAP1 POP SWAP2 SWAP1 POP JUMP JUMPDEST PUSH0 PUSH2 0x2252 DUP3 PUSH2 0x2226 JUMP JUMPDEST SWAP2 POP DUP2 SWAP1 POP SWAP2 SWAP1 POP JUMP JUMPDEST PUSH32 0x447761796E650000000000000000000000000000000000000000000000000000 PUSH0 DUP3 ADD MSTORE POP JUMP JUMPDEST PUSH0 PUSH2 0x2290 PUSH1 0x6 DUP4 PUSH2 0x1CC5 JUMP JUMPDEST SWAP2 POP PUSH2 0x229B DUP3 PUSH2 0x225C JUMP JUMPDEST PUSH1 0x6 DUP3 ADD SWAP1 POP SWAP2 SWAP1 POP JUMP JUMPDEST PUSH0 PUSH2 0x22B0 DUP3 PUSH2 0x2284 JUMP JUMPDEST SWAP2 POP DUP2 SWAP1 POP SWAP2 SWAP1 POP JUMP JUMPDEST PUSH32 0x456C6C656E000000000000000000000000000000000000000000000000000000 PUSH0 DUP3 ADD MSTORE POP JUMP JUMPDEST PUSH0 PUSH2 0x22EE PUSH1 0x5 DUP4 PUSH2 0x1CC5 JUMP JUMPDEST SWAP2 POP PUSH2 0x22F9 DUP3 PUSH2 0x22BA JUMP JUMPDEST PUSH1 0x5 DUP3 ADD SWAP1 POP SWAP2 SWAP1 POP JUMP JUMPDEST PUSH0 PUSH2 0x230E DUP3 PUSH2 0x22E2 JUMP JUMPDEST SWAP2 POP DUP2 SWAP1 POP SWAP2 SWAP1 POP JUMP JUMPDEST PUSH32 0x4669747A00000000000000000000000000000000000000000000000000000000 PUSH0 DUP3 ADD MSTORE POP JUMP JUMPDEST PUSH0 PUSH2 0x234C PUSH1 0x4 DUP4 PUSH2 0x1CC5 JUMP JUMPDEST SWAP2 POP PUSH2 0x2357 DUP3 PUSH2 0x2318 JUMP JUMPDEST PUSH1 0x4 DUP3 ADD SWAP1 POP SWAP2 SWAP1 POP JUMP JUMPDEST PUSH0 PUSH2 0x236C DUP3 PUSH2 0x2340 JUMP JUMPDEST SWAP2 POP DUP2 SWAP1 POP SWAP2 SWAP1 POP JUMP JUMPDEST PUSH32 0x4761727265740000000000000000000000000000000000000000000000000000 PUSH0 DUP3 ADD MSTORE POP JUMP JUMPDEST PUSH0 PUSH2 0x23AA PUSH1 0x6 DUP4 PUSH2 0x1CC5 JUMP JUMPDEST SWAP2 POP PUSH2 0x23B5 DUP3 PUSH2 0x2376 JUMP JUMPDEST PUSH1 0x6 DUP3 ADD SWAP1 POP SWAP2 SWAP1 POP JUMP JUMPDEST PUSH0 PUSH2 0x23CA DUP3 PUSH2 0x239E JUMP JUMPDEST SWAP2 POP DUP2 SWAP1 POP SWAP2 SWAP1 POP JUMP JUMPDEST PUSH32 0x4875626572740000000000000000000000000000000000000000000000000000 PUSH0 DUP3 ADD MSTORE POP JUMP JUMPDEST PUSH0 PUSH2 0x2408 PUSH1 0x6 DUP4 PUSH2 0x1CC5 JUMP JUMPDEST SWAP2 POP PUSH2 0x2413 DUP3 PUSH2 0x23D4 JUMP JUMPDEST PUSH1 0x6 DUP3 ADD SWAP1 POP SWAP2 SWAP1 POP JUMP JUMPDEST PUSH0 PUSH2 0x2428 DUP3 PUSH2 0x23FC JUMP JUMPDEST SWAP2 POP DUP2 SWAP1 POP SWAP2 SWAP1 POP JUMP JUMPDEST PUSH32 0x49736162656C0000000000000000000000000000000000000000000000000000 PUSH0 DUP3 ADD MSTORE POP JUMP JUMPDEST PUSH0 PUSH2 0x2466 PUSH1 0x6 DUP4 PUSH2 0x1CC5 JUMP JUMPDEST SWAP2 POP PUSH2 0x2471 DUP3 PUSH2 0x2432 JUMP JUMPDEST PUSH1 0x6 DUP3 ADD SWAP1 POP SWAP2 SWAP1 POP JUMP JUMPDEST PUSH0 PUSH2 0x2486 DUP3 PUSH2 0x245A JUMP JUMPDEST SWAP2 POP DUP2 SWAP1 POP SWAP2 SWAP1 POP JUMP JUMPDEST PUSH32 0x4A616E6500000000000000000000000000000000000000000000000000000000 PUSH0 DUP3 ADD MSTORE POP JUMP JUMPDEST PUSH0 PUSH2 0x24C4 PUSH1 0x4 DUP4 PUSH2 0x1CC5 JUMP JUMPDEST SWAP2 POP PUSH2 0x24CF DUP3 PUSH2 0x2490 JUMP JUMPDEST PUSH1 0x4 DUP3 ADD SWAP1 POP SWAP2 SWAP1 POP JUMP JUMPDEST PUSH0 PUSH2 0x24E4 DUP3 PUSH2 0x24B8 JUMP JUMPDEST SWAP2 POP DUP2 SWAP1 POP SWAP2 SWAP1 POP JUMP INVALID LOG2 PUSH5 0x6970667358 0x22 SLT KECCAK256 0xAC MLOAD STOP 0xE 0xDE 0xA6 PUSH0 DUP7 0xEE 0x25 LOG0 0xB8 NOT EQ 0xE6 PUSH13 0x2EBF84C484F86192E566279BF6 BALANCE SDIV ORIGIN PUSH5 0x736F6C6343 STOP ADDMOD AND STOP CALLER "
				},
				"gasEstimates": {
					"creation": {
						"codeDepositCost": "1901600",
						"executionCost": "2010",
						"totalCost": "1903610"
					},
					"external": {
						"evaluateTeacher()": "infinite",
						"getAllStudentInfos()": "infinite",
						"getAvgOfScore()": "infinite",
						"getFClassInfo()": "infinite",
						"getGrade(uint256)": "infinite",
						"getNumFClass()": "infinite",
						"getNumOfStudents()": "2485",
						"getStudentByName(string)": "infinite",
						"getStudentByNumber(uint256)": "infinite",
						"getStudentScoreByName(string)": "infinite",
						"getTop4Info()": "infinite",
						"initStudentsList()": "infinite",
						"setStudent(string,uint256,uint256)": "infinite"
					}
				},
				"methodIdentifiers": {
					"evaluateTeacher()": "27f7c259",
					"getAllStudentInfos()": "0e44180b",
					"getAvgOfScore()": "b5b71ac9",
					"getFClassInfo()": "3e618841",
					"getGrade(uint256)": "e1e0485e",
					"getNumFClass()": "f6b0797c",
					"getNumOfStudents()": "8f5801ed",
					"getStudentByName(string)": "83b41ad8",
					"getStudentByNumber(uint256)": "a41f985e",
					"getStudentScoreByName(string)": "077ff0c0",
					"getTop4Info()": "2cd07b5a",
					"initStudentsList()": "d7bc51a7",
					"setStudent(string,uint256,uint256)": "82fae9b7"
				}
			},
			"storageLayout": {
				"storage": [
					{
						"astId": 13,
						"contract": "Test_20231122.sol:MyClass",
						"label": "students",
						"offset": 0,
						"slot": "0",
						"type": "t_mapping(t_string_memory_ptr,t_struct(StudentInfo)8_storage)"
					},
					{
						"astId": 17,
						"contract": "Test_20231122.sol:MyClass",
						"label": "studentArray",
						"offset": 0,
						"slot": "1",
						"type": "t_array(t_struct(StudentInfo)8_storage)dyn_storage"
					}
				],
				"types": {
					"t_array(t_struct(StudentInfo)8_storage)dyn_storage": {
						"base": "t_struct(StudentInfo)8_storage",
						"encoding": "dynamic_array",
						"label": "struct MyClass.StudentInfo[]",
						"numberOfBytes": "32"
					},
					"t_mapping(t_string_memory_ptr,t_struct(StudentInfo)8_storage)": {
						"encoding": "mapping",
						"key": "t_string_memory_ptr",
						"label": "mapping(string => struct MyClass.StudentInfo)",
						"numberOfBytes": "32",
						"value": "t_struct(StudentInfo)8_storage"
					},
					"t_string_memory_ptr": {
						"encoding": "bytes",
						"label": "string",
						"numberOfBytes": "32"
					},
					"t_string_storage": {
						"encoding": "bytes",
						"label": "string",
						"numberOfBytes": "32"
					},
					"t_struct(StudentInfo)8_storage": {
						"encoding": "inplace",
						"label": "struct MyClass.StudentInfo",
						"members": [
							{
								"astId": 3,
								"contract": "Test_20231122.sol:MyClass",
								"label": "number",
								"offset": 0,
								"slot": "0",
								"type": "t_uint256"
							},
							{
								"astId": 5,
								"contract": "Test_20231122.sol:MyClass",
								"label": "score",
								"offset": 0,
								"slot": "1",
								"type": "t_uint256"
							},
							{
								"astId": 7,
								"contract": "Test_20231122.sol:MyClass",
								"label": "grade",
								"offset": 0,
								"slot": "2",
								"type": "t_string_storage"
							}
						],
						"numberOfBytes": "96"
					},
					"t_uint256": {
						"encoding": "inplace",
						"label": "uint256",
						"numberOfBytes": "32"
					}
				}
			},
			"userdoc": {
				"kind": "user",
				"methods": {},
				"version": 1
			}
		}
	}
}