{
	"is_virtual_questions.sol": {
		"VISIBILITY_Variable": {
			"abi": [
				{
					"inputs": [],
					"name": "a_4",
					"outputs": [
						{
							"internalType": "uint256",
							"name": "a",
							"type": "uint256"
						},
						{
							"internalType": "string",
							"name": "b",
							"type": "string"
						},
						{
							"internalType": "bytes32",
							"name": "c",
							"type": "bytes32"
						}
					],
					"stateMutability": "view",
					"type": "function"
				},
				{
					"inputs": [],
					"name": "d",
					"outputs": [
						{
							"internalType": "uint256",
							"name": "",
							"type": "uint256"
						}
					],
					"stateMutability": "view",
					"type": "function"
				},
				{
					"inputs": [],
					"name": "getABCD",
					"outputs": [
						{
							"internalType": "uint256",
							"name": "",
							"type": "uint256"
						},
						{
							"internalType": "uint256",
							"name": "",
							"type": "uint256"
						},
						{
							"internalType": "uint256",
							"name": "",
							"type": "uint256"
						},
						{
							"internalType": "uint256",
							"name": "",
							"type": "uint256"
						}
					],
					"stateMutability": "view",
					"type": "function"
				},
				{
					"inputs": [
						{
							"internalType": "uint256",
							"name": "",
							"type": "uint256"
						}
					],
					"name": "mapping4",
					"outputs": [
						{
							"internalType": "string",
							"name": "",
							"type": "string"
						}
					],
					"stateMutability": "view",
					"type": "function"
				},
				{
					"inputs": [
						{
							"internalType": "uint256",
							"name": "",
							"type": "uint256"
						}
					],
					"name": "numbers4",
					"outputs": [
						{
							"internalType": "uint256",
							"name": "",
							"type": "uint256"
						}
					],
					"stateMutability": "view",
					"type": "function"
				},
				{
					"inputs": [
						{
							"internalType": "uint256[]",
							"name": "_n",
							"type": "uint256[]"
						}
					],
					"name": "set1",
					"outputs": [],
					"stateMutability": "nonpayable",
					"type": "function"
				},
				{
					"inputs": [
						{
							"internalType": "uint256[]",
							"name": "_n",
							"type": "uint256[]"
						}
					],
					"name": "set2",
					"outputs": [],
					"stateMutability": "nonpayable",
					"type": "function"
				},
				{
					"inputs": [
						{
							"internalType": "uint256[]",
							"name": "_n",
							"type": "uint256[]"
						}
					],
					"name": "set3",
					"outputs": [],
					"stateMutability": "nonpayable",
					"type": "function"
				},
				{
					"inputs": [
						{
							"internalType": "uint256[]",
							"name": "_n",
							"type": "uint256[]"
						}
					],
					"name": "set4",
					"outputs": [],
					"stateMutability": "nonpayable",
					"type": "function"
				},
				{
					"inputs": [
						{
							"internalType": "uint256",
							"name": "_n",
							"type": "uint256"
						},
						{
							"internalType": "string",
							"name": "_s",
							"type": "string"
						}
					],
					"name": "setm1",
					"outputs": [],
					"stateMutability": "nonpayable",
					"type": "function"
				},
				{
					"inputs": [
						{
							"internalType": "uint256",
							"name": "_n",
							"type": "uint256"
						},
						{
							"internalType": "string",
							"name": "_s",
							"type": "string"
						}
					],
					"name": "setm2",
					"outputs": [],
					"stateMutability": "nonpayable",
					"type": "function"
				},
				{
					"inputs": [
						{
							"internalType": "uint256",
							"name": "_n",
							"type": "uint256"
						},
						{
							"internalType": "string",
							"name": "_s",
							"type": "string"
						}
					],
					"name": "setm3",
					"outputs": [],
					"stateMutability": "nonpayable",
					"type": "function"
				},
				{
					"inputs": [
						{
							"internalType": "uint256",
							"name": "_n",
							"type": "uint256"
						},
						{
							"internalType": "string",
							"name": "_s",
							"type": "string"
						}
					],
					"name": "setm4",
					"outputs": [],
					"stateMutability": "nonpayable",
					"type": "function"
				}
			],
			"devdoc": {
				"kind": "dev",
				"methods": {},
				"version": 1
			},
			"evm": {
				"assembly": "    /* \"is_virtual_questions.sol\":67:1467  contract VISIBILITY_Variable {... */\n  mstore(0x40, 0x80)\n    /* \"is_virtual_questions.sol\":112:113  1 */\n  0x01\n    /* \"is_virtual_questions.sol\":103:113  uint a = 1 */\n  0x00\n  sstore\n    /* \"is_virtual_questions.sol\":137:138  2 */\n  0x02\n    /* \"is_virtual_questions.sol\":120:138  uint private b = 2 */\n  0x01\n  sstore\n    /* \"is_virtual_questions.sol\":163:164  3 */\n  0x03\n    /* \"is_virtual_questions.sol\":145:164  uint internal c = 3 */\n  0x02\n  sstore\n    /* \"is_virtual_questions.sol\":187:188  4 */\n  0x04\n    /* \"is_virtual_questions.sol\":171:188  uint public d = 4 */\n  0x03\n  sstore\n    /* \"is_virtual_questions.sol\":67:1467  contract VISIBILITY_Variable {... */\n  callvalue\n  dup1\n  iszero\n  tag_1\n  jumpi\n  0x00\n  dup1\n  revert\ntag_1:\n  pop\n  dataSize(sub_0)\n  dup1\n  dataOffset(sub_0)\n  0x00\n  codecopy\n  0x00\n  return\nstop\n\nsub_0: assembly {\n        /* \"is_virtual_questions.sol\":67:1467  contract VISIBILITY_Variable {... */\n      mstore(0x40, 0x80)\n      callvalue\n      dup1\n      iszero\n      tag_1\n      jumpi\n      0x00\n      dup1\n      revert\n    tag_1:\n      pop\n      jumpi(tag_2, lt(calldatasize, 0x04))\n      shr(0xe0, calldataload(0x00))\n      dup1\n      0xadb29fac\n      gt\n      tag_16\n      jumpi\n      dup1\n      0xd4f772cb\n      gt\n      tag_17\n      jumpi\n      dup1\n      0xd4f772cb\n      eq\n      tag_12\n      jumpi\n      dup1\n      0xd8e2ecd0\n      eq\n      tag_13\n      jumpi\n      dup1\n      0xeaa7cad2\n      eq\n      tag_14\n      jumpi\n      dup1\n      0xedb35ce8\n      eq\n      tag_15\n      jumpi\n      jump(tag_2)\n    tag_17:\n      dup1\n      0xadb29fac\n      eq\n      tag_9\n      jumpi\n      dup1\n      0xb83cc043\n      eq\n      tag_10\n      jumpi\n      dup1\n      0xc736694e\n      eq\n      tag_11\n      jumpi\n      jump(tag_2)\n    tag_16:\n      dup1\n      0x1512d45e\n      eq\n      tag_3\n      jumpi\n      dup1\n      0x36adb5e3\n      eq\n      tag_4\n      jumpi\n      dup1\n      0x539d0b4f\n      eq\n      tag_5\n      jumpi\n      dup1\n      0x55031cd5\n      eq\n      tag_6\n      jumpi\n      dup1\n      0x8a054ac2\n      eq\n      tag_7\n      jumpi\n      dup1\n      0xa9b09cbc\n      eq\n      tag_8\n      jumpi\n    tag_2:\n      0x00\n      dup1\n      revert\n        /* \"is_virtual_questions.sol\":837:908  function set3(uint[] memory _n) public {... */\n    tag_3:\n      tag_18\n      0x04\n      dup1\n      calldatasize\n      sub\n      dup2\n      add\n      swap1\n      tag_19\n      swap2\n      swap1\n      tag_20\n      jump\t// in\n    tag_19:\n      tag_21\n      jump\t// in\n    tag_18:\n      stop\n        /* \"is_virtual_questions.sol\":758:829  function set2(uint[] memory _n) public {... */\n    tag_4:\n      tag_22\n      0x04\n      dup1\n      calldatasize\n      sub\n      dup2\n      add\n      swap1\n      tag_23\n      swap2\n      swap1\n      tag_20\n      jump\t// in\n    tag_23:\n      tag_24\n      jump\t// in\n    tag_22:\n      stop\n        /* \"is_virtual_questions.sol\":476:515  mapping(uint => string) public mapping4 */\n    tag_5:\n      tag_25\n      0x04\n      dup1\n      calldatasize\n      sub\n      dup2\n      add\n      swap1\n      tag_26\n      swap2\n      swap1\n      tag_27\n      jump\t// in\n    tag_26:\n      tag_28\n      jump\t// in\n    tag_25:\n      mload(0x40)\n      tag_29\n      swap2\n      swap1\n      tag_30\n      jump\t// in\n    tag_29:\n      mload(0x40)\n      dup1\n      swap2\n      sub\n      swap1\n      return\n        /* \"is_virtual_questions.sol\":280:302  uint[] public numbers4 */\n    tag_6:\n      tag_31\n      0x04\n      dup1\n      calldatasize\n      sub\n      dup2\n      add\n      swap1\n      tag_32\n      swap2\n      swap1\n      tag_27\n      jump\t// in\n    tag_32:\n      tag_33\n      jump\t// in\n    tag_31:\n      mload(0x40)\n      tag_34\n      swap2\n      swap1\n      tag_35\n      jump\t// in\n    tag_34:\n      mload(0x40)\n      dup1\n      swap2\n      sub\n      swap1\n      return\n        /* \"is_virtual_questions.sol\":171:188  uint public d = 4 */\n    tag_7:\n      tag_36\n      tag_37\n      jump\t// in\n    tag_36:\n      mload(0x40)\n      tag_38\n      swap2\n      swap1\n      tag_35\n      jump\t// in\n    tag_38:\n      mload(0x40)\n      dup1\n      swap2\n      sub\n      swap1\n      return\n        /* \"is_virtual_questions.sol\":679:750  function set1(uint[] memory _n) public {... */\n    tag_8:\n      tag_39\n      0x04\n      dup1\n      calldatasize\n      sub\n      dup2\n      add\n      swap1\n      tag_40\n      swap2\n      swap1\n      tag_20\n      jump\t// in\n    tag_40:\n      tag_41\n      jump\t// in\n    tag_39:\n      stop\n        /* \"is_virtual_questions.sol\":916:987  function set4(uint[] memory _n) public {... */\n    tag_9:\n      tag_42\n      0x04\n      dup1\n      calldatasize\n      sub\n      dup2\n      add\n      swap1\n      tag_43\n      swap2\n      swap1\n      tag_20\n      jump\t// in\n    tag_43:\n      tag_44\n      jump\t// in\n    tag_42:\n      stop\n        /* \"is_virtual_questions.sol\":1087:1171  function setm2(uint _n, string memory _s) public {... */\n    tag_10:\n      tag_45\n      0x04\n      dup1\n      calldatasize\n      sub\n      dup2\n      add\n      swap1\n      tag_46\n      swap2\n      swap1\n      tag_47\n      jump\t// in\n    tag_46:\n      tag_48\n      jump\t// in\n    tag_45:\n      stop\n        /* \"is_virtual_questions.sol\":1363:1464  function getABCD() public view returns(uint, uint, uint, uint) {... */\n    tag_11:\n      tag_49\n      tag_50\n      jump\t// in\n    tag_49:\n      mload(0x40)\n      tag_51\n      swap5\n      swap4\n      swap3\n      swap2\n      swap1\n      tag_52\n      jump\t// in\n    tag_51:\n      mload(0x40)\n      dup1\n      swap2\n      sub\n      swap1\n      return\n        /* \"is_virtual_questions.sol\":658:670  A public a_4 */\n    tag_12:\n      tag_53\n      tag_54\n      jump\t// in\n    tag_53:\n      mload(0x40)\n      tag_55\n      swap4\n      swap3\n      swap2\n      swap1\n      tag_56\n      jump\t// in\n    tag_55:\n      mload(0x40)\n      dup1\n      swap2\n      sub\n      swap1\n      return\n        /* \"is_virtual_questions.sol\":1271:1355  function setm4(uint _n, string memory _s) public {... */\n    tag_13:\n      tag_57\n      0x04\n      dup1\n      calldatasize\n      sub\n      dup2\n      add\n      swap1\n      tag_58\n      swap2\n      swap1\n      tag_47\n      jump\t// in\n    tag_58:\n      tag_59\n      jump\t// in\n    tag_57:\n      stop\n        /* \"is_virtual_questions.sol\":1179:1263  function setm3(uint _n, string memory _s) public {... */\n    tag_14:\n      tag_60\n      0x04\n      dup1\n      calldatasize\n      sub\n      dup2\n      add\n      swap1\n      tag_61\n      swap2\n      swap1\n      tag_47\n      jump\t// in\n    tag_61:\n      tag_62\n      jump\t// in\n    tag_60:\n      stop\n        /* \"is_virtual_questions.sol\":995:1079  function setm1(uint _n, string memory _s) public {... */\n    tag_15:\n      tag_63\n      0x04\n      dup1\n      calldatasize\n      sub\n      dup2\n      add\n      swap1\n      tag_64\n      swap2\n      swap1\n      tag_47\n      jump\t// in\n    tag_64:\n      tag_65\n      jump\t// in\n    tag_63:\n      stop\n        /* \"is_virtual_questions.sol\":837:908  function set3(uint[] memory _n) public {... */\n    tag_21:\n        /* \"is_virtual_questions.sol\":898:900  _n */\n      dup1\n        /* \"is_virtual_questions.sol\":887:895  numbers3 */\n      0x06\n        /* \"is_virtual_questions.sol\":887:900  numbers3 = _n */\n      swap1\n      dup1\n      mload\n      swap1\n      0x20\n      add\n      swap1\n      tag_67\n      swap3\n      swap2\n      swap1\n      tag_68\n      jump\t// in\n    tag_67:\n      pop\n        /* \"is_virtual_questions.sol\":837:908  function set3(uint[] memory _n) public {... */\n      pop\n      jump\t// out\n        /* \"is_virtual_questions.sol\":758:829  function set2(uint[] memory _n) public {... */\n    tag_24:\n        /* \"is_virtual_questions.sol\":819:821  _n */\n      dup1\n        /* \"is_virtual_questions.sol\":808:816  numbers2 */\n      0x05\n        /* \"is_virtual_questions.sol\":808:821  numbers2 = _n */\n      swap1\n      dup1\n      mload\n      swap1\n      0x20\n      add\n      swap1\n      tag_70\n      swap3\n      swap2\n      swap1\n      tag_68\n      jump\t// in\n    tag_70:\n      pop\n        /* \"is_virtual_questions.sol\":758:829  function set2(uint[] memory _n) public {... */\n      pop\n      jump\t// out\n        /* \"is_virtual_questions.sol\":476:515  mapping(uint => string) public mapping4 */\n    tag_28:\n      mstore(0x20, 0x0b)\n      dup1\n      0x00\n      mstore\n      keccak256(0x00, 0x40)\n      0x00\n      swap2\n      pop\n      swap1\n      pop\n      dup1\n      sload\n      tag_71\n      swap1\n      tag_72\n      jump\t// in\n    tag_71:\n      dup1\n      0x1f\n      add\n      0x20\n      dup1\n      swap2\n      div\n      mul\n      0x20\n      add\n      mload(0x40)\n      swap1\n      dup2\n      add\n      0x40\n      mstore\n      dup1\n      swap3\n      swap2\n      swap1\n      dup2\n      dup2\n      mstore\n      0x20\n      add\n      dup3\n      dup1\n      sload\n      tag_73\n      swap1\n      tag_72\n      jump\t// in\n    tag_73:\n      dup1\n      iszero\n      tag_74\n      jumpi\n      dup1\n      0x1f\n      lt\n      tag_75\n      jumpi\n      0x0100\n      dup1\n      dup4\n      sload\n      div\n      mul\n      dup4\n      mstore\n      swap2\n      0x20\n      add\n      swap2\n      jump(tag_74)\n    tag_75:\n      dup3\n      add\n      swap2\n      swap1\n      0x00\n      mstore\n      keccak256(0x00, 0x20)\n      swap1\n    tag_76:\n      dup2\n      sload\n      dup2\n      mstore\n      swap1\n      0x01\n      add\n      swap1\n      0x20\n      add\n      dup1\n      dup4\n      gt\n      tag_76\n      jumpi\n      dup3\n      swap1\n      sub\n      0x1f\n      and\n      dup3\n      add\n      swap2\n    tag_74:\n      pop\n      pop\n      pop\n      pop\n      pop\n      dup2\n      jump\t// out\n        /* \"is_virtual_questions.sol\":280:302  uint[] public numbers4 */\n    tag_33:\n      0x07\n      dup2\n      dup2\n      sload\n      dup2\n      lt\n      tag_77\n      jumpi\n      0x00\n      dup1\n      revert\n    tag_77:\n      swap1\n      0x00\n      mstore\n      keccak256(0x00, 0x20)\n      add\n      0x00\n      swap2\n      pop\n      swap1\n      pop\n      sload\n      dup2\n      jump\t// out\n        /* \"is_virtual_questions.sol\":171:188  uint public d = 4 */\n    tag_37:\n      sload(0x03)\n      dup2\n      jump\t// out\n        /* \"is_virtual_questions.sol\":679:750  function set1(uint[] memory _n) public {... */\n    tag_41:\n        /* \"is_virtual_questions.sol\":740:742  _n */\n      dup1\n        /* \"is_virtual_questions.sol\":729:737  numbers1 */\n      0x04\n        /* \"is_virtual_questions.sol\":729:742  numbers1 = _n */\n      swap1\n      dup1\n      mload\n      swap1\n      0x20\n      add\n      swap1\n      tag_80\n      swap3\n      swap2\n      swap1\n      tag_68\n      jump\t// in\n    tag_80:\n      pop\n        /* \"is_virtual_questions.sol\":679:750  function set1(uint[] memory _n) public {... */\n      pop\n      jump\t// out\n        /* \"is_virtual_questions.sol\":916:987  function set4(uint[] memory _n) public {... */\n    tag_44:\n        /* \"is_virtual_questions.sol\":977:979  _n */\n      dup1\n        /* \"is_virtual_questions.sol\":966:974  numbers4 */\n      0x07\n        /* \"is_virtual_questions.sol\":966:979  numbers4 = _n */\n      swap1\n      dup1\n      mload\n      swap1\n      0x20\n      add\n      swap1\n      tag_82\n      swap3\n      swap2\n      swap1\n      tag_68\n      jump\t// in\n    tag_82:\n      pop\n        /* \"is_virtual_questions.sol\":916:987  function set4(uint[] memory _n) public {... */\n      pop\n      jump\t// out\n        /* \"is_virtual_questions.sol\":1087:1171  function setm2(uint _n, string memory _s) public {... */\n    tag_48:\n        /* \"is_virtual_questions.sol\":1161:1163  _s */\n      dup1\n        /* \"is_virtual_questions.sol\":1147:1155  mapping2 */\n      0x09\n        /* \"is_virtual_questions.sol\":1147:1159  mapping2[_n] */\n      0x00\n        /* \"is_virtual_questions.sol\":1156:1158  _n */\n      dup5\n        /* \"is_virtual_questions.sol\":1147:1159  mapping2[_n] */\n      dup2\n      mstore\n      0x20\n      add\n      swap1\n      dup2\n      mstore\n      0x20\n      add\n      0x00\n      keccak256\n        /* \"is_virtual_questions.sol\":1147:1163  mapping2[_n]= _s */\n      swap1\n      dup2\n      tag_84\n      swap2\n      swap1\n      tag_85\n      jump\t// in\n    tag_84:\n      pop\n        /* \"is_virtual_questions.sol\":1087:1171  function setm2(uint _n, string memory _s) public {... */\n      pop\n      pop\n      jump\t// out\n        /* \"is_virtual_questions.sol\":1363:1464  function getABCD() public view returns(uint, uint, uint, uint) {... */\n    tag_50:\n        /* \"is_virtual_questions.sol\":1402:1406  uint */\n      0x00\n        /* \"is_virtual_questions.sol\":1408:1412  uint */\n      dup1\n        /* \"is_virtual_questions.sol\":1414:1418  uint */\n      0x00\n        /* \"is_virtual_questions.sol\":1420:1424  uint */\n      dup1\n        /* \"is_virtual_questions.sol\":1445:1446  a */\n      sload(0x00)\n        /* \"is_virtual_questions.sol\":1448:1449  b */\n      sload(0x01)\n        /* \"is_virtual_questions.sol\":1451:1452  c */\n      sload(0x02)\n        /* \"is_virtual_questions.sol\":1454:1455  d */\n      sload(0x03)\n        /* \"is_virtual_questions.sol\":1437:1456  return (a, b, c, d) */\n      swap4\n      pop\n      swap4\n      pop\n      swap4\n      pop\n      swap4\n      pop\n        /* \"is_virtual_questions.sol\":1363:1464  function getABCD() public view returns(uint, uint, uint, uint) {... */\n      swap1\n      swap2\n      swap3\n      swap4\n      jump\t// out\n        /* \"is_virtual_questions.sol\":658:670  A public a_4 */\n    tag_54:\n      0x15\n      dup1\n      0x00\n      add\n      sload\n      swap1\n      dup1\n      0x01\n      add\n      dup1\n      sload\n      tag_87\n      swap1\n      tag_72\n      jump\t// in\n    tag_87:\n      dup1\n      0x1f\n      add\n      0x20\n      dup1\n      swap2\n      div\n      mul\n      0x20\n      add\n      mload(0x40)\n      swap1\n      dup2\n      add\n      0x40\n      mstore\n      dup1\n      swap3\n      swap2\n      swap1\n      dup2\n      dup2\n      mstore\n      0x20\n      add\n      dup3\n      dup1\n      sload\n      tag_88\n      swap1\n      tag_72\n      jump\t// in\n    tag_88:\n      dup1\n      iszero\n      tag_89\n      jumpi\n      dup1\n      0x1f\n      lt\n      tag_90\n      jumpi\n      0x0100\n      dup1\n      dup4\n      sload\n      div\n      mul\n      dup4\n      mstore\n      swap2\n      0x20\n      add\n      swap2\n      jump(tag_89)\n    tag_90:\n      dup3\n      add\n      swap2\n      swap1\n      0x00\n      mstore\n      keccak256(0x00, 0x20)\n      swap1\n    tag_91:\n      dup2\n      sload\n      dup2\n      mstore\n      swap1\n      0x01\n      add\n      swap1\n      0x20\n      add\n      dup1\n      dup4\n      gt\n      tag_91\n      jumpi\n      dup3\n      swap1\n      sub\n      0x1f\n      and\n      dup3\n      add\n      swap2\n    tag_89:\n      pop\n      pop\n      pop\n      pop\n      pop\n      swap1\n      dup1\n      0x02\n      add\n      sload\n      swap1\n      pop\n      dup4\n      jump\t// out\n        /* \"is_virtual_questions.sol\":1271:1355  function setm4(uint _n, string memory _s) public {... */\n    tag_59:\n        /* \"is_virtual_questions.sol\":1345:1347  _s */\n      dup1\n        /* \"is_virtual_questions.sol\":1331:1339  mapping4 */\n      0x0b\n        /* \"is_virtual_questions.sol\":1331:1343  mapping4[_n] */\n      0x00\n        /* \"is_virtual_questions.sol\":1340:1342  _n */\n      dup5\n        /* \"is_virtual_questions.sol\":1331:1343  mapping4[_n] */\n      dup2\n      mstore\n      0x20\n      add\n      swap1\n      dup2\n      mstore\n      0x20\n      add\n      0x00\n      keccak256\n        /* \"is_virtual_questions.sol\":1331:1347  mapping4[_n]= _s */\n      swap1\n      dup2\n      tag_93\n      swap2\n      swap1\n      tag_85\n      jump\t// in\n    tag_93:\n      pop\n        /* \"is_virtual_questions.sol\":1271:1355  function setm4(uint _n, string memory _s) public {... */\n      pop\n      pop\n      jump\t// out\n        /* \"is_virtual_questions.sol\":1179:1263  function setm3(uint _n, string memory _s) public {... */\n    tag_62:\n        /* \"is_virtual_questions.sol\":1253:1255  _s */\n      dup1\n        /* \"is_virtual_questions.sol\":1239:1247  mapping3 */\n      0x0a\n        /* \"is_virtual_questions.sol\":1239:1251  mapping3[_n] */\n      0x00\n        /* \"is_virtual_questions.sol\":1248:1250  _n */\n      dup5\n        /* \"is_virtual_questions.sol\":1239:1251  mapping3[_n] */\n      dup2\n      mstore\n      0x20\n      add\n      swap1\n      dup2\n      mstore\n      0x20\n      add\n      0x00\n      keccak256\n        /* \"is_virtual_questions.sol\":1239:1255  mapping3[_n]= _s */\n      swap1\n      dup2\n      tag_95\n      swap2\n      swap1\n      tag_85\n      jump\t// in\n    tag_95:\n      pop\n        /* \"is_virtual_questions.sol\":1179:1263  function setm3(uint _n, string memory _s) public {... */\n      pop\n      pop\n      jump\t// out\n        /* \"is_virtual_questions.sol\":995:1079  function setm1(uint _n, string memory _s) public {... */\n    tag_65:\n        /* \"is_virtual_questions.sol\":1069:1071  _s */\n      dup1\n        /* \"is_virtual_questions.sol\":1055:1063  mapping1 */\n      0x08\n        /* \"is_virtual_questions.sol\":1055:1067  mapping1[_n] */\n      0x00\n        /* \"is_virtual_questions.sol\":1064:1066  _n */\n      dup5\n        /* \"is_virtual_questions.sol\":1055:1067  mapping1[_n] */\n      dup2\n      mstore\n      0x20\n      add\n      swap1\n      dup2\n      mstore\n      0x20\n      add\n      0x00\n      keccak256\n        /* \"is_virtual_questions.sol\":1055:1071  mapping1[_n]= _s */\n      swap1\n      dup2\n      tag_97\n      swap2\n      swap1\n      tag_85\n      jump\t// in\n    tag_97:\n      pop\n        /* \"is_virtual_questions.sol\":995:1079  function setm1(uint _n, string memory _s) public {... */\n      pop\n      pop\n      jump\t// out\n    tag_68:\n      dup3\n      dup1\n      sload\n      dup3\n      dup3\n      sstore\n      swap1\n      0x00\n      mstore\n      keccak256(0x00, 0x20)\n      swap1\n      dup2\n      add\n      swap3\n      dup3\n      iszero\n      tag_98\n      jumpi\n      swap2\n      0x20\n      mul\n      dup3\n      add\n    tag_99:\n      dup3\n      dup2\n      gt\n      iszero\n      tag_100\n      jumpi\n      dup3\n      mload\n      dup3\n      sstore\n      swap2\n      0x20\n      add\n      swap2\n      swap1\n      0x01\n      add\n      swap1\n      jump(tag_99)\n    tag_100:\n    tag_98:\n      pop\n      swap1\n      pop\n      tag_101\n      swap2\n      swap1\n      tag_102\n      jump\t// in\n    tag_101:\n      pop\n      swap1\n      jump\t// out\n    tag_102:\n    tag_103:\n      dup1\n      dup3\n      gt\n      iszero\n      tag_104\n      jumpi\n      0x00\n      dup2\n      0x00\n      swap1\n      sstore\n      pop\n      0x01\n      add\n      jump(tag_103)\n    tag_104:\n      pop\n      swap1\n      jump\t// out\n        /* \"#utility.yul\":7:82   */\n    tag_105:\n        /* \"#utility.yul\":40:46   */\n      0x00\n        /* \"#utility.yul\":73:75   */\n      0x40\n        /* \"#utility.yul\":67:76   */\n      mload\n        /* \"#utility.yul\":57:76   */\n      swap1\n      pop\n        /* \"#utility.yul\":7:82   */\n      swap1\n      jump\t// out\n        /* \"#utility.yul\":88:205   */\n    tag_106:\n        /* \"#utility.yul\":197:198   */\n      0x00\n        /* \"#utility.yul\":194:195   */\n      dup1\n        /* \"#utility.yul\":187:199   */\n      revert\n        /* \"#utility.yul\":211:328   */\n    tag_107:\n        /* \"#utility.yul\":320:321   */\n      0x00\n        /* \"#utility.yul\":317:318   */\n      dup1\n        /* \"#utility.yul\":310:322   */\n      revert\n        /* \"#utility.yul\":334:451   */\n    tag_108:\n        /* \"#utility.yul\":443:444   */\n      0x00\n        /* \"#utility.yul\":440:441   */\n      dup1\n        /* \"#utility.yul\":433:445   */\n      revert\n        /* \"#utility.yul\":457:559   */\n    tag_109:\n        /* \"#utility.yul\":498:504   */\n      0x00\n        /* \"#utility.yul\":549:551   */\n      0x1f\n        /* \"#utility.yul\":545:552   */\n      not\n        /* \"#utility.yul\":540:542   */\n      0x1f\n        /* \"#utility.yul\":533:538   */\n      dup4\n        /* \"#utility.yul\":529:543   */\n      add\n        /* \"#utility.yul\":525:553   */\n      and\n        /* \"#utility.yul\":515:553   */\n      swap1\n      pop\n        /* \"#utility.yul\":457:559   */\n      swap2\n      swap1\n      pop\n      jump\t// out\n        /* \"#utility.yul\":565:745   */\n    tag_110:\n        /* \"#utility.yul\":613:690   */\n      0x4e487b7100000000000000000000000000000000000000000000000000000000\n        /* \"#utility.yul\":610:611   */\n      0x00\n        /* \"#utility.yul\":603:691   */\n      mstore\n        /* \"#utility.yul\":710:714   */\n      0x41\n        /* \"#utility.yul\":707:708   */\n      0x04\n        /* \"#utility.yul\":700:715   */\n      mstore\n        /* \"#utility.yul\":734:738   */\n      0x24\n        /* \"#utility.yul\":731:732   */\n      0x00\n        /* \"#utility.yul\":724:739   */\n      revert\n        /* \"#utility.yul\":751:1032   */\n    tag_111:\n        /* \"#utility.yul\":834:861   */\n      tag_156\n        /* \"#utility.yul\":856:860   */\n      dup3\n        /* \"#utility.yul\":834:861   */\n      tag_109\n      jump\t// in\n    tag_156:\n        /* \"#utility.yul\":826:832   */\n      dup2\n        /* \"#utility.yul\":822:862   */\n      add\n        /* \"#utility.yul\":964:970   */\n      dup2\n        /* \"#utility.yul\":952:962   */\n      dup2\n        /* \"#utility.yul\":949:971   */\n      lt\n        /* \"#utility.yul\":928:946   */\n      0xffffffffffffffff\n        /* \"#utility.yul\":916:926   */\n      dup3\n        /* \"#utility.yul\":913:947   */\n      gt\n        /* \"#utility.yul\":910:972   */\n      or\n        /* \"#utility.yul\":907:995   */\n      iszero\n      tag_157\n      jumpi\n        /* \"#utility.yul\":975:993   */\n      tag_158\n      tag_110\n      jump\t// in\n    tag_158:\n        /* \"#utility.yul\":907:995   */\n    tag_157:\n        /* \"#utility.yul\":1015:1025   */\n      dup1\n        /* \"#utility.yul\":1011:1013   */\n      0x40\n        /* \"#utility.yul\":1004:1026   */\n      mstore\n        /* \"#utility.yul\":794:1032   */\n      pop\n        /* \"#utility.yul\":751:1032   */\n      pop\n      pop\n      jump\t// out\n        /* \"#utility.yul\":1038:1167   */\n    tag_112:\n        /* \"#utility.yul\":1072:1078   */\n      0x00\n        /* \"#utility.yul\":1099:1119   */\n      tag_160\n      tag_105\n      jump\t// in\n    tag_160:\n        /* \"#utility.yul\":1089:1119   */\n      swap1\n      pop\n        /* \"#utility.yul\":1128:1161   */\n      tag_161\n        /* \"#utility.yul\":1156:1160   */\n      dup3\n        /* \"#utility.yul\":1148:1154   */\n      dup3\n        /* \"#utility.yul\":1128:1161   */\n      tag_111\n      jump\t// in\n    tag_161:\n        /* \"#utility.yul\":1038:1167   */\n      swap2\n      swap1\n      pop\n      jump\t// out\n        /* \"#utility.yul\":1173:1484   */\n    tag_113:\n        /* \"#utility.yul\":1250:1254   */\n      0x00\n        /* \"#utility.yul\":1340:1358   */\n      0xffffffffffffffff\n        /* \"#utility.yul\":1332:1338   */\n      dup3\n        /* \"#utility.yul\":1329:1359   */\n      gt\n        /* \"#utility.yul\":1326:1382   */\n      iszero\n      tag_163\n      jumpi\n        /* \"#utility.yul\":1362:1380   */\n      tag_164\n      tag_110\n      jump\t// in\n    tag_164:\n        /* \"#utility.yul\":1326:1382   */\n    tag_163:\n        /* \"#utility.yul\":1412:1416   */\n      0x20\n        /* \"#utility.yul\":1404:1410   */\n      dup3\n        /* \"#utility.yul\":1400:1417   */\n      mul\n        /* \"#utility.yul\":1392:1417   */\n      swap1\n      pop\n        /* \"#utility.yul\":1472:1476   */\n      0x20\n        /* \"#utility.yul\":1466:1470   */\n      dup2\n        /* \"#utility.yul\":1462:1477   */\n      add\n        /* \"#utility.yul\":1454:1477   */\n      swap1\n      pop\n        /* \"#utility.yul\":1173:1484   */\n      swap2\n      swap1\n      pop\n      jump\t// out\n        /* \"#utility.yul\":1490:1607   */\n    tag_114:\n        /* \"#utility.yul\":1599:1600   */\n      0x00\n        /* \"#utility.yul\":1596:1597   */\n      dup1\n        /* \"#utility.yul\":1589:1601   */\n      revert\n        /* \"#utility.yul\":1613:1690   */\n    tag_115:\n        /* \"#utility.yul\":1650:1657   */\n      0x00\n        /* \"#utility.yul\":1679:1684   */\n      dup2\n        /* \"#utility.yul\":1668:1684   */\n      swap1\n      pop\n        /* \"#utility.yul\":1613:1690   */\n      swap2\n      swap1\n      pop\n      jump\t// out\n        /* \"#utility.yul\":1696:1818   */\n    tag_116:\n        /* \"#utility.yul\":1769:1793   */\n      tag_168\n        /* \"#utility.yul\":1787:1792   */\n      dup2\n        /* \"#utility.yul\":1769:1793   */\n      tag_115\n      jump\t// in\n    tag_168:\n        /* \"#utility.yul\":1762:1767   */\n      dup2\n        /* \"#utility.yul\":1759:1794   */\n      eq\n        /* \"#utility.yul\":1749:1812   */\n      tag_169\n      jumpi\n        /* \"#utility.yul\":1808:1809   */\n      0x00\n        /* \"#utility.yul\":1805:1806   */\n      dup1\n        /* \"#utility.yul\":1798:1810   */\n      revert\n        /* \"#utility.yul\":1749:1812   */\n    tag_169:\n        /* \"#utility.yul\":1696:1818   */\n      pop\n      jump\t// out\n        /* \"#utility.yul\":1824:1963   */\n    tag_117:\n        /* \"#utility.yul\":1870:1875   */\n      0x00\n        /* \"#utility.yul\":1908:1914   */\n      dup2\n        /* \"#utility.yul\":1895:1915   */\n      calldataload\n        /* \"#utility.yul\":1886:1915   */\n      swap1\n      pop\n        /* \"#utility.yul\":1924:1957   */\n      tag_171\n        /* \"#utility.yul\":1951:1956   */\n      dup2\n        /* \"#utility.yul\":1924:1957   */\n      tag_116\n      jump\t// in\n    tag_171:\n        /* \"#utility.yul\":1824:1963   */\n      swap3\n      swap2\n      pop\n      pop\n      jump\t// out\n        /* \"#utility.yul\":1986:2696   */\n    tag_118:\n        /* \"#utility.yul\":2082:2087   */\n      0x00\n        /* \"#utility.yul\":2107:2188   */\n      tag_173\n        /* \"#utility.yul\":2123:2187   */\n      tag_174\n        /* \"#utility.yul\":2180:2186   */\n      dup5\n        /* \"#utility.yul\":2123:2187   */\n      tag_113\n      jump\t// in\n    tag_174:\n        /* \"#utility.yul\":2107:2188   */\n      tag_112\n      jump\t// in\n    tag_173:\n        /* \"#utility.yul\":2098:2188   */\n      swap1\n      pop\n        /* \"#utility.yul\":2208:2213   */\n      dup1\n        /* \"#utility.yul\":2237:2243   */\n      dup4\n        /* \"#utility.yul\":2230:2235   */\n      dup3\n        /* \"#utility.yul\":2223:2244   */\n      mstore\n        /* \"#utility.yul\":2271:2275   */\n      0x20\n        /* \"#utility.yul\":2264:2269   */\n      dup3\n        /* \"#utility.yul\":2260:2276   */\n      add\n        /* \"#utility.yul\":2253:2276   */\n      swap1\n      pop\n        /* \"#utility.yul\":2324:2328   */\n      0x20\n        /* \"#utility.yul\":2316:2322   */\n      dup5\n        /* \"#utility.yul\":2312:2329   */\n      mul\n        /* \"#utility.yul\":2304:2310   */\n      dup4\n        /* \"#utility.yul\":2300:2330   */\n      add\n        /* \"#utility.yul\":2353:2356   */\n      dup6\n        /* \"#utility.yul\":2345:2351   */\n      dup2\n        /* \"#utility.yul\":2342:2357   */\n      gt\n        /* \"#utility.yul\":2339:2461   */\n      iszero\n      tag_175\n      jumpi\n        /* \"#utility.yul\":2372:2451   */\n      tag_176\n      tag_114\n      jump\t// in\n    tag_176:\n        /* \"#utility.yul\":2339:2461   */\n    tag_175:\n        /* \"#utility.yul\":2487:2493   */\n      dup4\n        /* \"#utility.yul\":2470:2690   */\n    tag_177:\n        /* \"#utility.yul\":2504:2510   */\n      dup2\n        /* \"#utility.yul\":2499:2502   */\n      dup2\n        /* \"#utility.yul\":2496:2511   */\n      lt\n        /* \"#utility.yul\":2470:2690   */\n      iszero\n      tag_179\n      jumpi\n        /* \"#utility.yul\":2579:2582   */\n      dup1\n        /* \"#utility.yul\":2608:2645   */\n      tag_180\n        /* \"#utility.yul\":2641:2644   */\n      dup9\n        /* \"#utility.yul\":2629:2639   */\n      dup3\n        /* \"#utility.yul\":2608:2645   */\n      tag_117\n      jump\t// in\n    tag_180:\n        /* \"#utility.yul\":2603:2606   */\n      dup5\n        /* \"#utility.yul\":2596:2646   */\n      mstore\n        /* \"#utility.yul\":2675:2679   */\n      0x20\n        /* \"#utility.yul\":2670:2673   */\n      dup5\n        /* \"#utility.yul\":2666:2680   */\n      add\n        /* \"#utility.yul\":2659:2680   */\n      swap4\n      pop\n        /* \"#utility.yul\":2546:2690   */\n      pop\n        /* \"#utility.yul\":2530:2534   */\n      0x20\n        /* \"#utility.yul\":2525:2528   */\n      dup2\n        /* \"#utility.yul\":2521:2535   */\n      add\n        /* \"#utility.yul\":2514:2535   */\n      swap1\n      pop\n        /* \"#utility.yul\":2470:2690   */\n      jump(tag_177)\n    tag_179:\n        /* \"#utility.yul\":2474:2495   */\n      pop\n        /* \"#utility.yul\":2088:2696   */\n      pop\n      pop\n        /* \"#utility.yul\":1986:2696   */\n      swap4\n      swap3\n      pop\n      pop\n      pop\n      jump\t// out\n        /* \"#utility.yul\":2719:3089   */\n    tag_119:\n        /* \"#utility.yul\":2790:2795   */\n      0x00\n        /* \"#utility.yul\":2839:2842   */\n      dup3\n        /* \"#utility.yul\":2832:2836   */\n      0x1f\n        /* \"#utility.yul\":2824:2830   */\n      dup4\n        /* \"#utility.yul\":2820:2837   */\n      add\n        /* \"#utility.yul\":2816:2843   */\n      slt\n        /* \"#utility.yul\":2806:2928   */\n      tag_182\n      jumpi\n        /* \"#utility.yul\":2847:2926   */\n      tag_183\n      tag_108\n      jump\t// in\n    tag_183:\n        /* \"#utility.yul\":2806:2928   */\n    tag_182:\n        /* \"#utility.yul\":2964:2970   */\n      dup2\n        /* \"#utility.yul\":2951:2971   */\n      calldataload\n        /* \"#utility.yul\":2989:3083   */\n      tag_184\n        /* \"#utility.yul\":3079:3082   */\n      dup5\n        /* \"#utility.yul\":3071:3077   */\n      dup3\n        /* \"#utility.yul\":3064:3068   */\n      0x20\n        /* \"#utility.yul\":3056:3062   */\n      dup7\n        /* \"#utility.yul\":3052:3069   */\n      add\n        /* \"#utility.yul\":2989:3083   */\n      tag_118\n      jump\t// in\n    tag_184:\n        /* \"#utility.yul\":2980:3083   */\n      swap2\n      pop\n        /* \"#utility.yul\":2796:3089   */\n      pop\n        /* \"#utility.yul\":2719:3089   */\n      swap3\n      swap2\n      pop\n      pop\n      jump\t// out\n        /* \"#utility.yul\":3095:3634   */\n    tag_20:\n        /* \"#utility.yul\":3179:3185   */\n      0x00\n        /* \"#utility.yul\":3228:3230   */\n      0x20\n        /* \"#utility.yul\":3216:3225   */\n      dup3\n        /* \"#utility.yul\":3207:3214   */\n      dup5\n        /* \"#utility.yul\":3203:3226   */\n      sub\n        /* \"#utility.yul\":3199:3231   */\n      slt\n        /* \"#utility.yul\":3196:3315   */\n      iszero\n      tag_186\n      jumpi\n        /* \"#utility.yul\":3234:3313   */\n      tag_187\n      tag_106\n      jump\t// in\n    tag_187:\n        /* \"#utility.yul\":3196:3315   */\n    tag_186:\n        /* \"#utility.yul\":3382:3383   */\n      0x00\n        /* \"#utility.yul\":3371:3380   */\n      dup3\n        /* \"#utility.yul\":3367:3384   */\n      add\n        /* \"#utility.yul\":3354:3385   */\n      calldataload\n        /* \"#utility.yul\":3412:3430   */\n      0xffffffffffffffff\n        /* \"#utility.yul\":3404:3410   */\n      dup2\n        /* \"#utility.yul\":3401:3431   */\n      gt\n        /* \"#utility.yul\":3398:3515   */\n      iszero\n      tag_188\n      jumpi\n        /* \"#utility.yul\":3434:3513   */\n      tag_189\n      tag_107\n      jump\t// in\n    tag_189:\n        /* \"#utility.yul\":3398:3515   */\n    tag_188:\n        /* \"#utility.yul\":3539:3617   */\n      tag_190\n        /* \"#utility.yul\":3609:3616   */\n      dup5\n        /* \"#utility.yul\":3600:3606   */\n      dup3\n        /* \"#utility.yul\":3589:3598   */\n      dup6\n        /* \"#utility.yul\":3585:3607   */\n      add\n        /* \"#utility.yul\":3539:3617   */\n      tag_119\n      jump\t// in\n    tag_190:\n        /* \"#utility.yul\":3529:3617   */\n      swap2\n      pop\n        /* \"#utility.yul\":3325:3627   */\n      pop\n        /* \"#utility.yul\":3095:3634   */\n      swap3\n      swap2\n      pop\n      pop\n      jump\t// out\n        /* \"#utility.yul\":3640:3969   */\n    tag_27:\n        /* \"#utility.yul\":3699:3705   */\n      0x00\n        /* \"#utility.yul\":3748:3750   */\n      0x20\n        /* \"#utility.yul\":3736:3745   */\n      dup3\n        /* \"#utility.yul\":3727:3734   */\n      dup5\n        /* \"#utility.yul\":3723:3746   */\n      sub\n        /* \"#utility.yul\":3719:3751   */\n      slt\n        /* \"#utility.yul\":3716:3835   */\n      iszero\n      tag_192\n      jumpi\n        /* \"#utility.yul\":3754:3833   */\n      tag_193\n      tag_106\n      jump\t// in\n    tag_193:\n        /* \"#utility.yul\":3716:3835   */\n    tag_192:\n        /* \"#utility.yul\":3874:3875   */\n      0x00\n        /* \"#utility.yul\":3899:3952   */\n      tag_194\n        /* \"#utility.yul\":3944:3951   */\n      dup5\n        /* \"#utility.yul\":3935:3941   */\n      dup3\n        /* \"#utility.yul\":3924:3933   */\n      dup6\n        /* \"#utility.yul\":3920:3942   */\n      add\n        /* \"#utility.yul\":3899:3952   */\n      tag_117\n      jump\t// in\n    tag_194:\n        /* \"#utility.yul\":3889:3952   */\n      swap2\n      pop\n        /* \"#utility.yul\":3845:3962   */\n      pop\n        /* \"#utility.yul\":3640:3969   */\n      swap3\n      swap2\n      pop\n      pop\n      jump\t// out\n        /* \"#utility.yul\":3975:4074   */\n    tag_120:\n        /* \"#utility.yul\":4027:4033   */\n      0x00\n        /* \"#utility.yul\":4061:4066   */\n      dup2\n        /* \"#utility.yul\":4055:4067   */\n      mload\n        /* \"#utility.yul\":4045:4067   */\n      swap1\n      pop\n        /* \"#utility.yul\":3975:4074   */\n      swap2\n      swap1\n      pop\n      jump\t// out\n        /* \"#utility.yul\":4080:4249   */\n    tag_121:\n        /* \"#utility.yul\":4164:4175   */\n      0x00\n        /* \"#utility.yul\":4198:4204   */\n      dup3\n        /* \"#utility.yul\":4193:4196   */\n      dup3\n        /* \"#utility.yul\":4186:4205   */\n      mstore\n        /* \"#utility.yul\":4238:4242   */\n      0x20\n        /* \"#utility.yul\":4233:4236   */\n      dup3\n        /* \"#utility.yul\":4229:4243   */\n      add\n        /* \"#utility.yul\":4214:4243   */\n      swap1\n      pop\n        /* \"#utility.yul\":4080:4249   */\n      swap3\n      swap2\n      pop\n      pop\n      jump\t// out\n        /* \"#utility.yul\":4255:4501   */\n    tag_122:\n        /* \"#utility.yul\":4336:4337   */\n      0x00\n        /* \"#utility.yul\":4346:4459   */\n    tag_198:\n        /* \"#utility.yul\":4360:4366   */\n      dup4\n        /* \"#utility.yul\":4357:4358   */\n      dup2\n        /* \"#utility.yul\":4354:4367   */\n      lt\n        /* \"#utility.yul\":4346:4459   */\n      iszero\n      tag_200\n      jumpi\n        /* \"#utility.yul\":4445:4446   */\n      dup1\n        /* \"#utility.yul\":4440:4443   */\n      dup3\n        /* \"#utility.yul\":4436:4447   */\n      add\n        /* \"#utility.yul\":4430:4448   */\n      mload\n        /* \"#utility.yul\":4426:4427   */\n      dup2\n        /* \"#utility.yul\":4421:4424   */\n      dup5\n        /* \"#utility.yul\":4417:4428   */\n      add\n        /* \"#utility.yul\":4410:4449   */\n      mstore\n        /* \"#utility.yul\":4382:4384   */\n      0x20\n        /* \"#utility.yul\":4379:4380   */\n      dup2\n        /* \"#utility.yul\":4375:4385   */\n      add\n        /* \"#utility.yul\":4370:4385   */\n      swap1\n      pop\n        /* \"#utility.yul\":4346:4459   */\n      jump(tag_198)\n    tag_200:\n        /* \"#utility.yul\":4493:4494   */\n      0x00\n        /* \"#utility.yul\":4484:4490   */\n      dup5\n        /* \"#utility.yul\":4479:4482   */\n      dup5\n        /* \"#utility.yul\":4475:4491   */\n      add\n        /* \"#utility.yul\":4468:4495   */\n      mstore\n        /* \"#utility.yul\":4317:4501   */\n      pop\n        /* \"#utility.yul\":4255:4501   */\n      pop\n      pop\n      pop\n      jump\t// out\n        /* \"#utility.yul\":4507:4884   */\n    tag_123:\n        /* \"#utility.yul\":4595:4598   */\n      0x00\n        /* \"#utility.yul\":4623:4662   */\n      tag_202\n        /* \"#utility.yul\":4656:4661   */\n      dup3\n        /* \"#utility.yul\":4623:4662   */\n      tag_120\n      jump\t// in\n    tag_202:\n        /* \"#utility.yul\":4678:4749   */\n      tag_203\n        /* \"#utility.yul\":4742:4748   */\n      dup2\n        /* \"#utility.yul\":4737:4740   */\n      dup6\n        /* \"#utility.yul\":4678:4749   */\n      tag_121\n      jump\t// in\n    tag_203:\n        /* \"#utility.yul\":4671:4749   */\n      swap4\n      pop\n        /* \"#utility.yul\":4758:4823   */\n      tag_204\n        /* \"#utility.yul\":4816:4822   */\n      dup2\n        /* \"#utility.yul\":4811:4814   */\n      dup6\n        /* \"#utility.yul\":4804:4808   */\n      0x20\n        /* \"#utility.yul\":4797:4802   */\n      dup7\n        /* \"#utility.yul\":4793:4809   */\n      add\n        /* \"#utility.yul\":4758:4823   */\n      tag_122\n      jump\t// in\n    tag_204:\n        /* \"#utility.yul\":4848:4877   */\n      tag_205\n        /* \"#utility.yul\":4870:4876   */\n      dup2\n        /* \"#utility.yul\":4848:4877   */\n      tag_109\n      jump\t// in\n    tag_205:\n        /* \"#utility.yul\":4843:4846   */\n      dup5\n        /* \"#utility.yul\":4839:4878   */\n      add\n        /* \"#utility.yul\":4832:4878   */\n      swap2\n      pop\n        /* \"#utility.yul\":4599:4884   */\n      pop\n        /* \"#utility.yul\":4507:4884   */\n      swap3\n      swap2\n      pop\n      pop\n      jump\t// out\n        /* \"#utility.yul\":4890:5203   */\n    tag_30:\n        /* \"#utility.yul\":5003:5007   */\n      0x00\n        /* \"#utility.yul\":5041:5043   */\n      0x20\n        /* \"#utility.yul\":5030:5039   */\n      dup3\n        /* \"#utility.yul\":5026:5044   */\n      add\n        /* \"#utility.yul\":5018:5044   */\n      swap1\n      pop\n        /* \"#utility.yul\":5090:5099   */\n      dup2\n        /* \"#utility.yul\":5084:5088   */\n      dup2\n        /* \"#utility.yul\":5080:5100   */\n      sub\n        /* \"#utility.yul\":5076:5077   */\n      0x00\n        /* \"#utility.yul\":5065:5074   */\n      dup4\n        /* \"#utility.yul\":5061:5078   */\n      add\n        /* \"#utility.yul\":5054:5101   */\n      mstore\n        /* \"#utility.yul\":5118:5196   */\n      tag_207\n        /* \"#utility.yul\":5191:5195   */\n      dup2\n        /* \"#utility.yul\":5182:5188   */\n      dup5\n        /* \"#utility.yul\":5118:5196   */\n      tag_123\n      jump\t// in\n    tag_207:\n        /* \"#utility.yul\":5110:5196   */\n      swap1\n      pop\n        /* \"#utility.yul\":4890:5203   */\n      swap3\n      swap2\n      pop\n      pop\n      jump\t// out\n        /* \"#utility.yul\":5209:5327   */\n    tag_124:\n        /* \"#utility.yul\":5296:5320   */\n      tag_209\n        /* \"#utility.yul\":5314:5319   */\n      dup2\n        /* \"#utility.yul\":5296:5320   */\n      tag_115\n      jump\t// in\n    tag_209:\n        /* \"#utility.yul\":5291:5294   */\n      dup3\n        /* \"#utility.yul\":5284:5321   */\n      mstore\n        /* \"#utility.yul\":5209:5327   */\n      pop\n      pop\n      jump\t// out\n        /* \"#utility.yul\":5333:5555   */\n    tag_35:\n        /* \"#utility.yul\":5426:5430   */\n      0x00\n        /* \"#utility.yul\":5464:5466   */\n      0x20\n        /* \"#utility.yul\":5453:5462   */\n      dup3\n        /* \"#utility.yul\":5449:5467   */\n      add\n        /* \"#utility.yul\":5441:5467   */\n      swap1\n      pop\n        /* \"#utility.yul\":5477:5548   */\n      tag_211\n        /* \"#utility.yul\":5545:5546   */\n      0x00\n        /* \"#utility.yul\":5534:5543   */\n      dup4\n        /* \"#utility.yul\":5530:5547   */\n      add\n        /* \"#utility.yul\":5521:5527   */\n      dup5\n        /* \"#utility.yul\":5477:5548   */\n      tag_124\n      jump\t// in\n    tag_211:\n        /* \"#utility.yul\":5333:5555   */\n      swap3\n      swap2\n      pop\n      pop\n      jump\t// out\n        /* \"#utility.yul\":5561:5678   */\n    tag_125:\n        /* \"#utility.yul\":5670:5671   */\n      0x00\n        /* \"#utility.yul\":5667:5668   */\n      dup1\n        /* \"#utility.yul\":5660:5672   */\n      revert\n        /* \"#utility.yul\":5684:5992   */\n    tag_126:\n        /* \"#utility.yul\":5746:5750   */\n      0x00\n        /* \"#utility.yul\":5836:5854   */\n      0xffffffffffffffff\n        /* \"#utility.yul\":5828:5834   */\n      dup3\n        /* \"#utility.yul\":5825:5855   */\n      gt\n        /* \"#utility.yul\":5822:5878   */\n      iszero\n      tag_214\n      jumpi\n        /* \"#utility.yul\":5858:5876   */\n      tag_215\n      tag_110\n      jump\t// in\n    tag_215:\n        /* \"#utility.yul\":5822:5878   */\n    tag_214:\n        /* \"#utility.yul\":5896:5925   */\n      tag_216\n        /* \"#utility.yul\":5918:5924   */\n      dup3\n        /* \"#utility.yul\":5896:5925   */\n      tag_109\n      jump\t// in\n    tag_216:\n        /* \"#utility.yul\":5888:5925   */\n      swap1\n      pop\n        /* \"#utility.yul\":5980:5984   */\n      0x20\n        /* \"#utility.yul\":5974:5978   */\n      dup2\n        /* \"#utility.yul\":5970:5985   */\n      add\n        /* \"#utility.yul\":5962:5985   */\n      swap1\n      pop\n        /* \"#utility.yul\":5684:5992   */\n      swap2\n      swap1\n      pop\n      jump\t// out\n        /* \"#utility.yul\":5998:6144   */\n    tag_127:\n        /* \"#utility.yul\":6095:6101   */\n      dup3\n        /* \"#utility.yul\":6090:6093   */\n      dup2\n        /* \"#utility.yul\":6085:6088   */\n      dup4\n        /* \"#utility.yul\":6072:6102   */\n      calldatacopy\n        /* \"#utility.yul\":6136:6137   */\n      0x00\n        /* \"#utility.yul\":6127:6133   */\n      dup4\n        /* \"#utility.yul\":6122:6125   */\n      dup4\n        /* \"#utility.yul\":6118:6134   */\n      add\n        /* \"#utility.yul\":6111:6138   */\n      mstore\n        /* \"#utility.yul\":5998:6144   */\n      pop\n      pop\n      pop\n      jump\t// out\n        /* \"#utility.yul\":6150:6575   */\n    tag_128:\n        /* \"#utility.yul\":6228:6233   */\n      0x00\n        /* \"#utility.yul\":6253:6319   */\n      tag_219\n        /* \"#utility.yul\":6269:6318   */\n      tag_220\n        /* \"#utility.yul\":6311:6317   */\n      dup5\n        /* \"#utility.yul\":6269:6318   */\n      tag_126\n      jump\t// in\n    tag_220:\n        /* \"#utility.yul\":6253:6319   */\n      tag_112\n      jump\t// in\n    tag_219:\n        /* \"#utility.yul\":6244:6319   */\n      swap1\n      pop\n        /* \"#utility.yul\":6342:6348   */\n      dup3\n        /* \"#utility.yul\":6335:6340   */\n      dup2\n        /* \"#utility.yul\":6328:6349   */\n      mstore\n        /* \"#utility.yul\":6380:6384   */\n      0x20\n        /* \"#utility.yul\":6373:6378   */\n      dup2\n        /* \"#utility.yul\":6369:6385   */\n      add\n        /* \"#utility.yul\":6418:6421   */\n      dup5\n        /* \"#utility.yul\":6409:6415   */\n      dup5\n        /* \"#utility.yul\":6404:6407   */\n      dup5\n        /* \"#utility.yul\":6400:6416   */\n      add\n        /* \"#utility.yul\":6397:6422   */\n      gt\n        /* \"#utility.yul\":6394:6506   */\n      iszero\n      tag_221\n      jumpi\n        /* \"#utility.yul\":6425:6504   */\n      tag_222\n      tag_125\n      jump\t// in\n    tag_222:\n        /* \"#utility.yul\":6394:6506   */\n    tag_221:\n        /* \"#utility.yul\":6515:6569   */\n      tag_223\n        /* \"#utility.yul\":6562:6568   */\n      dup5\n        /* \"#utility.yul\":6557:6560   */\n      dup3\n        /* \"#utility.yul\":6552:6555   */\n      dup6\n        /* \"#utility.yul\":6515:6569   */\n      tag_127\n      jump\t// in\n    tag_223:\n        /* \"#utility.yul\":6234:6575   */\n      pop\n        /* \"#utility.yul\":6150:6575   */\n      swap4\n      swap3\n      pop\n      pop\n      pop\n      jump\t// out\n        /* \"#utility.yul\":6595:6935   */\n    tag_129:\n        /* \"#utility.yul\":6651:6656   */\n      0x00\n        /* \"#utility.yul\":6700:6703   */\n      dup3\n        /* \"#utility.yul\":6693:6697   */\n      0x1f\n        /* \"#utility.yul\":6685:6691   */\n      dup4\n        /* \"#utility.yul\":6681:6698   */\n      add\n        /* \"#utility.yul\":6677:6704   */\n      slt\n        /* \"#utility.yul\":6667:6789   */\n      tag_225\n      jumpi\n        /* \"#utility.yul\":6708:6787   */\n      tag_226\n      tag_108\n      jump\t// in\n    tag_226:\n        /* \"#utility.yul\":6667:6789   */\n    tag_225:\n        /* \"#utility.yul\":6825:6831   */\n      dup2\n        /* \"#utility.yul\":6812:6832   */\n      calldataload\n        /* \"#utility.yul\":6850:6929   */\n      tag_227\n        /* \"#utility.yul\":6925:6928   */\n      dup5\n        /* \"#utility.yul\":6917:6923   */\n      dup3\n        /* \"#utility.yul\":6910:6914   */\n      0x20\n        /* \"#utility.yul\":6902:6908   */\n      dup7\n        /* \"#utility.yul\":6898:6915   */\n      add\n        /* \"#utility.yul\":6850:6929   */\n      tag_128\n      jump\t// in\n    tag_227:\n        /* \"#utility.yul\":6841:6929   */\n      swap2\n      pop\n        /* \"#utility.yul\":6657:6935   */\n      pop\n        /* \"#utility.yul\":6595:6935   */\n      swap3\n      swap2\n      pop\n      pop\n      jump\t// out\n        /* \"#utility.yul\":6941:7595   */\n    tag_47:\n        /* \"#utility.yul\":7019:7025   */\n      0x00\n        /* \"#utility.yul\":7027:7033   */\n      dup1\n        /* \"#utility.yul\":7076:7078   */\n      0x40\n        /* \"#utility.yul\":7064:7073   */\n      dup4\n        /* \"#utility.yul\":7055:7062   */\n      dup6\n        /* \"#utility.yul\":7051:7074   */\n      sub\n        /* \"#utility.yul\":7047:7079   */\n      slt\n        /* \"#utility.yul\":7044:7163   */\n      iszero\n      tag_229\n      jumpi\n        /* \"#utility.yul\":7082:7161   */\n      tag_230\n      tag_106\n      jump\t// in\n    tag_230:\n        /* \"#utility.yul\":7044:7163   */\n    tag_229:\n        /* \"#utility.yul\":7202:7203   */\n      0x00\n        /* \"#utility.yul\":7227:7280   */\n      tag_231\n        /* \"#utility.yul\":7272:7279   */\n      dup6\n        /* \"#utility.yul\":7263:7269   */\n      dup3\n        /* \"#utility.yul\":7252:7261   */\n      dup7\n        /* \"#utility.yul\":7248:7270   */\n      add\n        /* \"#utility.yul\":7227:7280   */\n      tag_117\n      jump\t// in\n    tag_231:\n        /* \"#utility.yul\":7217:7280   */\n      swap3\n      pop\n        /* \"#utility.yul\":7173:7290   */\n      pop\n        /* \"#utility.yul\":7357:7359   */\n      0x20\n        /* \"#utility.yul\":7346:7355   */\n      dup4\n        /* \"#utility.yul\":7342:7360   */\n      add\n        /* \"#utility.yul\":7329:7361   */\n      calldataload\n        /* \"#utility.yul\":7388:7406   */\n      0xffffffffffffffff\n        /* \"#utility.yul\":7380:7386   */\n      dup2\n        /* \"#utility.yul\":7377:7407   */\n      gt\n        /* \"#utility.yul\":7374:7491   */\n      iszero\n      tag_232\n      jumpi\n        /* \"#utility.yul\":7410:7489   */\n      tag_233\n      tag_107\n      jump\t// in\n    tag_233:\n        /* \"#utility.yul\":7374:7491   */\n    tag_232:\n        /* \"#utility.yul\":7515:7578   */\n      tag_234\n        /* \"#utility.yul\":7570:7577   */\n      dup6\n        /* \"#utility.yul\":7561:7567   */\n      dup3\n        /* \"#utility.yul\":7550:7559   */\n      dup7\n        /* \"#utility.yul\":7546:7568   */\n      add\n        /* \"#utility.yul\":7515:7578   */\n      tag_129\n      jump\t// in\n    tag_234:\n        /* \"#utility.yul\":7505:7578   */\n      swap2\n      pop\n        /* \"#utility.yul\":7300:7588   */\n      pop\n        /* \"#utility.yul\":6941:7595   */\n      swap3\n      pop\n      swap3\n      swap1\n      pop\n      jump\t// out\n        /* \"#utility.yul\":7601:8154   */\n    tag_52:\n        /* \"#utility.yul\":7778:7782   */\n      0x00\n        /* \"#utility.yul\":7816:7819   */\n      0x80\n        /* \"#utility.yul\":7805:7814   */\n      dup3\n        /* \"#utility.yul\":7801:7820   */\n      add\n        /* \"#utility.yul\":7793:7820   */\n      swap1\n      pop\n        /* \"#utility.yul\":7830:7901   */\n      tag_236\n        /* \"#utility.yul\":7898:7899   */\n      0x00\n        /* \"#utility.yul\":7887:7896   */\n      dup4\n        /* \"#utility.yul\":7883:7900   */\n      add\n        /* \"#utility.yul\":7874:7880   */\n      dup8\n        /* \"#utility.yul\":7830:7901   */\n      tag_124\n      jump\t// in\n    tag_236:\n        /* \"#utility.yul\":7911:7983   */\n      tag_237\n        /* \"#utility.yul\":7979:7981   */\n      0x20\n        /* \"#utility.yul\":7968:7977   */\n      dup4\n        /* \"#utility.yul\":7964:7982   */\n      add\n        /* \"#utility.yul\":7955:7961   */\n      dup7\n        /* \"#utility.yul\":7911:7983   */\n      tag_124\n      jump\t// in\n    tag_237:\n        /* \"#utility.yul\":7993:8065   */\n      tag_238\n        /* \"#utility.yul\":8061:8063   */\n      0x40\n        /* \"#utility.yul\":8050:8059   */\n      dup4\n        /* \"#utility.yul\":8046:8064   */\n      add\n        /* \"#utility.yul\":8037:8043   */\n      dup6\n        /* \"#utility.yul\":7993:8065   */\n      tag_124\n      jump\t// in\n    tag_238:\n        /* \"#utility.yul\":8075:8147   */\n      tag_239\n        /* \"#utility.yul\":8143:8145   */\n      0x60\n        /* \"#utility.yul\":8132:8141   */\n      dup4\n        /* \"#utility.yul\":8128:8146   */\n      add\n        /* \"#utility.yul\":8119:8125   */\n      dup5\n        /* \"#utility.yul\":8075:8147   */\n      tag_124\n      jump\t// in\n    tag_239:\n        /* \"#utility.yul\":7601:8154   */\n      swap6\n      swap5\n      pop\n      pop\n      pop\n      pop\n      pop\n      jump\t// out\n        /* \"#utility.yul\":8160:8237   */\n    tag_130:\n        /* \"#utility.yul\":8197:8204   */\n      0x00\n        /* \"#utility.yul\":8226:8231   */\n      dup2\n        /* \"#utility.yul\":8215:8231   */\n      swap1\n      pop\n        /* \"#utility.yul\":8160:8237   */\n      swap2\n      swap1\n      pop\n      jump\t// out\n        /* \"#utility.yul\":8243:8361   */\n    tag_131:\n        /* \"#utility.yul\":8330:8354   */\n      tag_242\n        /* \"#utility.yul\":8348:8353   */\n      dup2\n        /* \"#utility.yul\":8330:8354   */\n      tag_130\n      jump\t// in\n    tag_242:\n        /* \"#utility.yul\":8325:8328   */\n      dup3\n        /* \"#utility.yul\":8318:8355   */\n      mstore\n        /* \"#utility.yul\":8243:8361   */\n      pop\n      pop\n      jump\t// out\n        /* \"#utility.yul\":8367:8900   */\n    tag_56:\n        /* \"#utility.yul\":8536:8540   */\n      0x00\n        /* \"#utility.yul\":8574:8576   */\n      0x60\n        /* \"#utility.yul\":8563:8572   */\n      dup3\n        /* \"#utility.yul\":8559:8577   */\n      add\n        /* \"#utility.yul\":8551:8577   */\n      swap1\n      pop\n        /* \"#utility.yul\":8587:8658   */\n      tag_244\n        /* \"#utility.yul\":8655:8656   */\n      0x00\n        /* \"#utility.yul\":8644:8653   */\n      dup4\n        /* \"#utility.yul\":8640:8657   */\n      add\n        /* \"#utility.yul\":8631:8637   */\n      dup7\n        /* \"#utility.yul\":8587:8658   */\n      tag_124\n      jump\t// in\n    tag_244:\n        /* \"#utility.yul\":8705:8714   */\n      dup2\n        /* \"#utility.yul\":8699:8703   */\n      dup2\n        /* \"#utility.yul\":8695:8715   */\n      sub\n        /* \"#utility.yul\":8690:8692   */\n      0x20\n        /* \"#utility.yul\":8679:8688   */\n      dup4\n        /* \"#utility.yul\":8675:8693   */\n      add\n        /* \"#utility.yul\":8668:8716   */\n      mstore\n        /* \"#utility.yul\":8733:8811   */\n      tag_245\n        /* \"#utility.yul\":8806:8810   */\n      dup2\n        /* \"#utility.yul\":8797:8803   */\n      dup6\n        /* \"#utility.yul\":8733:8811   */\n      tag_123\n      jump\t// in\n    tag_245:\n        /* \"#utility.yul\":8725:8811   */\n      swap1\n      pop\n        /* \"#utility.yul\":8821:8893   */\n      tag_246\n        /* \"#utility.yul\":8889:8891   */\n      0x40\n        /* \"#utility.yul\":8878:8887   */\n      dup4\n        /* \"#utility.yul\":8874:8892   */\n      add\n        /* \"#utility.yul\":8865:8871   */\n      dup5\n        /* \"#utility.yul\":8821:8893   */\n      tag_131\n      jump\t// in\n    tag_246:\n        /* \"#utility.yul\":8367:8900   */\n      swap5\n      swap4\n      pop\n      pop\n      pop\n      pop\n      jump\t// out\n        /* \"#utility.yul\":8906:9086   */\n    tag_132:\n        /* \"#utility.yul\":8954:9031   */\n      0x4e487b7100000000000000000000000000000000000000000000000000000000\n        /* \"#utility.yul\":8951:8952   */\n      0x00\n        /* \"#utility.yul\":8944:9032   */\n      mstore\n        /* \"#utility.yul\":9051:9055   */\n      0x22\n        /* \"#utility.yul\":9048:9049   */\n      0x04\n        /* \"#utility.yul\":9041:9056   */\n      mstore\n        /* \"#utility.yul\":9075:9079   */\n      0x24\n        /* \"#utility.yul\":9072:9073   */\n      0x00\n        /* \"#utility.yul\":9065:9080   */\n      revert\n        /* \"#utility.yul\":9092:9412   */\n    tag_72:\n        /* \"#utility.yul\":9136:9142   */\n      0x00\n        /* \"#utility.yul\":9173:9174   */\n      0x02\n        /* \"#utility.yul\":9167:9171   */\n      dup3\n        /* \"#utility.yul\":9163:9175   */\n      div\n        /* \"#utility.yul\":9153:9175   */\n      swap1\n      pop\n        /* \"#utility.yul\":9220:9221   */\n      0x01\n        /* \"#utility.yul\":9214:9218   */\n      dup3\n        /* \"#utility.yul\":9210:9222   */\n      and\n        /* \"#utility.yul\":9241:9259   */\n      dup1\n        /* \"#utility.yul\":9231:9312   */\n      tag_249\n      jumpi\n        /* \"#utility.yul\":9297:9301   */\n      0x7f\n        /* \"#utility.yul\":9289:9295   */\n      dup3\n        /* \"#utility.yul\":9285:9302   */\n      and\n        /* \"#utility.yul\":9275:9302   */\n      swap2\n      pop\n        /* \"#utility.yul\":9231:9312   */\n    tag_249:\n        /* \"#utility.yul\":9359:9361   */\n      0x20\n        /* \"#utility.yul\":9351:9357   */\n      dup3\n        /* \"#utility.yul\":9348:9362   */\n      lt\n        /* \"#utility.yul\":9328:9346   */\n      dup2\n        /* \"#utility.yul\":9325:9363   */\n      sub\n        /* \"#utility.yul\":9322:9406   */\n      tag_250\n      jumpi\n        /* \"#utility.yul\":9378:9396   */\n      tag_251\n      tag_132\n      jump\t// in\n    tag_251:\n        /* \"#utility.yul\":9322:9406   */\n    tag_250:\n        /* \"#utility.yul\":9143:9412   */\n      pop\n        /* \"#utility.yul\":9092:9412   */\n      swap2\n      swap1\n      pop\n      jump\t// out\n        /* \"#utility.yul\":9418:9559   */\n    tag_133:\n        /* \"#utility.yul\":9467:9471   */\n      0x00\n        /* \"#utility.yul\":9490:9493   */\n      dup2\n        /* \"#utility.yul\":9482:9493   */\n      swap1\n      pop\n        /* \"#utility.yul\":9513:9516   */\n      dup2\n        /* \"#utility.yul\":9510:9511   */\n      0x00\n        /* \"#utility.yul\":9503:9517   */\n      mstore\n        /* \"#utility.yul\":9547:9551   */\n      0x20\n        /* \"#utility.yul\":9544:9545   */\n      0x00\n        /* \"#utility.yul\":9534:9552   */\n      keccak256\n        /* \"#utility.yul\":9526:9552   */\n      swap1\n      pop\n        /* \"#utility.yul\":9418:9559   */\n      swap2\n      swap1\n      pop\n      jump\t// out\n        /* \"#utility.yul\":9565:9658   */\n    tag_134:\n        /* \"#utility.yul\":9602:9608   */\n      0x00\n        /* \"#utility.yul\":9649:9651   */\n      0x20\n        /* \"#utility.yul\":9644:9646   */\n      0x1f\n        /* \"#utility.yul\":9637:9642   */\n      dup4\n        /* \"#utility.yul\":9633:9647   */\n      add\n        /* \"#utility.yul\":9629:9652   */\n      div\n        /* \"#utility.yul\":9619:9652   */\n      swap1\n      pop\n        /* \"#utility.yul\":9565:9658   */\n      swap2\n      swap1\n      pop\n      jump\t// out\n        /* \"#utility.yul\":9664:9771   */\n    tag_135:\n        /* \"#utility.yul\":9708:9716   */\n      0x00\n        /* \"#utility.yul\":9758:9763   */\n      dup3\n        /* \"#utility.yul\":9752:9756   */\n      dup3\n        /* \"#utility.yul\":9748:9764   */\n      shl\n        /* \"#utility.yul\":9727:9764   */\n      swap1\n      pop\n        /* \"#utility.yul\":9664:9771   */\n      swap3\n      swap2\n      pop\n      pop\n      jump\t// out\n        /* \"#utility.yul\":9777:10170   */\n    tag_136:\n        /* \"#utility.yul\":9846:9852   */\n      0x00\n        /* \"#utility.yul\":9896:9897   */\n      0x08\n        /* \"#utility.yul\":9884:9894   */\n      dup4\n        /* \"#utility.yul\":9880:9898   */\n      mul\n        /* \"#utility.yul\":9919:10016   */\n      tag_256\n        /* \"#utility.yul\":9949:10015   */\n      0xffffffffffffffffffffffffffffffffffffffffffffffffffffffffffffffff\n        /* \"#utility.yul\":9938:9947   */\n      dup3\n        /* \"#utility.yul\":9919:10016   */\n      tag_135\n      jump\t// in\n    tag_256:\n        /* \"#utility.yul\":10037:10076   */\n      tag_257\n        /* \"#utility.yul\":10067:10075   */\n      dup7\n        /* \"#utility.yul\":10056:10065   */\n      dup4\n        /* \"#utility.yul\":10037:10076   */\n      tag_135\n      jump\t// in\n    tag_257:\n        /* \"#utility.yul\":10025:10076   */\n      swap6\n      pop\n        /* \"#utility.yul\":10109:10113   */\n      dup1\n        /* \"#utility.yul\":10105:10114   */\n      not\n        /* \"#utility.yul\":10098:10103   */\n      dup5\n        /* \"#utility.yul\":10094:10115   */\n      and\n        /* \"#utility.yul\":10085:10115   */\n      swap4\n      pop\n        /* \"#utility.yul\":10158:10162   */\n      dup1\n        /* \"#utility.yul\":10148:10156   */\n      dup7\n        /* \"#utility.yul\":10144:10163   */\n      and\n        /* \"#utility.yul\":10137:10142   */\n      dup5\n        /* \"#utility.yul\":10134:10164   */\n      or\n        /* \"#utility.yul\":10124:10164   */\n      swap3\n      pop\n        /* \"#utility.yul\":9853:10170   */\n      pop\n      pop\n        /* \"#utility.yul\":9777:10170   */\n      swap4\n      swap3\n      pop\n      pop\n      pop\n      jump\t// out\n        /* \"#utility.yul\":10176:10236   */\n    tag_137:\n        /* \"#utility.yul\":10204:10207   */\n      0x00\n        /* \"#utility.yul\":10225:10230   */\n      dup2\n        /* \"#utility.yul\":10218:10230   */\n      swap1\n      pop\n        /* \"#utility.yul\":10176:10236   */\n      swap2\n      swap1\n      pop\n      jump\t// out\n        /* \"#utility.yul\":10242:10384   */\n    tag_138:\n        /* \"#utility.yul\":10292:10301   */\n      0x00\n        /* \"#utility.yul\":10325:10378   */\n      tag_260\n        /* \"#utility.yul\":10343:10377   */\n      tag_261\n        /* \"#utility.yul\":10352:10376   */\n      tag_262\n        /* \"#utility.yul\":10370:10375   */\n      dup5\n        /* \"#utility.yul\":10352:10376   */\n      tag_115\n      jump\t// in\n    tag_262:\n        /* \"#utility.yul\":10343:10377   */\n      tag_137\n      jump\t// in\n    tag_261:\n        /* \"#utility.yul\":10325:10378   */\n      tag_115\n      jump\t// in\n    tag_260:\n        /* \"#utility.yul\":10312:10378   */\n      swap1\n      pop\n        /* \"#utility.yul\":10242:10384   */\n      swap2\n      swap1\n      pop\n      jump\t// out\n        /* \"#utility.yul\":10390:10465   */\n    tag_139:\n        /* \"#utility.yul\":10433:10436   */\n      0x00\n        /* \"#utility.yul\":10454:10459   */\n      dup2\n        /* \"#utility.yul\":10447:10459   */\n      swap1\n      pop\n        /* \"#utility.yul\":10390:10465   */\n      swap2\n      swap1\n      pop\n      jump\t// out\n        /* \"#utility.yul\":10471:10740   */\n    tag_140:\n        /* \"#utility.yul\":10581:10620   */\n      tag_265\n        /* \"#utility.yul\":10612:10619   */\n      dup4\n        /* \"#utility.yul\":10581:10620   */\n      tag_138\n      jump\t// in\n    tag_265:\n        /* \"#utility.yul\":10642:10733   */\n      tag_266\n        /* \"#utility.yul\":10691:10732   */\n      tag_267\n        /* \"#utility.yul\":10715:10731   */\n      dup3\n        /* \"#utility.yul\":10691:10732   */\n      tag_139\n      jump\t// in\n    tag_267:\n        /* \"#utility.yul\":10683:10689   */\n      dup5\n        /* \"#utility.yul\":10676:10680   */\n      dup5\n        /* \"#utility.yul\":10670:10681   */\n      sload\n        /* \"#utility.yul\":10642:10733   */\n      tag_136\n      jump\t// in\n    tag_266:\n        /* \"#utility.yul\":10636:10640   */\n      dup3\n        /* \"#utility.yul\":10629:10734   */\n      sstore\n        /* \"#utility.yul\":10547:10740   */\n      pop\n        /* \"#utility.yul\":10471:10740   */\n      pop\n      pop\n      pop\n      jump\t// out\n        /* \"#utility.yul\":10746:10819   */\n    tag_141:\n        /* \"#utility.yul\":10791:10794   */\n      0x00\n        /* \"#utility.yul\":10746:10819   */\n      swap1\n      jump\t// out\n        /* \"#utility.yul\":10825:11014   */\n    tag_142:\n        /* \"#utility.yul\":10902:10934   */\n      tag_270\n      tag_141\n      jump\t// in\n    tag_270:\n        /* \"#utility.yul\":10943:11008   */\n      tag_271\n        /* \"#utility.yul\":11001:11007   */\n      dup2\n        /* \"#utility.yul\":10993:10999   */\n      dup5\n        /* \"#utility.yul\":10987:10991   */\n      dup5\n        /* \"#utility.yul\":10943:11008   */\n      tag_140\n      jump\t// in\n    tag_271:\n        /* \"#utility.yul\":10878:11014   */\n      pop\n        /* \"#utility.yul\":10825:11014   */\n      pop\n      pop\n      jump\t// out\n        /* \"#utility.yul\":11020:11206   */\n    tag_143:\n        /* \"#utility.yul\":11080:11200   */\n    tag_273:\n        /* \"#utility.yul\":11097:11100   */\n      dup2\n        /* \"#utility.yul\":11090:11095   */\n      dup2\n        /* \"#utility.yul\":11087:11101   */\n      lt\n        /* \"#utility.yul\":11080:11200   */\n      iszero\n      tag_275\n      jumpi\n        /* \"#utility.yul\":11151:11190   */\n      tag_276\n        /* \"#utility.yul\":11188:11189   */\n      0x00\n        /* \"#utility.yul\":11181:11186   */\n      dup3\n        /* \"#utility.yul\":11151:11190   */\n      tag_142\n      jump\t// in\n    tag_276:\n        /* \"#utility.yul\":11124:11125   */\n      0x01\n        /* \"#utility.yul\":11117:11122   */\n      dup2\n        /* \"#utility.yul\":11113:11126   */\n      add\n        /* \"#utility.yul\":11104:11126   */\n      swap1\n      pop\n        /* \"#utility.yul\":11080:11200   */\n      jump(tag_273)\n    tag_275:\n        /* \"#utility.yul\":11020:11206   */\n      pop\n      pop\n      jump\t// out\n        /* \"#utility.yul\":11212:11755   */\n    tag_144:\n        /* \"#utility.yul\":11313:11315   */\n      0x1f\n        /* \"#utility.yul\":11308:11311   */\n      dup3\n        /* \"#utility.yul\":11305:11316   */\n      gt\n        /* \"#utility.yul\":11302:11748   */\n      iszero\n      tag_278\n      jumpi\n        /* \"#utility.yul\":11347:11385   */\n      tag_279\n        /* \"#utility.yul\":11379:11384   */\n      dup2\n        /* \"#utility.yul\":11347:11385   */\n      tag_133\n      jump\t// in\n    tag_279:\n        /* \"#utility.yul\":11431:11460   */\n      tag_280\n        /* \"#utility.yul\":11449:11459   */\n      dup5\n        /* \"#utility.yul\":11431:11460   */\n      tag_134\n      jump\t// in\n    tag_280:\n        /* \"#utility.yul\":11421:11429   */\n      dup2\n        /* \"#utility.yul\":11417:11461   */\n      add\n        /* \"#utility.yul\":11614:11616   */\n      0x20\n        /* \"#utility.yul\":11602:11612   */\n      dup6\n        /* \"#utility.yul\":11599:11617   */\n      lt\n        /* \"#utility.yul\":11596:11645   */\n      iszero\n      tag_281\n      jumpi\n        /* \"#utility.yul\":11635:11643   */\n      dup2\n        /* \"#utility.yul\":11620:11643   */\n      swap1\n      pop\n        /* \"#utility.yul\":11596:11645   */\n    tag_281:\n        /* \"#utility.yul\":11658:11738   */\n      tag_282\n        /* \"#utility.yul\":11714:11736   */\n      tag_283\n        /* \"#utility.yul\":11732:11735   */\n      dup6\n        /* \"#utility.yul\":11714:11736   */\n      tag_134\n      jump\t// in\n    tag_283:\n        /* \"#utility.yul\":11704:11712   */\n      dup4\n        /* \"#utility.yul\":11700:11737   */\n      add\n        /* \"#utility.yul\":11687:11698   */\n      dup3\n        /* \"#utility.yul\":11658:11738   */\n      tag_143\n      jump\t// in\n    tag_282:\n        /* \"#utility.yul\":11317:11748   */\n      pop\n      pop\n        /* \"#utility.yul\":11302:11748   */\n    tag_278:\n        /* \"#utility.yul\":11212:11755   */\n      pop\n      pop\n      pop\n      jump\t// out\n        /* \"#utility.yul\":11761:11878   */\n    tag_145:\n        /* \"#utility.yul\":11815:11823   */\n      0x00\n        /* \"#utility.yul\":11865:11870   */\n      dup3\n        /* \"#utility.yul\":11859:11863   */\n      dup3\n        /* \"#utility.yul\":11855:11871   */\n      shr\n        /* \"#utility.yul\":11834:11871   */\n      swap1\n      pop\n        /* \"#utility.yul\":11761:11878   */\n      swap3\n      swap2\n      pop\n      pop\n      jump\t// out\n        /* \"#utility.yul\":11884:12053   */\n    tag_146:\n        /* \"#utility.yul\":11928:11934   */\n      0x00\n        /* \"#utility.yul\":11961:12012   */\n      tag_286\n        /* \"#utility.yul\":12009:12010   */\n      0x00\n        /* \"#utility.yul\":12005:12011   */\n      not\n        /* \"#utility.yul\":11997:12002   */\n      dup5\n        /* \"#utility.yul\":11994:11995   */\n      0x08\n        /* \"#utility.yul\":11990:12003   */\n      mul\n        /* \"#utility.yul\":11961:12012   */\n      tag_145\n      jump\t// in\n    tag_286:\n        /* \"#utility.yul\":11957:12013   */\n      not\n        /* \"#utility.yul\":12042:12046   */\n      dup1\n        /* \"#utility.yul\":12036:12040   */\n      dup4\n        /* \"#utility.yul\":12032:12047   */\n      and\n        /* \"#utility.yul\":12022:12047   */\n      swap2\n      pop\n        /* \"#utility.yul\":11935:12053   */\n      pop\n        /* \"#utility.yul\":11884:12053   */\n      swap3\n      swap2\n      pop\n      pop\n      jump\t// out\n        /* \"#utility.yul\":12058:12353   */\n    tag_147:\n        /* \"#utility.yul\":12134:12138   */\n      0x00\n        /* \"#utility.yul\":12280:12309   */\n      tag_288\n        /* \"#utility.yul\":12305:12308   */\n      dup4\n        /* \"#utility.yul\":12299:12303   */\n      dup4\n        /* \"#utility.yul\":12280:12309   */\n      tag_146\n      jump\t// in\n    tag_288:\n        /* \"#utility.yul\":12272:12309   */\n      swap2\n      pop\n        /* \"#utility.yul\":12342:12345   */\n      dup3\n        /* \"#utility.yul\":12339:12340   */\n      0x02\n        /* \"#utility.yul\":12335:12346   */\n      mul\n        /* \"#utility.yul\":12329:12333   */\n      dup3\n        /* \"#utility.yul\":12326:12347   */\n      or\n        /* \"#utility.yul\":12318:12347   */\n      swap1\n      pop\n        /* \"#utility.yul\":12058:12353   */\n      swap3\n      swap2\n      pop\n      pop\n      jump\t// out\n        /* \"#utility.yul\":12358:13753   */\n    tag_85:\n        /* \"#utility.yul\":12475:12512   */\n      tag_290\n        /* \"#utility.yul\":12508:12511   */\n      dup3\n        /* \"#utility.yul\":12475:12512   */\n      tag_120\n      jump\t// in\n    tag_290:\n        /* \"#utility.yul\":12577:12595   */\n      0xffffffffffffffff\n        /* \"#utility.yul\":12569:12575   */\n      dup2\n        /* \"#utility.yul\":12566:12596   */\n      gt\n        /* \"#utility.yul\":12563:12619   */\n      iszero\n      tag_291\n      jumpi\n        /* \"#utility.yul\":12599:12617   */\n      tag_292\n      tag_110\n      jump\t// in\n    tag_292:\n        /* \"#utility.yul\":12563:12619   */\n    tag_291:\n        /* \"#utility.yul\":12643:12681   */\n      tag_293\n        /* \"#utility.yul\":12675:12679   */\n      dup3\n        /* \"#utility.yul\":12669:12680   */\n      sload\n        /* \"#utility.yul\":12643:12681   */\n      tag_72\n      jump\t// in\n    tag_293:\n        /* \"#utility.yul\":12728:12795   */\n      tag_294\n        /* \"#utility.yul\":12788:12794   */\n      dup3\n        /* \"#utility.yul\":12780:12786   */\n      dup3\n        /* \"#utility.yul\":12774:12778   */\n      dup6\n        /* \"#utility.yul\":12728:12795   */\n      tag_144\n      jump\t// in\n    tag_294:\n        /* \"#utility.yul\":12822:12823   */\n      0x00\n        /* \"#utility.yul\":12846:12850   */\n      0x20\n        /* \"#utility.yul\":12833:12850   */\n      swap1\n      pop\n        /* \"#utility.yul\":12878:12880   */\n      0x1f\n        /* \"#utility.yul\":12870:12876   */\n      dup4\n        /* \"#utility.yul\":12867:12881   */\n      gt\n        /* \"#utility.yul\":12895:12896   */\n      0x01\n        /* \"#utility.yul\":12890:13508   */\n      dup2\n      eq\n      tag_296\n      jumpi\n        /* \"#utility.yul\":13552:13553   */\n      0x00\n        /* \"#utility.yul\":13569:13575   */\n      dup5\n        /* \"#utility.yul\":13566:13643   */\n      iszero\n      tag_297\n      jumpi\n        /* \"#utility.yul\":13618:13627   */\n      dup3\n        /* \"#utility.yul\":13613:13616   */\n      dup8\n        /* \"#utility.yul\":13609:13628   */\n      add\n        /* \"#utility.yul\":13603:13629   */\n      mload\n        /* \"#utility.yul\":13594:13629   */\n      swap1\n      pop\n        /* \"#utility.yul\":13566:13643   */\n    tag_297:\n        /* \"#utility.yul\":13669:13736   */\n      tag_298\n        /* \"#utility.yul\":13729:13735   */\n      dup6\n        /* \"#utility.yul\":13722:13727   */\n      dup3\n        /* \"#utility.yul\":13669:13736   */\n      tag_147\n      jump\t// in\n    tag_298:\n        /* \"#utility.yul\":13663:13667   */\n      dup7\n        /* \"#utility.yul\":13656:13737   */\n      sstore\n        /* \"#utility.yul\":13525:13747   */\n      pop\n        /* \"#utility.yul\":12860:13747   */\n      jump(tag_295)\n        /* \"#utility.yul\":12890:13508   */\n    tag_296:\n        /* \"#utility.yul\":12942:12946   */\n      0x1f\n        /* \"#utility.yul\":12938:12947   */\n      not\n        /* \"#utility.yul\":12930:12936   */\n      dup5\n        /* \"#utility.yul\":12926:12948   */\n      and\n        /* \"#utility.yul\":12976:13013   */\n      tag_299\n        /* \"#utility.yul\":13008:13012   */\n      dup7\n        /* \"#utility.yul\":12976:13013   */\n      tag_133\n      jump\t// in\n    tag_299:\n        /* \"#utility.yul\":13035:13036   */\n      0x00\n        /* \"#utility.yul\":13049:13257   */\n    tag_300:\n        /* \"#utility.yul\":13063:13070   */\n      dup3\n        /* \"#utility.yul\":13060:13061   */\n      dup2\n        /* \"#utility.yul\":13057:13071   */\n      lt\n        /* \"#utility.yul\":13049:13257   */\n      iszero\n      tag_302\n      jumpi\n        /* \"#utility.yul\":13142:13151   */\n      dup5\n        /* \"#utility.yul\":13137:13140   */\n      dup10\n        /* \"#utility.yul\":13133:13152   */\n      add\n        /* \"#utility.yul\":13127:13153   */\n      mload\n        /* \"#utility.yul\":13119:13125   */\n      dup3\n        /* \"#utility.yul\":13112:13154   */\n      sstore\n        /* \"#utility.yul\":13193:13194   */\n      0x01\n        /* \"#utility.yul\":13185:13191   */\n      dup3\n        /* \"#utility.yul\":13181:13195   */\n      add\n        /* \"#utility.yul\":13171:13195   */\n      swap2\n      pop\n        /* \"#utility.yul\":13240:13242   */\n      0x20\n        /* \"#utility.yul\":13229:13238   */\n      dup6\n        /* \"#utility.yul\":13225:13243   */\n      add\n        /* \"#utility.yul\":13212:13243   */\n      swap5\n      pop\n        /* \"#utility.yul\":13086:13090   */\n      0x20\n        /* \"#utility.yul\":13083:13084   */\n      dup2\n        /* \"#utility.yul\":13079:13091   */\n      add\n        /* \"#utility.yul\":13074:13091   */\n      swap1\n      pop\n        /* \"#utility.yul\":13049:13257   */\n      jump(tag_300)\n    tag_302:\n        /* \"#utility.yul\":13285:13291   */\n      dup7\n        /* \"#utility.yul\":13276:13283   */\n      dup4\n        /* \"#utility.yul\":13273:13292   */\n      lt\n        /* \"#utility.yul\":13270:13449   */\n      iszero\n      tag_303\n      jumpi\n        /* \"#utility.yul\":13343:13352   */\n      dup5\n        /* \"#utility.yul\":13338:13341   */\n      dup10\n        /* \"#utility.yul\":13334:13353   */\n      add\n        /* \"#utility.yul\":13328:13354   */\n      mload\n        /* \"#utility.yul\":13386:13434   */\n      tag_304\n        /* \"#utility.yul\":13428:13432   */\n      0x1f\n        /* \"#utility.yul\":13420:13426   */\n      dup10\n        /* \"#utility.yul\":13416:13433   */\n      and\n        /* \"#utility.yul\":13405:13414   */\n      dup3\n        /* \"#utility.yul\":13386:13434   */\n      tag_146\n      jump\t// in\n    tag_304:\n        /* \"#utility.yul\":13378:13384   */\n      dup4\n        /* \"#utility.yul\":13371:13435   */\n      sstore\n        /* \"#utility.yul\":13293:13449   */\n      pop\n        /* \"#utility.yul\":13270:13449   */\n    tag_303:\n        /* \"#utility.yul\":13495:13496   */\n      0x01\n        /* \"#utility.yul\":13491:13492   */\n      0x02\n        /* \"#utility.yul\":13483:13489   */\n      dup9\n        /* \"#utility.yul\":13479:13493   */\n      mul\n        /* \"#utility.yul\":13475:13497   */\n      add\n        /* \"#utility.yul\":13469:13473   */\n      dup9\n        /* \"#utility.yul\":13462:13498   */\n      sstore\n        /* \"#utility.yul\":12897:13508   */\n      pop\n      pop\n      pop\n        /* \"#utility.yul\":12860:13747   */\n    tag_295:\n      pop\n        /* \"#utility.yul\":12450:13753   */\n      pop\n      pop\n      pop\n        /* \"#utility.yul\":12358:13753   */\n      pop\n      pop\n      jump\t// out\n\n    auxdata: 0xa2646970667358221220de1093f6a9d14258414ea4b143f92c757dd50be92e12c0b68cb2e74f084149fc64736f6c63430008160033\n}\n",
				"bytecode": {
					"linkReferences": {},
					"object": "608060405260015f55600260015560036002556004600355348015610022575f80fd5b50610cad806100305f395ff3fe608060405234801561000f575f80fd5b50600436106100cd575f3560e01c8063adb29fac1161008a578063d4f772cb11610064578063d4f772cb146101fc578063d8e2ecd01461021c578063eaa7cad214610238578063edb35ce814610254576100cd565b8063adb29fac146101a3578063b83cc043146101bf578063c736694e146101db576100cd565b80631512d45e146100d157806336adb5e3146100ed578063539d0b4f1461010957806355031cd5146101395780638a054ac214610169578063a9b09cbc14610187575b5f80fd5b6100eb60048036038101906100e691906106d9565b610270565b005b610107600480360381019061010291906106d9565b61028a565b005b610123600480360381019061011e9190610720565b6102a4565b60405161013091906107c5565b60405180910390f35b610153600480360381019061014e9190610720565b61033f565b60405161016091906107f4565b60405180910390f35b61017161035f565b60405161017e91906107f4565b60405180910390f35b6101a1600480360381019061019c91906106d9565b610365565b005b6101bd60048036038101906101b891906106d9565b61037f565b005b6101d960048036038101906101d491906108bd565b610399565b005b6101e36103bc565b6040516101f39493929190610917565b60405180910390f35b6102046103d9565b60405161021393929190610972565b60405180910390f35b610236600480360381019061023191906108bd565b610476565b005b610252600480360381019061024d91906108bd565b610499565b005b61026e600480360381019061026991906108bd565b6104bc565b005b80600690805190602001906102869291906104df565b5050565b80600590805190602001906102a09291906104df565b5050565b600b602052805f5260405f205f9150905080546102c0906109db565b80601f01602080910402602001604051908101604052809291908181526020018280546102ec906109db565b80156103375780601f1061030e57610100808354040283529160200191610337565b820191905f5260205f20905b81548152906001019060200180831161031a57829003601f168201915b505050505081565b6007818154811061034e575f80fd5b905f5260205f20015f915090505481565b60035481565b806004908051906020019061037b9291906104df565b5050565b80600790805190602001906103959291906104df565b5050565b8060095f8481526020019081526020015f2090816103b79190610ba8565b505050565b5f805f805f54600154600254600354935093509350935090919293565b6015805f0154908060010180546103ef906109db565b80601f016020809104026020016040519081016040528092919081815260200182805461041b906109db565b80156104665780601f1061043d57610100808354040283529160200191610466565b820191905f5260205f20905b81548152906001019060200180831161044957829003601f168201915b5050505050908060020154905083565b80600b5f8481526020019081526020015f2090816104949190610ba8565b505050565b80600a5f8481526020019081526020015f2090816104b79190610ba8565b505050565b8060085f8481526020019081526020015f2090816104da9190610ba8565b505050565b828054828255905f5260205f20908101928215610519579160200282015b828111156105185782518255916020019190600101906104fd565b5b509050610526919061052a565b5090565b5b80821115610541575f815f90555060010161052b565b5090565b5f604051905090565b5f80fd5b5f80fd5b5f80fd5b5f601f19601f8301169050919050565b7f4e487b71000000000000000000000000000000000000000000000000000000005f52604160045260245ffd5b6105a08261055a565b810181811067ffffffffffffffff821117156105bf576105be61056a565b5b80604052505050565b5f6105d1610545565b90506105dd8282610597565b919050565b5f67ffffffffffffffff8211156105fc576105fb61056a565b5b602082029050602081019050919050565b5f80fd5b5f819050919050565b61062381610611565b811461062d575f80fd5b50565b5f8135905061063e8161061a565b92915050565b5f610656610651846105e2565b6105c8565b905080838252602082019050602084028301858111156106795761067861060d565b5b835b818110156106a2578061068e8882610630565b84526020840193505060208101905061067b565b5050509392505050565b5f82601f8301126106c0576106bf610556565b5b81356106d0848260208601610644565b91505092915050565b5f602082840312156106ee576106ed61054e565b5b5f82013567ffffffffffffffff81111561070b5761070a610552565b5b610717848285016106ac565b91505092915050565b5f602082840312156107355761073461054e565b5b5f61074284828501610630565b91505092915050565b5f81519050919050565b5f82825260208201905092915050565b5f5b83811015610782578082015181840152602081019050610767565b5f8484015250505050565b5f6107978261074b565b6107a18185610755565b93506107b1818560208601610765565b6107ba8161055a565b840191505092915050565b5f6020820190508181035f8301526107dd818461078d565b905092915050565b6107ee81610611565b82525050565b5f6020820190506108075f8301846107e5565b92915050565b5f80fd5b5f67ffffffffffffffff82111561082b5761082a61056a565b5b6108348261055a565b9050602081019050919050565b828183375f83830152505050565b5f61086161085c84610811565b6105c8565b90508281526020810184848401111561087d5761087c61080d565b5b610888848285610841565b509392505050565b5f82601f8301126108a4576108a3610556565b5b81356108b484826020860161084f565b91505092915050565b5f80604083850312156108d3576108d261054e565b5b5f6108e085828601610630565b925050602083013567ffffffffffffffff81111561090157610900610552565b5b61090d85828601610890565b9150509250929050565b5f60808201905061092a5f8301876107e5565b61093760208301866107e5565b61094460408301856107e5565b61095160608301846107e5565b95945050505050565b5f819050919050565b61096c8161095a565b82525050565b5f6060820190506109855f8301866107e5565b8181036020830152610997818561078d565b90506109a66040830184610963565b949350505050565b7f4e487b71000000000000000000000000000000000000000000000000000000005f52602260045260245ffd5b5f60028204905060018216806109f257607f821691505b602082108103610a0557610a046109ae565b5b50919050565b5f819050815f5260205f209050919050565b5f6020601f8301049050919050565b5f82821b905092915050565b5f60088302610a677fffffffffffffffffffffffffffffffffffffffffffffffffffffffffffffffff82610a2c565b610a718683610a2c565b95508019841693508086168417925050509392505050565b5f819050919050565b5f610aac610aa7610aa284610611565b610a89565b610611565b9050919050565b5f819050919050565b610ac583610a92565b610ad9610ad182610ab3565b848454610a38565b825550505050565b5f90565b610aed610ae1565b610af8818484610abc565b505050565b5b81811015610b1b57610b105f82610ae5565b600181019050610afe565b5050565b601f821115610b6057610b3181610a0b565b610b3a84610a1d565b81016020851015610b49578190505b610b5d610b5585610a1d565b830182610afd565b50505b505050565b5f82821c905092915050565b5f610b805f1984600802610b65565b1980831691505092915050565b5f610b988383610b71565b9150826002028217905092915050565b610bb18261074b565b67ffffffffffffffff811115610bca57610bc961056a565b5b610bd482546109db565b610bdf828285610b1f565b5f60209050601f831160018114610c10575f8415610bfe578287015190505b610c088582610b8d565b865550610c6f565b601f198416610c1e86610a0b565b5f5b82811015610c4557848901518255600182019150602085019450602081019050610c20565b86831015610c625784890151610c5e601f891682610b71565b8355505b6001600288020188555050505b50505050505056fea2646970667358221220de1093f6a9d14258414ea4b143f92c757dd50be92e12c0b68cb2e74f084149fc64736f6c63430008160033",
					"opcodes": "PUSH1 0x80 PUSH1 0x40 MSTORE PUSH1 0x1 PUSH0 SSTORE PUSH1 0x2 PUSH1 0x1 SSTORE PUSH1 0x3 PUSH1 0x2 SSTORE PUSH1 0x4 PUSH1 0x3 SSTORE CALLVALUE DUP1 ISZERO PUSH2 0x22 JUMPI PUSH0 DUP1 REVERT JUMPDEST POP PUSH2 0xCAD DUP1 PUSH2 0x30 PUSH0 CODECOPY PUSH0 RETURN INVALID PUSH1 0x80 PUSH1 0x40 MSTORE CALLVALUE DUP1 ISZERO PUSH2 0xF JUMPI PUSH0 DUP1 REVERT JUMPDEST POP PUSH1 0x4 CALLDATASIZE LT PUSH2 0xCD JUMPI PUSH0 CALLDATALOAD PUSH1 0xE0 SHR DUP1 PUSH4 0xADB29FAC GT PUSH2 0x8A JUMPI DUP1 PUSH4 0xD4F772CB GT PUSH2 0x64 JUMPI DUP1 PUSH4 0xD4F772CB EQ PUSH2 0x1FC JUMPI DUP1 PUSH4 0xD8E2ECD0 EQ PUSH2 0x21C JUMPI DUP1 PUSH4 0xEAA7CAD2 EQ PUSH2 0x238 JUMPI DUP1 PUSH4 0xEDB35CE8 EQ PUSH2 0x254 JUMPI PUSH2 0xCD JUMP JUMPDEST DUP1 PUSH4 0xADB29FAC EQ PUSH2 0x1A3 JUMPI DUP1 PUSH4 0xB83CC043 EQ PUSH2 0x1BF JUMPI DUP1 PUSH4 0xC736694E EQ PUSH2 0x1DB JUMPI PUSH2 0xCD JUMP JUMPDEST DUP1 PUSH4 0x1512D45E EQ PUSH2 0xD1 JUMPI DUP1 PUSH4 0x36ADB5E3 EQ PUSH2 0xED JUMPI DUP1 PUSH4 0x539D0B4F EQ PUSH2 0x109 JUMPI DUP1 PUSH4 0x55031CD5 EQ PUSH2 0x139 JUMPI DUP1 PUSH4 0x8A054AC2 EQ PUSH2 0x169 JUMPI DUP1 PUSH4 0xA9B09CBC EQ PUSH2 0x187 JUMPI JUMPDEST PUSH0 DUP1 REVERT JUMPDEST PUSH2 0xEB PUSH1 0x4 DUP1 CALLDATASIZE SUB DUP2 ADD SWAP1 PUSH2 0xE6 SWAP2 SWAP1 PUSH2 0x6D9 JUMP JUMPDEST PUSH2 0x270 JUMP JUMPDEST STOP JUMPDEST PUSH2 0x107 PUSH1 0x4 DUP1 CALLDATASIZE SUB DUP2 ADD SWAP1 PUSH2 0x102 SWAP2 SWAP1 PUSH2 0x6D9 JUMP JUMPDEST PUSH2 0x28A JUMP JUMPDEST STOP JUMPDEST PUSH2 0x123 PUSH1 0x4 DUP1 CALLDATASIZE SUB DUP2 ADD SWAP1 PUSH2 0x11E SWAP2 SWAP1 PUSH2 0x720 JUMP JUMPDEST PUSH2 0x2A4 JUMP JUMPDEST PUSH1 0x40 MLOAD PUSH2 0x130 SWAP2 SWAP1 PUSH2 0x7C5 JUMP JUMPDEST PUSH1 0x40 MLOAD DUP1 SWAP2 SUB SWAP1 RETURN JUMPDEST PUSH2 0x153 PUSH1 0x4 DUP1 CALLDATASIZE SUB DUP2 ADD SWAP1 PUSH2 0x14E SWAP2 SWAP1 PUSH2 0x720 JUMP JUMPDEST PUSH2 0x33F JUMP JUMPDEST PUSH1 0x40 MLOAD PUSH2 0x160 SWAP2 SWAP1 PUSH2 0x7F4 JUMP JUMPDEST PUSH1 0x40 MLOAD DUP1 SWAP2 SUB SWAP1 RETURN JUMPDEST PUSH2 0x171 PUSH2 0x35F JUMP JUMPDEST PUSH1 0x40 MLOAD PUSH2 0x17E SWAP2 SWAP1 PUSH2 0x7F4 JUMP JUMPDEST PUSH1 0x40 MLOAD DUP1 SWAP2 SUB SWAP1 RETURN JUMPDEST PUSH2 0x1A1 PUSH1 0x4 DUP1 CALLDATASIZE SUB DUP2 ADD SWAP1 PUSH2 0x19C SWAP2 SWAP1 PUSH2 0x6D9 JUMP JUMPDEST PUSH2 0x365 JUMP JUMPDEST STOP JUMPDEST PUSH2 0x1BD PUSH1 0x4 DUP1 CALLDATASIZE SUB DUP2 ADD SWAP1 PUSH2 0x1B8 SWAP2 SWAP1 PUSH2 0x6D9 JUMP JUMPDEST PUSH2 0x37F JUMP JUMPDEST STOP JUMPDEST PUSH2 0x1D9 PUSH1 0x4 DUP1 CALLDATASIZE SUB DUP2 ADD SWAP1 PUSH2 0x1D4 SWAP2 SWAP1 PUSH2 0x8BD JUMP JUMPDEST PUSH2 0x399 JUMP JUMPDEST STOP JUMPDEST PUSH2 0x1E3 PUSH2 0x3BC JUMP JUMPDEST PUSH1 0x40 MLOAD PUSH2 0x1F3 SWAP5 SWAP4 SWAP3 SWAP2 SWAP1 PUSH2 0x917 JUMP JUMPDEST PUSH1 0x40 MLOAD DUP1 SWAP2 SUB SWAP1 RETURN JUMPDEST PUSH2 0x204 PUSH2 0x3D9 JUMP JUMPDEST PUSH1 0x40 MLOAD PUSH2 0x213 SWAP4 SWAP3 SWAP2 SWAP1 PUSH2 0x972 JUMP JUMPDEST PUSH1 0x40 MLOAD DUP1 SWAP2 SUB SWAP1 RETURN JUMPDEST PUSH2 0x236 PUSH1 0x4 DUP1 CALLDATASIZE SUB DUP2 ADD SWAP1 PUSH2 0x231 SWAP2 SWAP1 PUSH2 0x8BD JUMP JUMPDEST PUSH2 0x476 JUMP JUMPDEST STOP JUMPDEST PUSH2 0x252 PUSH1 0x4 DUP1 CALLDATASIZE SUB DUP2 ADD SWAP1 PUSH2 0x24D SWAP2 SWAP1 PUSH2 0x8BD JUMP JUMPDEST PUSH2 0x499 JUMP JUMPDEST STOP JUMPDEST PUSH2 0x26E PUSH1 0x4 DUP1 CALLDATASIZE SUB DUP2 ADD SWAP1 PUSH2 0x269 SWAP2 SWAP1 PUSH2 0x8BD JUMP JUMPDEST PUSH2 0x4BC JUMP JUMPDEST STOP JUMPDEST DUP1 PUSH1 0x6 SWAP1 DUP1 MLOAD SWAP1 PUSH1 0x20 ADD SWAP1 PUSH2 0x286 SWAP3 SWAP2 SWAP1 PUSH2 0x4DF JUMP JUMPDEST POP POP JUMP JUMPDEST DUP1 PUSH1 0x5 SWAP1 DUP1 MLOAD SWAP1 PUSH1 0x20 ADD SWAP1 PUSH2 0x2A0 SWAP3 SWAP2 SWAP1 PUSH2 0x4DF JUMP JUMPDEST POP POP JUMP JUMPDEST PUSH1 0xB PUSH1 0x20 MSTORE DUP1 PUSH0 MSTORE PUSH1 0x40 PUSH0 KECCAK256 PUSH0 SWAP2 POP SWAP1 POP DUP1 SLOAD PUSH2 0x2C0 SWAP1 PUSH2 0x9DB JUMP JUMPDEST DUP1 PUSH1 0x1F ADD PUSH1 0x20 DUP1 SWAP2 DIV MUL PUSH1 0x20 ADD PUSH1 0x40 MLOAD SWAP1 DUP2 ADD PUSH1 0x40 MSTORE DUP1 SWAP3 SWAP2 SWAP1 DUP2 DUP2 MSTORE PUSH1 0x20 ADD DUP3 DUP1 SLOAD PUSH2 0x2EC SWAP1 PUSH2 0x9DB JUMP JUMPDEST DUP1 ISZERO PUSH2 0x337 JUMPI DUP1 PUSH1 0x1F LT PUSH2 0x30E JUMPI PUSH2 0x100 DUP1 DUP4 SLOAD DIV MUL DUP4 MSTORE SWAP2 PUSH1 0x20 ADD SWAP2 PUSH2 0x337 JUMP JUMPDEST DUP3 ADD SWAP2 SWAP1 PUSH0 MSTORE PUSH1 0x20 PUSH0 KECCAK256 SWAP1 JUMPDEST DUP2 SLOAD DUP2 MSTORE SWAP1 PUSH1 0x1 ADD SWAP1 PUSH1 0x20 ADD DUP1 DUP4 GT PUSH2 0x31A JUMPI DUP3 SWAP1 SUB PUSH1 0x1F AND DUP3 ADD SWAP2 JUMPDEST POP POP POP POP POP DUP2 JUMP JUMPDEST PUSH1 0x7 DUP2 DUP2 SLOAD DUP2 LT PUSH2 0x34E JUMPI PUSH0 DUP1 REVERT JUMPDEST SWAP1 PUSH0 MSTORE PUSH1 0x20 PUSH0 KECCAK256 ADD PUSH0 SWAP2 POP SWAP1 POP SLOAD DUP2 JUMP JUMPDEST PUSH1 0x3 SLOAD DUP2 JUMP JUMPDEST DUP1 PUSH1 0x4 SWAP1 DUP1 MLOAD SWAP1 PUSH1 0x20 ADD SWAP1 PUSH2 0x37B SWAP3 SWAP2 SWAP1 PUSH2 0x4DF JUMP JUMPDEST POP POP JUMP JUMPDEST DUP1 PUSH1 0x7 SWAP1 DUP1 MLOAD SWAP1 PUSH1 0x20 ADD SWAP1 PUSH2 0x395 SWAP3 SWAP2 SWAP1 PUSH2 0x4DF JUMP JUMPDEST POP POP JUMP JUMPDEST DUP1 PUSH1 0x9 PUSH0 DUP5 DUP2 MSTORE PUSH1 0x20 ADD SWAP1 DUP2 MSTORE PUSH1 0x20 ADD PUSH0 KECCAK256 SWAP1 DUP2 PUSH2 0x3B7 SWAP2 SWAP1 PUSH2 0xBA8 JUMP JUMPDEST POP POP POP JUMP JUMPDEST PUSH0 DUP1 PUSH0 DUP1 PUSH0 SLOAD PUSH1 0x1 SLOAD PUSH1 0x2 SLOAD PUSH1 0x3 SLOAD SWAP4 POP SWAP4 POP SWAP4 POP SWAP4 POP SWAP1 SWAP2 SWAP3 SWAP4 JUMP JUMPDEST PUSH1 0x15 DUP1 PUSH0 ADD SLOAD SWAP1 DUP1 PUSH1 0x1 ADD DUP1 SLOAD PUSH2 0x3EF SWAP1 PUSH2 0x9DB JUMP JUMPDEST DUP1 PUSH1 0x1F ADD PUSH1 0x20 DUP1 SWAP2 DIV MUL PUSH1 0x20 ADD PUSH1 0x40 MLOAD SWAP1 DUP2 ADD PUSH1 0x40 MSTORE DUP1 SWAP3 SWAP2 SWAP1 DUP2 DUP2 MSTORE PUSH1 0x20 ADD DUP3 DUP1 SLOAD PUSH2 0x41B SWAP1 PUSH2 0x9DB JUMP JUMPDEST DUP1 ISZERO PUSH2 0x466 JUMPI DUP1 PUSH1 0x1F LT PUSH2 0x43D JUMPI PUSH2 0x100 DUP1 DUP4 SLOAD DIV MUL DUP4 MSTORE SWAP2 PUSH1 0x20 ADD SWAP2 PUSH2 0x466 JUMP JUMPDEST DUP3 ADD SWAP2 SWAP1 PUSH0 MSTORE PUSH1 0x20 PUSH0 KECCAK256 SWAP1 JUMPDEST DUP2 SLOAD DUP2 MSTORE SWAP1 PUSH1 0x1 ADD SWAP1 PUSH1 0x20 ADD DUP1 DUP4 GT PUSH2 0x449 JUMPI DUP3 SWAP1 SUB PUSH1 0x1F AND DUP3 ADD SWAP2 JUMPDEST POP POP POP POP POP SWAP1 DUP1 PUSH1 0x2 ADD SLOAD SWAP1 POP DUP4 JUMP JUMPDEST DUP1 PUSH1 0xB PUSH0 DUP5 DUP2 MSTORE PUSH1 0x20 ADD SWAP1 DUP2 MSTORE PUSH1 0x20 ADD PUSH0 KECCAK256 SWAP1 DUP2 PUSH2 0x494 SWAP2 SWAP1 PUSH2 0xBA8 JUMP JUMPDEST POP POP POP JUMP JUMPDEST DUP1 PUSH1 0xA PUSH0 DUP5 DUP2 MSTORE PUSH1 0x20 ADD SWAP1 DUP2 MSTORE PUSH1 0x20 ADD PUSH0 KECCAK256 SWAP1 DUP2 PUSH2 0x4B7 SWAP2 SWAP1 PUSH2 0xBA8 JUMP JUMPDEST POP POP POP JUMP JUMPDEST DUP1 PUSH1 0x8 PUSH0 DUP5 DUP2 MSTORE PUSH1 0x20 ADD SWAP1 DUP2 MSTORE PUSH1 0x20 ADD PUSH0 KECCAK256 SWAP1 DUP2 PUSH2 0x4DA SWAP2 SWAP1 PUSH2 0xBA8 JUMP JUMPDEST POP POP POP JUMP JUMPDEST DUP3 DUP1 SLOAD DUP3 DUP3 SSTORE SWAP1 PUSH0 MSTORE PUSH1 0x20 PUSH0 KECCAK256 SWAP1 DUP2 ADD SWAP3 DUP3 ISZERO PUSH2 0x519 JUMPI SWAP2 PUSH1 0x20 MUL DUP3 ADD JUMPDEST DUP3 DUP2 GT ISZERO PUSH2 0x518 JUMPI DUP3 MLOAD DUP3 SSTORE SWAP2 PUSH1 0x20 ADD SWAP2 SWAP1 PUSH1 0x1 ADD SWAP1 PUSH2 0x4FD JUMP JUMPDEST JUMPDEST POP SWAP1 POP PUSH2 0x526 SWAP2 SWAP1 PUSH2 0x52A JUMP JUMPDEST POP SWAP1 JUMP JUMPDEST JUMPDEST DUP1 DUP3 GT ISZERO PUSH2 0x541 JUMPI PUSH0 DUP2 PUSH0 SWAP1 SSTORE POP PUSH1 0x1 ADD PUSH2 0x52B JUMP JUMPDEST POP SWAP1 JUMP JUMPDEST PUSH0 PUSH1 0x40 MLOAD SWAP1 POP SWAP1 JUMP JUMPDEST PUSH0 DUP1 REVERT JUMPDEST PUSH0 DUP1 REVERT JUMPDEST PUSH0 DUP1 REVERT JUMPDEST PUSH0 PUSH1 0x1F NOT PUSH1 0x1F DUP4 ADD AND SWAP1 POP SWAP2 SWAP1 POP JUMP JUMPDEST PUSH32 0x4E487B7100000000000000000000000000000000000000000000000000000000 PUSH0 MSTORE PUSH1 0x41 PUSH1 0x4 MSTORE PUSH1 0x24 PUSH0 REVERT JUMPDEST PUSH2 0x5A0 DUP3 PUSH2 0x55A JUMP JUMPDEST DUP2 ADD DUP2 DUP2 LT PUSH8 0xFFFFFFFFFFFFFFFF DUP3 GT OR ISZERO PUSH2 0x5BF JUMPI PUSH2 0x5BE PUSH2 0x56A JUMP JUMPDEST JUMPDEST DUP1 PUSH1 0x40 MSTORE POP POP POP JUMP JUMPDEST PUSH0 PUSH2 0x5D1 PUSH2 0x545 JUMP JUMPDEST SWAP1 POP PUSH2 0x5DD DUP3 DUP3 PUSH2 0x597 JUMP JUMPDEST SWAP2 SWAP1 POP JUMP JUMPDEST PUSH0 PUSH8 0xFFFFFFFFFFFFFFFF DUP3 GT ISZERO PUSH2 0x5FC JUMPI PUSH2 0x5FB PUSH2 0x56A JUMP JUMPDEST JUMPDEST PUSH1 0x20 DUP3 MUL SWAP1 POP PUSH1 0x20 DUP2 ADD SWAP1 POP SWAP2 SWAP1 POP JUMP JUMPDEST PUSH0 DUP1 REVERT JUMPDEST PUSH0 DUP2 SWAP1 POP SWAP2 SWAP1 POP JUMP JUMPDEST PUSH2 0x623 DUP2 PUSH2 0x611 JUMP JUMPDEST DUP2 EQ PUSH2 0x62D JUMPI PUSH0 DUP1 REVERT JUMPDEST POP JUMP JUMPDEST PUSH0 DUP2 CALLDATALOAD SWAP1 POP PUSH2 0x63E DUP2 PUSH2 0x61A JUMP JUMPDEST SWAP3 SWAP2 POP POP JUMP JUMPDEST PUSH0 PUSH2 0x656 PUSH2 0x651 DUP5 PUSH2 0x5E2 JUMP JUMPDEST PUSH2 0x5C8 JUMP JUMPDEST SWAP1 POP DUP1 DUP4 DUP3 MSTORE PUSH1 0x20 DUP3 ADD SWAP1 POP PUSH1 0x20 DUP5 MUL DUP4 ADD DUP6 DUP2 GT ISZERO PUSH2 0x679 JUMPI PUSH2 0x678 PUSH2 0x60D JUMP JUMPDEST JUMPDEST DUP4 JUMPDEST DUP2 DUP2 LT ISZERO PUSH2 0x6A2 JUMPI DUP1 PUSH2 0x68E DUP9 DUP3 PUSH2 0x630 JUMP JUMPDEST DUP5 MSTORE PUSH1 0x20 DUP5 ADD SWAP4 POP POP PUSH1 0x20 DUP2 ADD SWAP1 POP PUSH2 0x67B JUMP JUMPDEST POP POP POP SWAP4 SWAP3 POP POP POP JUMP JUMPDEST PUSH0 DUP3 PUSH1 0x1F DUP4 ADD SLT PUSH2 0x6C0 JUMPI PUSH2 0x6BF PUSH2 0x556 JUMP JUMPDEST JUMPDEST DUP2 CALLDATALOAD PUSH2 0x6D0 DUP5 DUP3 PUSH1 0x20 DUP7 ADD PUSH2 0x644 JUMP JUMPDEST SWAP2 POP POP SWAP3 SWAP2 POP POP JUMP JUMPDEST PUSH0 PUSH1 0x20 DUP3 DUP5 SUB SLT ISZERO PUSH2 0x6EE JUMPI PUSH2 0x6ED PUSH2 0x54E JUMP JUMPDEST JUMPDEST PUSH0 DUP3 ADD CALLDATALOAD PUSH8 0xFFFFFFFFFFFFFFFF DUP2 GT ISZERO PUSH2 0x70B JUMPI PUSH2 0x70A PUSH2 0x552 JUMP JUMPDEST JUMPDEST PUSH2 0x717 DUP5 DUP3 DUP6 ADD PUSH2 0x6AC JUMP JUMPDEST SWAP2 POP POP SWAP3 SWAP2 POP POP JUMP JUMPDEST PUSH0 PUSH1 0x20 DUP3 DUP5 SUB SLT ISZERO PUSH2 0x735 JUMPI PUSH2 0x734 PUSH2 0x54E JUMP JUMPDEST JUMPDEST PUSH0 PUSH2 0x742 DUP5 DUP3 DUP6 ADD PUSH2 0x630 JUMP JUMPDEST SWAP2 POP POP SWAP3 SWAP2 POP POP JUMP JUMPDEST PUSH0 DUP2 MLOAD SWAP1 POP SWAP2 SWAP1 POP JUMP JUMPDEST PUSH0 DUP3 DUP3 MSTORE PUSH1 0x20 DUP3 ADD SWAP1 POP SWAP3 SWAP2 POP POP JUMP JUMPDEST PUSH0 JUMPDEST DUP4 DUP2 LT ISZERO PUSH2 0x782 JUMPI DUP1 DUP3 ADD MLOAD DUP2 DUP5 ADD MSTORE PUSH1 0x20 DUP2 ADD SWAP1 POP PUSH2 0x767 JUMP JUMPDEST PUSH0 DUP5 DUP5 ADD MSTORE POP POP POP POP JUMP JUMPDEST PUSH0 PUSH2 0x797 DUP3 PUSH2 0x74B JUMP JUMPDEST PUSH2 0x7A1 DUP2 DUP6 PUSH2 0x755 JUMP JUMPDEST SWAP4 POP PUSH2 0x7B1 DUP2 DUP6 PUSH1 0x20 DUP7 ADD PUSH2 0x765 JUMP JUMPDEST PUSH2 0x7BA DUP2 PUSH2 0x55A JUMP JUMPDEST DUP5 ADD SWAP2 POP POP SWAP3 SWAP2 POP POP JUMP JUMPDEST PUSH0 PUSH1 0x20 DUP3 ADD SWAP1 POP DUP2 DUP2 SUB PUSH0 DUP4 ADD MSTORE PUSH2 0x7DD DUP2 DUP5 PUSH2 0x78D JUMP JUMPDEST SWAP1 POP SWAP3 SWAP2 POP POP JUMP JUMPDEST PUSH2 0x7EE DUP2 PUSH2 0x611 JUMP JUMPDEST DUP3 MSTORE POP POP JUMP JUMPDEST PUSH0 PUSH1 0x20 DUP3 ADD SWAP1 POP PUSH2 0x807 PUSH0 DUP4 ADD DUP5 PUSH2 0x7E5 JUMP JUMPDEST SWAP3 SWAP2 POP POP JUMP JUMPDEST PUSH0 DUP1 REVERT JUMPDEST PUSH0 PUSH8 0xFFFFFFFFFFFFFFFF DUP3 GT ISZERO PUSH2 0x82B JUMPI PUSH2 0x82A PUSH2 0x56A JUMP JUMPDEST JUMPDEST PUSH2 0x834 DUP3 PUSH2 0x55A JUMP JUMPDEST SWAP1 POP PUSH1 0x20 DUP2 ADD SWAP1 POP SWAP2 SWAP1 POP JUMP JUMPDEST DUP3 DUP2 DUP4 CALLDATACOPY PUSH0 DUP4 DUP4 ADD MSTORE POP POP POP JUMP JUMPDEST PUSH0 PUSH2 0x861 PUSH2 0x85C DUP5 PUSH2 0x811 JUMP JUMPDEST PUSH2 0x5C8 JUMP JUMPDEST SWAP1 POP DUP3 DUP2 MSTORE PUSH1 0x20 DUP2 ADD DUP5 DUP5 DUP5 ADD GT ISZERO PUSH2 0x87D JUMPI PUSH2 0x87C PUSH2 0x80D JUMP JUMPDEST JUMPDEST PUSH2 0x888 DUP5 DUP3 DUP6 PUSH2 0x841 JUMP JUMPDEST POP SWAP4 SWAP3 POP POP POP JUMP JUMPDEST PUSH0 DUP3 PUSH1 0x1F DUP4 ADD SLT PUSH2 0x8A4 JUMPI PUSH2 0x8A3 PUSH2 0x556 JUMP JUMPDEST JUMPDEST DUP2 CALLDATALOAD PUSH2 0x8B4 DUP5 DUP3 PUSH1 0x20 DUP7 ADD PUSH2 0x84F JUMP JUMPDEST SWAP2 POP POP SWAP3 SWAP2 POP POP JUMP JUMPDEST PUSH0 DUP1 PUSH1 0x40 DUP4 DUP6 SUB SLT ISZERO PUSH2 0x8D3 JUMPI PUSH2 0x8D2 PUSH2 0x54E JUMP JUMPDEST JUMPDEST PUSH0 PUSH2 0x8E0 DUP6 DUP3 DUP7 ADD PUSH2 0x630 JUMP JUMPDEST SWAP3 POP POP PUSH1 0x20 DUP4 ADD CALLDATALOAD PUSH8 0xFFFFFFFFFFFFFFFF DUP2 GT ISZERO PUSH2 0x901 JUMPI PUSH2 0x900 PUSH2 0x552 JUMP JUMPDEST JUMPDEST PUSH2 0x90D DUP6 DUP3 DUP7 ADD PUSH2 0x890 JUMP JUMPDEST SWAP2 POP POP SWAP3 POP SWAP3 SWAP1 POP JUMP JUMPDEST PUSH0 PUSH1 0x80 DUP3 ADD SWAP1 POP PUSH2 0x92A PUSH0 DUP4 ADD DUP8 PUSH2 0x7E5 JUMP JUMPDEST PUSH2 0x937 PUSH1 0x20 DUP4 ADD DUP7 PUSH2 0x7E5 JUMP JUMPDEST PUSH2 0x944 PUSH1 0x40 DUP4 ADD DUP6 PUSH2 0x7E5 JUMP JUMPDEST PUSH2 0x951 PUSH1 0x60 DUP4 ADD DUP5 PUSH2 0x7E5 JUMP JUMPDEST SWAP6 SWAP5 POP POP POP POP POP JUMP JUMPDEST PUSH0 DUP2 SWAP1 POP SWAP2 SWAP1 POP JUMP JUMPDEST PUSH2 0x96C DUP2 PUSH2 0x95A JUMP JUMPDEST DUP3 MSTORE POP POP JUMP JUMPDEST PUSH0 PUSH1 0x60 DUP3 ADD SWAP1 POP PUSH2 0x985 PUSH0 DUP4 ADD DUP7 PUSH2 0x7E5 JUMP JUMPDEST DUP2 DUP2 SUB PUSH1 0x20 DUP4 ADD MSTORE PUSH2 0x997 DUP2 DUP6 PUSH2 0x78D JUMP JUMPDEST SWAP1 POP PUSH2 0x9A6 PUSH1 0x40 DUP4 ADD DUP5 PUSH2 0x963 JUMP JUMPDEST SWAP5 SWAP4 POP POP POP POP JUMP JUMPDEST PUSH32 0x4E487B7100000000000000000000000000000000000000000000000000000000 PUSH0 MSTORE PUSH1 0x22 PUSH1 0x4 MSTORE PUSH1 0x24 PUSH0 REVERT JUMPDEST PUSH0 PUSH1 0x2 DUP3 DIV SWAP1 POP PUSH1 0x1 DUP3 AND DUP1 PUSH2 0x9F2 JUMPI PUSH1 0x7F DUP3 AND SWAP2 POP JUMPDEST PUSH1 0x20 DUP3 LT DUP2 SUB PUSH2 0xA05 JUMPI PUSH2 0xA04 PUSH2 0x9AE JUMP JUMPDEST JUMPDEST POP SWAP2 SWAP1 POP JUMP JUMPDEST PUSH0 DUP2 SWAP1 POP DUP2 PUSH0 MSTORE PUSH1 0x20 PUSH0 KECCAK256 SWAP1 POP SWAP2 SWAP1 POP JUMP JUMPDEST PUSH0 PUSH1 0x20 PUSH1 0x1F DUP4 ADD DIV SWAP1 POP SWAP2 SWAP1 POP JUMP JUMPDEST PUSH0 DUP3 DUP3 SHL SWAP1 POP SWAP3 SWAP2 POP POP JUMP JUMPDEST PUSH0 PUSH1 0x8 DUP4 MUL PUSH2 0xA67 PUSH32 0xFFFFFFFFFFFFFFFFFFFFFFFFFFFFFFFFFFFFFFFFFFFFFFFFFFFFFFFFFFFFFFFF DUP3 PUSH2 0xA2C JUMP JUMPDEST PUSH2 0xA71 DUP7 DUP4 PUSH2 0xA2C JUMP JUMPDEST SWAP6 POP DUP1 NOT DUP5 AND SWAP4 POP DUP1 DUP7 AND DUP5 OR SWAP3 POP POP POP SWAP4 SWAP3 POP POP POP JUMP JUMPDEST PUSH0 DUP2 SWAP1 POP SWAP2 SWAP1 POP JUMP JUMPDEST PUSH0 PUSH2 0xAAC PUSH2 0xAA7 PUSH2 0xAA2 DUP5 PUSH2 0x611 JUMP JUMPDEST PUSH2 0xA89 JUMP JUMPDEST PUSH2 0x611 JUMP JUMPDEST SWAP1 POP SWAP2 SWAP1 POP JUMP JUMPDEST PUSH0 DUP2 SWAP1 POP SWAP2 SWAP1 POP JUMP JUMPDEST PUSH2 0xAC5 DUP4 PUSH2 0xA92 JUMP JUMPDEST PUSH2 0xAD9 PUSH2 0xAD1 DUP3 PUSH2 0xAB3 JUMP JUMPDEST DUP5 DUP5 SLOAD PUSH2 0xA38 JUMP JUMPDEST DUP3 SSTORE POP POP POP POP JUMP JUMPDEST PUSH0 SWAP1 JUMP JUMPDEST PUSH2 0xAED PUSH2 0xAE1 JUMP JUMPDEST PUSH2 0xAF8 DUP2 DUP5 DUP5 PUSH2 0xABC JUMP JUMPDEST POP POP POP JUMP JUMPDEST JUMPDEST DUP2 DUP2 LT ISZERO PUSH2 0xB1B JUMPI PUSH2 0xB10 PUSH0 DUP3 PUSH2 0xAE5 JUMP JUMPDEST PUSH1 0x1 DUP2 ADD SWAP1 POP PUSH2 0xAFE JUMP JUMPDEST POP POP JUMP JUMPDEST PUSH1 0x1F DUP3 GT ISZERO PUSH2 0xB60 JUMPI PUSH2 0xB31 DUP2 PUSH2 0xA0B JUMP JUMPDEST PUSH2 0xB3A DUP5 PUSH2 0xA1D JUMP JUMPDEST DUP2 ADD PUSH1 0x20 DUP6 LT ISZERO PUSH2 0xB49 JUMPI DUP2 SWAP1 POP JUMPDEST PUSH2 0xB5D PUSH2 0xB55 DUP6 PUSH2 0xA1D JUMP JUMPDEST DUP4 ADD DUP3 PUSH2 0xAFD JUMP JUMPDEST POP POP JUMPDEST POP POP POP JUMP JUMPDEST PUSH0 DUP3 DUP3 SHR SWAP1 POP SWAP3 SWAP2 POP POP JUMP JUMPDEST PUSH0 PUSH2 0xB80 PUSH0 NOT DUP5 PUSH1 0x8 MUL PUSH2 0xB65 JUMP JUMPDEST NOT DUP1 DUP4 AND SWAP2 POP POP SWAP3 SWAP2 POP POP JUMP JUMPDEST PUSH0 PUSH2 0xB98 DUP4 DUP4 PUSH2 0xB71 JUMP JUMPDEST SWAP2 POP DUP3 PUSH1 0x2 MUL DUP3 OR SWAP1 POP SWAP3 SWAP2 POP POP JUMP JUMPDEST PUSH2 0xBB1 DUP3 PUSH2 0x74B JUMP JUMPDEST PUSH8 0xFFFFFFFFFFFFFFFF DUP2 GT ISZERO PUSH2 0xBCA JUMPI PUSH2 0xBC9 PUSH2 0x56A JUMP JUMPDEST JUMPDEST PUSH2 0xBD4 DUP3 SLOAD PUSH2 0x9DB JUMP JUMPDEST PUSH2 0xBDF DUP3 DUP3 DUP6 PUSH2 0xB1F JUMP JUMPDEST PUSH0 PUSH1 0x20 SWAP1 POP PUSH1 0x1F DUP4 GT PUSH1 0x1 DUP2 EQ PUSH2 0xC10 JUMPI PUSH0 DUP5 ISZERO PUSH2 0xBFE JUMPI DUP3 DUP8 ADD MLOAD SWAP1 POP JUMPDEST PUSH2 0xC08 DUP6 DUP3 PUSH2 0xB8D JUMP JUMPDEST DUP7 SSTORE POP PUSH2 0xC6F JUMP JUMPDEST PUSH1 0x1F NOT DUP5 AND PUSH2 0xC1E DUP7 PUSH2 0xA0B JUMP JUMPDEST PUSH0 JUMPDEST DUP3 DUP2 LT ISZERO PUSH2 0xC45 JUMPI DUP5 DUP10 ADD MLOAD DUP3 SSTORE PUSH1 0x1 DUP3 ADD SWAP2 POP PUSH1 0x20 DUP6 ADD SWAP5 POP PUSH1 0x20 DUP2 ADD SWAP1 POP PUSH2 0xC20 JUMP JUMPDEST DUP7 DUP4 LT ISZERO PUSH2 0xC62 JUMPI DUP5 DUP10 ADD MLOAD PUSH2 0xC5E PUSH1 0x1F DUP10 AND DUP3 PUSH2 0xB71 JUMP JUMPDEST DUP4 SSTORE POP JUMPDEST PUSH1 0x1 PUSH1 0x2 DUP9 MUL ADD DUP9 SSTORE POP POP POP JUMPDEST POP POP POP POP POP POP JUMP INVALID LOG2 PUSH5 0x6970667358 0x22 SLT KECCAK256 0xDE LT SWAP4 0xF6 0xA9 0xD1 TIMESTAMP PC COINBASE 0x4E LOG4 0xB1 NUMBER 0xF9 0x2C PUSH22 0x7DD50BE92E12C0B68CB2E74F084149FC64736F6C6343 STOP ADDMOD AND STOP CALLER "
				},
				"gasEstimates": {
					"creation": {
						"codeDepositCost": "649000",
						"executionCost": "89104",
						"totalCost": "738104"
					},
					"external": {
						"a_4()": "infinite",
						"d()": "2514",
						"getABCD()": "infinite",
						"mapping4(uint256)": "infinite",
						"numbers4(uint256)": "infinite",
						"set1(uint256[])": "infinite",
						"set2(uint256[])": "infinite",
						"set3(uint256[])": "infinite",
						"set4(uint256[])": "infinite",
						"setm1(uint256,string)": "infinite",
						"setm2(uint256,string)": "infinite",
						"setm3(uint256,string)": "infinite",
						"setm4(uint256,string)": "infinite"
					}
				},
				"methodIdentifiers": {
					"a_4()": "d4f772cb",
					"d()": "8a054ac2",
					"getABCD()": "c736694e",
					"mapping4(uint256)": "539d0b4f",
					"numbers4(uint256)": "55031cd5",
					"set1(uint256[])": "a9b09cbc",
					"set2(uint256[])": "36adb5e3",
					"set3(uint256[])": "1512d45e",
					"set4(uint256[])": "adb29fac",
					"setm1(uint256,string)": "edb35ce8",
					"setm2(uint256,string)": "b83cc043",
					"setm3(uint256,string)": "eaa7cad2",
					"setm4(uint256,string)": "d8e2ecd0"
				}
			},
			"storageLayout": {
				"storage": [
					{
						"astId": 4,
						"contract": "is_virtual_questions.sol:VISIBILITY_Variable",
						"label": "a",
						"offset": 0,
						"slot": "0",
						"type": "t_uint256"
					},
					{
						"astId": 7,
						"contract": "is_virtual_questions.sol:VISIBILITY_Variable",
						"label": "b",
						"offset": 0,
						"slot": "1",
						"type": "t_uint256"
					},
					{
						"astId": 10,
						"contract": "is_virtual_questions.sol:VISIBILITY_Variable",
						"label": "c",
						"offset": 0,
						"slot": "2",
						"type": "t_uint256"
					},
					{
						"astId": 13,
						"contract": "is_virtual_questions.sol:VISIBILITY_Variable",
						"label": "d",
						"offset": 0,
						"slot": "3",
						"type": "t_uint256"
					},
					{
						"astId": 16,
						"contract": "is_virtual_questions.sol:VISIBILITY_Variable",
						"label": "numbers1",
						"offset": 0,
						"slot": "4",
						"type": "t_array(t_uint256)dyn_storage"
					},
					{
						"astId": 19,
						"contract": "is_virtual_questions.sol:VISIBILITY_Variable",
						"label": "numbers2",
						"offset": 0,
						"slot": "5",
						"type": "t_array(t_uint256)dyn_storage"
					},
					{
						"astId": 22,
						"contract": "is_virtual_questions.sol:VISIBILITY_Variable",
						"label": "numbers3",
						"offset": 0,
						"slot": "6",
						"type": "t_array(t_uint256)dyn_storage"
					},
					{
						"astId": 25,
						"contract": "is_virtual_questions.sol:VISIBILITY_Variable",
						"label": "numbers4",
						"offset": 0,
						"slot": "7",
						"type": "t_array(t_uint256)dyn_storage"
					},
					{
						"astId": 29,
						"contract": "is_virtual_questions.sol:VISIBILITY_Variable",
						"label": "mapping1",
						"offset": 0,
						"slot": "8",
						"type": "t_mapping(t_uint256,t_string_storage)"
					},
					{
						"astId": 33,
						"contract": "is_virtual_questions.sol:VISIBILITY_Variable",
						"label": "mapping2",
						"offset": 0,
						"slot": "9",
						"type": "t_mapping(t_uint256,t_string_storage)"
					},
					{
						"astId": 37,
						"contract": "is_virtual_questions.sol:VISIBILITY_Variable",
						"label": "mapping3",
						"offset": 0,
						"slot": "10",
						"type": "t_mapping(t_uint256,t_string_storage)"
					},
					{
						"astId": 41,
						"contract": "is_virtual_questions.sol:VISIBILITY_Variable",
						"label": "mapping4",
						"offset": 0,
						"slot": "11",
						"type": "t_mapping(t_uint256,t_string_storage)"
					},
					{
						"astId": 51,
						"contract": "is_virtual_questions.sol:VISIBILITY_Variable",
						"label": "a_1",
						"offset": 0,
						"slot": "12",
						"type": "t_struct(A)48_storage"
					},
					{
						"astId": 54,
						"contract": "is_virtual_questions.sol:VISIBILITY_Variable",
						"label": "a_2",
						"offset": 0,
						"slot": "15",
						"type": "t_struct(A)48_storage"
					},
					{
						"astId": 57,
						"contract": "is_virtual_questions.sol:VISIBILITY_Variable",
						"label": "a_3",
						"offset": 0,
						"slot": "18",
						"type": "t_struct(A)48_storage"
					},
					{
						"astId": 60,
						"contract": "is_virtual_questions.sol:VISIBILITY_Variable",
						"label": "a_4",
						"offset": 0,
						"slot": "21",
						"type": "t_struct(A)48_storage"
					}
				],
				"types": {
					"t_array(t_uint256)dyn_storage": {
						"base": "t_uint256",
						"encoding": "dynamic_array",
						"label": "uint256[]",
						"numberOfBytes": "32"
					},
					"t_bytes32": {
						"encoding": "inplace",
						"label": "bytes32",
						"numberOfBytes": "32"
					},
					"t_mapping(t_uint256,t_string_storage)": {
						"encoding": "mapping",
						"key": "t_uint256",
						"label": "mapping(uint256 => string)",
						"numberOfBytes": "32",
						"value": "t_string_storage"
					},
					"t_string_storage": {
						"encoding": "bytes",
						"label": "string",
						"numberOfBytes": "32"
					},
					"t_struct(A)48_storage": {
						"encoding": "inplace",
						"label": "struct VISIBILITY_Variable.A",
						"members": [
							{
								"astId": 43,
								"contract": "is_virtual_questions.sol:VISIBILITY_Variable",
								"label": "a",
								"offset": 0,
								"slot": "0",
								"type": "t_uint256"
							},
							{
								"astId": 45,
								"contract": "is_virtual_questions.sol:VISIBILITY_Variable",
								"label": "b",
								"offset": 0,
								"slot": "1",
								"type": "t_string_storage"
							},
							{
								"astId": 47,
								"contract": "is_virtual_questions.sol:VISIBILITY_Variable",
								"label": "c",
								"offset": 0,
								"slot": "2",
								"type": "t_bytes32"
							}
						],
						"numberOfBytes": "96"
					},
					"t_uint256": {
						"encoding": "inplace",
						"label": "uint256",
						"numberOfBytes": "32"
					}
				}
			},
			"userdoc": {
				"kind": "user",
				"methods": {},
				"version": 1
			}
		}
	}
}