{
	"basic_21_30.sol": {
		"basic_21_30": {
			"abi": [
				{
					"inputs": [],
					"name": "getEvens",
					"outputs": [
						{
							"internalType": "uint256[]",
							"name": "",
							"type": "uint256[]"
						}
					],
					"stateMutability": "view",
					"type": "function"
				},
				{
					"inputs": [],
					"name": "getOdds",
					"outputs": [
						{
							"internalType": "uint256[]",
							"name": "",
							"type": "uint256[]"
						}
					],
					"stateMutability": "view",
					"type": "function"
				},
				{
					"inputs": [
						{
							"internalType": "int256",
							"name": "_n",
							"type": "int256"
						}
					],
					"name": "setA",
					"outputs": [
						{
							"internalType": "int256[]",
							"name": "",
							"type": "int256[]"
						}
					],
					"stateMutability": "nonpayable",
					"type": "function"
				},
				{
					"inputs": [
						{
							"internalType": "uint256",
							"name": "_n",
							"type": "uint256"
						}
					],
					"name": "setA2",
					"outputs": [
						{
							"internalType": "uint256[]",
							"name": "",
							"type": "uint256[]"
						}
					],
					"stateMutability": "nonpayable",
					"type": "function"
				},
				{
					"inputs": [
						{
							"internalType": "uint256",
							"name": "_n",
							"type": "uint256"
						}
					],
					"name": "setNums",
					"outputs": [],
					"stateMutability": "nonpayable",
					"type": "function"
				}
			],
			"devdoc": {
				"kind": "dev",
				"methods": {},
				"version": 1
			},
			"evm": {
				"assembly": "    /* \"basic_21_30.sol\":74:1460  contract basic_21_30 {... */\n  mstore(0x40, 0x80)\n  callvalue\n  dup1\n  iszero\n  tag_1\n  jumpi\n  0x00\n  dup1\n  revert\ntag_1:\n  pop\n  dataSize(sub_0)\n  dup1\n  dataOffset(sub_0)\n  0x00\n  codecopy\n  0x00\n  return\nstop\n\nsub_0: assembly {\n        /* \"basic_21_30.sol\":74:1460  contract basic_21_30 {... */\n      mstore(0x40, 0x80)\n      callvalue\n      dup1\n      iszero\n      tag_1\n      jumpi\n      0x00\n      dup1\n      revert\n    tag_1:\n      pop\n      jumpi(tag_2, lt(calldatasize, 0x04))\n      shr(0xe0, calldataload(0x00))\n      dup1\n      0x029f1043\n      eq\n      tag_3\n      jumpi\n      dup1\n      0x44000a7e\n      eq\n      tag_4\n      jumpi\n      dup1\n      0x4c5be574\n      eq\n      tag_5\n      jumpi\n      dup1\n      0x6cabc400\n      eq\n      tag_6\n      jumpi\n      dup1\n      0x716c7a88\n      eq\n      tag_7\n      jumpi\n    tag_2:\n      0x00\n      dup1\n      revert\n        /* \"basic_21_30.sol\":979:1092  function setNums(uint _n) public {... */\n    tag_3:\n      tag_8\n      0x04\n      dup1\n      calldatasize\n      sub\n      dup2\n      add\n      swap1\n      tag_9\n      swap2\n      swap1\n      tag_10\n      jump\t// in\n    tag_9:\n      tag_11\n      jump\t// in\n    tag_8:\n      stop\n        /* \"basic_21_30.sol\":568:731  function setA2(uint _n) public returns(uint[] memory) {... */\n    tag_4:\n      tag_12\n      0x04\n      dup1\n      calldatasize\n      sub\n      dup2\n      add\n      swap1\n      tag_13\n      swap2\n      swap1\n      tag_10\n      jump\t// in\n    tag_13:\n      tag_14\n      jump\t// in\n    tag_12:\n      mload(0x40)\n      tag_15\n      swap2\n      swap1\n      tag_16\n      jump\t// in\n    tag_15:\n      mload(0x40)\n      dup1\n      swap2\n      sub\n      swap1\n      return\n        /* \"basic_21_30.sol\":1179:1252  function getOdds() public view returns(uint[] memory) { return oddNums; } */\n    tag_5:\n      tag_17\n      tag_18\n      jump\t// in\n    tag_17:\n      mload(0x40)\n      tag_19\n      swap2\n      swap1\n      tag_16\n      jump\t// in\n    tag_19:\n      mload(0x40)\n      dup1\n      swap2\n      sub\n      swap1\n      return\n        /* \"basic_21_30.sol\":236:446  function setA(int _n) public returns(int[] memory) {... */\n    tag_6:\n      tag_20\n      0x04\n      dup1\n      calldatasize\n      sub\n      dup2\n      add\n      swap1\n      tag_21\n      swap2\n      swap1\n      tag_22\n      jump\t// in\n    tag_21:\n      tag_23\n      jump\t// in\n    tag_20:\n      mload(0x40)\n      tag_24\n      swap2\n      swap1\n      tag_25\n      jump\t// in\n    tag_24:\n      mload(0x40)\n      dup1\n      swap2\n      sub\n      swap1\n      return\n        /* \"basic_21_30.sol\":1098:1173  function getEvens() public view returns(uint[] memory) { return evenNums; } */\n    tag_7:\n      tag_26\n      tag_27\n      jump\t// in\n    tag_26:\n      mload(0x40)\n      tag_28\n      swap2\n      swap1\n      tag_16\n      jump\t// in\n    tag_28:\n      mload(0x40)\n      dup1\n      swap2\n      sub\n      swap1\n      return\n        /* \"basic_21_30.sol\":979:1092  function setNums(uint _n) public {... */\n    tag_11:\n        /* \"basic_21_30.sol\":1032:1033  0 */\n      0x00\n        /* \"basic_21_30.sol\":1029:1030  2 */\n      0x02\n        /* \"basic_21_30.sol\":1026:1028  _n */\n      dup3\n        /* \"basic_21_30.sol\":1026:1030  _n%2 */\n      tag_30\n      swap2\n      swap1\n      tag_31\n      jump\t// in\n    tag_30:\n        /* \"basic_21_30.sol\":1026:1033  _n%2==0 */\n      sub\n        /* \"basic_21_30.sol\":1023:1084  if(_n%2==0) evenNums.push(_n);... */\n      tag_32\n      jumpi\n        /* \"basic_21_30.sol\":1035:1043  evenNums */\n      0x02\n        /* \"basic_21_30.sol\":1049:1051  _n */\n      dup2\n        /* \"basic_21_30.sol\":1035:1052  evenNums.push(_n) */\n      swap1\n      dup1\n      0x01\n      dup2\n      sload\n      add\n      dup1\n      dup3\n      sstore\n      dup1\n      swap2\n      pop\n      pop\n      0x01\n      swap1\n      sub\n      swap1\n      0x00\n      mstore\n      keccak256(0x00, 0x20)\n      add\n      0x00\n      swap1\n      swap2\n      swap1\n      swap2\n      swap1\n      swap2\n      pop\n      sstore\n        /* \"basic_21_30.sol\":1023:1084  if(_n%2==0) evenNums.push(_n);... */\n      jump(tag_34)\n    tag_32:\n        /* \"basic_21_30.sol\":1068:1075  oddNums */\n      0x03\n        /* \"basic_21_30.sol\":1081:1083  _n */\n      dup2\n        /* \"basic_21_30.sol\":1068:1084  oddNums.push(_n) */\n      swap1\n      dup1\n      0x01\n      dup2\n      sload\n      add\n      dup1\n      dup3\n      sstore\n      dup1\n      swap2\n      pop\n      pop\n      0x01\n      swap1\n      sub\n      swap1\n      0x00\n      mstore\n      keccak256(0x00, 0x20)\n      add\n      0x00\n      swap1\n      swap2\n      swap1\n      swap2\n      swap1\n      swap2\n      pop\n      sstore\n        /* \"basic_21_30.sol\":1023:1084  if(_n%2==0) evenNums.push(_n);... */\n    tag_34:\n        /* \"basic_21_30.sol\":979:1092  function setNums(uint _n) public {... */\n      pop\n      jump\t// out\n        /* \"basic_21_30.sol\":568:731  function setA2(uint _n) public returns(uint[] memory) {... */\n    tag_14:\n        /* \"basic_21_30.sol\":607:620  uint[] memory */\n      0x60\n        /* \"basic_21_30.sol\":637:643  uint i */\n      0x00\n        /* \"basic_21_30.sol\":649:650  1 */\n      0x01\n        /* \"basic_21_30.sol\":646:648  _n */\n      dup4\n        /* \"basic_21_30.sol\":646:650  _n+1 */\n      tag_40\n      swap2\n      swap1\n      tag_41\n      jump\t// in\n    tag_40:\n        /* \"basic_21_30.sol\":637:650  uint i = _n+1 */\n      swap1\n      pop\n        /* \"basic_21_30.sol\":633:704  for(uint i = _n+1; i >= 1; i--) {... */\n    tag_37:\n        /* \"basic_21_30.sol\":657:658  1 */\n      0x01\n        /* \"basic_21_30.sol\":652:653  i */\n      dup2\n        /* \"basic_21_30.sol\":652:658  i >= 1 */\n      lt\n        /* \"basic_21_30.sol\":633:704  for(uint i = _n+1; i >= 1; i--) {... */\n      tag_38\n      jumpi\n        /* \"basic_21_30.sol\":680:682  A2 */\n      0x01\n        /* \"basic_21_30.sol\":690:691  1 */\n      dup1\n        /* \"basic_21_30.sol\":688:689  i */\n      dup3\n        /* \"basic_21_30.sol\":688:691  i-1 */\n      tag_42\n      swap2\n      swap1\n      tag_43\n      jump\t// in\n    tag_42:\n        /* \"basic_21_30.sol\":680:692  A2.push(i-1) */\n      swap1\n      dup1\n      0x01\n      dup2\n      sload\n      add\n      dup1\n      dup3\n      sstore\n      dup1\n      swap2\n      pop\n      pop\n      0x01\n      swap1\n      sub\n      swap1\n      0x00\n      mstore\n      keccak256(0x00, 0x20)\n      add\n      0x00\n      swap1\n      swap2\n      swap1\n      swap2\n      swap1\n      swap2\n      pop\n      sstore\n        /* \"basic_21_30.sol\":660:663  i-- */\n      dup1\n      dup1\n      tag_45\n      swap1\n      tag_46\n      jump\t// in\n    tag_45:\n      swap2\n      pop\n      pop\n        /* \"basic_21_30.sol\":633:704  for(uint i = _n+1; i >= 1; i--) {... */\n      jump(tag_37)\n    tag_38:\n      pop\n        /* \"basic_21_30.sol\":721:723  A2 */\n      0x01\n        /* \"basic_21_30.sol\":714:723  return A2 */\n      dup1\n      sload\n      dup1\n      0x20\n      mul\n      0x20\n      add\n      mload(0x40)\n      swap1\n      dup2\n      add\n      0x40\n      mstore\n      dup1\n      swap3\n      swap2\n      swap1\n      dup2\n      dup2\n      mstore\n      0x20\n      add\n      dup3\n      dup1\n      sload\n      dup1\n      iszero\n      tag_47\n      jumpi\n      0x20\n      mul\n      dup3\n      add\n      swap2\n      swap1\n      0x00\n      mstore\n      keccak256(0x00, 0x20)\n      swap1\n    tag_48:\n      dup2\n      sload\n      dup2\n      mstore\n      0x20\n      add\n      swap1\n      0x01\n      add\n      swap1\n      dup1\n      dup4\n      gt\n      tag_48\n      jumpi\n    tag_47:\n      pop\n      pop\n      pop\n      pop\n      pop\n      swap1\n      pop\n        /* \"basic_21_30.sol\":568:731  function setA2(uint _n) public returns(uint[] memory) {... */\n      swap2\n      swap1\n      pop\n      jump\t// out\n        /* \"basic_21_30.sol\":1179:1252  function getOdds() public view returns(uint[] memory) { return oddNums; } */\n    tag_18:\n        /* \"basic_21_30.sol\":1218:1231  uint[] memory */\n      0x60\n        /* \"basic_21_30.sol\":1242:1249  oddNums */\n      0x03\n        /* \"basic_21_30.sol\":1235:1249  return oddNums */\n      dup1\n      sload\n      dup1\n      0x20\n      mul\n      0x20\n      add\n      mload(0x40)\n      swap1\n      dup2\n      add\n      0x40\n      mstore\n      dup1\n      swap3\n      swap2\n      swap1\n      dup2\n      dup2\n      mstore\n      0x20\n      add\n      dup3\n      dup1\n      sload\n      dup1\n      iszero\n      tag_50\n      jumpi\n      0x20\n      mul\n      dup3\n      add\n      swap2\n      swap1\n      0x00\n      mstore\n      keccak256(0x00, 0x20)\n      swap1\n    tag_51:\n      dup2\n      sload\n      dup2\n      mstore\n      0x20\n      add\n      swap1\n      0x01\n      add\n      swap1\n      dup1\n      dup4\n      gt\n      tag_51\n      jumpi\n    tag_50:\n      pop\n      pop\n      pop\n      pop\n      pop\n      swap1\n      pop\n        /* \"basic_21_30.sol\":1179:1252  function getOdds() public view returns(uint[] memory) { return oddNums; } */\n      swap1\n      jump\t// out\n        /* \"basic_21_30.sol\":236:446  function setA(int _n) public returns(int[] memory) {... */\n    tag_23:\n        /* \"basic_21_30.sol\":273:285  int[] memory */\n      0x60\n        /* \"basic_21_30.sol\":359:364  int i */\n      0x00\n        /* \"basic_21_30.sol\":367:369  _n */\n      dup3\n        /* \"basic_21_30.sol\":359:369  int i = _n */\n      swap1\n      pop\n        /* \"basic_21_30.sol\":355:420  for(int i = _n; i >= 0; i--) {... */\n    tag_53:\n        /* \"basic_21_30.sol\":376:377  0 */\n      0x00\n        /* \"basic_21_30.sol\":371:372  i */\n      dup2\n        /* \"basic_21_30.sol\":371:377  i >= 0 */\n      slt\n        /* \"basic_21_30.sol\":355:420  for(int i = _n; i >= 0; i--) {... */\n      tag_54\n      jumpi\n        /* \"basic_21_30.sol\":399:400  A */\n      0x00\n        /* \"basic_21_30.sol\":406:407  i */\n      dup2\n        /* \"basic_21_30.sol\":399:408  A.push(i) */\n      swap1\n      dup1\n      0x01\n      dup2\n      sload\n      add\n      dup1\n      dup3\n      sstore\n      dup1\n      swap2\n      pop\n      pop\n      0x01\n      swap1\n      sub\n      swap1\n      0x00\n      mstore\n      keccak256(0x00, 0x20)\n      add\n      0x00\n      swap1\n      swap2\n      swap1\n      swap2\n      swap1\n      swap2\n      pop\n      sstore\n        /* \"basic_21_30.sol\":379:382  i-- */\n      dup1\n      dup1\n      tag_57\n      swap1\n      tag_58\n      jump\t// in\n    tag_57:\n      swap2\n      pop\n      pop\n        /* \"basic_21_30.sol\":355:420  for(int i = _n; i >= 0; i--) {... */\n      jump(tag_53)\n    tag_54:\n      pop\n        /* \"basic_21_30.sol\":437:438  A */\n      0x00\n        /* \"basic_21_30.sol\":430:438  return A */\n      dup1\n      sload\n      dup1\n      0x20\n      mul\n      0x20\n      add\n      mload(0x40)\n      swap1\n      dup2\n      add\n      0x40\n      mstore\n      dup1\n      swap3\n      swap2\n      swap1\n      dup2\n      dup2\n      mstore\n      0x20\n      add\n      dup3\n      dup1\n      sload\n      dup1\n      iszero\n      tag_59\n      jumpi\n      0x20\n      mul\n      dup3\n      add\n      swap2\n      swap1\n      0x00\n      mstore\n      keccak256(0x00, 0x20)\n      swap1\n    tag_60:\n      dup2\n      sload\n      dup2\n      mstore\n      0x20\n      add\n      swap1\n      0x01\n      add\n      swap1\n      dup1\n      dup4\n      gt\n      tag_60\n      jumpi\n    tag_59:\n      pop\n      pop\n      pop\n      pop\n      pop\n      swap1\n      pop\n        /* \"basic_21_30.sol\":236:446  function setA(int _n) public returns(int[] memory) {... */\n      swap2\n      swap1\n      pop\n      jump\t// out\n        /* \"basic_21_30.sol\":1098:1173  function getEvens() public view returns(uint[] memory) { return evenNums; } */\n    tag_27:\n        /* \"basic_21_30.sol\":1138:1151  uint[] memory */\n      0x60\n        /* \"basic_21_30.sol\":1162:1170  evenNums */\n      0x02\n        /* \"basic_21_30.sol\":1155:1170  return evenNums */\n      dup1\n      sload\n      dup1\n      0x20\n      mul\n      0x20\n      add\n      mload(0x40)\n      swap1\n      dup2\n      add\n      0x40\n      mstore\n      dup1\n      swap3\n      swap2\n      swap1\n      dup2\n      dup2\n      mstore\n      0x20\n      add\n      dup3\n      dup1\n      sload\n      dup1\n      iszero\n      tag_62\n      jumpi\n      0x20\n      mul\n      dup3\n      add\n      swap2\n      swap1\n      0x00\n      mstore\n      keccak256(0x00, 0x20)\n      swap1\n    tag_63:\n      dup2\n      sload\n      dup2\n      mstore\n      0x20\n      add\n      swap1\n      0x01\n      add\n      swap1\n      dup1\n      dup4\n      gt\n      tag_63\n      jumpi\n    tag_62:\n      pop\n      pop\n      pop\n      pop\n      pop\n      swap1\n      pop\n        /* \"basic_21_30.sol\":1098:1173  function getEvens() public view returns(uint[] memory) { return evenNums; } */\n      swap1\n      jump\t// out\n        /* \"#utility.yul\":88:205   */\n    tag_65:\n        /* \"#utility.yul\":197:198   */\n      0x00\n        /* \"#utility.yul\":194:195   */\n      dup1\n        /* \"#utility.yul\":187:199   */\n      revert\n        /* \"#utility.yul\":334:411   */\n    tag_67:\n        /* \"#utility.yul\":371:378   */\n      0x00\n        /* \"#utility.yul\":400:405   */\n      dup2\n        /* \"#utility.yul\":389:405   */\n      swap1\n      pop\n        /* \"#utility.yul\":334:411   */\n      swap2\n      swap1\n      pop\n      jump\t// out\n        /* \"#utility.yul\":417:539   */\n    tag_68:\n        /* \"#utility.yul\":490:514   */\n      tag_95\n        /* \"#utility.yul\":508:513   */\n      dup2\n        /* \"#utility.yul\":490:514   */\n      tag_67\n      jump\t// in\n    tag_95:\n        /* \"#utility.yul\":483:488   */\n      dup2\n        /* \"#utility.yul\":480:515   */\n      eq\n        /* \"#utility.yul\":470:533   */\n      tag_96\n      jumpi\n        /* \"#utility.yul\":529:530   */\n      0x00\n        /* \"#utility.yul\":526:527   */\n      dup1\n        /* \"#utility.yul\":519:531   */\n      revert\n        /* \"#utility.yul\":470:533   */\n    tag_96:\n        /* \"#utility.yul\":417:539   */\n      pop\n      jump\t// out\n        /* \"#utility.yul\":545:684   */\n    tag_69:\n        /* \"#utility.yul\":591:596   */\n      0x00\n        /* \"#utility.yul\":629:635   */\n      dup2\n        /* \"#utility.yul\":616:636   */\n      calldataload\n        /* \"#utility.yul\":607:636   */\n      swap1\n      pop\n        /* \"#utility.yul\":645:678   */\n      tag_98\n        /* \"#utility.yul\":672:677   */\n      dup2\n        /* \"#utility.yul\":645:678   */\n      tag_68\n      jump\t// in\n    tag_98:\n        /* \"#utility.yul\":545:684   */\n      swap3\n      swap2\n      pop\n      pop\n      jump\t// out\n        /* \"#utility.yul\":690:1019   */\n    tag_10:\n        /* \"#utility.yul\":749:755   */\n      0x00\n        /* \"#utility.yul\":798:800   */\n      0x20\n        /* \"#utility.yul\":786:795   */\n      dup3\n        /* \"#utility.yul\":777:784   */\n      dup5\n        /* \"#utility.yul\":773:796   */\n      sub\n        /* \"#utility.yul\":769:801   */\n      slt\n        /* \"#utility.yul\":766:885   */\n      iszero\n      tag_100\n      jumpi\n        /* \"#utility.yul\":804:883   */\n      tag_101\n      tag_65\n      jump\t// in\n    tag_101:\n        /* \"#utility.yul\":766:885   */\n    tag_100:\n        /* \"#utility.yul\":924:925   */\n      0x00\n        /* \"#utility.yul\":949:1002   */\n      tag_102\n        /* \"#utility.yul\":994:1001   */\n      dup5\n        /* \"#utility.yul\":985:991   */\n      dup3\n        /* \"#utility.yul\":974:983   */\n      dup6\n        /* \"#utility.yul\":970:992   */\n      add\n        /* \"#utility.yul\":949:1002   */\n      tag_69\n      jump\t// in\n    tag_102:\n        /* \"#utility.yul\":939:1002   */\n      swap2\n      pop\n        /* \"#utility.yul\":895:1012   */\n      pop\n        /* \"#utility.yul\":690:1019   */\n      swap3\n      swap2\n      pop\n      pop\n      jump\t// out\n        /* \"#utility.yul\":1025:1139   */\n    tag_70:\n        /* \"#utility.yul\":1092:1098   */\n      0x00\n        /* \"#utility.yul\":1126:1131   */\n      dup2\n        /* \"#utility.yul\":1120:1132   */\n      mload\n        /* \"#utility.yul\":1110:1132   */\n      swap1\n      pop\n        /* \"#utility.yul\":1025:1139   */\n      swap2\n      swap1\n      pop\n      jump\t// out\n        /* \"#utility.yul\":1145:1329   */\n    tag_71:\n        /* \"#utility.yul\":1244:1255   */\n      0x00\n        /* \"#utility.yul\":1278:1284   */\n      dup3\n        /* \"#utility.yul\":1273:1276   */\n      dup3\n        /* \"#utility.yul\":1266:1285   */\n      mstore\n        /* \"#utility.yul\":1318:1322   */\n      0x20\n        /* \"#utility.yul\":1313:1316   */\n      dup3\n        /* \"#utility.yul\":1309:1323   */\n      add\n        /* \"#utility.yul\":1294:1323   */\n      swap1\n      pop\n        /* \"#utility.yul\":1145:1329   */\n      swap3\n      swap2\n      pop\n      pop\n      jump\t// out\n        /* \"#utility.yul\":1335:1467   */\n    tag_72:\n        /* \"#utility.yul\":1402:1406   */\n      0x00\n        /* \"#utility.yul\":1425:1428   */\n      dup2\n        /* \"#utility.yul\":1417:1428   */\n      swap1\n      pop\n        /* \"#utility.yul\":1455:1459   */\n      0x20\n        /* \"#utility.yul\":1450:1453   */\n      dup3\n        /* \"#utility.yul\":1446:1460   */\n      add\n        /* \"#utility.yul\":1438:1460   */\n      swap1\n      pop\n        /* \"#utility.yul\":1335:1467   */\n      swap2\n      swap1\n      pop\n      jump\t// out\n        /* \"#utility.yul\":1473:1581   */\n    tag_73:\n        /* \"#utility.yul\":1550:1574   */\n      tag_107\n        /* \"#utility.yul\":1568:1573   */\n      dup2\n        /* \"#utility.yul\":1550:1574   */\n      tag_67\n      jump\t// in\n    tag_107:\n        /* \"#utility.yul\":1545:1548   */\n      dup3\n        /* \"#utility.yul\":1538:1575   */\n      mstore\n        /* \"#utility.yul\":1473:1581   */\n      pop\n      pop\n      jump\t// out\n        /* \"#utility.yul\":1587:1766   */\n    tag_74:\n        /* \"#utility.yul\":1656:1666   */\n      0x00\n        /* \"#utility.yul\":1677:1723   */\n      tag_109\n        /* \"#utility.yul\":1719:1722   */\n      dup4\n        /* \"#utility.yul\":1711:1717   */\n      dup4\n        /* \"#utility.yul\":1677:1723   */\n      tag_73\n      jump\t// in\n    tag_109:\n        /* \"#utility.yul\":1755:1759   */\n      0x20\n        /* \"#utility.yul\":1750:1753   */\n      dup4\n        /* \"#utility.yul\":1746:1760   */\n      add\n        /* \"#utility.yul\":1732:1760   */\n      swap1\n      pop\n        /* \"#utility.yul\":1587:1766   */\n      swap3\n      swap2\n      pop\n      pop\n      jump\t// out\n        /* \"#utility.yul\":1772:1885   */\n    tag_75:\n        /* \"#utility.yul\":1842:1846   */\n      0x00\n        /* \"#utility.yul\":1874:1878   */\n      0x20\n        /* \"#utility.yul\":1869:1872   */\n      dup3\n        /* \"#utility.yul\":1865:1879   */\n      add\n        /* \"#utility.yul\":1857:1879   */\n      swap1\n      pop\n        /* \"#utility.yul\":1772:1885   */\n      swap2\n      swap1\n      pop\n      jump\t// out\n        /* \"#utility.yul\":1921:2653   */\n    tag_76:\n        /* \"#utility.yul\":2040:2043   */\n      0x00\n        /* \"#utility.yul\":2069:2123   */\n      tag_112\n        /* \"#utility.yul\":2117:2122   */\n      dup3\n        /* \"#utility.yul\":2069:2123   */\n      tag_70\n      jump\t// in\n    tag_112:\n        /* \"#utility.yul\":2139:2225   */\n      tag_113\n        /* \"#utility.yul\":2218:2224   */\n      dup2\n        /* \"#utility.yul\":2213:2216   */\n      dup6\n        /* \"#utility.yul\":2139:2225   */\n      tag_71\n      jump\t// in\n    tag_113:\n        /* \"#utility.yul\":2132:2225   */\n      swap4\n      pop\n        /* \"#utility.yul\":2249:2305   */\n      tag_114\n        /* \"#utility.yul\":2299:2304   */\n      dup4\n        /* \"#utility.yul\":2249:2305   */\n      tag_72\n      jump\t// in\n    tag_114:\n        /* \"#utility.yul\":2328:2335   */\n      dup1\n        /* \"#utility.yul\":2359:2360   */\n      0x00\n        /* \"#utility.yul\":2344:2628   */\n    tag_115:\n        /* \"#utility.yul\":2369:2375   */\n      dup4\n        /* \"#utility.yul\":2366:2367   */\n      dup2\n        /* \"#utility.yul\":2363:2376   */\n      lt\n        /* \"#utility.yul\":2344:2628   */\n      iszero\n      tag_117\n      jumpi\n        /* \"#utility.yul\":2445:2451   */\n      dup2\n        /* \"#utility.yul\":2439:2452   */\n      mload\n        /* \"#utility.yul\":2472:2535   */\n      tag_118\n        /* \"#utility.yul\":2531:2534   */\n      dup9\n        /* \"#utility.yul\":2516:2529   */\n      dup3\n        /* \"#utility.yul\":2472:2535   */\n      tag_74\n      jump\t// in\n    tag_118:\n        /* \"#utility.yul\":2465:2535   */\n      swap8\n      pop\n        /* \"#utility.yul\":2558:2618   */\n      tag_119\n        /* \"#utility.yul\":2611:2617   */\n      dup4\n        /* \"#utility.yul\":2558:2618   */\n      tag_75\n      jump\t// in\n    tag_119:\n        /* \"#utility.yul\":2548:2618   */\n      swap3\n      pop\n        /* \"#utility.yul\":2404:2628   */\n      pop\n        /* \"#utility.yul\":2391:2392   */\n      0x01\n        /* \"#utility.yul\":2388:2389   */\n      dup2\n        /* \"#utility.yul\":2384:2393   */\n      add\n        /* \"#utility.yul\":2379:2393   */\n      swap1\n      pop\n        /* \"#utility.yul\":2344:2628   */\n      jump(tag_115)\n    tag_117:\n        /* \"#utility.yul\":2348:2362   */\n      pop\n        /* \"#utility.yul\":2644:2647   */\n      dup6\n        /* \"#utility.yul\":2637:2647   */\n      swap4\n      pop\n        /* \"#utility.yul\":2045:2653   */\n      pop\n      pop\n      pop\n        /* \"#utility.yul\":1921:2653   */\n      swap3\n      swap2\n      pop\n      pop\n      jump\t// out\n        /* \"#utility.yul\":2659:3032   */\n    tag_16:\n        /* \"#utility.yul\":2802:2806   */\n      0x00\n        /* \"#utility.yul\":2840:2842   */\n      0x20\n        /* \"#utility.yul\":2829:2838   */\n      dup3\n        /* \"#utility.yul\":2825:2843   */\n      add\n        /* \"#utility.yul\":2817:2843   */\n      swap1\n      pop\n        /* \"#utility.yul\":2889:2898   */\n      dup2\n        /* \"#utility.yul\":2883:2887   */\n      dup2\n        /* \"#utility.yul\":2879:2899   */\n      sub\n        /* \"#utility.yul\":2875:2876   */\n      0x00\n        /* \"#utility.yul\":2864:2873   */\n      dup4\n        /* \"#utility.yul\":2860:2877   */\n      add\n        /* \"#utility.yul\":2853:2900   */\n      mstore\n        /* \"#utility.yul\":2917:3025   */\n      tag_121\n        /* \"#utility.yul\":3020:3024   */\n      dup2\n        /* \"#utility.yul\":3011:3017   */\n      dup5\n        /* \"#utility.yul\":2917:3025   */\n      tag_76\n      jump\t// in\n    tag_121:\n        /* \"#utility.yul\":2909:3025   */\n      swap1\n      pop\n        /* \"#utility.yul\":2659:3032   */\n      swap3\n      swap2\n      pop\n      pop\n      jump\t// out\n        /* \"#utility.yul\":3038:3114   */\n    tag_77:\n        /* \"#utility.yul\":3074:3081   */\n      0x00\n        /* \"#utility.yul\":3103:3108   */\n      dup2\n        /* \"#utility.yul\":3092:3108   */\n      swap1\n      pop\n        /* \"#utility.yul\":3038:3114   */\n      swap2\n      swap1\n      pop\n      jump\t// out\n        /* \"#utility.yul\":3120:3240   */\n    tag_78:\n        /* \"#utility.yul\":3192:3215   */\n      tag_124\n        /* \"#utility.yul\":3209:3214   */\n      dup2\n        /* \"#utility.yul\":3192:3215   */\n      tag_77\n      jump\t// in\n    tag_124:\n        /* \"#utility.yul\":3185:3190   */\n      dup2\n        /* \"#utility.yul\":3182:3216   */\n      eq\n        /* \"#utility.yul\":3172:3234   */\n      tag_125\n      jumpi\n        /* \"#utility.yul\":3230:3231   */\n      0x00\n        /* \"#utility.yul\":3227:3228   */\n      dup1\n        /* \"#utility.yul\":3220:3232   */\n      revert\n        /* \"#utility.yul\":3172:3234   */\n    tag_125:\n        /* \"#utility.yul\":3120:3240   */\n      pop\n      jump\t// out\n        /* \"#utility.yul\":3246:3383   */\n    tag_79:\n        /* \"#utility.yul\":3291:3296   */\n      0x00\n        /* \"#utility.yul\":3329:3335   */\n      dup2\n        /* \"#utility.yul\":3316:3336   */\n      calldataload\n        /* \"#utility.yul\":3307:3336   */\n      swap1\n      pop\n        /* \"#utility.yul\":3345:3377   */\n      tag_127\n        /* \"#utility.yul\":3371:3376   */\n      dup2\n        /* \"#utility.yul\":3345:3377   */\n      tag_78\n      jump\t// in\n    tag_127:\n        /* \"#utility.yul\":3246:3383   */\n      swap3\n      swap2\n      pop\n      pop\n      jump\t// out\n        /* \"#utility.yul\":3389:3716   */\n    tag_22:\n        /* \"#utility.yul\":3447:3453   */\n      0x00\n        /* \"#utility.yul\":3496:3498   */\n      0x20\n        /* \"#utility.yul\":3484:3493   */\n      dup3\n        /* \"#utility.yul\":3475:3482   */\n      dup5\n        /* \"#utility.yul\":3471:3494   */\n      sub\n        /* \"#utility.yul\":3467:3499   */\n      slt\n        /* \"#utility.yul\":3464:3583   */\n      iszero\n      tag_129\n      jumpi\n        /* \"#utility.yul\":3502:3581   */\n      tag_130\n      tag_65\n      jump\t// in\n    tag_130:\n        /* \"#utility.yul\":3464:3583   */\n    tag_129:\n        /* \"#utility.yul\":3622:3623   */\n      0x00\n        /* \"#utility.yul\":3647:3699   */\n      tag_131\n        /* \"#utility.yul\":3691:3698   */\n      dup5\n        /* \"#utility.yul\":3682:3688   */\n      dup3\n        /* \"#utility.yul\":3671:3680   */\n      dup6\n        /* \"#utility.yul\":3667:3689   */\n      add\n        /* \"#utility.yul\":3647:3699   */\n      tag_79\n      jump\t// in\n    tag_131:\n        /* \"#utility.yul\":3637:3699   */\n      swap2\n      pop\n        /* \"#utility.yul\":3593:3709   */\n      pop\n        /* \"#utility.yul\":3389:3716   */\n      swap3\n      swap2\n      pop\n      pop\n      jump\t// out\n        /* \"#utility.yul\":3722:3835   */\n    tag_80:\n        /* \"#utility.yul\":3788:3794   */\n      0x00\n        /* \"#utility.yul\":3822:3827   */\n      dup2\n        /* \"#utility.yul\":3816:3828   */\n      mload\n        /* \"#utility.yul\":3806:3828   */\n      swap1\n      pop\n        /* \"#utility.yul\":3722:3835   */\n      swap2\n      swap1\n      pop\n      jump\t// out\n        /* \"#utility.yul\":3841:4024   */\n    tag_81:\n        /* \"#utility.yul\":3939:3950   */\n      0x00\n        /* \"#utility.yul\":3973:3979   */\n      dup3\n        /* \"#utility.yul\":3968:3971   */\n      dup3\n        /* \"#utility.yul\":3961:3980   */\n      mstore\n        /* \"#utility.yul\":4013:4017   */\n      0x20\n        /* \"#utility.yul\":4008:4011   */\n      dup3\n        /* \"#utility.yul\":4004:4018   */\n      add\n        /* \"#utility.yul\":3989:4018   */\n      swap1\n      pop\n        /* \"#utility.yul\":3841:4024   */\n      swap3\n      swap2\n      pop\n      pop\n      jump\t// out\n        /* \"#utility.yul\":4030:4161   */\n    tag_82:\n        /* \"#utility.yul\":4096:4100   */\n      0x00\n        /* \"#utility.yul\":4119:4122   */\n      dup2\n        /* \"#utility.yul\":4111:4122   */\n      swap1\n      pop\n        /* \"#utility.yul\":4149:4153   */\n      0x20\n        /* \"#utility.yul\":4144:4147   */\n      dup3\n        /* \"#utility.yul\":4140:4154   */\n      add\n        /* \"#utility.yul\":4132:4154   */\n      swap1\n      pop\n        /* \"#utility.yul\":4030:4161   */\n      swap2\n      swap1\n      pop\n      jump\t// out\n        /* \"#utility.yul\":4167:4272   */\n    tag_83:\n        /* \"#utility.yul\":4242:4265   */\n      tag_136\n        /* \"#utility.yul\":4259:4264   */\n      dup2\n        /* \"#utility.yul\":4242:4265   */\n      tag_77\n      jump\t// in\n    tag_136:\n        /* \"#utility.yul\":4237:4240   */\n      dup3\n        /* \"#utility.yul\":4230:4266   */\n      mstore\n        /* \"#utility.yul\":4167:4272   */\n      pop\n      pop\n      jump\t// out\n        /* \"#utility.yul\":4278:4453   */\n    tag_84:\n        /* \"#utility.yul\":4345:4355   */\n      0x00\n        /* \"#utility.yul\":4366:4410   */\n      tag_138\n        /* \"#utility.yul\":4406:4409   */\n      dup4\n        /* \"#utility.yul\":4398:4404   */\n      dup4\n        /* \"#utility.yul\":4366:4410   */\n      tag_83\n      jump\t// in\n    tag_138:\n        /* \"#utility.yul\":4442:4446   */\n      0x20\n        /* \"#utility.yul\":4437:4440   */\n      dup4\n        /* \"#utility.yul\":4433:4447   */\n      add\n        /* \"#utility.yul\":4419:4447   */\n      swap1\n      pop\n        /* \"#utility.yul\":4278:4453   */\n      swap3\n      swap2\n      pop\n      pop\n      jump\t// out\n        /* \"#utility.yul\":4459:4571   */\n    tag_85:\n        /* \"#utility.yul\":4528:4532   */\n      0x00\n        /* \"#utility.yul\":4560:4564   */\n      0x20\n        /* \"#utility.yul\":4555:4558   */\n      dup3\n        /* \"#utility.yul\":4551:4565   */\n      add\n        /* \"#utility.yul\":4543:4565   */\n      swap1\n      pop\n        /* \"#utility.yul\":4459:4571   */\n      swap2\n      swap1\n      pop\n      jump\t// out\n        /* \"#utility.yul\":4605:5329   */\n    tag_86:\n        /* \"#utility.yul\":4722:4725   */\n      0x00\n        /* \"#utility.yul\":4751:4804   */\n      tag_141\n        /* \"#utility.yul\":4798:4803   */\n      dup3\n        /* \"#utility.yul\":4751:4804   */\n      tag_80\n      jump\t// in\n    tag_141:\n        /* \"#utility.yul\":4820:4905   */\n      tag_142\n        /* \"#utility.yul\":4898:4904   */\n      dup2\n        /* \"#utility.yul\":4893:4896   */\n      dup6\n        /* \"#utility.yul\":4820:4905   */\n      tag_81\n      jump\t// in\n    tag_142:\n        /* \"#utility.yul\":4813:4905   */\n      swap4\n      pop\n        /* \"#utility.yul\":4929:4984   */\n      tag_143\n        /* \"#utility.yul\":4978:4983   */\n      dup4\n        /* \"#utility.yul\":4929:4984   */\n      tag_82\n      jump\t// in\n    tag_143:\n        /* \"#utility.yul\":5007:5014   */\n      dup1\n        /* \"#utility.yul\":5038:5039   */\n      0x00\n        /* \"#utility.yul\":5023:5304   */\n    tag_144:\n        /* \"#utility.yul\":5048:5054   */\n      dup4\n        /* \"#utility.yul\":5045:5046   */\n      dup2\n        /* \"#utility.yul\":5042:5055   */\n      lt\n        /* \"#utility.yul\":5023:5304   */\n      iszero\n      tag_146\n      jumpi\n        /* \"#utility.yul\":5124:5130   */\n      dup2\n        /* \"#utility.yul\":5118:5131   */\n      mload\n        /* \"#utility.yul\":5151:5212   */\n      tag_147\n        /* \"#utility.yul\":5208:5211   */\n      dup9\n        /* \"#utility.yul\":5193:5206   */\n      dup3\n        /* \"#utility.yul\":5151:5212   */\n      tag_84\n      jump\t// in\n    tag_147:\n        /* \"#utility.yul\":5144:5212   */\n      swap8\n      pop\n        /* \"#utility.yul\":5235:5294   */\n      tag_148\n        /* \"#utility.yul\":5287:5293   */\n      dup4\n        /* \"#utility.yul\":5235:5294   */\n      tag_85\n      jump\t// in\n    tag_148:\n        /* \"#utility.yul\":5225:5294   */\n      swap3\n      pop\n        /* \"#utility.yul\":5083:5304   */\n      pop\n        /* \"#utility.yul\":5070:5071   */\n      0x01\n        /* \"#utility.yul\":5067:5068   */\n      dup2\n        /* \"#utility.yul\":5063:5072   */\n      add\n        /* \"#utility.yul\":5058:5072   */\n      swap1\n      pop\n        /* \"#utility.yul\":5023:5304   */\n      jump(tag_144)\n    tag_146:\n        /* \"#utility.yul\":5027:5041   */\n      pop\n        /* \"#utility.yul\":5320:5323   */\n      dup6\n        /* \"#utility.yul\":5313:5323   */\n      swap4\n      pop\n        /* \"#utility.yul\":4727:5329   */\n      pop\n      pop\n      pop\n        /* \"#utility.yul\":4605:5329   */\n      swap3\n      swap2\n      pop\n      pop\n      jump\t// out\n        /* \"#utility.yul\":5335:5704   */\n    tag_25:\n        /* \"#utility.yul\":5476:5480   */\n      0x00\n        /* \"#utility.yul\":5514:5516   */\n      0x20\n        /* \"#utility.yul\":5503:5512   */\n      dup3\n        /* \"#utility.yul\":5499:5517   */\n      add\n        /* \"#utility.yul\":5491:5517   */\n      swap1\n      pop\n        /* \"#utility.yul\":5563:5572   */\n      dup2\n        /* \"#utility.yul\":5557:5561   */\n      dup2\n        /* \"#utility.yul\":5553:5573   */\n      sub\n        /* \"#utility.yul\":5549:5550   */\n      0x00\n        /* \"#utility.yul\":5538:5547   */\n      dup4\n        /* \"#utility.yul\":5534:5551   */\n      add\n        /* \"#utility.yul\":5527:5574   */\n      mstore\n        /* \"#utility.yul\":5591:5697   */\n      tag_150\n        /* \"#utility.yul\":5692:5696   */\n      dup2\n        /* \"#utility.yul\":5683:5689   */\n      dup5\n        /* \"#utility.yul\":5591:5697   */\n      tag_86\n      jump\t// in\n    tag_150:\n        /* \"#utility.yul\":5583:5697   */\n      swap1\n      pop\n        /* \"#utility.yul\":5335:5704   */\n      swap3\n      swap2\n      pop\n      pop\n      jump\t// out\n        /* \"#utility.yul\":5710:5890   */\n    tag_87:\n        /* \"#utility.yul\":5758:5835   */\n      0x4e487b7100000000000000000000000000000000000000000000000000000000\n        /* \"#utility.yul\":5755:5756   */\n      0x00\n        /* \"#utility.yul\":5748:5836   */\n      mstore\n        /* \"#utility.yul\":5855:5859   */\n      0x12\n        /* \"#utility.yul\":5852:5853   */\n      0x04\n        /* \"#utility.yul\":5845:5860   */\n      mstore\n        /* \"#utility.yul\":5879:5883   */\n      0x24\n        /* \"#utility.yul\":5876:5877   */\n      0x00\n        /* \"#utility.yul\":5869:5884   */\n      revert\n        /* \"#utility.yul\":5896:6072   */\n    tag_31:\n        /* \"#utility.yul\":5928:5929   */\n      0x00\n        /* \"#utility.yul\":5945:5965   */\n      tag_153\n        /* \"#utility.yul\":5963:5964   */\n      dup3\n        /* \"#utility.yul\":5945:5965   */\n      tag_67\n      jump\t// in\n    tag_153:\n        /* \"#utility.yul\":5940:5965   */\n      swap2\n      pop\n        /* \"#utility.yul\":5979:5999   */\n      tag_154\n        /* \"#utility.yul\":5997:5998   */\n      dup4\n        /* \"#utility.yul\":5979:5999   */\n      tag_67\n      jump\t// in\n    tag_154:\n        /* \"#utility.yul\":5974:5999   */\n      swap3\n      pop\n        /* \"#utility.yul\":6018:6019   */\n      dup3\n        /* \"#utility.yul\":6008:6043   */\n      tag_155\n      jumpi\n        /* \"#utility.yul\":6023:6041   */\n      tag_156\n      tag_87\n      jump\t// in\n    tag_156:\n        /* \"#utility.yul\":6008:6043   */\n    tag_155:\n        /* \"#utility.yul\":6064:6065   */\n      dup3\n        /* \"#utility.yul\":6061:6062   */\n      dup3\n        /* \"#utility.yul\":6057:6066   */\n      mod\n        /* \"#utility.yul\":6052:6066   */\n      swap1\n      pop\n        /* \"#utility.yul\":5896:6072   */\n      swap3\n      swap2\n      pop\n      pop\n      jump\t// out\n        /* \"#utility.yul\":6078:6258   */\n    tag_88:\n        /* \"#utility.yul\":6126:6203   */\n      0x4e487b7100000000000000000000000000000000000000000000000000000000\n        /* \"#utility.yul\":6123:6124   */\n      0x00\n        /* \"#utility.yul\":6116:6204   */\n      mstore\n        /* \"#utility.yul\":6223:6227   */\n      0x11\n        /* \"#utility.yul\":6220:6221   */\n      0x04\n        /* \"#utility.yul\":6213:6228   */\n      mstore\n        /* \"#utility.yul\":6247:6251   */\n      0x24\n        /* \"#utility.yul\":6244:6245   */\n      0x00\n        /* \"#utility.yul\":6237:6252   */\n      revert\n        /* \"#utility.yul\":6264:6455   */\n    tag_41:\n        /* \"#utility.yul\":6304:6307   */\n      0x00\n        /* \"#utility.yul\":6323:6343   */\n      tag_159\n        /* \"#utility.yul\":6341:6342   */\n      dup3\n        /* \"#utility.yul\":6323:6343   */\n      tag_67\n      jump\t// in\n    tag_159:\n        /* \"#utility.yul\":6318:6343   */\n      swap2\n      pop\n        /* \"#utility.yul\":6357:6377   */\n      tag_160\n        /* \"#utility.yul\":6375:6376   */\n      dup4\n        /* \"#utility.yul\":6357:6377   */\n      tag_67\n      jump\t// in\n    tag_160:\n        /* \"#utility.yul\":6352:6377   */\n      swap3\n      pop\n        /* \"#utility.yul\":6400:6401   */\n      dup3\n        /* \"#utility.yul\":6397:6398   */\n      dup3\n        /* \"#utility.yul\":6393:6402   */\n      add\n        /* \"#utility.yul\":6386:6402   */\n      swap1\n      pop\n        /* \"#utility.yul\":6421:6424   */\n      dup1\n        /* \"#utility.yul\":6418:6419   */\n      dup3\n        /* \"#utility.yul\":6415:6425   */\n      gt\n        /* \"#utility.yul\":6412:6448   */\n      iszero\n      tag_161\n      jumpi\n        /* \"#utility.yul\":6428:6446   */\n      tag_162\n      tag_88\n      jump\t// in\n    tag_162:\n        /* \"#utility.yul\":6412:6448   */\n    tag_161:\n        /* \"#utility.yul\":6264:6455   */\n      swap3\n      swap2\n      pop\n      pop\n      jump\t// out\n        /* \"#utility.yul\":6461:6655   */\n    tag_43:\n        /* \"#utility.yul\":6501:6505   */\n      0x00\n        /* \"#utility.yul\":6521:6541   */\n      tag_164\n        /* \"#utility.yul\":6539:6540   */\n      dup3\n        /* \"#utility.yul\":6521:6541   */\n      tag_67\n      jump\t// in\n    tag_164:\n        /* \"#utility.yul\":6516:6541   */\n      swap2\n      pop\n        /* \"#utility.yul\":6555:6575   */\n      tag_165\n        /* \"#utility.yul\":6573:6574   */\n      dup4\n        /* \"#utility.yul\":6555:6575   */\n      tag_67\n      jump\t// in\n    tag_165:\n        /* \"#utility.yul\":6550:6575   */\n      swap3\n      pop\n        /* \"#utility.yul\":6599:6600   */\n      dup3\n        /* \"#utility.yul\":6596:6597   */\n      dup3\n        /* \"#utility.yul\":6592:6601   */\n      sub\n        /* \"#utility.yul\":6584:6601   */\n      swap1\n      pop\n        /* \"#utility.yul\":6623:6624   */\n      dup2\n        /* \"#utility.yul\":6617:6621   */\n      dup2\n        /* \"#utility.yul\":6614:6625   */\n      gt\n        /* \"#utility.yul\":6611:6648   */\n      iszero\n      tag_166\n      jumpi\n        /* \"#utility.yul\":6628:6646   */\n      tag_167\n      tag_88\n      jump\t// in\n    tag_167:\n        /* \"#utility.yul\":6611:6648   */\n    tag_166:\n        /* \"#utility.yul\":6461:6655   */\n      swap3\n      swap2\n      pop\n      pop\n      jump\t// out\n        /* \"#utility.yul\":6661:6832   */\n    tag_46:\n        /* \"#utility.yul\":6700:6703   */\n      0x00\n        /* \"#utility.yul\":6723:6747   */\n      tag_169\n        /* \"#utility.yul\":6741:6746   */\n      dup3\n        /* \"#utility.yul\":6723:6747   */\n      tag_67\n      jump\t// in\n    tag_169:\n        /* \"#utility.yul\":6714:6747   */\n      swap2\n      pop\n        /* \"#utility.yul\":6769:6773   */\n      0x00\n        /* \"#utility.yul\":6762:6767   */\n      dup3\n        /* \"#utility.yul\":6759:6774   */\n      sub\n        /* \"#utility.yul\":6756:6797   */\n      tag_170\n      jumpi\n        /* \"#utility.yul\":6777:6795   */\n      tag_171\n      tag_88\n      jump\t// in\n    tag_171:\n        /* \"#utility.yul\":6756:6797   */\n    tag_170:\n        /* \"#utility.yul\":6824:6825   */\n      0x01\n        /* \"#utility.yul\":6817:6822   */\n      dup3\n        /* \"#utility.yul\":6813:6826   */\n      sub\n        /* \"#utility.yul\":6806:6826   */\n      swap1\n      pop\n        /* \"#utility.yul\":6661:6832   */\n      swap2\n      swap1\n      pop\n      jump\t// out\n        /* \"#utility.yul\":6838:7069   */\n    tag_58:\n        /* \"#utility.yul\":6876:6879   */\n      0x00\n        /* \"#utility.yul\":6899:6922   */\n      tag_173\n        /* \"#utility.yul\":6916:6921   */\n      dup3\n        /* \"#utility.yul\":6899:6922   */\n      tag_77\n      jump\t// in\n    tag_173:\n        /* \"#utility.yul\":6890:6922   */\n      swap2\n      pop\n        /* \"#utility.yul\":6944:7010   */\n      0x8000000000000000000000000000000000000000000000000000000000000000\n        /* \"#utility.yul\":6937:6942   */\n      dup3\n        /* \"#utility.yul\":6934:7011   */\n      sub\n        /* \"#utility.yul\":6931:7034   */\n      tag_174\n      jumpi\n        /* \"#utility.yul\":7014:7032   */\n      tag_175\n      tag_88\n      jump\t// in\n    tag_175:\n        /* \"#utility.yul\":6931:7034   */\n    tag_174:\n        /* \"#utility.yul\":7061:7062   */\n      0x01\n        /* \"#utility.yul\":7054:7059   */\n      dup3\n        /* \"#utility.yul\":7050:7063   */\n      sub\n        /* \"#utility.yul\":7043:7063   */\n      swap1\n      pop\n        /* \"#utility.yul\":6838:7069   */\n      swap2\n      swap1\n      pop\n      jump\t// out\n\n    auxdata: 0xa2646970667358221220d4b897a1446aed021b0480757bb32c81f2dabca04a581dc7e0c384e50883710a64736f6c63430008160033\n}\n",
				"bytecode": {
					"linkReferences": {},
					"object": "608060405234801561000f575f80fd5b506107798061001d5f395ff3fe608060405234801561000f575f80fd5b5060043610610055575f3560e01c8063029f10431461005957806344000a7e146100755780634c5be574146100a55780636cabc400146100c3578063716c7a88146100f3575b5f80fd5b610073600480360381019061006e91906103ae565b610111565b005b61008f600480360381019061008a91906103ae565b610179565b60405161009c9190610490565b60405180910390f35b6100ad61022f565b6040516100ba9190610490565b60405180910390f35b6100dd60048036038101906100d891906104e3565b610285565b6040516100ea91906105c5565b60405180910390f35b6100fb610321565b6040516101089190610490565b60405180910390f35b5f60028261011f9190610612565b0361014f57600281908060018154018082558091505060019003905f5260205f20015f9091909190915055610176565b600381908060018154018082558091505060019003905f5260205f20015f90919091909150555b50565b60605f600183610189919061066f565b90505b600181106101d857600180826101a291906106a2565b908060018154018082558091505060019003905f5260205f20015f909190919091505580806101d0906106d5565b91505061018c565b50600180548060200260200160405190810160405280929190818152602001828054801561022357602002820191905f5260205f20905b81548152602001906001019080831161020f575b50505050509050919050565b6060600380548060200260200160405190810160405280929190818152602001828054801561027b57602002820191905f5260205f20905b815481526020019060010190808311610267575b5050505050905090565b60605f8290505b5f81126102cb575f81908060018154018082558091505060019003905f5260205f20015f909190919091505580806102c3906106fc565b91505061028c565b505f80548060200260200160405190810160405280929190818152602001828054801561031557602002820191905f5260205f20905b815481526020019060010190808311610301575b50505050509050919050565b6060600280548060200260200160405190810160405280929190818152602001828054801561036d57602002820191905f5260205f20905b815481526020019060010190808311610359575b5050505050905090565b5f80fd5b5f819050919050565b61038d8161037b565b8114610397575f80fd5b50565b5f813590506103a881610384565b92915050565b5f602082840312156103c3576103c2610377565b5b5f6103d08482850161039a565b91505092915050565b5f81519050919050565b5f82825260208201905092915050565b5f819050602082019050919050565b61040b8161037b565b82525050565b5f61041c8383610402565b60208301905092915050565b5f602082019050919050565b5f61043e826103d9565b61044881856103e3565b9350610453836103f3565b805f5b8381101561048357815161046a8882610411565b975061047583610428565b925050600181019050610456565b5085935050505092915050565b5f6020820190508181035f8301526104a88184610434565b905092915050565b5f819050919050565b6104c2816104b0565b81146104cc575f80fd5b50565b5f813590506104dd816104b9565b92915050565b5f602082840312156104f8576104f7610377565b5b5f610505848285016104cf565b91505092915050565b5f81519050919050565b5f82825260208201905092915050565b5f819050602082019050919050565b610540816104b0565b82525050565b5f6105518383610537565b60208301905092915050565b5f602082019050919050565b5f6105738261050e565b61057d8185610518565b935061058883610528565b805f5b838110156105b857815161059f8882610546565b97506105aa8361055d565b92505060018101905061058b565b5085935050505092915050565b5f6020820190508181035f8301526105dd8184610569565b905092915050565b7f4e487b71000000000000000000000000000000000000000000000000000000005f52601260045260245ffd5b5f61061c8261037b565b91506106278361037b565b925082610637576106366105e5565b5b828206905092915050565b7f4e487b71000000000000000000000000000000000000000000000000000000005f52601160045260245ffd5b5f6106798261037b565b91506106848361037b565b925082820190508082111561069c5761069b610642565b5b92915050565b5f6106ac8261037b565b91506106b78361037b565b92508282039050818111156106cf576106ce610642565b5b92915050565b5f6106df8261037b565b91505f82036106f1576106f0610642565b5b600182039050919050565b5f610706826104b0565b91507f8000000000000000000000000000000000000000000000000000000000000000820361073857610737610642565b5b60018203905091905056fea2646970667358221220d4b897a1446aed021b0480757bb32c81f2dabca04a581dc7e0c384e50883710a64736f6c63430008160033",
					"opcodes": "PUSH1 0x80 PUSH1 0x40 MSTORE CALLVALUE DUP1 ISZERO PUSH2 0xF JUMPI PUSH0 DUP1 REVERT JUMPDEST POP PUSH2 0x779 DUP1 PUSH2 0x1D PUSH0 CODECOPY PUSH0 RETURN INVALID PUSH1 0x80 PUSH1 0x40 MSTORE CALLVALUE DUP1 ISZERO PUSH2 0xF JUMPI PUSH0 DUP1 REVERT JUMPDEST POP PUSH1 0x4 CALLDATASIZE LT PUSH2 0x55 JUMPI PUSH0 CALLDATALOAD PUSH1 0xE0 SHR DUP1 PUSH4 0x29F1043 EQ PUSH2 0x59 JUMPI DUP1 PUSH4 0x44000A7E EQ PUSH2 0x75 JUMPI DUP1 PUSH4 0x4C5BE574 EQ PUSH2 0xA5 JUMPI DUP1 PUSH4 0x6CABC400 EQ PUSH2 0xC3 JUMPI DUP1 PUSH4 0x716C7A88 EQ PUSH2 0xF3 JUMPI JUMPDEST PUSH0 DUP1 REVERT JUMPDEST PUSH2 0x73 PUSH1 0x4 DUP1 CALLDATASIZE SUB DUP2 ADD SWAP1 PUSH2 0x6E SWAP2 SWAP1 PUSH2 0x3AE JUMP JUMPDEST PUSH2 0x111 JUMP JUMPDEST STOP JUMPDEST PUSH2 0x8F PUSH1 0x4 DUP1 CALLDATASIZE SUB DUP2 ADD SWAP1 PUSH2 0x8A SWAP2 SWAP1 PUSH2 0x3AE JUMP JUMPDEST PUSH2 0x179 JUMP JUMPDEST PUSH1 0x40 MLOAD PUSH2 0x9C SWAP2 SWAP1 PUSH2 0x490 JUMP JUMPDEST PUSH1 0x40 MLOAD DUP1 SWAP2 SUB SWAP1 RETURN JUMPDEST PUSH2 0xAD PUSH2 0x22F JUMP JUMPDEST PUSH1 0x40 MLOAD PUSH2 0xBA SWAP2 SWAP1 PUSH2 0x490 JUMP JUMPDEST PUSH1 0x40 MLOAD DUP1 SWAP2 SUB SWAP1 RETURN JUMPDEST PUSH2 0xDD PUSH1 0x4 DUP1 CALLDATASIZE SUB DUP2 ADD SWAP1 PUSH2 0xD8 SWAP2 SWAP1 PUSH2 0x4E3 JUMP JUMPDEST PUSH2 0x285 JUMP JUMPDEST PUSH1 0x40 MLOAD PUSH2 0xEA SWAP2 SWAP1 PUSH2 0x5C5 JUMP JUMPDEST PUSH1 0x40 MLOAD DUP1 SWAP2 SUB SWAP1 RETURN JUMPDEST PUSH2 0xFB PUSH2 0x321 JUMP JUMPDEST PUSH1 0x40 MLOAD PUSH2 0x108 SWAP2 SWAP1 PUSH2 0x490 JUMP JUMPDEST PUSH1 0x40 MLOAD DUP1 SWAP2 SUB SWAP1 RETURN JUMPDEST PUSH0 PUSH1 0x2 DUP3 PUSH2 0x11F SWAP2 SWAP1 PUSH2 0x612 JUMP JUMPDEST SUB PUSH2 0x14F JUMPI PUSH1 0x2 DUP2 SWAP1 DUP1 PUSH1 0x1 DUP2 SLOAD ADD DUP1 DUP3 SSTORE DUP1 SWAP2 POP POP PUSH1 0x1 SWAP1 SUB SWAP1 PUSH0 MSTORE PUSH1 0x20 PUSH0 KECCAK256 ADD PUSH0 SWAP1 SWAP2 SWAP1 SWAP2 SWAP1 SWAP2 POP SSTORE PUSH2 0x176 JUMP JUMPDEST PUSH1 0x3 DUP2 SWAP1 DUP1 PUSH1 0x1 DUP2 SLOAD ADD DUP1 DUP3 SSTORE DUP1 SWAP2 POP POP PUSH1 0x1 SWAP1 SUB SWAP1 PUSH0 MSTORE PUSH1 0x20 PUSH0 KECCAK256 ADD PUSH0 SWAP1 SWAP2 SWAP1 SWAP2 SWAP1 SWAP2 POP SSTORE JUMPDEST POP JUMP JUMPDEST PUSH1 0x60 PUSH0 PUSH1 0x1 DUP4 PUSH2 0x189 SWAP2 SWAP1 PUSH2 0x66F JUMP JUMPDEST SWAP1 POP JUMPDEST PUSH1 0x1 DUP2 LT PUSH2 0x1D8 JUMPI PUSH1 0x1 DUP1 DUP3 PUSH2 0x1A2 SWAP2 SWAP1 PUSH2 0x6A2 JUMP JUMPDEST SWAP1 DUP1 PUSH1 0x1 DUP2 SLOAD ADD DUP1 DUP3 SSTORE DUP1 SWAP2 POP POP PUSH1 0x1 SWAP1 SUB SWAP1 PUSH0 MSTORE PUSH1 0x20 PUSH0 KECCAK256 ADD PUSH0 SWAP1 SWAP2 SWAP1 SWAP2 SWAP1 SWAP2 POP SSTORE DUP1 DUP1 PUSH2 0x1D0 SWAP1 PUSH2 0x6D5 JUMP JUMPDEST SWAP2 POP POP PUSH2 0x18C JUMP JUMPDEST POP PUSH1 0x1 DUP1 SLOAD DUP1 PUSH1 0x20 MUL PUSH1 0x20 ADD PUSH1 0x40 MLOAD SWAP1 DUP2 ADD PUSH1 0x40 MSTORE DUP1 SWAP3 SWAP2 SWAP1 DUP2 DUP2 MSTORE PUSH1 0x20 ADD DUP3 DUP1 SLOAD DUP1 ISZERO PUSH2 0x223 JUMPI PUSH1 0x20 MUL DUP3 ADD SWAP2 SWAP1 PUSH0 MSTORE PUSH1 0x20 PUSH0 KECCAK256 SWAP1 JUMPDEST DUP2 SLOAD DUP2 MSTORE PUSH1 0x20 ADD SWAP1 PUSH1 0x1 ADD SWAP1 DUP1 DUP4 GT PUSH2 0x20F JUMPI JUMPDEST POP POP POP POP POP SWAP1 POP SWAP2 SWAP1 POP JUMP JUMPDEST PUSH1 0x60 PUSH1 0x3 DUP1 SLOAD DUP1 PUSH1 0x20 MUL PUSH1 0x20 ADD PUSH1 0x40 MLOAD SWAP1 DUP2 ADD PUSH1 0x40 MSTORE DUP1 SWAP3 SWAP2 SWAP1 DUP2 DUP2 MSTORE PUSH1 0x20 ADD DUP3 DUP1 SLOAD DUP1 ISZERO PUSH2 0x27B JUMPI PUSH1 0x20 MUL DUP3 ADD SWAP2 SWAP1 PUSH0 MSTORE PUSH1 0x20 PUSH0 KECCAK256 SWAP1 JUMPDEST DUP2 SLOAD DUP2 MSTORE PUSH1 0x20 ADD SWAP1 PUSH1 0x1 ADD SWAP1 DUP1 DUP4 GT PUSH2 0x267 JUMPI JUMPDEST POP POP POP POP POP SWAP1 POP SWAP1 JUMP JUMPDEST PUSH1 0x60 PUSH0 DUP3 SWAP1 POP JUMPDEST PUSH0 DUP2 SLT PUSH2 0x2CB JUMPI PUSH0 DUP2 SWAP1 DUP1 PUSH1 0x1 DUP2 SLOAD ADD DUP1 DUP3 SSTORE DUP1 SWAP2 POP POP PUSH1 0x1 SWAP1 SUB SWAP1 PUSH0 MSTORE PUSH1 0x20 PUSH0 KECCAK256 ADD PUSH0 SWAP1 SWAP2 SWAP1 SWAP2 SWAP1 SWAP2 POP SSTORE DUP1 DUP1 PUSH2 0x2C3 SWAP1 PUSH2 0x6FC JUMP JUMPDEST SWAP2 POP POP PUSH2 0x28C JUMP JUMPDEST POP PUSH0 DUP1 SLOAD DUP1 PUSH1 0x20 MUL PUSH1 0x20 ADD PUSH1 0x40 MLOAD SWAP1 DUP2 ADD PUSH1 0x40 MSTORE DUP1 SWAP3 SWAP2 SWAP1 DUP2 DUP2 MSTORE PUSH1 0x20 ADD DUP3 DUP1 SLOAD DUP1 ISZERO PUSH2 0x315 JUMPI PUSH1 0x20 MUL DUP3 ADD SWAP2 SWAP1 PUSH0 MSTORE PUSH1 0x20 PUSH0 KECCAK256 SWAP1 JUMPDEST DUP2 SLOAD DUP2 MSTORE PUSH1 0x20 ADD SWAP1 PUSH1 0x1 ADD SWAP1 DUP1 DUP4 GT PUSH2 0x301 JUMPI JUMPDEST POP POP POP POP POP SWAP1 POP SWAP2 SWAP1 POP JUMP JUMPDEST PUSH1 0x60 PUSH1 0x2 DUP1 SLOAD DUP1 PUSH1 0x20 MUL PUSH1 0x20 ADD PUSH1 0x40 MLOAD SWAP1 DUP2 ADD PUSH1 0x40 MSTORE DUP1 SWAP3 SWAP2 SWAP1 DUP2 DUP2 MSTORE PUSH1 0x20 ADD DUP3 DUP1 SLOAD DUP1 ISZERO PUSH2 0x36D JUMPI PUSH1 0x20 MUL DUP3 ADD SWAP2 SWAP1 PUSH0 MSTORE PUSH1 0x20 PUSH0 KECCAK256 SWAP1 JUMPDEST DUP2 SLOAD DUP2 MSTORE PUSH1 0x20 ADD SWAP1 PUSH1 0x1 ADD SWAP1 DUP1 DUP4 GT PUSH2 0x359 JUMPI JUMPDEST POP POP POP POP POP SWAP1 POP SWAP1 JUMP JUMPDEST PUSH0 DUP1 REVERT JUMPDEST PUSH0 DUP2 SWAP1 POP SWAP2 SWAP1 POP JUMP JUMPDEST PUSH2 0x38D DUP2 PUSH2 0x37B JUMP JUMPDEST DUP2 EQ PUSH2 0x397 JUMPI PUSH0 DUP1 REVERT JUMPDEST POP JUMP JUMPDEST PUSH0 DUP2 CALLDATALOAD SWAP1 POP PUSH2 0x3A8 DUP2 PUSH2 0x384 JUMP JUMPDEST SWAP3 SWAP2 POP POP JUMP JUMPDEST PUSH0 PUSH1 0x20 DUP3 DUP5 SUB SLT ISZERO PUSH2 0x3C3 JUMPI PUSH2 0x3C2 PUSH2 0x377 JUMP JUMPDEST JUMPDEST PUSH0 PUSH2 0x3D0 DUP5 DUP3 DUP6 ADD PUSH2 0x39A JUMP JUMPDEST SWAP2 POP POP SWAP3 SWAP2 POP POP JUMP JUMPDEST PUSH0 DUP2 MLOAD SWAP1 POP SWAP2 SWAP1 POP JUMP JUMPDEST PUSH0 DUP3 DUP3 MSTORE PUSH1 0x20 DUP3 ADD SWAP1 POP SWAP3 SWAP2 POP POP JUMP JUMPDEST PUSH0 DUP2 SWAP1 POP PUSH1 0x20 DUP3 ADD SWAP1 POP SWAP2 SWAP1 POP JUMP JUMPDEST PUSH2 0x40B DUP2 PUSH2 0x37B JUMP JUMPDEST DUP3 MSTORE POP POP JUMP JUMPDEST PUSH0 PUSH2 0x41C DUP4 DUP4 PUSH2 0x402 JUMP JUMPDEST PUSH1 0x20 DUP4 ADD SWAP1 POP SWAP3 SWAP2 POP POP JUMP JUMPDEST PUSH0 PUSH1 0x20 DUP3 ADD SWAP1 POP SWAP2 SWAP1 POP JUMP JUMPDEST PUSH0 PUSH2 0x43E DUP3 PUSH2 0x3D9 JUMP JUMPDEST PUSH2 0x448 DUP2 DUP6 PUSH2 0x3E3 JUMP JUMPDEST SWAP4 POP PUSH2 0x453 DUP4 PUSH2 0x3F3 JUMP JUMPDEST DUP1 PUSH0 JUMPDEST DUP4 DUP2 LT ISZERO PUSH2 0x483 JUMPI DUP2 MLOAD PUSH2 0x46A DUP9 DUP3 PUSH2 0x411 JUMP JUMPDEST SWAP8 POP PUSH2 0x475 DUP4 PUSH2 0x428 JUMP JUMPDEST SWAP3 POP POP PUSH1 0x1 DUP2 ADD SWAP1 POP PUSH2 0x456 JUMP JUMPDEST POP DUP6 SWAP4 POP POP POP POP SWAP3 SWAP2 POP POP JUMP JUMPDEST PUSH0 PUSH1 0x20 DUP3 ADD SWAP1 POP DUP2 DUP2 SUB PUSH0 DUP4 ADD MSTORE PUSH2 0x4A8 DUP2 DUP5 PUSH2 0x434 JUMP JUMPDEST SWAP1 POP SWAP3 SWAP2 POP POP JUMP JUMPDEST PUSH0 DUP2 SWAP1 POP SWAP2 SWAP1 POP JUMP JUMPDEST PUSH2 0x4C2 DUP2 PUSH2 0x4B0 JUMP JUMPDEST DUP2 EQ PUSH2 0x4CC JUMPI PUSH0 DUP1 REVERT JUMPDEST POP JUMP JUMPDEST PUSH0 DUP2 CALLDATALOAD SWAP1 POP PUSH2 0x4DD DUP2 PUSH2 0x4B9 JUMP JUMPDEST SWAP3 SWAP2 POP POP JUMP JUMPDEST PUSH0 PUSH1 0x20 DUP3 DUP5 SUB SLT ISZERO PUSH2 0x4F8 JUMPI PUSH2 0x4F7 PUSH2 0x377 JUMP JUMPDEST JUMPDEST PUSH0 PUSH2 0x505 DUP5 DUP3 DUP6 ADD PUSH2 0x4CF JUMP JUMPDEST SWAP2 POP POP SWAP3 SWAP2 POP POP JUMP JUMPDEST PUSH0 DUP2 MLOAD SWAP1 POP SWAP2 SWAP1 POP JUMP JUMPDEST PUSH0 DUP3 DUP3 MSTORE PUSH1 0x20 DUP3 ADD SWAP1 POP SWAP3 SWAP2 POP POP JUMP JUMPDEST PUSH0 DUP2 SWAP1 POP PUSH1 0x20 DUP3 ADD SWAP1 POP SWAP2 SWAP1 POP JUMP JUMPDEST PUSH2 0x540 DUP2 PUSH2 0x4B0 JUMP JUMPDEST DUP3 MSTORE POP POP JUMP JUMPDEST PUSH0 PUSH2 0x551 DUP4 DUP4 PUSH2 0x537 JUMP JUMPDEST PUSH1 0x20 DUP4 ADD SWAP1 POP SWAP3 SWAP2 POP POP JUMP JUMPDEST PUSH0 PUSH1 0x20 DUP3 ADD SWAP1 POP SWAP2 SWAP1 POP JUMP JUMPDEST PUSH0 PUSH2 0x573 DUP3 PUSH2 0x50E JUMP JUMPDEST PUSH2 0x57D DUP2 DUP6 PUSH2 0x518 JUMP JUMPDEST SWAP4 POP PUSH2 0x588 DUP4 PUSH2 0x528 JUMP JUMPDEST DUP1 PUSH0 JUMPDEST DUP4 DUP2 LT ISZERO PUSH2 0x5B8 JUMPI DUP2 MLOAD PUSH2 0x59F DUP9 DUP3 PUSH2 0x546 JUMP JUMPDEST SWAP8 POP PUSH2 0x5AA DUP4 PUSH2 0x55D JUMP JUMPDEST SWAP3 POP POP PUSH1 0x1 DUP2 ADD SWAP1 POP PUSH2 0x58B JUMP JUMPDEST POP DUP6 SWAP4 POP POP POP POP SWAP3 SWAP2 POP POP JUMP JUMPDEST PUSH0 PUSH1 0x20 DUP3 ADD SWAP1 POP DUP2 DUP2 SUB PUSH0 DUP4 ADD MSTORE PUSH2 0x5DD DUP2 DUP5 PUSH2 0x569 JUMP JUMPDEST SWAP1 POP SWAP3 SWAP2 POP POP JUMP JUMPDEST PUSH32 0x4E487B7100000000000000000000000000000000000000000000000000000000 PUSH0 MSTORE PUSH1 0x12 PUSH1 0x4 MSTORE PUSH1 0x24 PUSH0 REVERT JUMPDEST PUSH0 PUSH2 0x61C DUP3 PUSH2 0x37B JUMP JUMPDEST SWAP2 POP PUSH2 0x627 DUP4 PUSH2 0x37B JUMP JUMPDEST SWAP3 POP DUP3 PUSH2 0x637 JUMPI PUSH2 0x636 PUSH2 0x5E5 JUMP JUMPDEST JUMPDEST DUP3 DUP3 MOD SWAP1 POP SWAP3 SWAP2 POP POP JUMP JUMPDEST PUSH32 0x4E487B7100000000000000000000000000000000000000000000000000000000 PUSH0 MSTORE PUSH1 0x11 PUSH1 0x4 MSTORE PUSH1 0x24 PUSH0 REVERT JUMPDEST PUSH0 PUSH2 0x679 DUP3 PUSH2 0x37B JUMP JUMPDEST SWAP2 POP PUSH2 0x684 DUP4 PUSH2 0x37B JUMP JUMPDEST SWAP3 POP DUP3 DUP3 ADD SWAP1 POP DUP1 DUP3 GT ISZERO PUSH2 0x69C JUMPI PUSH2 0x69B PUSH2 0x642 JUMP JUMPDEST JUMPDEST SWAP3 SWAP2 POP POP JUMP JUMPDEST PUSH0 PUSH2 0x6AC DUP3 PUSH2 0x37B JUMP JUMPDEST SWAP2 POP PUSH2 0x6B7 DUP4 PUSH2 0x37B JUMP JUMPDEST SWAP3 POP DUP3 DUP3 SUB SWAP1 POP DUP2 DUP2 GT ISZERO PUSH2 0x6CF JUMPI PUSH2 0x6CE PUSH2 0x642 JUMP JUMPDEST JUMPDEST SWAP3 SWAP2 POP POP JUMP JUMPDEST PUSH0 PUSH2 0x6DF DUP3 PUSH2 0x37B JUMP JUMPDEST SWAP2 POP PUSH0 DUP3 SUB PUSH2 0x6F1 JUMPI PUSH2 0x6F0 PUSH2 0x642 JUMP JUMPDEST JUMPDEST PUSH1 0x1 DUP3 SUB SWAP1 POP SWAP2 SWAP1 POP JUMP JUMPDEST PUSH0 PUSH2 0x706 DUP3 PUSH2 0x4B0 JUMP JUMPDEST SWAP2 POP PUSH32 0x8000000000000000000000000000000000000000000000000000000000000000 DUP3 SUB PUSH2 0x738 JUMPI PUSH2 0x737 PUSH2 0x642 JUMP JUMPDEST JUMPDEST PUSH1 0x1 DUP3 SUB SWAP1 POP SWAP2 SWAP1 POP JUMP INVALID LOG2 PUSH5 0x6970667358 0x22 SLT KECCAK256 0xD4 0xB8 SWAP8 LOG1 PREVRANDAO PUSH11 0xED021B0480757BB32C81F2 0xDA 0xBC LOG0 0x4A PC SAR 0xC7 0xE0 0xC3 DUP5 0xE5 ADDMOD DUP4 PUSH18 0xA64736F6C63430008160033000000000000 "
				},
				"gasEstimates": {
					"creation": {
						"codeDepositCost": "382600",
						"executionCost": "416",
						"totalCost": "383016"
					},
					"external": {
						"getEvens()": "infinite",
						"getOdds()": "infinite",
						"setA(int256)": "infinite",
						"setA2(uint256)": "infinite",
						"setNums(uint256)": "infinite"
					}
				},
				"methodIdentifiers": {
					"getEvens()": "716c7a88",
					"getOdds()": "4c5be574",
					"setA(int256)": "6cabc400",
					"setA2(uint256)": "44000a7e",
					"setNums(uint256)": "029f1043"
				}
			},
			"storageLayout": {
				"storage": [
					{
						"astId": 4,
						"contract": "basic_21_30.sol:basic_21_30",
						"label": "A",
						"offset": 0,
						"slot": "0",
						"type": "t_array(t_int256)dyn_storage"
					},
					{
						"astId": 36,
						"contract": "basic_21_30.sol:basic_21_30",
						"label": "A2",
						"offset": 0,
						"slot": "1",
						"type": "t_array(t_uint256)dyn_storage"
					},
					{
						"astId": 72,
						"contract": "basic_21_30.sol:basic_21_30",
						"label": "evenNums",
						"offset": 0,
						"slot": "2",
						"type": "t_array(t_uint256)dyn_storage"
					},
					{
						"astId": 75,
						"contract": "basic_21_30.sol:basic_21_30",
						"label": "oddNums",
						"offset": 0,
						"slot": "3",
						"type": "t_array(t_uint256)dyn_storage"
					}
				],
				"types": {
					"t_array(t_int256)dyn_storage": {
						"base": "t_int256",
						"encoding": "dynamic_array",
						"label": "int256[]",
						"numberOfBytes": "32"
					},
					"t_array(t_uint256)dyn_storage": {
						"base": "t_uint256",
						"encoding": "dynamic_array",
						"label": "uint256[]",
						"numberOfBytes": "32"
					},
					"t_int256": {
						"encoding": "inplace",
						"label": "int256",
						"numberOfBytes": "32"
					},
					"t_uint256": {
						"encoding": "inplace",
						"label": "uint256",
						"numberOfBytes": "32"
					}
				}
			},
			"userdoc": {
				"kind": "user",
				"methods": {},
				"version": 1
			}
		}
	}
}