{
	"Exam_20231226.sol": {
		"ClassManager": {
			"abi": [
				{
					"inputs": [],
					"name": "getAllStudents",
					"outputs": [
						{
							"components": [
								{
									"internalType": "uint256",
									"name": "number",
									"type": "uint256"
								},
								{
									"internalType": "string",
									"name": "name",
									"type": "string"
								},
								{
									"internalType": "uint256",
									"name": "score",
									"type": "uint256"
								}
							],
							"internalType": "struct ClassManager.StudentInfo[]",
							"name": "",
							"type": "tuple[]"
						}
					],
					"stateMutability": "view",
					"type": "function"
				},
				{
					"inputs": [],
					"name": "getAvgScore",
					"outputs": [
						{
							"internalType": "uint256",
							"name": "",
							"type": "uint256"
						}
					],
					"stateMutability": "view",
					"type": "function"
				},
				{
					"inputs": [],
					"name": "getLowestScore",
					"outputs": [
						{
							"components": [
								{
									"internalType": "uint256",
									"name": "number",
									"type": "uint256"
								},
								{
									"internalType": "string",
									"name": "name",
									"type": "string"
								},
								{
									"internalType": "uint256",
									"name": "score",
									"type": "uint256"
								}
							],
							"internalType": "struct ClassManager.StudentInfo",
							"name": "",
							"type": "tuple"
						}
					],
					"stateMutability": "nonpayable",
					"type": "function"
				},
				{
					"inputs": [],
					"name": "getNameOfLowestScore",
					"outputs": [
						{
							"internalType": "string",
							"name": "",
							"type": "string"
						}
					],
					"stateMutability": "nonpayable",
					"type": "function"
				},
				{
					"inputs": [],
					"name": "getNumOfStudendts",
					"outputs": [
						{
							"internalType": "uint256",
							"name": "",
							"type": "uint256"
						}
					],
					"stateMutability": "view",
					"type": "function"
				},
				{
					"inputs": [
						{
							"internalType": "uint256",
							"name": "_number",
							"type": "uint256"
						}
					],
					"name": "getStudentByNumber",
					"outputs": [
						{
							"components": [
								{
									"internalType": "uint256",
									"name": "number",
									"type": "uint256"
								},
								{
									"internalType": "string",
									"name": "name",
									"type": "string"
								},
								{
									"internalType": "uint256",
									"name": "score",
									"type": "uint256"
								}
							],
							"internalType": "struct ClassManager.StudentInfo",
							"name": "",
							"type": "tuple"
						}
					],
					"stateMutability": "view",
					"type": "function"
				},
				{
					"inputs": [],
					"name": "getTotalScore",
					"outputs": [
						{
							"internalType": "uint256",
							"name": "",
							"type": "uint256"
						}
					],
					"stateMutability": "view",
					"type": "function"
				},
				{
					"inputs": [],
					"name": "initStudentsList",
					"outputs": [],
					"stateMutability": "nonpayable",
					"type": "function"
				},
				{
					"inputs": [],
					"name": "sortStudentByScore",
					"outputs": [],
					"stateMutability": "nonpayable",
					"type": "function"
				}
			],
			"devdoc": {
				"kind": "dev",
				"methods": {},
				"version": 1
			},
			"evm": {
				"assembly": "    /* \"Exam_20231226.sol\":72:3158  contract ClassManager {... */\n  mstore(0x40, 0x80)\n  callvalue\n  dup1\n  iszero\n  tag_1\n  jumpi\n  0x00\n  dup1\n  revert\ntag_1:\n  pop\n  dataSize(sub_0)\n  dup1\n  dataOffset(sub_0)\n  0x00\n  codecopy\n  0x00\n  return\nstop\n\nsub_0: assembly {\n        /* \"Exam_20231226.sol\":72:3158  contract ClassManager {... */\n      mstore(0x40, 0x80)\n      callvalue\n      dup1\n      iszero\n      tag_1\n      jumpi\n      0x00\n      dup1\n      revert\n    tag_1:\n      pop\n      jumpi(tag_2, lt(calldatasize, 0x04))\n      shr(0xe0, calldataload(0x00))\n      dup1\n      0x740d5e10\n      gt\n      tag_12\n      jumpi\n      dup1\n      0x740d5e10\n      eq\n      tag_7\n      jumpi\n      dup1\n      0xa41f985e\n      eq\n      tag_8\n      jumpi\n      dup1\n      0xd7bc51a7\n      eq\n      tag_9\n      jumpi\n      dup1\n      0xdaf41eda\n      eq\n      tag_10\n      jumpi\n      dup1\n      0xe9e30927\n      eq\n      tag_11\n      jumpi\n      jump(tag_2)\n    tag_12:\n      dup1\n      0x097d814d\n      eq\n      tag_3\n      jumpi\n      dup1\n      0x2011cdae\n      eq\n      tag_4\n      jumpi\n      dup1\n      0x2b567fb5\n      eq\n      tag_5\n      jumpi\n      dup1\n      0x5148f68e\n      eq\n      tag_6\n      jumpi\n    tag_2:\n      0x00\n      dup1\n      revert\n        /* \"Exam_20231226.sol\":1655:1839  function getLowestScore() public returns(StudentInfo memory) {... */\n    tag_3:\n      tag_13\n      tag_14\n      jump\t// in\n    tag_13:\n      mload(0x40)\n      tag_15\n      swap2\n      swap1\n      tag_16\n      jump\t// in\n    tag_15:\n      mload(0x40)\n      dup1\n      swap2\n      sub\n      swap1\n      return\n        /* \"Exam_20231226.sol\":2122:2330  function getTotalScore() public view returns(uint) {... */\n    tag_4:\n      tag_17\n      tag_18\n      jump\t// in\n    tag_17:\n      mload(0x40)\n      tag_19\n      swap2\n      swap1\n      tag_20\n      jump\t// in\n    tag_19:\n      mload(0x40)\n      dup1\n      swap2\n      sub\n      swap1\n      return\n        /* \"Exam_20231226.sol\":1847:2037  function getNameOfLowestScore() public returns(string memory) {... */\n    tag_5:\n      tag_21\n      tag_22\n      jump\t// in\n    tag_21:\n      mload(0x40)\n      tag_23\n      swap2\n      swap1\n      tag_24\n      jump\t// in\n    tag_23:\n      mload(0x40)\n      dup1\n      swap2\n      sub\n      swap1\n      return\n        /* \"Exam_20231226.sol\":988:1084  function getNumOfStudendts() public view returns(uint) {... */\n    tag_6:\n      tag_25\n      tag_26\n      jump\t// in\n    tag_25:\n      mload(0x40)\n      tag_27\n      swap2\n      swap1\n      tag_20\n      jump\t// in\n    tag_27:\n      mload(0x40)\n      dup1\n      swap2\n      sub\n      swap1\n      return\n        /* \"Exam_20231226.sol\":2338:2501  function getAvgScore() public view returns(uint) {... */\n    tag_7:\n      tag_28\n      tag_29\n      jump\t// in\n    tag_28:\n      mload(0x40)\n      tag_30\n      swap2\n      swap1\n      tag_20\n      jump\t// in\n    tag_30:\n      mload(0x40)\n      dup1\n      swap2\n      sub\n      swap1\n      return\n        /* \"Exam_20231226.sol\":2575:2944  function getStudentByNumber(uint _number) public view returns(StudentInfo memory) {... */\n    tag_8:\n      tag_31\n      0x04\n      dup1\n      calldatasize\n      sub\n      dup2\n      add\n      swap1\n      tag_32\n      swap2\n      swap1\n      tag_33\n      jump\t// in\n    tag_32:\n      tag_34\n      jump\t// in\n    tag_31:\n      mload(0x40)\n      tag_35\n      swap2\n      swap1\n      tag_16\n      jump\t// in\n    tag_35:\n      mload(0x40)\n      dup1\n      swap2\n      sub\n      swap1\n      return\n        /* \"Exam_20231226.sol\":377:980  function initStudentsList() public {... */\n    tag_9:\n      tag_36\n      tag_37\n      jump\t// in\n    tag_36:\n      stop\n        /* \"Exam_20231226.sol\":1165:1647  function sortStudentByScore() public {... */\n    tag_10:\n      tag_38\n      tag_39\n      jump\t// in\n    tag_38:\n      stop\n        /* \"Exam_20231226.sol\":3047:3149  function getAllStudents() public view returns(StudentInfo[] memory) {... */\n    tag_11:\n      tag_40\n      tag_41\n      jump\t// in\n    tag_40:\n      mload(0x40)\n      tag_42\n      swap2\n      swap1\n      tag_43\n      jump\t// in\n    tag_42:\n      mload(0x40)\n      dup1\n      swap2\n      sub\n      swap1\n      return\n        /* \"Exam_20231226.sol\":1655:1839  function getLowestScore() public returns(StudentInfo memory) {... */\n    tag_14:\n        /* \"Exam_20231226.sol\":1696:1714  StudentInfo memory */\n      tag_44\n      tag_45\n      jump\t// in\n    tag_44:\n        /* \"Exam_20231226.sol\":1755:1756  1 */\n      0x01\n        /* \"Exam_20231226.sol\":1736:1744  students */\n      0x00\n        /* \"Exam_20231226.sol\":1736:1751  students.length */\n      dup1\n      sload\n      swap1\n      pop\n        /* \"Exam_20231226.sol\":1736:1756  students.length >= 1 */\n      lt\n      iszero\n        /* \"Exam_20231226.sol\":1727:1771  require( students.length >= 1, \"No student\") */\n      tag_47\n      jumpi\n      mload(0x40)\n      0x08c379a000000000000000000000000000000000000000000000000000000000\n      dup2\n      mstore\n      0x04\n      add\n      tag_48\n      swap1\n      tag_49\n      jump\t// in\n    tag_48:\n      mload(0x40)\n      dup1\n      swap2\n      sub\n      swap1\n      revert\n    tag_47:\n        /* \"Exam_20231226.sol\":1782:1802  sortStudentByScore() */\n      tag_50\n        /* \"Exam_20231226.sol\":1782:1800  sortStudentByScore */\n      tag_39\n        /* \"Exam_20231226.sol\":1782:1802  sortStudentByScore() */\n      jump\t// in\n    tag_50:\n        /* \"Exam_20231226.sol\":1820:1828  students */\n      0x00\n        /* \"Exam_20231226.sol\":1829:1830  0 */\n      dup1\n        /* \"Exam_20231226.sol\":1820:1831  students[0] */\n      dup2\n      sload\n      dup2\n      lt\n      tag_51\n      jumpi\n      tag_52\n      tag_53\n      jump\t// in\n    tag_52:\n    tag_51:\n      swap1\n      0x00\n      mstore\n      keccak256(0x00, 0x20)\n      swap1\n      0x03\n      mul\n      add\n        /* \"Exam_20231226.sol\":1813:1831  return students[0] */\n      mload(0x40)\n      dup1\n      0x60\n      add\n      0x40\n      mstore\n      swap1\n      dup2\n      0x00\n      dup3\n      add\n      sload\n      dup2\n      mstore\n      0x20\n      add\n      0x01\n      dup3\n      add\n      dup1\n      sload\n      tag_55\n      swap1\n      tag_56\n      jump\t// in\n    tag_55:\n      dup1\n      0x1f\n      add\n      0x20\n      dup1\n      swap2\n      div\n      mul\n      0x20\n      add\n      mload(0x40)\n      swap1\n      dup2\n      add\n      0x40\n      mstore\n      dup1\n      swap3\n      swap2\n      swap1\n      dup2\n      dup2\n      mstore\n      0x20\n      add\n      dup3\n      dup1\n      sload\n      tag_57\n      swap1\n      tag_56\n      jump\t// in\n    tag_57:\n      dup1\n      iszero\n      tag_58\n      jumpi\n      dup1\n      0x1f\n      lt\n      tag_59\n      jumpi\n      0x0100\n      dup1\n      dup4\n      sload\n      div\n      mul\n      dup4\n      mstore\n      swap2\n      0x20\n      add\n      swap2\n      jump(tag_58)\n    tag_59:\n      dup3\n      add\n      swap2\n      swap1\n      0x00\n      mstore\n      keccak256(0x00, 0x20)\n      swap1\n    tag_60:\n      dup2\n      sload\n      dup2\n      mstore\n      swap1\n      0x01\n      add\n      swap1\n      0x20\n      add\n      dup1\n      dup4\n      gt\n      tag_60\n      jumpi\n      dup3\n      swap1\n      sub\n      0x1f\n      and\n      dup3\n      add\n      swap2\n    tag_58:\n      pop\n      pop\n      pop\n      pop\n      pop\n      dup2\n      mstore\n      0x20\n      add\n      0x02\n      dup3\n      add\n      sload\n      dup2\n      mstore\n      pop\n      pop\n      swap1\n      pop\n        /* \"Exam_20231226.sol\":1655:1839  function getLowestScore() public returns(StudentInfo memory) {... */\n      swap1\n      jump\t// out\n        /* \"Exam_20231226.sol\":2122:2330  function getTotalScore() public view returns(uint) {... */\n    tag_18:\n        /* \"Exam_20231226.sol\":2167:2171  uint */\n      0x00\n        /* \"Exam_20231226.sol\":2184:2194  uint total */\n      dup1\n        /* \"Exam_20231226.sol\":2210:2216  uint i */\n      0x00\n        /* \"Exam_20231226.sol\":2205:2300  for( uint i=0; i < students.length; i++ ) {... */\n    tag_62:\n        /* \"Exam_20231226.sol\":2224:2232  students */\n      0x00\n        /* \"Exam_20231226.sol\":2224:2239  students.length */\n      dup1\n      sload\n      swap1\n      pop\n        /* \"Exam_20231226.sol\":2220:2221  i */\n      dup2\n        /* \"Exam_20231226.sol\":2220:2239  i < students.length */\n      lt\n        /* \"Exam_20231226.sol\":2205:2300  for( uint i=0; i < students.length; i++ ) {... */\n      iszero\n      tag_63\n      jumpi\n        /* \"Exam_20231226.sol\":2271:2279  students */\n      0x00\n        /* \"Exam_20231226.sol\":2280:2281  i */\n      dup2\n        /* \"Exam_20231226.sol\":2271:2282  students[i] */\n      dup2\n      sload\n      dup2\n      lt\n      tag_65\n      jumpi\n      tag_66\n      tag_53\n      jump\t// in\n    tag_66:\n    tag_65:\n      swap1\n      0x00\n      mstore\n      keccak256(0x00, 0x20)\n      swap1\n      0x03\n      mul\n      add\n        /* \"Exam_20231226.sol\":2271:2288  students[i].score */\n      0x02\n      add\n      sload\n        /* \"Exam_20231226.sol\":2262:2288  total += students[i].score */\n      dup3\n      tag_68\n      swap2\n      swap1\n      tag_69\n      jump\t// in\n    tag_68:\n      swap2\n      pop\n        /* \"Exam_20231226.sol\":2241:2244  i++ */\n      dup1\n      dup1\n      0x01\n      add\n      swap2\n      pop\n      pop\n        /* \"Exam_20231226.sol\":2205:2300  for( uint i=0; i < students.length; i++ ) {... */\n      jump(tag_62)\n    tag_63:\n      pop\n        /* \"Exam_20231226.sol\":2317:2322  total */\n      dup1\n        /* \"Exam_20231226.sol\":2310:2322  return total */\n      swap2\n      pop\n      pop\n        /* \"Exam_20231226.sol\":2122:2330  function getTotalScore() public view returns(uint) {... */\n      swap1\n      jump\t// out\n        /* \"Exam_20231226.sol\":1847:2037  function getNameOfLowestScore() public returns(string memory) {... */\n    tag_22:\n        /* \"Exam_20231226.sol\":1894:1907  string memory */\n      0x60\n        /* \"Exam_20231226.sol\":1948:1949  1 */\n      0x01\n        /* \"Exam_20231226.sol\":1929:1937  students */\n      0x00\n        /* \"Exam_20231226.sol\":1929:1944  students.length */\n      dup1\n      sload\n      swap1\n      pop\n        /* \"Exam_20231226.sol\":1929:1949  students.length >= 1 */\n      lt\n      iszero\n        /* \"Exam_20231226.sol\":1920:1964  require( students.length >= 1, \"No student\") */\n      tag_71\n      jumpi\n      mload(0x40)\n      0x08c379a000000000000000000000000000000000000000000000000000000000\n      dup2\n      mstore\n      0x04\n      add\n      tag_72\n      swap1\n      tag_49\n      jump\t// in\n    tag_72:\n      mload(0x40)\n      dup1\n      swap2\n      sub\n      swap1\n      revert\n    tag_71:\n        /* \"Exam_20231226.sol\":1975:1995  sortStudentByScore() */\n      tag_73\n        /* \"Exam_20231226.sol\":1975:1993  sortStudentByScore */\n      tag_39\n        /* \"Exam_20231226.sol\":1975:1995  sortStudentByScore() */\n      jump\t// in\n    tag_73:\n        /* \"Exam_20231226.sol\":2013:2021  students */\n      0x00\n        /* \"Exam_20231226.sol\":2022:2023  0 */\n      dup1\n        /* \"Exam_20231226.sol\":2013:2024  students[0] */\n      dup2\n      sload\n      dup2\n      lt\n      tag_74\n      jumpi\n      tag_75\n      tag_53\n      jump\t// in\n    tag_75:\n    tag_74:\n      swap1\n      0x00\n      mstore\n      keccak256(0x00, 0x20)\n      swap1\n      0x03\n      mul\n      add\n        /* \"Exam_20231226.sol\":2013:2029  students[0].name */\n      0x01\n      add\n        /* \"Exam_20231226.sol\":2006:2029  return students[0].name */\n      dup1\n      sload\n      tag_77\n      swap1\n      tag_56\n      jump\t// in\n    tag_77:\n      dup1\n      0x1f\n      add\n      0x20\n      dup1\n      swap2\n      div\n      mul\n      0x20\n      add\n      mload(0x40)\n      swap1\n      dup2\n      add\n      0x40\n      mstore\n      dup1\n      swap3\n      swap2\n      swap1\n      dup2\n      dup2\n      mstore\n      0x20\n      add\n      dup3\n      dup1\n      sload\n      tag_78\n      swap1\n      tag_56\n      jump\t// in\n    tag_78:\n      dup1\n      iszero\n      tag_79\n      jumpi\n      dup1\n      0x1f\n      lt\n      tag_80\n      jumpi\n      0x0100\n      dup1\n      dup4\n      sload\n      div\n      mul\n      dup4\n      mstore\n      swap2\n      0x20\n      add\n      swap2\n      jump(tag_79)\n    tag_80:\n      dup3\n      add\n      swap2\n      swap1\n      0x00\n      mstore\n      keccak256(0x00, 0x20)\n      swap1\n    tag_81:\n      dup2\n      sload\n      dup2\n      mstore\n      swap1\n      0x01\n      add\n      swap1\n      0x20\n      add\n      dup1\n      dup4\n      gt\n      tag_81\n      jumpi\n      dup3\n      swap1\n      sub\n      0x1f\n      and\n      dup3\n      add\n      swap2\n    tag_79:\n      pop\n      pop\n      pop\n      pop\n      pop\n      swap1\n      pop\n        /* \"Exam_20231226.sol\":1847:2037  function getNameOfLowestScore() public returns(string memory) {... */\n      swap1\n      jump\t// out\n        /* \"Exam_20231226.sol\":988:1084  function getNumOfStudendts() public view returns(uint) {... */\n    tag_26:\n        /* \"Exam_20231226.sol\":1037:1041  uint */\n      0x00\n        /* \"Exam_20231226.sol\":1061:1069  students */\n      dup1\n        /* \"Exam_20231226.sol\":1061:1076  students.length */\n      dup1\n      sload\n      swap1\n      pop\n        /* \"Exam_20231226.sol\":1054:1076  return students.length */\n      swap1\n      pop\n        /* \"Exam_20231226.sol\":988:1084  function getNumOfStudendts() public view returns(uint) {... */\n      swap1\n      jump\t// out\n        /* \"Exam_20231226.sol\":2338:2501  function getAvgScore() public view returns(uint) {... */\n    tag_29:\n        /* \"Exam_20231226.sol\":2381:2385  uint */\n      0x00\n        /* \"Exam_20231226.sol\":2426:2427  1 */\n      0x01\n        /* \"Exam_20231226.sol\":2407:2415  students */\n      0x00\n        /* \"Exam_20231226.sol\":2407:2422  students.length */\n      dup1\n      sload\n      swap1\n      pop\n        /* \"Exam_20231226.sol\":2407:2427  students.length >= 1 */\n      lt\n      iszero\n        /* \"Exam_20231226.sol\":2398:2442  require( students.length >= 1, \"No student\") */\n      tag_84\n      jumpi\n      mload(0x40)\n      0x08c379a000000000000000000000000000000000000000000000000000000000\n      dup2\n      mstore\n      0x04\n      add\n      tag_85\n      swap1\n      tag_49\n      jump\t// in\n    tag_85:\n      mload(0x40)\n      dup1\n      swap2\n      sub\n      swap1\n      revert\n    tag_84:\n        /* \"Exam_20231226.sol\":2478:2486  students */\n      0x00\n        /* \"Exam_20231226.sol\":2478:2493  students.length */\n      dup1\n      sload\n      swap1\n      pop\n        /* \"Exam_20231226.sol\":2460:2475  getTotalScore() */\n      tag_86\n        /* \"Exam_20231226.sol\":2460:2473  getTotalScore */\n      tag_18\n        /* \"Exam_20231226.sol\":2460:2475  getTotalScore() */\n      jump\t// in\n    tag_86:\n        /* \"Exam_20231226.sol\":2460:2493  getTotalScore() / students.length */\n      tag_87\n      swap2\n      swap1\n      tag_88\n      jump\t// in\n    tag_87:\n        /* \"Exam_20231226.sol\":2453:2493  return getTotalScore() / students.length */\n      swap1\n      pop\n        /* \"Exam_20231226.sol\":2338:2501  function getAvgScore() public view returns(uint) {... */\n      swap1\n      jump\t// out\n        /* \"Exam_20231226.sol\":2575:2944  function getStudentByNumber(uint _number) public view returns(StudentInfo memory) {... */\n    tag_34:\n        /* \"Exam_20231226.sol\":2637:2655  StudentInfo memory */\n      tag_89\n      tag_45\n      jump\t// in\n    tag_89:\n        /* \"Exam_20231226.sol\":2668:2702  StudentInfo memory tempStudentInfo */\n      tag_91\n      tag_45\n      jump\t// in\n    tag_91:\n        /* \"Exam_20231226.sol\":2718:2724  uint i */\n      0x00\n        /* \"Exam_20231226.sol\":2713:2904  for( uint i=0; i < students.length; i++ ) {... */\n    tag_92:\n        /* \"Exam_20231226.sol\":2732:2740  students */\n      0x00\n        /* \"Exam_20231226.sol\":2732:2747  students.length */\n      dup1\n      sload\n      swap1\n      pop\n        /* \"Exam_20231226.sol\":2728:2729  i */\n      dup2\n        /* \"Exam_20231226.sol\":2728:2747  i < students.length */\n      lt\n        /* \"Exam_20231226.sol\":2713:2904  for( uint i=0; i < students.length; i++ ) {... */\n      iszero\n      tag_93\n      jumpi\n        /* \"Exam_20231226.sol\":2796:2803  _number */\n      dup4\n        /* \"Exam_20231226.sol\":2774:2782  students */\n      0x00\n        /* \"Exam_20231226.sol\":2783:2784  i */\n      dup3\n        /* \"Exam_20231226.sol\":2774:2785  students[i] */\n      dup2\n      sload\n      dup2\n      lt\n      tag_95\n      jumpi\n      tag_96\n      tag_53\n      jump\t// in\n    tag_96:\n    tag_95:\n      swap1\n      0x00\n      mstore\n      keccak256(0x00, 0x20)\n      swap1\n      0x03\n      mul\n      add\n        /* \"Exam_20231226.sol\":2774:2792  students[i].number */\n      0x00\n      add\n      sload\n        /* \"Exam_20231226.sol\":2774:2803  students[i].number == _number */\n      sub\n        /* \"Exam_20231226.sol\":2770:2893  if( students[i].number == _number) {... */\n      tag_98\n      jumpi\n        /* \"Exam_20231226.sol\":2842:2850  students */\n      0x00\n        /* \"Exam_20231226.sol\":2851:2852  i */\n      dup2\n        /* \"Exam_20231226.sol\":2842:2853  students[i] */\n      dup2\n      sload\n      dup2\n      lt\n      tag_99\n      jumpi\n      tag_100\n      tag_53\n      jump\t// in\n    tag_100:\n    tag_99:\n      swap1\n      0x00\n      mstore\n      keccak256(0x00, 0x20)\n      swap1\n      0x03\n      mul\n      add\n        /* \"Exam_20231226.sol\":2824:2853  tempStudentInfo = students[i] */\n      mload(0x40)\n      dup1\n      0x60\n      add\n      0x40\n      mstore\n      swap1\n      dup2\n      0x00\n      dup3\n      add\n      sload\n      dup2\n      mstore\n      0x20\n      add\n      0x01\n      dup3\n      add\n      dup1\n      sload\n      tag_102\n      swap1\n      tag_56\n      jump\t// in\n    tag_102:\n      dup1\n      0x1f\n      add\n      0x20\n      dup1\n      swap2\n      div\n      mul\n      0x20\n      add\n      mload(0x40)\n      swap1\n      dup2\n      add\n      0x40\n      mstore\n      dup1\n      swap3\n      swap2\n      swap1\n      dup2\n      dup2\n      mstore\n      0x20\n      add\n      dup3\n      dup1\n      sload\n      tag_103\n      swap1\n      tag_56\n      jump\t// in\n    tag_103:\n      dup1\n      iszero\n      tag_104\n      jumpi\n      dup1\n      0x1f\n      lt\n      tag_105\n      jumpi\n      0x0100\n      dup1\n      dup4\n      sload\n      div\n      mul\n      dup4\n      mstore\n      swap2\n      0x20\n      add\n      swap2\n      jump(tag_104)\n    tag_105:\n      dup3\n      add\n      swap2\n      swap1\n      0x00\n      mstore\n      keccak256(0x00, 0x20)\n      swap1\n    tag_106:\n      dup2\n      sload\n      dup2\n      mstore\n      swap1\n      0x01\n      add\n      swap1\n      0x20\n      add\n      dup1\n      dup4\n      gt\n      tag_106\n      jumpi\n      dup3\n      swap1\n      sub\n      0x1f\n      and\n      dup3\n      add\n      swap2\n    tag_104:\n      pop\n      pop\n      pop\n      pop\n      pop\n      dup2\n      mstore\n      0x20\n      add\n      0x02\n      dup3\n      add\n      sload\n      dup2\n      mstore\n      pop\n      pop\n      swap2\n      pop\n        /* \"Exam_20231226.sol\":2872:2877  break */\n      jump(tag_93)\n        /* \"Exam_20231226.sol\":2770:2893  if( students[i].number == _number) {... */\n    tag_98:\n        /* \"Exam_20231226.sol\":2749:2752  i++ */\n      dup1\n      dup1\n      0x01\n      add\n      swap2\n      pop\n      pop\n        /* \"Exam_20231226.sol\":2713:2904  for( uint i=0; i < students.length; i++ ) {... */\n      jump(tag_92)\n    tag_93:\n      pop\n        /* \"Exam_20231226.sol\":2921:2936  tempStudentInfo */\n      dup1\n        /* \"Exam_20231226.sol\":2914:2936  return tempStudentInfo */\n      swap2\n      pop\n      pop\n        /* \"Exam_20231226.sol\":2575:2944  function getStudentByNumber(uint _number) public view returns(StudentInfo memory) {... */\n      swap2\n      swap1\n      pop\n      jump\t// out\n        /* \"Exam_20231226.sol\":377:980  function initStudentsList() public {... */\n    tag_37:\n        /* \"Exam_20231226.sol\":449:457  students */\n      0x00\n        /* \"Exam_20231226.sol\":463:490  StudentInfo(1, \"Alice\", 85) */\n      mload(0x40)\n      dup1\n      0x60\n      add\n      0x40\n      mstore\n      dup1\n        /* \"Exam_20231226.sol\":475:476  1 */\n      0x01\n        /* \"Exam_20231226.sol\":463:490  StudentInfo(1, \"Alice\", 85) */\n      dup2\n      mstore\n      0x20\n      add\n      mload(0x40)\n      dup1\n      0x40\n      add\n      0x40\n      mstore\n      dup1\n      0x05\n      dup2\n      mstore\n      0x20\n      add\n      0x416c696365000000000000000000000000000000000000000000000000000000\n      dup2\n      mstore\n      pop\n      dup2\n      mstore\n      0x20\n      add\n        /* \"Exam_20231226.sol\":487:489  85 */\n      0x55\n        /* \"Exam_20231226.sol\":463:490  StudentInfo(1, \"Alice\", 85) */\n      dup2\n      mstore\n      pop\n        /* \"Exam_20231226.sol\":449:491  students.push(StudentInfo(1, \"Alice\", 85)) */\n      swap1\n      dup1\n      0x01\n      dup2\n      sload\n      add\n      dup1\n      dup3\n      sstore\n      dup1\n      swap2\n      pop\n      pop\n      0x01\n      swap1\n      sub\n      swap1\n      0x00\n      mstore\n      keccak256(0x00, 0x20)\n      swap1\n      0x03\n      mul\n      add\n      0x00\n      swap1\n      swap2\n      swap1\n      swap2\n      swap1\n      swap2\n      pop\n      0x00\n      dup3\n      add\n      mload\n      dup2\n      0x00\n      add\n      sstore\n      0x20\n      dup3\n      add\n      mload\n      dup2\n      0x01\n      add\n      swap1\n      dup2\n      tag_109\n      swap2\n      swap1\n      tag_110\n      jump\t// in\n    tag_109:\n      pop\n      0x40\n      dup3\n      add\n      mload\n      dup2\n      0x02\n      add\n      sstore\n      pop\n      pop\n        /* \"Exam_20231226.sol\":502:510  students */\n      0x00\n        /* \"Exam_20231226.sol\":516:541  StudentInfo(2, \"Bob\", 75) */\n      mload(0x40)\n      dup1\n      0x60\n      add\n      0x40\n      mstore\n      dup1\n        /* \"Exam_20231226.sol\":528:529  2 */\n      0x02\n        /* \"Exam_20231226.sol\":516:541  StudentInfo(2, \"Bob\", 75) */\n      dup2\n      mstore\n      0x20\n      add\n      mload(0x40)\n      dup1\n      0x40\n      add\n      0x40\n      mstore\n      dup1\n      0x03\n      dup2\n      mstore\n      0x20\n      add\n      0x426f620000000000000000000000000000000000000000000000000000000000\n      dup2\n      mstore\n      pop\n      dup2\n      mstore\n      0x20\n      add\n        /* \"Exam_20231226.sol\":538:540  75 */\n      0x4b\n        /* \"Exam_20231226.sol\":516:541  StudentInfo(2, \"Bob\", 75) */\n      dup2\n      mstore\n      pop\n        /* \"Exam_20231226.sol\":502:542  students.push(StudentInfo(2, \"Bob\", 75)) */\n      swap1\n      dup1\n      0x01\n      dup2\n      sload\n      add\n      dup1\n      dup3\n      sstore\n      dup1\n      swap2\n      pop\n      pop\n      0x01\n      swap1\n      sub\n      swap1\n      0x00\n      mstore\n      keccak256(0x00, 0x20)\n      swap1\n      0x03\n      mul\n      add\n      0x00\n      swap1\n      swap2\n      swap1\n      swap2\n      swap1\n      swap2\n      pop\n      0x00\n      dup3\n      add\n      mload\n      dup2\n      0x00\n      add\n      sstore\n      0x20\n      dup3\n      add\n      mload\n      dup2\n      0x01\n      add\n      swap1\n      dup2\n      tag_112\n      swap2\n      swap1\n      tag_110\n      jump\t// in\n    tag_112:\n      pop\n      0x40\n      dup3\n      add\n      mload\n      dup2\n      0x02\n      add\n      sstore\n      pop\n      pop\n        /* \"Exam_20231226.sol\":553:561  students */\n      0x00\n        /* \"Exam_20231226.sol\":567:596  StudentInfo(3, \"Charlie\", 60) */\n      mload(0x40)\n      dup1\n      0x60\n      add\n      0x40\n      mstore\n      dup1\n        /* \"Exam_20231226.sol\":579:580  3 */\n      0x03\n        /* \"Exam_20231226.sol\":567:596  StudentInfo(3, \"Charlie\", 60) */\n      dup2\n      mstore\n      0x20\n      add\n      mload(0x40)\n      dup1\n      0x40\n      add\n      0x40\n      mstore\n      dup1\n      0x07\n      dup2\n      mstore\n      0x20\n      add\n      0x436861726c696500000000000000000000000000000000000000000000000000\n      dup2\n      mstore\n      pop\n      dup2\n      mstore\n      0x20\n      add\n        /* \"Exam_20231226.sol\":593:595  60 */\n      0x3c\n        /* \"Exam_20231226.sol\":567:596  StudentInfo(3, \"Charlie\", 60) */\n      dup2\n      mstore\n      pop\n        /* \"Exam_20231226.sol\":553:597  students.push(StudentInfo(3, \"Charlie\", 60)) */\n      swap1\n      dup1\n      0x01\n      dup2\n      sload\n      add\n      dup1\n      dup3\n      sstore\n      dup1\n      swap2\n      pop\n      pop\n      0x01\n      swap1\n      sub\n      swap1\n      0x00\n      mstore\n      keccak256(0x00, 0x20)\n      swap1\n      0x03\n      mul\n      add\n      0x00\n      swap1\n      swap2\n      swap1\n      swap2\n      swap1\n      swap2\n      pop\n      0x00\n      dup3\n      add\n      mload\n      dup2\n      0x00\n      add\n      sstore\n      0x20\n      dup3\n      add\n      mload\n      dup2\n      0x01\n      add\n      swap1\n      dup2\n      tag_114\n      swap2\n      swap1\n      tag_110\n      jump\t// in\n    tag_114:\n      pop\n      0x40\n      dup3\n      add\n      mload\n      dup2\n      0x02\n      add\n      sstore\n      pop\n      pop\n        /* \"Exam_20231226.sol\":608:616  students */\n      0x00\n        /* \"Exam_20231226.sol\":622:650  StudentInfo(4, \"Dwayne\", 90) */\n      mload(0x40)\n      dup1\n      0x60\n      add\n      0x40\n      mstore\n      dup1\n        /* \"Exam_20231226.sol\":634:635  4 */\n      0x04\n        /* \"Exam_20231226.sol\":622:650  StudentInfo(4, \"Dwayne\", 90) */\n      dup2\n      mstore\n      0x20\n      add\n      mload(0x40)\n      dup1\n      0x40\n      add\n      0x40\n      mstore\n      dup1\n      0x06\n      dup2\n      mstore\n      0x20\n      add\n      0x447761796e650000000000000000000000000000000000000000000000000000\n      dup2\n      mstore\n      pop\n      dup2\n      mstore\n      0x20\n      add\n        /* \"Exam_20231226.sol\":647:649  90 */\n      0x5a\n        /* \"Exam_20231226.sol\":622:650  StudentInfo(4, \"Dwayne\", 90) */\n      dup2\n      mstore\n      pop\n        /* \"Exam_20231226.sol\":608:651  students.push(StudentInfo(4, \"Dwayne\", 90)) */\n      swap1\n      dup1\n      0x01\n      dup2\n      sload\n      add\n      dup1\n      dup3\n      sstore\n      dup1\n      swap2\n      pop\n      pop\n      0x01\n      swap1\n      sub\n      swap1\n      0x00\n      mstore\n      keccak256(0x00, 0x20)\n      swap1\n      0x03\n      mul\n      add\n      0x00\n      swap1\n      swap2\n      swap1\n      swap2\n      swap1\n      swap2\n      pop\n      0x00\n      dup3\n      add\n      mload\n      dup2\n      0x00\n      add\n      sstore\n      0x20\n      dup3\n      add\n      mload\n      dup2\n      0x01\n      add\n      swap1\n      dup2\n      tag_116\n      swap2\n      swap1\n      tag_110\n      jump\t// in\n    tag_116:\n      pop\n      0x40\n      dup3\n      add\n      mload\n      dup2\n      0x02\n      add\n      sstore\n      pop\n      pop\n        /* \"Exam_20231226.sol\":662:670  students */\n      0x00\n        /* \"Exam_20231226.sol\":676:703  StudentInfo(5, \"Ellen\", 65) */\n      mload(0x40)\n      dup1\n      0x60\n      add\n      0x40\n      mstore\n      dup1\n        /* \"Exam_20231226.sol\":688:689  5 */\n      0x05\n        /* \"Exam_20231226.sol\":676:703  StudentInfo(5, \"Ellen\", 65) */\n      dup2\n      mstore\n      0x20\n      add\n      mload(0x40)\n      dup1\n      0x40\n      add\n      0x40\n      mstore\n      dup1\n      0x05\n      dup2\n      mstore\n      0x20\n      add\n      0x456c6c656e000000000000000000000000000000000000000000000000000000\n      dup2\n      mstore\n      pop\n      dup2\n      mstore\n      0x20\n      add\n        /* \"Exam_20231226.sol\":700:702  65 */\n      0x41\n        /* \"Exam_20231226.sol\":676:703  StudentInfo(5, \"Ellen\", 65) */\n      dup2\n      mstore\n      pop\n        /* \"Exam_20231226.sol\":662:704  students.push(StudentInfo(5, \"Ellen\", 65)) */\n      swap1\n      dup1\n      0x01\n      dup2\n      sload\n      add\n      dup1\n      dup3\n      sstore\n      dup1\n      swap2\n      pop\n      pop\n      0x01\n      swap1\n      sub\n      swap1\n      0x00\n      mstore\n      keccak256(0x00, 0x20)\n      swap1\n      0x03\n      mul\n      add\n      0x00\n      swap1\n      swap2\n      swap1\n      swap2\n      swap1\n      swap2\n      pop\n      0x00\n      dup3\n      add\n      mload\n      dup2\n      0x00\n      add\n      sstore\n      0x20\n      dup3\n      add\n      mload\n      dup2\n      0x01\n      add\n      swap1\n      dup2\n      tag_118\n      swap2\n      swap1\n      tag_110\n      jump\t// in\n    tag_118:\n      pop\n      0x40\n      dup3\n      add\n      mload\n      dup2\n      0x02\n      add\n      sstore\n      pop\n      pop\n        /* \"Exam_20231226.sol\":715:723  students */\n      0x00\n        /* \"Exam_20231226.sol\":729:755  StudentInfo(6, \"Fitz\", 50) */\n      mload(0x40)\n      dup1\n      0x60\n      add\n      0x40\n      mstore\n      dup1\n        /* \"Exam_20231226.sol\":741:742  6 */\n      0x06\n        /* \"Exam_20231226.sol\":729:755  StudentInfo(6, \"Fitz\", 50) */\n      dup2\n      mstore\n      0x20\n      add\n      mload(0x40)\n      dup1\n      0x40\n      add\n      0x40\n      mstore\n      dup1\n      0x04\n      dup2\n      mstore\n      0x20\n      add\n      0x4669747a00000000000000000000000000000000000000000000000000000000\n      dup2\n      mstore\n      pop\n      dup2\n      mstore\n      0x20\n      add\n        /* \"Exam_20231226.sol\":752:754  50 */\n      0x32\n        /* \"Exam_20231226.sol\":729:755  StudentInfo(6, \"Fitz\", 50) */\n      dup2\n      mstore\n      pop\n        /* \"Exam_20231226.sol\":715:756  students.push(StudentInfo(6, \"Fitz\", 50)) */\n      swap1\n      dup1\n      0x01\n      dup2\n      sload\n      add\n      dup1\n      dup3\n      sstore\n      dup1\n      swap2\n      pop\n      pop\n      0x01\n      swap1\n      sub\n      swap1\n      0x00\n      mstore\n      keccak256(0x00, 0x20)\n      swap1\n      0x03\n      mul\n      add\n      0x00\n      swap1\n      swap2\n      swap1\n      swap2\n      swap1\n      swap2\n      pop\n      0x00\n      dup3\n      add\n      mload\n      dup2\n      0x00\n      add\n      sstore\n      0x20\n      dup3\n      add\n      mload\n      dup2\n      0x01\n      add\n      swap1\n      dup2\n      tag_120\n      swap2\n      swap1\n      tag_110\n      jump\t// in\n    tag_120:\n      pop\n      0x40\n      dup3\n      add\n      mload\n      dup2\n      0x02\n      add\n      sstore\n      pop\n      pop\n        /* \"Exam_20231226.sol\":767:775  students */\n      0x00\n        /* \"Exam_20231226.sol\":781:809  StudentInfo(7, \"Garret\", 80) */\n      mload(0x40)\n      dup1\n      0x60\n      add\n      0x40\n      mstore\n      dup1\n        /* \"Exam_20231226.sol\":793:794  7 */\n      0x07\n        /* \"Exam_20231226.sol\":781:809  StudentInfo(7, \"Garret\", 80) */\n      dup2\n      mstore\n      0x20\n      add\n      mload(0x40)\n      dup1\n      0x40\n      add\n      0x40\n      mstore\n      dup1\n      0x06\n      dup2\n      mstore\n      0x20\n      add\n      0x4761727265740000000000000000000000000000000000000000000000000000\n      dup2\n      mstore\n      pop\n      dup2\n      mstore\n      0x20\n      add\n        /* \"Exam_20231226.sol\":806:808  80 */\n      0x50\n        /* \"Exam_20231226.sol\":781:809  StudentInfo(7, \"Garret\", 80) */\n      dup2\n      mstore\n      pop\n        /* \"Exam_20231226.sol\":767:810  students.push(StudentInfo(7, \"Garret\", 80)) */\n      swap1\n      dup1\n      0x01\n      dup2\n      sload\n      add\n      dup1\n      dup3\n      sstore\n      dup1\n      swap2\n      pop\n      pop\n      0x01\n      swap1\n      sub\n      swap1\n      0x00\n      mstore\n      keccak256(0x00, 0x20)\n      swap1\n      0x03\n      mul\n      add\n      0x00\n      swap1\n      swap2\n      swap1\n      swap2\n      swap1\n      swap2\n      pop\n      0x00\n      dup3\n      add\n      mload\n      dup2\n      0x00\n      add\n      sstore\n      0x20\n      dup3\n      add\n      mload\n      dup2\n      0x01\n      add\n      swap1\n      dup2\n      tag_122\n      swap2\n      swap1\n      tag_110\n      jump\t// in\n    tag_122:\n      pop\n      0x40\n      dup3\n      add\n      mload\n      dup2\n      0x02\n      add\n      sstore\n      pop\n      pop\n        /* \"Exam_20231226.sol\":821:829  students */\n      0x00\n        /* \"Exam_20231226.sol\":835:863  StudentInfo(8, \"Hubert\", 90) */\n      mload(0x40)\n      dup1\n      0x60\n      add\n      0x40\n      mstore\n      dup1\n        /* \"Exam_20231226.sol\":847:848  8 */\n      0x08\n        /* \"Exam_20231226.sol\":835:863  StudentInfo(8, \"Hubert\", 90) */\n      dup2\n      mstore\n      0x20\n      add\n      mload(0x40)\n      dup1\n      0x40\n      add\n      0x40\n      mstore\n      dup1\n      0x06\n      dup2\n      mstore\n      0x20\n      add\n      0x4875626572740000000000000000000000000000000000000000000000000000\n      dup2\n      mstore\n      pop\n      dup2\n      mstore\n      0x20\n      add\n        /* \"Exam_20231226.sol\":860:862  90 */\n      0x5a\n        /* \"Exam_20231226.sol\":835:863  StudentInfo(8, \"Hubert\", 90) */\n      dup2\n      mstore\n      pop\n        /* \"Exam_20231226.sol\":821:864  students.push(StudentInfo(8, \"Hubert\", 90)) */\n      swap1\n      dup1\n      0x01\n      dup2\n      sload\n      add\n      dup1\n      dup3\n      sstore\n      dup1\n      swap2\n      pop\n      pop\n      0x01\n      swap1\n      sub\n      swap1\n      0x00\n      mstore\n      keccak256(0x00, 0x20)\n      swap1\n      0x03\n      mul\n      add\n      0x00\n      swap1\n      swap2\n      swap1\n      swap2\n      swap1\n      swap2\n      pop\n      0x00\n      dup3\n      add\n      mload\n      dup2\n      0x00\n      add\n      sstore\n      0x20\n      dup3\n      add\n      mload\n      dup2\n      0x01\n      add\n      swap1\n      dup2\n      tag_124\n      swap2\n      swap1\n      tag_110\n      jump\t// in\n    tag_124:\n      pop\n      0x40\n      dup3\n      add\n      mload\n      dup2\n      0x02\n      add\n      sstore\n      pop\n      pop\n        /* \"Exam_20231226.sol\":875:883  students */\n      0x00\n        /* \"Exam_20231226.sol\":889:918  StudentInfo(9, \"Isabel\", 100) */\n      mload(0x40)\n      dup1\n      0x60\n      add\n      0x40\n      mstore\n      dup1\n        /* \"Exam_20231226.sol\":901:902  9 */\n      0x09\n        /* \"Exam_20231226.sol\":889:918  StudentInfo(9, \"Isabel\", 100) */\n      dup2\n      mstore\n      0x20\n      add\n      mload(0x40)\n      dup1\n      0x40\n      add\n      0x40\n      mstore\n      dup1\n      0x06\n      dup2\n      mstore\n      0x20\n      add\n      0x49736162656c0000000000000000000000000000000000000000000000000000\n      dup2\n      mstore\n      pop\n      dup2\n      mstore\n      0x20\n      add\n        /* \"Exam_20231226.sol\":914:917  100 */\n      0x64\n        /* \"Exam_20231226.sol\":889:918  StudentInfo(9, \"Isabel\", 100) */\n      dup2\n      mstore\n      pop\n        /* \"Exam_20231226.sol\":875:919  students.push(StudentInfo(9, \"Isabel\", 100)) */\n      swap1\n      dup1\n      0x01\n      dup2\n      sload\n      add\n      dup1\n      dup3\n      sstore\n      dup1\n      swap2\n      pop\n      pop\n      0x01\n      swap1\n      sub\n      swap1\n      0x00\n      mstore\n      keccak256(0x00, 0x20)\n      swap1\n      0x03\n      mul\n      add\n      0x00\n      swap1\n      swap2\n      swap1\n      swap2\n      swap1\n      swap2\n      pop\n      0x00\n      dup3\n      add\n      mload\n      dup2\n      0x00\n      add\n      sstore\n      0x20\n      dup3\n      add\n      mload\n      dup2\n      0x01\n      add\n      swap1\n      dup2\n      tag_126\n      swap2\n      swap1\n      tag_110\n      jump\t// in\n    tag_126:\n      pop\n      0x40\n      dup3\n      add\n      mload\n      dup2\n      0x02\n      add\n      sstore\n      pop\n      pop\n        /* \"Exam_20231226.sol\":930:938  students */\n      0x00\n        /* \"Exam_20231226.sol\":944:971  StudentInfo(10, \"Jane\", 70) */\n      mload(0x40)\n      dup1\n      0x60\n      add\n      0x40\n      mstore\n      dup1\n        /* \"Exam_20231226.sol\":956:958  10 */\n      0x0a\n        /* \"Exam_20231226.sol\":944:971  StudentInfo(10, \"Jane\", 70) */\n      dup2\n      mstore\n      0x20\n      add\n      mload(0x40)\n      dup1\n      0x40\n      add\n      0x40\n      mstore\n      dup1\n      0x04\n      dup2\n      mstore\n      0x20\n      add\n      0x4a616e6500000000000000000000000000000000000000000000000000000000\n      dup2\n      mstore\n      pop\n      dup2\n      mstore\n      0x20\n      add\n        /* \"Exam_20231226.sol\":968:970  70 */\n      0x46\n        /* \"Exam_20231226.sol\":944:971  StudentInfo(10, \"Jane\", 70) */\n      dup2\n      mstore\n      pop\n        /* \"Exam_20231226.sol\":930:972  students.push(StudentInfo(10, \"Jane\", 70)) */\n      swap1\n      dup1\n      0x01\n      dup2\n      sload\n      add\n      dup1\n      dup3\n      sstore\n      dup1\n      swap2\n      pop\n      pop\n      0x01\n      swap1\n      sub\n      swap1\n      0x00\n      mstore\n      keccak256(0x00, 0x20)\n      swap1\n      0x03\n      mul\n      add\n      0x00\n      swap1\n      swap2\n      swap1\n      swap2\n      swap1\n      swap2\n      pop\n      0x00\n      dup3\n      add\n      mload\n      dup2\n      0x00\n      add\n      sstore\n      0x20\n      dup3\n      add\n      mload\n      dup2\n      0x01\n      add\n      swap1\n      dup2\n      tag_128\n      swap2\n      swap1\n      tag_110\n      jump\t// in\n    tag_128:\n      pop\n      0x40\n      dup3\n      add\n      mload\n      dup2\n      0x02\n      add\n      sstore\n      pop\n      pop\n        /* \"Exam_20231226.sol\":377:980  function initStudentsList() public {... */\n      jump\t// out\n        /* \"Exam_20231226.sol\":1165:1647  function sortStudentByScore() public {... */\n    tag_39:\n        /* \"Exam_20231226.sol\":1213:1247  StudentInfo memory tempStudentInfo */\n      tag_130\n      tag_45\n      jump\t// in\n    tag_130:\n        /* \"Exam_20231226.sol\":1264:1270  uint i */\n      0x00\n        /* \"Exam_20231226.sol\":1260:1621  for(uint i=0; i < students.length; i++ ) {... */\n    tag_131:\n        /* \"Exam_20231226.sol\":1278:1286  students */\n      0x00\n        /* \"Exam_20231226.sol\":1278:1293  students.length */\n      dup1\n      sload\n      swap1\n      pop\n        /* \"Exam_20231226.sol\":1274:1275  i */\n      dup2\n        /* \"Exam_20231226.sol\":1274:1293  i < students.length */\n      lt\n        /* \"Exam_20231226.sol\":1260:1621  for(uint i=0; i < students.length; i++ ) {... */\n      iszero\n      tag_132\n      jumpi\n        /* \"Exam_20231226.sol\":1320:1326  uint j */\n      0x00\n        /* \"Exam_20231226.sol\":1327:1328  1 */\n      0x01\n        /* \"Exam_20231226.sol\":1320:1328  uint j=1 */\n      swap1\n      pop\n        /* \"Exam_20231226.sol\":1316:1610  for(uint j=1; j < students.length; j++) {... */\n    tag_134:\n        /* \"Exam_20231226.sol\":1334:1342  students */\n      0x00\n        /* \"Exam_20231226.sol\":1334:1349  students.length */\n      dup1\n      sload\n      swap1\n      pop\n        /* \"Exam_20231226.sol\":1330:1331  j */\n      dup2\n        /* \"Exam_20231226.sol\":1330:1349  j < students.length */\n      lt\n        /* \"Exam_20231226.sol\":1316:1610  for(uint j=1; j < students.length; j++) {... */\n      iszero\n      tag_135\n      jumpi\n        /* \"Exam_20231226.sol\":1400:1408  students */\n      0x00\n        /* \"Exam_20231226.sol\":1409:1410  j */\n      dup2\n        /* \"Exam_20231226.sol\":1400:1411  students[j] */\n      dup2\n      sload\n      dup2\n      lt\n      tag_137\n      jumpi\n      tag_138\n      tag_53\n      jump\t// in\n    tag_138:\n    tag_137:\n      swap1\n      0x00\n      mstore\n      keccak256(0x00, 0x20)\n      swap1\n      0x03\n      mul\n      add\n        /* \"Exam_20231226.sol\":1400:1417  students[j].score */\n      0x02\n      add\n      sload\n        /* \"Exam_20231226.sol\":1378:1386  students */\n      0x00\n        /* \"Exam_20231226.sol\":1389:1390  1 */\n      0x01\n        /* \"Exam_20231226.sol\":1387:1388  j */\n      dup4\n        /* \"Exam_20231226.sol\":1387:1390  j-1 */\n      tag_140\n      swap2\n      swap1\n      tag_141\n      jump\t// in\n    tag_140:\n        /* \"Exam_20231226.sol\":1378:1391  students[j-1] */\n      dup2\n      sload\n      dup2\n      lt\n      tag_142\n      jumpi\n      tag_143\n      tag_53\n      jump\t// in\n    tag_143:\n    tag_142:\n      swap1\n      0x00\n      mstore\n      keccak256(0x00, 0x20)\n      swap1\n      0x03\n      mul\n      add\n        /* \"Exam_20231226.sol\":1378:1397  students[j-1].score */\n      0x02\n      add\n      sload\n        /* \"Exam_20231226.sol\":1378:1417  students[j-1].score > students[j].score */\n      gt\n        /* \"Exam_20231226.sol\":1375:1595  if(students[j-1].score > students[j].score) {... */\n      iszero\n      tag_145\n      jumpi\n        /* \"Exam_20231226.sol\":1460:1468  students */\n      0x00\n        /* \"Exam_20231226.sol\":1469:1470  j */\n      dup2\n        /* \"Exam_20231226.sol\":1460:1471  students[j] */\n      dup2\n      sload\n      dup2\n      lt\n      tag_146\n      jumpi\n      tag_147\n      tag_53\n      jump\t// in\n    tag_147:\n    tag_146:\n      swap1\n      0x00\n      mstore\n      keccak256(0x00, 0x20)\n      swap1\n      0x03\n      mul\n      add\n        /* \"Exam_20231226.sol\":1442:1471  tempStudentInfo = students[j] */\n      mload(0x40)\n      dup1\n      0x60\n      add\n      0x40\n      mstore\n      swap1\n      dup2\n      0x00\n      dup3\n      add\n      sload\n      dup2\n      mstore\n      0x20\n      add\n      0x01\n      dup3\n      add\n      dup1\n      sload\n      tag_149\n      swap1\n      tag_56\n      jump\t// in\n    tag_149:\n      dup1\n      0x1f\n      add\n      0x20\n      dup1\n      swap2\n      div\n      mul\n      0x20\n      add\n      mload(0x40)\n      swap1\n      dup2\n      add\n      0x40\n      mstore\n      dup1\n      swap3\n      swap2\n      swap1\n      dup2\n      dup2\n      mstore\n      0x20\n      add\n      dup3\n      dup1\n      sload\n      tag_150\n      swap1\n      tag_56\n      jump\t// in\n    tag_150:\n      dup1\n      iszero\n      tag_151\n      jumpi\n      dup1\n      0x1f\n      lt\n      tag_152\n      jumpi\n      0x0100\n      dup1\n      dup4\n      sload\n      div\n      mul\n      dup4\n      mstore\n      swap2\n      0x20\n      add\n      swap2\n      jump(tag_151)\n    tag_152:\n      dup3\n      add\n      swap2\n      swap1\n      0x00\n      mstore\n      keccak256(0x00, 0x20)\n      swap1\n    tag_153:\n      dup2\n      sload\n      dup2\n      mstore\n      swap1\n      0x01\n      add\n      swap1\n      0x20\n      add\n      dup1\n      dup4\n      gt\n      tag_153\n      jumpi\n      dup3\n      swap1\n      sub\n      0x1f\n      and\n      dup3\n      add\n      swap2\n    tag_151:\n      pop\n      pop\n      pop\n      pop\n      pop\n      dup2\n      mstore\n      0x20\n      add\n      0x02\n      dup3\n      add\n      sload\n      dup2\n      mstore\n      pop\n      pop\n      swap3\n      pop\n        /* \"Exam_20231226.sol\":1508:1516  students */\n      0x00\n        /* \"Exam_20231226.sol\":1519:1520  1 */\n      0x01\n        /* \"Exam_20231226.sol\":1517:1518  j */\n      dup3\n        /* \"Exam_20231226.sol\":1517:1520  j-1 */\n      tag_154\n      swap2\n      swap1\n      tag_141\n      jump\t// in\n    tag_154:\n        /* \"Exam_20231226.sol\":1508:1521  students[j-1] */\n      dup2\n      sload\n      dup2\n      lt\n      tag_155\n      jumpi\n      tag_156\n      tag_53\n      jump\t// in\n    tag_156:\n    tag_155:\n      swap1\n      0x00\n      mstore\n      keccak256(0x00, 0x20)\n      swap1\n      0x03\n      mul\n      add\n        /* \"Exam_20231226.sol\":1494:1502  students */\n      0x00\n        /* \"Exam_20231226.sol\":1503:1504  j */\n      dup3\n        /* \"Exam_20231226.sol\":1494:1505  students[j] */\n      dup2\n      sload\n      dup2\n      lt\n      tag_158\n      jumpi\n      tag_159\n      tag_53\n      jump\t// in\n    tag_159:\n    tag_158:\n      swap1\n      0x00\n      mstore\n      keccak256(0x00, 0x20)\n      swap1\n      0x03\n      mul\n      add\n        /* \"Exam_20231226.sol\":1494:1521  students[j] = students[j-1] */\n      0x00\n      dup3\n      add\n      sload\n      dup2\n      0x00\n      add\n      sstore\n      0x01\n      dup3\n      add\n      dup2\n      0x01\n      add\n      swap1\n      dup2\n      tag_161\n      swap2\n      swap1\n      tag_162\n      jump\t// in\n    tag_161:\n      pop\n      0x02\n      dup3\n      add\n      sload\n      dup2\n      0x02\n      add\n      sstore\n      swap1\n      pop\n      pop\n        /* \"Exam_20231226.sol\":1560:1575  tempStudentInfo */\n      dup3\n        /* \"Exam_20231226.sol\":1544:1552  students */\n      0x00\n        /* \"Exam_20231226.sol\":1555:1556  1 */\n      0x01\n        /* \"Exam_20231226.sol\":1553:1554  j */\n      dup4\n        /* \"Exam_20231226.sol\":1553:1556  j-1 */\n      tag_163\n      swap2\n      swap1\n      tag_141\n      jump\t// in\n    tag_163:\n        /* \"Exam_20231226.sol\":1544:1557  students[j-1] */\n      dup2\n      sload\n      dup2\n      lt\n      tag_164\n      jumpi\n      tag_165\n      tag_53\n      jump\t// in\n    tag_165:\n    tag_164:\n      swap1\n      0x00\n      mstore\n      keccak256(0x00, 0x20)\n      swap1\n      0x03\n      mul\n      add\n        /* \"Exam_20231226.sol\":1544:1575  students[j-1] = tempStudentInfo */\n      0x00\n      dup3\n      add\n      mload\n      dup2\n      0x00\n      add\n      sstore\n      0x20\n      dup3\n      add\n      mload\n      dup2\n      0x01\n      add\n      swap1\n      dup2\n      tag_167\n      swap2\n      swap1\n      tag_110\n      jump\t// in\n    tag_167:\n      pop\n      0x40\n      dup3\n      add\n      mload\n      dup2\n      0x02\n      add\n      sstore\n      swap1\n      pop\n      pop\n        /* \"Exam_20231226.sol\":1375:1595  if(students[j-1].score > students[j].score) {... */\n    tag_145:\n        /* \"Exam_20231226.sol\":1351:1354  j++ */\n      dup1\n      dup1\n      0x01\n      add\n      swap2\n      pop\n      pop\n        /* \"Exam_20231226.sol\":1316:1610  for(uint j=1; j < students.length; j++) {... */\n      jump(tag_134)\n    tag_135:\n      pop\n        /* \"Exam_20231226.sol\":1295:1298  i++ */\n      dup1\n      dup1\n      0x01\n      add\n      swap2\n      pop\n      pop\n        /* \"Exam_20231226.sol\":1260:1621  for(uint i=0; i < students.length; i++ ) {... */\n      jump(tag_131)\n    tag_132:\n      pop\n        /* \"Exam_20231226.sol\":1633:1640  return; */\n      pop\n        /* \"Exam_20231226.sol\":1165:1647  function sortStudentByScore() public {... */\n      jump\t// out\n        /* \"Exam_20231226.sol\":3047:3149  function getAllStudents() public view returns(StudentInfo[] memory) {... */\n    tag_41:\n        /* \"Exam_20231226.sol\":3093:3113  StudentInfo[] memory */\n      0x60\n        /* \"Exam_20231226.sol\":3133:3141  students */\n      0x00\n        /* \"Exam_20231226.sol\":3126:3141  return students */\n      dup1\n      sload\n      dup1\n      0x20\n      mul\n      0x20\n      add\n      mload(0x40)\n      swap1\n      dup2\n      add\n      0x40\n      mstore\n      dup1\n      swap3\n      swap2\n      swap1\n      dup2\n      dup2\n      mstore\n      0x20\n      add\n      0x00\n      swap1\n    tag_169:\n      dup3\n      dup3\n      lt\n      iszero\n      tag_170\n      jumpi\n      dup4\n      dup3\n      swap1\n      0x00\n      mstore\n      keccak256(0x00, 0x20)\n      swap1\n      0x03\n      mul\n      add\n      mload(0x40)\n      dup1\n      0x60\n      add\n      0x40\n      mstore\n      swap1\n      dup2\n      0x00\n      dup3\n      add\n      sload\n      dup2\n      mstore\n      0x20\n      add\n      0x01\n      dup3\n      add\n      dup1\n      sload\n      tag_172\n      swap1\n      tag_56\n      jump\t// in\n    tag_172:\n      dup1\n      0x1f\n      add\n      0x20\n      dup1\n      swap2\n      div\n      mul\n      0x20\n      add\n      mload(0x40)\n      swap1\n      dup2\n      add\n      0x40\n      mstore\n      dup1\n      swap3\n      swap2\n      swap1\n      dup2\n      dup2\n      mstore\n      0x20\n      add\n      dup3\n      dup1\n      sload\n      tag_173\n      swap1\n      tag_56\n      jump\t// in\n    tag_173:\n      dup1\n      iszero\n      tag_174\n      jumpi\n      dup1\n      0x1f\n      lt\n      tag_175\n      jumpi\n      0x0100\n      dup1\n      dup4\n      sload\n      div\n      mul\n      dup4\n      mstore\n      swap2\n      0x20\n      add\n      swap2\n      jump(tag_174)\n    tag_175:\n      dup3\n      add\n      swap2\n      swap1\n      0x00\n      mstore\n      keccak256(0x00, 0x20)\n      swap1\n    tag_176:\n      dup2\n      sload\n      dup2\n      mstore\n      swap1\n      0x01\n      add\n      swap1\n      0x20\n      add\n      dup1\n      dup4\n      gt\n      tag_176\n      jumpi\n      dup3\n      swap1\n      sub\n      0x1f\n      and\n      dup3\n      add\n      swap2\n    tag_174:\n      pop\n      pop\n      pop\n      pop\n      pop\n      dup2\n      mstore\n      0x20\n      add\n      0x02\n      dup3\n      add\n      sload\n      dup2\n      mstore\n      pop\n      pop\n      dup2\n      mstore\n      0x20\n      add\n      swap1\n      0x01\n      add\n      swap1\n      jump(tag_169)\n    tag_170:\n      pop\n      pop\n      pop\n      pop\n      swap1\n      pop\n        /* \"Exam_20231226.sol\":3047:3149  function getAllStudents() public view returns(StudentInfo[] memory) {... */\n      swap1\n      jump\t// out\n    tag_45:\n      mload(0x40)\n      dup1\n      0x60\n      add\n      0x40\n      mstore\n      dup1\n      0x00\n      dup2\n      mstore\n      0x20\n      add\n      0x60\n      dup2\n      mstore\n      0x20\n      add\n      0x00\n      dup2\n      mstore\n      pop\n      swap1\n      jump\t// out\n        /* \"#utility.yul\":7:84   */\n    tag_177:\n        /* \"#utility.yul\":44:51   */\n      0x00\n        /* \"#utility.yul\":73:78   */\n      dup2\n        /* \"#utility.yul\":62:78   */\n      swap1\n      pop\n        /* \"#utility.yul\":7:84   */\n      swap2\n      swap1\n      pop\n      jump\t// out\n        /* \"#utility.yul\":90:198   */\n    tag_178:\n        /* \"#utility.yul\":167:191   */\n      tag_225\n        /* \"#utility.yul\":185:190   */\n      dup2\n        /* \"#utility.yul\":167:191   */\n      tag_177\n      jump\t// in\n    tag_225:\n        /* \"#utility.yul\":162:165   */\n      dup3\n        /* \"#utility.yul\":155:192   */\n      mstore\n        /* \"#utility.yul\":90:198   */\n      pop\n      pop\n      jump\t// out\n        /* \"#utility.yul\":204:303   */\n    tag_179:\n        /* \"#utility.yul\":256:262   */\n      0x00\n        /* \"#utility.yul\":290:295   */\n      dup2\n        /* \"#utility.yul\":284:296   */\n      mload\n        /* \"#utility.yul\":274:296   */\n      swap1\n      pop\n        /* \"#utility.yul\":204:303   */\n      swap2\n      swap1\n      pop\n      jump\t// out\n        /* \"#utility.yul\":309:468   */\n    tag_180:\n        /* \"#utility.yul\":383:394   */\n      0x00\n        /* \"#utility.yul\":417:423   */\n      dup3\n        /* \"#utility.yul\":412:415   */\n      dup3\n        /* \"#utility.yul\":405:424   */\n      mstore\n        /* \"#utility.yul\":457:461   */\n      0x20\n        /* \"#utility.yul\":452:455   */\n      dup3\n        /* \"#utility.yul\":448:462   */\n      add\n        /* \"#utility.yul\":433:462   */\n      swap1\n      pop\n        /* \"#utility.yul\":309:468   */\n      swap3\n      swap2\n      pop\n      pop\n      jump\t// out\n        /* \"#utility.yul\":474:720   */\n    tag_181:\n        /* \"#utility.yul\":555:556   */\n      0x00\n        /* \"#utility.yul\":565:678   */\n    tag_229:\n        /* \"#utility.yul\":579:585   */\n      dup4\n        /* \"#utility.yul\":576:577   */\n      dup2\n        /* \"#utility.yul\":573:586   */\n      lt\n        /* \"#utility.yul\":565:678   */\n      iszero\n      tag_231\n      jumpi\n        /* \"#utility.yul\":664:665   */\n      dup1\n        /* \"#utility.yul\":659:662   */\n      dup3\n        /* \"#utility.yul\":655:666   */\n      add\n        /* \"#utility.yul\":649:667   */\n      mload\n        /* \"#utility.yul\":645:646   */\n      dup2\n        /* \"#utility.yul\":640:643   */\n      dup5\n        /* \"#utility.yul\":636:647   */\n      add\n        /* \"#utility.yul\":629:668   */\n      mstore\n        /* \"#utility.yul\":601:603   */\n      0x20\n        /* \"#utility.yul\":598:599   */\n      dup2\n        /* \"#utility.yul\":594:604   */\n      add\n        /* \"#utility.yul\":589:604   */\n      swap1\n      pop\n        /* \"#utility.yul\":565:678   */\n      jump(tag_229)\n    tag_231:\n        /* \"#utility.yul\":712:713   */\n      0x00\n        /* \"#utility.yul\":703:709   */\n      dup5\n        /* \"#utility.yul\":698:701   */\n      dup5\n        /* \"#utility.yul\":694:710   */\n      add\n        /* \"#utility.yul\":687:714   */\n      mstore\n        /* \"#utility.yul\":536:720   */\n      pop\n        /* \"#utility.yul\":474:720   */\n      pop\n      pop\n      pop\n      jump\t// out\n        /* \"#utility.yul\":726:828   */\n    tag_182:\n        /* \"#utility.yul\":767:773   */\n      0x00\n        /* \"#utility.yul\":818:820   */\n      0x1f\n        /* \"#utility.yul\":814:821   */\n      not\n        /* \"#utility.yul\":809:811   */\n      0x1f\n        /* \"#utility.yul\":802:807   */\n      dup4\n        /* \"#utility.yul\":798:812   */\n      add\n        /* \"#utility.yul\":794:822   */\n      and\n        /* \"#utility.yul\":784:822   */\n      swap1\n      pop\n        /* \"#utility.yul\":726:828   */\n      swap2\n      swap1\n      pop\n      jump\t// out\n        /* \"#utility.yul\":834:1191   */\n    tag_183:\n        /* \"#utility.yul\":912:915   */\n      0x00\n        /* \"#utility.yul\":940:979   */\n      tag_234\n        /* \"#utility.yul\":973:978   */\n      dup3\n        /* \"#utility.yul\":940:979   */\n      tag_179\n      jump\t// in\n    tag_234:\n        /* \"#utility.yul\":995:1056   */\n      tag_235\n        /* \"#utility.yul\":1049:1055   */\n      dup2\n        /* \"#utility.yul\":1044:1047   */\n      dup6\n        /* \"#utility.yul\":995:1056   */\n      tag_180\n      jump\t// in\n    tag_235:\n        /* \"#utility.yul\":988:1056   */\n      swap4\n      pop\n        /* \"#utility.yul\":1065:1130   */\n      tag_236\n        /* \"#utility.yul\":1123:1129   */\n      dup2\n        /* \"#utility.yul\":1118:1121   */\n      dup6\n        /* \"#utility.yul\":1111:1115   */\n      0x20\n        /* \"#utility.yul\":1104:1109   */\n      dup7\n        /* \"#utility.yul\":1100:1116   */\n      add\n        /* \"#utility.yul\":1065:1130   */\n      tag_181\n      jump\t// in\n    tag_236:\n        /* \"#utility.yul\":1155:1184   */\n      tag_237\n        /* \"#utility.yul\":1177:1183   */\n      dup2\n        /* \"#utility.yul\":1155:1184   */\n      tag_182\n      jump\t// in\n    tag_237:\n        /* \"#utility.yul\":1150:1153   */\n      dup5\n        /* \"#utility.yul\":1146:1185   */\n      add\n        /* \"#utility.yul\":1139:1185   */\n      swap2\n      pop\n        /* \"#utility.yul\":916:1191   */\n      pop\n        /* \"#utility.yul\":834:1191   */\n      swap3\n      swap2\n      pop\n      pop\n      jump\t// out\n        /* \"#utility.yul\":1271:2056   */\n    tag_184:\n        /* \"#utility.yul\":1392:1395   */\n      0x00\n        /* \"#utility.yul\":1428:1432   */\n      0x60\n        /* \"#utility.yul\":1423:1426   */\n      dup4\n        /* \"#utility.yul\":1419:1433   */\n      add\n        /* \"#utility.yul\":1517:1521   */\n      0x00\n        /* \"#utility.yul\":1510:1515   */\n      dup4\n        /* \"#utility.yul\":1506:1522   */\n      add\n        /* \"#utility.yul\":1500:1523   */\n      mload\n        /* \"#utility.yul\":1536:1599   */\n      tag_239\n        /* \"#utility.yul\":1593:1597   */\n      0x00\n        /* \"#utility.yul\":1588:1591   */\n      dup7\n        /* \"#utility.yul\":1584:1598   */\n      add\n        /* \"#utility.yul\":1570:1582   */\n      dup3\n        /* \"#utility.yul\":1536:1599   */\n      tag_178\n      jump\t// in\n    tag_239:\n        /* \"#utility.yul\":1443:1609   */\n      pop\n        /* \"#utility.yul\":1691:1695   */\n      0x20\n        /* \"#utility.yul\":1684:1689   */\n      dup4\n        /* \"#utility.yul\":1680:1696   */\n      add\n        /* \"#utility.yul\":1674:1697   */\n      mload\n        /* \"#utility.yul\":1744:1747   */\n      dup5\n        /* \"#utility.yul\":1738:1742   */\n      dup3\n        /* \"#utility.yul\":1734:1748   */\n      sub\n        /* \"#utility.yul\":1727:1731   */\n      0x20\n        /* \"#utility.yul\":1722:1725   */\n      dup7\n        /* \"#utility.yul\":1718:1732   */\n      add\n        /* \"#utility.yul\":1711:1749   */\n      mstore\n        /* \"#utility.yul\":1770:1843   */\n      tag_240\n        /* \"#utility.yul\":1838:1842   */\n      dup3\n        /* \"#utility.yul\":1824:1836   */\n      dup3\n        /* \"#utility.yul\":1770:1843   */\n      tag_183\n      jump\t// in\n    tag_240:\n        /* \"#utility.yul\":1762:1843   */\n      swap2\n      pop\n        /* \"#utility.yul\":1619:1854   */\n      pop\n        /* \"#utility.yul\":1937:1941   */\n      0x40\n        /* \"#utility.yul\":1930:1935   */\n      dup4\n        /* \"#utility.yul\":1926:1942   */\n      add\n        /* \"#utility.yul\":1920:1943   */\n      mload\n        /* \"#utility.yul\":1956:2019   */\n      tag_241\n        /* \"#utility.yul\":2013:2017   */\n      0x40\n        /* \"#utility.yul\":2008:2011   */\n      dup7\n        /* \"#utility.yul\":2004:2018   */\n      add\n        /* \"#utility.yul\":1990:2002   */\n      dup3\n        /* \"#utility.yul\":1956:2019   */\n      tag_178\n      jump\t// in\n    tag_241:\n        /* \"#utility.yul\":1864:2029   */\n      pop\n        /* \"#utility.yul\":2046:2050   */\n      dup1\n        /* \"#utility.yul\":2039:2050   */\n      swap2\n      pop\n        /* \"#utility.yul\":1397:2056   */\n      pop\n        /* \"#utility.yul\":1271:2056   */\n      swap3\n      swap2\n      pop\n      pop\n      jump\t// out\n        /* \"#utility.yul\":2062:2439   */\n    tag_16:\n        /* \"#utility.yul\":2207:2211   */\n      0x00\n        /* \"#utility.yul\":2245:2247   */\n      0x20\n        /* \"#utility.yul\":2234:2243   */\n      dup3\n        /* \"#utility.yul\":2230:2248   */\n      add\n        /* \"#utility.yul\":2222:2248   */\n      swap1\n      pop\n        /* \"#utility.yul\":2294:2303   */\n      dup2\n        /* \"#utility.yul\":2288:2292   */\n      dup2\n        /* \"#utility.yul\":2284:2304   */\n      sub\n        /* \"#utility.yul\":2280:2281   */\n      0x00\n        /* \"#utility.yul\":2269:2278   */\n      dup4\n        /* \"#utility.yul\":2265:2282   */\n      add\n        /* \"#utility.yul\":2258:2305   */\n      mstore\n        /* \"#utility.yul\":2322:2432   */\n      tag_243\n        /* \"#utility.yul\":2427:2431   */\n      dup2\n        /* \"#utility.yul\":2418:2424   */\n      dup5\n        /* \"#utility.yul\":2322:2432   */\n      tag_184\n      jump\t// in\n    tag_243:\n        /* \"#utility.yul\":2314:2432   */\n      swap1\n      pop\n        /* \"#utility.yul\":2062:2439   */\n      swap3\n      swap2\n      pop\n      pop\n      jump\t// out\n        /* \"#utility.yul\":2445:2563   */\n    tag_185:\n        /* \"#utility.yul\":2532:2556   */\n      tag_245\n        /* \"#utility.yul\":2550:2555   */\n      dup2\n        /* \"#utility.yul\":2532:2556   */\n      tag_177\n      jump\t// in\n    tag_245:\n        /* \"#utility.yul\":2527:2530   */\n      dup3\n        /* \"#utility.yul\":2520:2557   */\n      mstore\n        /* \"#utility.yul\":2445:2563   */\n      pop\n      pop\n      jump\t// out\n        /* \"#utility.yul\":2569:2791   */\n    tag_20:\n        /* \"#utility.yul\":2662:2666   */\n      0x00\n        /* \"#utility.yul\":2700:2702   */\n      0x20\n        /* \"#utility.yul\":2689:2698   */\n      dup3\n        /* \"#utility.yul\":2685:2703   */\n      add\n        /* \"#utility.yul\":2677:2703   */\n      swap1\n      pop\n        /* \"#utility.yul\":2713:2784   */\n      tag_247\n        /* \"#utility.yul\":2781:2782   */\n      0x00\n        /* \"#utility.yul\":2770:2779   */\n      dup4\n        /* \"#utility.yul\":2766:2783   */\n      add\n        /* \"#utility.yul\":2757:2763   */\n      dup5\n        /* \"#utility.yul\":2713:2784   */\n      tag_185\n      jump\t// in\n    tag_247:\n        /* \"#utility.yul\":2569:2791   */\n      swap3\n      swap2\n      pop\n      pop\n      jump\t// out\n        /* \"#utility.yul\":2797:2966   */\n    tag_186:\n        /* \"#utility.yul\":2881:2892   */\n      0x00\n        /* \"#utility.yul\":2915:2921   */\n      dup3\n        /* \"#utility.yul\":2910:2913   */\n      dup3\n        /* \"#utility.yul\":2903:2922   */\n      mstore\n        /* \"#utility.yul\":2955:2959   */\n      0x20\n        /* \"#utility.yul\":2950:2953   */\n      dup3\n        /* \"#utility.yul\":2946:2960   */\n      add\n        /* \"#utility.yul\":2931:2960   */\n      swap1\n      pop\n        /* \"#utility.yul\":2797:2966   */\n      swap3\n      swap2\n      pop\n      pop\n      jump\t// out\n        /* \"#utility.yul\":2972:3349   */\n    tag_187:\n        /* \"#utility.yul\":3060:3063   */\n      0x00\n        /* \"#utility.yul\":3088:3127   */\n      tag_250\n        /* \"#utility.yul\":3121:3126   */\n      dup3\n        /* \"#utility.yul\":3088:3127   */\n      tag_179\n      jump\t// in\n    tag_250:\n        /* \"#utility.yul\":3143:3214   */\n      tag_251\n        /* \"#utility.yul\":3207:3213   */\n      dup2\n        /* \"#utility.yul\":3202:3205   */\n      dup6\n        /* \"#utility.yul\":3143:3214   */\n      tag_186\n      jump\t// in\n    tag_251:\n        /* \"#utility.yul\":3136:3214   */\n      swap4\n      pop\n        /* \"#utility.yul\":3223:3288   */\n      tag_252\n        /* \"#utility.yul\":3281:3287   */\n      dup2\n        /* \"#utility.yul\":3276:3279   */\n      dup6\n        /* \"#utility.yul\":3269:3273   */\n      0x20\n        /* \"#utility.yul\":3262:3267   */\n      dup7\n        /* \"#utility.yul\":3258:3274   */\n      add\n        /* \"#utility.yul\":3223:3288   */\n      tag_181\n      jump\t// in\n    tag_252:\n        /* \"#utility.yul\":3313:3342   */\n      tag_253\n        /* \"#utility.yul\":3335:3341   */\n      dup2\n        /* \"#utility.yul\":3313:3342   */\n      tag_182\n      jump\t// in\n    tag_253:\n        /* \"#utility.yul\":3308:3311   */\n      dup5\n        /* \"#utility.yul\":3304:3343   */\n      add\n        /* \"#utility.yul\":3297:3343   */\n      swap2\n      pop\n        /* \"#utility.yul\":3064:3349   */\n      pop\n        /* \"#utility.yul\":2972:3349   */\n      swap3\n      swap2\n      pop\n      pop\n      jump\t// out\n        /* \"#utility.yul\":3355:3668   */\n    tag_24:\n        /* \"#utility.yul\":3468:3472   */\n      0x00\n        /* \"#utility.yul\":3506:3508   */\n      0x20\n        /* \"#utility.yul\":3495:3504   */\n      dup3\n        /* \"#utility.yul\":3491:3509   */\n      add\n        /* \"#utility.yul\":3483:3509   */\n      swap1\n      pop\n        /* \"#utility.yul\":3555:3564   */\n      dup2\n        /* \"#utility.yul\":3549:3553   */\n      dup2\n        /* \"#utility.yul\":3545:3565   */\n      sub\n        /* \"#utility.yul\":3541:3542   */\n      0x00\n        /* \"#utility.yul\":3530:3539   */\n      dup4\n        /* \"#utility.yul\":3526:3543   */\n      add\n        /* \"#utility.yul\":3519:3566   */\n      mstore\n        /* \"#utility.yul\":3583:3661   */\n      tag_255\n        /* \"#utility.yul\":3656:3660   */\n      dup2\n        /* \"#utility.yul\":3647:3653   */\n      dup5\n        /* \"#utility.yul\":3583:3661   */\n      tag_187\n      jump\t// in\n    tag_255:\n        /* \"#utility.yul\":3575:3661   */\n      swap1\n      pop\n        /* \"#utility.yul\":3355:3668   */\n      swap3\n      swap2\n      pop\n      pop\n      jump\t// out\n        /* \"#utility.yul\":3755:3872   */\n    tag_189:\n        /* \"#utility.yul\":3864:3865   */\n      0x00\n        /* \"#utility.yul\":3861:3862   */\n      dup1\n        /* \"#utility.yul\":3854:3866   */\n      revert\n        /* \"#utility.yul\":4001:4123   */\n    tag_191:\n        /* \"#utility.yul\":4074:4098   */\n      tag_260\n        /* \"#utility.yul\":4092:4097   */\n      dup2\n        /* \"#utility.yul\":4074:4098   */\n      tag_177\n      jump\t// in\n    tag_260:\n        /* \"#utility.yul\":4067:4072   */\n      dup2\n        /* \"#utility.yul\":4064:4099   */\n      eq\n        /* \"#utility.yul\":4054:4117   */\n      tag_261\n      jumpi\n        /* \"#utility.yul\":4113:4114   */\n      0x00\n        /* \"#utility.yul\":4110:4111   */\n      dup1\n        /* \"#utility.yul\":4103:4115   */\n      revert\n        /* \"#utility.yul\":4054:4117   */\n    tag_261:\n        /* \"#utility.yul\":4001:4123   */\n      pop\n      jump\t// out\n        /* \"#utility.yul\":4129:4268   */\n    tag_192:\n        /* \"#utility.yul\":4175:4180   */\n      0x00\n        /* \"#utility.yul\":4213:4219   */\n      dup2\n        /* \"#utility.yul\":4200:4220   */\n      calldataload\n        /* \"#utility.yul\":4191:4220   */\n      swap1\n      pop\n        /* \"#utility.yul\":4229:4262   */\n      tag_263\n        /* \"#utility.yul\":4256:4261   */\n      dup2\n        /* \"#utility.yul\":4229:4262   */\n      tag_191\n      jump\t// in\n    tag_263:\n        /* \"#utility.yul\":4129:4268   */\n      swap3\n      swap2\n      pop\n      pop\n      jump\t// out\n        /* \"#utility.yul\":4274:4603   */\n    tag_33:\n        /* \"#utility.yul\":4333:4339   */\n      0x00\n        /* \"#utility.yul\":4382:4384   */\n      0x20\n        /* \"#utility.yul\":4370:4379   */\n      dup3\n        /* \"#utility.yul\":4361:4368   */\n      dup5\n        /* \"#utility.yul\":4357:4380   */\n      sub\n        /* \"#utility.yul\":4353:4385   */\n      slt\n        /* \"#utility.yul\":4350:4469   */\n      iszero\n      tag_265\n      jumpi\n        /* \"#utility.yul\":4388:4467   */\n      tag_266\n      tag_189\n      jump\t// in\n    tag_266:\n        /* \"#utility.yul\":4350:4469   */\n    tag_265:\n        /* \"#utility.yul\":4508:4509   */\n      0x00\n        /* \"#utility.yul\":4533:4586   */\n      tag_267\n        /* \"#utility.yul\":4578:4585   */\n      dup5\n        /* \"#utility.yul\":4569:4575   */\n      dup3\n        /* \"#utility.yul\":4558:4567   */\n      dup6\n        /* \"#utility.yul\":4554:4576   */\n      add\n        /* \"#utility.yul\":4533:4586   */\n      tag_192\n      jump\t// in\n    tag_267:\n        /* \"#utility.yul\":4523:4586   */\n      swap2\n      pop\n        /* \"#utility.yul\":4479:4596   */\n      pop\n        /* \"#utility.yul\":4274:4603   */\n      swap3\n      swap2\n      pop\n      pop\n      jump\t// out\n        /* \"#utility.yul\":4609:4749   */\n    tag_193:\n        /* \"#utility.yul\":4702:4708   */\n      0x00\n        /* \"#utility.yul\":4736:4741   */\n      dup2\n        /* \"#utility.yul\":4730:4742   */\n      mload\n        /* \"#utility.yul\":4720:4742   */\n      swap1\n      pop\n        /* \"#utility.yul\":4609:4749   */\n      swap2\n      swap1\n      pop\n      jump\t// out\n        /* \"#utility.yul\":4755:4965   */\n    tag_194:\n        /* \"#utility.yul\":4880:4891   */\n      0x00\n        /* \"#utility.yul\":4914:4920   */\n      dup3\n        /* \"#utility.yul\":4909:4912   */\n      dup3\n        /* \"#utility.yul\":4902:4921   */\n      mstore\n        /* \"#utility.yul\":4954:4958   */\n      0x20\n        /* \"#utility.yul\":4949:4952   */\n      dup3\n        /* \"#utility.yul\":4945:4959   */\n      add\n        /* \"#utility.yul\":4930:4959   */\n      swap1\n      pop\n        /* \"#utility.yul\":4755:4965   */\n      swap3\n      swap2\n      pop\n      pop\n      jump\t// out\n        /* \"#utility.yul\":4971:5129   */\n    tag_195:\n        /* \"#utility.yul\":5064:5068   */\n      0x00\n        /* \"#utility.yul\":5087:5090   */\n      dup2\n        /* \"#utility.yul\":5079:5090   */\n      swap1\n      pop\n        /* \"#utility.yul\":5117:5121   */\n      0x20\n        /* \"#utility.yul\":5112:5115   */\n      dup3\n        /* \"#utility.yul\":5108:5122   */\n      add\n        /* \"#utility.yul\":5100:5122   */\n      swap1\n      pop\n        /* \"#utility.yul\":4971:5129   */\n      swap2\n      swap1\n      pop\n      jump\t// out\n        /* \"#utility.yul\":5209:5984   */\n    tag_196:\n        /* \"#utility.yul\":5320:5323   */\n      0x00\n        /* \"#utility.yul\":5356:5360   */\n      0x60\n        /* \"#utility.yul\":5351:5354   */\n      dup4\n        /* \"#utility.yul\":5347:5361   */\n      add\n        /* \"#utility.yul\":5445:5449   */\n      0x00\n        /* \"#utility.yul\":5438:5443   */\n      dup4\n        /* \"#utility.yul\":5434:5450   */\n      add\n        /* \"#utility.yul\":5428:5451   */\n      mload\n        /* \"#utility.yul\":5464:5527   */\n      tag_272\n        /* \"#utility.yul\":5521:5525   */\n      0x00\n        /* \"#utility.yul\":5516:5519   */\n      dup7\n        /* \"#utility.yul\":5512:5526   */\n      add\n        /* \"#utility.yul\":5498:5510   */\n      dup3\n        /* \"#utility.yul\":5464:5527   */\n      tag_178\n      jump\t// in\n    tag_272:\n        /* \"#utility.yul\":5371:5537   */\n      pop\n        /* \"#utility.yul\":5619:5623   */\n      0x20\n        /* \"#utility.yul\":5612:5617   */\n      dup4\n        /* \"#utility.yul\":5608:5624   */\n      add\n        /* \"#utility.yul\":5602:5625   */\n      mload\n        /* \"#utility.yul\":5672:5675   */\n      dup5\n        /* \"#utility.yul\":5666:5670   */\n      dup3\n        /* \"#utility.yul\":5662:5676   */\n      sub\n        /* \"#utility.yul\":5655:5659   */\n      0x20\n        /* \"#utility.yul\":5650:5653   */\n      dup7\n        /* \"#utility.yul\":5646:5660   */\n      add\n        /* \"#utility.yul\":5639:5677   */\n      mstore\n        /* \"#utility.yul\":5698:5771   */\n      tag_273\n        /* \"#utility.yul\":5766:5770   */\n      dup3\n        /* \"#utility.yul\":5752:5764   */\n      dup3\n        /* \"#utility.yul\":5698:5771   */\n      tag_183\n      jump\t// in\n    tag_273:\n        /* \"#utility.yul\":5690:5771   */\n      swap2\n      pop\n        /* \"#utility.yul\":5547:5782   */\n      pop\n        /* \"#utility.yul\":5865:5869   */\n      0x40\n        /* \"#utility.yul\":5858:5863   */\n      dup4\n        /* \"#utility.yul\":5854:5870   */\n      add\n        /* \"#utility.yul\":5848:5871   */\n      mload\n        /* \"#utility.yul\":5884:5947   */\n      tag_274\n        /* \"#utility.yul\":5941:5945   */\n      0x40\n        /* \"#utility.yul\":5936:5939   */\n      dup7\n        /* \"#utility.yul\":5932:5946   */\n      add\n        /* \"#utility.yul\":5918:5930   */\n      dup3\n        /* \"#utility.yul\":5884:5947   */\n      tag_178\n      jump\t// in\n    tag_274:\n        /* \"#utility.yul\":5792:5957   */\n      pop\n        /* \"#utility.yul\":5974:5978   */\n      dup1\n        /* \"#utility.yul\":5967:5978   */\n      swap2\n      pop\n        /* \"#utility.yul\":5325:5984   */\n      pop\n        /* \"#utility.yul\":5209:5984   */\n      swap3\n      swap2\n      pop\n      pop\n      jump\t// out\n        /* \"#utility.yul\":5990:6250   */\n    tag_197:\n        /* \"#utility.yul\":6111:6121   */\n      0x00\n        /* \"#utility.yul\":6146:6244   */\n      tag_276\n        /* \"#utility.yul\":6240:6243   */\n      dup4\n        /* \"#utility.yul\":6232:6238   */\n      dup4\n        /* \"#utility.yul\":6146:6244   */\n      tag_196\n      jump\t// in\n    tag_276:\n        /* \"#utility.yul\":6132:6244   */\n      swap1\n      pop\n        /* \"#utility.yul\":5990:6250   */\n      swap3\n      swap2\n      pop\n      pop\n      jump\t// out\n        /* \"#utility.yul\":6256:6395   */\n    tag_198:\n        /* \"#utility.yul\":6352:6356   */\n      0x00\n        /* \"#utility.yul\":6384:6388   */\n      0x20\n        /* \"#utility.yul\":6379:6382   */\n      dup3\n        /* \"#utility.yul\":6375:6389   */\n      add\n        /* \"#utility.yul\":6367:6389   */\n      swap1\n      pop\n        /* \"#utility.yul\":6256:6395   */\n      swap2\n      swap1\n      pop\n      jump\t// out\n        /* \"#utility.yul\":6479:7598   */\n    tag_199:\n        /* \"#utility.yul\":6650:6653   */\n      0x00\n        /* \"#utility.yul\":6679:6759   */\n      tag_279\n        /* \"#utility.yul\":6753:6758   */\n      dup3\n        /* \"#utility.yul\":6679:6759   */\n      tag_193\n      jump\t// in\n    tag_279:\n        /* \"#utility.yul\":6775:6887   */\n      tag_280\n        /* \"#utility.yul\":6880:6886   */\n      dup2\n        /* \"#utility.yul\":6875:6878   */\n      dup6\n        /* \"#utility.yul\":6775:6887   */\n      tag_194\n      jump\t// in\n    tag_280:\n        /* \"#utility.yul\":6768:6887   */\n      swap4\n      pop\n        /* \"#utility.yul\":6913:6916   */\n      dup4\n        /* \"#utility.yul\":6958:6962   */\n      0x20\n        /* \"#utility.yul\":6950:6956   */\n      dup3\n        /* \"#utility.yul\":6946:6963   */\n      mul\n        /* \"#utility.yul\":6941:6944   */\n      dup6\n        /* \"#utility.yul\":6937:6964   */\n      add\n        /* \"#utility.yul\":6988:7070   */\n      tag_281\n        /* \"#utility.yul\":7064:7069   */\n      dup6\n        /* \"#utility.yul\":6988:7070   */\n      tag_195\n      jump\t// in\n    tag_281:\n        /* \"#utility.yul\":7093:7100   */\n      dup1\n        /* \"#utility.yul\":7124:7125   */\n      0x00\n        /* \"#utility.yul\":7109:7553   */\n    tag_282:\n        /* \"#utility.yul\":7134:7140   */\n      dup6\n        /* \"#utility.yul\":7131:7132   */\n      dup2\n        /* \"#utility.yul\":7128:7141   */\n      lt\n        /* \"#utility.yul\":7109:7553   */\n      iszero\n      tag_284\n      jumpi\n        /* \"#utility.yul\":7205:7214   */\n      dup5\n        /* \"#utility.yul\":7199:7203   */\n      dup5\n        /* \"#utility.yul\":7195:7215   */\n      sub\n        /* \"#utility.yul\":7190:7193   */\n      dup10\n        /* \"#utility.yul\":7183:7216   */\n      mstore\n        /* \"#utility.yul\":7256:7262   */\n      dup2\n        /* \"#utility.yul\":7250:7263   */\n      mload\n        /* \"#utility.yul\":7284:7400   */\n      tag_285\n        /* \"#utility.yul\":7395:7399   */\n      dup6\n        /* \"#utility.yul\":7380:7393   */\n      dup3\n        /* \"#utility.yul\":7284:7400   */\n      tag_197\n      jump\t// in\n    tag_285:\n        /* \"#utility.yul\":7276:7400   */\n      swap5\n      pop\n        /* \"#utility.yul\":7423:7509   */\n      tag_286\n        /* \"#utility.yul\":7502:7508   */\n      dup4\n        /* \"#utility.yul\":7423:7509   */\n      tag_198\n      jump\t// in\n    tag_286:\n        /* \"#utility.yul\":7413:7509   */\n      swap3\n      pop\n        /* \"#utility.yul\":7538:7542   */\n      0x20\n        /* \"#utility.yul\":7533:7536   */\n      dup11\n        /* \"#utility.yul\":7529:7543   */\n      add\n        /* \"#utility.yul\":7522:7543   */\n      swap10\n      pop\n        /* \"#utility.yul\":7169:7553   */\n      pop\n        /* \"#utility.yul\":7156:7157   */\n      0x01\n        /* \"#utility.yul\":7153:7154   */\n      dup2\n        /* \"#utility.yul\":7149:7158   */\n      add\n        /* \"#utility.yul\":7144:7158   */\n      swap1\n      pop\n        /* \"#utility.yul\":7109:7553   */\n      jump(tag_282)\n    tag_284:\n        /* \"#utility.yul\":7113:7127   */\n      pop\n        /* \"#utility.yul\":7569:7573   */\n      dup3\n        /* \"#utility.yul\":7562:7573   */\n      swap8\n      pop\n        /* \"#utility.yul\":7589:7592   */\n      dup8\n        /* \"#utility.yul\":7582:7592   */\n      swap6\n      pop\n        /* \"#utility.yul\":6655:7598   */\n      pop\n      pop\n      pop\n      pop\n      pop\n        /* \"#utility.yul\":6479:7598   */\n      swap3\n      swap2\n      pop\n      pop\n      jump\t// out\n        /* \"#utility.yul\":7604:8081   */\n    tag_43:\n        /* \"#utility.yul\":7799:7803   */\n      0x00\n        /* \"#utility.yul\":7837:7839   */\n      0x20\n        /* \"#utility.yul\":7826:7835   */\n      dup3\n        /* \"#utility.yul\":7822:7840   */\n      add\n        /* \"#utility.yul\":7814:7840   */\n      swap1\n      pop\n        /* \"#utility.yul\":7886:7895   */\n      dup2\n        /* \"#utility.yul\":7880:7884   */\n      dup2\n        /* \"#utility.yul\":7876:7896   */\n      sub\n        /* \"#utility.yul\":7872:7873   */\n      0x00\n        /* \"#utility.yul\":7861:7870   */\n      dup4\n        /* \"#utility.yul\":7857:7874   */\n      add\n        /* \"#utility.yul\":7850:7897   */\n      mstore\n        /* \"#utility.yul\":7914:8074   */\n      tag_288\n        /* \"#utility.yul\":8069:8073   */\n      dup2\n        /* \"#utility.yul\":8060:8066   */\n      dup5\n        /* \"#utility.yul\":7914:8074   */\n      tag_199\n      jump\t// in\n    tag_288:\n        /* \"#utility.yul\":7906:8074   */\n      swap1\n      pop\n        /* \"#utility.yul\":7604:8081   */\n      swap3\n      swap2\n      pop\n      pop\n      jump\t// out\n        /* \"#utility.yul\":8087:8247   */\n    tag_200:\n        /* \"#utility.yul\":8227:8239   */\n      0x4e6f2073747564656e7400000000000000000000000000000000000000000000\n        /* \"#utility.yul\":8223:8224   */\n      0x00\n        /* \"#utility.yul\":8215:8221   */\n      dup3\n        /* \"#utility.yul\":8211:8225   */\n      add\n        /* \"#utility.yul\":8204:8240   */\n      mstore\n        /* \"#utility.yul\":8087:8247   */\n      pop\n      jump\t// out\n        /* \"#utility.yul\":8253:8619   */\n    tag_201:\n        /* \"#utility.yul\":8395:8398   */\n      0x00\n        /* \"#utility.yul\":8416:8483   */\n      tag_291\n        /* \"#utility.yul\":8480:8482   */\n      0x0a\n        /* \"#utility.yul\":8475:8478   */\n      dup4\n        /* \"#utility.yul\":8416:8483   */\n      tag_186\n      jump\t// in\n    tag_291:\n        /* \"#utility.yul\":8409:8483   */\n      swap2\n      pop\n        /* \"#utility.yul\":8492:8585   */\n      tag_292\n        /* \"#utility.yul\":8581:8584   */\n      dup3\n        /* \"#utility.yul\":8492:8585   */\n      tag_200\n      jump\t// in\n    tag_292:\n        /* \"#utility.yul\":8610:8612   */\n      0x20\n        /* \"#utility.yul\":8605:8608   */\n      dup3\n        /* \"#utility.yul\":8601:8613   */\n      add\n        /* \"#utility.yul\":8594:8613   */\n      swap1\n      pop\n        /* \"#utility.yul\":8253:8619   */\n      swap2\n      swap1\n      pop\n      jump\t// out\n        /* \"#utility.yul\":8625:9044   */\n    tag_49:\n        /* \"#utility.yul\":8791:8795   */\n      0x00\n        /* \"#utility.yul\":8829:8831   */\n      0x20\n        /* \"#utility.yul\":8818:8827   */\n      dup3\n        /* \"#utility.yul\":8814:8832   */\n      add\n        /* \"#utility.yul\":8806:8832   */\n      swap1\n      pop\n        /* \"#utility.yul\":8878:8887   */\n      dup2\n        /* \"#utility.yul\":8872:8876   */\n      dup2\n        /* \"#utility.yul\":8868:8888   */\n      sub\n        /* \"#utility.yul\":8864:8865   */\n      0x00\n        /* \"#utility.yul\":8853:8862   */\n      dup4\n        /* \"#utility.yul\":8849:8866   */\n      add\n        /* \"#utility.yul\":8842:8889   */\n      mstore\n        /* \"#utility.yul\":8906:9037   */\n      tag_294\n        /* \"#utility.yul\":9032:9036   */\n      dup2\n        /* \"#utility.yul\":8906:9037   */\n      tag_201\n      jump\t// in\n    tag_294:\n        /* \"#utility.yul\":8898:9037   */\n      swap1\n      pop\n        /* \"#utility.yul\":8625:9044   */\n      swap2\n      swap1\n      pop\n      jump\t// out\n        /* \"#utility.yul\":9050:9230   */\n    tag_53:\n        /* \"#utility.yul\":9098:9175   */\n      0x4e487b7100000000000000000000000000000000000000000000000000000000\n        /* \"#utility.yul\":9095:9096   */\n      0x00\n        /* \"#utility.yul\":9088:9176   */\n      mstore\n        /* \"#utility.yul\":9195:9199   */\n      0x32\n        /* \"#utility.yul\":9192:9193   */\n      0x04\n        /* \"#utility.yul\":9185:9200   */\n      mstore\n        /* \"#utility.yul\":9219:9223   */\n      0x24\n        /* \"#utility.yul\":9216:9217   */\n      0x00\n        /* \"#utility.yul\":9209:9224   */\n      revert\n        /* \"#utility.yul\":9236:9416   */\n    tag_202:\n        /* \"#utility.yul\":9284:9361   */\n      0x4e487b7100000000000000000000000000000000000000000000000000000000\n        /* \"#utility.yul\":9281:9282   */\n      0x00\n        /* \"#utility.yul\":9274:9362   */\n      mstore\n        /* \"#utility.yul\":9381:9385   */\n      0x22\n        /* \"#utility.yul\":9378:9379   */\n      0x04\n        /* \"#utility.yul\":9371:9386   */\n      mstore\n        /* \"#utility.yul\":9405:9409   */\n      0x24\n        /* \"#utility.yul\":9402:9403   */\n      0x00\n        /* \"#utility.yul\":9395:9410   */\n      revert\n        /* \"#utility.yul\":9422:9742   */\n    tag_56:\n        /* \"#utility.yul\":9466:9472   */\n      0x00\n        /* \"#utility.yul\":9503:9504   */\n      0x02\n        /* \"#utility.yul\":9497:9501   */\n      dup3\n        /* \"#utility.yul\":9493:9505   */\n      div\n        /* \"#utility.yul\":9483:9505   */\n      swap1\n      pop\n        /* \"#utility.yul\":9550:9551   */\n      0x01\n        /* \"#utility.yul\":9544:9548   */\n      dup3\n        /* \"#utility.yul\":9540:9552   */\n      and\n        /* \"#utility.yul\":9571:9589   */\n      dup1\n        /* \"#utility.yul\":9561:9642   */\n      tag_298\n      jumpi\n        /* \"#utility.yul\":9627:9631   */\n      0x7f\n        /* \"#utility.yul\":9619:9625   */\n      dup3\n        /* \"#utility.yul\":9615:9632   */\n      and\n        /* \"#utility.yul\":9605:9632   */\n      swap2\n      pop\n        /* \"#utility.yul\":9561:9642   */\n    tag_298:\n        /* \"#utility.yul\":9689:9691   */\n      0x20\n        /* \"#utility.yul\":9681:9687   */\n      dup3\n        /* \"#utility.yul\":9678:9692   */\n      lt\n        /* \"#utility.yul\":9658:9676   */\n      dup2\n        /* \"#utility.yul\":9655:9693   */\n      sub\n        /* \"#utility.yul\":9652:9736   */\n      tag_299\n      jumpi\n        /* \"#utility.yul\":9708:9726   */\n      tag_300\n      tag_202\n      jump\t// in\n    tag_300:\n        /* \"#utility.yul\":9652:9736   */\n    tag_299:\n        /* \"#utility.yul\":9473:9742   */\n      pop\n        /* \"#utility.yul\":9422:9742   */\n      swap2\n      swap1\n      pop\n      jump\t// out\n        /* \"#utility.yul\":9748:9928   */\n    tag_203:\n        /* \"#utility.yul\":9796:9873   */\n      0x4e487b7100000000000000000000000000000000000000000000000000000000\n        /* \"#utility.yul\":9793:9794   */\n      0x00\n        /* \"#utility.yul\":9786:9874   */\n      mstore\n        /* \"#utility.yul\":9893:9897   */\n      0x11\n        /* \"#utility.yul\":9890:9891   */\n      0x04\n        /* \"#utility.yul\":9883:9898   */\n      mstore\n        /* \"#utility.yul\":9917:9921   */\n      0x24\n        /* \"#utility.yul\":9914:9915   */\n      0x00\n        /* \"#utility.yul\":9907:9922   */\n      revert\n        /* \"#utility.yul\":9934:10125   */\n    tag_69:\n        /* \"#utility.yul\":9974:9977   */\n      0x00\n        /* \"#utility.yul\":9993:10013   */\n      tag_303\n        /* \"#utility.yul\":10011:10012   */\n      dup3\n        /* \"#utility.yul\":9993:10013   */\n      tag_177\n      jump\t// in\n    tag_303:\n        /* \"#utility.yul\":9988:10013   */\n      swap2\n      pop\n        /* \"#utility.yul\":10027:10047   */\n      tag_304\n        /* \"#utility.yul\":10045:10046   */\n      dup4\n        /* \"#utility.yul\":10027:10047   */\n      tag_177\n      jump\t// in\n    tag_304:\n        /* \"#utility.yul\":10022:10047   */\n      swap3\n      pop\n        /* \"#utility.yul\":10070:10071   */\n      dup3\n        /* \"#utility.yul\":10067:10068   */\n      dup3\n        /* \"#utility.yul\":10063:10072   */\n      add\n        /* \"#utility.yul\":10056:10072   */\n      swap1\n      pop\n        /* \"#utility.yul\":10091:10094   */\n      dup1\n        /* \"#utility.yul\":10088:10089   */\n      dup3\n        /* \"#utility.yul\":10085:10095   */\n      gt\n        /* \"#utility.yul\":10082:10118   */\n      iszero\n      tag_305\n      jumpi\n        /* \"#utility.yul\":10098:10116   */\n      tag_306\n      tag_203\n      jump\t// in\n    tag_306:\n        /* \"#utility.yul\":10082:10118   */\n    tag_305:\n        /* \"#utility.yul\":9934:10125   */\n      swap3\n      swap2\n      pop\n      pop\n      jump\t// out\n        /* \"#utility.yul\":10131:10311   */\n    tag_204:\n        /* \"#utility.yul\":10179:10256   */\n      0x4e487b7100000000000000000000000000000000000000000000000000000000\n        /* \"#utility.yul\":10176:10177   */\n      0x00\n        /* \"#utility.yul\":10169:10257   */\n      mstore\n        /* \"#utility.yul\":10276:10280   */\n      0x12\n        /* \"#utility.yul\":10273:10274   */\n      0x04\n        /* \"#utility.yul\":10266:10281   */\n      mstore\n        /* \"#utility.yul\":10300:10304   */\n      0x24\n        /* \"#utility.yul\":10297:10298   */\n      0x00\n        /* \"#utility.yul\":10290:10305   */\n      revert\n        /* \"#utility.yul\":10317:10502   */\n    tag_88:\n        /* \"#utility.yul\":10357:10358   */\n      0x00\n        /* \"#utility.yul\":10374:10394   */\n      tag_309\n        /* \"#utility.yul\":10392:10393   */\n      dup3\n        /* \"#utility.yul\":10374:10394   */\n      tag_177\n      jump\t// in\n    tag_309:\n        /* \"#utility.yul\":10369:10394   */\n      swap2\n      pop\n        /* \"#utility.yul\":10408:10428   */\n      tag_310\n        /* \"#utility.yul\":10426:10427   */\n      dup4\n        /* \"#utility.yul\":10408:10428   */\n      tag_177\n      jump\t// in\n    tag_310:\n        /* \"#utility.yul\":10403:10428   */\n      swap3\n      pop\n        /* \"#utility.yul\":10447:10448   */\n      dup3\n        /* \"#utility.yul\":10437:10472   */\n      tag_311\n      jumpi\n        /* \"#utility.yul\":10452:10470   */\n      tag_312\n      tag_204\n      jump\t// in\n    tag_312:\n        /* \"#utility.yul\":10437:10472   */\n    tag_311:\n        /* \"#utility.yul\":10494:10495   */\n      dup3\n        /* \"#utility.yul\":10491:10492   */\n      dup3\n        /* \"#utility.yul\":10487:10496   */\n      div\n        /* \"#utility.yul\":10482:10496   */\n      swap1\n      pop\n        /* \"#utility.yul\":10317:10502   */\n      swap3\n      swap2\n      pop\n      pop\n      jump\t// out\n        /* \"#utility.yul\":10508:10688   */\n    tag_205:\n        /* \"#utility.yul\":10556:10633   */\n      0x4e487b7100000000000000000000000000000000000000000000000000000000\n        /* \"#utility.yul\":10553:10554   */\n      0x00\n        /* \"#utility.yul\":10546:10634   */\n      mstore\n        /* \"#utility.yul\":10653:10657   */\n      0x41\n        /* \"#utility.yul\":10650:10651   */\n      0x04\n        /* \"#utility.yul\":10643:10658   */\n      mstore\n        /* \"#utility.yul\":10677:10681   */\n      0x24\n        /* \"#utility.yul\":10674:10675   */\n      0x00\n        /* \"#utility.yul\":10667:10682   */\n      revert\n        /* \"#utility.yul\":10694:10835   */\n    tag_206:\n        /* \"#utility.yul\":10743:10747   */\n      0x00\n        /* \"#utility.yul\":10766:10769   */\n      dup2\n        /* \"#utility.yul\":10758:10769   */\n      swap1\n      pop\n        /* \"#utility.yul\":10789:10792   */\n      dup2\n        /* \"#utility.yul\":10786:10787   */\n      0x00\n        /* \"#utility.yul\":10779:10793   */\n      mstore\n        /* \"#utility.yul\":10823:10827   */\n      0x20\n        /* \"#utility.yul\":10820:10821   */\n      0x00\n        /* \"#utility.yul\":10810:10828   */\n      keccak256\n        /* \"#utility.yul\":10802:10828   */\n      swap1\n      pop\n        /* \"#utility.yul\":10694:10835   */\n      swap2\n      swap1\n      pop\n      jump\t// out\n        /* \"#utility.yul\":10841:10934   */\n    tag_207:\n        /* \"#utility.yul\":10878:10884   */\n      0x00\n        /* \"#utility.yul\":10925:10927   */\n      0x20\n        /* \"#utility.yul\":10920:10922   */\n      0x1f\n        /* \"#utility.yul\":10913:10918   */\n      dup4\n        /* \"#utility.yul\":10909:10923   */\n      add\n        /* \"#utility.yul\":10905:10928   */\n      div\n        /* \"#utility.yul\":10895:10928   */\n      swap1\n      pop\n        /* \"#utility.yul\":10841:10934   */\n      swap2\n      swap1\n      pop\n      jump\t// out\n        /* \"#utility.yul\":10940:11047   */\n    tag_208:\n        /* \"#utility.yul\":10984:10992   */\n      0x00\n        /* \"#utility.yul\":11034:11039   */\n      dup3\n        /* \"#utility.yul\":11028:11032   */\n      dup3\n        /* \"#utility.yul\":11024:11040   */\n      shl\n        /* \"#utility.yul\":11003:11040   */\n      swap1\n      pop\n        /* \"#utility.yul\":10940:11047   */\n      swap3\n      swap2\n      pop\n      pop\n      jump\t// out\n        /* \"#utility.yul\":11053:11446   */\n    tag_209:\n        /* \"#utility.yul\":11122:11128   */\n      0x00\n        /* \"#utility.yul\":11172:11173   */\n      0x08\n        /* \"#utility.yul\":11160:11170   */\n      dup4\n        /* \"#utility.yul\":11156:11174   */\n      mul\n        /* \"#utility.yul\":11195:11292   */\n      tag_318\n        /* \"#utility.yul\":11225:11291   */\n      0xffffffffffffffffffffffffffffffffffffffffffffffffffffffffffffffff\n        /* \"#utility.yul\":11214:11223   */\n      dup3\n        /* \"#utility.yul\":11195:11292   */\n      tag_208\n      jump\t// in\n    tag_318:\n        /* \"#utility.yul\":11313:11352   */\n      tag_319\n        /* \"#utility.yul\":11343:11351   */\n      dup7\n        /* \"#utility.yul\":11332:11341   */\n      dup4\n        /* \"#utility.yul\":11313:11352   */\n      tag_208\n      jump\t// in\n    tag_319:\n        /* \"#utility.yul\":11301:11352   */\n      swap6\n      pop\n        /* \"#utility.yul\":11385:11389   */\n      dup1\n        /* \"#utility.yul\":11381:11390   */\n      not\n        /* \"#utility.yul\":11374:11379   */\n      dup5\n        /* \"#utility.yul\":11370:11391   */\n      and\n        /* \"#utility.yul\":11361:11391   */\n      swap4\n      pop\n        /* \"#utility.yul\":11434:11438   */\n      dup1\n        /* \"#utility.yul\":11424:11432   */\n      dup7\n        /* \"#utility.yul\":11420:11439   */\n      and\n        /* \"#utility.yul\":11413:11418   */\n      dup5\n        /* \"#utility.yul\":11410:11440   */\n      or\n        /* \"#utility.yul\":11400:11440   */\n      swap3\n      pop\n        /* \"#utility.yul\":11129:11446   */\n      pop\n      pop\n        /* \"#utility.yul\":11053:11446   */\n      swap4\n      swap3\n      pop\n      pop\n      pop\n      jump\t// out\n        /* \"#utility.yul\":11452:11512   */\n    tag_210:\n        /* \"#utility.yul\":11480:11483   */\n      0x00\n        /* \"#utility.yul\":11501:11506   */\n      dup2\n        /* \"#utility.yul\":11494:11506   */\n      swap1\n      pop\n        /* \"#utility.yul\":11452:11512   */\n      swap2\n      swap1\n      pop\n      jump\t// out\n        /* \"#utility.yul\":11518:11660   */\n    tag_211:\n        /* \"#utility.yul\":11568:11577   */\n      0x00\n        /* \"#utility.yul\":11601:11654   */\n      tag_322\n        /* \"#utility.yul\":11619:11653   */\n      tag_323\n        /* \"#utility.yul\":11628:11652   */\n      tag_324\n        /* \"#utility.yul\":11646:11651   */\n      dup5\n        /* \"#utility.yul\":11628:11652   */\n      tag_177\n      jump\t// in\n    tag_324:\n        /* \"#utility.yul\":11619:11653   */\n      tag_210\n      jump\t// in\n    tag_323:\n        /* \"#utility.yul\":11601:11654   */\n      tag_177\n      jump\t// in\n    tag_322:\n        /* \"#utility.yul\":11588:11654   */\n      swap1\n      pop\n        /* \"#utility.yul\":11518:11660   */\n      swap2\n      swap1\n      pop\n      jump\t// out\n        /* \"#utility.yul\":11666:11741   */\n    tag_212:\n        /* \"#utility.yul\":11709:11712   */\n      0x00\n        /* \"#utility.yul\":11730:11735   */\n      dup2\n        /* \"#utility.yul\":11723:11735   */\n      swap1\n      pop\n        /* \"#utility.yul\":11666:11741   */\n      swap2\n      swap1\n      pop\n      jump\t// out\n        /* \"#utility.yul\":11747:12016   */\n    tag_213:\n        /* \"#utility.yul\":11857:11896   */\n      tag_327\n        /* \"#utility.yul\":11888:11895   */\n      dup4\n        /* \"#utility.yul\":11857:11896   */\n      tag_211\n      jump\t// in\n    tag_327:\n        /* \"#utility.yul\":11918:12009   */\n      tag_328\n        /* \"#utility.yul\":11967:12008   */\n      tag_329\n        /* \"#utility.yul\":11991:12007   */\n      dup3\n        /* \"#utility.yul\":11967:12008   */\n      tag_212\n      jump\t// in\n    tag_329:\n        /* \"#utility.yul\":11959:11965   */\n      dup5\n        /* \"#utility.yul\":11952:11956   */\n      dup5\n        /* \"#utility.yul\":11946:11957   */\n      sload\n        /* \"#utility.yul\":11918:12009   */\n      tag_209\n      jump\t// in\n    tag_328:\n        /* \"#utility.yul\":11912:11916   */\n      dup3\n        /* \"#utility.yul\":11905:12010   */\n      sstore\n        /* \"#utility.yul\":11823:12016   */\n      pop\n        /* \"#utility.yul\":11747:12016   */\n      pop\n      pop\n      pop\n      jump\t// out\n        /* \"#utility.yul\":12022:12095   */\n    tag_214:\n        /* \"#utility.yul\":12067:12070   */\n      0x00\n        /* \"#utility.yul\":12022:12095   */\n      swap1\n      jump\t// out\n        /* \"#utility.yul\":12101:12290   */\n    tag_215:\n        /* \"#utility.yul\":12178:12210   */\n      tag_332\n      tag_214\n      jump\t// in\n    tag_332:\n        /* \"#utility.yul\":12219:12284   */\n      tag_333\n        /* \"#utility.yul\":12277:12283   */\n      dup2\n        /* \"#utility.yul\":12269:12275   */\n      dup5\n        /* \"#utility.yul\":12263:12267   */\n      dup5\n        /* \"#utility.yul\":12219:12284   */\n      tag_213\n      jump\t// in\n    tag_333:\n        /* \"#utility.yul\":12154:12290   */\n      pop\n        /* \"#utility.yul\":12101:12290   */\n      pop\n      pop\n      jump\t// out\n        /* \"#utility.yul\":12296:12482   */\n    tag_216:\n        /* \"#utility.yul\":12356:12476   */\n    tag_335:\n        /* \"#utility.yul\":12373:12376   */\n      dup2\n        /* \"#utility.yul\":12366:12371   */\n      dup2\n        /* \"#utility.yul\":12363:12377   */\n      lt\n        /* \"#utility.yul\":12356:12476   */\n      iszero\n      tag_337\n      jumpi\n        /* \"#utility.yul\":12427:12466   */\n      tag_338\n        /* \"#utility.yul\":12464:12465   */\n      0x00\n        /* \"#utility.yul\":12457:12462   */\n      dup3\n        /* \"#utility.yul\":12427:12466   */\n      tag_215\n      jump\t// in\n    tag_338:\n        /* \"#utility.yul\":12400:12401   */\n      0x01\n        /* \"#utility.yul\":12393:12398   */\n      dup2\n        /* \"#utility.yul\":12389:12402   */\n      add\n        /* \"#utility.yul\":12380:12402   */\n      swap1\n      pop\n        /* \"#utility.yul\":12356:12476   */\n      jump(tag_335)\n    tag_337:\n        /* \"#utility.yul\":12296:12482   */\n      pop\n      pop\n      jump\t// out\n        /* \"#utility.yul\":12488:13031   */\n    tag_217:\n        /* \"#utility.yul\":12589:12591   */\n      0x1f\n        /* \"#utility.yul\":12584:12587   */\n      dup3\n        /* \"#utility.yul\":12581:12592   */\n      gt\n        /* \"#utility.yul\":12578:13024   */\n      iszero\n      tag_340\n      jumpi\n        /* \"#utility.yul\":12623:12661   */\n      tag_341\n        /* \"#utility.yul\":12655:12660   */\n      dup2\n        /* \"#utility.yul\":12623:12661   */\n      tag_206\n      jump\t// in\n    tag_341:\n        /* \"#utility.yul\":12707:12736   */\n      tag_342\n        /* \"#utility.yul\":12725:12735   */\n      dup5\n        /* \"#utility.yul\":12707:12736   */\n      tag_207\n      jump\t// in\n    tag_342:\n        /* \"#utility.yul\":12697:12705   */\n      dup2\n        /* \"#utility.yul\":12693:12737   */\n      add\n        /* \"#utility.yul\":12890:12892   */\n      0x20\n        /* \"#utility.yul\":12878:12888   */\n      dup6\n        /* \"#utility.yul\":12875:12893   */\n      lt\n        /* \"#utility.yul\":12872:12921   */\n      iszero\n      tag_343\n      jumpi\n        /* \"#utility.yul\":12911:12919   */\n      dup2\n        /* \"#utility.yul\":12896:12919   */\n      swap1\n      pop\n        /* \"#utility.yul\":12872:12921   */\n    tag_343:\n        /* \"#utility.yul\":12934:13014   */\n      tag_344\n        /* \"#utility.yul\":12990:13012   */\n      tag_345\n        /* \"#utility.yul\":13008:13011   */\n      dup6\n        /* \"#utility.yul\":12990:13012   */\n      tag_207\n      jump\t// in\n    tag_345:\n        /* \"#utility.yul\":12980:12988   */\n      dup4\n        /* \"#utility.yul\":12976:13013   */\n      add\n        /* \"#utility.yul\":12963:12974   */\n      dup3\n        /* \"#utility.yul\":12934:13014   */\n      tag_216\n      jump\t// in\n    tag_344:\n        /* \"#utility.yul\":12593:13024   */\n      pop\n      pop\n        /* \"#utility.yul\":12578:13024   */\n    tag_340:\n        /* \"#utility.yul\":12488:13031   */\n      pop\n      pop\n      pop\n      jump\t// out\n        /* \"#utility.yul\":13037:13154   */\n    tag_218:\n        /* \"#utility.yul\":13091:13099   */\n      0x00\n        /* \"#utility.yul\":13141:13146   */\n      dup3\n        /* \"#utility.yul\":13135:13139   */\n      dup3\n        /* \"#utility.yul\":13131:13147   */\n      shr\n        /* \"#utility.yul\":13110:13147   */\n      swap1\n      pop\n        /* \"#utility.yul\":13037:13154   */\n      swap3\n      swap2\n      pop\n      pop\n      jump\t// out\n        /* \"#utility.yul\":13160:13329   */\n    tag_219:\n        /* \"#utility.yul\":13204:13210   */\n      0x00\n        /* \"#utility.yul\":13237:13288   */\n      tag_348\n        /* \"#utility.yul\":13285:13286   */\n      0x00\n        /* \"#utility.yul\":13281:13287   */\n      not\n        /* \"#utility.yul\":13273:13278   */\n      dup5\n        /* \"#utility.yul\":13270:13271   */\n      0x08\n        /* \"#utility.yul\":13266:13279   */\n      mul\n        /* \"#utility.yul\":13237:13288   */\n      tag_218\n      jump\t// in\n    tag_348:\n        /* \"#utility.yul\":13233:13289   */\n      not\n        /* \"#utility.yul\":13318:13322   */\n      dup1\n        /* \"#utility.yul\":13312:13316   */\n      dup4\n        /* \"#utility.yul\":13308:13323   */\n      and\n        /* \"#utility.yul\":13298:13323   */\n      swap2\n      pop\n        /* \"#utility.yul\":13211:13329   */\n      pop\n        /* \"#utility.yul\":13160:13329   */\n      swap3\n      swap2\n      pop\n      pop\n      jump\t// out\n        /* \"#utility.yul\":13334:13629   */\n    tag_220:\n        /* \"#utility.yul\":13410:13414   */\n      0x00\n        /* \"#utility.yul\":13556:13585   */\n      tag_350\n        /* \"#utility.yul\":13581:13584   */\n      dup4\n        /* \"#utility.yul\":13575:13579   */\n      dup4\n        /* \"#utility.yul\":13556:13585   */\n      tag_219\n      jump\t// in\n    tag_350:\n        /* \"#utility.yul\":13548:13585   */\n      swap2\n      pop\n        /* \"#utility.yul\":13618:13621   */\n      dup3\n        /* \"#utility.yul\":13615:13616   */\n      0x02\n        /* \"#utility.yul\":13611:13622   */\n      mul\n        /* \"#utility.yul\":13605:13609   */\n      dup3\n        /* \"#utility.yul\":13602:13623   */\n      or\n        /* \"#utility.yul\":13594:13623   */\n      swap1\n      pop\n        /* \"#utility.yul\":13334:13629   */\n      swap3\n      swap2\n      pop\n      pop\n      jump\t// out\n        /* \"#utility.yul\":13634:15029   */\n    tag_110:\n        /* \"#utility.yul\":13751:13788   */\n      tag_352\n        /* \"#utility.yul\":13784:13787   */\n      dup3\n        /* \"#utility.yul\":13751:13788   */\n      tag_179\n      jump\t// in\n    tag_352:\n        /* \"#utility.yul\":13853:13871   */\n      0xffffffffffffffff\n        /* \"#utility.yul\":13845:13851   */\n      dup2\n        /* \"#utility.yul\":13842:13872   */\n      gt\n        /* \"#utility.yul\":13839:13895   */\n      iszero\n      tag_353\n      jumpi\n        /* \"#utility.yul\":13875:13893   */\n      tag_354\n      tag_205\n      jump\t// in\n    tag_354:\n        /* \"#utility.yul\":13839:13895   */\n    tag_353:\n        /* \"#utility.yul\":13919:13957   */\n      tag_355\n        /* \"#utility.yul\":13951:13955   */\n      dup3\n        /* \"#utility.yul\":13945:13956   */\n      sload\n        /* \"#utility.yul\":13919:13957   */\n      tag_56\n      jump\t// in\n    tag_355:\n        /* \"#utility.yul\":14004:14071   */\n      tag_356\n        /* \"#utility.yul\":14064:14070   */\n      dup3\n        /* \"#utility.yul\":14056:14062   */\n      dup3\n        /* \"#utility.yul\":14050:14054   */\n      dup6\n        /* \"#utility.yul\":14004:14071   */\n      tag_217\n      jump\t// in\n    tag_356:\n        /* \"#utility.yul\":14098:14099   */\n      0x00\n        /* \"#utility.yul\":14122:14126   */\n      0x20\n        /* \"#utility.yul\":14109:14126   */\n      swap1\n      pop\n        /* \"#utility.yul\":14154:14156   */\n      0x1f\n        /* \"#utility.yul\":14146:14152   */\n      dup4\n        /* \"#utility.yul\":14143:14157   */\n      gt\n        /* \"#utility.yul\":14171:14172   */\n      0x01\n        /* \"#utility.yul\":14166:14784   */\n      dup2\n      eq\n      tag_358\n      jumpi\n        /* \"#utility.yul\":14828:14829   */\n      0x00\n        /* \"#utility.yul\":14845:14851   */\n      dup5\n        /* \"#utility.yul\":14842:14919   */\n      iszero\n      tag_359\n      jumpi\n        /* \"#utility.yul\":14894:14903   */\n      dup3\n        /* \"#utility.yul\":14889:14892   */\n      dup8\n        /* \"#utility.yul\":14885:14904   */\n      add\n        /* \"#utility.yul\":14879:14905   */\n      mload\n        /* \"#utility.yul\":14870:14905   */\n      swap1\n      pop\n        /* \"#utility.yul\":14842:14919   */\n    tag_359:\n        /* \"#utility.yul\":14945:15012   */\n      tag_360\n        /* \"#utility.yul\":15005:15011   */\n      dup6\n        /* \"#utility.yul\":14998:15003   */\n      dup3\n        /* \"#utility.yul\":14945:15012   */\n      tag_220\n      jump\t// in\n    tag_360:\n        /* \"#utility.yul\":14939:14943   */\n      dup7\n        /* \"#utility.yul\":14932:15013   */\n      sstore\n        /* \"#utility.yul\":14801:15023   */\n      pop\n        /* \"#utility.yul\":14136:15023   */\n      jump(tag_357)\n        /* \"#utility.yul\":14166:14784   */\n    tag_358:\n        /* \"#utility.yul\":14218:14222   */\n      0x1f\n        /* \"#utility.yul\":14214:14223   */\n      not\n        /* \"#utility.yul\":14206:14212   */\n      dup5\n        /* \"#utility.yul\":14202:14224   */\n      and\n        /* \"#utility.yul\":14252:14289   */\n      tag_361\n        /* \"#utility.yul\":14284:14288   */\n      dup7\n        /* \"#utility.yul\":14252:14289   */\n      tag_206\n      jump\t// in\n    tag_361:\n        /* \"#utility.yul\":14311:14312   */\n      0x00\n        /* \"#utility.yul\":14325:14533   */\n    tag_362:\n        /* \"#utility.yul\":14339:14346   */\n      dup3\n        /* \"#utility.yul\":14336:14337   */\n      dup2\n        /* \"#utility.yul\":14333:14347   */\n      lt\n        /* \"#utility.yul\":14325:14533   */\n      iszero\n      tag_364\n      jumpi\n        /* \"#utility.yul\":14418:14427   */\n      dup5\n        /* \"#utility.yul\":14413:14416   */\n      dup10\n        /* \"#utility.yul\":14409:14428   */\n      add\n        /* \"#utility.yul\":14403:14429   */\n      mload\n        /* \"#utility.yul\":14395:14401   */\n      dup3\n        /* \"#utility.yul\":14388:14430   */\n      sstore\n        /* \"#utility.yul\":14469:14470   */\n      0x01\n        /* \"#utility.yul\":14461:14467   */\n      dup3\n        /* \"#utility.yul\":14457:14471   */\n      add\n        /* \"#utility.yul\":14447:14471   */\n      swap2\n      pop\n        /* \"#utility.yul\":14516:14518   */\n      0x20\n        /* \"#utility.yul\":14505:14514   */\n      dup6\n        /* \"#utility.yul\":14501:14519   */\n      add\n        /* \"#utility.yul\":14488:14519   */\n      swap5\n      pop\n        /* \"#utility.yul\":14362:14366   */\n      0x20\n        /* \"#utility.yul\":14359:14360   */\n      dup2\n        /* \"#utility.yul\":14355:14367   */\n      add\n        /* \"#utility.yul\":14350:14367   */\n      swap1\n      pop\n        /* \"#utility.yul\":14325:14533   */\n      jump(tag_362)\n    tag_364:\n        /* \"#utility.yul\":14561:14567   */\n      dup7\n        /* \"#utility.yul\":14552:14559   */\n      dup4\n        /* \"#utility.yul\":14549:14568   */\n      lt\n        /* \"#utility.yul\":14546:14725   */\n      iszero\n      tag_365\n      jumpi\n        /* \"#utility.yul\":14619:14628   */\n      dup5\n        /* \"#utility.yul\":14614:14617   */\n      dup10\n        /* \"#utility.yul\":14610:14629   */\n      add\n        /* \"#utility.yul\":14604:14630   */\n      mload\n        /* \"#utility.yul\":14662:14710   */\n      tag_366\n        /* \"#utility.yul\":14704:14708   */\n      0x1f\n        /* \"#utility.yul\":14696:14702   */\n      dup10\n        /* \"#utility.yul\":14692:14709   */\n      and\n        /* \"#utility.yul\":14681:14690   */\n      dup3\n        /* \"#utility.yul\":14662:14710   */\n      tag_219\n      jump\t// in\n    tag_366:\n        /* \"#utility.yul\":14654:14660   */\n      dup4\n        /* \"#utility.yul\":14647:14711   */\n      sstore\n        /* \"#utility.yul\":14569:14725   */\n      pop\n        /* \"#utility.yul\":14546:14725   */\n    tag_365:\n        /* \"#utility.yul\":14771:14772   */\n      0x01\n        /* \"#utility.yul\":14767:14768   */\n      0x02\n        /* \"#utility.yul\":14759:14765   */\n      dup9\n        /* \"#utility.yul\":14755:14769   */\n      mul\n        /* \"#utility.yul\":14751:14773   */\n      add\n        /* \"#utility.yul\":14745:14749   */\n      dup9\n        /* \"#utility.yul\":14738:14774   */\n      sstore\n        /* \"#utility.yul\":14173:14784   */\n      pop\n      pop\n      pop\n        /* \"#utility.yul\":14136:15023   */\n    tag_357:\n      pop\n        /* \"#utility.yul\":13726:15029   */\n      pop\n      pop\n      pop\n        /* \"#utility.yul\":13634:15029   */\n      pop\n      pop\n      jump\t// out\n        /* \"#utility.yul\":15035:15229   */\n    tag_141:\n        /* \"#utility.yul\":15075:15079   */\n      0x00\n        /* \"#utility.yul\":15095:15115   */\n      tag_368\n        /* \"#utility.yul\":15113:15114   */\n      dup3\n        /* \"#utility.yul\":15095:15115   */\n      tag_177\n      jump\t// in\n    tag_368:\n        /* \"#utility.yul\":15090:15115   */\n      swap2\n      pop\n        /* \"#utility.yul\":15129:15149   */\n      tag_369\n        /* \"#utility.yul\":15147:15148   */\n      dup4\n        /* \"#utility.yul\":15129:15149   */\n      tag_177\n      jump\t// in\n    tag_369:\n        /* \"#utility.yul\":15124:15149   */\n      swap3\n      pop\n        /* \"#utility.yul\":15173:15174   */\n      dup3\n        /* \"#utility.yul\":15170:15171   */\n      dup3\n        /* \"#utility.yul\":15166:15175   */\n      sub\n        /* \"#utility.yul\":15158:15175   */\n      swap1\n      pop\n        /* \"#utility.yul\":15197:15198   */\n      dup2\n        /* \"#utility.yul\":15191:15195   */\n      dup2\n        /* \"#utility.yul\":15188:15199   */\n      gt\n        /* \"#utility.yul\":15185:15222   */\n      iszero\n      tag_370\n      jumpi\n        /* \"#utility.yul\":15202:15220   */\n      tag_371\n      tag_203\n      jump\t// in\n    tag_371:\n        /* \"#utility.yul\":15185:15222   */\n    tag_370:\n        /* \"#utility.yul\":15035:15229   */\n      swap3\n      swap2\n      pop\n      pop\n      jump\t// out\n        /* \"#utility.yul\":15235:15384   */\n    tag_221:\n        /* \"#utility.yul\":15284:15290   */\n      0x00\n        /* \"#utility.yul\":15318:15323   */\n      dup2\n        /* \"#utility.yul\":15312:15324   */\n      sload\n        /* \"#utility.yul\":15302:15324   */\n      swap1\n      pop\n        /* \"#utility.yul\":15344:15377   */\n      tag_373\n        /* \"#utility.yul\":15370:15376   */\n      dup2\n        /* \"#utility.yul\":15344:15377   */\n      tag_56\n      jump\t// in\n    tag_373:\n        /* \"#utility.yul\":15334:15377   */\n      swap1\n      pop\n        /* \"#utility.yul\":15235:15384   */\n      swap2\n      swap1\n      pop\n      jump\t// out\n        /* \"#utility.yul\":15390:16841   */\n    tag_162:\n        /* \"#utility.yul\":15501:15504   */\n      dup2\n        /* \"#utility.yul\":15495:15499   */\n      dup2\n        /* \"#utility.yul\":15492:15505   */\n      sub\n        /* \"#utility.yul\":15489:15515   */\n      tag_375\n      jumpi\n        /* \"#utility.yul\":15508:15513   */\n      pop\n      pop\n      jump(tag_374)\n        /* \"#utility.yul\":15489:15515   */\n    tag_375:\n        /* \"#utility.yul\":15539:15573   */\n      tag_376\n        /* \"#utility.yul\":15569:15572   */\n      dup3\n        /* \"#utility.yul\":15539:15573   */\n      tag_221\n      jump\t// in\n    tag_376:\n        /* \"#utility.yul\":15638:15656   */\n      0xffffffffffffffff\n        /* \"#utility.yul\":15630:15636   */\n      dup2\n        /* \"#utility.yul\":15627:15657   */\n      gt\n        /* \"#utility.yul\":15624:15680   */\n      iszero\n      tag_377\n      jumpi\n        /* \"#utility.yul\":15660:15678   */\n      tag_378\n      tag_205\n      jump\t// in\n    tag_378:\n        /* \"#utility.yul\":15624:15680   */\n    tag_377:\n        /* \"#utility.yul\":15704:15742   */\n      tag_379\n        /* \"#utility.yul\":15736:15740   */\n      dup3\n        /* \"#utility.yul\":15730:15741   */\n      sload\n        /* \"#utility.yul\":15704:15742   */\n      tag_56\n      jump\t// in\n    tag_379:\n        /* \"#utility.yul\":15789:15856   */\n      tag_380\n        /* \"#utility.yul\":15849:15855   */\n      dup3\n        /* \"#utility.yul\":15841:15847   */\n      dup3\n        /* \"#utility.yul\":15835:15839   */\n      dup6\n        /* \"#utility.yul\":15789:15856   */\n      tag_217\n      jump\t// in\n    tag_380:\n        /* \"#utility.yul\":15883:15884   */\n      0x00\n        /* \"#utility.yul\":15912:15914   */\n      0x1f\n        /* \"#utility.yul\":15904:15910   */\n      dup4\n        /* \"#utility.yul\":15901:15915   */\n      gt\n        /* \"#utility.yul\":15929:15930   */\n      0x01\n        /* \"#utility.yul\":15924:16596   */\n      dup2\n      eq\n      tag_382\n      jumpi\n        /* \"#utility.yul\":16640:16641   */\n      0x00\n        /* \"#utility.yul\":16657:16663   */\n      dup5\n        /* \"#utility.yul\":16654:16731   */\n      iszero\n      tag_383\n      jumpi\n        /* \"#utility.yul\":16706:16715   */\n      dup3\n        /* \"#utility.yul\":16701:16704   */\n      dup8\n        /* \"#utility.yul\":16697:16716   */\n      add\n        /* \"#utility.yul\":16691:16717   */\n      sload\n        /* \"#utility.yul\":16682:16717   */\n      swap1\n      pop\n        /* \"#utility.yul\":16654:16731   */\n    tag_383:\n        /* \"#utility.yul\":16757:16824   */\n      tag_384\n        /* \"#utility.yul\":16817:16823   */\n      dup6\n        /* \"#utility.yul\":16810:16815   */\n      dup3\n        /* \"#utility.yul\":16757:16824   */\n      tag_220\n      jump\t// in\n    tag_384:\n        /* \"#utility.yul\":16751:16755   */\n      dup7\n        /* \"#utility.yul\":16744:16825   */\n      sstore\n        /* \"#utility.yul\":16613:16835   */\n      pop\n        /* \"#utility.yul\":15894:16835   */\n      jump(tag_381)\n        /* \"#utility.yul\":15924:16596   */\n    tag_382:\n        /* \"#utility.yul\":15976:15980   */\n      0x1f\n        /* \"#utility.yul\":15972:15981   */\n      not\n        /* \"#utility.yul\":15964:15970   */\n      dup5\n        /* \"#utility.yul\":15960:15982   */\n      and\n        /* \"#utility.yul\":16002:16038   */\n      tag_385\n        /* \"#utility.yul\":16034:16037   */\n      dup8\n        /* \"#utility.yul\":16002:16038   */\n      tag_206\n      jump\t// in\n    tag_385:\n        /* \"#utility.yul\":15995:16038   */\n      swap7\n      pop\n        /* \"#utility.yul\":16065:16102   */\n      tag_386\n        /* \"#utility.yul\":16097:16101   */\n      dup7\n        /* \"#utility.yul\":16065:16102   */\n      tag_206\n      jump\t// in\n    tag_386:\n        /* \"#utility.yul\":16124:16125   */\n      0x00\n        /* \"#utility.yul\":16138:16345   */\n    tag_387:\n        /* \"#utility.yul\":16152:16159   */\n      dup3\n        /* \"#utility.yul\":16149:16150   */\n      dup2\n        /* \"#utility.yul\":16146:16160   */\n      lt\n        /* \"#utility.yul\":16138:16345   */\n      iszero\n      tag_389\n      jumpi\n        /* \"#utility.yul\":16231:16240   */\n      dup5\n        /* \"#utility.yul\":16226:16229   */\n      dup10\n        /* \"#utility.yul\":16222:16241   */\n      add\n        /* \"#utility.yul\":16216:16242   */\n      sload\n        /* \"#utility.yul\":16208:16214   */\n      dup3\n        /* \"#utility.yul\":16201:16243   */\n      sstore\n        /* \"#utility.yul\":16282:16283   */\n      0x01\n        /* \"#utility.yul\":16274:16280   */\n      dup3\n        /* \"#utility.yul\":16270:16284   */\n      add\n        /* \"#utility.yul\":16260:16284   */\n      swap2\n      pop\n        /* \"#utility.yul\":16329:16330   */\n      0x01\n        /* \"#utility.yul\":16318:16327   */\n      dup6\n        /* \"#utility.yul\":16314:16331   */\n      add\n        /* \"#utility.yul\":16301:16331   */\n      swap5\n      pop\n        /* \"#utility.yul\":16175:16179   */\n      0x20\n        /* \"#utility.yul\":16172:16173   */\n      dup2\n        /* \"#utility.yul\":16168:16180   */\n      add\n        /* \"#utility.yul\":16163:16180   */\n      swap1\n      pop\n        /* \"#utility.yul\":16138:16345   */\n      jump(tag_387)\n    tag_389:\n        /* \"#utility.yul\":16373:16379   */\n      dup7\n        /* \"#utility.yul\":16364:16371   */\n      dup4\n        /* \"#utility.yul\":16361:16380   */\n      lt\n        /* \"#utility.yul\":16358:16537   */\n      iszero\n      tag_390\n      jumpi\n        /* \"#utility.yul\":16431:16440   */\n      dup5\n        /* \"#utility.yul\":16426:16429   */\n      dup10\n        /* \"#utility.yul\":16422:16441   */\n      add\n        /* \"#utility.yul\":16416:16442   */\n      sload\n        /* \"#utility.yul\":16474:16522   */\n      tag_391\n        /* \"#utility.yul\":16516:16520   */\n      0x1f\n        /* \"#utility.yul\":16508:16514   */\n      dup10\n        /* \"#utility.yul\":16504:16521   */\n      and\n        /* \"#utility.yul\":16493:16502   */\n      dup3\n        /* \"#utility.yul\":16474:16522   */\n      tag_219\n      jump\t// in\n    tag_391:\n        /* \"#utility.yul\":16466:16472   */\n      dup4\n        /* \"#utility.yul\":16459:16523   */\n      sstore\n        /* \"#utility.yul\":16381:16537   */\n      pop\n        /* \"#utility.yul\":16358:16537   */\n    tag_390:\n        /* \"#utility.yul\":16583:16584   */\n      0x01\n        /* \"#utility.yul\":16579:16580   */\n      0x02\n        /* \"#utility.yul\":16571:16577   */\n      dup9\n        /* \"#utility.yul\":16567:16581   */\n      mul\n        /* \"#utility.yul\":16563:16585   */\n      add\n        /* \"#utility.yul\":16557:16561   */\n      dup9\n        /* \"#utility.yul\":16550:16586   */\n      sstore\n        /* \"#utility.yul\":15931:16596   */\n      pop\n      pop\n      pop\n        /* \"#utility.yul\":15894:16835   */\n    tag_381:\n      pop\n        /* \"#utility.yul\":15479:16841   */\n      pop\n      pop\n      pop\n        /* \"#utility.yul\":15390:16841   */\n      pop\n      pop\n    tag_374:\n      jump\t// out\n\n    auxdata: 0xa2646970667358221220b524a0dcad0249ca9cfacc5c34898f91f6d9fee640222e6b3f27da30555913a964736f6c63430008160033\n}\n",
				"bytecode": {
					"linkReferences": {},
					"object": "608060405234801561000f575f80fd5b5061182f8061001d5f395ff3fe608060405234801561000f575f80fd5b5060043610610091575f3560e01c8063740d5e1011610064578063740d5e101461010d578063a41f985e1461012b578063d7bc51a71461015b578063daf41eda14610165578063e9e309271461016f57610091565b8063097d814d146100955780632011cdae146100b35780632b567fb5146100d15780635148f68e146100ef575b5f80fd5b61009d61018d565b6040516100aa9190611053565b60405180910390f35b6100bb6102b7565b6040516100c89190611082565b60405180910390f35b6100d961030c565b6040516100e691906110e3565b60405180910390f35b6100f761040c565b6040516101049190611082565b60405180910390f35b610115610417565b6040516101229190611082565b60405180910390f35b61014560048036038101906101409190611131565b61047c565b6040516101529190611053565b60405180910390f35b6101636105ad565b005b61016d610c0d565b005b610177610e47565b6040516101849190611264565b60405180910390f35b610195610f45565b60015f8054905010156101dd576040517f08c379a00000000000000000000000000000000000000000000000000000000081526004016101d4906112ce565b60405180910390fd5b6101e5610c0d565b5f80815481106101f8576101f76112ec565b5b905f5260205f2090600302016040518060600160405290815f820154815260200160018201805461022890611346565b80601f016020809104026020016040519081016040528092919081815260200182805461025490611346565b801561029f5780601f106102765761010080835404028352916020019161029f565b820191905f5260205f20905b81548152906001019060200180831161028257829003601f168201915b50505050508152602001600282015481525050905090565b5f805f5b5f80549050811015610304575f81815481106102da576102d96112ec565b5b905f5260205f20906003020160020154826102f591906113a3565b915080806001019150506102bb565b508091505090565b606060015f805490501015610356576040517f08c379a000000000000000000000000000000000000000000000000000000000815260040161034d906112ce565b60405180910390fd5b61035e610c0d565b5f8081548110610371576103706112ec565b5b905f5260205f209060030201600101805461038b90611346565b80601f01602080910402602001604051908101604052809291908181526020018280546103b790611346565b80156104025780601f106103d957610100808354040283529160200191610402565b820191905f5260205f20905b8154815290600101906020018083116103e557829003601f168201915b5050505050905090565b5f8080549050905090565b5f60015f805490501015610460576040517f08c379a0000000000000000000000000000000000000000000000000000000008152600401610457906112ce565b60405180910390fd5b5f8054905061046d6102b7565b6104779190611403565b905090565b610484610f45565b61048c610f45565b5f5b5f805490508110156105a357835f82815481106104ae576104ad6112ec565b5b905f5260205f2090600302015f015403610596575f81815481106104d5576104d46112ec565b5b905f5260205f2090600302016040518060600160405290815f820154815260200160018201805461050590611346565b80601f016020809104026020016040519081016040528092919081815260200182805461053190611346565b801561057c5780601f106105535761010080835404028352916020019161057c565b820191905f5260205f20905b81548152906001019060200180831161055f57829003601f168201915b5050505050815260200160028201548152505091506105a3565b808060010191505061048e565b5080915050919050565b5f6040518060600160405280600181526020016040518060400160405280600581526020017f416c69636500000000000000000000000000000000000000000000000000000081525081526020016055815250908060018154018082558091505060019003905f5260205f2090600302015f909190919091505f820151815f0155602082015181600101908161064391906115fd565b506040820151816002015550505f6040518060600160405280600281526020016040518060400160405280600381526020017f426f6200000000000000000000000000000000000000000000000000000000008152508152602001604b815250908060018154018082558091505060019003905f5260205f2090600302015f909190919091505f820151815f015560208201518160010190816106e691906115fd565b506040820151816002015550505f6040518060600160405280600381526020016040518060400160405280600781526020017f436861726c6965000000000000000000000000000000000000000000000000008152508152602001603c815250908060018154018082558091505060019003905f5260205f2090600302015f909190919091505f820151815f0155602082015181600101908161078991906115fd565b506040820151816002015550505f6040518060600160405280600481526020016040518060400160405280600681526020017f447761796e6500000000000000000000000000000000000000000000000000008152508152602001605a815250908060018154018082558091505060019003905f5260205f2090600302015f909190919091505f820151815f0155602082015181600101908161082c91906115fd565b506040820151816002015550505f6040518060600160405280600581526020016040518060400160405280600581526020017f456c6c656e00000000000000000000000000000000000000000000000000000081525081526020016041815250908060018154018082558091505060019003905f5260205f2090600302015f909190919091505f820151815f015560208201518160010190816108cf91906115fd565b506040820151816002015550505f6040518060600160405280600681526020016040518060400160405280600481526020017f4669747a0000000000000000000000000000000000000000000000000000000081525081526020016032815250908060018154018082558091505060019003905f5260205f2090600302015f909190919091505f820151815f0155602082015181600101908161097291906115fd565b506040820151816002015550505f6040518060600160405280600781526020016040518060400160405280600681526020017f476172726574000000000000000000000000000000000000000000000000000081525081526020016050815250908060018154018082558091505060019003905f5260205f2090600302015f909190919091505f820151815f01556020820151816001019081610a1591906115fd565b506040820151816002015550505f6040518060600160405280600881526020016040518060400160405280600681526020017f48756265727400000000000000000000000000000000000000000000000000008152508152602001605a815250908060018154018082558091505060019003905f5260205f2090600302015f909190919091505f820151815f01556020820151816001019081610ab891906115fd565b506040820151816002015550505f6040518060600160405280600981526020016040518060400160405280600681526020017f49736162656c000000000000000000000000000000000000000000000000000081525081526020016064815250908060018154018082558091505060019003905f5260205f2090600302015f909190919091505f820151815f01556020820151816001019081610b5b91906115fd565b506040820151816002015550505f6040518060600160405280600a81526020016040518060400160405280600481526020017f4a616e650000000000000000000000000000000000000000000000000000000081525081526020016046815250908060018154018082558091505060019003905f5260205f2090600302015f909190919091505f820151815f01556020820151816001019081610bfe91906115fd565b50604082015181600201555050565b610c15610f45565b5f5b5f80549050811015610e43575f600190505b5f80549050811015610e35575f8181548110610c4857610c476112ec565b5b905f5260205f209060030201600201545f600183610c6691906116cc565b81548110610c7757610c766112ec565b5b905f5260205f209060030201600201541115610e28575f8181548110610ca057610c9f6112ec565b5b905f5260205f2090600302016040518060600160405290815f8201548152602001600182018054610cd090611346565b80601f0160208091040260200160405190810160405280929190818152602001828054610cfc90611346565b8015610d475780601f10610d1e57610100808354040283529160200191610d47565b820191905f5260205f20905b815481529060010190602001808311610d2a57829003601f168201915b5050505050815260200160028201548152505092505f600182610d6a91906116cc565b81548110610d7b57610d7a6112ec565b5b905f5260205f2090600302015f8281548110610d9a57610d996112ec565b5b905f5260205f2090600302015f820154815f015560018201816001019081610dc29190611714565b5060028201548160020155905050825f600183610ddf91906116cc565b81548110610df057610def6112ec565b5b905f5260205f2090600302015f820151815f01556020820151816001019081610e1991906115fd565b50604082015181600201559050505b8080600101915050610c29565b508080600101915050610c17565b5050565b60605f805480602002602001604051908101604052809291908181526020015f905b82821015610f3c578382905f5260205f2090600302016040518060600160405290815f8201548152602001600182018054610ea390611346565b80601f0160208091040260200160405190810160405280929190818152602001828054610ecf90611346565b8015610f1a5780601f10610ef157610100808354040283529160200191610f1a565b820191905f5260205f20905b815481529060010190602001808311610efd57829003601f168201915b5050505050815260200160028201548152505081526020019060010190610e69565b50505050905090565b60405180606001604052805f8152602001606081526020015f81525090565b5f819050919050565b610f7681610f64565b82525050565b5f81519050919050565b5f82825260208201905092915050565b5f5b83811015610fb3578082015181840152602081019050610f98565b5f8484015250505050565b5f601f19601f8301169050919050565b5f610fd882610f7c565b610fe28185610f86565b9350610ff2818560208601610f96565b610ffb81610fbe565b840191505092915050565b5f606083015f83015161101b5f860182610f6d565b50602083015184820360208601526110338282610fce565b91505060408301516110486040860182610f6d565b508091505092915050565b5f6020820190508181035f83015261106b8184611006565b905092915050565b61107c81610f64565b82525050565b5f6020820190506110955f830184611073565b92915050565b5f82825260208201905092915050565b5f6110b582610f7c565b6110bf818561109b565b93506110cf818560208601610f96565b6110d881610fbe565b840191505092915050565b5f6020820190508181035f8301526110fb81846110ab565b905092915050565b5f80fd5b61111081610f64565b811461111a575f80fd5b50565b5f8135905061112b81611107565b92915050565b5f6020828403121561114657611145611103565b5b5f6111538482850161111d565b91505092915050565b5f81519050919050565b5f82825260208201905092915050565b5f819050602082019050919050565b5f606083015f83015161119a5f860182610f6d565b50602083015184820360208601526111b28282610fce565b91505060408301516111c76040860182610f6d565b508091505092915050565b5f6111dd8383611185565b905092915050565b5f602082019050919050565b5f6111fb8261115c565b6112058185611166565b93508360208202850161121785611176565b805f5b85811015611252578484038952815161123385826111d2565b945061123e836111e5565b925060208a0199505060018101905061121a565b50829750879550505050505092915050565b5f6020820190508181035f83015261127c81846111f1565b905092915050565b7f4e6f2073747564656e74000000000000000000000000000000000000000000005f82015250565b5f6112b8600a8361109b565b91506112c382611284565b602082019050919050565b5f6020820190508181035f8301526112e5816112ac565b9050919050565b7f4e487b71000000000000000000000000000000000000000000000000000000005f52603260045260245ffd5b7f4e487b71000000000000000000000000000000000000000000000000000000005f52602260045260245ffd5b5f600282049050600182168061135d57607f821691505b6020821081036113705761136f611319565b5b50919050565b7f4e487b71000000000000000000000000000000000000000000000000000000005f52601160045260245ffd5b5f6113ad82610f64565b91506113b883610f64565b92508282019050808211156113d0576113cf611376565b5b92915050565b7f4e487b71000000000000000000000000000000000000000000000000000000005f52601260045260245ffd5b5f61140d82610f64565b915061141883610f64565b925082611428576114276113d6565b5b828204905092915050565b7f4e487b71000000000000000000000000000000000000000000000000000000005f52604160045260245ffd5b5f819050815f5260205f209050919050565b5f6020601f8301049050919050565b5f82821b905092915050565b5f600883026114bc7fffffffffffffffffffffffffffffffffffffffffffffffffffffffffffffffff82611481565b6114c68683611481565b95508019841693508086168417925050509392505050565b5f819050919050565b5f6115016114fc6114f784610f64565b6114de565b610f64565b9050919050565b5f819050919050565b61151a836114e7565b61152e61152682611508565b84845461148d565b825550505050565b5f90565b611542611536565b61154d818484611511565b505050565b5b81811015611570576115655f8261153a565b600181019050611553565b5050565b601f8211156115b55761158681611460565b61158f84611472565b8101602085101561159e578190505b6115b26115aa85611472565b830182611552565b50505b505050565b5f82821c905092915050565b5f6115d55f19846008026115ba565b1980831691505092915050565b5f6115ed83836115c6565b9150826002028217905092915050565b61160682610f7c565b67ffffffffffffffff81111561161f5761161e611433565b5b6116298254611346565b611634828285611574565b5f60209050601f831160018114611665575f8415611653578287015190505b61165d85826115e2565b8655506116c4565b601f19841661167386611460565b5f5b8281101561169a57848901518255600182019150602085019450602081019050611675565b868310156116b757848901516116b3601f8916826115c6565b8355505b6001600288020188555050505b505050505050565b5f6116d682610f64565b91506116e183610f64565b92508282039050818111156116f9576116f8611376565b5b92915050565b5f8154905061170d81611346565b9050919050565b8181036117225750506117f7565b61172b826116ff565b67ffffffffffffffff81111561174457611743611433565b5b61174e8254611346565b611759828285611574565b5f601f831160018114611786575f8415611774578287015490505b61177e85826115e2565b8655506117f0565b601f19841661179487611460565b965061179f86611460565b5f5b828110156117c6578489015482556001820191506001850194506020810190506117a1565b868310156117e357848901546117df601f8916826115c6565b8355505b6001600288020188555050505b5050505050505b56fea2646970667358221220b524a0dcad0249ca9cfacc5c34898f91f6d9fee640222e6b3f27da30555913a964736f6c63430008160033",
					"opcodes": "PUSH1 0x80 PUSH1 0x40 MSTORE CALLVALUE DUP1 ISZERO PUSH2 0xF JUMPI PUSH0 DUP1 REVERT JUMPDEST POP PUSH2 0x182F DUP1 PUSH2 0x1D PUSH0 CODECOPY PUSH0 RETURN INVALID PUSH1 0x80 PUSH1 0x40 MSTORE CALLVALUE DUP1 ISZERO PUSH2 0xF JUMPI PUSH0 DUP1 REVERT JUMPDEST POP PUSH1 0x4 CALLDATASIZE LT PUSH2 0x91 JUMPI PUSH0 CALLDATALOAD PUSH1 0xE0 SHR DUP1 PUSH4 0x740D5E10 GT PUSH2 0x64 JUMPI DUP1 PUSH4 0x740D5E10 EQ PUSH2 0x10D JUMPI DUP1 PUSH4 0xA41F985E EQ PUSH2 0x12B JUMPI DUP1 PUSH4 0xD7BC51A7 EQ PUSH2 0x15B JUMPI DUP1 PUSH4 0xDAF41EDA EQ PUSH2 0x165 JUMPI DUP1 PUSH4 0xE9E30927 EQ PUSH2 0x16F JUMPI PUSH2 0x91 JUMP JUMPDEST DUP1 PUSH4 0x97D814D EQ PUSH2 0x95 JUMPI DUP1 PUSH4 0x2011CDAE EQ PUSH2 0xB3 JUMPI DUP1 PUSH4 0x2B567FB5 EQ PUSH2 0xD1 JUMPI DUP1 PUSH4 0x5148F68E EQ PUSH2 0xEF JUMPI JUMPDEST PUSH0 DUP1 REVERT JUMPDEST PUSH2 0x9D PUSH2 0x18D JUMP JUMPDEST PUSH1 0x40 MLOAD PUSH2 0xAA SWAP2 SWAP1 PUSH2 0x1053 JUMP JUMPDEST PUSH1 0x40 MLOAD DUP1 SWAP2 SUB SWAP1 RETURN JUMPDEST PUSH2 0xBB PUSH2 0x2B7 JUMP JUMPDEST PUSH1 0x40 MLOAD PUSH2 0xC8 SWAP2 SWAP1 PUSH2 0x1082 JUMP JUMPDEST PUSH1 0x40 MLOAD DUP1 SWAP2 SUB SWAP1 RETURN JUMPDEST PUSH2 0xD9 PUSH2 0x30C JUMP JUMPDEST PUSH1 0x40 MLOAD PUSH2 0xE6 SWAP2 SWAP1 PUSH2 0x10E3 JUMP JUMPDEST PUSH1 0x40 MLOAD DUP1 SWAP2 SUB SWAP1 RETURN JUMPDEST PUSH2 0xF7 PUSH2 0x40C JUMP JUMPDEST PUSH1 0x40 MLOAD PUSH2 0x104 SWAP2 SWAP1 PUSH2 0x1082 JUMP JUMPDEST PUSH1 0x40 MLOAD DUP1 SWAP2 SUB SWAP1 RETURN JUMPDEST PUSH2 0x115 PUSH2 0x417 JUMP JUMPDEST PUSH1 0x40 MLOAD PUSH2 0x122 SWAP2 SWAP1 PUSH2 0x1082 JUMP JUMPDEST PUSH1 0x40 MLOAD DUP1 SWAP2 SUB SWAP1 RETURN JUMPDEST PUSH2 0x145 PUSH1 0x4 DUP1 CALLDATASIZE SUB DUP2 ADD SWAP1 PUSH2 0x140 SWAP2 SWAP1 PUSH2 0x1131 JUMP JUMPDEST PUSH2 0x47C JUMP JUMPDEST PUSH1 0x40 MLOAD PUSH2 0x152 SWAP2 SWAP1 PUSH2 0x1053 JUMP JUMPDEST PUSH1 0x40 MLOAD DUP1 SWAP2 SUB SWAP1 RETURN JUMPDEST PUSH2 0x163 PUSH2 0x5AD JUMP JUMPDEST STOP JUMPDEST PUSH2 0x16D PUSH2 0xC0D JUMP JUMPDEST STOP JUMPDEST PUSH2 0x177 PUSH2 0xE47 JUMP JUMPDEST PUSH1 0x40 MLOAD PUSH2 0x184 SWAP2 SWAP1 PUSH2 0x1264 JUMP JUMPDEST PUSH1 0x40 MLOAD DUP1 SWAP2 SUB SWAP1 RETURN JUMPDEST PUSH2 0x195 PUSH2 0xF45 JUMP JUMPDEST PUSH1 0x1 PUSH0 DUP1 SLOAD SWAP1 POP LT ISZERO PUSH2 0x1DD JUMPI PUSH1 0x40 MLOAD PUSH32 0x8C379A000000000000000000000000000000000000000000000000000000000 DUP2 MSTORE PUSH1 0x4 ADD PUSH2 0x1D4 SWAP1 PUSH2 0x12CE JUMP JUMPDEST PUSH1 0x40 MLOAD DUP1 SWAP2 SUB SWAP1 REVERT JUMPDEST PUSH2 0x1E5 PUSH2 0xC0D JUMP JUMPDEST PUSH0 DUP1 DUP2 SLOAD DUP2 LT PUSH2 0x1F8 JUMPI PUSH2 0x1F7 PUSH2 0x12EC JUMP JUMPDEST JUMPDEST SWAP1 PUSH0 MSTORE PUSH1 0x20 PUSH0 KECCAK256 SWAP1 PUSH1 0x3 MUL ADD PUSH1 0x40 MLOAD DUP1 PUSH1 0x60 ADD PUSH1 0x40 MSTORE SWAP1 DUP2 PUSH0 DUP3 ADD SLOAD DUP2 MSTORE PUSH1 0x20 ADD PUSH1 0x1 DUP3 ADD DUP1 SLOAD PUSH2 0x228 SWAP1 PUSH2 0x1346 JUMP JUMPDEST DUP1 PUSH1 0x1F ADD PUSH1 0x20 DUP1 SWAP2 DIV MUL PUSH1 0x20 ADD PUSH1 0x40 MLOAD SWAP1 DUP2 ADD PUSH1 0x40 MSTORE DUP1 SWAP3 SWAP2 SWAP1 DUP2 DUP2 MSTORE PUSH1 0x20 ADD DUP3 DUP1 SLOAD PUSH2 0x254 SWAP1 PUSH2 0x1346 JUMP JUMPDEST DUP1 ISZERO PUSH2 0x29F JUMPI DUP1 PUSH1 0x1F LT PUSH2 0x276 JUMPI PUSH2 0x100 DUP1 DUP4 SLOAD DIV MUL DUP4 MSTORE SWAP2 PUSH1 0x20 ADD SWAP2 PUSH2 0x29F JUMP JUMPDEST DUP3 ADD SWAP2 SWAP1 PUSH0 MSTORE PUSH1 0x20 PUSH0 KECCAK256 SWAP1 JUMPDEST DUP2 SLOAD DUP2 MSTORE SWAP1 PUSH1 0x1 ADD SWAP1 PUSH1 0x20 ADD DUP1 DUP4 GT PUSH2 0x282 JUMPI DUP3 SWAP1 SUB PUSH1 0x1F AND DUP3 ADD SWAP2 JUMPDEST POP POP POP POP POP DUP2 MSTORE PUSH1 0x20 ADD PUSH1 0x2 DUP3 ADD SLOAD DUP2 MSTORE POP POP SWAP1 POP SWAP1 JUMP JUMPDEST PUSH0 DUP1 PUSH0 JUMPDEST PUSH0 DUP1 SLOAD SWAP1 POP DUP2 LT ISZERO PUSH2 0x304 JUMPI PUSH0 DUP2 DUP2 SLOAD DUP2 LT PUSH2 0x2DA JUMPI PUSH2 0x2D9 PUSH2 0x12EC JUMP JUMPDEST JUMPDEST SWAP1 PUSH0 MSTORE PUSH1 0x20 PUSH0 KECCAK256 SWAP1 PUSH1 0x3 MUL ADD PUSH1 0x2 ADD SLOAD DUP3 PUSH2 0x2F5 SWAP2 SWAP1 PUSH2 0x13A3 JUMP JUMPDEST SWAP2 POP DUP1 DUP1 PUSH1 0x1 ADD SWAP2 POP POP PUSH2 0x2BB JUMP JUMPDEST POP DUP1 SWAP2 POP POP SWAP1 JUMP JUMPDEST PUSH1 0x60 PUSH1 0x1 PUSH0 DUP1 SLOAD SWAP1 POP LT ISZERO PUSH2 0x356 JUMPI PUSH1 0x40 MLOAD PUSH32 0x8C379A000000000000000000000000000000000000000000000000000000000 DUP2 MSTORE PUSH1 0x4 ADD PUSH2 0x34D SWAP1 PUSH2 0x12CE JUMP JUMPDEST PUSH1 0x40 MLOAD DUP1 SWAP2 SUB SWAP1 REVERT JUMPDEST PUSH2 0x35E PUSH2 0xC0D JUMP JUMPDEST PUSH0 DUP1 DUP2 SLOAD DUP2 LT PUSH2 0x371 JUMPI PUSH2 0x370 PUSH2 0x12EC JUMP JUMPDEST JUMPDEST SWAP1 PUSH0 MSTORE PUSH1 0x20 PUSH0 KECCAK256 SWAP1 PUSH1 0x3 MUL ADD PUSH1 0x1 ADD DUP1 SLOAD PUSH2 0x38B SWAP1 PUSH2 0x1346 JUMP JUMPDEST DUP1 PUSH1 0x1F ADD PUSH1 0x20 DUP1 SWAP2 DIV MUL PUSH1 0x20 ADD PUSH1 0x40 MLOAD SWAP1 DUP2 ADD PUSH1 0x40 MSTORE DUP1 SWAP3 SWAP2 SWAP1 DUP2 DUP2 MSTORE PUSH1 0x20 ADD DUP3 DUP1 SLOAD PUSH2 0x3B7 SWAP1 PUSH2 0x1346 JUMP JUMPDEST DUP1 ISZERO PUSH2 0x402 JUMPI DUP1 PUSH1 0x1F LT PUSH2 0x3D9 JUMPI PUSH2 0x100 DUP1 DUP4 SLOAD DIV MUL DUP4 MSTORE SWAP2 PUSH1 0x20 ADD SWAP2 PUSH2 0x402 JUMP JUMPDEST DUP3 ADD SWAP2 SWAP1 PUSH0 MSTORE PUSH1 0x20 PUSH0 KECCAK256 SWAP1 JUMPDEST DUP2 SLOAD DUP2 MSTORE SWAP1 PUSH1 0x1 ADD SWAP1 PUSH1 0x20 ADD DUP1 DUP4 GT PUSH2 0x3E5 JUMPI DUP3 SWAP1 SUB PUSH1 0x1F AND DUP3 ADD SWAP2 JUMPDEST POP POP POP POP POP SWAP1 POP SWAP1 JUMP JUMPDEST PUSH0 DUP1 DUP1 SLOAD SWAP1 POP SWAP1 POP SWAP1 JUMP JUMPDEST PUSH0 PUSH1 0x1 PUSH0 DUP1 SLOAD SWAP1 POP LT ISZERO PUSH2 0x460 JUMPI PUSH1 0x40 MLOAD PUSH32 0x8C379A000000000000000000000000000000000000000000000000000000000 DUP2 MSTORE PUSH1 0x4 ADD PUSH2 0x457 SWAP1 PUSH2 0x12CE JUMP JUMPDEST PUSH1 0x40 MLOAD DUP1 SWAP2 SUB SWAP1 REVERT JUMPDEST PUSH0 DUP1 SLOAD SWAP1 POP PUSH2 0x46D PUSH2 0x2B7 JUMP JUMPDEST PUSH2 0x477 SWAP2 SWAP1 PUSH2 0x1403 JUMP JUMPDEST SWAP1 POP SWAP1 JUMP JUMPDEST PUSH2 0x484 PUSH2 0xF45 JUMP JUMPDEST PUSH2 0x48C PUSH2 0xF45 JUMP JUMPDEST PUSH0 JUMPDEST PUSH0 DUP1 SLOAD SWAP1 POP DUP2 LT ISZERO PUSH2 0x5A3 JUMPI DUP4 PUSH0 DUP3 DUP2 SLOAD DUP2 LT PUSH2 0x4AE JUMPI PUSH2 0x4AD PUSH2 0x12EC JUMP JUMPDEST JUMPDEST SWAP1 PUSH0 MSTORE PUSH1 0x20 PUSH0 KECCAK256 SWAP1 PUSH1 0x3 MUL ADD PUSH0 ADD SLOAD SUB PUSH2 0x596 JUMPI PUSH0 DUP2 DUP2 SLOAD DUP2 LT PUSH2 0x4D5 JUMPI PUSH2 0x4D4 PUSH2 0x12EC JUMP JUMPDEST JUMPDEST SWAP1 PUSH0 MSTORE PUSH1 0x20 PUSH0 KECCAK256 SWAP1 PUSH1 0x3 MUL ADD PUSH1 0x40 MLOAD DUP1 PUSH1 0x60 ADD PUSH1 0x40 MSTORE SWAP1 DUP2 PUSH0 DUP3 ADD SLOAD DUP2 MSTORE PUSH1 0x20 ADD PUSH1 0x1 DUP3 ADD DUP1 SLOAD PUSH2 0x505 SWAP1 PUSH2 0x1346 JUMP JUMPDEST DUP1 PUSH1 0x1F ADD PUSH1 0x20 DUP1 SWAP2 DIV MUL PUSH1 0x20 ADD PUSH1 0x40 MLOAD SWAP1 DUP2 ADD PUSH1 0x40 MSTORE DUP1 SWAP3 SWAP2 SWAP1 DUP2 DUP2 MSTORE PUSH1 0x20 ADD DUP3 DUP1 SLOAD PUSH2 0x531 SWAP1 PUSH2 0x1346 JUMP JUMPDEST DUP1 ISZERO PUSH2 0x57C JUMPI DUP1 PUSH1 0x1F LT PUSH2 0x553 JUMPI PUSH2 0x100 DUP1 DUP4 SLOAD DIV MUL DUP4 MSTORE SWAP2 PUSH1 0x20 ADD SWAP2 PUSH2 0x57C JUMP JUMPDEST DUP3 ADD SWAP2 SWAP1 PUSH0 MSTORE PUSH1 0x20 PUSH0 KECCAK256 SWAP1 JUMPDEST DUP2 SLOAD DUP2 MSTORE SWAP1 PUSH1 0x1 ADD SWAP1 PUSH1 0x20 ADD DUP1 DUP4 GT PUSH2 0x55F JUMPI DUP3 SWAP1 SUB PUSH1 0x1F AND DUP3 ADD SWAP2 JUMPDEST POP POP POP POP POP DUP2 MSTORE PUSH1 0x20 ADD PUSH1 0x2 DUP3 ADD SLOAD DUP2 MSTORE POP POP SWAP2 POP PUSH2 0x5A3 JUMP JUMPDEST DUP1 DUP1 PUSH1 0x1 ADD SWAP2 POP POP PUSH2 0x48E JUMP JUMPDEST POP DUP1 SWAP2 POP POP SWAP2 SWAP1 POP JUMP JUMPDEST PUSH0 PUSH1 0x40 MLOAD DUP1 PUSH1 0x60 ADD PUSH1 0x40 MSTORE DUP1 PUSH1 0x1 DUP2 MSTORE PUSH1 0x20 ADD PUSH1 0x40 MLOAD DUP1 PUSH1 0x40 ADD PUSH1 0x40 MSTORE DUP1 PUSH1 0x5 DUP2 MSTORE PUSH1 0x20 ADD PUSH32 0x416C696365000000000000000000000000000000000000000000000000000000 DUP2 MSTORE POP DUP2 MSTORE PUSH1 0x20 ADD PUSH1 0x55 DUP2 MSTORE POP SWAP1 DUP1 PUSH1 0x1 DUP2 SLOAD ADD DUP1 DUP3 SSTORE DUP1 SWAP2 POP POP PUSH1 0x1 SWAP1 SUB SWAP1 PUSH0 MSTORE PUSH1 0x20 PUSH0 KECCAK256 SWAP1 PUSH1 0x3 MUL ADD PUSH0 SWAP1 SWAP2 SWAP1 SWAP2 SWAP1 SWAP2 POP PUSH0 DUP3 ADD MLOAD DUP2 PUSH0 ADD SSTORE PUSH1 0x20 DUP3 ADD MLOAD DUP2 PUSH1 0x1 ADD SWAP1 DUP2 PUSH2 0x643 SWAP2 SWAP1 PUSH2 0x15FD JUMP JUMPDEST POP PUSH1 0x40 DUP3 ADD MLOAD DUP2 PUSH1 0x2 ADD SSTORE POP POP PUSH0 PUSH1 0x40 MLOAD DUP1 PUSH1 0x60 ADD PUSH1 0x40 MSTORE DUP1 PUSH1 0x2 DUP2 MSTORE PUSH1 0x20 ADD PUSH1 0x40 MLOAD DUP1 PUSH1 0x40 ADD PUSH1 0x40 MSTORE DUP1 PUSH1 0x3 DUP2 MSTORE PUSH1 0x20 ADD PUSH32 0x426F620000000000000000000000000000000000000000000000000000000000 DUP2 MSTORE POP DUP2 MSTORE PUSH1 0x20 ADD PUSH1 0x4B DUP2 MSTORE POP SWAP1 DUP1 PUSH1 0x1 DUP2 SLOAD ADD DUP1 DUP3 SSTORE DUP1 SWAP2 POP POP PUSH1 0x1 SWAP1 SUB SWAP1 PUSH0 MSTORE PUSH1 0x20 PUSH0 KECCAK256 SWAP1 PUSH1 0x3 MUL ADD PUSH0 SWAP1 SWAP2 SWAP1 SWAP2 SWAP1 SWAP2 POP PUSH0 DUP3 ADD MLOAD DUP2 PUSH0 ADD SSTORE PUSH1 0x20 DUP3 ADD MLOAD DUP2 PUSH1 0x1 ADD SWAP1 DUP2 PUSH2 0x6E6 SWAP2 SWAP1 PUSH2 0x15FD JUMP JUMPDEST POP PUSH1 0x40 DUP3 ADD MLOAD DUP2 PUSH1 0x2 ADD SSTORE POP POP PUSH0 PUSH1 0x40 MLOAD DUP1 PUSH1 0x60 ADD PUSH1 0x40 MSTORE DUP1 PUSH1 0x3 DUP2 MSTORE PUSH1 0x20 ADD PUSH1 0x40 MLOAD DUP1 PUSH1 0x40 ADD PUSH1 0x40 MSTORE DUP1 PUSH1 0x7 DUP2 MSTORE PUSH1 0x20 ADD PUSH32 0x436861726C696500000000000000000000000000000000000000000000000000 DUP2 MSTORE POP DUP2 MSTORE PUSH1 0x20 ADD PUSH1 0x3C DUP2 MSTORE POP SWAP1 DUP1 PUSH1 0x1 DUP2 SLOAD ADD DUP1 DUP3 SSTORE DUP1 SWAP2 POP POP PUSH1 0x1 SWAP1 SUB SWAP1 PUSH0 MSTORE PUSH1 0x20 PUSH0 KECCAK256 SWAP1 PUSH1 0x3 MUL ADD PUSH0 SWAP1 SWAP2 SWAP1 SWAP2 SWAP1 SWAP2 POP PUSH0 DUP3 ADD MLOAD DUP2 PUSH0 ADD SSTORE PUSH1 0x20 DUP3 ADD MLOAD DUP2 PUSH1 0x1 ADD SWAP1 DUP2 PUSH2 0x789 SWAP2 SWAP1 PUSH2 0x15FD JUMP JUMPDEST POP PUSH1 0x40 DUP3 ADD MLOAD DUP2 PUSH1 0x2 ADD SSTORE POP POP PUSH0 PUSH1 0x40 MLOAD DUP1 PUSH1 0x60 ADD PUSH1 0x40 MSTORE DUP1 PUSH1 0x4 DUP2 MSTORE PUSH1 0x20 ADD PUSH1 0x40 MLOAD DUP1 PUSH1 0x40 ADD PUSH1 0x40 MSTORE DUP1 PUSH1 0x6 DUP2 MSTORE PUSH1 0x20 ADD PUSH32 0x447761796E650000000000000000000000000000000000000000000000000000 DUP2 MSTORE POP DUP2 MSTORE PUSH1 0x20 ADD PUSH1 0x5A DUP2 MSTORE POP SWAP1 DUP1 PUSH1 0x1 DUP2 SLOAD ADD DUP1 DUP3 SSTORE DUP1 SWAP2 POP POP PUSH1 0x1 SWAP1 SUB SWAP1 PUSH0 MSTORE PUSH1 0x20 PUSH0 KECCAK256 SWAP1 PUSH1 0x3 MUL ADD PUSH0 SWAP1 SWAP2 SWAP1 SWAP2 SWAP1 SWAP2 POP PUSH0 DUP3 ADD MLOAD DUP2 PUSH0 ADD SSTORE PUSH1 0x20 DUP3 ADD MLOAD DUP2 PUSH1 0x1 ADD SWAP1 DUP2 PUSH2 0x82C SWAP2 SWAP1 PUSH2 0x15FD JUMP JUMPDEST POP PUSH1 0x40 DUP3 ADD MLOAD DUP2 PUSH1 0x2 ADD SSTORE POP POP PUSH0 PUSH1 0x40 MLOAD DUP1 PUSH1 0x60 ADD PUSH1 0x40 MSTORE DUP1 PUSH1 0x5 DUP2 MSTORE PUSH1 0x20 ADD PUSH1 0x40 MLOAD DUP1 PUSH1 0x40 ADD PUSH1 0x40 MSTORE DUP1 PUSH1 0x5 DUP2 MSTORE PUSH1 0x20 ADD PUSH32 0x456C6C656E000000000000000000000000000000000000000000000000000000 DUP2 MSTORE POP DUP2 MSTORE PUSH1 0x20 ADD PUSH1 0x41 DUP2 MSTORE POP SWAP1 DUP1 PUSH1 0x1 DUP2 SLOAD ADD DUP1 DUP3 SSTORE DUP1 SWAP2 POP POP PUSH1 0x1 SWAP1 SUB SWAP1 PUSH0 MSTORE PUSH1 0x20 PUSH0 KECCAK256 SWAP1 PUSH1 0x3 MUL ADD PUSH0 SWAP1 SWAP2 SWAP1 SWAP2 SWAP1 SWAP2 POP PUSH0 DUP3 ADD MLOAD DUP2 PUSH0 ADD SSTORE PUSH1 0x20 DUP3 ADD MLOAD DUP2 PUSH1 0x1 ADD SWAP1 DUP2 PUSH2 0x8CF SWAP2 SWAP1 PUSH2 0x15FD JUMP JUMPDEST POP PUSH1 0x40 DUP3 ADD MLOAD DUP2 PUSH1 0x2 ADD SSTORE POP POP PUSH0 PUSH1 0x40 MLOAD DUP1 PUSH1 0x60 ADD PUSH1 0x40 MSTORE DUP1 PUSH1 0x6 DUP2 MSTORE PUSH1 0x20 ADD PUSH1 0x40 MLOAD DUP1 PUSH1 0x40 ADD PUSH1 0x40 MSTORE DUP1 PUSH1 0x4 DUP2 MSTORE PUSH1 0x20 ADD PUSH32 0x4669747A00000000000000000000000000000000000000000000000000000000 DUP2 MSTORE POP DUP2 MSTORE PUSH1 0x20 ADD PUSH1 0x32 DUP2 MSTORE POP SWAP1 DUP1 PUSH1 0x1 DUP2 SLOAD ADD DUP1 DUP3 SSTORE DUP1 SWAP2 POP POP PUSH1 0x1 SWAP1 SUB SWAP1 PUSH0 MSTORE PUSH1 0x20 PUSH0 KECCAK256 SWAP1 PUSH1 0x3 MUL ADD PUSH0 SWAP1 SWAP2 SWAP1 SWAP2 SWAP1 SWAP2 POP PUSH0 DUP3 ADD MLOAD DUP2 PUSH0 ADD SSTORE PUSH1 0x20 DUP3 ADD MLOAD DUP2 PUSH1 0x1 ADD SWAP1 DUP2 PUSH2 0x972 SWAP2 SWAP1 PUSH2 0x15FD JUMP JUMPDEST POP PUSH1 0x40 DUP3 ADD MLOAD DUP2 PUSH1 0x2 ADD SSTORE POP POP PUSH0 PUSH1 0x40 MLOAD DUP1 PUSH1 0x60 ADD PUSH1 0x40 MSTORE DUP1 PUSH1 0x7 DUP2 MSTORE PUSH1 0x20 ADD PUSH1 0x40 MLOAD DUP1 PUSH1 0x40 ADD PUSH1 0x40 MSTORE DUP1 PUSH1 0x6 DUP2 MSTORE PUSH1 0x20 ADD PUSH32 0x4761727265740000000000000000000000000000000000000000000000000000 DUP2 MSTORE POP DUP2 MSTORE PUSH1 0x20 ADD PUSH1 0x50 DUP2 MSTORE POP SWAP1 DUP1 PUSH1 0x1 DUP2 SLOAD ADD DUP1 DUP3 SSTORE DUP1 SWAP2 POP POP PUSH1 0x1 SWAP1 SUB SWAP1 PUSH0 MSTORE PUSH1 0x20 PUSH0 KECCAK256 SWAP1 PUSH1 0x3 MUL ADD PUSH0 SWAP1 SWAP2 SWAP1 SWAP2 SWAP1 SWAP2 POP PUSH0 DUP3 ADD MLOAD DUP2 PUSH0 ADD SSTORE PUSH1 0x20 DUP3 ADD MLOAD DUP2 PUSH1 0x1 ADD SWAP1 DUP2 PUSH2 0xA15 SWAP2 SWAP1 PUSH2 0x15FD JUMP JUMPDEST POP PUSH1 0x40 DUP3 ADD MLOAD DUP2 PUSH1 0x2 ADD SSTORE POP POP PUSH0 PUSH1 0x40 MLOAD DUP1 PUSH1 0x60 ADD PUSH1 0x40 MSTORE DUP1 PUSH1 0x8 DUP2 MSTORE PUSH1 0x20 ADD PUSH1 0x40 MLOAD DUP1 PUSH1 0x40 ADD PUSH1 0x40 MSTORE DUP1 PUSH1 0x6 DUP2 MSTORE PUSH1 0x20 ADD PUSH32 0x4875626572740000000000000000000000000000000000000000000000000000 DUP2 MSTORE POP DUP2 MSTORE PUSH1 0x20 ADD PUSH1 0x5A DUP2 MSTORE POP SWAP1 DUP1 PUSH1 0x1 DUP2 SLOAD ADD DUP1 DUP3 SSTORE DUP1 SWAP2 POP POP PUSH1 0x1 SWAP1 SUB SWAP1 PUSH0 MSTORE PUSH1 0x20 PUSH0 KECCAK256 SWAP1 PUSH1 0x3 MUL ADD PUSH0 SWAP1 SWAP2 SWAP1 SWAP2 SWAP1 SWAP2 POP PUSH0 DUP3 ADD MLOAD DUP2 PUSH0 ADD SSTORE PUSH1 0x20 DUP3 ADD MLOAD DUP2 PUSH1 0x1 ADD SWAP1 DUP2 PUSH2 0xAB8 SWAP2 SWAP1 PUSH2 0x15FD JUMP JUMPDEST POP PUSH1 0x40 DUP3 ADD MLOAD DUP2 PUSH1 0x2 ADD SSTORE POP POP PUSH0 PUSH1 0x40 MLOAD DUP1 PUSH1 0x60 ADD PUSH1 0x40 MSTORE DUP1 PUSH1 0x9 DUP2 MSTORE PUSH1 0x20 ADD PUSH1 0x40 MLOAD DUP1 PUSH1 0x40 ADD PUSH1 0x40 MSTORE DUP1 PUSH1 0x6 DUP2 MSTORE PUSH1 0x20 ADD PUSH32 0x49736162656C0000000000000000000000000000000000000000000000000000 DUP2 MSTORE POP DUP2 MSTORE PUSH1 0x20 ADD PUSH1 0x64 DUP2 MSTORE POP SWAP1 DUP1 PUSH1 0x1 DUP2 SLOAD ADD DUP1 DUP3 SSTORE DUP1 SWAP2 POP POP PUSH1 0x1 SWAP1 SUB SWAP1 PUSH0 MSTORE PUSH1 0x20 PUSH0 KECCAK256 SWAP1 PUSH1 0x3 MUL ADD PUSH0 SWAP1 SWAP2 SWAP1 SWAP2 SWAP1 SWAP2 POP PUSH0 DUP3 ADD MLOAD DUP2 PUSH0 ADD SSTORE PUSH1 0x20 DUP3 ADD MLOAD DUP2 PUSH1 0x1 ADD SWAP1 DUP2 PUSH2 0xB5B SWAP2 SWAP1 PUSH2 0x15FD JUMP JUMPDEST POP PUSH1 0x40 DUP3 ADD MLOAD DUP2 PUSH1 0x2 ADD SSTORE POP POP PUSH0 PUSH1 0x40 MLOAD DUP1 PUSH1 0x60 ADD PUSH1 0x40 MSTORE DUP1 PUSH1 0xA DUP2 MSTORE PUSH1 0x20 ADD PUSH1 0x40 MLOAD DUP1 PUSH1 0x40 ADD PUSH1 0x40 MSTORE DUP1 PUSH1 0x4 DUP2 MSTORE PUSH1 0x20 ADD PUSH32 0x4A616E6500000000000000000000000000000000000000000000000000000000 DUP2 MSTORE POP DUP2 MSTORE PUSH1 0x20 ADD PUSH1 0x46 DUP2 MSTORE POP SWAP1 DUP1 PUSH1 0x1 DUP2 SLOAD ADD DUP1 DUP3 SSTORE DUP1 SWAP2 POP POP PUSH1 0x1 SWAP1 SUB SWAP1 PUSH0 MSTORE PUSH1 0x20 PUSH0 KECCAK256 SWAP1 PUSH1 0x3 MUL ADD PUSH0 SWAP1 SWAP2 SWAP1 SWAP2 SWAP1 SWAP2 POP PUSH0 DUP3 ADD MLOAD DUP2 PUSH0 ADD SSTORE PUSH1 0x20 DUP3 ADD MLOAD DUP2 PUSH1 0x1 ADD SWAP1 DUP2 PUSH2 0xBFE SWAP2 SWAP1 PUSH2 0x15FD JUMP JUMPDEST POP PUSH1 0x40 DUP3 ADD MLOAD DUP2 PUSH1 0x2 ADD SSTORE POP POP JUMP JUMPDEST PUSH2 0xC15 PUSH2 0xF45 JUMP JUMPDEST PUSH0 JUMPDEST PUSH0 DUP1 SLOAD SWAP1 POP DUP2 LT ISZERO PUSH2 0xE43 JUMPI PUSH0 PUSH1 0x1 SWAP1 POP JUMPDEST PUSH0 DUP1 SLOAD SWAP1 POP DUP2 LT ISZERO PUSH2 0xE35 JUMPI PUSH0 DUP2 DUP2 SLOAD DUP2 LT PUSH2 0xC48 JUMPI PUSH2 0xC47 PUSH2 0x12EC JUMP JUMPDEST JUMPDEST SWAP1 PUSH0 MSTORE PUSH1 0x20 PUSH0 KECCAK256 SWAP1 PUSH1 0x3 MUL ADD PUSH1 0x2 ADD SLOAD PUSH0 PUSH1 0x1 DUP4 PUSH2 0xC66 SWAP2 SWAP1 PUSH2 0x16CC JUMP JUMPDEST DUP2 SLOAD DUP2 LT PUSH2 0xC77 JUMPI PUSH2 0xC76 PUSH2 0x12EC JUMP JUMPDEST JUMPDEST SWAP1 PUSH0 MSTORE PUSH1 0x20 PUSH0 KECCAK256 SWAP1 PUSH1 0x3 MUL ADD PUSH1 0x2 ADD SLOAD GT ISZERO PUSH2 0xE28 JUMPI PUSH0 DUP2 DUP2 SLOAD DUP2 LT PUSH2 0xCA0 JUMPI PUSH2 0xC9F PUSH2 0x12EC JUMP JUMPDEST JUMPDEST SWAP1 PUSH0 MSTORE PUSH1 0x20 PUSH0 KECCAK256 SWAP1 PUSH1 0x3 MUL ADD PUSH1 0x40 MLOAD DUP1 PUSH1 0x60 ADD PUSH1 0x40 MSTORE SWAP1 DUP2 PUSH0 DUP3 ADD SLOAD DUP2 MSTORE PUSH1 0x20 ADD PUSH1 0x1 DUP3 ADD DUP1 SLOAD PUSH2 0xCD0 SWAP1 PUSH2 0x1346 JUMP JUMPDEST DUP1 PUSH1 0x1F ADD PUSH1 0x20 DUP1 SWAP2 DIV MUL PUSH1 0x20 ADD PUSH1 0x40 MLOAD SWAP1 DUP2 ADD PUSH1 0x40 MSTORE DUP1 SWAP3 SWAP2 SWAP1 DUP2 DUP2 MSTORE PUSH1 0x20 ADD DUP3 DUP1 SLOAD PUSH2 0xCFC SWAP1 PUSH2 0x1346 JUMP JUMPDEST DUP1 ISZERO PUSH2 0xD47 JUMPI DUP1 PUSH1 0x1F LT PUSH2 0xD1E JUMPI PUSH2 0x100 DUP1 DUP4 SLOAD DIV MUL DUP4 MSTORE SWAP2 PUSH1 0x20 ADD SWAP2 PUSH2 0xD47 JUMP JUMPDEST DUP3 ADD SWAP2 SWAP1 PUSH0 MSTORE PUSH1 0x20 PUSH0 KECCAK256 SWAP1 JUMPDEST DUP2 SLOAD DUP2 MSTORE SWAP1 PUSH1 0x1 ADD SWAP1 PUSH1 0x20 ADD DUP1 DUP4 GT PUSH2 0xD2A JUMPI DUP3 SWAP1 SUB PUSH1 0x1F AND DUP3 ADD SWAP2 JUMPDEST POP POP POP POP POP DUP2 MSTORE PUSH1 0x20 ADD PUSH1 0x2 DUP3 ADD SLOAD DUP2 MSTORE POP POP SWAP3 POP PUSH0 PUSH1 0x1 DUP3 PUSH2 0xD6A SWAP2 SWAP1 PUSH2 0x16CC JUMP JUMPDEST DUP2 SLOAD DUP2 LT PUSH2 0xD7B JUMPI PUSH2 0xD7A PUSH2 0x12EC JUMP JUMPDEST JUMPDEST SWAP1 PUSH0 MSTORE PUSH1 0x20 PUSH0 KECCAK256 SWAP1 PUSH1 0x3 MUL ADD PUSH0 DUP3 DUP2 SLOAD DUP2 LT PUSH2 0xD9A JUMPI PUSH2 0xD99 PUSH2 0x12EC JUMP JUMPDEST JUMPDEST SWAP1 PUSH0 MSTORE PUSH1 0x20 PUSH0 KECCAK256 SWAP1 PUSH1 0x3 MUL ADD PUSH0 DUP3 ADD SLOAD DUP2 PUSH0 ADD SSTORE PUSH1 0x1 DUP3 ADD DUP2 PUSH1 0x1 ADD SWAP1 DUP2 PUSH2 0xDC2 SWAP2 SWAP1 PUSH2 0x1714 JUMP JUMPDEST POP PUSH1 0x2 DUP3 ADD SLOAD DUP2 PUSH1 0x2 ADD SSTORE SWAP1 POP POP DUP3 PUSH0 PUSH1 0x1 DUP4 PUSH2 0xDDF SWAP2 SWAP1 PUSH2 0x16CC JUMP JUMPDEST DUP2 SLOAD DUP2 LT PUSH2 0xDF0 JUMPI PUSH2 0xDEF PUSH2 0x12EC JUMP JUMPDEST JUMPDEST SWAP1 PUSH0 MSTORE PUSH1 0x20 PUSH0 KECCAK256 SWAP1 PUSH1 0x3 MUL ADD PUSH0 DUP3 ADD MLOAD DUP2 PUSH0 ADD SSTORE PUSH1 0x20 DUP3 ADD MLOAD DUP2 PUSH1 0x1 ADD SWAP1 DUP2 PUSH2 0xE19 SWAP2 SWAP1 PUSH2 0x15FD JUMP JUMPDEST POP PUSH1 0x40 DUP3 ADD MLOAD DUP2 PUSH1 0x2 ADD SSTORE SWAP1 POP POP JUMPDEST DUP1 DUP1 PUSH1 0x1 ADD SWAP2 POP POP PUSH2 0xC29 JUMP JUMPDEST POP DUP1 DUP1 PUSH1 0x1 ADD SWAP2 POP POP PUSH2 0xC17 JUMP JUMPDEST POP POP JUMP JUMPDEST PUSH1 0x60 PUSH0 DUP1 SLOAD DUP1 PUSH1 0x20 MUL PUSH1 0x20 ADD PUSH1 0x40 MLOAD SWAP1 DUP2 ADD PUSH1 0x40 MSTORE DUP1 SWAP3 SWAP2 SWAP1 DUP2 DUP2 MSTORE PUSH1 0x20 ADD PUSH0 SWAP1 JUMPDEST DUP3 DUP3 LT ISZERO PUSH2 0xF3C JUMPI DUP4 DUP3 SWAP1 PUSH0 MSTORE PUSH1 0x20 PUSH0 KECCAK256 SWAP1 PUSH1 0x3 MUL ADD PUSH1 0x40 MLOAD DUP1 PUSH1 0x60 ADD PUSH1 0x40 MSTORE SWAP1 DUP2 PUSH0 DUP3 ADD SLOAD DUP2 MSTORE PUSH1 0x20 ADD PUSH1 0x1 DUP3 ADD DUP1 SLOAD PUSH2 0xEA3 SWAP1 PUSH2 0x1346 JUMP JUMPDEST DUP1 PUSH1 0x1F ADD PUSH1 0x20 DUP1 SWAP2 DIV MUL PUSH1 0x20 ADD PUSH1 0x40 MLOAD SWAP1 DUP2 ADD PUSH1 0x40 MSTORE DUP1 SWAP3 SWAP2 SWAP1 DUP2 DUP2 MSTORE PUSH1 0x20 ADD DUP3 DUP1 SLOAD PUSH2 0xECF SWAP1 PUSH2 0x1346 JUMP JUMPDEST DUP1 ISZERO PUSH2 0xF1A JUMPI DUP1 PUSH1 0x1F LT PUSH2 0xEF1 JUMPI PUSH2 0x100 DUP1 DUP4 SLOAD DIV MUL DUP4 MSTORE SWAP2 PUSH1 0x20 ADD SWAP2 PUSH2 0xF1A JUMP JUMPDEST DUP3 ADD SWAP2 SWAP1 PUSH0 MSTORE PUSH1 0x20 PUSH0 KECCAK256 SWAP1 JUMPDEST DUP2 SLOAD DUP2 MSTORE SWAP1 PUSH1 0x1 ADD SWAP1 PUSH1 0x20 ADD DUP1 DUP4 GT PUSH2 0xEFD JUMPI DUP3 SWAP1 SUB PUSH1 0x1F AND DUP3 ADD SWAP2 JUMPDEST POP POP POP POP POP DUP2 MSTORE PUSH1 0x20 ADD PUSH1 0x2 DUP3 ADD SLOAD DUP2 MSTORE POP POP DUP2 MSTORE PUSH1 0x20 ADD SWAP1 PUSH1 0x1 ADD SWAP1 PUSH2 0xE69 JUMP JUMPDEST POP POP POP POP SWAP1 POP SWAP1 JUMP JUMPDEST PUSH1 0x40 MLOAD DUP1 PUSH1 0x60 ADD PUSH1 0x40 MSTORE DUP1 PUSH0 DUP2 MSTORE PUSH1 0x20 ADD PUSH1 0x60 DUP2 MSTORE PUSH1 0x20 ADD PUSH0 DUP2 MSTORE POP SWAP1 JUMP JUMPDEST PUSH0 DUP2 SWAP1 POP SWAP2 SWAP1 POP JUMP JUMPDEST PUSH2 0xF76 DUP2 PUSH2 0xF64 JUMP JUMPDEST DUP3 MSTORE POP POP JUMP JUMPDEST PUSH0 DUP2 MLOAD SWAP1 POP SWAP2 SWAP1 POP JUMP JUMPDEST PUSH0 DUP3 DUP3 MSTORE PUSH1 0x20 DUP3 ADD SWAP1 POP SWAP3 SWAP2 POP POP JUMP JUMPDEST PUSH0 JUMPDEST DUP4 DUP2 LT ISZERO PUSH2 0xFB3 JUMPI DUP1 DUP3 ADD MLOAD DUP2 DUP5 ADD MSTORE PUSH1 0x20 DUP2 ADD SWAP1 POP PUSH2 0xF98 JUMP JUMPDEST PUSH0 DUP5 DUP5 ADD MSTORE POP POP POP POP JUMP JUMPDEST PUSH0 PUSH1 0x1F NOT PUSH1 0x1F DUP4 ADD AND SWAP1 POP SWAP2 SWAP1 POP JUMP JUMPDEST PUSH0 PUSH2 0xFD8 DUP3 PUSH2 0xF7C JUMP JUMPDEST PUSH2 0xFE2 DUP2 DUP6 PUSH2 0xF86 JUMP JUMPDEST SWAP4 POP PUSH2 0xFF2 DUP2 DUP6 PUSH1 0x20 DUP7 ADD PUSH2 0xF96 JUMP JUMPDEST PUSH2 0xFFB DUP2 PUSH2 0xFBE JUMP JUMPDEST DUP5 ADD SWAP2 POP POP SWAP3 SWAP2 POP POP JUMP JUMPDEST PUSH0 PUSH1 0x60 DUP4 ADD PUSH0 DUP4 ADD MLOAD PUSH2 0x101B PUSH0 DUP7 ADD DUP3 PUSH2 0xF6D JUMP JUMPDEST POP PUSH1 0x20 DUP4 ADD MLOAD DUP5 DUP3 SUB PUSH1 0x20 DUP7 ADD MSTORE PUSH2 0x1033 DUP3 DUP3 PUSH2 0xFCE JUMP JUMPDEST SWAP2 POP POP PUSH1 0x40 DUP4 ADD MLOAD PUSH2 0x1048 PUSH1 0x40 DUP7 ADD DUP3 PUSH2 0xF6D JUMP JUMPDEST POP DUP1 SWAP2 POP POP SWAP3 SWAP2 POP POP JUMP JUMPDEST PUSH0 PUSH1 0x20 DUP3 ADD SWAP1 POP DUP2 DUP2 SUB PUSH0 DUP4 ADD MSTORE PUSH2 0x106B DUP2 DUP5 PUSH2 0x1006 JUMP JUMPDEST SWAP1 POP SWAP3 SWAP2 POP POP JUMP JUMPDEST PUSH2 0x107C DUP2 PUSH2 0xF64 JUMP JUMPDEST DUP3 MSTORE POP POP JUMP JUMPDEST PUSH0 PUSH1 0x20 DUP3 ADD SWAP1 POP PUSH2 0x1095 PUSH0 DUP4 ADD DUP5 PUSH2 0x1073 JUMP JUMPDEST SWAP3 SWAP2 POP POP JUMP JUMPDEST PUSH0 DUP3 DUP3 MSTORE PUSH1 0x20 DUP3 ADD SWAP1 POP SWAP3 SWAP2 POP POP JUMP JUMPDEST PUSH0 PUSH2 0x10B5 DUP3 PUSH2 0xF7C JUMP JUMPDEST PUSH2 0x10BF DUP2 DUP6 PUSH2 0x109B JUMP JUMPDEST SWAP4 POP PUSH2 0x10CF DUP2 DUP6 PUSH1 0x20 DUP7 ADD PUSH2 0xF96 JUMP JUMPDEST PUSH2 0x10D8 DUP2 PUSH2 0xFBE JUMP JUMPDEST DUP5 ADD SWAP2 POP POP SWAP3 SWAP2 POP POP JUMP JUMPDEST PUSH0 PUSH1 0x20 DUP3 ADD SWAP1 POP DUP2 DUP2 SUB PUSH0 DUP4 ADD MSTORE PUSH2 0x10FB DUP2 DUP5 PUSH2 0x10AB JUMP JUMPDEST SWAP1 POP SWAP3 SWAP2 POP POP JUMP JUMPDEST PUSH0 DUP1 REVERT JUMPDEST PUSH2 0x1110 DUP2 PUSH2 0xF64 JUMP JUMPDEST DUP2 EQ PUSH2 0x111A JUMPI PUSH0 DUP1 REVERT JUMPDEST POP JUMP JUMPDEST PUSH0 DUP2 CALLDATALOAD SWAP1 POP PUSH2 0x112B DUP2 PUSH2 0x1107 JUMP JUMPDEST SWAP3 SWAP2 POP POP JUMP JUMPDEST PUSH0 PUSH1 0x20 DUP3 DUP5 SUB SLT ISZERO PUSH2 0x1146 JUMPI PUSH2 0x1145 PUSH2 0x1103 JUMP JUMPDEST JUMPDEST PUSH0 PUSH2 0x1153 DUP5 DUP3 DUP6 ADD PUSH2 0x111D JUMP JUMPDEST SWAP2 POP POP SWAP3 SWAP2 POP POP JUMP JUMPDEST PUSH0 DUP2 MLOAD SWAP1 POP SWAP2 SWAP1 POP JUMP JUMPDEST PUSH0 DUP3 DUP3 MSTORE PUSH1 0x20 DUP3 ADD SWAP1 POP SWAP3 SWAP2 POP POP JUMP JUMPDEST PUSH0 DUP2 SWAP1 POP PUSH1 0x20 DUP3 ADD SWAP1 POP SWAP2 SWAP1 POP JUMP JUMPDEST PUSH0 PUSH1 0x60 DUP4 ADD PUSH0 DUP4 ADD MLOAD PUSH2 0x119A PUSH0 DUP7 ADD DUP3 PUSH2 0xF6D JUMP JUMPDEST POP PUSH1 0x20 DUP4 ADD MLOAD DUP5 DUP3 SUB PUSH1 0x20 DUP7 ADD MSTORE PUSH2 0x11B2 DUP3 DUP3 PUSH2 0xFCE JUMP JUMPDEST SWAP2 POP POP PUSH1 0x40 DUP4 ADD MLOAD PUSH2 0x11C7 PUSH1 0x40 DUP7 ADD DUP3 PUSH2 0xF6D JUMP JUMPDEST POP DUP1 SWAP2 POP POP SWAP3 SWAP2 POP POP JUMP JUMPDEST PUSH0 PUSH2 0x11DD DUP4 DUP4 PUSH2 0x1185 JUMP JUMPDEST SWAP1 POP SWAP3 SWAP2 POP POP JUMP JUMPDEST PUSH0 PUSH1 0x20 DUP3 ADD SWAP1 POP SWAP2 SWAP1 POP JUMP JUMPDEST PUSH0 PUSH2 0x11FB DUP3 PUSH2 0x115C JUMP JUMPDEST PUSH2 0x1205 DUP2 DUP6 PUSH2 0x1166 JUMP JUMPDEST SWAP4 POP DUP4 PUSH1 0x20 DUP3 MUL DUP6 ADD PUSH2 0x1217 DUP6 PUSH2 0x1176 JUMP JUMPDEST DUP1 PUSH0 JUMPDEST DUP6 DUP2 LT ISZERO PUSH2 0x1252 JUMPI DUP5 DUP5 SUB DUP10 MSTORE DUP2 MLOAD PUSH2 0x1233 DUP6 DUP3 PUSH2 0x11D2 JUMP JUMPDEST SWAP5 POP PUSH2 0x123E DUP4 PUSH2 0x11E5 JUMP JUMPDEST SWAP3 POP PUSH1 0x20 DUP11 ADD SWAP10 POP POP PUSH1 0x1 DUP2 ADD SWAP1 POP PUSH2 0x121A JUMP JUMPDEST POP DUP3 SWAP8 POP DUP8 SWAP6 POP POP POP POP POP POP SWAP3 SWAP2 POP POP JUMP JUMPDEST PUSH0 PUSH1 0x20 DUP3 ADD SWAP1 POP DUP2 DUP2 SUB PUSH0 DUP4 ADD MSTORE PUSH2 0x127C DUP2 DUP5 PUSH2 0x11F1 JUMP JUMPDEST SWAP1 POP SWAP3 SWAP2 POP POP JUMP JUMPDEST PUSH32 0x4E6F2073747564656E7400000000000000000000000000000000000000000000 PUSH0 DUP3 ADD MSTORE POP JUMP JUMPDEST PUSH0 PUSH2 0x12B8 PUSH1 0xA DUP4 PUSH2 0x109B JUMP JUMPDEST SWAP2 POP PUSH2 0x12C3 DUP3 PUSH2 0x1284 JUMP JUMPDEST PUSH1 0x20 DUP3 ADD SWAP1 POP SWAP2 SWAP1 POP JUMP JUMPDEST PUSH0 PUSH1 0x20 DUP3 ADD SWAP1 POP DUP2 DUP2 SUB PUSH0 DUP4 ADD MSTORE PUSH2 0x12E5 DUP2 PUSH2 0x12AC JUMP JUMPDEST SWAP1 POP SWAP2 SWAP1 POP JUMP JUMPDEST PUSH32 0x4E487B7100000000000000000000000000000000000000000000000000000000 PUSH0 MSTORE PUSH1 0x32 PUSH1 0x4 MSTORE PUSH1 0x24 PUSH0 REVERT JUMPDEST PUSH32 0x4E487B7100000000000000000000000000000000000000000000000000000000 PUSH0 MSTORE PUSH1 0x22 PUSH1 0x4 MSTORE PUSH1 0x24 PUSH0 REVERT JUMPDEST PUSH0 PUSH1 0x2 DUP3 DIV SWAP1 POP PUSH1 0x1 DUP3 AND DUP1 PUSH2 0x135D JUMPI PUSH1 0x7F DUP3 AND SWAP2 POP JUMPDEST PUSH1 0x20 DUP3 LT DUP2 SUB PUSH2 0x1370 JUMPI PUSH2 0x136F PUSH2 0x1319 JUMP JUMPDEST JUMPDEST POP SWAP2 SWAP1 POP JUMP JUMPDEST PUSH32 0x4E487B7100000000000000000000000000000000000000000000000000000000 PUSH0 MSTORE PUSH1 0x11 PUSH1 0x4 MSTORE PUSH1 0x24 PUSH0 REVERT JUMPDEST PUSH0 PUSH2 0x13AD DUP3 PUSH2 0xF64 JUMP JUMPDEST SWAP2 POP PUSH2 0x13B8 DUP4 PUSH2 0xF64 JUMP JUMPDEST SWAP3 POP DUP3 DUP3 ADD SWAP1 POP DUP1 DUP3 GT ISZERO PUSH2 0x13D0 JUMPI PUSH2 0x13CF PUSH2 0x1376 JUMP JUMPDEST JUMPDEST SWAP3 SWAP2 POP POP JUMP JUMPDEST PUSH32 0x4E487B7100000000000000000000000000000000000000000000000000000000 PUSH0 MSTORE PUSH1 0x12 PUSH1 0x4 MSTORE PUSH1 0x24 PUSH0 REVERT JUMPDEST PUSH0 PUSH2 0x140D DUP3 PUSH2 0xF64 JUMP JUMPDEST SWAP2 POP PUSH2 0x1418 DUP4 PUSH2 0xF64 JUMP JUMPDEST SWAP3 POP DUP3 PUSH2 0x1428 JUMPI PUSH2 0x1427 PUSH2 0x13D6 JUMP JUMPDEST JUMPDEST DUP3 DUP3 DIV SWAP1 POP SWAP3 SWAP2 POP POP JUMP JUMPDEST PUSH32 0x4E487B7100000000000000000000000000000000000000000000000000000000 PUSH0 MSTORE PUSH1 0x41 PUSH1 0x4 MSTORE PUSH1 0x24 PUSH0 REVERT JUMPDEST PUSH0 DUP2 SWAP1 POP DUP2 PUSH0 MSTORE PUSH1 0x20 PUSH0 KECCAK256 SWAP1 POP SWAP2 SWAP1 POP JUMP JUMPDEST PUSH0 PUSH1 0x20 PUSH1 0x1F DUP4 ADD DIV SWAP1 POP SWAP2 SWAP1 POP JUMP JUMPDEST PUSH0 DUP3 DUP3 SHL SWAP1 POP SWAP3 SWAP2 POP POP JUMP JUMPDEST PUSH0 PUSH1 0x8 DUP4 MUL PUSH2 0x14BC PUSH32 0xFFFFFFFFFFFFFFFFFFFFFFFFFFFFFFFFFFFFFFFFFFFFFFFFFFFFFFFFFFFFFFFF DUP3 PUSH2 0x1481 JUMP JUMPDEST PUSH2 0x14C6 DUP7 DUP4 PUSH2 0x1481 JUMP JUMPDEST SWAP6 POP DUP1 NOT DUP5 AND SWAP4 POP DUP1 DUP7 AND DUP5 OR SWAP3 POP POP POP SWAP4 SWAP3 POP POP POP JUMP JUMPDEST PUSH0 DUP2 SWAP1 POP SWAP2 SWAP1 POP JUMP JUMPDEST PUSH0 PUSH2 0x1501 PUSH2 0x14FC PUSH2 0x14F7 DUP5 PUSH2 0xF64 JUMP JUMPDEST PUSH2 0x14DE JUMP JUMPDEST PUSH2 0xF64 JUMP JUMPDEST SWAP1 POP SWAP2 SWAP1 POP JUMP JUMPDEST PUSH0 DUP2 SWAP1 POP SWAP2 SWAP1 POP JUMP JUMPDEST PUSH2 0x151A DUP4 PUSH2 0x14E7 JUMP JUMPDEST PUSH2 0x152E PUSH2 0x1526 DUP3 PUSH2 0x1508 JUMP JUMPDEST DUP5 DUP5 SLOAD PUSH2 0x148D JUMP JUMPDEST DUP3 SSTORE POP POP POP POP JUMP JUMPDEST PUSH0 SWAP1 JUMP JUMPDEST PUSH2 0x1542 PUSH2 0x1536 JUMP JUMPDEST PUSH2 0x154D DUP2 DUP5 DUP5 PUSH2 0x1511 JUMP JUMPDEST POP POP POP JUMP JUMPDEST JUMPDEST DUP2 DUP2 LT ISZERO PUSH2 0x1570 JUMPI PUSH2 0x1565 PUSH0 DUP3 PUSH2 0x153A JUMP JUMPDEST PUSH1 0x1 DUP2 ADD SWAP1 POP PUSH2 0x1553 JUMP JUMPDEST POP POP JUMP JUMPDEST PUSH1 0x1F DUP3 GT ISZERO PUSH2 0x15B5 JUMPI PUSH2 0x1586 DUP2 PUSH2 0x1460 JUMP JUMPDEST PUSH2 0x158F DUP5 PUSH2 0x1472 JUMP JUMPDEST DUP2 ADD PUSH1 0x20 DUP6 LT ISZERO PUSH2 0x159E JUMPI DUP2 SWAP1 POP JUMPDEST PUSH2 0x15B2 PUSH2 0x15AA DUP6 PUSH2 0x1472 JUMP JUMPDEST DUP4 ADD DUP3 PUSH2 0x1552 JUMP JUMPDEST POP POP JUMPDEST POP POP POP JUMP JUMPDEST PUSH0 DUP3 DUP3 SHR SWAP1 POP SWAP3 SWAP2 POP POP JUMP JUMPDEST PUSH0 PUSH2 0x15D5 PUSH0 NOT DUP5 PUSH1 0x8 MUL PUSH2 0x15BA JUMP JUMPDEST NOT DUP1 DUP4 AND SWAP2 POP POP SWAP3 SWAP2 POP POP JUMP JUMPDEST PUSH0 PUSH2 0x15ED DUP4 DUP4 PUSH2 0x15C6 JUMP JUMPDEST SWAP2 POP DUP3 PUSH1 0x2 MUL DUP3 OR SWAP1 POP SWAP3 SWAP2 POP POP JUMP JUMPDEST PUSH2 0x1606 DUP3 PUSH2 0xF7C JUMP JUMPDEST PUSH8 0xFFFFFFFFFFFFFFFF DUP2 GT ISZERO PUSH2 0x161F JUMPI PUSH2 0x161E PUSH2 0x1433 JUMP JUMPDEST JUMPDEST PUSH2 0x1629 DUP3 SLOAD PUSH2 0x1346 JUMP JUMPDEST PUSH2 0x1634 DUP3 DUP3 DUP6 PUSH2 0x1574 JUMP JUMPDEST PUSH0 PUSH1 0x20 SWAP1 POP PUSH1 0x1F DUP4 GT PUSH1 0x1 DUP2 EQ PUSH2 0x1665 JUMPI PUSH0 DUP5 ISZERO PUSH2 0x1653 JUMPI DUP3 DUP8 ADD MLOAD SWAP1 POP JUMPDEST PUSH2 0x165D DUP6 DUP3 PUSH2 0x15E2 JUMP JUMPDEST DUP7 SSTORE POP PUSH2 0x16C4 JUMP JUMPDEST PUSH1 0x1F NOT DUP5 AND PUSH2 0x1673 DUP7 PUSH2 0x1460 JUMP JUMPDEST PUSH0 JUMPDEST DUP3 DUP2 LT ISZERO PUSH2 0x169A JUMPI DUP5 DUP10 ADD MLOAD DUP3 SSTORE PUSH1 0x1 DUP3 ADD SWAP2 POP PUSH1 0x20 DUP6 ADD SWAP5 POP PUSH1 0x20 DUP2 ADD SWAP1 POP PUSH2 0x1675 JUMP JUMPDEST DUP7 DUP4 LT ISZERO PUSH2 0x16B7 JUMPI DUP5 DUP10 ADD MLOAD PUSH2 0x16B3 PUSH1 0x1F DUP10 AND DUP3 PUSH2 0x15C6 JUMP JUMPDEST DUP4 SSTORE POP JUMPDEST PUSH1 0x1 PUSH1 0x2 DUP9 MUL ADD DUP9 SSTORE POP POP POP JUMPDEST POP POP POP POP POP POP JUMP JUMPDEST PUSH0 PUSH2 0x16D6 DUP3 PUSH2 0xF64 JUMP JUMPDEST SWAP2 POP PUSH2 0x16E1 DUP4 PUSH2 0xF64 JUMP JUMPDEST SWAP3 POP DUP3 DUP3 SUB SWAP1 POP DUP2 DUP2 GT ISZERO PUSH2 0x16F9 JUMPI PUSH2 0x16F8 PUSH2 0x1376 JUMP JUMPDEST JUMPDEST SWAP3 SWAP2 POP POP JUMP JUMPDEST PUSH0 DUP2 SLOAD SWAP1 POP PUSH2 0x170D DUP2 PUSH2 0x1346 JUMP JUMPDEST SWAP1 POP SWAP2 SWAP1 POP JUMP JUMPDEST DUP2 DUP2 SUB PUSH2 0x1722 JUMPI POP POP PUSH2 0x17F7 JUMP JUMPDEST PUSH2 0x172B DUP3 PUSH2 0x16FF JUMP JUMPDEST PUSH8 0xFFFFFFFFFFFFFFFF DUP2 GT ISZERO PUSH2 0x1744 JUMPI PUSH2 0x1743 PUSH2 0x1433 JUMP JUMPDEST JUMPDEST PUSH2 0x174E DUP3 SLOAD PUSH2 0x1346 JUMP JUMPDEST PUSH2 0x1759 DUP3 DUP3 DUP6 PUSH2 0x1574 JUMP JUMPDEST PUSH0 PUSH1 0x1F DUP4 GT PUSH1 0x1 DUP2 EQ PUSH2 0x1786 JUMPI PUSH0 DUP5 ISZERO PUSH2 0x1774 JUMPI DUP3 DUP8 ADD SLOAD SWAP1 POP JUMPDEST PUSH2 0x177E DUP6 DUP3 PUSH2 0x15E2 JUMP JUMPDEST DUP7 SSTORE POP PUSH2 0x17F0 JUMP JUMPDEST PUSH1 0x1F NOT DUP5 AND PUSH2 0x1794 DUP8 PUSH2 0x1460 JUMP JUMPDEST SWAP7 POP PUSH2 0x179F DUP7 PUSH2 0x1460 JUMP JUMPDEST PUSH0 JUMPDEST DUP3 DUP2 LT ISZERO PUSH2 0x17C6 JUMPI DUP5 DUP10 ADD SLOAD DUP3 SSTORE PUSH1 0x1 DUP3 ADD SWAP2 POP PUSH1 0x1 DUP6 ADD SWAP5 POP PUSH1 0x20 DUP2 ADD SWAP1 POP PUSH2 0x17A1 JUMP JUMPDEST DUP7 DUP4 LT ISZERO PUSH2 0x17E3 JUMPI DUP5 DUP10 ADD SLOAD PUSH2 0x17DF PUSH1 0x1F DUP10 AND DUP3 PUSH2 0x15C6 JUMP JUMPDEST DUP4 SSTORE POP JUMPDEST PUSH1 0x1 PUSH1 0x2 DUP9 MUL ADD DUP9 SSTORE POP POP POP JUMPDEST POP POP POP POP POP POP JUMPDEST JUMP INVALID LOG2 PUSH5 0x6970667358 0x22 SLT KECCAK256 0xB5 0x24 LOG0 0xDC 0xAD MUL 0x49 0xCA SWAP13 STATICCALL 0xCC 0x5C CALLVALUE DUP10 DUP16 SWAP2 0xF6 0xD9 INVALID 0xE6 BLOCKHASH 0x22 0x2E PUSH12 0x3F27DA30555913A964736F6C PUSH4 0x43000816 STOP CALLER "
				},
				"gasEstimates": {
					"creation": {
						"codeDepositCost": "1238200",
						"executionCost": "1286",
						"totalCost": "1239486"
					},
					"external": {
						"getAllStudents()": "infinite",
						"getAvgScore()": "infinite",
						"getLowestScore()": "infinite",
						"getNameOfLowestScore()": "infinite",
						"getNumOfStudendts()": "2507",
						"getStudentByNumber(uint256)": "infinite",
						"getTotalScore()": "infinite",
						"initStudentsList()": "infinite",
						"sortStudentByScore()": "infinite"
					}
				},
				"methodIdentifiers": {
					"getAllStudents()": "e9e30927",
					"getAvgScore()": "740d5e10",
					"getLowestScore()": "097d814d",
					"getNameOfLowestScore()": "2b567fb5",
					"getNumOfStudendts()": "5148f68e",
					"getStudentByNumber(uint256)": "a41f985e",
					"getTotalScore()": "2011cdae",
					"initStudentsList()": "d7bc51a7",
					"sortStudentByScore()": "daf41eda"
				}
			},
			"storageLayout": {
				"storage": [
					{
						"astId": 12,
						"contract": "Exam_20231226.sol:ClassManager",
						"label": "students",
						"offset": 0,
						"slot": "0",
						"type": "t_array(t_struct(StudentInfo)8_storage)dyn_storage"
					}
				],
				"types": {
					"t_array(t_struct(StudentInfo)8_storage)dyn_storage": {
						"base": "t_struct(StudentInfo)8_storage",
						"encoding": "dynamic_array",
						"label": "struct ClassManager.StudentInfo[]",
						"numberOfBytes": "32"
					},
					"t_string_storage": {
						"encoding": "bytes",
						"label": "string",
						"numberOfBytes": "32"
					},
					"t_struct(StudentInfo)8_storage": {
						"encoding": "inplace",
						"label": "struct ClassManager.StudentInfo",
						"members": [
							{
								"astId": 3,
								"contract": "Exam_20231226.sol:ClassManager",
								"label": "number",
								"offset": 0,
								"slot": "0",
								"type": "t_uint256"
							},
							{
								"astId": 5,
								"contract": "Exam_20231226.sol:ClassManager",
								"label": "name",
								"offset": 0,
								"slot": "1",
								"type": "t_string_storage"
							},
							{
								"astId": 7,
								"contract": "Exam_20231226.sol:ClassManager",
								"label": "score",
								"offset": 0,
								"slot": "2",
								"type": "t_uint256"
							}
						],
						"numberOfBytes": "96"
					},
					"t_uint256": {
						"encoding": "inplace",
						"label": "uint256",
						"numberOfBytes": "32"
					}
				}
			},
			"userdoc": {
				"kind": "user",
				"methods": {},
				"version": 1
			}
		}
	}
}