{
	"Exam_20231228.sol": {
		"Humby": {
			"abi": [
				{
					"inputs": [],
					"stateMutability": "nonpayable",
					"type": "constructor"
				},
				{
					"inputs": [],
					"name": "Accelerator",
					"outputs": [],
					"stateMutability": "nonpayable",
					"type": "function"
				},
				{
					"inputs": [],
					"name": "Break",
					"outputs": [],
					"stateMutability": "nonpayable",
					"type": "function"
				},
				{
					"inputs": [],
					"name": "Refuel",
					"outputs": [],
					"stateMutability": "payable",
					"type": "function"
				},
				{
					"inputs": [],
					"name": "TurnOff",
					"outputs": [],
					"stateMutability": "nonpayable",
					"type": "function"
				},
				{
					"inputs": [],
					"name": "TurnOn",
					"outputs": [],
					"stateMutability": "nonpayable",
					"type": "function"
				},
				{
					"inputs": [],
					"name": "deposit",
					"outputs": [],
					"stateMutability": "payable",
					"type": "function"
				},
				{
					"inputs": [],
					"name": "getCarState",
					"outputs": [
						{
							"internalType": "enum Humby.Status",
							"name": "",
							"type": "uint8"
						},
						{
							"internalType": "uint256",
							"name": "",
							"type": "uint256"
						},
						{
							"internalType": "uint256",
							"name": "",
							"type": "uint256"
						}
					],
					"stateMutability": "view",
					"type": "function"
				},
				{
					"inputs": [
						{
							"internalType": "uint256",
							"name": "_f",
							"type": "uint256"
						}
					],
					"name": "setFuelforTest",
					"outputs": [],
					"stateMutability": "nonpayable",
					"type": "function"
				},
				{
					"inputs": [
						{
							"internalType": "uint256",
							"name": "_v",
							"type": "uint256"
						}
					],
					"name": "setVelocityforTest",
					"outputs": [],
					"stateMutability": "nonpayable",
					"type": "function"
				},
				{
					"inputs": [],
					"name": "withdraw",
					"outputs": [],
					"stateMutability": "nonpayable",
					"type": "function"
				}
			],
			"devdoc": {
				"kind": "dev",
				"methods": {},
				"version": 1
			},
			"evm": {
				"assembly": "    /* \"Exam_20231228.sol\":306:4256  contract Humby {... */\n  mstore(0x40, 0x80)\n    /* \"Exam_20231228.sol\":895:1337  constructor() {... */\n  callvalue\n  dup1\n  iszero\n  tag_1\n  jumpi\n  0x00\n  dup1\n  revert\ntag_1:\n  pop\n    /* \"Exam_20231228.sol\":932:946  Status.TurnOff */\n  0x02\n    /* \"Exam_20231228.sol\":920:929  carStatus */\n  0x00\n  dup1\n    /* \"Exam_20231228.sol\":920:946  carStatus = Status.TurnOff */\n  0x0100\n  exp\n  dup2\n  sload\n  dup2\n  0xff\n  mul\n  not\n  and\n  swap1\n  dup4\n  0x03\n  dup2\n  gt\n  iszero\n  tag_4\n  jumpi\n  tag_5\n  tag_6\n  jump\t// in\ntag_5:\ntag_4:\n  mul\n  or\n  swap1\n  sstore\n  pop\n    /* \"Exam_20231228.sol\":971:972  0 */\n  0x00\n    /* \"Exam_20231228.sol\":957:968  carVelocity */\n  0x01\n    /* \"Exam_20231228.sol\":957:972  carVelocity = 0 */\n  dup2\n  swap1\n  sstore\n  pop\n    /* \"Exam_20231228.sol\":993:994  0 */\n  0x00\n    /* \"Exam_20231228.sol\":983:990  carFuel */\n  0x02\n    /* \"Exam_20231228.sol\":983:994  carFuel = 0 */\n  dup2\n  swap1\n  sstore\n  pop\n    /* \"Exam_20231228.sol\":1192:1234  0xAb8483F64d9C6d1EcF9b849Ae677dD3315835cb2 */\n  0xab8483f64d9c6d1ecf9b849ae677dd3315835cb2\n    /* \"Exam_20231228.sol\":1176:1181  owner */\n  0x04\n  0x00\n    /* \"Exam_20231228.sol\":1176:1235  owner = payable(0xAb8483F64d9C6d1EcF9b849Ae677dD3315835cb2) */\n  0x0100\n  exp\n  dup2\n  sload\n  dup2\n  0xffffffffffffffffffffffffffffffffffffffff\n  mul\n  not\n  and\n  swap1\n  dup4\n  0xffffffffffffffffffffffffffffffffffffffff\n  and\n  mul\n  or\n  swap1\n  sstore\n  pop\n    /* \"Exam_20231228.sol\":306:4256  contract Humby {... */\n  jump(tag_7)\n    /* \"#utility.yul\":7:187   */\ntag_6:\n    /* \"#utility.yul\":55:132   */\n  0x4e487b7100000000000000000000000000000000000000000000000000000000\n    /* \"#utility.yul\":52:53   */\n  0x00\n    /* \"#utility.yul\":45:133   */\n  mstore\n    /* \"#utility.yul\":152:156   */\n  0x21\n    /* \"#utility.yul\":149:150   */\n  0x04\n    /* \"#utility.yul\":142:157   */\n  mstore\n    /* \"#utility.yul\":176:180   */\n  0x24\n    /* \"#utility.yul\":173:174   */\n  0x00\n    /* \"#utility.yul\":166:181   */\n  revert\n    /* \"Exam_20231228.sol\":306:4256  contract Humby {... */\ntag_7:\n  dataSize(sub_0)\n  dup1\n  dataOffset(sub_0)\n  0x00\n  codecopy\n  0x00\n  return\nstop\n\nsub_0: assembly {\n        /* \"Exam_20231228.sol\":306:4256  contract Humby {... */\n      mstore(0x40, 0x80)\n      jumpi(tag_1, lt(calldatasize, 0x04))\n      shr(0xe0, calldataload(0x00))\n      dup1\n      0xbbf75556\n      gt\n      tag_12\n      jumpi\n      dup1\n      0xbbf75556\n      eq\n      tag_7\n      jumpi\n      dup1\n      0xd0e30db0\n      eq\n      tag_8\n      jumpi\n      dup1\n      0xd93737ca\n      eq\n      tag_9\n      jumpi\n      dup1\n      0xf56df7c6\n      eq\n      tag_10\n      jumpi\n      dup1\n      0xf9ef71b9\n      eq\n      tag_11\n      jumpi\n      jump(tag_1)\n    tag_12:\n      dup1\n      0x34435025\n      eq\n      tag_2\n      jumpi\n      dup1\n      0x3ccfd60b\n      eq\n      tag_3\n      jumpi\n      dup1\n      0x50e72f61\n      eq\n      tag_4\n      jumpi\n      dup1\n      0x78dda193\n      eq\n      tag_5\n      jumpi\n      dup1\n      0x92005603\n      eq\n      tag_6\n      jumpi\n    tag_1:\n      0x00\n      dup1\n      revert\n        /* \"Exam_20231228.sol\":3664:3898  function TurnOn() public {... */\n    tag_2:\n      callvalue\n      dup1\n      iszero\n      tag_13\n      jumpi\n      0x00\n      dup1\n      revert\n    tag_13:\n      pop\n      tag_14\n      tag_15\n      jump\t// in\n    tag_14:\n      stop\n        /* \"Exam_20231228.sol\":1961:2044  function withdraw() public {... */\n    tag_3:\n      callvalue\n      dup1\n      iszero\n      tag_16\n      jumpi\n      0x00\n      dup1\n      revert\n    tag_16:\n      pop\n      tag_17\n      tag_18\n      jump\t// in\n    tag_17:\n      stop\n        /* \"Exam_20231228.sol\":3092:3656  function Break() public {... */\n    tag_4:\n      callvalue\n      dup1\n      iszero\n      tag_19\n      jumpi\n      0x00\n      dup1\n      revert\n    tag_19:\n      pop\n      tag_20\n      tag_21\n      jump\t// in\n    tag_20:\n      stop\n        /* \"Exam_20231228.sol\":2218:2341  function getCarState() public view returns (Status, uint, uint) {... */\n    tag_5:\n      callvalue\n      dup1\n      iszero\n      tag_22\n      jumpi\n      0x00\n      dup1\n      revert\n    tag_22:\n      pop\n      tag_23\n      tag_24\n      jump\t// in\n    tag_23:\n      mload(0x40)\n      tag_25\n      swap4\n      swap3\n      swap2\n      swap1\n      tag_26\n      jump\t// in\n    tag_25:\n      mload(0x40)\n      dup1\n      swap2\n      sub\n      swap1\n      return\n        /* \"Exam_20231228.sol\":3906:4245  function TurnOff() public {... */\n    tag_6:\n      callvalue\n      dup1\n      iszero\n      tag_27\n      jumpi\n      0x00\n      dup1\n      revert\n    tag_27:\n      pop\n      tag_28\n      tag_29\n      jump\t// in\n    tag_28:\n      stop\n        /* \"Exam_20231228.sol\":2052:2131  function setVelocityforTest(uint _v) public {... */\n    tag_7:\n      callvalue\n      dup1\n      iszero\n      tag_30\n      jumpi\n      0x00\n      dup1\n      revert\n    tag_30:\n      pop\n      tag_31\n      0x04\n      dup1\n      calldatasize\n      sub\n      dup2\n      add\n      swap1\n      tag_32\n      swap2\n      swap1\n      tag_33\n      jump\t// in\n    tag_32:\n      tag_34\n      jump\t// in\n    tag_31:\n      stop\n        /* \"Exam_20231228.sol\":1409:1530  function deposit() public payable {... */\n    tag_8:\n      tag_35\n      tag_36\n      jump\t// in\n    tag_35:\n      stop\n        /* \"Exam_20231228.sol\":2139:2210  function setFuelforTest(uint _f) public {... */\n    tag_9:\n      callvalue\n      dup1\n      iszero\n      tag_37\n      jumpi\n      0x00\n      dup1\n      revert\n    tag_37:\n      pop\n      tag_38\n      0x04\n      dup1\n      calldatasize\n      sub\n      dup2\n      add\n      swap1\n      tag_39\n      swap2\n      swap1\n      tag_33\n      jump\t// in\n    tag_39:\n      tag_40\n      jump\t// in\n    tag_38:\n      stop\n        /* \"Exam_20231228.sol\":1650:1953  function Refuel() public payable {... */\n    tag_10:\n      tag_41\n      tag_42\n      jump\t// in\n    tag_41:\n      stop\n        /* \"Exam_20231228.sol\":2349:3084  function Accelerator() public {... */\n    tag_11:\n      callvalue\n      dup1\n      iszero\n      tag_43\n      jumpi\n      0x00\n      dup1\n      revert\n    tag_43:\n      pop\n      tag_44\n      tag_45\n      jump\t// in\n    tag_44:\n      stop\n        /* \"Exam_20231228.sol\":3664:3898  function TurnOn() public {... */\n    tag_15:\n        /* \"Exam_20231228.sol\":3824:3838  Status.TurnOff */\n      0x02\n        /* \"Exam_20231228.sol\":3811:3838  carStatus == Status.TurnOff */\n      0x03\n      dup2\n      gt\n      iszero\n      tag_47\n      jumpi\n      tag_48\n      tag_49\n      jump\t// in\n    tag_48:\n    tag_47:\n        /* \"Exam_20231228.sol\":3811:3820  carStatus */\n      0x00\n      dup1\n      sload\n      swap1\n      0x0100\n      exp\n      swap1\n      div\n      0xff\n      and\n        /* \"Exam_20231228.sol\":3811:3838  carStatus == Status.TurnOff */\n      0x03\n      dup2\n      gt\n      iszero\n      tag_50\n      jumpi\n      tag_51\n      tag_49\n      jump\t// in\n    tag_51:\n    tag_50:\n      sub\n        /* \"Exam_20231228.sol\":3806:3891  if ( carStatus == Status.TurnOff ) {... */\n      tag_52\n      jumpi\n        /* \"Exam_20231228.sol\":3868:3879  Status.Stop */\n      0x00\n        /* \"Exam_20231228.sol\":3856:3865  carStatus */\n      dup1\n      0x00\n        /* \"Exam_20231228.sol\":3856:3879  carStatus = Status.Stop */\n      0x0100\n      exp\n      dup2\n      sload\n      dup2\n      0xff\n      mul\n      not\n      and\n      swap1\n      dup4\n      0x03\n      dup2\n      gt\n      iszero\n      tag_53\n      jumpi\n      tag_54\n      tag_49\n      jump\t// in\n    tag_54:\n    tag_53:\n      mul\n      or\n      swap1\n      sstore\n      pop\n        /* \"Exam_20231228.sol\":3806:3891  if ( carStatus == Status.TurnOff ) {... */\n    tag_52:\n        /* \"Exam_20231228.sol\":3664:3898  function TurnOn() public {... */\n      jump\t// out\n        /* \"Exam_20231228.sol\":1961:2044  function withdraw() public {... */\n    tag_18:\n        /* \"Exam_20231228.sol\":1999:2004  owner */\n      0x04\n      0x00\n      swap1\n      sload\n      swap1\n      0x0100\n      exp\n      swap1\n      div\n      0xffffffffffffffffffffffffffffffffffffffff\n      and\n        /* \"Exam_20231228.sol\":1999:2013  owner.transfer */\n      0xffffffffffffffffffffffffffffffffffffffff\n      and\n        /* \"Exam_20231228.sol\":1999:2036  owner.transfer(address(this).balance) */\n      0x08fc\n        /* \"Exam_20231228.sol\":2014:2035  address(this).balance */\n      selfbalance\n        /* \"Exam_20231228.sol\":1999:2036  owner.transfer(address(this).balance) */\n      swap1\n      dup2\n      iszero\n      mul\n      swap1\n      mload(0x40)\n      0x00\n      mload(0x40)\n      dup1\n      dup4\n      sub\n      dup2\n      dup6\n      dup9\n      dup9\n      call\n      swap4\n      pop\n      pop\n      pop\n      pop\n      iszero\n      dup1\n      iszero\n      tag_57\n      jumpi\n      returndatasize\n      0x00\n      dup1\n      returndatacopy\n      revert(0x00, returndatasize)\n    tag_57:\n      pop\n        /* \"Exam_20231228.sol\":1961:2044  function withdraw() public {... */\n      jump\t// out\n        /* \"Exam_20231228.sol\":3092:3656  function Break() public {... */\n    tag_21:\n        /* \"Exam_20231228.sol\":3333:3334  0 */\n      0x00\n        /* \"Exam_20231228.sol\":3321:3332  carVelocity */\n      sload(0x01)\n        /* \"Exam_20231228.sol\":3321:3334  carVelocity>0 */\n      gt\n        /* \"Exam_20231228.sol\":3313:3365  require(carVelocity>0, \"The velocity is already 0.\") */\n      tag_59\n      jumpi\n      mload(0x40)\n      0x08c379a000000000000000000000000000000000000000000000000000000000\n      dup2\n      mstore\n      0x04\n      add\n      tag_60\n      swap1\n      tag_61\n      jump\t// in\n    tag_60:\n      mload(0x40)\n      dup1\n      swap2\n      sub\n      swap1\n      revert\n    tag_59:\n        /* \"Exam_20231228.sol\":3397:3411  Status.Driving */\n      0x01\n        /* \"Exam_20231228.sol\":3384:3411  carStatus == Status.Driving */\n      0x03\n      dup2\n      gt\n      iszero\n      tag_62\n      jumpi\n      tag_63\n      tag_49\n      jump\t// in\n    tag_63:\n    tag_62:\n        /* \"Exam_20231228.sol\":3384:3393  carStatus */\n      0x00\n      dup1\n      sload\n      swap1\n      0x0100\n      exp\n      swap1\n      div\n      0xff\n      and\n        /* \"Exam_20231228.sol\":3384:3411  carStatus == Status.Driving */\n      0x03\n      dup2\n      gt\n      iszero\n      tag_64\n      jumpi\n      tag_65\n      tag_49\n      jump\t// in\n    tag_65:\n    tag_64:\n      eq\n        /* \"Exam_20231228.sol\":3376:3439  require(carStatus == Status.Driving, \"The car is not moving.\" ) */\n      tag_66\n      jumpi\n      mload(0x40)\n      0x08c379a000000000000000000000000000000000000000000000000000000000\n      dup2\n      mstore\n      0x04\n      add\n      tag_67\n      swap1\n      tag_68\n      jump\t// in\n    tag_67:\n      mload(0x40)\n      dup1\n      swap2\n      sub\n      swap1\n      revert\n    tag_66:\n        /* \"Exam_20231228.sol\":3450:3461  carVelocity */\n      0x01\n      0x00\n        /* \"Exam_20231228.sol\":3450:3463  carVelocity-- */\n      dup2\n      sload\n      dup1\n      swap3\n      swap2\n      swap1\n      tag_69\n      swap1\n      tag_70\n      jump\t// in\n    tag_69:\n      swap2\n      swap1\n      pop\n      sstore\n      pop\n        /* \"Exam_20231228.sol\":3485:3486  2 */\n      0x02\n        /* \"Exam_20231228.sol\":3474:3481  carFuel */\n      dup1\n      0x00\n        /* \"Exam_20231228.sol\":3474:3486  carFuel -= 2 */\n      dup3\n      dup3\n      sload\n      tag_71\n      swap2\n      swap1\n      tag_72\n      jump\t// in\n    tag_71:\n      swap3\n      pop\n      pop\n      dup2\n      swap1\n      sstore\n      pop\n        /* \"Exam_20231228.sol\":3517:3518  0 */\n      0x00\n        /* \"Exam_20231228.sol\":3502:3513  carVelocity */\n      sload(0x01)\n        /* \"Exam_20231228.sol\":3502:3518  carVelocity == 0 */\n      sub\n        /* \"Exam_20231228.sol\":3499:3647  if(carVelocity == 0) {... */\n      tag_73\n      jumpi\n        /* \"Exam_20231228.sol\":3624:3635  Status.Stop */\n      0x00\n        /* \"Exam_20231228.sol\":3612:3621  carStatus */\n      dup1\n      0x00\n        /* \"Exam_20231228.sol\":3612:3635  carStatus = Status.Stop */\n      0x0100\n      exp\n      dup2\n      sload\n      dup2\n      0xff\n      mul\n      not\n      and\n      swap1\n      dup4\n      0x03\n      dup2\n      gt\n      iszero\n      tag_74\n      jumpi\n      tag_75\n      tag_49\n      jump\t// in\n    tag_75:\n    tag_74:\n      mul\n      or\n      swap1\n      sstore\n      pop\n        /* \"Exam_20231228.sol\":3499:3647  if(carVelocity == 0) {... */\n    tag_73:\n        /* \"Exam_20231228.sol\":3092:3656  function Break() public {... */\n      jump\t// out\n        /* \"Exam_20231228.sol\":2218:2341  function getCarState() public view returns (Status, uint, uint) {... */\n    tag_24:\n        /* \"Exam_20231228.sol\":2262:2268  Status */\n      0x00\n        /* \"Exam_20231228.sol\":2270:2274  uint */\n      dup1\n        /* \"Exam_20231228.sol\":2276:2280  uint */\n      0x00\n        /* \"Exam_20231228.sol\":2301:2310  carStatus */\n      dup1\n      0x00\n      swap1\n      sload\n      swap1\n      0x0100\n      exp\n      swap1\n      div\n      0xff\n      and\n        /* \"Exam_20231228.sol\":2312:2323  carVelocity */\n      sload(0x01)\n        /* \"Exam_20231228.sol\":2325:2332  carFuel */\n      sload(0x02)\n        /* \"Exam_20231228.sol\":2293:2333  return (carStatus, carVelocity, carFuel) */\n      swap3\n      pop\n      swap3\n      pop\n      swap3\n      pop\n        /* \"Exam_20231228.sol\":2218:2341  function getCarState() public view returns (Status, uint, uint) {... */\n      swap1\n      swap2\n      swap3\n      jump\t// out\n        /* \"Exam_20231228.sol\":3906:4245  function TurnOff() public {... */\n    tag_29:\n        /* \"Exam_20231228.sol\":4079:4080  0 */\n      0x00\n        /* \"Exam_20231228.sol\":4066:4077  carVelocity */\n      sload(0x01)\n        /* \"Exam_20231228.sol\":4066:4080  carVelocity==0 */\n      eq\n        /* \"Exam_20231228.sol\":4058:4142  require(carVelocity==0, \"You can't turn off the engine while the car is in motion.\") */\n      tag_78\n      jumpi\n      mload(0x40)\n      0x08c379a000000000000000000000000000000000000000000000000000000000\n      dup2\n      mstore\n      0x04\n      add\n      tag_79\n      swap1\n      tag_80\n      jump\t// in\n    tag_79:\n      mload(0x40)\n      dup1\n      swap2\n      sub\n      swap1\n      revert\n    tag_78:\n        /* \"Exam_20231228.sol\":4171:4182  Status.Stop */\n      0x00\n        /* \"Exam_20231228.sol\":4158:4182  carStatus == Status.Stop */\n      0x03\n      dup2\n      gt\n      iszero\n      tag_81\n      jumpi\n      tag_82\n      tag_49\n      jump\t// in\n    tag_82:\n    tag_81:\n        /* \"Exam_20231228.sol\":4158:4167  carStatus */\n      0x00\n      dup1\n      sload\n      swap1\n      0x0100\n      exp\n      swap1\n      div\n      0xff\n      and\n        /* \"Exam_20231228.sol\":4158:4182  carStatus == Status.Stop */\n      0x03\n      dup2\n      gt\n      iszero\n      tag_83\n      jumpi\n      tag_84\n      tag_49\n      jump\t// in\n    tag_84:\n    tag_83:\n      sub\n        /* \"Exam_20231228.sol\":4153:4238  if ( carStatus == Status.Stop ) {... */\n      tag_85\n      jumpi\n        /* \"Exam_20231228.sol\":4212:4226  Status.TurnOff */\n      0x02\n        /* \"Exam_20231228.sol\":4200:4209  carStatus */\n      0x00\n      dup1\n        /* \"Exam_20231228.sol\":4200:4226  carStatus = Status.TurnOff */\n      0x0100\n      exp\n      dup2\n      sload\n      dup2\n      0xff\n      mul\n      not\n      and\n      swap1\n      dup4\n      0x03\n      dup2\n      gt\n      iszero\n      tag_86\n      jumpi\n      tag_87\n      tag_49\n      jump\t// in\n    tag_87:\n    tag_86:\n      mul\n      or\n      swap1\n      sstore\n      pop\n        /* \"Exam_20231228.sol\":4153:4238  if ( carStatus == Status.Stop ) {... */\n    tag_85:\n        /* \"Exam_20231228.sol\":3906:4245  function TurnOff() public {... */\n      jump\t// out\n        /* \"Exam_20231228.sol\":2052:2131  function setVelocityforTest(uint _v) public {... */\n    tag_34:\n        /* \"Exam_20231228.sol\":2121:2123  _v */\n      dup1\n        /* \"Exam_20231228.sol\":2107:2118  carVelocity */\n      0x01\n        /* \"Exam_20231228.sol\":2107:2123  carVelocity = _v */\n      dup2\n      swap1\n      sstore\n      pop\n        /* \"Exam_20231228.sol\":2052:2131  function setVelocityforTest(uint _v) public {... */\n      pop\n      jump\t// out\n        /* \"Exam_20231228.sol\":1409:1530  function deposit() public payable {... */\n    tag_36:\n        /* \"Exam_20231228.sol\":1475:1482  1 ether */\n      0x0de0b6b3a7640000\n        /* \"Exam_20231228.sol\":1462:1471  msg.value */\n      callvalue\n        /* \"Exam_20231228.sol\":1462:1482  msg.value == 1 ether */\n      eq\n        /* \"Exam_20231228.sol\":1454:1494  require(msg.value == 1 ether, \"go back\") */\n      tag_90\n      jumpi\n      mload(0x40)\n      0x08c379a000000000000000000000000000000000000000000000000000000000\n      dup2\n      mstore\n      0x04\n      add\n      tag_91\n      swap1\n      tag_92\n      jump\t// in\n    tag_91:\n      mload(0x40)\n      dup1\n      swap2\n      sub\n      swap1\n      revert\n    tag_90:\n        /* \"Exam_20231228.sol\":1513:1522  msg.value */\n      callvalue\n        /* \"Exam_20231228.sol\":1505:1509  paid */\n      0x05\n      0x00\n        /* \"Exam_20231228.sol\":1505:1522  paid += msg.value */\n      dup3\n      dup3\n      sload\n      tag_93\n      swap2\n      swap1\n      tag_94\n      jump\t// in\n    tag_93:\n      swap3\n      pop\n      pop\n      dup2\n      swap1\n      sstore\n      pop\n        /* \"Exam_20231228.sol\":1409:1530  function deposit() public payable {... */\n      jump\t// out\n        /* \"Exam_20231228.sol\":2139:2210  function setFuelforTest(uint _f) public {... */\n    tag_40:\n        /* \"Exam_20231228.sol\":2200:2202  _f */\n      dup1\n        /* \"Exam_20231228.sol\":2190:2197  carFuel */\n      0x02\n        /* \"Exam_20231228.sol\":2190:2202  carFuel = _f */\n      dup2\n      swap1\n      sstore\n      pop\n        /* \"Exam_20231228.sol\":2139:2210  function setFuelforTest(uint _f) public {... */\n      pop\n      jump\t// out\n        /* \"Exam_20231228.sol\":1650:1953  function Refuel() public payable {... */\n    tag_42:\n        /* \"Exam_20231228.sol\":1715:1729  Status.TurnOff */\n      0x02\n        /* \"Exam_20231228.sol\":1702:1729  carStatus == Status.TurnOff */\n      0x03\n      dup2\n      gt\n      iszero\n      tag_97\n      jumpi\n      tag_98\n      tag_49\n      jump\t// in\n    tag_98:\n    tag_97:\n        /* \"Exam_20231228.sol\":1702:1711  carStatus */\n      0x00\n      dup1\n      sload\n      swap1\n      0x0100\n      exp\n      swap1\n      div\n      0xff\n      and\n        /* \"Exam_20231228.sol\":1702:1729  carStatus == Status.TurnOff */\n      0x03\n      dup2\n      gt\n      iszero\n      tag_99\n      jumpi\n      tag_100\n      tag_49\n      jump\t// in\n    tag_100:\n    tag_99:\n      eq\n        /* \"Exam_20231228.sol\":1694:1763  require(carStatus == Status.TurnOff, \"Cannot refuel while driving.\" ) */\n      tag_101\n      jumpi\n      mload(0x40)\n      0x08c379a000000000000000000000000000000000000000000000000000000000\n      dup2\n      mstore\n      0x04\n      add\n      tag_102\n      swap1\n      tag_103\n      jump\t// in\n    tag_102:\n      mload(0x40)\n      dup1\n      swap2\n      sub\n      swap1\n      revert\n    tag_101:\n        /* \"Exam_20231228.sol\":1790:1797  1 ether */\n      0x0de0b6b3a7640000\n        /* \"Exam_20231228.sol\":1782:1786  paid */\n      sload(0x05)\n        /* \"Exam_20231228.sol\":1782:1797  paid >= 1 ether */\n      lt\n      iszero\n        /* \"Exam_20231228.sol\":1782:1821  paid >= 1 ether || msg.value == 1 ether */\n      dup1\n      tag_104\n      jumpi\n      pop\n        /* \"Exam_20231228.sol\":1814:1821  1 ether */\n      0x0de0b6b3a7640000\n        /* \"Exam_20231228.sol\":1801:1810  msg.value */\n      callvalue\n        /* \"Exam_20231228.sol\":1801:1821  msg.value == 1 ether */\n      eq\n        /* \"Exam_20231228.sol\":1782:1821  paid >= 1 ether || msg.value == 1 ether */\n    tag_104:\n        /* \"Exam_20231228.sol\":1774:1833  require(paid >= 1 ether || msg.value == 1 ether, \"go back\") */\n      tag_105\n      jumpi\n      mload(0x40)\n      0x08c379a000000000000000000000000000000000000000000000000000000000\n      dup2\n      mstore\n      0x04\n      add\n      tag_106\n      swap1\n      tag_92\n      jump\t// in\n    tag_106:\n      mload(0x40)\n      dup1\n      swap2\n      sub\n      swap1\n      revert\n    tag_105:\n        /* \"Exam_20231228.sol\":1860:1867  1 ether */\n      0x0de0b6b3a7640000\n        /* \"Exam_20231228.sol\":1847:1856  msg.value */\n      callvalue\n        /* \"Exam_20231228.sol\":1847:1867  msg.value != 1 ether */\n      eq\n        /* \"Exam_20231228.sol\":1844:1911  if(msg.value != 1 ether) {... */\n      tag_107\n      jumpi\n        /* \"Exam_20231228.sol\":1892:1899  1 ether */\n      0x0de0b6b3a7640000\n        /* \"Exam_20231228.sol\":1884:1888  paid */\n      0x05\n      0x00\n        /* \"Exam_20231228.sol\":1884:1899  paid -= 1 ether */\n      dup3\n      dup3\n      sload\n      tag_108\n      swap2\n      swap1\n      tag_72\n      jump\t// in\n    tag_108:\n      swap3\n      pop\n      pop\n      dup2\n      swap1\n      sstore\n      pop\n        /* \"Exam_20231228.sol\":1844:1911  if(msg.value != 1 ether) {... */\n    tag_107:\n        /* \"Exam_20231228.sol\":1942:1945  100 */\n      0x64\n        /* \"Exam_20231228.sol\":1931:1938  carFuel */\n      0x02\n      0x00\n        /* \"Exam_20231228.sol\":1931:1945  carFuel += 100 */\n      dup3\n      dup3\n      sload\n      tag_109\n      swap2\n      swap1\n      tag_94\n      jump\t// in\n    tag_109:\n      swap3\n      pop\n      pop\n      dup2\n      swap1\n      sstore\n      pop\n        /* \"Exam_20231228.sol\":1650:1953  function Refuel() public payable {... */\n      jump\t// out\n        /* \"Exam_20231228.sol\":2349:3084  function Accelerator() public {... */\n    tag_45:\n        /* \"Exam_20231228.sol\":2649:2651  70 */\n      0x46\n        /* \"Exam_20231228.sol\":2635:2646  carVelocity */\n      sload(0x01)\n        /* \"Exam_20231228.sol\":2635:2651  carVelocity < 70 */\n      lt\n        /* \"Exam_20231228.sol\":2627:2685  require(carVelocity < 70, \"It's already too fast enough.\") */\n      tag_111\n      jumpi\n      mload(0x40)\n      0x08c379a000000000000000000000000000000000000000000000000000000000\n      dup2\n      mstore\n      0x04\n      add\n      tag_112\n      swap1\n      tag_113\n      jump\t// in\n    tag_112:\n      mload(0x40)\n      dup1\n      swap2\n      sub\n      swap1\n      revert\n    tag_111:\n        /* \"Exam_20231228.sol\":2713:2715  30 */\n      0x1e\n        /* \"Exam_20231228.sol\":2704:2711  carFuel */\n      sload(0x02)\n        /* \"Exam_20231228.sol\":2704:2715  carFuel >30 */\n      gt\n        /* \"Exam_20231228.sol\":2696:2739  require(carFuel >30, \"More fuel is needed\") */\n      tag_114\n      jumpi\n      mload(0x40)\n      0x08c379a000000000000000000000000000000000000000000000000000000000\n      dup2\n      mstore\n      0x04\n      add\n      tag_115\n      swap1\n      tag_116\n      jump\t// in\n    tag_115:\n      mload(0x40)\n      dup1\n      swap2\n      sub\n      swap1\n      revert\n    tag_114:\n        /* \"Exam_20231228.sol\":2771:2782  Status.Stop */\n      0x00\n        /* \"Exam_20231228.sol\":2758:2782  carStatus == Status.Stop */\n      0x03\n      dup2\n      gt\n      iszero\n      tag_117\n      jumpi\n      tag_118\n      tag_49\n      jump\t// in\n    tag_118:\n    tag_117:\n        /* \"Exam_20231228.sol\":2758:2767  carStatus */\n      0x00\n      dup1\n      sload\n      swap1\n      0x0100\n      exp\n      swap1\n      div\n      0xff\n      and\n        /* \"Exam_20231228.sol\":2758:2782  carStatus == Status.Stop */\n      0x03\n      dup2\n      gt\n      iszero\n      tag_119\n      jumpi\n      tag_120\n      tag_49\n      jump\t// in\n    tag_120:\n    tag_119:\n      eq\n        /* \"Exam_20231228.sol\":2758:2813  carStatus == Status.Stop || carStatus == Status.Driving */\n      dup1\n      tag_121\n      jumpi\n      pop\n        /* \"Exam_20231228.sol\":2799:2813  Status.Driving */\n      0x01\n        /* \"Exam_20231228.sol\":2786:2813  carStatus == Status.Driving */\n      0x03\n      dup2\n      gt\n      iszero\n      tag_122\n      jumpi\n      tag_123\n      tag_49\n      jump\t// in\n    tag_123:\n    tag_122:\n        /* \"Exam_20231228.sol\":2786:2795  carStatus */\n      0x00\n      dup1\n      sload\n      swap1\n      0x0100\n      exp\n      swap1\n      div\n      0xff\n      and\n        /* \"Exam_20231228.sol\":2786:2813  carStatus == Status.Driving */\n      0x03\n      dup2\n      gt\n      iszero\n      tag_124\n      jumpi\n      tag_125\n      tag_49\n      jump\t// in\n    tag_125:\n    tag_124:\n      eq\n        /* \"Exam_20231228.sol\":2758:2813  carStatus == Status.Stop || carStatus == Status.Driving */\n    tag_121:\n        /* \"Exam_20231228.sol\":2750:2841  require(carStatus == Status.Stop || carStatus == Status.Driving, \"The car is not moving.\" ) */\n      tag_126\n      jumpi\n      mload(0x40)\n      0x08c379a000000000000000000000000000000000000000000000000000000000\n      dup2\n      mstore\n      0x04\n      add\n      tag_127\n      swap1\n      tag_68\n      jump\t// in\n    tag_127:\n      mload(0x40)\n      dup1\n      swap2\n      sub\n      swap1\n      revert\n    tag_126:\n        /* \"Exam_20231228.sol\":2873:2874  0 */\n      0x00\n        /* \"Exam_20231228.sol\":2858:2869  carVelocity */\n      sload(0x01)\n        /* \"Exam_20231228.sol\":2858:2874  carVelocity == 0 */\n      eq\n        /* \"Exam_20231228.sol\":2858:2902  carVelocity == 0 && carStatus == Status.Stop */\n      dup1\n      iszero\n      tag_128\n      jumpi\n      pop\n        /* \"Exam_20231228.sol\":2891:2902  Status.Stop */\n      0x00\n        /* \"Exam_20231228.sol\":2878:2902  carStatus == Status.Stop */\n      0x03\n      dup2\n      gt\n      iszero\n      tag_129\n      jumpi\n      tag_130\n      tag_49\n      jump\t// in\n    tag_130:\n    tag_129:\n        /* \"Exam_20231228.sol\":2878:2887  carStatus */\n      0x00\n      dup1\n      sload\n      swap1\n      0x0100\n      exp\n      swap1\n      div\n      0xff\n      and\n        /* \"Exam_20231228.sol\":2878:2902  carStatus == Status.Stop */\n      0x03\n      dup2\n      gt\n      iszero\n      tag_131\n      jumpi\n      tag_132\n      tag_49\n      jump\t// in\n    tag_132:\n    tag_131:\n      eq\n        /* \"Exam_20231228.sol\":2858:2902  carVelocity == 0 && carStatus == Status.Stop */\n    tag_128:\n        /* \"Exam_20231228.sol\":2854:3030  if( carVelocity == 0 && carStatus == Status.Stop){... */\n      iszero\n      tag_133\n      jumpi\n        /* \"Exam_20231228.sol\":3004:3018  Status.Driving */\n      0x01\n        /* \"Exam_20231228.sol\":2992:3001  carStatus */\n      0x00\n      dup1\n        /* \"Exam_20231228.sol\":2992:3018  carStatus = Status.Driving */\n      0x0100\n      exp\n      dup2\n      sload\n      dup2\n      0xff\n      mul\n      not\n      and\n      swap1\n      dup4\n      0x03\n      dup2\n      gt\n      iszero\n      tag_134\n      jumpi\n      tag_135\n      tag_49\n      jump\t// in\n    tag_135:\n    tag_134:\n      mul\n      or\n      swap1\n      sstore\n      pop\n        /* \"Exam_20231228.sol\":2854:3030  if( carVelocity == 0 && carStatus == Status.Stop){... */\n    tag_133:\n        /* \"Exam_20231228.sol\":3040:3051  carVelocity */\n      0x01\n      0x00\n        /* \"Exam_20231228.sol\":3040:3053  carVelocity++ */\n      dup2\n      sload\n      dup1\n      swap3\n      swap2\n      swap1\n      tag_136\n      swap1\n      tag_137\n      jump\t// in\n    tag_136:\n      swap2\n      swap1\n      pop\n      sstore\n      pop\n        /* \"Exam_20231228.sol\":3075:3076  2 */\n      0x02\n        /* \"Exam_20231228.sol\":3064:3071  carFuel */\n      dup1\n      0x00\n        /* \"Exam_20231228.sol\":3064:3076  carFuel -= 2 */\n      dup3\n      dup3\n      sload\n      tag_138\n      swap2\n      swap1\n      tag_72\n      jump\t// in\n    tag_138:\n      swap3\n      pop\n      pop\n      dup2\n      swap1\n      sstore\n      pop\n        /* \"Exam_20231228.sol\":2349:3084  function Accelerator() public {... */\n      jump\t// out\n        /* \"#utility.yul\":7:187   */\n    tag_49:\n        /* \"#utility.yul\":55:132   */\n      0x4e487b7100000000000000000000000000000000000000000000000000000000\n        /* \"#utility.yul\":52:53   */\n      0x00\n        /* \"#utility.yul\":45:133   */\n      mstore\n        /* \"#utility.yul\":152:156   */\n      0x21\n        /* \"#utility.yul\":149:150   */\n      0x04\n        /* \"#utility.yul\":142:157   */\n      mstore\n        /* \"#utility.yul\":176:180   */\n      0x24\n        /* \"#utility.yul\":173:174   */\n      0x00\n        /* \"#utility.yul\":166:181   */\n      revert\n        /* \"#utility.yul\":193:306   */\n    tag_139:\n        /* \"#utility.yul\":274:275   */\n      0x04\n        /* \"#utility.yul\":267:272   */\n      dup2\n        /* \"#utility.yul\":264:276   */\n      lt\n        /* \"#utility.yul\":254:300   */\n      tag_169\n      jumpi\n        /* \"#utility.yul\":280:298   */\n      tag_170\n      tag_49\n      jump\t// in\n    tag_170:\n        /* \"#utility.yul\":254:300   */\n    tag_169:\n        /* \"#utility.yul\":193:306   */\n      pop\n      jump\t// out\n        /* \"#utility.yul\":312:439   */\n    tag_140:\n        /* \"#utility.yul\":357:364   */\n      0x00\n        /* \"#utility.yul\":386:391   */\n      dup2\n        /* \"#utility.yul\":375:391   */\n      swap1\n      pop\n        /* \"#utility.yul\":392:433   */\n      tag_172\n        /* \"#utility.yul\":427:432   */\n      dup3\n        /* \"#utility.yul\":392:433   */\n      tag_139\n      jump\t// in\n    tag_172:\n        /* \"#utility.yul\":312:439   */\n      swap2\n      swap1\n      pop\n      jump\t// out\n        /* \"#utility.yul\":445:572   */\n    tag_141:\n        /* \"#utility.yul\":501:510   */\n      0x00\n        /* \"#utility.yul\":534:566   */\n      tag_174\n        /* \"#utility.yul\":560:565   */\n      dup3\n        /* \"#utility.yul\":534:566   */\n      tag_140\n      jump\t// in\n    tag_174:\n        /* \"#utility.yul\":521:566   */\n      swap1\n      pop\n        /* \"#utility.yul\":445:572   */\n      swap2\n      swap1\n      pop\n      jump\t// out\n        /* \"#utility.yul\":578:721   */\n    tag_142:\n        /* \"#utility.yul\":671:714   */\n      tag_176\n        /* \"#utility.yul\":708:713   */\n      dup2\n        /* \"#utility.yul\":671:714   */\n      tag_141\n      jump\t// in\n    tag_176:\n        /* \"#utility.yul\":666:669   */\n      dup3\n        /* \"#utility.yul\":659:715   */\n      mstore\n        /* \"#utility.yul\":578:721   */\n      pop\n      pop\n      jump\t// out\n        /* \"#utility.yul\":727:804   */\n    tag_143:\n        /* \"#utility.yul\":764:771   */\n      0x00\n        /* \"#utility.yul\":793:798   */\n      dup2\n        /* \"#utility.yul\":782:798   */\n      swap1\n      pop\n        /* \"#utility.yul\":727:804   */\n      swap2\n      swap1\n      pop\n      jump\t// out\n        /* \"#utility.yul\":810:928   */\n    tag_144:\n        /* \"#utility.yul\":897:921   */\n      tag_179\n        /* \"#utility.yul\":915:920   */\n      dup2\n        /* \"#utility.yul\":897:921   */\n      tag_143\n      jump\t// in\n    tag_179:\n        /* \"#utility.yul\":892:895   */\n      dup3\n        /* \"#utility.yul\":885:922   */\n      mstore\n        /* \"#utility.yul\":810:928   */\n      pop\n      pop\n      jump\t// out\n        /* \"#utility.yul\":934:1388   */\n    tag_26:\n        /* \"#utility.yul\":1089:1093   */\n      0x00\n        /* \"#utility.yul\":1127:1129   */\n      0x60\n        /* \"#utility.yul\":1116:1125   */\n      dup3\n        /* \"#utility.yul\":1112:1130   */\n      add\n        /* \"#utility.yul\":1104:1130   */\n      swap1\n      pop\n        /* \"#utility.yul\":1140:1217   */\n      tag_181\n        /* \"#utility.yul\":1214:1215   */\n      0x00\n        /* \"#utility.yul\":1203:1212   */\n      dup4\n        /* \"#utility.yul\":1199:1216   */\n      add\n        /* \"#utility.yul\":1190:1196   */\n      dup7\n        /* \"#utility.yul\":1140:1217   */\n      tag_142\n      jump\t// in\n    tag_181:\n        /* \"#utility.yul\":1227:1299   */\n      tag_182\n        /* \"#utility.yul\":1295:1297   */\n      0x20\n        /* \"#utility.yul\":1284:1293   */\n      dup4\n        /* \"#utility.yul\":1280:1298   */\n      add\n        /* \"#utility.yul\":1271:1277   */\n      dup6\n        /* \"#utility.yul\":1227:1299   */\n      tag_144\n      jump\t// in\n    tag_182:\n        /* \"#utility.yul\":1309:1381   */\n      tag_183\n        /* \"#utility.yul\":1377:1379   */\n      0x40\n        /* \"#utility.yul\":1366:1375   */\n      dup4\n        /* \"#utility.yul\":1362:1380   */\n      add\n        /* \"#utility.yul\":1353:1359   */\n      dup5\n        /* \"#utility.yul\":1309:1381   */\n      tag_144\n      jump\t// in\n    tag_183:\n        /* \"#utility.yul\":934:1388   */\n      swap5\n      swap4\n      pop\n      pop\n      pop\n      pop\n      jump\t// out\n        /* \"#utility.yul\":1475:1592   */\n    tag_146:\n        /* \"#utility.yul\":1584:1585   */\n      0x00\n        /* \"#utility.yul\":1581:1582   */\n      dup1\n        /* \"#utility.yul\":1574:1586   */\n      revert\n        /* \"#utility.yul\":1721:1843   */\n    tag_148:\n        /* \"#utility.yul\":1794:1818   */\n      tag_188\n        /* \"#utility.yul\":1812:1817   */\n      dup2\n        /* \"#utility.yul\":1794:1818   */\n      tag_143\n      jump\t// in\n    tag_188:\n        /* \"#utility.yul\":1787:1792   */\n      dup2\n        /* \"#utility.yul\":1784:1819   */\n      eq\n        /* \"#utility.yul\":1774:1837   */\n      tag_189\n      jumpi\n        /* \"#utility.yul\":1833:1834   */\n      0x00\n        /* \"#utility.yul\":1830:1831   */\n      dup1\n        /* \"#utility.yul\":1823:1835   */\n      revert\n        /* \"#utility.yul\":1774:1837   */\n    tag_189:\n        /* \"#utility.yul\":1721:1843   */\n      pop\n      jump\t// out\n        /* \"#utility.yul\":1849:1988   */\n    tag_149:\n        /* \"#utility.yul\":1895:1900   */\n      0x00\n        /* \"#utility.yul\":1933:1939   */\n      dup2\n        /* \"#utility.yul\":1920:1940   */\n      calldataload\n        /* \"#utility.yul\":1911:1940   */\n      swap1\n      pop\n        /* \"#utility.yul\":1949:1982   */\n      tag_191\n        /* \"#utility.yul\":1976:1981   */\n      dup2\n        /* \"#utility.yul\":1949:1982   */\n      tag_148\n      jump\t// in\n    tag_191:\n        /* \"#utility.yul\":1849:1988   */\n      swap3\n      swap2\n      pop\n      pop\n      jump\t// out\n        /* \"#utility.yul\":1994:2323   */\n    tag_33:\n        /* \"#utility.yul\":2053:2059   */\n      0x00\n        /* \"#utility.yul\":2102:2104   */\n      0x20\n        /* \"#utility.yul\":2090:2099   */\n      dup3\n        /* \"#utility.yul\":2081:2088   */\n      dup5\n        /* \"#utility.yul\":2077:2100   */\n      sub\n        /* \"#utility.yul\":2073:2105   */\n      slt\n        /* \"#utility.yul\":2070:2189   */\n      iszero\n      tag_193\n      jumpi\n        /* \"#utility.yul\":2108:2187   */\n      tag_194\n      tag_146\n      jump\t// in\n    tag_194:\n        /* \"#utility.yul\":2070:2189   */\n    tag_193:\n        /* \"#utility.yul\":2228:2229   */\n      0x00\n        /* \"#utility.yul\":2253:2306   */\n      tag_195\n        /* \"#utility.yul\":2298:2305   */\n      dup5\n        /* \"#utility.yul\":2289:2295   */\n      dup3\n        /* \"#utility.yul\":2278:2287   */\n      dup6\n        /* \"#utility.yul\":2274:2296   */\n      add\n        /* \"#utility.yul\":2253:2306   */\n      tag_149\n      jump\t// in\n    tag_195:\n        /* \"#utility.yul\":2243:2306   */\n      swap2\n      pop\n        /* \"#utility.yul\":2199:2316   */\n      pop\n        /* \"#utility.yul\":1994:2323   */\n      swap3\n      swap2\n      pop\n      pop\n      jump\t// out\n        /* \"#utility.yul\":2329:2498   */\n    tag_150:\n        /* \"#utility.yul\":2413:2424   */\n      0x00\n        /* \"#utility.yul\":2447:2453   */\n      dup3\n        /* \"#utility.yul\":2442:2445   */\n      dup3\n        /* \"#utility.yul\":2435:2454   */\n      mstore\n        /* \"#utility.yul\":2487:2491   */\n      0x20\n        /* \"#utility.yul\":2482:2485   */\n      dup3\n        /* \"#utility.yul\":2478:2492   */\n      add\n        /* \"#utility.yul\":2463:2492   */\n      swap1\n      pop\n        /* \"#utility.yul\":2329:2498   */\n      swap3\n      swap2\n      pop\n      pop\n      jump\t// out\n        /* \"#utility.yul\":2504:2680   */\n    tag_151:\n        /* \"#utility.yul\":2644:2672   */\n      0x5468652076656c6f6369747920697320616c726561647920302e000000000000\n        /* \"#utility.yul\":2640:2641   */\n      0x00\n        /* \"#utility.yul\":2632:2638   */\n      dup3\n        /* \"#utility.yul\":2628:2642   */\n      add\n        /* \"#utility.yul\":2621:2673   */\n      mstore\n        /* \"#utility.yul\":2504:2680   */\n      pop\n      jump\t// out\n        /* \"#utility.yul\":2686:3052   */\n    tag_152:\n        /* \"#utility.yul\":2828:2831   */\n      0x00\n        /* \"#utility.yul\":2849:2916   */\n      tag_199\n        /* \"#utility.yul\":2913:2915   */\n      0x1a\n        /* \"#utility.yul\":2908:2911   */\n      dup4\n        /* \"#utility.yul\":2849:2916   */\n      tag_150\n      jump\t// in\n    tag_199:\n        /* \"#utility.yul\":2842:2916   */\n      swap2\n      pop\n        /* \"#utility.yul\":2925:3018   */\n      tag_200\n        /* \"#utility.yul\":3014:3017   */\n      dup3\n        /* \"#utility.yul\":2925:3018   */\n      tag_151\n      jump\t// in\n    tag_200:\n        /* \"#utility.yul\":3043:3045   */\n      0x20\n        /* \"#utility.yul\":3038:3041   */\n      dup3\n        /* \"#utility.yul\":3034:3046   */\n      add\n        /* \"#utility.yul\":3027:3046   */\n      swap1\n      pop\n        /* \"#utility.yul\":2686:3052   */\n      swap2\n      swap1\n      pop\n      jump\t// out\n        /* \"#utility.yul\":3058:3477   */\n    tag_61:\n        /* \"#utility.yul\":3224:3228   */\n      0x00\n        /* \"#utility.yul\":3262:3264   */\n      0x20\n        /* \"#utility.yul\":3251:3260   */\n      dup3\n        /* \"#utility.yul\":3247:3265   */\n      add\n        /* \"#utility.yul\":3239:3265   */\n      swap1\n      pop\n        /* \"#utility.yul\":3311:3320   */\n      dup2\n        /* \"#utility.yul\":3305:3309   */\n      dup2\n        /* \"#utility.yul\":3301:3321   */\n      sub\n        /* \"#utility.yul\":3297:3298   */\n      0x00\n        /* \"#utility.yul\":3286:3295   */\n      dup4\n        /* \"#utility.yul\":3282:3299   */\n      add\n        /* \"#utility.yul\":3275:3322   */\n      mstore\n        /* \"#utility.yul\":3339:3470   */\n      tag_202\n        /* \"#utility.yul\":3465:3469   */\n      dup2\n        /* \"#utility.yul\":3339:3470   */\n      tag_152\n      jump\t// in\n    tag_202:\n        /* \"#utility.yul\":3331:3470   */\n      swap1\n      pop\n        /* \"#utility.yul\":3058:3477   */\n      swap2\n      swap1\n      pop\n      jump\t// out\n        /* \"#utility.yul\":3483:3655   */\n    tag_153:\n        /* \"#utility.yul\":3623:3647   */\n      0x54686520636172206973206e6f74206d6f76696e672e00000000000000000000\n        /* \"#utility.yul\":3619:3620   */\n      0x00\n        /* \"#utility.yul\":3611:3617   */\n      dup3\n        /* \"#utility.yul\":3607:3621   */\n      add\n        /* \"#utility.yul\":3600:3648   */\n      mstore\n        /* \"#utility.yul\":3483:3655   */\n      pop\n      jump\t// out\n        /* \"#utility.yul\":3661:4027   */\n    tag_154:\n        /* \"#utility.yul\":3803:3806   */\n      0x00\n        /* \"#utility.yul\":3824:3891   */\n      tag_205\n        /* \"#utility.yul\":3888:3890   */\n      0x16\n        /* \"#utility.yul\":3883:3886   */\n      dup4\n        /* \"#utility.yul\":3824:3891   */\n      tag_150\n      jump\t// in\n    tag_205:\n        /* \"#utility.yul\":3817:3891   */\n      swap2\n      pop\n        /* \"#utility.yul\":3900:3993   */\n      tag_206\n        /* \"#utility.yul\":3989:3992   */\n      dup3\n        /* \"#utility.yul\":3900:3993   */\n      tag_153\n      jump\t// in\n    tag_206:\n        /* \"#utility.yul\":4018:4020   */\n      0x20\n        /* \"#utility.yul\":4013:4016   */\n      dup3\n        /* \"#utility.yul\":4009:4021   */\n      add\n        /* \"#utility.yul\":4002:4021   */\n      swap1\n      pop\n        /* \"#utility.yul\":3661:4027   */\n      swap2\n      swap1\n      pop\n      jump\t// out\n        /* \"#utility.yul\":4033:4452   */\n    tag_68:\n        /* \"#utility.yul\":4199:4203   */\n      0x00\n        /* \"#utility.yul\":4237:4239   */\n      0x20\n        /* \"#utility.yul\":4226:4235   */\n      dup3\n        /* \"#utility.yul\":4222:4240   */\n      add\n        /* \"#utility.yul\":4214:4240   */\n      swap1\n      pop\n        /* \"#utility.yul\":4286:4295   */\n      dup2\n        /* \"#utility.yul\":4280:4284   */\n      dup2\n        /* \"#utility.yul\":4276:4296   */\n      sub\n        /* \"#utility.yul\":4272:4273   */\n      0x00\n        /* \"#utility.yul\":4261:4270   */\n      dup4\n        /* \"#utility.yul\":4257:4274   */\n      add\n        /* \"#utility.yul\":4250:4297   */\n      mstore\n        /* \"#utility.yul\":4314:4445   */\n      tag_208\n        /* \"#utility.yul\":4440:4444   */\n      dup2\n        /* \"#utility.yul\":4314:4445   */\n      tag_154\n      jump\t// in\n    tag_208:\n        /* \"#utility.yul\":4306:4445   */\n      swap1\n      pop\n        /* \"#utility.yul\":4033:4452   */\n      swap2\n      swap1\n      pop\n      jump\t// out\n        /* \"#utility.yul\":4458:4638   */\n    tag_155:\n        /* \"#utility.yul\":4506:4583   */\n      0x4e487b7100000000000000000000000000000000000000000000000000000000\n        /* \"#utility.yul\":4503:4504   */\n      0x00\n        /* \"#utility.yul\":4496:4584   */\n      mstore\n        /* \"#utility.yul\":4603:4607   */\n      0x11\n        /* \"#utility.yul\":4600:4601   */\n      0x04\n        /* \"#utility.yul\":4593:4608   */\n      mstore\n        /* \"#utility.yul\":4627:4631   */\n      0x24\n        /* \"#utility.yul\":4624:4625   */\n      0x00\n        /* \"#utility.yul\":4617:4632   */\n      revert\n        /* \"#utility.yul\":4644:4815   */\n    tag_70:\n        /* \"#utility.yul\":4683:4686   */\n      0x00\n        /* \"#utility.yul\":4706:4730   */\n      tag_211\n        /* \"#utility.yul\":4724:4729   */\n      dup3\n        /* \"#utility.yul\":4706:4730   */\n      tag_143\n      jump\t// in\n    tag_211:\n        /* \"#utility.yul\":4697:4730   */\n      swap2\n      pop\n        /* \"#utility.yul\":4752:4756   */\n      0x00\n        /* \"#utility.yul\":4745:4750   */\n      dup3\n        /* \"#utility.yul\":4742:4757   */\n      sub\n        /* \"#utility.yul\":4739:4780   */\n      tag_212\n      jumpi\n        /* \"#utility.yul\":4760:4778   */\n      tag_213\n      tag_155\n      jump\t// in\n    tag_213:\n        /* \"#utility.yul\":4739:4780   */\n    tag_212:\n        /* \"#utility.yul\":4807:4808   */\n      0x01\n        /* \"#utility.yul\":4800:4805   */\n      dup3\n        /* \"#utility.yul\":4796:4809   */\n      sub\n        /* \"#utility.yul\":4789:4809   */\n      swap1\n      pop\n        /* \"#utility.yul\":4644:4815   */\n      swap2\n      swap1\n      pop\n      jump\t// out\n        /* \"#utility.yul\":4821:5015   */\n    tag_72:\n        /* \"#utility.yul\":4861:4865   */\n      0x00\n        /* \"#utility.yul\":4881:4901   */\n      tag_215\n        /* \"#utility.yul\":4899:4900   */\n      dup3\n        /* \"#utility.yul\":4881:4901   */\n      tag_143\n      jump\t// in\n    tag_215:\n        /* \"#utility.yul\":4876:4901   */\n      swap2\n      pop\n        /* \"#utility.yul\":4915:4935   */\n      tag_216\n        /* \"#utility.yul\":4933:4934   */\n      dup4\n        /* \"#utility.yul\":4915:4935   */\n      tag_143\n      jump\t// in\n    tag_216:\n        /* \"#utility.yul\":4910:4935   */\n      swap3\n      pop\n        /* \"#utility.yul\":4959:4960   */\n      dup3\n        /* \"#utility.yul\":4956:4957   */\n      dup3\n        /* \"#utility.yul\":4952:4961   */\n      sub\n        /* \"#utility.yul\":4944:4961   */\n      swap1\n      pop\n        /* \"#utility.yul\":4983:4984   */\n      dup2\n        /* \"#utility.yul\":4977:4981   */\n      dup2\n        /* \"#utility.yul\":4974:4985   */\n      gt\n        /* \"#utility.yul\":4971:5008   */\n      iszero\n      tag_217\n      jumpi\n        /* \"#utility.yul\":4988:5006   */\n      tag_218\n      tag_155\n      jump\t// in\n    tag_218:\n        /* \"#utility.yul\":4971:5008   */\n    tag_217:\n        /* \"#utility.yul\":4821:5015   */\n      swap3\n      swap2\n      pop\n      pop\n      jump\t// out\n        /* \"#utility.yul\":5021:5265   */\n    tag_156:\n        /* \"#utility.yul\":5161:5195   */\n      0x596f752063616e2774207475726e206f66662074686520656e67696e65207768\n        /* \"#utility.yul\":5157:5158   */\n      0x00\n        /* \"#utility.yul\":5149:5155   */\n      dup3\n        /* \"#utility.yul\":5145:5159   */\n      add\n        /* \"#utility.yul\":5138:5196   */\n      mstore\n        /* \"#utility.yul\":5230:5257   */\n      0x696c65207468652063617220697320696e206d6f74696f6e2e00000000000000\n        /* \"#utility.yul\":5225:5227   */\n      0x20\n        /* \"#utility.yul\":5217:5223   */\n      dup3\n        /* \"#utility.yul\":5213:5228   */\n      add\n        /* \"#utility.yul\":5206:5258   */\n      mstore\n        /* \"#utility.yul\":5021:5265   */\n      pop\n      jump\t// out\n        /* \"#utility.yul\":5271:5637   */\n    tag_157:\n        /* \"#utility.yul\":5413:5416   */\n      0x00\n        /* \"#utility.yul\":5434:5501   */\n      tag_221\n        /* \"#utility.yul\":5498:5500   */\n      0x39\n        /* \"#utility.yul\":5493:5496   */\n      dup4\n        /* \"#utility.yul\":5434:5501   */\n      tag_150\n      jump\t// in\n    tag_221:\n        /* \"#utility.yul\":5427:5501   */\n      swap2\n      pop\n        /* \"#utility.yul\":5510:5603   */\n      tag_222\n        /* \"#utility.yul\":5599:5602   */\n      dup3\n        /* \"#utility.yul\":5510:5603   */\n      tag_156\n      jump\t// in\n    tag_222:\n        /* \"#utility.yul\":5628:5630   */\n      0x40\n        /* \"#utility.yul\":5623:5626   */\n      dup3\n        /* \"#utility.yul\":5619:5631   */\n      add\n        /* \"#utility.yul\":5612:5631   */\n      swap1\n      pop\n        /* \"#utility.yul\":5271:5637   */\n      swap2\n      swap1\n      pop\n      jump\t// out\n        /* \"#utility.yul\":5643:6062   */\n    tag_80:\n        /* \"#utility.yul\":5809:5813   */\n      0x00\n        /* \"#utility.yul\":5847:5849   */\n      0x20\n        /* \"#utility.yul\":5836:5845   */\n      dup3\n        /* \"#utility.yul\":5832:5850   */\n      add\n        /* \"#utility.yul\":5824:5850   */\n      swap1\n      pop\n        /* \"#utility.yul\":5896:5905   */\n      dup2\n        /* \"#utility.yul\":5890:5894   */\n      dup2\n        /* \"#utility.yul\":5886:5906   */\n      sub\n        /* \"#utility.yul\":5882:5883   */\n      0x00\n        /* \"#utility.yul\":5871:5880   */\n      dup4\n        /* \"#utility.yul\":5867:5884   */\n      add\n        /* \"#utility.yul\":5860:5907   */\n      mstore\n        /* \"#utility.yul\":5924:6055   */\n      tag_224\n        /* \"#utility.yul\":6050:6054   */\n      dup2\n        /* \"#utility.yul\":5924:6055   */\n      tag_157\n      jump\t// in\n    tag_224:\n        /* \"#utility.yul\":5916:6055   */\n      swap1\n      pop\n        /* \"#utility.yul\":5643:6062   */\n      swap2\n      swap1\n      pop\n      jump\t// out\n        /* \"#utility.yul\":6068:6225   */\n    tag_158:\n        /* \"#utility.yul\":6208:6217   */\n      0x676f206261636b00000000000000000000000000000000000000000000000000\n        /* \"#utility.yul\":6204:6205   */\n      0x00\n        /* \"#utility.yul\":6196:6202   */\n      dup3\n        /* \"#utility.yul\":6192:6206   */\n      add\n        /* \"#utility.yul\":6185:6218   */\n      mstore\n        /* \"#utility.yul\":6068:6225   */\n      pop\n      jump\t// out\n        /* \"#utility.yul\":6231:6596   */\n    tag_159:\n        /* \"#utility.yul\":6373:6376   */\n      0x00\n        /* \"#utility.yul\":6394:6460   */\n      tag_227\n        /* \"#utility.yul\":6458:6459   */\n      0x07\n        /* \"#utility.yul\":6453:6456   */\n      dup4\n        /* \"#utility.yul\":6394:6460   */\n      tag_150\n      jump\t// in\n    tag_227:\n        /* \"#utility.yul\":6387:6460   */\n      swap2\n      pop\n        /* \"#utility.yul\":6469:6562   */\n      tag_228\n        /* \"#utility.yul\":6558:6561   */\n      dup3\n        /* \"#utility.yul\":6469:6562   */\n      tag_158\n      jump\t// in\n    tag_228:\n        /* \"#utility.yul\":6587:6589   */\n      0x20\n        /* \"#utility.yul\":6582:6585   */\n      dup3\n        /* \"#utility.yul\":6578:6590   */\n      add\n        /* \"#utility.yul\":6571:6590   */\n      swap1\n      pop\n        /* \"#utility.yul\":6231:6596   */\n      swap2\n      swap1\n      pop\n      jump\t// out\n        /* \"#utility.yul\":6602:7021   */\n    tag_92:\n        /* \"#utility.yul\":6768:6772   */\n      0x00\n        /* \"#utility.yul\":6806:6808   */\n      0x20\n        /* \"#utility.yul\":6795:6804   */\n      dup3\n        /* \"#utility.yul\":6791:6809   */\n      add\n        /* \"#utility.yul\":6783:6809   */\n      swap1\n      pop\n        /* \"#utility.yul\":6855:6864   */\n      dup2\n        /* \"#utility.yul\":6849:6853   */\n      dup2\n        /* \"#utility.yul\":6845:6865   */\n      sub\n        /* \"#utility.yul\":6841:6842   */\n      0x00\n        /* \"#utility.yul\":6830:6839   */\n      dup4\n        /* \"#utility.yul\":6826:6843   */\n      add\n        /* \"#utility.yul\":6819:6866   */\n      mstore\n        /* \"#utility.yul\":6883:7014   */\n      tag_230\n        /* \"#utility.yul\":7009:7013   */\n      dup2\n        /* \"#utility.yul\":6883:7014   */\n      tag_159\n      jump\t// in\n    tag_230:\n        /* \"#utility.yul\":6875:7014   */\n      swap1\n      pop\n        /* \"#utility.yul\":6602:7021   */\n      swap2\n      swap1\n      pop\n      jump\t// out\n        /* \"#utility.yul\":7027:7218   */\n    tag_94:\n        /* \"#utility.yul\":7067:7070   */\n      0x00\n        /* \"#utility.yul\":7086:7106   */\n      tag_232\n        /* \"#utility.yul\":7104:7105   */\n      dup3\n        /* \"#utility.yul\":7086:7106   */\n      tag_143\n      jump\t// in\n    tag_232:\n        /* \"#utility.yul\":7081:7106   */\n      swap2\n      pop\n        /* \"#utility.yul\":7120:7140   */\n      tag_233\n        /* \"#utility.yul\":7138:7139   */\n      dup4\n        /* \"#utility.yul\":7120:7140   */\n      tag_143\n      jump\t// in\n    tag_233:\n        /* \"#utility.yul\":7115:7140   */\n      swap3\n      pop\n        /* \"#utility.yul\":7163:7164   */\n      dup3\n        /* \"#utility.yul\":7160:7161   */\n      dup3\n        /* \"#utility.yul\":7156:7165   */\n      add\n        /* \"#utility.yul\":7149:7165   */\n      swap1\n      pop\n        /* \"#utility.yul\":7184:7187   */\n      dup1\n        /* \"#utility.yul\":7181:7182   */\n      dup3\n        /* \"#utility.yul\":7178:7188   */\n      gt\n        /* \"#utility.yul\":7175:7211   */\n      iszero\n      tag_234\n      jumpi\n        /* \"#utility.yul\":7191:7209   */\n      tag_235\n      tag_155\n      jump\t// in\n    tag_235:\n        /* \"#utility.yul\":7175:7211   */\n    tag_234:\n        /* \"#utility.yul\":7027:7218   */\n      swap3\n      swap2\n      pop\n      pop\n      jump\t// out\n        /* \"#utility.yul\":7224:7402   */\n    tag_160:\n        /* \"#utility.yul\":7364:7394   */\n      0x43616e6e6f742072656675656c207768696c652064726976696e672e00000000\n        /* \"#utility.yul\":7360:7361   */\n      0x00\n        /* \"#utility.yul\":7352:7358   */\n      dup3\n        /* \"#utility.yul\":7348:7362   */\n      add\n        /* \"#utility.yul\":7341:7395   */\n      mstore\n        /* \"#utility.yul\":7224:7402   */\n      pop\n      jump\t// out\n        /* \"#utility.yul\":7408:7774   */\n    tag_161:\n        /* \"#utility.yul\":7550:7553   */\n      0x00\n        /* \"#utility.yul\":7571:7638   */\n      tag_238\n        /* \"#utility.yul\":7635:7637   */\n      0x1c\n        /* \"#utility.yul\":7630:7633   */\n      dup4\n        /* \"#utility.yul\":7571:7638   */\n      tag_150\n      jump\t// in\n    tag_238:\n        /* \"#utility.yul\":7564:7638   */\n      swap2\n      pop\n        /* \"#utility.yul\":7647:7740   */\n      tag_239\n        /* \"#utility.yul\":7736:7739   */\n      dup3\n        /* \"#utility.yul\":7647:7740   */\n      tag_160\n      jump\t// in\n    tag_239:\n        /* \"#utility.yul\":7765:7767   */\n      0x20\n        /* \"#utility.yul\":7760:7763   */\n      dup3\n        /* \"#utility.yul\":7756:7768   */\n      add\n        /* \"#utility.yul\":7749:7768   */\n      swap1\n      pop\n        /* \"#utility.yul\":7408:7774   */\n      swap2\n      swap1\n      pop\n      jump\t// out\n        /* \"#utility.yul\":7780:8199   */\n    tag_103:\n        /* \"#utility.yul\":7946:7950   */\n      0x00\n        /* \"#utility.yul\":7984:7986   */\n      0x20\n        /* \"#utility.yul\":7973:7982   */\n      dup3\n        /* \"#utility.yul\":7969:7987   */\n      add\n        /* \"#utility.yul\":7961:7987   */\n      swap1\n      pop\n        /* \"#utility.yul\":8033:8042   */\n      dup2\n        /* \"#utility.yul\":8027:8031   */\n      dup2\n        /* \"#utility.yul\":8023:8043   */\n      sub\n        /* \"#utility.yul\":8019:8020   */\n      0x00\n        /* \"#utility.yul\":8008:8017   */\n      dup4\n        /* \"#utility.yul\":8004:8021   */\n      add\n        /* \"#utility.yul\":7997:8044   */\n      mstore\n        /* \"#utility.yul\":8061:8192   */\n      tag_241\n        /* \"#utility.yul\":8187:8191   */\n      dup2\n        /* \"#utility.yul\":8061:8192   */\n      tag_161\n      jump\t// in\n    tag_241:\n        /* \"#utility.yul\":8053:8192   */\n      swap1\n      pop\n        /* \"#utility.yul\":7780:8199   */\n      swap2\n      swap1\n      pop\n      jump\t// out\n        /* \"#utility.yul\":8205:8384   */\n    tag_162:\n        /* \"#utility.yul\":8345:8376   */\n      0x4974277320616c726561647920746f6f206661737420656e6f7567682e000000\n        /* \"#utility.yul\":8341:8342   */\n      0x00\n        /* \"#utility.yul\":8333:8339   */\n      dup3\n        /* \"#utility.yul\":8329:8343   */\n      add\n        /* \"#utility.yul\":8322:8377   */\n      mstore\n        /* \"#utility.yul\":8205:8384   */\n      pop\n      jump\t// out\n        /* \"#utility.yul\":8390:8756   */\n    tag_163:\n        /* \"#utility.yul\":8532:8535   */\n      0x00\n        /* \"#utility.yul\":8553:8620   */\n      tag_244\n        /* \"#utility.yul\":8617:8619   */\n      0x1d\n        /* \"#utility.yul\":8612:8615   */\n      dup4\n        /* \"#utility.yul\":8553:8620   */\n      tag_150\n      jump\t// in\n    tag_244:\n        /* \"#utility.yul\":8546:8620   */\n      swap2\n      pop\n        /* \"#utility.yul\":8629:8722   */\n      tag_245\n        /* \"#utility.yul\":8718:8721   */\n      dup3\n        /* \"#utility.yul\":8629:8722   */\n      tag_162\n      jump\t// in\n    tag_245:\n        /* \"#utility.yul\":8747:8749   */\n      0x20\n        /* \"#utility.yul\":8742:8745   */\n      dup3\n        /* \"#utility.yul\":8738:8750   */\n      add\n        /* \"#utility.yul\":8731:8750   */\n      swap1\n      pop\n        /* \"#utility.yul\":8390:8756   */\n      swap2\n      swap1\n      pop\n      jump\t// out\n        /* \"#utility.yul\":8762:9181   */\n    tag_113:\n        /* \"#utility.yul\":8928:8932   */\n      0x00\n        /* \"#utility.yul\":8966:8968   */\n      0x20\n        /* \"#utility.yul\":8955:8964   */\n      dup3\n        /* \"#utility.yul\":8951:8969   */\n      add\n        /* \"#utility.yul\":8943:8969   */\n      swap1\n      pop\n        /* \"#utility.yul\":9015:9024   */\n      dup2\n        /* \"#utility.yul\":9009:9013   */\n      dup2\n        /* \"#utility.yul\":9005:9025   */\n      sub\n        /* \"#utility.yul\":9001:9002   */\n      0x00\n        /* \"#utility.yul\":8990:8999   */\n      dup4\n        /* \"#utility.yul\":8986:9003   */\n      add\n        /* \"#utility.yul\":8979:9026   */\n      mstore\n        /* \"#utility.yul\":9043:9174   */\n      tag_247\n        /* \"#utility.yul\":9169:9173   */\n      dup2\n        /* \"#utility.yul\":9043:9174   */\n      tag_163\n      jump\t// in\n    tag_247:\n        /* \"#utility.yul\":9035:9174   */\n      swap1\n      pop\n        /* \"#utility.yul\":8762:9181   */\n      swap2\n      swap1\n      pop\n      jump\t// out\n        /* \"#utility.yul\":9187:9356   */\n    tag_164:\n        /* \"#utility.yul\":9327:9348   */\n      0x4d6f7265206675656c206973206e656564656400000000000000000000000000\n        /* \"#utility.yul\":9323:9324   */\n      0x00\n        /* \"#utility.yul\":9315:9321   */\n      dup3\n        /* \"#utility.yul\":9311:9325   */\n      add\n        /* \"#utility.yul\":9304:9349   */\n      mstore\n        /* \"#utility.yul\":9187:9356   */\n      pop\n      jump\t// out\n        /* \"#utility.yul\":9362:9728   */\n    tag_165:\n        /* \"#utility.yul\":9504:9507   */\n      0x00\n        /* \"#utility.yul\":9525:9592   */\n      tag_250\n        /* \"#utility.yul\":9589:9591   */\n      0x13\n        /* \"#utility.yul\":9584:9587   */\n      dup4\n        /* \"#utility.yul\":9525:9592   */\n      tag_150\n      jump\t// in\n    tag_250:\n        /* \"#utility.yul\":9518:9592   */\n      swap2\n      pop\n        /* \"#utility.yul\":9601:9694   */\n      tag_251\n        /* \"#utility.yul\":9690:9693   */\n      dup3\n        /* \"#utility.yul\":9601:9694   */\n      tag_164\n      jump\t// in\n    tag_251:\n        /* \"#utility.yul\":9719:9721   */\n      0x20\n        /* \"#utility.yul\":9714:9717   */\n      dup3\n        /* \"#utility.yul\":9710:9722   */\n      add\n        /* \"#utility.yul\":9703:9722   */\n      swap1\n      pop\n        /* \"#utility.yul\":9362:9728   */\n      swap2\n      swap1\n      pop\n      jump\t// out\n        /* \"#utility.yul\":9734:10153   */\n    tag_116:\n        /* \"#utility.yul\":9900:9904   */\n      0x00\n        /* \"#utility.yul\":9938:9940   */\n      0x20\n        /* \"#utility.yul\":9927:9936   */\n      dup3\n        /* \"#utility.yul\":9923:9941   */\n      add\n        /* \"#utility.yul\":9915:9941   */\n      swap1\n      pop\n        /* \"#utility.yul\":9987:9996   */\n      dup2\n        /* \"#utility.yul\":9981:9985   */\n      dup2\n        /* \"#utility.yul\":9977:9997   */\n      sub\n        /* \"#utility.yul\":9973:9974   */\n      0x00\n        /* \"#utility.yul\":9962:9971   */\n      dup4\n        /* \"#utility.yul\":9958:9975   */\n      add\n        /* \"#utility.yul\":9951:9998   */\n      mstore\n        /* \"#utility.yul\":10015:10146   */\n      tag_253\n        /* \"#utility.yul\":10141:10145   */\n      dup2\n        /* \"#utility.yul\":10015:10146   */\n      tag_165\n      jump\t// in\n    tag_253:\n        /* \"#utility.yul\":10007:10146   */\n      swap1\n      pop\n        /* \"#utility.yul\":9734:10153   */\n      swap2\n      swap1\n      pop\n      jump\t// out\n        /* \"#utility.yul\":10159:10392   */\n    tag_137:\n        /* \"#utility.yul\":10198:10201   */\n      0x00\n        /* \"#utility.yul\":10221:10245   */\n      tag_255\n        /* \"#utility.yul\":10239:10244   */\n      dup3\n        /* \"#utility.yul\":10221:10245   */\n      tag_143\n      jump\t// in\n    tag_255:\n        /* \"#utility.yul\":10212:10245   */\n      swap2\n      pop\n        /* \"#utility.yul\":10267:10333   */\n      0xffffffffffffffffffffffffffffffffffffffffffffffffffffffffffffffff\n        /* \"#utility.yul\":10260:10265   */\n      dup3\n        /* \"#utility.yul\":10257:10334   */\n      sub\n        /* \"#utility.yul\":10254:10357   */\n      tag_256\n      jumpi\n        /* \"#utility.yul\":10337:10355   */\n      tag_257\n      tag_155\n      jump\t// in\n    tag_257:\n        /* \"#utility.yul\":10254:10357   */\n    tag_256:\n        /* \"#utility.yul\":10384:10385   */\n      0x01\n        /* \"#utility.yul\":10377:10382   */\n      dup3\n        /* \"#utility.yul\":10373:10386   */\n      add\n        /* \"#utility.yul\":10366:10386   */\n      swap1\n      pop\n        /* \"#utility.yul\":10159:10392   */\n      swap2\n      swap1\n      pop\n      jump\t// out\n\n    auxdata: 0xa2646970667358221220e2528b52d5385f316ca0c4ce7cc6f1dd9015a94292929c73732d1adc1ca00dee64736f6c63430008160033\n}\n",
				"bytecode": {
					"linkReferences": {},
					"object": "608060405234801561000f575f80fd5b5060025f806101000a81548160ff02191690836003811115610034576100336100a0565b5b02179055505f6001819055505f60028190555073ab8483f64d9c6d1ecf9b849ae677dd3315835cb260045f6101000a81548173ffffffffffffffffffffffffffffffffffffffff021916908373ffffffffffffffffffffffffffffffffffffffff1602179055506100cd565b7f4e487b71000000000000000000000000000000000000000000000000000000005f52602160045260245ffd5b610d09806100da5f395ff3fe608060405260043610610090575f3560e01c8063bbf7555611610058578063bbf7555614610118578063d0e30db014610140578063d93737ca1461014a578063f56df7c614610172578063f9ef71b91461017c57610090565b806334435025146100945780633ccfd60b146100aa57806350e72f61146100c057806378dda193146100d65780639200560314610102575b5f80fd5b34801561009f575f80fd5b506100a8610192565b005b3480156100b5575f80fd5b506100be6101f5565b005b3480156100cb575f80fd5b506100d461025c565b005b3480156100e1575f80fd5b506100ea610376565b6040516100f993929190610836565b60405180910390f35b34801561010d575f80fd5b50610116610398565b005b348015610123575f80fd5b5061013e60048036038101906101399190610899565b61043f565b005b610148610449565b005b348015610155575f80fd5b50610170600480360381019061016b9190610899565b6104ad565b005b61017a6104b7565b005b348015610187575f80fd5b506101906105d4565b005b600260038111156101a6576101a56107ab565b5b5f8054906101000a900460ff1660038111156101c5576101c46107ab565b5b036101f3575f805f6101000a81548160ff021916908360038111156101ed576101ec6107ab565b5b02179055505b565b60045f9054906101000a900473ffffffffffffffffffffffffffffffffffffffff1673ffffffffffffffffffffffffffffffffffffffff166108fc4790811502906040515f60405180830381858888f19350505050158015610259573d5f803e3d5ffd5b50565b5f600154116102a0576040517f08c379a00000000000000000000000000000000000000000000000000000000081526004016102979061091e565b60405180910390fd5b600160038111156102b4576102b36107ab565b5b5f8054906101000a900460ff1660038111156102d3576102d26107ab565b5b14610313576040517f08c379a000000000000000000000000000000000000000000000000000000000815260040161030a90610986565b60405180910390fd5b60015f815480929190610325906109d1565b91905055506002805f82825461033b91906109f8565b925050819055505f60015403610374575f805f6101000a81548160ff0219169083600381111561036e5761036d6107ab565b5b02179055505b565b5f805f805f9054906101000a900460ff16600154600254925092509250909192565b5f600154146103dc576040517f08c379a00000000000000000000000000000000000000000000000000000000081526004016103d390610a9b565b60405180910390fd5b5f60038111156103ef576103ee6107ab565b5b5f8054906101000a900460ff16600381111561040e5761040d6107ab565b5b0361043d5760025f806101000a81548160ff02191690836003811115610437576104366107ab565b5b02179055505b565b8060018190555050565b670de0b6b3a76400003414610493576040517f08c379a000000000000000000000000000000000000000000000000000000000815260040161048a90610b03565b60405180910390fd5b3460055f8282546104a49190610b21565b92505081905550565b8060028190555050565b600260038111156104cb576104ca6107ab565b5b5f8054906101000a900460ff1660038111156104ea576104e96107ab565b5b1461052a576040517f08c379a000000000000000000000000000000000000000000000000000000000815260040161052190610b9e565b60405180910390fd5b670de0b6b3a764000060055410158061054a5750670de0b6b3a764000034145b610589576040517f08c379a000000000000000000000000000000000000000000000000000000000815260040161058090610b03565b60405180910390fd5b670de0b6b3a764000034146105b957670de0b6b3a764000060055f8282546105b191906109f8565b925050819055505b606460025f8282546105cb9190610b21565b92505081905550565b604660015410610619576040517f08c379a000000000000000000000000000000000000000000000000000000000815260040161061090610c06565b60405180910390fd5b601e6002541161065e576040517f08c379a000000000000000000000000000000000000000000000000000000000815260040161065590610c6e565b60405180910390fd5b5f6003811115610671576106706107ab565b5b5f8054906101000a900460ff1660038111156106905761068f6107ab565b5b14806106cc5750600160038111156106ab576106aa6107ab565b5b5f8054906101000a900460ff1660038111156106ca576106c96107ab565b5b145b61070b576040517f08c379a000000000000000000000000000000000000000000000000000000000815260040161070290610986565b60405180910390fd5b5f60015414801561074b57505f600381111561072a576107296107ab565b5b5f8054906101000a900460ff166003811115610749576107486107ab565b5b145b1561077a5760015f806101000a81548160ff02191690836003811115610774576107736107ab565b5b02179055505b60015f81548092919061078c90610c8c565b91905055506002805f8282546107a291906109f8565b92505081905550565b7f4e487b71000000000000000000000000000000000000000000000000000000005f52602160045260245ffd5b600481106107e9576107e86107ab565b5b50565b5f8190506107f9826107d8565b919050565b5f610808826107ec565b9050919050565b610818816107fe565b82525050565b5f819050919050565b6108308161081e565b82525050565b5f6060820190506108495f83018661080f565b6108566020830185610827565b6108636040830184610827565b949350505050565b5f80fd5b6108788161081e565b8114610882575f80fd5b50565b5f813590506108938161086f565b92915050565b5f602082840312156108ae576108ad61086b565b5b5f6108bb84828501610885565b91505092915050565b5f82825260208201905092915050565b7f5468652076656c6f6369747920697320616c726561647920302e0000000000005f82015250565b5f610908601a836108c4565b9150610913826108d4565b602082019050919050565b5f6020820190508181035f830152610935816108fc565b9050919050565b7f54686520636172206973206e6f74206d6f76696e672e000000000000000000005f82015250565b5f6109706016836108c4565b915061097b8261093c565b602082019050919050565b5f6020820190508181035f83015261099d81610964565b9050919050565b7f4e487b71000000000000000000000000000000000000000000000000000000005f52601160045260245ffd5b5f6109db8261081e565b91505f82036109ed576109ec6109a4565b5b600182039050919050565b5f610a028261081e565b9150610a0d8361081e565b9250828203905081811115610a2557610a246109a4565b5b92915050565b7f596f752063616e2774207475726e206f66662074686520656e67696e652077685f8201527f696c65207468652063617220697320696e206d6f74696f6e2e00000000000000602082015250565b5f610a856039836108c4565b9150610a9082610a2b565b604082019050919050565b5f6020820190508181035f830152610ab281610a79565b9050919050565b7f676f206261636b000000000000000000000000000000000000000000000000005f82015250565b5f610aed6007836108c4565b9150610af882610ab9565b602082019050919050565b5f6020820190508181035f830152610b1a81610ae1565b9050919050565b5f610b2b8261081e565b9150610b368361081e565b9250828201905080821115610b4e57610b4d6109a4565b5b92915050565b7f43616e6e6f742072656675656c207768696c652064726976696e672e000000005f82015250565b5f610b88601c836108c4565b9150610b9382610b54565b602082019050919050565b5f6020820190508181035f830152610bb581610b7c565b9050919050565b7f4974277320616c726561647920746f6f206661737420656e6f7567682e0000005f82015250565b5f610bf0601d836108c4565b9150610bfb82610bbc565b602082019050919050565b5f6020820190508181035f830152610c1d81610be4565b9050919050565b7f4d6f7265206675656c206973206e6565646564000000000000000000000000005f82015250565b5f610c586013836108c4565b9150610c6382610c24565b602082019050919050565b5f6020820190508181035f830152610c8581610c4c565b9050919050565b5f610c968261081e565b91507fffffffffffffffffffffffffffffffffffffffffffffffffffffffffffffffff8203610cc857610cc76109a4565b5b60018201905091905056fea2646970667358221220e2528b52d5385f316ca0c4ce7cc6f1dd9015a94292929c73732d1adc1ca00dee64736f6c63430008160033",
					"opcodes": "PUSH1 0x80 PUSH1 0x40 MSTORE CALLVALUE DUP1 ISZERO PUSH2 0xF JUMPI PUSH0 DUP1 REVERT JUMPDEST POP PUSH1 0x2 PUSH0 DUP1 PUSH2 0x100 EXP DUP2 SLOAD DUP2 PUSH1 0xFF MUL NOT AND SWAP1 DUP4 PUSH1 0x3 DUP2 GT ISZERO PUSH2 0x34 JUMPI PUSH2 0x33 PUSH2 0xA0 JUMP JUMPDEST JUMPDEST MUL OR SWAP1 SSTORE POP PUSH0 PUSH1 0x1 DUP2 SWAP1 SSTORE POP PUSH0 PUSH1 0x2 DUP2 SWAP1 SSTORE POP PUSH20 0xAB8483F64D9C6D1ECF9B849AE677DD3315835CB2 PUSH1 0x4 PUSH0 PUSH2 0x100 EXP DUP2 SLOAD DUP2 PUSH20 0xFFFFFFFFFFFFFFFFFFFFFFFFFFFFFFFFFFFFFFFF MUL NOT AND SWAP1 DUP4 PUSH20 0xFFFFFFFFFFFFFFFFFFFFFFFFFFFFFFFFFFFFFFFF AND MUL OR SWAP1 SSTORE POP PUSH2 0xCD JUMP JUMPDEST PUSH32 0x4E487B7100000000000000000000000000000000000000000000000000000000 PUSH0 MSTORE PUSH1 0x21 PUSH1 0x4 MSTORE PUSH1 0x24 PUSH0 REVERT JUMPDEST PUSH2 0xD09 DUP1 PUSH2 0xDA PUSH0 CODECOPY PUSH0 RETURN INVALID PUSH1 0x80 PUSH1 0x40 MSTORE PUSH1 0x4 CALLDATASIZE LT PUSH2 0x90 JUMPI PUSH0 CALLDATALOAD PUSH1 0xE0 SHR DUP1 PUSH4 0xBBF75556 GT PUSH2 0x58 JUMPI DUP1 PUSH4 0xBBF75556 EQ PUSH2 0x118 JUMPI DUP1 PUSH4 0xD0E30DB0 EQ PUSH2 0x140 JUMPI DUP1 PUSH4 0xD93737CA EQ PUSH2 0x14A JUMPI DUP1 PUSH4 0xF56DF7C6 EQ PUSH2 0x172 JUMPI DUP1 PUSH4 0xF9EF71B9 EQ PUSH2 0x17C JUMPI PUSH2 0x90 JUMP JUMPDEST DUP1 PUSH4 0x34435025 EQ PUSH2 0x94 JUMPI DUP1 PUSH4 0x3CCFD60B EQ PUSH2 0xAA JUMPI DUP1 PUSH4 0x50E72F61 EQ PUSH2 0xC0 JUMPI DUP1 PUSH4 0x78DDA193 EQ PUSH2 0xD6 JUMPI DUP1 PUSH4 0x92005603 EQ PUSH2 0x102 JUMPI JUMPDEST PUSH0 DUP1 REVERT JUMPDEST CALLVALUE DUP1 ISZERO PUSH2 0x9F JUMPI PUSH0 DUP1 REVERT JUMPDEST POP PUSH2 0xA8 PUSH2 0x192 JUMP JUMPDEST STOP JUMPDEST CALLVALUE DUP1 ISZERO PUSH2 0xB5 JUMPI PUSH0 DUP1 REVERT JUMPDEST POP PUSH2 0xBE PUSH2 0x1F5 JUMP JUMPDEST STOP JUMPDEST CALLVALUE DUP1 ISZERO PUSH2 0xCB JUMPI PUSH0 DUP1 REVERT JUMPDEST POP PUSH2 0xD4 PUSH2 0x25C JUMP JUMPDEST STOP JUMPDEST CALLVALUE DUP1 ISZERO PUSH2 0xE1 JUMPI PUSH0 DUP1 REVERT JUMPDEST POP PUSH2 0xEA PUSH2 0x376 JUMP JUMPDEST PUSH1 0x40 MLOAD PUSH2 0xF9 SWAP4 SWAP3 SWAP2 SWAP1 PUSH2 0x836 JUMP JUMPDEST PUSH1 0x40 MLOAD DUP1 SWAP2 SUB SWAP1 RETURN JUMPDEST CALLVALUE DUP1 ISZERO PUSH2 0x10D JUMPI PUSH0 DUP1 REVERT JUMPDEST POP PUSH2 0x116 PUSH2 0x398 JUMP JUMPDEST STOP JUMPDEST CALLVALUE DUP1 ISZERO PUSH2 0x123 JUMPI PUSH0 DUP1 REVERT JUMPDEST POP PUSH2 0x13E PUSH1 0x4 DUP1 CALLDATASIZE SUB DUP2 ADD SWAP1 PUSH2 0x139 SWAP2 SWAP1 PUSH2 0x899 JUMP JUMPDEST PUSH2 0x43F JUMP JUMPDEST STOP JUMPDEST PUSH2 0x148 PUSH2 0x449 JUMP JUMPDEST STOP JUMPDEST CALLVALUE DUP1 ISZERO PUSH2 0x155 JUMPI PUSH0 DUP1 REVERT JUMPDEST POP PUSH2 0x170 PUSH1 0x4 DUP1 CALLDATASIZE SUB DUP2 ADD SWAP1 PUSH2 0x16B SWAP2 SWAP1 PUSH2 0x899 JUMP JUMPDEST PUSH2 0x4AD JUMP JUMPDEST STOP JUMPDEST PUSH2 0x17A PUSH2 0x4B7 JUMP JUMPDEST STOP JUMPDEST CALLVALUE DUP1 ISZERO PUSH2 0x187 JUMPI PUSH0 DUP1 REVERT JUMPDEST POP PUSH2 0x190 PUSH2 0x5D4 JUMP JUMPDEST STOP JUMPDEST PUSH1 0x2 PUSH1 0x3 DUP2 GT ISZERO PUSH2 0x1A6 JUMPI PUSH2 0x1A5 PUSH2 0x7AB JUMP JUMPDEST JUMPDEST PUSH0 DUP1 SLOAD SWAP1 PUSH2 0x100 EXP SWAP1 DIV PUSH1 0xFF AND PUSH1 0x3 DUP2 GT ISZERO PUSH2 0x1C5 JUMPI PUSH2 0x1C4 PUSH2 0x7AB JUMP JUMPDEST JUMPDEST SUB PUSH2 0x1F3 JUMPI PUSH0 DUP1 PUSH0 PUSH2 0x100 EXP DUP2 SLOAD DUP2 PUSH1 0xFF MUL NOT AND SWAP1 DUP4 PUSH1 0x3 DUP2 GT ISZERO PUSH2 0x1ED JUMPI PUSH2 0x1EC PUSH2 0x7AB JUMP JUMPDEST JUMPDEST MUL OR SWAP1 SSTORE POP JUMPDEST JUMP JUMPDEST PUSH1 0x4 PUSH0 SWAP1 SLOAD SWAP1 PUSH2 0x100 EXP SWAP1 DIV PUSH20 0xFFFFFFFFFFFFFFFFFFFFFFFFFFFFFFFFFFFFFFFF AND PUSH20 0xFFFFFFFFFFFFFFFFFFFFFFFFFFFFFFFFFFFFFFFF AND PUSH2 0x8FC SELFBALANCE SWAP1 DUP2 ISZERO MUL SWAP1 PUSH1 0x40 MLOAD PUSH0 PUSH1 0x40 MLOAD DUP1 DUP4 SUB DUP2 DUP6 DUP9 DUP9 CALL SWAP4 POP POP POP POP ISZERO DUP1 ISZERO PUSH2 0x259 JUMPI RETURNDATASIZE PUSH0 DUP1 RETURNDATACOPY RETURNDATASIZE PUSH0 REVERT JUMPDEST POP JUMP JUMPDEST PUSH0 PUSH1 0x1 SLOAD GT PUSH2 0x2A0 JUMPI PUSH1 0x40 MLOAD PUSH32 0x8C379A000000000000000000000000000000000000000000000000000000000 DUP2 MSTORE PUSH1 0x4 ADD PUSH2 0x297 SWAP1 PUSH2 0x91E JUMP JUMPDEST PUSH1 0x40 MLOAD DUP1 SWAP2 SUB SWAP1 REVERT JUMPDEST PUSH1 0x1 PUSH1 0x3 DUP2 GT ISZERO PUSH2 0x2B4 JUMPI PUSH2 0x2B3 PUSH2 0x7AB JUMP JUMPDEST JUMPDEST PUSH0 DUP1 SLOAD SWAP1 PUSH2 0x100 EXP SWAP1 DIV PUSH1 0xFF AND PUSH1 0x3 DUP2 GT ISZERO PUSH2 0x2D3 JUMPI PUSH2 0x2D2 PUSH2 0x7AB JUMP JUMPDEST JUMPDEST EQ PUSH2 0x313 JUMPI PUSH1 0x40 MLOAD PUSH32 0x8C379A000000000000000000000000000000000000000000000000000000000 DUP2 MSTORE PUSH1 0x4 ADD PUSH2 0x30A SWAP1 PUSH2 0x986 JUMP JUMPDEST PUSH1 0x40 MLOAD DUP1 SWAP2 SUB SWAP1 REVERT JUMPDEST PUSH1 0x1 PUSH0 DUP2 SLOAD DUP1 SWAP3 SWAP2 SWAP1 PUSH2 0x325 SWAP1 PUSH2 0x9D1 JUMP JUMPDEST SWAP2 SWAP1 POP SSTORE POP PUSH1 0x2 DUP1 PUSH0 DUP3 DUP3 SLOAD PUSH2 0x33B SWAP2 SWAP1 PUSH2 0x9F8 JUMP JUMPDEST SWAP3 POP POP DUP2 SWAP1 SSTORE POP PUSH0 PUSH1 0x1 SLOAD SUB PUSH2 0x374 JUMPI PUSH0 DUP1 PUSH0 PUSH2 0x100 EXP DUP2 SLOAD DUP2 PUSH1 0xFF MUL NOT AND SWAP1 DUP4 PUSH1 0x3 DUP2 GT ISZERO PUSH2 0x36E JUMPI PUSH2 0x36D PUSH2 0x7AB JUMP JUMPDEST JUMPDEST MUL OR SWAP1 SSTORE POP JUMPDEST JUMP JUMPDEST PUSH0 DUP1 PUSH0 DUP1 PUSH0 SWAP1 SLOAD SWAP1 PUSH2 0x100 EXP SWAP1 DIV PUSH1 0xFF AND PUSH1 0x1 SLOAD PUSH1 0x2 SLOAD SWAP3 POP SWAP3 POP SWAP3 POP SWAP1 SWAP2 SWAP3 JUMP JUMPDEST PUSH0 PUSH1 0x1 SLOAD EQ PUSH2 0x3DC JUMPI PUSH1 0x40 MLOAD PUSH32 0x8C379A000000000000000000000000000000000000000000000000000000000 DUP2 MSTORE PUSH1 0x4 ADD PUSH2 0x3D3 SWAP1 PUSH2 0xA9B JUMP JUMPDEST PUSH1 0x40 MLOAD DUP1 SWAP2 SUB SWAP1 REVERT JUMPDEST PUSH0 PUSH1 0x3 DUP2 GT ISZERO PUSH2 0x3EF JUMPI PUSH2 0x3EE PUSH2 0x7AB JUMP JUMPDEST JUMPDEST PUSH0 DUP1 SLOAD SWAP1 PUSH2 0x100 EXP SWAP1 DIV PUSH1 0xFF AND PUSH1 0x3 DUP2 GT ISZERO PUSH2 0x40E JUMPI PUSH2 0x40D PUSH2 0x7AB JUMP JUMPDEST JUMPDEST SUB PUSH2 0x43D JUMPI PUSH1 0x2 PUSH0 DUP1 PUSH2 0x100 EXP DUP2 SLOAD DUP2 PUSH1 0xFF MUL NOT AND SWAP1 DUP4 PUSH1 0x3 DUP2 GT ISZERO PUSH2 0x437 JUMPI PUSH2 0x436 PUSH2 0x7AB JUMP JUMPDEST JUMPDEST MUL OR SWAP1 SSTORE POP JUMPDEST JUMP JUMPDEST DUP1 PUSH1 0x1 DUP2 SWAP1 SSTORE POP POP JUMP JUMPDEST PUSH8 0xDE0B6B3A7640000 CALLVALUE EQ PUSH2 0x493 JUMPI PUSH1 0x40 MLOAD PUSH32 0x8C379A000000000000000000000000000000000000000000000000000000000 DUP2 MSTORE PUSH1 0x4 ADD PUSH2 0x48A SWAP1 PUSH2 0xB03 JUMP JUMPDEST PUSH1 0x40 MLOAD DUP1 SWAP2 SUB SWAP1 REVERT JUMPDEST CALLVALUE PUSH1 0x5 PUSH0 DUP3 DUP3 SLOAD PUSH2 0x4A4 SWAP2 SWAP1 PUSH2 0xB21 JUMP JUMPDEST SWAP3 POP POP DUP2 SWAP1 SSTORE POP JUMP JUMPDEST DUP1 PUSH1 0x2 DUP2 SWAP1 SSTORE POP POP JUMP JUMPDEST PUSH1 0x2 PUSH1 0x3 DUP2 GT ISZERO PUSH2 0x4CB JUMPI PUSH2 0x4CA PUSH2 0x7AB JUMP JUMPDEST JUMPDEST PUSH0 DUP1 SLOAD SWAP1 PUSH2 0x100 EXP SWAP1 DIV PUSH1 0xFF AND PUSH1 0x3 DUP2 GT ISZERO PUSH2 0x4EA JUMPI PUSH2 0x4E9 PUSH2 0x7AB JUMP JUMPDEST JUMPDEST EQ PUSH2 0x52A JUMPI PUSH1 0x40 MLOAD PUSH32 0x8C379A000000000000000000000000000000000000000000000000000000000 DUP2 MSTORE PUSH1 0x4 ADD PUSH2 0x521 SWAP1 PUSH2 0xB9E JUMP JUMPDEST PUSH1 0x40 MLOAD DUP1 SWAP2 SUB SWAP1 REVERT JUMPDEST PUSH8 0xDE0B6B3A7640000 PUSH1 0x5 SLOAD LT ISZERO DUP1 PUSH2 0x54A JUMPI POP PUSH8 0xDE0B6B3A7640000 CALLVALUE EQ JUMPDEST PUSH2 0x589 JUMPI PUSH1 0x40 MLOAD PUSH32 0x8C379A000000000000000000000000000000000000000000000000000000000 DUP2 MSTORE PUSH1 0x4 ADD PUSH2 0x580 SWAP1 PUSH2 0xB03 JUMP JUMPDEST PUSH1 0x40 MLOAD DUP1 SWAP2 SUB SWAP1 REVERT JUMPDEST PUSH8 0xDE0B6B3A7640000 CALLVALUE EQ PUSH2 0x5B9 JUMPI PUSH8 0xDE0B6B3A7640000 PUSH1 0x5 PUSH0 DUP3 DUP3 SLOAD PUSH2 0x5B1 SWAP2 SWAP1 PUSH2 0x9F8 JUMP JUMPDEST SWAP3 POP POP DUP2 SWAP1 SSTORE POP JUMPDEST PUSH1 0x64 PUSH1 0x2 PUSH0 DUP3 DUP3 SLOAD PUSH2 0x5CB SWAP2 SWAP1 PUSH2 0xB21 JUMP JUMPDEST SWAP3 POP POP DUP2 SWAP1 SSTORE POP JUMP JUMPDEST PUSH1 0x46 PUSH1 0x1 SLOAD LT PUSH2 0x619 JUMPI PUSH1 0x40 MLOAD PUSH32 0x8C379A000000000000000000000000000000000000000000000000000000000 DUP2 MSTORE PUSH1 0x4 ADD PUSH2 0x610 SWAP1 PUSH2 0xC06 JUMP JUMPDEST PUSH1 0x40 MLOAD DUP1 SWAP2 SUB SWAP1 REVERT JUMPDEST PUSH1 0x1E PUSH1 0x2 SLOAD GT PUSH2 0x65E JUMPI PUSH1 0x40 MLOAD PUSH32 0x8C379A000000000000000000000000000000000000000000000000000000000 DUP2 MSTORE PUSH1 0x4 ADD PUSH2 0x655 SWAP1 PUSH2 0xC6E JUMP JUMPDEST PUSH1 0x40 MLOAD DUP1 SWAP2 SUB SWAP1 REVERT JUMPDEST PUSH0 PUSH1 0x3 DUP2 GT ISZERO PUSH2 0x671 JUMPI PUSH2 0x670 PUSH2 0x7AB JUMP JUMPDEST JUMPDEST PUSH0 DUP1 SLOAD SWAP1 PUSH2 0x100 EXP SWAP1 DIV PUSH1 0xFF AND PUSH1 0x3 DUP2 GT ISZERO PUSH2 0x690 JUMPI PUSH2 0x68F PUSH2 0x7AB JUMP JUMPDEST JUMPDEST EQ DUP1 PUSH2 0x6CC JUMPI POP PUSH1 0x1 PUSH1 0x3 DUP2 GT ISZERO PUSH2 0x6AB JUMPI PUSH2 0x6AA PUSH2 0x7AB JUMP JUMPDEST JUMPDEST PUSH0 DUP1 SLOAD SWAP1 PUSH2 0x100 EXP SWAP1 DIV PUSH1 0xFF AND PUSH1 0x3 DUP2 GT ISZERO PUSH2 0x6CA JUMPI PUSH2 0x6C9 PUSH2 0x7AB JUMP JUMPDEST JUMPDEST EQ JUMPDEST PUSH2 0x70B JUMPI PUSH1 0x40 MLOAD PUSH32 0x8C379A000000000000000000000000000000000000000000000000000000000 DUP2 MSTORE PUSH1 0x4 ADD PUSH2 0x702 SWAP1 PUSH2 0x986 JUMP JUMPDEST PUSH1 0x40 MLOAD DUP1 SWAP2 SUB SWAP1 REVERT JUMPDEST PUSH0 PUSH1 0x1 SLOAD EQ DUP1 ISZERO PUSH2 0x74B JUMPI POP PUSH0 PUSH1 0x3 DUP2 GT ISZERO PUSH2 0x72A JUMPI PUSH2 0x729 PUSH2 0x7AB JUMP JUMPDEST JUMPDEST PUSH0 DUP1 SLOAD SWAP1 PUSH2 0x100 EXP SWAP1 DIV PUSH1 0xFF AND PUSH1 0x3 DUP2 GT ISZERO PUSH2 0x749 JUMPI PUSH2 0x748 PUSH2 0x7AB JUMP JUMPDEST JUMPDEST EQ JUMPDEST ISZERO PUSH2 0x77A JUMPI PUSH1 0x1 PUSH0 DUP1 PUSH2 0x100 EXP DUP2 SLOAD DUP2 PUSH1 0xFF MUL NOT AND SWAP1 DUP4 PUSH1 0x3 DUP2 GT ISZERO PUSH2 0x774 JUMPI PUSH2 0x773 PUSH2 0x7AB JUMP JUMPDEST JUMPDEST MUL OR SWAP1 SSTORE POP JUMPDEST PUSH1 0x1 PUSH0 DUP2 SLOAD DUP1 SWAP3 SWAP2 SWAP1 PUSH2 0x78C SWAP1 PUSH2 0xC8C JUMP JUMPDEST SWAP2 SWAP1 POP SSTORE POP PUSH1 0x2 DUP1 PUSH0 DUP3 DUP3 SLOAD PUSH2 0x7A2 SWAP2 SWAP1 PUSH2 0x9F8 JUMP JUMPDEST SWAP3 POP POP DUP2 SWAP1 SSTORE POP JUMP JUMPDEST PUSH32 0x4E487B7100000000000000000000000000000000000000000000000000000000 PUSH0 MSTORE PUSH1 0x21 PUSH1 0x4 MSTORE PUSH1 0x24 PUSH0 REVERT JUMPDEST PUSH1 0x4 DUP2 LT PUSH2 0x7E9 JUMPI PUSH2 0x7E8 PUSH2 0x7AB JUMP JUMPDEST JUMPDEST POP JUMP JUMPDEST PUSH0 DUP2 SWAP1 POP PUSH2 0x7F9 DUP3 PUSH2 0x7D8 JUMP JUMPDEST SWAP2 SWAP1 POP JUMP JUMPDEST PUSH0 PUSH2 0x808 DUP3 PUSH2 0x7EC JUMP JUMPDEST SWAP1 POP SWAP2 SWAP1 POP JUMP JUMPDEST PUSH2 0x818 DUP2 PUSH2 0x7FE JUMP JUMPDEST DUP3 MSTORE POP POP JUMP JUMPDEST PUSH0 DUP2 SWAP1 POP SWAP2 SWAP1 POP JUMP JUMPDEST PUSH2 0x830 DUP2 PUSH2 0x81E JUMP JUMPDEST DUP3 MSTORE POP POP JUMP JUMPDEST PUSH0 PUSH1 0x60 DUP3 ADD SWAP1 POP PUSH2 0x849 PUSH0 DUP4 ADD DUP7 PUSH2 0x80F JUMP JUMPDEST PUSH2 0x856 PUSH1 0x20 DUP4 ADD DUP6 PUSH2 0x827 JUMP JUMPDEST PUSH2 0x863 PUSH1 0x40 DUP4 ADD DUP5 PUSH2 0x827 JUMP JUMPDEST SWAP5 SWAP4 POP POP POP POP JUMP JUMPDEST PUSH0 DUP1 REVERT JUMPDEST PUSH2 0x878 DUP2 PUSH2 0x81E JUMP JUMPDEST DUP2 EQ PUSH2 0x882 JUMPI PUSH0 DUP1 REVERT JUMPDEST POP JUMP JUMPDEST PUSH0 DUP2 CALLDATALOAD SWAP1 POP PUSH2 0x893 DUP2 PUSH2 0x86F JUMP JUMPDEST SWAP3 SWAP2 POP POP JUMP JUMPDEST PUSH0 PUSH1 0x20 DUP3 DUP5 SUB SLT ISZERO PUSH2 0x8AE JUMPI PUSH2 0x8AD PUSH2 0x86B JUMP JUMPDEST JUMPDEST PUSH0 PUSH2 0x8BB DUP5 DUP3 DUP6 ADD PUSH2 0x885 JUMP JUMPDEST SWAP2 POP POP SWAP3 SWAP2 POP POP JUMP JUMPDEST PUSH0 DUP3 DUP3 MSTORE PUSH1 0x20 DUP3 ADD SWAP1 POP SWAP3 SWAP2 POP POP JUMP JUMPDEST PUSH32 0x5468652076656C6F6369747920697320616C726561647920302E000000000000 PUSH0 DUP3 ADD MSTORE POP JUMP JUMPDEST PUSH0 PUSH2 0x908 PUSH1 0x1A DUP4 PUSH2 0x8C4 JUMP JUMPDEST SWAP2 POP PUSH2 0x913 DUP3 PUSH2 0x8D4 JUMP JUMPDEST PUSH1 0x20 DUP3 ADD SWAP1 POP SWAP2 SWAP1 POP JUMP JUMPDEST PUSH0 PUSH1 0x20 DUP3 ADD SWAP1 POP DUP2 DUP2 SUB PUSH0 DUP4 ADD MSTORE PUSH2 0x935 DUP2 PUSH2 0x8FC JUMP JUMPDEST SWAP1 POP SWAP2 SWAP1 POP JUMP JUMPDEST PUSH32 0x54686520636172206973206E6F74206D6F76696E672E00000000000000000000 PUSH0 DUP3 ADD MSTORE POP JUMP JUMPDEST PUSH0 PUSH2 0x970 PUSH1 0x16 DUP4 PUSH2 0x8C4 JUMP JUMPDEST SWAP2 POP PUSH2 0x97B DUP3 PUSH2 0x93C JUMP JUMPDEST PUSH1 0x20 DUP3 ADD SWAP1 POP SWAP2 SWAP1 POP JUMP JUMPDEST PUSH0 PUSH1 0x20 DUP3 ADD SWAP1 POP DUP2 DUP2 SUB PUSH0 DUP4 ADD MSTORE PUSH2 0x99D DUP2 PUSH2 0x964 JUMP JUMPDEST SWAP1 POP SWAP2 SWAP1 POP JUMP JUMPDEST PUSH32 0x4E487B7100000000000000000000000000000000000000000000000000000000 PUSH0 MSTORE PUSH1 0x11 PUSH1 0x4 MSTORE PUSH1 0x24 PUSH0 REVERT JUMPDEST PUSH0 PUSH2 0x9DB DUP3 PUSH2 0x81E JUMP JUMPDEST SWAP2 POP PUSH0 DUP3 SUB PUSH2 0x9ED JUMPI PUSH2 0x9EC PUSH2 0x9A4 JUMP JUMPDEST JUMPDEST PUSH1 0x1 DUP3 SUB SWAP1 POP SWAP2 SWAP1 POP JUMP JUMPDEST PUSH0 PUSH2 0xA02 DUP3 PUSH2 0x81E JUMP JUMPDEST SWAP2 POP PUSH2 0xA0D DUP4 PUSH2 0x81E JUMP JUMPDEST SWAP3 POP DUP3 DUP3 SUB SWAP1 POP DUP2 DUP2 GT ISZERO PUSH2 0xA25 JUMPI PUSH2 0xA24 PUSH2 0x9A4 JUMP JUMPDEST JUMPDEST SWAP3 SWAP2 POP POP JUMP JUMPDEST PUSH32 0x596F752063616E2774207475726E206F66662074686520656E67696E65207768 PUSH0 DUP3 ADD MSTORE PUSH32 0x696C65207468652063617220697320696E206D6F74696F6E2E00000000000000 PUSH1 0x20 DUP3 ADD MSTORE POP JUMP JUMPDEST PUSH0 PUSH2 0xA85 PUSH1 0x39 DUP4 PUSH2 0x8C4 JUMP JUMPDEST SWAP2 POP PUSH2 0xA90 DUP3 PUSH2 0xA2B JUMP JUMPDEST PUSH1 0x40 DUP3 ADD SWAP1 POP SWAP2 SWAP1 POP JUMP JUMPDEST PUSH0 PUSH1 0x20 DUP3 ADD SWAP1 POP DUP2 DUP2 SUB PUSH0 DUP4 ADD MSTORE PUSH2 0xAB2 DUP2 PUSH2 0xA79 JUMP JUMPDEST SWAP1 POP SWAP2 SWAP1 POP JUMP JUMPDEST PUSH32 0x676F206261636B00000000000000000000000000000000000000000000000000 PUSH0 DUP3 ADD MSTORE POP JUMP JUMPDEST PUSH0 PUSH2 0xAED PUSH1 0x7 DUP4 PUSH2 0x8C4 JUMP JUMPDEST SWAP2 POP PUSH2 0xAF8 DUP3 PUSH2 0xAB9 JUMP JUMPDEST PUSH1 0x20 DUP3 ADD SWAP1 POP SWAP2 SWAP1 POP JUMP JUMPDEST PUSH0 PUSH1 0x20 DUP3 ADD SWAP1 POP DUP2 DUP2 SUB PUSH0 DUP4 ADD MSTORE PUSH2 0xB1A DUP2 PUSH2 0xAE1 JUMP JUMPDEST SWAP1 POP SWAP2 SWAP1 POP JUMP JUMPDEST PUSH0 PUSH2 0xB2B DUP3 PUSH2 0x81E JUMP JUMPDEST SWAP2 POP PUSH2 0xB36 DUP4 PUSH2 0x81E JUMP JUMPDEST SWAP3 POP DUP3 DUP3 ADD SWAP1 POP DUP1 DUP3 GT ISZERO PUSH2 0xB4E JUMPI PUSH2 0xB4D PUSH2 0x9A4 JUMP JUMPDEST JUMPDEST SWAP3 SWAP2 POP POP JUMP JUMPDEST PUSH32 0x43616E6E6F742072656675656C207768696C652064726976696E672E00000000 PUSH0 DUP3 ADD MSTORE POP JUMP JUMPDEST PUSH0 PUSH2 0xB88 PUSH1 0x1C DUP4 PUSH2 0x8C4 JUMP JUMPDEST SWAP2 POP PUSH2 0xB93 DUP3 PUSH2 0xB54 JUMP JUMPDEST PUSH1 0x20 DUP3 ADD SWAP1 POP SWAP2 SWAP1 POP JUMP JUMPDEST PUSH0 PUSH1 0x20 DUP3 ADD SWAP1 POP DUP2 DUP2 SUB PUSH0 DUP4 ADD MSTORE PUSH2 0xBB5 DUP2 PUSH2 0xB7C JUMP JUMPDEST SWAP1 POP SWAP2 SWAP1 POP JUMP JUMPDEST PUSH32 0x4974277320616C726561647920746F6F206661737420656E6F7567682E000000 PUSH0 DUP3 ADD MSTORE POP JUMP JUMPDEST PUSH0 PUSH2 0xBF0 PUSH1 0x1D DUP4 PUSH2 0x8C4 JUMP JUMPDEST SWAP2 POP PUSH2 0xBFB DUP3 PUSH2 0xBBC JUMP JUMPDEST PUSH1 0x20 DUP3 ADD SWAP1 POP SWAP2 SWAP1 POP JUMP JUMPDEST PUSH0 PUSH1 0x20 DUP3 ADD SWAP1 POP DUP2 DUP2 SUB PUSH0 DUP4 ADD MSTORE PUSH2 0xC1D DUP2 PUSH2 0xBE4 JUMP JUMPDEST SWAP1 POP SWAP2 SWAP1 POP JUMP JUMPDEST PUSH32 0x4D6F7265206675656C206973206E656564656400000000000000000000000000 PUSH0 DUP3 ADD MSTORE POP JUMP JUMPDEST PUSH0 PUSH2 0xC58 PUSH1 0x13 DUP4 PUSH2 0x8C4 JUMP JUMPDEST SWAP2 POP PUSH2 0xC63 DUP3 PUSH2 0xC24 JUMP JUMPDEST PUSH1 0x20 DUP3 ADD SWAP1 POP SWAP2 SWAP1 POP JUMP JUMPDEST PUSH0 PUSH1 0x20 DUP3 ADD SWAP1 POP DUP2 DUP2 SUB PUSH0 DUP4 ADD MSTORE PUSH2 0xC85 DUP2 PUSH2 0xC4C JUMP JUMPDEST SWAP1 POP SWAP2 SWAP1 POP JUMP JUMPDEST PUSH0 PUSH2 0xC96 DUP3 PUSH2 0x81E JUMP JUMPDEST SWAP2 POP PUSH32 0xFFFFFFFFFFFFFFFFFFFFFFFFFFFFFFFFFFFFFFFFFFFFFFFFFFFFFFFFFFFFFFFF DUP3 SUB PUSH2 0xCC8 JUMPI PUSH2 0xCC7 PUSH2 0x9A4 JUMP JUMPDEST JUMPDEST PUSH1 0x1 DUP3 ADD SWAP1 POP SWAP2 SWAP1 POP JUMP INVALID LOG2 PUSH5 0x6970667358 0x22 SLT KECCAK256 0xE2 MSTORE DUP12 MSTORE 0xD5 CODESIZE PUSH0 BALANCE PUSH13 0xA0C4CE7CC6F1DD9015A9429292 SWAP13 PUSH20 0x732D1ADC1CA00DEE64736F6C6343000816003300 "
				},
				"gasEstimates": {
					"creation": {
						"codeDepositCost": "667400",
						"executionCost": "59290",
						"totalCost": "726690"
					},
					"external": {
						"Accelerator()": "infinite",
						"Break()": "infinite",
						"Refuel()": "infinite",
						"TurnOff()": "28846",
						"TurnOn()": "26636",
						"deposit()": "infinite",
						"getCarState()": "infinite",
						"setFuelforTest(uint256)": "22559",
						"setVelocityforTest(uint256)": "22515",
						"withdraw()": "infinite"
					}
				},
				"methodIdentifiers": {
					"Accelerator()": "f9ef71b9",
					"Break()": "50e72f61",
					"Refuel()": "f56df7c6",
					"TurnOff()": "92005603",
					"TurnOn()": "34435025",
					"deposit()": "d0e30db0",
					"getCarState()": "78dda193",
					"setFuelforTest(uint256)": "d93737ca",
					"setVelocityforTest(uint256)": "bbf75556",
					"withdraw()": "3ccfd60b"
				}
			},
			"storageLayout": {
				"storage": [
					{
						"astId": 9,
						"contract": "Exam_20231228.sol:Humby",
						"label": "carStatus",
						"offset": 0,
						"slot": "0",
						"type": "t_enum(Status)6"
					},
					{
						"astId": 11,
						"contract": "Exam_20231228.sol:Humby",
						"label": "carVelocity",
						"offset": 0,
						"slot": "1",
						"type": "t_uint256"
					},
					{
						"astId": 13,
						"contract": "Exam_20231228.sol:Humby",
						"label": "carFuel",
						"offset": 0,
						"slot": "2",
						"type": "t_uint256"
					},
					{
						"astId": 15,
						"contract": "Exam_20231228.sol:Humby",
						"label": "balance",
						"offset": 0,
						"slot": "3",
						"type": "t_uint256"
					},
					{
						"astId": 17,
						"contract": "Exam_20231228.sol:Humby",
						"label": "owner",
						"offset": 0,
						"slot": "4",
						"type": "t_address_payable"
					},
					{
						"astId": 19,
						"contract": "Exam_20231228.sol:Humby",
						"label": "paid",
						"offset": 0,
						"slot": "5",
						"type": "t_uint256"
					}
				],
				"types": {
					"t_address_payable": {
						"encoding": "inplace",
						"label": "address payable",
						"numberOfBytes": "20"
					},
					"t_enum(Status)6": {
						"encoding": "inplace",
						"label": "enum Humby.Status",
						"numberOfBytes": "1"
					},
					"t_uint256": {
						"encoding": "inplace",
						"label": "uint256",
						"numberOfBytes": "32"
					}
				}
			},
			"userdoc": {
				"kind": "user",
				"methods": {},
				"version": 1
			}
		}
	}
}