{
	"address_test_important.sol": {
		"Test_1": {
			"abi": [
				{
					"inputs": [],
					"name": "getT1",
					"outputs": [
						{
							"internalType": "uint256",
							"name": "",
							"type": "uint256"
						}
					],
					"stateMutability": "view",
					"type": "function"
				},
				{
					"inputs": [],
					"name": "getT2",
					"outputs": [
						{
							"internalType": "uint256",
							"name": "",
							"type": "uint256"
						}
					],
					"stateMutability": "view",
					"type": "function"
				},
				{
					"inputs": [],
					"name": "getT3",
					"outputs": [
						{
							"internalType": "uint256",
							"name": "",
							"type": "uint256"
						}
					],
					"stateMutability": "view",
					"type": "function"
				},
				{
					"inputs": [
						{
							"internalType": "uint256",
							"name": "_n",
							"type": "uint256"
						}
					],
					"name": "setT1",
					"outputs": [],
					"stateMutability": "nonpayable",
					"type": "function"
				},
				{
					"inputs": [
						{
							"internalType": "uint256",
							"name": "_n",
							"type": "uint256"
						}
					],
					"name": "setT2",
					"outputs": [],
					"stateMutability": "nonpayable",
					"type": "function"
				},
				{
					"inputs": [
						{
							"internalType": "uint256",
							"name": "_n",
							"type": "uint256"
						}
					],
					"name": "setT3",
					"outputs": [],
					"stateMutability": "nonpayable",
					"type": "function"
				}
			],
			"devdoc": {
				"kind": "dev",
				"methods": {},
				"version": 1
			},
			"evm": {
				"assembly": "    /* \"address_test_important.sol\":74:556  contract Test_1 {... */\n  mstore(0x40, 0x80)\n  callvalue\n  dup1\n  iszero\n  tag_1\n  jumpi\n  0x00\n  dup1\n  revert\ntag_1:\n  pop\n  dataSize(sub_0)\n  dup1\n  dataOffset(sub_0)\n  0x00\n  codecopy\n  0x00\n  return\nstop\n\nsub_0: assembly {\n        /* \"address_test_important.sol\":74:556  contract Test_1 {... */\n      mstore(0x40, 0x80)\n      callvalue\n      dup1\n      iszero\n      tag_1\n      jumpi\n      0x00\n      dup1\n      revert\n    tag_1:\n      pop\n      jumpi(tag_2, lt(calldatasize, 0x04))\n      shr(0xe0, calldataload(0x00))\n      dup1\n      0x24e48368\n      eq\n      tag_3\n      jumpi\n      dup1\n      0x71402a41\n      eq\n      tag_4\n      jumpi\n      dup1\n      0x816898ff\n      eq\n      tag_5\n      jumpi\n      dup1\n      0xb5d11a2e\n      eq\n      tag_6\n      jumpi\n      dup1\n      0xce621014\n      eq\n      tag_7\n      jumpi\n      dup1\n      0xf53b86fb\n      eq\n      tag_8\n      jumpi\n    tag_2:\n      0x00\n      dup1\n      revert\n        /* \"address_test_important.sol\":419:476  function setT3(uint _n) public {... */\n    tag_3:\n      tag_9\n      0x04\n      dup1\n      calldatasize\n      sub\n      dup2\n      add\n      swap1\n      tag_10\n      swap2\n      swap1\n      tag_11\n      jump\t// in\n    tag_10:\n      tag_12\n      jump\t// in\n    tag_9:\n      stop\n        /* \"address_test_important.sol\":342:413  function getT2() public view returns(uint) {... */\n    tag_4:\n      tag_13\n      tag_14\n      jump\t// in\n    tag_13:\n      mload(0x40)\n      tag_15\n      swap2\n      swap1\n      tag_16\n      jump\t// in\n    tag_15:\n      mload(0x40)\n      dup1\n      swap2\n      sub\n      swap1\n      return\n        /* \"address_test_important.sol\":139:196  function setT1(uint _n) public {... */\n    tag_5:\n      tag_17\n      0x04\n      dup1\n      calldatasize\n      sub\n      dup2\n      add\n      swap1\n      tag_18\n      swap2\n      swap1\n      tag_11\n      jump\t// in\n    tag_18:\n      tag_19\n      jump\t// in\n    tag_17:\n      stop\n        /* \"address_test_important.sol\":279:336  function setT2(uint _n) public {... */\n    tag_6:\n      tag_20\n      0x04\n      dup1\n      calldatasize\n      sub\n      dup2\n      add\n      swap1\n      tag_21\n      swap2\n      swap1\n      tag_11\n      jump\t// in\n    tag_21:\n      tag_22\n      jump\t// in\n    tag_20:\n      stop\n        /* \"address_test_important.sol\":202:273  function getT1() public view returns(uint) {... */\n    tag_7:\n      tag_23\n      tag_24\n      jump\t// in\n    tag_23:\n      mload(0x40)\n      tag_25\n      swap2\n      swap1\n      tag_16\n      jump\t// in\n    tag_25:\n      mload(0x40)\n      dup1\n      swap2\n      sub\n      swap1\n      return\n        /* \"address_test_important.sol\":482:553  function getT3() public view returns(uint) {... */\n    tag_8:\n      tag_26\n      tag_27\n      jump\t// in\n    tag_26:\n      mload(0x40)\n      tag_28\n      swap2\n      swap1\n      tag_16\n      jump\t// in\n    tag_28:\n      mload(0x40)\n      dup1\n      swap2\n      sub\n      swap1\n      return\n        /* \"address_test_important.sol\":419:476  function setT3(uint _n) public {... */\n    tag_12:\n        /* \"address_test_important.sol\":466:468  _n */\n      dup1\n        /* \"address_test_important.sol\":461:463  t3 */\n      0x02\n        /* \"address_test_important.sol\":461:468  t3 = _n */\n      dup2\n      swap1\n      sstore\n      pop\n        /* \"address_test_important.sol\":419:476  function setT3(uint _n) public {... */\n      pop\n      jump\t// out\n        /* \"address_test_important.sol\":342:413  function getT2() public view returns(uint) {... */\n    tag_14:\n        /* \"address_test_important.sol\":379:383  uint */\n      0x00\n        /* \"address_test_important.sol\":403:405  t2 */\n      sload(0x01)\n        /* \"address_test_important.sol\":396:405  return t2 */\n      swap1\n      pop\n        /* \"address_test_important.sol\":342:413  function getT2() public view returns(uint) {... */\n      swap1\n      jump\t// out\n        /* \"address_test_important.sol\":139:196  function setT1(uint _n) public {... */\n    tag_19:\n        /* \"address_test_important.sol\":186:188  _n */\n      dup1\n        /* \"address_test_important.sol\":181:183  t1 */\n      0x00\n        /* \"address_test_important.sol\":181:188  t1 = _n */\n      dup2\n      swap1\n      sstore\n      pop\n        /* \"address_test_important.sol\":139:196  function setT1(uint _n) public {... */\n      pop\n      jump\t// out\n        /* \"address_test_important.sol\":279:336  function setT2(uint _n) public {... */\n    tag_22:\n        /* \"address_test_important.sol\":326:328  _n */\n      dup1\n        /* \"address_test_important.sol\":321:323  t2 */\n      0x01\n        /* \"address_test_important.sol\":321:328  t2 = _n */\n      dup2\n      swap1\n      sstore\n      pop\n        /* \"address_test_important.sol\":279:336  function setT2(uint _n) public {... */\n      pop\n      jump\t// out\n        /* \"address_test_important.sol\":202:273  function getT1() public view returns(uint) {... */\n    tag_24:\n        /* \"address_test_important.sol\":239:243  uint */\n      0x00\n        /* \"address_test_important.sol\":263:265  t1 */\n      dup1\n      sload\n        /* \"address_test_important.sol\":256:265  return t1 */\n      swap1\n      pop\n        /* \"address_test_important.sol\":202:273  function getT1() public view returns(uint) {... */\n      swap1\n      jump\t// out\n        /* \"address_test_important.sol\":482:553  function getT3() public view returns(uint) {... */\n    tag_27:\n        /* \"address_test_important.sol\":519:523  uint */\n      0x00\n        /* \"address_test_important.sol\":543:545  t3 */\n      sload(0x02)\n        /* \"address_test_important.sol\":536:545  return t3 */\n      swap1\n      pop\n        /* \"address_test_important.sol\":482:553  function getT3() public view returns(uint) {... */\n      swap1\n      jump\t// out\n        /* \"#utility.yul\":88:205   */\n    tag_36:\n        /* \"#utility.yul\":197:198   */\n      0x00\n        /* \"#utility.yul\":194:195   */\n      dup1\n        /* \"#utility.yul\":187:199   */\n      revert\n        /* \"#utility.yul\":334:411   */\n    tag_38:\n        /* \"#utility.yul\":371:378   */\n      0x00\n        /* \"#utility.yul\":400:405   */\n      dup2\n        /* \"#utility.yul\":389:405   */\n      swap1\n      pop\n        /* \"#utility.yul\":334:411   */\n      swap2\n      swap1\n      pop\n      jump\t// out\n        /* \"#utility.yul\":417:539   */\n    tag_39:\n        /* \"#utility.yul\":490:514   */\n      tag_48\n        /* \"#utility.yul\":508:513   */\n      dup2\n        /* \"#utility.yul\":490:514   */\n      tag_38\n      jump\t// in\n    tag_48:\n        /* \"#utility.yul\":483:488   */\n      dup2\n        /* \"#utility.yul\":480:515   */\n      eq\n        /* \"#utility.yul\":470:533   */\n      tag_49\n      jumpi\n        /* \"#utility.yul\":529:530   */\n      0x00\n        /* \"#utility.yul\":526:527   */\n      dup1\n        /* \"#utility.yul\":519:531   */\n      revert\n        /* \"#utility.yul\":470:533   */\n    tag_49:\n        /* \"#utility.yul\":417:539   */\n      pop\n      jump\t// out\n        /* \"#utility.yul\":545:684   */\n    tag_40:\n        /* \"#utility.yul\":591:596   */\n      0x00\n        /* \"#utility.yul\":629:635   */\n      dup2\n        /* \"#utility.yul\":616:636   */\n      calldataload\n        /* \"#utility.yul\":607:636   */\n      swap1\n      pop\n        /* \"#utility.yul\":645:678   */\n      tag_51\n        /* \"#utility.yul\":672:677   */\n      dup2\n        /* \"#utility.yul\":645:678   */\n      tag_39\n      jump\t// in\n    tag_51:\n        /* \"#utility.yul\":545:684   */\n      swap3\n      swap2\n      pop\n      pop\n      jump\t// out\n        /* \"#utility.yul\":690:1019   */\n    tag_11:\n        /* \"#utility.yul\":749:755   */\n      0x00\n        /* \"#utility.yul\":798:800   */\n      0x20\n        /* \"#utility.yul\":786:795   */\n      dup3\n        /* \"#utility.yul\":777:784   */\n      dup5\n        /* \"#utility.yul\":773:796   */\n      sub\n        /* \"#utility.yul\":769:801   */\n      slt\n        /* \"#utility.yul\":766:885   */\n      iszero\n      tag_53\n      jumpi\n        /* \"#utility.yul\":804:883   */\n      tag_54\n      tag_36\n      jump\t// in\n    tag_54:\n        /* \"#utility.yul\":766:885   */\n    tag_53:\n        /* \"#utility.yul\":924:925   */\n      0x00\n        /* \"#utility.yul\":949:1002   */\n      tag_55\n        /* \"#utility.yul\":994:1001   */\n      dup5\n        /* \"#utility.yul\":985:991   */\n      dup3\n        /* \"#utility.yul\":974:983   */\n      dup6\n        /* \"#utility.yul\":970:992   */\n      add\n        /* \"#utility.yul\":949:1002   */\n      tag_40\n      jump\t// in\n    tag_55:\n        /* \"#utility.yul\":939:1002   */\n      swap2\n      pop\n        /* \"#utility.yul\":895:1012   */\n      pop\n        /* \"#utility.yul\":690:1019   */\n      swap3\n      swap2\n      pop\n      pop\n      jump\t// out\n        /* \"#utility.yul\":1025:1143   */\n    tag_41:\n        /* \"#utility.yul\":1112:1136   */\n      tag_57\n        /* \"#utility.yul\":1130:1135   */\n      dup2\n        /* \"#utility.yul\":1112:1136   */\n      tag_38\n      jump\t// in\n    tag_57:\n        /* \"#utility.yul\":1107:1110   */\n      dup3\n        /* \"#utility.yul\":1100:1137   */\n      mstore\n        /* \"#utility.yul\":1025:1143   */\n      pop\n      pop\n      jump\t// out\n        /* \"#utility.yul\":1149:1371   */\n    tag_16:\n        /* \"#utility.yul\":1242:1246   */\n      0x00\n        /* \"#utility.yul\":1280:1282   */\n      0x20\n        /* \"#utility.yul\":1269:1278   */\n      dup3\n        /* \"#utility.yul\":1265:1283   */\n      add\n        /* \"#utility.yul\":1257:1283   */\n      swap1\n      pop\n        /* \"#utility.yul\":1293:1364   */\n      tag_59\n        /* \"#utility.yul\":1361:1362   */\n      0x00\n        /* \"#utility.yul\":1350:1359   */\n      dup4\n        /* \"#utility.yul\":1346:1363   */\n      add\n        /* \"#utility.yul\":1337:1343   */\n      dup5\n        /* \"#utility.yul\":1293:1364   */\n      tag_41\n      jump\t// in\n    tag_59:\n        /* \"#utility.yul\":1149:1371   */\n      swap3\n      swap2\n      pop\n      pop\n      jump\t// out\n\n    auxdata: 0xa2646970667358221220f2e73e7110a234927384011dc848ad3bb138afef7633d5945854482c9765975964736f6c63430008160033\n}\n",
				"bytecode": {
					"linkReferences": {},
					"object": "608060405234801561000f575f80fd5b506102098061001d5f395ff3fe608060405234801561000f575f80fd5b5060043610610060575f3560e01c806324e483681461006457806371402a4114610080578063816898ff1461009e578063b5d11a2e146100ba578063ce621014146100d6578063f53b86fb146100f4575b5f80fd5b61007e60048036038101906100799190610180565b610112565b005b61008861011c565b60405161009591906101ba565b60405180910390f35b6100b860048036038101906100b39190610180565b610125565b005b6100d460048036038101906100cf9190610180565b61012e565b005b6100de610138565b6040516100eb91906101ba565b60405180910390f35b6100fc610140565b60405161010991906101ba565b60405180910390f35b8060028190555050565b5f600154905090565b805f8190555050565b8060018190555050565b5f8054905090565b5f600254905090565b5f80fd5b5f819050919050565b61015f8161014d565b8114610169575f80fd5b50565b5f8135905061017a81610156565b92915050565b5f6020828403121561019557610194610149565b5b5f6101a28482850161016c565b91505092915050565b6101b48161014d565b82525050565b5f6020820190506101cd5f8301846101ab565b9291505056fea2646970667358221220f2e73e7110a234927384011dc848ad3bb138afef7633d5945854482c9765975964736f6c63430008160033",
					"opcodes": "PUSH1 0x80 PUSH1 0x40 MSTORE CALLVALUE DUP1 ISZERO PUSH2 0xF JUMPI PUSH0 DUP1 REVERT JUMPDEST POP PUSH2 0x209 DUP1 PUSH2 0x1D PUSH0 CODECOPY PUSH0 RETURN INVALID PUSH1 0x80 PUSH1 0x40 MSTORE CALLVALUE DUP1 ISZERO PUSH2 0xF JUMPI PUSH0 DUP1 REVERT JUMPDEST POP PUSH1 0x4 CALLDATASIZE LT PUSH2 0x60 JUMPI PUSH0 CALLDATALOAD PUSH1 0xE0 SHR DUP1 PUSH4 0x24E48368 EQ PUSH2 0x64 JUMPI DUP1 PUSH4 0x71402A41 EQ PUSH2 0x80 JUMPI DUP1 PUSH4 0x816898FF EQ PUSH2 0x9E JUMPI DUP1 PUSH4 0xB5D11A2E EQ PUSH2 0xBA JUMPI DUP1 PUSH4 0xCE621014 EQ PUSH2 0xD6 JUMPI DUP1 PUSH4 0xF53B86FB EQ PUSH2 0xF4 JUMPI JUMPDEST PUSH0 DUP1 REVERT JUMPDEST PUSH2 0x7E PUSH1 0x4 DUP1 CALLDATASIZE SUB DUP2 ADD SWAP1 PUSH2 0x79 SWAP2 SWAP1 PUSH2 0x180 JUMP JUMPDEST PUSH2 0x112 JUMP JUMPDEST STOP JUMPDEST PUSH2 0x88 PUSH2 0x11C JUMP JUMPDEST PUSH1 0x40 MLOAD PUSH2 0x95 SWAP2 SWAP1 PUSH2 0x1BA JUMP JUMPDEST PUSH1 0x40 MLOAD DUP1 SWAP2 SUB SWAP1 RETURN JUMPDEST PUSH2 0xB8 PUSH1 0x4 DUP1 CALLDATASIZE SUB DUP2 ADD SWAP1 PUSH2 0xB3 SWAP2 SWAP1 PUSH2 0x180 JUMP JUMPDEST PUSH2 0x125 JUMP JUMPDEST STOP JUMPDEST PUSH2 0xD4 PUSH1 0x4 DUP1 CALLDATASIZE SUB DUP2 ADD SWAP1 PUSH2 0xCF SWAP2 SWAP1 PUSH2 0x180 JUMP JUMPDEST PUSH2 0x12E JUMP JUMPDEST STOP JUMPDEST PUSH2 0xDE PUSH2 0x138 JUMP JUMPDEST PUSH1 0x40 MLOAD PUSH2 0xEB SWAP2 SWAP1 PUSH2 0x1BA JUMP JUMPDEST PUSH1 0x40 MLOAD DUP1 SWAP2 SUB SWAP1 RETURN JUMPDEST PUSH2 0xFC PUSH2 0x140 JUMP JUMPDEST PUSH1 0x40 MLOAD PUSH2 0x109 SWAP2 SWAP1 PUSH2 0x1BA JUMP JUMPDEST PUSH1 0x40 MLOAD DUP1 SWAP2 SUB SWAP1 RETURN JUMPDEST DUP1 PUSH1 0x2 DUP2 SWAP1 SSTORE POP POP JUMP JUMPDEST PUSH0 PUSH1 0x1 SLOAD SWAP1 POP SWAP1 JUMP JUMPDEST DUP1 PUSH0 DUP2 SWAP1 SSTORE POP POP JUMP JUMPDEST DUP1 PUSH1 0x1 DUP2 SWAP1 SSTORE POP POP JUMP JUMPDEST PUSH0 DUP1 SLOAD SWAP1 POP SWAP1 JUMP JUMPDEST PUSH0 PUSH1 0x2 SLOAD SWAP1 POP SWAP1 JUMP JUMPDEST PUSH0 DUP1 REVERT JUMPDEST PUSH0 DUP2 SWAP1 POP SWAP2 SWAP1 POP JUMP JUMPDEST PUSH2 0x15F DUP2 PUSH2 0x14D JUMP JUMPDEST DUP2 EQ PUSH2 0x169 JUMPI PUSH0 DUP1 REVERT JUMPDEST POP JUMP JUMPDEST PUSH0 DUP2 CALLDATALOAD SWAP1 POP PUSH2 0x17A DUP2 PUSH2 0x156 JUMP JUMPDEST SWAP3 SWAP2 POP POP JUMP JUMPDEST PUSH0 PUSH1 0x20 DUP3 DUP5 SUB SLT ISZERO PUSH2 0x195 JUMPI PUSH2 0x194 PUSH2 0x149 JUMP JUMPDEST JUMPDEST PUSH0 PUSH2 0x1A2 DUP5 DUP3 DUP6 ADD PUSH2 0x16C JUMP JUMPDEST SWAP2 POP POP SWAP3 SWAP2 POP POP JUMP JUMPDEST PUSH2 0x1B4 DUP2 PUSH2 0x14D JUMP JUMPDEST DUP3 MSTORE POP POP JUMP JUMPDEST PUSH0 PUSH1 0x20 DUP3 ADD SWAP1 POP PUSH2 0x1CD PUSH0 DUP4 ADD DUP5 PUSH2 0x1AB JUMP JUMPDEST SWAP3 SWAP2 POP POP JUMP INVALID LOG2 PUSH5 0x6970667358 0x22 SLT KECCAK256 CALLCODE 0xE7 RETURNDATACOPY PUSH18 0x10A234927384011DC848AD3BB138AFEF7633 0xD5 SWAP5 PC SLOAD BASEFEE 0x2C SWAP8 PUSH6 0x975964736F6C PUSH4 0x43000816 STOP CALLER "
				},
				"gasEstimates": {
					"creation": {
						"codeDepositCost": "104200",
						"executionCost": "151",
						"totalCost": "104351"
					},
					"external": {
						"getT1()": "2498",
						"getT2()": "2432",
						"getT3()": "2520",
						"setT1(uint256)": "22536",
						"setT2(uint256)": "22559",
						"setT3(uint256)": "22493"
					}
				},
				"methodIdentifiers": {
					"getT1()": "ce621014",
					"getT2()": "71402a41",
					"getT3()": "f53b86fb",
					"setT1(uint256)": "816898ff",
					"setT2(uint256)": "b5d11a2e",
					"setT3(uint256)": "24e48368"
				}
			},
			"storageLayout": {
				"storage": [
					{
						"astId": 3,
						"contract": "address_test_important.sol:Test_1",
						"label": "t1",
						"offset": 0,
						"slot": "0",
						"type": "t_uint256"
					},
					{
						"astId": 5,
						"contract": "address_test_important.sol:Test_1",
						"label": "t2",
						"offset": 0,
						"slot": "1",
						"type": "t_uint256"
					},
					{
						"astId": 7,
						"contract": "address_test_important.sol:Test_1",
						"label": "t3",
						"offset": 0,
						"slot": "2",
						"type": "t_uint256"
					}
				],
				"types": {
					"t_uint256": {
						"encoding": "inplace",
						"label": "uint256",
						"numberOfBytes": "32"
					}
				}
			},
			"userdoc": {
				"kind": "user",
				"methods": {},
				"version": 1
			}
		}
	}
}