{
	"address_test.sol": {
		"Test_2": {
			"abi": [
				{
					"inputs": [],
					"name": "getT1",
					"outputs": [
						{
							"internalType": "uint256",
							"name": "",
							"type": "uint256"
						}
					],
					"stateMutability": "view",
					"type": "function"
				},
				{
					"inputs": [],
					"name": "getT2",
					"outputs": [
						{
							"internalType": "uint256",
							"name": "",
							"type": "uint256"
						}
					],
					"stateMutability": "view",
					"type": "function"
				},
				{
					"inputs": [],
					"name": "getT3",
					"outputs": [
						{
							"internalType": "uint256",
							"name": "",
							"type": "uint256"
						}
					],
					"stateMutability": "view",
					"type": "function"
				},
				{
					"inputs": [],
					"name": "getT4",
					"outputs": [
						{
							"internalType": "uint256",
							"name": "",
							"type": "uint256"
						}
					],
					"stateMutability": "view",
					"type": "function"
				},
				{
					"inputs": [
						{
							"internalType": "uint256",
							"name": "_n",
							"type": "uint256"
						}
					],
					"name": "setT1",
					"outputs": [],
					"stateMutability": "nonpayable",
					"type": "function"
				},
				{
					"inputs": [
						{
							"internalType": "uint256",
							"name": "_n",
							"type": "uint256"
						}
					],
					"name": "setT2",
					"outputs": [],
					"stateMutability": "nonpayable",
					"type": "function"
				},
				{
					"inputs": [
						{
							"internalType": "uint256",
							"name": "_n",
							"type": "uint256"
						}
					],
					"name": "setT3",
					"outputs": [],
					"stateMutability": "nonpayable",
					"type": "function"
				},
				{
					"inputs": [
						{
							"internalType": "uint256",
							"name": "_n",
							"type": "uint256"
						}
					],
					"name": "setT4",
					"outputs": [],
					"stateMutability": "nonpayable",
					"type": "function"
				}
			],
			"devdoc": {
				"kind": "dev",
				"methods": {},
				"version": 1
			},
			"evm": {
				"assembly": "    /* \"address_test.sol\":773:1481  contract Test_2 {... */\n  mstore(0x40, 0x80)\n  callvalue\n  dup1\n  iszero\n  tag_1\n  jumpi\n  0x00\n  dup1\n  revert\ntag_1:\n  pop\n  dataSize(sub_0)\n  dup1\n  dataOffset(sub_0)\n  0x00\n  codecopy\n  0x00\n  return\nstop\n\nsub_0: assembly {\n        /* \"address_test.sol\":773:1481  contract Test_2 {... */\n      mstore(0x40, 0x80)\n      callvalue\n      dup1\n      iszero\n      tag_1\n      jumpi\n      0x00\n      dup1\n      revert\n    tag_1:\n      pop\n      jumpi(tag_2, lt(calldatasize, 0x04))\n      shr(0xe0, calldataload(0x00))\n      dup1\n      0xb5d11a2e\n      gt\n      tag_11\n      jumpi\n      dup1\n      0xb5d11a2e\n      eq\n      tag_7\n      jumpi\n      dup1\n      0xce621014\n      eq\n      tag_8\n      jumpi\n      dup1\n      0xe52c0363\n      eq\n      tag_9\n      jumpi\n      dup1\n      0xf53b86fb\n      eq\n      tag_10\n      jumpi\n      jump(tag_2)\n    tag_11:\n      dup1\n      0x24e48368\n      eq\n      tag_3\n      jumpi\n      dup1\n      0x71402a41\n      eq\n      tag_4\n      jumpi\n      dup1\n      0x7c7ffce4\n      eq\n      tag_5\n      jumpi\n      dup1\n      0x816898ff\n      eq\n      tag_6\n      jumpi\n    tag_2:\n      0x00\n      dup1\n      revert\n        /* \"address_test.sol\":1336:1393  function setT3(uint _n) public {... */\n    tag_3:\n      tag_12\n      0x04\n      dup1\n      calldatasize\n      sub\n      dup2\n      add\n      swap1\n      tag_13\n      swap2\n      swap1\n      tag_14\n      jump\t// in\n    tag_13:\n      tag_15\n      jump\t// in\n    tag_12:\n      stop\n        /* \"address_test.sol\":1093:1190  function getT2() public view returns(uint) {... */\n    tag_4:\n      tag_16\n      tag_17\n      jump\t// in\n    tag_16:\n      mload(0x40)\n      tag_18\n      swap2\n      swap1\n      tag_19\n      jump\t// in\n    tag_18:\n      mload(0x40)\n      dup1\n      swap2\n      sub\n      swap1\n      return\n        /* \"address_test.sol\":1196:1253  function setT4(uint _n) public {... */\n    tag_5:\n      tag_20\n      0x04\n      dup1\n      calldatasize\n      sub\n      dup2\n      add\n      swap1\n      tag_21\n      swap2\n      swap1\n      tag_14\n      jump\t// in\n    tag_21:\n      tag_22\n      jump\t// in\n    tag_20:\n      stop\n        /* \"address_test.sol\":864:921  function setT1(uint _n) public {... */\n    tag_6:\n      tag_23\n      0x04\n      dup1\n      calldatasize\n      sub\n      dup2\n      add\n      swap1\n      tag_24\n      swap2\n      swap1\n      tag_14\n      jump\t// in\n    tag_24:\n      tag_25\n      jump\t// in\n    tag_23:\n      stop\n        /* \"address_test.sol\":1004:1087  function setT2(uint _n) public {... */\n    tag_7:\n      tag_26\n      0x04\n      dup1\n      calldatasize\n      sub\n      dup2\n      add\n      swap1\n      tag_27\n      swap2\n      swap1\n      tag_14\n      jump\t// in\n    tag_27:\n      tag_28\n      jump\t// in\n    tag_26:\n      stop\n        /* \"address_test.sol\":927:998  function getT1() public view returns(uint) {... */\n    tag_8:\n      tag_29\n      tag_30\n      jump\t// in\n    tag_29:\n      mload(0x40)\n      tag_31\n      swap2\n      swap1\n      tag_19\n      jump\t// in\n    tag_31:\n      mload(0x40)\n      dup1\n      swap2\n      sub\n      swap1\n      return\n        /* \"address_test.sol\":1259:1330  function getT4() public view returns(uint) {... */\n    tag_9:\n      tag_32\n      tag_33\n      jump\t// in\n    tag_32:\n      mload(0x40)\n      tag_34\n      swap2\n      swap1\n      tag_19\n      jump\t// in\n    tag_34:\n      mload(0x40)\n      dup1\n      swap2\n      sub\n      swap1\n      return\n        /* \"address_test.sol\":1399:1470  function getT3() public view returns(uint) {... */\n    tag_10:\n      tag_35\n      tag_36\n      jump\t// in\n    tag_35:\n      mload(0x40)\n      tag_37\n      swap2\n      swap1\n      tag_19\n      jump\t// in\n    tag_37:\n      mload(0x40)\n      dup1\n      swap2\n      sub\n      swap1\n      return\n        /* \"address_test.sol\":1336:1393  function setT3(uint _n) public {... */\n    tag_15:\n        /* \"address_test.sol\":1383:1385  _n */\n      dup1\n        /* \"address_test.sol\":1378:1380  t3 */\n      0x02\n        /* \"address_test.sol\":1378:1385  t3 = _n */\n      dup2\n      swap1\n      sstore\n      pop\n        /* \"address_test.sol\":1336:1393  function setT3(uint _n) public {... */\n      pop\n      jump\t// out\n        /* \"address_test.sol\":1093:1190  function getT2() public view returns(uint) {... */\n    tag_17:\n        /* \"address_test.sol\":1130:1134  uint */\n      0x00\n        /* \"address_test.sol\":1154:1182  ttttttttttttttttttttttttttt2 */\n      sload(0x01)\n        /* \"address_test.sol\":1147:1182  return ttttttttttttttttttttttttttt2 */\n      swap1\n      pop\n        /* \"address_test.sol\":1093:1190  function getT2() public view returns(uint) {... */\n      swap1\n      jump\t// out\n        /* \"address_test.sol\":1196:1253  function setT4(uint _n) public {... */\n    tag_22:\n        /* \"address_test.sol\":1243:1245  _n */\n      dup1\n        /* \"address_test.sol\":1238:1240  t3 */\n      0x02\n        /* \"address_test.sol\":1238:1245  t3 = _n */\n      dup2\n      swap1\n      sstore\n      pop\n        /* \"address_test.sol\":1196:1253  function setT4(uint _n) public {... */\n      pop\n      jump\t// out\n        /* \"address_test.sol\":864:921  function setT1(uint _n) public {... */\n    tag_25:\n        /* \"address_test.sol\":911:913  _n */\n      dup1\n        /* \"address_test.sol\":906:908  t0 */\n      0x00\n        /* \"address_test.sol\":906:913  t0 = _n */\n      dup2\n      swap1\n      sstore\n      pop\n        /* \"address_test.sol\":864:921  function setT1(uint _n) public {... */\n      pop\n      jump\t// out\n        /* \"address_test.sol\":1004:1087  function setT2(uint _n) public {... */\n    tag_28:\n        /* \"address_test.sol\":1077:1079  _n */\n      dup1\n        /* \"address_test.sol\":1046:1074  ttttttttttttttttttttttttttt2 */\n      0x01\n        /* \"address_test.sol\":1046:1079  ttttttttttttttttttttttttttt2 = _n */\n      dup2\n      swap1\n      sstore\n      pop\n        /* \"address_test.sol\":1004:1087  function setT2(uint _n) public {... */\n      pop\n      jump\t// out\n        /* \"address_test.sol\":927:998  function getT1() public view returns(uint) {... */\n    tag_30:\n        /* \"address_test.sol\":964:968  uint */\n      0x00\n        /* \"address_test.sol\":988:990  t0 */\n      dup1\n      sload\n        /* \"address_test.sol\":981:990  return t0 */\n      swap1\n      pop\n        /* \"address_test.sol\":927:998  function getT1() public view returns(uint) {... */\n      swap1\n      jump\t// out\n        /* \"address_test.sol\":1259:1330  function getT4() public view returns(uint) {... */\n    tag_33:\n        /* \"address_test.sol\":1296:1300  uint */\n      0x00\n        /* \"address_test.sol\":1320:1322  t3 */\n      sload(0x02)\n        /* \"address_test.sol\":1313:1322  return t3 */\n      swap1\n      pop\n        /* \"address_test.sol\":1259:1330  function getT4() public view returns(uint) {... */\n      swap1\n      jump\t// out\n        /* \"address_test.sol\":1399:1470  function getT3() public view returns(uint) {... */\n    tag_36:\n        /* \"address_test.sol\":1436:1440  uint */\n      0x00\n        /* \"address_test.sol\":1460:1462  t3 */\n      sload(0x02)\n        /* \"address_test.sol\":1453:1462  return t3 */\n      swap1\n      pop\n        /* \"address_test.sol\":1399:1470  function getT3() public view returns(uint) {... */\n      swap1\n      jump\t// out\n        /* \"#utility.yul\":88:205   */\n    tag_47:\n        /* \"#utility.yul\":197:198   */\n      0x00\n        /* \"#utility.yul\":194:195   */\n      dup1\n        /* \"#utility.yul\":187:199   */\n      revert\n        /* \"#utility.yul\":334:411   */\n    tag_49:\n        /* \"#utility.yul\":371:378   */\n      0x00\n        /* \"#utility.yul\":400:405   */\n      dup2\n        /* \"#utility.yul\":389:405   */\n      swap1\n      pop\n        /* \"#utility.yul\":334:411   */\n      swap2\n      swap1\n      pop\n      jump\t// out\n        /* \"#utility.yul\":417:539   */\n    tag_50:\n        /* \"#utility.yul\":490:514   */\n      tag_59\n        /* \"#utility.yul\":508:513   */\n      dup2\n        /* \"#utility.yul\":490:514   */\n      tag_49\n      jump\t// in\n    tag_59:\n        /* \"#utility.yul\":483:488   */\n      dup2\n        /* \"#utility.yul\":480:515   */\n      eq\n        /* \"#utility.yul\":470:533   */\n      tag_60\n      jumpi\n        /* \"#utility.yul\":529:530   */\n      0x00\n        /* \"#utility.yul\":526:527   */\n      dup1\n        /* \"#utility.yul\":519:531   */\n      revert\n        /* \"#utility.yul\":470:533   */\n    tag_60:\n        /* \"#utility.yul\":417:539   */\n      pop\n      jump\t// out\n        /* \"#utility.yul\":545:684   */\n    tag_51:\n        /* \"#utility.yul\":591:596   */\n      0x00\n        /* \"#utility.yul\":629:635   */\n      dup2\n        /* \"#utility.yul\":616:636   */\n      calldataload\n        /* \"#utility.yul\":607:636   */\n      swap1\n      pop\n        /* \"#utility.yul\":645:678   */\n      tag_62\n        /* \"#utility.yul\":672:677   */\n      dup2\n        /* \"#utility.yul\":645:678   */\n      tag_50\n      jump\t// in\n    tag_62:\n        /* \"#utility.yul\":545:684   */\n      swap3\n      swap2\n      pop\n      pop\n      jump\t// out\n        /* \"#utility.yul\":690:1019   */\n    tag_14:\n        /* \"#utility.yul\":749:755   */\n      0x00\n        /* \"#utility.yul\":798:800   */\n      0x20\n        /* \"#utility.yul\":786:795   */\n      dup3\n        /* \"#utility.yul\":777:784   */\n      dup5\n        /* \"#utility.yul\":773:796   */\n      sub\n        /* \"#utility.yul\":769:801   */\n      slt\n        /* \"#utility.yul\":766:885   */\n      iszero\n      tag_64\n      jumpi\n        /* \"#utility.yul\":804:883   */\n      tag_65\n      tag_47\n      jump\t// in\n    tag_65:\n        /* \"#utility.yul\":766:885   */\n    tag_64:\n        /* \"#utility.yul\":924:925   */\n      0x00\n        /* \"#utility.yul\":949:1002   */\n      tag_66\n        /* \"#utility.yul\":994:1001   */\n      dup5\n        /* \"#utility.yul\":985:991   */\n      dup3\n        /* \"#utility.yul\":974:983   */\n      dup6\n        /* \"#utility.yul\":970:992   */\n      add\n        /* \"#utility.yul\":949:1002   */\n      tag_51\n      jump\t// in\n    tag_66:\n        /* \"#utility.yul\":939:1002   */\n      swap2\n      pop\n        /* \"#utility.yul\":895:1012   */\n      pop\n        /* \"#utility.yul\":690:1019   */\n      swap3\n      swap2\n      pop\n      pop\n      jump\t// out\n        /* \"#utility.yul\":1025:1143   */\n    tag_52:\n        /* \"#utility.yul\":1112:1136   */\n      tag_68\n        /* \"#utility.yul\":1130:1135   */\n      dup2\n        /* \"#utility.yul\":1112:1136   */\n      tag_49\n      jump\t// in\n    tag_68:\n        /* \"#utility.yul\":1107:1110   */\n      dup3\n        /* \"#utility.yul\":1100:1137   */\n      mstore\n        /* \"#utility.yul\":1025:1143   */\n      pop\n      pop\n      jump\t// out\n        /* \"#utility.yul\":1149:1371   */\n    tag_19:\n        /* \"#utility.yul\":1242:1246   */\n      0x00\n        /* \"#utility.yul\":1280:1282   */\n      0x20\n        /* \"#utility.yul\":1269:1278   */\n      dup3\n        /* \"#utility.yul\":1265:1283   */\n      add\n        /* \"#utility.yul\":1257:1283   */\n      swap1\n      pop\n        /* \"#utility.yul\":1293:1364   */\n      tag_70\n        /* \"#utility.yul\":1361:1362   */\n      0x00\n        /* \"#utility.yul\":1350:1359   */\n      dup4\n        /* \"#utility.yul\":1346:1363   */\n      add\n        /* \"#utility.yul\":1337:1343   */\n      dup5\n        /* \"#utility.yul\":1293:1364   */\n      tag_52\n      jump\t// in\n    tag_70:\n        /* \"#utility.yul\":1149:1371   */\n      swap3\n      swap2\n      pop\n      pop\n      jump\t// out\n\n    auxdata: 0xa2646970667358221220a04a1b7fb59f6e6bc56ba299a81279f2e8bb2457426dbb508a2459f4ff05c1ac64736f6c63430008160033\n}\n",
				"bytecode": {
					"linkReferences": {},
					"object": "608060405234801561000f575f80fd5b5061027c8061001d5f395ff3fe608060405234801561000f575f80fd5b5060043610610086575f3560e01c8063b5d11a2e11610059578063b5d11a2e146100fc578063ce62101414610118578063e52c036314610136578063f53b86fb1461015457610086565b806324e483681461008a57806371402a41146100a65780637c7ffce4146100c4578063816898ff146100e0575b5f80fd5b6100a4600480360381019061009f91906101f3565b610172565b005b6100ae61017c565b6040516100bb919061022d565b60405180910390f35b6100de60048036038101906100d991906101f3565b610185565b005b6100fa60048036038101906100f591906101f3565b61018f565b005b610116600480360381019061011191906101f3565b610198565b005b6101206101a2565b60405161012d919061022d565b60405180910390f35b61013e6101aa565b60405161014b919061022d565b60405180910390f35b61015c6101b3565b604051610169919061022d565b60405180910390f35b8060028190555050565b5f600154905090565b8060028190555050565b805f8190555050565b8060018190555050565b5f8054905090565b5f600254905090565b5f600254905090565b5f80fd5b5f819050919050565b6101d2816101c0565b81146101dc575f80fd5b50565b5f813590506101ed816101c9565b92915050565b5f60208284031215610208576102076101bc565b5b5f610215848285016101df565b91505092915050565b610227816101c0565b82525050565b5f6020820190506102405f83018461021e565b9291505056fea2646970667358221220a04a1b7fb59f6e6bc56ba299a81279f2e8bb2457426dbb508a2459f4ff05c1ac64736f6c63430008160033",
					"opcodes": "PUSH1 0x80 PUSH1 0x40 MSTORE CALLVALUE DUP1 ISZERO PUSH2 0xF JUMPI PUSH0 DUP1 REVERT JUMPDEST POP PUSH2 0x27C DUP1 PUSH2 0x1D PUSH0 CODECOPY PUSH0 RETURN INVALID PUSH1 0x80 PUSH1 0x40 MSTORE CALLVALUE DUP1 ISZERO PUSH2 0xF JUMPI PUSH0 DUP1 REVERT JUMPDEST POP PUSH1 0x4 CALLDATASIZE LT PUSH2 0x86 JUMPI PUSH0 CALLDATALOAD PUSH1 0xE0 SHR DUP1 PUSH4 0xB5D11A2E GT PUSH2 0x59 JUMPI DUP1 PUSH4 0xB5D11A2E EQ PUSH2 0xFC JUMPI DUP1 PUSH4 0xCE621014 EQ PUSH2 0x118 JUMPI DUP1 PUSH4 0xE52C0363 EQ PUSH2 0x136 JUMPI DUP1 PUSH4 0xF53B86FB EQ PUSH2 0x154 JUMPI PUSH2 0x86 JUMP JUMPDEST DUP1 PUSH4 0x24E48368 EQ PUSH2 0x8A JUMPI DUP1 PUSH4 0x71402A41 EQ PUSH2 0xA6 JUMPI DUP1 PUSH4 0x7C7FFCE4 EQ PUSH2 0xC4 JUMPI DUP1 PUSH4 0x816898FF EQ PUSH2 0xE0 JUMPI JUMPDEST PUSH0 DUP1 REVERT JUMPDEST PUSH2 0xA4 PUSH1 0x4 DUP1 CALLDATASIZE SUB DUP2 ADD SWAP1 PUSH2 0x9F SWAP2 SWAP1 PUSH2 0x1F3 JUMP JUMPDEST PUSH2 0x172 JUMP JUMPDEST STOP JUMPDEST PUSH2 0xAE PUSH2 0x17C JUMP JUMPDEST PUSH1 0x40 MLOAD PUSH2 0xBB SWAP2 SWAP1 PUSH2 0x22D JUMP JUMPDEST PUSH1 0x40 MLOAD DUP1 SWAP2 SUB SWAP1 RETURN JUMPDEST PUSH2 0xDE PUSH1 0x4 DUP1 CALLDATASIZE SUB DUP2 ADD SWAP1 PUSH2 0xD9 SWAP2 SWAP1 PUSH2 0x1F3 JUMP JUMPDEST PUSH2 0x185 JUMP JUMPDEST STOP JUMPDEST PUSH2 0xFA PUSH1 0x4 DUP1 CALLDATASIZE SUB DUP2 ADD SWAP1 PUSH2 0xF5 SWAP2 SWAP1 PUSH2 0x1F3 JUMP JUMPDEST PUSH2 0x18F JUMP JUMPDEST STOP JUMPDEST PUSH2 0x116 PUSH1 0x4 DUP1 CALLDATASIZE SUB DUP2 ADD SWAP1 PUSH2 0x111 SWAP2 SWAP1 PUSH2 0x1F3 JUMP JUMPDEST PUSH2 0x198 JUMP JUMPDEST STOP JUMPDEST PUSH2 0x120 PUSH2 0x1A2 JUMP JUMPDEST PUSH1 0x40 MLOAD PUSH2 0x12D SWAP2 SWAP1 PUSH2 0x22D JUMP JUMPDEST PUSH1 0x40 MLOAD DUP1 SWAP2 SUB SWAP1 RETURN JUMPDEST PUSH2 0x13E PUSH2 0x1AA JUMP JUMPDEST PUSH1 0x40 MLOAD PUSH2 0x14B SWAP2 SWAP1 PUSH2 0x22D JUMP JUMPDEST PUSH1 0x40 MLOAD DUP1 SWAP2 SUB SWAP1 RETURN JUMPDEST PUSH2 0x15C PUSH2 0x1B3 JUMP JUMPDEST PUSH1 0x40 MLOAD PUSH2 0x169 SWAP2 SWAP1 PUSH2 0x22D JUMP JUMPDEST PUSH1 0x40 MLOAD DUP1 SWAP2 SUB SWAP1 RETURN JUMPDEST DUP1 PUSH1 0x2 DUP2 SWAP1 SSTORE POP POP JUMP JUMPDEST PUSH0 PUSH1 0x1 SLOAD SWAP1 POP SWAP1 JUMP JUMPDEST DUP1 PUSH1 0x2 DUP2 SWAP1 SSTORE POP POP JUMP JUMPDEST DUP1 PUSH0 DUP2 SWAP1 SSTORE POP POP JUMP JUMPDEST DUP1 PUSH1 0x1 DUP2 SWAP1 SSTORE POP POP JUMP JUMPDEST PUSH0 DUP1 SLOAD SWAP1 POP SWAP1 JUMP JUMPDEST PUSH0 PUSH1 0x2 SLOAD SWAP1 POP SWAP1 JUMP JUMPDEST PUSH0 PUSH1 0x2 SLOAD SWAP1 POP SWAP1 JUMP JUMPDEST PUSH0 DUP1 REVERT JUMPDEST PUSH0 DUP2 SWAP1 POP SWAP2 SWAP1 POP JUMP JUMPDEST PUSH2 0x1D2 DUP2 PUSH2 0x1C0 JUMP JUMPDEST DUP2 EQ PUSH2 0x1DC JUMPI PUSH0 DUP1 REVERT JUMPDEST POP JUMP JUMPDEST PUSH0 DUP2 CALLDATALOAD SWAP1 POP PUSH2 0x1ED DUP2 PUSH2 0x1C9 JUMP JUMPDEST SWAP3 SWAP2 POP POP JUMP JUMPDEST PUSH0 PUSH1 0x20 DUP3 DUP5 SUB SLT ISZERO PUSH2 0x208 JUMPI PUSH2 0x207 PUSH2 0x1BC JUMP JUMPDEST JUMPDEST PUSH0 PUSH2 0x215 DUP5 DUP3 DUP6 ADD PUSH2 0x1DF JUMP JUMPDEST SWAP2 POP POP SWAP3 SWAP2 POP POP JUMP JUMPDEST PUSH2 0x227 DUP2 PUSH2 0x1C0 JUMP JUMPDEST DUP3 MSTORE POP POP JUMP JUMPDEST PUSH0 PUSH1 0x20 DUP3 ADD SWAP1 POP PUSH2 0x240 PUSH0 DUP4 ADD DUP5 PUSH2 0x21E JUMP JUMPDEST SWAP3 SWAP2 POP POP JUMP INVALID LOG2 PUSH5 0x6970667358 0x22 SLT KECCAK256 LOG0 0x4A SHL PUSH32 0xB59F6E6BC56BA299A81279F2E8BB2457426DBB508A2459F4FF05C1AC64736F6C PUSH4 0x43000816 STOP CALLER "
				},
				"gasEstimates": {
					"creation": {
						"codeDepositCost": "127200",
						"executionCost": "169",
						"totalCost": "127369"
					},
					"external": {
						"getT1()": "2454",
						"getT2()": "2455",
						"getT3()": "2498",
						"getT4()": "2476",
						"setT1(uint256)": "22581",
						"setT2(uint256)": "22515",
						"setT3(uint256)": "22516",
						"setT4(uint256)": "22560"
					}
				},
				"methodIdentifiers": {
					"getT1()": "ce621014",
					"getT2()": "71402a41",
					"getT3()": "f53b86fb",
					"getT4()": "e52c0363",
					"setT1(uint256)": "816898ff",
					"setT2(uint256)": "b5d11a2e",
					"setT3(uint256)": "24e48368",
					"setT4(uint256)": "7c7ffce4"
				}
			},
			"storageLayout": {
				"storage": [
					{
						"astId": 81,
						"contract": "address_test.sol:Test_2",
						"label": "t0",
						"offset": 0,
						"slot": "0",
						"type": "t_uint256"
					},
					{
						"astId": 83,
						"contract": "address_test.sol:Test_2",
						"label": "ttttttttttttttttttttttttttt2",
						"offset": 0,
						"slot": "1",
						"type": "t_uint256"
					},
					{
						"astId": 85,
						"contract": "address_test.sol:Test_2",
						"label": "t3",
						"offset": 0,
						"slot": "2",
						"type": "t_uint256"
					}
				],
				"types": {
					"t_uint256": {
						"encoding": "inplace",
						"label": "uint256",
						"numberOfBytes": "32"
					}
				}
			},
			"userdoc": {
				"kind": "user",
				"methods": {},
				"version": 1
			}
		}
	}
}