{
	"basic_37_40.sol": {
		"Basic_37_40": {
			"abi": [
				{
					"inputs": [],
					"stateMutability": "nonpayable",
					"type": "constructor"
				},
				{
					"inputs": [
						{
							"internalType": "uint256[]",
							"name": "_list",
							"type": "uint256[]"
						}
					],
					"name": "Ascending",
					"outputs": [
						{
							"internalType": "uint256",
							"name": "",
							"type": "uint256"
						},
						{
							"internalType": "uint256",
							"name": "",
							"type": "uint256"
						}
					],
					"stateMutability": "pure",
					"type": "function"
				},
				{
					"inputs": [
						{
							"internalType": "uint256",
							"name": "_n",
							"type": "uint256"
						}
					],
					"name": "checkMultipleOf",
					"outputs": [
						{
							"internalType": "uint256[4]",
							"name": "",
							"type": "uint256[4]"
						}
					],
					"stateMutability": "pure",
					"type": "function"
				},
				{
					"inputs": [],
					"name": "deposit",
					"outputs": [],
					"stateMutability": "payable",
					"type": "function"
				},
				{
					"inputs": [],
					"name": "depositEther",
					"outputs": [],
					"stateMutability": "payable",
					"type": "function"
				},
				{
					"inputs": [],
					"name": "depositFinney",
					"outputs": [],
					"stateMutability": "payable",
					"type": "function"
				},
				{
					"inputs": [],
					"name": "depositWei",
					"outputs": [],
					"stateMutability": "payable",
					"type": "function"
				},
				{
					"inputs": [],
					"name": "getA",
					"outputs": [
						{
							"internalType": "string",
							"name": "",
							"type": "string"
						}
					],
					"stateMutability": "view",
					"type": "function"
				},
				{
					"inputs": [],
					"name": "getBalance",
					"outputs": [
						{
							"internalType": "uint256",
							"name": "",
							"type": "uint256"
						}
					],
					"stateMutability": "view",
					"type": "function"
				},
				{
					"inputs": [
						{
							"internalType": "uint256[]",
							"name": "_a",
							"type": "uint256[]"
						}
					],
					"name": "getMedian",
					"outputs": [
						{
							"internalType": "uint256[]",
							"name": "",
							"type": "uint256[]"
						}
					],
					"stateMutability": "pure",
					"type": "function"
				},
				{
					"inputs": [],
					"name": "setAtoB",
					"outputs": [],
					"stateMutability": "nonpayable",
					"type": "function"
				},
				{
					"inputs": [],
					"name": "setAtoC",
					"outputs": [],
					"stateMutability": "nonpayable",
					"type": "function"
				},
				{
					"inputs": [
						{
							"internalType": "uint256",
							"name": "_n",
							"type": "uint256"
						}
					],
					"name": "test39",
					"outputs": [
						{
							"internalType": "uint256[4]",
							"name": "",
							"type": "uint256[4]"
						}
					],
					"stateMutability": "pure",
					"type": "function"
				},
				{
					"inputs": [],
					"name": "withdraw",
					"outputs": [],
					"stateMutability": "nonpayable",
					"type": "function"
				}
			],
			"devdoc": {
				"kind": "dev",
				"methods": {},
				"version": 1
			},
			"evm": {
				"assembly": "    /* \"basic_37_40.sol\":72:4952  contract Basic_37_40{... */\n  mstore(0x40, 0x80)\n    /* \"basic_37_40.sol\":597:675  constructor() {... */\n  callvalue\n  dup1\n  iszero\n  tag_1\n  jumpi\n  0x00\n  dup1\n  revert\ntag_1:\n  pop\n    /* \"basic_37_40.sol\":638:648  msg.sender */\n  caller\n    /* \"basic_37_40.sol\":622:627  owner */\n  0x00\n  dup1\n    /* \"basic_37_40.sol\":622:649  owner = payable(msg.sender) */\n  0x0100\n  exp\n  dup2\n  sload\n  dup2\n  0xffffffffffffffffffffffffffffffffffffffff\n  mul\n  not\n  and\n  swap1\n  dup4\n  0xffffffffffffffffffffffffffffffffffffffff\n  and\n  mul\n  or\n  swap1\n  sstore\n  pop\n    /* \"basic_37_40.sol\":660:667  a = \"A\" */\n  mload(0x40)\n  dup1\n  0x40\n  add\n  0x40\n  mstore\n  dup1\n  0x01\n  dup2\n  mstore\n  0x20\n  add\n  0x4100000000000000000000000000000000000000000000000000000000000000\n  dup2\n  mstore\n  pop\n    /* \"basic_37_40.sol\":660:661  a */\n  0x02\n    /* \"basic_37_40.sol\":660:667  a = \"A\" */\n  swap1\n  dup2\n  tag_4\n  swap2\n  swap1\n  tag_5\n  jump\t// in\ntag_4:\n  pop\n    /* \"basic_37_40.sol\":72:4952  contract Basic_37_40{... */\n  jump(tag_6)\n    /* \"#utility.yul\":7:106   */\ntag_7:\n    /* \"#utility.yul\":59:65   */\n  0x00\n    /* \"#utility.yul\":93:98   */\n  dup2\n    /* \"#utility.yul\":87:99   */\n  mload\n    /* \"#utility.yul\":77:99   */\n  swap1\n  pop\n    /* \"#utility.yul\":7:106   */\n  swap2\n  swap1\n  pop\n  jump\t// out\n    /* \"#utility.yul\":112:292   */\ntag_8:\n    /* \"#utility.yul\":160:237   */\n  0x4e487b7100000000000000000000000000000000000000000000000000000000\n    /* \"#utility.yul\":157:158   */\n  0x00\n    /* \"#utility.yul\":150:238   */\n  mstore\n    /* \"#utility.yul\":257:261   */\n  0x41\n    /* \"#utility.yul\":254:255   */\n  0x04\n    /* \"#utility.yul\":247:262   */\n  mstore\n    /* \"#utility.yul\":281:285   */\n  0x24\n    /* \"#utility.yul\":278:279   */\n  0x00\n    /* \"#utility.yul\":271:286   */\n  revert\n    /* \"#utility.yul\":298:478   */\ntag_9:\n    /* \"#utility.yul\":346:423   */\n  0x4e487b7100000000000000000000000000000000000000000000000000000000\n    /* \"#utility.yul\":343:344   */\n  0x00\n    /* \"#utility.yul\":336:424   */\n  mstore\n    /* \"#utility.yul\":443:447   */\n  0x22\n    /* \"#utility.yul\":440:441   */\n  0x04\n    /* \"#utility.yul\":433:448   */\n  mstore\n    /* \"#utility.yul\":467:471   */\n  0x24\n    /* \"#utility.yul\":464:465   */\n  0x00\n    /* \"#utility.yul\":457:472   */\n  revert\n    /* \"#utility.yul\":484:804   */\ntag_10:\n    /* \"#utility.yul\":528:534   */\n  0x00\n    /* \"#utility.yul\":565:566   */\n  0x02\n    /* \"#utility.yul\":559:563   */\n  dup3\n    /* \"#utility.yul\":555:567   */\n  div\n    /* \"#utility.yul\":545:567   */\n  swap1\n  pop\n    /* \"#utility.yul\":612:613   */\n  0x01\n    /* \"#utility.yul\":606:610   */\n  dup3\n    /* \"#utility.yul\":602:614   */\n  and\n    /* \"#utility.yul\":633:651   */\n  dup1\n    /* \"#utility.yul\":623:704   */\n  tag_32\n  jumpi\n    /* \"#utility.yul\":689:693   */\n  0x7f\n    /* \"#utility.yul\":681:687   */\n  dup3\n    /* \"#utility.yul\":677:694   */\n  and\n    /* \"#utility.yul\":667:694   */\n  swap2\n  pop\n    /* \"#utility.yul\":623:704   */\ntag_32:\n    /* \"#utility.yul\":751:753   */\n  0x20\n    /* \"#utility.yul\":743:749   */\n  dup3\n    /* \"#utility.yul\":740:754   */\n  lt\n    /* \"#utility.yul\":720:738   */\n  dup2\n    /* \"#utility.yul\":717:755   */\n  sub\n    /* \"#utility.yul\":714:798   */\n  tag_33\n  jumpi\n    /* \"#utility.yul\":770:788   */\n  tag_34\n  tag_9\n  jump\t// in\ntag_34:\n    /* \"#utility.yul\":714:798   */\ntag_33:\n    /* \"#utility.yul\":535:804   */\n  pop\n    /* \"#utility.yul\":484:804   */\n  swap2\n  swap1\n  pop\n  jump\t// out\n    /* \"#utility.yul\":810:951   */\ntag_11:\n    /* \"#utility.yul\":859:863   */\n  0x00\n    /* \"#utility.yul\":882:885   */\n  dup2\n    /* \"#utility.yul\":874:885   */\n  swap1\n  pop\n    /* \"#utility.yul\":905:908   */\n  dup2\n    /* \"#utility.yul\":902:903   */\n  0x00\n    /* \"#utility.yul\":895:909   */\n  mstore\n    /* \"#utility.yul\":939:943   */\n  0x20\n    /* \"#utility.yul\":936:937   */\n  0x00\n    /* \"#utility.yul\":926:944   */\n  keccak256\n    /* \"#utility.yul\":918:944   */\n  swap1\n  pop\n    /* \"#utility.yul\":810:951   */\n  swap2\n  swap1\n  pop\n  jump\t// out\n    /* \"#utility.yul\":957:1050   */\ntag_12:\n    /* \"#utility.yul\":994:1000   */\n  0x00\n    /* \"#utility.yul\":1041:1043   */\n  0x20\n    /* \"#utility.yul\":1036:1038   */\n  0x1f\n    /* \"#utility.yul\":1029:1034   */\n  dup4\n    /* \"#utility.yul\":1025:1039   */\n  add\n    /* \"#utility.yul\":1021:1044   */\n  div\n    /* \"#utility.yul\":1011:1044   */\n  swap1\n  pop\n    /* \"#utility.yul\":957:1050   */\n  swap2\n  swap1\n  pop\n  jump\t// out\n    /* \"#utility.yul\":1056:1163   */\ntag_13:\n    /* \"#utility.yul\":1100:1108   */\n  0x00\n    /* \"#utility.yul\":1150:1155   */\n  dup3\n    /* \"#utility.yul\":1144:1148   */\n  dup3\n    /* \"#utility.yul\":1140:1156   */\n  shl\n    /* \"#utility.yul\":1119:1156   */\n  swap1\n  pop\n    /* \"#utility.yul\":1056:1163   */\n  swap3\n  swap2\n  pop\n  pop\n  jump\t// out\n    /* \"#utility.yul\":1169:1562   */\ntag_14:\n    /* \"#utility.yul\":1238:1244   */\n  0x00\n    /* \"#utility.yul\":1288:1289   */\n  0x08\n    /* \"#utility.yul\":1276:1286   */\n  dup4\n    /* \"#utility.yul\":1272:1290   */\n  mul\n    /* \"#utility.yul\":1311:1408   */\n  tag_39\n    /* \"#utility.yul\":1341:1407   */\n  0xffffffffffffffffffffffffffffffffffffffffffffffffffffffffffffffff\n    /* \"#utility.yul\":1330:1339   */\n  dup3\n    /* \"#utility.yul\":1311:1408   */\n  tag_13\n  jump\t// in\ntag_39:\n    /* \"#utility.yul\":1429:1468   */\n  tag_40\n    /* \"#utility.yul\":1459:1467   */\n  dup7\n    /* \"#utility.yul\":1448:1457   */\n  dup4\n    /* \"#utility.yul\":1429:1468   */\n  tag_13\n  jump\t// in\ntag_40:\n    /* \"#utility.yul\":1417:1468   */\n  swap6\n  pop\n    /* \"#utility.yul\":1501:1505   */\n  dup1\n    /* \"#utility.yul\":1497:1506   */\n  not\n    /* \"#utility.yul\":1490:1495   */\n  dup5\n    /* \"#utility.yul\":1486:1507   */\n  and\n    /* \"#utility.yul\":1477:1507   */\n  swap4\n  pop\n    /* \"#utility.yul\":1550:1554   */\n  dup1\n    /* \"#utility.yul\":1540:1548   */\n  dup7\n    /* \"#utility.yul\":1536:1555   */\n  and\n    /* \"#utility.yul\":1529:1534   */\n  dup5\n    /* \"#utility.yul\":1526:1556   */\n  or\n    /* \"#utility.yul\":1516:1556   */\n  swap3\n  pop\n    /* \"#utility.yul\":1245:1562   */\n  pop\n  pop\n    /* \"#utility.yul\":1169:1562   */\n  swap4\n  swap3\n  pop\n  pop\n  pop\n  jump\t// out\n    /* \"#utility.yul\":1568:1645   */\ntag_15:\n    /* \"#utility.yul\":1605:1612   */\n  0x00\n    /* \"#utility.yul\":1634:1639   */\n  dup2\n    /* \"#utility.yul\":1623:1639   */\n  swap1\n  pop\n    /* \"#utility.yul\":1568:1645   */\n  swap2\n  swap1\n  pop\n  jump\t// out\n    /* \"#utility.yul\":1651:1711   */\ntag_16:\n    /* \"#utility.yul\":1679:1682   */\n  0x00\n    /* \"#utility.yul\":1700:1705   */\n  dup2\n    /* \"#utility.yul\":1693:1705   */\n  swap1\n  pop\n    /* \"#utility.yul\":1651:1711   */\n  swap2\n  swap1\n  pop\n  jump\t// out\n    /* \"#utility.yul\":1717:1859   */\ntag_17:\n    /* \"#utility.yul\":1767:1776   */\n  0x00\n    /* \"#utility.yul\":1800:1853   */\n  tag_44\n    /* \"#utility.yul\":1818:1852   */\n  tag_45\n    /* \"#utility.yul\":1827:1851   */\n  tag_46\n    /* \"#utility.yul\":1845:1850   */\n  dup5\n    /* \"#utility.yul\":1827:1851   */\n  tag_15\n  jump\t// in\ntag_46:\n    /* \"#utility.yul\":1818:1852   */\n  tag_16\n  jump\t// in\ntag_45:\n    /* \"#utility.yul\":1800:1853   */\n  tag_15\n  jump\t// in\ntag_44:\n    /* \"#utility.yul\":1787:1853   */\n  swap1\n  pop\n    /* \"#utility.yul\":1717:1859   */\n  swap2\n  swap1\n  pop\n  jump\t// out\n    /* \"#utility.yul\":1865:1940   */\ntag_18:\n    /* \"#utility.yul\":1908:1911   */\n  0x00\n    /* \"#utility.yul\":1929:1934   */\n  dup2\n    /* \"#utility.yul\":1922:1934   */\n  swap1\n  pop\n    /* \"#utility.yul\":1865:1940   */\n  swap2\n  swap1\n  pop\n  jump\t// out\n    /* \"#utility.yul\":1946:2215   */\ntag_19:\n    /* \"#utility.yul\":2056:2095   */\n  tag_49\n    /* \"#utility.yul\":2087:2094   */\n  dup4\n    /* \"#utility.yul\":2056:2095   */\n  tag_17\n  jump\t// in\ntag_49:\n    /* \"#utility.yul\":2117:2208   */\n  tag_50\n    /* \"#utility.yul\":2166:2207   */\n  tag_51\n    /* \"#utility.yul\":2190:2206   */\n  dup3\n    /* \"#utility.yul\":2166:2207   */\n  tag_18\n  jump\t// in\ntag_51:\n    /* \"#utility.yul\":2158:2164   */\n  dup5\n    /* \"#utility.yul\":2151:2155   */\n  dup5\n    /* \"#utility.yul\":2145:2156   */\n  sload\n    /* \"#utility.yul\":2117:2208   */\n  tag_14\n  jump\t// in\ntag_50:\n    /* \"#utility.yul\":2111:2115   */\n  dup3\n    /* \"#utility.yul\":2104:2209   */\n  sstore\n    /* \"#utility.yul\":2022:2215   */\n  pop\n    /* \"#utility.yul\":1946:2215   */\n  pop\n  pop\n  pop\n  jump\t// out\n    /* \"#utility.yul\":2221:2294   */\ntag_20:\n    /* \"#utility.yul\":2266:2269   */\n  0x00\n    /* \"#utility.yul\":2221:2294   */\n  swap1\n  jump\t// out\n    /* \"#utility.yul\":2300:2489   */\ntag_21:\n    /* \"#utility.yul\":2377:2409   */\n  tag_54\n  tag_20\n  jump\t// in\ntag_54:\n    /* \"#utility.yul\":2418:2483   */\n  tag_55\n    /* \"#utility.yul\":2476:2482   */\n  dup2\n    /* \"#utility.yul\":2468:2474   */\n  dup5\n    /* \"#utility.yul\":2462:2466   */\n  dup5\n    /* \"#utility.yul\":2418:2483   */\n  tag_19\n  jump\t// in\ntag_55:\n    /* \"#utility.yul\":2353:2489   */\n  pop\n    /* \"#utility.yul\":2300:2489   */\n  pop\n  pop\n  jump\t// out\n    /* \"#utility.yul\":2495:2681   */\ntag_22:\n    /* \"#utility.yul\":2555:2675   */\ntag_57:\n    /* \"#utility.yul\":2572:2575   */\n  dup2\n    /* \"#utility.yul\":2565:2570   */\n  dup2\n    /* \"#utility.yul\":2562:2576   */\n  lt\n    /* \"#utility.yul\":2555:2675   */\n  iszero\n  tag_59\n  jumpi\n    /* \"#utility.yul\":2626:2665   */\n  tag_60\n    /* \"#utility.yul\":2663:2664   */\n  0x00\n    /* \"#utility.yul\":2656:2661   */\n  dup3\n    /* \"#utility.yul\":2626:2665   */\n  tag_21\n  jump\t// in\ntag_60:\n    /* \"#utility.yul\":2599:2600   */\n  0x01\n    /* \"#utility.yul\":2592:2597   */\n  dup2\n    /* \"#utility.yul\":2588:2601   */\n  add\n    /* \"#utility.yul\":2579:2601   */\n  swap1\n  pop\n    /* \"#utility.yul\":2555:2675   */\n  jump(tag_57)\ntag_59:\n    /* \"#utility.yul\":2495:2681   */\n  pop\n  pop\n  jump\t// out\n    /* \"#utility.yul\":2687:3230   */\ntag_23:\n    /* \"#utility.yul\":2788:2790   */\n  0x1f\n    /* \"#utility.yul\":2783:2786   */\n  dup3\n    /* \"#utility.yul\":2780:2791   */\n  gt\n    /* \"#utility.yul\":2777:3223   */\n  iszero\n  tag_62\n  jumpi\n    /* \"#utility.yul\":2822:2860   */\n  tag_63\n    /* \"#utility.yul\":2854:2859   */\n  dup2\n    /* \"#utility.yul\":2822:2860   */\n  tag_11\n  jump\t// in\ntag_63:\n    /* \"#utility.yul\":2906:2935   */\n  tag_64\n    /* \"#utility.yul\":2924:2934   */\n  dup5\n    /* \"#utility.yul\":2906:2935   */\n  tag_12\n  jump\t// in\ntag_64:\n    /* \"#utility.yul\":2896:2904   */\n  dup2\n    /* \"#utility.yul\":2892:2936   */\n  add\n    /* \"#utility.yul\":3089:3091   */\n  0x20\n    /* \"#utility.yul\":3077:3087   */\n  dup6\n    /* \"#utility.yul\":3074:3092   */\n  lt\n    /* \"#utility.yul\":3071:3120   */\n  iszero\n  tag_65\n  jumpi\n    /* \"#utility.yul\":3110:3118   */\n  dup2\n    /* \"#utility.yul\":3095:3118   */\n  swap1\n  pop\n    /* \"#utility.yul\":3071:3120   */\ntag_65:\n    /* \"#utility.yul\":3133:3213   */\n  tag_66\n    /* \"#utility.yul\":3189:3211   */\n  tag_67\n    /* \"#utility.yul\":3207:3210   */\n  dup6\n    /* \"#utility.yul\":3189:3211   */\n  tag_12\n  jump\t// in\ntag_67:\n    /* \"#utility.yul\":3179:3187   */\n  dup4\n    /* \"#utility.yul\":3175:3212   */\n  add\n    /* \"#utility.yul\":3162:3173   */\n  dup3\n    /* \"#utility.yul\":3133:3213   */\n  tag_22\n  jump\t// in\ntag_66:\n    /* \"#utility.yul\":2792:3223   */\n  pop\n  pop\n    /* \"#utility.yul\":2777:3223   */\ntag_62:\n    /* \"#utility.yul\":2687:3230   */\n  pop\n  pop\n  pop\n  jump\t// out\n    /* \"#utility.yul\":3236:3353   */\ntag_24:\n    /* \"#utility.yul\":3290:3298   */\n  0x00\n    /* \"#utility.yul\":3340:3345   */\n  dup3\n    /* \"#utility.yul\":3334:3338   */\n  dup3\n    /* \"#utility.yul\":3330:3346   */\n  shr\n    /* \"#utility.yul\":3309:3346   */\n  swap1\n  pop\n    /* \"#utility.yul\":3236:3353   */\n  swap3\n  swap2\n  pop\n  pop\n  jump\t// out\n    /* \"#utility.yul\":3359:3528   */\ntag_25:\n    /* \"#utility.yul\":3403:3409   */\n  0x00\n    /* \"#utility.yul\":3436:3487   */\n  tag_70\n    /* \"#utility.yul\":3484:3485   */\n  0x00\n    /* \"#utility.yul\":3480:3486   */\n  not\n    /* \"#utility.yul\":3472:3477   */\n  dup5\n    /* \"#utility.yul\":3469:3470   */\n  0x08\n    /* \"#utility.yul\":3465:3478   */\n  mul\n    /* \"#utility.yul\":3436:3487   */\n  tag_24\n  jump\t// in\ntag_70:\n    /* \"#utility.yul\":3432:3488   */\n  not\n    /* \"#utility.yul\":3517:3521   */\n  dup1\n    /* \"#utility.yul\":3511:3515   */\n  dup4\n    /* \"#utility.yul\":3507:3522   */\n  and\n    /* \"#utility.yul\":3497:3522   */\n  swap2\n  pop\n    /* \"#utility.yul\":3410:3528   */\n  pop\n    /* \"#utility.yul\":3359:3528   */\n  swap3\n  swap2\n  pop\n  pop\n  jump\t// out\n    /* \"#utility.yul\":3533:3828   */\ntag_26:\n    /* \"#utility.yul\":3609:3613   */\n  0x00\n    /* \"#utility.yul\":3755:3784   */\n  tag_72\n    /* \"#utility.yul\":3780:3783   */\n  dup4\n    /* \"#utility.yul\":3774:3778   */\n  dup4\n    /* \"#utility.yul\":3755:3784   */\n  tag_25\n  jump\t// in\ntag_72:\n    /* \"#utility.yul\":3747:3784   */\n  swap2\n  pop\n    /* \"#utility.yul\":3817:3820   */\n  dup3\n    /* \"#utility.yul\":3814:3815   */\n  0x02\n    /* \"#utility.yul\":3810:3821   */\n  mul\n    /* \"#utility.yul\":3804:3808   */\n  dup3\n    /* \"#utility.yul\":3801:3822   */\n  or\n    /* \"#utility.yul\":3793:3822   */\n  swap1\n  pop\n    /* \"#utility.yul\":3533:3828   */\n  swap3\n  swap2\n  pop\n  pop\n  jump\t// out\n    /* \"#utility.yul\":3833:5228   */\ntag_5:\n    /* \"#utility.yul\":3950:3987   */\n  tag_74\n    /* \"#utility.yul\":3983:3986   */\n  dup3\n    /* \"#utility.yul\":3950:3987   */\n  tag_7\n  jump\t// in\ntag_74:\n    /* \"#utility.yul\":4052:4070   */\n  0xffffffffffffffff\n    /* \"#utility.yul\":4044:4050   */\n  dup2\n    /* \"#utility.yul\":4041:4071   */\n  gt\n    /* \"#utility.yul\":4038:4094   */\n  iszero\n  tag_75\n  jumpi\n    /* \"#utility.yul\":4074:4092   */\n  tag_76\n  tag_8\n  jump\t// in\ntag_76:\n    /* \"#utility.yul\":4038:4094   */\ntag_75:\n    /* \"#utility.yul\":4118:4156   */\n  tag_77\n    /* \"#utility.yul\":4150:4154   */\n  dup3\n    /* \"#utility.yul\":4144:4155   */\n  sload\n    /* \"#utility.yul\":4118:4156   */\n  tag_10\n  jump\t// in\ntag_77:\n    /* \"#utility.yul\":4203:4270   */\n  tag_78\n    /* \"#utility.yul\":4263:4269   */\n  dup3\n    /* \"#utility.yul\":4255:4261   */\n  dup3\n    /* \"#utility.yul\":4249:4253   */\n  dup6\n    /* \"#utility.yul\":4203:4270   */\n  tag_23\n  jump\t// in\ntag_78:\n    /* \"#utility.yul\":4297:4298   */\n  0x00\n    /* \"#utility.yul\":4321:4325   */\n  0x20\n    /* \"#utility.yul\":4308:4325   */\n  swap1\n  pop\n    /* \"#utility.yul\":4353:4355   */\n  0x1f\n    /* \"#utility.yul\":4345:4351   */\n  dup4\n    /* \"#utility.yul\":4342:4356   */\n  gt\n    /* \"#utility.yul\":4370:4371   */\n  0x01\n    /* \"#utility.yul\":4365:4983   */\n  dup2\n  eq\n  tag_80\n  jumpi\n    /* \"#utility.yul\":5027:5028   */\n  0x00\n    /* \"#utility.yul\":5044:5050   */\n  dup5\n    /* \"#utility.yul\":5041:5118   */\n  iszero\n  tag_81\n  jumpi\n    /* \"#utility.yul\":5093:5102   */\n  dup3\n    /* \"#utility.yul\":5088:5091   */\n  dup8\n    /* \"#utility.yul\":5084:5103   */\n  add\n    /* \"#utility.yul\":5078:5104   */\n  mload\n    /* \"#utility.yul\":5069:5104   */\n  swap1\n  pop\n    /* \"#utility.yul\":5041:5118   */\ntag_81:\n    /* \"#utility.yul\":5144:5211   */\n  tag_82\n    /* \"#utility.yul\":5204:5210   */\n  dup6\n    /* \"#utility.yul\":5197:5202   */\n  dup3\n    /* \"#utility.yul\":5144:5211   */\n  tag_26\n  jump\t// in\ntag_82:\n    /* \"#utility.yul\":5138:5142   */\n  dup7\n    /* \"#utility.yul\":5131:5212   */\n  sstore\n    /* \"#utility.yul\":5000:5222   */\n  pop\n    /* \"#utility.yul\":4335:5222   */\n  jump(tag_79)\n    /* \"#utility.yul\":4365:4983   */\ntag_80:\n    /* \"#utility.yul\":4417:4421   */\n  0x1f\n    /* \"#utility.yul\":4413:4422   */\n  not\n    /* \"#utility.yul\":4405:4411   */\n  dup5\n    /* \"#utility.yul\":4401:4423   */\n  and\n    /* \"#utility.yul\":4451:4488   */\n  tag_83\n    /* \"#utility.yul\":4483:4487   */\n  dup7\n    /* \"#utility.yul\":4451:4488   */\n  tag_11\n  jump\t// in\ntag_83:\n    /* \"#utility.yul\":4510:4511   */\n  0x00\n    /* \"#utility.yul\":4524:4732   */\ntag_84:\n    /* \"#utility.yul\":4538:4545   */\n  dup3\n    /* \"#utility.yul\":4535:4536   */\n  dup2\n    /* \"#utility.yul\":4532:4546   */\n  lt\n    /* \"#utility.yul\":4524:4732   */\n  iszero\n  tag_86\n  jumpi\n    /* \"#utility.yul\":4617:4626   */\n  dup5\n    /* \"#utility.yul\":4612:4615   */\n  dup10\n    /* \"#utility.yul\":4608:4627   */\n  add\n    /* \"#utility.yul\":4602:4628   */\n  mload\n    /* \"#utility.yul\":4594:4600   */\n  dup3\n    /* \"#utility.yul\":4587:4629   */\n  sstore\n    /* \"#utility.yul\":4668:4669   */\n  0x01\n    /* \"#utility.yul\":4660:4666   */\n  dup3\n    /* \"#utility.yul\":4656:4670   */\n  add\n    /* \"#utility.yul\":4646:4670   */\n  swap2\n  pop\n    /* \"#utility.yul\":4715:4717   */\n  0x20\n    /* \"#utility.yul\":4704:4713   */\n  dup6\n    /* \"#utility.yul\":4700:4718   */\n  add\n    /* \"#utility.yul\":4687:4718   */\n  swap5\n  pop\n    /* \"#utility.yul\":4561:4565   */\n  0x20\n    /* \"#utility.yul\":4558:4559   */\n  dup2\n    /* \"#utility.yul\":4554:4566   */\n  add\n    /* \"#utility.yul\":4549:4566   */\n  swap1\n  pop\n    /* \"#utility.yul\":4524:4732   */\n  jump(tag_84)\ntag_86:\n    /* \"#utility.yul\":4760:4766   */\n  dup7\n    /* \"#utility.yul\":4751:4758   */\n  dup4\n    /* \"#utility.yul\":4748:4767   */\n  lt\n    /* \"#utility.yul\":4745:4924   */\n  iszero\n  tag_87\n  jumpi\n    /* \"#utility.yul\":4818:4827   */\n  dup5\n    /* \"#utility.yul\":4813:4816   */\n  dup10\n    /* \"#utility.yul\":4809:4828   */\n  add\n    /* \"#utility.yul\":4803:4829   */\n  mload\n    /* \"#utility.yul\":4861:4909   */\n  tag_88\n    /* \"#utility.yul\":4903:4907   */\n  0x1f\n    /* \"#utility.yul\":4895:4901   */\n  dup10\n    /* \"#utility.yul\":4891:4908   */\n  and\n    /* \"#utility.yul\":4880:4889   */\n  dup3\n    /* \"#utility.yul\":4861:4909   */\n  tag_25\n  jump\t// in\ntag_88:\n    /* \"#utility.yul\":4853:4859   */\n  dup4\n    /* \"#utility.yul\":4846:4910   */\n  sstore\n    /* \"#utility.yul\":4768:4924   */\n  pop\n    /* \"#utility.yul\":4745:4924   */\ntag_87:\n    /* \"#utility.yul\":4970:4971   */\n  0x01\n    /* \"#utility.yul\":4966:4967   */\n  0x02\n    /* \"#utility.yul\":4958:4964   */\n  dup9\n    /* \"#utility.yul\":4954:4968   */\n  mul\n    /* \"#utility.yul\":4950:4972   */\n  add\n    /* \"#utility.yul\":4944:4948   */\n  dup9\n    /* \"#utility.yul\":4937:4973   */\n  sstore\n    /* \"#utility.yul\":4372:4983   */\n  pop\n  pop\n  pop\n    /* \"#utility.yul\":4335:5222   */\ntag_79:\n  pop\n    /* \"#utility.yul\":3925:5228   */\n  pop\n  pop\n  pop\n    /* \"#utility.yul\":3833:5228   */\n  pop\n  pop\n  jump\t// out\n    /* \"basic_37_40.sol\":72:4952  contract Basic_37_40{... */\ntag_6:\n  dataSize(sub_0)\n  dup1\n  dataOffset(sub_0)\n  0x00\n  codecopy\n  0x00\n  return\nstop\n\nsub_0: assembly {\n        /* \"basic_37_40.sol\":72:4952  contract Basic_37_40{... */\n      mstore(0x40, 0x80)\n      jumpi(tag_1, lt(calldatasize, 0x04))\n      shr(0xe0, calldataload(0x00))\n      dup1\n      0xb4f22d1a\n      gt\n      tag_15\n      jumpi\n      dup1\n      0xd7956766\n      gt\n      tag_16\n      jumpi\n      dup1\n      0xd7956766\n      eq\n      tag_11\n      jumpi\n      dup1\n      0xe8787f41\n      eq\n      tag_12\n      jumpi\n      dup1\n      0xea9d81bc\n      eq\n      tag_13\n      jumpi\n      dup1\n      0xfd172a91\n      eq\n      tag_14\n      jumpi\n      jump(tag_1)\n    tag_16:\n      dup1\n      0xb4f22d1a\n      eq\n      tag_8\n      jumpi\n      dup1\n      0xd0e30db0\n      eq\n      tag_9\n      jumpi\n      dup1\n      0xd46300fd\n      eq\n      tag_10\n      jumpi\n      jump(tag_1)\n    tag_15:\n      dup1\n      0x12065fe0\n      eq\n      tag_2\n      jumpi\n      dup1\n      0x15488b88\n      eq\n      tag_3\n      jumpi\n      dup1\n      0x3ccfd60b\n      eq\n      tag_4\n      jumpi\n      dup1\n      0x710266e3\n      eq\n      tag_5\n      jumpi\n      dup1\n      0x98ea5fca\n      eq\n      tag_6\n      jumpi\n      dup1\n      0xb117128c\n      eq\n      tag_7\n      jumpi\n    tag_1:\n      0x00\n      dup1\n      revert\n        /* \"basic_37_40.sol\":1176:1256  function getBalance() public view returns(uint){... */\n    tag_2:\n      callvalue\n      dup1\n      iszero\n      tag_17\n      jumpi\n      0x00\n      dup1\n      revert\n    tag_17:\n      pop\n      tag_18\n      tag_19\n      jump\t// in\n    tag_18:\n      mload(0x40)\n      tag_20\n      swap2\n      swap1\n      tag_21\n      jump\t// in\n    tag_20:\n      mload(0x40)\n      dup1\n      swap2\n      sub\n      swap1\n      return\n        /* \"basic_37_40.sol\":687:811  function depositWei() public payable {... */\n    tag_3:\n      tag_22\n      tag_23\n      jump\t// in\n    tag_22:\n      stop\n        /* \"basic_37_40.sol\":1355:1487  function withdraw() public {... */\n    tag_4:\n      callvalue\n      dup1\n      iszero\n      tag_24\n      jumpi\n      0x00\n      dup1\n      revert\n    tag_24:\n      pop\n      tag_25\n      tag_26\n      jump\t// in\n    tag_25:\n      stop\n        /* \"basic_37_40.sol\":849:982  function depositFinney() public payable {... */\n    tag_5:\n      tag_27\n      tag_28\n      jump\t// in\n    tag_27:\n      stop\n        /* \"basic_37_40.sol\":990:1118  function depositEther() public payable {... */\n    tag_6:\n      tag_29\n      tag_30\n      jump\t// in\n    tag_29:\n      stop\n        /* \"basic_37_40.sol\":2590:2932  function checkMultipleOf(uint _n) public pure returns(uint[4] memory) {... */\n    tag_7:\n      callvalue\n      dup1\n      iszero\n      tag_31\n      jumpi\n      0x00\n      dup1\n      revert\n    tag_31:\n      pop\n      tag_32\n      0x04\n      dup1\n      calldatasize\n      sub\n      dup2\n      add\n      swap1\n      tag_33\n      swap2\n      swap1\n      tag_34\n      jump\t// in\n    tag_33:\n      tag_35\n      jump\t// in\n    tag_32:\n      mload(0x40)\n      tag_36\n      swap2\n      swap1\n      tag_37\n      jump\t// in\n    tag_36:\n      mload(0x40)\n      dup1\n      swap2\n      sub\n      swap1\n      return\n        /* \"basic_37_40.sol\":2100:2142  function setAtoC() public mod { a = \"C\"; } */\n    tag_8:\n      callvalue\n      dup1\n      iszero\n      tag_38\n      jumpi\n      0x00\n      dup1\n      revert\n    tag_38:\n      pop\n      tag_39\n      tag_40\n      jump\t// in\n    tag_39:\n      stop\n        /* \"basic_37_40.sol\":1126:1168  function deposit() public payable {... */\n    tag_9:\n      tag_41\n      tag_42\n      jump\t// in\n    tag_41:\n      stop\n        /* \"basic_37_40.sol\":2148:2211  function getA() public view returns(string memory) { return a;} */\n    tag_10:\n      callvalue\n      dup1\n      iszero\n      tag_43\n      jumpi\n      0x00\n      dup1\n      revert\n    tag_43:\n      pop\n      tag_44\n      tag_45\n      jump\t// in\n    tag_44:\n      mload(0x40)\n      tag_46\n      swap2\n      swap1\n      tag_47\n      jump\t// in\n    tag_46:\n      mload(0x40)\n      dup1\n      swap2\n      sub\n      swap1\n      return\n        /* \"basic_37_40.sol\":2052:2094  function setAtoB() public mod { a = \"B\"; } */\n    tag_11:\n      callvalue\n      dup1\n      iszero\n      tag_48\n      jumpi\n      0x00\n      dup1\n      revert\n    tag_48:\n      pop\n      tag_49\n      tag_50\n      jump\t// in\n    tag_49:\n      stop\n        /* \"basic_37_40.sol\":4260:4947  function getMedian(uint[] memory _a) public pure returns(uint[] memory) {... */\n    tag_12:\n      callvalue\n      dup1\n      iszero\n      tag_51\n      jumpi\n      0x00\n      dup1\n      revert\n    tag_51:\n      pop\n      tag_52\n      0x04\n      dup1\n      calldatasize\n      sub\n      dup2\n      add\n      swap1\n      tag_53\n      swap2\n      swap1\n      tag_54\n      jump\t// in\n    tag_53:\n      tag_55\n      jump\t// in\n    tag_52:\n      mload(0x40)\n      tag_56\n      swap2\n      swap1\n      tag_57\n      jump\t// in\n    tag_56:\n      mload(0x40)\n      dup1\n      swap2\n      sub\n      swap1\n      return\n        /* \"basic_37_40.sol\":3574:4252  function Ascending(uint[] memory _list) public pure returns(uint, uint) {... */\n    tag_13:\n      callvalue\n      dup1\n      iszero\n      tag_58\n      jumpi\n      0x00\n      dup1\n      revert\n    tag_58:\n      pop\n      tag_59\n      0x04\n      dup1\n      calldatasize\n      sub\n      dup2\n      add\n      swap1\n      tag_60\n      swap2\n      swap1\n      tag_54\n      jump\t// in\n    tag_60:\n      tag_61\n      jump\t// in\n    tag_59:\n      mload(0x40)\n      tag_62\n      swap3\n      swap2\n      swap1\n      tag_63\n      jump\t// in\n    tag_62:\n      mload(0x40)\n      dup1\n      swap2\n      sub\n      swap1\n      return\n        /* \"basic_37_40.sol\":2940:3171  function test39(uint _n) public pure returns(uint[4] memory) {... */\n    tag_14:\n      callvalue\n      dup1\n      iszero\n      tag_64\n      jumpi\n      0x00\n      dup1\n      revert\n    tag_64:\n      pop\n      tag_65\n      0x04\n      dup1\n      calldatasize\n      sub\n      dup2\n      add\n      swap1\n      tag_66\n      swap2\n      swap1\n      tag_34\n      jump\t// in\n    tag_66:\n      tag_67\n      jump\t// in\n    tag_65:\n      mload(0x40)\n      tag_68\n      swap2\n      swap1\n      tag_37\n      jump\t// in\n    tag_68:\n      mload(0x40)\n      dup1\n      swap2\n      sub\n      swap1\n      return\n        /* \"basic_37_40.sol\":1176:1256  function getBalance() public view returns(uint){... */\n    tag_19:\n        /* \"basic_37_40.sol\":1218:1222  uint */\n      0x00\n        /* \"basic_37_40.sol\":1241:1248  balance */\n      sload(0x01)\n        /* \"basic_37_40.sol\":1234:1248  return balance */\n      swap1\n      pop\n        /* \"basic_37_40.sol\":1176:1256  function getBalance() public view returns(uint){... */\n      swap1\n      jump\t// out\n        /* \"basic_37_40.sol\":687:811  function depositWei() public payable {... */\n    tag_23:\n        /* \"basic_37_40.sol\":756:761  1 wei */\n      0x01\n        /* \"basic_37_40.sol\":743:752  msg.value */\n      callvalue\n        /* \"basic_37_40.sol\":743:761  msg.value == 1 wei */\n      eq\n        /* \"basic_37_40.sol\":735:772  require(msg.value == 1 wei, \"revert\") */\n      tag_71\n      jumpi\n      mload(0x40)\n      0x08c379a000000000000000000000000000000000000000000000000000000000\n      dup2\n      mstore\n      0x04\n      add\n      tag_72\n      swap1\n      tag_73\n      jump\t// in\n    tag_72:\n      mload(0x40)\n      dup1\n      swap2\n      sub\n      swap1\n      revert\n    tag_71:\n        /* \"basic_37_40.sol\":794:803  msg.value */\n      callvalue\n        /* \"basic_37_40.sol\":783:790  balance */\n      0x01\n      0x00\n        /* \"basic_37_40.sol\":783:803  balance += msg.value */\n      dup3\n      dup3\n      sload\n      tag_74\n      swap2\n      swap1\n      tag_75\n      jump\t// in\n    tag_74:\n      swap3\n      pop\n      pop\n      dup2\n      swap1\n      sstore\n      pop\n        /* \"basic_37_40.sol\":687:811  function depositWei() public payable {... */\n      jump\t// out\n        /* \"basic_37_40.sol\":1355:1487  function withdraw() public {... */\n    tag_26:\n        /* \"basic_37_40.sol\":1410:1420  msg.sender */\n      caller\n        /* \"basic_37_40.sol\":1401:1420  owner == msg.sender */\n      0xffffffffffffffffffffffffffffffffffffffff\n      and\n        /* \"basic_37_40.sol\":1401:1406  owner */\n      0x00\n      dup1\n      sload\n      swap1\n      0x0100\n      exp\n      swap1\n      div\n      0xffffffffffffffffffffffffffffffffffffffff\n      and\n        /* \"basic_37_40.sol\":1401:1420  owner == msg.sender */\n      0xffffffffffffffffffffffffffffffffffffffff\n      and\n      eq\n        /* \"basic_37_40.sol\":1393:1431  require(owner == msg.sender, \"revert\") */\n      tag_77\n      jumpi\n      mload(0x40)\n      0x08c379a000000000000000000000000000000000000000000000000000000000\n      dup2\n      mstore\n      0x04\n      add\n      tag_78\n      swap1\n      tag_73\n      jump\t// in\n    tag_78:\n      mload(0x40)\n      dup1\n      swap2\n      sub\n      swap1\n      revert\n    tag_77:\n        /* \"basic_37_40.sol\":1442:1447  owner */\n      0x00\n      dup1\n      sload\n      swap1\n      0x0100\n      exp\n      swap1\n      div\n      0xffffffffffffffffffffffffffffffffffffffff\n      and\n        /* \"basic_37_40.sol\":1442:1456  owner.transfer */\n      0xffffffffffffffffffffffffffffffffffffffff\n      and\n        /* \"basic_37_40.sol\":1442:1479  owner.transfer(address(this).balance) */\n      0x08fc\n        /* \"basic_37_40.sol\":1457:1478  address(this).balance */\n      selfbalance\n        /* \"basic_37_40.sol\":1442:1479  owner.transfer(address(this).balance) */\n      swap1\n      dup2\n      iszero\n      mul\n      swap1\n      mload(0x40)\n      0x00\n      mload(0x40)\n      dup1\n      dup4\n      sub\n      dup2\n      dup6\n      dup9\n      dup9\n      call\n      swap4\n      pop\n      pop\n      pop\n      pop\n      iszero\n      dup1\n      iszero\n      tag_80\n      jumpi\n      returndatasize\n      0x00\n      dup1\n      returndatacopy\n      revert(0x00, returndatasize)\n    tag_80:\n      pop\n        /* \"basic_37_40.sol\":1355:1487  function withdraw() public {... */\n      jump\t// out\n        /* \"basic_37_40.sol\":849:982  function depositFinney() public payable {... */\n    tag_28:\n        /* \"basic_37_40.sol\":921:932  0.001 ether */\n      0x038d7ea4c68000\n        /* \"basic_37_40.sol\":908:917  msg.value */\n      callvalue\n        /* \"basic_37_40.sol\":908:932  msg.value == 0.001 ether */\n      eq\n        /* \"basic_37_40.sol\":900:943  require(msg.value == 0.001 ether, \"revert\") */\n      tag_82\n      jumpi\n      mload(0x40)\n      0x08c379a000000000000000000000000000000000000000000000000000000000\n      dup2\n      mstore\n      0x04\n      add\n      tag_83\n      swap1\n      tag_73\n      jump\t// in\n    tag_83:\n      mload(0x40)\n      dup1\n      swap2\n      sub\n      swap1\n      revert\n    tag_82:\n        /* \"basic_37_40.sol\":965:974  msg.value */\n      callvalue\n        /* \"basic_37_40.sol\":954:961  balance */\n      0x01\n      0x00\n        /* \"basic_37_40.sol\":954:974  balance += msg.value */\n      dup3\n      dup3\n      sload\n      tag_84\n      swap2\n      swap1\n      tag_75\n      jump\t// in\n    tag_84:\n      swap3\n      pop\n      pop\n      dup2\n      swap1\n      sstore\n      pop\n        /* \"basic_37_40.sol\":849:982  function depositFinney() public payable {... */\n      jump\t// out\n        /* \"basic_37_40.sol\":990:1118  function depositEther() public payable {... */\n    tag_30:\n        /* \"basic_37_40.sol\":1061:1068  1 ether */\n      0x0de0b6b3a7640000\n        /* \"basic_37_40.sol\":1048:1057  msg.value */\n      callvalue\n        /* \"basic_37_40.sol\":1048:1068  msg.value == 1 ether */\n      eq\n        /* \"basic_37_40.sol\":1040:1079  require(msg.value == 1 ether, \"revert\") */\n      tag_86\n      jumpi\n      mload(0x40)\n      0x08c379a000000000000000000000000000000000000000000000000000000000\n      dup2\n      mstore\n      0x04\n      add\n      tag_87\n      swap1\n      tag_73\n      jump\t// in\n    tag_87:\n      mload(0x40)\n      dup1\n      swap2\n      sub\n      swap1\n      revert\n    tag_86:\n        /* \"basic_37_40.sol\":1101:1110  msg.value */\n      callvalue\n        /* \"basic_37_40.sol\":1090:1097  balance */\n      0x01\n      0x00\n        /* \"basic_37_40.sol\":1090:1110  balance += msg.value */\n      dup3\n      dup3\n      sload\n      tag_88\n      swap2\n      swap1\n      tag_75\n      jump\t// in\n    tag_88:\n      swap3\n      pop\n      pop\n      dup2\n      swap1\n      sstore\n      pop\n        /* \"basic_37_40.sol\":990:1118  function depositEther() public payable {... */\n      jump\t// out\n        /* \"basic_37_40.sol\":2590:2932  function checkMultipleOf(uint _n) public pure returns(uint[4] memory) {... */\n    tag_35:\n        /* \"basic_37_40.sol\":2644:2658  uint[4] memory */\n      tag_89\n      tag_90\n      jump\t// in\n    tag_89:\n        /* \"basic_37_40.sol\":2671:2691  uint[4] memory mList */\n      tag_92\n      tag_90\n      jump\t// in\n    tag_92:\n        /* \"basic_37_40.sol\":2708:2714  uint i */\n      0x00\n        /* \"basic_37_40.sol\":2715:2716  1 */\n      0x01\n        /* \"basic_37_40.sol\":2708:2716  uint i=1 */\n      swap1\n      pop\n        /* \"basic_37_40.sol\":2704:2900  for(uint i=1; i <= _n; i++) {... */\n    tag_93:\n        /* \"basic_37_40.sol\":2723:2725  _n */\n      dup4\n        /* \"basic_37_40.sol\":2718:2719  i */\n      dup2\n        /* \"basic_37_40.sol\":2718:2725  i <= _n */\n      gt\n        /* \"basic_37_40.sol\":2704:2900  for(uint i=1; i <= _n; i++) {... */\n      tag_94\n      jumpi\n        /* \"basic_37_40.sol\":2758:2759  0 */\n      0x00\n        /* \"basic_37_40.sol\":2753:2754  2 */\n      0x02\n        /* \"basic_37_40.sol\":2751:2752  i */\n      dup3\n        /* \"basic_37_40.sol\":2751:2754  i%2 */\n      tag_96\n      swap2\n      swap1\n      tag_97\n      jump\t// in\n    tag_96:\n        /* \"basic_37_40.sol\":2751:2759  i%2 == 0 */\n      sub\n        /* \"basic_37_40.sol\":2747:2771  if (i%2 == 0) mList[0]++ */\n      tag_98\n      jumpi\n        /* \"basic_37_40.sol\":2761:2766  mList */\n      dup2\n        /* \"basic_37_40.sol\":2767:2768  0 */\n      0x00\n        /* \"basic_37_40.sol\":2761:2769  mList[0] */\n      0x04\n      dup2\n      lt\n      tag_99\n      jumpi\n      tag_100\n      tag_101\n      jump\t// in\n    tag_100:\n    tag_99:\n      0x20\n      mul\n      add\n        /* \"basic_37_40.sol\":2761:2771  mList[0]++ */\n      dup1\n      mload\n      dup1\n      swap2\n      swap1\n      tag_102\n      swap1\n      tag_103\n      jump\t// in\n    tag_102:\n      dup2\n      mstore\n      pop\n      pop\n        /* \"basic_37_40.sol\":2747:2771  if (i%2 == 0) mList[0]++ */\n    tag_98:\n        /* \"basic_37_40.sol\":2797:2798  0 */\n      0x00\n        /* \"basic_37_40.sol\":2792:2793  3 */\n      0x03\n        /* \"basic_37_40.sol\":2790:2791  i */\n      dup3\n        /* \"basic_37_40.sol\":2790:2793  i%3 */\n      tag_104\n      swap2\n      swap1\n      tag_97\n      jump\t// in\n    tag_104:\n        /* \"basic_37_40.sol\":2790:2798  i%3 == 0 */\n      sub\n        /* \"basic_37_40.sol\":2786:2810  if (i%3 == 0) mList[1]++ */\n      tag_105\n      jumpi\n        /* \"basic_37_40.sol\":2800:2805  mList */\n      dup2\n        /* \"basic_37_40.sol\":2806:2807  1 */\n      0x01\n        /* \"basic_37_40.sol\":2800:2808  mList[1] */\n      0x04\n      dup2\n      lt\n      tag_106\n      jumpi\n      tag_107\n      tag_101\n      jump\t// in\n    tag_107:\n    tag_106:\n      0x20\n      mul\n      add\n        /* \"basic_37_40.sol\":2800:2810  mList[1]++ */\n      dup1\n      mload\n      dup1\n      swap2\n      swap1\n      tag_108\n      swap1\n      tag_103\n      jump\t// in\n    tag_108:\n      dup2\n      mstore\n      pop\n      pop\n        /* \"basic_37_40.sol\":2786:2810  if (i%3 == 0) mList[1]++ */\n    tag_105:\n        /* \"basic_37_40.sol\":2836:2837  0 */\n      0x00\n        /* \"basic_37_40.sol\":2831:2832  5 */\n      0x05\n        /* \"basic_37_40.sol\":2829:2830  i */\n      dup3\n        /* \"basic_37_40.sol\":2829:2832  i%5 */\n      tag_109\n      swap2\n      swap1\n      tag_97\n      jump\t// in\n    tag_109:\n        /* \"basic_37_40.sol\":2829:2837  i%5 == 0 */\n      sub\n        /* \"basic_37_40.sol\":2825:2849  if (i%5 == 0) mList[2]++ */\n      tag_110\n      jumpi\n        /* \"basic_37_40.sol\":2839:2844  mList */\n      dup2\n        /* \"basic_37_40.sol\":2845:2846  2 */\n      0x02\n        /* \"basic_37_40.sol\":2839:2847  mList[2] */\n      0x04\n      dup2\n      lt\n      tag_111\n      jumpi\n      tag_112\n      tag_101\n      jump\t// in\n    tag_112:\n    tag_111:\n      0x20\n      mul\n      add\n        /* \"basic_37_40.sol\":2839:2849  mList[2]++ */\n      dup1\n      mload\n      dup1\n      swap2\n      swap1\n      tag_113\n      swap1\n      tag_103\n      jump\t// in\n    tag_113:\n      dup2\n      mstore\n      pop\n      pop\n        /* \"basic_37_40.sol\":2825:2849  if (i%5 == 0) mList[2]++ */\n    tag_110:\n        /* \"basic_37_40.sol\":2875:2876  0 */\n      0x00\n        /* \"basic_37_40.sol\":2870:2871  7 */\n      0x07\n        /* \"basic_37_40.sol\":2868:2869  i */\n      dup3\n        /* \"basic_37_40.sol\":2868:2871  i%7 */\n      tag_114\n      swap2\n      swap1\n      tag_97\n      jump\t// in\n    tag_114:\n        /* \"basic_37_40.sol\":2868:2876  i%7 == 0 */\n      sub\n        /* \"basic_37_40.sol\":2864:2888  if (i%7 == 0) mList[3]++ */\n      tag_115\n      jumpi\n        /* \"basic_37_40.sol\":2878:2883  mList */\n      dup2\n        /* \"basic_37_40.sol\":2884:2885  3 */\n      0x03\n        /* \"basic_37_40.sol\":2878:2886  mList[3] */\n      0x04\n      dup2\n      lt\n      tag_116\n      jumpi\n      tag_117\n      tag_101\n      jump\t// in\n    tag_117:\n    tag_116:\n      0x20\n      mul\n      add\n        /* \"basic_37_40.sol\":2878:2888  mList[3]++ */\n      dup1\n      mload\n      dup1\n      swap2\n      swap1\n      tag_118\n      swap1\n      tag_103\n      jump\t// in\n    tag_118:\n      dup2\n      mstore\n      pop\n      pop\n        /* \"basic_37_40.sol\":2864:2888  if (i%7 == 0) mList[3]++ */\n    tag_115:\n        /* \"basic_37_40.sol\":2727:2730  i++ */\n      dup1\n      dup1\n      tag_119\n      swap1\n      tag_103\n      jump\t// in\n    tag_119:\n      swap2\n      pop\n      pop\n        /* \"basic_37_40.sol\":2704:2900  for(uint i=1; i <= _n; i++) {... */\n      jump(tag_93)\n    tag_94:\n      pop\n        /* \"basic_37_40.sol\":2919:2924  mList */\n      dup1\n        /* \"basic_37_40.sol\":2912:2924  return mList */\n      swap2\n      pop\n      pop\n        /* \"basic_37_40.sol\":2590:2932  function checkMultipleOf(uint _n) public pure returns(uint[4] memory) {... */\n      swap2\n      swap1\n      pop\n      jump\t// out\n        /* \"basic_37_40.sol\":2100:2142  function setAtoC() public mod { a = \"C\"; } */\n    tag_40:\n        /* \"basic_37_40.sol\":2005:2015  msg.sender */\n      caller\n        /* \"basic_37_40.sol\":1996:2015  owner == msg.sender */\n      0xffffffffffffffffffffffffffffffffffffffff\n      and\n        /* \"basic_37_40.sol\":1996:2001  owner */\n      0x00\n      dup1\n      sload\n      swap1\n      0x0100\n      exp\n      swap1\n      div\n      0xffffffffffffffffffffffffffffffffffffffff\n      and\n        /* \"basic_37_40.sol\":1996:2015  owner == msg.sender */\n      0xffffffffffffffffffffffffffffffffffffffff\n      and\n      eq\n        /* \"basic_37_40.sol\":1988:2026  require(owner == msg.sender, \"revert\") */\n      tag_121\n      jumpi\n      mload(0x40)\n      0x08c379a000000000000000000000000000000000000000000000000000000000\n      dup2\n      mstore\n      0x04\n      add\n      tag_122\n      swap1\n      tag_73\n      jump\t// in\n    tag_122:\n      mload(0x40)\n      dup1\n      swap2\n      sub\n      swap1\n      revert\n    tag_121:\n        /* \"basic_37_40.sol\":2132:2139  a = \"C\" */\n      mload(0x40)\n      dup1\n      0x40\n      add\n      0x40\n      mstore\n      dup1\n      0x01\n      dup2\n      mstore\n      0x20\n      add\n      0x4300000000000000000000000000000000000000000000000000000000000000\n      dup2\n      mstore\n      pop\n        /* \"basic_37_40.sol\":2132:2133  a */\n      0x02\n        /* \"basic_37_40.sol\":2132:2139  a = \"C\" */\n      swap1\n      dup2\n      tag_124\n      swap2\n      swap1\n      tag_125\n      jump\t// in\n    tag_124:\n      pop\n        /* \"basic_37_40.sol\":2100:2142  function setAtoC() public mod { a = \"C\"; } */\n      jump\t// out\n        /* \"basic_37_40.sol\":1126:1168  function deposit() public payable {... */\n    tag_42:\n      jump\t// out\n        /* \"basic_37_40.sol\":2148:2211  function getA() public view returns(string memory) { return a;} */\n    tag_45:\n        /* \"basic_37_40.sol\":2184:2197  string memory */\n      0x60\n        /* \"basic_37_40.sol\":2208:2209  a */\n      0x02\n        /* \"basic_37_40.sol\":2201:2209  return a */\n      dup1\n      sload\n      tag_128\n      swap1\n      tag_129\n      jump\t// in\n    tag_128:\n      dup1\n      0x1f\n      add\n      0x20\n      dup1\n      swap2\n      div\n      mul\n      0x20\n      add\n      mload(0x40)\n      swap1\n      dup2\n      add\n      0x40\n      mstore\n      dup1\n      swap3\n      swap2\n      swap1\n      dup2\n      dup2\n      mstore\n      0x20\n      add\n      dup3\n      dup1\n      sload\n      tag_130\n      swap1\n      tag_129\n      jump\t// in\n    tag_130:\n      dup1\n      iszero\n      tag_131\n      jumpi\n      dup1\n      0x1f\n      lt\n      tag_132\n      jumpi\n      0x0100\n      dup1\n      dup4\n      sload\n      div\n      mul\n      dup4\n      mstore\n      swap2\n      0x20\n      add\n      swap2\n      jump(tag_131)\n    tag_132:\n      dup3\n      add\n      swap2\n      swap1\n      0x00\n      mstore\n      keccak256(0x00, 0x20)\n      swap1\n    tag_133:\n      dup2\n      sload\n      dup2\n      mstore\n      swap1\n      0x01\n      add\n      swap1\n      0x20\n      add\n      dup1\n      dup4\n      gt\n      tag_133\n      jumpi\n      dup3\n      swap1\n      sub\n      0x1f\n      and\n      dup3\n      add\n      swap2\n    tag_131:\n      pop\n      pop\n      pop\n      pop\n      pop\n      swap1\n      pop\n        /* \"basic_37_40.sol\":2148:2211  function getA() public view returns(string memory) { return a;} */\n      swap1\n      jump\t// out\n        /* \"basic_37_40.sol\":2052:2094  function setAtoB() public mod { a = \"B\"; } */\n    tag_50:\n        /* \"basic_37_40.sol\":2005:2015  msg.sender */\n      caller\n        /* \"basic_37_40.sol\":1996:2015  owner == msg.sender */\n      0xffffffffffffffffffffffffffffffffffffffff\n      and\n        /* \"basic_37_40.sol\":1996:2001  owner */\n      0x00\n      dup1\n      sload\n      swap1\n      0x0100\n      exp\n      swap1\n      div\n      0xffffffffffffffffffffffffffffffffffffffff\n      and\n        /* \"basic_37_40.sol\":1996:2015  owner == msg.sender */\n      0xffffffffffffffffffffffffffffffffffffffff\n      and\n      eq\n        /* \"basic_37_40.sol\":1988:2026  require(owner == msg.sender, \"revert\") */\n      tag_135\n      jumpi\n      mload(0x40)\n      0x08c379a000000000000000000000000000000000000000000000000000000000\n      dup2\n      mstore\n      0x04\n      add\n      tag_136\n      swap1\n      tag_73\n      jump\t// in\n    tag_136:\n      mload(0x40)\n      dup1\n      swap2\n      sub\n      swap1\n      revert\n    tag_135:\n        /* \"basic_37_40.sol\":2084:2091  a = \"B\" */\n      mload(0x40)\n      dup1\n      0x40\n      add\n      0x40\n      mstore\n      dup1\n      0x01\n      dup2\n      mstore\n      0x20\n      add\n      0x4200000000000000000000000000000000000000000000000000000000000000\n      dup2\n      mstore\n      pop\n        /* \"basic_37_40.sol\":2084:2085  a */\n      0x02\n        /* \"basic_37_40.sol\":2084:2091  a = \"B\" */\n      swap1\n      dup2\n      tag_138\n      swap2\n      swap1\n      tag_125\n      jump\t// in\n    tag_138:\n      pop\n        /* \"basic_37_40.sol\":2052:2094  function setAtoB() public mod { a = \"B\"; } */\n      jump\t// out\n        /* \"basic_37_40.sol\":4260:4947  function getMedian(uint[] memory _a) public pure returns(uint[] memory) {... */\n    tag_55:\n        /* \"basic_37_40.sol\":4317:4330  uint[] memory */\n      0x60\n        /* \"basic_37_40.sol\":4376:4382  uint i */\n      0x00\n        /* \"basic_37_40.sol\":4372:4595  for(uint i=0; i < _a.length; i++) {... */\n    tag_140:\n        /* \"basic_37_40.sol\":4390:4392  _a */\n      dup3\n        /* \"basic_37_40.sol\":4390:4399  _a.length */\n      mload\n        /* \"basic_37_40.sol\":4386:4387  i */\n      dup2\n        /* \"basic_37_40.sol\":4386:4399  i < _a.length */\n      lt\n        /* \"basic_37_40.sol\":4372:4595  for(uint i=0; i < _a.length; i++) {... */\n      iszero\n      tag_141\n      jumpi\n        /* \"basic_37_40.sol\":4425:4431  uint j */\n      0x00\n        /* \"basic_37_40.sol\":4434:4435  1 */\n      0x01\n        /* \"basic_37_40.sol\":4432:4433  i */\n      dup3\n        /* \"basic_37_40.sol\":4432:4435  i+1 */\n      tag_146\n      swap2\n      swap1\n      tag_75\n      jump\t// in\n    tag_146:\n        /* \"basic_37_40.sol\":4425:4435  uint j=i+1 */\n      swap1\n      pop\n        /* \"basic_37_40.sol\":4421:4584  for(uint j=i+1; j < _a.length; j++) {... */\n    tag_143:\n        /* \"basic_37_40.sol\":4441:4443  _a */\n      dup4\n        /* \"basic_37_40.sol\":4441:4450  _a.length */\n      mload\n        /* \"basic_37_40.sol\":4437:4438  j */\n      dup2\n        /* \"basic_37_40.sol\":4437:4450  j < _a.length */\n      lt\n        /* \"basic_37_40.sol\":4421:4584  for(uint j=i+1; j < _a.length; j++) {... */\n      iszero\n      tag_144\n      jumpi\n        /* \"basic_37_40.sol\":4488:4490  _a */\n      dup4\n        /* \"basic_37_40.sol\":4491:4492  j */\n      dup2\n        /* \"basic_37_40.sol\":4488:4493  _a[j] */\n      dup2\n      mload\n      dup2\n      lt\n      tag_147\n      jumpi\n      tag_148\n      tag_101\n      jump\t// in\n    tag_148:\n    tag_147:\n      0x20\n      mul\n      0x20\n      add\n      add\n      mload\n        /* \"basic_37_40.sol\":4480:4482  _a */\n      dup5\n        /* \"basic_37_40.sol\":4483:4484  i */\n      dup4\n        /* \"basic_37_40.sol\":4480:4485  _a[i] */\n      dup2\n      mload\n      dup2\n      lt\n      tag_149\n      jumpi\n      tag_150\n      tag_101\n      jump\t// in\n    tag_150:\n    tag_149:\n      0x20\n      mul\n      0x20\n      add\n      add\n      mload\n        /* \"basic_37_40.sol\":4480:4493  _a[i] > _a[j] */\n      gt\n        /* \"basic_37_40.sol\":4476:4569  if( _a[i] > _a[j]) {... */\n      iszero\n      tag_151\n      jumpi\n        /* \"basic_37_40.sol\":4536:4538  _a */\n      dup4\n        /* \"basic_37_40.sol\":4539:4540  i */\n      dup3\n        /* \"basic_37_40.sol\":4536:4541  _a[i] */\n      dup2\n      mload\n      dup2\n      lt\n      tag_152\n      jumpi\n      tag_153\n      tag_101\n      jump\t// in\n    tag_153:\n    tag_152:\n      0x20\n      mul\n      0x20\n      add\n      add\n      mload\n        /* \"basic_37_40.sol\":4543:4545  _a */\n      dup5\n        /* \"basic_37_40.sol\":4546:4547  j */\n      dup3\n        /* \"basic_37_40.sol\":4543:4548  _a[j] */\n      dup2\n      mload\n      dup2\n      lt\n      tag_154\n      jumpi\n      tag_155\n      tag_101\n      jump\t// in\n    tag_155:\n    tag_154:\n      0x20\n      mul\n      0x20\n      add\n      add\n      mload\n        /* \"basic_37_40.sol\":4519:4521  _a */\n      dup6\n        /* \"basic_37_40.sol\":4522:4523  j */\n      dup4\n        /* \"basic_37_40.sol\":4519:4524  _a[j] */\n      dup2\n      mload\n      dup2\n      lt\n      tag_156\n      jumpi\n      tag_157\n      tag_101\n      jump\t// in\n    tag_157:\n    tag_156:\n      0x20\n      mul\n      0x20\n      add\n      add\n        /* \"basic_37_40.sol\":4526:4528  _a */\n      dup7\n        /* \"basic_37_40.sol\":4529:4530  i */\n      dup6\n        /* \"basic_37_40.sol\":4526:4531  _a[i] */\n      dup2\n      mload\n      dup2\n      lt\n      tag_158\n      jumpi\n      tag_159\n      tag_101\n      jump\t// in\n    tag_159:\n    tag_158:\n      0x20\n      mul\n      0x20\n      add\n      add\n        /* \"basic_37_40.sol\":4518:4549  (_a[j], _a[i]) = (_a[i], _a[j]) */\n      dup3\n      dup2\n      mstore\n      pop\n      dup3\n      dup2\n      mstore\n      pop\n      pop\n      pop\n        /* \"basic_37_40.sol\":4476:4569  if( _a[i] > _a[j]) {... */\n    tag_151:\n        /* \"basic_37_40.sol\":4452:4455  j++ */\n      dup1\n      dup1\n      0x01\n      add\n      swap2\n      pop\n      pop\n        /* \"basic_37_40.sol\":4421:4584  for(uint j=i+1; j < _a.length; j++) {... */\n      jump(tag_143)\n    tag_144:\n      pop\n        /* \"basic_37_40.sol\":4401:4404  i++ */\n      dup1\n      dup1\n      0x01\n      add\n      swap2\n      pop\n      pop\n        /* \"basic_37_40.sol\":4372:4595  for(uint i=0; i < _a.length; i++) {... */\n      jump(tag_140)\n    tag_141:\n      pop\n        /* \"basic_37_40.sol\":4607:4622  uint[] memory b */\n      0x60\n        /* \"basic_37_40.sol\":4683:4684  1 */\n      0x01\n        /* \"basic_37_40.sol\":4678:4679  2 */\n      0x02\n        /* \"basic_37_40.sol\":4668:4670  _a */\n      dup5\n        /* \"basic_37_40.sol\":4668:4677  _a.length */\n      mload\n        /* \"basic_37_40.sol\":4668:4679  _a.length%2 */\n      tag_160\n      swap2\n      swap1\n      tag_97\n      jump\t// in\n    tag_160:\n        /* \"basic_37_40.sol\":4668:4684  _a.length%2 == 1 */\n      sub\n        /* \"basic_37_40.sol\":4664:4919  if( _a.length%2 == 1 ){... */\n      tag_161\n      jumpi\n        /* \"basic_37_40.sol\":4716:4717  1 */\n      0x01\n        /* \"basic_37_40.sol\":4705:4718  new uint[](1) */\n      0xffffffffffffffff\n      dup2\n      gt\n      iszero\n      tag_162\n      jumpi\n      tag_163\n      tag_164\n      jump\t// in\n    tag_163:\n    tag_162:\n      mload(0x40)\n      swap1\n      dup1\n      dup3\n      mstore\n      dup1\n      0x20\n      mul\n      0x20\n      add\n      dup3\n      add\n      0x40\n      mstore\n      dup1\n      iszero\n      tag_165\n      jumpi\n      dup2\n      0x20\n      add\n      0x20\n      dup3\n      mul\n      dup1\n      calldatasize\n      dup4\n      calldatacopy\n      dup1\n      dup3\n      add\n      swap2\n      pop\n      pop\n      swap1\n      pop\n    tag_165:\n      pop\n        /* \"basic_37_40.sol\":4701:4718  b = new uint[](1) */\n      swap1\n      pop\n        /* \"basic_37_40.sol\":4740:4742  _a */\n      dup3\n        /* \"basic_37_40.sol\":4753:4754  2 */\n      0x02\n        /* \"basic_37_40.sol\":4743:4745  _a */\n      dup5\n        /* \"basic_37_40.sol\":4743:4752  _a.length */\n      mload\n        /* \"basic_37_40.sol\":4743:4754  _a.length/2 */\n      tag_166\n      swap2\n      swap1\n      tag_167\n      jump\t// in\n    tag_166:\n        /* \"basic_37_40.sol\":4740:4755  _a[_a.length/2] */\n      dup2\n      mload\n      dup2\n      lt\n      tag_168\n      jumpi\n      tag_169\n      tag_101\n      jump\t// in\n    tag_169:\n    tag_168:\n      0x20\n      mul\n      0x20\n      add\n      add\n      mload\n        /* \"basic_37_40.sol\":4733:4734  b */\n      dup2\n        /* \"basic_37_40.sol\":4735:4736  0 */\n      0x00\n        /* \"basic_37_40.sol\":4733:4737  b[0] */\n      dup2\n      mload\n      dup2\n      lt\n      tag_170\n      jumpi\n      tag_171\n      tag_101\n      jump\t// in\n    tag_171:\n    tag_170:\n      0x20\n      mul\n      0x20\n      add\n      add\n        /* \"basic_37_40.sol\":4733:4755  b[0] = _a[_a.length/2] */\n      dup2\n      dup2\n      mstore\n      pop\n      pop\n        /* \"basic_37_40.sol\":4664:4919  if( _a.length%2 == 1 ){... */\n      jump(tag_172)\n    tag_161:\n        /* \"basic_37_40.sol\":4839:4840  2 */\n      0x02\n        /* \"basic_37_40.sol\":4828:4841  new uint[](2) */\n      0xffffffffffffffff\n      dup2\n      gt\n      iszero\n      tag_173\n      jumpi\n      tag_174\n      tag_164\n      jump\t// in\n    tag_174:\n    tag_173:\n      mload(0x40)\n      swap1\n      dup1\n      dup3\n      mstore\n      dup1\n      0x20\n      mul\n      0x20\n      add\n      dup3\n      add\n      0x40\n      mstore\n      dup1\n      iszero\n      tag_175\n      jumpi\n      dup2\n      0x20\n      add\n      0x20\n      dup3\n      mul\n      dup1\n      calldatasize\n      dup4\n      calldatacopy\n      dup1\n      dup3\n      add\n      swap2\n      pop\n      pop\n      swap1\n      pop\n    tag_175:\n      pop\n        /* \"basic_37_40.sol\":4824:4841  b = new uint[](2) */\n      swap1\n      pop\n        /* \"basic_37_40.sol\":4872:4874  _a */\n      dup3\n        /* \"basic_37_40.sol\":4887:4888  1 */\n      0x01\n        /* \"basic_37_40.sol\":4885:4886  2 */\n      0x02\n        /* \"basic_37_40.sol\":4875:4877  _a */\n      dup6\n        /* \"basic_37_40.sol\":4875:4884  _a.length */\n      mload\n        /* \"basic_37_40.sol\":4875:4886  _a.length/2 */\n      tag_176\n      swap2\n      swap1\n      tag_167\n      jump\t// in\n    tag_176:\n        /* \"basic_37_40.sol\":4875:4888  _a.length/2-1 */\n      tag_177\n      swap2\n      swap1\n      tag_178\n      jump\t// in\n    tag_177:\n        /* \"basic_37_40.sol\":4872:4889  _a[_a.length/2-1] */\n      dup2\n      mload\n      dup2\n      lt\n      tag_179\n      jumpi\n      tag_180\n      tag_101\n      jump\t// in\n    tag_180:\n    tag_179:\n      0x20\n      mul\n      0x20\n      add\n      add\n      mload\n        /* \"basic_37_40.sol\":4891:4893  _a */\n      dup4\n        /* \"basic_37_40.sol\":4904:4905  2 */\n      0x02\n        /* \"basic_37_40.sol\":4894:4896  _a */\n      dup6\n        /* \"basic_37_40.sol\":4894:4903  _a.length */\n      mload\n        /* \"basic_37_40.sol\":4894:4905  _a.length/2 */\n      tag_181\n      swap2\n      swap1\n      tag_167\n      jump\t// in\n    tag_181:\n        /* \"basic_37_40.sol\":4891:4906  _a[_a.length/2] */\n      dup2\n      mload\n      dup2\n      lt\n      tag_182\n      jumpi\n      tag_183\n      tag_101\n      jump\t// in\n    tag_183:\n    tag_182:\n      0x20\n      mul\n      0x20\n      add\n      add\n      mload\n        /* \"basic_37_40.sol\":4857:4858  b */\n      dup3\n        /* \"basic_37_40.sol\":4859:4860  0 */\n      0x00\n        /* \"basic_37_40.sol\":4857:4861  b[0] */\n      dup2\n      mload\n      dup2\n      lt\n      tag_184\n      jumpi\n      tag_185\n      tag_101\n      jump\t// in\n    tag_185:\n    tag_184:\n      0x20\n      mul\n      0x20\n      add\n      add\n        /* \"basic_37_40.sol\":4863:4864  b */\n      dup4\n        /* \"basic_37_40.sol\":4865:4866  1 */\n      0x01\n        /* \"basic_37_40.sol\":4863:4867  b[1] */\n      dup2\n      mload\n      dup2\n      lt\n      tag_186\n      jumpi\n      tag_187\n      tag_101\n      jump\t// in\n    tag_187:\n    tag_186:\n      0x20\n      mul\n      0x20\n      add\n      add\n        /* \"basic_37_40.sol\":4856:4907  (b[0], b[1]) = (_a[_a.length/2-1], _a[_a.length/2]) */\n      dup3\n      dup2\n      mstore\n      pop\n      dup3\n      dup2\n      mstore\n      pop\n      pop\n      pop\n        /* \"basic_37_40.sol\":4664:4919  if( _a.length%2 == 1 ){... */\n    tag_172:\n        /* \"basic_37_40.sol\":4938:4939  b */\n      dup1\n        /* \"basic_37_40.sol\":4931:4939  return b */\n      swap2\n      pop\n      pop\n        /* \"basic_37_40.sol\":4260:4947  function getMedian(uint[] memory _a) public pure returns(uint[] memory) {... */\n      swap2\n      swap1\n      pop\n      jump\t// out\n        /* \"basic_37_40.sol\":3574:4252  function Ascending(uint[] memory _list) public pure returns(uint, uint) {... */\n    tag_61:\n        /* \"basic_37_40.sol\":3634:3638  uint */\n      0x00\n        /* \"basic_37_40.sol\":3640:3644  uint */\n      dup1\n        /* \"basic_37_40.sol\":3685:3691  uint i */\n      0x00\n        /* \"basic_37_40.sol\":3681:3928  for(uint i=0; i < _list.length; i++) {... */\n    tag_189:\n        /* \"basic_37_40.sol\":3699:3704  _list */\n      dup4\n        /* \"basic_37_40.sol\":3699:3711  _list.length */\n      mload\n        /* \"basic_37_40.sol\":3695:3696  i */\n      dup2\n        /* \"basic_37_40.sol\":3695:3711  i < _list.length */\n      lt\n        /* \"basic_37_40.sol\":3681:3928  for(uint i=0; i < _list.length; i++) {... */\n      iszero\n      tag_190\n      jumpi\n        /* \"basic_37_40.sol\":3737:3743  uint j */\n      0x00\n        /* \"basic_37_40.sol\":3746:3747  1 */\n      0x01\n        /* \"basic_37_40.sol\":3744:3745  i */\n      dup3\n        /* \"basic_37_40.sol\":3744:3747  i+1 */\n      tag_195\n      swap2\n      swap1\n      tag_75\n      jump\t// in\n    tag_195:\n        /* \"basic_37_40.sol\":3737:3747  uint j=i+1 */\n      swap1\n      pop\n        /* \"basic_37_40.sol\":3733:3917  for(uint j=i+1; j < _list.length; j++) {... */\n    tag_192:\n        /* \"basic_37_40.sol\":3753:3758  _list */\n      dup5\n        /* \"basic_37_40.sol\":3753:3765  _list.length */\n      mload\n        /* \"basic_37_40.sol\":3749:3750  j */\n      dup2\n        /* \"basic_37_40.sol\":3749:3765  j < _list.length */\n      lt\n        /* \"basic_37_40.sol\":3733:3917  for(uint j=i+1; j < _list.length; j++) {... */\n      iszero\n      tag_193\n      jumpi\n        /* \"basic_37_40.sol\":3806:3811  _list */\n      dup5\n        /* \"basic_37_40.sol\":3812:3813  j */\n      dup2\n        /* \"basic_37_40.sol\":3806:3814  _list[j] */\n      dup2\n      mload\n      dup2\n      lt\n      tag_196\n      jumpi\n      tag_197\n      tag_101\n      jump\t// in\n    tag_197:\n    tag_196:\n      0x20\n      mul\n      0x20\n      add\n      add\n      mload\n        /* \"basic_37_40.sol\":3795:3800  _list */\n      dup6\n        /* \"basic_37_40.sol\":3801:3802  i */\n      dup4\n        /* \"basic_37_40.sol\":3795:3803  _list[i] */\n      dup2\n      mload\n      dup2\n      lt\n      tag_198\n      jumpi\n      tag_199\n      tag_101\n      jump\t// in\n    tag_199:\n    tag_198:\n      0x20\n      mul\n      0x20\n      add\n      add\n      mload\n        /* \"basic_37_40.sol\":3795:3814  _list[i] > _list[j] */\n      gt\n        /* \"basic_37_40.sol\":3791:3902  if( _list[i] > _list[j]) {... */\n      iszero\n      tag_200\n      jumpi\n        /* \"basic_37_40.sol\":3863:3868  _list */\n      dup5\n        /* \"basic_37_40.sol\":3869:3870  i */\n      dup3\n        /* \"basic_37_40.sol\":3863:3871  _list[i] */\n      dup2\n      mload\n      dup2\n      lt\n      tag_201\n      jumpi\n      tag_202\n      tag_101\n      jump\t// in\n    tag_202:\n    tag_201:\n      0x20\n      mul\n      0x20\n      add\n      add\n      mload\n        /* \"basic_37_40.sol\":3873:3878  _list */\n      dup6\n        /* \"basic_37_40.sol\":3879:3880  j */\n      dup3\n        /* \"basic_37_40.sol\":3873:3881  _list[j] */\n      dup2\n      mload\n      dup2\n      lt\n      tag_203\n      jumpi\n      tag_204\n      tag_101\n      jump\t// in\n    tag_204:\n    tag_203:\n      0x20\n      mul\n      0x20\n      add\n      add\n      mload\n        /* \"basic_37_40.sol\":3840:3845  _list */\n      dup7\n        /* \"basic_37_40.sol\":3846:3847  j */\n      dup4\n        /* \"basic_37_40.sol\":3840:3848  _list[j] */\n      dup2\n      mload\n      dup2\n      lt\n      tag_205\n      jumpi\n      tag_206\n      tag_101\n      jump\t// in\n    tag_206:\n    tag_205:\n      0x20\n      mul\n      0x20\n      add\n      add\n        /* \"basic_37_40.sol\":3850:3855  _list */\n      dup8\n        /* \"basic_37_40.sol\":3856:3857  i */\n      dup6\n        /* \"basic_37_40.sol\":3850:3858  _list[i] */\n      dup2\n      mload\n      dup2\n      lt\n      tag_207\n      jumpi\n      tag_208\n      tag_101\n      jump\t// in\n    tag_208:\n    tag_207:\n      0x20\n      mul\n      0x20\n      add\n      add\n        /* \"basic_37_40.sol\":3839:3882  (_list[j], _list[i]) = (_list[i], _list[j]) */\n      dup3\n      dup2\n      mstore\n      pop\n      dup3\n      dup2\n      mstore\n      pop\n      pop\n      pop\n        /* \"basic_37_40.sol\":3791:3902  if( _list[i] > _list[j]) {... */\n    tag_200:\n        /* \"basic_37_40.sol\":3767:3770  j++ */\n      dup1\n      dup1\n      0x01\n      add\n      swap2\n      pop\n      pop\n        /* \"basic_37_40.sol\":3733:3917  for(uint j=i+1; j < _list.length; j++) {... */\n      jump(tag_192)\n    tag_193:\n      pop\n        /* \"basic_37_40.sol\":3713:3716  i++ */\n      dup1\n      dup1\n      0x01\n      add\n      swap2\n      pop\n      pop\n        /* \"basic_37_40.sol\":3681:3928  for(uint i=0; i < _list.length; i++) {... */\n      jump(tag_189)\n    tag_190:\n      pop\n        /* \"basic_37_40.sol\":4039:4040  1 */\n      0x01\n        /* \"basic_37_40.sol\":4034:4035  2 */\n      0x02\n        /* \"basic_37_40.sol\":4021:4026  _list */\n      dup5\n        /* \"basic_37_40.sol\":4021:4033  _list.length */\n      mload\n        /* \"basic_37_40.sol\":4021:4035  _list.length%2 */\n      tag_209\n      swap2\n      swap1\n      tag_97\n      jump\t// in\n    tag_209:\n        /* \"basic_37_40.sol\":4021:4040  _list.length%2 == 1 */\n      sub\n        /* \"basic_37_40.sol\":4017:4245  if( _list.length%2 == 1 ){// 하나인 경우... */\n      tag_210\n      jumpi\n        /* \"basic_37_40.sol\":4084:4089  _list */\n      dup3\n        /* \"basic_37_40.sol\":4103:4104  2 */\n      0x02\n        /* \"basic_37_40.sol\":4090:4095  _list */\n      dup5\n        /* \"basic_37_40.sol\":4090:4102  _list.length */\n      mload\n        /* \"basic_37_40.sol\":4090:4104  _list.length/2 */\n      tag_211\n      swap2\n      swap1\n      tag_167\n      jump\t// in\n    tag_211:\n        /* \"basic_37_40.sol\":4084:4105  _list[_list.length/2] */\n      dup2\n      mload\n      dup2\n      lt\n      tag_212\n      jumpi\n      tag_213\n      tag_101\n      jump\t// in\n    tag_213:\n    tag_212:\n      0x20\n      mul\n      0x20\n      add\n      add\n      mload\n        /* \"basic_37_40.sol\":4107:4112  _list */\n      dup4\n        /* \"basic_37_40.sol\":4126:4127  2 */\n      0x02\n        /* \"basic_37_40.sol\":4113:4118  _list */\n      dup6\n        /* \"basic_37_40.sol\":4113:4125  _list.length */\n      mload\n        /* \"basic_37_40.sol\":4113:4127  _list.length/2 */\n      tag_214\n      swap2\n      swap1\n      tag_167\n      jump\t// in\n    tag_214:\n        /* \"basic_37_40.sol\":4107:4128  _list[_list.length/2] */\n      dup2\n      mload\n      dup2\n      lt\n      tag_215\n      jumpi\n      tag_216\n      tag_101\n      jump\t// in\n    tag_216:\n    tag_215:\n      0x20\n      mul\n      0x20\n      add\n      add\n      mload\n        /* \"basic_37_40.sol\":4076:4129  return (_list[_list.length/2], _list[_list.length/2]) */\n      swap2\n      pop\n      swap2\n      pop\n      jump(tag_188)\n        /* \"basic_37_40.sol\":4017:4245  if( _list.length%2 == 1 ){// 하나인 경우... */\n    tag_210:\n        /* \"basic_37_40.sol\":4186:4191  _list */\n      dup3\n        /* \"basic_37_40.sol\":4207:4208  1 */\n      0x01\n        /* \"basic_37_40.sol\":4205:4206  2 */\n      0x02\n        /* \"basic_37_40.sol\":4192:4197  _list */\n      dup6\n        /* \"basic_37_40.sol\":4192:4204  _list.length */\n      mload\n        /* \"basic_37_40.sol\":4192:4206  _list.length/2 */\n      tag_218\n      swap2\n      swap1\n      tag_167\n      jump\t// in\n    tag_218:\n        /* \"basic_37_40.sol\":4192:4208  _list.length/2-1 */\n      tag_219\n      swap2\n      swap1\n      tag_178\n      jump\t// in\n    tag_219:\n        /* \"basic_37_40.sol\":4186:4209  _list[_list.length/2-1] */\n      dup2\n      mload\n      dup2\n      lt\n      tag_220\n      jumpi\n      tag_221\n      tag_101\n      jump\t// in\n    tag_221:\n    tag_220:\n      0x20\n      mul\n      0x20\n      add\n      add\n      mload\n        /* \"basic_37_40.sol\":4211:4216  _list */\n      dup4\n        /* \"basic_37_40.sol\":4230:4231  2 */\n      0x02\n        /* \"basic_37_40.sol\":4217:4222  _list */\n      dup6\n        /* \"basic_37_40.sol\":4217:4229  _list.length */\n      mload\n        /* \"basic_37_40.sol\":4217:4231  _list.length/2 */\n      tag_222\n      swap2\n      swap1\n      tag_167\n      jump\t// in\n    tag_222:\n        /* \"basic_37_40.sol\":4211:4232  _list[_list.length/2] */\n      dup2\n      mload\n      dup2\n      lt\n      tag_223\n      jumpi\n      tag_224\n      tag_101\n      jump\t// in\n    tag_224:\n    tag_223:\n      0x20\n      mul\n      0x20\n      add\n      add\n      mload\n        /* \"basic_37_40.sol\":4178:4233  return (_list[_list.length/2-1], _list[_list.length/2]) */\n      swap2\n      pop\n      swap2\n      pop\n        /* \"basic_37_40.sol\":3574:4252  function Ascending(uint[] memory _list) public pure returns(uint, uint) {... */\n    tag_188:\n      swap2\n      pop\n      swap2\n      jump\t// out\n        /* \"basic_37_40.sol\":2940:3171  function test39(uint _n) public pure returns(uint[4] memory) {... */\n    tag_67:\n        /* \"basic_37_40.sol\":2985:2999  uint[4] memory */\n      tag_225\n      tag_90\n      jump\t// in\n    tag_225:\n        /* \"basic_37_40.sol\":3012:3032  uint[4] memory mList */\n      tag_227\n      tag_90\n      jump\t// in\n    tag_227:\n        /* \"basic_37_40.sol\":3059:3060  2 */\n      0x02\n        /* \"basic_37_40.sol\":3056:3058  _n */\n      dup4\n        /* \"basic_37_40.sol\":3056:3060  _n/2 */\n      tag_228\n      swap2\n      swap1\n      tag_167\n      jump\t// in\n    tag_228:\n        /* \"basic_37_40.sol\":3045:3050  mList */\n      dup2\n        /* \"basic_37_40.sol\":3051:3052  0 */\n      0x00\n        /* \"basic_37_40.sol\":3045:3053  mList[0] */\n      0x04\n      dup2\n      lt\n      tag_229\n      jumpi\n      tag_230\n      tag_101\n      jump\t// in\n    tag_230:\n    tag_229:\n      0x20\n      mul\n      add\n        /* \"basic_37_40.sol\":3045:3060  mList[0] = _n/2 */\n      dup2\n      dup2\n      mstore\n      pop\n      pop\n        /* \"basic_37_40.sol\":3085:3086  3 */\n      0x03\n        /* \"basic_37_40.sol\":3082:3084  _n */\n      dup4\n        /* \"basic_37_40.sol\":3082:3086  _n/3 */\n      tag_231\n      swap2\n      swap1\n      tag_167\n      jump\t// in\n    tag_231:\n        /* \"basic_37_40.sol\":3071:3076  mList */\n      dup2\n        /* \"basic_37_40.sol\":3077:3078  1 */\n      0x01\n        /* \"basic_37_40.sol\":3071:3079  mList[1] */\n      0x04\n      dup2\n      lt\n      tag_232\n      jumpi\n      tag_233\n      tag_101\n      jump\t// in\n    tag_233:\n    tag_232:\n      0x20\n      mul\n      add\n        /* \"basic_37_40.sol\":3071:3086  mList[1] = _n/3 */\n      dup2\n      dup2\n      mstore\n      pop\n      pop\n        /* \"basic_37_40.sol\":3111:3112  5 */\n      0x05\n        /* \"basic_37_40.sol\":3108:3110  _n */\n      dup4\n        /* \"basic_37_40.sol\":3108:3112  _n/5 */\n      tag_234\n      swap2\n      swap1\n      tag_167\n      jump\t// in\n    tag_234:\n        /* \"basic_37_40.sol\":3097:3102  mList */\n      dup2\n        /* \"basic_37_40.sol\":3103:3104  2 */\n      0x02\n        /* \"basic_37_40.sol\":3097:3105  mList[2] */\n      0x04\n      dup2\n      lt\n      tag_235\n      jumpi\n      tag_236\n      tag_101\n      jump\t// in\n    tag_236:\n    tag_235:\n      0x20\n      mul\n      add\n        /* \"basic_37_40.sol\":3097:3112  mList[2] = _n/5 */\n      dup2\n      dup2\n      mstore\n      pop\n      pop\n        /* \"basic_37_40.sol\":3137:3138  7 */\n      0x07\n        /* \"basic_37_40.sol\":3134:3136  _n */\n      dup4\n        /* \"basic_37_40.sol\":3134:3138  _n/7 */\n      tag_237\n      swap2\n      swap1\n      tag_167\n      jump\t// in\n    tag_237:\n        /* \"basic_37_40.sol\":3123:3128  mList */\n      dup2\n        /* \"basic_37_40.sol\":3129:3130  3 */\n      0x03\n        /* \"basic_37_40.sol\":3123:3131  mList[3] */\n      0x04\n      dup2\n      lt\n      tag_238\n      jumpi\n      tag_239\n      tag_101\n      jump\t// in\n    tag_239:\n    tag_238:\n      0x20\n      mul\n      add\n        /* \"basic_37_40.sol\":3123:3138  mList[3] = _n/7 */\n      dup2\n      dup2\n      mstore\n      pop\n      pop\n        /* \"basic_37_40.sol\":3158:3163  mList */\n      dup1\n        /* \"basic_37_40.sol\":3151:3163  return mList */\n      swap2\n      pop\n      pop\n        /* \"basic_37_40.sol\":2940:3171  function test39(uint _n) public pure returns(uint[4] memory) {... */\n      swap2\n      swap1\n      pop\n      jump\t// out\n    tag_90:\n      mload(0x40)\n      dup1\n      0x80\n      add\n      0x40\n      mstore\n      dup1\n      0x04\n      swap1\n      0x20\n      dup3\n      mul\n      dup1\n      calldatasize\n      dup4\n      calldatacopy\n      dup1\n      dup3\n      add\n      swap2\n      pop\n      pop\n      swap1\n      pop\n      pop\n      swap1\n      jump\t// out\n        /* \"#utility.yul\":7:84   */\n    tag_240:\n        /* \"#utility.yul\":44:51   */\n      0x00\n        /* \"#utility.yul\":73:78   */\n      dup2\n        /* \"#utility.yul\":62:78   */\n      swap1\n      pop\n        /* \"#utility.yul\":7:84   */\n      swap2\n      swap1\n      pop\n      jump\t// out\n        /* \"#utility.yul\":90:208   */\n    tag_241:\n        /* \"#utility.yul\":177:201   */\n      tag_294\n        /* \"#utility.yul\":195:200   */\n      dup2\n        /* \"#utility.yul\":177:201   */\n      tag_240\n      jump\t// in\n    tag_294:\n        /* \"#utility.yul\":172:175   */\n      dup3\n        /* \"#utility.yul\":165:202   */\n      mstore\n        /* \"#utility.yul\":90:208   */\n      pop\n      pop\n      jump\t// out\n        /* \"#utility.yul\":214:436   */\n    tag_21:\n        /* \"#utility.yul\":307:311   */\n      0x00\n        /* \"#utility.yul\":345:347   */\n      0x20\n        /* \"#utility.yul\":334:343   */\n      dup3\n        /* \"#utility.yul\":330:348   */\n      add\n        /* \"#utility.yul\":322:348   */\n      swap1\n      pop\n        /* \"#utility.yul\":358:429   */\n      tag_296\n        /* \"#utility.yul\":426:427   */\n      0x00\n        /* \"#utility.yul\":415:424   */\n      dup4\n        /* \"#utility.yul\":411:428   */\n      add\n        /* \"#utility.yul\":402:408   */\n      dup5\n        /* \"#utility.yul\":358:429   */\n      tag_241\n      jump\t// in\n    tag_296:\n        /* \"#utility.yul\":214:436   */\n      swap3\n      swap2\n      pop\n      pop\n      jump\t// out\n        /* \"#utility.yul\":442:517   */\n    tag_242:\n        /* \"#utility.yul\":475:481   */\n      0x00\n        /* \"#utility.yul\":508:510   */\n      0x40\n        /* \"#utility.yul\":502:511   */\n      mload\n        /* \"#utility.yul\":492:511   */\n      swap1\n      pop\n        /* \"#utility.yul\":442:517   */\n      swap1\n      jump\t// out\n        /* \"#utility.yul\":523:640   */\n    tag_243:\n        /* \"#utility.yul\":632:633   */\n      0x00\n        /* \"#utility.yul\":629:630   */\n      dup1\n        /* \"#utility.yul\":622:634   */\n      revert\n        /* \"#utility.yul\":646:763   */\n    tag_244:\n        /* \"#utility.yul\":755:756   */\n      0x00\n        /* \"#utility.yul\":752:753   */\n      dup1\n        /* \"#utility.yul\":745:757   */\n      revert\n        /* \"#utility.yul\":769:891   */\n    tag_245:\n        /* \"#utility.yul\":842:866   */\n      tag_301\n        /* \"#utility.yul\":860:865   */\n      dup2\n        /* \"#utility.yul\":842:866   */\n      tag_240\n      jump\t// in\n    tag_301:\n        /* \"#utility.yul\":835:840   */\n      dup2\n        /* \"#utility.yul\":832:867   */\n      eq\n        /* \"#utility.yul\":822:885   */\n      tag_302\n      jumpi\n        /* \"#utility.yul\":881:882   */\n      0x00\n        /* \"#utility.yul\":878:879   */\n      dup1\n        /* \"#utility.yul\":871:883   */\n      revert\n        /* \"#utility.yul\":822:885   */\n    tag_302:\n        /* \"#utility.yul\":769:891   */\n      pop\n      jump\t// out\n        /* \"#utility.yul\":897:1036   */\n    tag_246:\n        /* \"#utility.yul\":943:948   */\n      0x00\n        /* \"#utility.yul\":981:987   */\n      dup2\n        /* \"#utility.yul\":968:988   */\n      calldataload\n        /* \"#utility.yul\":959:988   */\n      swap1\n      pop\n        /* \"#utility.yul\":997:1030   */\n      tag_304\n        /* \"#utility.yul\":1024:1029   */\n      dup2\n        /* \"#utility.yul\":997:1030   */\n      tag_245\n      jump\t// in\n    tag_304:\n        /* \"#utility.yul\":897:1036   */\n      swap3\n      swap2\n      pop\n      pop\n      jump\t// out\n        /* \"#utility.yul\":1042:1371   */\n    tag_34:\n        /* \"#utility.yul\":1101:1107   */\n      0x00\n        /* \"#utility.yul\":1150:1152   */\n      0x20\n        /* \"#utility.yul\":1138:1147   */\n      dup3\n        /* \"#utility.yul\":1129:1136   */\n      dup5\n        /* \"#utility.yul\":1125:1148   */\n      sub\n        /* \"#utility.yul\":1121:1153   */\n      slt\n        /* \"#utility.yul\":1118:1237   */\n      iszero\n      tag_306\n      jumpi\n        /* \"#utility.yul\":1156:1235   */\n      tag_307\n      tag_243\n      jump\t// in\n    tag_307:\n        /* \"#utility.yul\":1118:1237   */\n    tag_306:\n        /* \"#utility.yul\":1276:1277   */\n      0x00\n        /* \"#utility.yul\":1301:1354   */\n      tag_308\n        /* \"#utility.yul\":1346:1353   */\n      dup5\n        /* \"#utility.yul\":1337:1343   */\n      dup3\n        /* \"#utility.yul\":1326:1335   */\n      dup6\n        /* \"#utility.yul\":1322:1344   */\n      add\n        /* \"#utility.yul\":1301:1354   */\n      tag_246\n      jump\t// in\n    tag_308:\n        /* \"#utility.yul\":1291:1354   */\n      swap2\n      pop\n        /* \"#utility.yul\":1247:1364   */\n      pop\n        /* \"#utility.yul\":1042:1371   */\n      swap3\n      swap2\n      pop\n      pop\n      jump\t// out\n        /* \"#utility.yul\":1377:1481   */\n    tag_247:\n        /* \"#utility.yul\":1442:1448   */\n      0x00\n        /* \"#utility.yul\":1470:1474   */\n      0x04\n        /* \"#utility.yul\":1460:1474   */\n      swap1\n      pop\n        /* \"#utility.yul\":1377:1481   */\n      swap2\n      swap1\n      pop\n      jump\t// out\n        /* \"#utility.yul\":1487:1630   */\n    tag_248:\n        /* \"#utility.yul\":1584:1595   */\n      0x00\n        /* \"#utility.yul\":1621:1624   */\n      dup2\n        /* \"#utility.yul\":1606:1624   */\n      swap1\n      pop\n        /* \"#utility.yul\":1487:1630   */\n      swap3\n      swap2\n      pop\n      pop\n      jump\t// out\n        /* \"#utility.yul\":1636:1734   */\n    tag_249:\n        /* \"#utility.yul\":1701:1705   */\n      0x00\n        /* \"#utility.yul\":1724:1727   */\n      dup2\n        /* \"#utility.yul\":1716:1727   */\n      swap1\n      pop\n        /* \"#utility.yul\":1636:1734   */\n      swap2\n      swap1\n      pop\n      jump\t// out\n        /* \"#utility.yul\":1740:1848   */\n    tag_250:\n        /* \"#utility.yul\":1817:1841   */\n      tag_313\n        /* \"#utility.yul\":1835:1840   */\n      dup2\n        /* \"#utility.yul\":1817:1841   */\n      tag_240\n      jump\t// in\n    tag_313:\n        /* \"#utility.yul\":1812:1815   */\n      dup3\n        /* \"#utility.yul\":1805:1842   */\n      mstore\n        /* \"#utility.yul\":1740:1848   */\n      pop\n      pop\n      jump\t// out\n        /* \"#utility.yul\":1854:2033   */\n    tag_251:\n        /* \"#utility.yul\":1923:1933   */\n      0x00\n        /* \"#utility.yul\":1944:1990   */\n      tag_315\n        /* \"#utility.yul\":1986:1989   */\n      dup4\n        /* \"#utility.yul\":1978:1984   */\n      dup4\n        /* \"#utility.yul\":1944:1990   */\n      tag_250\n      jump\t// in\n    tag_315:\n        /* \"#utility.yul\":2022:2026   */\n      0x20\n        /* \"#utility.yul\":2017:2020   */\n      dup4\n        /* \"#utility.yul\":2013:2027   */\n      add\n        /* \"#utility.yul\":1999:2027   */\n      swap1\n      pop\n        /* \"#utility.yul\":1854:2033   */\n      swap3\n      swap2\n      pop\n      pop\n      jump\t// out\n        /* \"#utility.yul\":2039:2150   */\n    tag_252:\n        /* \"#utility.yul\":2107:2111   */\n      0x00\n        /* \"#utility.yul\":2139:2143   */\n      0x20\n        /* \"#utility.yul\":2134:2137   */\n      dup3\n        /* \"#utility.yul\":2130:2144   */\n      add\n        /* \"#utility.yul\":2122:2144   */\n      swap1\n      pop\n        /* \"#utility.yul\":2039:2150   */\n      swap2\n      swap1\n      pop\n      jump\t// out\n        /* \"#utility.yul\":2188:2882   */\n    tag_253:\n        /* \"#utility.yul\":2324:2376   */\n      tag_318\n        /* \"#utility.yul\":2370:2375   */\n      dup2\n        /* \"#utility.yul\":2324:2376   */\n      tag_247\n      jump\t// in\n    tag_318:\n        /* \"#utility.yul\":2392:2476   */\n      tag_319\n        /* \"#utility.yul\":2469:2475   */\n      dup2\n        /* \"#utility.yul\":2464:2467   */\n      dup5\n        /* \"#utility.yul\":2392:2476   */\n      tag_248\n      jump\t// in\n    tag_319:\n        /* \"#utility.yul\":2385:2476   */\n      swap3\n      pop\n        /* \"#utility.yul\":2500:2554   */\n      tag_320\n        /* \"#utility.yul\":2548:2553   */\n      dup3\n        /* \"#utility.yul\":2500:2554   */\n      tag_249\n      jump\t// in\n    tag_320:\n        /* \"#utility.yul\":2577:2584   */\n      dup1\n        /* \"#utility.yul\":2608:2609   */\n      0x00\n        /* \"#utility.yul\":2593:2875   */\n    tag_321:\n        /* \"#utility.yul\":2618:2624   */\n      dup4\n        /* \"#utility.yul\":2615:2616   */\n      dup2\n        /* \"#utility.yul\":2612:2625   */\n      lt\n        /* \"#utility.yul\":2593:2875   */\n      iszero\n      tag_323\n      jumpi\n        /* \"#utility.yul\":2694:2700   */\n      dup2\n        /* \"#utility.yul\":2688:2701   */\n      mload\n        /* \"#utility.yul\":2721:2784   */\n      tag_324\n        /* \"#utility.yul\":2780:2783   */\n      dup8\n        /* \"#utility.yul\":2765:2778   */\n      dup3\n        /* \"#utility.yul\":2721:2784   */\n      tag_251\n      jump\t// in\n    tag_324:\n        /* \"#utility.yul\":2714:2784   */\n      swap7\n      pop\n        /* \"#utility.yul\":2807:2865   */\n      tag_325\n        /* \"#utility.yul\":2858:2864   */\n      dup4\n        /* \"#utility.yul\":2807:2865   */\n      tag_252\n      jump\t// in\n    tag_325:\n        /* \"#utility.yul\":2797:2865   */\n      swap3\n      pop\n        /* \"#utility.yul\":2653:2875   */\n      pop\n        /* \"#utility.yul\":2640:2641   */\n      0x01\n        /* \"#utility.yul\":2637:2638   */\n      dup2\n        /* \"#utility.yul\":2633:2642   */\n      add\n        /* \"#utility.yul\":2628:2642   */\n      swap1\n      pop\n        /* \"#utility.yul\":2593:2875   */\n      jump(tag_321)\n    tag_323:\n        /* \"#utility.yul\":2597:2611   */\n      pop\n        /* \"#utility.yul\":2300:2882   */\n      pop\n      pop\n      pop\n        /* \"#utility.yul\":2188:2882   */\n      pop\n      pop\n      jump\t// out\n        /* \"#utility.yul\":2888:3203   */\n    tag_37:\n        /* \"#utility.yul\":3027:3031   */\n      0x00\n        /* \"#utility.yul\":3065:3068   */\n      0x80\n        /* \"#utility.yul\":3054:3063   */\n      dup3\n        /* \"#utility.yul\":3050:3069   */\n      add\n        /* \"#utility.yul\":3042:3069   */\n      swap1\n      pop\n        /* \"#utility.yul\":3079:3196   */\n      tag_327\n        /* \"#utility.yul\":3193:3194   */\n      0x00\n        /* \"#utility.yul\":3182:3191   */\n      dup4\n        /* \"#utility.yul\":3178:3195   */\n      add\n        /* \"#utility.yul\":3169:3175   */\n      dup5\n        /* \"#utility.yul\":3079:3196   */\n      tag_253\n      jump\t// in\n    tag_327:\n        /* \"#utility.yul\":2888:3203   */\n      swap3\n      swap2\n      pop\n      pop\n      jump\t// out\n        /* \"#utility.yul\":3209:3308   */\n    tag_254:\n        /* \"#utility.yul\":3261:3267   */\n      0x00\n        /* \"#utility.yul\":3295:3300   */\n      dup2\n        /* \"#utility.yul\":3289:3301   */\n      mload\n        /* \"#utility.yul\":3279:3301   */\n      swap1\n      pop\n        /* \"#utility.yul\":3209:3308   */\n      swap2\n      swap1\n      pop\n      jump\t// out\n        /* \"#utility.yul\":3314:3483   */\n    tag_255:\n        /* \"#utility.yul\":3398:3409   */\n      0x00\n        /* \"#utility.yul\":3432:3438   */\n      dup3\n        /* \"#utility.yul\":3427:3430   */\n      dup3\n        /* \"#utility.yul\":3420:3439   */\n      mstore\n        /* \"#utility.yul\":3472:3476   */\n      0x20\n        /* \"#utility.yul\":3467:3470   */\n      dup3\n        /* \"#utility.yul\":3463:3477   */\n      add\n        /* \"#utility.yul\":3448:3477   */\n      swap1\n      pop\n        /* \"#utility.yul\":3314:3483   */\n      swap3\n      swap2\n      pop\n      pop\n      jump\t// out\n        /* \"#utility.yul\":3489:3735   */\n    tag_256:\n        /* \"#utility.yul\":3570:3571   */\n      0x00\n        /* \"#utility.yul\":3580:3693   */\n    tag_331:\n        /* \"#utility.yul\":3594:3600   */\n      dup4\n        /* \"#utility.yul\":3591:3592   */\n      dup2\n        /* \"#utility.yul\":3588:3601   */\n      lt\n        /* \"#utility.yul\":3580:3693   */\n      iszero\n      tag_333\n      jumpi\n        /* \"#utility.yul\":3679:3680   */\n      dup1\n        /* \"#utility.yul\":3674:3677   */\n      dup3\n        /* \"#utility.yul\":3670:3681   */\n      add\n        /* \"#utility.yul\":3664:3682   */\n      mload\n        /* \"#utility.yul\":3660:3661   */\n      dup2\n        /* \"#utility.yul\":3655:3658   */\n      dup5\n        /* \"#utility.yul\":3651:3662   */\n      add\n        /* \"#utility.yul\":3644:3683   */\n      mstore\n        /* \"#utility.yul\":3616:3618   */\n      0x20\n        /* \"#utility.yul\":3613:3614   */\n      dup2\n        /* \"#utility.yul\":3609:3619   */\n      add\n        /* \"#utility.yul\":3604:3619   */\n      swap1\n      pop\n        /* \"#utility.yul\":3580:3693   */\n      jump(tag_331)\n    tag_333:\n        /* \"#utility.yul\":3727:3728   */\n      0x00\n        /* \"#utility.yul\":3718:3724   */\n      dup5\n        /* \"#utility.yul\":3713:3716   */\n      dup5\n        /* \"#utility.yul\":3709:3725   */\n      add\n        /* \"#utility.yul\":3702:3729   */\n      mstore\n        /* \"#utility.yul\":3551:3735   */\n      pop\n        /* \"#utility.yul\":3489:3735   */\n      pop\n      pop\n      pop\n      jump\t// out\n        /* \"#utility.yul\":3741:3843   */\n    tag_257:\n        /* \"#utility.yul\":3782:3788   */\n      0x00\n        /* \"#utility.yul\":3833:3835   */\n      0x1f\n        /* \"#utility.yul\":3829:3836   */\n      not\n        /* \"#utility.yul\":3824:3826   */\n      0x1f\n        /* \"#utility.yul\":3817:3822   */\n      dup4\n        /* \"#utility.yul\":3813:3827   */\n      add\n        /* \"#utility.yul\":3809:3837   */\n      and\n        /* \"#utility.yul\":3799:3837   */\n      swap1\n      pop\n        /* \"#utility.yul\":3741:3843   */\n      swap2\n      swap1\n      pop\n      jump\t// out\n        /* \"#utility.yul\":3849:4226   */\n    tag_258:\n        /* \"#utility.yul\":3937:3940   */\n      0x00\n        /* \"#utility.yul\":3965:4004   */\n      tag_336\n        /* \"#utility.yul\":3998:4003   */\n      dup3\n        /* \"#utility.yul\":3965:4004   */\n      tag_254\n      jump\t// in\n    tag_336:\n        /* \"#utility.yul\":4020:4091   */\n      tag_337\n        /* \"#utility.yul\":4084:4090   */\n      dup2\n        /* \"#utility.yul\":4079:4082   */\n      dup6\n        /* \"#utility.yul\":4020:4091   */\n      tag_255\n      jump\t// in\n    tag_337:\n        /* \"#utility.yul\":4013:4091   */\n      swap4\n      pop\n        /* \"#utility.yul\":4100:4165   */\n      tag_338\n        /* \"#utility.yul\":4158:4164   */\n      dup2\n        /* \"#utility.yul\":4153:4156   */\n      dup6\n        /* \"#utility.yul\":4146:4150   */\n      0x20\n        /* \"#utility.yul\":4139:4144   */\n      dup7\n        /* \"#utility.yul\":4135:4151   */\n      add\n        /* \"#utility.yul\":4100:4165   */\n      tag_256\n      jump\t// in\n    tag_338:\n        /* \"#utility.yul\":4190:4219   */\n      tag_339\n        /* \"#utility.yul\":4212:4218   */\n      dup2\n        /* \"#utility.yul\":4190:4219   */\n      tag_257\n      jump\t// in\n    tag_339:\n        /* \"#utility.yul\":4185:4188   */\n      dup5\n        /* \"#utility.yul\":4181:4220   */\n      add\n        /* \"#utility.yul\":4174:4220   */\n      swap2\n      pop\n        /* \"#utility.yul\":3941:4226   */\n      pop\n        /* \"#utility.yul\":3849:4226   */\n      swap3\n      swap2\n      pop\n      pop\n      jump\t// out\n        /* \"#utility.yul\":4232:4545   */\n    tag_47:\n        /* \"#utility.yul\":4345:4349   */\n      0x00\n        /* \"#utility.yul\":4383:4385   */\n      0x20\n        /* \"#utility.yul\":4372:4381   */\n      dup3\n        /* \"#utility.yul\":4368:4386   */\n      add\n        /* \"#utility.yul\":4360:4386   */\n      swap1\n      pop\n        /* \"#utility.yul\":4432:4441   */\n      dup2\n        /* \"#utility.yul\":4426:4430   */\n      dup2\n        /* \"#utility.yul\":4422:4442   */\n      sub\n        /* \"#utility.yul\":4418:4419   */\n      0x00\n        /* \"#utility.yul\":4407:4416   */\n      dup4\n        /* \"#utility.yul\":4403:4420   */\n      add\n        /* \"#utility.yul\":4396:4443   */\n      mstore\n        /* \"#utility.yul\":4460:4538   */\n      tag_341\n        /* \"#utility.yul\":4533:4537   */\n      dup2\n        /* \"#utility.yul\":4524:4530   */\n      dup5\n        /* \"#utility.yul\":4460:4538   */\n      tag_258\n      jump\t// in\n    tag_341:\n        /* \"#utility.yul\":4452:4538   */\n      swap1\n      pop\n        /* \"#utility.yul\":4232:4545   */\n      swap3\n      swap2\n      pop\n      pop\n      jump\t// out\n        /* \"#utility.yul\":4551:4668   */\n    tag_259:\n        /* \"#utility.yul\":4660:4661   */\n      0x00\n        /* \"#utility.yul\":4657:4658   */\n      dup1\n        /* \"#utility.yul\":4650:4662   */\n      revert\n        /* \"#utility.yul\":4674:4854   */\n    tag_164:\n        /* \"#utility.yul\":4722:4799   */\n      0x4e487b7100000000000000000000000000000000000000000000000000000000\n        /* \"#utility.yul\":4719:4720   */\n      0x00\n        /* \"#utility.yul\":4712:4800   */\n      mstore\n        /* \"#utility.yul\":4819:4823   */\n      0x41\n        /* \"#utility.yul\":4816:4817   */\n      0x04\n        /* \"#utility.yul\":4809:4824   */\n      mstore\n        /* \"#utility.yul\":4843:4847   */\n      0x24\n        /* \"#utility.yul\":4840:4841   */\n      0x00\n        /* \"#utility.yul\":4833:4848   */\n      revert\n        /* \"#utility.yul\":4860:5141   */\n    tag_260:\n        /* \"#utility.yul\":4943:4970   */\n      tag_345\n        /* \"#utility.yul\":4965:4969   */\n      dup3\n        /* \"#utility.yul\":4943:4970   */\n      tag_257\n      jump\t// in\n    tag_345:\n        /* \"#utility.yul\":4935:4941   */\n      dup2\n        /* \"#utility.yul\":4931:4971   */\n      add\n        /* \"#utility.yul\":5073:5079   */\n      dup2\n        /* \"#utility.yul\":5061:5071   */\n      dup2\n        /* \"#utility.yul\":5058:5080   */\n      lt\n        /* \"#utility.yul\":5037:5055   */\n      0xffffffffffffffff\n        /* \"#utility.yul\":5025:5035   */\n      dup3\n        /* \"#utility.yul\":5022:5056   */\n      gt\n        /* \"#utility.yul\":5019:5081   */\n      or\n        /* \"#utility.yul\":5016:5104   */\n      iszero\n      tag_346\n      jumpi\n        /* \"#utility.yul\":5084:5102   */\n      tag_347\n      tag_164\n      jump\t// in\n    tag_347:\n        /* \"#utility.yul\":5016:5104   */\n    tag_346:\n        /* \"#utility.yul\":5124:5134   */\n      dup1\n        /* \"#utility.yul\":5120:5122   */\n      0x40\n        /* \"#utility.yul\":5113:5135   */\n      mstore\n        /* \"#utility.yul\":4903:5141   */\n      pop\n        /* \"#utility.yul\":4860:5141   */\n      pop\n      pop\n      jump\t// out\n        /* \"#utility.yul\":5147:5276   */\n    tag_261:\n        /* \"#utility.yul\":5181:5187   */\n      0x00\n        /* \"#utility.yul\":5208:5228   */\n      tag_349\n      tag_242\n      jump\t// in\n    tag_349:\n        /* \"#utility.yul\":5198:5228   */\n      swap1\n      pop\n        /* \"#utility.yul\":5237:5270   */\n      tag_350\n        /* \"#utility.yul\":5265:5269   */\n      dup3\n        /* \"#utility.yul\":5257:5263   */\n      dup3\n        /* \"#utility.yul\":5237:5270   */\n      tag_260\n      jump\t// in\n    tag_350:\n        /* \"#utility.yul\":5147:5276   */\n      swap2\n      swap1\n      pop\n      jump\t// out\n        /* \"#utility.yul\":5282:5593   */\n    tag_262:\n        /* \"#utility.yul\":5359:5363   */\n      0x00\n        /* \"#utility.yul\":5449:5467   */\n      0xffffffffffffffff\n        /* \"#utility.yul\":5441:5447   */\n      dup3\n        /* \"#utility.yul\":5438:5468   */\n      gt\n        /* \"#utility.yul\":5435:5491   */\n      iszero\n      tag_352\n      jumpi\n        /* \"#utility.yul\":5471:5489   */\n      tag_353\n      tag_164\n      jump\t// in\n    tag_353:\n        /* \"#utility.yul\":5435:5491   */\n    tag_352:\n        /* \"#utility.yul\":5521:5525   */\n      0x20\n        /* \"#utility.yul\":5513:5519   */\n      dup3\n        /* \"#utility.yul\":5509:5526   */\n      mul\n        /* \"#utility.yul\":5501:5526   */\n      swap1\n      pop\n        /* \"#utility.yul\":5581:5585   */\n      0x20\n        /* \"#utility.yul\":5575:5579   */\n      dup2\n        /* \"#utility.yul\":5571:5586   */\n      add\n        /* \"#utility.yul\":5563:5586   */\n      swap1\n      pop\n        /* \"#utility.yul\":5282:5593   */\n      swap2\n      swap1\n      pop\n      jump\t// out\n        /* \"#utility.yul\":5599:5716   */\n    tag_263:\n        /* \"#utility.yul\":5708:5709   */\n      0x00\n        /* \"#utility.yul\":5705:5706   */\n      dup1\n        /* \"#utility.yul\":5698:5710   */\n      revert\n        /* \"#utility.yul\":5739:6449   */\n    tag_264:\n        /* \"#utility.yul\":5835:5840   */\n      0x00\n        /* \"#utility.yul\":5860:5941   */\n      tag_356\n        /* \"#utility.yul\":5876:5940   */\n      tag_357\n        /* \"#utility.yul\":5933:5939   */\n      dup5\n        /* \"#utility.yul\":5876:5940   */\n      tag_262\n      jump\t// in\n    tag_357:\n        /* \"#utility.yul\":5860:5941   */\n      tag_261\n      jump\t// in\n    tag_356:\n        /* \"#utility.yul\":5851:5941   */\n      swap1\n      pop\n        /* \"#utility.yul\":5961:5966   */\n      dup1\n        /* \"#utility.yul\":5990:5996   */\n      dup4\n        /* \"#utility.yul\":5983:5988   */\n      dup3\n        /* \"#utility.yul\":5976:5997   */\n      mstore\n        /* \"#utility.yul\":6024:6028   */\n      0x20\n        /* \"#utility.yul\":6017:6022   */\n      dup3\n        /* \"#utility.yul\":6013:6029   */\n      add\n        /* \"#utility.yul\":6006:6029   */\n      swap1\n      pop\n        /* \"#utility.yul\":6077:6081   */\n      0x20\n        /* \"#utility.yul\":6069:6075   */\n      dup5\n        /* \"#utility.yul\":6065:6082   */\n      mul\n        /* \"#utility.yul\":6057:6063   */\n      dup4\n        /* \"#utility.yul\":6053:6083   */\n      add\n        /* \"#utility.yul\":6106:6109   */\n      dup6\n        /* \"#utility.yul\":6098:6104   */\n      dup2\n        /* \"#utility.yul\":6095:6110   */\n      gt\n        /* \"#utility.yul\":6092:6214   */\n      iszero\n      tag_358\n      jumpi\n        /* \"#utility.yul\":6125:6204   */\n      tag_359\n      tag_263\n      jump\t// in\n    tag_359:\n        /* \"#utility.yul\":6092:6214   */\n    tag_358:\n        /* \"#utility.yul\":6240:6246   */\n      dup4\n        /* \"#utility.yul\":6223:6443   */\n    tag_360:\n        /* \"#utility.yul\":6257:6263   */\n      dup2\n        /* \"#utility.yul\":6252:6255   */\n      dup2\n        /* \"#utility.yul\":6249:6264   */\n      lt\n        /* \"#utility.yul\":6223:6443   */\n      iszero\n      tag_362\n      jumpi\n        /* \"#utility.yul\":6332:6335   */\n      dup1\n        /* \"#utility.yul\":6361:6398   */\n      tag_363\n        /* \"#utility.yul\":6394:6397   */\n      dup9\n        /* \"#utility.yul\":6382:6392   */\n      dup3\n        /* \"#utility.yul\":6361:6398   */\n      tag_246\n      jump\t// in\n    tag_363:\n        /* \"#utility.yul\":6356:6359   */\n      dup5\n        /* \"#utility.yul\":6349:6399   */\n      mstore\n        /* \"#utility.yul\":6428:6432   */\n      0x20\n        /* \"#utility.yul\":6423:6426   */\n      dup5\n        /* \"#utility.yul\":6419:6433   */\n      add\n        /* \"#utility.yul\":6412:6433   */\n      swap4\n      pop\n        /* \"#utility.yul\":6299:6443   */\n      pop\n        /* \"#utility.yul\":6283:6287   */\n      0x20\n        /* \"#utility.yul\":6278:6281   */\n      dup2\n        /* \"#utility.yul\":6274:6288   */\n      add\n        /* \"#utility.yul\":6267:6288   */\n      swap1\n      pop\n        /* \"#utility.yul\":6223:6443   */\n      jump(tag_360)\n    tag_362:\n        /* \"#utility.yul\":6227:6248   */\n      pop\n        /* \"#utility.yul\":5841:6449   */\n      pop\n      pop\n        /* \"#utility.yul\":5739:6449   */\n      swap4\n      swap3\n      pop\n      pop\n      pop\n      jump\t// out\n        /* \"#utility.yul\":6472:6842   */\n    tag_265:\n        /* \"#utility.yul\":6543:6548   */\n      0x00\n        /* \"#utility.yul\":6592:6595   */\n      dup3\n        /* \"#utility.yul\":6585:6589   */\n      0x1f\n        /* \"#utility.yul\":6577:6583   */\n      dup4\n        /* \"#utility.yul\":6573:6590   */\n      add\n        /* \"#utility.yul\":6569:6596   */\n      slt\n        /* \"#utility.yul\":6559:6681   */\n      tag_365\n      jumpi\n        /* \"#utility.yul\":6600:6679   */\n      tag_366\n      tag_259\n      jump\t// in\n    tag_366:\n        /* \"#utility.yul\":6559:6681   */\n    tag_365:\n        /* \"#utility.yul\":6717:6723   */\n      dup2\n        /* \"#utility.yul\":6704:6724   */\n      calldataload\n        /* \"#utility.yul\":6742:6836   */\n      tag_367\n        /* \"#utility.yul\":6832:6835   */\n      dup5\n        /* \"#utility.yul\":6824:6830   */\n      dup3\n        /* \"#utility.yul\":6817:6821   */\n      0x20\n        /* \"#utility.yul\":6809:6815   */\n      dup7\n        /* \"#utility.yul\":6805:6822   */\n      add\n        /* \"#utility.yul\":6742:6836   */\n      tag_264\n      jump\t// in\n    tag_367:\n        /* \"#utility.yul\":6733:6836   */\n      swap2\n      pop\n        /* \"#utility.yul\":6549:6842   */\n      pop\n        /* \"#utility.yul\":6472:6842   */\n      swap3\n      swap2\n      pop\n      pop\n      jump\t// out\n        /* \"#utility.yul\":6848:7387   */\n    tag_54:\n        /* \"#utility.yul\":6932:6938   */\n      0x00\n        /* \"#utility.yul\":6981:6983   */\n      0x20\n        /* \"#utility.yul\":6969:6978   */\n      dup3\n        /* \"#utility.yul\":6960:6967   */\n      dup5\n        /* \"#utility.yul\":6956:6979   */\n      sub\n        /* \"#utility.yul\":6952:6984   */\n      slt\n        /* \"#utility.yul\":6949:7068   */\n      iszero\n      tag_369\n      jumpi\n        /* \"#utility.yul\":6987:7066   */\n      tag_370\n      tag_243\n      jump\t// in\n    tag_370:\n        /* \"#utility.yul\":6949:7068   */\n    tag_369:\n        /* \"#utility.yul\":7135:7136   */\n      0x00\n        /* \"#utility.yul\":7124:7133   */\n      dup3\n        /* \"#utility.yul\":7120:7137   */\n      add\n        /* \"#utility.yul\":7107:7138   */\n      calldataload\n        /* \"#utility.yul\":7165:7183   */\n      0xffffffffffffffff\n        /* \"#utility.yul\":7157:7163   */\n      dup2\n        /* \"#utility.yul\":7154:7184   */\n      gt\n        /* \"#utility.yul\":7151:7268   */\n      iszero\n      tag_371\n      jumpi\n        /* \"#utility.yul\":7187:7266   */\n      tag_372\n      tag_244\n      jump\t// in\n    tag_372:\n        /* \"#utility.yul\":7151:7268   */\n    tag_371:\n        /* \"#utility.yul\":7292:7370   */\n      tag_373\n        /* \"#utility.yul\":7362:7369   */\n      dup5\n        /* \"#utility.yul\":7353:7359   */\n      dup3\n        /* \"#utility.yul\":7342:7351   */\n      dup6\n        /* \"#utility.yul\":7338:7360   */\n      add\n        /* \"#utility.yul\":7292:7370   */\n      tag_265\n      jump\t// in\n    tag_373:\n        /* \"#utility.yul\":7282:7370   */\n      swap2\n      pop\n        /* \"#utility.yul\":7078:7380   */\n      pop\n        /* \"#utility.yul\":6848:7387   */\n      swap3\n      swap2\n      pop\n      pop\n      jump\t// out\n        /* \"#utility.yul\":7393:7507   */\n    tag_266:\n        /* \"#utility.yul\":7460:7466   */\n      0x00\n        /* \"#utility.yul\":7494:7499   */\n      dup2\n        /* \"#utility.yul\":7488:7500   */\n      mload\n        /* \"#utility.yul\":7478:7500   */\n      swap1\n      pop\n        /* \"#utility.yul\":7393:7507   */\n      swap2\n      swap1\n      pop\n      jump\t// out\n        /* \"#utility.yul\":7513:7697   */\n    tag_267:\n        /* \"#utility.yul\":7612:7623   */\n      0x00\n        /* \"#utility.yul\":7646:7652   */\n      dup3\n        /* \"#utility.yul\":7641:7644   */\n      dup3\n        /* \"#utility.yul\":7634:7653   */\n      mstore\n        /* \"#utility.yul\":7686:7690   */\n      0x20\n        /* \"#utility.yul\":7681:7684   */\n      dup3\n        /* \"#utility.yul\":7677:7691   */\n      add\n        /* \"#utility.yul\":7662:7691   */\n      swap1\n      pop\n        /* \"#utility.yul\":7513:7697   */\n      swap3\n      swap2\n      pop\n      pop\n      jump\t// out\n        /* \"#utility.yul\":7703:7835   */\n    tag_268:\n        /* \"#utility.yul\":7770:7774   */\n      0x00\n        /* \"#utility.yul\":7793:7796   */\n      dup2\n        /* \"#utility.yul\":7785:7796   */\n      swap1\n      pop\n        /* \"#utility.yul\":7823:7827   */\n      0x20\n        /* \"#utility.yul\":7818:7821   */\n      dup3\n        /* \"#utility.yul\":7814:7828   */\n      add\n        /* \"#utility.yul\":7806:7828   */\n      swap1\n      pop\n        /* \"#utility.yul\":7703:7835   */\n      swap2\n      swap1\n      pop\n      jump\t// out\n        /* \"#utility.yul\":7841:7954   */\n    tag_269:\n        /* \"#utility.yul\":7911:7915   */\n      0x00\n        /* \"#utility.yul\":7943:7947   */\n      0x20\n        /* \"#utility.yul\":7938:7941   */\n      dup3\n        /* \"#utility.yul\":7934:7948   */\n      add\n        /* \"#utility.yul\":7926:7948   */\n      swap1\n      pop\n        /* \"#utility.yul\":7841:7954   */\n      swap2\n      swap1\n      pop\n      jump\t// out\n        /* \"#utility.yul\":7990:8722   */\n    tag_270:\n        /* \"#utility.yul\":8109:8112   */\n      0x00\n        /* \"#utility.yul\":8138:8192   */\n      tag_379\n        /* \"#utility.yul\":8186:8191   */\n      dup3\n        /* \"#utility.yul\":8138:8192   */\n      tag_266\n      jump\t// in\n    tag_379:\n        /* \"#utility.yul\":8208:8294   */\n      tag_380\n        /* \"#utility.yul\":8287:8293   */\n      dup2\n        /* \"#utility.yul\":8282:8285   */\n      dup6\n        /* \"#utility.yul\":8208:8294   */\n      tag_267\n      jump\t// in\n    tag_380:\n        /* \"#utility.yul\":8201:8294   */\n      swap4\n      pop\n        /* \"#utility.yul\":8318:8374   */\n      tag_381\n        /* \"#utility.yul\":8368:8373   */\n      dup4\n        /* \"#utility.yul\":8318:8374   */\n      tag_268\n      jump\t// in\n    tag_381:\n        /* \"#utility.yul\":8397:8404   */\n      dup1\n        /* \"#utility.yul\":8428:8429   */\n      0x00\n        /* \"#utility.yul\":8413:8697   */\n    tag_382:\n        /* \"#utility.yul\":8438:8444   */\n      dup4\n        /* \"#utility.yul\":8435:8436   */\n      dup2\n        /* \"#utility.yul\":8432:8445   */\n      lt\n        /* \"#utility.yul\":8413:8697   */\n      iszero\n      tag_384\n      jumpi\n        /* \"#utility.yul\":8514:8520   */\n      dup2\n        /* \"#utility.yul\":8508:8521   */\n      mload\n        /* \"#utility.yul\":8541:8604   */\n      tag_385\n        /* \"#utility.yul\":8600:8603   */\n      dup9\n        /* \"#utility.yul\":8585:8598   */\n      dup3\n        /* \"#utility.yul\":8541:8604   */\n      tag_251\n      jump\t// in\n    tag_385:\n        /* \"#utility.yul\":8534:8604   */\n      swap8\n      pop\n        /* \"#utility.yul\":8627:8687   */\n      tag_386\n        /* \"#utility.yul\":8680:8686   */\n      dup4\n        /* \"#utility.yul\":8627:8687   */\n      tag_269\n      jump\t// in\n    tag_386:\n        /* \"#utility.yul\":8617:8687   */\n      swap3\n      pop\n        /* \"#utility.yul\":8473:8697   */\n      pop\n        /* \"#utility.yul\":8460:8461   */\n      0x01\n        /* \"#utility.yul\":8457:8458   */\n      dup2\n        /* \"#utility.yul\":8453:8462   */\n      add\n        /* \"#utility.yul\":8448:8462   */\n      swap1\n      pop\n        /* \"#utility.yul\":8413:8697   */\n      jump(tag_382)\n    tag_384:\n        /* \"#utility.yul\":8417:8431   */\n      pop\n        /* \"#utility.yul\":8713:8716   */\n      dup6\n        /* \"#utility.yul\":8706:8716   */\n      swap4\n      pop\n        /* \"#utility.yul\":8114:8722   */\n      pop\n      pop\n      pop\n        /* \"#utility.yul\":7990:8722   */\n      swap3\n      swap2\n      pop\n      pop\n      jump\t// out\n        /* \"#utility.yul\":8728:9101   */\n    tag_57:\n        /* \"#utility.yul\":8871:8875   */\n      0x00\n        /* \"#utility.yul\":8909:8911   */\n      0x20\n        /* \"#utility.yul\":8898:8907   */\n      dup3\n        /* \"#utility.yul\":8894:8912   */\n      add\n        /* \"#utility.yul\":8886:8912   */\n      swap1\n      pop\n        /* \"#utility.yul\":8958:8967   */\n      dup2\n        /* \"#utility.yul\":8952:8956   */\n      dup2\n        /* \"#utility.yul\":8948:8968   */\n      sub\n        /* \"#utility.yul\":8944:8945   */\n      0x00\n        /* \"#utility.yul\":8933:8942   */\n      dup4\n        /* \"#utility.yul\":8929:8946   */\n      add\n        /* \"#utility.yul\":8922:8969   */\n      mstore\n        /* \"#utility.yul\":8986:9094   */\n      tag_388\n        /* \"#utility.yul\":9089:9093   */\n      dup2\n        /* \"#utility.yul\":9080:9086   */\n      dup5\n        /* \"#utility.yul\":8986:9094   */\n      tag_270\n      jump\t// in\n    tag_388:\n        /* \"#utility.yul\":8978:9094   */\n      swap1\n      pop\n        /* \"#utility.yul\":8728:9101   */\n      swap3\n      swap2\n      pop\n      pop\n      jump\t// out\n        /* \"#utility.yul\":9107:9439   */\n    tag_63:\n        /* \"#utility.yul\":9228:9232   */\n      0x00\n        /* \"#utility.yul\":9266:9268   */\n      0x40\n        /* \"#utility.yul\":9255:9264   */\n      dup3\n        /* \"#utility.yul\":9251:9269   */\n      add\n        /* \"#utility.yul\":9243:9269   */\n      swap1\n      pop\n        /* \"#utility.yul\":9279:9350   */\n      tag_390\n        /* \"#utility.yul\":9347:9348   */\n      0x00\n        /* \"#utility.yul\":9336:9345   */\n      dup4\n        /* \"#utility.yul\":9332:9349   */\n      add\n        /* \"#utility.yul\":9323:9329   */\n      dup6\n        /* \"#utility.yul\":9279:9350   */\n      tag_241\n      jump\t// in\n    tag_390:\n        /* \"#utility.yul\":9360:9432   */\n      tag_391\n        /* \"#utility.yul\":9428:9430   */\n      0x20\n        /* \"#utility.yul\":9417:9426   */\n      dup4\n        /* \"#utility.yul\":9413:9431   */\n      add\n        /* \"#utility.yul\":9404:9410   */\n      dup5\n        /* \"#utility.yul\":9360:9432   */\n      tag_241\n      jump\t// in\n    tag_391:\n        /* \"#utility.yul\":9107:9439   */\n      swap4\n      swap3\n      pop\n      pop\n      pop\n      jump\t// out\n        /* \"#utility.yul\":9445:9601   */\n    tag_271:\n        /* \"#utility.yul\":9585:9593   */\n      0x7265766572740000000000000000000000000000000000000000000000000000\n        /* \"#utility.yul\":9581:9582   */\n      0x00\n        /* \"#utility.yul\":9573:9579   */\n      dup3\n        /* \"#utility.yul\":9569:9583   */\n      add\n        /* \"#utility.yul\":9562:9594   */\n      mstore\n        /* \"#utility.yul\":9445:9601   */\n      pop\n      jump\t// out\n        /* \"#utility.yul\":9607:9972   */\n    tag_272:\n        /* \"#utility.yul\":9749:9752   */\n      0x00\n        /* \"#utility.yul\":9770:9836   */\n      tag_394\n        /* \"#utility.yul\":9834:9835   */\n      0x06\n        /* \"#utility.yul\":9829:9832   */\n      dup4\n        /* \"#utility.yul\":9770:9836   */\n      tag_255\n      jump\t// in\n    tag_394:\n        /* \"#utility.yul\":9763:9836   */\n      swap2\n      pop\n        /* \"#utility.yul\":9845:9938   */\n      tag_395\n        /* \"#utility.yul\":9934:9937   */\n      dup3\n        /* \"#utility.yul\":9845:9938   */\n      tag_271\n      jump\t// in\n    tag_395:\n        /* \"#utility.yul\":9963:9965   */\n      0x20\n        /* \"#utility.yul\":9958:9961   */\n      dup3\n        /* \"#utility.yul\":9954:9966   */\n      add\n        /* \"#utility.yul\":9947:9966   */\n      swap1\n      pop\n        /* \"#utility.yul\":9607:9972   */\n      swap2\n      swap1\n      pop\n      jump\t// out\n        /* \"#utility.yul\":9978:10397   */\n    tag_73:\n        /* \"#utility.yul\":10144:10148   */\n      0x00\n        /* \"#utility.yul\":10182:10184   */\n      0x20\n        /* \"#utility.yul\":10171:10180   */\n      dup3\n        /* \"#utility.yul\":10167:10185   */\n      add\n        /* \"#utility.yul\":10159:10185   */\n      swap1\n      pop\n        /* \"#utility.yul\":10231:10240   */\n      dup2\n        /* \"#utility.yul\":10225:10229   */\n      dup2\n        /* \"#utility.yul\":10221:10241   */\n      sub\n        /* \"#utility.yul\":10217:10218   */\n      0x00\n        /* \"#utility.yul\":10206:10215   */\n      dup4\n        /* \"#utility.yul\":10202:10219   */\n      add\n        /* \"#utility.yul\":10195:10242   */\n      mstore\n        /* \"#utility.yul\":10259:10390   */\n      tag_397\n        /* \"#utility.yul\":10385:10389   */\n      dup2\n        /* \"#utility.yul\":10259:10390   */\n      tag_272\n      jump\t// in\n    tag_397:\n        /* \"#utility.yul\":10251:10390   */\n      swap1\n      pop\n        /* \"#utility.yul\":9978:10397   */\n      swap2\n      swap1\n      pop\n      jump\t// out\n        /* \"#utility.yul\":10403:10583   */\n    tag_273:\n        /* \"#utility.yul\":10451:10528   */\n      0x4e487b7100000000000000000000000000000000000000000000000000000000\n        /* \"#utility.yul\":10448:10449   */\n      0x00\n        /* \"#utility.yul\":10441:10529   */\n      mstore\n        /* \"#utility.yul\":10548:10552   */\n      0x11\n        /* \"#utility.yul\":10545:10546   */\n      0x04\n        /* \"#utility.yul\":10538:10553   */\n      mstore\n        /* \"#utility.yul\":10572:10576   */\n      0x24\n        /* \"#utility.yul\":10569:10570   */\n      0x00\n        /* \"#utility.yul\":10562:10577   */\n      revert\n        /* \"#utility.yul\":10589:10780   */\n    tag_75:\n        /* \"#utility.yul\":10629:10632   */\n      0x00\n        /* \"#utility.yul\":10648:10668   */\n      tag_400\n        /* \"#utility.yul\":10666:10667   */\n      dup3\n        /* \"#utility.yul\":10648:10668   */\n      tag_240\n      jump\t// in\n    tag_400:\n        /* \"#utility.yul\":10643:10668   */\n      swap2\n      pop\n        /* \"#utility.yul\":10682:10702   */\n      tag_401\n        /* \"#utility.yul\":10700:10701   */\n      dup4\n        /* \"#utility.yul\":10682:10702   */\n      tag_240\n      jump\t// in\n    tag_401:\n        /* \"#utility.yul\":10677:10702   */\n      swap3\n      pop\n        /* \"#utility.yul\":10725:10726   */\n      dup3\n        /* \"#utility.yul\":10722:10723   */\n      dup3\n        /* \"#utility.yul\":10718:10727   */\n      add\n        /* \"#utility.yul\":10711:10727   */\n      swap1\n      pop\n        /* \"#utility.yul\":10746:10749   */\n      dup1\n        /* \"#utility.yul\":10743:10744   */\n      dup3\n        /* \"#utility.yul\":10740:10750   */\n      gt\n        /* \"#utility.yul\":10737:10773   */\n      iszero\n      tag_402\n      jumpi\n        /* \"#utility.yul\":10753:10771   */\n      tag_403\n      tag_273\n      jump\t// in\n    tag_403:\n        /* \"#utility.yul\":10737:10773   */\n    tag_402:\n        /* \"#utility.yul\":10589:10780   */\n      swap3\n      swap2\n      pop\n      pop\n      jump\t// out\n        /* \"#utility.yul\":10786:10966   */\n    tag_274:\n        /* \"#utility.yul\":10834:10911   */\n      0x4e487b7100000000000000000000000000000000000000000000000000000000\n        /* \"#utility.yul\":10831:10832   */\n      0x00\n        /* \"#utility.yul\":10824:10912   */\n      mstore\n        /* \"#utility.yul\":10931:10935   */\n      0x12\n        /* \"#utility.yul\":10928:10929   */\n      0x04\n        /* \"#utility.yul\":10921:10936   */\n      mstore\n        /* \"#utility.yul\":10955:10959   */\n      0x24\n        /* \"#utility.yul\":10952:10953   */\n      0x00\n        /* \"#utility.yul\":10945:10960   */\n      revert\n        /* \"#utility.yul\":10972:11148   */\n    tag_97:\n        /* \"#utility.yul\":11004:11005   */\n      0x00\n        /* \"#utility.yul\":11021:11041   */\n      tag_406\n        /* \"#utility.yul\":11039:11040   */\n      dup3\n        /* \"#utility.yul\":11021:11041   */\n      tag_240\n      jump\t// in\n    tag_406:\n        /* \"#utility.yul\":11016:11041   */\n      swap2\n      pop\n        /* \"#utility.yul\":11055:11075   */\n      tag_407\n        /* \"#utility.yul\":11073:11074   */\n      dup4\n        /* \"#utility.yul\":11055:11075   */\n      tag_240\n      jump\t// in\n    tag_407:\n        /* \"#utility.yul\":11050:11075   */\n      swap3\n      pop\n        /* \"#utility.yul\":11094:11095   */\n      dup3\n        /* \"#utility.yul\":11084:11119   */\n      tag_408\n      jumpi\n        /* \"#utility.yul\":11099:11117   */\n      tag_409\n      tag_274\n      jump\t// in\n    tag_409:\n        /* \"#utility.yul\":11084:11119   */\n    tag_408:\n        /* \"#utility.yul\":11140:11141   */\n      dup3\n        /* \"#utility.yul\":11137:11138   */\n      dup3\n        /* \"#utility.yul\":11133:11142   */\n      mod\n        /* \"#utility.yul\":11128:11142   */\n      swap1\n      pop\n        /* \"#utility.yul\":10972:11148   */\n      swap3\n      swap2\n      pop\n      pop\n      jump\t// out\n        /* \"#utility.yul\":11154:11334   */\n    tag_101:\n        /* \"#utility.yul\":11202:11279   */\n      0x4e487b7100000000000000000000000000000000000000000000000000000000\n        /* \"#utility.yul\":11199:11200   */\n      0x00\n        /* \"#utility.yul\":11192:11280   */\n      mstore\n        /* \"#utility.yul\":11299:11303   */\n      0x32\n        /* \"#utility.yul\":11296:11297   */\n      0x04\n        /* \"#utility.yul\":11289:11304   */\n      mstore\n        /* \"#utility.yul\":11323:11327   */\n      0x24\n        /* \"#utility.yul\":11320:11321   */\n      0x00\n        /* \"#utility.yul\":11313:11328   */\n      revert\n        /* \"#utility.yul\":11340:11573   */\n    tag_103:\n        /* \"#utility.yul\":11379:11382   */\n      0x00\n        /* \"#utility.yul\":11402:11426   */\n      tag_412\n        /* \"#utility.yul\":11420:11425   */\n      dup3\n        /* \"#utility.yul\":11402:11426   */\n      tag_240\n      jump\t// in\n    tag_412:\n        /* \"#utility.yul\":11393:11426   */\n      swap2\n      pop\n        /* \"#utility.yul\":11448:11514   */\n      0xffffffffffffffffffffffffffffffffffffffffffffffffffffffffffffffff\n        /* \"#utility.yul\":11441:11446   */\n      dup3\n        /* \"#utility.yul\":11438:11515   */\n      sub\n        /* \"#utility.yul\":11435:11538   */\n      tag_413\n      jumpi\n        /* \"#utility.yul\":11518:11536   */\n      tag_414\n      tag_273\n      jump\t// in\n    tag_414:\n        /* \"#utility.yul\":11435:11538   */\n    tag_413:\n        /* \"#utility.yul\":11565:11566   */\n      0x01\n        /* \"#utility.yul\":11558:11563   */\n      dup3\n        /* \"#utility.yul\":11554:11567   */\n      add\n        /* \"#utility.yul\":11547:11567   */\n      swap1\n      pop\n        /* \"#utility.yul\":11340:11573   */\n      swap2\n      swap1\n      pop\n      jump\t// out\n        /* \"#utility.yul\":11579:11759   */\n    tag_275:\n        /* \"#utility.yul\":11627:11704   */\n      0x4e487b7100000000000000000000000000000000000000000000000000000000\n        /* \"#utility.yul\":11624:11625   */\n      0x00\n        /* \"#utility.yul\":11617:11705   */\n      mstore\n        /* \"#utility.yul\":11724:11728   */\n      0x22\n        /* \"#utility.yul\":11721:11722   */\n      0x04\n        /* \"#utility.yul\":11714:11729   */\n      mstore\n        /* \"#utility.yul\":11748:11752   */\n      0x24\n        /* \"#utility.yul\":11745:11746   */\n      0x00\n        /* \"#utility.yul\":11738:11753   */\n      revert\n        /* \"#utility.yul\":11765:12085   */\n    tag_129:\n        /* \"#utility.yul\":11809:11815   */\n      0x00\n        /* \"#utility.yul\":11846:11847   */\n      0x02\n        /* \"#utility.yul\":11840:11844   */\n      dup3\n        /* \"#utility.yul\":11836:11848   */\n      div\n        /* \"#utility.yul\":11826:11848   */\n      swap1\n      pop\n        /* \"#utility.yul\":11893:11894   */\n      0x01\n        /* \"#utility.yul\":11887:11891   */\n      dup3\n        /* \"#utility.yul\":11883:11895   */\n      and\n        /* \"#utility.yul\":11914:11932   */\n      dup1\n        /* \"#utility.yul\":11904:11985   */\n      tag_417\n      jumpi\n        /* \"#utility.yul\":11970:11974   */\n      0x7f\n        /* \"#utility.yul\":11962:11968   */\n      dup3\n        /* \"#utility.yul\":11958:11975   */\n      and\n        /* \"#utility.yul\":11948:11975   */\n      swap2\n      pop\n        /* \"#utility.yul\":11904:11985   */\n    tag_417:\n        /* \"#utility.yul\":12032:12034   */\n      0x20\n        /* \"#utility.yul\":12024:12030   */\n      dup3\n        /* \"#utility.yul\":12021:12035   */\n      lt\n        /* \"#utility.yul\":12001:12019   */\n      dup2\n        /* \"#utility.yul\":11998:12036   */\n      sub\n        /* \"#utility.yul\":11995:12079   */\n      tag_418\n      jumpi\n        /* \"#utility.yul\":12051:12069   */\n      tag_419\n      tag_275\n      jump\t// in\n    tag_419:\n        /* \"#utility.yul\":11995:12079   */\n    tag_418:\n        /* \"#utility.yul\":11816:12085   */\n      pop\n        /* \"#utility.yul\":11765:12085   */\n      swap2\n      swap1\n      pop\n      jump\t// out\n        /* \"#utility.yul\":12091:12232   */\n    tag_276:\n        /* \"#utility.yul\":12140:12144   */\n      0x00\n        /* \"#utility.yul\":12163:12166   */\n      dup2\n        /* \"#utility.yul\":12155:12166   */\n      swap1\n      pop\n        /* \"#utility.yul\":12186:12189   */\n      dup2\n        /* \"#utility.yul\":12183:12184   */\n      0x00\n        /* \"#utility.yul\":12176:12190   */\n      mstore\n        /* \"#utility.yul\":12220:12224   */\n      0x20\n        /* \"#utility.yul\":12217:12218   */\n      0x00\n        /* \"#utility.yul\":12207:12225   */\n      keccak256\n        /* \"#utility.yul\":12199:12225   */\n      swap1\n      pop\n        /* \"#utility.yul\":12091:12232   */\n      swap2\n      swap1\n      pop\n      jump\t// out\n        /* \"#utility.yul\":12238:12331   */\n    tag_277:\n        /* \"#utility.yul\":12275:12281   */\n      0x00\n        /* \"#utility.yul\":12322:12324   */\n      0x20\n        /* \"#utility.yul\":12317:12319   */\n      0x1f\n        /* \"#utility.yul\":12310:12315   */\n      dup4\n        /* \"#utility.yul\":12306:12320   */\n      add\n        /* \"#utility.yul\":12302:12325   */\n      div\n        /* \"#utility.yul\":12292:12325   */\n      swap1\n      pop\n        /* \"#utility.yul\":12238:12331   */\n      swap2\n      swap1\n      pop\n      jump\t// out\n        /* \"#utility.yul\":12337:12444   */\n    tag_278:\n        /* \"#utility.yul\":12381:12389   */\n      0x00\n        /* \"#utility.yul\":12431:12436   */\n      dup3\n        /* \"#utility.yul\":12425:12429   */\n      dup3\n        /* \"#utility.yul\":12421:12437   */\n      shl\n        /* \"#utility.yul\":12400:12437   */\n      swap1\n      pop\n        /* \"#utility.yul\":12337:12444   */\n      swap3\n      swap2\n      pop\n      pop\n      jump\t// out\n        /* \"#utility.yul\":12450:12843   */\n    tag_279:\n        /* \"#utility.yul\":12519:12525   */\n      0x00\n        /* \"#utility.yul\":12569:12570   */\n      0x08\n        /* \"#utility.yul\":12557:12567   */\n      dup4\n        /* \"#utility.yul\":12553:12571   */\n      mul\n        /* \"#utility.yul\":12592:12689   */\n      tag_424\n        /* \"#utility.yul\":12622:12688   */\n      0xffffffffffffffffffffffffffffffffffffffffffffffffffffffffffffffff\n        /* \"#utility.yul\":12611:12620   */\n      dup3\n        /* \"#utility.yul\":12592:12689   */\n      tag_278\n      jump\t// in\n    tag_424:\n        /* \"#utility.yul\":12710:12749   */\n      tag_425\n        /* \"#utility.yul\":12740:12748   */\n      dup7\n        /* \"#utility.yul\":12729:12738   */\n      dup4\n        /* \"#utility.yul\":12710:12749   */\n      tag_278\n      jump\t// in\n    tag_425:\n        /* \"#utility.yul\":12698:12749   */\n      swap6\n      pop\n        /* \"#utility.yul\":12782:12786   */\n      dup1\n        /* \"#utility.yul\":12778:12787   */\n      not\n        /* \"#utility.yul\":12771:12776   */\n      dup5\n        /* \"#utility.yul\":12767:12788   */\n      and\n        /* \"#utility.yul\":12758:12788   */\n      swap4\n      pop\n        /* \"#utility.yul\":12831:12835   */\n      dup1\n        /* \"#utility.yul\":12821:12829   */\n      dup7\n        /* \"#utility.yul\":12817:12836   */\n      and\n        /* \"#utility.yul\":12810:12815   */\n      dup5\n        /* \"#utility.yul\":12807:12837   */\n      or\n        /* \"#utility.yul\":12797:12837   */\n      swap3\n      pop\n        /* \"#utility.yul\":12526:12843   */\n      pop\n      pop\n        /* \"#utility.yul\":12450:12843   */\n      swap4\n      swap3\n      pop\n      pop\n      pop\n      jump\t// out\n        /* \"#utility.yul\":12849:12909   */\n    tag_280:\n        /* \"#utility.yul\":12877:12880   */\n      0x00\n        /* \"#utility.yul\":12898:12903   */\n      dup2\n        /* \"#utility.yul\":12891:12903   */\n      swap1\n      pop\n        /* \"#utility.yul\":12849:12909   */\n      swap2\n      swap1\n      pop\n      jump\t// out\n        /* \"#utility.yul\":12915:13057   */\n    tag_281:\n        /* \"#utility.yul\":12965:12974   */\n      0x00\n        /* \"#utility.yul\":12998:13051   */\n      tag_428\n        /* \"#utility.yul\":13016:13050   */\n      tag_429\n        /* \"#utility.yul\":13025:13049   */\n      tag_430\n        /* \"#utility.yul\":13043:13048   */\n      dup5\n        /* \"#utility.yul\":13025:13049   */\n      tag_240\n      jump\t// in\n    tag_430:\n        /* \"#utility.yul\":13016:13050   */\n      tag_280\n      jump\t// in\n    tag_429:\n        /* \"#utility.yul\":12998:13051   */\n      tag_240\n      jump\t// in\n    tag_428:\n        /* \"#utility.yul\":12985:13051   */\n      swap1\n      pop\n        /* \"#utility.yul\":12915:13057   */\n      swap2\n      swap1\n      pop\n      jump\t// out\n        /* \"#utility.yul\":13063:13138   */\n    tag_282:\n        /* \"#utility.yul\":13106:13109   */\n      0x00\n        /* \"#utility.yul\":13127:13132   */\n      dup2\n        /* \"#utility.yul\":13120:13132   */\n      swap1\n      pop\n        /* \"#utility.yul\":13063:13138   */\n      swap2\n      swap1\n      pop\n      jump\t// out\n        /* \"#utility.yul\":13144:13413   */\n    tag_283:\n        /* \"#utility.yul\":13254:13293   */\n      tag_433\n        /* \"#utility.yul\":13285:13292   */\n      dup4\n        /* \"#utility.yul\":13254:13293   */\n      tag_281\n      jump\t// in\n    tag_433:\n        /* \"#utility.yul\":13315:13406   */\n      tag_434\n        /* \"#utility.yul\":13364:13405   */\n      tag_435\n        /* \"#utility.yul\":13388:13404   */\n      dup3\n        /* \"#utility.yul\":13364:13405   */\n      tag_282\n      jump\t// in\n    tag_435:\n        /* \"#utility.yul\":13356:13362   */\n      dup5\n        /* \"#utility.yul\":13349:13353   */\n      dup5\n        /* \"#utility.yul\":13343:13354   */\n      sload\n        /* \"#utility.yul\":13315:13406   */\n      tag_279\n      jump\t// in\n    tag_434:\n        /* \"#utility.yul\":13309:13313   */\n      dup3\n        /* \"#utility.yul\":13302:13407   */\n      sstore\n        /* \"#utility.yul\":13220:13413   */\n      pop\n        /* \"#utility.yul\":13144:13413   */\n      pop\n      pop\n      pop\n      jump\t// out\n        /* \"#utility.yul\":13419:13492   */\n    tag_284:\n        /* \"#utility.yul\":13464:13467   */\n      0x00\n        /* \"#utility.yul\":13419:13492   */\n      swap1\n      jump\t// out\n        /* \"#utility.yul\":13498:13687   */\n    tag_285:\n        /* \"#utility.yul\":13575:13607   */\n      tag_438\n      tag_284\n      jump\t// in\n    tag_438:\n        /* \"#utility.yul\":13616:13681   */\n      tag_439\n        /* \"#utility.yul\":13674:13680   */\n      dup2\n        /* \"#utility.yul\":13666:13672   */\n      dup5\n        /* \"#utility.yul\":13660:13664   */\n      dup5\n        /* \"#utility.yul\":13616:13681   */\n      tag_283\n      jump\t// in\n    tag_439:\n        /* \"#utility.yul\":13551:13687   */\n      pop\n        /* \"#utility.yul\":13498:13687   */\n      pop\n      pop\n      jump\t// out\n        /* \"#utility.yul\":13693:13879   */\n    tag_286:\n        /* \"#utility.yul\":13753:13873   */\n    tag_441:\n        /* \"#utility.yul\":13770:13773   */\n      dup2\n        /* \"#utility.yul\":13763:13768   */\n      dup2\n        /* \"#utility.yul\":13760:13774   */\n      lt\n        /* \"#utility.yul\":13753:13873   */\n      iszero\n      tag_443\n      jumpi\n        /* \"#utility.yul\":13824:13863   */\n      tag_444\n        /* \"#utility.yul\":13861:13862   */\n      0x00\n        /* \"#utility.yul\":13854:13859   */\n      dup3\n        /* \"#utility.yul\":13824:13863   */\n      tag_285\n      jump\t// in\n    tag_444:\n        /* \"#utility.yul\":13797:13798   */\n      0x01\n        /* \"#utility.yul\":13790:13795   */\n      dup2\n        /* \"#utility.yul\":13786:13799   */\n      add\n        /* \"#utility.yul\":13777:13799   */\n      swap1\n      pop\n        /* \"#utility.yul\":13753:13873   */\n      jump(tag_441)\n    tag_443:\n        /* \"#utility.yul\":13693:13879   */\n      pop\n      pop\n      jump\t// out\n        /* \"#utility.yul\":13885:14428   */\n    tag_287:\n        /* \"#utility.yul\":13986:13988   */\n      0x1f\n        /* \"#utility.yul\":13981:13984   */\n      dup3\n        /* \"#utility.yul\":13978:13989   */\n      gt\n        /* \"#utility.yul\":13975:14421   */\n      iszero\n      tag_446\n      jumpi\n        /* \"#utility.yul\":14020:14058   */\n      tag_447\n        /* \"#utility.yul\":14052:14057   */\n      dup2\n        /* \"#utility.yul\":14020:14058   */\n      tag_276\n      jump\t// in\n    tag_447:\n        /* \"#utility.yul\":14104:14133   */\n      tag_448\n        /* \"#utility.yul\":14122:14132   */\n      dup5\n        /* \"#utility.yul\":14104:14133   */\n      tag_277\n      jump\t// in\n    tag_448:\n        /* \"#utility.yul\":14094:14102   */\n      dup2\n        /* \"#utility.yul\":14090:14134   */\n      add\n        /* \"#utility.yul\":14287:14289   */\n      0x20\n        /* \"#utility.yul\":14275:14285   */\n      dup6\n        /* \"#utility.yul\":14272:14290   */\n      lt\n        /* \"#utility.yul\":14269:14318   */\n      iszero\n      tag_449\n      jumpi\n        /* \"#utility.yul\":14308:14316   */\n      dup2\n        /* \"#utility.yul\":14293:14316   */\n      swap1\n      pop\n        /* \"#utility.yul\":14269:14318   */\n    tag_449:\n        /* \"#utility.yul\":14331:14411   */\n      tag_450\n        /* \"#utility.yul\":14387:14409   */\n      tag_451\n        /* \"#utility.yul\":14405:14408   */\n      dup6\n        /* \"#utility.yul\":14387:14409   */\n      tag_277\n      jump\t// in\n    tag_451:\n        /* \"#utility.yul\":14377:14385   */\n      dup4\n        /* \"#utility.yul\":14373:14410   */\n      add\n        /* \"#utility.yul\":14360:14371   */\n      dup3\n        /* \"#utility.yul\":14331:14411   */\n      tag_286\n      jump\t// in\n    tag_450:\n        /* \"#utility.yul\":13990:14421   */\n      pop\n      pop\n        /* \"#utility.yul\":13975:14421   */\n    tag_446:\n        /* \"#utility.yul\":13885:14428   */\n      pop\n      pop\n      pop\n      jump\t// out\n        /* \"#utility.yul\":14434:14551   */\n    tag_288:\n        /* \"#utility.yul\":14488:14496   */\n      0x00\n        /* \"#utility.yul\":14538:14543   */\n      dup3\n        /* \"#utility.yul\":14532:14536   */\n      dup3\n        /* \"#utility.yul\":14528:14544   */\n      shr\n        /* \"#utility.yul\":14507:14544   */\n      swap1\n      pop\n        /* \"#utility.yul\":14434:14551   */\n      swap3\n      swap2\n      pop\n      pop\n      jump\t// out\n        /* \"#utility.yul\":14557:14726   */\n    tag_289:\n        /* \"#utility.yul\":14601:14607   */\n      0x00\n        /* \"#utility.yul\":14634:14685   */\n      tag_454\n        /* \"#utility.yul\":14682:14683   */\n      0x00\n        /* \"#utility.yul\":14678:14684   */\n      not\n        /* \"#utility.yul\":14670:14675   */\n      dup5\n        /* \"#utility.yul\":14667:14668   */\n      0x08\n        /* \"#utility.yul\":14663:14676   */\n      mul\n        /* \"#utility.yul\":14634:14685   */\n      tag_288\n      jump\t// in\n    tag_454:\n        /* \"#utility.yul\":14630:14686   */\n      not\n        /* \"#utility.yul\":14715:14719   */\n      dup1\n        /* \"#utility.yul\":14709:14713   */\n      dup4\n        /* \"#utility.yul\":14705:14720   */\n      and\n        /* \"#utility.yul\":14695:14720   */\n      swap2\n      pop\n        /* \"#utility.yul\":14608:14726   */\n      pop\n        /* \"#utility.yul\":14557:14726   */\n      swap3\n      swap2\n      pop\n      pop\n      jump\t// out\n        /* \"#utility.yul\":14731:15026   */\n    tag_290:\n        /* \"#utility.yul\":14807:14811   */\n      0x00\n        /* \"#utility.yul\":14953:14982   */\n      tag_456\n        /* \"#utility.yul\":14978:14981   */\n      dup4\n        /* \"#utility.yul\":14972:14976   */\n      dup4\n        /* \"#utility.yul\":14953:14982   */\n      tag_289\n      jump\t// in\n    tag_456:\n        /* \"#utility.yul\":14945:14982   */\n      swap2\n      pop\n        /* \"#utility.yul\":15015:15018   */\n      dup3\n        /* \"#utility.yul\":15012:15013   */\n      0x02\n        /* \"#utility.yul\":15008:15019   */\n      mul\n        /* \"#utility.yul\":15002:15006   */\n      dup3\n        /* \"#utility.yul\":14999:15020   */\n      or\n        /* \"#utility.yul\":14991:15020   */\n      swap1\n      pop\n        /* \"#utility.yul\":14731:15026   */\n      swap3\n      swap2\n      pop\n      pop\n      jump\t// out\n        /* \"#utility.yul\":15031:16426   */\n    tag_125:\n        /* \"#utility.yul\":15148:15185   */\n      tag_458\n        /* \"#utility.yul\":15181:15184   */\n      dup3\n        /* \"#utility.yul\":15148:15185   */\n      tag_254\n      jump\t// in\n    tag_458:\n        /* \"#utility.yul\":15250:15268   */\n      0xffffffffffffffff\n        /* \"#utility.yul\":15242:15248   */\n      dup2\n        /* \"#utility.yul\":15239:15269   */\n      gt\n        /* \"#utility.yul\":15236:15292   */\n      iszero\n      tag_459\n      jumpi\n        /* \"#utility.yul\":15272:15290   */\n      tag_460\n      tag_164\n      jump\t// in\n    tag_460:\n        /* \"#utility.yul\":15236:15292   */\n    tag_459:\n        /* \"#utility.yul\":15316:15354   */\n      tag_461\n        /* \"#utility.yul\":15348:15352   */\n      dup3\n        /* \"#utility.yul\":15342:15353   */\n      sload\n        /* \"#utility.yul\":15316:15354   */\n      tag_129\n      jump\t// in\n    tag_461:\n        /* \"#utility.yul\":15401:15468   */\n      tag_462\n        /* \"#utility.yul\":15461:15467   */\n      dup3\n        /* \"#utility.yul\":15453:15459   */\n      dup3\n        /* \"#utility.yul\":15447:15451   */\n      dup6\n        /* \"#utility.yul\":15401:15468   */\n      tag_287\n      jump\t// in\n    tag_462:\n        /* \"#utility.yul\":15495:15496   */\n      0x00\n        /* \"#utility.yul\":15519:15523   */\n      0x20\n        /* \"#utility.yul\":15506:15523   */\n      swap1\n      pop\n        /* \"#utility.yul\":15551:15553   */\n      0x1f\n        /* \"#utility.yul\":15543:15549   */\n      dup4\n        /* \"#utility.yul\":15540:15554   */\n      gt\n        /* \"#utility.yul\":15568:15569   */\n      0x01\n        /* \"#utility.yul\":15563:16181   */\n      dup2\n      eq\n      tag_464\n      jumpi\n        /* \"#utility.yul\":16225:16226   */\n      0x00\n        /* \"#utility.yul\":16242:16248   */\n      dup5\n        /* \"#utility.yul\":16239:16316   */\n      iszero\n      tag_465\n      jumpi\n        /* \"#utility.yul\":16291:16300   */\n      dup3\n        /* \"#utility.yul\":16286:16289   */\n      dup8\n        /* \"#utility.yul\":16282:16301   */\n      add\n        /* \"#utility.yul\":16276:16302   */\n      mload\n        /* \"#utility.yul\":16267:16302   */\n      swap1\n      pop\n        /* \"#utility.yul\":16239:16316   */\n    tag_465:\n        /* \"#utility.yul\":16342:16409   */\n      tag_466\n        /* \"#utility.yul\":16402:16408   */\n      dup6\n        /* \"#utility.yul\":16395:16400   */\n      dup3\n        /* \"#utility.yul\":16342:16409   */\n      tag_290\n      jump\t// in\n    tag_466:\n        /* \"#utility.yul\":16336:16340   */\n      dup7\n        /* \"#utility.yul\":16329:16410   */\n      sstore\n        /* \"#utility.yul\":16198:16420   */\n      pop\n        /* \"#utility.yul\":15533:16420   */\n      jump(tag_463)\n        /* \"#utility.yul\":15563:16181   */\n    tag_464:\n        /* \"#utility.yul\":15615:15619   */\n      0x1f\n        /* \"#utility.yul\":15611:15620   */\n      not\n        /* \"#utility.yul\":15603:15609   */\n      dup5\n        /* \"#utility.yul\":15599:15621   */\n      and\n        /* \"#utility.yul\":15649:15686   */\n      tag_467\n        /* \"#utility.yul\":15681:15685   */\n      dup7\n        /* \"#utility.yul\":15649:15686   */\n      tag_276\n      jump\t// in\n    tag_467:\n        /* \"#utility.yul\":15708:15709   */\n      0x00\n        /* \"#utility.yul\":15722:15930   */\n    tag_468:\n        /* \"#utility.yul\":15736:15743   */\n      dup3\n        /* \"#utility.yul\":15733:15734   */\n      dup2\n        /* \"#utility.yul\":15730:15744   */\n      lt\n        /* \"#utility.yul\":15722:15930   */\n      iszero\n      tag_470\n      jumpi\n        /* \"#utility.yul\":15815:15824   */\n      dup5\n        /* \"#utility.yul\":15810:15813   */\n      dup10\n        /* \"#utility.yul\":15806:15825   */\n      add\n        /* \"#utility.yul\":15800:15826   */\n      mload\n        /* \"#utility.yul\":15792:15798   */\n      dup3\n        /* \"#utility.yul\":15785:15827   */\n      sstore\n        /* \"#utility.yul\":15866:15867   */\n      0x01\n        /* \"#utility.yul\":15858:15864   */\n      dup3\n        /* \"#utility.yul\":15854:15868   */\n      add\n        /* \"#utility.yul\":15844:15868   */\n      swap2\n      pop\n        /* \"#utility.yul\":15913:15915   */\n      0x20\n        /* \"#utility.yul\":15902:15911   */\n      dup6\n        /* \"#utility.yul\":15898:15916   */\n      add\n        /* \"#utility.yul\":15885:15916   */\n      swap5\n      pop\n        /* \"#utility.yul\":15759:15763   */\n      0x20\n        /* \"#utility.yul\":15756:15757   */\n      dup2\n        /* \"#utility.yul\":15752:15764   */\n      add\n        /* \"#utility.yul\":15747:15764   */\n      swap1\n      pop\n        /* \"#utility.yul\":15722:15930   */\n      jump(tag_468)\n    tag_470:\n        /* \"#utility.yul\":15958:15964   */\n      dup7\n        /* \"#utility.yul\":15949:15956   */\n      dup4\n        /* \"#utility.yul\":15946:15965   */\n      lt\n        /* \"#utility.yul\":15943:16122   */\n      iszero\n      tag_471\n      jumpi\n        /* \"#utility.yul\":16016:16025   */\n      dup5\n        /* \"#utility.yul\":16011:16014   */\n      dup10\n        /* \"#utility.yul\":16007:16026   */\n      add\n        /* \"#utility.yul\":16001:16027   */\n      mload\n        /* \"#utility.yul\":16059:16107   */\n      tag_472\n        /* \"#utility.yul\":16101:16105   */\n      0x1f\n        /* \"#utility.yul\":16093:16099   */\n      dup10\n        /* \"#utility.yul\":16089:16106   */\n      and\n        /* \"#utility.yul\":16078:16087   */\n      dup3\n        /* \"#utility.yul\":16059:16107   */\n      tag_289\n      jump\t// in\n    tag_472:\n        /* \"#utility.yul\":16051:16057   */\n      dup4\n        /* \"#utility.yul\":16044:16108   */\n      sstore\n        /* \"#utility.yul\":15966:16122   */\n      pop\n        /* \"#utility.yul\":15943:16122   */\n    tag_471:\n        /* \"#utility.yul\":16168:16169   */\n      0x01\n        /* \"#utility.yul\":16164:16165   */\n      0x02\n        /* \"#utility.yul\":16156:16162   */\n      dup9\n        /* \"#utility.yul\":16152:16166   */\n      mul\n        /* \"#utility.yul\":16148:16170   */\n      add\n        /* \"#utility.yul\":16142:16146   */\n      dup9\n        /* \"#utility.yul\":16135:16171   */\n      sstore\n        /* \"#utility.yul\":15570:16181   */\n      pop\n      pop\n      pop\n        /* \"#utility.yul\":15533:16420   */\n    tag_463:\n      pop\n        /* \"#utility.yul\":15123:16426   */\n      pop\n      pop\n      pop\n        /* \"#utility.yul\":15031:16426   */\n      pop\n      pop\n      jump\t// out\n        /* \"#utility.yul\":16432:16617   */\n    tag_167:\n        /* \"#utility.yul\":16472:16473   */\n      0x00\n        /* \"#utility.yul\":16489:16509   */\n      tag_474\n        /* \"#utility.yul\":16507:16508   */\n      dup3\n        /* \"#utility.yul\":16489:16509   */\n      tag_240\n      jump\t// in\n    tag_474:\n        /* \"#utility.yul\":16484:16509   */\n      swap2\n      pop\n        /* \"#utility.yul\":16523:16543   */\n      tag_475\n        /* \"#utility.yul\":16541:16542   */\n      dup4\n        /* \"#utility.yul\":16523:16543   */\n      tag_240\n      jump\t// in\n    tag_475:\n        /* \"#utility.yul\":16518:16543   */\n      swap3\n      pop\n        /* \"#utility.yul\":16562:16563   */\n      dup3\n        /* \"#utility.yul\":16552:16587   */\n      tag_476\n      jumpi\n        /* \"#utility.yul\":16567:16585   */\n      tag_477\n      tag_274\n      jump\t// in\n    tag_477:\n        /* \"#utility.yul\":16552:16587   */\n    tag_476:\n        /* \"#utility.yul\":16609:16610   */\n      dup3\n        /* \"#utility.yul\":16606:16607   */\n      dup3\n        /* \"#utility.yul\":16602:16611   */\n      div\n        /* \"#utility.yul\":16597:16611   */\n      swap1\n      pop\n        /* \"#utility.yul\":16432:16617   */\n      swap3\n      swap2\n      pop\n      pop\n      jump\t// out\n        /* \"#utility.yul\":16623:16817   */\n    tag_178:\n        /* \"#utility.yul\":16663:16667   */\n      0x00\n        /* \"#utility.yul\":16683:16703   */\n      tag_479\n        /* \"#utility.yul\":16701:16702   */\n      dup3\n        /* \"#utility.yul\":16683:16703   */\n      tag_240\n      jump\t// in\n    tag_479:\n        /* \"#utility.yul\":16678:16703   */\n      swap2\n      pop\n        /* \"#utility.yul\":16717:16737   */\n      tag_480\n        /* \"#utility.yul\":16735:16736   */\n      dup4\n        /* \"#utility.yul\":16717:16737   */\n      tag_240\n      jump\t// in\n    tag_480:\n        /* \"#utility.yul\":16712:16737   */\n      swap3\n      pop\n        /* \"#utility.yul\":16761:16762   */\n      dup3\n        /* \"#utility.yul\":16758:16759   */\n      dup3\n        /* \"#utility.yul\":16754:16763   */\n      sub\n        /* \"#utility.yul\":16746:16763   */\n      swap1\n      pop\n        /* \"#utility.yul\":16785:16786   */\n      dup2\n        /* \"#utility.yul\":16779:16783   */\n      dup2\n        /* \"#utility.yul\":16776:16787   */\n      gt\n        /* \"#utility.yul\":16773:16810   */\n      iszero\n      tag_481\n      jumpi\n        /* \"#utility.yul\":16790:16808   */\n      tag_482\n      tag_273\n      jump\t// in\n    tag_482:\n        /* \"#utility.yul\":16773:16810   */\n    tag_481:\n        /* \"#utility.yul\":16623:16817   */\n      swap3\n      swap2\n      pop\n      pop\n      jump\t// out\n\n    auxdata: 0xa2646970667358221220cfafecf585ba216d00e0a46174789fea03a62bb259cfd186da3e2bef65e2f6ed64736f6c63430008160033\n}\n",
				"bytecode": {
					"linkReferences": {},
					"object": "608060405234801562000010575f80fd5b50335f806101000a81548173ffffffffffffffffffffffffffffffffffffffff021916908373ffffffffffffffffffffffffffffffffffffffff1602179055506040518060400160405280600181526020017f41000000000000000000000000000000000000000000000000000000000000008152506002908162000096919062000301565b50620003e5565b5f81519050919050565b7f4e487b71000000000000000000000000000000000000000000000000000000005f52604160045260245ffd5b7f4e487b71000000000000000000000000000000000000000000000000000000005f52602260045260245ffd5b5f60028204905060018216806200011957607f821691505b6020821081036200012f576200012e620000d4565b5b50919050565b5f819050815f5260205f209050919050565b5f6020601f8301049050919050565b5f82821b905092915050565b5f60088302620001937fffffffffffffffffffffffffffffffffffffffffffffffffffffffffffffffff8262000156565b6200019f868362000156565b95508019841693508086168417925050509392505050565b5f819050919050565b5f819050919050565b5f620001e9620001e3620001dd84620001b7565b620001c0565b620001b7565b9050919050565b5f819050919050565b6200020483620001c9565b6200021c6200021382620001f0565b84845462000162565b825550505050565b5f90565b6200023262000224565b6200023f818484620001f9565b505050565b5b8181101562000266576200025a5f8262000228565b60018101905062000245565b5050565b601f821115620002b5576200027f8162000135565b6200028a8462000147565b810160208510156200029a578190505b620002b2620002a98562000147565b83018262000244565b50505b505050565b5f82821c905092915050565b5f620002d75f1984600802620002ba565b1980831691505092915050565b5f620002f18383620002c6565b9150826002028217905092915050565b6200030c826200009d565b67ffffffffffffffff811115620003285762000327620000a7565b5b62000334825462000101565b620003418282856200026a565b5f60209050601f83116001811462000377575f841562000362578287015190505b6200036e8582620002e4565b865550620003dd565b601f198416620003878662000135565b5f5b82811015620003b05784890151825560018201915060208501945060208101905062000389565b86831015620003d05784890151620003cc601f891682620002c6565b8355505b6001600288020188555050505b505050505050565b61169580620003f35f395ff3fe6080604052600436106100c1575f3560e01c8063b4f22d1a1161007e578063d795676611610058578063d7956766146101a9578063e8787f41146101bf578063ea9d81bc146101fb578063fd172a9114610238576100c1565b8063b4f22d1a1461015f578063d0e30db014610175578063d46300fd1461017f576100c1565b806312065fe0146100c557806315488b88146100ef5780633ccfd60b146100f9578063710266e31461010f57806398ea5fca14610119578063b117128c14610123575b5f80fd5b3480156100d0575f80fd5b506100d9610274565b6040516100e69190610d54565b60405180910390f35b6100f761027d565b005b348015610104575f80fd5b5061010d6102da565b005b6101176103cc565b005b61012161042f565b005b34801561012e575f80fd5b5061014960048036038101906101449190610da8565b610493565b6040516101569190610e78565b60405180910390f35b34801561016a575f80fd5b506101736105c4565b005b61017d610698565b005b34801561018a575f80fd5b5061019361069a565b6040516101a09190610f1b565b60405180910390f35b3480156101b4575f80fd5b506101bd61072a565b005b3480156101ca575f80fd5b506101e560048036038101906101e0919061107b565b6107fe565b6040516101f29190611153565b60405180910390f35b348015610206575f80fd5b50610221600480360381019061021c919061107b565b610a92565b60405161022f929190611173565b60405180910390f35b348015610243575f80fd5b5061025e60048036038101906102599190610da8565b610c5a565b60405161026b9190610e78565b60405180910390f35b5f600154905090565b600134146102c0576040517f08c379a00000000000000000000000000000000000000000000000000000000081526004016102b7906111e4565b60405180910390fd5b3460015f8282546102d1919061122f565b92505081905550565b3373ffffffffffffffffffffffffffffffffffffffff165f8054906101000a900473ffffffffffffffffffffffffffffffffffffffff1673ffffffffffffffffffffffffffffffffffffffff1614610367576040517f08c379a000000000000000000000000000000000000000000000000000000000815260040161035e906111e4565b60405180910390fd5b5f8054906101000a900473ffffffffffffffffffffffffffffffffffffffff1673ffffffffffffffffffffffffffffffffffffffff166108fc4790811502906040515f60405180830381858888f193505050501580156103c9573d5f803e3d5ffd5b50565b66038d7ea4c680003414610415576040517f08c379a000000000000000000000000000000000000000000000000000000000815260040161040c906111e4565b60405180910390fd5b3460015f828254610426919061122f565b92505081905550565b670de0b6b3a76400003414610479576040517f08c379a0000000000000000000000000000000000000000000000000000000008152600401610470906111e4565b60405180910390fd5b3460015f82825461048a919061122f565b92505081905550565b61049b610d1a565b6104a3610d1a565b5f600190505b8381116105ba575f6002826104be919061128f565b036104ed57815f600481106104d6576104d56112bf565b5b6020020180518091906104e8906112ec565b815250505b5f6003826104fb919061128f565b0361052b5781600160048110610514576105136112bf565b5b602002018051809190610526906112ec565b815250505b5f600582610539919061128f565b036105695781600260048110610552576105516112bf565b5b602002018051809190610564906112ec565b815250505b5f600782610577919061128f565b036105a757816003600481106105905761058f6112bf565b5b6020020180518091906105a2906112ec565b815250505b80806105b2906112ec565b9150506104a9565b5080915050919050565b3373ffffffffffffffffffffffffffffffffffffffff165f8054906101000a900473ffffffffffffffffffffffffffffffffffffffff1673ffffffffffffffffffffffffffffffffffffffff1614610651576040517f08c379a0000000000000000000000000000000000000000000000000000000008152600401610648906111e4565b60405180910390fd5b6040518060400160405280600181526020017f430000000000000000000000000000000000000000000000000000000000000081525060029081610695919061152d565b50565b565b6060600280546106a990611360565b80601f01602080910402602001604051908101604052809291908181526020018280546106d590611360565b80156107205780601f106106f757610100808354040283529160200191610720565b820191905f5260205f20905b81548152906001019060200180831161070357829003601f168201915b5050505050905090565b3373ffffffffffffffffffffffffffffffffffffffff165f8054906101000a900473ffffffffffffffffffffffffffffffffffffffff1673ffffffffffffffffffffffffffffffffffffffff16146107b7576040517f08c379a00000000000000000000000000000000000000000000000000000000081526004016107ae906111e4565b60405180910390fd5b6040518060400160405280600181526020017f4200000000000000000000000000000000000000000000000000000000000000815250600290816107fb919061152d565b50565b60605f5b82518110156108f1575f600182610819919061122f565b90505b83518110156108e357838181518110610838576108376112bf565b5b6020026020010151848381518110610853576108526112bf565b5b602002602001015111156108d657838281518110610874576108736112bf565b5b602002602001015184828151811061088f5761088e6112bf565b5b60200260200101518583815181106108aa576108a96112bf565b5b602002602001018685815181106108c4576108c36112bf565b5b60200260200101828152508281525050505b808060010191505061081c565b508080600101915050610802565b506060600160028451610904919061128f565b036109a157600167ffffffffffffffff81111561092457610923610f3f565b5b6040519080825280602002602001820160405280156109525781602001602082028036833780820191505090505b509050826002845161096491906115fc565b81518110610975576109746112bf565b5b6020026020010151815f815181106109905761098f6112bf565b5b602002602001018181525050610a89565b600267ffffffffffffffff8111156109bc576109bb610f3f565b5b6040519080825280602002602001820160405280156109ea5781602001602082028036833780820191505090505b509050826001600285516109fe91906115fc565b610a08919061162c565b81518110610a1957610a186112bf565b5b60200260200101518360028551610a3091906115fc565b81518110610a4157610a406112bf565b5b6020026020010151825f81518110610a5c57610a5b6112bf565b5b6020026020010183600181518110610a7757610a766112bf565b5b60200260200101828152508281525050505b80915050919050565b5f805f5b8351811015610b85575f600182610aad919061122f565b90505b8451811015610b7757848181518110610acc57610acb6112bf565b5b6020026020010151858381518110610ae757610ae66112bf565b5b60200260200101511115610b6a57848281518110610b0857610b076112bf565b5b6020026020010151858281518110610b2357610b226112bf565b5b6020026020010151868381518110610b3e57610b3d6112bf565b5b60200260200101878581518110610b5857610b576112bf565b5b60200260200101828152508281525050505b8080600101915050610ab0565b508080600101915050610a96565b50600160028451610b96919061128f565b03610bf4578260028451610baa91906115fc565b81518110610bbb57610bba6112bf565b5b60200260200101518360028551610bd291906115fc565b81518110610be357610be26112bf565b5b602002602001015191509150610c55565b82600160028551610c0591906115fc565b610c0f919061162c565b81518110610c2057610c1f6112bf565b5b60200260200101518360028551610c3791906115fc565b81518110610c4857610c476112bf565b5b6020026020010151915091505b915091565b610c62610d1a565b610c6a610d1a565b600283610c7791906115fc565b815f60048110610c8a57610c896112bf565b5b602002018181525050600383610ca091906115fc565b81600160048110610cb457610cb36112bf565b5b602002018181525050600583610cca91906115fc565b81600260048110610cde57610cdd6112bf565b5b602002018181525050600783610cf491906115fc565b81600360048110610d0857610d076112bf565b5b60200201818152505080915050919050565b6040518060800160405280600490602082028036833780820191505090505090565b5f819050919050565b610d4e81610d3c565b82525050565b5f602082019050610d675f830184610d45565b92915050565b5f604051905090565b5f80fd5b5f80fd5b610d8781610d3c565b8114610d91575f80fd5b50565b5f81359050610da281610d7e565b92915050565b5f60208284031215610dbd57610dbc610d76565b5b5f610dca84828501610d94565b91505092915050565b5f60049050919050565b5f81905092915050565b5f819050919050565b610df981610d3c565b82525050565b5f610e0a8383610df0565b60208301905092915050565b5f602082019050919050565b610e2b81610dd3565b610e358184610ddd565b9250610e4082610de7565b805f5b83811015610e70578151610e578782610dff565b9650610e6283610e16565b925050600181019050610e43565b505050505050565b5f608082019050610e8b5f830184610e22565b92915050565b5f81519050919050565b5f82825260208201905092915050565b5f5b83811015610ec8578082015181840152602081019050610ead565b5f8484015250505050565b5f601f19601f8301169050919050565b5f610eed82610e91565b610ef78185610e9b565b9350610f07818560208601610eab565b610f1081610ed3565b840191505092915050565b5f6020820190508181035f830152610f338184610ee3565b905092915050565b5f80fd5b7f4e487b71000000000000000000000000000000000000000000000000000000005f52604160045260245ffd5b610f7582610ed3565b810181811067ffffffffffffffff82111715610f9457610f93610f3f565b5b80604052505050565b5f610fa6610d6d565b9050610fb28282610f6c565b919050565b5f67ffffffffffffffff821115610fd157610fd0610f3f565b5b602082029050602081019050919050565b5f80fd5b5f610ff8610ff384610fb7565b610f9d565b9050808382526020820190506020840283018581111561101b5761101a610fe2565b5b835b8181101561104457806110308882610d94565b84526020840193505060208101905061101d565b5050509392505050565b5f82601f83011261106257611061610f3b565b5b8135611072848260208601610fe6565b91505092915050565b5f602082840312156110905761108f610d76565b5b5f82013567ffffffffffffffff8111156110ad576110ac610d7a565b5b6110b98482850161104e565b91505092915050565b5f81519050919050565b5f82825260208201905092915050565b5f819050602082019050919050565b5f602082019050919050565b5f611101826110c2565b61110b81856110cc565b9350611116836110dc565b805f5b8381101561114657815161112d8882610dff565b9750611138836110eb565b925050600181019050611119565b5085935050505092915050565b5f6020820190508181035f83015261116b81846110f7565b905092915050565b5f6040820190506111865f830185610d45565b6111936020830184610d45565b9392505050565b7f72657665727400000000000000000000000000000000000000000000000000005f82015250565b5f6111ce600683610e9b565b91506111d98261119a565b602082019050919050565b5f6020820190508181035f8301526111fb816111c2565b9050919050565b7f4e487b71000000000000000000000000000000000000000000000000000000005f52601160045260245ffd5b5f61123982610d3c565b915061124483610d3c565b925082820190508082111561125c5761125b611202565b5b92915050565b7f4e487b71000000000000000000000000000000000000000000000000000000005f52601260045260245ffd5b5f61129982610d3c565b91506112a483610d3c565b9250826112b4576112b3611262565b5b828206905092915050565b7f4e487b71000000000000000000000000000000000000000000000000000000005f52603260045260245ffd5b5f6112f682610d3c565b91507fffffffffffffffffffffffffffffffffffffffffffffffffffffffffffffffff820361132857611327611202565b5b600182019050919050565b7f4e487b71000000000000000000000000000000000000000000000000000000005f52602260045260245ffd5b5f600282049050600182168061137757607f821691505b60208210810361138a57611389611333565b5b50919050565b5f819050815f5260205f209050919050565b5f6020601f8301049050919050565b5f82821b905092915050565b5f600883026113ec7fffffffffffffffffffffffffffffffffffffffffffffffffffffffffffffffff826113b1565b6113f686836113b1565b95508019841693508086168417925050509392505050565b5f819050919050565b5f61143161142c61142784610d3c565b61140e565b610d3c565b9050919050565b5f819050919050565b61144a83611417565b61145e61145682611438565b8484546113bd565b825550505050565b5f90565b611472611466565b61147d818484611441565b505050565b5b818110156114a0576114955f8261146a565b600181019050611483565b5050565b601f8211156114e5576114b681611390565b6114bf846113a2565b810160208510156114ce578190505b6114e26114da856113a2565b830182611482565b50505b505050565b5f82821c905092915050565b5f6115055f19846008026114ea565b1980831691505092915050565b5f61151d83836114f6565b9150826002028217905092915050565b61153682610e91565b67ffffffffffffffff81111561154f5761154e610f3f565b5b6115598254611360565b6115648282856114a4565b5f60209050601f831160018114611595575f8415611583578287015190505b61158d8582611512565b8655506115f4565b601f1984166115a386611390565b5f5b828110156115ca578489015182556001820191506020850194506020810190506115a5565b868310156115e757848901516115e3601f8916826114f6565b8355505b6001600288020188555050505b505050505050565b5f61160682610d3c565b915061161183610d3c565b92508261162157611620611262565b5b828204905092915050565b5f61163682610d3c565b915061164183610d3c565b925082820390508181111561165957611658611202565b5b9291505056fea2646970667358221220cfafecf585ba216d00e0a46174789fea03a62bb259cfd186da3e2bef65e2f6ed64736f6c63430008160033",
					"opcodes": "PUSH1 0x80 PUSH1 0x40 MSTORE CALLVALUE DUP1 ISZERO PUSH3 0x10 JUMPI PUSH0 DUP1 REVERT JUMPDEST POP CALLER PUSH0 DUP1 PUSH2 0x100 EXP DUP2 SLOAD DUP2 PUSH20 0xFFFFFFFFFFFFFFFFFFFFFFFFFFFFFFFFFFFFFFFF MUL NOT AND SWAP1 DUP4 PUSH20 0xFFFFFFFFFFFFFFFFFFFFFFFFFFFFFFFFFFFFFFFF AND MUL OR SWAP1 SSTORE POP PUSH1 0x40 MLOAD DUP1 PUSH1 0x40 ADD PUSH1 0x40 MSTORE DUP1 PUSH1 0x1 DUP2 MSTORE PUSH1 0x20 ADD PUSH32 0x4100000000000000000000000000000000000000000000000000000000000000 DUP2 MSTORE POP PUSH1 0x2 SWAP1 DUP2 PUSH3 0x96 SWAP2 SWAP1 PUSH3 0x301 JUMP JUMPDEST POP PUSH3 0x3E5 JUMP JUMPDEST PUSH0 DUP2 MLOAD SWAP1 POP SWAP2 SWAP1 POP JUMP JUMPDEST PUSH32 0x4E487B7100000000000000000000000000000000000000000000000000000000 PUSH0 MSTORE PUSH1 0x41 PUSH1 0x4 MSTORE PUSH1 0x24 PUSH0 REVERT JUMPDEST PUSH32 0x4E487B7100000000000000000000000000000000000000000000000000000000 PUSH0 MSTORE PUSH1 0x22 PUSH1 0x4 MSTORE PUSH1 0x24 PUSH0 REVERT JUMPDEST PUSH0 PUSH1 0x2 DUP3 DIV SWAP1 POP PUSH1 0x1 DUP3 AND DUP1 PUSH3 0x119 JUMPI PUSH1 0x7F DUP3 AND SWAP2 POP JUMPDEST PUSH1 0x20 DUP3 LT DUP2 SUB PUSH3 0x12F JUMPI PUSH3 0x12E PUSH3 0xD4 JUMP JUMPDEST JUMPDEST POP SWAP2 SWAP1 POP JUMP JUMPDEST PUSH0 DUP2 SWAP1 POP DUP2 PUSH0 MSTORE PUSH1 0x20 PUSH0 KECCAK256 SWAP1 POP SWAP2 SWAP1 POP JUMP JUMPDEST PUSH0 PUSH1 0x20 PUSH1 0x1F DUP4 ADD DIV SWAP1 POP SWAP2 SWAP1 POP JUMP JUMPDEST PUSH0 DUP3 DUP3 SHL SWAP1 POP SWAP3 SWAP2 POP POP JUMP JUMPDEST PUSH0 PUSH1 0x8 DUP4 MUL PUSH3 0x193 PUSH32 0xFFFFFFFFFFFFFFFFFFFFFFFFFFFFFFFFFFFFFFFFFFFFFFFFFFFFFFFFFFFFFFFF DUP3 PUSH3 0x156 JUMP JUMPDEST PUSH3 0x19F DUP7 DUP4 PUSH3 0x156 JUMP JUMPDEST SWAP6 POP DUP1 NOT DUP5 AND SWAP4 POP DUP1 DUP7 AND DUP5 OR SWAP3 POP POP POP SWAP4 SWAP3 POP POP POP JUMP JUMPDEST PUSH0 DUP2 SWAP1 POP SWAP2 SWAP1 POP JUMP JUMPDEST PUSH0 DUP2 SWAP1 POP SWAP2 SWAP1 POP JUMP JUMPDEST PUSH0 PUSH3 0x1E9 PUSH3 0x1E3 PUSH3 0x1DD DUP5 PUSH3 0x1B7 JUMP JUMPDEST PUSH3 0x1C0 JUMP JUMPDEST PUSH3 0x1B7 JUMP JUMPDEST SWAP1 POP SWAP2 SWAP1 POP JUMP JUMPDEST PUSH0 DUP2 SWAP1 POP SWAP2 SWAP1 POP JUMP JUMPDEST PUSH3 0x204 DUP4 PUSH3 0x1C9 JUMP JUMPDEST PUSH3 0x21C PUSH3 0x213 DUP3 PUSH3 0x1F0 JUMP JUMPDEST DUP5 DUP5 SLOAD PUSH3 0x162 JUMP JUMPDEST DUP3 SSTORE POP POP POP POP JUMP JUMPDEST PUSH0 SWAP1 JUMP JUMPDEST PUSH3 0x232 PUSH3 0x224 JUMP JUMPDEST PUSH3 0x23F DUP2 DUP5 DUP5 PUSH3 0x1F9 JUMP JUMPDEST POP POP POP JUMP JUMPDEST JUMPDEST DUP2 DUP2 LT ISZERO PUSH3 0x266 JUMPI PUSH3 0x25A PUSH0 DUP3 PUSH3 0x228 JUMP JUMPDEST PUSH1 0x1 DUP2 ADD SWAP1 POP PUSH3 0x245 JUMP JUMPDEST POP POP JUMP JUMPDEST PUSH1 0x1F DUP3 GT ISZERO PUSH3 0x2B5 JUMPI PUSH3 0x27F DUP2 PUSH3 0x135 JUMP JUMPDEST PUSH3 0x28A DUP5 PUSH3 0x147 JUMP JUMPDEST DUP2 ADD PUSH1 0x20 DUP6 LT ISZERO PUSH3 0x29A JUMPI DUP2 SWAP1 POP JUMPDEST PUSH3 0x2B2 PUSH3 0x2A9 DUP6 PUSH3 0x147 JUMP JUMPDEST DUP4 ADD DUP3 PUSH3 0x244 JUMP JUMPDEST POP POP JUMPDEST POP POP POP JUMP JUMPDEST PUSH0 DUP3 DUP3 SHR SWAP1 POP SWAP3 SWAP2 POP POP JUMP JUMPDEST PUSH0 PUSH3 0x2D7 PUSH0 NOT DUP5 PUSH1 0x8 MUL PUSH3 0x2BA JUMP JUMPDEST NOT DUP1 DUP4 AND SWAP2 POP POP SWAP3 SWAP2 POP POP JUMP JUMPDEST PUSH0 PUSH3 0x2F1 DUP4 DUP4 PUSH3 0x2C6 JUMP JUMPDEST SWAP2 POP DUP3 PUSH1 0x2 MUL DUP3 OR SWAP1 POP SWAP3 SWAP2 POP POP JUMP JUMPDEST PUSH3 0x30C DUP3 PUSH3 0x9D JUMP JUMPDEST PUSH8 0xFFFFFFFFFFFFFFFF DUP2 GT ISZERO PUSH3 0x328 JUMPI PUSH3 0x327 PUSH3 0xA7 JUMP JUMPDEST JUMPDEST PUSH3 0x334 DUP3 SLOAD PUSH3 0x101 JUMP JUMPDEST PUSH3 0x341 DUP3 DUP3 DUP6 PUSH3 0x26A JUMP JUMPDEST PUSH0 PUSH1 0x20 SWAP1 POP PUSH1 0x1F DUP4 GT PUSH1 0x1 DUP2 EQ PUSH3 0x377 JUMPI PUSH0 DUP5 ISZERO PUSH3 0x362 JUMPI DUP3 DUP8 ADD MLOAD SWAP1 POP JUMPDEST PUSH3 0x36E DUP6 DUP3 PUSH3 0x2E4 JUMP JUMPDEST DUP7 SSTORE POP PUSH3 0x3DD JUMP JUMPDEST PUSH1 0x1F NOT DUP5 AND PUSH3 0x387 DUP7 PUSH3 0x135 JUMP JUMPDEST PUSH0 JUMPDEST DUP3 DUP2 LT ISZERO PUSH3 0x3B0 JUMPI DUP5 DUP10 ADD MLOAD DUP3 SSTORE PUSH1 0x1 DUP3 ADD SWAP2 POP PUSH1 0x20 DUP6 ADD SWAP5 POP PUSH1 0x20 DUP2 ADD SWAP1 POP PUSH3 0x389 JUMP JUMPDEST DUP7 DUP4 LT ISZERO PUSH3 0x3D0 JUMPI DUP5 DUP10 ADD MLOAD PUSH3 0x3CC PUSH1 0x1F DUP10 AND DUP3 PUSH3 0x2C6 JUMP JUMPDEST DUP4 SSTORE POP JUMPDEST PUSH1 0x1 PUSH1 0x2 DUP9 MUL ADD DUP9 SSTORE POP POP POP JUMPDEST POP POP POP POP POP POP JUMP JUMPDEST PUSH2 0x1695 DUP1 PUSH3 0x3F3 PUSH0 CODECOPY PUSH0 RETURN INVALID PUSH1 0x80 PUSH1 0x40 MSTORE PUSH1 0x4 CALLDATASIZE LT PUSH2 0xC1 JUMPI PUSH0 CALLDATALOAD PUSH1 0xE0 SHR DUP1 PUSH4 0xB4F22D1A GT PUSH2 0x7E JUMPI DUP1 PUSH4 0xD7956766 GT PUSH2 0x58 JUMPI DUP1 PUSH4 0xD7956766 EQ PUSH2 0x1A9 JUMPI DUP1 PUSH4 0xE8787F41 EQ PUSH2 0x1BF JUMPI DUP1 PUSH4 0xEA9D81BC EQ PUSH2 0x1FB JUMPI DUP1 PUSH4 0xFD172A91 EQ PUSH2 0x238 JUMPI PUSH2 0xC1 JUMP JUMPDEST DUP1 PUSH4 0xB4F22D1A EQ PUSH2 0x15F JUMPI DUP1 PUSH4 0xD0E30DB0 EQ PUSH2 0x175 JUMPI DUP1 PUSH4 0xD46300FD EQ PUSH2 0x17F JUMPI PUSH2 0xC1 JUMP JUMPDEST DUP1 PUSH4 0x12065FE0 EQ PUSH2 0xC5 JUMPI DUP1 PUSH4 0x15488B88 EQ PUSH2 0xEF JUMPI DUP1 PUSH4 0x3CCFD60B EQ PUSH2 0xF9 JUMPI DUP1 PUSH4 0x710266E3 EQ PUSH2 0x10F JUMPI DUP1 PUSH4 0x98EA5FCA EQ PUSH2 0x119 JUMPI DUP1 PUSH4 0xB117128C EQ PUSH2 0x123 JUMPI JUMPDEST PUSH0 DUP1 REVERT JUMPDEST CALLVALUE DUP1 ISZERO PUSH2 0xD0 JUMPI PUSH0 DUP1 REVERT JUMPDEST POP PUSH2 0xD9 PUSH2 0x274 JUMP JUMPDEST PUSH1 0x40 MLOAD PUSH2 0xE6 SWAP2 SWAP1 PUSH2 0xD54 JUMP JUMPDEST PUSH1 0x40 MLOAD DUP1 SWAP2 SUB SWAP1 RETURN JUMPDEST PUSH2 0xF7 PUSH2 0x27D JUMP JUMPDEST STOP JUMPDEST CALLVALUE DUP1 ISZERO PUSH2 0x104 JUMPI PUSH0 DUP1 REVERT JUMPDEST POP PUSH2 0x10D PUSH2 0x2DA JUMP JUMPDEST STOP JUMPDEST PUSH2 0x117 PUSH2 0x3CC JUMP JUMPDEST STOP JUMPDEST PUSH2 0x121 PUSH2 0x42F JUMP JUMPDEST STOP JUMPDEST CALLVALUE DUP1 ISZERO PUSH2 0x12E JUMPI PUSH0 DUP1 REVERT JUMPDEST POP PUSH2 0x149 PUSH1 0x4 DUP1 CALLDATASIZE SUB DUP2 ADD SWAP1 PUSH2 0x144 SWAP2 SWAP1 PUSH2 0xDA8 JUMP JUMPDEST PUSH2 0x493 JUMP JUMPDEST PUSH1 0x40 MLOAD PUSH2 0x156 SWAP2 SWAP1 PUSH2 0xE78 JUMP JUMPDEST PUSH1 0x40 MLOAD DUP1 SWAP2 SUB SWAP1 RETURN JUMPDEST CALLVALUE DUP1 ISZERO PUSH2 0x16A JUMPI PUSH0 DUP1 REVERT JUMPDEST POP PUSH2 0x173 PUSH2 0x5C4 JUMP JUMPDEST STOP JUMPDEST PUSH2 0x17D PUSH2 0x698 JUMP JUMPDEST STOP JUMPDEST CALLVALUE DUP1 ISZERO PUSH2 0x18A JUMPI PUSH0 DUP1 REVERT JUMPDEST POP PUSH2 0x193 PUSH2 0x69A JUMP JUMPDEST PUSH1 0x40 MLOAD PUSH2 0x1A0 SWAP2 SWAP1 PUSH2 0xF1B JUMP JUMPDEST PUSH1 0x40 MLOAD DUP1 SWAP2 SUB SWAP1 RETURN JUMPDEST CALLVALUE DUP1 ISZERO PUSH2 0x1B4 JUMPI PUSH0 DUP1 REVERT JUMPDEST POP PUSH2 0x1BD PUSH2 0x72A JUMP JUMPDEST STOP JUMPDEST CALLVALUE DUP1 ISZERO PUSH2 0x1CA JUMPI PUSH0 DUP1 REVERT JUMPDEST POP PUSH2 0x1E5 PUSH1 0x4 DUP1 CALLDATASIZE SUB DUP2 ADD SWAP1 PUSH2 0x1E0 SWAP2 SWAP1 PUSH2 0x107B JUMP JUMPDEST PUSH2 0x7FE JUMP JUMPDEST PUSH1 0x40 MLOAD PUSH2 0x1F2 SWAP2 SWAP1 PUSH2 0x1153 JUMP JUMPDEST PUSH1 0x40 MLOAD DUP1 SWAP2 SUB SWAP1 RETURN JUMPDEST CALLVALUE DUP1 ISZERO PUSH2 0x206 JUMPI PUSH0 DUP1 REVERT JUMPDEST POP PUSH2 0x221 PUSH1 0x4 DUP1 CALLDATASIZE SUB DUP2 ADD SWAP1 PUSH2 0x21C SWAP2 SWAP1 PUSH2 0x107B JUMP JUMPDEST PUSH2 0xA92 JUMP JUMPDEST PUSH1 0x40 MLOAD PUSH2 0x22F SWAP3 SWAP2 SWAP1 PUSH2 0x1173 JUMP JUMPDEST PUSH1 0x40 MLOAD DUP1 SWAP2 SUB SWAP1 RETURN JUMPDEST CALLVALUE DUP1 ISZERO PUSH2 0x243 JUMPI PUSH0 DUP1 REVERT JUMPDEST POP PUSH2 0x25E PUSH1 0x4 DUP1 CALLDATASIZE SUB DUP2 ADD SWAP1 PUSH2 0x259 SWAP2 SWAP1 PUSH2 0xDA8 JUMP JUMPDEST PUSH2 0xC5A JUMP JUMPDEST PUSH1 0x40 MLOAD PUSH2 0x26B SWAP2 SWAP1 PUSH2 0xE78 JUMP JUMPDEST PUSH1 0x40 MLOAD DUP1 SWAP2 SUB SWAP1 RETURN JUMPDEST PUSH0 PUSH1 0x1 SLOAD SWAP1 POP SWAP1 JUMP JUMPDEST PUSH1 0x1 CALLVALUE EQ PUSH2 0x2C0 JUMPI PUSH1 0x40 MLOAD PUSH32 0x8C379A000000000000000000000000000000000000000000000000000000000 DUP2 MSTORE PUSH1 0x4 ADD PUSH2 0x2B7 SWAP1 PUSH2 0x11E4 JUMP JUMPDEST PUSH1 0x40 MLOAD DUP1 SWAP2 SUB SWAP1 REVERT JUMPDEST CALLVALUE PUSH1 0x1 PUSH0 DUP3 DUP3 SLOAD PUSH2 0x2D1 SWAP2 SWAP1 PUSH2 0x122F JUMP JUMPDEST SWAP3 POP POP DUP2 SWAP1 SSTORE POP JUMP JUMPDEST CALLER PUSH20 0xFFFFFFFFFFFFFFFFFFFFFFFFFFFFFFFFFFFFFFFF AND PUSH0 DUP1 SLOAD SWAP1 PUSH2 0x100 EXP SWAP1 DIV PUSH20 0xFFFFFFFFFFFFFFFFFFFFFFFFFFFFFFFFFFFFFFFF AND PUSH20 0xFFFFFFFFFFFFFFFFFFFFFFFFFFFFFFFFFFFFFFFF AND EQ PUSH2 0x367 JUMPI PUSH1 0x40 MLOAD PUSH32 0x8C379A000000000000000000000000000000000000000000000000000000000 DUP2 MSTORE PUSH1 0x4 ADD PUSH2 0x35E SWAP1 PUSH2 0x11E4 JUMP JUMPDEST PUSH1 0x40 MLOAD DUP1 SWAP2 SUB SWAP1 REVERT JUMPDEST PUSH0 DUP1 SLOAD SWAP1 PUSH2 0x100 EXP SWAP1 DIV PUSH20 0xFFFFFFFFFFFFFFFFFFFFFFFFFFFFFFFFFFFFFFFF AND PUSH20 0xFFFFFFFFFFFFFFFFFFFFFFFFFFFFFFFFFFFFFFFF AND PUSH2 0x8FC SELFBALANCE SWAP1 DUP2 ISZERO MUL SWAP1 PUSH1 0x40 MLOAD PUSH0 PUSH1 0x40 MLOAD DUP1 DUP4 SUB DUP2 DUP6 DUP9 DUP9 CALL SWAP4 POP POP POP POP ISZERO DUP1 ISZERO PUSH2 0x3C9 JUMPI RETURNDATASIZE PUSH0 DUP1 RETURNDATACOPY RETURNDATASIZE PUSH0 REVERT JUMPDEST POP JUMP JUMPDEST PUSH7 0x38D7EA4C68000 CALLVALUE EQ PUSH2 0x415 JUMPI PUSH1 0x40 MLOAD PUSH32 0x8C379A000000000000000000000000000000000000000000000000000000000 DUP2 MSTORE PUSH1 0x4 ADD PUSH2 0x40C SWAP1 PUSH2 0x11E4 JUMP JUMPDEST PUSH1 0x40 MLOAD DUP1 SWAP2 SUB SWAP1 REVERT JUMPDEST CALLVALUE PUSH1 0x1 PUSH0 DUP3 DUP3 SLOAD PUSH2 0x426 SWAP2 SWAP1 PUSH2 0x122F JUMP JUMPDEST SWAP3 POP POP DUP2 SWAP1 SSTORE POP JUMP JUMPDEST PUSH8 0xDE0B6B3A7640000 CALLVALUE EQ PUSH2 0x479 JUMPI PUSH1 0x40 MLOAD PUSH32 0x8C379A000000000000000000000000000000000000000000000000000000000 DUP2 MSTORE PUSH1 0x4 ADD PUSH2 0x470 SWAP1 PUSH2 0x11E4 JUMP JUMPDEST PUSH1 0x40 MLOAD DUP1 SWAP2 SUB SWAP1 REVERT JUMPDEST CALLVALUE PUSH1 0x1 PUSH0 DUP3 DUP3 SLOAD PUSH2 0x48A SWAP2 SWAP1 PUSH2 0x122F JUMP JUMPDEST SWAP3 POP POP DUP2 SWAP1 SSTORE POP JUMP JUMPDEST PUSH2 0x49B PUSH2 0xD1A JUMP JUMPDEST PUSH2 0x4A3 PUSH2 0xD1A JUMP JUMPDEST PUSH0 PUSH1 0x1 SWAP1 POP JUMPDEST DUP4 DUP2 GT PUSH2 0x5BA JUMPI PUSH0 PUSH1 0x2 DUP3 PUSH2 0x4BE SWAP2 SWAP1 PUSH2 0x128F JUMP JUMPDEST SUB PUSH2 0x4ED JUMPI DUP2 PUSH0 PUSH1 0x4 DUP2 LT PUSH2 0x4D6 JUMPI PUSH2 0x4D5 PUSH2 0x12BF JUMP JUMPDEST JUMPDEST PUSH1 0x20 MUL ADD DUP1 MLOAD DUP1 SWAP2 SWAP1 PUSH2 0x4E8 SWAP1 PUSH2 0x12EC JUMP JUMPDEST DUP2 MSTORE POP POP JUMPDEST PUSH0 PUSH1 0x3 DUP3 PUSH2 0x4FB SWAP2 SWAP1 PUSH2 0x128F JUMP JUMPDEST SUB PUSH2 0x52B JUMPI DUP2 PUSH1 0x1 PUSH1 0x4 DUP2 LT PUSH2 0x514 JUMPI PUSH2 0x513 PUSH2 0x12BF JUMP JUMPDEST JUMPDEST PUSH1 0x20 MUL ADD DUP1 MLOAD DUP1 SWAP2 SWAP1 PUSH2 0x526 SWAP1 PUSH2 0x12EC JUMP JUMPDEST DUP2 MSTORE POP POP JUMPDEST PUSH0 PUSH1 0x5 DUP3 PUSH2 0x539 SWAP2 SWAP1 PUSH2 0x128F JUMP JUMPDEST SUB PUSH2 0x569 JUMPI DUP2 PUSH1 0x2 PUSH1 0x4 DUP2 LT PUSH2 0x552 JUMPI PUSH2 0x551 PUSH2 0x12BF JUMP JUMPDEST JUMPDEST PUSH1 0x20 MUL ADD DUP1 MLOAD DUP1 SWAP2 SWAP1 PUSH2 0x564 SWAP1 PUSH2 0x12EC JUMP JUMPDEST DUP2 MSTORE POP POP JUMPDEST PUSH0 PUSH1 0x7 DUP3 PUSH2 0x577 SWAP2 SWAP1 PUSH2 0x128F JUMP JUMPDEST SUB PUSH2 0x5A7 JUMPI DUP2 PUSH1 0x3 PUSH1 0x4 DUP2 LT PUSH2 0x590 JUMPI PUSH2 0x58F PUSH2 0x12BF JUMP JUMPDEST JUMPDEST PUSH1 0x20 MUL ADD DUP1 MLOAD DUP1 SWAP2 SWAP1 PUSH2 0x5A2 SWAP1 PUSH2 0x12EC JUMP JUMPDEST DUP2 MSTORE POP POP JUMPDEST DUP1 DUP1 PUSH2 0x5B2 SWAP1 PUSH2 0x12EC JUMP JUMPDEST SWAP2 POP POP PUSH2 0x4A9 JUMP JUMPDEST POP DUP1 SWAP2 POP POP SWAP2 SWAP1 POP JUMP JUMPDEST CALLER PUSH20 0xFFFFFFFFFFFFFFFFFFFFFFFFFFFFFFFFFFFFFFFF AND PUSH0 DUP1 SLOAD SWAP1 PUSH2 0x100 EXP SWAP1 DIV PUSH20 0xFFFFFFFFFFFFFFFFFFFFFFFFFFFFFFFFFFFFFFFF AND PUSH20 0xFFFFFFFFFFFFFFFFFFFFFFFFFFFFFFFFFFFFFFFF AND EQ PUSH2 0x651 JUMPI PUSH1 0x40 MLOAD PUSH32 0x8C379A000000000000000000000000000000000000000000000000000000000 DUP2 MSTORE PUSH1 0x4 ADD PUSH2 0x648 SWAP1 PUSH2 0x11E4 JUMP JUMPDEST PUSH1 0x40 MLOAD DUP1 SWAP2 SUB SWAP1 REVERT JUMPDEST PUSH1 0x40 MLOAD DUP1 PUSH1 0x40 ADD PUSH1 0x40 MSTORE DUP1 PUSH1 0x1 DUP2 MSTORE PUSH1 0x20 ADD PUSH32 0x4300000000000000000000000000000000000000000000000000000000000000 DUP2 MSTORE POP PUSH1 0x2 SWAP1 DUP2 PUSH2 0x695 SWAP2 SWAP1 PUSH2 0x152D JUMP JUMPDEST POP JUMP JUMPDEST JUMP JUMPDEST PUSH1 0x60 PUSH1 0x2 DUP1 SLOAD PUSH2 0x6A9 SWAP1 PUSH2 0x1360 JUMP JUMPDEST DUP1 PUSH1 0x1F ADD PUSH1 0x20 DUP1 SWAP2 DIV MUL PUSH1 0x20 ADD PUSH1 0x40 MLOAD SWAP1 DUP2 ADD PUSH1 0x40 MSTORE DUP1 SWAP3 SWAP2 SWAP1 DUP2 DUP2 MSTORE PUSH1 0x20 ADD DUP3 DUP1 SLOAD PUSH2 0x6D5 SWAP1 PUSH2 0x1360 JUMP JUMPDEST DUP1 ISZERO PUSH2 0x720 JUMPI DUP1 PUSH1 0x1F LT PUSH2 0x6F7 JUMPI PUSH2 0x100 DUP1 DUP4 SLOAD DIV MUL DUP4 MSTORE SWAP2 PUSH1 0x20 ADD SWAP2 PUSH2 0x720 JUMP JUMPDEST DUP3 ADD SWAP2 SWAP1 PUSH0 MSTORE PUSH1 0x20 PUSH0 KECCAK256 SWAP1 JUMPDEST DUP2 SLOAD DUP2 MSTORE SWAP1 PUSH1 0x1 ADD SWAP1 PUSH1 0x20 ADD DUP1 DUP4 GT PUSH2 0x703 JUMPI DUP3 SWAP1 SUB PUSH1 0x1F AND DUP3 ADD SWAP2 JUMPDEST POP POP POP POP POP SWAP1 POP SWAP1 JUMP JUMPDEST CALLER PUSH20 0xFFFFFFFFFFFFFFFFFFFFFFFFFFFFFFFFFFFFFFFF AND PUSH0 DUP1 SLOAD SWAP1 PUSH2 0x100 EXP SWAP1 DIV PUSH20 0xFFFFFFFFFFFFFFFFFFFFFFFFFFFFFFFFFFFFFFFF AND PUSH20 0xFFFFFFFFFFFFFFFFFFFFFFFFFFFFFFFFFFFFFFFF AND EQ PUSH2 0x7B7 JUMPI PUSH1 0x40 MLOAD PUSH32 0x8C379A000000000000000000000000000000000000000000000000000000000 DUP2 MSTORE PUSH1 0x4 ADD PUSH2 0x7AE SWAP1 PUSH2 0x11E4 JUMP JUMPDEST PUSH1 0x40 MLOAD DUP1 SWAP2 SUB SWAP1 REVERT JUMPDEST PUSH1 0x40 MLOAD DUP1 PUSH1 0x40 ADD PUSH1 0x40 MSTORE DUP1 PUSH1 0x1 DUP2 MSTORE PUSH1 0x20 ADD PUSH32 0x4200000000000000000000000000000000000000000000000000000000000000 DUP2 MSTORE POP PUSH1 0x2 SWAP1 DUP2 PUSH2 0x7FB SWAP2 SWAP1 PUSH2 0x152D JUMP JUMPDEST POP JUMP JUMPDEST PUSH1 0x60 PUSH0 JUMPDEST DUP3 MLOAD DUP2 LT ISZERO PUSH2 0x8F1 JUMPI PUSH0 PUSH1 0x1 DUP3 PUSH2 0x819 SWAP2 SWAP1 PUSH2 0x122F JUMP JUMPDEST SWAP1 POP JUMPDEST DUP4 MLOAD DUP2 LT ISZERO PUSH2 0x8E3 JUMPI DUP4 DUP2 DUP2 MLOAD DUP2 LT PUSH2 0x838 JUMPI PUSH2 0x837 PUSH2 0x12BF JUMP JUMPDEST JUMPDEST PUSH1 0x20 MUL PUSH1 0x20 ADD ADD MLOAD DUP5 DUP4 DUP2 MLOAD DUP2 LT PUSH2 0x853 JUMPI PUSH2 0x852 PUSH2 0x12BF JUMP JUMPDEST JUMPDEST PUSH1 0x20 MUL PUSH1 0x20 ADD ADD MLOAD GT ISZERO PUSH2 0x8D6 JUMPI DUP4 DUP3 DUP2 MLOAD DUP2 LT PUSH2 0x874 JUMPI PUSH2 0x873 PUSH2 0x12BF JUMP JUMPDEST JUMPDEST PUSH1 0x20 MUL PUSH1 0x20 ADD ADD MLOAD DUP5 DUP3 DUP2 MLOAD DUP2 LT PUSH2 0x88F JUMPI PUSH2 0x88E PUSH2 0x12BF JUMP JUMPDEST JUMPDEST PUSH1 0x20 MUL PUSH1 0x20 ADD ADD MLOAD DUP6 DUP4 DUP2 MLOAD DUP2 LT PUSH2 0x8AA JUMPI PUSH2 0x8A9 PUSH2 0x12BF JUMP JUMPDEST JUMPDEST PUSH1 0x20 MUL PUSH1 0x20 ADD ADD DUP7 DUP6 DUP2 MLOAD DUP2 LT PUSH2 0x8C4 JUMPI PUSH2 0x8C3 PUSH2 0x12BF JUMP JUMPDEST JUMPDEST PUSH1 0x20 MUL PUSH1 0x20 ADD ADD DUP3 DUP2 MSTORE POP DUP3 DUP2 MSTORE POP POP POP JUMPDEST DUP1 DUP1 PUSH1 0x1 ADD SWAP2 POP POP PUSH2 0x81C JUMP JUMPDEST POP DUP1 DUP1 PUSH1 0x1 ADD SWAP2 POP POP PUSH2 0x802 JUMP JUMPDEST POP PUSH1 0x60 PUSH1 0x1 PUSH1 0x2 DUP5 MLOAD PUSH2 0x904 SWAP2 SWAP1 PUSH2 0x128F JUMP JUMPDEST SUB PUSH2 0x9A1 JUMPI PUSH1 0x1 PUSH8 0xFFFFFFFFFFFFFFFF DUP2 GT ISZERO PUSH2 0x924 JUMPI PUSH2 0x923 PUSH2 0xF3F JUMP JUMPDEST JUMPDEST PUSH1 0x40 MLOAD SWAP1 DUP1 DUP3 MSTORE DUP1 PUSH1 0x20 MUL PUSH1 0x20 ADD DUP3 ADD PUSH1 0x40 MSTORE DUP1 ISZERO PUSH2 0x952 JUMPI DUP2 PUSH1 0x20 ADD PUSH1 0x20 DUP3 MUL DUP1 CALLDATASIZE DUP4 CALLDATACOPY DUP1 DUP3 ADD SWAP2 POP POP SWAP1 POP JUMPDEST POP SWAP1 POP DUP3 PUSH1 0x2 DUP5 MLOAD PUSH2 0x964 SWAP2 SWAP1 PUSH2 0x15FC JUMP JUMPDEST DUP2 MLOAD DUP2 LT PUSH2 0x975 JUMPI PUSH2 0x974 PUSH2 0x12BF JUMP JUMPDEST JUMPDEST PUSH1 0x20 MUL PUSH1 0x20 ADD ADD MLOAD DUP2 PUSH0 DUP2 MLOAD DUP2 LT PUSH2 0x990 JUMPI PUSH2 0x98F PUSH2 0x12BF JUMP JUMPDEST JUMPDEST PUSH1 0x20 MUL PUSH1 0x20 ADD ADD DUP2 DUP2 MSTORE POP POP PUSH2 0xA89 JUMP JUMPDEST PUSH1 0x2 PUSH8 0xFFFFFFFFFFFFFFFF DUP2 GT ISZERO PUSH2 0x9BC JUMPI PUSH2 0x9BB PUSH2 0xF3F JUMP JUMPDEST JUMPDEST PUSH1 0x40 MLOAD SWAP1 DUP1 DUP3 MSTORE DUP1 PUSH1 0x20 MUL PUSH1 0x20 ADD DUP3 ADD PUSH1 0x40 MSTORE DUP1 ISZERO PUSH2 0x9EA JUMPI DUP2 PUSH1 0x20 ADD PUSH1 0x20 DUP3 MUL DUP1 CALLDATASIZE DUP4 CALLDATACOPY DUP1 DUP3 ADD SWAP2 POP POP SWAP1 POP JUMPDEST POP SWAP1 POP DUP3 PUSH1 0x1 PUSH1 0x2 DUP6 MLOAD PUSH2 0x9FE SWAP2 SWAP1 PUSH2 0x15FC JUMP JUMPDEST PUSH2 0xA08 SWAP2 SWAP1 PUSH2 0x162C JUMP JUMPDEST DUP2 MLOAD DUP2 LT PUSH2 0xA19 JUMPI PUSH2 0xA18 PUSH2 0x12BF JUMP JUMPDEST JUMPDEST PUSH1 0x20 MUL PUSH1 0x20 ADD ADD MLOAD DUP4 PUSH1 0x2 DUP6 MLOAD PUSH2 0xA30 SWAP2 SWAP1 PUSH2 0x15FC JUMP JUMPDEST DUP2 MLOAD DUP2 LT PUSH2 0xA41 JUMPI PUSH2 0xA40 PUSH2 0x12BF JUMP JUMPDEST JUMPDEST PUSH1 0x20 MUL PUSH1 0x20 ADD ADD MLOAD DUP3 PUSH0 DUP2 MLOAD DUP2 LT PUSH2 0xA5C JUMPI PUSH2 0xA5B PUSH2 0x12BF JUMP JUMPDEST JUMPDEST PUSH1 0x20 MUL PUSH1 0x20 ADD ADD DUP4 PUSH1 0x1 DUP2 MLOAD DUP2 LT PUSH2 0xA77 JUMPI PUSH2 0xA76 PUSH2 0x12BF JUMP JUMPDEST JUMPDEST PUSH1 0x20 MUL PUSH1 0x20 ADD ADD DUP3 DUP2 MSTORE POP DUP3 DUP2 MSTORE POP POP POP JUMPDEST DUP1 SWAP2 POP POP SWAP2 SWAP1 POP JUMP JUMPDEST PUSH0 DUP1 PUSH0 JUMPDEST DUP4 MLOAD DUP2 LT ISZERO PUSH2 0xB85 JUMPI PUSH0 PUSH1 0x1 DUP3 PUSH2 0xAAD SWAP2 SWAP1 PUSH2 0x122F JUMP JUMPDEST SWAP1 POP JUMPDEST DUP5 MLOAD DUP2 LT ISZERO PUSH2 0xB77 JUMPI DUP5 DUP2 DUP2 MLOAD DUP2 LT PUSH2 0xACC JUMPI PUSH2 0xACB PUSH2 0x12BF JUMP JUMPDEST JUMPDEST PUSH1 0x20 MUL PUSH1 0x20 ADD ADD MLOAD DUP6 DUP4 DUP2 MLOAD DUP2 LT PUSH2 0xAE7 JUMPI PUSH2 0xAE6 PUSH2 0x12BF JUMP JUMPDEST JUMPDEST PUSH1 0x20 MUL PUSH1 0x20 ADD ADD MLOAD GT ISZERO PUSH2 0xB6A JUMPI DUP5 DUP3 DUP2 MLOAD DUP2 LT PUSH2 0xB08 JUMPI PUSH2 0xB07 PUSH2 0x12BF JUMP JUMPDEST JUMPDEST PUSH1 0x20 MUL PUSH1 0x20 ADD ADD MLOAD DUP6 DUP3 DUP2 MLOAD DUP2 LT PUSH2 0xB23 JUMPI PUSH2 0xB22 PUSH2 0x12BF JUMP JUMPDEST JUMPDEST PUSH1 0x20 MUL PUSH1 0x20 ADD ADD MLOAD DUP7 DUP4 DUP2 MLOAD DUP2 LT PUSH2 0xB3E JUMPI PUSH2 0xB3D PUSH2 0x12BF JUMP JUMPDEST JUMPDEST PUSH1 0x20 MUL PUSH1 0x20 ADD ADD DUP8 DUP6 DUP2 MLOAD DUP2 LT PUSH2 0xB58 JUMPI PUSH2 0xB57 PUSH2 0x12BF JUMP JUMPDEST JUMPDEST PUSH1 0x20 MUL PUSH1 0x20 ADD ADD DUP3 DUP2 MSTORE POP DUP3 DUP2 MSTORE POP POP POP JUMPDEST DUP1 DUP1 PUSH1 0x1 ADD SWAP2 POP POP PUSH2 0xAB0 JUMP JUMPDEST POP DUP1 DUP1 PUSH1 0x1 ADD SWAP2 POP POP PUSH2 0xA96 JUMP JUMPDEST POP PUSH1 0x1 PUSH1 0x2 DUP5 MLOAD PUSH2 0xB96 SWAP2 SWAP1 PUSH2 0x128F JUMP JUMPDEST SUB PUSH2 0xBF4 JUMPI DUP3 PUSH1 0x2 DUP5 MLOAD PUSH2 0xBAA SWAP2 SWAP1 PUSH2 0x15FC JUMP JUMPDEST DUP2 MLOAD DUP2 LT PUSH2 0xBBB JUMPI PUSH2 0xBBA PUSH2 0x12BF JUMP JUMPDEST JUMPDEST PUSH1 0x20 MUL PUSH1 0x20 ADD ADD MLOAD DUP4 PUSH1 0x2 DUP6 MLOAD PUSH2 0xBD2 SWAP2 SWAP1 PUSH2 0x15FC JUMP JUMPDEST DUP2 MLOAD DUP2 LT PUSH2 0xBE3 JUMPI PUSH2 0xBE2 PUSH2 0x12BF JUMP JUMPDEST JUMPDEST PUSH1 0x20 MUL PUSH1 0x20 ADD ADD MLOAD SWAP2 POP SWAP2 POP PUSH2 0xC55 JUMP JUMPDEST DUP3 PUSH1 0x1 PUSH1 0x2 DUP6 MLOAD PUSH2 0xC05 SWAP2 SWAP1 PUSH2 0x15FC JUMP JUMPDEST PUSH2 0xC0F SWAP2 SWAP1 PUSH2 0x162C JUMP JUMPDEST DUP2 MLOAD DUP2 LT PUSH2 0xC20 JUMPI PUSH2 0xC1F PUSH2 0x12BF JUMP JUMPDEST JUMPDEST PUSH1 0x20 MUL PUSH1 0x20 ADD ADD MLOAD DUP4 PUSH1 0x2 DUP6 MLOAD PUSH2 0xC37 SWAP2 SWAP1 PUSH2 0x15FC JUMP JUMPDEST DUP2 MLOAD DUP2 LT PUSH2 0xC48 JUMPI PUSH2 0xC47 PUSH2 0x12BF JUMP JUMPDEST JUMPDEST PUSH1 0x20 MUL PUSH1 0x20 ADD ADD MLOAD SWAP2 POP SWAP2 POP JUMPDEST SWAP2 POP SWAP2 JUMP JUMPDEST PUSH2 0xC62 PUSH2 0xD1A JUMP JUMPDEST PUSH2 0xC6A PUSH2 0xD1A JUMP JUMPDEST PUSH1 0x2 DUP4 PUSH2 0xC77 SWAP2 SWAP1 PUSH2 0x15FC JUMP JUMPDEST DUP2 PUSH0 PUSH1 0x4 DUP2 LT PUSH2 0xC8A JUMPI PUSH2 0xC89 PUSH2 0x12BF JUMP JUMPDEST JUMPDEST PUSH1 0x20 MUL ADD DUP2 DUP2 MSTORE POP POP PUSH1 0x3 DUP4 PUSH2 0xCA0 SWAP2 SWAP1 PUSH2 0x15FC JUMP JUMPDEST DUP2 PUSH1 0x1 PUSH1 0x4 DUP2 LT PUSH2 0xCB4 JUMPI PUSH2 0xCB3 PUSH2 0x12BF JUMP JUMPDEST JUMPDEST PUSH1 0x20 MUL ADD DUP2 DUP2 MSTORE POP POP PUSH1 0x5 DUP4 PUSH2 0xCCA SWAP2 SWAP1 PUSH2 0x15FC JUMP JUMPDEST DUP2 PUSH1 0x2 PUSH1 0x4 DUP2 LT PUSH2 0xCDE JUMPI PUSH2 0xCDD PUSH2 0x12BF JUMP JUMPDEST JUMPDEST PUSH1 0x20 MUL ADD DUP2 DUP2 MSTORE POP POP PUSH1 0x7 DUP4 PUSH2 0xCF4 SWAP2 SWAP1 PUSH2 0x15FC JUMP JUMPDEST DUP2 PUSH1 0x3 PUSH1 0x4 DUP2 LT PUSH2 0xD08 JUMPI PUSH2 0xD07 PUSH2 0x12BF JUMP JUMPDEST JUMPDEST PUSH1 0x20 MUL ADD DUP2 DUP2 MSTORE POP POP DUP1 SWAP2 POP POP SWAP2 SWAP1 POP JUMP JUMPDEST PUSH1 0x40 MLOAD DUP1 PUSH1 0x80 ADD PUSH1 0x40 MSTORE DUP1 PUSH1 0x4 SWAP1 PUSH1 0x20 DUP3 MUL DUP1 CALLDATASIZE DUP4 CALLDATACOPY DUP1 DUP3 ADD SWAP2 POP POP SWAP1 POP POP SWAP1 JUMP JUMPDEST PUSH0 DUP2 SWAP1 POP SWAP2 SWAP1 POP JUMP JUMPDEST PUSH2 0xD4E DUP2 PUSH2 0xD3C JUMP JUMPDEST DUP3 MSTORE POP POP JUMP JUMPDEST PUSH0 PUSH1 0x20 DUP3 ADD SWAP1 POP PUSH2 0xD67 PUSH0 DUP4 ADD DUP5 PUSH2 0xD45 JUMP JUMPDEST SWAP3 SWAP2 POP POP JUMP JUMPDEST PUSH0 PUSH1 0x40 MLOAD SWAP1 POP SWAP1 JUMP JUMPDEST PUSH0 DUP1 REVERT JUMPDEST PUSH0 DUP1 REVERT JUMPDEST PUSH2 0xD87 DUP2 PUSH2 0xD3C JUMP JUMPDEST DUP2 EQ PUSH2 0xD91 JUMPI PUSH0 DUP1 REVERT JUMPDEST POP JUMP JUMPDEST PUSH0 DUP2 CALLDATALOAD SWAP1 POP PUSH2 0xDA2 DUP2 PUSH2 0xD7E JUMP JUMPDEST SWAP3 SWAP2 POP POP JUMP JUMPDEST PUSH0 PUSH1 0x20 DUP3 DUP5 SUB SLT ISZERO PUSH2 0xDBD JUMPI PUSH2 0xDBC PUSH2 0xD76 JUMP JUMPDEST JUMPDEST PUSH0 PUSH2 0xDCA DUP5 DUP3 DUP6 ADD PUSH2 0xD94 JUMP JUMPDEST SWAP2 POP POP SWAP3 SWAP2 POP POP JUMP JUMPDEST PUSH0 PUSH1 0x4 SWAP1 POP SWAP2 SWAP1 POP JUMP JUMPDEST PUSH0 DUP2 SWAP1 POP SWAP3 SWAP2 POP POP JUMP JUMPDEST PUSH0 DUP2 SWAP1 POP SWAP2 SWAP1 POP JUMP JUMPDEST PUSH2 0xDF9 DUP2 PUSH2 0xD3C JUMP JUMPDEST DUP3 MSTORE POP POP JUMP JUMPDEST PUSH0 PUSH2 0xE0A DUP4 DUP4 PUSH2 0xDF0 JUMP JUMPDEST PUSH1 0x20 DUP4 ADD SWAP1 POP SWAP3 SWAP2 POP POP JUMP JUMPDEST PUSH0 PUSH1 0x20 DUP3 ADD SWAP1 POP SWAP2 SWAP1 POP JUMP JUMPDEST PUSH2 0xE2B DUP2 PUSH2 0xDD3 JUMP JUMPDEST PUSH2 0xE35 DUP2 DUP5 PUSH2 0xDDD JUMP JUMPDEST SWAP3 POP PUSH2 0xE40 DUP3 PUSH2 0xDE7 JUMP JUMPDEST DUP1 PUSH0 JUMPDEST DUP4 DUP2 LT ISZERO PUSH2 0xE70 JUMPI DUP2 MLOAD PUSH2 0xE57 DUP8 DUP3 PUSH2 0xDFF JUMP JUMPDEST SWAP7 POP PUSH2 0xE62 DUP4 PUSH2 0xE16 JUMP JUMPDEST SWAP3 POP POP PUSH1 0x1 DUP2 ADD SWAP1 POP PUSH2 0xE43 JUMP JUMPDEST POP POP POP POP POP POP JUMP JUMPDEST PUSH0 PUSH1 0x80 DUP3 ADD SWAP1 POP PUSH2 0xE8B PUSH0 DUP4 ADD DUP5 PUSH2 0xE22 JUMP JUMPDEST SWAP3 SWAP2 POP POP JUMP JUMPDEST PUSH0 DUP2 MLOAD SWAP1 POP SWAP2 SWAP1 POP JUMP JUMPDEST PUSH0 DUP3 DUP3 MSTORE PUSH1 0x20 DUP3 ADD SWAP1 POP SWAP3 SWAP2 POP POP JUMP JUMPDEST PUSH0 JUMPDEST DUP4 DUP2 LT ISZERO PUSH2 0xEC8 JUMPI DUP1 DUP3 ADD MLOAD DUP2 DUP5 ADD MSTORE PUSH1 0x20 DUP2 ADD SWAP1 POP PUSH2 0xEAD JUMP JUMPDEST PUSH0 DUP5 DUP5 ADD MSTORE POP POP POP POP JUMP JUMPDEST PUSH0 PUSH1 0x1F NOT PUSH1 0x1F DUP4 ADD AND SWAP1 POP SWAP2 SWAP1 POP JUMP JUMPDEST PUSH0 PUSH2 0xEED DUP3 PUSH2 0xE91 JUMP JUMPDEST PUSH2 0xEF7 DUP2 DUP6 PUSH2 0xE9B JUMP JUMPDEST SWAP4 POP PUSH2 0xF07 DUP2 DUP6 PUSH1 0x20 DUP7 ADD PUSH2 0xEAB JUMP JUMPDEST PUSH2 0xF10 DUP2 PUSH2 0xED3 JUMP JUMPDEST DUP5 ADD SWAP2 POP POP SWAP3 SWAP2 POP POP JUMP JUMPDEST PUSH0 PUSH1 0x20 DUP3 ADD SWAP1 POP DUP2 DUP2 SUB PUSH0 DUP4 ADD MSTORE PUSH2 0xF33 DUP2 DUP5 PUSH2 0xEE3 JUMP JUMPDEST SWAP1 POP SWAP3 SWAP2 POP POP JUMP JUMPDEST PUSH0 DUP1 REVERT JUMPDEST PUSH32 0x4E487B7100000000000000000000000000000000000000000000000000000000 PUSH0 MSTORE PUSH1 0x41 PUSH1 0x4 MSTORE PUSH1 0x24 PUSH0 REVERT JUMPDEST PUSH2 0xF75 DUP3 PUSH2 0xED3 JUMP JUMPDEST DUP2 ADD DUP2 DUP2 LT PUSH8 0xFFFFFFFFFFFFFFFF DUP3 GT OR ISZERO PUSH2 0xF94 JUMPI PUSH2 0xF93 PUSH2 0xF3F JUMP JUMPDEST JUMPDEST DUP1 PUSH1 0x40 MSTORE POP POP POP JUMP JUMPDEST PUSH0 PUSH2 0xFA6 PUSH2 0xD6D JUMP JUMPDEST SWAP1 POP PUSH2 0xFB2 DUP3 DUP3 PUSH2 0xF6C JUMP JUMPDEST SWAP2 SWAP1 POP JUMP JUMPDEST PUSH0 PUSH8 0xFFFFFFFFFFFFFFFF DUP3 GT ISZERO PUSH2 0xFD1 JUMPI PUSH2 0xFD0 PUSH2 0xF3F JUMP JUMPDEST JUMPDEST PUSH1 0x20 DUP3 MUL SWAP1 POP PUSH1 0x20 DUP2 ADD SWAP1 POP SWAP2 SWAP1 POP JUMP JUMPDEST PUSH0 DUP1 REVERT JUMPDEST PUSH0 PUSH2 0xFF8 PUSH2 0xFF3 DUP5 PUSH2 0xFB7 JUMP JUMPDEST PUSH2 0xF9D JUMP JUMPDEST SWAP1 POP DUP1 DUP4 DUP3 MSTORE PUSH1 0x20 DUP3 ADD SWAP1 POP PUSH1 0x20 DUP5 MUL DUP4 ADD DUP6 DUP2 GT ISZERO PUSH2 0x101B JUMPI PUSH2 0x101A PUSH2 0xFE2 JUMP JUMPDEST JUMPDEST DUP4 JUMPDEST DUP2 DUP2 LT ISZERO PUSH2 0x1044 JUMPI DUP1 PUSH2 0x1030 DUP9 DUP3 PUSH2 0xD94 JUMP JUMPDEST DUP5 MSTORE PUSH1 0x20 DUP5 ADD SWAP4 POP POP PUSH1 0x20 DUP2 ADD SWAP1 POP PUSH2 0x101D JUMP JUMPDEST POP POP POP SWAP4 SWAP3 POP POP POP JUMP JUMPDEST PUSH0 DUP3 PUSH1 0x1F DUP4 ADD SLT PUSH2 0x1062 JUMPI PUSH2 0x1061 PUSH2 0xF3B JUMP JUMPDEST JUMPDEST DUP2 CALLDATALOAD PUSH2 0x1072 DUP5 DUP3 PUSH1 0x20 DUP7 ADD PUSH2 0xFE6 JUMP JUMPDEST SWAP2 POP POP SWAP3 SWAP2 POP POP JUMP JUMPDEST PUSH0 PUSH1 0x20 DUP3 DUP5 SUB SLT ISZERO PUSH2 0x1090 JUMPI PUSH2 0x108F PUSH2 0xD76 JUMP JUMPDEST JUMPDEST PUSH0 DUP3 ADD CALLDATALOAD PUSH8 0xFFFFFFFFFFFFFFFF DUP2 GT ISZERO PUSH2 0x10AD JUMPI PUSH2 0x10AC PUSH2 0xD7A JUMP JUMPDEST JUMPDEST PUSH2 0x10B9 DUP5 DUP3 DUP6 ADD PUSH2 0x104E JUMP JUMPDEST SWAP2 POP POP SWAP3 SWAP2 POP POP JUMP JUMPDEST PUSH0 DUP2 MLOAD SWAP1 POP SWAP2 SWAP1 POP JUMP JUMPDEST PUSH0 DUP3 DUP3 MSTORE PUSH1 0x20 DUP3 ADD SWAP1 POP SWAP3 SWAP2 POP POP JUMP JUMPDEST PUSH0 DUP2 SWAP1 POP PUSH1 0x20 DUP3 ADD SWAP1 POP SWAP2 SWAP1 POP JUMP JUMPDEST PUSH0 PUSH1 0x20 DUP3 ADD SWAP1 POP SWAP2 SWAP1 POP JUMP JUMPDEST PUSH0 PUSH2 0x1101 DUP3 PUSH2 0x10C2 JUMP JUMPDEST PUSH2 0x110B DUP2 DUP6 PUSH2 0x10CC JUMP JUMPDEST SWAP4 POP PUSH2 0x1116 DUP4 PUSH2 0x10DC JUMP JUMPDEST DUP1 PUSH0 JUMPDEST DUP4 DUP2 LT ISZERO PUSH2 0x1146 JUMPI DUP2 MLOAD PUSH2 0x112D DUP9 DUP3 PUSH2 0xDFF JUMP JUMPDEST SWAP8 POP PUSH2 0x1138 DUP4 PUSH2 0x10EB JUMP JUMPDEST SWAP3 POP POP PUSH1 0x1 DUP2 ADD SWAP1 POP PUSH2 0x1119 JUMP JUMPDEST POP DUP6 SWAP4 POP POP POP POP SWAP3 SWAP2 POP POP JUMP JUMPDEST PUSH0 PUSH1 0x20 DUP3 ADD SWAP1 POP DUP2 DUP2 SUB PUSH0 DUP4 ADD MSTORE PUSH2 0x116B DUP2 DUP5 PUSH2 0x10F7 JUMP JUMPDEST SWAP1 POP SWAP3 SWAP2 POP POP JUMP JUMPDEST PUSH0 PUSH1 0x40 DUP3 ADD SWAP1 POP PUSH2 0x1186 PUSH0 DUP4 ADD DUP6 PUSH2 0xD45 JUMP JUMPDEST PUSH2 0x1193 PUSH1 0x20 DUP4 ADD DUP5 PUSH2 0xD45 JUMP JUMPDEST SWAP4 SWAP3 POP POP POP JUMP JUMPDEST PUSH32 0x7265766572740000000000000000000000000000000000000000000000000000 PUSH0 DUP3 ADD MSTORE POP JUMP JUMPDEST PUSH0 PUSH2 0x11CE PUSH1 0x6 DUP4 PUSH2 0xE9B JUMP JUMPDEST SWAP2 POP PUSH2 0x11D9 DUP3 PUSH2 0x119A JUMP JUMPDEST PUSH1 0x20 DUP3 ADD SWAP1 POP SWAP2 SWAP1 POP JUMP JUMPDEST PUSH0 PUSH1 0x20 DUP3 ADD SWAP1 POP DUP2 DUP2 SUB PUSH0 DUP4 ADD MSTORE PUSH2 0x11FB DUP2 PUSH2 0x11C2 JUMP JUMPDEST SWAP1 POP SWAP2 SWAP1 POP JUMP JUMPDEST PUSH32 0x4E487B7100000000000000000000000000000000000000000000000000000000 PUSH0 MSTORE PUSH1 0x11 PUSH1 0x4 MSTORE PUSH1 0x24 PUSH0 REVERT JUMPDEST PUSH0 PUSH2 0x1239 DUP3 PUSH2 0xD3C JUMP JUMPDEST SWAP2 POP PUSH2 0x1244 DUP4 PUSH2 0xD3C JUMP JUMPDEST SWAP3 POP DUP3 DUP3 ADD SWAP1 POP DUP1 DUP3 GT ISZERO PUSH2 0x125C JUMPI PUSH2 0x125B PUSH2 0x1202 JUMP JUMPDEST JUMPDEST SWAP3 SWAP2 POP POP JUMP JUMPDEST PUSH32 0x4E487B7100000000000000000000000000000000000000000000000000000000 PUSH0 MSTORE PUSH1 0x12 PUSH1 0x4 MSTORE PUSH1 0x24 PUSH0 REVERT JUMPDEST PUSH0 PUSH2 0x1299 DUP3 PUSH2 0xD3C JUMP JUMPDEST SWAP2 POP PUSH2 0x12A4 DUP4 PUSH2 0xD3C JUMP JUMPDEST SWAP3 POP DUP3 PUSH2 0x12B4 JUMPI PUSH2 0x12B3 PUSH2 0x1262 JUMP JUMPDEST JUMPDEST DUP3 DUP3 MOD SWAP1 POP SWAP3 SWAP2 POP POP JUMP JUMPDEST PUSH32 0x4E487B7100000000000000000000000000000000000000000000000000000000 PUSH0 MSTORE PUSH1 0x32 PUSH1 0x4 MSTORE PUSH1 0x24 PUSH0 REVERT JUMPDEST PUSH0 PUSH2 0x12F6 DUP3 PUSH2 0xD3C JUMP JUMPDEST SWAP2 POP PUSH32 0xFFFFFFFFFFFFFFFFFFFFFFFFFFFFFFFFFFFFFFFFFFFFFFFFFFFFFFFFFFFFFFFF DUP3 SUB PUSH2 0x1328 JUMPI PUSH2 0x1327 PUSH2 0x1202 JUMP JUMPDEST JUMPDEST PUSH1 0x1 DUP3 ADD SWAP1 POP SWAP2 SWAP1 POP JUMP JUMPDEST PUSH32 0x4E487B7100000000000000000000000000000000000000000000000000000000 PUSH0 MSTORE PUSH1 0x22 PUSH1 0x4 MSTORE PUSH1 0x24 PUSH0 REVERT JUMPDEST PUSH0 PUSH1 0x2 DUP3 DIV SWAP1 POP PUSH1 0x1 DUP3 AND DUP1 PUSH2 0x1377 JUMPI PUSH1 0x7F DUP3 AND SWAP2 POP JUMPDEST PUSH1 0x20 DUP3 LT DUP2 SUB PUSH2 0x138A JUMPI PUSH2 0x1389 PUSH2 0x1333 JUMP JUMPDEST JUMPDEST POP SWAP2 SWAP1 POP JUMP JUMPDEST PUSH0 DUP2 SWAP1 POP DUP2 PUSH0 MSTORE PUSH1 0x20 PUSH0 KECCAK256 SWAP1 POP SWAP2 SWAP1 POP JUMP JUMPDEST PUSH0 PUSH1 0x20 PUSH1 0x1F DUP4 ADD DIV SWAP1 POP SWAP2 SWAP1 POP JUMP JUMPDEST PUSH0 DUP3 DUP3 SHL SWAP1 POP SWAP3 SWAP2 POP POP JUMP JUMPDEST PUSH0 PUSH1 0x8 DUP4 MUL PUSH2 0x13EC PUSH32 0xFFFFFFFFFFFFFFFFFFFFFFFFFFFFFFFFFFFFFFFFFFFFFFFFFFFFFFFFFFFFFFFF DUP3 PUSH2 0x13B1 JUMP JUMPDEST PUSH2 0x13F6 DUP7 DUP4 PUSH2 0x13B1 JUMP JUMPDEST SWAP6 POP DUP1 NOT DUP5 AND SWAP4 POP DUP1 DUP7 AND DUP5 OR SWAP3 POP POP POP SWAP4 SWAP3 POP POP POP JUMP JUMPDEST PUSH0 DUP2 SWAP1 POP SWAP2 SWAP1 POP JUMP JUMPDEST PUSH0 PUSH2 0x1431 PUSH2 0x142C PUSH2 0x1427 DUP5 PUSH2 0xD3C JUMP JUMPDEST PUSH2 0x140E JUMP JUMPDEST PUSH2 0xD3C JUMP JUMPDEST SWAP1 POP SWAP2 SWAP1 POP JUMP JUMPDEST PUSH0 DUP2 SWAP1 POP SWAP2 SWAP1 POP JUMP JUMPDEST PUSH2 0x144A DUP4 PUSH2 0x1417 JUMP JUMPDEST PUSH2 0x145E PUSH2 0x1456 DUP3 PUSH2 0x1438 JUMP JUMPDEST DUP5 DUP5 SLOAD PUSH2 0x13BD JUMP JUMPDEST DUP3 SSTORE POP POP POP POP JUMP JUMPDEST PUSH0 SWAP1 JUMP JUMPDEST PUSH2 0x1472 PUSH2 0x1466 JUMP JUMPDEST PUSH2 0x147D DUP2 DUP5 DUP5 PUSH2 0x1441 JUMP JUMPDEST POP POP POP JUMP JUMPDEST JUMPDEST DUP2 DUP2 LT ISZERO PUSH2 0x14A0 JUMPI PUSH2 0x1495 PUSH0 DUP3 PUSH2 0x146A JUMP JUMPDEST PUSH1 0x1 DUP2 ADD SWAP1 POP PUSH2 0x1483 JUMP JUMPDEST POP POP JUMP JUMPDEST PUSH1 0x1F DUP3 GT ISZERO PUSH2 0x14E5 JUMPI PUSH2 0x14B6 DUP2 PUSH2 0x1390 JUMP JUMPDEST PUSH2 0x14BF DUP5 PUSH2 0x13A2 JUMP JUMPDEST DUP2 ADD PUSH1 0x20 DUP6 LT ISZERO PUSH2 0x14CE JUMPI DUP2 SWAP1 POP JUMPDEST PUSH2 0x14E2 PUSH2 0x14DA DUP6 PUSH2 0x13A2 JUMP JUMPDEST DUP4 ADD DUP3 PUSH2 0x1482 JUMP JUMPDEST POP POP JUMPDEST POP POP POP JUMP JUMPDEST PUSH0 DUP3 DUP3 SHR SWAP1 POP SWAP3 SWAP2 POP POP JUMP JUMPDEST PUSH0 PUSH2 0x1505 PUSH0 NOT DUP5 PUSH1 0x8 MUL PUSH2 0x14EA JUMP JUMPDEST NOT DUP1 DUP4 AND SWAP2 POP POP SWAP3 SWAP2 POP POP JUMP JUMPDEST PUSH0 PUSH2 0x151D DUP4 DUP4 PUSH2 0x14F6 JUMP JUMPDEST SWAP2 POP DUP3 PUSH1 0x2 MUL DUP3 OR SWAP1 POP SWAP3 SWAP2 POP POP JUMP JUMPDEST PUSH2 0x1536 DUP3 PUSH2 0xE91 JUMP JUMPDEST PUSH8 0xFFFFFFFFFFFFFFFF DUP2 GT ISZERO PUSH2 0x154F JUMPI PUSH2 0x154E PUSH2 0xF3F JUMP JUMPDEST JUMPDEST PUSH2 0x1559 DUP3 SLOAD PUSH2 0x1360 JUMP JUMPDEST PUSH2 0x1564 DUP3 DUP3 DUP6 PUSH2 0x14A4 JUMP JUMPDEST PUSH0 PUSH1 0x20 SWAP1 POP PUSH1 0x1F DUP4 GT PUSH1 0x1 DUP2 EQ PUSH2 0x1595 JUMPI PUSH0 DUP5 ISZERO PUSH2 0x1583 JUMPI DUP3 DUP8 ADD MLOAD SWAP1 POP JUMPDEST PUSH2 0x158D DUP6 DUP3 PUSH2 0x1512 JUMP JUMPDEST DUP7 SSTORE POP PUSH2 0x15F4 JUMP JUMPDEST PUSH1 0x1F NOT DUP5 AND PUSH2 0x15A3 DUP7 PUSH2 0x1390 JUMP JUMPDEST PUSH0 JUMPDEST DUP3 DUP2 LT ISZERO PUSH2 0x15CA JUMPI DUP5 DUP10 ADD MLOAD DUP3 SSTORE PUSH1 0x1 DUP3 ADD SWAP2 POP PUSH1 0x20 DUP6 ADD SWAP5 POP PUSH1 0x20 DUP2 ADD SWAP1 POP PUSH2 0x15A5 JUMP JUMPDEST DUP7 DUP4 LT ISZERO PUSH2 0x15E7 JUMPI DUP5 DUP10 ADD MLOAD PUSH2 0x15E3 PUSH1 0x1F DUP10 AND DUP3 PUSH2 0x14F6 JUMP JUMPDEST DUP4 SSTORE POP JUMPDEST PUSH1 0x1 PUSH1 0x2 DUP9 MUL ADD DUP9 SSTORE POP POP POP JUMPDEST POP POP POP POP POP POP JUMP JUMPDEST PUSH0 PUSH2 0x1606 DUP3 PUSH2 0xD3C JUMP JUMPDEST SWAP2 POP PUSH2 0x1611 DUP4 PUSH2 0xD3C JUMP JUMPDEST SWAP3 POP DUP3 PUSH2 0x1621 JUMPI PUSH2 0x1620 PUSH2 0x1262 JUMP JUMPDEST JUMPDEST DUP3 DUP3 DIV SWAP1 POP SWAP3 SWAP2 POP POP JUMP JUMPDEST PUSH0 PUSH2 0x1636 DUP3 PUSH2 0xD3C JUMP JUMPDEST SWAP2 POP PUSH2 0x1641 DUP4 PUSH2 0xD3C JUMP JUMPDEST SWAP3 POP DUP3 DUP3 SUB SWAP1 POP DUP2 DUP2 GT ISZERO PUSH2 0x1659 JUMPI PUSH2 0x1658 PUSH2 0x1202 JUMP JUMPDEST JUMPDEST SWAP3 SWAP2 POP POP JUMP INVALID LOG2 PUSH5 0x6970667358 0x22 SLT KECCAK256 0xCF 0xAF 0xEC CREATE2 DUP6 0xBA 0x21 PUSH14 0xE0A46174789FEA03A62BB259CF 0xD1 DUP7 0xDA RETURNDATACOPY 0x2B 0xEF PUSH6 0xE2F6ED64736F PUSH13 0x63430008160033000000000000 "
				},
				"gasEstimates": {
					"creation": {
						"codeDepositCost": "1156200",
						"executionCost": "infinite",
						"totalCost": "infinite"
					},
					"external": {
						"Ascending(uint256[])": "infinite",
						"checkMultipleOf(uint256)": "infinite",
						"deposit()": "164",
						"depositEther()": "infinite",
						"depositFinney()": "infinite",
						"depositWei()": "infinite",
						"getA()": "infinite",
						"getBalance()": "2433",
						"getMedian(uint256[])": "infinite",
						"setAtoB()": "infinite",
						"setAtoC()": "infinite",
						"test39(uint256)": "infinite",
						"withdraw()": "infinite"
					}
				},
				"methodIdentifiers": {
					"Ascending(uint256[])": "ea9d81bc",
					"checkMultipleOf(uint256)": "b117128c",
					"deposit()": "d0e30db0",
					"depositEther()": "98ea5fca",
					"depositFinney()": "710266e3",
					"depositWei()": "15488b88",
					"getA()": "d46300fd",
					"getBalance()": "12065fe0",
					"getMedian(uint256[])": "e8787f41",
					"setAtoB()": "d7956766",
					"setAtoC()": "b4f22d1a",
					"test39(uint256)": "fd172a91",
					"withdraw()": "3ccfd60b"
				}
			},
			"storageLayout": {
				"storage": [
					{
						"astId": 3,
						"contract": "basic_37_40.sol:Basic_37_40",
						"label": "owner",
						"offset": 0,
						"slot": "0",
						"type": "t_address_payable"
					},
					{
						"astId": 5,
						"contract": "basic_37_40.sol:Basic_37_40",
						"label": "balance",
						"offset": 0,
						"slot": "1",
						"type": "t_uint256"
					},
					{
						"astId": 7,
						"contract": "basic_37_40.sol:Basic_37_40",
						"label": "a",
						"offset": 0,
						"slot": "2",
						"type": "t_string_storage"
					}
				],
				"types": {
					"t_address_payable": {
						"encoding": "inplace",
						"label": "address payable",
						"numberOfBytes": "20"
					},
					"t_string_storage": {
						"encoding": "bytes",
						"label": "string",
						"numberOfBytes": "32"
					},
					"t_uint256": {
						"encoding": "inplace",
						"label": "uint256",
						"numberOfBytes": "32"
					}
				}
			},
			"userdoc": {
				"kind": "user",
				"methods": {},
				"version": 1
			}
		}
	}
}