{
	"Practice_20231222.sol": {
		"Practice": {
			"abi": [
				{
					"inputs": [
						{
							"internalType": "uint256",
							"name": "_a",
							"type": "uint256"
						},
						{
							"internalType": "uint256",
							"name": "_b",
							"type": "uint256"
						}
					],
					"name": "calc_add",
					"outputs": [
						{
							"internalType": "uint256",
							"name": "",
							"type": "uint256"
						}
					],
					"stateMutability": "pure",
					"type": "function"
				},
				{
					"inputs": [
						{
							"internalType": "uint256",
							"name": "_a",
							"type": "uint256"
						}
					],
					"name": "calc_cubed",
					"outputs": [
						{
							"internalType": "uint256",
							"name": "",
							"type": "uint256"
						}
					],
					"stateMutability": "pure",
					"type": "function"
				},
				{
					"inputs": [
						{
							"internalType": "uint256",
							"name": "_a",
							"type": "uint256"
						},
						{
							"internalType": "uint256",
							"name": "_b",
							"type": "uint256"
						}
					],
					"name": "calc_div",
					"outputs": [
						{
							"internalType": "uint256",
							"name": "",
							"type": "uint256"
						}
					],
					"stateMutability": "pure",
					"type": "function"
				},
				{
					"inputs": [
						{
							"internalType": "uint256",
							"name": "_a",
							"type": "uint256"
						},
						{
							"internalType": "uint256",
							"name": "_b",
							"type": "uint256"
						}
					],
					"name": "calc_mul",
					"outputs": [
						{
							"internalType": "uint256",
							"name": "",
							"type": "uint256"
						}
					],
					"stateMutability": "pure",
					"type": "function"
				},
				{
					"inputs": [
						{
							"internalType": "uint256",
							"name": "_a",
							"type": "uint256"
						}
					],
					"name": "calc_square",
					"outputs": [
						{
							"internalType": "uint256",
							"name": "",
							"type": "uint256"
						}
					],
					"stateMutability": "pure",
					"type": "function"
				},
				{
					"inputs": [
						{
							"internalType": "int256",
							"name": "_a",
							"type": "int256"
						},
						{
							"internalType": "int256",
							"name": "_b",
							"type": "int256"
						}
					],
					"name": "calc_sub",
					"outputs": [
						{
							"internalType": "int256",
							"name": "",
							"type": "int256"
						}
					],
					"stateMutability": "pure",
					"type": "function"
				},
				{
					"inputs": [
						{
							"internalType": "uint256",
							"name": "_n",
							"type": "uint256"
						}
					],
					"name": "check_grade",
					"outputs": [
						{
							"internalType": "string",
							"name": "",
							"type": "string"
						}
					],
					"stateMutability": "pure",
					"type": "function"
				},
				{
					"inputs": [
						{
							"internalType": "uint256",
							"name": "_n",
							"type": "uint256"
						}
					],
					"name": "custom_cal",
					"outputs": [
						{
							"internalType": "uint256",
							"name": "",
							"type": "uint256"
						}
					],
					"stateMutability": "pure",
					"type": "function"
				},
				{
					"inputs": [
						{
							"internalType": "string",
							"name": "_str",
							"type": "string"
						}
					],
					"name": "getBytes",
					"outputs": [
						{
							"internalType": "bytes",
							"name": "",
							"type": "bytes"
						}
					],
					"stateMutability": "pure",
					"type": "function"
				},
				{
					"inputs": [
						{
							"internalType": "uint256",
							"name": "_n",
							"type": "uint256"
						}
					],
					"name": "getNumber",
					"outputs": [
						{
							"internalType": "uint256",
							"name": "",
							"type": "uint256"
						}
					],
					"stateMutability": "view",
					"type": "function"
				},
				{
					"inputs": [],
					"name": "popNumber",
					"outputs": [],
					"stateMutability": "nonpayable",
					"type": "function"
				},
				{
					"inputs": [
						{
							"internalType": "uint256",
							"name": "_n",
							"type": "uint256"
						}
					],
					"name": "pushNumber",
					"outputs": [],
					"stateMutability": "nonpayable",
					"type": "function"
				},
				{
					"inputs": [],
					"name": "setNumbers1",
					"outputs": [],
					"stateMutability": "nonpayable",
					"type": "function"
				},
				{
					"inputs": [],
					"name": "setNumbers2",
					"outputs": [],
					"stateMutability": "nonpayable",
					"type": "function"
				},
				{
					"inputs": [],
					"name": "sumNumbers",
					"outputs": [
						{
							"internalType": "uint256",
							"name": "",
							"type": "uint256"
						}
					],
					"stateMutability": "view",
					"type": "function"
				}
			],
			"devdoc": {
				"kind": "dev",
				"methods": {},
				"version": 1
			},
			"evm": {
				"assembly": "    /* \"Practice_20231222.sol\":74:4248  contract Practice {... */\n  mstore(0x40, 0x80)\n  callvalue\n  dup1\n  iszero\n  tag_1\n  jumpi\n  0x00\n  dup1\n  revert\ntag_1:\n  pop\n  dataSize(sub_0)\n  dup1\n  dataOffset(sub_0)\n  0x00\n  codecopy\n  0x00\n  return\nstop\n\nsub_0: assembly {\n        /* \"Practice_20231222.sol\":74:4248  contract Practice {... */\n      mstore(0x40, 0x80)\n      callvalue\n      dup1\n      iszero\n      tag_1\n      jumpi\n      0x00\n      dup1\n      revert\n    tag_1:\n      pop\n      jumpi(tag_2, lt(calldatasize, 0x04))\n      shr(0xe0, calldataload(0x00))\n      dup1\n      0x9d953641\n      gt\n      tag_18\n      jumpi\n      dup1\n      0xcfb92e14\n      gt\n      tag_19\n      jumpi\n      dup1\n      0xcfb92e14\n      eq\n      tag_14\n      jumpi\n      dup1\n      0xd8de899d\n      eq\n      tag_15\n      jumpi\n      dup1\n      0xedf86c2f\n      eq\n      tag_16\n      jumpi\n      dup1\n      0xfc563658\n      eq\n      tag_17\n      jumpi\n      jump(tag_2)\n    tag_19:\n      dup1\n      0x9d953641\n      eq\n      tag_10\n      jumpi\n      dup1\n      0xa083317b\n      eq\n      tag_11\n      jumpi\n      dup1\n      0xa4de5946\n      eq\n      tag_12\n      jumpi\n      dup1\n      0xc6a5e08e\n      eq\n      tag_13\n      jumpi\n      jump(tag_2)\n    tag_18:\n      dup1\n      0x4cd273d2\n      gt\n      tag_20\n      jumpi\n      dup1\n      0x4cd273d2\n      eq\n      tag_6\n      jumpi\n      dup1\n      0x54e3ed0a\n      eq\n      tag_7\n      jumpi\n      dup1\n      0x68f25fae\n      eq\n      tag_8\n      jumpi\n      dup1\n      0x89066a3c\n      eq\n      tag_9\n      jumpi\n      jump(tag_2)\n    tag_20:\n      dup1\n      0x2705f37f\n      eq\n      tag_3\n      jumpi\n      dup1\n      0x2bfe1805\n      eq\n      tag_4\n      jumpi\n      dup1\n      0x3a2f9eb7\n      eq\n      tag_5\n      jumpi\n    tag_2:\n      0x00\n      dup1\n      revert\n        /* \"Practice_20231222.sol\":4063:4140  function popNumber() public {... */\n    tag_3:\n      tag_21\n      tag_22\n      jump\t// in\n    tag_21:\n      stop\n        /* \"Practice_20231222.sol\":3967:4055  function pushNumber(uint _n) public {... */\n    tag_4:\n      tag_23\n      0x04\n      dup1\n      calldatasize\n      sub\n      dup2\n      add\n      swap1\n      tag_24\n      swap2\n      swap1\n      tag_25\n      jump\t// in\n    tag_24:\n      tag_26\n      jump\t// in\n    tag_23:\n      stop\n        /* \"Practice_20231222.sol\":2800:2993  function sumNumbers() public view returns(uint){... */\n    tag_5:\n      tag_27\n      tag_28\n      jump\t// in\n    tag_27:\n      mload(0x40)\n      tag_29\n      swap2\n      swap1\n      tag_30\n      jump\t// in\n    tag_29:\n      mload(0x40)\n      dup1\n      swap2\n      sub\n      swap1\n      return\n        /* \"Practice_20231222.sol\":2658:2792  function setNumbers2() public {... */\n    tag_6:\n      tag_31\n      tag_32\n      jump\t// in\n    tag_31:\n      stop\n        /* \"Practice_20231222.sol\":767:862  function calc_mul(uint _a, uint _b) public pure returns(uint) {... */\n    tag_7:\n      tag_33\n      0x04\n      dup1\n      calldatasize\n      sub\n      dup2\n      add\n      swap1\n      tag_34\n      swap2\n      swap1\n      tag_35\n      jump\t// in\n    tag_34:\n      tag_36\n      jump\t// in\n    tag_33:\n      mload(0x40)\n      tag_37\n      swap2\n      swap1\n      tag_30\n      jump\t// in\n    tag_37:\n      mload(0x40)\n      dup1\n      swap2\n      sub\n      swap1\n      return\n        /* \"Practice_20231222.sol\":974:1064  function calc_square( uint _a ) public pure returns(uint) {... */\n    tag_8:\n      tag_38\n      0x04\n      dup1\n      calldatasize\n      sub\n      dup2\n      add\n      swap1\n      tag_39\n      swap2\n      swap1\n      tag_25\n      jump\t// in\n    tag_39:\n      tag_40\n      jump\t// in\n    tag_38:\n      mload(0x40)\n      tag_41\n      swap2\n      swap1\n      tag_30\n      jump\t// in\n    tag_41:\n      mload(0x40)\n      dup1\n      swap2\n      sub\n      swap1\n      return\n        /* \"Practice_20231222.sol\":2269:2404  function setNumbers1() public {... */\n    tag_9:\n      tag_42\n      tag_43\n      jump\t// in\n    tag_42:\n      stop\n        /* \"Practice_20231222.sol\":1072:1163  function calc_cubed( uint _a ) public pure returns(uint) {... */\n    tag_10:\n      tag_44\n      0x04\n      dup1\n      calldatasize\n      sub\n      dup2\n      add\n      swap1\n      tag_45\n      swap2\n      swap1\n      tag_25\n      jump\t// in\n    tag_45:\n      tag_46\n      jump\t// in\n    tag_44:\n      mload(0x40)\n      tag_47\n      swap2\n      swap1\n      tag_30\n      jump\t// in\n    tag_47:\n      mload(0x40)\n      dup1\n      swap2\n      sub\n      swap1\n      return\n        /* \"Practice_20231222.sol\":870:966  function calc_div( uint _a, uint _b) public pure returns(uint) {... */\n    tag_11:\n      tag_48\n      0x04\n      dup1\n      calldatasize\n      sub\n      dup2\n      add\n      swap1\n      tag_49\n      swap2\n      swap1\n      tag_35\n      jump\t// in\n    tag_49:\n      tag_50\n      jump\t// in\n    tag_48:\n      mload(0x40)\n      tag_51\n      swap2\n      swap1\n      tag_30\n      jump\t// in\n    tag_51:\n      mload(0x40)\n      dup1\n      swap2\n      sub\n      swap1\n      return\n        /* \"Practice_20231222.sol\":3212:3554  function check_grade(uint _n) public pure returns(string memory) {... */\n    tag_12:\n      tag_52\n      0x04\n      dup1\n      calldatasize\n      sub\n      dup2\n      add\n      swap1\n      tag_53\n      swap2\n      swap1\n      tag_25\n      jump\t// in\n    tag_53:\n      tag_54\n      jump\t// in\n    tag_52:\n      mload(0x40)\n      tag_55\n      swap2\n      swap1\n      tag_56\n      jump\t// in\n    tag_55:\n      mload(0x40)\n      dup1\n      swap2\n      sub\n      swap1\n      return\n        /* \"Practice_20231222.sol\":656:759  function calc_sub(int256 _a, int256 _b) public pure returns(int256) {... */\n    tag_13:\n      tag_57\n      0x04\n      dup1\n      calldatasize\n      sub\n      dup2\n      add\n      swap1\n      tag_58\n      swap2\n      swap1\n      tag_59\n      jump\t// in\n    tag_58:\n      tag_60\n      jump\t// in\n    tag_57:\n      mload(0x40)\n      tag_61\n      swap2\n      swap1\n      tag_62\n      jump\t// in\n    tag_61:\n      mload(0x40)\n      dup1\n      swap2\n      sub\n      swap1\n      return\n        /* \"Practice_20231222.sol\":553:648  function calc_add(uint _a, uint _b) public pure returns(uint) {... */\n    tag_14:\n      tag_63\n      0x04\n      dup1\n      calldatasize\n      sub\n      dup2\n      add\n      swap1\n      tag_64\n      swap2\n      swap1\n      tag_35\n      jump\t// in\n    tag_64:\n      tag_65\n      jump\t// in\n    tag_63:\n      mload(0x40)\n      tag_66\n      swap2\n      swap1\n      tag_30\n      jump\t// in\n    tag_66:\n      mload(0x40)\n      dup1\n      swap2\n      sub\n      swap1\n      return\n        /* \"Practice_20231222.sol\":3665:3774  function getBytes(string memory _str) public pure returns(bytes memory) {... */\n    tag_15:\n      tag_67\n      0x04\n      dup1\n      calldatasize\n      sub\n      dup2\n      add\n      swap1\n      tag_68\n      swap2\n      swap1\n      tag_69\n      jump\t// in\n    tag_68:\n      tag_70\n      jump\t// in\n    tag_67:\n      mload(0x40)\n      tag_71\n      swap2\n      swap1\n      tag_72\n      jump\t// in\n    tag_71:\n      mload(0x40)\n      dup1\n      swap2\n      sub\n      swap1\n      return\n        /* \"Practice_20231222.sol\":1783:2074  function custom_cal(uint _n) public pure returns(uint) {... */\n    tag_16:\n      tag_73\n      0x04\n      dup1\n      calldatasize\n      sub\n      dup2\n      add\n      swap1\n      tag_74\n      swap2\n      swap1\n      tag_25\n      jump\t// in\n    tag_74:\n      tag_75\n      jump\t// in\n    tag_73:\n      mload(0x40)\n      tag_76\n      swap2\n      swap1\n      tag_30\n      jump\t// in\n    tag_76:\n      mload(0x40)\n      dup1\n      swap2\n      sub\n      swap1\n      return\n        /* \"Practice_20231222.sol\":4148:4239  function getNumber(uint _n) public view returns(uint) {... */\n    tag_17:\n      tag_77\n      0x04\n      dup1\n      calldatasize\n      sub\n      dup2\n      add\n      swap1\n      tag_78\n      swap2\n      swap1\n      tag_25\n      jump\t// in\n    tag_78:\n      tag_79\n      jump\t// in\n    tag_77:\n      mload(0x40)\n      tag_80\n      swap2\n      swap1\n      tag_30\n      jump\t// in\n    tag_80:\n      mload(0x40)\n      dup1\n      swap2\n      sub\n      swap1\n      return\n        /* \"Practice_20231222.sol\":4063:4140  function popNumber() public {... */\n    tag_22:\n        /* \"Practice_20231222.sol\":4102:4109  numbers */\n      0x01\n        /* \"Practice_20231222.sol\":4102:4115  numbers.pop() */\n      dup1\n      sload\n      dup1\n      tag_82\n      jumpi\n      tag_83\n      tag_84\n      jump\t// in\n    tag_83:\n    tag_82:\n      0x01\n      swap1\n      sub\n      dup2\n      dup2\n      swap1\n      0x00\n      mstore\n      keccak256(0x00, 0x20)\n      add\n      0x00\n      swap1\n      sstore\n      swap1\n      sstore\n        /* \"Practice_20231222.sol\":4063:4140  function popNumber() public {... */\n      jump\t// out\n        /* \"Practice_20231222.sol\":3967:4055  function pushNumber(uint _n) public {... */\n    tag_26:\n        /* \"Practice_20231222.sol\":4014:4021  numbers */\n      0x01\n        /* \"Practice_20231222.sol\":4027:4029  _n */\n      dup2\n        /* \"Practice_20231222.sol\":4014:4030  numbers.push(_n) */\n      swap1\n      dup1\n      0x01\n      dup2\n      sload\n      add\n      dup1\n      dup3\n      sstore\n      dup1\n      swap2\n      pop\n      pop\n      0x01\n      swap1\n      sub\n      swap1\n      0x00\n      mstore\n      keccak256(0x00, 0x20)\n      add\n      0x00\n      swap1\n      swap2\n      swap1\n      swap2\n      swap1\n      swap2\n      pop\n      sstore\n        /* \"Practice_20231222.sol\":3967:4055  function pushNumber(uint _n) public {... */\n      pop\n      jump\t// out\n        /* \"Practice_20231222.sol\":2800:2993  function sumNumbers() public view returns(uint){... */\n    tag_28:\n        /* \"Practice_20231222.sol\":2842:2846  uint */\n      0x00\n        /* \"Practice_20231222.sol\":2858:2866  uint sum */\n      dup1\n        /* \"Practice_20231222.sol\":2884:2890  uint i */\n      0x00\n        /* \"Practice_20231222.sol\":2879:2963  for( uint i=0; i < numbers.length; i++) {... */\n    tag_89:\n        /* \"Practice_20231222.sol\":2898:2905  numbers */\n      0x01\n        /* \"Practice_20231222.sol\":2898:2912  numbers.length */\n      dup1\n      sload\n      swap1\n      pop\n        /* \"Practice_20231222.sol\":2894:2895  i */\n      dup2\n        /* \"Practice_20231222.sol\":2894:2912  i < numbers.length */\n      lt\n        /* \"Practice_20231222.sol\":2879:2963  for( uint i=0; i < numbers.length; i++) {... */\n      iszero\n      tag_90\n      jumpi\n        /* \"Practice_20231222.sol\":2941:2948  numbers */\n      0x01\n        /* \"Practice_20231222.sol\":2949:2950  i */\n      dup2\n        /* \"Practice_20231222.sol\":2941:2951  numbers[i] */\n      dup2\n      sload\n      dup2\n      lt\n      tag_92\n      jumpi\n      tag_93\n      tag_94\n      jump\t// in\n    tag_93:\n    tag_92:\n      swap1\n      0x00\n      mstore\n      keccak256(0x00, 0x20)\n      add\n      sload\n        /* \"Practice_20231222.sol\":2934:2951  sum += numbers[i] */\n      dup3\n      tag_96\n      swap2\n      swap1\n      tag_97\n      jump\t// in\n    tag_96:\n      swap2\n      pop\n        /* \"Practice_20231222.sol\":2914:2917  i++ */\n      dup1\n      dup1\n      0x01\n      add\n      swap2\n      pop\n      pop\n        /* \"Practice_20231222.sol\":2879:2963  for( uint i=0; i < numbers.length; i++) {... */\n      jump(tag_89)\n    tag_90:\n      pop\n        /* \"Practice_20231222.sol\":2982:2985  sum */\n      dup1\n        /* \"Practice_20231222.sol\":2975:2985  return sum */\n      swap2\n      pop\n      pop\n        /* \"Practice_20231222.sol\":2800:2993  function sumNumbers() public view returns(uint){... */\n      swap1\n      jump\t// out\n        /* \"Practice_20231222.sol\":2658:2792  function setNumbers2() public {... */\n    tag_32:\n        /* \"Practice_20231222.sol\":2704:2710  uint i */\n      0x00\n        /* \"Practice_20231222.sol\":2699:2768  for( uint i=0; i < 6; i++ ){... */\n    tag_99:\n        /* \"Practice_20231222.sol\":2718:2719  6 */\n      0x06\n        /* \"Practice_20231222.sol\":2714:2715  i */\n      dup2\n        /* \"Practice_20231222.sol\":2714:2719  i < 6 */\n      lt\n        /* \"Practice_20231222.sol\":2699:2768  for( uint i=0; i < 6; i++ ){... */\n      iszero\n      tag_100\n      jumpi\n        /* \"Practice_20231222.sol\":2741:2748  numbers */\n      0x01\n        /* \"Practice_20231222.sol\":2754:2755  i */\n      dup2\n        /* \"Practice_20231222.sol\":2741:2756  numbers.push(i) */\n      swap1\n      dup1\n      0x01\n      dup2\n      sload\n      add\n      dup1\n      dup3\n      sstore\n      dup1\n      swap2\n      pop\n      pop\n      0x01\n      swap1\n      sub\n      swap1\n      0x00\n      mstore\n      keccak256(0x00, 0x20)\n      add\n      0x00\n      swap1\n      swap2\n      swap1\n      swap2\n      swap1\n      swap2\n      pop\n      sstore\n        /* \"Practice_20231222.sol\":2721:2724  i++ */\n      dup1\n      dup1\n      0x01\n      add\n      swap2\n      pop\n      pop\n        /* \"Practice_20231222.sol\":2699:2768  for( uint i=0; i < 6; i++ ){... */\n      jump(tag_99)\n    tag_100:\n      pop\n        /* \"Practice_20231222.sol\":2658:2792  function setNumbers2() public {... */\n      jump\t// out\n        /* \"Practice_20231222.sol\":767:862  function calc_mul(uint _a, uint _b) public pure returns(uint) {... */\n    tag_36:\n        /* \"Practice_20231222.sol\":823:827  uint */\n      0x00\n        /* \"Practice_20231222.sol\":852:854  _b */\n      dup2\n        /* \"Practice_20231222.sol\":847:849  _a */\n      dup4\n        /* \"Practice_20231222.sol\":847:854  _a * _b */\n      tag_104\n      swap2\n      swap1\n      tag_105\n      jump\t// in\n    tag_104:\n        /* \"Practice_20231222.sol\":840:854  return _a * _b */\n      swap1\n      pop\n        /* \"Practice_20231222.sol\":767:862  function calc_mul(uint _a, uint _b) public pure returns(uint) {... */\n      swap3\n      swap2\n      pop\n      pop\n      jump\t// out\n        /* \"Practice_20231222.sol\":974:1064  function calc_square( uint _a ) public pure returns(uint) {... */\n    tag_40:\n        /* \"Practice_20231222.sol\":1026:1030  uint */\n      0x00\n        /* \"Practice_20231222.sol\":1054:1056  _a */\n      dup2\n        /* \"Practice_20231222.sol\":1050:1056  _a*=_a */\n      dup3\n      tag_107\n      swap2\n      swap1\n      tag_105\n      jump\t// in\n    tag_107:\n      swap2\n      pop\n      dup2\n        /* \"Practice_20231222.sol\":1043:1056  return _a*=_a */\n      swap1\n      pop\n        /* \"Practice_20231222.sol\":974:1064  function calc_square( uint _a ) public pure returns(uint) {... */\n      swap2\n      swap1\n      pop\n      jump\t// out\n        /* \"Practice_20231222.sol\":2269:2404  function setNumbers1() public {... */\n    tag_43:\n        /* \"Practice_20231222.sol\":2315:2321  uint i */\n      0x00\n        /* \"Practice_20231222.sol\":2310:2380  for( uint i=0; i < 10; i++ ){... */\n    tag_109:\n        /* \"Practice_20231222.sol\":2329:2331  10 */\n      0x0a\n        /* \"Practice_20231222.sol\":2325:2326  i */\n      dup2\n        /* \"Practice_20231222.sol\":2325:2331  i < 10 */\n      lt\n        /* \"Practice_20231222.sol\":2310:2380  for( uint i=0; i < 10; i++ ){... */\n      iszero\n      tag_110\n      jumpi\n        /* \"Practice_20231222.sol\":2353:2360  numbers */\n      0x01\n        /* \"Practice_20231222.sol\":2366:2367  i */\n      dup2\n        /* \"Practice_20231222.sol\":2353:2368  numbers.push(i) */\n      swap1\n      dup1\n      0x01\n      dup2\n      sload\n      add\n      dup1\n      dup3\n      sstore\n      dup1\n      swap2\n      pop\n      pop\n      0x01\n      swap1\n      sub\n      swap1\n      0x00\n      mstore\n      keccak256(0x00, 0x20)\n      add\n      0x00\n      swap1\n      swap2\n      swap1\n      swap2\n      swap1\n      swap2\n      pop\n      sstore\n        /* \"Practice_20231222.sol\":2333:2336  i++ */\n      dup1\n      dup1\n      0x01\n      add\n      swap2\n      pop\n      pop\n        /* \"Practice_20231222.sol\":2310:2380  for( uint i=0; i < 10; i++ ){... */\n      jump(tag_109)\n    tag_110:\n      pop\n        /* \"Practice_20231222.sol\":2269:2404  function setNumbers1() public {... */\n      jump\t// out\n        /* \"Practice_20231222.sol\":1072:1163  function calc_cubed( uint _a ) public pure returns(uint) {... */\n    tag_46:\n        /* \"Practice_20231222.sol\":1123:1127  uint */\n      0x00\n        /* \"Practice_20231222.sol\":1153:1155  _a */\n      dup2\n        /* \"Practice_20231222.sol\":1150:1152  _a */\n      dup3\n        /* \"Practice_20231222.sol\":1147:1149  _a */\n      dup4\n        /* \"Practice_20231222.sol\":1147:1152  _a*_a */\n      tag_114\n      swap2\n      swap1\n      tag_105\n      jump\t// in\n    tag_114:\n        /* \"Practice_20231222.sol\":1147:1155  _a*_a*_a */\n      tag_115\n      swap2\n      swap1\n      tag_105\n      jump\t// in\n    tag_115:\n        /* \"Practice_20231222.sol\":1140:1155  return _a*_a*_a */\n      swap1\n      pop\n        /* \"Practice_20231222.sol\":1072:1163  function calc_cubed( uint _a ) public pure returns(uint) {... */\n      swap2\n      swap1\n      pop\n      jump\t// out\n        /* \"Practice_20231222.sol\":870:966  function calc_div( uint _a, uint _b) public pure returns(uint) {... */\n    tag_50:\n        /* \"Practice_20231222.sol\":927:931  uint */\n      0x00\n        /* \"Practice_20231222.sol\":956:958  _b */\n      dup2\n        /* \"Practice_20231222.sol\":951:953  _a */\n      dup4\n        /* \"Practice_20231222.sol\":951:958  _a / _b */\n      tag_117\n      swap2\n      swap1\n      tag_118\n      jump\t// in\n    tag_117:\n        /* \"Practice_20231222.sol\":944:958  return _a / _b */\n      swap1\n      pop\n        /* \"Practice_20231222.sol\":870:966  function calc_div( uint _a, uint _b) public pure returns(uint) {... */\n      swap3\n      swap2\n      pop\n      pop\n      jump\t// out\n        /* \"Practice_20231222.sol\":3212:3554  function check_grade(uint _n) public pure returns(string memory) {... */\n    tag_54:\n        /* \"Practice_20231222.sol\":3262:3275  string memory */\n      0x60\n        /* \"Practice_20231222.sol\":3288:3307  string memory grade */\n      dup1\n        /* \"Practice_20231222.sol\":3329:3330  1 */\n      0x01\n        /* \"Practice_20231222.sol\":3324:3326  _n */\n      dup4\n        /* \"Practice_20231222.sol\":3324:3330  _n >=1 */\n      lt\n      iszero\n        /* \"Practice_20231222.sol\":3324:3342  _n >=1 && _n <= 10 */\n      dup1\n      iszero\n      tag_120\n      jumpi\n      pop\n        /* \"Practice_20231222.sol\":3340:3342  10 */\n      0x0a\n        /* \"Practice_20231222.sol\":3334:3336  _n */\n      dup4\n        /* \"Practice_20231222.sol\":3334:3342  _n <= 10 */\n      gt\n      iszero\n        /* \"Practice_20231222.sol\":3324:3342  _n >=1 && _n <= 10 */\n    tag_120:\n        /* \"Practice_20231222.sol\":3320:3522  if( _n >=1 && _n <= 10) {... */\n      iszero\n      tag_121\n      jumpi\n        /* \"Practice_20231222.sol\":3359:3370  grade = \"A\" */\n      mload(0x40)\n      dup1\n      0x40\n      add\n      0x40\n      mstore\n      dup1\n      0x01\n      dup2\n      mstore\n      0x20\n      add\n      0x4100000000000000000000000000000000000000000000000000000000000000\n      dup2\n      mstore\n      pop\n      swap1\n      pop\n        /* \"Practice_20231222.sol\":3320:3522  if( _n >=1 && _n <= 10) {... */\n      jump(tag_122)\n    tag_121:\n        /* \"Practice_20231222.sol\":3398:3400  11 */\n      0x0b\n        /* \"Practice_20231222.sol\":3392:3394  _n */\n      dup4\n        /* \"Practice_20231222.sol\":3392:3400  _n >= 11 */\n      lt\n      iszero\n        /* \"Practice_20231222.sol\":3392:3412  _n >= 11 && _n <= 20 */\n      dup1\n      iszero\n      tag_123\n      jumpi\n      pop\n        /* \"Practice_20231222.sol\":3410:3412  20 */\n      0x14\n        /* \"Practice_20231222.sol\":3404:3406  _n */\n      dup4\n        /* \"Practice_20231222.sol\":3404:3412  _n <= 20 */\n      gt\n      iszero\n        /* \"Practice_20231222.sol\":3392:3412  _n >= 11 && _n <= 20 */\n    tag_123:\n        /* \"Practice_20231222.sol\":3388:3522  if( _n >= 11 && _n <= 20) {... */\n      iszero\n      tag_124\n      jumpi\n        /* \"Practice_20231222.sol\":3429:3440  grade = \"B\" */\n      mload(0x40)\n      dup1\n      0x40\n      add\n      0x40\n      mstore\n      dup1\n      0x01\n      dup2\n      mstore\n      0x20\n      add\n      0x4200000000000000000000000000000000000000000000000000000000000000\n      dup2\n      mstore\n      pop\n      swap1\n      pop\n        /* \"Practice_20231222.sol\":3388:3522  if( _n >= 11 && _n <= 20) {... */\n      jump(tag_125)\n    tag_124:\n        /* \"Practice_20231222.sol\":3468:3470  21 */\n      0x15\n        /* \"Practice_20231222.sol\":3462:3464  _n */\n      dup4\n        /* \"Practice_20231222.sol\":3462:3470  _n >= 21 */\n      lt\n      iszero\n        /* \"Practice_20231222.sol\":3462:3482  _n >= 21 && _n <= 30 */\n      dup1\n      iszero\n      tag_126\n      jumpi\n      pop\n        /* \"Practice_20231222.sol\":3480:3482  30 */\n      0x1e\n        /* \"Practice_20231222.sol\":3474:3476  _n */\n      dup4\n        /* \"Practice_20231222.sol\":3474:3482  _n <= 30 */\n      gt\n      iszero\n        /* \"Practice_20231222.sol\":3462:3482  _n >= 21 && _n <= 30 */\n    tag_126:\n        /* \"Practice_20231222.sol\":3458:3522  if( _n >= 21 && _n <= 30) {... */\n      iszero\n      tag_127\n      jumpi\n        /* \"Practice_20231222.sol\":3499:3510  grade = \"C\" */\n      mload(0x40)\n      dup1\n      0x40\n      add\n      0x40\n      mstore\n      dup1\n      0x01\n      dup2\n      mstore\n      0x20\n      add\n      0x4300000000000000000000000000000000000000000000000000000000000000\n      dup2\n      mstore\n      pop\n      swap1\n      pop\n        /* \"Practice_20231222.sol\":3458:3522  if( _n >= 21 && _n <= 30) {... */\n    tag_127:\n        /* \"Practice_20231222.sol\":3388:3522  if( _n >= 11 && _n <= 20) {... */\n    tag_125:\n        /* \"Practice_20231222.sol\":3320:3522  if( _n >=1 && _n <= 10) {... */\n    tag_122:\n        /* \"Practice_20231222.sol\":3541:3546  grade */\n      dup1\n        /* \"Practice_20231222.sol\":3534:3546  return grade */\n      swap2\n      pop\n      pop\n        /* \"Practice_20231222.sol\":3212:3554  function check_grade(uint _n) public pure returns(string memory) {... */\n      swap2\n      swap1\n      pop\n      jump\t// out\n        /* \"Practice_20231222.sol\":656:759  function calc_sub(int256 _a, int256 _b) public pure returns(int256) {... */\n    tag_60:\n        /* \"Practice_20231222.sol\":716:722  int256 */\n      0x00\n        /* \"Practice_20231222.sol\":748:750  _b */\n      dup2\n        /* \"Practice_20231222.sol\":743:745  _a */\n      dup4\n        /* \"Practice_20231222.sol\":743:750  _a - _b */\n      tag_129\n      swap2\n      swap1\n      tag_130\n      jump\t// in\n    tag_129:\n        /* \"Practice_20231222.sol\":735:751  return (_a - _b) */\n      swap1\n      pop\n        /* \"Practice_20231222.sol\":656:759  function calc_sub(int256 _a, int256 _b) public pure returns(int256) {... */\n      swap3\n      swap2\n      pop\n      pop\n      jump\t// out\n        /* \"Practice_20231222.sol\":553:648  function calc_add(uint _a, uint _b) public pure returns(uint) {... */\n    tag_65:\n        /* \"Practice_20231222.sol\":609:613  uint */\n      0x00\n        /* \"Practice_20231222.sol\":638:640  _b */\n      dup2\n        /* \"Practice_20231222.sol\":633:635  _a */\n      dup4\n        /* \"Practice_20231222.sol\":633:640  _a + _b */\n      tag_132\n      swap2\n      swap1\n      tag_97\n      jump\t// in\n    tag_132:\n        /* \"Practice_20231222.sol\":626:640  return _a + _b */\n      swap1\n      pop\n        /* \"Practice_20231222.sol\":553:648  function calc_add(uint _a, uint _b) public pure returns(uint) {... */\n      swap3\n      swap2\n      pop\n      pop\n      jump\t// out\n        /* \"Practice_20231222.sol\":3665:3774  function getBytes(string memory _str) public pure returns(bytes memory) {... */\n    tag_70:\n        /* \"Practice_20231222.sol\":3723:3735  bytes memory */\n      0x60\n        /* \"Practice_20231222.sol\":3761:3765  _str */\n      dup2\n        /* \"Practice_20231222.sol\":3748:3766  return bytes(_str) */\n      swap1\n      pop\n        /* \"Practice_20231222.sol\":3665:3774  function getBytes(string memory _str) public pure returns(bytes memory) {... */\n      swap2\n      swap1\n      pop\n      jump\t// out\n        /* \"Practice_20231222.sol\":1783:2074  function custom_cal(uint _n) public pure returns(uint) {... */\n    tag_75:\n        /* \"Practice_20231222.sol\":1832:1836  uint */\n      0x00\n        /* \"Practice_20231222.sol\":1858:1859  1 */\n      0x01\n        /* \"Practice_20231222.sol\":1853:1855  _n */\n      dup3\n        /* \"Practice_20231222.sol\":1853:1859  _n >=1 */\n      lt\n      iszero\n        /* \"Practice_20231222.sol\":1853:1870  _n >=1 && _n <= 3 */\n      dup1\n      iszero\n      tag_135\n      jumpi\n      pop\n        /* \"Practice_20231222.sol\":1869:1870  3 */\n      0x03\n        /* \"Practice_20231222.sol\":1863:1865  _n */\n      dup3\n        /* \"Practice_20231222.sol\":1863:1870  _n <= 3 */\n      gt\n      iszero\n        /* \"Practice_20231222.sol\":1853:1870  _n >=1 && _n <= 3 */\n    tag_135:\n        /* \"Practice_20231222.sol\":1849:2047  if( _n >=1 && _n <= 3) {... */\n      iszero\n      tag_136\n      jumpi\n        /* \"Practice_20231222.sol\":1897:1899  _n */\n      dup2\n        /* \"Practice_20231222.sol\":1894:1896  _n */\n      dup3\n        /* \"Practice_20231222.sol\":1894:1899  _n*_n */\n      tag_137\n      swap2\n      swap1\n      tag_105\n      jump\t// in\n    tag_137:\n        /* \"Practice_20231222.sol\":1887:1899  return _n*_n */\n      swap1\n      pop\n      jump(tag_134)\n        /* \"Practice_20231222.sol\":1849:2047  if( _n >=1 && _n <= 3) {... */\n    tag_136:\n        /* \"Practice_20231222.sol\":1927:1928  4 */\n      0x04\n        /* \"Practice_20231222.sol\":1921:1923  _n */\n      dup3\n        /* \"Practice_20231222.sol\":1921:1928  _n >= 4 */\n      lt\n      iszero\n        /* \"Practice_20231222.sol\":1921:1939  _n >= 4 && _n <= 6 */\n      dup1\n      iszero\n      tag_139\n      jumpi\n      pop\n        /* \"Practice_20231222.sol\":1938:1939  6 */\n      0x06\n        /* \"Practice_20231222.sol\":1932:1934  _n */\n      dup3\n        /* \"Practice_20231222.sol\":1932:1939  _n <= 6 */\n      gt\n      iszero\n        /* \"Practice_20231222.sol\":1921:1939  _n >= 4 && _n <= 6 */\n    tag_139:\n        /* \"Practice_20231222.sol\":1917:2047  if( _n >= 4 && _n <= 6) {... */\n      iszero\n      tag_140\n      jumpi\n        /* \"Practice_20231222.sol\":1966:1967  2 */\n      0x02\n        /* \"Practice_20231222.sol\":1963:1965  _n */\n      dup3\n        /* \"Practice_20231222.sol\":1963:1967  _n*2 */\n      tag_141\n      swap2\n      swap1\n      tag_105\n      jump\t// in\n    tag_141:\n        /* \"Practice_20231222.sol\":1956:1967  return _n*2 */\n      swap1\n      pop\n      jump(tag_134)\n        /* \"Practice_20231222.sol\":1917:2047  if( _n >= 4 && _n <= 6) {... */\n    tag_140:\n        /* \"Practice_20231222.sol\":1995:1996  7 */\n      0x07\n        /* \"Practice_20231222.sol\":1989:1991  _n */\n      dup3\n        /* \"Practice_20231222.sol\":1989:1996  _n >= 7 */\n      lt\n      iszero\n        /* \"Practice_20231222.sol\":1989:2007  _n >= 7 && _n <= 9 */\n      dup1\n      iszero\n      tag_143\n      jumpi\n      pop\n        /* \"Practice_20231222.sol\":2006:2007  9 */\n      0x09\n        /* \"Practice_20231222.sol\":2000:2002  _n */\n      dup3\n        /* \"Practice_20231222.sol\":2000:2007  _n <= 9 */\n      gt\n      iszero\n        /* \"Practice_20231222.sol\":1989:2007  _n >= 7 && _n <= 9 */\n    tag_143:\n        /* \"Practice_20231222.sol\":1985:2047  if( _n >= 7 && _n <= 9) {... */\n      iszero\n      tag_144\n      jumpi\n        /* \"Practice_20231222.sol\":2034:2035  3 */\n      0x03\n        /* \"Practice_20231222.sol\":2031:2033  _n */\n      dup3\n        /* \"Practice_20231222.sol\":2031:2035  _n%3 */\n      tag_145\n      swap2\n      swap1\n      tag_146\n      jump\t// in\n    tag_145:\n        /* \"Practice_20231222.sol\":2024:2035  return _n%3 */\n      swap1\n      pop\n      jump(tag_134)\n        /* \"Practice_20231222.sol\":1985:2047  if( _n >= 7 && _n <= 9) {... */\n    tag_144:\n        /* \"Practice_20231222.sol\":2064:2066  _n */\n      dup2\n        /* \"Practice_20231222.sol\":2057:2066  return _n */\n      swap1\n      pop\n        /* \"Practice_20231222.sol\":1783:2074  function custom_cal(uint _n) public pure returns(uint) {... */\n    tag_134:\n      swap2\n      swap1\n      pop\n      jump\t// out\n        /* \"Practice_20231222.sol\":4148:4239  function getNumber(uint _n) public view returns(uint) {... */\n    tag_79:\n        /* \"Practice_20231222.sol\":4196:4200  uint */\n      0x00\n        /* \"Practice_20231222.sol\":4220:4227  numbers */\n      0x01\n        /* \"Practice_20231222.sol\":4228:4230  _n */\n      dup3\n        /* \"Practice_20231222.sol\":4220:4231  numbers[_n] */\n      dup2\n      sload\n      dup2\n      lt\n      tag_148\n      jumpi\n      tag_149\n      tag_94\n      jump\t// in\n    tag_149:\n    tag_148:\n      swap1\n      0x00\n      mstore\n      keccak256(0x00, 0x20)\n      add\n      sload\n        /* \"Practice_20231222.sol\":4213:4231  return numbers[_n] */\n      swap1\n      pop\n        /* \"Practice_20231222.sol\":4148:4239  function getNumber(uint _n) public view returns(uint) {... */\n      swap2\n      swap1\n      pop\n      jump\t// out\n        /* \"#utility.yul\":7:82   */\n    tag_151:\n        /* \"#utility.yul\":40:46   */\n      0x00\n        /* \"#utility.yul\":73:75   */\n      0x40\n        /* \"#utility.yul\":67:76   */\n      mload\n        /* \"#utility.yul\":57:76   */\n      swap1\n      pop\n        /* \"#utility.yul\":7:82   */\n      swap1\n      jump\t// out\n        /* \"#utility.yul\":88:205   */\n    tag_152:\n        /* \"#utility.yul\":197:198   */\n      0x00\n        /* \"#utility.yul\":194:195   */\n      dup1\n        /* \"#utility.yul\":187:199   */\n      revert\n        /* \"#utility.yul\":211:328   */\n    tag_153:\n        /* \"#utility.yul\":320:321   */\n      0x00\n        /* \"#utility.yul\":317:318   */\n      dup1\n        /* \"#utility.yul\":310:322   */\n      revert\n        /* \"#utility.yul\":334:411   */\n    tag_154:\n        /* \"#utility.yul\":371:378   */\n      0x00\n        /* \"#utility.yul\":400:405   */\n      dup2\n        /* \"#utility.yul\":389:405   */\n      swap1\n      pop\n        /* \"#utility.yul\":334:411   */\n      swap2\n      swap1\n      pop\n      jump\t// out\n        /* \"#utility.yul\":417:539   */\n    tag_155:\n        /* \"#utility.yul\":490:514   */\n      tag_187\n        /* \"#utility.yul\":508:513   */\n      dup2\n        /* \"#utility.yul\":490:514   */\n      tag_154\n      jump\t// in\n    tag_187:\n        /* \"#utility.yul\":483:488   */\n      dup2\n        /* \"#utility.yul\":480:515   */\n      eq\n        /* \"#utility.yul\":470:533   */\n      tag_188\n      jumpi\n        /* \"#utility.yul\":529:530   */\n      0x00\n        /* \"#utility.yul\":526:527   */\n      dup1\n        /* \"#utility.yul\":519:531   */\n      revert\n        /* \"#utility.yul\":470:533   */\n    tag_188:\n        /* \"#utility.yul\":417:539   */\n      pop\n      jump\t// out\n        /* \"#utility.yul\":545:684   */\n    tag_156:\n        /* \"#utility.yul\":591:596   */\n      0x00\n        /* \"#utility.yul\":629:635   */\n      dup2\n        /* \"#utility.yul\":616:636   */\n      calldataload\n        /* \"#utility.yul\":607:636   */\n      swap1\n      pop\n        /* \"#utility.yul\":645:678   */\n      tag_190\n        /* \"#utility.yul\":672:677   */\n      dup2\n        /* \"#utility.yul\":645:678   */\n      tag_155\n      jump\t// in\n    tag_190:\n        /* \"#utility.yul\":545:684   */\n      swap3\n      swap2\n      pop\n      pop\n      jump\t// out\n        /* \"#utility.yul\":690:1019   */\n    tag_25:\n        /* \"#utility.yul\":749:755   */\n      0x00\n        /* \"#utility.yul\":798:800   */\n      0x20\n        /* \"#utility.yul\":786:795   */\n      dup3\n        /* \"#utility.yul\":777:784   */\n      dup5\n        /* \"#utility.yul\":773:796   */\n      sub\n        /* \"#utility.yul\":769:801   */\n      slt\n        /* \"#utility.yul\":766:885   */\n      iszero\n      tag_192\n      jumpi\n        /* \"#utility.yul\":804:883   */\n      tag_193\n      tag_152\n      jump\t// in\n    tag_193:\n        /* \"#utility.yul\":766:885   */\n    tag_192:\n        /* \"#utility.yul\":924:925   */\n      0x00\n        /* \"#utility.yul\":949:1002   */\n      tag_194\n        /* \"#utility.yul\":994:1001   */\n      dup5\n        /* \"#utility.yul\":985:991   */\n      dup3\n        /* \"#utility.yul\":974:983   */\n      dup6\n        /* \"#utility.yul\":970:992   */\n      add\n        /* \"#utility.yul\":949:1002   */\n      tag_156\n      jump\t// in\n    tag_194:\n        /* \"#utility.yul\":939:1002   */\n      swap2\n      pop\n        /* \"#utility.yul\":895:1012   */\n      pop\n        /* \"#utility.yul\":690:1019   */\n      swap3\n      swap2\n      pop\n      pop\n      jump\t// out\n        /* \"#utility.yul\":1025:1143   */\n    tag_157:\n        /* \"#utility.yul\":1112:1136   */\n      tag_196\n        /* \"#utility.yul\":1130:1135   */\n      dup2\n        /* \"#utility.yul\":1112:1136   */\n      tag_154\n      jump\t// in\n    tag_196:\n        /* \"#utility.yul\":1107:1110   */\n      dup3\n        /* \"#utility.yul\":1100:1137   */\n      mstore\n        /* \"#utility.yul\":1025:1143   */\n      pop\n      pop\n      jump\t// out\n        /* \"#utility.yul\":1149:1371   */\n    tag_30:\n        /* \"#utility.yul\":1242:1246   */\n      0x00\n        /* \"#utility.yul\":1280:1282   */\n      0x20\n        /* \"#utility.yul\":1269:1278   */\n      dup3\n        /* \"#utility.yul\":1265:1283   */\n      add\n        /* \"#utility.yul\":1257:1283   */\n      swap1\n      pop\n        /* \"#utility.yul\":1293:1364   */\n      tag_198\n        /* \"#utility.yul\":1361:1362   */\n      0x00\n        /* \"#utility.yul\":1350:1359   */\n      dup4\n        /* \"#utility.yul\":1346:1363   */\n      add\n        /* \"#utility.yul\":1337:1343   */\n      dup5\n        /* \"#utility.yul\":1293:1364   */\n      tag_157\n      jump\t// in\n    tag_198:\n        /* \"#utility.yul\":1149:1371   */\n      swap3\n      swap2\n      pop\n      pop\n      jump\t// out\n        /* \"#utility.yul\":1377:1851   */\n    tag_35:\n        /* \"#utility.yul\":1445:1451   */\n      0x00\n        /* \"#utility.yul\":1453:1459   */\n      dup1\n        /* \"#utility.yul\":1502:1504   */\n      0x40\n        /* \"#utility.yul\":1490:1499   */\n      dup4\n        /* \"#utility.yul\":1481:1488   */\n      dup6\n        /* \"#utility.yul\":1477:1500   */\n      sub\n        /* \"#utility.yul\":1473:1505   */\n      slt\n        /* \"#utility.yul\":1470:1589   */\n      iszero\n      tag_200\n      jumpi\n        /* \"#utility.yul\":1508:1587   */\n      tag_201\n      tag_152\n      jump\t// in\n    tag_201:\n        /* \"#utility.yul\":1470:1589   */\n    tag_200:\n        /* \"#utility.yul\":1628:1629   */\n      0x00\n        /* \"#utility.yul\":1653:1706   */\n      tag_202\n        /* \"#utility.yul\":1698:1705   */\n      dup6\n        /* \"#utility.yul\":1689:1695   */\n      dup3\n        /* \"#utility.yul\":1678:1687   */\n      dup7\n        /* \"#utility.yul\":1674:1696   */\n      add\n        /* \"#utility.yul\":1653:1706   */\n      tag_156\n      jump\t// in\n    tag_202:\n        /* \"#utility.yul\":1643:1706   */\n      swap3\n      pop\n        /* \"#utility.yul\":1599:1716   */\n      pop\n        /* \"#utility.yul\":1755:1757   */\n      0x20\n        /* \"#utility.yul\":1781:1834   */\n      tag_203\n        /* \"#utility.yul\":1826:1833   */\n      dup6\n        /* \"#utility.yul\":1817:1823   */\n      dup3\n        /* \"#utility.yul\":1806:1815   */\n      dup7\n        /* \"#utility.yul\":1802:1824   */\n      add\n        /* \"#utility.yul\":1781:1834   */\n      tag_156\n      jump\t// in\n    tag_203:\n        /* \"#utility.yul\":1771:1834   */\n      swap2\n      pop\n        /* \"#utility.yul\":1726:1844   */\n      pop\n        /* \"#utility.yul\":1377:1851   */\n      swap3\n      pop\n      swap3\n      swap1\n      pop\n      jump\t// out\n        /* \"#utility.yul\":1857:1956   */\n    tag_158:\n        /* \"#utility.yul\":1909:1915   */\n      0x00\n        /* \"#utility.yul\":1943:1948   */\n      dup2\n        /* \"#utility.yul\":1937:1949   */\n      mload\n        /* \"#utility.yul\":1927:1949   */\n      swap1\n      pop\n        /* \"#utility.yul\":1857:1956   */\n      swap2\n      swap1\n      pop\n      jump\t// out\n        /* \"#utility.yul\":1962:2131   */\n    tag_159:\n        /* \"#utility.yul\":2046:2057   */\n      0x00\n        /* \"#utility.yul\":2080:2086   */\n      dup3\n        /* \"#utility.yul\":2075:2078   */\n      dup3\n        /* \"#utility.yul\":2068:2087   */\n      mstore\n        /* \"#utility.yul\":2120:2124   */\n      0x20\n        /* \"#utility.yul\":2115:2118   */\n      dup3\n        /* \"#utility.yul\":2111:2125   */\n      add\n        /* \"#utility.yul\":2096:2125   */\n      swap1\n      pop\n        /* \"#utility.yul\":1962:2131   */\n      swap3\n      swap2\n      pop\n      pop\n      jump\t// out\n        /* \"#utility.yul\":2137:2383   */\n    tag_160:\n        /* \"#utility.yul\":2218:2219   */\n      0x00\n        /* \"#utility.yul\":2228:2341   */\n    tag_207:\n        /* \"#utility.yul\":2242:2248   */\n      dup4\n        /* \"#utility.yul\":2239:2240   */\n      dup2\n        /* \"#utility.yul\":2236:2249   */\n      lt\n        /* \"#utility.yul\":2228:2341   */\n      iszero\n      tag_209\n      jumpi\n        /* \"#utility.yul\":2327:2328   */\n      dup1\n        /* \"#utility.yul\":2322:2325   */\n      dup3\n        /* \"#utility.yul\":2318:2329   */\n      add\n        /* \"#utility.yul\":2312:2330   */\n      mload\n        /* \"#utility.yul\":2308:2309   */\n      dup2\n        /* \"#utility.yul\":2303:2306   */\n      dup5\n        /* \"#utility.yul\":2299:2310   */\n      add\n        /* \"#utility.yul\":2292:2331   */\n      mstore\n        /* \"#utility.yul\":2264:2266   */\n      0x20\n        /* \"#utility.yul\":2261:2262   */\n      dup2\n        /* \"#utility.yul\":2257:2267   */\n      add\n        /* \"#utility.yul\":2252:2267   */\n      swap1\n      pop\n        /* \"#utility.yul\":2228:2341   */\n      jump(tag_207)\n    tag_209:\n        /* \"#utility.yul\":2375:2376   */\n      0x00\n        /* \"#utility.yul\":2366:2372   */\n      dup5\n        /* \"#utility.yul\":2361:2364   */\n      dup5\n        /* \"#utility.yul\":2357:2373   */\n      add\n        /* \"#utility.yul\":2350:2377   */\n      mstore\n        /* \"#utility.yul\":2199:2383   */\n      pop\n        /* \"#utility.yul\":2137:2383   */\n      pop\n      pop\n      pop\n      jump\t// out\n        /* \"#utility.yul\":2389:2491   */\n    tag_161:\n        /* \"#utility.yul\":2430:2436   */\n      0x00\n        /* \"#utility.yul\":2481:2483   */\n      0x1f\n        /* \"#utility.yul\":2477:2484   */\n      not\n        /* \"#utility.yul\":2472:2474   */\n      0x1f\n        /* \"#utility.yul\":2465:2470   */\n      dup4\n        /* \"#utility.yul\":2461:2475   */\n      add\n        /* \"#utility.yul\":2457:2485   */\n      and\n        /* \"#utility.yul\":2447:2485   */\n      swap1\n      pop\n        /* \"#utility.yul\":2389:2491   */\n      swap2\n      swap1\n      pop\n      jump\t// out\n        /* \"#utility.yul\":2497:2874   */\n    tag_162:\n        /* \"#utility.yul\":2585:2588   */\n      0x00\n        /* \"#utility.yul\":2613:2652   */\n      tag_212\n        /* \"#utility.yul\":2646:2651   */\n      dup3\n        /* \"#utility.yul\":2613:2652   */\n      tag_158\n      jump\t// in\n    tag_212:\n        /* \"#utility.yul\":2668:2739   */\n      tag_213\n        /* \"#utility.yul\":2732:2738   */\n      dup2\n        /* \"#utility.yul\":2727:2730   */\n      dup6\n        /* \"#utility.yul\":2668:2739   */\n      tag_159\n      jump\t// in\n    tag_213:\n        /* \"#utility.yul\":2661:2739   */\n      swap4\n      pop\n        /* \"#utility.yul\":2748:2813   */\n      tag_214\n        /* \"#utility.yul\":2806:2812   */\n      dup2\n        /* \"#utility.yul\":2801:2804   */\n      dup6\n        /* \"#utility.yul\":2794:2798   */\n      0x20\n        /* \"#utility.yul\":2787:2792   */\n      dup7\n        /* \"#utility.yul\":2783:2799   */\n      add\n        /* \"#utility.yul\":2748:2813   */\n      tag_160\n      jump\t// in\n    tag_214:\n        /* \"#utility.yul\":2838:2867   */\n      tag_215\n        /* \"#utility.yul\":2860:2866   */\n      dup2\n        /* \"#utility.yul\":2838:2867   */\n      tag_161\n      jump\t// in\n    tag_215:\n        /* \"#utility.yul\":2833:2836   */\n      dup5\n        /* \"#utility.yul\":2829:2868   */\n      add\n        /* \"#utility.yul\":2822:2868   */\n      swap2\n      pop\n        /* \"#utility.yul\":2589:2874   */\n      pop\n        /* \"#utility.yul\":2497:2874   */\n      swap3\n      swap2\n      pop\n      pop\n      jump\t// out\n        /* \"#utility.yul\":2880:3193   */\n    tag_56:\n        /* \"#utility.yul\":2993:2997   */\n      0x00\n        /* \"#utility.yul\":3031:3033   */\n      0x20\n        /* \"#utility.yul\":3020:3029   */\n      dup3\n        /* \"#utility.yul\":3016:3034   */\n      add\n        /* \"#utility.yul\":3008:3034   */\n      swap1\n      pop\n        /* \"#utility.yul\":3080:3089   */\n      dup2\n        /* \"#utility.yul\":3074:3078   */\n      dup2\n        /* \"#utility.yul\":3070:3090   */\n      sub\n        /* \"#utility.yul\":3066:3067   */\n      0x00\n        /* \"#utility.yul\":3055:3064   */\n      dup4\n        /* \"#utility.yul\":3051:3068   */\n      add\n        /* \"#utility.yul\":3044:3091   */\n      mstore\n        /* \"#utility.yul\":3108:3186   */\n      tag_217\n        /* \"#utility.yul\":3181:3185   */\n      dup2\n        /* \"#utility.yul\":3172:3178   */\n      dup5\n        /* \"#utility.yul\":3108:3186   */\n      tag_162\n      jump\t// in\n    tag_217:\n        /* \"#utility.yul\":3100:3186   */\n      swap1\n      pop\n        /* \"#utility.yul\":2880:3193   */\n      swap3\n      swap2\n      pop\n      pop\n      jump\t// out\n        /* \"#utility.yul\":3199:3275   */\n    tag_163:\n        /* \"#utility.yul\":3235:3242   */\n      0x00\n        /* \"#utility.yul\":3264:3269   */\n      dup2\n        /* \"#utility.yul\":3253:3269   */\n      swap1\n      pop\n        /* \"#utility.yul\":3199:3275   */\n      swap2\n      swap1\n      pop\n      jump\t// out\n        /* \"#utility.yul\":3281:3401   */\n    tag_164:\n        /* \"#utility.yul\":3353:3376   */\n      tag_220\n        /* \"#utility.yul\":3370:3375   */\n      dup2\n        /* \"#utility.yul\":3353:3376   */\n      tag_163\n      jump\t// in\n    tag_220:\n        /* \"#utility.yul\":3346:3351   */\n      dup2\n        /* \"#utility.yul\":3343:3377   */\n      eq\n        /* \"#utility.yul\":3333:3395   */\n      tag_221\n      jumpi\n        /* \"#utility.yul\":3391:3392   */\n      0x00\n        /* \"#utility.yul\":3388:3389   */\n      dup1\n        /* \"#utility.yul\":3381:3393   */\n      revert\n        /* \"#utility.yul\":3333:3395   */\n    tag_221:\n        /* \"#utility.yul\":3281:3401   */\n      pop\n      jump\t// out\n        /* \"#utility.yul\":3407:3544   */\n    tag_165:\n        /* \"#utility.yul\":3452:3457   */\n      0x00\n        /* \"#utility.yul\":3490:3496   */\n      dup2\n        /* \"#utility.yul\":3477:3497   */\n      calldataload\n        /* \"#utility.yul\":3468:3497   */\n      swap1\n      pop\n        /* \"#utility.yul\":3506:3538   */\n      tag_223\n        /* \"#utility.yul\":3532:3537   */\n      dup2\n        /* \"#utility.yul\":3506:3538   */\n      tag_164\n      jump\t// in\n    tag_223:\n        /* \"#utility.yul\":3407:3544   */\n      swap3\n      swap2\n      pop\n      pop\n      jump\t// out\n        /* \"#utility.yul\":3550:4020   */\n    tag_59:\n        /* \"#utility.yul\":3616:3622   */\n      0x00\n        /* \"#utility.yul\":3624:3630   */\n      dup1\n        /* \"#utility.yul\":3673:3675   */\n      0x40\n        /* \"#utility.yul\":3661:3670   */\n      dup4\n        /* \"#utility.yul\":3652:3659   */\n      dup6\n        /* \"#utility.yul\":3648:3671   */\n      sub\n        /* \"#utility.yul\":3644:3676   */\n      slt\n        /* \"#utility.yul\":3641:3760   */\n      iszero\n      tag_225\n      jumpi\n        /* \"#utility.yul\":3679:3758   */\n      tag_226\n      tag_152\n      jump\t// in\n    tag_226:\n        /* \"#utility.yul\":3641:3760   */\n    tag_225:\n        /* \"#utility.yul\":3799:3800   */\n      0x00\n        /* \"#utility.yul\":3824:3876   */\n      tag_227\n        /* \"#utility.yul\":3868:3875   */\n      dup6\n        /* \"#utility.yul\":3859:3865   */\n      dup3\n        /* \"#utility.yul\":3848:3857   */\n      dup7\n        /* \"#utility.yul\":3844:3866   */\n      add\n        /* \"#utility.yul\":3824:3876   */\n      tag_165\n      jump\t// in\n    tag_227:\n        /* \"#utility.yul\":3814:3876   */\n      swap3\n      pop\n        /* \"#utility.yul\":3770:3886   */\n      pop\n        /* \"#utility.yul\":3925:3927   */\n      0x20\n        /* \"#utility.yul\":3951:4003   */\n      tag_228\n        /* \"#utility.yul\":3995:4002   */\n      dup6\n        /* \"#utility.yul\":3986:3992   */\n      dup3\n        /* \"#utility.yul\":3975:3984   */\n      dup7\n        /* \"#utility.yul\":3971:3993   */\n      add\n        /* \"#utility.yul\":3951:4003   */\n      tag_165\n      jump\t// in\n    tag_228:\n        /* \"#utility.yul\":3941:4003   */\n      swap2\n      pop\n        /* \"#utility.yul\":3896:4013   */\n      pop\n        /* \"#utility.yul\":3550:4020   */\n      swap3\n      pop\n      swap3\n      swap1\n      pop\n      jump\t// out\n        /* \"#utility.yul\":4026:4141   */\n    tag_166:\n        /* \"#utility.yul\":4111:4134   */\n      tag_230\n        /* \"#utility.yul\":4128:4133   */\n      dup2\n        /* \"#utility.yul\":4111:4134   */\n      tag_163\n      jump\t// in\n    tag_230:\n        /* \"#utility.yul\":4106:4109   */\n      dup3\n        /* \"#utility.yul\":4099:4135   */\n      mstore\n        /* \"#utility.yul\":4026:4141   */\n      pop\n      pop\n      jump\t// out\n        /* \"#utility.yul\":4147:4365   */\n    tag_62:\n        /* \"#utility.yul\":4238:4242   */\n      0x00\n        /* \"#utility.yul\":4276:4278   */\n      0x20\n        /* \"#utility.yul\":4265:4274   */\n      dup3\n        /* \"#utility.yul\":4261:4279   */\n      add\n        /* \"#utility.yul\":4253:4279   */\n      swap1\n      pop\n        /* \"#utility.yul\":4289:4358   */\n      tag_232\n        /* \"#utility.yul\":4355:4356   */\n      0x00\n        /* \"#utility.yul\":4344:4353   */\n      dup4\n        /* \"#utility.yul\":4340:4357   */\n      add\n        /* \"#utility.yul\":4331:4337   */\n      dup5\n        /* \"#utility.yul\":4289:4358   */\n      tag_166\n      jump\t// in\n    tag_232:\n        /* \"#utility.yul\":4147:4365   */\n      swap3\n      swap2\n      pop\n      pop\n      jump\t// out\n        /* \"#utility.yul\":4371:4488   */\n    tag_167:\n        /* \"#utility.yul\":4480:4481   */\n      0x00\n        /* \"#utility.yul\":4477:4478   */\n      dup1\n        /* \"#utility.yul\":4470:4482   */\n      revert\n        /* \"#utility.yul\":4494:4611   */\n    tag_168:\n        /* \"#utility.yul\":4603:4604   */\n      0x00\n        /* \"#utility.yul\":4600:4601   */\n      dup1\n        /* \"#utility.yul\":4593:4605   */\n      revert\n        /* \"#utility.yul\":4617:4797   */\n    tag_169:\n        /* \"#utility.yul\":4665:4742   */\n      0x4e487b7100000000000000000000000000000000000000000000000000000000\n        /* \"#utility.yul\":4662:4663   */\n      0x00\n        /* \"#utility.yul\":4655:4743   */\n      mstore\n        /* \"#utility.yul\":4762:4766   */\n      0x41\n        /* \"#utility.yul\":4759:4760   */\n      0x04\n        /* \"#utility.yul\":4752:4767   */\n      mstore\n        /* \"#utility.yul\":4786:4790   */\n      0x24\n        /* \"#utility.yul\":4783:4784   */\n      0x00\n        /* \"#utility.yul\":4776:4791   */\n      revert\n        /* \"#utility.yul\":4803:5084   */\n    tag_170:\n        /* \"#utility.yul\":4886:4913   */\n      tag_237\n        /* \"#utility.yul\":4908:4912   */\n      dup3\n        /* \"#utility.yul\":4886:4913   */\n      tag_161\n      jump\t// in\n    tag_237:\n        /* \"#utility.yul\":4878:4884   */\n      dup2\n        /* \"#utility.yul\":4874:4914   */\n      add\n        /* \"#utility.yul\":5016:5022   */\n      dup2\n        /* \"#utility.yul\":5004:5014   */\n      dup2\n        /* \"#utility.yul\":5001:5023   */\n      lt\n        /* \"#utility.yul\":4980:4998   */\n      0xffffffffffffffff\n        /* \"#utility.yul\":4968:4978   */\n      dup3\n        /* \"#utility.yul\":4965:4999   */\n      gt\n        /* \"#utility.yul\":4962:5024   */\n      or\n        /* \"#utility.yul\":4959:5047   */\n      iszero\n      tag_238\n      jumpi\n        /* \"#utility.yul\":5027:5045   */\n      tag_239\n      tag_169\n      jump\t// in\n    tag_239:\n        /* \"#utility.yul\":4959:5047   */\n    tag_238:\n        /* \"#utility.yul\":5067:5077   */\n      dup1\n        /* \"#utility.yul\":5063:5065   */\n      0x40\n        /* \"#utility.yul\":5056:5078   */\n      mstore\n        /* \"#utility.yul\":4846:5084   */\n      pop\n        /* \"#utility.yul\":4803:5084   */\n      pop\n      pop\n      jump\t// out\n        /* \"#utility.yul\":5090:5219   */\n    tag_171:\n        /* \"#utility.yul\":5124:5130   */\n      0x00\n        /* \"#utility.yul\":5151:5171   */\n      tag_241\n      tag_151\n      jump\t// in\n    tag_241:\n        /* \"#utility.yul\":5141:5171   */\n      swap1\n      pop\n        /* \"#utility.yul\":5180:5213   */\n      tag_242\n        /* \"#utility.yul\":5208:5212   */\n      dup3\n        /* \"#utility.yul\":5200:5206   */\n      dup3\n        /* \"#utility.yul\":5180:5213   */\n      tag_170\n      jump\t// in\n    tag_242:\n        /* \"#utility.yul\":5090:5219   */\n      swap2\n      swap1\n      pop\n      jump\t// out\n        /* \"#utility.yul\":5225:5533   */\n    tag_172:\n        /* \"#utility.yul\":5287:5291   */\n      0x00\n        /* \"#utility.yul\":5377:5395   */\n      0xffffffffffffffff\n        /* \"#utility.yul\":5369:5375   */\n      dup3\n        /* \"#utility.yul\":5366:5396   */\n      gt\n        /* \"#utility.yul\":5363:5419   */\n      iszero\n      tag_244\n      jumpi\n        /* \"#utility.yul\":5399:5417   */\n      tag_245\n      tag_169\n      jump\t// in\n    tag_245:\n        /* \"#utility.yul\":5363:5419   */\n    tag_244:\n        /* \"#utility.yul\":5437:5466   */\n      tag_246\n        /* \"#utility.yul\":5459:5465   */\n      dup3\n        /* \"#utility.yul\":5437:5466   */\n      tag_161\n      jump\t// in\n    tag_246:\n        /* \"#utility.yul\":5429:5466   */\n      swap1\n      pop\n        /* \"#utility.yul\":5521:5525   */\n      0x20\n        /* \"#utility.yul\":5515:5519   */\n      dup2\n        /* \"#utility.yul\":5511:5526   */\n      add\n        /* \"#utility.yul\":5503:5526   */\n      swap1\n      pop\n        /* \"#utility.yul\":5225:5533   */\n      swap2\n      swap1\n      pop\n      jump\t// out\n        /* \"#utility.yul\":5539:5685   */\n    tag_173:\n        /* \"#utility.yul\":5636:5642   */\n      dup3\n        /* \"#utility.yul\":5631:5634   */\n      dup2\n        /* \"#utility.yul\":5626:5629   */\n      dup4\n        /* \"#utility.yul\":5613:5643   */\n      calldatacopy\n        /* \"#utility.yul\":5677:5678   */\n      0x00\n        /* \"#utility.yul\":5668:5674   */\n      dup4\n        /* \"#utility.yul\":5663:5666   */\n      dup4\n        /* \"#utility.yul\":5659:5675   */\n      add\n        /* \"#utility.yul\":5652:5679   */\n      mstore\n        /* \"#utility.yul\":5539:5685   */\n      pop\n      pop\n      pop\n      jump\t// out\n        /* \"#utility.yul\":5691:6116   */\n    tag_174:\n        /* \"#utility.yul\":5769:5774   */\n      0x00\n        /* \"#utility.yul\":5794:5860   */\n      tag_249\n        /* \"#utility.yul\":5810:5859   */\n      tag_250\n        /* \"#utility.yul\":5852:5858   */\n      dup5\n        /* \"#utility.yul\":5810:5859   */\n      tag_172\n      jump\t// in\n    tag_250:\n        /* \"#utility.yul\":5794:5860   */\n      tag_171\n      jump\t// in\n    tag_249:\n        /* \"#utility.yul\":5785:5860   */\n      swap1\n      pop\n        /* \"#utility.yul\":5883:5889   */\n      dup3\n        /* \"#utility.yul\":5876:5881   */\n      dup2\n        /* \"#utility.yul\":5869:5890   */\n      mstore\n        /* \"#utility.yul\":5921:5925   */\n      0x20\n        /* \"#utility.yul\":5914:5919   */\n      dup2\n        /* \"#utility.yul\":5910:5926   */\n      add\n        /* \"#utility.yul\":5959:5962   */\n      dup5\n        /* \"#utility.yul\":5950:5956   */\n      dup5\n        /* \"#utility.yul\":5945:5948   */\n      dup5\n        /* \"#utility.yul\":5941:5957   */\n      add\n        /* \"#utility.yul\":5938:5963   */\n      gt\n        /* \"#utility.yul\":5935:6047   */\n      iszero\n      tag_251\n      jumpi\n        /* \"#utility.yul\":5966:6045   */\n      tag_252\n      tag_168\n      jump\t// in\n    tag_252:\n        /* \"#utility.yul\":5935:6047   */\n    tag_251:\n        /* \"#utility.yul\":6056:6110   */\n      tag_253\n        /* \"#utility.yul\":6103:6109   */\n      dup5\n        /* \"#utility.yul\":6098:6101   */\n      dup3\n        /* \"#utility.yul\":6093:6096   */\n      dup6\n        /* \"#utility.yul\":6056:6110   */\n      tag_173\n      jump\t// in\n    tag_253:\n        /* \"#utility.yul\":5775:6116   */\n      pop\n        /* \"#utility.yul\":5691:6116   */\n      swap4\n      swap3\n      pop\n      pop\n      pop\n      jump\t// out\n        /* \"#utility.yul\":6136:6476   */\n    tag_175:\n        /* \"#utility.yul\":6192:6197   */\n      0x00\n        /* \"#utility.yul\":6241:6244   */\n      dup3\n        /* \"#utility.yul\":6234:6238   */\n      0x1f\n        /* \"#utility.yul\":6226:6232   */\n      dup4\n        /* \"#utility.yul\":6222:6239   */\n      add\n        /* \"#utility.yul\":6218:6245   */\n      slt\n        /* \"#utility.yul\":6208:6330   */\n      tag_255\n      jumpi\n        /* \"#utility.yul\":6249:6328   */\n      tag_256\n      tag_167\n      jump\t// in\n    tag_256:\n        /* \"#utility.yul\":6208:6330   */\n    tag_255:\n        /* \"#utility.yul\":6366:6372   */\n      dup2\n        /* \"#utility.yul\":6353:6373   */\n      calldataload\n        /* \"#utility.yul\":6391:6470   */\n      tag_257\n        /* \"#utility.yul\":6466:6469   */\n      dup5\n        /* \"#utility.yul\":6458:6464   */\n      dup3\n        /* \"#utility.yul\":6451:6455   */\n      0x20\n        /* \"#utility.yul\":6443:6449   */\n      dup7\n        /* \"#utility.yul\":6439:6456   */\n      add\n        /* \"#utility.yul\":6391:6470   */\n      tag_174\n      jump\t// in\n    tag_257:\n        /* \"#utility.yul\":6382:6470   */\n      swap2\n      pop\n        /* \"#utility.yul\":6198:6476   */\n      pop\n        /* \"#utility.yul\":6136:6476   */\n      swap3\n      swap2\n      pop\n      pop\n      jump\t// out\n        /* \"#utility.yul\":6482:6991   */\n    tag_69:\n        /* \"#utility.yul\":6551:6557   */\n      0x00\n        /* \"#utility.yul\":6600:6602   */\n      0x20\n        /* \"#utility.yul\":6588:6597   */\n      dup3\n        /* \"#utility.yul\":6579:6586   */\n      dup5\n        /* \"#utility.yul\":6575:6598   */\n      sub\n        /* \"#utility.yul\":6571:6603   */\n      slt\n        /* \"#utility.yul\":6568:6687   */\n      iszero\n      tag_259\n      jumpi\n        /* \"#utility.yul\":6606:6685   */\n      tag_260\n      tag_152\n      jump\t// in\n    tag_260:\n        /* \"#utility.yul\":6568:6687   */\n    tag_259:\n        /* \"#utility.yul\":6754:6755   */\n      0x00\n        /* \"#utility.yul\":6743:6752   */\n      dup3\n        /* \"#utility.yul\":6739:6756   */\n      add\n        /* \"#utility.yul\":6726:6757   */\n      calldataload\n        /* \"#utility.yul\":6784:6802   */\n      0xffffffffffffffff\n        /* \"#utility.yul\":6776:6782   */\n      dup2\n        /* \"#utility.yul\":6773:6803   */\n      gt\n        /* \"#utility.yul\":6770:6887   */\n      iszero\n      tag_261\n      jumpi\n        /* \"#utility.yul\":6806:6885   */\n      tag_262\n      tag_153\n      jump\t// in\n    tag_262:\n        /* \"#utility.yul\":6770:6887   */\n    tag_261:\n        /* \"#utility.yul\":6911:6974   */\n      tag_263\n        /* \"#utility.yul\":6966:6973   */\n      dup5\n        /* \"#utility.yul\":6957:6963   */\n      dup3\n        /* \"#utility.yul\":6946:6955   */\n      dup6\n        /* \"#utility.yul\":6942:6964   */\n      add\n        /* \"#utility.yul\":6911:6974   */\n      tag_175\n      jump\t// in\n    tag_263:\n        /* \"#utility.yul\":6901:6974   */\n      swap2\n      pop\n        /* \"#utility.yul\":6697:6984   */\n      pop\n        /* \"#utility.yul\":6482:6991   */\n      swap3\n      swap2\n      pop\n      pop\n      jump\t// out\n        /* \"#utility.yul\":6997:7095   */\n    tag_176:\n        /* \"#utility.yul\":7048:7054   */\n      0x00\n        /* \"#utility.yul\":7082:7087   */\n      dup2\n        /* \"#utility.yul\":7076:7088   */\n      mload\n        /* \"#utility.yul\":7066:7088   */\n      swap1\n      pop\n        /* \"#utility.yul\":6997:7095   */\n      swap2\n      swap1\n      pop\n      jump\t// out\n        /* \"#utility.yul\":7101:7269   */\n    tag_177:\n        /* \"#utility.yul\":7184:7195   */\n      0x00\n        /* \"#utility.yul\":7218:7224   */\n      dup3\n        /* \"#utility.yul\":7213:7216   */\n      dup3\n        /* \"#utility.yul\":7206:7225   */\n      mstore\n        /* \"#utility.yul\":7258:7262   */\n      0x20\n        /* \"#utility.yul\":7253:7256   */\n      dup3\n        /* \"#utility.yul\":7249:7263   */\n      add\n        /* \"#utility.yul\":7234:7263   */\n      swap1\n      pop\n        /* \"#utility.yul\":7101:7269   */\n      swap3\n      swap2\n      pop\n      pop\n      jump\t// out\n        /* \"#utility.yul\":7275:7648   */\n    tag_178:\n        /* \"#utility.yul\":7361:7364   */\n      0x00\n        /* \"#utility.yul\":7389:7427   */\n      tag_267\n        /* \"#utility.yul\":7421:7426   */\n      dup3\n        /* \"#utility.yul\":7389:7427   */\n      tag_176\n      jump\t// in\n    tag_267:\n        /* \"#utility.yul\":7443:7513   */\n      tag_268\n        /* \"#utility.yul\":7506:7512   */\n      dup2\n        /* \"#utility.yul\":7501:7504   */\n      dup6\n        /* \"#utility.yul\":7443:7513   */\n      tag_177\n      jump\t// in\n    tag_268:\n        /* \"#utility.yul\":7436:7513   */\n      swap4\n      pop\n        /* \"#utility.yul\":7522:7587   */\n      tag_269\n        /* \"#utility.yul\":7580:7586   */\n      dup2\n        /* \"#utility.yul\":7575:7578   */\n      dup6\n        /* \"#utility.yul\":7568:7572   */\n      0x20\n        /* \"#utility.yul\":7561:7566   */\n      dup7\n        /* \"#utility.yul\":7557:7573   */\n      add\n        /* \"#utility.yul\":7522:7587   */\n      tag_160\n      jump\t// in\n    tag_269:\n        /* \"#utility.yul\":7612:7641   */\n      tag_270\n        /* \"#utility.yul\":7634:7640   */\n      dup2\n        /* \"#utility.yul\":7612:7641   */\n      tag_161\n      jump\t// in\n    tag_270:\n        /* \"#utility.yul\":7607:7610   */\n      dup5\n        /* \"#utility.yul\":7603:7642   */\n      add\n        /* \"#utility.yul\":7596:7642   */\n      swap2\n      pop\n        /* \"#utility.yul\":7365:7648   */\n      pop\n        /* \"#utility.yul\":7275:7648   */\n      swap3\n      swap2\n      pop\n      pop\n      jump\t// out\n        /* \"#utility.yul\":7654:7963   */\n    tag_72:\n        /* \"#utility.yul\":7765:7769   */\n      0x00\n        /* \"#utility.yul\":7803:7805   */\n      0x20\n        /* \"#utility.yul\":7792:7801   */\n      dup3\n        /* \"#utility.yul\":7788:7806   */\n      add\n        /* \"#utility.yul\":7780:7806   */\n      swap1\n      pop\n        /* \"#utility.yul\":7852:7861   */\n      dup2\n        /* \"#utility.yul\":7846:7850   */\n      dup2\n        /* \"#utility.yul\":7842:7862   */\n      sub\n        /* \"#utility.yul\":7838:7839   */\n      0x00\n        /* \"#utility.yul\":7827:7836   */\n      dup4\n        /* \"#utility.yul\":7823:7840   */\n      add\n        /* \"#utility.yul\":7816:7863   */\n      mstore\n        /* \"#utility.yul\":7880:7956   */\n      tag_272\n        /* \"#utility.yul\":7951:7955   */\n      dup2\n        /* \"#utility.yul\":7942:7948   */\n      dup5\n        /* \"#utility.yul\":7880:7956   */\n      tag_178\n      jump\t// in\n    tag_272:\n        /* \"#utility.yul\":7872:7956   */\n      swap1\n      pop\n        /* \"#utility.yul\":7654:7963   */\n      swap3\n      swap2\n      pop\n      pop\n      jump\t// out\n        /* \"#utility.yul\":7969:8149   */\n    tag_84:\n        /* \"#utility.yul\":8017:8094   */\n      0x4e487b7100000000000000000000000000000000000000000000000000000000\n        /* \"#utility.yul\":8014:8015   */\n      0x00\n        /* \"#utility.yul\":8007:8095   */\n      mstore\n        /* \"#utility.yul\":8114:8118   */\n      0x31\n        /* \"#utility.yul\":8111:8112   */\n      0x04\n        /* \"#utility.yul\":8104:8119   */\n      mstore\n        /* \"#utility.yul\":8138:8142   */\n      0x24\n        /* \"#utility.yul\":8135:8136   */\n      0x00\n        /* \"#utility.yul\":8128:8143   */\n      revert\n        /* \"#utility.yul\":8155:8335   */\n    tag_94:\n        /* \"#utility.yul\":8203:8280   */\n      0x4e487b7100000000000000000000000000000000000000000000000000000000\n        /* \"#utility.yul\":8200:8201   */\n      0x00\n        /* \"#utility.yul\":8193:8281   */\n      mstore\n        /* \"#utility.yul\":8300:8304   */\n      0x32\n        /* \"#utility.yul\":8297:8298   */\n      0x04\n        /* \"#utility.yul\":8290:8305   */\n      mstore\n        /* \"#utility.yul\":8324:8328   */\n      0x24\n        /* \"#utility.yul\":8321:8322   */\n      0x00\n        /* \"#utility.yul\":8314:8329   */\n      revert\n        /* \"#utility.yul\":8341:8521   */\n    tag_179:\n        /* \"#utility.yul\":8389:8466   */\n      0x4e487b7100000000000000000000000000000000000000000000000000000000\n        /* \"#utility.yul\":8386:8387   */\n      0x00\n        /* \"#utility.yul\":8379:8467   */\n      mstore\n        /* \"#utility.yul\":8486:8490   */\n      0x11\n        /* \"#utility.yul\":8483:8484   */\n      0x04\n        /* \"#utility.yul\":8476:8491   */\n      mstore\n        /* \"#utility.yul\":8510:8514   */\n      0x24\n        /* \"#utility.yul\":8507:8508   */\n      0x00\n        /* \"#utility.yul\":8500:8515   */\n      revert\n        /* \"#utility.yul\":8527:8718   */\n    tag_97:\n        /* \"#utility.yul\":8567:8570   */\n      0x00\n        /* \"#utility.yul\":8586:8606   */\n      tag_277\n        /* \"#utility.yul\":8604:8605   */\n      dup3\n        /* \"#utility.yul\":8586:8606   */\n      tag_154\n      jump\t// in\n    tag_277:\n        /* \"#utility.yul\":8581:8606   */\n      swap2\n      pop\n        /* \"#utility.yul\":8620:8640   */\n      tag_278\n        /* \"#utility.yul\":8638:8639   */\n      dup4\n        /* \"#utility.yul\":8620:8640   */\n      tag_154\n      jump\t// in\n    tag_278:\n        /* \"#utility.yul\":8615:8640   */\n      swap3\n      pop\n        /* \"#utility.yul\":8663:8664   */\n      dup3\n        /* \"#utility.yul\":8660:8661   */\n      dup3\n        /* \"#utility.yul\":8656:8665   */\n      add\n        /* \"#utility.yul\":8649:8665   */\n      swap1\n      pop\n        /* \"#utility.yul\":8684:8687   */\n      dup1\n        /* \"#utility.yul\":8681:8682   */\n      dup3\n        /* \"#utility.yul\":8678:8688   */\n      gt\n        /* \"#utility.yul\":8675:8711   */\n      iszero\n      tag_279\n      jumpi\n        /* \"#utility.yul\":8691:8709   */\n      tag_280\n      tag_179\n      jump\t// in\n    tag_280:\n        /* \"#utility.yul\":8675:8711   */\n    tag_279:\n        /* \"#utility.yul\":8527:8718   */\n      swap3\n      swap2\n      pop\n      pop\n      jump\t// out\n        /* \"#utility.yul\":8724:9134   */\n    tag_105:\n        /* \"#utility.yul\":8764:8771   */\n      0x00\n        /* \"#utility.yul\":8787:8807   */\n      tag_282\n        /* \"#utility.yul\":8805:8806   */\n      dup3\n        /* \"#utility.yul\":8787:8807   */\n      tag_154\n      jump\t// in\n    tag_282:\n        /* \"#utility.yul\":8782:8807   */\n      swap2\n      pop\n        /* \"#utility.yul\":8821:8841   */\n      tag_283\n        /* \"#utility.yul\":8839:8840   */\n      dup4\n        /* \"#utility.yul\":8821:8841   */\n      tag_154\n      jump\t// in\n    tag_283:\n        /* \"#utility.yul\":8816:8841   */\n      swap3\n      pop\n        /* \"#utility.yul\":8876:8877   */\n      dup3\n        /* \"#utility.yul\":8873:8874   */\n      dup3\n        /* \"#utility.yul\":8869:8878   */\n      mul\n        /* \"#utility.yul\":8898:8928   */\n      tag_284\n        /* \"#utility.yul\":8916:8927   */\n      dup2\n        /* \"#utility.yul\":8898:8928   */\n      tag_154\n      jump\t// in\n    tag_284:\n        /* \"#utility.yul\":8887:8928   */\n      swap2\n      pop\n        /* \"#utility.yul\":9077:9078   */\n      dup3\n        /* \"#utility.yul\":9068:9075   */\n      dup3\n        /* \"#utility.yul\":9064:9079   */\n      div\n        /* \"#utility.yul\":9061:9062   */\n      dup5\n        /* \"#utility.yul\":9058:9080   */\n      eq\n        /* \"#utility.yul\":9038:9039   */\n      dup4\n        /* \"#utility.yul\":9031:9040   */\n      iszero\n        /* \"#utility.yul\":9011:9094   */\n      or\n        /* \"#utility.yul\":8988:9127   */\n      tag_285\n      jumpi\n        /* \"#utility.yul\":9107:9125   */\n      tag_286\n      tag_179\n      jump\t// in\n    tag_286:\n        /* \"#utility.yul\":8988:9127   */\n    tag_285:\n        /* \"#utility.yul\":8772:9134   */\n      pop\n        /* \"#utility.yul\":8724:9134   */\n      swap3\n      swap2\n      pop\n      pop\n      jump\t// out\n        /* \"#utility.yul\":9140:9320   */\n    tag_180:\n        /* \"#utility.yul\":9188:9265   */\n      0x4e487b7100000000000000000000000000000000000000000000000000000000\n        /* \"#utility.yul\":9185:9186   */\n      0x00\n        /* \"#utility.yul\":9178:9266   */\n      mstore\n        /* \"#utility.yul\":9285:9289   */\n      0x12\n        /* \"#utility.yul\":9282:9283   */\n      0x04\n        /* \"#utility.yul\":9275:9290   */\n      mstore\n        /* \"#utility.yul\":9309:9313   */\n      0x24\n        /* \"#utility.yul\":9306:9307   */\n      0x00\n        /* \"#utility.yul\":9299:9314   */\n      revert\n        /* \"#utility.yul\":9326:9511   */\n    tag_118:\n        /* \"#utility.yul\":9366:9367   */\n      0x00\n        /* \"#utility.yul\":9383:9403   */\n      tag_289\n        /* \"#utility.yul\":9401:9402   */\n      dup3\n        /* \"#utility.yul\":9383:9403   */\n      tag_154\n      jump\t// in\n    tag_289:\n        /* \"#utility.yul\":9378:9403   */\n      swap2\n      pop\n        /* \"#utility.yul\":9417:9437   */\n      tag_290\n        /* \"#utility.yul\":9435:9436   */\n      dup4\n        /* \"#utility.yul\":9417:9437   */\n      tag_154\n      jump\t// in\n    tag_290:\n        /* \"#utility.yul\":9412:9437   */\n      swap3\n      pop\n        /* \"#utility.yul\":9456:9457   */\n      dup3\n        /* \"#utility.yul\":9446:9481   */\n      tag_291\n      jumpi\n        /* \"#utility.yul\":9461:9479   */\n      tag_292\n      tag_180\n      jump\t// in\n    tag_292:\n        /* \"#utility.yul\":9446:9481   */\n    tag_291:\n        /* \"#utility.yul\":9503:9504   */\n      dup3\n        /* \"#utility.yul\":9500:9501   */\n      dup3\n        /* \"#utility.yul\":9496:9505   */\n      div\n        /* \"#utility.yul\":9491:9505   */\n      swap1\n      pop\n        /* \"#utility.yul\":9326:9511   */\n      swap3\n      swap2\n      pop\n      pop\n      jump\t// out\n        /* \"#utility.yul\":9517:9889   */\n    tag_130:\n        /* \"#utility.yul\":9556:9560   */\n      0x00\n        /* \"#utility.yul\":9576:9595   */\n      tag_294\n        /* \"#utility.yul\":9593:9594   */\n      dup3\n        /* \"#utility.yul\":9576:9595   */\n      tag_163\n      jump\t// in\n    tag_294:\n        /* \"#utility.yul\":9571:9595   */\n      swap2\n      pop\n        /* \"#utility.yul\":9609:9628   */\n      tag_295\n        /* \"#utility.yul\":9626:9627   */\n      dup4\n        /* \"#utility.yul\":9609:9628   */\n      tag_163\n      jump\t// in\n    tag_295:\n        /* \"#utility.yul\":9604:9628   */\n      swap3\n      pop\n        /* \"#utility.yul\":9652:9653   */\n      dup3\n        /* \"#utility.yul\":9649:9650   */\n      dup3\n        /* \"#utility.yul\":9645:9654   */\n      sub\n        /* \"#utility.yul\":9637:9654   */\n      swap1\n      pop\n        /* \"#utility.yul\":9846:9847   */\n      dup2\n        /* \"#utility.yul\":9840:9844   */\n      dup2\n        /* \"#utility.yul\":9836:9848   */\n      slt\n        /* \"#utility.yul\":9832:9833   */\n      0x00\n        /* \"#utility.yul\":9829:9830   */\n      dup5\n        /* \"#utility.yul\":9825:9834   */\n      slt\n        /* \"#utility.yul\":9821:9849   */\n      and\n        /* \"#utility.yul\":9804:9805   */\n      dup3\n        /* \"#utility.yul\":9798:9802   */\n      dup3\n        /* \"#utility.yul\":9794:9806   */\n      sgt\n        /* \"#utility.yul\":9789:9790   */\n      0x00\n        /* \"#utility.yul\":9786:9787   */\n      dup6\n        /* \"#utility.yul\":9782:9791   */\n      slt\n        /* \"#utility.yul\":9775:9792   */\n      iszero\n        /* \"#utility.yul\":9771:9807   */\n      and\n        /* \"#utility.yul\":9755:9859   */\n      or\n        /* \"#utility.yul\":9752:9882   */\n      iszero\n      tag_296\n      jumpi\n        /* \"#utility.yul\":9862:9880   */\n      tag_297\n      tag_179\n      jump\t// in\n    tag_297:\n        /* \"#utility.yul\":9752:9882   */\n    tag_296:\n        /* \"#utility.yul\":9517:9889   */\n      swap3\n      swap2\n      pop\n      pop\n      jump\t// out\n        /* \"#utility.yul\":9895:10071   */\n    tag_146:\n        /* \"#utility.yul\":9927:9928   */\n      0x00\n        /* \"#utility.yul\":9944:9964   */\n      tag_299\n        /* \"#utility.yul\":9962:9963   */\n      dup3\n        /* \"#utility.yul\":9944:9964   */\n      tag_154\n      jump\t// in\n    tag_299:\n        /* \"#utility.yul\":9939:9964   */\n      swap2\n      pop\n        /* \"#utility.yul\":9978:9998   */\n      tag_300\n        /* \"#utility.yul\":9996:9997   */\n      dup4\n        /* \"#utility.yul\":9978:9998   */\n      tag_154\n      jump\t// in\n    tag_300:\n        /* \"#utility.yul\":9973:9998   */\n      swap3\n      pop\n        /* \"#utility.yul\":10017:10018   */\n      dup3\n        /* \"#utility.yul\":10007:10042   */\n      tag_301\n      jumpi\n        /* \"#utility.yul\":10022:10040   */\n      tag_302\n      tag_180\n      jump\t// in\n    tag_302:\n        /* \"#utility.yul\":10007:10042   */\n    tag_301:\n        /* \"#utility.yul\":10063:10064   */\n      dup3\n        /* \"#utility.yul\":10060:10061   */\n      dup3\n        /* \"#utility.yul\":10056:10065   */\n      mod\n        /* \"#utility.yul\":10051:10065   */\n      swap1\n      pop\n        /* \"#utility.yul\":9895:10071   */\n      swap3\n      swap2\n      pop\n      pop\n      jump\t// out\n\n    auxdata: 0xa264697066735822122073286ea45f48bfb12436d652d29846542443659f5132235e29cb891439b395da64736f6c63430008160033\n}\n",
				"bytecode": {
					"linkReferences": {},
					"object": "608060405234801561000f575f80fd5b50610c958061001d5f395ff3fe608060405234801561000f575f80fd5b50600436106100f3575f3560e01c80639d95364111610095578063cfb92e1411610064578063cfb92e141461026f578063d8de899d1461029f578063edf86c2f146102cf578063fc563658146102ff576100f3565b80639d953641146101af578063a083317b146101df578063a4de59461461020f578063c6a5e08e1461023f576100f3565b80634cd273d2116100d15780634cd273d21461013b57806354e3ed0a1461014557806368f25fae1461017557806389066a3c146101a5576100f3565b80632705f37f146100f75780632bfe1805146101015780633a2f9eb71461011d575b5f80fd5b6100ff61032f565b005b61011b600480360381019061011691906106de565b610356565b005b61012561037f565b6040516101329190610718565b60405180910390f35b6101436103cf565b005b61015f600480360381019061015a9190610731565b610410565b60405161016c9190610718565b60405180910390f35b61018f600480360381019061018a91906106de565b610425565b60405161019c9190610718565b60405180910390f35b6101ad61043c565b005b6101c960048036038101906101c491906106de565b61047d565b6040516101d69190610718565b60405180910390f35b6101f960048036038101906101f49190610731565b61049c565b6040516102069190610718565b60405180910390f35b610229600480360381019061022491906106de565b6104b1565b60405161023691906107f9565b60405180910390f35b6102596004803603810190610254919061084c565b6105b7565b6040516102669190610899565b60405180910390f35b61028960048036038101906102849190610731565b6105cc565b6040516102969190610718565b60405180910390f35b6102b960048036038101906102b491906109de565b6105e1565b6040516102c69190610a77565b60405180910390f35b6102e960048036038101906102e491906106de565b6105eb565b6040516102f69190610718565b60405180910390f35b610319600480360381019061031491906106de565b610675565b6040516103269190610718565b60405180910390f35b600180548061034157610340610a97565b5b600190038181905f5260205f20015f90559055565b600181908060018154018082558091505060019003905f5260205f20015f909190919091505550565b5f805f5b6001805490508110156103c757600181815481106103a4576103a3610ac4565b5b905f5260205f200154826103b89190610b1e565b91508080600101915050610383565b508091505090565b5f5b600681101561040d57600181908060018154018082558091505060019003905f5260205f20015f909190919091505580806001019150506103d1565b50565b5f818361041d9190610b51565b905092915050565b5f81826104329190610b51565b9150819050919050565b5f5b600a81101561047a57600181908060018154018082558091505060019003905f5260205f20015f9091909190915055808060010191505061043e565b50565b5f81828361048b9190610b51565b6104959190610b51565b9050919050565b5f81836104a99190610bbf565b905092915050565b606080600183101580156104c65750600a8311155b15610508576040518060400160405280600181526020017f410000000000000000000000000000000000000000000000000000000000000081525090506105ae565b600b831015801561051a575060148311155b1561055c576040518060400160405280600181526020017f420000000000000000000000000000000000000000000000000000000000000081525090506105ad565b6015831015801561056e5750601e8311155b156105ac576040518060400160405280600181526020017f430000000000000000000000000000000000000000000000000000000000000081525090505b5b5b80915050919050565b5f81836105c49190610bef565b905092915050565b5f81836105d99190610b1e565b905092915050565b6060819050919050565b5f600182101580156105fe575060038211155b1561061657818261060f9190610b51565b9050610670565b60048210158015610628575060068211155b156106415760028261063a9190610b51565b9050610670565b60078210158015610653575060098211155b1561066c576003826106659190610c2f565b9050610670565b8190505b919050565b5f6001828154811061068a57610689610ac4565b5b905f5260205f2001549050919050565b5f604051905090565b5f80fd5b5f80fd5b5f819050919050565b6106bd816106ab565b81146106c7575f80fd5b50565b5f813590506106d8816106b4565b92915050565b5f602082840312156106f3576106f26106a3565b5b5f610700848285016106ca565b91505092915050565b610712816106ab565b82525050565b5f60208201905061072b5f830184610709565b92915050565b5f8060408385031215610747576107466106a3565b5b5f610754858286016106ca565b9250506020610765858286016106ca565b9150509250929050565b5f81519050919050565b5f82825260208201905092915050565b5f5b838110156107a657808201518184015260208101905061078b565b5f8484015250505050565b5f601f19601f8301169050919050565b5f6107cb8261076f565b6107d58185610779565b93506107e5818560208601610789565b6107ee816107b1565b840191505092915050565b5f6020820190508181035f83015261081181846107c1565b905092915050565b5f819050919050565b61082b81610819565b8114610835575f80fd5b50565b5f8135905061084681610822565b92915050565b5f8060408385031215610862576108616106a3565b5b5f61086f85828601610838565b925050602061088085828601610838565b9150509250929050565b61089381610819565b82525050565b5f6020820190506108ac5f83018461088a565b92915050565b5f80fd5b5f80fd5b7f4e487b71000000000000000000000000000000000000000000000000000000005f52604160045260245ffd5b6108f0826107b1565b810181811067ffffffffffffffff8211171561090f5761090e6108ba565b5b80604052505050565b5f61092161069a565b905061092d82826108e7565b919050565b5f67ffffffffffffffff82111561094c5761094b6108ba565b5b610955826107b1565b9050602081019050919050565b828183375f83830152505050565b5f61098261097d84610932565b610918565b90508281526020810184848401111561099e5761099d6108b6565b5b6109a9848285610962565b509392505050565b5f82601f8301126109c5576109c46108b2565b5b81356109d5848260208601610970565b91505092915050565b5f602082840312156109f3576109f26106a3565b5b5f82013567ffffffffffffffff811115610a1057610a0f6106a7565b5b610a1c848285016109b1565b91505092915050565b5f81519050919050565b5f82825260208201905092915050565b5f610a4982610a25565b610a538185610a2f565b9350610a63818560208601610789565b610a6c816107b1565b840191505092915050565b5f6020820190508181035f830152610a8f8184610a3f565b905092915050565b7f4e487b71000000000000000000000000000000000000000000000000000000005f52603160045260245ffd5b7f4e487b71000000000000000000000000000000000000000000000000000000005f52603260045260245ffd5b7f4e487b71000000000000000000000000000000000000000000000000000000005f52601160045260245ffd5b5f610b28826106ab565b9150610b33836106ab565b9250828201905080821115610b4b57610b4a610af1565b5b92915050565b5f610b5b826106ab565b9150610b66836106ab565b9250828202610b74816106ab565b91508282048414831517610b8b57610b8a610af1565b5b5092915050565b7f4e487b71000000000000000000000000000000000000000000000000000000005f52601260045260245ffd5b5f610bc9826106ab565b9150610bd4836106ab565b925082610be457610be3610b92565b5b828204905092915050565b5f610bf982610819565b9150610c0483610819565b925082820390508181125f8412168282135f851215161715610c2957610c28610af1565b5b92915050565b5f610c39826106ab565b9150610c44836106ab565b925082610c5457610c53610b92565b5b82820690509291505056fea264697066735822122073286ea45f48bfb12436d652d29846542443659f5132235e29cb891439b395da64736f6c63430008160033",
					"opcodes": "PUSH1 0x80 PUSH1 0x40 MSTORE CALLVALUE DUP1 ISZERO PUSH2 0xF JUMPI PUSH0 DUP1 REVERT JUMPDEST POP PUSH2 0xC95 DUP1 PUSH2 0x1D PUSH0 CODECOPY PUSH0 RETURN INVALID PUSH1 0x80 PUSH1 0x40 MSTORE CALLVALUE DUP1 ISZERO PUSH2 0xF JUMPI PUSH0 DUP1 REVERT JUMPDEST POP PUSH1 0x4 CALLDATASIZE LT PUSH2 0xF3 JUMPI PUSH0 CALLDATALOAD PUSH1 0xE0 SHR DUP1 PUSH4 0x9D953641 GT PUSH2 0x95 JUMPI DUP1 PUSH4 0xCFB92E14 GT PUSH2 0x64 JUMPI DUP1 PUSH4 0xCFB92E14 EQ PUSH2 0x26F JUMPI DUP1 PUSH4 0xD8DE899D EQ PUSH2 0x29F JUMPI DUP1 PUSH4 0xEDF86C2F EQ PUSH2 0x2CF JUMPI DUP1 PUSH4 0xFC563658 EQ PUSH2 0x2FF JUMPI PUSH2 0xF3 JUMP JUMPDEST DUP1 PUSH4 0x9D953641 EQ PUSH2 0x1AF JUMPI DUP1 PUSH4 0xA083317B EQ PUSH2 0x1DF JUMPI DUP1 PUSH4 0xA4DE5946 EQ PUSH2 0x20F JUMPI DUP1 PUSH4 0xC6A5E08E EQ PUSH2 0x23F JUMPI PUSH2 0xF3 JUMP JUMPDEST DUP1 PUSH4 0x4CD273D2 GT PUSH2 0xD1 JUMPI DUP1 PUSH4 0x4CD273D2 EQ PUSH2 0x13B JUMPI DUP1 PUSH4 0x54E3ED0A EQ PUSH2 0x145 JUMPI DUP1 PUSH4 0x68F25FAE EQ PUSH2 0x175 JUMPI DUP1 PUSH4 0x89066A3C EQ PUSH2 0x1A5 JUMPI PUSH2 0xF3 JUMP JUMPDEST DUP1 PUSH4 0x2705F37F EQ PUSH2 0xF7 JUMPI DUP1 PUSH4 0x2BFE1805 EQ PUSH2 0x101 JUMPI DUP1 PUSH4 0x3A2F9EB7 EQ PUSH2 0x11D JUMPI JUMPDEST PUSH0 DUP1 REVERT JUMPDEST PUSH2 0xFF PUSH2 0x32F JUMP JUMPDEST STOP JUMPDEST PUSH2 0x11B PUSH1 0x4 DUP1 CALLDATASIZE SUB DUP2 ADD SWAP1 PUSH2 0x116 SWAP2 SWAP1 PUSH2 0x6DE JUMP JUMPDEST PUSH2 0x356 JUMP JUMPDEST STOP JUMPDEST PUSH2 0x125 PUSH2 0x37F JUMP JUMPDEST PUSH1 0x40 MLOAD PUSH2 0x132 SWAP2 SWAP1 PUSH2 0x718 JUMP JUMPDEST PUSH1 0x40 MLOAD DUP1 SWAP2 SUB SWAP1 RETURN JUMPDEST PUSH2 0x143 PUSH2 0x3CF JUMP JUMPDEST STOP JUMPDEST PUSH2 0x15F PUSH1 0x4 DUP1 CALLDATASIZE SUB DUP2 ADD SWAP1 PUSH2 0x15A SWAP2 SWAP1 PUSH2 0x731 JUMP JUMPDEST PUSH2 0x410 JUMP JUMPDEST PUSH1 0x40 MLOAD PUSH2 0x16C SWAP2 SWAP1 PUSH2 0x718 JUMP JUMPDEST PUSH1 0x40 MLOAD DUP1 SWAP2 SUB SWAP1 RETURN JUMPDEST PUSH2 0x18F PUSH1 0x4 DUP1 CALLDATASIZE SUB DUP2 ADD SWAP1 PUSH2 0x18A SWAP2 SWAP1 PUSH2 0x6DE JUMP JUMPDEST PUSH2 0x425 JUMP JUMPDEST PUSH1 0x40 MLOAD PUSH2 0x19C SWAP2 SWAP1 PUSH2 0x718 JUMP JUMPDEST PUSH1 0x40 MLOAD DUP1 SWAP2 SUB SWAP1 RETURN JUMPDEST PUSH2 0x1AD PUSH2 0x43C JUMP JUMPDEST STOP JUMPDEST PUSH2 0x1C9 PUSH1 0x4 DUP1 CALLDATASIZE SUB DUP2 ADD SWAP1 PUSH2 0x1C4 SWAP2 SWAP1 PUSH2 0x6DE JUMP JUMPDEST PUSH2 0x47D JUMP JUMPDEST PUSH1 0x40 MLOAD PUSH2 0x1D6 SWAP2 SWAP1 PUSH2 0x718 JUMP JUMPDEST PUSH1 0x40 MLOAD DUP1 SWAP2 SUB SWAP1 RETURN JUMPDEST PUSH2 0x1F9 PUSH1 0x4 DUP1 CALLDATASIZE SUB DUP2 ADD SWAP1 PUSH2 0x1F4 SWAP2 SWAP1 PUSH2 0x731 JUMP JUMPDEST PUSH2 0x49C JUMP JUMPDEST PUSH1 0x40 MLOAD PUSH2 0x206 SWAP2 SWAP1 PUSH2 0x718 JUMP JUMPDEST PUSH1 0x40 MLOAD DUP1 SWAP2 SUB SWAP1 RETURN JUMPDEST PUSH2 0x229 PUSH1 0x4 DUP1 CALLDATASIZE SUB DUP2 ADD SWAP1 PUSH2 0x224 SWAP2 SWAP1 PUSH2 0x6DE JUMP JUMPDEST PUSH2 0x4B1 JUMP JUMPDEST PUSH1 0x40 MLOAD PUSH2 0x236 SWAP2 SWAP1 PUSH2 0x7F9 JUMP JUMPDEST PUSH1 0x40 MLOAD DUP1 SWAP2 SUB SWAP1 RETURN JUMPDEST PUSH2 0x259 PUSH1 0x4 DUP1 CALLDATASIZE SUB DUP2 ADD SWAP1 PUSH2 0x254 SWAP2 SWAP1 PUSH2 0x84C JUMP JUMPDEST PUSH2 0x5B7 JUMP JUMPDEST PUSH1 0x40 MLOAD PUSH2 0x266 SWAP2 SWAP1 PUSH2 0x899 JUMP JUMPDEST PUSH1 0x40 MLOAD DUP1 SWAP2 SUB SWAP1 RETURN JUMPDEST PUSH2 0x289 PUSH1 0x4 DUP1 CALLDATASIZE SUB DUP2 ADD SWAP1 PUSH2 0x284 SWAP2 SWAP1 PUSH2 0x731 JUMP JUMPDEST PUSH2 0x5CC JUMP JUMPDEST PUSH1 0x40 MLOAD PUSH2 0x296 SWAP2 SWAP1 PUSH2 0x718 JUMP JUMPDEST PUSH1 0x40 MLOAD DUP1 SWAP2 SUB SWAP1 RETURN JUMPDEST PUSH2 0x2B9 PUSH1 0x4 DUP1 CALLDATASIZE SUB DUP2 ADD SWAP1 PUSH2 0x2B4 SWAP2 SWAP1 PUSH2 0x9DE JUMP JUMPDEST PUSH2 0x5E1 JUMP JUMPDEST PUSH1 0x40 MLOAD PUSH2 0x2C6 SWAP2 SWAP1 PUSH2 0xA77 JUMP JUMPDEST PUSH1 0x40 MLOAD DUP1 SWAP2 SUB SWAP1 RETURN JUMPDEST PUSH2 0x2E9 PUSH1 0x4 DUP1 CALLDATASIZE SUB DUP2 ADD SWAP1 PUSH2 0x2E4 SWAP2 SWAP1 PUSH2 0x6DE JUMP JUMPDEST PUSH2 0x5EB JUMP JUMPDEST PUSH1 0x40 MLOAD PUSH2 0x2F6 SWAP2 SWAP1 PUSH2 0x718 JUMP JUMPDEST PUSH1 0x40 MLOAD DUP1 SWAP2 SUB SWAP1 RETURN JUMPDEST PUSH2 0x319 PUSH1 0x4 DUP1 CALLDATASIZE SUB DUP2 ADD SWAP1 PUSH2 0x314 SWAP2 SWAP1 PUSH2 0x6DE JUMP JUMPDEST PUSH2 0x675 JUMP JUMPDEST PUSH1 0x40 MLOAD PUSH2 0x326 SWAP2 SWAP1 PUSH2 0x718 JUMP JUMPDEST PUSH1 0x40 MLOAD DUP1 SWAP2 SUB SWAP1 RETURN JUMPDEST PUSH1 0x1 DUP1 SLOAD DUP1 PUSH2 0x341 JUMPI PUSH2 0x340 PUSH2 0xA97 JUMP JUMPDEST JUMPDEST PUSH1 0x1 SWAP1 SUB DUP2 DUP2 SWAP1 PUSH0 MSTORE PUSH1 0x20 PUSH0 KECCAK256 ADD PUSH0 SWAP1 SSTORE SWAP1 SSTORE JUMP JUMPDEST PUSH1 0x1 DUP2 SWAP1 DUP1 PUSH1 0x1 DUP2 SLOAD ADD DUP1 DUP3 SSTORE DUP1 SWAP2 POP POP PUSH1 0x1 SWAP1 SUB SWAP1 PUSH0 MSTORE PUSH1 0x20 PUSH0 KECCAK256 ADD PUSH0 SWAP1 SWAP2 SWAP1 SWAP2 SWAP1 SWAP2 POP SSTORE POP JUMP JUMPDEST PUSH0 DUP1 PUSH0 JUMPDEST PUSH1 0x1 DUP1 SLOAD SWAP1 POP DUP2 LT ISZERO PUSH2 0x3C7 JUMPI PUSH1 0x1 DUP2 DUP2 SLOAD DUP2 LT PUSH2 0x3A4 JUMPI PUSH2 0x3A3 PUSH2 0xAC4 JUMP JUMPDEST JUMPDEST SWAP1 PUSH0 MSTORE PUSH1 0x20 PUSH0 KECCAK256 ADD SLOAD DUP3 PUSH2 0x3B8 SWAP2 SWAP1 PUSH2 0xB1E JUMP JUMPDEST SWAP2 POP DUP1 DUP1 PUSH1 0x1 ADD SWAP2 POP POP PUSH2 0x383 JUMP JUMPDEST POP DUP1 SWAP2 POP POP SWAP1 JUMP JUMPDEST PUSH0 JUMPDEST PUSH1 0x6 DUP2 LT ISZERO PUSH2 0x40D JUMPI PUSH1 0x1 DUP2 SWAP1 DUP1 PUSH1 0x1 DUP2 SLOAD ADD DUP1 DUP3 SSTORE DUP1 SWAP2 POP POP PUSH1 0x1 SWAP1 SUB SWAP1 PUSH0 MSTORE PUSH1 0x20 PUSH0 KECCAK256 ADD PUSH0 SWAP1 SWAP2 SWAP1 SWAP2 SWAP1 SWAP2 POP SSTORE DUP1 DUP1 PUSH1 0x1 ADD SWAP2 POP POP PUSH2 0x3D1 JUMP JUMPDEST POP JUMP JUMPDEST PUSH0 DUP2 DUP4 PUSH2 0x41D SWAP2 SWAP1 PUSH2 0xB51 JUMP JUMPDEST SWAP1 POP SWAP3 SWAP2 POP POP JUMP JUMPDEST PUSH0 DUP2 DUP3 PUSH2 0x432 SWAP2 SWAP1 PUSH2 0xB51 JUMP JUMPDEST SWAP2 POP DUP2 SWAP1 POP SWAP2 SWAP1 POP JUMP JUMPDEST PUSH0 JUMPDEST PUSH1 0xA DUP2 LT ISZERO PUSH2 0x47A JUMPI PUSH1 0x1 DUP2 SWAP1 DUP1 PUSH1 0x1 DUP2 SLOAD ADD DUP1 DUP3 SSTORE DUP1 SWAP2 POP POP PUSH1 0x1 SWAP1 SUB SWAP1 PUSH0 MSTORE PUSH1 0x20 PUSH0 KECCAK256 ADD PUSH0 SWAP1 SWAP2 SWAP1 SWAP2 SWAP1 SWAP2 POP SSTORE DUP1 DUP1 PUSH1 0x1 ADD SWAP2 POP POP PUSH2 0x43E JUMP JUMPDEST POP JUMP JUMPDEST PUSH0 DUP2 DUP3 DUP4 PUSH2 0x48B SWAP2 SWAP1 PUSH2 0xB51 JUMP JUMPDEST PUSH2 0x495 SWAP2 SWAP1 PUSH2 0xB51 JUMP JUMPDEST SWAP1 POP SWAP2 SWAP1 POP JUMP JUMPDEST PUSH0 DUP2 DUP4 PUSH2 0x4A9 SWAP2 SWAP1 PUSH2 0xBBF JUMP JUMPDEST SWAP1 POP SWAP3 SWAP2 POP POP JUMP JUMPDEST PUSH1 0x60 DUP1 PUSH1 0x1 DUP4 LT ISZERO DUP1 ISZERO PUSH2 0x4C6 JUMPI POP PUSH1 0xA DUP4 GT ISZERO JUMPDEST ISZERO PUSH2 0x508 JUMPI PUSH1 0x40 MLOAD DUP1 PUSH1 0x40 ADD PUSH1 0x40 MSTORE DUP1 PUSH1 0x1 DUP2 MSTORE PUSH1 0x20 ADD PUSH32 0x4100000000000000000000000000000000000000000000000000000000000000 DUP2 MSTORE POP SWAP1 POP PUSH2 0x5AE JUMP JUMPDEST PUSH1 0xB DUP4 LT ISZERO DUP1 ISZERO PUSH2 0x51A JUMPI POP PUSH1 0x14 DUP4 GT ISZERO JUMPDEST ISZERO PUSH2 0x55C JUMPI PUSH1 0x40 MLOAD DUP1 PUSH1 0x40 ADD PUSH1 0x40 MSTORE DUP1 PUSH1 0x1 DUP2 MSTORE PUSH1 0x20 ADD PUSH32 0x4200000000000000000000000000000000000000000000000000000000000000 DUP2 MSTORE POP SWAP1 POP PUSH2 0x5AD JUMP JUMPDEST PUSH1 0x15 DUP4 LT ISZERO DUP1 ISZERO PUSH2 0x56E JUMPI POP PUSH1 0x1E DUP4 GT ISZERO JUMPDEST ISZERO PUSH2 0x5AC JUMPI PUSH1 0x40 MLOAD DUP1 PUSH1 0x40 ADD PUSH1 0x40 MSTORE DUP1 PUSH1 0x1 DUP2 MSTORE PUSH1 0x20 ADD PUSH32 0x4300000000000000000000000000000000000000000000000000000000000000 DUP2 MSTORE POP SWAP1 POP JUMPDEST JUMPDEST JUMPDEST DUP1 SWAP2 POP POP SWAP2 SWAP1 POP JUMP JUMPDEST PUSH0 DUP2 DUP4 PUSH2 0x5C4 SWAP2 SWAP1 PUSH2 0xBEF JUMP JUMPDEST SWAP1 POP SWAP3 SWAP2 POP POP JUMP JUMPDEST PUSH0 DUP2 DUP4 PUSH2 0x5D9 SWAP2 SWAP1 PUSH2 0xB1E JUMP JUMPDEST SWAP1 POP SWAP3 SWAP2 POP POP JUMP JUMPDEST PUSH1 0x60 DUP2 SWAP1 POP SWAP2 SWAP1 POP JUMP JUMPDEST PUSH0 PUSH1 0x1 DUP3 LT ISZERO DUP1 ISZERO PUSH2 0x5FE JUMPI POP PUSH1 0x3 DUP3 GT ISZERO JUMPDEST ISZERO PUSH2 0x616 JUMPI DUP2 DUP3 PUSH2 0x60F SWAP2 SWAP1 PUSH2 0xB51 JUMP JUMPDEST SWAP1 POP PUSH2 0x670 JUMP JUMPDEST PUSH1 0x4 DUP3 LT ISZERO DUP1 ISZERO PUSH2 0x628 JUMPI POP PUSH1 0x6 DUP3 GT ISZERO JUMPDEST ISZERO PUSH2 0x641 JUMPI PUSH1 0x2 DUP3 PUSH2 0x63A SWAP2 SWAP1 PUSH2 0xB51 JUMP JUMPDEST SWAP1 POP PUSH2 0x670 JUMP JUMPDEST PUSH1 0x7 DUP3 LT ISZERO DUP1 ISZERO PUSH2 0x653 JUMPI POP PUSH1 0x9 DUP3 GT ISZERO JUMPDEST ISZERO PUSH2 0x66C JUMPI PUSH1 0x3 DUP3 PUSH2 0x665 SWAP2 SWAP1 PUSH2 0xC2F JUMP JUMPDEST SWAP1 POP PUSH2 0x670 JUMP JUMPDEST DUP2 SWAP1 POP JUMPDEST SWAP2 SWAP1 POP JUMP JUMPDEST PUSH0 PUSH1 0x1 DUP3 DUP2 SLOAD DUP2 LT PUSH2 0x68A JUMPI PUSH2 0x689 PUSH2 0xAC4 JUMP JUMPDEST JUMPDEST SWAP1 PUSH0 MSTORE PUSH1 0x20 PUSH0 KECCAK256 ADD SLOAD SWAP1 POP SWAP2 SWAP1 POP JUMP JUMPDEST PUSH0 PUSH1 0x40 MLOAD SWAP1 POP SWAP1 JUMP JUMPDEST PUSH0 DUP1 REVERT JUMPDEST PUSH0 DUP1 REVERT JUMPDEST PUSH0 DUP2 SWAP1 POP SWAP2 SWAP1 POP JUMP JUMPDEST PUSH2 0x6BD DUP2 PUSH2 0x6AB JUMP JUMPDEST DUP2 EQ PUSH2 0x6C7 JUMPI PUSH0 DUP1 REVERT JUMPDEST POP JUMP JUMPDEST PUSH0 DUP2 CALLDATALOAD SWAP1 POP PUSH2 0x6D8 DUP2 PUSH2 0x6B4 JUMP JUMPDEST SWAP3 SWAP2 POP POP JUMP JUMPDEST PUSH0 PUSH1 0x20 DUP3 DUP5 SUB SLT ISZERO PUSH2 0x6F3 JUMPI PUSH2 0x6F2 PUSH2 0x6A3 JUMP JUMPDEST JUMPDEST PUSH0 PUSH2 0x700 DUP5 DUP3 DUP6 ADD PUSH2 0x6CA JUMP JUMPDEST SWAP2 POP POP SWAP3 SWAP2 POP POP JUMP JUMPDEST PUSH2 0x712 DUP2 PUSH2 0x6AB JUMP JUMPDEST DUP3 MSTORE POP POP JUMP JUMPDEST PUSH0 PUSH1 0x20 DUP3 ADD SWAP1 POP PUSH2 0x72B PUSH0 DUP4 ADD DUP5 PUSH2 0x709 JUMP JUMPDEST SWAP3 SWAP2 POP POP JUMP JUMPDEST PUSH0 DUP1 PUSH1 0x40 DUP4 DUP6 SUB SLT ISZERO PUSH2 0x747 JUMPI PUSH2 0x746 PUSH2 0x6A3 JUMP JUMPDEST JUMPDEST PUSH0 PUSH2 0x754 DUP6 DUP3 DUP7 ADD PUSH2 0x6CA JUMP JUMPDEST SWAP3 POP POP PUSH1 0x20 PUSH2 0x765 DUP6 DUP3 DUP7 ADD PUSH2 0x6CA JUMP JUMPDEST SWAP2 POP POP SWAP3 POP SWAP3 SWAP1 POP JUMP JUMPDEST PUSH0 DUP2 MLOAD SWAP1 POP SWAP2 SWAP1 POP JUMP JUMPDEST PUSH0 DUP3 DUP3 MSTORE PUSH1 0x20 DUP3 ADD SWAP1 POP SWAP3 SWAP2 POP POP JUMP JUMPDEST PUSH0 JUMPDEST DUP4 DUP2 LT ISZERO PUSH2 0x7A6 JUMPI DUP1 DUP3 ADD MLOAD DUP2 DUP5 ADD MSTORE PUSH1 0x20 DUP2 ADD SWAP1 POP PUSH2 0x78B JUMP JUMPDEST PUSH0 DUP5 DUP5 ADD MSTORE POP POP POP POP JUMP JUMPDEST PUSH0 PUSH1 0x1F NOT PUSH1 0x1F DUP4 ADD AND SWAP1 POP SWAP2 SWAP1 POP JUMP JUMPDEST PUSH0 PUSH2 0x7CB DUP3 PUSH2 0x76F JUMP JUMPDEST PUSH2 0x7D5 DUP2 DUP6 PUSH2 0x779 JUMP JUMPDEST SWAP4 POP PUSH2 0x7E5 DUP2 DUP6 PUSH1 0x20 DUP7 ADD PUSH2 0x789 JUMP JUMPDEST PUSH2 0x7EE DUP2 PUSH2 0x7B1 JUMP JUMPDEST DUP5 ADD SWAP2 POP POP SWAP3 SWAP2 POP POP JUMP JUMPDEST PUSH0 PUSH1 0x20 DUP3 ADD SWAP1 POP DUP2 DUP2 SUB PUSH0 DUP4 ADD MSTORE PUSH2 0x811 DUP2 DUP5 PUSH2 0x7C1 JUMP JUMPDEST SWAP1 POP SWAP3 SWAP2 POP POP JUMP JUMPDEST PUSH0 DUP2 SWAP1 POP SWAP2 SWAP1 POP JUMP JUMPDEST PUSH2 0x82B DUP2 PUSH2 0x819 JUMP JUMPDEST DUP2 EQ PUSH2 0x835 JUMPI PUSH0 DUP1 REVERT JUMPDEST POP JUMP JUMPDEST PUSH0 DUP2 CALLDATALOAD SWAP1 POP PUSH2 0x846 DUP2 PUSH2 0x822 JUMP JUMPDEST SWAP3 SWAP2 POP POP JUMP JUMPDEST PUSH0 DUP1 PUSH1 0x40 DUP4 DUP6 SUB SLT ISZERO PUSH2 0x862 JUMPI PUSH2 0x861 PUSH2 0x6A3 JUMP JUMPDEST JUMPDEST PUSH0 PUSH2 0x86F DUP6 DUP3 DUP7 ADD PUSH2 0x838 JUMP JUMPDEST SWAP3 POP POP PUSH1 0x20 PUSH2 0x880 DUP6 DUP3 DUP7 ADD PUSH2 0x838 JUMP JUMPDEST SWAP2 POP POP SWAP3 POP SWAP3 SWAP1 POP JUMP JUMPDEST PUSH2 0x893 DUP2 PUSH2 0x819 JUMP JUMPDEST DUP3 MSTORE POP POP JUMP JUMPDEST PUSH0 PUSH1 0x20 DUP3 ADD SWAP1 POP PUSH2 0x8AC PUSH0 DUP4 ADD DUP5 PUSH2 0x88A JUMP JUMPDEST SWAP3 SWAP2 POP POP JUMP JUMPDEST PUSH0 DUP1 REVERT JUMPDEST PUSH0 DUP1 REVERT JUMPDEST PUSH32 0x4E487B7100000000000000000000000000000000000000000000000000000000 PUSH0 MSTORE PUSH1 0x41 PUSH1 0x4 MSTORE PUSH1 0x24 PUSH0 REVERT JUMPDEST PUSH2 0x8F0 DUP3 PUSH2 0x7B1 JUMP JUMPDEST DUP2 ADD DUP2 DUP2 LT PUSH8 0xFFFFFFFFFFFFFFFF DUP3 GT OR ISZERO PUSH2 0x90F JUMPI PUSH2 0x90E PUSH2 0x8BA JUMP JUMPDEST JUMPDEST DUP1 PUSH1 0x40 MSTORE POP POP POP JUMP JUMPDEST PUSH0 PUSH2 0x921 PUSH2 0x69A JUMP JUMPDEST SWAP1 POP PUSH2 0x92D DUP3 DUP3 PUSH2 0x8E7 JUMP JUMPDEST SWAP2 SWAP1 POP JUMP JUMPDEST PUSH0 PUSH8 0xFFFFFFFFFFFFFFFF DUP3 GT ISZERO PUSH2 0x94C JUMPI PUSH2 0x94B PUSH2 0x8BA JUMP JUMPDEST JUMPDEST PUSH2 0x955 DUP3 PUSH2 0x7B1 JUMP JUMPDEST SWAP1 POP PUSH1 0x20 DUP2 ADD SWAP1 POP SWAP2 SWAP1 POP JUMP JUMPDEST DUP3 DUP2 DUP4 CALLDATACOPY PUSH0 DUP4 DUP4 ADD MSTORE POP POP POP JUMP JUMPDEST PUSH0 PUSH2 0x982 PUSH2 0x97D DUP5 PUSH2 0x932 JUMP JUMPDEST PUSH2 0x918 JUMP JUMPDEST SWAP1 POP DUP3 DUP2 MSTORE PUSH1 0x20 DUP2 ADD DUP5 DUP5 DUP5 ADD GT ISZERO PUSH2 0x99E JUMPI PUSH2 0x99D PUSH2 0x8B6 JUMP JUMPDEST JUMPDEST PUSH2 0x9A9 DUP5 DUP3 DUP6 PUSH2 0x962 JUMP JUMPDEST POP SWAP4 SWAP3 POP POP POP JUMP JUMPDEST PUSH0 DUP3 PUSH1 0x1F DUP4 ADD SLT PUSH2 0x9C5 JUMPI PUSH2 0x9C4 PUSH2 0x8B2 JUMP JUMPDEST JUMPDEST DUP2 CALLDATALOAD PUSH2 0x9D5 DUP5 DUP3 PUSH1 0x20 DUP7 ADD PUSH2 0x970 JUMP JUMPDEST SWAP2 POP POP SWAP3 SWAP2 POP POP JUMP JUMPDEST PUSH0 PUSH1 0x20 DUP3 DUP5 SUB SLT ISZERO PUSH2 0x9F3 JUMPI PUSH2 0x9F2 PUSH2 0x6A3 JUMP JUMPDEST JUMPDEST PUSH0 DUP3 ADD CALLDATALOAD PUSH8 0xFFFFFFFFFFFFFFFF DUP2 GT ISZERO PUSH2 0xA10 JUMPI PUSH2 0xA0F PUSH2 0x6A7 JUMP JUMPDEST JUMPDEST PUSH2 0xA1C DUP5 DUP3 DUP6 ADD PUSH2 0x9B1 JUMP JUMPDEST SWAP2 POP POP SWAP3 SWAP2 POP POP JUMP JUMPDEST PUSH0 DUP2 MLOAD SWAP1 POP SWAP2 SWAP1 POP JUMP JUMPDEST PUSH0 DUP3 DUP3 MSTORE PUSH1 0x20 DUP3 ADD SWAP1 POP SWAP3 SWAP2 POP POP JUMP JUMPDEST PUSH0 PUSH2 0xA49 DUP3 PUSH2 0xA25 JUMP JUMPDEST PUSH2 0xA53 DUP2 DUP6 PUSH2 0xA2F JUMP JUMPDEST SWAP4 POP PUSH2 0xA63 DUP2 DUP6 PUSH1 0x20 DUP7 ADD PUSH2 0x789 JUMP JUMPDEST PUSH2 0xA6C DUP2 PUSH2 0x7B1 JUMP JUMPDEST DUP5 ADD SWAP2 POP POP SWAP3 SWAP2 POP POP JUMP JUMPDEST PUSH0 PUSH1 0x20 DUP3 ADD SWAP1 POP DUP2 DUP2 SUB PUSH0 DUP4 ADD MSTORE PUSH2 0xA8F DUP2 DUP5 PUSH2 0xA3F JUMP JUMPDEST SWAP1 POP SWAP3 SWAP2 POP POP JUMP JUMPDEST PUSH32 0x4E487B7100000000000000000000000000000000000000000000000000000000 PUSH0 MSTORE PUSH1 0x31 PUSH1 0x4 MSTORE PUSH1 0x24 PUSH0 REVERT JUMPDEST PUSH32 0x4E487B7100000000000000000000000000000000000000000000000000000000 PUSH0 MSTORE PUSH1 0x32 PUSH1 0x4 MSTORE PUSH1 0x24 PUSH0 REVERT JUMPDEST PUSH32 0x4E487B7100000000000000000000000000000000000000000000000000000000 PUSH0 MSTORE PUSH1 0x11 PUSH1 0x4 MSTORE PUSH1 0x24 PUSH0 REVERT JUMPDEST PUSH0 PUSH2 0xB28 DUP3 PUSH2 0x6AB JUMP JUMPDEST SWAP2 POP PUSH2 0xB33 DUP4 PUSH2 0x6AB JUMP JUMPDEST SWAP3 POP DUP3 DUP3 ADD SWAP1 POP DUP1 DUP3 GT ISZERO PUSH2 0xB4B JUMPI PUSH2 0xB4A PUSH2 0xAF1 JUMP JUMPDEST JUMPDEST SWAP3 SWAP2 POP POP JUMP JUMPDEST PUSH0 PUSH2 0xB5B DUP3 PUSH2 0x6AB JUMP JUMPDEST SWAP2 POP PUSH2 0xB66 DUP4 PUSH2 0x6AB JUMP JUMPDEST SWAP3 POP DUP3 DUP3 MUL PUSH2 0xB74 DUP2 PUSH2 0x6AB JUMP JUMPDEST SWAP2 POP DUP3 DUP3 DIV DUP5 EQ DUP4 ISZERO OR PUSH2 0xB8B JUMPI PUSH2 0xB8A PUSH2 0xAF1 JUMP JUMPDEST JUMPDEST POP SWAP3 SWAP2 POP POP JUMP JUMPDEST PUSH32 0x4E487B7100000000000000000000000000000000000000000000000000000000 PUSH0 MSTORE PUSH1 0x12 PUSH1 0x4 MSTORE PUSH1 0x24 PUSH0 REVERT JUMPDEST PUSH0 PUSH2 0xBC9 DUP3 PUSH2 0x6AB JUMP JUMPDEST SWAP2 POP PUSH2 0xBD4 DUP4 PUSH2 0x6AB JUMP JUMPDEST SWAP3 POP DUP3 PUSH2 0xBE4 JUMPI PUSH2 0xBE3 PUSH2 0xB92 JUMP JUMPDEST JUMPDEST DUP3 DUP3 DIV SWAP1 POP SWAP3 SWAP2 POP POP JUMP JUMPDEST PUSH0 PUSH2 0xBF9 DUP3 PUSH2 0x819 JUMP JUMPDEST SWAP2 POP PUSH2 0xC04 DUP4 PUSH2 0x819 JUMP JUMPDEST SWAP3 POP DUP3 DUP3 SUB SWAP1 POP DUP2 DUP2 SLT PUSH0 DUP5 SLT AND DUP3 DUP3 SGT PUSH0 DUP6 SLT ISZERO AND OR ISZERO PUSH2 0xC29 JUMPI PUSH2 0xC28 PUSH2 0xAF1 JUMP JUMPDEST JUMPDEST SWAP3 SWAP2 POP POP JUMP JUMPDEST PUSH0 PUSH2 0xC39 DUP3 PUSH2 0x6AB JUMP JUMPDEST SWAP2 POP PUSH2 0xC44 DUP4 PUSH2 0x6AB JUMP JUMPDEST SWAP3 POP DUP3 PUSH2 0xC54 JUMPI PUSH2 0xC53 PUSH2 0xB92 JUMP JUMPDEST JUMPDEST DUP3 DUP3 MOD SWAP1 POP SWAP3 SWAP2 POP POP JUMP INVALID LOG2 PUSH5 0x6970667358 0x22 SLT KECCAK256 PUSH20 0x286EA45F48BFB12436D652D29846542443659F51 ORIGIN 0x23 0x5E 0x29 0xCB DUP10 EQ CODECOPY 0xB3 SWAP6 0xDA PUSH5 0x736F6C6343 STOP ADDMOD AND STOP CALLER "
				},
				"gasEstimates": {
					"creation": {
						"codeDepositCost": "644200",
						"executionCost": "674",
						"totalCost": "644874"
					},
					"external": {
						"calc_add(uint256,uint256)": "infinite",
						"calc_cubed(uint256)": "infinite",
						"calc_div(uint256,uint256)": "infinite",
						"calc_mul(uint256,uint256)": "infinite",
						"calc_square(uint256)": "infinite",
						"calc_sub(int256,int256)": "infinite",
						"check_grade(uint256)": "infinite",
						"custom_cal(uint256)": "infinite",
						"getBytes(string)": "infinite",
						"getNumber(uint256)": "infinite",
						"popNumber()": "29465",
						"pushNumber(uint256)": "46867",
						"setNumbers1()": "infinite",
						"setNumbers2()": "infinite",
						"sumNumbers()": "infinite"
					}
				},
				"methodIdentifiers": {
					"calc_add(uint256,uint256)": "cfb92e14",
					"calc_cubed(uint256)": "9d953641",
					"calc_div(uint256,uint256)": "a083317b",
					"calc_mul(uint256,uint256)": "54e3ed0a",
					"calc_square(uint256)": "68f25fae",
					"calc_sub(int256,int256)": "c6a5e08e",
					"check_grade(uint256)": "a4de5946",
					"custom_cal(uint256)": "edf86c2f",
					"getBytes(string)": "d8de899d",
					"getNumber(uint256)": "fc563658",
					"popNumber()": "2705f37f",
					"pushNumber(uint256)": "2bfe1805",
					"setNumbers1()": "89066a3c",
					"setNumbers2()": "4cd273d2",
					"sumNumbers()": "3a2f9eb7"
				}
			},
			"storageLayout": {
				"storage": [
					{
						"astId": 96,
						"contract": "Practice_20231222.sol:Practice",
						"label": "students",
						"offset": 0,
						"slot": "0",
						"type": "t_array(t_struct(Student)92_storage)dyn_storage"
					},
					{
						"astId": 148,
						"contract": "Practice_20231222.sol:Practice",
						"label": "numbers",
						"offset": 0,
						"slot": "1",
						"type": "t_array(t_uint256)dyn_storage"
					}
				],
				"types": {
					"t_array(t_string_storage)dyn_storage": {
						"base": "t_string_storage",
						"encoding": "dynamic_array",
						"label": "string[]",
						"numberOfBytes": "32"
					},
					"t_array(t_struct(Student)92_storage)dyn_storage": {
						"base": "t_struct(Student)92_storage",
						"encoding": "dynamic_array",
						"label": "struct Practice.Student[]",
						"numberOfBytes": "32"
					},
					"t_array(t_uint256)dyn_storage": {
						"base": "t_uint256",
						"encoding": "dynamic_array",
						"label": "uint256[]",
						"numberOfBytes": "32"
					},
					"t_string_storage": {
						"encoding": "bytes",
						"label": "string",
						"numberOfBytes": "32"
					},
					"t_struct(Student)92_storage": {
						"encoding": "inplace",
						"label": "struct Practice.Student",
						"members": [
							{
								"astId": 86,
								"contract": "Practice_20231222.sol:Practice",
								"label": "name",
								"offset": 0,
								"slot": "0",
								"type": "t_string_storage"
							},
							{
								"astId": 88,
								"contract": "Practice_20231222.sol:Practice",
								"label": "number",
								"offset": 0,
								"slot": "1",
								"type": "t_uint256"
							},
							{
								"astId": 91,
								"contract": "Practice_20231222.sol:Practice",
								"label": "course",
								"offset": 0,
								"slot": "2",
								"type": "t_array(t_string_storage)dyn_storage"
							}
						],
						"numberOfBytes": "96"
					},
					"t_uint256": {
						"encoding": "inplace",
						"label": "uint256",
						"numberOfBytes": "32"
					}
				}
			},
			"userdoc": {
				"kind": "user",
				"methods": {},
				"version": 1
			}
		}
	}
}