{
	"basic_41_50.sol": {
		"basic_41_50": {
			"abi": [
				{
					"inputs": [],
					"stateMutability": "nonpayable",
					"type": "constructor"
				},
				{
					"inputs": [],
					"name": "checkBalance",
					"outputs": [
						{
							"internalType": "uint256",
							"name": "",
							"type": "uint256"
						}
					],
					"stateMutability": "view",
					"type": "function"
				},
				{
					"inputs": [
						{
							"internalType": "uint256",
							"name": "_n1",
							"type": "uint256"
						},
						{
							"internalType": "uint256",
							"name": "_n2",
							"type": "uint256"
						},
						{
							"internalType": "uint256",
							"name": "_n3",
							"type": "uint256"
						}
					],
					"name": "concatNum",
					"outputs": [
						{
							"internalType": "uint256",
							"name": "",
							"type": "uint256"
						}
					],
					"stateMutability": "pure",
					"type": "function"
				},
				{
					"inputs": [],
					"name": "desposit",
					"outputs": [],
					"stateMutability": "payable",
					"type": "function"
				},
				{
					"inputs": [
						{
							"internalType": "uint256",
							"name": "_n",
							"type": "uint256"
						}
					],
					"name": "getDigits",
					"outputs": [
						{
							"internalType": "uint256",
							"name": "",
							"type": "uint256"
						}
					],
					"stateMutability": "pure",
					"type": "function"
				},
				{
					"inputs": [
						{
							"internalType": "uint256",
							"name": "_n",
							"type": "uint256"
						}
					],
					"name": "getFirstThree",
					"outputs": [
						{
							"internalType": "uint256",
							"name": "",
							"type": "uint256"
						}
					],
					"stateMutability": "pure",
					"type": "function"
				},
				{
					"inputs": [],
					"name": "getNum4",
					"outputs": [
						{
							"internalType": "uint256[4]",
							"name": "",
							"type": "uint256[4]"
						}
					],
					"stateMutability": "view",
					"type": "function"
				},
				{
					"inputs": [
						{
							"internalType": "uint256",
							"name": "_n",
							"type": "uint256"
						}
					],
					"name": "getRemainUnder1000",
					"outputs": [
						{
							"internalType": "uint256",
							"name": "",
							"type": "uint256"
						}
					],
					"stateMutability": "pure",
					"type": "function"
				},
				{
					"inputs": [],
					"name": "initNum4",
					"outputs": [],
					"stateMutability": "nonpayable",
					"type": "function"
				},
				{
					"inputs": [],
					"name": "initNum4All",
					"outputs": [],
					"stateMutability": "nonpayable",
					"type": "function"
				},
				{
					"inputs": [
						{
							"internalType": "address",
							"name": "_addr",
							"type": "address"
						}
					],
					"name": "newOwner",
					"outputs": [],
					"stateMutability": "nonpayable",
					"type": "function"
				},
				{
					"inputs": [
						{
							"internalType": "string",
							"name": "_name",
							"type": "string"
						},
						{
							"internalType": "uint256",
							"name": "_number",
							"type": "uint256"
						},
						{
							"internalType": "address",
							"name": "_wallet",
							"type": "address"
						}
					],
					"name": "setClient",
					"outputs": [],
					"stateMutability": "nonpayable",
					"type": "function"
				},
				{
					"inputs": [
						{
							"internalType": "string",
							"name": "_name",
							"type": "string"
						}
					],
					"name": "setNameList",
					"outputs": [],
					"stateMutability": "nonpayable",
					"type": "function"
				},
				{
					"inputs": [
						{
							"internalType": "uint256",
							"name": "_n",
							"type": "uint256"
						}
					],
					"name": "setNum4",
					"outputs": [],
					"stateMutability": "nonpayable",
					"type": "function"
				},
				{
					"inputs": [
						{
							"internalType": "uint256",
							"name": "_n",
							"type": "uint256"
						}
					],
					"name": "setNumList",
					"outputs": [],
					"stateMutability": "nonpayable",
					"type": "function"
				},
				{
					"inputs": [
						{
							"internalType": "uint256",
							"name": "_n",
							"type": "uint256"
						}
					],
					"name": "withdraw",
					"outputs": [],
					"stateMutability": "nonpayable",
					"type": "function"
				}
			],
			"devdoc": {
				"kind": "dev",
				"methods": {},
				"version": 1
			},
			"evm": {
				"assembly": "    /* \"basic_41_50.sol\":232:5445  contract basic_41_50 {... */\n  mstore(0x40, 0x80)\n    /* \"basic_41_50.sol\":3875:3926  constructor() {... */\n  callvalue\n  dup1\n  iszero\n  tag_1\n  jumpi\n  0x00\n  dup1\n  revert\ntag_1:\n  pop\n    /* \"basic_41_50.sol\":3908:3918  msg.sender */\n  caller\n    /* \"basic_41_50.sol\":3900:3905  owner */\n  0x08\n  0x00\n    /* \"basic_41_50.sol\":3900:3918  owner = msg.sender */\n  0x0100\n  exp\n  dup2\n  sload\n  dup2\n  0xffffffffffffffffffffffffffffffffffffffff\n  mul\n  not\n  and\n  swap1\n  dup4\n  0xffffffffffffffffffffffffffffffffffffffff\n  and\n  mul\n  or\n  swap1\n  sstore\n  pop\n    /* \"basic_41_50.sol\":232:5445  contract basic_41_50 {... */\n  dataSize(sub_0)\n  dup1\n  dataOffset(sub_0)\n  0x00\n  codecopy\n  0x00\n  return\nstop\n\nsub_0: assembly {\n        /* \"basic_41_50.sol\":232:5445  contract basic_41_50 {... */\n      mstore(0x40, 0x80)\n      jumpi(tag_1, lt(calldatasize, 0x04))\n      shr(0xe0, calldataload(0x00))\n      dup1\n      0x8f4aec3f\n      gt\n      tag_17\n      jumpi\n      dup1\n      0xbd66922e\n      gt\n      tag_18\n      jumpi\n      dup1\n      0xbd66922e\n      eq\n      tag_13\n      jumpi\n      dup1\n      0xc71daccb\n      eq\n      tag_14\n      jumpi\n      dup1\n      0xcdb59e14\n      eq\n      tag_15\n      jumpi\n      dup1\n      0xce8bb065\n      eq\n      tag_16\n      jumpi\n      jump(tag_1)\n    tag_18:\n      dup1\n      0x8f4aec3f\n      eq\n      tag_9\n      jumpi\n      dup1\n      0x9ace3d03\n      eq\n      tag_10\n      jumpi\n      dup1\n      0xb1197bae\n      eq\n      tag_11\n      jumpi\n      dup1\n      0xb3b657e3\n      eq\n      tag_12\n      jumpi\n      jump(tag_1)\n    tag_17:\n      dup1\n      0x5d10c3a9\n      gt\n      tag_19\n      jumpi\n      dup1\n      0x5d10c3a9\n      eq\n      tag_5\n      jumpi\n      dup1\n      0x72d6d069\n      eq\n      tag_6\n      jumpi\n      dup1\n      0x85952454\n      eq\n      tag_7\n      jumpi\n      dup1\n      0x8a6f5402\n      eq\n      tag_8\n      jumpi\n      jump(tag_1)\n    tag_19:\n      dup1\n      0x233411e3\n      eq\n      tag_2\n      jumpi\n      dup1\n      0x2e1a7d4d\n      eq\n      tag_3\n      jumpi\n      dup1\n      0x48ee10f8\n      eq\n      tag_4\n      jumpi\n    tag_1:\n      0x00\n      dup1\n      revert\n        /* \"basic_41_50.sol\":1060:1120  function initNum4All() public {... */\n    tag_2:\n      callvalue\n      dup1\n      iszero\n      tag_20\n      jumpi\n      0x00\n      dup1\n      revert\n    tag_20:\n      pop\n      tag_21\n      tag_22\n      jump\t// in\n    tag_21:\n      stop\n        /* \"basic_41_50.sol\":2568:2736  function withdraw(uint _n) public {... */\n    tag_3:\n      callvalue\n      dup1\n      iszero\n      tag_23\n      jumpi\n      0x00\n      dup1\n      revert\n    tag_23:\n      pop\n      tag_24\n      0x04\n      dup1\n      calldatasize\n      sub\n      dup2\n      add\n      swap1\n      tag_25\n      swap2\n      swap1\n      tag_26\n      jump\t// in\n    tag_25:\n      tag_27\n      jump\t// in\n    tag_24:\n      stop\n        /* \"basic_41_50.sol\":2897:3058  function setNameList(string memory _name) public {... */\n    tag_4:\n      callvalue\n      dup1\n      iszero\n      tag_28\n      jumpi\n      0x00\n      dup1\n      revert\n    tag_28:\n      pop\n      tag_29\n      0x04\n      dup1\n      calldatasize\n      sub\n      dup2\n      add\n      swap1\n      tag_30\n      swap2\n      swap1\n      tag_31\n      jump\t// in\n    tag_30:\n      tag_32\n      jump\t// in\n    tag_29:\n      stop\n        /* \"basic_41_50.sol\":931:1052  function initNum4() public {... */\n    tag_5:\n      callvalue\n      dup1\n      iszero\n      tag_33\n      jumpi\n      0x00\n      dup1\n      revert\n    tag_33:\n      pop\n      tag_34\n      tag_35\n      jump\t// in\n    tag_34:\n      stop\n        /* \"basic_41_50.sol\":4457:4553  function getRemainUnder1000(uint _n) public pure returns(uint) {... */\n    tag_6:\n      callvalue\n      dup1\n      iszero\n      tag_36\n      jumpi\n      0x00\n      dup1\n      revert\n    tag_36:\n      pop\n      tag_37\n      0x04\n      dup1\n      calldatasize\n      sub\n      dup2\n      add\n      swap1\n      tag_38\n      swap2\n      swap1\n      tag_26\n      jump\t// in\n    tag_38:\n      tag_39\n      jump\t// in\n    tag_37:\n      mload(0x40)\n      tag_40\n      swap2\n      swap1\n      tag_41\n      jump\t// in\n    tag_40:\n      mload(0x40)\n      dup1\n      swap2\n      sub\n      swap1\n      return\n        /* \"basic_41_50.sol\":3934:4048  function newOwner(address _addr) public {... */\n    tag_7:\n      callvalue\n      dup1\n      iszero\n      tag_42\n      jumpi\n      0x00\n      dup1\n      revert\n    tag_42:\n      pop\n      tag_43\n      0x04\n      dup1\n      calldatasize\n      sub\n      dup2\n      add\n      swap1\n      tag_44\n      swap2\n      swap1\n      tag_45\n      jump\t// in\n    tag_44:\n      tag_46\n      jump\t// in\n    tag_43:\n      stop\n        /* \"basic_41_50.sol\":1128:1212  function getNum4() public view returns(uint[4] memory){... */\n    tag_8:\n      callvalue\n      dup1\n      iszero\n      tag_47\n      jumpi\n      0x00\n      dup1\n      revert\n    tag_47:\n      pop\n      tag_48\n      tag_49\n      jump\t// in\n    tag_48:\n      mload(0x40)\n      tag_50\n      swap2\n      swap1\n      tag_51\n      jump\t// in\n    tag_50:\n      mload(0x40)\n      dup1\n      swap2\n      sub\n      swap1\n      return\n        /* \"basic_41_50.sol\":5222:5440  function concatNum(uint _n1, uint _n2, uint _n3) public pure returns(uint) {... */\n    tag_9:\n      callvalue\n      dup1\n      iszero\n      tag_52\n      jumpi\n      0x00\n      dup1\n      revert\n    tag_52:\n      pop\n      tag_53\n      0x04\n      dup1\n      calldatasize\n      sub\n      dup2\n      add\n      swap1\n      tag_54\n      swap2\n      swap1\n      tag_55\n      jump\t// in\n    tag_54:\n      tag_56\n      jump\t// in\n    tag_53:\n      mload(0x40)\n      tag_57\n      swap2\n      swap1\n      tag_41\n      jump\t// in\n    tag_57:\n      mload(0x40)\n      dup1\n      swap2\n      sub\n      swap1\n      return\n        /* \"basic_41_50.sol\":3206:3316  function setNumList(uint _n) public {... */\n    tag_10:\n      callvalue\n      dup1\n      iszero\n      tag_58\n      jumpi\n      0x00\n      dup1\n      revert\n    tag_58:\n      pop\n      tag_59\n      0x04\n      dup1\n      calldatasize\n      sub\n      dup2\n      add\n      swap1\n      tag_60\n      swap2\n      swap1\n      tag_26\n      jump\t// in\n    tag_60:\n      tag_61\n      jump\t// in\n    tag_59:\n      stop\n        /* \"basic_41_50.sol\":2371:2457  function desposit() public payable {... */\n    tag_11:\n      tag_62\n      tag_63\n      jump\t// in\n    tag_62:\n      stop\n        /* \"basic_41_50.sol\":625:923  function setNum4(uint _n) public {... */\n    tag_12:\n      callvalue\n      dup1\n      iszero\n      tag_64\n      jumpi\n      0x00\n      dup1\n      revert\n    tag_64:\n      pop\n      tag_65\n      0x04\n      dup1\n      calldatasize\n      sub\n      dup2\n      add\n      swap1\n      tag_66\n      swap2\n      swap1\n      tag_26\n      jump\t// in\n    tag_66:\n      tag_67\n      jump\t// in\n    tag_65:\n      stop\n        /* \"basic_41_50.sol\":1595:1879  function setClient(string memory _name, uint _number, address _wallet) public {... */\n    tag_13:\n      callvalue\n      dup1\n      iszero\n      tag_68\n      jumpi\n      0x00\n      dup1\n      revert\n    tag_68:\n      pop\n      tag_69\n      0x04\n      dup1\n      calldatasize\n      sub\n      dup2\n      add\n      swap1\n      tag_70\n      swap2\n      swap1\n      tag_71\n      jump\t// in\n    tag_70:\n      tag_72\n      jump\t// in\n    tag_69:\n      stop\n        /* \"basic_41_50.sol\":2465:2560  function checkBalance() public view returns(uint) {... */\n    tag_14:\n      callvalue\n      dup1\n      iszero\n      tag_73\n      jumpi\n      0x00\n      dup1\n      revert\n    tag_73:\n      pop\n      tag_74\n      tag_75\n      jump\t// in\n    tag_74:\n      mload(0x40)\n      tag_76\n      swap2\n      swap1\n      tag_41\n      jump\t// in\n    tag_76:\n      mload(0x40)\n      dup1\n      swap2\n      sub\n      swap1\n      return\n        /* \"basic_41_50.sol\":4597:4793  function getFirstThree(uint _n) public pure returns(uint) {... */\n    tag_15:\n      callvalue\n      dup1\n      iszero\n      tag_77\n      jumpi\n      0x00\n      dup1\n      revert\n    tag_77:\n      pop\n      tag_78\n      0x04\n      dup1\n      calldatasize\n      sub\n      dup2\n      add\n      swap1\n      tag_79\n      swap2\n      swap1\n      tag_26\n      jump\t// in\n    tag_79:\n      tag_80\n      jump\t// in\n    tag_78:\n      mload(0x40)\n      tag_81\n      swap2\n      swap1\n      tag_41\n      jump\t// in\n    tag_81:\n      mload(0x40)\n      dup1\n      swap2\n      sub\n      swap1\n      return\n        /* \"basic_41_50.sol\":4801:4967  function getDigits(uint _n) public pure returns(uint) {... */\n    tag_16:\n      callvalue\n      dup1\n      iszero\n      tag_82\n      jumpi\n      0x00\n      dup1\n      revert\n    tag_82:\n      pop\n      tag_83\n      0x04\n      dup1\n      calldatasize\n      sub\n      dup2\n      add\n      swap1\n      tag_84\n      swap2\n      swap1\n      tag_26\n      jump\t// in\n    tag_84:\n      tag_85\n      jump\t// in\n    tag_83:\n      mload(0x40)\n      tag_86\n      swap2\n      swap1\n      tag_41\n      jump\t// in\n    tag_86:\n      mload(0x40)\n      dup1\n      swap2\n      sub\n      swap1\n      return\n        /* \"basic_41_50.sol\":1060:1120  function initNum4All() public {... */\n    tag_22:\n        /* \"basic_41_50.sol\":1108:1112  num4 */\n      0x00\n      dup1\n        /* \"basic_41_50.sol\":1101:1112  delete num4 */\n      tag_88\n      swap2\n      swap1\n      tag_89\n      jump\t// in\n    tag_88:\n        /* \"basic_41_50.sol\":1060:1120  function initNum4All() public {... */\n      jump\t// out\n        /* \"basic_41_50.sol\":2568:2736  function withdraw(uint _n) public {... */\n    tag_27:\n        /* \"basic_41_50.sol\":2644:2646  _n */\n      dup1\n        /* \"basic_41_50.sol\":2621:2628  account */\n      0x05\n        /* \"basic_41_50.sol\":2621:2640  account[msg.sender] */\n      0x00\n        /* \"basic_41_50.sol\":2629:2639  msg.sender */\n      caller\n        /* \"basic_41_50.sol\":2621:2640  account[msg.sender] */\n      0xffffffffffffffffffffffffffffffffffffffff\n      and\n      0xffffffffffffffffffffffffffffffffffffffff\n      and\n      dup2\n      mstore\n      0x20\n      add\n      swap1\n      dup2\n      mstore\n      0x20\n      add\n      0x00\n      keccak256\n      sload\n        /* \"basic_41_50.sol\":2621:2646  account[msg.sender] >= _n */\n      lt\n      iszero\n        /* \"basic_41_50.sol\":2613:2647  require(account[msg.sender] >= _n) */\n      tag_91\n      jumpi\n      0x00\n      dup1\n      revert\n    tag_91:\n        /* \"basic_41_50.sol\":2681:2683  _n */\n      dup1\n        /* \"basic_41_50.sol\":2658:2665  account */\n      0x05\n        /* \"basic_41_50.sol\":2658:2677  account[msg.sender] */\n      0x00\n        /* \"basic_41_50.sol\":2666:2676  msg.sender */\n      caller\n        /* \"basic_41_50.sol\":2658:2677  account[msg.sender] */\n      0xffffffffffffffffffffffffffffffffffffffff\n      and\n      0xffffffffffffffffffffffffffffffffffffffff\n      and\n      dup2\n      mstore\n      0x20\n      add\n      swap1\n      dup2\n      mstore\n      0x20\n      add\n      0x00\n      keccak256\n      0x00\n        /* \"basic_41_50.sol\":2658:2683  account[msg.sender] -= _n */\n      dup3\n      dup3\n      sload\n      tag_92\n      swap2\n      swap1\n      tag_93\n      jump\t// in\n    tag_92:\n      swap3\n      pop\n      pop\n      dup2\n      swap1\n      sstore\n      pop\n        /* \"basic_41_50.sol\":2702:2712  msg.sender */\n      caller\n        /* \"basic_41_50.sol\":2694:2722  payable(msg.sender).transfer */\n      0xffffffffffffffffffffffffffffffffffffffff\n      and\n        /* \"basic_41_50.sol\":2694:2726  payable(msg.sender).transfer(_n) */\n      0x08fc\n        /* \"basic_41_50.sol\":2723:2725  _n */\n      dup3\n        /* \"basic_41_50.sol\":2694:2726  payable(msg.sender).transfer(_n) */\n      swap1\n      dup2\n      iszero\n      mul\n      swap1\n      mload(0x40)\n      0x00\n      mload(0x40)\n      dup1\n      dup4\n      sub\n      dup2\n      dup6\n      dup9\n      dup9\n      call\n      swap4\n      pop\n      pop\n      pop\n      pop\n      iszero\n      dup1\n      iszero\n      tag_95\n      jumpi\n      returndatasize\n      0x00\n      dup1\n      returndatacopy\n      revert(0x00, returndatasize)\n    tag_95:\n      pop\n        /* \"basic_41_50.sol\":2568:2736  function withdraw(uint _n) public {... */\n      pop\n      jump\t// out\n        /* \"basic_41_50.sol\":2897:3058  function setNameList(string memory _name) public {... */\n    tag_32:\n        /* \"basic_41_50.sol\":2988:3001  bytes(\"abcd\") */\n      mload(0x40)\n      dup1\n      0x40\n      add\n      0x40\n      mstore\n      dup1\n      0x04\n      dup2\n      mstore\n      0x20\n      add\n      0x6162636400000000000000000000000000000000000000000000000000000000\n      dup2\n      mstore\n      pop\n        /* \"basic_41_50.sol\":2988:3008  bytes(\"abcd\").length */\n      mload\n        /* \"basic_41_50.sol\":2971:2976  _name */\n      dup2\n        /* \"basic_41_50.sol\":2965:2984  bytes(_name).length */\n      mload\n        /* \"basic_41_50.sol\":2965:3008  bytes(_name).length >= bytes(\"abcd\").length */\n      lt\n      iszero\n        /* \"basic_41_50.sol\":2957:3019  require(bytes(_name).length >= bytes(\"abcd\").length, \"revert\") */\n      tag_97\n      jumpi\n      mload(0x40)\n      0x08c379a000000000000000000000000000000000000000000000000000000000\n      dup2\n      mstore\n      0x04\n      add\n      tag_98\n      swap1\n      tag_99\n      jump\t// in\n    tag_98:\n      mload(0x40)\n      dup1\n      swap2\n      sub\n      swap1\n      revert\n    tag_97:\n        /* \"basic_41_50.sol\":3030:3038  nameList */\n      0x06\n        /* \"basic_41_50.sol\":3044:3049  _name */\n      dup2\n        /* \"basic_41_50.sol\":3030:3050  nameList.push(_name) */\n      swap1\n      dup1\n      0x01\n      dup2\n      sload\n      add\n      dup1\n      dup3\n      sstore\n      dup1\n      swap2\n      pop\n      pop\n      0x01\n      swap1\n      sub\n      swap1\n      0x00\n      mstore\n      keccak256(0x00, 0x20)\n      add\n      0x00\n      swap1\n      swap2\n      swap1\n      swap2\n      swap1\n      swap2\n      pop\n      swap1\n      dup2\n      tag_101\n      swap2\n      swap1\n      tag_102\n      jump\t// in\n    tag_101:\n      pop\n        /* \"basic_41_50.sol\":2897:3058  function setNameList(string memory _name) public {... */\n      pop\n      jump\t// out\n        /* \"basic_41_50.sol\":931:1052  function initNum4() public {... */\n    tag_35:\n        /* \"basic_41_50.sol\":973:979  uint i */\n      0x00\n        /* \"basic_41_50.sol\":969:1045  for(uint i=0; i < num4.length; i++){... */\n    tag_104:\n        /* \"basic_41_50.sol\":987:998  num4.length */\n      0x04\n        /* \"basic_41_50.sol\":983:984  i */\n      dup2\n        /* \"basic_41_50.sol\":983:998  i < num4.length */\n      lt\n        /* \"basic_41_50.sol\":969:1045  for(uint i=0; i < num4.length; i++){... */\n      iszero\n      tag_105\n      jumpi\n        /* \"basic_41_50.sol\":1026:1030  num4 */\n      0x00\n        /* \"basic_41_50.sol\":1031:1032  i */\n      dup2\n        /* \"basic_41_50.sol\":1026:1033  num4[i] */\n      0x04\n      dup2\n      lt\n      tag_107\n      jumpi\n      tag_108\n      tag_109\n      jump\t// in\n    tag_108:\n    tag_107:\n      add\n        /* \"basic_41_50.sol\":1019:1033  delete num4[i] */\n      0x00\n      swap1\n      sstore\n        /* \"basic_41_50.sol\":1000:1003  i++ */\n      dup1\n      dup1\n      0x01\n      add\n      swap2\n      pop\n      pop\n        /* \"basic_41_50.sol\":969:1045  for(uint i=0; i < num4.length; i++){... */\n      jump(tag_104)\n    tag_105:\n      pop\n        /* \"basic_41_50.sol\":931:1052  function initNum4() public {... */\n      jump\t// out\n        /* \"basic_41_50.sol\":4457:4553  function getRemainUnder1000(uint _n) public pure returns(uint) {... */\n    tag_39:\n        /* \"basic_41_50.sol\":4514:4518  uint */\n      0x00\n        /* \"basic_41_50.sol\":4541:4545  1000 */\n      0x03e8\n        /* \"basic_41_50.sol\":4538:4540  _n */\n      dup3\n        /* \"basic_41_50.sol\":4538:4545  _n%1000 */\n      tag_112\n      swap2\n      swap1\n      tag_113\n      jump\t// in\n    tag_112:\n        /* \"basic_41_50.sol\":4531:4545  return _n%1000 */\n      swap1\n      pop\n        /* \"basic_41_50.sol\":4457:4553  function getRemainUnder1000(uint _n) public pure returns(uint) {... */\n      swap2\n      swap1\n      pop\n      jump\t// out\n        /* \"basic_41_50.sol\":3934:4048  function newOwner(address _addr) public {... */\n    tag_46:\n        /* \"basic_41_50.sol\":4002:4007  _addr */\n      dup1\n        /* \"basic_41_50.sol\":3993:4007  owner == _addr */\n      0xffffffffffffffffffffffffffffffffffffffff\n      and\n        /* \"basic_41_50.sol\":3993:3998  owner */\n      0x08\n      0x00\n      swap1\n      sload\n      swap1\n      0x0100\n      exp\n      swap1\n      div\n      0xffffffffffffffffffffffffffffffffffffffff\n      and\n        /* \"basic_41_50.sol\":3993:4007  owner == _addr */\n      0xffffffffffffffffffffffffffffffffffffffff\n      and\n      eq\n        /* \"basic_41_50.sol\":3985:4016  require(owner == _addr, \"back\") */\n      tag_115\n      jumpi\n      mload(0x40)\n      0x08c379a000000000000000000000000000000000000000000000000000000000\n      dup2\n      mstore\n      0x04\n      add\n      tag_116\n      swap1\n      tag_117\n      jump\t// in\n    tag_116:\n      mload(0x40)\n      dup1\n      swap2\n      sub\n      swap1\n      revert\n    tag_115:\n        /* \"basic_41_50.sol\":4035:4040  _addr */\n      dup1\n        /* \"basic_41_50.sol\":4027:4032  owner */\n      0x08\n      0x00\n        /* \"basic_41_50.sol\":4027:4040  owner = _addr */\n      0x0100\n      exp\n      dup2\n      sload\n      dup2\n      0xffffffffffffffffffffffffffffffffffffffff\n      mul\n      not\n      and\n      swap1\n      dup4\n      0xffffffffffffffffffffffffffffffffffffffff\n      and\n      mul\n      or\n      swap1\n      sstore\n      pop\n        /* \"basic_41_50.sol\":3934:4048  function newOwner(address _addr) public {... */\n      pop\n      jump\t// out\n        /* \"basic_41_50.sol\":1128:1212  function getNum4() public view returns(uint[4] memory){... */\n    tag_49:\n        /* \"basic_41_50.sol\":1167:1181  uint[4] memory */\n      tag_118\n      tag_119\n      jump\t// in\n    tag_118:\n        /* \"basic_41_50.sol\":1200:1204  num4 */\n      0x00\n        /* \"basic_41_50.sol\":1193:1204  return num4 */\n      0x04\n      dup1\n      0x20\n      mul\n      mload(0x40)\n      swap1\n      dup2\n      add\n      0x40\n      mstore\n      dup1\n      swap3\n      swap2\n      swap1\n      dup3\n      0x04\n      dup1\n      iszero\n      tag_121\n      jumpi\n      0x20\n      mul\n      dup3\n      add\n      swap2\n    tag_122:\n      dup2\n      sload\n      dup2\n      mstore\n      0x20\n      add\n      swap1\n      0x01\n      add\n      swap1\n      dup1\n      dup4\n      gt\n      tag_122\n      jumpi\n    tag_121:\n      pop\n      pop\n      pop\n      pop\n      pop\n      swap1\n      pop\n        /* \"basic_41_50.sol\":1128:1212  function getNum4() public view returns(uint[4] memory){... */\n      swap1\n      jump\t// out\n        /* \"basic_41_50.sol\":5222:5440  function concatNum(uint _n1, uint _n2, uint _n3) public pure returns(uint) {... */\n    tag_56:\n        /* \"basic_41_50.sol\":5291:5295  uint */\n      0x00\n        /* \"basic_41_50.sol\":5308:5314  uint b */\n      dup1\n        /* \"basic_41_50.sol\":5317:5331  getDigits(_n2) */\n      tag_124\n        /* \"basic_41_50.sol\":5327:5330  _n2 */\n      dup5\n        /* \"basic_41_50.sol\":5317:5326  getDigits */\n      tag_85\n        /* \"basic_41_50.sol\":5317:5331  getDigits(_n2) */\n      jump\t// in\n    tag_124:\n        /* \"basic_41_50.sol\":5308:5331  uint b = getDigits(_n2) */\n      swap1\n      pop\n        /* \"basic_41_50.sol\":5350:5356  uint c */\n      0x00\n        /* \"basic_41_50.sol\":5359:5373  getDigits(_n3) */\n      tag_125\n        /* \"basic_41_50.sol\":5369:5372  _n3 */\n      dup5\n        /* \"basic_41_50.sol\":5359:5368  getDigits */\n      tag_85\n        /* \"basic_41_50.sol\":5359:5373  getDigits(_n3) */\n      jump\t// in\n    tag_125:\n        /* \"basic_41_50.sol\":5350:5373  uint c = getDigits(_n3) */\n      swap1\n      pop\n        /* \"basic_41_50.sol\":5429:5432  _n3 */\n      dup4\n        /* \"basic_41_50.sol\":5424:5425  c */\n      dup2\n        /* \"basic_41_50.sol\":5420:5422  10 */\n      0x0a\n        /* \"basic_41_50.sol\":5420:5425  10**c */\n      tag_126\n      swap2\n      swap1\n      tag_127\n      jump\t// in\n    tag_126:\n        /* \"basic_41_50.sol\":5415:5418  _n2 */\n      dup7\n        /* \"basic_41_50.sol\":5415:5426  _n2*(10**c) */\n      tag_128\n      swap2\n      swap1\n      tag_129\n      jump\t// in\n    tag_128:\n        /* \"basic_41_50.sol\":5409:5410  c */\n      dup3\n        /* \"basic_41_50.sol\":5407:5408  b */\n      dup5\n        /* \"basic_41_50.sol\":5407:5410  b+c */\n      tag_130\n      swap2\n      swap1\n      tag_131\n      jump\t// in\n    tag_130:\n        /* \"basic_41_50.sol\":5402:5404  10 */\n      0x0a\n        /* \"basic_41_50.sol\":5402:5411  10**(b+c) */\n      tag_132\n      swap2\n      swap1\n      tag_127\n      jump\t// in\n    tag_132:\n        /* \"basic_41_50.sol\":5397:5400  _n1 */\n      dup9\n        /* \"basic_41_50.sol\":5397:5412  _n1*(10**(b+c)) */\n      tag_133\n      swap2\n      swap1\n      tag_129\n      jump\t// in\n    tag_133:\n        /* \"basic_41_50.sol\":5397:5426  _n1*(10**(b+c)) + _n2*(10**c) */\n      tag_134\n      swap2\n      swap1\n      tag_131\n      jump\t// in\n    tag_134:\n        /* \"basic_41_50.sol\":5397:5432  _n1*(10**(b+c)) + _n2*(10**c) + _n3 */\n      tag_135\n      swap2\n      swap1\n      tag_131\n      jump\t// in\n    tag_135:\n        /* \"basic_41_50.sol\":5390:5432  return _n1*(10**(b+c)) + _n2*(10**c) + _n3 */\n      swap3\n      pop\n      pop\n      pop\n        /* \"basic_41_50.sol\":5222:5440  function concatNum(uint _n1, uint _n2, uint _n3) public pure returns(uint) {... */\n      swap4\n      swap3\n      pop\n      pop\n      pop\n      jump\t// out\n        /* \"basic_41_50.sol\":3206:3316  function setNumList(uint _n) public {... */\n    tag_61:\n        /* \"basic_41_50.sol\":3267:3270  100 */\n      0x64\n        /* \"basic_41_50.sol\":3261:3263  _n */\n      dup2\n        /* \"basic_41_50.sol\":3261:3270  _n <= 100 */\n      gt\n      iszero\n        /* \"basic_41_50.sol\":3253:3281  require(_n <= 100, \"revert\") */\n      tag_137\n      jumpi\n      mload(0x40)\n      0x08c379a000000000000000000000000000000000000000000000000000000000\n      dup2\n      mstore\n      0x04\n      add\n      tag_138\n      swap1\n      tag_99\n      jump\t// in\n    tag_138:\n      mload(0x40)\n      dup1\n      swap2\n      sub\n      swap1\n      revert\n    tag_137:\n        /* \"basic_41_50.sol\":3292:3299  numList */\n      0x07\n        /* \"basic_41_50.sol\":3305:3307  _n */\n      dup2\n        /* \"basic_41_50.sol\":3292:3308  numList.push(_n) */\n      swap1\n      dup1\n      0x01\n      dup2\n      sload\n      add\n      dup1\n      dup3\n      sstore\n      dup1\n      swap2\n      pop\n      pop\n      0x01\n      swap1\n      sub\n      swap1\n      0x00\n      mstore\n      keccak256(0x00, 0x20)\n      add\n      0x00\n      swap1\n      swap2\n      swap1\n      swap2\n      swap1\n      swap2\n      pop\n      sstore\n        /* \"basic_41_50.sol\":3206:3316  function setNumList(uint _n) public {... */\n      pop\n      jump\t// out\n        /* \"basic_41_50.sol\":2371:2457  function desposit() public payable {... */\n    tag_63:\n        /* \"basic_41_50.sol\":2440:2449  msg.value */\n      callvalue\n        /* \"basic_41_50.sol\":2417:2424  account */\n      0x05\n        /* \"basic_41_50.sol\":2417:2436  account[msg.sender] */\n      0x00\n        /* \"basic_41_50.sol\":2425:2435  msg.sender */\n      caller\n        /* \"basic_41_50.sol\":2417:2436  account[msg.sender] */\n      0xffffffffffffffffffffffffffffffffffffffff\n      and\n      0xffffffffffffffffffffffffffffffffffffffff\n      and\n      dup2\n      mstore\n      0x20\n      add\n      swap1\n      dup2\n      mstore\n      0x20\n      add\n      0x00\n      keccak256\n      0x00\n        /* \"basic_41_50.sol\":2417:2449  account[msg.sender] += msg.value */\n      dup3\n      dup3\n      sload\n      tag_141\n      swap2\n      swap1\n      tag_131\n      jump\t// in\n    tag_141:\n      swap3\n      pop\n      pop\n      dup2\n      swap1\n      sstore\n      pop\n        /* \"basic_41_50.sol\":2371:2457  function desposit() public payable {... */\n      jump\t// out\n        /* \"basic_41_50.sol\":625:923  function setNum4(uint _n) public {... */\n    tag_67:\n        /* \"basic_41_50.sol\":669:675  uint i */\n      0x00\n        /* \"basic_41_50.sol\":686:829  for(i=0; i < num4.length; i++){... */\n    tag_143:\n        /* \"basic_41_50.sol\":699:710  num4.length */\n      0x04\n        /* \"basic_41_50.sol\":695:696  i */\n      dup2\n        /* \"basic_41_50.sol\":695:710  i < num4.length */\n      lt\n        /* \"basic_41_50.sol\":686:829  for(i=0; i < num4.length; i++){... */\n      iszero\n      tag_144\n      jumpi\n        /* \"basic_41_50.sol\":745:746  0 */\n      0x00\n        /* \"basic_41_50.sol\":734:738  num4 */\n      dup1\n        /* \"basic_41_50.sol\":739:740  i */\n      dup3\n        /* \"basic_41_50.sol\":734:741  num4[i] */\n      0x04\n      dup2\n      lt\n      tag_146\n      jumpi\n      tag_147\n      tag_109\n      jump\t// in\n    tag_147:\n    tag_146:\n      add\n      sload\n        /* \"basic_41_50.sol\":734:746  num4[i] == 0 */\n      sub\n        /* \"basic_41_50.sol\":731:818  if(num4[i] == 0){... */\n      tag_149\n      jumpi\n        /* \"basic_41_50.sol\":776:778  _n */\n      dup2\n        /* \"basic_41_50.sol\":766:770  num4 */\n      0x00\n        /* \"basic_41_50.sol\":771:772  i */\n      dup3\n        /* \"basic_41_50.sol\":766:773  num4[i] */\n      0x04\n      dup2\n      lt\n      tag_150\n      jumpi\n      tag_151\n      tag_109\n      jump\t// in\n    tag_151:\n    tag_150:\n      add\n        /* \"basic_41_50.sol\":766:778  num4[i] = _n */\n      dup2\n      swap1\n      sstore\n      pop\n        /* \"basic_41_50.sol\":797:802  break */\n      jump(tag_144)\n        /* \"basic_41_50.sol\":731:818  if(num4[i] == 0){... */\n    tag_149:\n        /* \"basic_41_50.sol\":712:715  i++ */\n      dup1\n      dup1\n      0x01\n      add\n      swap2\n      pop\n      pop\n        /* \"basic_41_50.sol\":686:829  for(i=0; i < num4.length; i++){... */\n      jump(tag_143)\n    tag_144:\n        /* \"basic_41_50.sol\":849:850  4 */\n      0x04\n        /* \"basic_41_50.sol\":844:845  i */\n      dup2\n        /* \"basic_41_50.sol\":844:850  i == 4 */\n      sub\n        /* \"basic_41_50.sol\":841:916  if(i == 4) {... */\n      tag_153\n      jumpi\n        /* \"basic_41_50.sol\":867:877  initNum4() */\n      tag_154\n        /* \"basic_41_50.sol\":867:875  initNum4 */\n      tag_35\n        /* \"basic_41_50.sol\":867:877  initNum4() */\n      jump\t// in\n    tag_154:\n        /* \"basic_41_50.sol\":902:904  _n */\n      dup2\n        /* \"basic_41_50.sol\":892:896  num4 */\n      0x00\n        /* \"basic_41_50.sol\":897:898  0 */\n      dup1\n        /* \"basic_41_50.sol\":892:899  num4[0] */\n      0x04\n      dup2\n      lt\n      tag_155\n      jumpi\n      tag_156\n      tag_109\n      jump\t// in\n    tag_156:\n    tag_155:\n      add\n        /* \"basic_41_50.sol\":892:904  num4[0] = _n */\n      dup2\n      swap1\n      sstore\n      pop\n        /* \"basic_41_50.sol\":841:916  if(i == 4) {... */\n    tag_153:\n        /* \"basic_41_50.sol\":658:923  {... */\n      pop\n        /* \"basic_41_50.sol\":625:923  function setNum4(uint _n) public {... */\n      pop\n      jump\t// out\n        /* \"basic_41_50.sol\":1595:1879  function setClient(string memory _name, uint _number, address _wallet) public {... */\n    tag_72:\n        /* \"basic_41_50.sol\":1792:1793  5 */\n      0x05\n        /* \"basic_41_50.sol\":1775:1780  _name */\n      dup4\n        /* \"basic_41_50.sol\":1769:1788  bytes(_name).length */\n      mload\n        /* \"basic_41_50.sol\":1769:1793  bytes(_name).length >= 5 */\n      lt\n      iszero\n        /* \"basic_41_50.sol\":1761:1804  require(bytes(_name).length >= 5, \"revert\") */\n      tag_159\n      jumpi\n      mload(0x40)\n      0x08c379a000000000000000000000000000000000000000000000000000000000\n      dup2\n      mstore\n      0x04\n      add\n      tag_160\n      swap1\n      tag_99\n      jump\t// in\n    tag_160:\n      mload(0x40)\n      dup1\n      swap2\n      sub\n      swap1\n      revert\n    tag_159:\n        /* \"basic_41_50.sol\":1815:1825  clientList */\n      0x04\n        /* \"basic_41_50.sol\":1831:1862  Client(_name, _number, _wallet) */\n      mload(0x40)\n      dup1\n      0x60\n      add\n      0x40\n      mstore\n      dup1\n        /* \"basic_41_50.sol\":1838:1843  _name */\n      dup6\n        /* \"basic_41_50.sol\":1831:1862  Client(_name, _number, _wallet) */\n      dup2\n      mstore\n      0x20\n      add\n        /* \"basic_41_50.sol\":1845:1852  _number */\n      dup5\n        /* \"basic_41_50.sol\":1831:1862  Client(_name, _number, _wallet) */\n      dup2\n      mstore\n      0x20\n      add\n        /* \"basic_41_50.sol\":1854:1861  _wallet */\n      dup4\n        /* \"basic_41_50.sol\":1831:1862  Client(_name, _number, _wallet) */\n      0xffffffffffffffffffffffffffffffffffffffff\n      and\n      dup2\n      mstore\n      pop\n        /* \"basic_41_50.sol\":1815:1863  clientList.push(Client(_name, _number, _wallet)) */\n      swap1\n      dup1\n      0x01\n      dup2\n      sload\n      add\n      dup1\n      dup3\n      sstore\n      dup1\n      swap2\n      pop\n      pop\n      0x01\n      swap1\n      sub\n      swap1\n      0x00\n      mstore\n      keccak256(0x00, 0x20)\n      swap1\n      0x03\n      mul\n      add\n      0x00\n      swap1\n      swap2\n      swap1\n      swap2\n      swap1\n      swap2\n      pop\n      0x00\n      dup3\n      add\n      mload\n      dup2\n      0x00\n      add\n      swap1\n      dup2\n      tag_162\n      swap2\n      swap1\n      tag_102\n      jump\t// in\n    tag_162:\n      pop\n      0x20\n      dup3\n      add\n      mload\n      dup2\n      0x01\n      add\n      sstore\n      0x40\n      dup3\n      add\n      mload\n      dup2\n      0x02\n      add\n      exp(0x0100, 0x00)\n      dup2\n      sload\n      dup2\n      0xffffffffffffffffffffffffffffffffffffffff\n      mul\n      not\n      and\n      swap1\n      dup4\n      0xffffffffffffffffffffffffffffffffffffffff\n      and\n      mul\n      or\n      swap1\n      sstore\n      pop\n      pop\n      pop\n        /* \"basic_41_50.sol\":1595:1879  function setClient(string memory _name, uint _number, address _wallet) public {... */\n      pop\n      pop\n      pop\n      jump\t// out\n        /* \"basic_41_50.sol\":2465:2560  function checkBalance() public view returns(uint) {... */\n    tag_75:\n        /* \"basic_41_50.sol\":2509:2513  uint */\n      0x00\n        /* \"basic_41_50.sol\":2533:2540  account */\n      0x05\n        /* \"basic_41_50.sol\":2533:2552  account[msg.sender] */\n      0x00\n        /* \"basic_41_50.sol\":2541:2551  msg.sender */\n      caller\n        /* \"basic_41_50.sol\":2533:2552  account[msg.sender] */\n      0xffffffffffffffffffffffffffffffffffffffff\n      and\n      0xffffffffffffffffffffffffffffffffffffffff\n      and\n      dup2\n      mstore\n      0x20\n      add\n      swap1\n      dup2\n      mstore\n      0x20\n      add\n      0x00\n      keccak256\n      sload\n        /* \"basic_41_50.sol\":2526:2552  return account[msg.sender] */\n      swap1\n      pop\n        /* \"basic_41_50.sol\":2465:2560  function checkBalance() public view returns(uint) {... */\n      swap1\n      jump\t// out\n        /* \"basic_41_50.sol\":4597:4793  function getFirstThree(uint _n) public pure returns(uint) {... */\n    tag_80:\n        /* \"basic_41_50.sol\":4649:4653  uint */\n      0x00\n        /* \"basic_41_50.sol\":4666:4674  uint len */\n      dup1\n        /* \"basic_41_50.sol\":4677:4678  1 */\n      0x01\n        /* \"basic_41_50.sol\":4666:4678  uint len = 1 */\n      swap1\n      pop\n        /* \"basic_41_50.sol\":4693:4699  uint i */\n      0x00\n        /* \"basic_41_50.sol\":4700:4702  _n */\n      dup4\n        /* \"basic_41_50.sol\":4693:4702  uint i=_n */\n      swap1\n      pop\n        /* \"basic_41_50.sol\":4689:4750  for(uint i=_n; i>=10; i/=10) {... */\n    tag_165:\n        /* \"basic_41_50.sol\":4707:4709  10 */\n      0x0a\n        /* \"basic_41_50.sol\":4704:4705  i */\n      dup2\n        /* \"basic_41_50.sol\":4704:4709  i>=10 */\n      lt\n        /* \"basic_41_50.sol\":4689:4750  for(uint i=_n; i>=10; i/=10) {... */\n      tag_166\n      jumpi\n        /* \"basic_41_50.sol\":4733:4738  len++ */\n      dup2\n      dup1\n      tag_168\n      swap1\n      tag_169\n      jump\t// in\n    tag_168:\n      swap3\n      pop\n      pop\n        /* \"basic_41_50.sol\":4714:4716  10 */\n      0x0a\n        /* \"basic_41_50.sol\":4711:4716  i/=10 */\n      dup2\n      tag_170\n      swap2\n      swap1\n      tag_171\n      jump\t// in\n    tag_170:\n      swap1\n      pop\n        /* \"basic_41_50.sol\":4689:4750  for(uint i=_n; i>=10; i/=10) {... */\n      jump(tag_165)\n    tag_166:\n      pop\n        /* \"basic_41_50.sol\":4782:4783  3 */\n      0x03\n        /* \"basic_41_50.sol\":4778:4781  len */\n      dup2\n        /* \"basic_41_50.sol\":4778:4783  len-3 */\n      tag_172\n      swap2\n      swap1\n      tag_93\n      jump\t// in\n    tag_172:\n        /* \"basic_41_50.sol\":4773:4775  10 */\n      0x0a\n        /* \"basic_41_50.sol\":4773:4784  10**(len-3) */\n      tag_173\n      swap2\n      swap1\n      tag_127\n      jump\t// in\n    tag_173:\n        /* \"basic_41_50.sol\":4769:4771  _n */\n      dup4\n        /* \"basic_41_50.sol\":4769:4785  _n/(10**(len-3)) */\n      tag_174\n      swap2\n      swap1\n      tag_171\n      jump\t// in\n    tag_174:\n        /* \"basic_41_50.sol\":4762:4785  return _n/(10**(len-3)) */\n      swap2\n      pop\n      pop\n        /* \"basic_41_50.sol\":4597:4793  function getFirstThree(uint _n) public pure returns(uint) {... */\n      swap2\n      swap1\n      pop\n      jump\t// out\n        /* \"basic_41_50.sol\":4801:4967  function getDigits(uint _n) public pure returns(uint) {... */\n    tag_85:\n        /* \"basic_41_50.sol\":4849:4853  uint */\n      0x00\n        /* \"basic_41_50.sol\":4866:4873  uint _m */\n      dup1\n        /* \"basic_41_50.sol\":4876:4877  1 */\n      0x01\n        /* \"basic_41_50.sol\":4866:4877  uint _m = 1 */\n      swap1\n      pop\n        /* \"basic_41_50.sol\":4888:4940  while( _n >= 10**_m) {... */\n    tag_176:\n        /* \"basic_41_50.sol\":4905:4907  _m */\n      dup1\n        /* \"basic_41_50.sol\":4901:4903  10 */\n      0x0a\n        /* \"basic_41_50.sol\":4901:4907  10**_m */\n      tag_178\n      swap2\n      swap1\n      tag_127\n      jump\t// in\n    tag_178:\n        /* \"basic_41_50.sol\":4895:4897  _n */\n      dup4\n        /* \"basic_41_50.sol\":4895:4907  _n >= 10**_m */\n      lt\n        /* \"basic_41_50.sol\":4888:4940  while( _n >= 10**_m) {... */\n      tag_177\n      jumpi\n        /* \"basic_41_50.sol\":4924:4928  _m++ */\n      dup1\n      dup1\n      tag_179\n      swap1\n      tag_169\n      jump\t// in\n    tag_179:\n      swap2\n      pop\n      pop\n        /* \"basic_41_50.sol\":4888:4940  while( _n >= 10**_m) {... */\n      jump(tag_176)\n    tag_177:\n        /* \"basic_41_50.sol\":4957:4959  _m */\n      dup1\n        /* \"basic_41_50.sol\":4950:4959  return _m */\n      swap2\n      pop\n      pop\n        /* \"basic_41_50.sol\":4801:4967  function getDigits(uint _n) public pure returns(uint) {... */\n      swap2\n      swap1\n      pop\n      jump\t// out\n    tag_89:\n      pop\n      0x00\n      dup2\n      sstore\n      0x01\n      add\n      0x00\n      dup2\n      sstore\n      0x01\n      add\n      0x00\n      dup2\n      sstore\n      0x01\n      add\n      0x00\n      swap1\n      sstore\n      jump\t// out\n    tag_119:\n      mload(0x40)\n      dup1\n      0x80\n      add\n      0x40\n      mstore\n      dup1\n      0x04\n      swap1\n      0x20\n      dup3\n      mul\n      dup1\n      calldatasize\n      dup4\n      calldatacopy\n      dup1\n      dup3\n      add\n      swap2\n      pop\n      pop\n      swap1\n      pop\n      pop\n      swap1\n      jump\t// out\n        /* \"#utility.yul\":7:82   */\n    tag_180:\n        /* \"#utility.yul\":40:46   */\n      0x00\n        /* \"#utility.yul\":73:75   */\n      0x40\n        /* \"#utility.yul\":67:76   */\n      mload\n        /* \"#utility.yul\":57:76   */\n      swap1\n      pop\n        /* \"#utility.yul\":7:82   */\n      swap1\n      jump\t// out\n        /* \"#utility.yul\":88:205   */\n    tag_181:\n        /* \"#utility.yul\":197:198   */\n      0x00\n        /* \"#utility.yul\":194:195   */\n      dup1\n        /* \"#utility.yul\":187:199   */\n      revert\n        /* \"#utility.yul\":211:328   */\n    tag_182:\n        /* \"#utility.yul\":320:321   */\n      0x00\n        /* \"#utility.yul\":317:318   */\n      dup1\n        /* \"#utility.yul\":310:322   */\n      revert\n        /* \"#utility.yul\":334:411   */\n    tag_183:\n        /* \"#utility.yul\":371:378   */\n      0x00\n        /* \"#utility.yul\":400:405   */\n      dup2\n        /* \"#utility.yul\":389:405   */\n      swap1\n      pop\n        /* \"#utility.yul\":334:411   */\n      swap2\n      swap1\n      pop\n      jump\t// out\n        /* \"#utility.yul\":417:539   */\n    tag_184:\n        /* \"#utility.yul\":490:514   */\n      tag_242\n        /* \"#utility.yul\":508:513   */\n      dup2\n        /* \"#utility.yul\":490:514   */\n      tag_183\n      jump\t// in\n    tag_242:\n        /* \"#utility.yul\":483:488   */\n      dup2\n        /* \"#utility.yul\":480:515   */\n      eq\n        /* \"#utility.yul\":470:533   */\n      tag_243\n      jumpi\n        /* \"#utility.yul\":529:530   */\n      0x00\n        /* \"#utility.yul\":526:527   */\n      dup1\n        /* \"#utility.yul\":519:531   */\n      revert\n        /* \"#utility.yul\":470:533   */\n    tag_243:\n        /* \"#utility.yul\":417:539   */\n      pop\n      jump\t// out\n        /* \"#utility.yul\":545:684   */\n    tag_185:\n        /* \"#utility.yul\":591:596   */\n      0x00\n        /* \"#utility.yul\":629:635   */\n      dup2\n        /* \"#utility.yul\":616:636   */\n      calldataload\n        /* \"#utility.yul\":607:636   */\n      swap1\n      pop\n        /* \"#utility.yul\":645:678   */\n      tag_245\n        /* \"#utility.yul\":672:677   */\n      dup2\n        /* \"#utility.yul\":645:678   */\n      tag_184\n      jump\t// in\n    tag_245:\n        /* \"#utility.yul\":545:684   */\n      swap3\n      swap2\n      pop\n      pop\n      jump\t// out\n        /* \"#utility.yul\":690:1019   */\n    tag_26:\n        /* \"#utility.yul\":749:755   */\n      0x00\n        /* \"#utility.yul\":798:800   */\n      0x20\n        /* \"#utility.yul\":786:795   */\n      dup3\n        /* \"#utility.yul\":777:784   */\n      dup5\n        /* \"#utility.yul\":773:796   */\n      sub\n        /* \"#utility.yul\":769:801   */\n      slt\n        /* \"#utility.yul\":766:885   */\n      iszero\n      tag_247\n      jumpi\n        /* \"#utility.yul\":804:883   */\n      tag_248\n      tag_181\n      jump\t// in\n    tag_248:\n        /* \"#utility.yul\":766:885   */\n    tag_247:\n        /* \"#utility.yul\":924:925   */\n      0x00\n        /* \"#utility.yul\":949:1002   */\n      tag_249\n        /* \"#utility.yul\":994:1001   */\n      dup5\n        /* \"#utility.yul\":985:991   */\n      dup3\n        /* \"#utility.yul\":974:983   */\n      dup6\n        /* \"#utility.yul\":970:992   */\n      add\n        /* \"#utility.yul\":949:1002   */\n      tag_185\n      jump\t// in\n    tag_249:\n        /* \"#utility.yul\":939:1002   */\n      swap2\n      pop\n        /* \"#utility.yul\":895:1012   */\n      pop\n        /* \"#utility.yul\":690:1019   */\n      swap3\n      swap2\n      pop\n      pop\n      jump\t// out\n        /* \"#utility.yul\":1025:1142   */\n    tag_186:\n        /* \"#utility.yul\":1134:1135   */\n      0x00\n        /* \"#utility.yul\":1131:1132   */\n      dup1\n        /* \"#utility.yul\":1124:1136   */\n      revert\n        /* \"#utility.yul\":1148:1265   */\n    tag_187:\n        /* \"#utility.yul\":1257:1258   */\n      0x00\n        /* \"#utility.yul\":1254:1255   */\n      dup1\n        /* \"#utility.yul\":1247:1259   */\n      revert\n        /* \"#utility.yul\":1271:1373   */\n    tag_188:\n        /* \"#utility.yul\":1312:1318   */\n      0x00\n        /* \"#utility.yul\":1363:1365   */\n      0x1f\n        /* \"#utility.yul\":1359:1366   */\n      not\n        /* \"#utility.yul\":1354:1356   */\n      0x1f\n        /* \"#utility.yul\":1347:1352   */\n      dup4\n        /* \"#utility.yul\":1343:1357   */\n      add\n        /* \"#utility.yul\":1339:1367   */\n      and\n        /* \"#utility.yul\":1329:1367   */\n      swap1\n      pop\n        /* \"#utility.yul\":1271:1373   */\n      swap2\n      swap1\n      pop\n      jump\t// out\n        /* \"#utility.yul\":1379:1559   */\n    tag_189:\n        /* \"#utility.yul\":1427:1504   */\n      0x4e487b7100000000000000000000000000000000000000000000000000000000\n        /* \"#utility.yul\":1424:1425   */\n      0x00\n        /* \"#utility.yul\":1417:1505   */\n      mstore\n        /* \"#utility.yul\":1524:1528   */\n      0x41\n        /* \"#utility.yul\":1521:1522   */\n      0x04\n        /* \"#utility.yul\":1514:1529   */\n      mstore\n        /* \"#utility.yul\":1548:1552   */\n      0x24\n        /* \"#utility.yul\":1545:1546   */\n      0x00\n        /* \"#utility.yul\":1538:1553   */\n      revert\n        /* \"#utility.yul\":1565:1846   */\n    tag_190:\n        /* \"#utility.yul\":1648:1675   */\n      tag_255\n        /* \"#utility.yul\":1670:1674   */\n      dup3\n        /* \"#utility.yul\":1648:1675   */\n      tag_188\n      jump\t// in\n    tag_255:\n        /* \"#utility.yul\":1640:1646   */\n      dup2\n        /* \"#utility.yul\":1636:1676   */\n      add\n        /* \"#utility.yul\":1778:1784   */\n      dup2\n        /* \"#utility.yul\":1766:1776   */\n      dup2\n        /* \"#utility.yul\":1763:1785   */\n      lt\n        /* \"#utility.yul\":1742:1760   */\n      0xffffffffffffffff\n        /* \"#utility.yul\":1730:1740   */\n      dup3\n        /* \"#utility.yul\":1727:1761   */\n      gt\n        /* \"#utility.yul\":1724:1786   */\n      or\n        /* \"#utility.yul\":1721:1809   */\n      iszero\n      tag_256\n      jumpi\n        /* \"#utility.yul\":1789:1807   */\n      tag_257\n      tag_189\n      jump\t// in\n    tag_257:\n        /* \"#utility.yul\":1721:1809   */\n    tag_256:\n        /* \"#utility.yul\":1829:1839   */\n      dup1\n        /* \"#utility.yul\":1825:1827   */\n      0x40\n        /* \"#utility.yul\":1818:1840   */\n      mstore\n        /* \"#utility.yul\":1608:1846   */\n      pop\n        /* \"#utility.yul\":1565:1846   */\n      pop\n      pop\n      jump\t// out\n        /* \"#utility.yul\":1852:1981   */\n    tag_191:\n        /* \"#utility.yul\":1886:1892   */\n      0x00\n        /* \"#utility.yul\":1913:1933   */\n      tag_259\n      tag_180\n      jump\t// in\n    tag_259:\n        /* \"#utility.yul\":1903:1933   */\n      swap1\n      pop\n        /* \"#utility.yul\":1942:1975   */\n      tag_260\n        /* \"#utility.yul\":1970:1974   */\n      dup3\n        /* \"#utility.yul\":1962:1968   */\n      dup3\n        /* \"#utility.yul\":1942:1975   */\n      tag_190\n      jump\t// in\n    tag_260:\n        /* \"#utility.yul\":1852:1981   */\n      swap2\n      swap1\n      pop\n      jump\t// out\n        /* \"#utility.yul\":1987:2295   */\n    tag_192:\n        /* \"#utility.yul\":2049:2053   */\n      0x00\n        /* \"#utility.yul\":2139:2157   */\n      0xffffffffffffffff\n        /* \"#utility.yul\":2131:2137   */\n      dup3\n        /* \"#utility.yul\":2128:2158   */\n      gt\n        /* \"#utility.yul\":2125:2181   */\n      iszero\n      tag_262\n      jumpi\n        /* \"#utility.yul\":2161:2179   */\n      tag_263\n      tag_189\n      jump\t// in\n    tag_263:\n        /* \"#utility.yul\":2125:2181   */\n    tag_262:\n        /* \"#utility.yul\":2199:2228   */\n      tag_264\n        /* \"#utility.yul\":2221:2227   */\n      dup3\n        /* \"#utility.yul\":2199:2228   */\n      tag_188\n      jump\t// in\n    tag_264:\n        /* \"#utility.yul\":2191:2228   */\n      swap1\n      pop\n        /* \"#utility.yul\":2283:2287   */\n      0x20\n        /* \"#utility.yul\":2277:2281   */\n      dup2\n        /* \"#utility.yul\":2273:2288   */\n      add\n        /* \"#utility.yul\":2265:2288   */\n      swap1\n      pop\n        /* \"#utility.yul\":1987:2295   */\n      swap2\n      swap1\n      pop\n      jump\t// out\n        /* \"#utility.yul\":2301:2447   */\n    tag_193:\n        /* \"#utility.yul\":2398:2404   */\n      dup3\n        /* \"#utility.yul\":2393:2396   */\n      dup2\n        /* \"#utility.yul\":2388:2391   */\n      dup4\n        /* \"#utility.yul\":2375:2405   */\n      calldatacopy\n        /* \"#utility.yul\":2439:2440   */\n      0x00\n        /* \"#utility.yul\":2430:2436   */\n      dup4\n        /* \"#utility.yul\":2425:2428   */\n      dup4\n        /* \"#utility.yul\":2421:2437   */\n      add\n        /* \"#utility.yul\":2414:2441   */\n      mstore\n        /* \"#utility.yul\":2301:2447   */\n      pop\n      pop\n      pop\n      jump\t// out\n        /* \"#utility.yul\":2453:2878   */\n    tag_194:\n        /* \"#utility.yul\":2531:2536   */\n      0x00\n        /* \"#utility.yul\":2556:2622   */\n      tag_267\n        /* \"#utility.yul\":2572:2621   */\n      tag_268\n        /* \"#utility.yul\":2614:2620   */\n      dup5\n        /* \"#utility.yul\":2572:2621   */\n      tag_192\n      jump\t// in\n    tag_268:\n        /* \"#utility.yul\":2556:2622   */\n      tag_191\n      jump\t// in\n    tag_267:\n        /* \"#utility.yul\":2547:2622   */\n      swap1\n      pop\n        /* \"#utility.yul\":2645:2651   */\n      dup3\n        /* \"#utility.yul\":2638:2643   */\n      dup2\n        /* \"#utility.yul\":2631:2652   */\n      mstore\n        /* \"#utility.yul\":2683:2687   */\n      0x20\n        /* \"#utility.yul\":2676:2681   */\n      dup2\n        /* \"#utility.yul\":2672:2688   */\n      add\n        /* \"#utility.yul\":2721:2724   */\n      dup5\n        /* \"#utility.yul\":2712:2718   */\n      dup5\n        /* \"#utility.yul\":2707:2710   */\n      dup5\n        /* \"#utility.yul\":2703:2719   */\n      add\n        /* \"#utility.yul\":2700:2725   */\n      gt\n        /* \"#utility.yul\":2697:2809   */\n      iszero\n      tag_269\n      jumpi\n        /* \"#utility.yul\":2728:2807   */\n      tag_270\n      tag_187\n      jump\t// in\n    tag_270:\n        /* \"#utility.yul\":2697:2809   */\n    tag_269:\n        /* \"#utility.yul\":2818:2872   */\n      tag_271\n        /* \"#utility.yul\":2865:2871   */\n      dup5\n        /* \"#utility.yul\":2860:2863   */\n      dup3\n        /* \"#utility.yul\":2855:2858   */\n      dup6\n        /* \"#utility.yul\":2818:2872   */\n      tag_193\n      jump\t// in\n    tag_271:\n        /* \"#utility.yul\":2537:2878   */\n      pop\n        /* \"#utility.yul\":2453:2878   */\n      swap4\n      swap3\n      pop\n      pop\n      pop\n      jump\t// out\n        /* \"#utility.yul\":2898:3238   */\n    tag_195:\n        /* \"#utility.yul\":2954:2959   */\n      0x00\n        /* \"#utility.yul\":3003:3006   */\n      dup3\n        /* \"#utility.yul\":2996:3000   */\n      0x1f\n        /* \"#utility.yul\":2988:2994   */\n      dup4\n        /* \"#utility.yul\":2984:3001   */\n      add\n        /* \"#utility.yul\":2980:3007   */\n      slt\n        /* \"#utility.yul\":2970:3092   */\n      tag_273\n      jumpi\n        /* \"#utility.yul\":3011:3090   */\n      tag_274\n      tag_186\n      jump\t// in\n    tag_274:\n        /* \"#utility.yul\":2970:3092   */\n    tag_273:\n        /* \"#utility.yul\":3128:3134   */\n      dup2\n        /* \"#utility.yul\":3115:3135   */\n      calldataload\n        /* \"#utility.yul\":3153:3232   */\n      tag_275\n        /* \"#utility.yul\":3228:3231   */\n      dup5\n        /* \"#utility.yul\":3220:3226   */\n      dup3\n        /* \"#utility.yul\":3213:3217   */\n      0x20\n        /* \"#utility.yul\":3205:3211   */\n      dup7\n        /* \"#utility.yul\":3201:3218   */\n      add\n        /* \"#utility.yul\":3153:3232   */\n      tag_194\n      jump\t// in\n    tag_275:\n        /* \"#utility.yul\":3144:3232   */\n      swap2\n      pop\n        /* \"#utility.yul\":2960:3238   */\n      pop\n        /* \"#utility.yul\":2898:3238   */\n      swap3\n      swap2\n      pop\n      pop\n      jump\t// out\n        /* \"#utility.yul\":3244:3753   */\n    tag_31:\n        /* \"#utility.yul\":3313:3319   */\n      0x00\n        /* \"#utility.yul\":3362:3364   */\n      0x20\n        /* \"#utility.yul\":3350:3359   */\n      dup3\n        /* \"#utility.yul\":3341:3348   */\n      dup5\n        /* \"#utility.yul\":3337:3360   */\n      sub\n        /* \"#utility.yul\":3333:3365   */\n      slt\n        /* \"#utility.yul\":3330:3449   */\n      iszero\n      tag_277\n      jumpi\n        /* \"#utility.yul\":3368:3447   */\n      tag_278\n      tag_181\n      jump\t// in\n    tag_278:\n        /* \"#utility.yul\":3330:3449   */\n    tag_277:\n        /* \"#utility.yul\":3516:3517   */\n      0x00\n        /* \"#utility.yul\":3505:3514   */\n      dup3\n        /* \"#utility.yul\":3501:3518   */\n      add\n        /* \"#utility.yul\":3488:3519   */\n      calldataload\n        /* \"#utility.yul\":3546:3564   */\n      0xffffffffffffffff\n        /* \"#utility.yul\":3538:3544   */\n      dup2\n        /* \"#utility.yul\":3535:3565   */\n      gt\n        /* \"#utility.yul\":3532:3649   */\n      iszero\n      tag_279\n      jumpi\n        /* \"#utility.yul\":3568:3647   */\n      tag_280\n      tag_182\n      jump\t// in\n    tag_280:\n        /* \"#utility.yul\":3532:3649   */\n    tag_279:\n        /* \"#utility.yul\":3673:3736   */\n      tag_281\n        /* \"#utility.yul\":3728:3735   */\n      dup5\n        /* \"#utility.yul\":3719:3725   */\n      dup3\n        /* \"#utility.yul\":3708:3717   */\n      dup6\n        /* \"#utility.yul\":3704:3726   */\n      add\n        /* \"#utility.yul\":3673:3736   */\n      tag_195\n      jump\t// in\n    tag_281:\n        /* \"#utility.yul\":3663:3736   */\n      swap2\n      pop\n        /* \"#utility.yul\":3459:3746   */\n      pop\n        /* \"#utility.yul\":3244:3753   */\n      swap3\n      swap2\n      pop\n      pop\n      jump\t// out\n        /* \"#utility.yul\":3759:3877   */\n    tag_196:\n        /* \"#utility.yul\":3846:3870   */\n      tag_283\n        /* \"#utility.yul\":3864:3869   */\n      dup2\n        /* \"#utility.yul\":3846:3870   */\n      tag_183\n      jump\t// in\n    tag_283:\n        /* \"#utility.yul\":3841:3844   */\n      dup3\n        /* \"#utility.yul\":3834:3871   */\n      mstore\n        /* \"#utility.yul\":3759:3877   */\n      pop\n      pop\n      jump\t// out\n        /* \"#utility.yul\":3883:4105   */\n    tag_41:\n        /* \"#utility.yul\":3976:3980   */\n      0x00\n        /* \"#utility.yul\":4014:4016   */\n      0x20\n        /* \"#utility.yul\":4003:4012   */\n      dup3\n        /* \"#utility.yul\":3999:4017   */\n      add\n        /* \"#utility.yul\":3991:4017   */\n      swap1\n      pop\n        /* \"#utility.yul\":4027:4098   */\n      tag_285\n        /* \"#utility.yul\":4095:4096   */\n      0x00\n        /* \"#utility.yul\":4084:4093   */\n      dup4\n        /* \"#utility.yul\":4080:4097   */\n      add\n        /* \"#utility.yul\":4071:4077   */\n      dup5\n        /* \"#utility.yul\":4027:4098   */\n      tag_196\n      jump\t// in\n    tag_285:\n        /* \"#utility.yul\":3883:4105   */\n      swap3\n      swap2\n      pop\n      pop\n      jump\t// out\n        /* \"#utility.yul\":4111:4237   */\n    tag_197:\n        /* \"#utility.yul\":4148:4155   */\n      0x00\n        /* \"#utility.yul\":4188:4230   */\n      0xffffffffffffffffffffffffffffffffffffffff\n        /* \"#utility.yul\":4181:4186   */\n      dup3\n        /* \"#utility.yul\":4177:4231   */\n      and\n        /* \"#utility.yul\":4166:4231   */\n      swap1\n      pop\n        /* \"#utility.yul\":4111:4237   */\n      swap2\n      swap1\n      pop\n      jump\t// out\n        /* \"#utility.yul\":4243:4339   */\n    tag_198:\n        /* \"#utility.yul\":4280:4287   */\n      0x00\n        /* \"#utility.yul\":4309:4333   */\n      tag_288\n        /* \"#utility.yul\":4327:4332   */\n      dup3\n        /* \"#utility.yul\":4309:4333   */\n      tag_197\n      jump\t// in\n    tag_288:\n        /* \"#utility.yul\":4298:4333   */\n      swap1\n      pop\n        /* \"#utility.yul\":4243:4339   */\n      swap2\n      swap1\n      pop\n      jump\t// out\n        /* \"#utility.yul\":4345:4467   */\n    tag_199:\n        /* \"#utility.yul\":4418:4442   */\n      tag_290\n        /* \"#utility.yul\":4436:4441   */\n      dup2\n        /* \"#utility.yul\":4418:4442   */\n      tag_198\n      jump\t// in\n    tag_290:\n        /* \"#utility.yul\":4411:4416   */\n      dup2\n        /* \"#utility.yul\":4408:4443   */\n      eq\n        /* \"#utility.yul\":4398:4461   */\n      tag_291\n      jumpi\n        /* \"#utility.yul\":4457:4458   */\n      0x00\n        /* \"#utility.yul\":4454:4455   */\n      dup1\n        /* \"#utility.yul\":4447:4459   */\n      revert\n        /* \"#utility.yul\":4398:4461   */\n    tag_291:\n        /* \"#utility.yul\":4345:4467   */\n      pop\n      jump\t// out\n        /* \"#utility.yul\":4473:4612   */\n    tag_200:\n        /* \"#utility.yul\":4519:4524   */\n      0x00\n        /* \"#utility.yul\":4557:4563   */\n      dup2\n        /* \"#utility.yul\":4544:4564   */\n      calldataload\n        /* \"#utility.yul\":4535:4564   */\n      swap1\n      pop\n        /* \"#utility.yul\":4573:4606   */\n      tag_293\n        /* \"#utility.yul\":4600:4605   */\n      dup2\n        /* \"#utility.yul\":4573:4606   */\n      tag_199\n      jump\t// in\n    tag_293:\n        /* \"#utility.yul\":4473:4612   */\n      swap3\n      swap2\n      pop\n      pop\n      jump\t// out\n        /* \"#utility.yul\":4618:4947   */\n    tag_45:\n        /* \"#utility.yul\":4677:4683   */\n      0x00\n        /* \"#utility.yul\":4726:4728   */\n      0x20\n        /* \"#utility.yul\":4714:4723   */\n      dup3\n        /* \"#utility.yul\":4705:4712   */\n      dup5\n        /* \"#utility.yul\":4701:4724   */\n      sub\n        /* \"#utility.yul\":4697:4729   */\n      slt\n        /* \"#utility.yul\":4694:4813   */\n      iszero\n      tag_295\n      jumpi\n        /* \"#utility.yul\":4732:4811   */\n      tag_296\n      tag_181\n      jump\t// in\n    tag_296:\n        /* \"#utility.yul\":4694:4813   */\n    tag_295:\n        /* \"#utility.yul\":4852:4853   */\n      0x00\n        /* \"#utility.yul\":4877:4930   */\n      tag_297\n        /* \"#utility.yul\":4922:4929   */\n      dup5\n        /* \"#utility.yul\":4913:4919   */\n      dup3\n        /* \"#utility.yul\":4902:4911   */\n      dup6\n        /* \"#utility.yul\":4898:4920   */\n      add\n        /* \"#utility.yul\":4877:4930   */\n      tag_200\n      jump\t// in\n    tag_297:\n        /* \"#utility.yul\":4867:4930   */\n      swap2\n      pop\n        /* \"#utility.yul\":4823:4940   */\n      pop\n        /* \"#utility.yul\":4618:4947   */\n      swap3\n      swap2\n      pop\n      pop\n      jump\t// out\n        /* \"#utility.yul\":4953:5057   */\n    tag_201:\n        /* \"#utility.yul\":5018:5024   */\n      0x00\n        /* \"#utility.yul\":5046:5050   */\n      0x04\n        /* \"#utility.yul\":5036:5050   */\n      swap1\n      pop\n        /* \"#utility.yul\":4953:5057   */\n      swap2\n      swap1\n      pop\n      jump\t// out\n        /* \"#utility.yul\":5063:5206   */\n    tag_202:\n        /* \"#utility.yul\":5160:5171   */\n      0x00\n        /* \"#utility.yul\":5197:5200   */\n      dup2\n        /* \"#utility.yul\":5182:5200   */\n      swap1\n      pop\n        /* \"#utility.yul\":5063:5206   */\n      swap3\n      swap2\n      pop\n      pop\n      jump\t// out\n        /* \"#utility.yul\":5212:5310   */\n    tag_203:\n        /* \"#utility.yul\":5277:5281   */\n      0x00\n        /* \"#utility.yul\":5300:5303   */\n      dup2\n        /* \"#utility.yul\":5292:5303   */\n      swap1\n      pop\n        /* \"#utility.yul\":5212:5310   */\n      swap2\n      swap1\n      pop\n      jump\t// out\n        /* \"#utility.yul\":5316:5424   */\n    tag_204:\n        /* \"#utility.yul\":5393:5417   */\n      tag_302\n        /* \"#utility.yul\":5411:5416   */\n      dup2\n        /* \"#utility.yul\":5393:5417   */\n      tag_183\n      jump\t// in\n    tag_302:\n        /* \"#utility.yul\":5388:5391   */\n      dup3\n        /* \"#utility.yul\":5381:5418   */\n      mstore\n        /* \"#utility.yul\":5316:5424   */\n      pop\n      pop\n      jump\t// out\n        /* \"#utility.yul\":5430:5609   */\n    tag_205:\n        /* \"#utility.yul\":5499:5509   */\n      0x00\n        /* \"#utility.yul\":5520:5566   */\n      tag_304\n        /* \"#utility.yul\":5562:5565   */\n      dup4\n        /* \"#utility.yul\":5554:5560   */\n      dup4\n        /* \"#utility.yul\":5520:5566   */\n      tag_204\n      jump\t// in\n    tag_304:\n        /* \"#utility.yul\":5598:5602   */\n      0x20\n        /* \"#utility.yul\":5593:5596   */\n      dup4\n        /* \"#utility.yul\":5589:5603   */\n      add\n        /* \"#utility.yul\":5575:5603   */\n      swap1\n      pop\n        /* \"#utility.yul\":5430:5609   */\n      swap3\n      swap2\n      pop\n      pop\n      jump\t// out\n        /* \"#utility.yul\":5615:5726   */\n    tag_206:\n        /* \"#utility.yul\":5683:5687   */\n      0x00\n        /* \"#utility.yul\":5715:5719   */\n      0x20\n        /* \"#utility.yul\":5710:5713   */\n      dup3\n        /* \"#utility.yul\":5706:5720   */\n      add\n        /* \"#utility.yul\":5698:5720   */\n      swap1\n      pop\n        /* \"#utility.yul\":5615:5726   */\n      swap2\n      swap1\n      pop\n      jump\t// out\n        /* \"#utility.yul\":5764:6458   */\n    tag_207:\n        /* \"#utility.yul\":5900:5952   */\n      tag_307\n        /* \"#utility.yul\":5946:5951   */\n      dup2\n        /* \"#utility.yul\":5900:5952   */\n      tag_201\n      jump\t// in\n    tag_307:\n        /* \"#utility.yul\":5968:6052   */\n      tag_308\n        /* \"#utility.yul\":6045:6051   */\n      dup2\n        /* \"#utility.yul\":6040:6043   */\n      dup5\n        /* \"#utility.yul\":5968:6052   */\n      tag_202\n      jump\t// in\n    tag_308:\n        /* \"#utility.yul\":5961:6052   */\n      swap3\n      pop\n        /* \"#utility.yul\":6076:6130   */\n      tag_309\n        /* \"#utility.yul\":6124:6129   */\n      dup3\n        /* \"#utility.yul\":6076:6130   */\n      tag_203\n      jump\t// in\n    tag_309:\n        /* \"#utility.yul\":6153:6160   */\n      dup1\n        /* \"#utility.yul\":6184:6185   */\n      0x00\n        /* \"#utility.yul\":6169:6451   */\n    tag_310:\n        /* \"#utility.yul\":6194:6200   */\n      dup4\n        /* \"#utility.yul\":6191:6192   */\n      dup2\n        /* \"#utility.yul\":6188:6201   */\n      lt\n        /* \"#utility.yul\":6169:6451   */\n      iszero\n      tag_312\n      jumpi\n        /* \"#utility.yul\":6270:6276   */\n      dup2\n        /* \"#utility.yul\":6264:6277   */\n      mload\n        /* \"#utility.yul\":6297:6360   */\n      tag_313\n        /* \"#utility.yul\":6356:6359   */\n      dup8\n        /* \"#utility.yul\":6341:6354   */\n      dup3\n        /* \"#utility.yul\":6297:6360   */\n      tag_205\n      jump\t// in\n    tag_313:\n        /* \"#utility.yul\":6290:6360   */\n      swap7\n      pop\n        /* \"#utility.yul\":6383:6441   */\n      tag_314\n        /* \"#utility.yul\":6434:6440   */\n      dup4\n        /* \"#utility.yul\":6383:6441   */\n      tag_206\n      jump\t// in\n    tag_314:\n        /* \"#utility.yul\":6373:6441   */\n      swap3\n      pop\n        /* \"#utility.yul\":6229:6451   */\n      pop\n        /* \"#utility.yul\":6216:6217   */\n      0x01\n        /* \"#utility.yul\":6213:6214   */\n      dup2\n        /* \"#utility.yul\":6209:6218   */\n      add\n        /* \"#utility.yul\":6204:6218   */\n      swap1\n      pop\n        /* \"#utility.yul\":6169:6451   */\n      jump(tag_310)\n    tag_312:\n        /* \"#utility.yul\":6173:6187   */\n      pop\n        /* \"#utility.yul\":5876:6458   */\n      pop\n      pop\n      pop\n        /* \"#utility.yul\":5764:6458   */\n      pop\n      pop\n      jump\t// out\n        /* \"#utility.yul\":6464:6779   */\n    tag_51:\n        /* \"#utility.yul\":6603:6607   */\n      0x00\n        /* \"#utility.yul\":6641:6644   */\n      0x80\n        /* \"#utility.yul\":6630:6639   */\n      dup3\n        /* \"#utility.yul\":6626:6645   */\n      add\n        /* \"#utility.yul\":6618:6645   */\n      swap1\n      pop\n        /* \"#utility.yul\":6655:6772   */\n      tag_316\n        /* \"#utility.yul\":6769:6770   */\n      0x00\n        /* \"#utility.yul\":6758:6767   */\n      dup4\n        /* \"#utility.yul\":6754:6771   */\n      add\n        /* \"#utility.yul\":6745:6751   */\n      dup5\n        /* \"#utility.yul\":6655:6772   */\n      tag_207\n      jump\t// in\n    tag_316:\n        /* \"#utility.yul\":6464:6779   */\n      swap3\n      swap2\n      pop\n      pop\n      jump\t// out\n        /* \"#utility.yul\":6785:7404   */\n    tag_55:\n        /* \"#utility.yul\":6862:6868   */\n      0x00\n        /* \"#utility.yul\":6870:6876   */\n      dup1\n        /* \"#utility.yul\":6878:6884   */\n      0x00\n        /* \"#utility.yul\":6927:6929   */\n      0x60\n        /* \"#utility.yul\":6915:6924   */\n      dup5\n        /* \"#utility.yul\":6906:6913   */\n      dup7\n        /* \"#utility.yul\":6902:6925   */\n      sub\n        /* \"#utility.yul\":6898:6930   */\n      slt\n        /* \"#utility.yul\":6895:7014   */\n      iszero\n      tag_318\n      jumpi\n        /* \"#utility.yul\":6933:7012   */\n      tag_319\n      tag_181\n      jump\t// in\n    tag_319:\n        /* \"#utility.yul\":6895:7014   */\n    tag_318:\n        /* \"#utility.yul\":7053:7054   */\n      0x00\n        /* \"#utility.yul\":7078:7131   */\n      tag_320\n        /* \"#utility.yul\":7123:7130   */\n      dup7\n        /* \"#utility.yul\":7114:7120   */\n      dup3\n        /* \"#utility.yul\":7103:7112   */\n      dup8\n        /* \"#utility.yul\":7099:7121   */\n      add\n        /* \"#utility.yul\":7078:7131   */\n      tag_185\n      jump\t// in\n    tag_320:\n        /* \"#utility.yul\":7068:7131   */\n      swap4\n      pop\n        /* \"#utility.yul\":7024:7141   */\n      pop\n        /* \"#utility.yul\":7180:7182   */\n      0x20\n        /* \"#utility.yul\":7206:7259   */\n      tag_321\n        /* \"#utility.yul\":7251:7258   */\n      dup7\n        /* \"#utility.yul\":7242:7248   */\n      dup3\n        /* \"#utility.yul\":7231:7240   */\n      dup8\n        /* \"#utility.yul\":7227:7249   */\n      add\n        /* \"#utility.yul\":7206:7259   */\n      tag_185\n      jump\t// in\n    tag_321:\n        /* \"#utility.yul\":7196:7259   */\n      swap3\n      pop\n        /* \"#utility.yul\":7151:7269   */\n      pop\n        /* \"#utility.yul\":7308:7310   */\n      0x40\n        /* \"#utility.yul\":7334:7387   */\n      tag_322\n        /* \"#utility.yul\":7379:7386   */\n      dup7\n        /* \"#utility.yul\":7370:7376   */\n      dup3\n        /* \"#utility.yul\":7359:7368   */\n      dup8\n        /* \"#utility.yul\":7355:7377   */\n      add\n        /* \"#utility.yul\":7334:7387   */\n      tag_185\n      jump\t// in\n    tag_322:\n        /* \"#utility.yul\":7324:7387   */\n      swap2\n      pop\n        /* \"#utility.yul\":7279:7397   */\n      pop\n        /* \"#utility.yul\":6785:7404   */\n      swap3\n      pop\n      swap3\n      pop\n      swap3\n      jump\t// out\n        /* \"#utility.yul\":7410:8209   */\n    tag_71:\n        /* \"#utility.yul\":7497:7503   */\n      0x00\n        /* \"#utility.yul\":7505:7511   */\n      dup1\n        /* \"#utility.yul\":7513:7519   */\n      0x00\n        /* \"#utility.yul\":7562:7564   */\n      0x60\n        /* \"#utility.yul\":7550:7559   */\n      dup5\n        /* \"#utility.yul\":7541:7548   */\n      dup7\n        /* \"#utility.yul\":7537:7560   */\n      sub\n        /* \"#utility.yul\":7533:7565   */\n      slt\n        /* \"#utility.yul\":7530:7649   */\n      iszero\n      tag_324\n      jumpi\n        /* \"#utility.yul\":7568:7647   */\n      tag_325\n      tag_181\n      jump\t// in\n    tag_325:\n        /* \"#utility.yul\":7530:7649   */\n    tag_324:\n        /* \"#utility.yul\":7716:7717   */\n      0x00\n        /* \"#utility.yul\":7705:7714   */\n      dup5\n        /* \"#utility.yul\":7701:7718   */\n      add\n        /* \"#utility.yul\":7688:7719   */\n      calldataload\n        /* \"#utility.yul\":7746:7764   */\n      0xffffffffffffffff\n        /* \"#utility.yul\":7738:7744   */\n      dup2\n        /* \"#utility.yul\":7735:7765   */\n      gt\n        /* \"#utility.yul\":7732:7849   */\n      iszero\n      tag_326\n      jumpi\n        /* \"#utility.yul\":7768:7847   */\n      tag_327\n      tag_182\n      jump\t// in\n    tag_327:\n        /* \"#utility.yul\":7732:7849   */\n    tag_326:\n        /* \"#utility.yul\":7873:7936   */\n      tag_328\n        /* \"#utility.yul\":7928:7935   */\n      dup7\n        /* \"#utility.yul\":7919:7925   */\n      dup3\n        /* \"#utility.yul\":7908:7917   */\n      dup8\n        /* \"#utility.yul\":7904:7926   */\n      add\n        /* \"#utility.yul\":7873:7936   */\n      tag_195\n      jump\t// in\n    tag_328:\n        /* \"#utility.yul\":7863:7936   */\n      swap4\n      pop\n        /* \"#utility.yul\":7659:7946   */\n      pop\n        /* \"#utility.yul\":7985:7987   */\n      0x20\n        /* \"#utility.yul\":8011:8064   */\n      tag_329\n        /* \"#utility.yul\":8056:8063   */\n      dup7\n        /* \"#utility.yul\":8047:8053   */\n      dup3\n        /* \"#utility.yul\":8036:8045   */\n      dup8\n        /* \"#utility.yul\":8032:8054   */\n      add\n        /* \"#utility.yul\":8011:8064   */\n      tag_185\n      jump\t// in\n    tag_329:\n        /* \"#utility.yul\":8001:8064   */\n      swap3\n      pop\n        /* \"#utility.yul\":7956:8074   */\n      pop\n        /* \"#utility.yul\":8113:8115   */\n      0x40\n        /* \"#utility.yul\":8139:8192   */\n      tag_330\n        /* \"#utility.yul\":8184:8191   */\n      dup7\n        /* \"#utility.yul\":8175:8181   */\n      dup3\n        /* \"#utility.yul\":8164:8173   */\n      dup8\n        /* \"#utility.yul\":8160:8182   */\n      add\n        /* \"#utility.yul\":8139:8192   */\n      tag_200\n      jump\t// in\n    tag_330:\n        /* \"#utility.yul\":8129:8192   */\n      swap2\n      pop\n        /* \"#utility.yul\":8084:8202   */\n      pop\n        /* \"#utility.yul\":7410:8209   */\n      swap3\n      pop\n      swap3\n      pop\n      swap3\n      jump\t// out\n        /* \"#utility.yul\":8215:8395   */\n    tag_208:\n        /* \"#utility.yul\":8263:8340   */\n      0x4e487b7100000000000000000000000000000000000000000000000000000000\n        /* \"#utility.yul\":8260:8261   */\n      0x00\n        /* \"#utility.yul\":8253:8341   */\n      mstore\n        /* \"#utility.yul\":8360:8364   */\n      0x11\n        /* \"#utility.yul\":8357:8358   */\n      0x04\n        /* \"#utility.yul\":8350:8365   */\n      mstore\n        /* \"#utility.yul\":8384:8388   */\n      0x24\n        /* \"#utility.yul\":8381:8382   */\n      0x00\n        /* \"#utility.yul\":8374:8389   */\n      revert\n        /* \"#utility.yul\":8401:8595   */\n    tag_93:\n        /* \"#utility.yul\":8441:8445   */\n      0x00\n        /* \"#utility.yul\":8461:8481   */\n      tag_333\n        /* \"#utility.yul\":8479:8480   */\n      dup3\n        /* \"#utility.yul\":8461:8481   */\n      tag_183\n      jump\t// in\n    tag_333:\n        /* \"#utility.yul\":8456:8481   */\n      swap2\n      pop\n        /* \"#utility.yul\":8495:8515   */\n      tag_334\n        /* \"#utility.yul\":8513:8514   */\n      dup4\n        /* \"#utility.yul\":8495:8515   */\n      tag_183\n      jump\t// in\n    tag_334:\n        /* \"#utility.yul\":8490:8515   */\n      swap3\n      pop\n        /* \"#utility.yul\":8539:8540   */\n      dup3\n        /* \"#utility.yul\":8536:8537   */\n      dup3\n        /* \"#utility.yul\":8532:8541   */\n      sub\n        /* \"#utility.yul\":8524:8541   */\n      swap1\n      pop\n        /* \"#utility.yul\":8563:8564   */\n      dup2\n        /* \"#utility.yul\":8557:8561   */\n      dup2\n        /* \"#utility.yul\":8554:8565   */\n      gt\n        /* \"#utility.yul\":8551:8588   */\n      iszero\n      tag_335\n      jumpi\n        /* \"#utility.yul\":8568:8586   */\n      tag_336\n      tag_208\n      jump\t// in\n    tag_336:\n        /* \"#utility.yul\":8551:8588   */\n    tag_335:\n        /* \"#utility.yul\":8401:8595   */\n      swap3\n      swap2\n      pop\n      pop\n      jump\t// out\n        /* \"#utility.yul\":8601:8770   */\n    tag_209:\n        /* \"#utility.yul\":8685:8696   */\n      0x00\n        /* \"#utility.yul\":8719:8725   */\n      dup3\n        /* \"#utility.yul\":8714:8717   */\n      dup3\n        /* \"#utility.yul\":8707:8726   */\n      mstore\n        /* \"#utility.yul\":8759:8763   */\n      0x20\n        /* \"#utility.yul\":8754:8757   */\n      dup3\n        /* \"#utility.yul\":8750:8764   */\n      add\n        /* \"#utility.yul\":8735:8764   */\n      swap1\n      pop\n        /* \"#utility.yul\":8601:8770   */\n      swap3\n      swap2\n      pop\n      pop\n      jump\t// out\n        /* \"#utility.yul\":8776:8932   */\n    tag_210:\n        /* \"#utility.yul\":8916:8924   */\n      0x7265766572740000000000000000000000000000000000000000000000000000\n        /* \"#utility.yul\":8912:8913   */\n      0x00\n        /* \"#utility.yul\":8904:8910   */\n      dup3\n        /* \"#utility.yul\":8900:8914   */\n      add\n        /* \"#utility.yul\":8893:8925   */\n      mstore\n        /* \"#utility.yul\":8776:8932   */\n      pop\n      jump\t// out\n        /* \"#utility.yul\":8938:9303   */\n    tag_211:\n        /* \"#utility.yul\":9080:9083   */\n      0x00\n        /* \"#utility.yul\":9101:9167   */\n      tag_340\n        /* \"#utility.yul\":9165:9166   */\n      0x06\n        /* \"#utility.yul\":9160:9163   */\n      dup4\n        /* \"#utility.yul\":9101:9167   */\n      tag_209\n      jump\t// in\n    tag_340:\n        /* \"#utility.yul\":9094:9167   */\n      swap2\n      pop\n        /* \"#utility.yul\":9176:9269   */\n      tag_341\n        /* \"#utility.yul\":9265:9268   */\n      dup3\n        /* \"#utility.yul\":9176:9269   */\n      tag_210\n      jump\t// in\n    tag_341:\n        /* \"#utility.yul\":9294:9296   */\n      0x20\n        /* \"#utility.yul\":9289:9292   */\n      dup3\n        /* \"#utility.yul\":9285:9297   */\n      add\n        /* \"#utility.yul\":9278:9297   */\n      swap1\n      pop\n        /* \"#utility.yul\":8938:9303   */\n      swap2\n      swap1\n      pop\n      jump\t// out\n        /* \"#utility.yul\":9309:9728   */\n    tag_99:\n        /* \"#utility.yul\":9475:9479   */\n      0x00\n        /* \"#utility.yul\":9513:9515   */\n      0x20\n        /* \"#utility.yul\":9502:9511   */\n      dup3\n        /* \"#utility.yul\":9498:9516   */\n      add\n        /* \"#utility.yul\":9490:9516   */\n      swap1\n      pop\n        /* \"#utility.yul\":9562:9571   */\n      dup2\n        /* \"#utility.yul\":9556:9560   */\n      dup2\n        /* \"#utility.yul\":9552:9572   */\n      sub\n        /* \"#utility.yul\":9548:9549   */\n      0x00\n        /* \"#utility.yul\":9537:9546   */\n      dup4\n        /* \"#utility.yul\":9533:9550   */\n      add\n        /* \"#utility.yul\":9526:9573   */\n      mstore\n        /* \"#utility.yul\":9590:9721   */\n      tag_343\n        /* \"#utility.yul\":9716:9720   */\n      dup2\n        /* \"#utility.yul\":9590:9721   */\n      tag_211\n      jump\t// in\n    tag_343:\n        /* \"#utility.yul\":9582:9721   */\n      swap1\n      pop\n        /* \"#utility.yul\":9309:9728   */\n      swap2\n      swap1\n      pop\n      jump\t// out\n        /* \"#utility.yul\":9734:9833   */\n    tag_212:\n        /* \"#utility.yul\":9786:9792   */\n      0x00\n        /* \"#utility.yul\":9820:9825   */\n      dup2\n        /* \"#utility.yul\":9814:9826   */\n      mload\n        /* \"#utility.yul\":9804:9826   */\n      swap1\n      pop\n        /* \"#utility.yul\":9734:9833   */\n      swap2\n      swap1\n      pop\n      jump\t// out\n        /* \"#utility.yul\":9839:10019   */\n    tag_213:\n        /* \"#utility.yul\":9887:9964   */\n      0x4e487b7100000000000000000000000000000000000000000000000000000000\n        /* \"#utility.yul\":9884:9885   */\n      0x00\n        /* \"#utility.yul\":9877:9965   */\n      mstore\n        /* \"#utility.yul\":9984:9988   */\n      0x22\n        /* \"#utility.yul\":9981:9982   */\n      0x04\n        /* \"#utility.yul\":9974:9989   */\n      mstore\n        /* \"#utility.yul\":10008:10012   */\n      0x24\n        /* \"#utility.yul\":10005:10006   */\n      0x00\n        /* \"#utility.yul\":9998:10013   */\n      revert\n        /* \"#utility.yul\":10025:10345   */\n    tag_214:\n        /* \"#utility.yul\":10069:10075   */\n      0x00\n        /* \"#utility.yul\":10106:10107   */\n      0x02\n        /* \"#utility.yul\":10100:10104   */\n      dup3\n        /* \"#utility.yul\":10096:10108   */\n      div\n        /* \"#utility.yul\":10086:10108   */\n      swap1\n      pop\n        /* \"#utility.yul\":10153:10154   */\n      0x01\n        /* \"#utility.yul\":10147:10151   */\n      dup3\n        /* \"#utility.yul\":10143:10155   */\n      and\n        /* \"#utility.yul\":10174:10192   */\n      dup1\n        /* \"#utility.yul\":10164:10245   */\n      tag_347\n      jumpi\n        /* \"#utility.yul\":10230:10234   */\n      0x7f\n        /* \"#utility.yul\":10222:10228   */\n      dup3\n        /* \"#utility.yul\":10218:10235   */\n      and\n        /* \"#utility.yul\":10208:10235   */\n      swap2\n      pop\n        /* \"#utility.yul\":10164:10245   */\n    tag_347:\n        /* \"#utility.yul\":10292:10294   */\n      0x20\n        /* \"#utility.yul\":10284:10290   */\n      dup3\n        /* \"#utility.yul\":10281:10295   */\n      lt\n        /* \"#utility.yul\":10261:10279   */\n      dup2\n        /* \"#utility.yul\":10258:10296   */\n      sub\n        /* \"#utility.yul\":10255:10339   */\n      tag_348\n      jumpi\n        /* \"#utility.yul\":10311:10329   */\n      tag_349\n      tag_213\n      jump\t// in\n    tag_349:\n        /* \"#utility.yul\":10255:10339   */\n    tag_348:\n        /* \"#utility.yul\":10076:10345   */\n      pop\n        /* \"#utility.yul\":10025:10345   */\n      swap2\n      swap1\n      pop\n      jump\t// out\n        /* \"#utility.yul\":10351:10492   */\n    tag_215:\n        /* \"#utility.yul\":10400:10404   */\n      0x00\n        /* \"#utility.yul\":10423:10426   */\n      dup2\n        /* \"#utility.yul\":10415:10426   */\n      swap1\n      pop\n        /* \"#utility.yul\":10446:10449   */\n      dup2\n        /* \"#utility.yul\":10443:10444   */\n      0x00\n        /* \"#utility.yul\":10436:10450   */\n      mstore\n        /* \"#utility.yul\":10480:10484   */\n      0x20\n        /* \"#utility.yul\":10477:10478   */\n      0x00\n        /* \"#utility.yul\":10467:10485   */\n      keccak256\n        /* \"#utility.yul\":10459:10485   */\n      swap1\n      pop\n        /* \"#utility.yul\":10351:10492   */\n      swap2\n      swap1\n      pop\n      jump\t// out\n        /* \"#utility.yul\":10498:10591   */\n    tag_216:\n        /* \"#utility.yul\":10535:10541   */\n      0x00\n        /* \"#utility.yul\":10582:10584   */\n      0x20\n        /* \"#utility.yul\":10577:10579   */\n      0x1f\n        /* \"#utility.yul\":10570:10575   */\n      dup4\n        /* \"#utility.yul\":10566:10580   */\n      add\n        /* \"#utility.yul\":10562:10585   */\n      div\n        /* \"#utility.yul\":10552:10585   */\n      swap1\n      pop\n        /* \"#utility.yul\":10498:10591   */\n      swap2\n      swap1\n      pop\n      jump\t// out\n        /* \"#utility.yul\":10597:10704   */\n    tag_217:\n        /* \"#utility.yul\":10641:10649   */\n      0x00\n        /* \"#utility.yul\":10691:10696   */\n      dup3\n        /* \"#utility.yul\":10685:10689   */\n      dup3\n        /* \"#utility.yul\":10681:10697   */\n      shl\n        /* \"#utility.yul\":10660:10697   */\n      swap1\n      pop\n        /* \"#utility.yul\":10597:10704   */\n      swap3\n      swap2\n      pop\n      pop\n      jump\t// out\n        /* \"#utility.yul\":10710:11103   */\n    tag_218:\n        /* \"#utility.yul\":10779:10785   */\n      0x00\n        /* \"#utility.yul\":10829:10830   */\n      0x08\n        /* \"#utility.yul\":10817:10827   */\n      dup4\n        /* \"#utility.yul\":10813:10831   */\n      mul\n        /* \"#utility.yul\":10852:10949   */\n      tag_354\n        /* \"#utility.yul\":10882:10948   */\n      0xffffffffffffffffffffffffffffffffffffffffffffffffffffffffffffffff\n        /* \"#utility.yul\":10871:10880   */\n      dup3\n        /* \"#utility.yul\":10852:10949   */\n      tag_217\n      jump\t// in\n    tag_354:\n        /* \"#utility.yul\":10970:11009   */\n      tag_355\n        /* \"#utility.yul\":11000:11008   */\n      dup7\n        /* \"#utility.yul\":10989:10998   */\n      dup4\n        /* \"#utility.yul\":10970:11009   */\n      tag_217\n      jump\t// in\n    tag_355:\n        /* \"#utility.yul\":10958:11009   */\n      swap6\n      pop\n        /* \"#utility.yul\":11042:11046   */\n      dup1\n        /* \"#utility.yul\":11038:11047   */\n      not\n        /* \"#utility.yul\":11031:11036   */\n      dup5\n        /* \"#utility.yul\":11027:11048   */\n      and\n        /* \"#utility.yul\":11018:11048   */\n      swap4\n      pop\n        /* \"#utility.yul\":11091:11095   */\n      dup1\n        /* \"#utility.yul\":11081:11089   */\n      dup7\n        /* \"#utility.yul\":11077:11096   */\n      and\n        /* \"#utility.yul\":11070:11075   */\n      dup5\n        /* \"#utility.yul\":11067:11097   */\n      or\n        /* \"#utility.yul\":11057:11097   */\n      swap3\n      pop\n        /* \"#utility.yul\":10786:11103   */\n      pop\n      pop\n        /* \"#utility.yul\":10710:11103   */\n      swap4\n      swap3\n      pop\n      pop\n      pop\n      jump\t// out\n        /* \"#utility.yul\":11109:11169   */\n    tag_219:\n        /* \"#utility.yul\":11137:11140   */\n      0x00\n        /* \"#utility.yul\":11158:11163   */\n      dup2\n        /* \"#utility.yul\":11151:11163   */\n      swap1\n      pop\n        /* \"#utility.yul\":11109:11169   */\n      swap2\n      swap1\n      pop\n      jump\t// out\n        /* \"#utility.yul\":11175:11317   */\n    tag_220:\n        /* \"#utility.yul\":11225:11234   */\n      0x00\n        /* \"#utility.yul\":11258:11311   */\n      tag_358\n        /* \"#utility.yul\":11276:11310   */\n      tag_359\n        /* \"#utility.yul\":11285:11309   */\n      tag_360\n        /* \"#utility.yul\":11303:11308   */\n      dup5\n        /* \"#utility.yul\":11285:11309   */\n      tag_183\n      jump\t// in\n    tag_360:\n        /* \"#utility.yul\":11276:11310   */\n      tag_219\n      jump\t// in\n    tag_359:\n        /* \"#utility.yul\":11258:11311   */\n      tag_183\n      jump\t// in\n    tag_358:\n        /* \"#utility.yul\":11245:11311   */\n      swap1\n      pop\n        /* \"#utility.yul\":11175:11317   */\n      swap2\n      swap1\n      pop\n      jump\t// out\n        /* \"#utility.yul\":11323:11398   */\n    tag_221:\n        /* \"#utility.yul\":11366:11369   */\n      0x00\n        /* \"#utility.yul\":11387:11392   */\n      dup2\n        /* \"#utility.yul\":11380:11392   */\n      swap1\n      pop\n        /* \"#utility.yul\":11323:11398   */\n      swap2\n      swap1\n      pop\n      jump\t// out\n        /* \"#utility.yul\":11404:11673   */\n    tag_222:\n        /* \"#utility.yul\":11514:11553   */\n      tag_363\n        /* \"#utility.yul\":11545:11552   */\n      dup4\n        /* \"#utility.yul\":11514:11553   */\n      tag_220\n      jump\t// in\n    tag_363:\n        /* \"#utility.yul\":11575:11666   */\n      tag_364\n        /* \"#utility.yul\":11624:11665   */\n      tag_365\n        /* \"#utility.yul\":11648:11664   */\n      dup3\n        /* \"#utility.yul\":11624:11665   */\n      tag_221\n      jump\t// in\n    tag_365:\n        /* \"#utility.yul\":11616:11622   */\n      dup5\n        /* \"#utility.yul\":11609:11613   */\n      dup5\n        /* \"#utility.yul\":11603:11614   */\n      sload\n        /* \"#utility.yul\":11575:11666   */\n      tag_218\n      jump\t// in\n    tag_364:\n        /* \"#utility.yul\":11569:11573   */\n      dup3\n        /* \"#utility.yul\":11562:11667   */\n      sstore\n        /* \"#utility.yul\":11480:11673   */\n      pop\n        /* \"#utility.yul\":11404:11673   */\n      pop\n      pop\n      pop\n      jump\t// out\n        /* \"#utility.yul\":11679:11752   */\n    tag_223:\n        /* \"#utility.yul\":11724:11727   */\n      0x00\n        /* \"#utility.yul\":11679:11752   */\n      swap1\n      jump\t// out\n        /* \"#utility.yul\":11758:11947   */\n    tag_224:\n        /* \"#utility.yul\":11835:11867   */\n      tag_368\n      tag_223\n      jump\t// in\n    tag_368:\n        /* \"#utility.yul\":11876:11941   */\n      tag_369\n        /* \"#utility.yul\":11934:11940   */\n      dup2\n        /* \"#utility.yul\":11926:11932   */\n      dup5\n        /* \"#utility.yul\":11920:11924   */\n      dup5\n        /* \"#utility.yul\":11876:11941   */\n      tag_222\n      jump\t// in\n    tag_369:\n        /* \"#utility.yul\":11811:11947   */\n      pop\n        /* \"#utility.yul\":11758:11947   */\n      pop\n      pop\n      jump\t// out\n        /* \"#utility.yul\":11953:12139   */\n    tag_225:\n        /* \"#utility.yul\":12013:12133   */\n    tag_371:\n        /* \"#utility.yul\":12030:12033   */\n      dup2\n        /* \"#utility.yul\":12023:12028   */\n      dup2\n        /* \"#utility.yul\":12020:12034   */\n      lt\n        /* \"#utility.yul\":12013:12133   */\n      iszero\n      tag_373\n      jumpi\n        /* \"#utility.yul\":12084:12123   */\n      tag_374\n        /* \"#utility.yul\":12121:12122   */\n      0x00\n        /* \"#utility.yul\":12114:12119   */\n      dup3\n        /* \"#utility.yul\":12084:12123   */\n      tag_224\n      jump\t// in\n    tag_374:\n        /* \"#utility.yul\":12057:12058   */\n      0x01\n        /* \"#utility.yul\":12050:12055   */\n      dup2\n        /* \"#utility.yul\":12046:12059   */\n      add\n        /* \"#utility.yul\":12037:12059   */\n      swap1\n      pop\n        /* \"#utility.yul\":12013:12133   */\n      jump(tag_371)\n    tag_373:\n        /* \"#utility.yul\":11953:12139   */\n      pop\n      pop\n      jump\t// out\n        /* \"#utility.yul\":12145:12688   */\n    tag_226:\n        /* \"#utility.yul\":12246:12248   */\n      0x1f\n        /* \"#utility.yul\":12241:12244   */\n      dup3\n        /* \"#utility.yul\":12238:12249   */\n      gt\n        /* \"#utility.yul\":12235:12681   */\n      iszero\n      tag_376\n      jumpi\n        /* \"#utility.yul\":12280:12318   */\n      tag_377\n        /* \"#utility.yul\":12312:12317   */\n      dup2\n        /* \"#utility.yul\":12280:12318   */\n      tag_215\n      jump\t// in\n    tag_377:\n        /* \"#utility.yul\":12364:12393   */\n      tag_378\n        /* \"#utility.yul\":12382:12392   */\n      dup5\n        /* \"#utility.yul\":12364:12393   */\n      tag_216\n      jump\t// in\n    tag_378:\n        /* \"#utility.yul\":12354:12362   */\n      dup2\n        /* \"#utility.yul\":12350:12394   */\n      add\n        /* \"#utility.yul\":12547:12549   */\n      0x20\n        /* \"#utility.yul\":12535:12545   */\n      dup6\n        /* \"#utility.yul\":12532:12550   */\n      lt\n        /* \"#utility.yul\":12529:12578   */\n      iszero\n      tag_379\n      jumpi\n        /* \"#utility.yul\":12568:12576   */\n      dup2\n        /* \"#utility.yul\":12553:12576   */\n      swap1\n      pop\n        /* \"#utility.yul\":12529:12578   */\n    tag_379:\n        /* \"#utility.yul\":12591:12671   */\n      tag_380\n        /* \"#utility.yul\":12647:12669   */\n      tag_381\n        /* \"#utility.yul\":12665:12668   */\n      dup6\n        /* \"#utility.yul\":12647:12669   */\n      tag_216\n      jump\t// in\n    tag_381:\n        /* \"#utility.yul\":12637:12645   */\n      dup4\n        /* \"#utility.yul\":12633:12670   */\n      add\n        /* \"#utility.yul\":12620:12631   */\n      dup3\n        /* \"#utility.yul\":12591:12671   */\n      tag_225\n      jump\t// in\n    tag_380:\n        /* \"#utility.yul\":12250:12681   */\n      pop\n      pop\n        /* \"#utility.yul\":12235:12681   */\n    tag_376:\n        /* \"#utility.yul\":12145:12688   */\n      pop\n      pop\n      pop\n      jump\t// out\n        /* \"#utility.yul\":12694:12811   */\n    tag_227:\n        /* \"#utility.yul\":12748:12756   */\n      0x00\n        /* \"#utility.yul\":12798:12803   */\n      dup3\n        /* \"#utility.yul\":12792:12796   */\n      dup3\n        /* \"#utility.yul\":12788:12804   */\n      shr\n        /* \"#utility.yul\":12767:12804   */\n      swap1\n      pop\n        /* \"#utility.yul\":12694:12811   */\n      swap3\n      swap2\n      pop\n      pop\n      jump\t// out\n        /* \"#utility.yul\":12817:12986   */\n    tag_228:\n        /* \"#utility.yul\":12861:12867   */\n      0x00\n        /* \"#utility.yul\":12894:12945   */\n      tag_384\n        /* \"#utility.yul\":12942:12943   */\n      0x00\n        /* \"#utility.yul\":12938:12944   */\n      not\n        /* \"#utility.yul\":12930:12935   */\n      dup5\n        /* \"#utility.yul\":12927:12928   */\n      0x08\n        /* \"#utility.yul\":12923:12936   */\n      mul\n        /* \"#utility.yul\":12894:12945   */\n      tag_227\n      jump\t// in\n    tag_384:\n        /* \"#utility.yul\":12890:12946   */\n      not\n        /* \"#utility.yul\":12975:12979   */\n      dup1\n        /* \"#utility.yul\":12969:12973   */\n      dup4\n        /* \"#utility.yul\":12965:12980   */\n      and\n        /* \"#utility.yul\":12955:12980   */\n      swap2\n      pop\n        /* \"#utility.yul\":12868:12986   */\n      pop\n        /* \"#utility.yul\":12817:12986   */\n      swap3\n      swap2\n      pop\n      pop\n      jump\t// out\n        /* \"#utility.yul\":12991:13286   */\n    tag_229:\n        /* \"#utility.yul\":13067:13071   */\n      0x00\n        /* \"#utility.yul\":13213:13242   */\n      tag_386\n        /* \"#utility.yul\":13238:13241   */\n      dup4\n        /* \"#utility.yul\":13232:13236   */\n      dup4\n        /* \"#utility.yul\":13213:13242   */\n      tag_228\n      jump\t// in\n    tag_386:\n        /* \"#utility.yul\":13205:13242   */\n      swap2\n      pop\n        /* \"#utility.yul\":13275:13278   */\n      dup3\n        /* \"#utility.yul\":13272:13273   */\n      0x02\n        /* \"#utility.yul\":13268:13279   */\n      mul\n        /* \"#utility.yul\":13262:13266   */\n      dup3\n        /* \"#utility.yul\":13259:13280   */\n      or\n        /* \"#utility.yul\":13251:13280   */\n      swap1\n      pop\n        /* \"#utility.yul\":12991:13286   */\n      swap3\n      swap2\n      pop\n      pop\n      jump\t// out\n        /* \"#utility.yul\":13291:14686   */\n    tag_102:\n        /* \"#utility.yul\":13408:13445   */\n      tag_388\n        /* \"#utility.yul\":13441:13444   */\n      dup3\n        /* \"#utility.yul\":13408:13445   */\n      tag_212\n      jump\t// in\n    tag_388:\n        /* \"#utility.yul\":13510:13528   */\n      0xffffffffffffffff\n        /* \"#utility.yul\":13502:13508   */\n      dup2\n        /* \"#utility.yul\":13499:13529   */\n      gt\n        /* \"#utility.yul\":13496:13552   */\n      iszero\n      tag_389\n      jumpi\n        /* \"#utility.yul\":13532:13550   */\n      tag_390\n      tag_189\n      jump\t// in\n    tag_390:\n        /* \"#utility.yul\":13496:13552   */\n    tag_389:\n        /* \"#utility.yul\":13576:13614   */\n      tag_391\n        /* \"#utility.yul\":13608:13612   */\n      dup3\n        /* \"#utility.yul\":13602:13613   */\n      sload\n        /* \"#utility.yul\":13576:13614   */\n      tag_214\n      jump\t// in\n    tag_391:\n        /* \"#utility.yul\":13661:13728   */\n      tag_392\n        /* \"#utility.yul\":13721:13727   */\n      dup3\n        /* \"#utility.yul\":13713:13719   */\n      dup3\n        /* \"#utility.yul\":13707:13711   */\n      dup6\n        /* \"#utility.yul\":13661:13728   */\n      tag_226\n      jump\t// in\n    tag_392:\n        /* \"#utility.yul\":13755:13756   */\n      0x00\n        /* \"#utility.yul\":13779:13783   */\n      0x20\n        /* \"#utility.yul\":13766:13783   */\n      swap1\n      pop\n        /* \"#utility.yul\":13811:13813   */\n      0x1f\n        /* \"#utility.yul\":13803:13809   */\n      dup4\n        /* \"#utility.yul\":13800:13814   */\n      gt\n        /* \"#utility.yul\":13828:13829   */\n      0x01\n        /* \"#utility.yul\":13823:14441   */\n      dup2\n      eq\n      tag_394\n      jumpi\n        /* \"#utility.yul\":14485:14486   */\n      0x00\n        /* \"#utility.yul\":14502:14508   */\n      dup5\n        /* \"#utility.yul\":14499:14576   */\n      iszero\n      tag_395\n      jumpi\n        /* \"#utility.yul\":14551:14560   */\n      dup3\n        /* \"#utility.yul\":14546:14549   */\n      dup8\n        /* \"#utility.yul\":14542:14561   */\n      add\n        /* \"#utility.yul\":14536:14562   */\n      mload\n        /* \"#utility.yul\":14527:14562   */\n      swap1\n      pop\n        /* \"#utility.yul\":14499:14576   */\n    tag_395:\n        /* \"#utility.yul\":14602:14669   */\n      tag_396\n        /* \"#utility.yul\":14662:14668   */\n      dup6\n        /* \"#utility.yul\":14655:14660   */\n      dup3\n        /* \"#utility.yul\":14602:14669   */\n      tag_229\n      jump\t// in\n    tag_396:\n        /* \"#utility.yul\":14596:14600   */\n      dup7\n        /* \"#utility.yul\":14589:14670   */\n      sstore\n        /* \"#utility.yul\":14458:14680   */\n      pop\n        /* \"#utility.yul\":13793:14680   */\n      jump(tag_393)\n        /* \"#utility.yul\":13823:14441   */\n    tag_394:\n        /* \"#utility.yul\":13875:13879   */\n      0x1f\n        /* \"#utility.yul\":13871:13880   */\n      not\n        /* \"#utility.yul\":13863:13869   */\n      dup5\n        /* \"#utility.yul\":13859:13881   */\n      and\n        /* \"#utility.yul\":13909:13946   */\n      tag_397\n        /* \"#utility.yul\":13941:13945   */\n      dup7\n        /* \"#utility.yul\":13909:13946   */\n      tag_215\n      jump\t// in\n    tag_397:\n        /* \"#utility.yul\":13968:13969   */\n      0x00\n        /* \"#utility.yul\":13982:14190   */\n    tag_398:\n        /* \"#utility.yul\":13996:14003   */\n      dup3\n        /* \"#utility.yul\":13993:13994   */\n      dup2\n        /* \"#utility.yul\":13990:14004   */\n      lt\n        /* \"#utility.yul\":13982:14190   */\n      iszero\n      tag_400\n      jumpi\n        /* \"#utility.yul\":14075:14084   */\n      dup5\n        /* \"#utility.yul\":14070:14073   */\n      dup10\n        /* \"#utility.yul\":14066:14085   */\n      add\n        /* \"#utility.yul\":14060:14086   */\n      mload\n        /* \"#utility.yul\":14052:14058   */\n      dup3\n        /* \"#utility.yul\":14045:14087   */\n      sstore\n        /* \"#utility.yul\":14126:14127   */\n      0x01\n        /* \"#utility.yul\":14118:14124   */\n      dup3\n        /* \"#utility.yul\":14114:14128   */\n      add\n        /* \"#utility.yul\":14104:14128   */\n      swap2\n      pop\n        /* \"#utility.yul\":14173:14175   */\n      0x20\n        /* \"#utility.yul\":14162:14171   */\n      dup6\n        /* \"#utility.yul\":14158:14176   */\n      add\n        /* \"#utility.yul\":14145:14176   */\n      swap5\n      pop\n        /* \"#utility.yul\":14019:14023   */\n      0x20\n        /* \"#utility.yul\":14016:14017   */\n      dup2\n        /* \"#utility.yul\":14012:14024   */\n      add\n        /* \"#utility.yul\":14007:14024   */\n      swap1\n      pop\n        /* \"#utility.yul\":13982:14190   */\n      jump(tag_398)\n    tag_400:\n        /* \"#utility.yul\":14218:14224   */\n      dup7\n        /* \"#utility.yul\":14209:14216   */\n      dup4\n        /* \"#utility.yul\":14206:14225   */\n      lt\n        /* \"#utility.yul\":14203:14382   */\n      iszero\n      tag_401\n      jumpi\n        /* \"#utility.yul\":14276:14285   */\n      dup5\n        /* \"#utility.yul\":14271:14274   */\n      dup10\n        /* \"#utility.yul\":14267:14286   */\n      add\n        /* \"#utility.yul\":14261:14287   */\n      mload\n        /* \"#utility.yul\":14319:14367   */\n      tag_402\n        /* \"#utility.yul\":14361:14365   */\n      0x1f\n        /* \"#utility.yul\":14353:14359   */\n      dup10\n        /* \"#utility.yul\":14349:14366   */\n      and\n        /* \"#utility.yul\":14338:14347   */\n      dup3\n        /* \"#utility.yul\":14319:14367   */\n      tag_228\n      jump\t// in\n    tag_402:\n        /* \"#utility.yul\":14311:14317   */\n      dup4\n        /* \"#utility.yul\":14304:14368   */\n      sstore\n        /* \"#utility.yul\":14226:14382   */\n      pop\n        /* \"#utility.yul\":14203:14382   */\n    tag_401:\n        /* \"#utility.yul\":14428:14429   */\n      0x01\n        /* \"#utility.yul\":14424:14425   */\n      0x02\n        /* \"#utility.yul\":14416:14422   */\n      dup9\n        /* \"#utility.yul\":14412:14426   */\n      mul\n        /* \"#utility.yul\":14408:14430   */\n      add\n        /* \"#utility.yul\":14402:14406   */\n      dup9\n        /* \"#utility.yul\":14395:14431   */\n      sstore\n        /* \"#utility.yul\":13830:14441   */\n      pop\n      pop\n      pop\n        /* \"#utility.yul\":13793:14680   */\n    tag_393:\n      pop\n        /* \"#utility.yul\":13383:14686   */\n      pop\n      pop\n      pop\n        /* \"#utility.yul\":13291:14686   */\n      pop\n      pop\n      jump\t// out\n        /* \"#utility.yul\":14692:14872   */\n    tag_109:\n        /* \"#utility.yul\":14740:14817   */\n      0x4e487b7100000000000000000000000000000000000000000000000000000000\n        /* \"#utility.yul\":14737:14738   */\n      0x00\n        /* \"#utility.yul\":14730:14818   */\n      mstore\n        /* \"#utility.yul\":14837:14841   */\n      0x32\n        /* \"#utility.yul\":14834:14835   */\n      0x04\n        /* \"#utility.yul\":14827:14842   */\n      mstore\n        /* \"#utility.yul\":14861:14865   */\n      0x24\n        /* \"#utility.yul\":14858:14859   */\n      0x00\n        /* \"#utility.yul\":14851:14866   */\n      revert\n        /* \"#utility.yul\":14878:15058   */\n    tag_230:\n        /* \"#utility.yul\":14926:15003   */\n      0x4e487b7100000000000000000000000000000000000000000000000000000000\n        /* \"#utility.yul\":14923:14924   */\n      0x00\n        /* \"#utility.yul\":14916:15004   */\n      mstore\n        /* \"#utility.yul\":15023:15027   */\n      0x12\n        /* \"#utility.yul\":15020:15021   */\n      0x04\n        /* \"#utility.yul\":15013:15028   */\n      mstore\n        /* \"#utility.yul\":15047:15051   */\n      0x24\n        /* \"#utility.yul\":15044:15045   */\n      0x00\n        /* \"#utility.yul\":15037:15052   */\n      revert\n        /* \"#utility.yul\":15064:15240   */\n    tag_113:\n        /* \"#utility.yul\":15096:15097   */\n      0x00\n        /* \"#utility.yul\":15113:15133   */\n      tag_406\n        /* \"#utility.yul\":15131:15132   */\n      dup3\n        /* \"#utility.yul\":15113:15133   */\n      tag_183\n      jump\t// in\n    tag_406:\n        /* \"#utility.yul\":15108:15133   */\n      swap2\n      pop\n        /* \"#utility.yul\":15147:15167   */\n      tag_407\n        /* \"#utility.yul\":15165:15166   */\n      dup4\n        /* \"#utility.yul\":15147:15167   */\n      tag_183\n      jump\t// in\n    tag_407:\n        /* \"#utility.yul\":15142:15167   */\n      swap3\n      pop\n        /* \"#utility.yul\":15186:15187   */\n      dup3\n        /* \"#utility.yul\":15176:15211   */\n      tag_408\n      jumpi\n        /* \"#utility.yul\":15191:15209   */\n      tag_409\n      tag_230\n      jump\t// in\n    tag_409:\n        /* \"#utility.yul\":15176:15211   */\n    tag_408:\n        /* \"#utility.yul\":15232:15233   */\n      dup3\n        /* \"#utility.yul\":15229:15230   */\n      dup3\n        /* \"#utility.yul\":15225:15234   */\n      mod\n        /* \"#utility.yul\":15220:15234   */\n      swap1\n      pop\n        /* \"#utility.yul\":15064:15240   */\n      swap3\n      swap2\n      pop\n      pop\n      jump\t// out\n        /* \"#utility.yul\":15246:15400   */\n    tag_231:\n        /* \"#utility.yul\":15386:15392   */\n      0x6261636b00000000000000000000000000000000000000000000000000000000\n        /* \"#utility.yul\":15382:15383   */\n      0x00\n        /* \"#utility.yul\":15374:15380   */\n      dup3\n        /* \"#utility.yul\":15370:15384   */\n      add\n        /* \"#utility.yul\":15363:15393   */\n      mstore\n        /* \"#utility.yul\":15246:15400   */\n      pop\n      jump\t// out\n        /* \"#utility.yul\":15406:15771   */\n    tag_232:\n        /* \"#utility.yul\":15548:15551   */\n      0x00\n        /* \"#utility.yul\":15569:15635   */\n      tag_412\n        /* \"#utility.yul\":15633:15634   */\n      0x04\n        /* \"#utility.yul\":15628:15631   */\n      dup4\n        /* \"#utility.yul\":15569:15635   */\n      tag_209\n      jump\t// in\n    tag_412:\n        /* \"#utility.yul\":15562:15635   */\n      swap2\n      pop\n        /* \"#utility.yul\":15644:15737   */\n      tag_413\n        /* \"#utility.yul\":15733:15736   */\n      dup3\n        /* \"#utility.yul\":15644:15737   */\n      tag_231\n      jump\t// in\n    tag_413:\n        /* \"#utility.yul\":15762:15764   */\n      0x20\n        /* \"#utility.yul\":15757:15760   */\n      dup3\n        /* \"#utility.yul\":15753:15765   */\n      add\n        /* \"#utility.yul\":15746:15765   */\n      swap1\n      pop\n        /* \"#utility.yul\":15406:15771   */\n      swap2\n      swap1\n      pop\n      jump\t// out\n        /* \"#utility.yul\":15777:16196   */\n    tag_117:\n        /* \"#utility.yul\":15943:15947   */\n      0x00\n        /* \"#utility.yul\":15981:15983   */\n      0x20\n        /* \"#utility.yul\":15970:15979   */\n      dup3\n        /* \"#utility.yul\":15966:15984   */\n      add\n        /* \"#utility.yul\":15958:15984   */\n      swap1\n      pop\n        /* \"#utility.yul\":16030:16039   */\n      dup2\n        /* \"#utility.yul\":16024:16028   */\n      dup2\n        /* \"#utility.yul\":16020:16040   */\n      sub\n        /* \"#utility.yul\":16016:16017   */\n      0x00\n        /* \"#utility.yul\":16005:16014   */\n      dup4\n        /* \"#utility.yul\":16001:16018   */\n      add\n        /* \"#utility.yul\":15994:16041   */\n      mstore\n        /* \"#utility.yul\":16058:16189   */\n      tag_415\n        /* \"#utility.yul\":16184:16188   */\n      dup2\n        /* \"#utility.yul\":16058:16189   */\n      tag_232\n      jump\t// in\n    tag_415:\n        /* \"#utility.yul\":16050:16189   */\n      swap1\n      pop\n        /* \"#utility.yul\":15777:16196   */\n      swap2\n      swap1\n      pop\n      jump\t// out\n        /* \"#utility.yul\":16202:16304   */\n    tag_233:\n        /* \"#utility.yul\":16244:16252   */\n      0x00\n        /* \"#utility.yul\":16291:16296   */\n      dup2\n        /* \"#utility.yul\":16288:16289   */\n      0x01\n        /* \"#utility.yul\":16284:16297   */\n      shr\n        /* \"#utility.yul\":16263:16297   */\n      swap1\n      pop\n        /* \"#utility.yul\":16202:16304   */\n      swap2\n      swap1\n      pop\n      jump\t// out\n        /* \"#utility.yul\":16310:17158   */\n    tag_234:\n        /* \"#utility.yul\":16371:16376   */\n      0x00\n        /* \"#utility.yul\":16378:16382   */\n      dup1\n        /* \"#utility.yul\":16402:16408   */\n      dup3\n        /* \"#utility.yul\":16393:16408   */\n      swap2\n      pop\n        /* \"#utility.yul\":16426:16431   */\n      dup4\n        /* \"#utility.yul\":16417:16431   */\n      swap1\n      pop\n        /* \"#utility.yul\":16440:17152   */\n    tag_418:\n        /* \"#utility.yul\":16461:16462   */\n      0x01\n        /* \"#utility.yul\":16451:16459   */\n      dup6\n        /* \"#utility.yul\":16448:16463   */\n      gt\n        /* \"#utility.yul\":16440:17152   */\n      iszero\n      tag_420\n      jumpi\n        /* \"#utility.yul\":16556:16560   */\n      dup1\n        /* \"#utility.yul\":16551:16554   */\n      dup7\n        /* \"#utility.yul\":16547:16561   */\n      div\n        /* \"#utility.yul\":16541:16545   */\n      dup2\n        /* \"#utility.yul\":16538:16562   */\n      gt\n        /* \"#utility.yul\":16535:16585   */\n      iszero\n      tag_421\n      jumpi\n        /* \"#utility.yul\":16565:16583   */\n      tag_422\n      tag_208\n      jump\t// in\n    tag_422:\n        /* \"#utility.yul\":16535:16585   */\n    tag_421:\n        /* \"#utility.yul\":16615:16616   */\n      0x01\n        /* \"#utility.yul\":16605:16613   */\n      dup6\n        /* \"#utility.yul\":16601:16617   */\n      and\n        /* \"#utility.yul\":16598:17049   */\n      iszero\n      tag_423\n      jumpi\n        /* \"#utility.yul\":17030:17034   */\n      dup1\n        /* \"#utility.yul\":17023:17028   */\n      dup3\n        /* \"#utility.yul\":17019:17035   */\n      mul\n        /* \"#utility.yul\":17010:17035   */\n      swap2\n      pop\n        /* \"#utility.yul\":16598:17049   */\n    tag_423:\n        /* \"#utility.yul\":17080:17084   */\n      dup1\n        /* \"#utility.yul\":17074:17078   */\n      dup2\n        /* \"#utility.yul\":17070:17085   */\n      mul\n        /* \"#utility.yul\":17062:17085   */\n      swap1\n      pop\n        /* \"#utility.yul\":17110:17142   */\n      tag_424\n        /* \"#utility.yul\":17133:17141   */\n      dup6\n        /* \"#utility.yul\":17110:17142   */\n      tag_233\n      jump\t// in\n    tag_424:\n        /* \"#utility.yul\":17098:17142   */\n      swap5\n      pop\n        /* \"#utility.yul\":16440:17152   */\n      jump(tag_418)\n    tag_420:\n        /* \"#utility.yul\":16310:17158   */\n      swap5\n      pop\n      swap5\n      swap3\n      pop\n      pop\n      pop\n      jump\t// out\n        /* \"#utility.yul\":17164:18237   */\n    tag_235:\n        /* \"#utility.yul\":17218:17223   */\n      0x00\n        /* \"#utility.yul\":17409:17417   */\n      dup3\n        /* \"#utility.yul\":17399:17439   */\n      tag_426\n      jumpi\n        /* \"#utility.yul\":17430:17431   */\n      0x01\n        /* \"#utility.yul\":17421:17431   */\n      swap1\n      pop\n        /* \"#utility.yul\":17432:17437   */\n      jump(tag_425)\n        /* \"#utility.yul\":17399:17439   */\n    tag_426:\n        /* \"#utility.yul\":17458:17462   */\n      dup2\n        /* \"#utility.yul\":17448:17484   */\n      tag_427\n      jumpi\n        /* \"#utility.yul\":17475:17476   */\n      0x00\n        /* \"#utility.yul\":17466:17476   */\n      swap1\n      pop\n        /* \"#utility.yul\":17477:17482   */\n      jump(tag_425)\n        /* \"#utility.yul\":17448:17484   */\n    tag_427:\n        /* \"#utility.yul\":17544:17548   */\n      dup2\n        /* \"#utility.yul\":17592:17593   */\n      0x01\n        /* \"#utility.yul\":17587:17614   */\n      dup2\n      eq\n      tag_429\n      jumpi\n        /* \"#utility.yul\":17628:17629   */\n      0x02\n        /* \"#utility.yul\":17623:17814   */\n      dup2\n      eq\n      tag_430\n      jumpi\n        /* \"#utility.yul\":17537:17814   */\n      jump(tag_428)\n        /* \"#utility.yul\":17587:17614   */\n    tag_429:\n        /* \"#utility.yul\":17605:17606   */\n      0x01\n        /* \"#utility.yul\":17596:17606   */\n      swap2\n      pop\n        /* \"#utility.yul\":17607:17612   */\n      pop\n      jump(tag_425)\n        /* \"#utility.yul\":17623:17814   */\n    tag_430:\n        /* \"#utility.yul\":17668:17671   */\n      0xff\n        /* \"#utility.yul\":17658:17666   */\n      dup5\n        /* \"#utility.yul\":17655:17672   */\n      gt\n        /* \"#utility.yul\":17652:17695   */\n      iszero\n      tag_431\n      jumpi\n        /* \"#utility.yul\":17675:17693   */\n      tag_432\n      tag_208\n      jump\t// in\n    tag_432:\n        /* \"#utility.yul\":17652:17695   */\n    tag_431:\n        /* \"#utility.yul\":17724:17732   */\n      dup4\n        /* \"#utility.yul\":17721:17722   */\n      0x02\n        /* \"#utility.yul\":17717:17733   */\n      exp\n        /* \"#utility.yul\":17708:17733   */\n      swap2\n      pop\n        /* \"#utility.yul\":17759:17762   */\n      dup5\n        /* \"#utility.yul\":17752:17757   */\n      dup3\n        /* \"#utility.yul\":17749:17763   */\n      gt\n        /* \"#utility.yul\":17746:17786   */\n      iszero\n      tag_433\n      jumpi\n        /* \"#utility.yul\":17766:17784   */\n      tag_434\n      tag_208\n      jump\t// in\n    tag_434:\n        /* \"#utility.yul\":17746:17786   */\n    tag_433:\n        /* \"#utility.yul\":17799:17804   */\n      pop\n      jump(tag_425)\n        /* \"#utility.yul\":17537:17814   */\n    tag_428:\n      pop\n        /* \"#utility.yul\":17923:17925   */\n      0x20\n        /* \"#utility.yul\":17913:17921   */\n      dup4\n        /* \"#utility.yul\":17910:17926   */\n      lt\n        /* \"#utility.yul\":17904:17907   */\n      0x0133\n        /* \"#utility.yul\":17898:17902   */\n      dup4\n        /* \"#utility.yul\":17895:17908   */\n      lt\n        /* \"#utility.yul\":17891:17927   */\n      and\n        /* \"#utility.yul\":17873:17875   */\n      0x4e\n        /* \"#utility.yul\":17863:17871   */\n      dup5\n        /* \"#utility.yul\":17860:17876   */\n      lt\n        /* \"#utility.yul\":17855:17857   */\n      0x0b\n        /* \"#utility.yul\":17849:17853   */\n      dup5\n        /* \"#utility.yul\":17846:17858   */\n      lt\n        /* \"#utility.yul\":17842:17877   */\n      and\n        /* \"#utility.yul\":17826:17937   */\n      or\n        /* \"#utility.yul\":17823:18069   */\n      iszero\n      tag_435\n      jumpi\n        /* \"#utility.yul\":17979:17987   */\n      dup3\n        /* \"#utility.yul\":17973:17977   */\n      dup3\n        /* \"#utility.yul\":17969:17988   */\n      exp\n        /* \"#utility.yul\":17960:17988   */\n      swap1\n      pop\n        /* \"#utility.yul\":18014:18017   */\n      dup4\n        /* \"#utility.yul\":18007:18012   */\n      dup2\n        /* \"#utility.yul\":18004:18018   */\n      gt\n        /* \"#utility.yul\":18001:18041   */\n      iszero\n      tag_436\n      jumpi\n        /* \"#utility.yul\":18021:18039   */\n      tag_437\n      tag_208\n      jump\t// in\n    tag_437:\n        /* \"#utility.yul\":18001:18041   */\n    tag_436:\n        /* \"#utility.yul\":18054:18059   */\n      jump(tag_425)\n        /* \"#utility.yul\":17823:18069   */\n    tag_435:\n        /* \"#utility.yul\":18094:18136   */\n      tag_438\n        /* \"#utility.yul\":18132:18135   */\n      dup5\n        /* \"#utility.yul\":18122:18130   */\n      dup5\n        /* \"#utility.yul\":18116:18120   */\n      dup5\n        /* \"#utility.yul\":18113:18114   */\n      0x01\n        /* \"#utility.yul\":18094:18136   */\n      tag_234\n      jump\t// in\n    tag_438:\n        /* \"#utility.yul\":18079:18136   */\n      swap3\n      pop\n      swap1\n      pop\n        /* \"#utility.yul\":18168:18172   */\n      dup2\n        /* \"#utility.yul\":18163:18166   */\n      dup5\n        /* \"#utility.yul\":18159:18173   */\n      div\n        /* \"#utility.yul\":18152:18157   */\n      dup2\n        /* \"#utility.yul\":18149:18174   */\n      gt\n        /* \"#utility.yul\":18146:18197   */\n      iszero\n      tag_439\n      jumpi\n        /* \"#utility.yul\":18177:18195   */\n      tag_440\n      tag_208\n      jump\t// in\n    tag_440:\n        /* \"#utility.yul\":18146:18197   */\n    tag_439:\n        /* \"#utility.yul\":18226:18230   */\n      dup2\n        /* \"#utility.yul\":18219:18224   */\n      dup2\n        /* \"#utility.yul\":18215:18231   */\n      mul\n        /* \"#utility.yul\":18206:18231   */\n      swap1\n      pop\n        /* \"#utility.yul\":17164:18237   */\n    tag_425:\n      swap4\n      swap3\n      pop\n      pop\n      pop\n      jump\t// out\n        /* \"#utility.yul\":18243:18528   */\n    tag_127:\n        /* \"#utility.yul\":18303:18308   */\n      0x00\n        /* \"#utility.yul\":18327:18350   */\n      tag_442\n        /* \"#utility.yul\":18345:18349   */\n      dup3\n        /* \"#utility.yul\":18327:18350   */\n      tag_183\n      jump\t// in\n    tag_442:\n        /* \"#utility.yul\":18319:18350   */\n      swap2\n      pop\n        /* \"#utility.yul\":18371:18398   */\n      tag_443\n        /* \"#utility.yul\":18389:18397   */\n      dup4\n        /* \"#utility.yul\":18371:18398   */\n      tag_183\n      jump\t// in\n    tag_443:\n        /* \"#utility.yul\":18359:18398   */\n      swap3\n      pop\n        /* \"#utility.yul\":18417:18521   */\n      tag_444\n        /* \"#utility.yul\":18454:18520   */\n      0xffffffffffffffffffffffffffffffffffffffffffffffffffffffffffffffff\n        /* \"#utility.yul\":18444:18452   */\n      dup5\n        /* \"#utility.yul\":18438:18442   */\n      dup5\n        /* \"#utility.yul\":18417:18521   */\n      tag_235\n      jump\t// in\n    tag_444:\n        /* \"#utility.yul\":18408:18521   */\n      swap1\n      pop\n        /* \"#utility.yul\":18243:18528   */\n      swap3\n      swap2\n      pop\n      pop\n      jump\t// out\n        /* \"#utility.yul\":18534:18944   */\n    tag_129:\n        /* \"#utility.yul\":18574:18581   */\n      0x00\n        /* \"#utility.yul\":18597:18617   */\n      tag_446\n        /* \"#utility.yul\":18615:18616   */\n      dup3\n        /* \"#utility.yul\":18597:18617   */\n      tag_183\n      jump\t// in\n    tag_446:\n        /* \"#utility.yul\":18592:18617   */\n      swap2\n      pop\n        /* \"#utility.yul\":18631:18651   */\n      tag_447\n        /* \"#utility.yul\":18649:18650   */\n      dup4\n        /* \"#utility.yul\":18631:18651   */\n      tag_183\n      jump\t// in\n    tag_447:\n        /* \"#utility.yul\":18626:18651   */\n      swap3\n      pop\n        /* \"#utility.yul\":18686:18687   */\n      dup3\n        /* \"#utility.yul\":18683:18684   */\n      dup3\n        /* \"#utility.yul\":18679:18688   */\n      mul\n        /* \"#utility.yul\":18708:18738   */\n      tag_448\n        /* \"#utility.yul\":18726:18737   */\n      dup2\n        /* \"#utility.yul\":18708:18738   */\n      tag_183\n      jump\t// in\n    tag_448:\n        /* \"#utility.yul\":18697:18738   */\n      swap2\n      pop\n        /* \"#utility.yul\":18887:18888   */\n      dup3\n        /* \"#utility.yul\":18878:18885   */\n      dup3\n        /* \"#utility.yul\":18874:18889   */\n      div\n        /* \"#utility.yul\":18871:18872   */\n      dup5\n        /* \"#utility.yul\":18868:18890   */\n      eq\n        /* \"#utility.yul\":18848:18849   */\n      dup4\n        /* \"#utility.yul\":18841:18850   */\n      iszero\n        /* \"#utility.yul\":18821:18904   */\n      or\n        /* \"#utility.yul\":18798:18937   */\n      tag_449\n      jumpi\n        /* \"#utility.yul\":18917:18935   */\n      tag_450\n      tag_208\n      jump\t// in\n    tag_450:\n        /* \"#utility.yul\":18798:18937   */\n    tag_449:\n        /* \"#utility.yul\":18582:18944   */\n      pop\n        /* \"#utility.yul\":18534:18944   */\n      swap3\n      swap2\n      pop\n      pop\n      jump\t// out\n        /* \"#utility.yul\":18950:19141   */\n    tag_131:\n        /* \"#utility.yul\":18990:18993   */\n      0x00\n        /* \"#utility.yul\":19009:19029   */\n      tag_452\n        /* \"#utility.yul\":19027:19028   */\n      dup3\n        /* \"#utility.yul\":19009:19029   */\n      tag_183\n      jump\t// in\n    tag_452:\n        /* \"#utility.yul\":19004:19029   */\n      swap2\n      pop\n        /* \"#utility.yul\":19043:19063   */\n      tag_453\n        /* \"#utility.yul\":19061:19062   */\n      dup4\n        /* \"#utility.yul\":19043:19063   */\n      tag_183\n      jump\t// in\n    tag_453:\n        /* \"#utility.yul\":19038:19063   */\n      swap3\n      pop\n        /* \"#utility.yul\":19086:19087   */\n      dup3\n        /* \"#utility.yul\":19083:19084   */\n      dup3\n        /* \"#utility.yul\":19079:19088   */\n      add\n        /* \"#utility.yul\":19072:19088   */\n      swap1\n      pop\n        /* \"#utility.yul\":19107:19110   */\n      dup1\n        /* \"#utility.yul\":19104:19105   */\n      dup3\n        /* \"#utility.yul\":19101:19111   */\n      gt\n        /* \"#utility.yul\":19098:19134   */\n      iszero\n      tag_454\n      jumpi\n        /* \"#utility.yul\":19114:19132   */\n      tag_455\n      tag_208\n      jump\t// in\n    tag_455:\n        /* \"#utility.yul\":19098:19134   */\n    tag_454:\n        /* \"#utility.yul\":18950:19141   */\n      swap3\n      swap2\n      pop\n      pop\n      jump\t// out\n        /* \"#utility.yul\":19147:19380   */\n    tag_169:\n        /* \"#utility.yul\":19186:19189   */\n      0x00\n        /* \"#utility.yul\":19209:19233   */\n      tag_457\n        /* \"#utility.yul\":19227:19232   */\n      dup3\n        /* \"#utility.yul\":19209:19233   */\n      tag_183\n      jump\t// in\n    tag_457:\n        /* \"#utility.yul\":19200:19233   */\n      swap2\n      pop\n        /* \"#utility.yul\":19255:19321   */\n      0xffffffffffffffffffffffffffffffffffffffffffffffffffffffffffffffff\n        /* \"#utility.yul\":19248:19253   */\n      dup3\n        /* \"#utility.yul\":19245:19322   */\n      sub\n        /* \"#utility.yul\":19242:19345   */\n      tag_458\n      jumpi\n        /* \"#utility.yul\":19325:19343   */\n      tag_459\n      tag_208\n      jump\t// in\n    tag_459:\n        /* \"#utility.yul\":19242:19345   */\n    tag_458:\n        /* \"#utility.yul\":19372:19373   */\n      0x01\n        /* \"#utility.yul\":19365:19370   */\n      dup3\n        /* \"#utility.yul\":19361:19374   */\n      add\n        /* \"#utility.yul\":19354:19374   */\n      swap1\n      pop\n        /* \"#utility.yul\":19147:19380   */\n      swap2\n      swap1\n      pop\n      jump\t// out\n        /* \"#utility.yul\":19386:19571   */\n    tag_171:\n        /* \"#utility.yul\":19426:19427   */\n      0x00\n        /* \"#utility.yul\":19443:19463   */\n      tag_461\n        /* \"#utility.yul\":19461:19462   */\n      dup3\n        /* \"#utility.yul\":19443:19463   */\n      tag_183\n      jump\t// in\n    tag_461:\n        /* \"#utility.yul\":19438:19463   */\n      swap2\n      pop\n        /* \"#utility.yul\":19477:19497   */\n      tag_462\n        /* \"#utility.yul\":19495:19496   */\n      dup4\n        /* \"#utility.yul\":19477:19497   */\n      tag_183\n      jump\t// in\n    tag_462:\n        /* \"#utility.yul\":19472:19497   */\n      swap3\n      pop\n        /* \"#utility.yul\":19516:19517   */\n      dup3\n        /* \"#utility.yul\":19506:19541   */\n      tag_463\n      jumpi\n        /* \"#utility.yul\":19521:19539   */\n      tag_464\n      tag_230\n      jump\t// in\n    tag_464:\n        /* \"#utility.yul\":19506:19541   */\n    tag_463:\n        /* \"#utility.yul\":19563:19564   */\n      dup3\n        /* \"#utility.yul\":19560:19561   */\n      dup3\n        /* \"#utility.yul\":19556:19565   */\n      div\n        /* \"#utility.yul\":19551:19565   */\n      swap1\n      pop\n        /* \"#utility.yul\":19386:19571   */\n      swap3\n      swap2\n      pop\n      pop\n      jump\t// out\n\n    auxdata: 0xa26469706673582212204278c3b250530e8516bec80dbba2b73b1e4e415401f4bf775c1c8635dec6bd1364736f6c63430008160033\n}\n",
				"bytecode": {
					"linkReferences": {},
					"object": "608060405234801561000f575f80fd5b503360085f6101000a81548173ffffffffffffffffffffffffffffffffffffffff021916908373ffffffffffffffffffffffffffffffffffffffff16021790555061157d8061005d5f395ff3fe6080604052600436106100e7575f3560e01c80638f4aec3f11610089578063bd66922e11610058578063bd66922e1461028b578063c71daccb146102b3578063cdb59e14146102dd578063ce8bb06514610319576100e7565b80638f4aec3f146101f55780639ace3d0314610231578063b1197bae14610259578063b3b657e314610263576100e7565b80635d10c3a9116100c55780635d10c3a91461015157806372d6d0691461016757806385952454146101a35780638a6f5402146101cb576100e7565b8063233411e3146100eb5780632e1a7d4d1461010157806348ee10f814610129575b5f80fd5b3480156100f6575f80fd5b506100ff610355565b005b34801561010c575f80fd5b5061012760048036038101906101229190610a71565b610363565b005b348015610134575f80fd5b5061014f600480360381019061014a9190610bd8565b610446565b005b34801561015c575f80fd5b506101656104f5565b005b348015610172575f80fd5b5061018d60048036038101906101889190610a71565b610527565b60405161019a9190610c2e565b60405180910390f35b3480156101ae575f80fd5b506101c960048036038101906101c49190610ca1565b61053d565b005b3480156101d6575f80fd5b506101df61060f565b6040516101ec9190610d71565b60405180910390f35b348015610200575f80fd5b5061021b60048036038101906102169190610d8a565b610659565b6040516102289190610c2e565b60405180910390f35b34801561023c575f80fd5b5061025760048036038101906102529190610a71565b6106cd565b005b61026161073a565b005b34801561026e575f80fd5b5061028960048036038101906102849190610a71565b61078f565b005b348015610296575f80fd5b506102b160048036038101906102ac9190610dda565b61080e565b005b3480156102be575f80fd5b506102c7610917565b6040516102d49190610c2e565b60405180910390f35b3480156102e8575f80fd5b5061030360048036038101906102fe9190610a71565b61095b565b6040516103109190610c2e565b60405180910390f35b348015610324575f80fd5b5061033f600480360381019061033a9190610a71565b6109bd565b60405161034c9190610c2e565b60405180910390f35b5f8061036191906109f3565b565b8060055f3373ffffffffffffffffffffffffffffffffffffffff1673ffffffffffffffffffffffffffffffffffffffff1681526020019081526020015f205410156103ac575f80fd5b8060055f3373ffffffffffffffffffffffffffffffffffffffff1673ffffffffffffffffffffffffffffffffffffffff1681526020019081526020015f205f8282546103f89190610e73565b925050819055503373ffffffffffffffffffffffffffffffffffffffff166108fc8290811502906040515f60405180830381858888f19350505050158015610442573d5f803e3d5ffd5b5050565b6040518060400160405280600481526020017f616263640000000000000000000000000000000000000000000000000000000081525051815110156104c0576040517f08c379a00000000000000000000000000000000000000000000000000000000081526004016104b790610f00565b60405180910390fd5b600681908060018154018082558091505060019003905f5260205f20015f9091909190915090816104f19190611122565b5050565b5f5b6004811015610524575f8160048110610513576105126111f1565b5b015f905580806001019150506104f7565b50565b5f6103e882610536919061124b565b9050919050565b8073ffffffffffffffffffffffffffffffffffffffff1660085f9054906101000a900473ffffffffffffffffffffffffffffffffffffffff1673ffffffffffffffffffffffffffffffffffffffff16146105cc576040517f08c379a00000000000000000000000000000000000000000000000000000000081526004016105c3906112c5565b60405180910390fd5b8060085f6101000a81548173ffffffffffffffffffffffffffffffffffffffff021916908373ffffffffffffffffffffffffffffffffffffffff16021790555050565b610617610a0b565b5f60048060200260405190810160405280929190826004801561064f576020028201915b81548152602001906001019080831161063b575b5050505050905090565b5f80610664846109bd565b90505f610670846109bd565b90508381600a6106809190611412565b8661068b919061145c565b8284610697919061149d565b600a6106a39190611412565b886106ae919061145c565b6106b8919061149d565b6106c2919061149d565b925050509392505050565b6064811115610711576040517f08c379a000000000000000000000000000000000000000000000000000000000815260040161070890610f00565b60405180910390fd5b600781908060018154018082558091505060019003905f5260205f20015f909190919091505550565b3460055f3373ffffffffffffffffffffffffffffffffffffffff1673ffffffffffffffffffffffffffffffffffffffff1681526020019081526020015f205f828254610786919061149d565b92505081905550565b5f5b60048110156107e0575f8082600481106107ae576107ad6111f1565b5b0154036107d357815f82600481106107c9576107c86111f1565b5b01819055506107e0565b8080600101915050610791565b6004810361080a576107f06104f5565b815f8060048110610804576108036111f1565b5b01819055505b5050565b600583511015610853576040517f08c379a000000000000000000000000000000000000000000000000000000000815260040161084a90610f00565b60405180910390fd5b600460405180606001604052808581526020018481526020018373ffffffffffffffffffffffffffffffffffffffff16815250908060018154018082558091505060019003905f5260205f2090600302015f909190919091505f820151815f0190816108bf9190611122565b50602082015181600101556040820151816002015f6101000a81548173ffffffffffffffffffffffffffffffffffffffff021916908373ffffffffffffffffffffffffffffffffffffffff1602179055505050505050565b5f60055f3373ffffffffffffffffffffffffffffffffffffffff1673ffffffffffffffffffffffffffffffffffffffff1681526020019081526020015f2054905090565b5f80600190505f8390505b600a8110610990578180610979906114d0565b925050600a816109899190611517565b9050610966565b5060038161099e9190610e73565b600a6109aa9190611412565b836109b59190611517565b915050919050565b5f80600190505b80600a6109d19190611412565b83106109ea5780806109e2906114d0565b9150506109c4565b80915050919050565b505f81556001015f81556001015f81556001015f9055565b6040518060800160405280600490602082028036833780820191505090505090565b5f604051905090565b5f80fd5b5f80fd5b5f819050919050565b610a5081610a3e565b8114610a5a575f80fd5b50565b5f81359050610a6b81610a47565b92915050565b5f60208284031215610a8657610a85610a36565b5b5f610a9384828501610a5d565b91505092915050565b5f80fd5b5f80fd5b5f601f19601f8301169050919050565b7f4e487b71000000000000000000000000000000000000000000000000000000005f52604160045260245ffd5b610aea82610aa4565b810181811067ffffffffffffffff82111715610b0957610b08610ab4565b5b80604052505050565b5f610b1b610a2d565b9050610b278282610ae1565b919050565b5f67ffffffffffffffff821115610b4657610b45610ab4565b5b610b4f82610aa4565b9050602081019050919050565b828183375f83830152505050565b5f610b7c610b7784610b2c565b610b12565b905082815260208101848484011115610b9857610b97610aa0565b5b610ba3848285610b5c565b509392505050565b5f82601f830112610bbf57610bbe610a9c565b5b8135610bcf848260208601610b6a565b91505092915050565b5f60208284031215610bed57610bec610a36565b5b5f82013567ffffffffffffffff811115610c0a57610c09610a3a565b5b610c1684828501610bab565b91505092915050565b610c2881610a3e565b82525050565b5f602082019050610c415f830184610c1f565b92915050565b5f73ffffffffffffffffffffffffffffffffffffffff82169050919050565b5f610c7082610c47565b9050919050565b610c8081610c66565b8114610c8a575f80fd5b50565b5f81359050610c9b81610c77565b92915050565b5f60208284031215610cb657610cb5610a36565b5b5f610cc384828501610c8d565b91505092915050565b5f60049050919050565b5f81905092915050565b5f819050919050565b610cf281610a3e565b82525050565b5f610d038383610ce9565b60208301905092915050565b5f602082019050919050565b610d2481610ccc565b610d2e8184610cd6565b9250610d3982610ce0565b805f5b83811015610d69578151610d508782610cf8565b9650610d5b83610d0f565b925050600181019050610d3c565b505050505050565b5f608082019050610d845f830184610d1b565b92915050565b5f805f60608486031215610da157610da0610a36565b5b5f610dae86828701610a5d565b9350506020610dbf86828701610a5d565b9250506040610dd086828701610a5d565b9150509250925092565b5f805f60608486031215610df157610df0610a36565b5b5f84013567ffffffffffffffff811115610e0e57610e0d610a3a565b5b610e1a86828701610bab565b9350506020610e2b86828701610a5d565b9250506040610e3c86828701610c8d565b9150509250925092565b7f4e487b71000000000000000000000000000000000000000000000000000000005f52601160045260245ffd5b5f610e7d82610a3e565b9150610e8883610a3e565b9250828203905081811115610ea057610e9f610e46565b5b92915050565b5f82825260208201905092915050565b7f72657665727400000000000000000000000000000000000000000000000000005f82015250565b5f610eea600683610ea6565b9150610ef582610eb6565b602082019050919050565b5f6020820190508181035f830152610f1781610ede565b9050919050565b5f81519050919050565b7f4e487b71000000000000000000000000000000000000000000000000000000005f52602260045260245ffd5b5f6002820490506001821680610f6c57607f821691505b602082108103610f7f57610f7e610f28565b5b50919050565b5f819050815f5260205f209050919050565b5f6020601f8301049050919050565b5f82821b905092915050565b5f60088302610fe17fffffffffffffffffffffffffffffffffffffffffffffffffffffffffffffffff82610fa6565b610feb8683610fa6565b95508019841693508086168417925050509392505050565b5f819050919050565b5f61102661102161101c84610a3e565b611003565b610a3e565b9050919050565b5f819050919050565b61103f8361100c565b61105361104b8261102d565b848454610fb2565b825550505050565b5f90565b61106761105b565b611072818484611036565b505050565b5b818110156110955761108a5f8261105f565b600181019050611078565b5050565b601f8211156110da576110ab81610f85565b6110b484610f97565b810160208510156110c3578190505b6110d76110cf85610f97565b830182611077565b50505b505050565b5f82821c905092915050565b5f6110fa5f19846008026110df565b1980831691505092915050565b5f61111283836110eb565b9150826002028217905092915050565b61112b82610f1e565b67ffffffffffffffff81111561114457611143610ab4565b5b61114e8254610f55565b611159828285611099565b5f60209050601f83116001811461118a575f8415611178578287015190505b6111828582611107565b8655506111e9565b601f19841661119886610f85565b5f5b828110156111bf5784890151825560018201915060208501945060208101905061119a565b868310156111dc57848901516111d8601f8916826110eb565b8355505b6001600288020188555050505b505050505050565b7f4e487b71000000000000000000000000000000000000000000000000000000005f52603260045260245ffd5b7f4e487b71000000000000000000000000000000000000000000000000000000005f52601260045260245ffd5b5f61125582610a3e565b915061126083610a3e565b9250826112705761126f61121e565b5b828206905092915050565b7f6261636b000000000000000000000000000000000000000000000000000000005f82015250565b5f6112af600483610ea6565b91506112ba8261127b565b602082019050919050565b5f6020820190508181035f8301526112dc816112a3565b9050919050565b5f8160011c9050919050565b5f808291508390505b60018511156113385780860481111561131457611313610e46565b5b60018516156113235780820291505b8081029050611331856112e3565b94506112f8565b94509492505050565b5f82611350576001905061140b565b8161135d575f905061140b565b8160018114611373576002811461137d576113ac565b600191505061140b565b60ff84111561138f5761138e610e46565b5b8360020a9150848211156113a6576113a5610e46565b5b5061140b565b5060208310610133831016604e8410600b84101617156113e15782820a9050838111156113dc576113db610e46565b5b61140b565b6113ee84848460016112ef565b9250905081840481111561140557611404610e46565b5b81810290505b9392505050565b5f61141c82610a3e565b915061142783610a3e565b92506114547fffffffffffffffffffffffffffffffffffffffffffffffffffffffffffffffff8484611341565b905092915050565b5f61146682610a3e565b915061147183610a3e565b925082820261147f81610a3e565b9150828204841483151761149657611495610e46565b5b5092915050565b5f6114a782610a3e565b91506114b283610a3e565b92508282019050808211156114ca576114c9610e46565b5b92915050565b5f6114da82610a3e565b91507fffffffffffffffffffffffffffffffffffffffffffffffffffffffffffffffff820361150c5761150b610e46565b5b600182019050919050565b5f61152182610a3e565b915061152c83610a3e565b92508261153c5761153b61121e565b5b82820490509291505056fea26469706673582212204278c3b250530e8516bec80dbba2b73b1e4e415401f4bf775c1c8635dec6bd1364736f6c63430008160033",
					"opcodes": "PUSH1 0x80 PUSH1 0x40 MSTORE CALLVALUE DUP1 ISZERO PUSH2 0xF JUMPI PUSH0 DUP1 REVERT JUMPDEST POP CALLER PUSH1 0x8 PUSH0 PUSH2 0x100 EXP DUP2 SLOAD DUP2 PUSH20 0xFFFFFFFFFFFFFFFFFFFFFFFFFFFFFFFFFFFFFFFF MUL NOT AND SWAP1 DUP4 PUSH20 0xFFFFFFFFFFFFFFFFFFFFFFFFFFFFFFFFFFFFFFFF AND MUL OR SWAP1 SSTORE POP PUSH2 0x157D DUP1 PUSH2 0x5D PUSH0 CODECOPY PUSH0 RETURN INVALID PUSH1 0x80 PUSH1 0x40 MSTORE PUSH1 0x4 CALLDATASIZE LT PUSH2 0xE7 JUMPI PUSH0 CALLDATALOAD PUSH1 0xE0 SHR DUP1 PUSH4 0x8F4AEC3F GT PUSH2 0x89 JUMPI DUP1 PUSH4 0xBD66922E GT PUSH2 0x58 JUMPI DUP1 PUSH4 0xBD66922E EQ PUSH2 0x28B JUMPI DUP1 PUSH4 0xC71DACCB EQ PUSH2 0x2B3 JUMPI DUP1 PUSH4 0xCDB59E14 EQ PUSH2 0x2DD JUMPI DUP1 PUSH4 0xCE8BB065 EQ PUSH2 0x319 JUMPI PUSH2 0xE7 JUMP JUMPDEST DUP1 PUSH4 0x8F4AEC3F EQ PUSH2 0x1F5 JUMPI DUP1 PUSH4 0x9ACE3D03 EQ PUSH2 0x231 JUMPI DUP1 PUSH4 0xB1197BAE EQ PUSH2 0x259 JUMPI DUP1 PUSH4 0xB3B657E3 EQ PUSH2 0x263 JUMPI PUSH2 0xE7 JUMP JUMPDEST DUP1 PUSH4 0x5D10C3A9 GT PUSH2 0xC5 JUMPI DUP1 PUSH4 0x5D10C3A9 EQ PUSH2 0x151 JUMPI DUP1 PUSH4 0x72D6D069 EQ PUSH2 0x167 JUMPI DUP1 PUSH4 0x85952454 EQ PUSH2 0x1A3 JUMPI DUP1 PUSH4 0x8A6F5402 EQ PUSH2 0x1CB JUMPI PUSH2 0xE7 JUMP JUMPDEST DUP1 PUSH4 0x233411E3 EQ PUSH2 0xEB JUMPI DUP1 PUSH4 0x2E1A7D4D EQ PUSH2 0x101 JUMPI DUP1 PUSH4 0x48EE10F8 EQ PUSH2 0x129 JUMPI JUMPDEST PUSH0 DUP1 REVERT JUMPDEST CALLVALUE DUP1 ISZERO PUSH2 0xF6 JUMPI PUSH0 DUP1 REVERT JUMPDEST POP PUSH2 0xFF PUSH2 0x355 JUMP JUMPDEST STOP JUMPDEST CALLVALUE DUP1 ISZERO PUSH2 0x10C JUMPI PUSH0 DUP1 REVERT JUMPDEST POP PUSH2 0x127 PUSH1 0x4 DUP1 CALLDATASIZE SUB DUP2 ADD SWAP1 PUSH2 0x122 SWAP2 SWAP1 PUSH2 0xA71 JUMP JUMPDEST PUSH2 0x363 JUMP JUMPDEST STOP JUMPDEST CALLVALUE DUP1 ISZERO PUSH2 0x134 JUMPI PUSH0 DUP1 REVERT JUMPDEST POP PUSH2 0x14F PUSH1 0x4 DUP1 CALLDATASIZE SUB DUP2 ADD SWAP1 PUSH2 0x14A SWAP2 SWAP1 PUSH2 0xBD8 JUMP JUMPDEST PUSH2 0x446 JUMP JUMPDEST STOP JUMPDEST CALLVALUE DUP1 ISZERO PUSH2 0x15C JUMPI PUSH0 DUP1 REVERT JUMPDEST POP PUSH2 0x165 PUSH2 0x4F5 JUMP JUMPDEST STOP JUMPDEST CALLVALUE DUP1 ISZERO PUSH2 0x172 JUMPI PUSH0 DUP1 REVERT JUMPDEST POP PUSH2 0x18D PUSH1 0x4 DUP1 CALLDATASIZE SUB DUP2 ADD SWAP1 PUSH2 0x188 SWAP2 SWAP1 PUSH2 0xA71 JUMP JUMPDEST PUSH2 0x527 JUMP JUMPDEST PUSH1 0x40 MLOAD PUSH2 0x19A SWAP2 SWAP1 PUSH2 0xC2E JUMP JUMPDEST PUSH1 0x40 MLOAD DUP1 SWAP2 SUB SWAP1 RETURN JUMPDEST CALLVALUE DUP1 ISZERO PUSH2 0x1AE JUMPI PUSH0 DUP1 REVERT JUMPDEST POP PUSH2 0x1C9 PUSH1 0x4 DUP1 CALLDATASIZE SUB DUP2 ADD SWAP1 PUSH2 0x1C4 SWAP2 SWAP1 PUSH2 0xCA1 JUMP JUMPDEST PUSH2 0x53D JUMP JUMPDEST STOP JUMPDEST CALLVALUE DUP1 ISZERO PUSH2 0x1D6 JUMPI PUSH0 DUP1 REVERT JUMPDEST POP PUSH2 0x1DF PUSH2 0x60F JUMP JUMPDEST PUSH1 0x40 MLOAD PUSH2 0x1EC SWAP2 SWAP1 PUSH2 0xD71 JUMP JUMPDEST PUSH1 0x40 MLOAD DUP1 SWAP2 SUB SWAP1 RETURN JUMPDEST CALLVALUE DUP1 ISZERO PUSH2 0x200 JUMPI PUSH0 DUP1 REVERT JUMPDEST POP PUSH2 0x21B PUSH1 0x4 DUP1 CALLDATASIZE SUB DUP2 ADD SWAP1 PUSH2 0x216 SWAP2 SWAP1 PUSH2 0xD8A JUMP JUMPDEST PUSH2 0x659 JUMP JUMPDEST PUSH1 0x40 MLOAD PUSH2 0x228 SWAP2 SWAP1 PUSH2 0xC2E JUMP JUMPDEST PUSH1 0x40 MLOAD DUP1 SWAP2 SUB SWAP1 RETURN JUMPDEST CALLVALUE DUP1 ISZERO PUSH2 0x23C JUMPI PUSH0 DUP1 REVERT JUMPDEST POP PUSH2 0x257 PUSH1 0x4 DUP1 CALLDATASIZE SUB DUP2 ADD SWAP1 PUSH2 0x252 SWAP2 SWAP1 PUSH2 0xA71 JUMP JUMPDEST PUSH2 0x6CD JUMP JUMPDEST STOP JUMPDEST PUSH2 0x261 PUSH2 0x73A JUMP JUMPDEST STOP JUMPDEST CALLVALUE DUP1 ISZERO PUSH2 0x26E JUMPI PUSH0 DUP1 REVERT JUMPDEST POP PUSH2 0x289 PUSH1 0x4 DUP1 CALLDATASIZE SUB DUP2 ADD SWAP1 PUSH2 0x284 SWAP2 SWAP1 PUSH2 0xA71 JUMP JUMPDEST PUSH2 0x78F JUMP JUMPDEST STOP JUMPDEST CALLVALUE DUP1 ISZERO PUSH2 0x296 JUMPI PUSH0 DUP1 REVERT JUMPDEST POP PUSH2 0x2B1 PUSH1 0x4 DUP1 CALLDATASIZE SUB DUP2 ADD SWAP1 PUSH2 0x2AC SWAP2 SWAP1 PUSH2 0xDDA JUMP JUMPDEST PUSH2 0x80E JUMP JUMPDEST STOP JUMPDEST CALLVALUE DUP1 ISZERO PUSH2 0x2BE JUMPI PUSH0 DUP1 REVERT JUMPDEST POP PUSH2 0x2C7 PUSH2 0x917 JUMP JUMPDEST PUSH1 0x40 MLOAD PUSH2 0x2D4 SWAP2 SWAP1 PUSH2 0xC2E JUMP JUMPDEST PUSH1 0x40 MLOAD DUP1 SWAP2 SUB SWAP1 RETURN JUMPDEST CALLVALUE DUP1 ISZERO PUSH2 0x2E8 JUMPI PUSH0 DUP1 REVERT JUMPDEST POP PUSH2 0x303 PUSH1 0x4 DUP1 CALLDATASIZE SUB DUP2 ADD SWAP1 PUSH2 0x2FE SWAP2 SWAP1 PUSH2 0xA71 JUMP JUMPDEST PUSH2 0x95B JUMP JUMPDEST PUSH1 0x40 MLOAD PUSH2 0x310 SWAP2 SWAP1 PUSH2 0xC2E JUMP JUMPDEST PUSH1 0x40 MLOAD DUP1 SWAP2 SUB SWAP1 RETURN JUMPDEST CALLVALUE DUP1 ISZERO PUSH2 0x324 JUMPI PUSH0 DUP1 REVERT JUMPDEST POP PUSH2 0x33F PUSH1 0x4 DUP1 CALLDATASIZE SUB DUP2 ADD SWAP1 PUSH2 0x33A SWAP2 SWAP1 PUSH2 0xA71 JUMP JUMPDEST PUSH2 0x9BD JUMP JUMPDEST PUSH1 0x40 MLOAD PUSH2 0x34C SWAP2 SWAP1 PUSH2 0xC2E JUMP JUMPDEST PUSH1 0x40 MLOAD DUP1 SWAP2 SUB SWAP1 RETURN JUMPDEST PUSH0 DUP1 PUSH2 0x361 SWAP2 SWAP1 PUSH2 0x9F3 JUMP JUMPDEST JUMP JUMPDEST DUP1 PUSH1 0x5 PUSH0 CALLER PUSH20 0xFFFFFFFFFFFFFFFFFFFFFFFFFFFFFFFFFFFFFFFF AND PUSH20 0xFFFFFFFFFFFFFFFFFFFFFFFFFFFFFFFFFFFFFFFF AND DUP2 MSTORE PUSH1 0x20 ADD SWAP1 DUP2 MSTORE PUSH1 0x20 ADD PUSH0 KECCAK256 SLOAD LT ISZERO PUSH2 0x3AC JUMPI PUSH0 DUP1 REVERT JUMPDEST DUP1 PUSH1 0x5 PUSH0 CALLER PUSH20 0xFFFFFFFFFFFFFFFFFFFFFFFFFFFFFFFFFFFFFFFF AND PUSH20 0xFFFFFFFFFFFFFFFFFFFFFFFFFFFFFFFFFFFFFFFF AND DUP2 MSTORE PUSH1 0x20 ADD SWAP1 DUP2 MSTORE PUSH1 0x20 ADD PUSH0 KECCAK256 PUSH0 DUP3 DUP3 SLOAD PUSH2 0x3F8 SWAP2 SWAP1 PUSH2 0xE73 JUMP JUMPDEST SWAP3 POP POP DUP2 SWAP1 SSTORE POP CALLER PUSH20 0xFFFFFFFFFFFFFFFFFFFFFFFFFFFFFFFFFFFFFFFF AND PUSH2 0x8FC DUP3 SWAP1 DUP2 ISZERO MUL SWAP1 PUSH1 0x40 MLOAD PUSH0 PUSH1 0x40 MLOAD DUP1 DUP4 SUB DUP2 DUP6 DUP9 DUP9 CALL SWAP4 POP POP POP POP ISZERO DUP1 ISZERO PUSH2 0x442 JUMPI RETURNDATASIZE PUSH0 DUP1 RETURNDATACOPY RETURNDATASIZE PUSH0 REVERT JUMPDEST POP POP JUMP JUMPDEST PUSH1 0x40 MLOAD DUP1 PUSH1 0x40 ADD PUSH1 0x40 MSTORE DUP1 PUSH1 0x4 DUP2 MSTORE PUSH1 0x20 ADD PUSH32 0x6162636400000000000000000000000000000000000000000000000000000000 DUP2 MSTORE POP MLOAD DUP2 MLOAD LT ISZERO PUSH2 0x4C0 JUMPI PUSH1 0x40 MLOAD PUSH32 0x8C379A000000000000000000000000000000000000000000000000000000000 DUP2 MSTORE PUSH1 0x4 ADD PUSH2 0x4B7 SWAP1 PUSH2 0xF00 JUMP JUMPDEST PUSH1 0x40 MLOAD DUP1 SWAP2 SUB SWAP1 REVERT JUMPDEST PUSH1 0x6 DUP2 SWAP1 DUP1 PUSH1 0x1 DUP2 SLOAD ADD DUP1 DUP3 SSTORE DUP1 SWAP2 POP POP PUSH1 0x1 SWAP1 SUB SWAP1 PUSH0 MSTORE PUSH1 0x20 PUSH0 KECCAK256 ADD PUSH0 SWAP1 SWAP2 SWAP1 SWAP2 SWAP1 SWAP2 POP SWAP1 DUP2 PUSH2 0x4F1 SWAP2 SWAP1 PUSH2 0x1122 JUMP JUMPDEST POP POP JUMP JUMPDEST PUSH0 JUMPDEST PUSH1 0x4 DUP2 LT ISZERO PUSH2 0x524 JUMPI PUSH0 DUP2 PUSH1 0x4 DUP2 LT PUSH2 0x513 JUMPI PUSH2 0x512 PUSH2 0x11F1 JUMP JUMPDEST JUMPDEST ADD PUSH0 SWAP1 SSTORE DUP1 DUP1 PUSH1 0x1 ADD SWAP2 POP POP PUSH2 0x4F7 JUMP JUMPDEST POP JUMP JUMPDEST PUSH0 PUSH2 0x3E8 DUP3 PUSH2 0x536 SWAP2 SWAP1 PUSH2 0x124B JUMP JUMPDEST SWAP1 POP SWAP2 SWAP1 POP JUMP JUMPDEST DUP1 PUSH20 0xFFFFFFFFFFFFFFFFFFFFFFFFFFFFFFFFFFFFFFFF AND PUSH1 0x8 PUSH0 SWAP1 SLOAD SWAP1 PUSH2 0x100 EXP SWAP1 DIV PUSH20 0xFFFFFFFFFFFFFFFFFFFFFFFFFFFFFFFFFFFFFFFF AND PUSH20 0xFFFFFFFFFFFFFFFFFFFFFFFFFFFFFFFFFFFFFFFF AND EQ PUSH2 0x5CC JUMPI PUSH1 0x40 MLOAD PUSH32 0x8C379A000000000000000000000000000000000000000000000000000000000 DUP2 MSTORE PUSH1 0x4 ADD PUSH2 0x5C3 SWAP1 PUSH2 0x12C5 JUMP JUMPDEST PUSH1 0x40 MLOAD DUP1 SWAP2 SUB SWAP1 REVERT JUMPDEST DUP1 PUSH1 0x8 PUSH0 PUSH2 0x100 EXP DUP2 SLOAD DUP2 PUSH20 0xFFFFFFFFFFFFFFFFFFFFFFFFFFFFFFFFFFFFFFFF MUL NOT AND SWAP1 DUP4 PUSH20 0xFFFFFFFFFFFFFFFFFFFFFFFFFFFFFFFFFFFFFFFF AND MUL OR SWAP1 SSTORE POP POP JUMP JUMPDEST PUSH2 0x617 PUSH2 0xA0B JUMP JUMPDEST PUSH0 PUSH1 0x4 DUP1 PUSH1 0x20 MUL PUSH1 0x40 MLOAD SWAP1 DUP2 ADD PUSH1 0x40 MSTORE DUP1 SWAP3 SWAP2 SWAP1 DUP3 PUSH1 0x4 DUP1 ISZERO PUSH2 0x64F JUMPI PUSH1 0x20 MUL DUP3 ADD SWAP2 JUMPDEST DUP2 SLOAD DUP2 MSTORE PUSH1 0x20 ADD SWAP1 PUSH1 0x1 ADD SWAP1 DUP1 DUP4 GT PUSH2 0x63B JUMPI JUMPDEST POP POP POP POP POP SWAP1 POP SWAP1 JUMP JUMPDEST PUSH0 DUP1 PUSH2 0x664 DUP5 PUSH2 0x9BD JUMP JUMPDEST SWAP1 POP PUSH0 PUSH2 0x670 DUP5 PUSH2 0x9BD JUMP JUMPDEST SWAP1 POP DUP4 DUP2 PUSH1 0xA PUSH2 0x680 SWAP2 SWAP1 PUSH2 0x1412 JUMP JUMPDEST DUP7 PUSH2 0x68B SWAP2 SWAP1 PUSH2 0x145C JUMP JUMPDEST DUP3 DUP5 PUSH2 0x697 SWAP2 SWAP1 PUSH2 0x149D JUMP JUMPDEST PUSH1 0xA PUSH2 0x6A3 SWAP2 SWAP1 PUSH2 0x1412 JUMP JUMPDEST DUP9 PUSH2 0x6AE SWAP2 SWAP1 PUSH2 0x145C JUMP JUMPDEST PUSH2 0x6B8 SWAP2 SWAP1 PUSH2 0x149D JUMP JUMPDEST PUSH2 0x6C2 SWAP2 SWAP1 PUSH2 0x149D JUMP JUMPDEST SWAP3 POP POP POP SWAP4 SWAP3 POP POP POP JUMP JUMPDEST PUSH1 0x64 DUP2 GT ISZERO PUSH2 0x711 JUMPI PUSH1 0x40 MLOAD PUSH32 0x8C379A000000000000000000000000000000000000000000000000000000000 DUP2 MSTORE PUSH1 0x4 ADD PUSH2 0x708 SWAP1 PUSH2 0xF00 JUMP JUMPDEST PUSH1 0x40 MLOAD DUP1 SWAP2 SUB SWAP1 REVERT JUMPDEST PUSH1 0x7 DUP2 SWAP1 DUP1 PUSH1 0x1 DUP2 SLOAD ADD DUP1 DUP3 SSTORE DUP1 SWAP2 POP POP PUSH1 0x1 SWAP1 SUB SWAP1 PUSH0 MSTORE PUSH1 0x20 PUSH0 KECCAK256 ADD PUSH0 SWAP1 SWAP2 SWAP1 SWAP2 SWAP1 SWAP2 POP SSTORE POP JUMP JUMPDEST CALLVALUE PUSH1 0x5 PUSH0 CALLER PUSH20 0xFFFFFFFFFFFFFFFFFFFFFFFFFFFFFFFFFFFFFFFF AND PUSH20 0xFFFFFFFFFFFFFFFFFFFFFFFFFFFFFFFFFFFFFFFF AND DUP2 MSTORE PUSH1 0x20 ADD SWAP1 DUP2 MSTORE PUSH1 0x20 ADD PUSH0 KECCAK256 PUSH0 DUP3 DUP3 SLOAD PUSH2 0x786 SWAP2 SWAP1 PUSH2 0x149D JUMP JUMPDEST SWAP3 POP POP DUP2 SWAP1 SSTORE POP JUMP JUMPDEST PUSH0 JUMPDEST PUSH1 0x4 DUP2 LT ISZERO PUSH2 0x7E0 JUMPI PUSH0 DUP1 DUP3 PUSH1 0x4 DUP2 LT PUSH2 0x7AE JUMPI PUSH2 0x7AD PUSH2 0x11F1 JUMP JUMPDEST JUMPDEST ADD SLOAD SUB PUSH2 0x7D3 JUMPI DUP2 PUSH0 DUP3 PUSH1 0x4 DUP2 LT PUSH2 0x7C9 JUMPI PUSH2 0x7C8 PUSH2 0x11F1 JUMP JUMPDEST JUMPDEST ADD DUP2 SWAP1 SSTORE POP PUSH2 0x7E0 JUMP JUMPDEST DUP1 DUP1 PUSH1 0x1 ADD SWAP2 POP POP PUSH2 0x791 JUMP JUMPDEST PUSH1 0x4 DUP2 SUB PUSH2 0x80A JUMPI PUSH2 0x7F0 PUSH2 0x4F5 JUMP JUMPDEST DUP2 PUSH0 DUP1 PUSH1 0x4 DUP2 LT PUSH2 0x804 JUMPI PUSH2 0x803 PUSH2 0x11F1 JUMP JUMPDEST JUMPDEST ADD DUP2 SWAP1 SSTORE POP JUMPDEST POP POP JUMP JUMPDEST PUSH1 0x5 DUP4 MLOAD LT ISZERO PUSH2 0x853 JUMPI PUSH1 0x40 MLOAD PUSH32 0x8C379A000000000000000000000000000000000000000000000000000000000 DUP2 MSTORE PUSH1 0x4 ADD PUSH2 0x84A SWAP1 PUSH2 0xF00 JUMP JUMPDEST PUSH1 0x40 MLOAD DUP1 SWAP2 SUB SWAP1 REVERT JUMPDEST PUSH1 0x4 PUSH1 0x40 MLOAD DUP1 PUSH1 0x60 ADD PUSH1 0x40 MSTORE DUP1 DUP6 DUP2 MSTORE PUSH1 0x20 ADD DUP5 DUP2 MSTORE PUSH1 0x20 ADD DUP4 PUSH20 0xFFFFFFFFFFFFFFFFFFFFFFFFFFFFFFFFFFFFFFFF AND DUP2 MSTORE POP SWAP1 DUP1 PUSH1 0x1 DUP2 SLOAD ADD DUP1 DUP3 SSTORE DUP1 SWAP2 POP POP PUSH1 0x1 SWAP1 SUB SWAP1 PUSH0 MSTORE PUSH1 0x20 PUSH0 KECCAK256 SWAP1 PUSH1 0x3 MUL ADD PUSH0 SWAP1 SWAP2 SWAP1 SWAP2 SWAP1 SWAP2 POP PUSH0 DUP3 ADD MLOAD DUP2 PUSH0 ADD SWAP1 DUP2 PUSH2 0x8BF SWAP2 SWAP1 PUSH2 0x1122 JUMP JUMPDEST POP PUSH1 0x20 DUP3 ADD MLOAD DUP2 PUSH1 0x1 ADD SSTORE PUSH1 0x40 DUP3 ADD MLOAD DUP2 PUSH1 0x2 ADD PUSH0 PUSH2 0x100 EXP DUP2 SLOAD DUP2 PUSH20 0xFFFFFFFFFFFFFFFFFFFFFFFFFFFFFFFFFFFFFFFF MUL NOT AND SWAP1 DUP4 PUSH20 0xFFFFFFFFFFFFFFFFFFFFFFFFFFFFFFFFFFFFFFFF AND MUL OR SWAP1 SSTORE POP POP POP POP POP POP JUMP JUMPDEST PUSH0 PUSH1 0x5 PUSH0 CALLER PUSH20 0xFFFFFFFFFFFFFFFFFFFFFFFFFFFFFFFFFFFFFFFF AND PUSH20 0xFFFFFFFFFFFFFFFFFFFFFFFFFFFFFFFFFFFFFFFF AND DUP2 MSTORE PUSH1 0x20 ADD SWAP1 DUP2 MSTORE PUSH1 0x20 ADD PUSH0 KECCAK256 SLOAD SWAP1 POP SWAP1 JUMP JUMPDEST PUSH0 DUP1 PUSH1 0x1 SWAP1 POP PUSH0 DUP4 SWAP1 POP JUMPDEST PUSH1 0xA DUP2 LT PUSH2 0x990 JUMPI DUP2 DUP1 PUSH2 0x979 SWAP1 PUSH2 0x14D0 JUMP JUMPDEST SWAP3 POP POP PUSH1 0xA DUP2 PUSH2 0x989 SWAP2 SWAP1 PUSH2 0x1517 JUMP JUMPDEST SWAP1 POP PUSH2 0x966 JUMP JUMPDEST POP PUSH1 0x3 DUP2 PUSH2 0x99E SWAP2 SWAP1 PUSH2 0xE73 JUMP JUMPDEST PUSH1 0xA PUSH2 0x9AA SWAP2 SWAP1 PUSH2 0x1412 JUMP JUMPDEST DUP4 PUSH2 0x9B5 SWAP2 SWAP1 PUSH2 0x1517 JUMP JUMPDEST SWAP2 POP POP SWAP2 SWAP1 POP JUMP JUMPDEST PUSH0 DUP1 PUSH1 0x1 SWAP1 POP JUMPDEST DUP1 PUSH1 0xA PUSH2 0x9D1 SWAP2 SWAP1 PUSH2 0x1412 JUMP JUMPDEST DUP4 LT PUSH2 0x9EA JUMPI DUP1 DUP1 PUSH2 0x9E2 SWAP1 PUSH2 0x14D0 JUMP JUMPDEST SWAP2 POP POP PUSH2 0x9C4 JUMP JUMPDEST DUP1 SWAP2 POP POP SWAP2 SWAP1 POP JUMP JUMPDEST POP PUSH0 DUP2 SSTORE PUSH1 0x1 ADD PUSH0 DUP2 SSTORE PUSH1 0x1 ADD PUSH0 DUP2 SSTORE PUSH1 0x1 ADD PUSH0 SWAP1 SSTORE JUMP JUMPDEST PUSH1 0x40 MLOAD DUP1 PUSH1 0x80 ADD PUSH1 0x40 MSTORE DUP1 PUSH1 0x4 SWAP1 PUSH1 0x20 DUP3 MUL DUP1 CALLDATASIZE DUP4 CALLDATACOPY DUP1 DUP3 ADD SWAP2 POP POP SWAP1 POP POP SWAP1 JUMP JUMPDEST PUSH0 PUSH1 0x40 MLOAD SWAP1 POP SWAP1 JUMP JUMPDEST PUSH0 DUP1 REVERT JUMPDEST PUSH0 DUP1 REVERT JUMPDEST PUSH0 DUP2 SWAP1 POP SWAP2 SWAP1 POP JUMP JUMPDEST PUSH2 0xA50 DUP2 PUSH2 0xA3E JUMP JUMPDEST DUP2 EQ PUSH2 0xA5A JUMPI PUSH0 DUP1 REVERT JUMPDEST POP JUMP JUMPDEST PUSH0 DUP2 CALLDATALOAD SWAP1 POP PUSH2 0xA6B DUP2 PUSH2 0xA47 JUMP JUMPDEST SWAP3 SWAP2 POP POP JUMP JUMPDEST PUSH0 PUSH1 0x20 DUP3 DUP5 SUB SLT ISZERO PUSH2 0xA86 JUMPI PUSH2 0xA85 PUSH2 0xA36 JUMP JUMPDEST JUMPDEST PUSH0 PUSH2 0xA93 DUP5 DUP3 DUP6 ADD PUSH2 0xA5D JUMP JUMPDEST SWAP2 POP POP SWAP3 SWAP2 POP POP JUMP JUMPDEST PUSH0 DUP1 REVERT JUMPDEST PUSH0 DUP1 REVERT JUMPDEST PUSH0 PUSH1 0x1F NOT PUSH1 0x1F DUP4 ADD AND SWAP1 POP SWAP2 SWAP1 POP JUMP JUMPDEST PUSH32 0x4E487B7100000000000000000000000000000000000000000000000000000000 PUSH0 MSTORE PUSH1 0x41 PUSH1 0x4 MSTORE PUSH1 0x24 PUSH0 REVERT JUMPDEST PUSH2 0xAEA DUP3 PUSH2 0xAA4 JUMP JUMPDEST DUP2 ADD DUP2 DUP2 LT PUSH8 0xFFFFFFFFFFFFFFFF DUP3 GT OR ISZERO PUSH2 0xB09 JUMPI PUSH2 0xB08 PUSH2 0xAB4 JUMP JUMPDEST JUMPDEST DUP1 PUSH1 0x40 MSTORE POP POP POP JUMP JUMPDEST PUSH0 PUSH2 0xB1B PUSH2 0xA2D JUMP JUMPDEST SWAP1 POP PUSH2 0xB27 DUP3 DUP3 PUSH2 0xAE1 JUMP JUMPDEST SWAP2 SWAP1 POP JUMP JUMPDEST PUSH0 PUSH8 0xFFFFFFFFFFFFFFFF DUP3 GT ISZERO PUSH2 0xB46 JUMPI PUSH2 0xB45 PUSH2 0xAB4 JUMP JUMPDEST JUMPDEST PUSH2 0xB4F DUP3 PUSH2 0xAA4 JUMP JUMPDEST SWAP1 POP PUSH1 0x20 DUP2 ADD SWAP1 POP SWAP2 SWAP1 POP JUMP JUMPDEST DUP3 DUP2 DUP4 CALLDATACOPY PUSH0 DUP4 DUP4 ADD MSTORE POP POP POP JUMP JUMPDEST PUSH0 PUSH2 0xB7C PUSH2 0xB77 DUP5 PUSH2 0xB2C JUMP JUMPDEST PUSH2 0xB12 JUMP JUMPDEST SWAP1 POP DUP3 DUP2 MSTORE PUSH1 0x20 DUP2 ADD DUP5 DUP5 DUP5 ADD GT ISZERO PUSH2 0xB98 JUMPI PUSH2 0xB97 PUSH2 0xAA0 JUMP JUMPDEST JUMPDEST PUSH2 0xBA3 DUP5 DUP3 DUP6 PUSH2 0xB5C JUMP JUMPDEST POP SWAP4 SWAP3 POP POP POP JUMP JUMPDEST PUSH0 DUP3 PUSH1 0x1F DUP4 ADD SLT PUSH2 0xBBF JUMPI PUSH2 0xBBE PUSH2 0xA9C JUMP JUMPDEST JUMPDEST DUP2 CALLDATALOAD PUSH2 0xBCF DUP5 DUP3 PUSH1 0x20 DUP7 ADD PUSH2 0xB6A JUMP JUMPDEST SWAP2 POP POP SWAP3 SWAP2 POP POP JUMP JUMPDEST PUSH0 PUSH1 0x20 DUP3 DUP5 SUB SLT ISZERO PUSH2 0xBED JUMPI PUSH2 0xBEC PUSH2 0xA36 JUMP JUMPDEST JUMPDEST PUSH0 DUP3 ADD CALLDATALOAD PUSH8 0xFFFFFFFFFFFFFFFF DUP2 GT ISZERO PUSH2 0xC0A JUMPI PUSH2 0xC09 PUSH2 0xA3A JUMP JUMPDEST JUMPDEST PUSH2 0xC16 DUP5 DUP3 DUP6 ADD PUSH2 0xBAB JUMP JUMPDEST SWAP2 POP POP SWAP3 SWAP2 POP POP JUMP JUMPDEST PUSH2 0xC28 DUP2 PUSH2 0xA3E JUMP JUMPDEST DUP3 MSTORE POP POP JUMP JUMPDEST PUSH0 PUSH1 0x20 DUP3 ADD SWAP1 POP PUSH2 0xC41 PUSH0 DUP4 ADD DUP5 PUSH2 0xC1F JUMP JUMPDEST SWAP3 SWAP2 POP POP JUMP JUMPDEST PUSH0 PUSH20 0xFFFFFFFFFFFFFFFFFFFFFFFFFFFFFFFFFFFFFFFF DUP3 AND SWAP1 POP SWAP2 SWAP1 POP JUMP JUMPDEST PUSH0 PUSH2 0xC70 DUP3 PUSH2 0xC47 JUMP JUMPDEST SWAP1 POP SWAP2 SWAP1 POP JUMP JUMPDEST PUSH2 0xC80 DUP2 PUSH2 0xC66 JUMP JUMPDEST DUP2 EQ PUSH2 0xC8A JUMPI PUSH0 DUP1 REVERT JUMPDEST POP JUMP JUMPDEST PUSH0 DUP2 CALLDATALOAD SWAP1 POP PUSH2 0xC9B DUP2 PUSH2 0xC77 JUMP JUMPDEST SWAP3 SWAP2 POP POP JUMP JUMPDEST PUSH0 PUSH1 0x20 DUP3 DUP5 SUB SLT ISZERO PUSH2 0xCB6 JUMPI PUSH2 0xCB5 PUSH2 0xA36 JUMP JUMPDEST JUMPDEST PUSH0 PUSH2 0xCC3 DUP5 DUP3 DUP6 ADD PUSH2 0xC8D JUMP JUMPDEST SWAP2 POP POP SWAP3 SWAP2 POP POP JUMP JUMPDEST PUSH0 PUSH1 0x4 SWAP1 POP SWAP2 SWAP1 POP JUMP JUMPDEST PUSH0 DUP2 SWAP1 POP SWAP3 SWAP2 POP POP JUMP JUMPDEST PUSH0 DUP2 SWAP1 POP SWAP2 SWAP1 POP JUMP JUMPDEST PUSH2 0xCF2 DUP2 PUSH2 0xA3E JUMP JUMPDEST DUP3 MSTORE POP POP JUMP JUMPDEST PUSH0 PUSH2 0xD03 DUP4 DUP4 PUSH2 0xCE9 JUMP JUMPDEST PUSH1 0x20 DUP4 ADD SWAP1 POP SWAP3 SWAP2 POP POP JUMP JUMPDEST PUSH0 PUSH1 0x20 DUP3 ADD SWAP1 POP SWAP2 SWAP1 POP JUMP JUMPDEST PUSH2 0xD24 DUP2 PUSH2 0xCCC JUMP JUMPDEST PUSH2 0xD2E DUP2 DUP5 PUSH2 0xCD6 JUMP JUMPDEST SWAP3 POP PUSH2 0xD39 DUP3 PUSH2 0xCE0 JUMP JUMPDEST DUP1 PUSH0 JUMPDEST DUP4 DUP2 LT ISZERO PUSH2 0xD69 JUMPI DUP2 MLOAD PUSH2 0xD50 DUP8 DUP3 PUSH2 0xCF8 JUMP JUMPDEST SWAP7 POP PUSH2 0xD5B DUP4 PUSH2 0xD0F JUMP JUMPDEST SWAP3 POP POP PUSH1 0x1 DUP2 ADD SWAP1 POP PUSH2 0xD3C JUMP JUMPDEST POP POP POP POP POP POP JUMP JUMPDEST PUSH0 PUSH1 0x80 DUP3 ADD SWAP1 POP PUSH2 0xD84 PUSH0 DUP4 ADD DUP5 PUSH2 0xD1B JUMP JUMPDEST SWAP3 SWAP2 POP POP JUMP JUMPDEST PUSH0 DUP1 PUSH0 PUSH1 0x60 DUP5 DUP7 SUB SLT ISZERO PUSH2 0xDA1 JUMPI PUSH2 0xDA0 PUSH2 0xA36 JUMP JUMPDEST JUMPDEST PUSH0 PUSH2 0xDAE DUP7 DUP3 DUP8 ADD PUSH2 0xA5D JUMP JUMPDEST SWAP4 POP POP PUSH1 0x20 PUSH2 0xDBF DUP7 DUP3 DUP8 ADD PUSH2 0xA5D JUMP JUMPDEST SWAP3 POP POP PUSH1 0x40 PUSH2 0xDD0 DUP7 DUP3 DUP8 ADD PUSH2 0xA5D JUMP JUMPDEST SWAP2 POP POP SWAP3 POP SWAP3 POP SWAP3 JUMP JUMPDEST PUSH0 DUP1 PUSH0 PUSH1 0x60 DUP5 DUP7 SUB SLT ISZERO PUSH2 0xDF1 JUMPI PUSH2 0xDF0 PUSH2 0xA36 JUMP JUMPDEST JUMPDEST PUSH0 DUP5 ADD CALLDATALOAD PUSH8 0xFFFFFFFFFFFFFFFF DUP2 GT ISZERO PUSH2 0xE0E JUMPI PUSH2 0xE0D PUSH2 0xA3A JUMP JUMPDEST JUMPDEST PUSH2 0xE1A DUP7 DUP3 DUP8 ADD PUSH2 0xBAB JUMP JUMPDEST SWAP4 POP POP PUSH1 0x20 PUSH2 0xE2B DUP7 DUP3 DUP8 ADD PUSH2 0xA5D JUMP JUMPDEST SWAP3 POP POP PUSH1 0x40 PUSH2 0xE3C DUP7 DUP3 DUP8 ADD PUSH2 0xC8D JUMP JUMPDEST SWAP2 POP POP SWAP3 POP SWAP3 POP SWAP3 JUMP JUMPDEST PUSH32 0x4E487B7100000000000000000000000000000000000000000000000000000000 PUSH0 MSTORE PUSH1 0x11 PUSH1 0x4 MSTORE PUSH1 0x24 PUSH0 REVERT JUMPDEST PUSH0 PUSH2 0xE7D DUP3 PUSH2 0xA3E JUMP JUMPDEST SWAP2 POP PUSH2 0xE88 DUP4 PUSH2 0xA3E JUMP JUMPDEST SWAP3 POP DUP3 DUP3 SUB SWAP1 POP DUP2 DUP2 GT ISZERO PUSH2 0xEA0 JUMPI PUSH2 0xE9F PUSH2 0xE46 JUMP JUMPDEST JUMPDEST SWAP3 SWAP2 POP POP JUMP JUMPDEST PUSH0 DUP3 DUP3 MSTORE PUSH1 0x20 DUP3 ADD SWAP1 POP SWAP3 SWAP2 POP POP JUMP JUMPDEST PUSH32 0x7265766572740000000000000000000000000000000000000000000000000000 PUSH0 DUP3 ADD MSTORE POP JUMP JUMPDEST PUSH0 PUSH2 0xEEA PUSH1 0x6 DUP4 PUSH2 0xEA6 JUMP JUMPDEST SWAP2 POP PUSH2 0xEF5 DUP3 PUSH2 0xEB6 JUMP JUMPDEST PUSH1 0x20 DUP3 ADD SWAP1 POP SWAP2 SWAP1 POP JUMP JUMPDEST PUSH0 PUSH1 0x20 DUP3 ADD SWAP1 POP DUP2 DUP2 SUB PUSH0 DUP4 ADD MSTORE PUSH2 0xF17 DUP2 PUSH2 0xEDE JUMP JUMPDEST SWAP1 POP SWAP2 SWAP1 POP JUMP JUMPDEST PUSH0 DUP2 MLOAD SWAP1 POP SWAP2 SWAP1 POP JUMP JUMPDEST PUSH32 0x4E487B7100000000000000000000000000000000000000000000000000000000 PUSH0 MSTORE PUSH1 0x22 PUSH1 0x4 MSTORE PUSH1 0x24 PUSH0 REVERT JUMPDEST PUSH0 PUSH1 0x2 DUP3 DIV SWAP1 POP PUSH1 0x1 DUP3 AND DUP1 PUSH2 0xF6C JUMPI PUSH1 0x7F DUP3 AND SWAP2 POP JUMPDEST PUSH1 0x20 DUP3 LT DUP2 SUB PUSH2 0xF7F JUMPI PUSH2 0xF7E PUSH2 0xF28 JUMP JUMPDEST JUMPDEST POP SWAP2 SWAP1 POP JUMP JUMPDEST PUSH0 DUP2 SWAP1 POP DUP2 PUSH0 MSTORE PUSH1 0x20 PUSH0 KECCAK256 SWAP1 POP SWAP2 SWAP1 POP JUMP JUMPDEST PUSH0 PUSH1 0x20 PUSH1 0x1F DUP4 ADD DIV SWAP1 POP SWAP2 SWAP1 POP JUMP JUMPDEST PUSH0 DUP3 DUP3 SHL SWAP1 POP SWAP3 SWAP2 POP POP JUMP JUMPDEST PUSH0 PUSH1 0x8 DUP4 MUL PUSH2 0xFE1 PUSH32 0xFFFFFFFFFFFFFFFFFFFFFFFFFFFFFFFFFFFFFFFFFFFFFFFFFFFFFFFFFFFFFFFF DUP3 PUSH2 0xFA6 JUMP JUMPDEST PUSH2 0xFEB DUP7 DUP4 PUSH2 0xFA6 JUMP JUMPDEST SWAP6 POP DUP1 NOT DUP5 AND SWAP4 POP DUP1 DUP7 AND DUP5 OR SWAP3 POP POP POP SWAP4 SWAP3 POP POP POP JUMP JUMPDEST PUSH0 DUP2 SWAP1 POP SWAP2 SWAP1 POP JUMP JUMPDEST PUSH0 PUSH2 0x1026 PUSH2 0x1021 PUSH2 0x101C DUP5 PUSH2 0xA3E JUMP JUMPDEST PUSH2 0x1003 JUMP JUMPDEST PUSH2 0xA3E JUMP JUMPDEST SWAP1 POP SWAP2 SWAP1 POP JUMP JUMPDEST PUSH0 DUP2 SWAP1 POP SWAP2 SWAP1 POP JUMP JUMPDEST PUSH2 0x103F DUP4 PUSH2 0x100C JUMP JUMPDEST PUSH2 0x1053 PUSH2 0x104B DUP3 PUSH2 0x102D JUMP JUMPDEST DUP5 DUP5 SLOAD PUSH2 0xFB2 JUMP JUMPDEST DUP3 SSTORE POP POP POP POP JUMP JUMPDEST PUSH0 SWAP1 JUMP JUMPDEST PUSH2 0x1067 PUSH2 0x105B JUMP JUMPDEST PUSH2 0x1072 DUP2 DUP5 DUP5 PUSH2 0x1036 JUMP JUMPDEST POP POP POP JUMP JUMPDEST JUMPDEST DUP2 DUP2 LT ISZERO PUSH2 0x1095 JUMPI PUSH2 0x108A PUSH0 DUP3 PUSH2 0x105F JUMP JUMPDEST PUSH1 0x1 DUP2 ADD SWAP1 POP PUSH2 0x1078 JUMP JUMPDEST POP POP JUMP JUMPDEST PUSH1 0x1F DUP3 GT ISZERO PUSH2 0x10DA JUMPI PUSH2 0x10AB DUP2 PUSH2 0xF85 JUMP JUMPDEST PUSH2 0x10B4 DUP5 PUSH2 0xF97 JUMP JUMPDEST DUP2 ADD PUSH1 0x20 DUP6 LT ISZERO PUSH2 0x10C3 JUMPI DUP2 SWAP1 POP JUMPDEST PUSH2 0x10D7 PUSH2 0x10CF DUP6 PUSH2 0xF97 JUMP JUMPDEST DUP4 ADD DUP3 PUSH2 0x1077 JUMP JUMPDEST POP POP JUMPDEST POP POP POP JUMP JUMPDEST PUSH0 DUP3 DUP3 SHR SWAP1 POP SWAP3 SWAP2 POP POP JUMP JUMPDEST PUSH0 PUSH2 0x10FA PUSH0 NOT DUP5 PUSH1 0x8 MUL PUSH2 0x10DF JUMP JUMPDEST NOT DUP1 DUP4 AND SWAP2 POP POP SWAP3 SWAP2 POP POP JUMP JUMPDEST PUSH0 PUSH2 0x1112 DUP4 DUP4 PUSH2 0x10EB JUMP JUMPDEST SWAP2 POP DUP3 PUSH1 0x2 MUL DUP3 OR SWAP1 POP SWAP3 SWAP2 POP POP JUMP JUMPDEST PUSH2 0x112B DUP3 PUSH2 0xF1E JUMP JUMPDEST PUSH8 0xFFFFFFFFFFFFFFFF DUP2 GT ISZERO PUSH2 0x1144 JUMPI PUSH2 0x1143 PUSH2 0xAB4 JUMP JUMPDEST JUMPDEST PUSH2 0x114E DUP3 SLOAD PUSH2 0xF55 JUMP JUMPDEST PUSH2 0x1159 DUP3 DUP3 DUP6 PUSH2 0x1099 JUMP JUMPDEST PUSH0 PUSH1 0x20 SWAP1 POP PUSH1 0x1F DUP4 GT PUSH1 0x1 DUP2 EQ PUSH2 0x118A JUMPI PUSH0 DUP5 ISZERO PUSH2 0x1178 JUMPI DUP3 DUP8 ADD MLOAD SWAP1 POP JUMPDEST PUSH2 0x1182 DUP6 DUP3 PUSH2 0x1107 JUMP JUMPDEST DUP7 SSTORE POP PUSH2 0x11E9 JUMP JUMPDEST PUSH1 0x1F NOT DUP5 AND PUSH2 0x1198 DUP7 PUSH2 0xF85 JUMP JUMPDEST PUSH0 JUMPDEST DUP3 DUP2 LT ISZERO PUSH2 0x11BF JUMPI DUP5 DUP10 ADD MLOAD DUP3 SSTORE PUSH1 0x1 DUP3 ADD SWAP2 POP PUSH1 0x20 DUP6 ADD SWAP5 POP PUSH1 0x20 DUP2 ADD SWAP1 POP PUSH2 0x119A JUMP JUMPDEST DUP7 DUP4 LT ISZERO PUSH2 0x11DC JUMPI DUP5 DUP10 ADD MLOAD PUSH2 0x11D8 PUSH1 0x1F DUP10 AND DUP3 PUSH2 0x10EB JUMP JUMPDEST DUP4 SSTORE POP JUMPDEST PUSH1 0x1 PUSH1 0x2 DUP9 MUL ADD DUP9 SSTORE POP POP POP JUMPDEST POP POP POP POP POP POP JUMP JUMPDEST PUSH32 0x4E487B7100000000000000000000000000000000000000000000000000000000 PUSH0 MSTORE PUSH1 0x32 PUSH1 0x4 MSTORE PUSH1 0x24 PUSH0 REVERT JUMPDEST PUSH32 0x4E487B7100000000000000000000000000000000000000000000000000000000 PUSH0 MSTORE PUSH1 0x12 PUSH1 0x4 MSTORE PUSH1 0x24 PUSH0 REVERT JUMPDEST PUSH0 PUSH2 0x1255 DUP3 PUSH2 0xA3E JUMP JUMPDEST SWAP2 POP PUSH2 0x1260 DUP4 PUSH2 0xA3E JUMP JUMPDEST SWAP3 POP DUP3 PUSH2 0x1270 JUMPI PUSH2 0x126F PUSH2 0x121E JUMP JUMPDEST JUMPDEST DUP3 DUP3 MOD SWAP1 POP SWAP3 SWAP2 POP POP JUMP JUMPDEST PUSH32 0x6261636B00000000000000000000000000000000000000000000000000000000 PUSH0 DUP3 ADD MSTORE POP JUMP JUMPDEST PUSH0 PUSH2 0x12AF PUSH1 0x4 DUP4 PUSH2 0xEA6 JUMP JUMPDEST SWAP2 POP PUSH2 0x12BA DUP3 PUSH2 0x127B JUMP JUMPDEST PUSH1 0x20 DUP3 ADD SWAP1 POP SWAP2 SWAP1 POP JUMP JUMPDEST PUSH0 PUSH1 0x20 DUP3 ADD SWAP1 POP DUP2 DUP2 SUB PUSH0 DUP4 ADD MSTORE PUSH2 0x12DC DUP2 PUSH2 0x12A3 JUMP JUMPDEST SWAP1 POP SWAP2 SWAP1 POP JUMP JUMPDEST PUSH0 DUP2 PUSH1 0x1 SHR SWAP1 POP SWAP2 SWAP1 POP JUMP JUMPDEST PUSH0 DUP1 DUP3 SWAP2 POP DUP4 SWAP1 POP JUMPDEST PUSH1 0x1 DUP6 GT ISZERO PUSH2 0x1338 JUMPI DUP1 DUP7 DIV DUP2 GT ISZERO PUSH2 0x1314 JUMPI PUSH2 0x1313 PUSH2 0xE46 JUMP JUMPDEST JUMPDEST PUSH1 0x1 DUP6 AND ISZERO PUSH2 0x1323 JUMPI DUP1 DUP3 MUL SWAP2 POP JUMPDEST DUP1 DUP2 MUL SWAP1 POP PUSH2 0x1331 DUP6 PUSH2 0x12E3 JUMP JUMPDEST SWAP5 POP PUSH2 0x12F8 JUMP JUMPDEST SWAP5 POP SWAP5 SWAP3 POP POP POP JUMP JUMPDEST PUSH0 DUP3 PUSH2 0x1350 JUMPI PUSH1 0x1 SWAP1 POP PUSH2 0x140B JUMP JUMPDEST DUP2 PUSH2 0x135D JUMPI PUSH0 SWAP1 POP PUSH2 0x140B JUMP JUMPDEST DUP2 PUSH1 0x1 DUP2 EQ PUSH2 0x1373 JUMPI PUSH1 0x2 DUP2 EQ PUSH2 0x137D JUMPI PUSH2 0x13AC JUMP JUMPDEST PUSH1 0x1 SWAP2 POP POP PUSH2 0x140B JUMP JUMPDEST PUSH1 0xFF DUP5 GT ISZERO PUSH2 0x138F JUMPI PUSH2 0x138E PUSH2 0xE46 JUMP JUMPDEST JUMPDEST DUP4 PUSH1 0x2 EXP SWAP2 POP DUP5 DUP3 GT ISZERO PUSH2 0x13A6 JUMPI PUSH2 0x13A5 PUSH2 0xE46 JUMP JUMPDEST JUMPDEST POP PUSH2 0x140B JUMP JUMPDEST POP PUSH1 0x20 DUP4 LT PUSH2 0x133 DUP4 LT AND PUSH1 0x4E DUP5 LT PUSH1 0xB DUP5 LT AND OR ISZERO PUSH2 0x13E1 JUMPI DUP3 DUP3 EXP SWAP1 POP DUP4 DUP2 GT ISZERO PUSH2 0x13DC JUMPI PUSH2 0x13DB PUSH2 0xE46 JUMP JUMPDEST JUMPDEST PUSH2 0x140B JUMP JUMPDEST PUSH2 0x13EE DUP5 DUP5 DUP5 PUSH1 0x1 PUSH2 0x12EF JUMP JUMPDEST SWAP3 POP SWAP1 POP DUP2 DUP5 DIV DUP2 GT ISZERO PUSH2 0x1405 JUMPI PUSH2 0x1404 PUSH2 0xE46 JUMP JUMPDEST JUMPDEST DUP2 DUP2 MUL SWAP1 POP JUMPDEST SWAP4 SWAP3 POP POP POP JUMP JUMPDEST PUSH0 PUSH2 0x141C DUP3 PUSH2 0xA3E JUMP JUMPDEST SWAP2 POP PUSH2 0x1427 DUP4 PUSH2 0xA3E JUMP JUMPDEST SWAP3 POP PUSH2 0x1454 PUSH32 0xFFFFFFFFFFFFFFFFFFFFFFFFFFFFFFFFFFFFFFFFFFFFFFFFFFFFFFFFFFFFFFFF DUP5 DUP5 PUSH2 0x1341 JUMP JUMPDEST SWAP1 POP SWAP3 SWAP2 POP POP JUMP JUMPDEST PUSH0 PUSH2 0x1466 DUP3 PUSH2 0xA3E JUMP JUMPDEST SWAP2 POP PUSH2 0x1471 DUP4 PUSH2 0xA3E JUMP JUMPDEST SWAP3 POP DUP3 DUP3 MUL PUSH2 0x147F DUP2 PUSH2 0xA3E JUMP JUMPDEST SWAP2 POP DUP3 DUP3 DIV DUP5 EQ DUP4 ISZERO OR PUSH2 0x1496 JUMPI PUSH2 0x1495 PUSH2 0xE46 JUMP JUMPDEST JUMPDEST POP SWAP3 SWAP2 POP POP JUMP JUMPDEST PUSH0 PUSH2 0x14A7 DUP3 PUSH2 0xA3E JUMP JUMPDEST SWAP2 POP PUSH2 0x14B2 DUP4 PUSH2 0xA3E JUMP JUMPDEST SWAP3 POP DUP3 DUP3 ADD SWAP1 POP DUP1 DUP3 GT ISZERO PUSH2 0x14CA JUMPI PUSH2 0x14C9 PUSH2 0xE46 JUMP JUMPDEST JUMPDEST SWAP3 SWAP2 POP POP JUMP JUMPDEST PUSH0 PUSH2 0x14DA DUP3 PUSH2 0xA3E JUMP JUMPDEST SWAP2 POP PUSH32 0xFFFFFFFFFFFFFFFFFFFFFFFFFFFFFFFFFFFFFFFFFFFFFFFFFFFFFFFFFFFFFFFF DUP3 SUB PUSH2 0x150C JUMPI PUSH2 0x150B PUSH2 0xE46 JUMP JUMPDEST JUMPDEST PUSH1 0x1 DUP3 ADD SWAP1 POP SWAP2 SWAP1 POP JUMP JUMPDEST PUSH0 PUSH2 0x1521 DUP3 PUSH2 0xA3E JUMP JUMPDEST SWAP2 POP PUSH2 0x152C DUP4 PUSH2 0xA3E JUMP JUMPDEST SWAP3 POP DUP3 PUSH2 0x153C JUMPI PUSH2 0x153B PUSH2 0x121E JUMP JUMPDEST JUMPDEST DUP3 DUP3 DIV SWAP1 POP SWAP3 SWAP2 POP POP JUMP INVALID LOG2 PUSH5 0x6970667358 0x22 SLT KECCAK256 TIMESTAMP PUSH25 0xC3B250530E8516BEC80DBBA2B73B1E4E415401F4BF775C1C86 CALLDATALOAD 0xDE 0xC6 0xBD SGT PUSH5 0x736F6C6343 STOP ADDMOD AND STOP CALLER "
				},
				"gasEstimates": {
					"creation": {
						"codeDepositCost": "1100200",
						"executionCost": "25403",
						"totalCost": "1125603"
					},
					"external": {
						"checkBalance()": "2563",
						"concatNum(uint256,uint256,uint256)": "infinite",
						"desposit()": "infinite",
						"getDigits(uint256)": "infinite",
						"getFirstThree(uint256)": "infinite",
						"getNum4()": "infinite",
						"getRemainUnder1000(uint256)": "infinite",
						"initNum4()": "infinite",
						"initNum4All()": "20242",
						"newOwner(address)": "26952",
						"setClient(string,uint256,address)": "infinite",
						"setNameList(string)": "infinite",
						"setNum4(uint256)": "infinite",
						"setNumList(uint256)": "46892",
						"withdraw(uint256)": "infinite"
					}
				},
				"methodIdentifiers": {
					"checkBalance()": "c71daccb",
					"concatNum(uint256,uint256,uint256)": "8f4aec3f",
					"desposit()": "b1197bae",
					"getDigits(uint256)": "ce8bb065",
					"getFirstThree(uint256)": "cdb59e14",
					"getNum4()": "8a6f5402",
					"getRemainUnder1000(uint256)": "72d6d069",
					"initNum4()": "5d10c3a9",
					"initNum4All()": "233411e3",
					"newOwner(address)": "85952454",
					"setClient(string,uint256,address)": "bd66922e",
					"setNameList(string)": "48ee10f8",
					"setNum4(uint256)": "b3b657e3",
					"setNumList(uint256)": "9ace3d03",
					"withdraw(uint256)": "2e1a7d4d"
				}
			},
			"storageLayout": {
				"storage": [
					{
						"astId": 5,
						"contract": "basic_41_50.sol:basic_41_50",
						"label": "num4",
						"offset": 0,
						"slot": "0",
						"type": "t_array(t_uint256)4_storage"
					},
					{
						"astId": 105,
						"contract": "basic_41_50.sol:basic_41_50",
						"label": "clientList",
						"offset": 0,
						"slot": "4",
						"type": "t_array(t_struct(Client)101_storage)dyn_storage"
					},
					{
						"astId": 140,
						"contract": "basic_41_50.sol:basic_41_50",
						"label": "account",
						"offset": 0,
						"slot": "5",
						"type": "t_mapping(t_address,t_uint256)"
					},
					{
						"astId": 197,
						"contract": "basic_41_50.sol:basic_41_50",
						"label": "nameList",
						"offset": 0,
						"slot": "6",
						"type": "t_array(t_string_storage)dyn_storage"
					},
					{
						"astId": 227,
						"contract": "basic_41_50.sol:basic_41_50",
						"label": "numList",
						"offset": 0,
						"slot": "7",
						"type": "t_array(t_uint256)dyn_storage"
					},
					{
						"astId": 248,
						"contract": "basic_41_50.sol:basic_41_50",
						"label": "owner",
						"offset": 0,
						"slot": "8",
						"type": "t_address"
					}
				],
				"types": {
					"t_address": {
						"encoding": "inplace",
						"label": "address",
						"numberOfBytes": "20"
					},
					"t_array(t_string_storage)dyn_storage": {
						"base": "t_string_storage",
						"encoding": "dynamic_array",
						"label": "string[]",
						"numberOfBytes": "32"
					},
					"t_array(t_struct(Client)101_storage)dyn_storage": {
						"base": "t_struct(Client)101_storage",
						"encoding": "dynamic_array",
						"label": "struct basic_41_50.Client[]",
						"numberOfBytes": "32"
					},
					"t_array(t_uint256)4_storage": {
						"base": "t_uint256",
						"encoding": "inplace",
						"label": "uint256[4]",
						"numberOfBytes": "128"
					},
					"t_array(t_uint256)dyn_storage": {
						"base": "t_uint256",
						"encoding": "dynamic_array",
						"label": "uint256[]",
						"numberOfBytes": "32"
					},
					"t_mapping(t_address,t_uint256)": {
						"encoding": "mapping",
						"key": "t_address",
						"label": "mapping(address => uint256)",
						"numberOfBytes": "32",
						"value": "t_uint256"
					},
					"t_string_storage": {
						"encoding": "bytes",
						"label": "string",
						"numberOfBytes": "32"
					},
					"t_struct(Client)101_storage": {
						"encoding": "inplace",
						"label": "struct basic_41_50.Client",
						"members": [
							{
								"astId": 96,
								"contract": "basic_41_50.sol:basic_41_50",
								"label": "name",
								"offset": 0,
								"slot": "0",
								"type": "t_string_storage"
							},
							{
								"astId": 98,
								"contract": "basic_41_50.sol:basic_41_50",
								"label": "number",
								"offset": 0,
								"slot": "1",
								"type": "t_uint256"
							},
							{
								"astId": 100,
								"contract": "basic_41_50.sol:basic_41_50",
								"label": "wallet",
								"offset": 0,
								"slot": "2",
								"type": "t_address"
							}
						],
						"numberOfBytes": "96"
					},
					"t_uint256": {
						"encoding": "inplace",
						"label": "uint256",
						"numberOfBytes": "32"
					}
				}
			},
			"userdoc": {
				"kind": "user",
				"methods": {},
				"version": 1
			}
		}
	}
}