{
	"data": {
		"bytecode": {
			"linkReferences": {},
			"object": "608060405234801561000f575f80fd5b506104e78061001d5f395ff3fe608060405234801561000f575f80fd5b506004361061004a575f3560e01c806338fd89841461004e578063a459600e1461007e578063c8abf84e1461009a578063d46300fd146100a4575b5f80fd5b610068600480360381019061006391906102e4565b6100c2565b6040516100759190610399565b60405180910390f35b610098600480360381019061009391906102e4565b61024d565b005b6100a261029c565b005b6100ac6102a5565b6040516100b991906103c8565b60405180910390f35b6060815f81905550600a82111561010e576040517f08c379a00000000000000000000000000000000000000000000000000000000081526004016101059061042b565b60405180910390fd5b5f805410158015610121575060025f5411155b15610163576040518060400160405280600181526020017f41000000000000000000000000000000000000000000000000000000000000008152509050610248565b60035f5410158015610177575060055f5411155b156101b9576040518060400160405280600181526020017f42000000000000000000000000000000000000000000000000000000000000008152509050610248565b60065f54101580156101cd575060085f5411155b1561020f576040518060400160405280600181526020017f43000000000000000000000000000000000000000000000000000000000000008152509050610248565b6040518060400160405280600181526020017f440000000000000000000000000000000000000000000000000000000000000081525090505b919050565b61025561029c565b600a811015610299576040517f08c379a000000000000000000000000000000000000000000000000000000000815260040161029090610493565b60405180910390fd5b50565b60055f81905550565b5f8054905090565b5f80fd5b5f819050919050565b6102c3816102b1565b81146102cd575f80fd5b50565b5f813590506102de816102ba565b92915050565b5f602082840312156102f9576102f86102ad565b5b5f610306848285016102d0565b91505092915050565b5f81519050919050565b5f82825260208201905092915050565b5f5b8381101561034657808201518184015260208101905061032b565b5f8484015250505050565b5f601f19601f8301169050919050565b5f61036b8261030f565b6103758185610319565b9350610385818560208601610329565b61038e81610351565b840191505092915050565b5f6020820190508181035f8301526103b18184610361565b905092915050565b6103c2816102b1565b82525050565b5f6020820190506103db5f8301846103b9565b92915050565b7f5f6e2073686f756c64206e6f7420626520686967686572207468616e2031302e5f82015250565b5f610415602083610319565b9150610420826103e1565b602082019050919050565b5f6020820190508181035f83015261044281610409565b9050919050565b7f676f206261636b000000000000000000000000000000000000000000000000005f82015250565b5f61047d600783610319565b915061048882610449565b602082019050919050565b5f6020820190508181035f8301526104aa81610471565b905091905056fea2646970667358221220d5b1dee19026ab33150fbf22c70c9ef50f92b5a82afa05958cc1d01bfdde256864736f6c63430008160033",
			"opcodes": "PUSH1 0x80 PUSH1 0x40 MSTORE CALLVALUE DUP1 ISZERO PUSH2 0xF JUMPI PUSH0 DUP1 REVERT JUMPDEST POP PUSH2 0x4E7 DUP1 PUSH2 0x1D PUSH0 CODECOPY PUSH0 RETURN INVALID PUSH1 0x80 PUSH1 0x40 MSTORE CALLVALUE DUP1 ISZERO PUSH2 0xF JUMPI PUSH0 DUP1 REVERT JUMPDEST POP PUSH1 0x4 CALLDATASIZE LT PUSH2 0x4A JUMPI PUSH0 CALLDATALOAD PUSH1 0xE0 SHR DUP1 PUSH4 0x38FD8984 EQ PUSH2 0x4E JUMPI DUP1 PUSH4 0xA459600E EQ PUSH2 0x7E JUMPI DUP1 PUSH4 0xC8ABF84E EQ PUSH2 0x9A JUMPI DUP1 PUSH4 0xD46300FD EQ PUSH2 0xA4 JUMPI JUMPDEST PUSH0 DUP1 REVERT JUMPDEST PUSH2 0x68 PUSH1 0x4 DUP1 CALLDATASIZE SUB DUP2 ADD SWAP1 PUSH2 0x63 SWAP2 SWAP1 PUSH2 0x2E4 JUMP JUMPDEST PUSH2 0xC2 JUMP JUMPDEST PUSH1 0x40 MLOAD PUSH2 0x75 SWAP2 SWAP1 PUSH2 0x399 JUMP JUMPDEST PUSH1 0x40 MLOAD DUP1 SWAP2 SUB SWAP1 RETURN JUMPDEST PUSH2 0x98 PUSH1 0x4 DUP1 CALLDATASIZE SUB DUP2 ADD SWAP1 PUSH2 0x93 SWAP2 SWAP1 PUSH2 0x2E4 JUMP JUMPDEST PUSH2 0x24D JUMP JUMPDEST STOP JUMPDEST PUSH2 0xA2 PUSH2 0x29C JUMP JUMPDEST STOP JUMPDEST PUSH2 0xAC PUSH2 0x2A5 JUMP JUMPDEST PUSH1 0x40 MLOAD PUSH2 0xB9 SWAP2 SWAP1 PUSH2 0x3C8 JUMP JUMPDEST PUSH1 0x40 MLOAD DUP1 SWAP2 SUB SWAP1 RETURN JUMPDEST PUSH1 0x60 DUP2 PUSH0 DUP2 SWAP1 SSTORE POP PUSH1 0xA DUP3 GT ISZERO PUSH2 0x10E JUMPI PUSH1 0x40 MLOAD PUSH32 0x8C379A000000000000000000000000000000000000000000000000000000000 DUP2 MSTORE PUSH1 0x4 ADD PUSH2 0x105 SWAP1 PUSH2 0x42B JUMP JUMPDEST PUSH1 0x40 MLOAD DUP1 SWAP2 SUB SWAP1 REVERT JUMPDEST PUSH0 DUP1 SLOAD LT ISZERO DUP1 ISZERO PUSH2 0x121 JUMPI POP PUSH1 0x2 PUSH0 SLOAD GT ISZERO JUMPDEST ISZERO PUSH2 0x163 JUMPI PUSH1 0x40 MLOAD DUP1 PUSH1 0x40 ADD PUSH1 0x40 MSTORE DUP1 PUSH1 0x1 DUP2 MSTORE PUSH1 0x20 ADD PUSH32 0x4100000000000000000000000000000000000000000000000000000000000000 DUP2 MSTORE POP SWAP1 POP PUSH2 0x248 JUMP JUMPDEST PUSH1 0x3 PUSH0 SLOAD LT ISZERO DUP1 ISZERO PUSH2 0x177 JUMPI POP PUSH1 0x5 PUSH0 SLOAD GT ISZERO JUMPDEST ISZERO PUSH2 0x1B9 JUMPI PUSH1 0x40 MLOAD DUP1 PUSH1 0x40 ADD PUSH1 0x40 MSTORE DUP1 PUSH1 0x1 DUP2 MSTORE PUSH1 0x20 ADD PUSH32 0x4200000000000000000000000000000000000000000000000000000000000000 DUP2 MSTORE POP SWAP1 POP PUSH2 0x248 JUMP JUMPDEST PUSH1 0x6 PUSH0 SLOAD LT ISZERO DUP1 ISZERO PUSH2 0x1CD JUMPI POP PUSH1 0x8 PUSH0 SLOAD GT ISZERO JUMPDEST ISZERO PUSH2 0x20F JUMPI PUSH1 0x40 MLOAD DUP1 PUSH1 0x40 ADD PUSH1 0x40 MSTORE DUP1 PUSH1 0x1 DUP2 MSTORE PUSH1 0x20 ADD PUSH32 0x4300000000000000000000000000000000000000000000000000000000000000 DUP2 MSTORE POP SWAP1 POP PUSH2 0x248 JUMP JUMPDEST PUSH1 0x40 MLOAD DUP1 PUSH1 0x40 ADD PUSH1 0x40 MSTORE DUP1 PUSH1 0x1 DUP2 MSTORE PUSH1 0x20 ADD PUSH32 0x4400000000000000000000000000000000000000000000000000000000000000 DUP2 MSTORE POP SWAP1 POP JUMPDEST SWAP2 SWAP1 POP JUMP JUMPDEST PUSH2 0x255 PUSH2 0x29C JUMP JUMPDEST PUSH1 0xA DUP2 LT ISZERO PUSH2 0x299 JUMPI PUSH1 0x40 MLOAD PUSH32 0x8C379A000000000000000000000000000000000000000000000000000000000 DUP2 MSTORE PUSH1 0x4 ADD PUSH2 0x290 SWAP1 PUSH2 0x493 JUMP JUMPDEST PUSH1 0x40 MLOAD DUP1 SWAP2 SUB SWAP1 REVERT JUMPDEST POP JUMP JUMPDEST PUSH1 0x5 PUSH0 DUP2 SWAP1 SSTORE POP JUMP JUMPDEST PUSH0 DUP1 SLOAD SWAP1 POP SWAP1 JUMP JUMPDEST PUSH0 DUP1 REVERT JUMPDEST PUSH0 DUP2 SWAP1 POP SWAP2 SWAP1 POP JUMP JUMPDEST PUSH2 0x2C3 DUP2 PUSH2 0x2B1 JUMP JUMPDEST DUP2 EQ PUSH2 0x2CD JUMPI PUSH0 DUP1 REVERT JUMPDEST POP JUMP JUMPDEST PUSH0 DUP2 CALLDATALOAD SWAP1 POP PUSH2 0x2DE DUP2 PUSH2 0x2BA JUMP JUMPDEST SWAP3 SWAP2 POP POP JUMP JUMPDEST PUSH0 PUSH1 0x20 DUP3 DUP5 SUB SLT ISZERO PUSH2 0x2F9 JUMPI PUSH2 0x2F8 PUSH2 0x2AD JUMP JUMPDEST JUMPDEST PUSH0 PUSH2 0x306 DUP5 DUP3 DUP6 ADD PUSH2 0x2D0 JUMP JUMPDEST SWAP2 POP POP SWAP3 SWAP2 POP POP JUMP JUMPDEST PUSH0 DUP2 MLOAD SWAP1 POP SWAP2 SWAP1 POP JUMP JUMPDEST PUSH0 DUP3 DUP3 MSTORE PUSH1 0x20 DUP3 ADD SWAP1 POP SWAP3 SWAP2 POP POP JUMP JUMPDEST PUSH0 JUMPDEST DUP4 DUP2 LT ISZERO PUSH2 0x346 JUMPI DUP1 DUP3 ADD MLOAD DUP2 DUP5 ADD MSTORE PUSH1 0x20 DUP2 ADD SWAP1 POP PUSH2 0x32B JUMP JUMPDEST PUSH0 DUP5 DUP5 ADD MSTORE POP POP POP POP JUMP JUMPDEST PUSH0 PUSH1 0x1F NOT PUSH1 0x1F DUP4 ADD AND SWAP1 POP SWAP2 SWAP1 POP JUMP JUMPDEST PUSH0 PUSH2 0x36B DUP3 PUSH2 0x30F JUMP JUMPDEST PUSH2 0x375 DUP2 DUP6 PUSH2 0x319 JUMP JUMPDEST SWAP4 POP PUSH2 0x385 DUP2 DUP6 PUSH1 0x20 DUP7 ADD PUSH2 0x329 JUMP JUMPDEST PUSH2 0x38E DUP2 PUSH2 0x351 JUMP JUMPDEST DUP5 ADD SWAP2 POP POP SWAP3 SWAP2 POP POP JUMP JUMPDEST PUSH0 PUSH1 0x20 DUP3 ADD SWAP1 POP DUP2 DUP2 SUB PUSH0 DUP4 ADD MSTORE PUSH2 0x3B1 DUP2 DUP5 PUSH2 0x361 JUMP JUMPDEST SWAP1 POP SWAP3 SWAP2 POP POP JUMP JUMPDEST PUSH2 0x3C2 DUP2 PUSH2 0x2B1 JUMP JUMPDEST DUP3 MSTORE POP POP JUMP JUMPDEST PUSH0 PUSH1 0x20 DUP3 ADD SWAP1 POP PUSH2 0x3DB PUSH0 DUP4 ADD DUP5 PUSH2 0x3B9 JUMP JUMPDEST SWAP3 SWAP2 POP POP JUMP JUMPDEST PUSH32 0x5F6E2073686F756C64206E6F7420626520686967686572207468616E2031302E PUSH0 DUP3 ADD MSTORE POP JUMP JUMPDEST PUSH0 PUSH2 0x415 PUSH1 0x20 DUP4 PUSH2 0x319 JUMP JUMPDEST SWAP2 POP PUSH2 0x420 DUP3 PUSH2 0x3E1 JUMP JUMPDEST PUSH1 0x20 DUP3 ADD SWAP1 POP SWAP2 SWAP1 POP JUMP JUMPDEST PUSH0 PUSH1 0x20 DUP3 ADD SWAP1 POP DUP2 DUP2 SUB PUSH0 DUP4 ADD MSTORE PUSH2 0x442 DUP2 PUSH2 0x409 JUMP JUMPDEST SWAP1 POP SWAP2 SWAP1 POP JUMP JUMPDEST PUSH32 0x676F206261636B00000000000000000000000000000000000000000000000000 PUSH0 DUP3 ADD MSTORE POP JUMP JUMPDEST PUSH0 PUSH2 0x47D PUSH1 0x7 DUP4 PUSH2 0x319 JUMP JUMPDEST SWAP2 POP PUSH2 0x488 DUP3 PUSH2 0x449 JUMP JUMPDEST PUSH1 0x20 DUP3 ADD SWAP1 POP SWAP2 SWAP1 POP JUMP JUMPDEST PUSH0 PUSH1 0x20 DUP3 ADD SWAP1 POP DUP2 DUP2 SUB PUSH0 DUP4 ADD MSTORE PUSH2 0x4AA DUP2 PUSH2 0x471 JUMP JUMPDEST SWAP1 POP SWAP2 SWAP1 POP JUMP INVALID LOG2 PUSH5 0x6970667358 0x22 SLT KECCAK256 0xD5 0xB1 0xDE 0xE1 SWAP1 0x26 0xAB CALLER ISZERO 0xF 0xBF 0x22 0xC7 0xC SWAP15 CREATE2 0xF SWAP3 0xB5 0xA8 0x2A STATICCALL SDIV SWAP6 DUP13 0xC1 0xD0 SHL REVERT 0xDE 0x25 PUSH9 0x64736F6C6343000816 STOP CALLER "
		},
		"gasEstimates": {
			"creation": {
				"codeDepositCost": "251000",
				"executionCost": "292",
				"totalCost": "251292"
			},
			"external": {
				"getA()": "2476",
				"getInput(uint256)": "22846",
				"require_1_3(uint256)": "infinite",
				"setAsFive()": "22278"
			}
		},
		"methodIdentifiers": {
			"getA()": "d46300fd",
			"getInput(uint256)": "a459600e",
			"require_1_3(uint256)": "38fd8984",
			"setAsFive()": "c8abf84e"
		}
	},
	"abi": [
		{
			"inputs": [],
			"name": "getA",
			"outputs": [
				{
					"internalType": "uint256",
					"name": "",
					"type": "uint256"
				}
			],
			"stateMutability": "view",
			"type": "function"
		},
		{
			"inputs": [
				{
					"internalType": "uint256",
					"name": "_n",
					"type": "uint256"
				}
			],
			"name": "getInput",
			"outputs": [],
			"stateMutability": "nonpayable",
			"type": "function"
		},
		{
			"inputs": [
				{
					"internalType": "uint256",
					"name": "_n",
					"type": "uint256"
				}
			],
			"name": "require_1_3",
			"outputs": [
				{
					"internalType": "string",
					"name": "",
					"type": "string"
				}
			],
			"stateMutability": "nonpayable",
			"type": "function"
		},
		{
			"inputs": [],
			"name": "setAsFive",
			"outputs": [],
			"stateMutability": "nonpayable",
			"type": "function"
		}
	]
}