{
	"data": {
		"bytecode": {
			"linkReferences": {},
			"object": "608060405234801561001057600080fd5b5061068d806100206000396000f3fe608060405234801561001057600080fd5b50600436106100575760003560e01c80631363e7a81461005c578063210bec541461008c5780637bf9b9f5146100bc578063ced9390d146100ec578063f174022214610108575b600080fd5b610076600480360381019061007191906103ab565b610138565b604051610083919061040f565b60405180910390f35b6100a660048036038101906100a19190610460565b610187565b6040516100b391906104c2565b60405180910390f35b6100d660048036038101906100d19190610460565b6101a9565b6040516100e391906104c2565b60405180910390f35b610106600480360381019061010191906104dd565b6101cb565b005b610122600480360381019061011d9190610460565b61022f565b60405161012f91906104c2565b60405180910390f35b60006040518060400160405280600381526020017f426f620000000000000000000000000000000000000000000000000000000000815250805190602001208280519060200120149050919050565b60008183856101969190610539565b6101a09190610539565b90509392505050565b60008183856101b89190610539565b6101c2919061057b565b90509392505050565b6000600190505b8181101561022b5760006002826101e991906105de565b036102185760008190806001815401808255809150506001900390600052602060002001600090919091909150555b80806102239061060f565b9150506101d2565b5050565b600081838561023e919061057b565b610248919061057b565b90509392505050565b6000604051905090565b600080fd5b600080fd5b600080fd5b600080fd5b6000601f19601f8301169050919050565b7f4e487b7100000000000000000000000000000000000000000000000000000000600052604160045260246000fd5b6102b88261026f565b810181811067ffffffffffffffff821117156102d7576102d6610280565b5b80604052505050565b60006102ea610251565b90506102f682826102af565b919050565b600067ffffffffffffffff82111561031657610315610280565b5b61031f8261026f565b9050602081019050919050565b82818337600083830152505050565b600061034e610349846102fb565b6102e0565b90508281526020810184848401111561036a5761036961026a565b5b61037584828561032c565b509392505050565b600082601f83011261039257610391610265565b5b81356103a284826020860161033b565b91505092915050565b6000602082840312156103c1576103c061025b565b5b600082013567ffffffffffffffff8111156103df576103de610260565b5b6103eb8482850161037d565b91505092915050565b60008115159050919050565b610409816103f4565b82525050565b60006020820190506104246000830184610400565b92915050565b6000819050919050565b61043d8161042a565b811461044857600080fd5b50565b60008135905061045a81610434565b92915050565b6000806000606084860312156104795761047861025b565b5b60006104878682870161044b565b93505060206104988682870161044b565b92505060406104a98682870161044b565b9150509250925092565b6104bc8161042a565b82525050565b60006020820190506104d760008301846104b3565b92915050565b6000602082840312156104f3576104f261025b565b5b60006105018482850161044b565b91505092915050565b7f4e487b7100000000000000000000000000000000000000000000000000000000600052601160045260246000fd5b60006105448261042a565b915061054f8361042a565b925082820261055d8161042a565b915082820484148315176105745761057361050a565b5b5092915050565b60006105868261042a565b91506105918361042a565b92508282019050808211156105a9576105a861050a565b5b92915050565b7f4e487b7100000000000000000000000000000000000000000000000000000000600052601260045260246000fd5b60006105e98261042a565b91506105f48361042a565b925082610604576106036105af565b5b828206905092915050565b600061061a8261042a565b91507fffffffffffffffffffffffffffffffffffffffffffffffffffffffffffffffff820361064c5761064b61050a565b5b60018201905091905056fea264697066735822122032eb5849a4093ef6939c87ec1d336afb1ba1f5237d96b833a1cc4a93a923e08664736f6c63430008120033",
			"opcodes": "PUSH1 0x80 PUSH1 0x40 MSTORE CALLVALUE DUP1 ISZERO PUSH2 0x10 JUMPI PUSH1 0x0 DUP1 REVERT JUMPDEST POP PUSH2 0x68D DUP1 PUSH2 0x20 PUSH1 0x0 CODECOPY PUSH1 0x0 RETURN INVALID PUSH1 0x80 PUSH1 0x40 MSTORE CALLVALUE DUP1 ISZERO PUSH2 0x10 JUMPI PUSH1 0x0 DUP1 REVERT JUMPDEST POP PUSH1 0x4 CALLDATASIZE LT PUSH2 0x57 JUMPI PUSH1 0x0 CALLDATALOAD PUSH1 0xE0 SHR DUP1 PUSH4 0x1363E7A8 EQ PUSH2 0x5C JUMPI DUP1 PUSH4 0x210BEC54 EQ PUSH2 0x8C JUMPI DUP1 PUSH4 0x7BF9B9F5 EQ PUSH2 0xBC JUMPI DUP1 PUSH4 0xCED9390D EQ PUSH2 0xEC JUMPI DUP1 PUSH4 0xF1740222 EQ PUSH2 0x108 JUMPI JUMPDEST PUSH1 0x0 DUP1 REVERT JUMPDEST PUSH2 0x76 PUSH1 0x4 DUP1 CALLDATASIZE SUB DUP2 ADD SWAP1 PUSH2 0x71 SWAP2 SWAP1 PUSH2 0x3AB JUMP JUMPDEST PUSH2 0x138 JUMP JUMPDEST PUSH1 0x40 MLOAD PUSH2 0x83 SWAP2 SWAP1 PUSH2 0x40F JUMP JUMPDEST PUSH1 0x40 MLOAD DUP1 SWAP2 SUB SWAP1 RETURN JUMPDEST PUSH2 0xA6 PUSH1 0x4 DUP1 CALLDATASIZE SUB DUP2 ADD SWAP1 PUSH2 0xA1 SWAP2 SWAP1 PUSH2 0x460 JUMP JUMPDEST PUSH2 0x187 JUMP JUMPDEST PUSH1 0x40 MLOAD PUSH2 0xB3 SWAP2 SWAP1 PUSH2 0x4C2 JUMP JUMPDEST PUSH1 0x40 MLOAD DUP1 SWAP2 SUB SWAP1 RETURN JUMPDEST PUSH2 0xD6 PUSH1 0x4 DUP1 CALLDATASIZE SUB DUP2 ADD SWAP1 PUSH2 0xD1 SWAP2 SWAP1 PUSH2 0x460 JUMP JUMPDEST PUSH2 0x1A9 JUMP JUMPDEST PUSH1 0x40 MLOAD PUSH2 0xE3 SWAP2 SWAP1 PUSH2 0x4C2 JUMP JUMPDEST PUSH1 0x40 MLOAD DUP1 SWAP2 SUB SWAP1 RETURN JUMPDEST PUSH2 0x106 PUSH1 0x4 DUP1 CALLDATASIZE SUB DUP2 ADD SWAP1 PUSH2 0x101 SWAP2 SWAP1 PUSH2 0x4DD JUMP JUMPDEST PUSH2 0x1CB JUMP JUMPDEST STOP JUMPDEST PUSH2 0x122 PUSH1 0x4 DUP1 CALLDATASIZE SUB DUP2 ADD SWAP1 PUSH2 0x11D SWAP2 SWAP1 PUSH2 0x460 JUMP JUMPDEST PUSH2 0x22F JUMP JUMPDEST PUSH1 0x40 MLOAD PUSH2 0x12F SWAP2 SWAP1 PUSH2 0x4C2 JUMP JUMPDEST PUSH1 0x40 MLOAD DUP1 SWAP2 SUB SWAP1 RETURN JUMPDEST PUSH1 0x0 PUSH1 0x40 MLOAD DUP1 PUSH1 0x40 ADD PUSH1 0x40 MSTORE DUP1 PUSH1 0x3 DUP2 MSTORE PUSH1 0x20 ADD PUSH32 0x426F620000000000000000000000000000000000000000000000000000000000 DUP2 MSTORE POP DUP1 MLOAD SWAP1 PUSH1 0x20 ADD KECCAK256 DUP3 DUP1 MLOAD SWAP1 PUSH1 0x20 ADD KECCAK256 EQ SWAP1 POP SWAP2 SWAP1 POP JUMP JUMPDEST PUSH1 0x0 DUP2 DUP4 DUP6 PUSH2 0x196 SWAP2 SWAP1 PUSH2 0x539 JUMP JUMPDEST PUSH2 0x1A0 SWAP2 SWAP1 PUSH2 0x539 JUMP JUMPDEST SWAP1 POP SWAP4 SWAP3 POP POP POP JUMP JUMPDEST PUSH1 0x0 DUP2 DUP4 DUP6 PUSH2 0x1B8 SWAP2 SWAP1 PUSH2 0x539 JUMP JUMPDEST PUSH2 0x1C2 SWAP2 SWAP1 PUSH2 0x57B JUMP JUMPDEST SWAP1 POP SWAP4 SWAP3 POP POP POP JUMP JUMPDEST PUSH1 0x0 PUSH1 0x1 SWAP1 POP JUMPDEST DUP2 DUP2 LT ISZERO PUSH2 0x22B JUMPI PUSH1 0x0 PUSH1 0x2 DUP3 PUSH2 0x1E9 SWAP2 SWAP1 PUSH2 0x5DE JUMP JUMPDEST SUB PUSH2 0x218 JUMPI PUSH1 0x0 DUP2 SWAP1 DUP1 PUSH1 0x1 DUP2 SLOAD ADD DUP1 DUP3 SSTORE DUP1 SWAP2 POP POP PUSH1 0x1 SWAP1 SUB SWAP1 PUSH1 0x0 MSTORE PUSH1 0x20 PUSH1 0x0 KECCAK256 ADD PUSH1 0x0 SWAP1 SWAP2 SWAP1 SWAP2 SWAP1 SWAP2 POP SSTORE JUMPDEST DUP1 DUP1 PUSH2 0x223 SWAP1 PUSH2 0x60F JUMP JUMPDEST SWAP2 POP POP PUSH2 0x1D2 JUMP JUMPDEST POP POP JUMP JUMPDEST PUSH1 0x0 DUP2 DUP4 DUP6 PUSH2 0x23E SWAP2 SWAP1 PUSH2 0x57B JUMP JUMPDEST PUSH2 0x248 SWAP2 SWAP1 PUSH2 0x57B JUMP JUMPDEST SWAP1 POP SWAP4 SWAP3 POP POP POP JUMP JUMPDEST PUSH1 0x0 PUSH1 0x40 MLOAD SWAP1 POP SWAP1 JUMP JUMPDEST PUSH1 0x0 DUP1 REVERT JUMPDEST PUSH1 0x0 DUP1 REVERT JUMPDEST PUSH1 0x0 DUP1 REVERT JUMPDEST PUSH1 0x0 DUP1 REVERT JUMPDEST PUSH1 0x0 PUSH1 0x1F NOT PUSH1 0x1F DUP4 ADD AND SWAP1 POP SWAP2 SWAP1 POP JUMP JUMPDEST PUSH32 0x4E487B7100000000000000000000000000000000000000000000000000000000 PUSH1 0x0 MSTORE PUSH1 0x41 PUSH1 0x4 MSTORE PUSH1 0x24 PUSH1 0x0 REVERT JUMPDEST PUSH2 0x2B8 DUP3 PUSH2 0x26F JUMP JUMPDEST DUP2 ADD DUP2 DUP2 LT PUSH8 0xFFFFFFFFFFFFFFFF DUP3 GT OR ISZERO PUSH2 0x2D7 JUMPI PUSH2 0x2D6 PUSH2 0x280 JUMP JUMPDEST JUMPDEST DUP1 PUSH1 0x40 MSTORE POP POP POP JUMP JUMPDEST PUSH1 0x0 PUSH2 0x2EA PUSH2 0x251 JUMP JUMPDEST SWAP1 POP PUSH2 0x2F6 DUP3 DUP3 PUSH2 0x2AF JUMP JUMPDEST SWAP2 SWAP1 POP JUMP JUMPDEST PUSH1 0x0 PUSH8 0xFFFFFFFFFFFFFFFF DUP3 GT ISZERO PUSH2 0x316 JUMPI PUSH2 0x315 PUSH2 0x280 JUMP JUMPDEST JUMPDEST PUSH2 0x31F DUP3 PUSH2 0x26F JUMP JUMPDEST SWAP1 POP PUSH1 0x20 DUP2 ADD SWAP1 POP SWAP2 SWAP1 POP JUMP JUMPDEST DUP3 DUP2 DUP4 CALLDATACOPY PUSH1 0x0 DUP4 DUP4 ADD MSTORE POP POP POP JUMP JUMPDEST PUSH1 0x0 PUSH2 0x34E PUSH2 0x349 DUP5 PUSH2 0x2FB JUMP JUMPDEST PUSH2 0x2E0 JUMP JUMPDEST SWAP1 POP DUP3 DUP2 MSTORE PUSH1 0x20 DUP2 ADD DUP5 DUP5 DUP5 ADD GT ISZERO PUSH2 0x36A JUMPI PUSH2 0x369 PUSH2 0x26A JUMP JUMPDEST JUMPDEST PUSH2 0x375 DUP5 DUP3 DUP6 PUSH2 0x32C JUMP JUMPDEST POP SWAP4 SWAP3 POP POP POP JUMP JUMPDEST PUSH1 0x0 DUP3 PUSH1 0x1F DUP4 ADD SLT PUSH2 0x392 JUMPI PUSH2 0x391 PUSH2 0x265 JUMP JUMPDEST JUMPDEST DUP2 CALLDATALOAD PUSH2 0x3A2 DUP5 DUP3 PUSH1 0x20 DUP7 ADD PUSH2 0x33B JUMP JUMPDEST SWAP2 POP POP SWAP3 SWAP2 POP POP JUMP JUMPDEST PUSH1 0x0 PUSH1 0x20 DUP3 DUP5 SUB SLT ISZERO PUSH2 0x3C1 JUMPI PUSH2 0x3C0 PUSH2 0x25B JUMP JUMPDEST JUMPDEST PUSH1 0x0 DUP3 ADD CALLDATALOAD PUSH8 0xFFFFFFFFFFFFFFFF DUP2 GT ISZERO PUSH2 0x3DF JUMPI PUSH2 0x3DE PUSH2 0x260 JUMP JUMPDEST JUMPDEST PUSH2 0x3EB DUP5 DUP3 DUP6 ADD PUSH2 0x37D JUMP JUMPDEST SWAP2 POP POP SWAP3 SWAP2 POP POP JUMP JUMPDEST PUSH1 0x0 DUP2 ISZERO ISZERO SWAP1 POP SWAP2 SWAP1 POP JUMP JUMPDEST PUSH2 0x409 DUP2 PUSH2 0x3F4 JUMP JUMPDEST DUP3 MSTORE POP POP JUMP JUMPDEST PUSH1 0x0 PUSH1 0x20 DUP3 ADD SWAP1 POP PUSH2 0x424 PUSH1 0x0 DUP4 ADD DUP5 PUSH2 0x400 JUMP JUMPDEST SWAP3 SWAP2 POP POP JUMP JUMPDEST PUSH1 0x0 DUP2 SWAP1 POP SWAP2 SWAP1 POP JUMP JUMPDEST PUSH2 0x43D DUP2 PUSH2 0x42A JUMP JUMPDEST DUP2 EQ PUSH2 0x448 JUMPI PUSH1 0x0 DUP1 REVERT JUMPDEST POP JUMP JUMPDEST PUSH1 0x0 DUP2 CALLDATALOAD SWAP1 POP PUSH2 0x45A DUP2 PUSH2 0x434 JUMP JUMPDEST SWAP3 SWAP2 POP POP JUMP JUMPDEST PUSH1 0x0 DUP1 PUSH1 0x0 PUSH1 0x60 DUP5 DUP7 SUB SLT ISZERO PUSH2 0x479 JUMPI PUSH2 0x478 PUSH2 0x25B JUMP JUMPDEST JUMPDEST PUSH1 0x0 PUSH2 0x487 DUP7 DUP3 DUP8 ADD PUSH2 0x44B JUMP JUMPDEST SWAP4 POP POP PUSH1 0x20 PUSH2 0x498 DUP7 DUP3 DUP8 ADD PUSH2 0x44B JUMP JUMPDEST SWAP3 POP POP PUSH1 0x40 PUSH2 0x4A9 DUP7 DUP3 DUP8 ADD PUSH2 0x44B JUMP JUMPDEST SWAP2 POP POP SWAP3 POP SWAP3 POP SWAP3 JUMP JUMPDEST PUSH2 0x4BC DUP2 PUSH2 0x42A JUMP JUMPDEST DUP3 MSTORE POP POP JUMP JUMPDEST PUSH1 0x0 PUSH1 0x20 DUP3 ADD SWAP1 POP PUSH2 0x4D7 PUSH1 0x0 DUP4 ADD DUP5 PUSH2 0x4B3 JUMP JUMPDEST SWAP3 SWAP2 POP POP JUMP JUMPDEST PUSH1 0x0 PUSH1 0x20 DUP3 DUP5 SUB SLT ISZERO PUSH2 0x4F3 JUMPI PUSH2 0x4F2 PUSH2 0x25B JUMP JUMPDEST JUMPDEST PUSH1 0x0 PUSH2 0x501 DUP5 DUP3 DUP6 ADD PUSH2 0x44B JUMP JUMPDEST SWAP2 POP POP SWAP3 SWAP2 POP POP JUMP JUMPDEST PUSH32 0x4E487B7100000000000000000000000000000000000000000000000000000000 PUSH1 0x0 MSTORE PUSH1 0x11 PUSH1 0x4 MSTORE PUSH1 0x24 PUSH1 0x0 REVERT JUMPDEST PUSH1 0x0 PUSH2 0x544 DUP3 PUSH2 0x42A JUMP JUMPDEST SWAP2 POP PUSH2 0x54F DUP4 PUSH2 0x42A JUMP JUMPDEST SWAP3 POP DUP3 DUP3 MUL PUSH2 0x55D DUP2 PUSH2 0x42A JUMP JUMPDEST SWAP2 POP DUP3 DUP3 DIV DUP5 EQ DUP4 ISZERO OR PUSH2 0x574 JUMPI PUSH2 0x573 PUSH2 0x50A JUMP JUMPDEST JUMPDEST POP SWAP3 SWAP2 POP POP JUMP JUMPDEST PUSH1 0x0 PUSH2 0x586 DUP3 PUSH2 0x42A JUMP JUMPDEST SWAP2 POP PUSH2 0x591 DUP4 PUSH2 0x42A JUMP JUMPDEST SWAP3 POP DUP3 DUP3 ADD SWAP1 POP DUP1 DUP3 GT ISZERO PUSH2 0x5A9 JUMPI PUSH2 0x5A8 PUSH2 0x50A JUMP JUMPDEST JUMPDEST SWAP3 SWAP2 POP POP JUMP JUMPDEST PUSH32 0x4E487B7100000000000000000000000000000000000000000000000000000000 PUSH1 0x0 MSTORE PUSH1 0x12 PUSH1 0x4 MSTORE PUSH1 0x24 PUSH1 0x0 REVERT JUMPDEST PUSH1 0x0 PUSH2 0x5E9 DUP3 PUSH2 0x42A JUMP JUMPDEST SWAP2 POP PUSH2 0x5F4 DUP4 PUSH2 0x42A JUMP JUMPDEST SWAP3 POP DUP3 PUSH2 0x604 JUMPI PUSH2 0x603 PUSH2 0x5AF JUMP JUMPDEST JUMPDEST DUP3 DUP3 MOD SWAP1 POP SWAP3 SWAP2 POP POP JUMP JUMPDEST PUSH1 0x0 PUSH2 0x61A DUP3 PUSH2 0x42A JUMP JUMPDEST SWAP2 POP PUSH32 0xFFFFFFFFFFFFFFFFFFFFFFFFFFFFFFFFFFFFFFFFFFFFFFFFFFFFFFFFFFFFFFFF DUP3 SUB PUSH2 0x64C JUMPI PUSH2 0x64B PUSH2 0x50A JUMP JUMPDEST JUMPDEST PUSH1 0x1 DUP3 ADD SWAP1 POP SWAP2 SWAP1 POP JUMP INVALID LOG2 PUSH5 0x6970667358 0x22 SLT KECCAK256 ORIGIN 0xEB PC 0x49 LOG4 MULMOD RETURNDATACOPY 0xF6 SWAP4 SWAP13 DUP8 0xEC SAR CALLER PUSH11 0xFB1BA1F5237D96B833A1CC 0x4A SWAP4 0xA9 0x23 0xE0 DUP7 PUSH5 0x736F6C6343 STOP ADDMOD SLT STOP CALLER "
		},
		"gasEstimates": {
			"creation": {
				"codeDepositCost": "335400",
				"executionCost": "374",
				"totalCost": "335774"
			},
			"external": {
				"addNumbers(uint256,uint256,uint256)": "infinite",
				"calcNumbers(uint256,uint256,uint256)": "infinite",
				"isBob(string)": "infinite",
				"mulNumbers(uint256,uint256,uint256)": "infinite",
				"setEvenNumber(uint256)": "infinite"
			}
		},
		"methodIdentifiers": {
			"addNumbers(uint256,uint256,uint256)": "f1740222",
			"calcNumbers(uint256,uint256,uint256)": "7bf9b9f5",
			"isBob(string)": "1363e7a8",
			"mulNumbers(uint256,uint256,uint256)": "210bec54",
			"setEvenNumber(uint256)": "ced9390d"
		}
	},
	"abi": [
		{
			"inputs": [
				{
					"internalType": "uint256",
					"name": "_a",
					"type": "uint256"
				},
				{
					"internalType": "uint256",
					"name": "_b",
					"type": "uint256"
				},
				{
					"internalType": "uint256",
					"name": "_c",
					"type": "uint256"
				}
			],
			"name": "addNumbers",
			"outputs": [
				{
					"internalType": "uint256",
					"name": "",
					"type": "uint256"
				}
			],
			"stateMutability": "pure",
			"type": "function"
		},
		{
			"inputs": [
				{
					"internalType": "uint256",
					"name": "_a",
					"type": "uint256"
				},
				{
					"internalType": "uint256",
					"name": "_b",
					"type": "uint256"
				},
				{
					"internalType": "uint256",
					"name": "_c",
					"type": "uint256"
				}
			],
			"name": "calcNumbers",
			"outputs": [
				{
					"internalType": "uint256",
					"name": "",
					"type": "uint256"
				}
			],
			"stateMutability": "pure",
			"type": "function"
		},
		{
			"inputs": [
				{
					"internalType": "string",
					"name": "_name",
					"type": "string"
				}
			],
			"name": "isBob",
			"outputs": [
				{
					"internalType": "bool",
					"name": "",
					"type": "bool"
				}
			],
			"stateMutability": "pure",
			"type": "function"
		},
		{
			"inputs": [
				{
					"internalType": "uint256",
					"name": "_a",
					"type": "uint256"
				},
				{
					"internalType": "uint256",
					"name": "_b",
					"type": "uint256"
				},
				{
					"internalType": "uint256",
					"name": "_c",
					"type": "uint256"
				}
			],
			"name": "mulNumbers",
			"outputs": [
				{
					"internalType": "uint256",
					"name": "",
					"type": "uint256"
				}
			],
			"stateMutability": "pure",
			"type": "function"
		},
		{
			"inputs": [
				{
					"internalType": "uint256",
					"name": "_n",
					"type": "uint256"
				}
			],
			"name": "setEvenNumber",
			"outputs": [],
			"stateMutability": "nonpayable",
			"type": "function"
		}
	]
}