{
	"data": {
		"bytecode": {
			"linkReferences": {},
			"object": "608060405234801561000f575f80fd5b50610b788061001d5f395ff3fe608060405234801561000f575f80fd5b506004361061004a575f3560e01c8063674271cd1461004e57806382fae9b71461007e578063d116a4391461009a578063f1d064b3146100ca575b5f80fd5b610068600480360381019061006391906103eb565b6100e8565b60405161007591906104a0565b60405180910390f35b610098600480360381019061009391906105ec565b61016d565b005b6100b460048036038101906100af91906103eb565b610203565b6040516100c19190610667565b60405180910390f35b6100d2610218565b6040516100df91906107f9565b60405180910390f35b6060605a821061012f576040518060400160405280600181526020017f41000000000000000000000000000000000000000000000000000000000000008152509050610168565b6040518060400160405280600181526020017f460000000000000000000000000000000000000000000000000000000000000081525090505b919050565b60016040518060800160405280858152602001848152602001838152602001610195846100e8565b815250908060018154018082558091505060019003905f5260205f2090600402015f909190919091505f820151815f0190816101d19190610a13565b50602082015181600101556040820151816002015560608201518160030190816101fb9190610a13565b505050505050565b5f815f546102119190610b0f565b9050919050565b60606001805480602002602001604051908101604052809291908181526020015f905b8282101561039e578382905f5260205f2090600402016040518060800160405290815f8201805461026b90610846565b80601f016020809104026020016040519081016040528092919081815260200182805461029790610846565b80156102e25780601f106102b9576101008083540402835291602001916102e2565b820191905f5260205f20905b8154815290600101906020018083116102c557829003601f168201915b50505050508152602001600182015481526020016002820154815260200160038201805461030f90610846565b80601f016020809104026020016040519081016040528092919081815260200182805461033b90610846565b80156103865780601f1061035d57610100808354040283529160200191610386565b820191905f5260205f20905b81548152906001019060200180831161036957829003601f168201915b5050505050815250508152602001906001019061023b565b50505050905090565b5f604051905090565b5f80fd5b5f80fd5b5f819050919050565b6103ca816103b8565b81146103d4575f80fd5b50565b5f813590506103e5816103c1565b92915050565b5f60208284031215610400576103ff6103b0565b5b5f61040d848285016103d7565b91505092915050565b5f81519050919050565b5f82825260208201905092915050565b5f5b8381101561044d578082015181840152602081019050610432565b5f8484015250505050565b5f601f19601f8301169050919050565b5f61047282610416565b61047c8185610420565b935061048c818560208601610430565b61049581610458565b840191505092915050565b5f6020820190508181035f8301526104b88184610468565b905092915050565b5f80fd5b5f80fd5b7f4e487b71000000000000000000000000000000000000000000000000000000005f52604160045260245ffd5b6104fe82610458565b810181811067ffffffffffffffff8211171561051d5761051c6104c8565b5b80604052505050565b5f61052f6103a7565b905061053b82826104f5565b919050565b5f67ffffffffffffffff82111561055a576105596104c8565b5b61056382610458565b9050602081019050919050565b828183375f83830152505050565b5f61059061058b84610540565b610526565b9050828152602081018484840111156105ac576105ab6104c4565b5b6105b7848285610570565b509392505050565b5f82601f8301126105d3576105d26104c0565b5b81356105e384826020860161057e565b91505092915050565b5f805f60608486031215610603576106026103b0565b5b5f84013567ffffffffffffffff8111156106205761061f6103b4565b5b61062c868287016105bf565b935050602061063d868287016103d7565b925050604061064e868287016103d7565b9150509250925092565b610661816103b8565b82525050565b5f60208201905061067a5f830184610658565b92915050565b5f81519050919050565b5f82825260208201905092915050565b5f819050602082019050919050565b5f82825260208201905092915050565b5f6106c382610416565b6106cd81856106a9565b93506106dd818560208601610430565b6106e681610458565b840191505092915050565b6106fa816103b8565b82525050565b5f608083015f8301518482035f86015261071a82826106b9565b915050602083015161072f60208601826106f1565b50604083015161074260408601826106f1565b506060830151848203606086015261075a82826106b9565b9150508091505092915050565b5f6107728383610700565b905092915050565b5f602082019050919050565b5f61079082610680565b61079a818561068a565b9350836020820285016107ac8561069a565b805f5b858110156107e757848403895281516107c88582610767565b94506107d38361077a565b925060208a019950506001810190506107af565b50829750879550505050505092915050565b5f6020820190508181035f8301526108118184610786565b905092915050565b7f4e487b71000000000000000000000000000000000000000000000000000000005f52602260045260245ffd5b5f600282049050600182168061085d57607f821691505b6020821081036108705761086f610819565b5b50919050565b5f819050815f5260205f209050919050565b5f6020601f8301049050919050565b5f82821b905092915050565b5f600883026108d27fffffffffffffffffffffffffffffffffffffffffffffffffffffffffffffffff82610897565b6108dc8683610897565b95508019841693508086168417925050509392505050565b5f819050919050565b5f61091761091261090d846103b8565b6108f4565b6103b8565b9050919050565b5f819050919050565b610930836108fd565b61094461093c8261091e565b8484546108a3565b825550505050565b5f90565b61095861094c565b610963818484610927565b505050565b5b818110156109865761097b5f82610950565b600181019050610969565b5050565b601f8211156109cb5761099c81610876565b6109a584610888565b810160208510156109b4578190505b6109c86109c085610888565b830182610968565b50505b505050565b5f82821c905092915050565b5f6109eb5f19846008026109d0565b1980831691505092915050565b5f610a0383836109dc565b9150826002028217905092915050565b610a1c82610416565b67ffffffffffffffff811115610a3557610a346104c8565b5b610a3f8254610846565b610a4a82828561098a565b5f60209050601f831160018114610a7b575f8415610a69578287015190505b610a7385826109f8565b865550610ada565b601f198416610a8986610876565b5f5b82811015610ab057848901518255600182019150602085019450602081019050610a8b565b86831015610acd5784890151610ac9601f8916826109dc565b8355505b6001600288020188555050505b505050505050565b7f4e487b71000000000000000000000000000000000000000000000000000000005f52601160045260245ffd5b5f610b19826103b8565b9150610b24836103b8565b9250828201905080821115610b3c57610b3b610ae2565b5b9291505056fea2646970667358221220c12db5db747ed9675980f9ae13226c2daab3b007d5f7310bb4f4f6c6fc4a775d64736f6c63430008160033",
			"opcodes": "PUSH1 0x80 PUSH1 0x40 MSTORE CALLVALUE DUP1 ISZERO PUSH2 0xF JUMPI PUSH0 DUP1 REVERT JUMPDEST POP PUSH2 0xB78 DUP1 PUSH2 0x1D PUSH0 CODECOPY PUSH0 RETURN INVALID PUSH1 0x80 PUSH1 0x40 MSTORE CALLVALUE DUP1 ISZERO PUSH2 0xF JUMPI PUSH0 DUP1 REVERT JUMPDEST POP PUSH1 0x4 CALLDATASIZE LT PUSH2 0x4A JUMPI PUSH0 CALLDATALOAD PUSH1 0xE0 SHR DUP1 PUSH4 0x674271CD EQ PUSH2 0x4E JUMPI DUP1 PUSH4 0x82FAE9B7 EQ PUSH2 0x7E JUMPI DUP1 PUSH4 0xD116A439 EQ PUSH2 0x9A JUMPI DUP1 PUSH4 0xF1D064B3 EQ PUSH2 0xCA JUMPI JUMPDEST PUSH0 DUP1 REVERT JUMPDEST PUSH2 0x68 PUSH1 0x4 DUP1 CALLDATASIZE SUB DUP2 ADD SWAP1 PUSH2 0x63 SWAP2 SWAP1 PUSH2 0x3EB JUMP JUMPDEST PUSH2 0xE8 JUMP JUMPDEST PUSH1 0x40 MLOAD PUSH2 0x75 SWAP2 SWAP1 PUSH2 0x4A0 JUMP JUMPDEST PUSH1 0x40 MLOAD DUP1 SWAP2 SUB SWAP1 RETURN JUMPDEST PUSH2 0x98 PUSH1 0x4 DUP1 CALLDATASIZE SUB DUP2 ADD SWAP1 PUSH2 0x93 SWAP2 SWAP1 PUSH2 0x5EC JUMP JUMPDEST PUSH2 0x16D JUMP JUMPDEST STOP JUMPDEST PUSH2 0xB4 PUSH1 0x4 DUP1 CALLDATASIZE SUB DUP2 ADD SWAP1 PUSH2 0xAF SWAP2 SWAP1 PUSH2 0x3EB JUMP JUMPDEST PUSH2 0x203 JUMP JUMPDEST PUSH1 0x40 MLOAD PUSH2 0xC1 SWAP2 SWAP1 PUSH2 0x667 JUMP JUMPDEST PUSH1 0x40 MLOAD DUP1 SWAP2 SUB SWAP1 RETURN JUMPDEST PUSH2 0xD2 PUSH2 0x218 JUMP JUMPDEST PUSH1 0x40 MLOAD PUSH2 0xDF SWAP2 SWAP1 PUSH2 0x7F9 JUMP JUMPDEST PUSH1 0x40 MLOAD DUP1 SWAP2 SUB SWAP1 RETURN JUMPDEST PUSH1 0x60 PUSH1 0x5A DUP3 LT PUSH2 0x12F JUMPI PUSH1 0x40 MLOAD DUP1 PUSH1 0x40 ADD PUSH1 0x40 MSTORE DUP1 PUSH1 0x1 DUP2 MSTORE PUSH1 0x20 ADD PUSH32 0x4100000000000000000000000000000000000000000000000000000000000000 DUP2 MSTORE POP SWAP1 POP PUSH2 0x168 JUMP JUMPDEST PUSH1 0x40 MLOAD DUP1 PUSH1 0x40 ADD PUSH1 0x40 MSTORE DUP1 PUSH1 0x1 DUP2 MSTORE PUSH1 0x20 ADD PUSH32 0x4600000000000000000000000000000000000000000000000000000000000000 DUP2 MSTORE POP SWAP1 POP JUMPDEST SWAP2 SWAP1 POP JUMP JUMPDEST PUSH1 0x1 PUSH1 0x40 MLOAD DUP1 PUSH1 0x80 ADD PUSH1 0x40 MSTORE DUP1 DUP6 DUP2 MSTORE PUSH1 0x20 ADD DUP5 DUP2 MSTORE PUSH1 0x20 ADD DUP4 DUP2 MSTORE PUSH1 0x20 ADD PUSH2 0x195 DUP5 PUSH2 0xE8 JUMP JUMPDEST DUP2 MSTORE POP SWAP1 DUP1 PUSH1 0x1 DUP2 SLOAD ADD DUP1 DUP3 SSTORE DUP1 SWAP2 POP POP PUSH1 0x1 SWAP1 SUB SWAP1 PUSH0 MSTORE PUSH1 0x20 PUSH0 KECCAK256 SWAP1 PUSH1 0x4 MUL ADD PUSH0 SWAP1 SWAP2 SWAP1 SWAP2 SWAP1 SWAP2 POP PUSH0 DUP3 ADD MLOAD DUP2 PUSH0 ADD SWAP1 DUP2 PUSH2 0x1D1 SWAP2 SWAP1 PUSH2 0xA13 JUMP JUMPDEST POP PUSH1 0x20 DUP3 ADD MLOAD DUP2 PUSH1 0x1 ADD SSTORE PUSH1 0x40 DUP3 ADD MLOAD DUP2 PUSH1 0x2 ADD SSTORE PUSH1 0x60 DUP3 ADD MLOAD DUP2 PUSH1 0x3 ADD SWAP1 DUP2 PUSH2 0x1FB SWAP2 SWAP1 PUSH2 0xA13 JUMP JUMPDEST POP POP POP POP POP POP JUMP JUMPDEST PUSH0 DUP2 PUSH0 SLOAD PUSH2 0x211 SWAP2 SWAP1 PUSH2 0xB0F JUMP JUMPDEST SWAP1 POP SWAP2 SWAP1 POP JUMP JUMPDEST PUSH1 0x60 PUSH1 0x1 DUP1 SLOAD DUP1 PUSH1 0x20 MUL PUSH1 0x20 ADD PUSH1 0x40 MLOAD SWAP1 DUP2 ADD PUSH1 0x40 MSTORE DUP1 SWAP3 SWAP2 SWAP1 DUP2 DUP2 MSTORE PUSH1 0x20 ADD PUSH0 SWAP1 JUMPDEST DUP3 DUP3 LT ISZERO PUSH2 0x39E JUMPI DUP4 DUP3 SWAP1 PUSH0 MSTORE PUSH1 0x20 PUSH0 KECCAK256 SWAP1 PUSH1 0x4 MUL ADD PUSH1 0x40 MLOAD DUP1 PUSH1 0x80 ADD PUSH1 0x40 MSTORE SWAP1 DUP2 PUSH0 DUP3 ADD DUP1 SLOAD PUSH2 0x26B SWAP1 PUSH2 0x846 JUMP JUMPDEST DUP1 PUSH1 0x1F ADD PUSH1 0x20 DUP1 SWAP2 DIV MUL PUSH1 0x20 ADD PUSH1 0x40 MLOAD SWAP1 DUP2 ADD PUSH1 0x40 MSTORE DUP1 SWAP3 SWAP2 SWAP1 DUP2 DUP2 MSTORE PUSH1 0x20 ADD DUP3 DUP1 SLOAD PUSH2 0x297 SWAP1 PUSH2 0x846 JUMP JUMPDEST DUP1 ISZERO PUSH2 0x2E2 JUMPI DUP1 PUSH1 0x1F LT PUSH2 0x2B9 JUMPI PUSH2 0x100 DUP1 DUP4 SLOAD DIV MUL DUP4 MSTORE SWAP2 PUSH1 0x20 ADD SWAP2 PUSH2 0x2E2 JUMP JUMPDEST DUP3 ADD SWAP2 SWAP1 PUSH0 MSTORE PUSH1 0x20 PUSH0 KECCAK256 SWAP1 JUMPDEST DUP2 SLOAD DUP2 MSTORE SWAP1 PUSH1 0x1 ADD SWAP1 PUSH1 0x20 ADD DUP1 DUP4 GT PUSH2 0x2C5 JUMPI DUP3 SWAP1 SUB PUSH1 0x1F AND DUP3 ADD SWAP2 JUMPDEST POP POP POP POP POP DUP2 MSTORE PUSH1 0x20 ADD PUSH1 0x1 DUP3 ADD SLOAD DUP2 MSTORE PUSH1 0x20 ADD PUSH1 0x2 DUP3 ADD SLOAD DUP2 MSTORE PUSH1 0x20 ADD PUSH1 0x3 DUP3 ADD DUP1 SLOAD PUSH2 0x30F SWAP1 PUSH2 0x846 JUMP JUMPDEST DUP1 PUSH1 0x1F ADD PUSH1 0x20 DUP1 SWAP2 DIV MUL PUSH1 0x20 ADD PUSH1 0x40 MLOAD SWAP1 DUP2 ADD PUSH1 0x40 MSTORE DUP1 SWAP3 SWAP2 SWAP1 DUP2 DUP2 MSTORE PUSH1 0x20 ADD DUP3 DUP1 SLOAD PUSH2 0x33B SWAP1 PUSH2 0x846 JUMP JUMPDEST DUP1 ISZERO PUSH2 0x386 JUMPI DUP1 PUSH1 0x1F LT PUSH2 0x35D JUMPI PUSH2 0x100 DUP1 DUP4 SLOAD DIV MUL DUP4 MSTORE SWAP2 PUSH1 0x20 ADD SWAP2 PUSH2 0x386 JUMP JUMPDEST DUP3 ADD SWAP2 SWAP1 PUSH0 MSTORE PUSH1 0x20 PUSH0 KECCAK256 SWAP1 JUMPDEST DUP2 SLOAD DUP2 MSTORE SWAP1 PUSH1 0x1 ADD SWAP1 PUSH1 0x20 ADD DUP1 DUP4 GT PUSH2 0x369 JUMPI DUP3 SWAP1 SUB PUSH1 0x1F AND DUP3 ADD SWAP2 JUMPDEST POP POP POP POP POP DUP2 MSTORE POP POP DUP2 MSTORE PUSH1 0x20 ADD SWAP1 PUSH1 0x1 ADD SWAP1 PUSH2 0x23B JUMP JUMPDEST POP POP POP POP SWAP1 POP SWAP1 JUMP JUMPDEST PUSH0 PUSH1 0x40 MLOAD SWAP1 POP SWAP1 JUMP JUMPDEST PUSH0 DUP1 REVERT JUMPDEST PUSH0 DUP1 REVERT JUMPDEST PUSH0 DUP2 SWAP1 POP SWAP2 SWAP1 POP JUMP JUMPDEST PUSH2 0x3CA DUP2 PUSH2 0x3B8 JUMP JUMPDEST DUP2 EQ PUSH2 0x3D4 JUMPI PUSH0 DUP1 REVERT JUMPDEST POP JUMP JUMPDEST PUSH0 DUP2 CALLDATALOAD SWAP1 POP PUSH2 0x3E5 DUP2 PUSH2 0x3C1 JUMP JUMPDEST SWAP3 SWAP2 POP POP JUMP JUMPDEST PUSH0 PUSH1 0x20 DUP3 DUP5 SUB SLT ISZERO PUSH2 0x400 JUMPI PUSH2 0x3FF PUSH2 0x3B0 JUMP JUMPDEST JUMPDEST PUSH0 PUSH2 0x40D DUP5 DUP3 DUP6 ADD PUSH2 0x3D7 JUMP JUMPDEST SWAP2 POP POP SWAP3 SWAP2 POP POP JUMP JUMPDEST PUSH0 DUP2 MLOAD SWAP1 POP SWAP2 SWAP1 POP JUMP JUMPDEST PUSH0 DUP3 DUP3 MSTORE PUSH1 0x20 DUP3 ADD SWAP1 POP SWAP3 SWAP2 POP POP JUMP JUMPDEST PUSH0 JUMPDEST DUP4 DUP2 LT ISZERO PUSH2 0x44D JUMPI DUP1 DUP3 ADD MLOAD DUP2 DUP5 ADD MSTORE PUSH1 0x20 DUP2 ADD SWAP1 POP PUSH2 0x432 JUMP JUMPDEST PUSH0 DUP5 DUP5 ADD MSTORE POP POP POP POP JUMP JUMPDEST PUSH0 PUSH1 0x1F NOT PUSH1 0x1F DUP4 ADD AND SWAP1 POP SWAP2 SWAP1 POP JUMP JUMPDEST PUSH0 PUSH2 0x472 DUP3 PUSH2 0x416 JUMP JUMPDEST PUSH2 0x47C DUP2 DUP6 PUSH2 0x420 JUMP JUMPDEST SWAP4 POP PUSH2 0x48C DUP2 DUP6 PUSH1 0x20 DUP7 ADD PUSH2 0x430 JUMP JUMPDEST PUSH2 0x495 DUP2 PUSH2 0x458 JUMP JUMPDEST DUP5 ADD SWAP2 POP POP SWAP3 SWAP2 POP POP JUMP JUMPDEST PUSH0 PUSH1 0x20 DUP3 ADD SWAP1 POP DUP2 DUP2 SUB PUSH0 DUP4 ADD MSTORE PUSH2 0x4B8 DUP2 DUP5 PUSH2 0x468 JUMP JUMPDEST SWAP1 POP SWAP3 SWAP2 POP POP JUMP JUMPDEST PUSH0 DUP1 REVERT JUMPDEST PUSH0 DUP1 REVERT JUMPDEST PUSH32 0x4E487B7100000000000000000000000000000000000000000000000000000000 PUSH0 MSTORE PUSH1 0x41 PUSH1 0x4 MSTORE PUSH1 0x24 PUSH0 REVERT JUMPDEST PUSH2 0x4FE DUP3 PUSH2 0x458 JUMP JUMPDEST DUP2 ADD DUP2 DUP2 LT PUSH8 0xFFFFFFFFFFFFFFFF DUP3 GT OR ISZERO PUSH2 0x51D JUMPI PUSH2 0x51C PUSH2 0x4C8 JUMP JUMPDEST JUMPDEST DUP1 PUSH1 0x40 MSTORE POP POP POP JUMP JUMPDEST PUSH0 PUSH2 0x52F PUSH2 0x3A7 JUMP JUMPDEST SWAP1 POP PUSH2 0x53B DUP3 DUP3 PUSH2 0x4F5 JUMP JUMPDEST SWAP2 SWAP1 POP JUMP JUMPDEST PUSH0 PUSH8 0xFFFFFFFFFFFFFFFF DUP3 GT ISZERO PUSH2 0x55A JUMPI PUSH2 0x559 PUSH2 0x4C8 JUMP JUMPDEST JUMPDEST PUSH2 0x563 DUP3 PUSH2 0x458 JUMP JUMPDEST SWAP1 POP PUSH1 0x20 DUP2 ADD SWAP1 POP SWAP2 SWAP1 POP JUMP JUMPDEST DUP3 DUP2 DUP4 CALLDATACOPY PUSH0 DUP4 DUP4 ADD MSTORE POP POP POP JUMP JUMPDEST PUSH0 PUSH2 0x590 PUSH2 0x58B DUP5 PUSH2 0x540 JUMP JUMPDEST PUSH2 0x526 JUMP JUMPDEST SWAP1 POP DUP3 DUP2 MSTORE PUSH1 0x20 DUP2 ADD DUP5 DUP5 DUP5 ADD GT ISZERO PUSH2 0x5AC JUMPI PUSH2 0x5AB PUSH2 0x4C4 JUMP JUMPDEST JUMPDEST PUSH2 0x5B7 DUP5 DUP3 DUP6 PUSH2 0x570 JUMP JUMPDEST POP SWAP4 SWAP3 POP POP POP JUMP JUMPDEST PUSH0 DUP3 PUSH1 0x1F DUP4 ADD SLT PUSH2 0x5D3 JUMPI PUSH2 0x5D2 PUSH2 0x4C0 JUMP JUMPDEST JUMPDEST DUP2 CALLDATALOAD PUSH2 0x5E3 DUP5 DUP3 PUSH1 0x20 DUP7 ADD PUSH2 0x57E JUMP JUMPDEST SWAP2 POP POP SWAP3 SWAP2 POP POP JUMP JUMPDEST PUSH0 DUP1 PUSH0 PUSH1 0x60 DUP5 DUP7 SUB SLT ISZERO PUSH2 0x603 JUMPI PUSH2 0x602 PUSH2 0x3B0 JUMP JUMPDEST JUMPDEST PUSH0 DUP5 ADD CALLDATALOAD PUSH8 0xFFFFFFFFFFFFFFFF DUP2 GT ISZERO PUSH2 0x620 JUMPI PUSH2 0x61F PUSH2 0x3B4 JUMP JUMPDEST JUMPDEST PUSH2 0x62C DUP7 DUP3 DUP8 ADD PUSH2 0x5BF JUMP JUMPDEST SWAP4 POP POP PUSH1 0x20 PUSH2 0x63D DUP7 DUP3 DUP8 ADD PUSH2 0x3D7 JUMP JUMPDEST SWAP3 POP POP PUSH1 0x40 PUSH2 0x64E DUP7 DUP3 DUP8 ADD PUSH2 0x3D7 JUMP JUMPDEST SWAP2 POP POP SWAP3 POP SWAP3 POP SWAP3 JUMP JUMPDEST PUSH2 0x661 DUP2 PUSH2 0x3B8 JUMP JUMPDEST DUP3 MSTORE POP POP JUMP JUMPDEST PUSH0 PUSH1 0x20 DUP3 ADD SWAP1 POP PUSH2 0x67A PUSH0 DUP4 ADD DUP5 PUSH2 0x658 JUMP JUMPDEST SWAP3 SWAP2 POP POP JUMP JUMPDEST PUSH0 DUP2 MLOAD SWAP1 POP SWAP2 SWAP1 POP JUMP JUMPDEST PUSH0 DUP3 DUP3 MSTORE PUSH1 0x20 DUP3 ADD SWAP1 POP SWAP3 SWAP2 POP POP JUMP JUMPDEST PUSH0 DUP2 SWAP1 POP PUSH1 0x20 DUP3 ADD SWAP1 POP SWAP2 SWAP1 POP JUMP JUMPDEST PUSH0 DUP3 DUP3 MSTORE PUSH1 0x20 DUP3 ADD SWAP1 POP SWAP3 SWAP2 POP POP JUMP JUMPDEST PUSH0 PUSH2 0x6C3 DUP3 PUSH2 0x416 JUMP JUMPDEST PUSH2 0x6CD DUP2 DUP6 PUSH2 0x6A9 JUMP JUMPDEST SWAP4 POP PUSH2 0x6DD DUP2 DUP6 PUSH1 0x20 DUP7 ADD PUSH2 0x430 JUMP JUMPDEST PUSH2 0x6E6 DUP2 PUSH2 0x458 JUMP JUMPDEST DUP5 ADD SWAP2 POP POP SWAP3 SWAP2 POP POP JUMP JUMPDEST PUSH2 0x6FA DUP2 PUSH2 0x3B8 JUMP JUMPDEST DUP3 MSTORE POP POP JUMP JUMPDEST PUSH0 PUSH1 0x80 DUP4 ADD PUSH0 DUP4 ADD MLOAD DUP5 DUP3 SUB PUSH0 DUP7 ADD MSTORE PUSH2 0x71A DUP3 DUP3 PUSH2 0x6B9 JUMP JUMPDEST SWAP2 POP POP PUSH1 0x20 DUP4 ADD MLOAD PUSH2 0x72F PUSH1 0x20 DUP7 ADD DUP3 PUSH2 0x6F1 JUMP JUMPDEST POP PUSH1 0x40 DUP4 ADD MLOAD PUSH2 0x742 PUSH1 0x40 DUP7 ADD DUP3 PUSH2 0x6F1 JUMP JUMPDEST POP PUSH1 0x60 DUP4 ADD MLOAD DUP5 DUP3 SUB PUSH1 0x60 DUP7 ADD MSTORE PUSH2 0x75A DUP3 DUP3 PUSH2 0x6B9 JUMP JUMPDEST SWAP2 POP POP DUP1 SWAP2 POP POP SWAP3 SWAP2 POP POP JUMP JUMPDEST PUSH0 PUSH2 0x772 DUP4 DUP4 PUSH2 0x700 JUMP JUMPDEST SWAP1 POP SWAP3 SWAP2 POP POP JUMP JUMPDEST PUSH0 PUSH1 0x20 DUP3 ADD SWAP1 POP SWAP2 SWAP1 POP JUMP JUMPDEST PUSH0 PUSH2 0x790 DUP3 PUSH2 0x680 JUMP JUMPDEST PUSH2 0x79A DUP2 DUP6 PUSH2 0x68A JUMP JUMPDEST SWAP4 POP DUP4 PUSH1 0x20 DUP3 MUL DUP6 ADD PUSH2 0x7AC DUP6 PUSH2 0x69A JUMP JUMPDEST DUP1 PUSH0 JUMPDEST DUP6 DUP2 LT ISZERO PUSH2 0x7E7 JUMPI DUP5 DUP5 SUB DUP10 MSTORE DUP2 MLOAD PUSH2 0x7C8 DUP6 DUP3 PUSH2 0x767 JUMP JUMPDEST SWAP5 POP PUSH2 0x7D3 DUP4 PUSH2 0x77A JUMP JUMPDEST SWAP3 POP PUSH1 0x20 DUP11 ADD SWAP10 POP POP PUSH1 0x1 DUP2 ADD SWAP1 POP PUSH2 0x7AF JUMP JUMPDEST POP DUP3 SWAP8 POP DUP8 SWAP6 POP POP POP POP POP POP SWAP3 SWAP2 POP POP JUMP JUMPDEST PUSH0 PUSH1 0x20 DUP3 ADD SWAP1 POP DUP2 DUP2 SUB PUSH0 DUP4 ADD MSTORE PUSH2 0x811 DUP2 DUP5 PUSH2 0x786 JUMP JUMPDEST SWAP1 POP SWAP3 SWAP2 POP POP JUMP JUMPDEST PUSH32 0x4E487B7100000000000000000000000000000000000000000000000000000000 PUSH0 MSTORE PUSH1 0x22 PUSH1 0x4 MSTORE PUSH1 0x24 PUSH0 REVERT JUMPDEST PUSH0 PUSH1 0x2 DUP3 DIV SWAP1 POP PUSH1 0x1 DUP3 AND DUP1 PUSH2 0x85D JUMPI PUSH1 0x7F DUP3 AND SWAP2 POP JUMPDEST PUSH1 0x20 DUP3 LT DUP2 SUB PUSH2 0x870 JUMPI PUSH2 0x86F PUSH2 0x819 JUMP JUMPDEST JUMPDEST POP SWAP2 SWAP1 POP JUMP JUMPDEST PUSH0 DUP2 SWAP1 POP DUP2 PUSH0 MSTORE PUSH1 0x20 PUSH0 KECCAK256 SWAP1 POP SWAP2 SWAP1 POP JUMP JUMPDEST PUSH0 PUSH1 0x20 PUSH1 0x1F DUP4 ADD DIV SWAP1 POP SWAP2 SWAP1 POP JUMP JUMPDEST PUSH0 DUP3 DUP3 SHL SWAP1 POP SWAP3 SWAP2 POP POP JUMP JUMPDEST PUSH0 PUSH1 0x8 DUP4 MUL PUSH2 0x8D2 PUSH32 0xFFFFFFFFFFFFFFFFFFFFFFFFFFFFFFFFFFFFFFFFFFFFFFFFFFFFFFFFFFFFFFFF DUP3 PUSH2 0x897 JUMP JUMPDEST PUSH2 0x8DC DUP7 DUP4 PUSH2 0x897 JUMP JUMPDEST SWAP6 POP DUP1 NOT DUP5 AND SWAP4 POP DUP1 DUP7 AND DUP5 OR SWAP3 POP POP POP SWAP4 SWAP3 POP POP POP JUMP JUMPDEST PUSH0 DUP2 SWAP1 POP SWAP2 SWAP1 POP JUMP JUMPDEST PUSH0 PUSH2 0x917 PUSH2 0x912 PUSH2 0x90D DUP5 PUSH2 0x3B8 JUMP JUMPDEST PUSH2 0x8F4 JUMP JUMPDEST PUSH2 0x3B8 JUMP JUMPDEST SWAP1 POP SWAP2 SWAP1 POP JUMP JUMPDEST PUSH0 DUP2 SWAP1 POP SWAP2 SWAP1 POP JUMP JUMPDEST PUSH2 0x930 DUP4 PUSH2 0x8FD JUMP JUMPDEST PUSH2 0x944 PUSH2 0x93C DUP3 PUSH2 0x91E JUMP JUMPDEST DUP5 DUP5 SLOAD PUSH2 0x8A3 JUMP JUMPDEST DUP3 SSTORE POP POP POP POP JUMP JUMPDEST PUSH0 SWAP1 JUMP JUMPDEST PUSH2 0x958 PUSH2 0x94C JUMP JUMPDEST PUSH2 0x963 DUP2 DUP5 DUP5 PUSH2 0x927 JUMP JUMPDEST POP POP POP JUMP JUMPDEST JUMPDEST DUP2 DUP2 LT ISZERO PUSH2 0x986 JUMPI PUSH2 0x97B PUSH0 DUP3 PUSH2 0x950 JUMP JUMPDEST PUSH1 0x1 DUP2 ADD SWAP1 POP PUSH2 0x969 JUMP JUMPDEST POP POP JUMP JUMPDEST PUSH1 0x1F DUP3 GT ISZERO PUSH2 0x9CB JUMPI PUSH2 0x99C DUP2 PUSH2 0x876 JUMP JUMPDEST PUSH2 0x9A5 DUP5 PUSH2 0x888 JUMP JUMPDEST DUP2 ADD PUSH1 0x20 DUP6 LT ISZERO PUSH2 0x9B4 JUMPI DUP2 SWAP1 POP JUMPDEST PUSH2 0x9C8 PUSH2 0x9C0 DUP6 PUSH2 0x888 JUMP JUMPDEST DUP4 ADD DUP3 PUSH2 0x968 JUMP JUMPDEST POP POP JUMPDEST POP POP POP JUMP JUMPDEST PUSH0 DUP3 DUP3 SHR SWAP1 POP SWAP3 SWAP2 POP POP JUMP JUMPDEST PUSH0 PUSH2 0x9EB PUSH0 NOT DUP5 PUSH1 0x8 MUL PUSH2 0x9D0 JUMP JUMPDEST NOT DUP1 DUP4 AND SWAP2 POP POP SWAP3 SWAP2 POP POP JUMP JUMPDEST PUSH0 PUSH2 0xA03 DUP4 DUP4 PUSH2 0x9DC JUMP JUMPDEST SWAP2 POP DUP3 PUSH1 0x2 MUL DUP3 OR SWAP1 POP SWAP3 SWAP2 POP POP JUMP JUMPDEST PUSH2 0xA1C DUP3 PUSH2 0x416 JUMP JUMPDEST PUSH8 0xFFFFFFFFFFFFFFFF DUP2 GT ISZERO PUSH2 0xA35 JUMPI PUSH2 0xA34 PUSH2 0x4C8 JUMP JUMPDEST JUMPDEST PUSH2 0xA3F DUP3 SLOAD PUSH2 0x846 JUMP JUMPDEST PUSH2 0xA4A DUP3 DUP3 DUP6 PUSH2 0x98A JUMP JUMPDEST PUSH0 PUSH1 0x20 SWAP1 POP PUSH1 0x1F DUP4 GT PUSH1 0x1 DUP2 EQ PUSH2 0xA7B JUMPI PUSH0 DUP5 ISZERO PUSH2 0xA69 JUMPI DUP3 DUP8 ADD MLOAD SWAP1 POP JUMPDEST PUSH2 0xA73 DUP6 DUP3 PUSH2 0x9F8 JUMP JUMPDEST DUP7 SSTORE POP PUSH2 0xADA JUMP JUMPDEST PUSH1 0x1F NOT DUP5 AND PUSH2 0xA89 DUP7 PUSH2 0x876 JUMP JUMPDEST PUSH0 JUMPDEST DUP3 DUP2 LT ISZERO PUSH2 0xAB0 JUMPI DUP5 DUP10 ADD MLOAD DUP3 SSTORE PUSH1 0x1 DUP3 ADD SWAP2 POP PUSH1 0x20 DUP6 ADD SWAP5 POP PUSH1 0x20 DUP2 ADD SWAP1 POP PUSH2 0xA8B JUMP JUMPDEST DUP7 DUP4 LT ISZERO PUSH2 0xACD JUMPI DUP5 DUP10 ADD MLOAD PUSH2 0xAC9 PUSH1 0x1F DUP10 AND DUP3 PUSH2 0x9DC JUMP JUMPDEST DUP4 SSTORE POP JUMPDEST PUSH1 0x1 PUSH1 0x2 DUP9 MUL ADD DUP9 SSTORE POP POP POP JUMPDEST POP POP POP POP POP POP JUMP JUMPDEST PUSH32 0x4E487B7100000000000000000000000000000000000000000000000000000000 PUSH0 MSTORE PUSH1 0x11 PUSH1 0x4 MSTORE PUSH1 0x24 PUSH0 REVERT JUMPDEST PUSH0 PUSH2 0xB19 DUP3 PUSH2 0x3B8 JUMP JUMPDEST SWAP2 POP PUSH2 0xB24 DUP4 PUSH2 0x3B8 JUMP JUMPDEST SWAP3 POP DUP3 DUP3 ADD SWAP1 POP DUP1 DUP3 GT ISZERO PUSH2 0xB3C JUMPI PUSH2 0xB3B PUSH2 0xAE2 JUMP JUMPDEST JUMPDEST SWAP3 SWAP2 POP POP JUMP INVALID LOG2 PUSH5 0x6970667358 0x22 SLT KECCAK256 0xC1 0x2D 0xB5 0xDB PUSH21 0x7ED9675980F9AE13226C2DAAB3B007D5F7310BB4F4 0xF6 0xC6 0xFC 0x4A PUSH24 0x5D64736F6C63430008160033000000000000000000000000 "
		},
		"gasEstimates": {
			"creation": {
				"codeDepositCost": "587200",
				"executionCost": "617",
				"totalCost": "587817"
			},
			"external": {
				"addToA(uint256)": "infinite",
				"getStudents()": "infinite",
				"setGrade(uint256)": "infinite",
				"setStudent(string,uint256,uint256)": "infinite"
			}
		},
		"methodIdentifiers": {
			"addToA(uint256)": "d116a439",
			"getStudents()": "f1d064b3",
			"setGrade(uint256)": "674271cd",
			"setStudent(string,uint256,uint256)": "82fae9b7"
		}
	},
	"abi": [
		{
			"inputs": [
				{
					"internalType": "uint256",
					"name": "_b",
					"type": "uint256"
				}
			],
			"name": "addToA",
			"outputs": [
				{
					"internalType": "uint256",
					"name": "",
					"type": "uint256"
				}
			],
			"stateMutability": "view",
			"type": "function"
		},
		{
			"inputs": [],
			"name": "getStudents",
			"outputs": [
				{
					"components": [
						{
							"internalType": "string",
							"name": "name",
							"type": "string"
						},
						{
							"internalType": "uint256",
							"name": "number",
							"type": "uint256"
						},
						{
							"internalType": "uint256",
							"name": "score",
							"type": "uint256"
						},
						{
							"internalType": "string",
							"name": "grade",
							"type": "string"
						}
					],
					"internalType": "struct School.Student[]",
					"name": "",
					"type": "tuple[]"
				}
			],
			"stateMutability": "view",
			"type": "function"
		},
		{
			"inputs": [
				{
					"internalType": "uint256",
					"name": "_n",
					"type": "uint256"
				}
			],
			"name": "setGrade",
			"outputs": [
				{
					"internalType": "string",
					"name": "",
					"type": "string"
				}
			],
			"stateMutability": "pure",
			"type": "function"
		},
		{
			"inputs": [
				{
					"internalType": "string",
					"name": "_name",
					"type": "string"
				},
				{
					"internalType": "uint256",
					"name": "_number",
					"type": "uint256"
				},
				{
					"internalType": "uint256",
					"name": "_score",
					"type": "uint256"
				}
			],
			"name": "setStudent",
			"outputs": [],
			"stateMutability": "nonpayable",
			"type": "function"
		}
	]
}